{
    "_format": "hh-sol-artifact-1",
    "contractName": "Management",
    "sourceName": "contracts/attributeManagement.sol",
    "abi": [
        {
            "inputs": [
                {
                    "internalType": "address",
                    "name": "",
                    "type": "address"
                }
            ],
            "name": "Attributelist",
            "outputs": [
                {
                    "internalType": "uint256",
                    "name": "Stamina",
                    "type": "uint256"
                },
                {
                    "internalType": "uint256",
                    "name": "Life",
                    "type": "uint256"
                },
                {
                    "internalType": "uint256",
                    "name": "Strength",
                    "type": "uint256"
                },
                {
                    "internalType": "uint256",
                    "name": "Intelligence",
                    "type": "uint256"
                },
                {
                    "internalType": "uint256",
                    "name": "Attack",
                    "type": "uint256"
                },
                {
                    "internalType": "uint256",
                    "name": "Defense",
                    "type": "uint256"
                },
                {
                    "internalType": "uint256",
                    "name": "Level",
                    "type": "uint256"
                }
            ],
            "stateMutability": "view",
            "type": "function"
        },
        {
            "inputs": [
                {
                    "internalType": "address",
                    "name": "Nftcontract",
                    "type": "address"
                },
                {
                    "internalType": "uint256",
                    "name": "Stamina",
                    "type": "uint256"
                },
                {
                    "internalType": "uint256",
                    "name": "Life",
                    "type": "uint256"
                },
                {
                    "internalType": "uint256",
                    "name": "Strength",
                    "type": "uint256"
                },
                {
                    "internalType": "uint256",
                    "name": "Intelligence",
                    "type": "uint256"
                },
                {
                    "internalType": "uint256",
                    "name": "Attack",
                    "type": "uint256"
                },
                {
                    "internalType": "uint256",
                    "name": "Defense",
                    "type": "uint256"
                },
                {
                    "internalType": "uint256",
                    "name": "Level",
                    "type": "uint256"
                }
            ],
            "name": "addAttribute",
            "outputs": [],
            "stateMutability": "nonpayable",
            "type": "function"
        },
        {
            "inputs": [
                {
                    "internalType": "address",
                    "name": "NftContract",
                    "type": "address"
                },
                {
                    "internalType": "uint256",
                    "name": "tokenId",
                    "type": "uint256"
                }
            ],
            "name": "destroyNft1155",
            "outputs": [],
            "stateMutability": "nonpayable",
            "type": "function"
        },
        {
            "inputs": [
                {
                    "internalType": "address",
                    "name": "NftContract",
                    "type": "address"
                },
                {
                    "internalType": "uint256",
                    "name": "tokenId",
                    "type": "uint256"
                }
            ],
            "name": "destroyNft721",
            "outputs": [],
            "stateMutability": "nonpayable",
            "type": "function"
        }
    ],
    "bytecode": "0x60806040527313dbb38705d4384e0a76bc33bb44e709b4122adf600160006101000a81548173ffffffffffffffffffffffffffffffffffffffff021916908373ffffffffffffffffffffffffffffffffffffffff16021790555034801561006557600080fd5b50610aea806100756000396000f3fe608060405234801561001057600080fd5b506004361061004c5760003560e01c8063018b69ae146100515780637b19c0eb14610087578063ddc93abc146100a3578063df1e48de146100bf575b600080fd5b61006b600480360381019061006691906106b2565b6100db565b60405161007e97969594939291906106f8565b60405180910390f35b6100a1600480360381019061009c9190610793565b61011d565b005b6100bd60048036038101906100b891906107d3565b610352565b005b6100d960048036038101906100d49190610793565b610416565b005b60006020528060005260406000206000915090508060000154908060010154908060020154908060030154908060040154908060050154908060060154905087565b60008290508073ffffffffffffffffffffffffffffffffffffffff1663095ea7b330846040518363ffffffff1660e01b815260040161015d929190610898565b600060405180830381600087803b15801561017757600080fd5b505af115801561018b573d6000803e3d6000fd5b505050508073ffffffffffffffffffffffffffffffffffffffff166323b872dd3361dead856040518463ffffffff1660e01b81526004016101ce939291906108c1565b600060405180830381600087803b1580156101e857600080fd5b505af11580156101fc573d6000803e3d6000fd5b50505050600080600061012373ffffffffffffffffffffffffffffffffffffffff1673ffffffffffffffffffffffffffffffffffffffff1681526020019081526020016000206040518060e00160405290816000820154815260200160018201548152602001600282015481526020016003820154815260200160048201548152602001600582015481526020016006820154815250509050600160009054906101000a900473ffffffffffffffffffffffffffffffffffffffff1673ffffffffffffffffffffffffffffffffffffffff1663ce5f4bd033836000015184602001518560400151866060015187608001518860a001518960c001516040518963ffffffff1660e01b815260040161031a9897969594939291906108f8565b600060405180830381600087803b15801561033457600080fd5b505af1158015610348573d6000803e3d6000fd5b5050505050505050565b6040518060e00160405280888152602001878152602001868152602001858152602001848152602001838152602001828152506000808a73ffffffffffffffffffffffffffffffffffffffff1673ffffffffffffffffffffffffffffffffffffffff168152602001908152602001600020600082015181600001556020820151816001015560408201518160020155606082015181600301556080820151816004015560a0820151816005015560c082015181600601559050505050505050505050565b60008290508073ffffffffffffffffffffffffffffffffffffffff1663a22cb4653060016040518363ffffffff1660e01b8152600401610457929190610991565b600060405180830381600087803b15801561047157600080fd5b505af1158015610485573d6000803e3d6000fd5b505050508073ffffffffffffffffffffffffffffffffffffffff1663f242432a3361dead8560016040518563ffffffff1660e01b81526004016104cb9493929190610a5c565b600060405180830381600087803b1580156104e557600080fd5b505af11580156104f9573d6000803e3d6000fd5b50505050600080600061012373ffffffffffffffffffffffffffffffffffffffff1673ffffffffffffffffffffffffffffffffffffffff1681526020019081526020016000206040518060e00160405290816000820154815260200160018201548152602001600282015481526020016003820154815260200160048201548152602001600582015481526020016006820154815250509050600160009054906101000a900473ffffffffffffffffffffffffffffffffffffffff1673ffffffffffffffffffffffffffffffffffffffff1663ce5f4bd033836000015184602001518560400151866060015187608001518860a001518960c001516040518963ffffffff1660e01b81526004016106179897969594939291906108f8565b600060405180830381600087803b15801561063157600080fd5b505af1158015610645573d6000803e3d6000fd5b5050505050505050565b600080fd5b600073ffffffffffffffffffffffffffffffffffffffff82169050919050565b600061067f82610654565b9050919050565b61068f81610674565b811461069a57600080fd5b50565b6000813590506106ac81610686565b92915050565b6000602082840312156106c8576106c761064f565b5b60006106d68482850161069d565b91505092915050565b6000819050919050565b6106f2816106df565b82525050565b600060e08201905061070d600083018a6106e9565b61071a60208301896106e9565b61072760408301886106e9565b61073460608301876106e9565b61074160808301866106e9565b61074e60a08301856106e9565b61075b60c08301846106e9565b98975050505050505050565b610770816106df565b811461077b57600080fd5b50565b60008135905061078d81610767565b92915050565b600080604083850312156107aa576107a961064f565b5b60006107b88582860161069d565b92505060206107c98582860161077e565b9150509250929050565b600080600080600080600080610100898b0312156107f4576107f361064f565b5b60006108028b828c0161069d565b98505060206108138b828c0161077e565b97505060406108248b828c0161077e565b96505060606108358b828c0161077e565b95505060806108468b828c0161077e565b94505060a06108578b828c0161077e565b93505060c06108688b828c0161077e565b92505060e06108798b828c0161077e565b9150509295985092959890939650565b61089281610674565b82525050565b60006040820190506108ad6000830185610889565b6108ba60208301846106e9565b9392505050565b60006060820190506108d66000830186610889565b6108e36020830185610889565b6108f060408301846106e9565b949350505050565b60006101008201905061090e600083018b610889565b61091b602083018a6106e9565b61092860408301896106e9565b61093560608301886106e9565b61094260808301876106e9565b61094f60a08301866106e9565b61095c60c08301856106e9565b61096960e08301846106e9565b9998505050505050505050565b60008115159050919050565b61098b81610976565b82525050565b60006040820190506109a66000830185610889565b6109b36020830184610982565b9392505050565b6000819050919050565b6000819050919050565b60006109e96109e46109df846109ba565b6109c4565b6106df565b9050919050565b6109f9816109ce565b82525050565b600082825260208201905092915050565b7f3078000000000000000000000000000000000000000000000000000000000000600082015250565b6000610a466002836109ff565b9150610a5182610a10565b602082019050919050565b600060a082019050610a716000830187610889565b610a7e6020830186610889565b610a8b60408301856106e9565b610a9860608301846109f0565b8181036080830152610aa981610a39565b90509594505050505056fea264697066735822122019620c6505e189db3b18bdbd4227391252bd05fcd61321b3bdb5c5ac3e17382464736f6c63430008100033",
    "linkReferences": {},
    "deployedLinkReferences": {}
}