{
	"utils/calculateUtils.sol": {
		"CalculateUtils": {
			"abi": [
				{
					"inputs": [
						{
							"internalType": "string",
							"name": "",
							"type": "string"
						}
					],
					"name": "ParameterException",
					"type": "error"
				},
				{
					"inputs": [
						{
							"internalType": "uint256",
							"name": "_bounty",
							"type": "uint256"
						},
						{
							"internalType": "uint256",
							"name": "_deduct",
							"type": "uint256"
						}
					],
					"name": "getDeductMoney",
					"outputs": [
						{
							"internalType": "uint256",
							"name": "",
							"type": "uint256"
						}
					],
					"stateMutability": "pure",
					"type": "function"
				},
				{
					"inputs": [
						{
							"internalType": "uint256",
							"name": "_transNumber",
							"type": "uint256"
						}
					],
					"name": "getMatNumber",
					"outputs": [
						{
							"internalType": "uint256",
							"name": "",
							"type": "uint256"
						}
					],
					"stateMutability": "pure",
					"type": "function"
				},
				{
					"inputs": [
						{
							"internalType": "uint256",
							"name": "_number",
							"type": "uint256"
						},
						{
							"internalType": "uint256",
							"name": "_ratio",
							"type": "uint256"
						}
					],
					"name": "getPercentage",
					"outputs": [
						{
							"internalType": "uint256",
							"name": "returnNumber",
							"type": "uint256"
						}
					],
					"stateMutability": "pure",
					"type": "function"
				},
				{
					"inputs": [
						{
							"internalType": "uint256",
							"name": "_ratio",
							"type": "uint256"
						},
						{
							"internalType": "uint256",
							"name": "_bounty",
							"type": "uint256"
						}
					],
					"name": "getPunish",
					"outputs": [
						{
							"internalType": "uint256",
							"name": "",
							"type": "uint256"
						}
					],
					"stateMutability": "pure",
					"type": "function"
				},
				{
					"inputs": [
						{
							"internalType": "uint256",
							"name": "_bounts",
							"type": "uint256"
						}
					],
					"name": "punishRatio",
					"outputs": [
						{
							"internalType": "uint256",
							"name": "",
							"type": "uint256"
						}
					],
					"stateMutability": "pure",
					"type": "function"
				}
			],
			"devdoc": {
				"kind": "dev",
				"methods": {},
				"version": 1
			},
			"evm": {
				"assembly": "    /* \"utils/calculateUtils.sol\":145:3082  library CalculateUtils {\r... */\n  dataSize(sub_0)\n  dataOffset(sub_0)\n  0x0b\n  dup3\n  dup3\n  dup3\n  codecopy\n  dup1\n  mload\n  0x00\n  byte\n  0x73\n  eq\n  tag_1\n  jumpi\n  mstore(0x00, shl(0xe0, 0x4e487b71))\n  mstore(0x04, 0x00)\n  revert(0x00, 0x24)\ntag_1:\n  mstore(0x00, address)\n  0x73\n  dup2\n  mstore8\n  dup3\n  dup2\n  return\nstop\n\nsub_0: assembly {\n        /* \"utils/calculateUtils.sol\":145:3082  library CalculateUtils {\r... */\n      eq(address, deployTimeAddress())\n      mstore(0x40, 0x80)\n      jumpi(tag_1, lt(calldatasize, 0x04))\n      shr(0xe0, calldataload(0x00))\n      dup1\n      0x4f6ca3ce\n      eq\n      tag_2\n      jumpi\n      dup1\n      0x8f861ba7\n      eq\n      tag_3\n      jumpi\n      dup1\n      0x9ce5c4bf\n      eq\n      tag_4\n      jumpi\n      dup1\n      0xf2e60202\n      eq\n      tag_5\n      jumpi\n      dup1\n      0xf74f3655\n      eq\n      tag_6\n      jumpi\n    tag_1:\n      0x00\n      dup1\n      revert\n        /* \"utils/calculateUtils.sol\":305:1102  function punishRatio(uint256 _bounts) public pure returns (uint256) {\r... */\n    tag_2:\n      tag_7\n      tag_8\n      calldatasize\n      0x04\n      tag_9\n      jump\t// in\n    tag_8:\n      tag_10\n      jump\t// in\n    tag_7:\n      mload(0x40)\n        /* \"#utility.yul\":1018:1043   */\n      swap1\n      dup2\n      mstore\n        /* \"#utility.yul\":1006:1008   */\n      0x20\n        /* \"#utility.yul\":991:1009   */\n      add\n        /* \"utils/calculateUtils.sol\":305:1102  function punishRatio(uint256 _bounts) public pure returns (uint256) {\r... */\n      mload(0x40)\n      dup1\n      swap2\n      sub\n      swap1\n      return\n        /* \"utils/calculateUtils.sol\":2902:3079  function getDeductMoney(uint256 _bounty, uint256 _deduct)\r... */\n    tag_3:\n      tag_7\n      tag_14\n      calldatasize\n      0x04\n      tag_15\n      jump\t// in\n    tag_14:\n      tag_16\n      jump\t// in\n        /* \"utils/calculateUtils.sol\":2696:2865  function getPunish(uint256 _ratio, uint256 _bounty)\r... */\n    tag_4:\n      tag_7\n      tag_19\n      calldatasize\n      0x04\n      tag_15\n      jump\t// in\n    tag_19:\n      tag_20\n      jump\t// in\n        /* \"utils/calculateUtils.sol\":1393:1701  function getMatNumber(uint256 _transNumber)\r... */\n    tag_5:\n      tag_7\n      tag_23\n      calldatasize\n      0x04\n      tag_9\n      jump\t// in\n    tag_23:\n      tag_24\n      jump\t// in\n        /* \"utils/calculateUtils.sol\":2468:2668  function getPercentage(uint256 _number, uint256 _ratio)\r... */\n    tag_6:\n      tag_7\n      tag_27\n      calldatasize\n      0x04\n      tag_15\n      jump\t// in\n    tag_27:\n      tag_28\n      jump\t// in\n        /* \"utils/calculateUtils.sol\":305:1102  function punishRatio(uint256 _bounts) public pure returns (uint256) {\r... */\n    tag_10:\n        /* \"utils/calculateUtils.sol\":364:371  uint256 */\n      0x00\n        /* \"utils/calculateUtils.sol\":384:397  uint256 ratio */\n      dup1\n        /* \"utils/calculateUtils.sol\":199:202  273 */\n      0x0111\n        /* \"utils/calculateUtils.sol\":412:419  _bounts */\n      dup4\n        /* \"utils/calculateUtils.sol\":412:426  _bounts < RATE */\n      lt\n        /* \"utils/calculateUtils.sol\":408:1072  if (_bounts < RATE) {\r... */\n      iszero\n      tag_31\n      jumpi\n      pop\n        /* \"utils/calculateUtils.sol\":451:452  1 */\n      0x01\n        /* \"utils/calculateUtils.sol\":408:1072  if (_bounts < RATE) {\r... */\n      jump(tag_57)\n    tag_31:\n        /* \"utils/calculateUtils.sol\":199:202  273 */\n      0x0111\n        /* \"utils/calculateUtils.sol\":474:481  _bounts */\n      dup4\n        /* \"utils/calculateUtils.sol\":474:489  _bounts >= RATE */\n      lt\n      iszero\n        /* \"utils/calculateUtils.sol\":474:513  _bounts >= RATE && _bounts < RATE * 1e1 */\n      dup1\n      iszero\n      tag_33\n      jumpi\n      pop\n        /* \"utils/calculateUtils.sol\":503:513  RATE * 1e1 */\n      tag_34\n        /* \"utils/calculateUtils.sol\":199:202  273 */\n      0x0111\n        /* \"utils/calculateUtils.sol\":510:513  1e1 */\n      0x0a\n        /* \"utils/calculateUtils.sol\":503:513  RATE * 1e1 */\n      tag_35\n      jump\t// in\n    tag_34:\n        /* \"utils/calculateUtils.sol\":493:500  _bounts */\n      dup4\n        /* \"utils/calculateUtils.sol\":493:513  _bounts < RATE * 1e1 */\n      lt\n        /* \"utils/calculateUtils.sol\":474:513  _bounts >= RATE && _bounts < RATE * 1e1 */\n    tag_33:\n        /* \"utils/calculateUtils.sol\":470:1072  if (_bounts >= RATE && _bounts < RATE * 1e1) {\r... */\n      iszero\n      tag_36\n      jumpi\n      pop\n        /* \"utils/calculateUtils.sol\":538:541  1e1 */\n      0x0a\n        /* \"utils/calculateUtils.sol\":470:1072  if (_bounts >= RATE && _bounts < RATE * 1e1) {\r... */\n      jump(tag_57)\n    tag_36:\n        /* \"utils/calculateUtils.sol\":574:584  RATE * 1e1 */\n      tag_38\n        /* \"utils/calculateUtils.sol\":199:202  273 */\n      0x0111\n        /* \"utils/calculateUtils.sol\":581:584  1e1 */\n      0x0a\n        /* \"utils/calculateUtils.sol\":574:584  RATE * 1e1 */\n      tag_35\n      jump\t// in\n    tag_38:\n        /* \"utils/calculateUtils.sol\":563:570  _bounts */\n      dup4\n        /* \"utils/calculateUtils.sol\":563:584  _bounts >= RATE * 1e1 */\n      lt\n      iszero\n        /* \"utils/calculateUtils.sol\":563:608  _bounts >= RATE * 1e1 && _bounts < RATE * 1e2 */\n      dup1\n      iszero\n      tag_39\n      jumpi\n      pop\n        /* \"utils/calculateUtils.sol\":598:608  RATE * 1e2 */\n      tag_40\n        /* \"utils/calculateUtils.sol\":199:202  273 */\n      0x0111\n        /* \"utils/calculateUtils.sol\":605:608  1e2 */\n      0x64\n        /* \"utils/calculateUtils.sol\":598:608  RATE * 1e2 */\n      tag_35\n      jump\t// in\n    tag_40:\n        /* \"utils/calculateUtils.sol\":588:595  _bounts */\n      dup4\n        /* \"utils/calculateUtils.sol\":588:608  _bounts < RATE * 1e2 */\n      lt\n        /* \"utils/calculateUtils.sol\":563:608  _bounts >= RATE * 1e1 && _bounts < RATE * 1e2 */\n    tag_39:\n        /* \"utils/calculateUtils.sol\":559:1072  if (_bounts >= RATE * 1e1 && _bounts < RATE * 1e2) {\r... */\n      iszero\n      tag_41\n      jumpi\n      pop\n        /* \"utils/calculateUtils.sol\":633:636  1e2 */\n      0x64\n        /* \"utils/calculateUtils.sol\":559:1072  if (_bounts >= RATE * 1e1 && _bounts < RATE * 1e2) {\r... */\n      jump(tag_57)\n    tag_41:\n        /* \"utils/calculateUtils.sol\":669:679  RATE * 1e2 */\n      tag_43\n        /* \"utils/calculateUtils.sol\":199:202  273 */\n      0x0111\n        /* \"utils/calculateUtils.sol\":676:679  1e2 */\n      0x64\n        /* \"utils/calculateUtils.sol\":669:679  RATE * 1e2 */\n      tag_35\n      jump\t// in\n    tag_43:\n        /* \"utils/calculateUtils.sol\":658:665  _bounts */\n      dup4\n        /* \"utils/calculateUtils.sol\":658:679  _bounts >= RATE * 1e2 */\n      lt\n      iszero\n        /* \"utils/calculateUtils.sol\":658:703  _bounts >= RATE * 1e2 && _bounts < RATE * 1e3 */\n      dup1\n      iszero\n      tag_44\n      jumpi\n      pop\n        /* \"utils/calculateUtils.sol\":693:703  RATE * 1e3 */\n      tag_45\n        /* \"utils/calculateUtils.sol\":199:202  273 */\n      0x0111\n        /* \"utils/calculateUtils.sol\":700:703  1e3 */\n      0x03e8\n        /* \"utils/calculateUtils.sol\":693:703  RATE * 1e3 */\n      tag_35\n      jump\t// in\n    tag_45:\n        /* \"utils/calculateUtils.sol\":683:690  _bounts */\n      dup4\n        /* \"utils/calculateUtils.sol\":683:703  _bounts < RATE * 1e3 */\n      lt\n        /* \"utils/calculateUtils.sol\":658:703  _bounts >= RATE * 1e2 && _bounts < RATE * 1e3 */\n    tag_44:\n        /* \"utils/calculateUtils.sol\":654:1072  if (_bounts >= RATE * 1e2 && _bounts < RATE * 1e3) {\r... */\n      iszero\n      tag_46\n      jumpi\n      pop\n        /* \"utils/calculateUtils.sol\":728:731  1e3 */\n      0x03e8\n        /* \"utils/calculateUtils.sol\":654:1072  if (_bounts >= RATE * 1e2 && _bounts < RATE * 1e3) {\r... */\n      jump(tag_57)\n    tag_46:\n        /* \"utils/calculateUtils.sol\":764:774  RATE * 1e3 */\n      tag_48\n        /* \"utils/calculateUtils.sol\":199:202  273 */\n      0x0111\n        /* \"utils/calculateUtils.sol\":771:774  1e3 */\n      0x03e8\n        /* \"utils/calculateUtils.sol\":764:774  RATE * 1e3 */\n      tag_35\n      jump\t// in\n    tag_48:\n        /* \"utils/calculateUtils.sol\":753:760  _bounts */\n      dup4\n        /* \"utils/calculateUtils.sol\":753:774  _bounts >= RATE * 1e3 */\n      lt\n      iszero\n        /* \"utils/calculateUtils.sol\":753:799  _bounts >= RATE * 1e3 && _bounts <= RATE * 1e4 */\n      dup1\n      iszero\n      tag_49\n      jumpi\n      pop\n        /* \"utils/calculateUtils.sol\":789:799  RATE * 1e4 */\n      tag_50\n        /* \"utils/calculateUtils.sol\":199:202  273 */\n      0x0111\n        /* \"utils/calculateUtils.sol\":796:799  1e4 */\n      0x2710\n        /* \"utils/calculateUtils.sol\":789:799  RATE * 1e4 */\n      tag_35\n      jump\t// in\n    tag_50:\n        /* \"utils/calculateUtils.sol\":778:785  _bounts */\n      dup4\n        /* \"utils/calculateUtils.sol\":778:799  _bounts <= RATE * 1e4 */\n      gt\n      iszero\n        /* \"utils/calculateUtils.sol\":753:799  _bounts >= RATE * 1e3 && _bounts <= RATE * 1e4 */\n    tag_49:\n        /* \"utils/calculateUtils.sol\":749:1072  if (_bounts >= RATE * 1e3 && _bounts <= RATE * 1e4) {\r... */\n      iszero\n      tag_51\n      jumpi\n      pop\n        /* \"utils/calculateUtils.sol\":824:827  1e4 */\n      0x2710\n        /* \"utils/calculateUtils.sol\":749:1072  if (_bounts >= RATE * 1e3 && _bounts <= RATE * 1e4) {\r... */\n      jump(tag_57)\n    tag_51:\n        /* \"utils/calculateUtils.sol\":860:870  RATE * 1e4 */\n      tag_53\n        /* \"utils/calculateUtils.sol\":199:202  273 */\n      0x0111\n        /* \"utils/calculateUtils.sol\":867:870  1e4 */\n      0x2710\n        /* \"utils/calculateUtils.sol\":860:870  RATE * 1e4 */\n      tag_35\n      jump\t// in\n    tag_53:\n        /* \"utils/calculateUtils.sol\":849:856  _bounts */\n      dup4\n        /* \"utils/calculateUtils.sol\":849:870  _bounts >= RATE * 1e4 */\n      lt\n      iszero\n        /* \"utils/calculateUtils.sol\":849:895  _bounts >= RATE * 1e4 && _bounts <= RATE * 1e5 */\n      dup1\n      iszero\n      tag_54\n      jumpi\n      pop\n        /* \"utils/calculateUtils.sol\":885:895  RATE * 1e5 */\n      tag_55\n        /* \"utils/calculateUtils.sol\":199:202  273 */\n      0x0111\n        /* \"utils/calculateUtils.sol\":892:895  1e5 */\n      0x0186a0\n        /* \"utils/calculateUtils.sol\":885:895  RATE * 1e5 */\n      tag_35\n      jump\t// in\n    tag_55:\n        /* \"utils/calculateUtils.sol\":874:881  _bounts */\n      dup4\n        /* \"utils/calculateUtils.sol\":874:895  _bounts <= RATE * 1e5 */\n      gt\n      iszero\n        /* \"utils/calculateUtils.sol\":849:895  _bounts >= RATE * 1e4 && _bounts <= RATE * 1e5 */\n    tag_54:\n        /* \"utils/calculateUtils.sol\":845:1072  if (_bounts >= RATE * 1e4 && _bounts <= RATE * 1e5) {\r... */\n      iszero\n      tag_56\n      jumpi\n      pop\n        /* \"utils/calculateUtils.sol\":920:923  1e5 */\n      0x0186a0\n        /* \"utils/calculateUtils.sol\":845:1072  if (_bounts >= RATE * 1e4 && _bounts <= RATE * 1e5) {\r... */\n      jump(tag_57)\n    tag_56:\n        /* \"utils/calculateUtils.sol\":963:1060  ParameterException(\r... */\n      mload(0x40)\n      shl(0xe2, 0x347626dd)\n      dup2\n      mstore\n        /* \"#utility.yul\":654:656   */\n      0x20\n        /* \"utils/calculateUtils.sol\":963:1060  ParameterException(\r... */\n      0x04\n      dup3\n      add\n        /* \"#utility.yul\":636:657   */\n      mstore\n        /* \"#utility.yul\":693:695   */\n      0x2b\n        /* \"#utility.yul\":673:691   */\n      0x24\n      dup3\n      add\n        /* \"#utility.yul\":666:696   */\n      mstore\n        /* \"#utility.yul\":732:766   */\n      0x556e61626c6520746f2063616c63756c6174652c506c65617365207375626d69\n        /* \"#utility.yul\":712:730   */\n      0x44\n      dup3\n      add\n        /* \"#utility.yul\":705:767   */\n      mstore\n      shl(0xaa, 0x1d0818481c995c5d595cdd)\n        /* \"#utility.yul\":783:801   */\n      0x64\n      dup3\n      add\n        /* \"#utility.yul\":776:817   */\n      mstore\n        /* \"#utility.yul\":834:853   */\n      0x84\n      add\n        /* \"utils/calculateUtils.sol\":963:1060  ParameterException(\r... */\n      mload(0x40)\n      dup1\n      swap2\n      sub\n      swap1\n      revert\n        /* \"utils/calculateUtils.sol\":845:1072  if (_bounts >= RATE * 1e4 && _bounts <= RATE * 1e5) {\r... */\n    tag_57:\n        /* \"utils/calculateUtils.sol\":1089:1094  ratio */\n      swap3\n        /* \"utils/calculateUtils.sol\":305:1102  function punishRatio(uint256 _bounts) public pure returns (uint256) {\r... */\n      swap2\n      pop\n      pop\n      jump\t// out\n        /* \"utils/calculateUtils.sol\":2902:3079  function getDeductMoney(uint256 _bounty, uint256 _deduct)\r... */\n    tag_16:\n        /* \"utils/calculateUtils.sol\":3008:3015  uint256 */\n      0x00\n        /* \"utils/calculateUtils.sol\":3040:3071  getPercentage(_bounty, _deduct) */\n      tag_61\n        /* \"utils/calculateUtils.sol\":3054:3061  _bounty */\n      dup4\n        /* \"utils/calculateUtils.sol\":3063:3070  _deduct */\n      dup4\n        /* \"utils/calculateUtils.sol\":3040:3053  getPercentage */\n      tag_28\n        /* \"utils/calculateUtils.sol\":3040:3071  getPercentage(_bounty, _deduct) */\n      jump\t// in\n    tag_61:\n        /* \"utils/calculateUtils.sol\":3033:3071  return getPercentage(_bounty, _deduct) */\n      swap4\n        /* \"utils/calculateUtils.sol\":2902:3079  function getDeductMoney(uint256 _bounty, uint256 _deduct)\r... */\n      swap3\n      pop\n      pop\n      pop\n      jump\t// out\n        /* \"utils/calculateUtils.sol\":2696:2865  function getPunish(uint256 _ratio, uint256 _bounty)\r... */\n    tag_20:\n        /* \"utils/calculateUtils.sol\":2796:2803  uint256 */\n      0x00\n        /* \"utils/calculateUtils.sol\":2828:2857  SafeMath.div(_bounty, _ratio) */\n      tag_61\n        /* \"utils/calculateUtils.sol\":2841:2848  _bounty */\n      dup3\n        /* \"utils/calculateUtils.sol\":2850:2856  _ratio */\n      dup5\n        /* \"utils/calculateUtils.sol\":2828:2840  SafeMath.div */\n      tag_64\n        /* \"utils/calculateUtils.sol\":2828:2857  SafeMath.div(_bounty, _ratio) */\n      jump\t// in\n        /* \"utils/calculateUtils.sol\":1393:1701  function getMatNumber(uint256 _transNumber)\r... */\n    tag_24:\n        /* \"utils/calculateUtils.sol\":1487:1494  uint256 */\n      0x00\n        /* \"utils/calculateUtils.sol\":1512:1525  uint256 _maxV */\n      dup1\n        /* \"utils/calculateUtils.sol\":233:234  3 */\n      0x03\n        /* \"utils/calculateUtils.sol\":1540:1552  _transNumber */\n      dup4\n        /* \"utils/calculateUtils.sol\":1540:1560  _transNumber <= VF_N */\n      gt\n        /* \"utils/calculateUtils.sol\":1536:1671  if (_transNumber <= VF_N) {\r... */\n      tag_66\n      jumpi\n      pop\n        /* \"utils/calculateUtils.sol\":1585:1586  1 */\n      0x01\n        /* \"utils/calculateUtils.sol\":1536:1671  if (_transNumber <= VF_N) {\r... */\n      jump(tag_57)\n    tag_66:\n        /* \"utils/calculateUtils.sol\":1627:1659  SafeMath.div(_transNumber, VF_N) */\n      tag_61\n        /* \"utils/calculateUtils.sol\":1640:1652  _transNumber */\n      dup4\n        /* \"utils/calculateUtils.sol\":233:234  3 */\n      0x03\n        /* \"utils/calculateUtils.sol\":1627:1639  SafeMath.div */\n      tag_64\n        /* \"utils/calculateUtils.sol\":1627:1659  SafeMath.div(_transNumber, VF_N) */\n      jump\t// in\n        /* \"utils/calculateUtils.sol\":2468:2668  function getPercentage(uint256 _number, uint256 _ratio)\r... */\n    tag_28:\n        /* \"utils/calculateUtils.sol\":2572:2592  uint256 returnNumber */\n      0x00\n        /* \"utils/calculateUtils.sol\":2657:2660  100 */\n      0x64\n        /* \"utils/calculateUtils.sol\":2625:2654  SafeMath.mul(_number, _ratio) */\n      tag_70\n        /* \"utils/calculateUtils.sol\":2638:2645  _number */\n      dup5\n        /* \"utils/calculateUtils.sol\":2647:2653  _ratio */\n      dup5\n        /* \"utils/calculateUtils.sol\":2625:2637  SafeMath.mul */\n      tag_71\n        /* \"utils/calculateUtils.sol\":2625:2654  SafeMath.mul(_number, _ratio) */\n      jump\t// in\n    tag_70:\n        /* \"utils/calculateUtils.sol\":2625:2660  SafeMath.mul(_number, _ratio) / 100 */\n      tag_61\n      swap2\n      swap1\n      tag_73\n      jump\t// in\n        /* \"contracts/utils/math/SafeMath.sol\":3850:3946  function div(uint256 a, uint256 b) internal pure returns (uint256) {... */\n    tag_64:\n        /* \"contracts/utils/math/SafeMath.sol\":3908:3915  uint256 */\n      0x00\n        /* \"contracts/utils/math/SafeMath.sol\":3934:3939  a / b */\n      tag_61\n        /* \"contracts/utils/math/SafeMath.sol\":3938:3939  b */\n      dup3\n        /* \"contracts/utils/math/SafeMath.sol\":3934:3935  a */\n      dup5\n        /* \"contracts/utils/math/SafeMath.sol\":3934:3939  a / b */\n      tag_73\n      jump\t// in\n        /* \"contracts/utils/math/SafeMath.sol\":3465:3561  function mul(uint256 a, uint256 b) internal pure returns (uint256) {... */\n    tag_71:\n        /* \"contracts/utils/math/SafeMath.sol\":3523:3530  uint256 */\n      0x00\n        /* \"contracts/utils/math/SafeMath.sol\":3549:3554  a * b */\n      tag_61\n        /* \"contracts/utils/math/SafeMath.sol\":3553:3554  b */\n      dup3\n        /* \"contracts/utils/math/SafeMath.sol\":3549:3550  a */\n      dup5\n        /* \"contracts/utils/math/SafeMath.sol\":3549:3554  a * b */\n      tag_35\n      jump\t// in\n        /* \"#utility.yul\":14:194   */\n    tag_9:\n        /* \"#utility.yul\":73:79   */\n      0x00\n        /* \"#utility.yul\":126:128   */\n      0x20\n        /* \"#utility.yul\":114:123   */\n      dup3\n        /* \"#utility.yul\":105:112   */\n      dup5\n        /* \"#utility.yul\":101:124   */\n      sub\n        /* \"#utility.yul\":97:129   */\n      slt\n        /* \"#utility.yul\":94:146   */\n      iszero\n      tag_80\n      jumpi\n        /* \"#utility.yul\":142:143   */\n      0x00\n        /* \"#utility.yul\":139:140   */\n      dup1\n        /* \"#utility.yul\":132:144   */\n      revert\n        /* \"#utility.yul\":94:146   */\n    tag_80:\n      pop\n        /* \"#utility.yul\":165:188   */\n      calldataload\n      swap2\n        /* \"#utility.yul\":14:194   */\n      swap1\n      pop\n      jump\t// out\n        /* \"#utility.yul\":199:447   */\n    tag_15:\n        /* \"#utility.yul\":267:273   */\n      0x00\n        /* \"#utility.yul\":275:281   */\n      dup1\n        /* \"#utility.yul\":328:330   */\n      0x40\n        /* \"#utility.yul\":316:325   */\n      dup4\n        /* \"#utility.yul\":307:314   */\n      dup6\n        /* \"#utility.yul\":303:326   */\n      sub\n        /* \"#utility.yul\":299:331   */\n      slt\n        /* \"#utility.yul\":296:348   */\n      iszero\n      tag_82\n      jumpi\n        /* \"#utility.yul\":344:345   */\n      0x00\n        /* \"#utility.yul\":341:342   */\n      dup1\n        /* \"#utility.yul\":334:346   */\n      revert\n        /* \"#utility.yul\":296:348   */\n    tag_82:\n      pop\n      pop\n        /* \"#utility.yul\":367:390   */\n      dup1\n      calldataload\n      swap3\n        /* \"#utility.yul\":437:439   */\n      0x20\n        /* \"#utility.yul\":422:440   */\n      swap1\n      swap2\n      add\n        /* \"#utility.yul\":409:441   */\n      calldataload\n      swap2\n      pop\n        /* \"#utility.yul\":199:447   */\n      jump\t// out\n        /* \"#utility.yul\":1054:1271   */\n    tag_73:\n        /* \"#utility.yul\":1094:1095   */\n      0x00\n        /* \"#utility.yul\":1120:1121   */\n      dup3\n        /* \"#utility.yul\":1110:1242   */\n      tag_86\n      jumpi\n        /* \"#utility.yul\":1164:1174   */\n      0x4e487b71\n        /* \"#utility.yul\":1159:1162   */\n      0xe0\n        /* \"#utility.yul\":1155:1175   */\n      shl\n        /* \"#utility.yul\":1152:1153   */\n      0x00\n        /* \"#utility.yul\":1145:1176   */\n      mstore\n        /* \"#utility.yul\":1199:1203   */\n      0x12\n        /* \"#utility.yul\":1196:1197   */\n      0x04\n        /* \"#utility.yul\":1189:1204   */\n      mstore\n        /* \"#utility.yul\":1227:1231   */\n      0x24\n        /* \"#utility.yul\":1224:1225   */\n      0x00\n        /* \"#utility.yul\":1217:1232   */\n      revert\n        /* \"#utility.yul\":1110:1242   */\n    tag_86:\n      pop\n        /* \"#utility.yul\":1256:1265   */\n      div\n      swap1\n        /* \"#utility.yul\":1054:1271   */\n      jump\t// out\n        /* \"#utility.yul\":1276:1541   */\n    tag_35:\n        /* \"#utility.yul\":1316:1323   */\n      0x00\n        /* \"#utility.yul\":1382:1383   */\n      dup2\n        /* \"#utility.yul\":1378:1379   */\n      0x00\n        /* \"#utility.yul\":1374:1380   */\n      not\n        /* \"#utility.yul\":1370:1384   */\n      div\n        /* \"#utility.yul\":1367:1368   */\n      dup4\n        /* \"#utility.yul\":1364:1385   */\n      gt\n        /* \"#utility.yul\":1359:1360   */\n      dup3\n        /* \"#utility.yul\":1352:1361   */\n      iszero\n        /* \"#utility.yul\":1345:1362   */\n      iszero\n        /* \"#utility.yul\":1341:1386   */\n      and\n        /* \"#utility.yul\":1338:1506   */\n      iszero\n      tag_88\n      jumpi\n        /* \"#utility.yul\":1428:1438   */\n      0x4e487b71\n        /* \"#utility.yul\":1423:1426   */\n      0xe0\n        /* \"#utility.yul\":1419:1439   */\n      shl\n        /* \"#utility.yul\":1416:1417   */\n      0x00\n        /* \"#utility.yul\":1409:1440   */\n      mstore\n        /* \"#utility.yul\":1463:1467   */\n      0x11\n        /* \"#utility.yul\":1460:1461   */\n      0x04\n        /* \"#utility.yul\":1453:1468   */\n      mstore\n        /* \"#utility.yul\":1491:1495   */\n      0x24\n        /* \"#utility.yul\":1488:1489   */\n      0x00\n        /* \"#utility.yul\":1481:1496   */\n      revert\n        /* \"#utility.yul\":1338:1506   */\n    tag_88:\n      pop\n        /* \"#utility.yul\":1526:1535   */\n      mul\n      swap1\n        /* \"#utility.yul\":1276:1541   */\n      jump\t// out\n\n    auxdata: 0xa264697066735822122029c0031de077b8339e4bbb71e6264aaa59b9d672f9882b9474b80d4bdeda8f2564736f6c63430008070033\n}\n",
				"bytecode": {
					"linkReferences": {},
					"object": "61038661003a600b82828239805160001a60731461002d57634e487b7160e01b600052600060045260246000fd5b30600052607381538281f3fe73000000000000000000000000000000000000000030146080604052600436106100615760003560e01c80634f6ca3ce146100665780638f861ba71461008b5780639ce5c4bf1461009e578063f2e60202146100b1578063f74f3655146100c4575b600080fd5b6100796100743660046102c6565b6100d7565b60405190815260200160405180910390f35b6100796100993660046102df565b610259565b6100796100ac3660046102df565b61026c565b6100796100bf3660046102c6565b610278565b6100796100d23660046102df565b610296565b6000806101118310156100ec57506001610253565b61011183101580156101095750610106610111600a610323565b83105b156101165750600a610253565b610123610111600a610323565b831015801561013d575061013a6101116064610323565b83105b1561014a57506064610253565b6101576101116064610323565b8310158015610172575061016f6101116103e8610323565b83105b1561018057506103e8610253565b61018e6101116103e8610323565b83101580156101aa57506101a6610111612710610323565b8311155b156101b85750612710610253565b6101c6610111612710610323565b83101580156101e357506101df610111620186a0610323565b8311155b156101f25750620186a0610253565b60405163347626dd60e21b815260206004820152602b60248201527f556e61626c6520746f2063616c63756c6174652c506c65617365207375626d6960448201526a1d0818481c995c5d595cdd60aa1b606482015260840160405180910390fd5b92915050565b60006102658383610296565b9392505050565b600061026582846102ae565b6000806003831161028b57506001610253565b6102658360036102ae565b600060646102a484846102ba565b6102659190610301565b60006102658284610301565b60006102658284610323565b6000602082840312156102d857600080fd5b5035919050565b600080604083850312156102f257600080fd5b50508035926020909101359150565b60008261031e57634e487b7160e01b600052601260045260246000fd5b500490565b600081600019048311821515161561034b57634e487b7160e01b600052601160045260246000fd5b50029056fea264697066735822122029c0031de077b8339e4bbb71e6264aaa59b9d672f9882b9474b80d4bdeda8f2564736f6c63430008070033",
					"opcodes": "PUSH2 0x386 PUSH2 0x3A PUSH1 0xB DUP3 DUP3 DUP3 CODECOPY DUP1 MLOAD PUSH1 0x0 BYTE PUSH1 0x73 EQ PUSH2 0x2D JUMPI PUSH4 0x4E487B71 PUSH1 0xE0 SHL PUSH1 0x0 MSTORE PUSH1 0x0 PUSH1 0x4 MSTORE PUSH1 0x24 PUSH1 0x0 REVERT JUMPDEST ADDRESS PUSH1 0x0 MSTORE PUSH1 0x73 DUP2 MSTORE8 DUP3 DUP2 RETURN INVALID PUSH20 0x0 ADDRESS EQ PUSH1 0x80 PUSH1 0x40 MSTORE PUSH1 0x4 CALLDATASIZE LT PUSH2 0x61 JUMPI PUSH1 0x0 CALLDATALOAD PUSH1 0xE0 SHR DUP1 PUSH4 0x4F6CA3CE EQ PUSH2 0x66 JUMPI DUP1 PUSH4 0x8F861BA7 EQ PUSH2 0x8B JUMPI DUP1 PUSH4 0x9CE5C4BF EQ PUSH2 0x9E JUMPI DUP1 PUSH4 0xF2E60202 EQ PUSH2 0xB1 JUMPI DUP1 PUSH4 0xF74F3655 EQ PUSH2 0xC4 JUMPI JUMPDEST PUSH1 0x0 DUP1 REVERT JUMPDEST PUSH2 0x79 PUSH2 0x74 CALLDATASIZE PUSH1 0x4 PUSH2 0x2C6 JUMP JUMPDEST PUSH2 0xD7 JUMP JUMPDEST PUSH1 0x40 MLOAD SWAP1 DUP2 MSTORE PUSH1 0x20 ADD PUSH1 0x40 MLOAD DUP1 SWAP2 SUB SWAP1 RETURN JUMPDEST PUSH2 0x79 PUSH2 0x99 CALLDATASIZE PUSH1 0x4 PUSH2 0x2DF JUMP JUMPDEST PUSH2 0x259 JUMP JUMPDEST PUSH2 0x79 PUSH2 0xAC CALLDATASIZE PUSH1 0x4 PUSH2 0x2DF JUMP JUMPDEST PUSH2 0x26C JUMP JUMPDEST PUSH2 0x79 PUSH2 0xBF CALLDATASIZE PUSH1 0x4 PUSH2 0x2C6 JUMP JUMPDEST PUSH2 0x278 JUMP JUMPDEST PUSH2 0x79 PUSH2 0xD2 CALLDATASIZE PUSH1 0x4 PUSH2 0x2DF JUMP JUMPDEST PUSH2 0x296 JUMP JUMPDEST PUSH1 0x0 DUP1 PUSH2 0x111 DUP4 LT ISZERO PUSH2 0xEC JUMPI POP PUSH1 0x1 PUSH2 0x253 JUMP JUMPDEST PUSH2 0x111 DUP4 LT ISZERO DUP1 ISZERO PUSH2 0x109 JUMPI POP PUSH2 0x106 PUSH2 0x111 PUSH1 0xA PUSH2 0x323 JUMP JUMPDEST DUP4 LT JUMPDEST ISZERO PUSH2 0x116 JUMPI POP PUSH1 0xA PUSH2 0x253 JUMP JUMPDEST PUSH2 0x123 PUSH2 0x111 PUSH1 0xA PUSH2 0x323 JUMP JUMPDEST DUP4 LT ISZERO DUP1 ISZERO PUSH2 0x13D JUMPI POP PUSH2 0x13A PUSH2 0x111 PUSH1 0x64 PUSH2 0x323 JUMP JUMPDEST DUP4 LT JUMPDEST ISZERO PUSH2 0x14A JUMPI POP PUSH1 0x64 PUSH2 0x253 JUMP JUMPDEST PUSH2 0x157 PUSH2 0x111 PUSH1 0x64 PUSH2 0x323 JUMP JUMPDEST DUP4 LT ISZERO DUP1 ISZERO PUSH2 0x172 JUMPI POP PUSH2 0x16F PUSH2 0x111 PUSH2 0x3E8 PUSH2 0x323 JUMP JUMPDEST DUP4 LT JUMPDEST ISZERO PUSH2 0x180 JUMPI POP PUSH2 0x3E8 PUSH2 0x253 JUMP JUMPDEST PUSH2 0x18E PUSH2 0x111 PUSH2 0x3E8 PUSH2 0x323 JUMP JUMPDEST DUP4 LT ISZERO DUP1 ISZERO PUSH2 0x1AA JUMPI POP PUSH2 0x1A6 PUSH2 0x111 PUSH2 0x2710 PUSH2 0x323 JUMP JUMPDEST DUP4 GT ISZERO JUMPDEST ISZERO PUSH2 0x1B8 JUMPI POP PUSH2 0x2710 PUSH2 0x253 JUMP JUMPDEST PUSH2 0x1C6 PUSH2 0x111 PUSH2 0x2710 PUSH2 0x323 JUMP JUMPDEST DUP4 LT ISZERO DUP1 ISZERO PUSH2 0x1E3 JUMPI POP PUSH2 0x1DF PUSH2 0x111 PUSH3 0x186A0 PUSH2 0x323 JUMP JUMPDEST DUP4 GT ISZERO JUMPDEST ISZERO PUSH2 0x1F2 JUMPI POP PUSH3 0x186A0 PUSH2 0x253 JUMP JUMPDEST PUSH1 0x40 MLOAD PUSH4 0x347626DD PUSH1 0xE2 SHL DUP2 MSTORE PUSH1 0x20 PUSH1 0x4 DUP3 ADD MSTORE PUSH1 0x2B PUSH1 0x24 DUP3 ADD MSTORE PUSH32 0x556E61626C6520746F2063616C63756C6174652C506C65617365207375626D69 PUSH1 0x44 DUP3 ADD MSTORE PUSH11 0x1D0818481C995C5D595CDD PUSH1 0xAA SHL PUSH1 0x64 DUP3 ADD MSTORE PUSH1 0x84 ADD PUSH1 0x40 MLOAD DUP1 SWAP2 SUB SWAP1 REVERT JUMPDEST SWAP3 SWAP2 POP POP JUMP JUMPDEST PUSH1 0x0 PUSH2 0x265 DUP4 DUP4 PUSH2 0x296 JUMP JUMPDEST SWAP4 SWAP3 POP POP POP JUMP JUMPDEST PUSH1 0x0 PUSH2 0x265 DUP3 DUP5 PUSH2 0x2AE JUMP JUMPDEST PUSH1 0x0 DUP1 PUSH1 0x3 DUP4 GT PUSH2 0x28B JUMPI POP PUSH1 0x1 PUSH2 0x253 JUMP JUMPDEST PUSH2 0x265 DUP4 PUSH1 0x3 PUSH2 0x2AE JUMP JUMPDEST PUSH1 0x0 PUSH1 0x64 PUSH2 0x2A4 DUP5 DUP5 PUSH2 0x2BA JUMP JUMPDEST PUSH2 0x265 SWAP2 SWAP1 PUSH2 0x301 JUMP JUMPDEST PUSH1 0x0 PUSH2 0x265 DUP3 DUP5 PUSH2 0x301 JUMP JUMPDEST PUSH1 0x0 PUSH2 0x265 DUP3 DUP5 PUSH2 0x323 JUMP JUMPDEST PUSH1 0x0 PUSH1 0x20 DUP3 DUP5 SUB SLT ISZERO PUSH2 0x2D8 JUMPI PUSH1 0x0 DUP1 REVERT JUMPDEST POP CALLDATALOAD SWAP2 SWAP1 POP JUMP JUMPDEST PUSH1 0x0 DUP1 PUSH1 0x40 DUP4 DUP6 SUB SLT ISZERO PUSH2 0x2F2 JUMPI PUSH1 0x0 DUP1 REVERT JUMPDEST POP POP DUP1 CALLDATALOAD SWAP3 PUSH1 0x20 SWAP1 SWAP2 ADD CALLDATALOAD SWAP2 POP JUMP JUMPDEST PUSH1 0x0 DUP3 PUSH2 0x31E JUMPI PUSH4 0x4E487B71 PUSH1 0xE0 SHL PUSH1 0x0 MSTORE PUSH1 0x12 PUSH1 0x4 MSTORE PUSH1 0x24 PUSH1 0x0 REVERT JUMPDEST POP DIV SWAP1 JUMP JUMPDEST PUSH1 0x0 DUP2 PUSH1 0x0 NOT DIV DUP4 GT DUP3 ISZERO ISZERO AND ISZERO PUSH2 0x34B JUMPI PUSH4 0x4E487B71 PUSH1 0xE0 SHL PUSH1 0x0 MSTORE PUSH1 0x11 PUSH1 0x4 MSTORE PUSH1 0x24 PUSH1 0x0 REVERT JUMPDEST POP MUL SWAP1 JUMP INVALID LOG2 PUSH5 0x6970667358 0x22 SLT KECCAK256 0x29 0xC0 SUB SAR 0xE0 PUSH24 0xB8339E4BBB71E6264AAA59B9D672F9882B9474B80D4BDEDA DUP16 0x25 PUSH5 0x736F6C6343 STOP ADDMOD SMOD STOP CALLER "
				},
				"gasEstimates": {
					"creation": {
						"codeDepositCost": "180400",
						"executionCost": "257",
						"totalCost": "180657"
					},
					"external": {
						"getDeductMoney(uint256,uint256)": "infinite",
						"getMatNumber(uint256)": "infinite",
						"getPercentage(uint256,uint256)": "infinite",
						"getPunish(uint256,uint256)": "infinite",
						"punishRatio(uint256)": "infinite"
					},
					"internal": {
						"getTaskTrans(uint256)": "infinite",
						"getTaskTransEnd(uint256)": "infinite",
						"getTaskTransFirst(uint256)": "infinite",
						"getTaskVf(uint256)": "infinite"
					}
				},
				"methodIdentifiers": {
					"getDeductMoney(uint256,uint256)": "8f861ba7",
					"getMatNumber(uint256)": "f2e60202",
					"getPercentage(uint256,uint256)": "f74f3655",
					"getPunish(uint256,uint256)": "9ce5c4bf",
					"punishRatio(uint256)": "4f6ca3ce"
				}
			},
			"storageLayout": {
				"storage": [],
				"types": null
			},
			"userdoc": {
				"kind": "user",
				"methods": {},
				"version": 1
			}
		}
	}
}