{
	"Amphi/amphi-contract/amphi-contract/utils/calculateUtils.sol": {
		"CalculateUtils": {
			"abi": [
				{
					"anonymous": false,
					"inputs": [
						{
							"indexed": true,
							"internalType": "address",
							"name": "previousOwner",
							"type": "address"
						},
						{
							"indexed": true,
							"internalType": "address",
							"name": "newOwner",
							"type": "address"
						}
					],
					"name": "OwnershipTransferred",
					"type": "event"
				},
				{
					"inputs": [
						{
							"internalType": "uint256",
							"name": "_transNumber",
							"type": "uint256"
						}
					],
					"name": "getMatNumber",
					"outputs": [
						{
							"internalType": "uint256",
							"name": "",
							"type": "uint256"
						}
					],
					"stateMutability": "view",
					"type": "function"
				},
				{
					"inputs": [],
					"name": "owner",
					"outputs": [
						{
							"internalType": "address",
							"name": "",
							"type": "address"
						}
					],
					"stateMutability": "view",
					"type": "function"
				},
				{
					"inputs": [],
					"name": "renounceOwnership",
					"outputs": [],
					"stateMutability": "nonpayable",
					"type": "function"
				},
				{
					"inputs": [
						{
							"internalType": "address",
							"name": "newOwner",
							"type": "address"
						}
					],
					"name": "transferOwnership",
					"outputs": [],
					"stateMutability": "nonpayable",
					"type": "function"
				}
			],
			"devdoc": {
				"kind": "dev",
				"methods": {
					"owner()": {
						"details": "Returns the address of the current owner."
					},
					"renounceOwnership()": {
						"details": "Leaves the contract without owner. It will not be possible to call `onlyOwner` functions anymore. Can only be called by the current owner. NOTE: Renouncing ownership will leave the contract without an owner, thereby removing any functionality that is only available to the owner."
					},
					"transferOwnership(address)": {
						"details": "Transfers ownership of the contract to a new account (`newOwner`). Can only be called by the current owner."
					}
				},
				"version": 1
			},
			"evm": {
				"assembly": "    /* \"Amphi/amphi-contract/amphi-contract/utils/calculateUtils.sol\":153:1686  contract CalculateUtils is Ownable{\r... */\n  mstore(0x40, 0x80)\n  callvalue\n  dup1\n  iszero\n  tag_1\n  jumpi\n  0x00\n  dup1\n  revert\ntag_1:\n  pop\n    /* \"Amphi/amphi-contract/amphi-contract/contracts/access/Ownable.sol\":936:968  _transferOwnership(_msgSender()) */\n  tag_4\n    /* \"Amphi/amphi-contract/amphi-contract/contracts/access/Ownable.sol\":955:967  _msgSender() */\n  tag_5\n    /* \"Amphi/amphi-contract/amphi-contract/contracts/access/Ownable.sol\":955:965  _msgSender */\n  shl(0x20, tag_6)\n    /* \"Amphi/amphi-contract/amphi-contract/contracts/access/Ownable.sol\":955:967  _msgSender() */\n  0x20\n  shr\n  jump\t// in\ntag_5:\n    /* \"Amphi/amphi-contract/amphi-contract/contracts/access/Ownable.sol\":936:954  _transferOwnership */\n  shl(0x20, tag_7)\n    /* \"Amphi/amphi-contract/amphi-contract/contracts/access/Ownable.sol\":936:968  _transferOwnership(_msgSender()) */\n  0x20\n  shr\n  jump\t// in\ntag_4:\n    /* \"Amphi/amphi-contract/amphi-contract/utils/calculateUtils.sol\":153:1686  contract CalculateUtils is Ownable{\r... */\n  jump(tag_8)\n    /* \"Amphi/amphi-contract/amphi-contract/contracts/utils/Context.sol\":640:736  function _msgSender() internal view virtual returns (address) {... */\ntag_6:\n    /* \"Amphi/amphi-contract/amphi-contract/contracts/utils/Context.sol\":693:700  address */\n  0x00\n    /* \"Amphi/amphi-contract/amphi-contract/contracts/utils/Context.sol\":719:729  msg.sender */\n  caller\n    /* \"Amphi/amphi-contract/amphi-contract/contracts/utils/Context.sol\":712:729  return msg.sender */\n  swap1\n  pop\n    /* \"Amphi/amphi-contract/amphi-contract/contracts/utils/Context.sol\":640:736  function _msgSender() internal view virtual returns (address) {... */\n  swap1\n  jump\t// out\n    /* \"Amphi/amphi-contract/amphi-contract/contracts/access/Ownable.sol\":2433:2620  function _transferOwnership(address newOwner) internal virtual {... */\ntag_7:\n    /* \"Amphi/amphi-contract/amphi-contract/contracts/access/Ownable.sol\":2506:2522  address oldOwner */\n  0x00\n    /* \"Amphi/amphi-contract/amphi-contract/contracts/access/Ownable.sol\":2525:2531  _owner */\n  dup1\n  0x00\n  swap1\n  sload\n  swap1\n  0x0100\n  exp\n  swap1\n  div\n  0xffffffffffffffffffffffffffffffffffffffff\n  and\n    /* \"Amphi/amphi-contract/amphi-contract/contracts/access/Ownable.sol\":2506:2531  address oldOwner = _owner */\n  swap1\n  pop\n    /* \"Amphi/amphi-contract/amphi-contract/contracts/access/Ownable.sol\":2550:2558  newOwner */\n  dup2\n    /* \"Amphi/amphi-contract/amphi-contract/contracts/access/Ownable.sol\":2541:2547  _owner */\n  0x00\n  dup1\n    /* \"Amphi/amphi-contract/amphi-contract/contracts/access/Ownable.sol\":2541:2558  _owner = newOwner */\n  0x0100\n  exp\n  dup2\n  sload\n  dup2\n  0xffffffffffffffffffffffffffffffffffffffff\n  mul\n  not\n  and\n  swap1\n  dup4\n  0xffffffffffffffffffffffffffffffffffffffff\n  and\n  mul\n  or\n  swap1\n  sstore\n  pop\n    /* \"Amphi/amphi-contract/amphi-contract/contracts/access/Ownable.sol\":2604:2612  newOwner */\n  dup2\n    /* \"Amphi/amphi-contract/amphi-contract/contracts/access/Ownable.sol\":2573:2613  OwnershipTransferred(oldOwner, newOwner) */\n  0xffffffffffffffffffffffffffffffffffffffff\n  and\n    /* \"Amphi/amphi-contract/amphi-contract/contracts/access/Ownable.sol\":2594:2602  oldOwner */\n  dup2\n    /* \"Amphi/amphi-contract/amphi-contract/contracts/access/Ownable.sol\":2573:2613  OwnershipTransferred(oldOwner, newOwner) */\n  0xffffffffffffffffffffffffffffffffffffffff\n  and\n  0x8be0079c531659141344cd1fd0a4f28419497f9722a3daafe3b4186f6b6457e0\n  mload(0x40)\n  mload(0x40)\n  dup1\n  swap2\n  sub\n  swap1\n  log3\n    /* \"Amphi/amphi-contract/amphi-contract/contracts/access/Ownable.sol\":2496:2620  {... */\n  pop\n    /* \"Amphi/amphi-contract/amphi-contract/contracts/access/Ownable.sol\":2433:2620  function _transferOwnership(address newOwner) internal virtual {... */\n  pop\n  jump\t// out\n    /* \"Amphi/amphi-contract/amphi-contract/utils/calculateUtils.sol\":153:1686  contract CalculateUtils is Ownable{\r... */\ntag_8:\n  dataSize(sub_0)\n  dup1\n  dataOffset(sub_0)\n  0x00\n  codecopy\n  0x00\n  return\nstop\n\nsub_0: assembly {\n        /* \"Amphi/amphi-contract/amphi-contract/utils/calculateUtils.sol\":153:1686  contract CalculateUtils is Ownable{\r... */\n      mstore(0x40, 0x80)\n      callvalue\n      dup1\n      iszero\n      tag_1\n      jumpi\n      0x00\n      dup1\n      revert\n    tag_1:\n      pop\n      jumpi(tag_2, lt(calldatasize, 0x04))\n      shr(0xe0, calldataload(0x00))\n      dup1\n      0x715018a6\n      eq\n      tag_3\n      jumpi\n      dup1\n      0x8da5cb5b\n      eq\n      tag_4\n      jumpi\n      dup1\n      0xf2e60202\n      eq\n      tag_5\n      jumpi\n      dup1\n      0xf2fde38b\n      eq\n      tag_6\n      jumpi\n    tag_2:\n      0x00\n      dup1\n      revert\n        /* \"Amphi/amphi-contract/amphi-contract/contracts/access/Ownable.sol\":1831:1932  function renounceOwnership() public virtual onlyOwner {... */\n    tag_3:\n      tag_7\n      tag_8\n      jump\t// in\n    tag_7:\n      stop\n        /* \"Amphi/amphi-contract/amphi-contract/contracts/access/Ownable.sol\":1201:1286  function owner() public view virtual returns (address) {... */\n    tag_4:\n      tag_9\n      tag_10\n      jump\t// in\n    tag_9:\n      mload(0x40)\n      tag_11\n      swap2\n      swap1\n      tag_12\n      jump\t// in\n    tag_11:\n      mload(0x40)\n      dup1\n      swap2\n      sub\n      swap1\n      return\n        /* \"Amphi/amphi-contract/amphi-contract/utils/calculateUtils.sol\":1265:1542  function getMatNumber(uint256 _transNumber)external view returns(uint256 ){\r... */\n    tag_5:\n      tag_13\n      0x04\n      dup1\n      calldatasize\n      sub\n      dup2\n      add\n      swap1\n      tag_14\n      swap2\n      swap1\n      tag_15\n      jump\t// in\n    tag_14:\n      tag_16\n      jump\t// in\n    tag_13:\n      mload(0x40)\n      tag_17\n      swap2\n      swap1\n      tag_18\n      jump\t// in\n    tag_17:\n      mload(0x40)\n      dup1\n      swap2\n      sub\n      swap1\n      return\n        /* \"Amphi/amphi-contract/amphi-contract/contracts/access/Ownable.sol\":2081:2279  function transferOwnership(address newOwner) public virtual onlyOwner {... */\n    tag_6:\n      tag_19\n      0x04\n      dup1\n      calldatasize\n      sub\n      dup2\n      add\n      swap1\n      tag_20\n      swap2\n      swap1\n      tag_21\n      jump\t// in\n    tag_20:\n      tag_22\n      jump\t// in\n    tag_19:\n      stop\n        /* \"Amphi/amphi-contract/amphi-contract/contracts/access/Ownable.sol\":1831:1932  function renounceOwnership() public virtual onlyOwner {... */\n    tag_8:\n        /* \"Amphi/amphi-contract/amphi-contract/contracts/access/Ownable.sol\":1094:1107  _checkOwner() */\n      tag_24\n        /* \"Amphi/amphi-contract/amphi-contract/contracts/access/Ownable.sol\":1094:1105  _checkOwner */\n      tag_25\n        /* \"Amphi/amphi-contract/amphi-contract/contracts/access/Ownable.sol\":1094:1107  _checkOwner() */\n      jump\t// in\n    tag_24:\n        /* \"Amphi/amphi-contract/amphi-contract/contracts/access/Ownable.sol\":1895:1925  _transferOwnership(address(0)) */\n      tag_27\n        /* \"Amphi/amphi-contract/amphi-contract/contracts/access/Ownable.sol\":1922:1923  0 */\n      0x00\n        /* \"Amphi/amphi-contract/amphi-contract/contracts/access/Ownable.sol\":1895:1913  _transferOwnership */\n      tag_28\n        /* \"Amphi/amphi-contract/amphi-contract/contracts/access/Ownable.sol\":1895:1925  _transferOwnership(address(0)) */\n      jump\t// in\n    tag_27:\n        /* \"Amphi/amphi-contract/amphi-contract/contracts/access/Ownable.sol\":1831:1932  function renounceOwnership() public virtual onlyOwner {... */\n      jump\t// out\n        /* \"Amphi/amphi-contract/amphi-contract/contracts/access/Ownable.sol\":1201:1286  function owner() public view virtual returns (address) {... */\n    tag_10:\n        /* \"Amphi/amphi-contract/amphi-contract/contracts/access/Ownable.sol\":1247:1254  address */\n      0x00\n        /* \"Amphi/amphi-contract/amphi-contract/contracts/access/Ownable.sol\":1273:1279  _owner */\n      dup1\n      0x00\n      swap1\n      sload\n      swap1\n      0x0100\n      exp\n      swap1\n      div\n      0xffffffffffffffffffffffffffffffffffffffff\n      and\n        /* \"Amphi/amphi-contract/amphi-contract/contracts/access/Ownable.sol\":1266:1279  return _owner */\n      swap1\n      pop\n        /* \"Amphi/amphi-contract/amphi-contract/contracts/access/Ownable.sol\":1201:1286  function owner() public view virtual returns (address) {... */\n      swap1\n      jump\t// out\n        /* \"Amphi/amphi-contract/amphi-contract/utils/calculateUtils.sol\":1265:1542  function getMatNumber(uint256 _transNumber)external view returns(uint256 ){\r... */\n    tag_16:\n        /* \"Amphi/amphi-contract/amphi-contract/utils/calculateUtils.sol\":1330:1337  uint256 */\n      0x00\n        /* \"Amphi/amphi-contract/amphi-contract/utils/calculateUtils.sol\":1350:1363  uint256 _maxV */\n      dup1\n        /* \"Amphi/amphi-contract/amphi-contract/utils/calculateUtils.sol\":1391:1394  vfN */\n      sload(0x02)\n        /* \"Amphi/amphi-contract/amphi-contract/utils/calculateUtils.sol\":1377:1389  _transNumber */\n      dup4\n        /* \"Amphi/amphi-contract/amphi-contract/utils/calculateUtils.sol\":1377:1394  _transNumber<=vfN */\n      gt\n        /* \"Amphi/amphi-contract/amphi-contract/utils/calculateUtils.sol\":1374:1512  if(_transNumber<=vfN){\r... */\n      tag_31\n      jumpi\n        /* \"Amphi/amphi-contract/amphi-contract/utils/calculateUtils.sol\":1423:1424  1 */\n      0x01\n        /* \"Amphi/amphi-contract/amphi-contract/utils/calculateUtils.sol\":1415:1424  _maxV = 1 */\n      swap1\n      pop\n        /* \"Amphi/amphi-contract/amphi-contract/utils/calculateUtils.sol\":1374:1512  if(_transNumber<=vfN){\r... */\n      jump(tag_32)\n    tag_31:\n        /* \"Amphi/amphi-contract/amphi-contract/utils/calculateUtils.sol\":1469:1500  SafeMath.div(_transNumber, vfN) */\n      tag_33\n        /* \"Amphi/amphi-contract/amphi-contract/utils/calculateUtils.sol\":1482:1494  _transNumber */\n      dup4\n        /* \"Amphi/amphi-contract/amphi-contract/utils/calculateUtils.sol\":1496:1499  vfN */\n      sload(0x02)\n        /* \"Amphi/amphi-contract/amphi-contract/utils/calculateUtils.sol\":1469:1481  SafeMath.div */\n      tag_34\n        /* \"Amphi/amphi-contract/amphi-contract/utils/calculateUtils.sol\":1469:1500  SafeMath.div(_transNumber, vfN) */\n      jump\t// in\n    tag_33:\n        /* \"Amphi/amphi-contract/amphi-contract/utils/calculateUtils.sol\":1461:1500  _maxV = SafeMath.div(_transNumber, vfN) */\n      swap1\n      pop\n        /* \"Amphi/amphi-contract/amphi-contract/utils/calculateUtils.sol\":1374:1512  if(_transNumber<=vfN){\r... */\n    tag_32:\n        /* \"Amphi/amphi-contract/amphi-contract/utils/calculateUtils.sol\":1529:1534  _maxV */\n      dup1\n        /* \"Amphi/amphi-contract/amphi-contract/utils/calculateUtils.sol\":1522:1534  return _maxV */\n      swap2\n      pop\n      pop\n        /* \"Amphi/amphi-contract/amphi-contract/utils/calculateUtils.sol\":1265:1542  function getMatNumber(uint256 _transNumber)external view returns(uint256 ){\r... */\n      swap2\n      swap1\n      pop\n      jump\t// out\n        /* \"Amphi/amphi-contract/amphi-contract/contracts/access/Ownable.sol\":2081:2279  function transferOwnership(address newOwner) public virtual onlyOwner {... */\n    tag_22:\n        /* \"Amphi/amphi-contract/amphi-contract/contracts/access/Ownable.sol\":1094:1107  _checkOwner() */\n      tag_36\n        /* \"Amphi/amphi-contract/amphi-contract/contracts/access/Ownable.sol\":1094:1105  _checkOwner */\n      tag_25\n        /* \"Amphi/amphi-contract/amphi-contract/contracts/access/Ownable.sol\":1094:1107  _checkOwner() */\n      jump\t// in\n    tag_36:\n        /* \"Amphi/amphi-contract/amphi-contract/contracts/access/Ownable.sol\":2189:2190  0 */\n      0x00\n        /* \"Amphi/amphi-contract/amphi-contract/contracts/access/Ownable.sol\":2169:2191  newOwner != address(0) */\n      0xffffffffffffffffffffffffffffffffffffffff\n      and\n        /* \"Amphi/amphi-contract/amphi-contract/contracts/access/Ownable.sol\":2169:2177  newOwner */\n      dup2\n        /* \"Amphi/amphi-contract/amphi-contract/contracts/access/Ownable.sol\":2169:2191  newOwner != address(0) */\n      0xffffffffffffffffffffffffffffffffffffffff\n      and\n      eq\n      iszero\n        /* \"Amphi/amphi-contract/amphi-contract/contracts/access/Ownable.sol\":2161:2234  require(newOwner != address(0), \"Ownable: new owner is the zero address\") */\n      tag_38\n      jumpi\n      mload(0x40)\n      0x08c379a000000000000000000000000000000000000000000000000000000000\n      dup2\n      mstore\n      0x04\n      add\n      tag_39\n      swap1\n      tag_40\n      jump\t// in\n    tag_39:\n      mload(0x40)\n      dup1\n      swap2\n      sub\n      swap1\n      revert\n    tag_38:\n        /* \"Amphi/amphi-contract/amphi-contract/contracts/access/Ownable.sol\":2244:2272  _transferOwnership(newOwner) */\n      tag_41\n        /* \"Amphi/amphi-contract/amphi-contract/contracts/access/Ownable.sol\":2263:2271  newOwner */\n      dup2\n        /* \"Amphi/amphi-contract/amphi-contract/contracts/access/Ownable.sol\":2244:2262  _transferOwnership */\n      tag_28\n        /* \"Amphi/amphi-contract/amphi-contract/contracts/access/Ownable.sol\":2244:2272  _transferOwnership(newOwner) */\n      jump\t// in\n    tag_41:\n        /* \"Amphi/amphi-contract/amphi-contract/contracts/access/Ownable.sol\":2081:2279  function transferOwnership(address newOwner) public virtual onlyOwner {... */\n      pop\n      jump\t// out\n        /* \"Amphi/amphi-contract/amphi-contract/contracts/access/Ownable.sol\":1359:1489  function _checkOwner() internal view virtual {... */\n    tag_25:\n        /* \"Amphi/amphi-contract/amphi-contract/contracts/access/Ownable.sol\":1433:1445  _msgSender() */\n      tag_43\n        /* \"Amphi/amphi-contract/amphi-contract/contracts/access/Ownable.sol\":1433:1443  _msgSender */\n      tag_44\n        /* \"Amphi/amphi-contract/amphi-contract/contracts/access/Ownable.sol\":1433:1445  _msgSender() */\n      jump\t// in\n    tag_43:\n        /* \"Amphi/amphi-contract/amphi-contract/contracts/access/Ownable.sol\":1422:1445  owner() == _msgSender() */\n      0xffffffffffffffffffffffffffffffffffffffff\n      and\n        /* \"Amphi/amphi-contract/amphi-contract/contracts/access/Ownable.sol\":1422:1429  owner() */\n      tag_45\n        /* \"Amphi/amphi-contract/amphi-contract/contracts/access/Ownable.sol\":1422:1427  owner */\n      tag_10\n        /* \"Amphi/amphi-contract/amphi-contract/contracts/access/Ownable.sol\":1422:1429  owner() */\n      jump\t// in\n    tag_45:\n        /* \"Amphi/amphi-contract/amphi-contract/contracts/access/Ownable.sol\":1422:1445  owner() == _msgSender() */\n      0xffffffffffffffffffffffffffffffffffffffff\n      and\n      eq\n        /* \"Amphi/amphi-contract/amphi-contract/contracts/access/Ownable.sol\":1414:1482  require(owner() == _msgSender(), \"Ownable: caller is not the owner\") */\n      tag_46\n      jumpi\n      mload(0x40)\n      0x08c379a000000000000000000000000000000000000000000000000000000000\n      dup2\n      mstore\n      0x04\n      add\n      tag_47\n      swap1\n      tag_48\n      jump\t// in\n    tag_47:\n      mload(0x40)\n      dup1\n      swap2\n      sub\n      swap1\n      revert\n    tag_46:\n        /* \"Amphi/amphi-contract/amphi-contract/contracts/access/Ownable.sol\":1359:1489  function _checkOwner() internal view virtual {... */\n      jump\t// out\n        /* \"Amphi/amphi-contract/amphi-contract/contracts/access/Ownable.sol\":2433:2620  function _transferOwnership(address newOwner) internal virtual {... */\n    tag_28:\n        /* \"Amphi/amphi-contract/amphi-contract/contracts/access/Ownable.sol\":2506:2522  address oldOwner */\n      0x00\n        /* \"Amphi/amphi-contract/amphi-contract/contracts/access/Ownable.sol\":2525:2531  _owner */\n      dup1\n      0x00\n      swap1\n      sload\n      swap1\n      0x0100\n      exp\n      swap1\n      div\n      0xffffffffffffffffffffffffffffffffffffffff\n      and\n        /* \"Amphi/amphi-contract/amphi-contract/contracts/access/Ownable.sol\":2506:2531  address oldOwner = _owner */\n      swap1\n      pop\n        /* \"Amphi/amphi-contract/amphi-contract/contracts/access/Ownable.sol\":2550:2558  newOwner */\n      dup2\n        /* \"Amphi/amphi-contract/amphi-contract/contracts/access/Ownable.sol\":2541:2547  _owner */\n      0x00\n      dup1\n        /* \"Amphi/amphi-contract/amphi-contract/contracts/access/Ownable.sol\":2541:2558  _owner = newOwner */\n      0x0100\n      exp\n      dup2\n      sload\n      dup2\n      0xffffffffffffffffffffffffffffffffffffffff\n      mul\n      not\n      and\n      swap1\n      dup4\n      0xffffffffffffffffffffffffffffffffffffffff\n      and\n      mul\n      or\n      swap1\n      sstore\n      pop\n        /* \"Amphi/amphi-contract/amphi-contract/contracts/access/Ownable.sol\":2604:2612  newOwner */\n      dup2\n        /* \"Amphi/amphi-contract/amphi-contract/contracts/access/Ownable.sol\":2573:2613  OwnershipTransferred(oldOwner, newOwner) */\n      0xffffffffffffffffffffffffffffffffffffffff\n      and\n        /* \"Amphi/amphi-contract/amphi-contract/contracts/access/Ownable.sol\":2594:2602  oldOwner */\n      dup2\n        /* \"Amphi/amphi-contract/amphi-contract/contracts/access/Ownable.sol\":2573:2613  OwnershipTransferred(oldOwner, newOwner) */\n      0xffffffffffffffffffffffffffffffffffffffff\n      and\n      0x8be0079c531659141344cd1fd0a4f28419497f9722a3daafe3b4186f6b6457e0\n      mload(0x40)\n      mload(0x40)\n      dup1\n      swap2\n      sub\n      swap1\n      log3\n        /* \"Amphi/amphi-contract/amphi-contract/contracts/access/Ownable.sol\":2496:2620  {... */\n      pop\n        /* \"Amphi/amphi-contract/amphi-contract/contracts/access/Ownable.sol\":2433:2620  function _transferOwnership(address newOwner) internal virtual {... */\n      pop\n      jump\t// out\n        /* \"Amphi/amphi-contract/amphi-contract/contracts/utils/math/SafeMath.sol\":3850:3946  function div(uint256 a, uint256 b) internal pure returns (uint256) {... */\n    tag_34:\n        /* \"Amphi/amphi-contract/amphi-contract/contracts/utils/math/SafeMath.sol\":3908:3915  uint256 */\n      0x00\n        /* \"Amphi/amphi-contract/amphi-contract/contracts/utils/math/SafeMath.sol\":3938:3939  b */\n      dup2\n        /* \"Amphi/amphi-contract/amphi-contract/contracts/utils/math/SafeMath.sol\":3934:3935  a */\n      dup4\n        /* \"Amphi/amphi-contract/amphi-contract/contracts/utils/math/SafeMath.sol\":3934:3939  a / b */\n      tag_51\n      swap2\n      swap1\n      tag_52\n      jump\t// in\n    tag_51:\n        /* \"Amphi/amphi-contract/amphi-contract/contracts/utils/math/SafeMath.sol\":3927:3939  return a / b */\n      swap1\n      pop\n        /* \"Amphi/amphi-contract/amphi-contract/contracts/utils/math/SafeMath.sol\":3850:3946  function div(uint256 a, uint256 b) internal pure returns (uint256) {... */\n      swap3\n      swap2\n      pop\n      pop\n      jump\t// out\n        /* \"Amphi/amphi-contract/amphi-contract/contracts/utils/Context.sol\":640:736  function _msgSender() internal view virtual returns (address) {... */\n    tag_44:\n        /* \"Amphi/amphi-contract/amphi-contract/contracts/utils/Context.sol\":693:700  address */\n      0x00\n        /* \"Amphi/amphi-contract/amphi-contract/contracts/utils/Context.sol\":719:729  msg.sender */\n      caller\n        /* \"Amphi/amphi-contract/amphi-contract/contracts/utils/Context.sol\":712:729  return msg.sender */\n      swap1\n      pop\n        /* \"Amphi/amphi-contract/amphi-contract/contracts/utils/Context.sol\":640:736  function _msgSender() internal view virtual returns (address) {... */\n      swap1\n      jump\t// out\n        /* \"#utility.yul\":7:146   */\n    tag_55:\n        /* \"#utility.yul\":53:58   */\n      0x00\n        /* \"#utility.yul\":91:97   */\n      dup2\n        /* \"#utility.yul\":78:98   */\n      calldataload\n        /* \"#utility.yul\":69:98   */\n      swap1\n      pop\n        /* \"#utility.yul\":107:140   */\n      tag_57\n        /* \"#utility.yul\":134:139   */\n      dup2\n        /* \"#utility.yul\":107:140   */\n      tag_58\n      jump\t// in\n    tag_57:\n        /* \"#utility.yul\":7:146   */\n      swap3\n      swap2\n      pop\n      pop\n      jump\t// out\n        /* \"#utility.yul\":152:291   */\n    tag_59:\n        /* \"#utility.yul\":198:203   */\n      0x00\n        /* \"#utility.yul\":236:242   */\n      dup2\n        /* \"#utility.yul\":223:243   */\n      calldataload\n        /* \"#utility.yul\":214:243   */\n      swap1\n      pop\n        /* \"#utility.yul\":252:285   */\n      tag_61\n        /* \"#utility.yul\":279:284   */\n      dup2\n        /* \"#utility.yul\":252:285   */\n      tag_62\n      jump\t// in\n    tag_61:\n        /* \"#utility.yul\":152:291   */\n      swap3\n      swap2\n      pop\n      pop\n      jump\t// out\n        /* \"#utility.yul\":297:626   */\n    tag_21:\n        /* \"#utility.yul\":356:362   */\n      0x00\n        /* \"#utility.yul\":405:407   */\n      0x20\n        /* \"#utility.yul\":393:402   */\n      dup3\n        /* \"#utility.yul\":384:391   */\n      dup5\n        /* \"#utility.yul\":380:403   */\n      sub\n        /* \"#utility.yul\":376:408   */\n      slt\n        /* \"#utility.yul\":373:492   */\n      iszero\n      tag_64\n      jumpi\n        /* \"#utility.yul\":411:490   */\n      tag_65\n      tag_66\n      jump\t// in\n    tag_65:\n        /* \"#utility.yul\":373:492   */\n    tag_64:\n        /* \"#utility.yul\":531:532   */\n      0x00\n        /* \"#utility.yul\":556:609   */\n      tag_67\n        /* \"#utility.yul\":601:608   */\n      dup5\n        /* \"#utility.yul\":592:598   */\n      dup3\n        /* \"#utility.yul\":581:590   */\n      dup6\n        /* \"#utility.yul\":577:599   */\n      add\n        /* \"#utility.yul\":556:609   */\n      tag_55\n      jump\t// in\n    tag_67:\n        /* \"#utility.yul\":546:609   */\n      swap2\n      pop\n        /* \"#utility.yul\":502:619   */\n      pop\n        /* \"#utility.yul\":297:626   */\n      swap3\n      swap2\n      pop\n      pop\n      jump\t// out\n        /* \"#utility.yul\":632:961   */\n    tag_15:\n        /* \"#utility.yul\":691:697   */\n      0x00\n        /* \"#utility.yul\":740:742   */\n      0x20\n        /* \"#utility.yul\":728:737   */\n      dup3\n        /* \"#utility.yul\":719:726   */\n      dup5\n        /* \"#utility.yul\":715:738   */\n      sub\n        /* \"#utility.yul\":711:743   */\n      slt\n        /* \"#utility.yul\":708:827   */\n      iszero\n      tag_69\n      jumpi\n        /* \"#utility.yul\":746:825   */\n      tag_70\n      tag_66\n      jump\t// in\n    tag_70:\n        /* \"#utility.yul\":708:827   */\n    tag_69:\n        /* \"#utility.yul\":866:867   */\n      0x00\n        /* \"#utility.yul\":891:944   */\n      tag_71\n        /* \"#utility.yul\":936:943   */\n      dup5\n        /* \"#utility.yul\":927:933   */\n      dup3\n        /* \"#utility.yul\":916:925   */\n      dup6\n        /* \"#utility.yul\":912:934   */\n      add\n        /* \"#utility.yul\":891:944   */\n      tag_59\n      jump\t// in\n    tag_71:\n        /* \"#utility.yul\":881:944   */\n      swap2\n      pop\n        /* \"#utility.yul\":837:954   */\n      pop\n        /* \"#utility.yul\":632:961   */\n      swap3\n      swap2\n      pop\n      pop\n      jump\t// out\n        /* \"#utility.yul\":967:1085   */\n    tag_72:\n        /* \"#utility.yul\":1054:1078   */\n      tag_74\n        /* \"#utility.yul\":1072:1077   */\n      dup2\n        /* \"#utility.yul\":1054:1078   */\n      tag_75\n      jump\t// in\n    tag_74:\n        /* \"#utility.yul\":1049:1052   */\n      dup3\n        /* \"#utility.yul\":1042:1079   */\n      mstore\n        /* \"#utility.yul\":967:1085   */\n      pop\n      pop\n      jump\t// out\n        /* \"#utility.yul\":1091:1457   */\n    tag_76:\n        /* \"#utility.yul\":1233:1236   */\n      0x00\n        /* \"#utility.yul\":1254:1321   */\n      tag_78\n        /* \"#utility.yul\":1318:1320   */\n      0x26\n        /* \"#utility.yul\":1313:1316   */\n      dup4\n        /* \"#utility.yul\":1254:1321   */\n      tag_79\n      jump\t// in\n    tag_78:\n        /* \"#utility.yul\":1247:1321   */\n      swap2\n      pop\n        /* \"#utility.yul\":1330:1423   */\n      tag_80\n        /* \"#utility.yul\":1419:1422   */\n      dup3\n        /* \"#utility.yul\":1330:1423   */\n      tag_81\n      jump\t// in\n    tag_80:\n        /* \"#utility.yul\":1448:1450   */\n      0x40\n        /* \"#utility.yul\":1443:1446   */\n      dup3\n        /* \"#utility.yul\":1439:1451   */\n      add\n        /* \"#utility.yul\":1432:1451   */\n      swap1\n      pop\n        /* \"#utility.yul\":1091:1457   */\n      swap2\n      swap1\n      pop\n      jump\t// out\n        /* \"#utility.yul\":1463:1829   */\n    tag_82:\n        /* \"#utility.yul\":1605:1608   */\n      0x00\n        /* \"#utility.yul\":1626:1693   */\n      tag_84\n        /* \"#utility.yul\":1690:1692   */\n      0x20\n        /* \"#utility.yul\":1685:1688   */\n      dup4\n        /* \"#utility.yul\":1626:1693   */\n      tag_79\n      jump\t// in\n    tag_84:\n        /* \"#utility.yul\":1619:1693   */\n      swap2\n      pop\n        /* \"#utility.yul\":1702:1795   */\n      tag_85\n        /* \"#utility.yul\":1791:1794   */\n      dup3\n        /* \"#utility.yul\":1702:1795   */\n      tag_86\n      jump\t// in\n    tag_85:\n        /* \"#utility.yul\":1820:1822   */\n      0x20\n        /* \"#utility.yul\":1815:1818   */\n      dup3\n        /* \"#utility.yul\":1811:1823   */\n      add\n        /* \"#utility.yul\":1804:1823   */\n      swap1\n      pop\n        /* \"#utility.yul\":1463:1829   */\n      swap2\n      swap1\n      pop\n      jump\t// out\n        /* \"#utility.yul\":1835:1953   */\n    tag_87:\n        /* \"#utility.yul\":1922:1946   */\n      tag_89\n        /* \"#utility.yul\":1940:1945   */\n      dup2\n        /* \"#utility.yul\":1922:1946   */\n      tag_90\n      jump\t// in\n    tag_89:\n        /* \"#utility.yul\":1917:1920   */\n      dup3\n        /* \"#utility.yul\":1910:1947   */\n      mstore\n        /* \"#utility.yul\":1835:1953   */\n      pop\n      pop\n      jump\t// out\n        /* \"#utility.yul\":1959:2181   */\n    tag_12:\n        /* \"#utility.yul\":2052:2056   */\n      0x00\n        /* \"#utility.yul\":2090:2092   */\n      0x20\n        /* \"#utility.yul\":2079:2088   */\n      dup3\n        /* \"#utility.yul\":2075:2093   */\n      add\n        /* \"#utility.yul\":2067:2093   */\n      swap1\n      pop\n        /* \"#utility.yul\":2103:2174   */\n      tag_92\n        /* \"#utility.yul\":2171:2172   */\n      0x00\n        /* \"#utility.yul\":2160:2169   */\n      dup4\n        /* \"#utility.yul\":2156:2173   */\n      add\n        /* \"#utility.yul\":2147:2153   */\n      dup5\n        /* \"#utility.yul\":2103:2174   */\n      tag_72\n      jump\t// in\n    tag_92:\n        /* \"#utility.yul\":1959:2181   */\n      swap3\n      swap2\n      pop\n      pop\n      jump\t// out\n        /* \"#utility.yul\":2187:2606   */\n    tag_40:\n        /* \"#utility.yul\":2353:2357   */\n      0x00\n        /* \"#utility.yul\":2391:2393   */\n      0x20\n        /* \"#utility.yul\":2380:2389   */\n      dup3\n        /* \"#utility.yul\":2376:2394   */\n      add\n        /* \"#utility.yul\":2368:2394   */\n      swap1\n      pop\n        /* \"#utility.yul\":2440:2449   */\n      dup2\n        /* \"#utility.yul\":2434:2438   */\n      dup2\n        /* \"#utility.yul\":2430:2450   */\n      sub\n        /* \"#utility.yul\":2426:2427   */\n      0x00\n        /* \"#utility.yul\":2415:2424   */\n      dup4\n        /* \"#utility.yul\":2411:2428   */\n      add\n        /* \"#utility.yul\":2404:2451   */\n      mstore\n        /* \"#utility.yul\":2468:2599   */\n      tag_94\n        /* \"#utility.yul\":2594:2598   */\n      dup2\n        /* \"#utility.yul\":2468:2599   */\n      tag_76\n      jump\t// in\n    tag_94:\n        /* \"#utility.yul\":2460:2599   */\n      swap1\n      pop\n        /* \"#utility.yul\":2187:2606   */\n      swap2\n      swap1\n      pop\n      jump\t// out\n        /* \"#utility.yul\":2612:3031   */\n    tag_48:\n        /* \"#utility.yul\":2778:2782   */\n      0x00\n        /* \"#utility.yul\":2816:2818   */\n      0x20\n        /* \"#utility.yul\":2805:2814   */\n      dup3\n        /* \"#utility.yul\":2801:2819   */\n      add\n        /* \"#utility.yul\":2793:2819   */\n      swap1\n      pop\n        /* \"#utility.yul\":2865:2874   */\n      dup2\n        /* \"#utility.yul\":2859:2863   */\n      dup2\n        /* \"#utility.yul\":2855:2875   */\n      sub\n        /* \"#utility.yul\":2851:2852   */\n      0x00\n        /* \"#utility.yul\":2840:2849   */\n      dup4\n        /* \"#utility.yul\":2836:2853   */\n      add\n        /* \"#utility.yul\":2829:2876   */\n      mstore\n        /* \"#utility.yul\":2893:3024   */\n      tag_96\n        /* \"#utility.yul\":3019:3023   */\n      dup2\n        /* \"#utility.yul\":2893:3024   */\n      tag_82\n      jump\t// in\n    tag_96:\n        /* \"#utility.yul\":2885:3024   */\n      swap1\n      pop\n        /* \"#utility.yul\":2612:3031   */\n      swap2\n      swap1\n      pop\n      jump\t// out\n        /* \"#utility.yul\":3037:3259   */\n    tag_18:\n        /* \"#utility.yul\":3130:3134   */\n      0x00\n        /* \"#utility.yul\":3168:3170   */\n      0x20\n        /* \"#utility.yul\":3157:3166   */\n      dup3\n        /* \"#utility.yul\":3153:3171   */\n      add\n        /* \"#utility.yul\":3145:3171   */\n      swap1\n      pop\n        /* \"#utility.yul\":3181:3252   */\n      tag_98\n        /* \"#utility.yul\":3249:3250   */\n      0x00\n        /* \"#utility.yul\":3238:3247   */\n      dup4\n        /* \"#utility.yul\":3234:3251   */\n      add\n        /* \"#utility.yul\":3225:3231   */\n      dup5\n        /* \"#utility.yul\":3181:3252   */\n      tag_87\n      jump\t// in\n    tag_98:\n        /* \"#utility.yul\":3037:3259   */\n      swap3\n      swap2\n      pop\n      pop\n      jump\t// out\n        /* \"#utility.yul\":3346:3515   */\n    tag_79:\n        /* \"#utility.yul\":3430:3441   */\n      0x00\n        /* \"#utility.yul\":3464:3470   */\n      dup3\n        /* \"#utility.yul\":3459:3462   */\n      dup3\n        /* \"#utility.yul\":3452:3471   */\n      mstore\n        /* \"#utility.yul\":3504:3508   */\n      0x20\n        /* \"#utility.yul\":3499:3502   */\n      dup3\n        /* \"#utility.yul\":3495:3509   */\n      add\n        /* \"#utility.yul\":3480:3509   */\n      swap1\n      pop\n        /* \"#utility.yul\":3346:3515   */\n      swap3\n      swap2\n      pop\n      pop\n      jump\t// out\n        /* \"#utility.yul\":3521:3706   */\n    tag_52:\n        /* \"#utility.yul\":3561:3562   */\n      0x00\n        /* \"#utility.yul\":3578:3598   */\n      tag_103\n        /* \"#utility.yul\":3596:3597   */\n      dup3\n        /* \"#utility.yul\":3578:3598   */\n      tag_90\n      jump\t// in\n    tag_103:\n        /* \"#utility.yul\":3573:3598   */\n      swap2\n      pop\n        /* \"#utility.yul\":3612:3632   */\n      tag_104\n        /* \"#utility.yul\":3630:3631   */\n      dup4\n        /* \"#utility.yul\":3612:3632   */\n      tag_90\n      jump\t// in\n    tag_104:\n        /* \"#utility.yul\":3607:3632   */\n      swap3\n      pop\n        /* \"#utility.yul\":3651:3652   */\n      dup3\n        /* \"#utility.yul\":3641:3676   */\n      tag_105\n      jumpi\n        /* \"#utility.yul\":3656:3674   */\n      tag_106\n      tag_107\n      jump\t// in\n    tag_106:\n        /* \"#utility.yul\":3641:3676   */\n    tag_105:\n        /* \"#utility.yul\":3698:3699   */\n      dup3\n        /* \"#utility.yul\":3695:3696   */\n      dup3\n        /* \"#utility.yul\":3691:3700   */\n      div\n        /* \"#utility.yul\":3686:3700   */\n      swap1\n      pop\n        /* \"#utility.yul\":3521:3706   */\n      swap3\n      swap2\n      pop\n      pop\n      jump\t// out\n        /* \"#utility.yul\":3712:3808   */\n    tag_75:\n        /* \"#utility.yul\":3749:3756   */\n      0x00\n        /* \"#utility.yul\":3778:3802   */\n      tag_109\n        /* \"#utility.yul\":3796:3801   */\n      dup3\n        /* \"#utility.yul\":3778:3802   */\n      tag_110\n      jump\t// in\n    tag_109:\n        /* \"#utility.yul\":3767:3802   */\n      swap1\n      pop\n        /* \"#utility.yul\":3712:3808   */\n      swap2\n      swap1\n      pop\n      jump\t// out\n        /* \"#utility.yul\":3814:3940   */\n    tag_110:\n        /* \"#utility.yul\":3851:3858   */\n      0x00\n        /* \"#utility.yul\":3891:3933   */\n      0xffffffffffffffffffffffffffffffffffffffff\n        /* \"#utility.yul\":3884:3889   */\n      dup3\n        /* \"#utility.yul\":3880:3934   */\n      and\n        /* \"#utility.yul\":3869:3934   */\n      swap1\n      pop\n        /* \"#utility.yul\":3814:3940   */\n      swap2\n      swap1\n      pop\n      jump\t// out\n        /* \"#utility.yul\":3946:4023   */\n    tag_90:\n        /* \"#utility.yul\":3983:3990   */\n      0x00\n        /* \"#utility.yul\":4012:4017   */\n      dup2\n        /* \"#utility.yul\":4001:4017   */\n      swap1\n      pop\n        /* \"#utility.yul\":3946:4023   */\n      swap2\n      swap1\n      pop\n      jump\t// out\n        /* \"#utility.yul\":4215:4395   */\n    tag_107:\n        /* \"#utility.yul\":4263:4340   */\n      0x4e487b7100000000000000000000000000000000000000000000000000000000\n        /* \"#utility.yul\":4260:4261   */\n      0x00\n        /* \"#utility.yul\":4253:4341   */\n      mstore\n        /* \"#utility.yul\":4360:4364   */\n      0x12\n        /* \"#utility.yul\":4357:4358   */\n      0x04\n        /* \"#utility.yul\":4350:4365   */\n      mstore\n        /* \"#utility.yul\":4384:4388   */\n      0x24\n        /* \"#utility.yul\":4381:4382   */\n      0x00\n        /* \"#utility.yul\":4374:4389   */\n      revert\n        /* \"#utility.yul\":4524:4641   */\n    tag_66:\n        /* \"#utility.yul\":4633:4634   */\n      0x00\n        /* \"#utility.yul\":4630:4631   */\n      dup1\n        /* \"#utility.yul\":4623:4635   */\n      revert\n        /* \"#utility.yul\":4647:4872   */\n    tag_81:\n        /* \"#utility.yul\":4787:4821   */\n      0x4f776e61626c653a206e6577206f776e657220697320746865207a65726f2061\n        /* \"#utility.yul\":4783:4784   */\n      0x00\n        /* \"#utility.yul\":4775:4781   */\n      dup3\n        /* \"#utility.yul\":4771:4785   */\n      add\n        /* \"#utility.yul\":4764:4822   */\n      mstore\n        /* \"#utility.yul\":4856:4864   */\n      0x6464726573730000000000000000000000000000000000000000000000000000\n        /* \"#utility.yul\":4851:4853   */\n      0x20\n        /* \"#utility.yul\":4843:4849   */\n      dup3\n        /* \"#utility.yul\":4839:4854   */\n      add\n        /* \"#utility.yul\":4832:4865   */\n      mstore\n        /* \"#utility.yul\":4647:4872   */\n      pop\n      jump\t// out\n        /* \"#utility.yul\":4878:5060   */\n    tag_86:\n        /* \"#utility.yul\":5018:5052   */\n      0x4f776e61626c653a2063616c6c6572206973206e6f7420746865206f776e6572\n        /* \"#utility.yul\":5014:5015   */\n      0x00\n        /* \"#utility.yul\":5006:5012   */\n      dup3\n        /* \"#utility.yul\":5002:5016   */\n      add\n        /* \"#utility.yul\":4995:5053   */\n      mstore\n        /* \"#utility.yul\":4878:5060   */\n      pop\n      jump\t// out\n        /* \"#utility.yul\":5066:5188   */\n    tag_58:\n        /* \"#utility.yul\":5139:5163   */\n      tag_122\n        /* \"#utility.yul\":5157:5162   */\n      dup2\n        /* \"#utility.yul\":5139:5163   */\n      tag_75\n      jump\t// in\n    tag_122:\n        /* \"#utility.yul\":5132:5137   */\n      dup2\n        /* \"#utility.yul\":5129:5164   */\n      eq\n        /* \"#utility.yul\":5119:5182   */\n      tag_123\n      jumpi\n        /* \"#utility.yul\":5178:5179   */\n      0x00\n        /* \"#utility.yul\":5175:5176   */\n      dup1\n        /* \"#utility.yul\":5168:5180   */\n      revert\n        /* \"#utility.yul\":5119:5182   */\n    tag_123:\n        /* \"#utility.yul\":5066:5188   */\n      pop\n      jump\t// out\n        /* \"#utility.yul\":5194:5316   */\n    tag_62:\n        /* \"#utility.yul\":5267:5291   */\n      tag_125\n        /* \"#utility.yul\":5285:5290   */\n      dup2\n        /* \"#utility.yul\":5267:5291   */\n      tag_90\n      jump\t// in\n    tag_125:\n        /* \"#utility.yul\":5260:5265   */\n      dup2\n        /* \"#utility.yul\":5257:5292   */\n      eq\n        /* \"#utility.yul\":5247:5310   */\n      tag_126\n      jumpi\n        /* \"#utility.yul\":5306:5307   */\n      0x00\n        /* \"#utility.yul\":5303:5304   */\n      dup1\n        /* \"#utility.yul\":5296:5308   */\n      revert\n        /* \"#utility.yul\":5247:5310   */\n    tag_126:\n        /* \"#utility.yul\":5194:5316   */\n      pop\n      jump\t// out\n\n    auxdata: 0xa26469706673582212201089f36dc2ca71cd54e0d3292d3e50fd39b2065fc84faff2226276370c5e9e9464736f6c63430008070033\n}\n",
				"bytecode": {
					"linkReferences": {},
					"object": "608060405234801561001057600080fd5b5061002d61002261003260201b60201c565b61003a60201b60201c565b6100fe565b600033905090565b60008060009054906101000a900473ffffffffffffffffffffffffffffffffffffffff169050816000806101000a81548173ffffffffffffffffffffffffffffffffffffffff021916908373ffffffffffffffffffffffffffffffffffffffff1602179055508173ffffffffffffffffffffffffffffffffffffffff168173ffffffffffffffffffffffffffffffffffffffff167f8be0079c531659141344cd1fd0a4f28419497f9722a3daafe3b4186f6b6457e060405160405180910390a35050565b6105ff8061010d6000396000f3fe608060405234801561001057600080fd5b506004361061004c5760003560e01c8063715018a6146100515780638da5cb5b1461005b578063f2e6020214610079578063f2fde38b146100a9575b600080fd5b6100596100c5565b005b6100636100d9565b60405161007091906103fb565b60405180910390f35b610093600480360381019061008e919061036a565b610102565b6040516100a09190610456565b60405180910390f35b6100c360048036038101906100be919061033d565b61012f565b005b6100cd6101b3565b6100d76000610231565b565b60008060009054906101000a900473ffffffffffffffffffffffffffffffffffffffff16905090565b60008060025483116101175760019050610126565b610123836002546102f5565b90505b80915050919050565b6101376101b3565b600073ffffffffffffffffffffffffffffffffffffffff168173ffffffffffffffffffffffffffffffffffffffff1614156101a7576040517f08c379a000000000000000000000000000000000000000000000000000000000815260040161019e90610416565b60405180910390fd5b6101b081610231565b50565b6101bb61030b565b73ffffffffffffffffffffffffffffffffffffffff166101d96100d9565b73ffffffffffffffffffffffffffffffffffffffff161461022f576040517f08c379a000000000000000000000000000000000000000000000000000000000815260040161022690610436565b60405180910390fd5b565b60008060009054906101000a900473ffffffffffffffffffffffffffffffffffffffff169050816000806101000a81548173ffffffffffffffffffffffffffffffffffffffff021916908373ffffffffffffffffffffffffffffffffffffffff1602179055508173ffffffffffffffffffffffffffffffffffffffff168173ffffffffffffffffffffffffffffffffffffffff167f8be0079c531659141344cd1fd0a4f28419497f9722a3daafe3b4186f6b6457e060405160405180910390a35050565b600081836103039190610482565b905092915050565b600033905090565b6000813590506103228161059b565b92915050565b600081359050610337816105b2565b92915050565b6000602082840312156103535761035261051e565b5b600061036184828501610313565b91505092915050565b6000602082840312156103805761037f61051e565b5b600061038e84828501610328565b91505092915050565b6103a0816104b3565b82525050565b60006103b3602683610471565b91506103be82610523565b604082019050919050565b60006103d6602083610471565b91506103e182610572565b602082019050919050565b6103f5816104e5565b82525050565b60006020820190506104106000830184610397565b92915050565b6000602082019050818103600083015261042f816103a6565b9050919050565b6000602082019050818103600083015261044f816103c9565b9050919050565b600060208201905061046b60008301846103ec565b92915050565b600082825260208201905092915050565b600061048d826104e5565b9150610498836104e5565b9250826104a8576104a76104ef565b5b828204905092915050565b60006104be826104c5565b9050919050565b600073ffffffffffffffffffffffffffffffffffffffff82169050919050565b6000819050919050565b7f4e487b7100000000000000000000000000000000000000000000000000000000600052601260045260246000fd5b600080fd5b7f4f776e61626c653a206e6577206f776e657220697320746865207a65726f206160008201527f6464726573730000000000000000000000000000000000000000000000000000602082015250565b7f4f776e61626c653a2063616c6c6572206973206e6f7420746865206f776e6572600082015250565b6105a4816104b3565b81146105af57600080fd5b50565b6105bb816104e5565b81146105c657600080fd5b5056fea26469706673582212201089f36dc2ca71cd54e0d3292d3e50fd39b2065fc84faff2226276370c5e9e9464736f6c63430008070033",
					"opcodes": "PUSH1 0x80 PUSH1 0x40 MSTORE CALLVALUE DUP1 ISZERO PUSH2 0x10 JUMPI PUSH1 0x0 DUP1 REVERT JUMPDEST POP PUSH2 0x2D PUSH2 0x22 PUSH2 0x32 PUSH1 0x20 SHL PUSH1 0x20 SHR JUMP JUMPDEST PUSH2 0x3A PUSH1 0x20 SHL PUSH1 0x20 SHR JUMP JUMPDEST PUSH2 0xFE JUMP JUMPDEST PUSH1 0x0 CALLER SWAP1 POP SWAP1 JUMP JUMPDEST PUSH1 0x0 DUP1 PUSH1 0x0 SWAP1 SLOAD SWAP1 PUSH2 0x100 EXP SWAP1 DIV PUSH20 0xFFFFFFFFFFFFFFFFFFFFFFFFFFFFFFFFFFFFFFFF AND SWAP1 POP DUP2 PUSH1 0x0 DUP1 PUSH2 0x100 EXP DUP2 SLOAD DUP2 PUSH20 0xFFFFFFFFFFFFFFFFFFFFFFFFFFFFFFFFFFFFFFFF MUL NOT AND SWAP1 DUP4 PUSH20 0xFFFFFFFFFFFFFFFFFFFFFFFFFFFFFFFFFFFFFFFF AND MUL OR SWAP1 SSTORE POP DUP2 PUSH20 0xFFFFFFFFFFFFFFFFFFFFFFFFFFFFFFFFFFFFFFFF AND DUP2 PUSH20 0xFFFFFFFFFFFFFFFFFFFFFFFFFFFFFFFFFFFFFFFF AND PUSH32 0x8BE0079C531659141344CD1FD0A4F28419497F9722A3DAAFE3B4186F6B6457E0 PUSH1 0x40 MLOAD PUSH1 0x40 MLOAD DUP1 SWAP2 SUB SWAP1 LOG3 POP POP JUMP JUMPDEST PUSH2 0x5FF DUP1 PUSH2 0x10D PUSH1 0x0 CODECOPY PUSH1 0x0 RETURN INVALID PUSH1 0x80 PUSH1 0x40 MSTORE CALLVALUE DUP1 ISZERO PUSH2 0x10 JUMPI PUSH1 0x0 DUP1 REVERT JUMPDEST POP PUSH1 0x4 CALLDATASIZE LT PUSH2 0x4C JUMPI PUSH1 0x0 CALLDATALOAD PUSH1 0xE0 SHR DUP1 PUSH4 0x715018A6 EQ PUSH2 0x51 JUMPI DUP1 PUSH4 0x8DA5CB5B EQ PUSH2 0x5B JUMPI DUP1 PUSH4 0xF2E60202 EQ PUSH2 0x79 JUMPI DUP1 PUSH4 0xF2FDE38B EQ PUSH2 0xA9 JUMPI JUMPDEST PUSH1 0x0 DUP1 REVERT JUMPDEST PUSH2 0x59 PUSH2 0xC5 JUMP JUMPDEST STOP JUMPDEST PUSH2 0x63 PUSH2 0xD9 JUMP JUMPDEST PUSH1 0x40 MLOAD PUSH2 0x70 SWAP2 SWAP1 PUSH2 0x3FB JUMP JUMPDEST PUSH1 0x40 MLOAD DUP1 SWAP2 SUB SWAP1 RETURN JUMPDEST PUSH2 0x93 PUSH1 0x4 DUP1 CALLDATASIZE SUB DUP2 ADD SWAP1 PUSH2 0x8E SWAP2 SWAP1 PUSH2 0x36A JUMP JUMPDEST PUSH2 0x102 JUMP JUMPDEST PUSH1 0x40 MLOAD PUSH2 0xA0 SWAP2 SWAP1 PUSH2 0x456 JUMP JUMPDEST PUSH1 0x40 MLOAD DUP1 SWAP2 SUB SWAP1 RETURN JUMPDEST PUSH2 0xC3 PUSH1 0x4 DUP1 CALLDATASIZE SUB DUP2 ADD SWAP1 PUSH2 0xBE SWAP2 SWAP1 PUSH2 0x33D JUMP JUMPDEST PUSH2 0x12F JUMP JUMPDEST STOP JUMPDEST PUSH2 0xCD PUSH2 0x1B3 JUMP JUMPDEST PUSH2 0xD7 PUSH1 0x0 PUSH2 0x231 JUMP JUMPDEST JUMP JUMPDEST PUSH1 0x0 DUP1 PUSH1 0x0 SWAP1 SLOAD SWAP1 PUSH2 0x100 EXP SWAP1 DIV PUSH20 0xFFFFFFFFFFFFFFFFFFFFFFFFFFFFFFFFFFFFFFFF AND SWAP1 POP SWAP1 JUMP JUMPDEST PUSH1 0x0 DUP1 PUSH1 0x2 SLOAD DUP4 GT PUSH2 0x117 JUMPI PUSH1 0x1 SWAP1 POP PUSH2 0x126 JUMP JUMPDEST PUSH2 0x123 DUP4 PUSH1 0x2 SLOAD PUSH2 0x2F5 JUMP JUMPDEST SWAP1 POP JUMPDEST DUP1 SWAP2 POP POP SWAP2 SWAP1 POP JUMP JUMPDEST PUSH2 0x137 PUSH2 0x1B3 JUMP JUMPDEST PUSH1 0x0 PUSH20 0xFFFFFFFFFFFFFFFFFFFFFFFFFFFFFFFFFFFFFFFF AND DUP2 PUSH20 0xFFFFFFFFFFFFFFFFFFFFFFFFFFFFFFFFFFFFFFFF AND EQ ISZERO PUSH2 0x1A7 JUMPI PUSH1 0x40 MLOAD PUSH32 0x8C379A000000000000000000000000000000000000000000000000000000000 DUP2 MSTORE PUSH1 0x4 ADD PUSH2 0x19E SWAP1 PUSH2 0x416 JUMP JUMPDEST PUSH1 0x40 MLOAD DUP1 SWAP2 SUB SWAP1 REVERT JUMPDEST PUSH2 0x1B0 DUP2 PUSH2 0x231 JUMP JUMPDEST POP JUMP JUMPDEST PUSH2 0x1BB PUSH2 0x30B JUMP JUMPDEST PUSH20 0xFFFFFFFFFFFFFFFFFFFFFFFFFFFFFFFFFFFFFFFF AND PUSH2 0x1D9 PUSH2 0xD9 JUMP JUMPDEST PUSH20 0xFFFFFFFFFFFFFFFFFFFFFFFFFFFFFFFFFFFFFFFF AND EQ PUSH2 0x22F JUMPI PUSH1 0x40 MLOAD PUSH32 0x8C379A000000000000000000000000000000000000000000000000000000000 DUP2 MSTORE PUSH1 0x4 ADD PUSH2 0x226 SWAP1 PUSH2 0x436 JUMP JUMPDEST PUSH1 0x40 MLOAD DUP1 SWAP2 SUB SWAP1 REVERT JUMPDEST JUMP JUMPDEST PUSH1 0x0 DUP1 PUSH1 0x0 SWAP1 SLOAD SWAP1 PUSH2 0x100 EXP SWAP1 DIV PUSH20 0xFFFFFFFFFFFFFFFFFFFFFFFFFFFFFFFFFFFFFFFF AND SWAP1 POP DUP2 PUSH1 0x0 DUP1 PUSH2 0x100 EXP DUP2 SLOAD DUP2 PUSH20 0xFFFFFFFFFFFFFFFFFFFFFFFFFFFFFFFFFFFFFFFF MUL NOT AND SWAP1 DUP4 PUSH20 0xFFFFFFFFFFFFFFFFFFFFFFFFFFFFFFFFFFFFFFFF AND MUL OR SWAP1 SSTORE POP DUP2 PUSH20 0xFFFFFFFFFFFFFFFFFFFFFFFFFFFFFFFFFFFFFFFF AND DUP2 PUSH20 0xFFFFFFFFFFFFFFFFFFFFFFFFFFFFFFFFFFFFFFFF AND PUSH32 0x8BE0079C531659141344CD1FD0A4F28419497F9722A3DAAFE3B4186F6B6457E0 PUSH1 0x40 MLOAD PUSH1 0x40 MLOAD DUP1 SWAP2 SUB SWAP1 LOG3 POP POP JUMP JUMPDEST PUSH1 0x0 DUP2 DUP4 PUSH2 0x303 SWAP2 SWAP1 PUSH2 0x482 JUMP JUMPDEST SWAP1 POP SWAP3 SWAP2 POP POP JUMP JUMPDEST PUSH1 0x0 CALLER SWAP1 POP SWAP1 JUMP JUMPDEST PUSH1 0x0 DUP2 CALLDATALOAD SWAP1 POP PUSH2 0x322 DUP2 PUSH2 0x59B JUMP JUMPDEST SWAP3 SWAP2 POP POP JUMP JUMPDEST PUSH1 0x0 DUP2 CALLDATALOAD SWAP1 POP PUSH2 0x337 DUP2 PUSH2 0x5B2 JUMP JUMPDEST SWAP3 SWAP2 POP POP JUMP JUMPDEST PUSH1 0x0 PUSH1 0x20 DUP3 DUP5 SUB SLT ISZERO PUSH2 0x353 JUMPI PUSH2 0x352 PUSH2 0x51E JUMP JUMPDEST JUMPDEST PUSH1 0x0 PUSH2 0x361 DUP5 DUP3 DUP6 ADD PUSH2 0x313 JUMP JUMPDEST SWAP2 POP POP SWAP3 SWAP2 POP POP JUMP JUMPDEST PUSH1 0x0 PUSH1 0x20 DUP3 DUP5 SUB SLT ISZERO PUSH2 0x380 JUMPI PUSH2 0x37F PUSH2 0x51E JUMP JUMPDEST JUMPDEST PUSH1 0x0 PUSH2 0x38E DUP5 DUP3 DUP6 ADD PUSH2 0x328 JUMP JUMPDEST SWAP2 POP POP SWAP3 SWAP2 POP POP JUMP JUMPDEST PUSH2 0x3A0 DUP2 PUSH2 0x4B3 JUMP JUMPDEST DUP3 MSTORE POP POP JUMP JUMPDEST PUSH1 0x0 PUSH2 0x3B3 PUSH1 0x26 DUP4 PUSH2 0x471 JUMP JUMPDEST SWAP2 POP PUSH2 0x3BE DUP3 PUSH2 0x523 JUMP JUMPDEST PUSH1 0x40 DUP3 ADD SWAP1 POP SWAP2 SWAP1 POP JUMP JUMPDEST PUSH1 0x0 PUSH2 0x3D6 PUSH1 0x20 DUP4 PUSH2 0x471 JUMP JUMPDEST SWAP2 POP PUSH2 0x3E1 DUP3 PUSH2 0x572 JUMP JUMPDEST PUSH1 0x20 DUP3 ADD SWAP1 POP SWAP2 SWAP1 POP JUMP JUMPDEST PUSH2 0x3F5 DUP2 PUSH2 0x4E5 JUMP JUMPDEST DUP3 MSTORE POP POP JUMP JUMPDEST PUSH1 0x0 PUSH1 0x20 DUP3 ADD SWAP1 POP PUSH2 0x410 PUSH1 0x0 DUP4 ADD DUP5 PUSH2 0x397 JUMP JUMPDEST SWAP3 SWAP2 POP POP JUMP JUMPDEST PUSH1 0x0 PUSH1 0x20 DUP3 ADD SWAP1 POP DUP2 DUP2 SUB PUSH1 0x0 DUP4 ADD MSTORE PUSH2 0x42F DUP2 PUSH2 0x3A6 JUMP JUMPDEST SWAP1 POP SWAP2 SWAP1 POP JUMP JUMPDEST PUSH1 0x0 PUSH1 0x20 DUP3 ADD SWAP1 POP DUP2 DUP2 SUB PUSH1 0x0 DUP4 ADD MSTORE PUSH2 0x44F DUP2 PUSH2 0x3C9 JUMP JUMPDEST SWAP1 POP SWAP2 SWAP1 POP JUMP JUMPDEST PUSH1 0x0 PUSH1 0x20 DUP3 ADD SWAP1 POP PUSH2 0x46B PUSH1 0x0 DUP4 ADD DUP5 PUSH2 0x3EC JUMP JUMPDEST SWAP3 SWAP2 POP POP JUMP JUMPDEST PUSH1 0x0 DUP3 DUP3 MSTORE PUSH1 0x20 DUP3 ADD SWAP1 POP SWAP3 SWAP2 POP POP JUMP JUMPDEST PUSH1 0x0 PUSH2 0x48D DUP3 PUSH2 0x4E5 JUMP JUMPDEST SWAP2 POP PUSH2 0x498 DUP4 PUSH2 0x4E5 JUMP JUMPDEST SWAP3 POP DUP3 PUSH2 0x4A8 JUMPI PUSH2 0x4A7 PUSH2 0x4EF JUMP JUMPDEST JUMPDEST DUP3 DUP3 DIV SWAP1 POP SWAP3 SWAP2 POP POP JUMP JUMPDEST PUSH1 0x0 PUSH2 0x4BE DUP3 PUSH2 0x4C5 JUMP JUMPDEST SWAP1 POP SWAP2 SWAP1 POP JUMP JUMPDEST PUSH1 0x0 PUSH20 0xFFFFFFFFFFFFFFFFFFFFFFFFFFFFFFFFFFFFFFFF DUP3 AND SWAP1 POP SWAP2 SWAP1 POP JUMP JUMPDEST PUSH1 0x0 DUP2 SWAP1 POP SWAP2 SWAP1 POP JUMP JUMPDEST PUSH32 0x4E487B7100000000000000000000000000000000000000000000000000000000 PUSH1 0x0 MSTORE PUSH1 0x12 PUSH1 0x4 MSTORE PUSH1 0x24 PUSH1 0x0 REVERT JUMPDEST PUSH1 0x0 DUP1 REVERT JUMPDEST PUSH32 0x4F776E61626C653A206E6577206F776E657220697320746865207A65726F2061 PUSH1 0x0 DUP3 ADD MSTORE PUSH32 0x6464726573730000000000000000000000000000000000000000000000000000 PUSH1 0x20 DUP3 ADD MSTORE POP JUMP JUMPDEST PUSH32 0x4F776E61626C653A2063616C6C6572206973206E6F7420746865206F776E6572 PUSH1 0x0 DUP3 ADD MSTORE POP JUMP JUMPDEST PUSH2 0x5A4 DUP2 PUSH2 0x4B3 JUMP JUMPDEST DUP2 EQ PUSH2 0x5AF JUMPI PUSH1 0x0 DUP1 REVERT JUMPDEST POP JUMP JUMPDEST PUSH2 0x5BB DUP2 PUSH2 0x4E5 JUMP JUMPDEST DUP2 EQ PUSH2 0x5C6 JUMPI PUSH1 0x0 DUP1 REVERT JUMPDEST POP JUMP INVALID LOG2 PUSH5 0x6970667358 0x22 SLT KECCAK256 LT DUP10 RETURN PUSH14 0xC2CA71CD54E0D3292D3E50FD39B2 MOD 0x5F 0xC8 0x4F 0xAF CALLCODE 0x22 PUSH3 0x76370C 0x5E SWAP15 SWAP5 PUSH5 0x736F6C6343 STOP ADDMOD SMOD STOP CALLER "
				},
				"gasEstimates": {
					"creation": {
						"codeDepositCost": "307000",
						"executionCost": "infinite",
						"totalCost": "infinite"
					},
					"external": {
						"getMatNumber(uint256)": "infinite",
						"owner()": "2522",
						"renounceOwnership()": "30376",
						"transferOwnership(address)": "30791"
					},
					"internal": {
						"punishRatio(uint256)": "infinite",
						"setRate(uint256)": "infinite",
						"setvfN(uint256)": "infinite"
					}
				},
				"methodIdentifiers": {
					"getMatNumber(uint256)": "f2e60202",
					"owner()": "8da5cb5b",
					"renounceOwnership()": "715018a6",
					"transferOwnership(address)": "f2fde38b"
				}
			},
			"storageLayout": {
				"storage": [
					{
						"astId": 7,
						"contract": "Amphi/amphi-contract/amphi-contract/utils/calculateUtils.sol:CalculateUtils",
						"label": "_owner",
						"offset": 0,
						"slot": "0",
						"type": "t_address"
					},
					{
						"astId": 454,
						"contract": "Amphi/amphi-contract/amphi-contract/utils/calculateUtils.sol:CalculateUtils",
						"label": "rate",
						"offset": 0,
						"slot": "1",
						"type": "t_uint256"
					},
					{
						"astId": 456,
						"contract": "Amphi/amphi-contract/amphi-contract/utils/calculateUtils.sol:CalculateUtils",
						"label": "vfN",
						"offset": 0,
						"slot": "2",
						"type": "t_uint256"
					}
				],
				"types": {
					"t_address": {
						"encoding": "inplace",
						"label": "address",
						"numberOfBytes": "20"
					},
					"t_uint256": {
						"encoding": "inplace",
						"label": "uint256",
						"numberOfBytes": "32"
					}
				}
			},
			"userdoc": {
				"kind": "user",
				"methods": {},
				"version": 1
			}
		}
	}
}