{
	"Pledge.sol": {
		"Pledge": {
			"abi": [
				{
					"inputs": [
						{
							"internalType": "address",
							"name": "pool_",
							"type": "address"
						},
						{
							"internalType": "address",
							"name": "token_",
							"type": "address"
						}
					],
					"stateMutability": "nonpayable",
					"type": "constructor"
				},
				{
					"anonymous": false,
					"inputs": [
						{
							"indexed": true,
							"internalType": "address",
							"name": "user",
							"type": "address"
						},
						{
							"indexed": false,
							"internalType": "uint256",
							"name": "store",
							"type": "uint256"
						},
						{
							"indexed": false,
							"internalType": "uint256",
							"name": "deadline",
							"type": "uint256"
						}
					],
					"name": "BuyStorageEvent",
					"type": "event"
				},
				{
					"anonymous": false,
					"inputs": [
						{
							"indexed": true,
							"internalType": "address",
							"name": "miner",
							"type": "address"
						},
						{
							"indexed": false,
							"internalType": "uint256",
							"name": "amount",
							"type": "uint256"
						},
						{
							"indexed": false,
							"internalType": "uint256",
							"name": "store",
							"type": "uint256"
						}
					],
					"name": "MinerStakeEvent",
					"type": "event"
				},
				{
					"anonymous": false,
					"inputs": [
						{
							"indexed": true,
							"internalType": "address",
							"name": "previousOwner",
							"type": "address"
						},
						{
							"indexed": true,
							"internalType": "address",
							"name": "newOwner",
							"type": "address"
						}
					],
					"name": "OwnershipTransferred",
					"type": "event"
				},
				{
					"anonymous": false,
					"inputs": [
						{
							"indexed": true,
							"internalType": "address",
							"name": "user",
							"type": "address"
						},
						{
							"indexed": false,
							"internalType": "uint256",
							"name": "amount",
							"type": "uint256"
						}
					],
					"name": "PunishEvent",
					"type": "event"
				},
				{
					"anonymous": false,
					"inputs": [
						{
							"indexed": true,
							"internalType": "address",
							"name": "user",
							"type": "address"
						},
						{
							"indexed": false,
							"internalType": "uint8",
							"name": "role",
							"type": "uint8"
						}
					],
					"name": "RemoveEvent",
					"type": "event"
				},
				{
					"anonymous": false,
					"inputs": [
						{
							"indexed": true,
							"internalType": "address",
							"name": "user",
							"type": "address"
						},
						{
							"indexed": false,
							"internalType": "uint256",
							"name": "size",
							"type": "uint256"
						}
					],
					"name": "UploadMetaInfoEvent",
					"type": "event"
				},
				{
					"anonymous": false,
					"inputs": [
						{
							"indexed": true,
							"internalType": "address",
							"name": "miner",
							"type": "address"
						},
						{
							"indexed": false,
							"internalType": "string[]",
							"name": "info",
							"type": "string[]"
						}
					],
					"name": "UploadMinerInfoEvent",
					"type": "event"
				},
				{
					"anonymous": false,
					"inputs": [
						{
							"indexed": true,
							"internalType": "address",
							"name": "user",
							"type": "address"
						},
						{
							"indexed": false,
							"internalType": "uint256",
							"name": "store",
							"type": "uint256"
						}
					],
					"name": "UserBuyStorageEvent",
					"type": "event"
				},
				{
					"anonymous": false,
					"inputs": [
						{
							"indexed": true,
							"internalType": "address",
							"name": "validator",
							"type": "address"
						},
						{
							"indexed": false,
							"internalType": "uint256",
							"name": "amount",
							"type": "uint256"
						}
					],
					"name": "ValidatorStakeEvent",
					"type": "event"
				},
				{
					"inputs": [],
					"name": "allMiners",
					"outputs": [
						{
							"internalType": "address[]",
							"name": "",
							"type": "address[]"
						}
					],
					"stateMutability": "view",
					"type": "function"
				},
				{
					"inputs": [],
					"name": "allValidators",
					"outputs": [
						{
							"internalType": "address[]",
							"name": "",
							"type": "address[]"
						}
					],
					"stateMutability": "view",
					"type": "function"
				},
				{
					"inputs": [
						{
							"internalType": "uint256",
							"name": "store_",
							"type": "uint256"
						},
						{
							"internalType": "uint256",
							"name": "days_",
							"type": "uint256"
						}
					],
					"name": "buyStorage",
					"outputs": [],
					"stateMutability": "nonpayable",
					"type": "function"
				},
				{
					"inputs": [
						{
							"internalType": "address",
							"name": "user_",
							"type": "address"
						}
					],
					"name": "checkMiner",
					"outputs": [
						{
							"internalType": "bool",
							"name": "",
							"type": "bool"
						}
					],
					"stateMutability": "view",
					"type": "function"
				},
				{
					"inputs": [
						{
							"internalType": "address",
							"name": "user_",
							"type": "address"
						}
					],
					"name": "checkValidator",
					"outputs": [
						{
							"internalType": "bool",
							"name": "",
							"type": "bool"
						}
					],
					"stateMutability": "view",
					"type": "function"
				},
				{
					"inputs": [],
					"name": "dayStamp",
					"outputs": [
						{
							"internalType": "uint256",
							"name": "",
							"type": "uint256"
						}
					],
					"stateMutability": "view",
					"type": "function"
				},
				{
					"inputs": [
						{
							"internalType": "uint256",
							"name": "store_",
							"type": "uint256"
						},
						{
							"internalType": "uint256",
							"name": "numbers_",
							"type": "uint256"
						}
					],
					"name": "getMiners",
					"outputs": [
						{
							"internalType": "address[]",
							"name": "",
							"type": "address[]"
						}
					],
					"stateMutability": "view",
					"type": "function"
				},
				{
					"inputs": [
						{
							"internalType": "address",
							"name": "user_",
							"type": "address"
						}
					],
					"name": "getUerRole",
					"outputs": [
						{
							"internalType": "uint256",
							"name": "",
							"type": "uint256"
						}
					],
					"stateMutability": "view",
					"type": "function"
				},
				{
					"inputs": [],
					"name": "minerLength",
					"outputs": [
						{
							"internalType": "uint256",
							"name": "",
							"type": "uint256"
						}
					],
					"stateMutability": "view",
					"type": "function"
				},
				{
					"inputs": [],
					"name": "minerStakePrice",
					"outputs": [
						{
							"internalType": "uint256",
							"name": "",
							"type": "uint256"
						}
					],
					"stateMutability": "view",
					"type": "function"
				},
				{
					"inputs": [
						{
							"internalType": "address",
							"name": "",
							"type": "address"
						}
					],
					"name": "minerStorage",
					"outputs": [
						{
							"internalType": "uint256",
							"name": "total",
							"type": "uint256"
						},
						{
							"internalType": "uint256",
							"name": "unUse",
							"type": "uint256"
						}
					],
					"stateMutability": "view",
					"type": "function"
				},
				{
					"inputs": [],
					"name": "owner",
					"outputs": [
						{
							"internalType": "address",
							"name": "",
							"type": "address"
						}
					],
					"stateMutability": "view",
					"type": "function"
				},
				{
					"inputs": [],
					"name": "pool",
					"outputs": [
						{
							"internalType": "address",
							"name": "",
							"type": "address"
						}
					],
					"stateMutability": "view",
					"type": "function"
				},
				{
					"inputs": [
						{
							"internalType": "uint256",
							"name": "amount_",
							"type": "uint256"
						},
						{
							"internalType": "uint256",
							"name": "state_",
							"type": "uint256"
						}
					],
					"name": "pulishAndReward",
					"outputs": [],
					"stateMutability": "nonpayable",
					"type": "function"
				},
				{
					"inputs": [
						{
							"internalType": "address",
							"name": "user_",
							"type": "address"
						},
						{
							"internalType": "uint256",
							"name": "amount_",
							"type": "uint256"
						}
					],
					"name": "punishUser",
					"outputs": [
						{
							"internalType": "bool",
							"name": "",
							"type": "bool"
						}
					],
					"stateMutability": "nonpayable",
					"type": "function"
				},
				{
					"inputs": [
						{
							"internalType": "address",
							"name": "user_",
							"type": "address"
						}
					],
					"name": "removeUser",
					"outputs": [
						{
							"internalType": "bool",
							"name": "",
							"type": "bool"
						}
					],
					"stateMutability": "nonpayable",
					"type": "function"
				},
				{
					"inputs": [],
					"name": "renounceOwnership",
					"outputs": [],
					"stateMutability": "nonpayable",
					"type": "function"
				},
				{
					"inputs": [
						{
							"internalType": "address",
							"name": "store_",
							"type": "address"
						}
					],
					"name": "setSotre",
					"outputs": [],
					"stateMutability": "nonpayable",
					"type": "function"
				},
				{
					"inputs": [],
					"name": "singleStoragePricce",
					"outputs": [
						{
							"internalType": "uint256",
							"name": "",
							"type": "uint256"
						}
					],
					"stateMutability": "view",
					"type": "function"
				},
				{
					"inputs": [
						{
							"internalType": "uint256",
							"name": "store_",
							"type": "uint256"
						},
						{
							"internalType": "uint8",
							"name": "role_",
							"type": "uint8"
						}
					],
					"name": "stake",
					"outputs": [],
					"stateMutability": "nonpayable",
					"type": "function"
				},
				{
					"inputs": [],
					"name": "store",
					"outputs": [
						{
							"internalType": "address",
							"name": "",
							"type": "address"
						}
					],
					"stateMutability": "view",
					"type": "function"
				},
				{
					"inputs": [],
					"name": "token",
					"outputs": [
						{
							"internalType": "address",
							"name": "",
							"type": "address"
						}
					],
					"stateMutability": "view",
					"type": "function"
				},
				{
					"inputs": [
						{
							"internalType": "address",
							"name": "newOwner",
							"type": "address"
						}
					],
					"name": "transferOwnership",
					"outputs": [],
					"stateMutability": "nonpayable",
					"type": "function"
				},
				{
					"inputs": [
						{
							"internalType": "bytes",
							"name": "extra",
							"type": "bytes"
						}
					],
					"name": "uploadMetaDataBytes",
					"outputs": [],
					"stateMutability": "nonpayable",
					"type": "function"
				},
				{
					"inputs": [
						{
							"internalType": "address",
							"name": "",
							"type": "address"
						}
					],
					"name": "userOwnStorage",
					"outputs": [
						{
							"internalType": "uint256",
							"name": "total",
							"type": "uint256"
						},
						{
							"internalType": "uint256",
							"name": "unUse",
							"type": "uint256"
						},
						{
							"internalType": "uint256",
							"name": "deadline",
							"type": "uint256"
						}
					],
					"stateMutability": "view",
					"type": "function"
				},
				{
					"inputs": [
						{
							"internalType": "address",
							"name": "",
							"type": "address"
						}
					],
					"name": "userStakeAmount",
					"outputs": [
						{
							"internalType": "uint256",
							"name": "",
							"type": "uint256"
						}
					],
					"stateMutability": "view",
					"type": "function"
				},
				{
					"inputs": [],
					"name": "validatorLength",
					"outputs": [
						{
							"internalType": "uint256",
							"name": "",
							"type": "uint256"
						}
					],
					"stateMutability": "view",
					"type": "function"
				},
				{
					"inputs": [],
					"name": "validatorStakePrice",
					"outputs": [
						{
							"internalType": "uint256",
							"name": "",
							"type": "uint256"
						}
					],
					"stateMutability": "view",
					"type": "function"
				}
			],
			"devdoc": {
				"kind": "dev",
				"methods": {
					"owner()": {
						"details": "Returns the address of the current owner."
					},
					"renounceOwnership()": {
						"details": "Leaves the contract without owner. It will not be possible to call `onlyOwner` functions. Can only be called by the current owner. NOTE: Renouncing ownership will leave the contract without an owner, thereby disabling any functionality that is only available to the owner."
					},
					"transferOwnership(address)": {
						"details": "Transfers ownership of the contract to a new account (`newOwner`). Can only be called by the current owner."
					}
				},
				"version": 1
			},
			"evm": {
				"assembly": "    /* \"Pledge.sol\":433:9471  contract Pledge is IPledge, Ownable, ReentrancyGuard {... */\n  mstore(0x40, 0x80)\n    /* \"Pledge.sol\":1223:1436  constructor(address pool_, address token_) {... */\n  callvalue\n  dup1\n  iszero\n  tag_1\n  jumpi\n  0x00\n  dup1\n  revert\ntag_1:\n  pop\n  mload(0x40)\n  sub(codesize, bytecodeSize)\n  dup1\n  bytecodeSize\n  dup4\n  codecopy\n  dup2\n  dup2\n  add\n  0x40\n  mstore\n  dup2\n  add\n  swap1\n  tag_2\n  swap2\n  swap1\n  tag_3\n  jump\t// in\ntag_2:\n    /* \"@openzeppelin/contracts/access/Ownable.sol\":936:968  _transferOwnership(_msgSender()) */\n  tag_8\n    /* \"@openzeppelin/contracts/access/Ownable.sol\":955:967  _msgSender() */\n  tag_9\n    /* \"@openzeppelin/contracts/access/Ownable.sol\":955:965  _msgSender */\n  shl(0x20, tag_10)\n    /* \"@openzeppelin/contracts/access/Ownable.sol\":955:967  _msgSender() */\n  0x20\n  shr\n  jump\t// in\ntag_9:\n    /* \"@openzeppelin/contracts/access/Ownable.sol\":936:954  _transferOwnership */\n  shl(0x20, tag_11)\n    /* \"@openzeppelin/contracts/access/Ownable.sol\":936:968  _transferOwnership(_msgSender()) */\n  0x20\n  shr\n  jump\t// in\ntag_8:\n    /* \"@openzeppelin/contracts/security/ReentrancyGuard.sol\":1716:1717  1 */\n  0x01\n    /* \"@openzeppelin/contracts/security/ReentrancyGuard.sol\":1821:1828  _status */\n  dup1\n    /* \"@openzeppelin/contracts/security/ReentrancyGuard.sol\":1821:1843  _status = _NOT_ENTERED */\n  dup2\n  swap1\n  sstore\n  pop\n    /* \"Pledge.sol\":1284:1290  token_ */\n  dup1\n    /* \"Pledge.sol\":1276:1281  token */\n  0x04\n  0x00\n    /* \"Pledge.sol\":1276:1290  token = token_ */\n  0x0100\n  exp\n  dup2\n  sload\n  dup2\n  0xffffffffffffffffffffffffffffffffffffffff\n  mul\n  not\n  and\n  swap1\n  dup4\n  0xffffffffffffffffffffffffffffffffffffffff\n  and\n  mul\n  or\n  swap1\n  sstore\n  pop\n    /* \"Pledge.sol\":1307:1312  pool_ */\n  dup2\n    /* \"Pledge.sol\":1300:1304  pool */\n  0x02\n  0x00\n    /* \"Pledge.sol\":1300:1312  pool = pool_ */\n  0x0100\n  exp\n  dup2\n  sload\n  dup2\n  0xffffffffffffffffffffffffffffffffffffffff\n  mul\n  not\n  and\n  swap1\n  dup4\n  0xffffffffffffffffffffffffffffffffffffffff\n  and\n  mul\n  or\n  swap1\n  sstore\n  pop\n    /* \"Pledge.sol\":1340:1344  1e18 */\n  0x0de0b6b3a7640000\n    /* \"Pledge.sol\":1322:1337  minerStakePrice */\n  0x05\n    /* \"Pledge.sol\":1322:1344  minerStakePrice = 1e18 */\n  dup2\n  swap1\n  sstore\n  pop\n    /* \"Pledge.sol\":1376:1380  1e18 */\n  0x0de0b6b3a7640000\n    /* \"Pledge.sol\":1354:1373  validatorStakePrice */\n  0x06\n    /* \"Pledge.sol\":1354:1380  validatorStakePrice = 1e18 */\n  dup2\n  swap1\n  sstore\n  pop\n    /* \"Pledge.sol\":1412:1416  1e10 */\n  0x02540be400\n    /* \"Pledge.sol\":1390:1409  singleStoragePricce */\n  0x07\n    /* \"Pledge.sol\":1390:1416  singleStoragePricce = 1e10 */\n  dup2\n  swap1\n  sstore\n  pop\n    /* \"Pledge.sol\":1223:1436  constructor(address pool_, address token_) {... */\n  pop\n  pop\n    /* \"Pledge.sol\":433:9471  contract Pledge is IPledge, Ownable, ReentrancyGuard {... */\n  jump(tag_14)\n    /* \"@openzeppelin/contracts/utils/Context.sol\":640:736  function _msgSender() internal view virtual returns (address) {... */\ntag_10:\n    /* \"@openzeppelin/contracts/utils/Context.sol\":693:700  address */\n  0x00\n    /* \"@openzeppelin/contracts/utils/Context.sol\":719:729  msg.sender */\n  caller\n    /* \"@openzeppelin/contracts/utils/Context.sol\":712:729  return msg.sender */\n  swap1\n  pop\n    /* \"@openzeppelin/contracts/utils/Context.sol\":640:736  function _msgSender() internal view virtual returns (address) {... */\n  swap1\n  jump\t// out\n    /* \"@openzeppelin/contracts/access/Ownable.sol\":2426:2613  function _transferOwnership(address newOwner) internal virtual {... */\ntag_11:\n    /* \"@openzeppelin/contracts/access/Ownable.sol\":2499:2515  address oldOwner */\n  0x00\n    /* \"@openzeppelin/contracts/access/Ownable.sol\":2518:2524  _owner */\n  dup1\n  0x00\n  swap1\n  sload\n  swap1\n  0x0100\n  exp\n  swap1\n  div\n  0xffffffffffffffffffffffffffffffffffffffff\n  and\n    /* \"@openzeppelin/contracts/access/Ownable.sol\":2499:2524  address oldOwner = _owner */\n  swap1\n  pop\n    /* \"@openzeppelin/contracts/access/Ownable.sol\":2543:2551  newOwner */\n  dup2\n    /* \"@openzeppelin/contracts/access/Ownable.sol\":2534:2540  _owner */\n  0x00\n  dup1\n    /* \"@openzeppelin/contracts/access/Ownable.sol\":2534:2551  _owner = newOwner */\n  0x0100\n  exp\n  dup2\n  sload\n  dup2\n  0xffffffffffffffffffffffffffffffffffffffff\n  mul\n  not\n  and\n  swap1\n  dup4\n  0xffffffffffffffffffffffffffffffffffffffff\n  and\n  mul\n  or\n  swap1\n  sstore\n  pop\n    /* \"@openzeppelin/contracts/access/Ownable.sol\":2597:2605  newOwner */\n  dup2\n    /* \"@openzeppelin/contracts/access/Ownable.sol\":2566:2606  OwnershipTransferred(oldOwner, newOwner) */\n  0xffffffffffffffffffffffffffffffffffffffff\n  and\n    /* \"@openzeppelin/contracts/access/Ownable.sol\":2587:2595  oldOwner */\n  dup2\n    /* \"@openzeppelin/contracts/access/Ownable.sol\":2566:2606  OwnershipTransferred(oldOwner, newOwner) */\n  0xffffffffffffffffffffffffffffffffffffffff\n  and\n  0x8be0079c531659141344cd1fd0a4f28419497f9722a3daafe3b4186f6b6457e0\n  mload(0x40)\n  mload(0x40)\n  dup1\n  swap2\n  sub\n  swap1\n  log3\n    /* \"@openzeppelin/contracts/access/Ownable.sol\":2489:2613  {... */\n  pop\n    /* \"@openzeppelin/contracts/access/Ownable.sol\":2426:2613  function _transferOwnership(address newOwner) internal virtual {... */\n  pop\n  jump\t// out\n    /* \"#utility.yul\":88:205   */\ntag_18:\n    /* \"#utility.yul\":197:198   */\n  0x00\n    /* \"#utility.yul\":194:195   */\n  dup1\n    /* \"#utility.yul\":187:199   */\n  revert\n    /* \"#utility.yul\":334:460   */\ntag_20:\n    /* \"#utility.yul\":371:378   */\n  0x00\n    /* \"#utility.yul\":411:453   */\n  0xffffffffffffffffffffffffffffffffffffffff\n    /* \"#utility.yul\":404:409   */\n  dup3\n    /* \"#utility.yul\":400:454   */\n  and\n    /* \"#utility.yul\":389:454   */\n  swap1\n  pop\n    /* \"#utility.yul\":334:460   */\n  swap2\n  swap1\n  pop\n  jump\t// out\n    /* \"#utility.yul\":466:562   */\ntag_21:\n    /* \"#utility.yul\":503:510   */\n  0x00\n    /* \"#utility.yul\":532:556   */\n  tag_30\n    /* \"#utility.yul\":550:555   */\n  dup3\n    /* \"#utility.yul\":532:556   */\n  tag_20\n  jump\t// in\ntag_30:\n    /* \"#utility.yul\":521:556   */\n  swap1\n  pop\n    /* \"#utility.yul\":466:562   */\n  swap2\n  swap1\n  pop\n  jump\t// out\n    /* \"#utility.yul\":568:690   */\ntag_22:\n    /* \"#utility.yul\":641:665   */\n  tag_32\n    /* \"#utility.yul\":659:664   */\n  dup2\n    /* \"#utility.yul\":641:665   */\n  tag_21\n  jump\t// in\ntag_32:\n    /* \"#utility.yul\":634:639   */\n  dup2\n    /* \"#utility.yul\":631:666   */\n  eq\n    /* \"#utility.yul\":621:684   */\n  tag_33\n  jumpi\n    /* \"#utility.yul\":680:681   */\n  0x00\n    /* \"#utility.yul\":677:678   */\n  dup1\n    /* \"#utility.yul\":670:682   */\n  revert\n    /* \"#utility.yul\":621:684   */\ntag_33:\n    /* \"#utility.yul\":568:690   */\n  pop\n  jump\t// out\n    /* \"#utility.yul\":696:839   */\ntag_23:\n    /* \"#utility.yul\":753:758   */\n  0x00\n    /* \"#utility.yul\":784:790   */\n  dup2\n    /* \"#utility.yul\":778:791   */\n  mload\n    /* \"#utility.yul\":769:791   */\n  swap1\n  pop\n    /* \"#utility.yul\":800:833   */\n  tag_35\n    /* \"#utility.yul\":827:832   */\n  dup2\n    /* \"#utility.yul\":800:833   */\n  tag_22\n  jump\t// in\ntag_35:\n    /* \"#utility.yul\":696:839   */\n  swap3\n  swap2\n  pop\n  pop\n  jump\t// out\n    /* \"#utility.yul\":845:1352   */\ntag_3:\n    /* \"#utility.yul\":924:930   */\n  0x00\n    /* \"#utility.yul\":932:938   */\n  dup1\n    /* \"#utility.yul\":981:983   */\n  0x40\n    /* \"#utility.yul\":969:978   */\n  dup4\n    /* \"#utility.yul\":960:967   */\n  dup6\n    /* \"#utility.yul\":956:979   */\n  sub\n    /* \"#utility.yul\":952:984   */\n  slt\n    /* \"#utility.yul\":949:1068   */\n  iszero\n  tag_37\n  jumpi\n    /* \"#utility.yul\":987:1066   */\n  tag_38\n  tag_18\n  jump\t// in\ntag_38:\n    /* \"#utility.yul\":949:1068   */\ntag_37:\n    /* \"#utility.yul\":1107:1108   */\n  0x00\n    /* \"#utility.yul\":1132:1196   */\n  tag_39\n    /* \"#utility.yul\":1188:1195   */\n  dup6\n    /* \"#utility.yul\":1179:1185   */\n  dup3\n    /* \"#utility.yul\":1168:1177   */\n  dup7\n    /* \"#utility.yul\":1164:1186   */\n  add\n    /* \"#utility.yul\":1132:1196   */\n  tag_23\n  jump\t// in\ntag_39:\n    /* \"#utility.yul\":1122:1196   */\n  swap3\n  pop\n    /* \"#utility.yul\":1078:1206   */\n  pop\n    /* \"#utility.yul\":1245:1247   */\n  0x20\n    /* \"#utility.yul\":1271:1335   */\n  tag_40\n    /* \"#utility.yul\":1327:1334   */\n  dup6\n    /* \"#utility.yul\":1318:1324   */\n  dup3\n    /* \"#utility.yul\":1307:1316   */\n  dup7\n    /* \"#utility.yul\":1303:1325   */\n  add\n    /* \"#utility.yul\":1271:1335   */\n  tag_23\n  jump\t// in\ntag_40:\n    /* \"#utility.yul\":1261:1335   */\n  swap2\n  pop\n    /* \"#utility.yul\":1216:1345   */\n  pop\n    /* \"#utility.yul\":845:1352   */\n  swap3\n  pop\n  swap3\n  swap1\n  pop\n  jump\t// out\n    /* \"Pledge.sol\":433:9471  contract Pledge is IPledge, Ownable, ReentrancyGuard {... */\ntag_14:\n  dataSize(sub_0)\n  dup1\n  dataOffset(sub_0)\n  0x00\n  codecopy\n  0x00\n  return\nstop\n\nsub_0: assembly {\n        /* \"Pledge.sol\":433:9471  contract Pledge is IPledge, Ownable, ReentrancyGuard {... */\n      mstore(0x40, 0x80)\n      callvalue\n      dup1\n      iszero\n      tag_1\n      jumpi\n      0x00\n      dup1\n      revert\n    tag_1:\n      pop\n      jumpi(tag_2, lt(calldatasize, 0x04))\n      shr(0xe0, calldataload(0x00))\n      dup1\n      0x975057e7\n      gt\n      tag_31\n      jumpi\n      dup1\n      0xbf7e8649\n      gt\n      tag_32\n      jumpi\n      dup1\n      0xe3edb275\n      gt\n      tag_33\n      jumpi\n      dup1\n      0xe3edb275\n      eq\n      tag_27\n      jumpi\n      dup1\n      0xf2fde38b\n      eq\n      tag_28\n      jumpi\n      dup1\n      0xf30589c3\n      eq\n      tag_29\n      jumpi\n      dup1\n      0xfc0c546a\n      eq\n      tag_30\n      jumpi\n      jump(tag_2)\n    tag_33:\n      dup1\n      0xbf7e8649\n      eq\n      tag_24\n      jumpi\n      dup1\n      0xcafc8658\n      eq\n      tag_25\n      jumpi\n      dup1\n      0xdde20c54\n      eq\n      tag_26\n      jumpi\n      jump(tag_2)\n    tag_32:\n      dup1\n      0xb37e67e4\n      gt\n      tag_34\n      jumpi\n      dup1\n      0xb37e67e4\n      eq\n      tag_20\n      jumpi\n      dup1\n      0xb83f783f\n      eq\n      tag_21\n      jumpi\n      dup1\n      0xb96bb66f\n      eq\n      tag_22\n      jumpi\n      dup1\n      0xbf68faed\n      eq\n      tag_23\n      jumpi\n      jump(tag_2)\n    tag_34:\n      dup1\n      0x975057e7\n      eq\n      tag_17\n      jumpi\n      dup1\n      0x98575188\n      eq\n      tag_18\n      jumpi\n      dup1\n      0xaed1d403\n      eq\n      tag_19\n      jumpi\n      jump(tag_2)\n    tag_31:\n      dup1\n      0x3e84681a\n      gt\n      tag_35\n      jumpi\n      dup1\n      0x6d746cfb\n      gt\n      tag_36\n      jumpi\n      dup1\n      0x6d746cfb\n      eq\n      tag_13\n      jumpi\n      dup1\n      0x715018a6\n      eq\n      tag_14\n      jumpi\n      dup1\n      0x797327ae\n      eq\n      tag_15\n      jumpi\n      dup1\n      0x8da5cb5b\n      eq\n      tag_16\n      jumpi\n      jump(tag_2)\n    tag_36:\n      dup1\n      0x3e84681a\n      eq\n      tag_10\n      jumpi\n      dup1\n      0x5bf1196f\n      eq\n      tag_11\n      jumpi\n      dup1\n      0x6c8939cd\n      eq\n      tag_12\n      jumpi\n      jump(tag_2)\n    tag_35:\n      dup1\n      0x16f0115b\n      gt\n      tag_37\n      jumpi\n      dup1\n      0x16f0115b\n      eq\n      tag_6\n      jumpi\n      dup1\n      0x1ff512d1\n      eq\n      tag_7\n      jumpi\n      dup1\n      0x2bbf9b8c\n      eq\n      tag_8\n      jumpi\n      dup1\n      0x3b962c53\n      eq\n      tag_9\n      jumpi\n      jump(tag_2)\n    tag_37:\n      dup1\n      0xc9e74d\n      eq\n      tag_3\n      jumpi\n      dup1\n      0x05ccac1f\n      eq\n      tag_4\n      jumpi\n      dup1\n      0x10087fb1\n      eq\n      tag_5\n      jumpi\n    tag_2:\n      0x00\n      dup1\n      revert\n        /* \"Pledge.sol\":649:679  uint256 public minerStakePrice */\n    tag_3:\n      tag_38\n      tag_39\n      jump\t// in\n    tag_38:\n      mload(0x40)\n      tag_40\n      swap2\n      swap1\n      tag_41\n      jump\t// in\n    tag_40:\n      mload(0x40)\n      dup1\n      swap2\n      sub\n      swap1\n      return\n        /* \"Pledge.sol\":968:1021  mapping(address => UserStorage) public userOwnStorage */\n    tag_4:\n      tag_42\n      0x04\n      dup1\n      calldatasize\n      sub\n      dup2\n      add\n      swap1\n      tag_43\n      swap2\n      swap1\n      tag_44\n      jump\t// in\n    tag_43:\n      tag_45\n      jump\t// in\n    tag_42:\n      mload(0x40)\n      tag_46\n      swap4\n      swap3\n      swap2\n      swap1\n      tag_47\n      jump\t// in\n    tag_46:\n      mload(0x40)\n      dup1\n      swap2\n      sub\n      swap1\n      return\n        /* \"Pledge.sol\":3573:4053  function stake(uint256 store_, uint8 role_) external nonReentrant {... */\n    tag_5:\n      tag_48\n      0x04\n      dup1\n      calldatasize\n      sub\n      dup2\n      add\n      swap1\n      tag_49\n      swap2\n      swap1\n      tag_50\n      jump\t// in\n    tag_49:\n      tag_51\n      jump\t// in\n    tag_48:\n      stop\n        /* \"Pledge.sol\":571:590  address public pool */\n    tag_6:\n      tag_52\n      tag_53\n      jump\t// in\n    tag_52:\n      mload(0x40)\n      tag_54\n      swap2\n      swap1\n      tag_55\n      jump\t// in\n    tag_54:\n      mload(0x40)\n      dup1\n      swap2\n      sub\n      swap1\n      return\n        /* \"Pledge.sol\":9283:9389  function getUerRole(address user_) external view returns (uint256) {... */\n    tag_7:\n      tag_56\n      0x04\n      dup1\n      calldatasize\n      sub\n      dup2\n      add\n      swap1\n      tag_57\n      swap2\n      swap1\n      tag_44\n      jump\t// in\n    tag_57:\n      tag_58\n      jump\t// in\n    tag_56:\n      mload(0x40)\n      tag_59\n      swap2\n      swap1\n      tag_41\n      jump\t// in\n    tag_59:\n      mload(0x40)\n      dup1\n      swap2\n      sub\n      swap1\n      return\n        /* \"Pledge.sol\":1442:1526  function setSotre(address store_) external onlyOwner {... */\n    tag_8:\n      tag_60\n      0x04\n      dup1\n      calldatasize\n      sub\n      dup2\n      add\n      swap1\n      tag_61\n      swap2\n      swap1\n      tag_44\n      jump\t// in\n    tag_61:\n      tag_62\n      jump\t// in\n    tag_60:\n      stop\n        /* \"Pledge.sol\":1860:2458  function buyStorage(uint256 store_, uint256 days_) external nonReentrant {... */\n    tag_9:\n      tag_63\n      0x04\n      dup1\n      calldatasize\n      sub\n      dup2\n      add\n      swap1\n      tag_64\n      swap2\n      swap1\n      tag_65\n      jump\t// in\n    tag_64:\n      tag_66\n      jump\t// in\n    tag_63:\n      stop\n        /* \"Pledge.sol\":911:961  mapping(address => uint256) public userStakeAmount */\n    tag_10:\n      tag_67\n      0x04\n      dup1\n      calldatasize\n      sub\n      dup2\n      add\n      swap1\n      tag_68\n      swap2\n      swap1\n      tag_44\n      jump\t// in\n    tag_68:\n      tag_69\n      jump\t// in\n    tag_67:\n      mload(0x40)\n      tag_70\n      swap2\n      swap1\n      tag_41\n      jump\t// in\n    tag_70:\n      mload(0x40)\n      dup1\n      swap2\n      sub\n      swap1\n      return\n        /* \"Pledge.sol\":7438:8383  function getMiners(... */\n    tag_11:\n      tag_71\n      0x04\n      dup1\n      calldatasize\n      sub\n      dup2\n      add\n      swap1\n      tag_72\n      swap2\n      swap1\n      tag_65\n      jump\t// in\n    tag_72:\n      tag_73\n      jump\t// in\n    tag_71:\n      mload(0x40)\n      tag_74\n      swap2\n      swap1\n      tag_75\n      jump\t// in\n    tag_74:\n      mload(0x40)\n      dup1\n      swap2\n      sub\n      swap1\n      return\n        /* \"Pledge.sol\":852:904  mapping(address => MinerStorage) public minerStorage */\n    tag_12:\n      tag_76\n      0x04\n      dup1\n      calldatasize\n      sub\n      dup2\n      add\n      swap1\n      tag_77\n      swap2\n      swap1\n      tag_44\n      jump\t// in\n    tag_77:\n      tag_78\n      jump\t// in\n    tag_76:\n      mload(0x40)\n      tag_79\n      swap3\n      swap2\n      swap1\n      tag_80\n      jump\t// in\n    tag_79:\n      mload(0x40)\n      dup1\n      swap2\n      sub\n      swap1\n      return\n        /* \"Pledge.sol\":8779:8886  function minerLength() external view returns (uint256) {... */\n    tag_13:\n      tag_81\n      tag_82\n      jump\t// in\n    tag_81:\n      mload(0x40)\n      tag_83\n      swap2\n      swap1\n      tag_41\n      jump\t// in\n    tag_83:\n      mload(0x40)\n      dup1\n      swap2\n      sub\n      swap1\n      return\n        /* \"@openzeppelin/contracts/access/Ownable.sol\":1824:1925  function renounceOwnership() public virtual onlyOwner {... */\n    tag_14:\n      tag_84\n      tag_85\n      jump\t// in\n    tag_84:\n      stop\n        /* \"Pledge.sol\":9013:9146  function checkValidator(address user_) external view returns (bool) {... */\n    tag_15:\n      tag_86\n      0x04\n      dup1\n      calldatasize\n      sub\n      dup2\n      add\n      swap1\n      tag_87\n      swap2\n      swap1\n      tag_44\n      jump\t// in\n    tag_87:\n      tag_88\n      jump\t// in\n    tag_86:\n      mload(0x40)\n      tag_89\n      swap2\n      swap1\n      tag_90\n      jump\t// in\n    tag_89:\n      mload(0x40)\n      dup1\n      swap2\n      sub\n      swap1\n      return\n        /* \"@openzeppelin/contracts/access/Ownable.sol\":1201:1286  function owner() public view virtual returns (address) {... */\n    tag_16:\n      tag_91\n      tag_92\n      jump\t// in\n    tag_91:\n      mload(0x40)\n      tag_93\n      swap2\n      swap1\n      tag_55\n      jump\t// in\n    tag_93:\n      mload(0x40)\n      dup1\n      swap2\n      sub\n      swap1\n      return\n        /* \"Pledge.sol\":596:616  address public store */\n    tag_17:\n      tag_94\n      tag_95\n      jump\t// in\n    tag_94:\n      mload(0x40)\n      tag_96\n      swap2\n      swap1\n      tag_55\n      jump\t// in\n    tag_96:\n      mload(0x40)\n      dup1\n      swap2\n      sub\n      swap1\n      return\n        /* \"Pledge.sol\":4059:4536  function removeUser(address user_) public onlyOwner returns (bool) {... */\n    tag_18:\n      tag_97\n      0x04\n      dup1\n      calldatasize\n      sub\n      dup2\n      add\n      swap1\n      tag_98\n      swap2\n      swap1\n      tag_44\n      jump\t// in\n    tag_98:\n      tag_99\n      jump\t// in\n    tag_97:\n      mload(0x40)\n      tag_100\n      swap2\n      swap1\n      tag_90\n      jump\t// in\n    tag_100:\n      mload(0x40)\n      dup1\n      swap2\n      sub\n      swap1\n      return\n        /* \"Pledge.sol\":8892:9007  function validatorLength() external view returns (uint256) {... */\n    tag_19:\n      tag_101\n      tag_102\n      jump\t// in\n    tag_101:\n      mload(0x40)\n      tag_103\n      swap2\n      swap1\n      tag_41\n      jump\t// in\n    tag_103:\n      mload(0x40)\n      dup1\n      swap2\n      sub\n      swap1\n      return\n        /* \"Pledge.sol\":4542:5019  function punishUser(... */\n    tag_20:\n      tag_104\n      0x04\n      dup1\n      calldatasize\n      sub\n      dup2\n      add\n      swap1\n      tag_105\n      swap2\n      swap1\n      tag_106\n      jump\t// in\n    tag_105:\n      tag_107\n      jump\t// in\n    tag_104:\n      mload(0x40)\n      tag_108\n      swap2\n      swap1\n      tag_90\n      jump\t// in\n    tag_108:\n      mload(0x40)\n      dup1\n      swap2\n      sub\n      swap1\n      return\n        /* \"Pledge.sol\":525:565  uint256 public constant dayStamp = 86400 */\n    tag_21:\n      tag_109\n      tag_110\n      jump\t// in\n    tag_109:\n      mload(0x40)\n      tag_111\n      swap2\n      swap1\n      tag_41\n      jump\t// in\n    tag_111:\n      mload(0x40)\n      dup1\n      swap2\n      sub\n      swap1\n      return\n        /* \"Pledge.sol\":685:719  uint256 public validatorStakePrice */\n    tag_22:\n      tag_112\n      tag_113\n      jump\t// in\n    tag_112:\n      mload(0x40)\n      tag_114\n      swap2\n      swap1\n      tag_41\n      jump\t// in\n    tag_114:\n      mload(0x40)\n      dup1\n      swap2\n      sub\n      swap1\n      return\n        /* \"Pledge.sol\":9396:9469  function pulishAndReward(uint256 amount_,uint256 state_)external {... */\n    tag_23:\n      tag_115\n      0x04\n      dup1\n      calldatasize\n      sub\n      dup2\n      add\n      swap1\n      tag_116\n      swap2\n      swap1\n      tag_65\n      jump\t// in\n    tag_116:\n      tag_117\n      jump\t// in\n    tag_115:\n      stop\n        /* \"Pledge.sol\":725:759  uint256 public singleStoragePricce */\n    tag_24:\n      tag_118\n      tag_119\n      jump\t// in\n    tag_118:\n      mload(0x40)\n      tag_120\n      swap2\n      swap1\n      tag_41\n      jump\t// in\n    tag_120:\n      mload(0x40)\n      dup1\n      swap2\n      sub\n      swap1\n      return\n        /* \"Pledge.sol\":8389:8535  function allMiners() public view returns (address[] memory) {... */\n    tag_25:\n      tag_121\n      tag_122\n      jump\t// in\n    tag_121:\n      mload(0x40)\n      tag_123\n      swap2\n      swap1\n      tag_75\n      jump\t// in\n    tag_123:\n      mload(0x40)\n      dup1\n      swap2\n      sub\n      swap1\n      return\n        /* \"Pledge.sol\":9152:9277  function checkMiner(address user_) external view returns (bool) {... */\n    tag_26:\n      tag_124\n      0x04\n      dup1\n      calldatasize\n      sub\n      dup2\n      add\n      swap1\n      tag_125\n      swap2\n      swap1\n      tag_44\n      jump\t// in\n    tag_125:\n      tag_126\n      jump\t// in\n    tag_124:\n      mload(0x40)\n      tag_127\n      swap2\n      swap1\n      tag_90\n      jump\t// in\n    tag_127:\n      mload(0x40)\n      dup1\n      swap2\n      sub\n      swap1\n      return\n        /* \"Pledge.sol\":6162:7410  function uploadMetaDataBytes(bytes memory extra) external nonReentrant {... */\n    tag_27:\n      tag_128\n      0x04\n      dup1\n      calldatasize\n      sub\n      dup2\n      add\n      swap1\n      tag_129\n      swap2\n      swap1\n      tag_130\n      jump\t// in\n    tag_129:\n      tag_131\n      jump\t// in\n    tag_128:\n      stop\n        /* \"@openzeppelin/contracts/access/Ownable.sol\":2074:2272  function transferOwnership(address newOwner) public virtual onlyOwner {... */\n    tag_28:\n      tag_132\n      0x04\n      dup1\n      calldatasize\n      sub\n      dup2\n      add\n      swap1\n      tag_133\n      swap2\n      swap1\n      tag_44\n      jump\t// in\n    tag_133:\n      tag_134\n      jump\t// in\n    tag_132:\n      stop\n        /* \"Pledge.sol\":8541:8773  function allValidators() public view returns (address[] memory) {... */\n    tag_29:\n      tag_135\n      tag_136\n      jump\t// in\n    tag_135:\n      mload(0x40)\n      tag_137\n      swap2\n      swap1\n      tag_75\n      jump\t// in\n    tag_137:\n      mload(0x40)\n      dup1\n      swap2\n      sub\n      swap1\n      return\n        /* \"Pledge.sol\":622:642  address public token */\n    tag_30:\n      tag_138\n      tag_139\n      jump\t// in\n    tag_138:\n      mload(0x40)\n      tag_140\n      swap2\n      swap1\n      tag_55\n      jump\t// in\n    tag_140:\n      mload(0x40)\n      dup1\n      swap2\n      sub\n      swap1\n      return\n        /* \"Pledge.sol\":649:679  uint256 public minerStakePrice */\n    tag_39:\n      sload(0x05)\n      dup2\n      jump\t// out\n        /* \"Pledge.sol\":968:1021  mapping(address => UserStorage) public userOwnStorage */\n    tag_45:\n      mstore(0x20, 0x0c)\n      dup1\n      0x00\n      mstore\n      keccak256(0x00, 0x40)\n      0x00\n      swap2\n      pop\n      swap1\n      pop\n      dup1\n      0x00\n      add\n      sload\n      swap1\n      dup1\n      0x01\n      add\n      sload\n      swap1\n      dup1\n      0x02\n      add\n      sload\n      swap1\n      pop\n      dup4\n      jump\t// out\n        /* \"Pledge.sol\":3573:4053  function stake(uint256 store_, uint8 role_) external nonReentrant {... */\n    tag_51:\n        /* \"@openzeppelin/contracts/security/ReentrancyGuard.sol\":2261:2282  _nonReentrantBefore() */\n      tag_142\n        /* \"@openzeppelin/contracts/security/ReentrancyGuard.sol\":2261:2280  _nonReentrantBefore */\n      tag_143\n        /* \"@openzeppelin/contracts/security/ReentrancyGuard.sol\":2261:2282  _nonReentrantBefore() */\n      jump\t// in\n    tag_142:\n        /* \"Pledge.sol\":3666:3667  2 */\n      0x02\n        /* \"Pledge.sol\":3657:3662  role_ */\n      dup2\n        /* \"Pledge.sol\":3657:3667  role_ == 2 */\n      0xff\n      and\n      eq\n        /* \"Pledge.sol\":3657:3681  role_ == 2 || role_ == 3 */\n      dup1\n      tag_145\n      jumpi\n      pop\n        /* \"Pledge.sol\":3680:3681  3 */\n      0x03\n        /* \"Pledge.sol\":3671:3676  role_ */\n      dup2\n        /* \"Pledge.sol\":3671:3681  role_ == 3 */\n      0xff\n      and\n      eq\n        /* \"Pledge.sol\":3657:3681  role_ == 2 || role_ == 3 */\n    tag_145:\n        /* \"Pledge.sol\":3649:3709  require(role_ == 2 || role_ == 3, \"Peldge: role not exist!\") */\n      tag_146\n      jumpi\n      mload(0x40)\n      0x08c379a000000000000000000000000000000000000000000000000000000000\n      dup2\n      mstore\n      0x04\n      add\n      tag_147\n      swap1\n      tag_148\n      jump\t// in\n    tag_147:\n      mload(0x40)\n      dup1\n      swap2\n      sub\n      swap1\n      revert\n    tag_146:\n        /* \"Pledge.sol\":3808:3809  0 */\n      0x00\n        /* \"Pledge.sol\":3782:3790  userRole */\n      0x09\n        /* \"Pledge.sol\":3782:3804  userRole[_msgSender()] */\n      0x00\n        /* \"Pledge.sol\":3791:3803  _msgSender() */\n      tag_149\n        /* \"Pledge.sol\":3791:3801  _msgSender */\n      tag_150\n        /* \"Pledge.sol\":3791:3803  _msgSender() */\n      jump\t// in\n    tag_149:\n        /* \"Pledge.sol\":3782:3804  userRole[_msgSender()] */\n      0xffffffffffffffffffffffffffffffffffffffff\n      and\n      0xffffffffffffffffffffffffffffffffffffffff\n      and\n      dup2\n      mstore\n      0x20\n      add\n      swap1\n      dup2\n      mstore\n      0x20\n      add\n      0x00\n      keccak256\n      0x00\n      swap1\n      sload\n      swap1\n      0x0100\n      exp\n      swap1\n      div\n      0xff\n      and\n        /* \"Pledge.sol\":3782:3809  userRole[_msgSender()] == 0 */\n      0xff\n      and\n      eq\n        /* \"Pledge.sol\":3782:3840  userRole[_msgSender()] == 0 || userRole[_msgSender()] == 2 */\n      dup1\n      tag_151\n      jumpi\n      pop\n        /* \"Pledge.sol\":3839:3840  2 */\n      0x02\n        /* \"Pledge.sol\":3813:3821  userRole */\n      0x09\n        /* \"Pledge.sol\":3813:3835  userRole[_msgSender()] */\n      0x00\n        /* \"Pledge.sol\":3822:3834  _msgSender() */\n      tag_152\n        /* \"Pledge.sol\":3822:3832  _msgSender */\n      tag_150\n        /* \"Pledge.sol\":3822:3834  _msgSender() */\n      jump\t// in\n    tag_152:\n        /* \"Pledge.sol\":3813:3835  userRole[_msgSender()] */\n      0xffffffffffffffffffffffffffffffffffffffff\n      and\n      0xffffffffffffffffffffffffffffffffffffffff\n      and\n      dup2\n      mstore\n      0x20\n      add\n      swap1\n      dup2\n      mstore\n      0x20\n      add\n      0x00\n      keccak256\n      0x00\n      swap1\n      sload\n      swap1\n      0x0100\n      exp\n      swap1\n      div\n      0xff\n      and\n        /* \"Pledge.sol\":3813:3840  userRole[_msgSender()] == 2 */\n      0xff\n      and\n      eq\n        /* \"Pledge.sol\":3782:3840  userRole[_msgSender()] == 0 || userRole[_msgSender()] == 2 */\n    tag_151:\n        /* \"Pledge.sol\":3761:3889  require(... */\n      tag_153\n      jumpi\n      mload(0x40)\n      0x08c379a000000000000000000000000000000000000000000000000000000000\n      dup2\n      mstore\n      0x04\n      add\n      tag_154\n      swap1\n      tag_155\n      jump\t// in\n    tag_154:\n      mload(0x40)\n      dup1\n      swap2\n      sub\n      swap1\n      revert\n    tag_153:\n        /* \"Pledge.sol\":3912:3913  2 */\n      0x02\n        /* \"Pledge.sol\":3903:3908  role_ */\n      dup2\n        /* \"Pledge.sol\":3903:3913  role_ == 2 */\n      0xff\n      and\n      sub\n        /* \"Pledge.sol\":3899:4047  if (role_ == 2) {... */\n      tag_156\n      jumpi\n        /* \"Pledge.sol\":3929:3961  minerStake(store_, _msgSender()) */\n      tag_157\n        /* \"Pledge.sol\":3940:3946  store_ */\n      dup3\n        /* \"Pledge.sol\":3948:3960  _msgSender() */\n      tag_158\n        /* \"Pledge.sol\":3948:3958  _msgSender */\n      tag_150\n        /* \"Pledge.sol\":3948:3960  _msgSender() */\n      jump\t// in\n    tag_158:\n        /* \"Pledge.sol\":3929:3939  minerStake */\n      tag_159\n        /* \"Pledge.sol\":3929:3961  minerStake(store_, _msgSender()) */\n      jump\t// in\n    tag_157:\n      pop\n        /* \"Pledge.sol\":3899:4047  if (role_ == 2) {... */\n      jump(tag_160)\n    tag_156:\n        /* \"Pledge.sol\":3991:3992  3 */\n      0x03\n        /* \"Pledge.sol\":3982:3987  role_ */\n      dup2\n        /* \"Pledge.sol\":3982:3992  role_ == 3 */\n      0xff\n      and\n      sub\n        /* \"Pledge.sol\":3978:4047  if (role_ == 3) {... */\n      tag_161\n      jumpi\n        /* \"Pledge.sol\":4008:4036  validatorStake(_msgSender()) */\n      tag_162\n        /* \"Pledge.sol\":4023:4035  _msgSender() */\n      tag_163\n        /* \"Pledge.sol\":4023:4033  _msgSender */\n      tag_150\n        /* \"Pledge.sol\":4023:4035  _msgSender() */\n      jump\t// in\n    tag_163:\n        /* \"Pledge.sol\":4008:4022  validatorStake */\n      tag_164\n        /* \"Pledge.sol\":4008:4036  validatorStake(_msgSender()) */\n      jump\t// in\n    tag_162:\n      pop\n        /* \"Pledge.sol\":3978:4047  if (role_ == 3) {... */\n    tag_161:\n        /* \"Pledge.sol\":3899:4047  if (role_ == 2) {... */\n    tag_160:\n        /* \"@openzeppelin/contracts/security/ReentrancyGuard.sol\":2303:2323  _nonReentrantAfter() */\n      tag_165\n        /* \"@openzeppelin/contracts/security/ReentrancyGuard.sol\":2303:2321  _nonReentrantAfter */\n      tag_166\n        /* \"@openzeppelin/contracts/security/ReentrancyGuard.sol\":2303:2323  _nonReentrantAfter() */\n      jump\t// in\n    tag_165:\n        /* \"Pledge.sol\":3573:4053  function stake(uint256 store_, uint8 role_) external nonReentrant {... */\n      pop\n      pop\n      jump\t// out\n        /* \"Pledge.sol\":571:590  address public pool */\n    tag_53:\n      0x02\n      0x00\n      swap1\n      sload\n      swap1\n      0x0100\n      exp\n      swap1\n      div\n      0xffffffffffffffffffffffffffffffffffffffff\n      and\n      dup2\n      jump\t// out\n        /* \"Pledge.sol\":9283:9389  function getUerRole(address user_) external view returns (uint256) {... */\n    tag_58:\n        /* \"Pledge.sol\":9341:9348  uint256 */\n      0x00\n        /* \"Pledge.sol\":9367:9375  userRole */\n      0x09\n        /* \"Pledge.sol\":9367:9382  userRole[user_] */\n      0x00\n        /* \"Pledge.sol\":9376:9381  user_ */\n      dup4\n        /* \"Pledge.sol\":9367:9382  userRole[user_] */\n      0xffffffffffffffffffffffffffffffffffffffff\n      and\n      0xffffffffffffffffffffffffffffffffffffffff\n      and\n      dup2\n      mstore\n      0x20\n      add\n      swap1\n      dup2\n      mstore\n      0x20\n      add\n      0x00\n      keccak256\n      0x00\n      swap1\n      sload\n      swap1\n      0x0100\n      exp\n      swap1\n      div\n      0xff\n      and\n        /* \"Pledge.sol\":9360:9382  return userRole[user_] */\n      0xff\n      and\n      swap1\n      pop\n        /* \"Pledge.sol\":9283:9389  function getUerRole(address user_) external view returns (uint256) {... */\n      swap2\n      swap1\n      pop\n      jump\t// out\n        /* \"Pledge.sol\":1442:1526  function setSotre(address store_) external onlyOwner {... */\n    tag_62:\n        /* \"@openzeppelin/contracts/access/Ownable.sol\":1094:1107  _checkOwner() */\n      tag_169\n        /* \"@openzeppelin/contracts/access/Ownable.sol\":1094:1105  _checkOwner */\n      tag_170\n        /* \"@openzeppelin/contracts/access/Ownable.sol\":1094:1107  _checkOwner() */\n      jump\t// in\n    tag_169:\n        /* \"Pledge.sol\":1513:1519  store_ */\n      dup1\n        /* \"Pledge.sol\":1505:1510  store */\n      0x03\n      0x00\n        /* \"Pledge.sol\":1505:1519  store = store_ */\n      0x0100\n      exp\n      dup2\n      sload\n      dup2\n      0xffffffffffffffffffffffffffffffffffffffff\n      mul\n      not\n      and\n      swap1\n      dup4\n      0xffffffffffffffffffffffffffffffffffffffff\n      and\n      mul\n      or\n      swap1\n      sstore\n      pop\n        /* \"Pledge.sol\":1442:1526  function setSotre(address store_) external onlyOwner {... */\n      pop\n      jump\t// out\n        /* \"Pledge.sol\":1860:2458  function buyStorage(uint256 store_, uint256 days_) external nonReentrant {... */\n    tag_66:\n        /* \"@openzeppelin/contracts/security/ReentrancyGuard.sol\":2261:2282  _nonReentrantBefore() */\n      tag_173\n        /* \"@openzeppelin/contracts/security/ReentrancyGuard.sol\":2261:2280  _nonReentrantBefore */\n      tag_143\n        /* \"@openzeppelin/contracts/security/ReentrancyGuard.sol\":2261:2282  _nonReentrantBefore() */\n      jump\t// in\n    tag_173:\n        /* \"Pledge.sol\":1973:1975  30 */\n      0x1e\n        /* \"Pledge.sol\":1964:1969  days_ */\n      dup2\n        /* \"Pledge.sol\":1964:1975  days_ >= 30 */\n      lt\n      iszero\n        /* \"Pledge.sol\":1964:1994  days_ >= 30 && days_ % 30 == 0 */\n      dup1\n      iszero\n      tag_175\n      jumpi\n      pop\n        /* \"Pledge.sol\":1993:1994  0 */\n      0x00\n        /* \"Pledge.sol\":1987:1989  30 */\n      0x1e\n        /* \"Pledge.sol\":1979:1984  days_ */\n      dup3\n        /* \"Pledge.sol\":1979:1989  days_ % 30 */\n      tag_176\n      swap2\n      swap1\n      tag_177\n      jump\t// in\n    tag_176:\n        /* \"Pledge.sol\":1979:1994  days_ % 30 == 0 */\n      eq\n        /* \"Pledge.sol\":1964:1994  days_ >= 30 && days_ % 30 == 0 */\n    tag_175:\n        /* \"Pledge.sol\":1943:2055  require(... */\n      tag_178\n      jumpi\n      mload(0x40)\n      0x08c379a000000000000000000000000000000000000000000000000000000000\n      dup2\n      mstore\n      0x04\n      add\n      tag_179\n      swap1\n      tag_180\n      jump\t// in\n    tag_179:\n      mload(0x40)\n      dup1\n      swap2\n      sub\n      swap1\n      revert\n    tag_178:\n        /* \"Pledge.sol\":2170:2171  1 */\n      0x01\n        /* \"Pledge.sol\":2145:2153  userRole */\n      0x09\n        /* \"Pledge.sol\":2145:2167  userRole[_msgSender()] */\n      0x00\n        /* \"Pledge.sol\":2154:2166  _msgSender() */\n      tag_181\n        /* \"Pledge.sol\":2154:2164  _msgSender */\n      tag_150\n        /* \"Pledge.sol\":2154:2166  _msgSender() */\n      jump\t// in\n    tag_181:\n        /* \"Pledge.sol\":2145:2167  userRole[_msgSender()] */\n      0xffffffffffffffffffffffffffffffffffffffff\n      and\n      0xffffffffffffffffffffffffffffffffffffffff\n      and\n      dup2\n      mstore\n      0x20\n      add\n      swap1\n      dup2\n      mstore\n      0x20\n      add\n      0x00\n      keccak256\n      0x00\n        /* \"Pledge.sol\":2145:2171  userRole[_msgSender()] = 1 */\n      0x0100\n      exp\n      dup2\n      sload\n      dup2\n      0xff\n      mul\n      not\n      and\n      swap1\n      dup4\n      0xff\n      and\n      mul\n      or\n      swap1\n      sstore\n      pop\n        /* \"Pledge.sol\":2213:2217  1024 */\n      0x0400\n        /* \"Pledge.sol\":2206:2210  1024 */\n      dup1\n        /* \"Pledge.sol\":2199:2203  1024 */\n      0x0400\n        /* \"Pledge.sol\":2190:2196  store_ */\n      dup5\n        /* \"Pledge.sol\":2190:2203  store_ * 1024 */\n      tag_182\n      swap2\n      swap1\n      tag_183\n      jump\t// in\n    tag_182:\n        /* \"Pledge.sol\":2190:2210  store_ * 1024 * 1024 */\n      tag_184\n      swap2\n      swap1\n      tag_183\n      jump\t// in\n    tag_184:\n        /* \"Pledge.sol\":2190:2217  store_ * 1024 * 1024 * 1024 */\n      tag_185\n      swap2\n      swap1\n      tag_183\n      jump\t// in\n    tag_185:\n        /* \"Pledge.sol\":2181:2217  store_ = store_ * 1024 * 1024 * 1024 */\n      swap2\n      pop\n        /* \"Pledge.sol\":2265:2271  store_ */\n      dup2\n        /* \"Pledge.sol\":2227:2241  userOwnStorage */\n      0x0c\n        /* \"Pledge.sol\":2227:2255  userOwnStorage[_msgSender()] */\n      0x00\n        /* \"Pledge.sol\":2242:2254  _msgSender() */\n      tag_186\n        /* \"Pledge.sol\":2242:2252  _msgSender */\n      tag_150\n        /* \"Pledge.sol\":2242:2254  _msgSender() */\n      jump\t// in\n    tag_186:\n        /* \"Pledge.sol\":2227:2255  userOwnStorage[_msgSender()] */\n      0xffffffffffffffffffffffffffffffffffffffff\n      and\n      0xffffffffffffffffffffffffffffffffffffffff\n      and\n      dup2\n      mstore\n      0x20\n      add\n      swap1\n      dup2\n      mstore\n      0x20\n      add\n      0x00\n      keccak256\n        /* \"Pledge.sol\":2227:2261  userOwnStorage[_msgSender()].total */\n      0x00\n      add\n      0x00\n        /* \"Pledge.sol\":2227:2271  userOwnStorage[_msgSender()].total += store_ */\n      dup3\n      dup3\n      sload\n      tag_187\n      swap2\n      swap1\n      tag_188\n      jump\t// in\n    tag_187:\n      swap3\n      pop\n      pop\n      dup2\n      swap1\n      sstore\n      pop\n        /* \"Pledge.sol\":2319:2325  store_ */\n      dup2\n        /* \"Pledge.sol\":2281:2295  userOwnStorage */\n      0x0c\n        /* \"Pledge.sol\":2281:2309  userOwnStorage[_msgSender()] */\n      0x00\n        /* \"Pledge.sol\":2296:2308  _msgSender() */\n      tag_189\n        /* \"Pledge.sol\":2296:2306  _msgSender */\n      tag_150\n        /* \"Pledge.sol\":2296:2308  _msgSender() */\n      jump\t// in\n    tag_189:\n        /* \"Pledge.sol\":2281:2309  userOwnStorage[_msgSender()] */\n      0xffffffffffffffffffffffffffffffffffffffff\n      and\n      0xffffffffffffffffffffffffffffffffffffffff\n      and\n      dup2\n      mstore\n      0x20\n      add\n      swap1\n      dup2\n      mstore\n      0x20\n      add\n      0x00\n      keccak256\n        /* \"Pledge.sol\":2281:2315  userOwnStorage[_msgSender()].unUse */\n      0x01\n      add\n      0x00\n        /* \"Pledge.sol\":2281:2325  userOwnStorage[_msgSender()].unUse += store_ */\n      dup3\n      dup3\n      sload\n      tag_190\n      swap2\n      swap1\n      tag_188\n      jump\t// in\n    tag_190:\n      swap3\n      pop\n      pop\n      dup2\n      swap1\n      sstore\n      pop\n        /* \"Pledge.sol\":560:565  86400 */\n      0x015180\n        /* \"Pledge.sol\":2376:2381  days_ */\n      dup2\n        /* \"Pledge.sol\":2376:2392  days_ * dayStamp */\n      tag_191\n      swap2\n      swap1\n      tag_183\n      jump\t// in\n    tag_191:\n        /* \"Pledge.sol\":2335:2349  userOwnStorage */\n      0x0c\n        /* \"Pledge.sol\":2335:2363  userOwnStorage[_msgSender()] */\n      0x00\n        /* \"Pledge.sol\":2350:2362  _msgSender() */\n      tag_192\n        /* \"Pledge.sol\":2350:2360  _msgSender */\n      tag_150\n        /* \"Pledge.sol\":2350:2362  _msgSender() */\n      jump\t// in\n    tag_192:\n        /* \"Pledge.sol\":2335:2363  userOwnStorage[_msgSender()] */\n      0xffffffffffffffffffffffffffffffffffffffff\n      and\n      0xffffffffffffffffffffffffffffffffffffffff\n      and\n      dup2\n      mstore\n      0x20\n      add\n      swap1\n      dup2\n      mstore\n      0x20\n      add\n      0x00\n      keccak256\n        /* \"Pledge.sol\":2335:2372  userOwnStorage[_msgSender()].deadline */\n      0x02\n      add\n      0x00\n        /* \"Pledge.sol\":2335:2392  userOwnStorage[_msgSender()].deadline += days_ * dayStamp */\n      dup3\n      dup3\n      sload\n      tag_193\n      swap2\n      swap1\n      tag_188\n      jump\t// in\n    tag_193:\n      swap3\n      pop\n      pop\n      dup2\n      swap1\n      sstore\n      pop\n        /* \"Pledge.sol\":2423:2435  _msgSender() */\n      tag_194\n        /* \"Pledge.sol\":2423:2433  _msgSender */\n      tag_150\n        /* \"Pledge.sol\":2423:2435  _msgSender() */\n      jump\t// in\n    tag_194:\n        /* \"Pledge.sol\":2407:2451  BuyStorageEvent(_msgSender(), store_, days_) */\n      0xffffffffffffffffffffffffffffffffffffffff\n      and\n      0x5bdf3f5623fa7ae0fa364fa40561a15fbdbdc8cb2b162ac2820678880f17c259\n        /* \"Pledge.sol\":2437:2443  store_ */\n      dup4\n        /* \"Pledge.sol\":2445:2450  days_ */\n      dup4\n        /* \"Pledge.sol\":2407:2451  BuyStorageEvent(_msgSender(), store_, days_) */\n      mload(0x40)\n      tag_195\n      swap3\n      swap2\n      swap1\n      tag_80\n      jump\t// in\n    tag_195:\n      mload(0x40)\n      dup1\n      swap2\n      sub\n      swap1\n      log2\n        /* \"@openzeppelin/contracts/security/ReentrancyGuard.sol\":2303:2323  _nonReentrantAfter() */\n      tag_196\n        /* \"@openzeppelin/contracts/security/ReentrancyGuard.sol\":2303:2321  _nonReentrantAfter */\n      tag_166\n        /* \"@openzeppelin/contracts/security/ReentrancyGuard.sol\":2303:2323  _nonReentrantAfter() */\n      jump\t// in\n    tag_196:\n        /* \"Pledge.sol\":1860:2458  function buyStorage(uint256 store_, uint256 days_) external nonReentrant {... */\n      pop\n      pop\n      jump\t// out\n        /* \"Pledge.sol\":911:961  mapping(address => uint256) public userStakeAmount */\n    tag_69:\n      mstore(0x20, 0x0b)\n      dup1\n      0x00\n      mstore\n      keccak256(0x00, 0x40)\n      0x00\n      swap2\n      pop\n      swap1\n      pop\n      sload\n      dup2\n      jump\t// out\n        /* \"Pledge.sol\":7438:8383  function getMiners(... */\n    tag_73:\n        /* \"Pledge.sol\":7536:7552  address[] memory */\n      0x60\n        /* \"Pledge.sol\":7564:7585  address[] memory list */\n      0x00\n        /* \"Pledge.sol\":7588:7599  allMiners() */\n      tag_198\n        /* \"Pledge.sol\":7588:7597  allMiners */\n      tag_122\n        /* \"Pledge.sol\":7588:7599  allMiners() */\n      jump\t// in\n    tag_198:\n        /* \"Pledge.sol\":7564:7599  address[] memory list = allMiners() */\n      swap1\n      pop\n        /* \"Pledge.sol\":7628:7636  numbers_ */\n      dup3\n        /* \"Pledge.sol\":7613:7617  list */\n      dup2\n        /* \"Pledge.sol\":7613:7624  list.length */\n      mload\n        /* \"Pledge.sol\":7613:7636  list.length <= numbers_ */\n      gt\n        /* \"Pledge.sol\":7609:7674  if (list.length <= numbers_) {... */\n      tag_199\n      jumpi\n        /* \"Pledge.sol\":7659:7663  list */\n      dup1\n        /* \"Pledge.sol\":7652:7663  return list */\n      swap2\n      pop\n      pop\n      jump(tag_197)\n        /* \"Pledge.sol\":7609:7674  if (list.length <= numbers_) {... */\n    tag_199:\n        /* \"Pledge.sol\":7940:7960  address[] memory res */\n      0x00\n        /* \"Pledge.sol\":7977:7985  numbers_ */\n      dup4\n        /* \"Pledge.sol\":7963:7986  new address[](numbers_) */\n      0xffffffffffffffff\n      dup2\n      gt\n      iszero\n      tag_200\n      jumpi\n      tag_201\n      tag_202\n      jump\t// in\n    tag_201:\n    tag_200:\n      mload(0x40)\n      swap1\n      dup1\n      dup3\n      mstore\n      dup1\n      0x20\n      mul\n      0x20\n      add\n      dup3\n      add\n      0x40\n      mstore\n      dup1\n      iszero\n      tag_203\n      jumpi\n      dup2\n      0x20\n      add\n      0x20\n      dup3\n      mul\n      dup1\n      calldatasize\n      dup4\n      calldatacopy\n      dup1\n      dup3\n      add\n      swap2\n      pop\n      pop\n      swap1\n      pop\n    tag_203:\n      pop\n        /* \"Pledge.sol\":7940:7986  address[] memory res = new address[](numbers_) */\n      swap1\n      pop\n        /* \"Pledge.sol\":7996:8018  uint256 remainingCount */\n      0x00\n        /* \"Pledge.sol\":8021:8029  numbers_ */\n      dup5\n        /* \"Pledge.sol\":7996:8029  uint256 remainingCount = numbers_ */\n      swap1\n      pop\n        /* \"Pledge.sol\":8039:8059  uint256 currentIndex */\n      0x00\n        /* \"Pledge.sol\":8073:8090  uint256 lastIndex */\n      dup1\n        /* \"Pledge.sol\":8093:8121  AddressSetLib.length(miners) */\n      tag_204\n        /* \"Pledge.sol\":8114:8120  miners */\n      0x0d\n        /* \"Pledge.sol\":8093:8113  AddressSetLib.length */\n      tag_205\n        /* \"Pledge.sol\":8093:8121  AddressSetLib.length(miners) */\n      jump\t// in\n    tag_204:\n        /* \"Pledge.sol\":8073:8121  uint256 lastIndex = AddressSetLib.length(miners) */\n      swap1\n      pop\n        /* \"Pledge.sol\":8373:8376  res */\n      dup4\n        /* \"Pledge.sol\":8366:8376  return res */\n      swap6\n      pop\n      pop\n      pop\n      pop\n      pop\n      pop\n        /* \"Pledge.sol\":7438:8383  function getMiners(... */\n    tag_197:\n      swap3\n      swap2\n      pop\n      pop\n      jump\t// out\n        /* \"Pledge.sol\":852:904  mapping(address => MinerStorage) public minerStorage */\n    tag_78:\n      mstore(0x20, 0x0a)\n      dup1\n      0x00\n      mstore\n      keccak256(0x00, 0x40)\n      0x00\n      swap2\n      pop\n      swap1\n      pop\n      dup1\n      0x00\n      add\n      sload\n      swap1\n      dup1\n      0x01\n      add\n      sload\n      swap1\n      pop\n      dup3\n      jump\t// out\n        /* \"Pledge.sol\":8779:8886  function minerLength() external view returns (uint256) {... */\n    tag_82:\n        /* \"Pledge.sol\":8825:8832  uint256 */\n      0x00\n        /* \"Pledge.sol\":8851:8879  AddressSetLib.length(miners) */\n      tag_207\n        /* \"Pledge.sol\":8872:8878  miners */\n      0x0d\n        /* \"Pledge.sol\":8851:8871  AddressSetLib.length */\n      tag_205\n        /* \"Pledge.sol\":8851:8879  AddressSetLib.length(miners) */\n      jump\t// in\n    tag_207:\n        /* \"Pledge.sol\":8844:8879  return AddressSetLib.length(miners) */\n      swap1\n      pop\n        /* \"Pledge.sol\":8779:8886  function minerLength() external view returns (uint256) {... */\n      swap1\n      jump\t// out\n        /* \"@openzeppelin/contracts/access/Ownable.sol\":1824:1925  function renounceOwnership() public virtual onlyOwner {... */\n    tag_85:\n        /* \"@openzeppelin/contracts/access/Ownable.sol\":1094:1107  _checkOwner() */\n      tag_209\n        /* \"@openzeppelin/contracts/access/Ownable.sol\":1094:1105  _checkOwner */\n      tag_170\n        /* \"@openzeppelin/contracts/access/Ownable.sol\":1094:1107  _checkOwner() */\n      jump\t// in\n    tag_209:\n        /* \"@openzeppelin/contracts/access/Ownable.sol\":1888:1918  _transferOwnership(address(0)) */\n      tag_211\n        /* \"@openzeppelin/contracts/access/Ownable.sol\":1915:1916  0 */\n      0x00\n        /* \"@openzeppelin/contracts/access/Ownable.sol\":1888:1906  _transferOwnership */\n      tag_212\n        /* \"@openzeppelin/contracts/access/Ownable.sol\":1888:1918  _transferOwnership(address(0)) */\n      jump\t// in\n    tag_211:\n        /* \"@openzeppelin/contracts/access/Ownable.sol\":1824:1925  function renounceOwnership() public virtual onlyOwner {... */\n      jump\t// out\n        /* \"Pledge.sol\":9013:9146  function checkValidator(address user_) external view returns (bool) {... */\n    tag_88:\n        /* \"Pledge.sol\":9075:9079  bool */\n      0x00\n        /* \"Pledge.sol\":9098:9139  AddressSetLib.contains(validators, user_) */\n      tag_214\n        /* \"Pledge.sol\":9121:9131  validators */\n      0x0f\n        /* \"Pledge.sol\":9133:9138  user_ */\n      dup4\n        /* \"Pledge.sol\":9098:9120  AddressSetLib.contains */\n      tag_215\n        /* \"Pledge.sol\":9098:9139  AddressSetLib.contains(validators, user_) */\n      jump\t// in\n    tag_214:\n        /* \"Pledge.sol\":9091:9139  return AddressSetLib.contains(validators, user_) */\n      swap1\n      pop\n        /* \"Pledge.sol\":9013:9146  function checkValidator(address user_) external view returns (bool) {... */\n      swap2\n      swap1\n      pop\n      jump\t// out\n        /* \"@openzeppelin/contracts/access/Ownable.sol\":1201:1286  function owner() public view virtual returns (address) {... */\n    tag_92:\n        /* \"@openzeppelin/contracts/access/Ownable.sol\":1247:1254  address */\n      0x00\n        /* \"@openzeppelin/contracts/access/Ownable.sol\":1273:1279  _owner */\n      dup1\n      0x00\n      swap1\n      sload\n      swap1\n      0x0100\n      exp\n      swap1\n      div\n      0xffffffffffffffffffffffffffffffffffffffff\n      and\n        /* \"@openzeppelin/contracts/access/Ownable.sol\":1266:1279  return _owner */\n      swap1\n      pop\n        /* \"@openzeppelin/contracts/access/Ownable.sol\":1201:1286  function owner() public view virtual returns (address) {... */\n      swap1\n      jump\t// out\n        /* \"Pledge.sol\":596:616  address public store */\n    tag_95:\n      0x03\n      0x00\n      swap1\n      sload\n      swap1\n      0x0100\n      exp\n      swap1\n      div\n      0xffffffffffffffffffffffffffffffffffffffff\n      and\n      dup2\n      jump\t// out\n        /* \"Pledge.sol\":4059:4536  function removeUser(address user_) public onlyOwner returns (bool) {... */\n    tag_99:\n        /* \"Pledge.sol\":4120:4124  bool */\n      0x00\n        /* \"@openzeppelin/contracts/access/Ownable.sol\":1094:1107  _checkOwner() */\n      tag_218\n        /* \"@openzeppelin/contracts/access/Ownable.sol\":1094:1105  _checkOwner */\n      tag_170\n        /* \"@openzeppelin/contracts/access/Ownable.sol\":1094:1107  _checkOwner() */\n      jump\t// in\n    tag_218:\n        /* \"Pledge.sol\":4163:4164  0 */\n      0x00\n        /* \"Pledge.sol\":4144:4152  userRole */\n      0x09\n        /* \"Pledge.sol\":4144:4159  userRole[user_] */\n      0x00\n        /* \"Pledge.sol\":4153:4158  user_ */\n      dup5\n        /* \"Pledge.sol\":4144:4159  userRole[user_] */\n      0xffffffffffffffffffffffffffffffffffffffff\n      and\n      0xffffffffffffffffffffffffffffffffffffffff\n      and\n      dup2\n      mstore\n      0x20\n      add\n      swap1\n      dup2\n      mstore\n      0x20\n      add\n      0x00\n      keccak256\n      0x00\n      swap1\n      sload\n      swap1\n      0x0100\n      exp\n      swap1\n      div\n      0xff\n      and\n        /* \"Pledge.sol\":4144:4164  userRole[user_] != 0 */\n      0xff\n      and\n      sub\n        /* \"Pledge.sol\":4136:4192  require(userRole[user_] != 0, \"Pledge: user not exist!\") */\n      tag_220\n      jumpi\n      mload(0x40)\n      0x08c379a000000000000000000000000000000000000000000000000000000000\n      dup2\n      mstore\n      0x04\n      add\n      tag_221\n      swap1\n      tag_222\n      jump\t// in\n    tag_221:\n      mload(0x40)\n      dup1\n      swap2\n      sub\n      swap1\n      revert\n    tag_220:\n        /* \"Pledge.sol\":4225:4226  1 */\n      0x01\n        /* \"Pledge.sol\":4206:4214  userRole */\n      0x09\n        /* \"Pledge.sol\":4206:4221  userRole[user_] */\n      0x00\n        /* \"Pledge.sol\":4215:4220  user_ */\n      dup5\n        /* \"Pledge.sol\":4206:4221  userRole[user_] */\n      0xffffffffffffffffffffffffffffffffffffffff\n      and\n      0xffffffffffffffffffffffffffffffffffffffff\n      and\n      dup2\n      mstore\n      0x20\n      add\n      swap1\n      dup2\n      mstore\n      0x20\n      add\n      0x00\n      keccak256\n      0x00\n      swap1\n      sload\n      swap1\n      0x0100\n      exp\n      swap1\n      div\n      0xff\n      and\n        /* \"Pledge.sol\":4206:4226  userRole[user_] == 1 */\n      0xff\n      and\n      sub\n        /* \"Pledge.sol\":4202:4384  if (userRole[user_] == 1) {... */\n      tag_223\n      jumpi\n        /* \"Pledge.sol\":4242:4277  AddressSetLib.remove(miners, user_) */\n      tag_224\n        /* \"Pledge.sol\":4263:4269  miners */\n      0x0d\n        /* \"Pledge.sol\":4271:4276  user_ */\n      dup4\n        /* \"Pledge.sol\":4242:4262  AddressSetLib.remove */\n      tag_225\n        /* \"Pledge.sol\":4242:4277  AddressSetLib.remove(miners, user_) */\n      jump\t// in\n    tag_224:\n        /* \"Pledge.sol\":4202:4384  if (userRole[user_] == 1) {... */\n      jump(tag_226)\n    tag_223:\n        /* \"Pledge.sol\":4317:4318  2 */\n      0x02\n        /* \"Pledge.sol\":4298:4306  userRole */\n      0x09\n        /* \"Pledge.sol\":4298:4313  userRole[user_] */\n      0x00\n        /* \"Pledge.sol\":4307:4312  user_ */\n      dup5\n        /* \"Pledge.sol\":4298:4313  userRole[user_] */\n      0xffffffffffffffffffffffffffffffffffffffff\n      and\n      0xffffffffffffffffffffffffffffffffffffffff\n      and\n      dup2\n      mstore\n      0x20\n      add\n      swap1\n      dup2\n      mstore\n      0x20\n      add\n      0x00\n      keccak256\n      0x00\n      swap1\n      sload\n      swap1\n      0x0100\n      exp\n      swap1\n      div\n      0xff\n      and\n        /* \"Pledge.sol\":4298:4318  userRole[user_] == 2 */\n      0xff\n      and\n      sub\n        /* \"Pledge.sol\":4294:4384  if (userRole[user_] == 2) {... */\n      tag_227\n      jumpi\n        /* \"Pledge.sol\":4334:4373  AddressSetLib.remove(validators, user_) */\n      tag_228\n        /* \"Pledge.sol\":4355:4365  validators */\n      0x0f\n        /* \"Pledge.sol\":4367:4372  user_ */\n      dup4\n        /* \"Pledge.sol\":4334:4354  AddressSetLib.remove */\n      tag_225\n        /* \"Pledge.sol\":4334:4373  AddressSetLib.remove(validators, user_) */\n      jump\t// in\n    tag_228:\n        /* \"Pledge.sol\":4294:4384  if (userRole[user_] == 2) {... */\n    tag_227:\n        /* \"Pledge.sol\":4202:4384  if (userRole[user_] == 1) {... */\n    tag_226:\n        /* \"Pledge.sol\":4410:4415  user_ */\n      dup2\n        /* \"Pledge.sol\":4398:4433  RemoveEvent(user_, userRole[user_]) */\n      0xffffffffffffffffffffffffffffffffffffffff\n      and\n      0xc0944d59892e6715b5f3fbf230ed4545fc611c304ac5e1827e583585b4180159\n        /* \"Pledge.sol\":4417:4425  userRole */\n      0x09\n        /* \"Pledge.sol\":4417:4432  userRole[user_] */\n      0x00\n        /* \"Pledge.sol\":4426:4431  user_ */\n      dup6\n        /* \"Pledge.sol\":4417:4432  userRole[user_] */\n      0xffffffffffffffffffffffffffffffffffffffff\n      and\n      0xffffffffffffffffffffffffffffffffffffffff\n      and\n      dup2\n      mstore\n      0x20\n      add\n      swap1\n      dup2\n      mstore\n      0x20\n      add\n      0x00\n      keccak256\n      0x00\n      swap1\n      sload\n      swap1\n      0x0100\n      exp\n      swap1\n      div\n      0xff\n      and\n        /* \"Pledge.sol\":4398:4433  RemoveEvent(user_, userRole[user_]) */\n      mload(0x40)\n      tag_229\n      swap2\n      swap1\n      tag_230\n      jump\t// in\n    tag_229:\n      mload(0x40)\n      dup1\n      swap2\n      sub\n      swap1\n      log2\n        /* \"Pledge.sol\":4451:4459  userRole */\n      0x09\n        /* \"Pledge.sol\":4451:4466  userRole[user_] */\n      0x00\n        /* \"Pledge.sol\":4460:4465  user_ */\n      dup4\n        /* \"Pledge.sol\":4451:4466  userRole[user_] */\n      0xffffffffffffffffffffffffffffffffffffffff\n      and\n      0xffffffffffffffffffffffffffffffffffffffff\n      and\n      dup2\n      mstore\n      0x20\n      add\n      swap1\n      dup2\n      mstore\n      0x20\n      add\n      0x00\n      keccak256\n      0x00\n        /* \"Pledge.sol\":4443:4467  delete (userRole[user_]) */\n      0x0100\n      exp\n      dup2\n      sload\n      swap1\n      0xff\n      mul\n      not\n      and\n      swap1\n      sstore\n        /* \"Pledge.sol\":4485:4500  userStakeAmount */\n      0x0b\n        /* \"Pledge.sol\":4485:4507  userStakeAmount[user_] */\n      0x00\n        /* \"Pledge.sol\":4501:4506  user_ */\n      dup4\n        /* \"Pledge.sol\":4485:4507  userStakeAmount[user_] */\n      0xffffffffffffffffffffffffffffffffffffffff\n      and\n      0xffffffffffffffffffffffffffffffffffffffff\n      and\n      dup2\n      mstore\n      0x20\n      add\n      swap1\n      dup2\n      mstore\n      0x20\n      add\n      0x00\n      keccak256\n        /* \"Pledge.sol\":4477:4508  delete (userStakeAmount[user_]) */\n      0x00\n      swap1\n      sstore\n        /* \"Pledge.sol\":4525:4529  true */\n      0x01\n        /* \"Pledge.sol\":4518:4529  return true */\n      swap1\n      pop\n        /* \"Pledge.sol\":4059:4536  function removeUser(address user_) public onlyOwner returns (bool) {... */\n      swap2\n      swap1\n      pop\n      jump\t// out\n        /* \"Pledge.sol\":8892:9007  function validatorLength() external view returns (uint256) {... */\n    tag_102:\n        /* \"Pledge.sol\":8942:8949  uint256 */\n      0x00\n        /* \"Pledge.sol\":8968:9000  AddressSetLib.length(validators) */\n      tag_232\n        /* \"Pledge.sol\":8989:8999  validators */\n      0x0f\n        /* \"Pledge.sol\":8968:8988  AddressSetLib.length */\n      tag_205\n        /* \"Pledge.sol\":8968:9000  AddressSetLib.length(validators) */\n      jump\t// in\n    tag_232:\n        /* \"Pledge.sol\":8961:9000  return AddressSetLib.length(validators) */\n      swap1\n      pop\n        /* \"Pledge.sol\":8892:9007  function validatorLength() external view returns (uint256) {... */\n      swap1\n      jump\t// out\n        /* \"Pledge.sol\":4542:5019  function punishUser(... */\n    tag_107:\n        /* \"Pledge.sol\":4644:4648  bool */\n      0x00\n        /* \"@openzeppelin/contracts/access/Ownable.sol\":1094:1107  _checkOwner() */\n      tag_234\n        /* \"@openzeppelin/contracts/access/Ownable.sol\":1094:1105  _checkOwner */\n      tag_170\n        /* \"@openzeppelin/contracts/access/Ownable.sol\":1094:1107  _checkOwner() */\n      jump\t// in\n    tag_234:\n        /* \"Pledge.sol\":4687:4688  0 */\n      0x00\n        /* \"Pledge.sol\":4668:4676  userRole */\n      0x09\n        /* \"Pledge.sol\":4668:4683  userRole[user_] */\n      0x00\n        /* \"Pledge.sol\":4677:4682  user_ */\n      dup6\n        /* \"Pledge.sol\":4668:4683  userRole[user_] */\n      0xffffffffffffffffffffffffffffffffffffffff\n      and\n      0xffffffffffffffffffffffffffffffffffffffff\n      and\n      dup2\n      mstore\n      0x20\n      add\n      swap1\n      dup2\n      mstore\n      0x20\n      add\n      0x00\n      keccak256\n      0x00\n      swap1\n      sload\n      swap1\n      0x0100\n      exp\n      swap1\n      div\n      0xff\n      and\n        /* \"Pledge.sol\":4668:4688  userRole[user_] != 0 */\n      0xff\n      and\n      sub\n        /* \"Pledge.sol\":4660:4716  require(userRole[user_] != 0, \"Pledge: user not exist!\") */\n      tag_236\n      jumpi\n      mload(0x40)\n      0x08c379a000000000000000000000000000000000000000000000000000000000\n      dup2\n      mstore\n      0x04\n      add\n      tag_237\n      swap1\n      tag_222\n      jump\t// in\n    tag_237:\n      mload(0x40)\n      dup1\n      swap2\n      sub\n      swap1\n      revert\n    tag_236:\n        /* \"Pledge.sol\":4760:4761  0 */\n      0x00\n        /* \"Pledge.sol\":4734:4749  userStakeAmount */\n      0x0b\n        /* \"Pledge.sol\":4734:4756  userStakeAmount[user_] */\n      0x00\n        /* \"Pledge.sol\":4750:4755  user_ */\n      dup6\n        /* \"Pledge.sol\":4734:4756  userStakeAmount[user_] */\n      0xffffffffffffffffffffffffffffffffffffffff\n      and\n      0xffffffffffffffffffffffffffffffffffffffff\n      and\n      dup2\n      mstore\n      0x20\n      add\n      swap1\n      dup2\n      mstore\n      0x20\n      add\n      0x00\n      keccak256\n      sload\n        /* \"Pledge.sol\":4734:4761  userStakeAmount[user_] >= 0 */\n      lt\n      iszero\n        /* \"Pledge.sol\":4726:4795  require(userStakeAmount[user_] >= 0, \"Pledge: stake amount is zero!\") */\n      tag_238\n      jumpi\n      mload(0x40)\n      0x08c379a000000000000000000000000000000000000000000000000000000000\n      dup2\n      mstore\n      0x04\n      add\n      tag_239\n      swap1\n      tag_240\n      jump\t// in\n    tag_239:\n      mload(0x40)\n      dup1\n      swap2\n      sub\n      swap1\n      revert\n    tag_238:\n        /* \"Pledge.sol\":4835:4842  amount_ */\n      dup2\n        /* \"Pledge.sol\":4809:4824  userStakeAmount */\n      0x0b\n        /* \"Pledge.sol\":4809:4831  userStakeAmount[user_] */\n      0x00\n        /* \"Pledge.sol\":4825:4830  user_ */\n      dup6\n        /* \"Pledge.sol\":4809:4831  userStakeAmount[user_] */\n      0xffffffffffffffffffffffffffffffffffffffff\n      and\n      0xffffffffffffffffffffffffffffffffffffffff\n      and\n      dup2\n      mstore\n      0x20\n      add\n      swap1\n      dup2\n      mstore\n      0x20\n      add\n      0x00\n      keccak256\n      sload\n        /* \"Pledge.sol\":4809:4842  userStakeAmount[user_] <= amount_ */\n      gt\n        /* \"Pledge.sol\":4805:4950  if (userStakeAmount[user_] <= amount_) {... */\n      tag_241\n      jumpi\n        /* \"Pledge.sol\":4884:4891  amount_ */\n      dup2\n        /* \"Pledge.sol\":4858:4873  userStakeAmount */\n      0x0b\n        /* \"Pledge.sol\":4858:4880  userStakeAmount[user_] */\n      0x00\n        /* \"Pledge.sol\":4874:4879  user_ */\n      dup6\n        /* \"Pledge.sol\":4858:4880  userStakeAmount[user_] */\n      0xffffffffffffffffffffffffffffffffffffffff\n      and\n      0xffffffffffffffffffffffffffffffffffffffff\n      and\n      dup2\n      mstore\n      0x20\n      add\n      swap1\n      dup2\n      mstore\n      0x20\n      add\n      0x00\n      keccak256\n      0x00\n        /* \"Pledge.sol\":4858:4891  userStakeAmount[user_] -= amount_ */\n      dup3\n      dup3\n      sload\n      tag_242\n      swap2\n      swap1\n      tag_243\n      jump\t// in\n    tag_242:\n      swap3\n      pop\n      pop\n      dup2\n      swap1\n      sstore\n      pop\n        /* \"Pledge.sol\":4805:4950  if (userStakeAmount[user_] <= amount_) {... */\n      jump(tag_244)\n    tag_241:\n        /* \"Pledge.sol\":4922:4939  removeUser(user_) */\n      tag_245\n        /* \"Pledge.sol\":4933:4938  user_ */\n      dup4\n        /* \"Pledge.sol\":4922:4932  removeUser */\n      tag_99\n        /* \"Pledge.sol\":4922:4939  removeUser(user_) */\n      jump\t// in\n    tag_245:\n      pop\n        /* \"Pledge.sol\":4805:4950  if (userStakeAmount[user_] <= amount_) {... */\n    tag_244:\n        /* \"Pledge.sol\":4976:4981  user_ */\n      dup3\n        /* \"Pledge.sol\":4964:4991  PunishEvent(user_, amount_) */\n      0xffffffffffffffffffffffffffffffffffffffff\n      and\n      0x53fcb0d5ac9969dcec28baa60beb9b56b28fa301971f7e19c6c8beb0d1e86ece\n        /* \"Pledge.sol\":4983:4990  amount_ */\n      dup4\n        /* \"Pledge.sol\":4964:4991  PunishEvent(user_, amount_) */\n      mload(0x40)\n      tag_246\n      swap2\n      swap1\n      tag_41\n      jump\t// in\n    tag_246:\n      mload(0x40)\n      dup1\n      swap2\n      sub\n      swap1\n      log2\n        /* \"Pledge.sol\":5008:5012  true */\n      0x01\n        /* \"Pledge.sol\":5001:5012  return true */\n      swap1\n      pop\n        /* \"Pledge.sol\":4542:5019  function punishUser(... */\n      swap3\n      swap2\n      pop\n      pop\n      jump\t// out\n        /* \"Pledge.sol\":525:565  uint256 public constant dayStamp = 86400 */\n    tag_110:\n        /* \"Pledge.sol\":560:565  86400 */\n      0x015180\n        /* \"Pledge.sol\":525:565  uint256 public constant dayStamp = 86400 */\n      dup2\n      jump\t// out\n        /* \"Pledge.sol\":685:719  uint256 public validatorStakePrice */\n    tag_113:\n      sload(0x06)\n      dup2\n      jump\t// out\n        /* \"Pledge.sol\":9396:9469  function pulishAndReward(uint256 amount_,uint256 state_)external {... */\n    tag_117:\n      pop\n      pop\n      jump\t// out\n        /* \"Pledge.sol\":725:759  uint256 public singleStoragePricce */\n    tag_119:\n      sload(0x07)\n      dup2\n      jump\t// out\n        /* \"Pledge.sol\":8389:8535  function allMiners() public view returns (address[] memory) {... */\n    tag_122:\n        /* \"Pledge.sol\":8431:8447  address[] memory */\n      0x60\n        /* \"Pledge.sol\":8466:8528  AddressSetLib.getPage(miners, 0, AddressSetLib.length(miners)) */\n      tag_249\n        /* \"Pledge.sol\":8488:8494  miners */\n      0x0d\n        /* \"Pledge.sol\":8496:8497  0 */\n      0x00\n        /* \"Pledge.sol\":8499:8527  AddressSetLib.length(miners) */\n      tag_250\n        /* \"Pledge.sol\":8520:8526  miners */\n      0x0d\n        /* \"Pledge.sol\":8499:8519  AddressSetLib.length */\n      tag_205\n        /* \"Pledge.sol\":8499:8527  AddressSetLib.length(miners) */\n      jump\t// in\n    tag_250:\n        /* \"Pledge.sol\":8466:8487  AddressSetLib.getPage */\n      tag_251\n        /* \"Pledge.sol\":8466:8528  AddressSetLib.getPage(miners, 0, AddressSetLib.length(miners)) */\n      jump\t// in\n    tag_249:\n        /* \"Pledge.sol\":8459:8528  return AddressSetLib.getPage(miners, 0, AddressSetLib.length(miners)) */\n      swap1\n      pop\n        /* \"Pledge.sol\":8389:8535  function allMiners() public view returns (address[] memory) {... */\n      swap1\n      jump\t// out\n        /* \"Pledge.sol\":9152:9277  function checkMiner(address user_) external view returns (bool) {... */\n    tag_126:\n        /* \"Pledge.sol\":9210:9214  bool */\n      0x00\n        /* \"Pledge.sol\":9233:9270  AddressSetLib.contains(miners, user_) */\n      tag_253\n        /* \"Pledge.sol\":9256:9262  miners */\n      0x0d\n        /* \"Pledge.sol\":9264:9269  user_ */\n      dup4\n        /* \"Pledge.sol\":9233:9255  AddressSetLib.contains */\n      tag_215\n        /* \"Pledge.sol\":9233:9270  AddressSetLib.contains(miners, user_) */\n      jump\t// in\n    tag_253:\n        /* \"Pledge.sol\":9226:9270  return AddressSetLib.contains(miners, user_) */\n      swap1\n      pop\n        /* \"Pledge.sol\":9152:9277  function checkMiner(address user_) external view returns (bool) {... */\n      swap2\n      swap1\n      pop\n      jump\t// out\n        /* \"Pledge.sol\":6162:7410  function uploadMetaDataBytes(bytes memory extra) external nonReentrant {... */\n    tag_131:\n        /* \"@openzeppelin/contracts/security/ReentrancyGuard.sol\":2261:2282  _nonReentrantBefore() */\n      tag_255\n        /* \"@openzeppelin/contracts/security/ReentrancyGuard.sol\":2261:2280  _nonReentrantBefore */\n      tag_143\n        /* \"@openzeppelin/contracts/security/ReentrancyGuard.sol\":2261:2282  _nonReentrantBefore() */\n      jump\t// in\n    tag_255:\n        /* \"Pledge.sol\":6257:6281  address[] memory miners_ */\n      0x00\n        /* \"Pledge.sol\":6295:6320  string[] memory fileHash_ */\n      dup1\n        /* \"Pledge.sol\":6334:6352  string memory ext_ */\n      0x00\n        /* \"Pledge.sol\":6366:6384  string memory cid_ */\n      dup1\n        /* \"Pledge.sol\":6398:6411  uint256 size_ */\n      0x00\n        /* \"Pledge.sol\":6425:6442  uint256 blockSize */\n      dup1\n        /* \"Pledge.sol\":6456:6474  uint256 dataShards */\n      0x00\n        /* \"Pledge.sol\":6488:6508  uint256 parityShards */\n      dup1\n        /* \"Pledge.sol\":6522:6535  address user_ */\n      0x00\n        /* \"Pledge.sol\":6576:6581  extra */\n      dup10\n        /* \"Pledge.sol\":6548:6893  abi.decode(... */\n      dup1\n      0x20\n      add\n      swap1\n      mload\n      dup2\n      add\n      swap1\n      tag_257\n      swap2\n      swap1\n      tag_258\n      jump\t// in\n    tag_257:\n        /* \"Pledge.sol\":6243:6893  (... */\n      swap9\n      pop\n      swap9\n      pop\n      swap9\n      pop\n      swap9\n      pop\n      swap9\n      pop\n      swap9\n      pop\n      swap9\n      pop\n      swap9\n      pop\n      swap9\n      pop\n        /* \"Pledge.sol\":6910:6915  store */\n      0x03\n      0x00\n      swap1\n      sload\n      swap1\n      0x0100\n      exp\n      swap1\n      div\n      0xffffffffffffffffffffffffffffffffffffffff\n      and\n        /* \"Pledge.sol\":6903:6931  IStore(store).uploadMetaData */\n      0xffffffffffffffffffffffffffffffffffffffff\n      and\n      0x47618f18\n        /* \"Pledge.sol\":6945:6952  miners_ */\n      dup11\n        /* \"Pledge.sol\":6966:6975  fileHash_ */\n      dup11\n        /* \"Pledge.sol\":6989:6993  ext_ */\n      dup11\n        /* \"Pledge.sol\":7007:7011  cid_ */\n      dup11\n        /* \"Pledge.sol\":7025:7030  size_ */\n      dup11\n        /* \"Pledge.sol\":7044:7054  dataShards */\n      dup10\n        /* \"Pledge.sol\":7068:7080  parityShards */\n      dup10\n        /* \"Pledge.sol\":7094:7099  user_ */\n      dup10\n        /* \"Pledge.sol\":6903:7109  IStore(store).uploadMetaData(... */\n      mload(0x40)\n      dup10\n      0xffffffff\n      and\n      0xe0\n      shl\n      dup2\n      mstore\n      0x04\n      add\n      tag_259\n      swap9\n      swap8\n      swap7\n      swap6\n      swap5\n      swap4\n      swap3\n      swap2\n      swap1\n      tag_260\n      jump\t// in\n    tag_259:\n      0x20\n      mload(0x40)\n      dup1\n      dup4\n      sub\n      dup2\n      0x00\n      dup8\n      gas\n      call\n      iszero\n      dup1\n      iszero\n      tag_262\n      jumpi\n      returndatasize\n      0x00\n      dup1\n      returndatacopy\n      revert(0x00, returndatasize)\n    tag_262:\n      pop\n      pop\n      pop\n      pop\n      mload(0x40)\n      returndatasize\n      not(0x1f)\n      0x1f\n      dup3\n      add\n      and\n      dup3\n      add\n      dup1\n      0x40\n      mstore\n      pop\n      dup2\n      add\n      swap1\n      tag_263\n      swap2\n      swap1\n      tag_264\n      jump\t// in\n    tag_263:\n      pop\n        /* \"Pledge.sol\":7390:7395  user_ */\n      dup1\n        /* \"Pledge.sol\":7370:7403  UploadMetaInfoEvent(user_, size_) */\n      0xffffffffffffffffffffffffffffffffffffffff\n      and\n      0x30ebd9082452f045cbb677f33bafcd83242c048d21fa3f84705ab051a900ac33\n        /* \"Pledge.sol\":7397:7402  size_ */\n      dup7\n        /* \"Pledge.sol\":7370:7403  UploadMetaInfoEvent(user_, size_) */\n      mload(0x40)\n      tag_265\n      swap2\n      swap1\n      tag_41\n      jump\t// in\n    tag_265:\n      mload(0x40)\n      dup1\n      swap2\n      sub\n      swap1\n      log2\n        /* \"Pledge.sol\":6233:7410  {... */\n      pop\n      pop\n      pop\n      pop\n      pop\n      pop\n      pop\n      pop\n      pop\n        /* \"@openzeppelin/contracts/security/ReentrancyGuard.sol\":2303:2323  _nonReentrantAfter() */\n      tag_266\n        /* \"@openzeppelin/contracts/security/ReentrancyGuard.sol\":2303:2321  _nonReentrantAfter */\n      tag_166\n        /* \"@openzeppelin/contracts/security/ReentrancyGuard.sol\":2303:2323  _nonReentrantAfter() */\n      jump\t// in\n    tag_266:\n        /* \"Pledge.sol\":6162:7410  function uploadMetaDataBytes(bytes memory extra) external nonReentrant {... */\n      pop\n      jump\t// out\n        /* \"@openzeppelin/contracts/access/Ownable.sol\":2074:2272  function transferOwnership(address newOwner) public virtual onlyOwner {... */\n    tag_134:\n        /* \"@openzeppelin/contracts/access/Ownable.sol\":1094:1107  _checkOwner() */\n      tag_268\n        /* \"@openzeppelin/contracts/access/Ownable.sol\":1094:1105  _checkOwner */\n      tag_170\n        /* \"@openzeppelin/contracts/access/Ownable.sol\":1094:1107  _checkOwner() */\n      jump\t// in\n    tag_268:\n        /* \"@openzeppelin/contracts/access/Ownable.sol\":2182:2183  0 */\n      0x00\n        /* \"@openzeppelin/contracts/access/Ownable.sol\":2162:2184  newOwner != address(0) */\n      0xffffffffffffffffffffffffffffffffffffffff\n      and\n        /* \"@openzeppelin/contracts/access/Ownable.sol\":2162:2170  newOwner */\n      dup2\n        /* \"@openzeppelin/contracts/access/Ownable.sol\":2162:2184  newOwner != address(0) */\n      0xffffffffffffffffffffffffffffffffffffffff\n      and\n      sub\n        /* \"@openzeppelin/contracts/access/Ownable.sol\":2154:2227  require(newOwner != address(0), \"Ownable: new owner is the zero address\") */\n      tag_270\n      jumpi\n      mload(0x40)\n      0x08c379a000000000000000000000000000000000000000000000000000000000\n      dup2\n      mstore\n      0x04\n      add\n      tag_271\n      swap1\n      tag_272\n      jump\t// in\n    tag_271:\n      mload(0x40)\n      dup1\n      swap2\n      sub\n      swap1\n      revert\n    tag_270:\n        /* \"@openzeppelin/contracts/access/Ownable.sol\":2237:2265  _transferOwnership(newOwner) */\n      tag_273\n        /* \"@openzeppelin/contracts/access/Ownable.sol\":2256:2264  newOwner */\n      dup2\n        /* \"@openzeppelin/contracts/access/Ownable.sol\":2237:2255  _transferOwnership */\n      tag_212\n        /* \"@openzeppelin/contracts/access/Ownable.sol\":2237:2265  _transferOwnership(newOwner) */\n      jump\t// in\n    tag_273:\n        /* \"@openzeppelin/contracts/access/Ownable.sol\":2074:2272  function transferOwnership(address newOwner) public virtual onlyOwner {... */\n      pop\n      jump\t// out\n        /* \"Pledge.sol\":8541:8773  function allValidators() public view returns (address[] memory) {... */\n    tag_136:\n        /* \"Pledge.sol\":8587:8603  address[] memory */\n      0x60\n        /* \"Pledge.sol\":8634:8766  AddressSetLib.getPage(... */\n      tag_275\n        /* \"Pledge.sol\":8673:8683  validators */\n      0x0f\n        /* \"Pledge.sol\":8701:8702  0 */\n      0x00\n        /* \"Pledge.sol\":8720:8752  AddressSetLib.length(validators) */\n      tag_276\n        /* \"Pledge.sol\":8741:8751  validators */\n      0x0f\n        /* \"Pledge.sol\":8720:8740  AddressSetLib.length */\n      tag_205\n        /* \"Pledge.sol\":8720:8752  AddressSetLib.length(validators) */\n      jump\t// in\n    tag_276:\n        /* \"Pledge.sol\":8634:8655  AddressSetLib.getPage */\n      tag_251\n        /* \"Pledge.sol\":8634:8766  AddressSetLib.getPage(... */\n      jump\t// in\n    tag_275:\n        /* \"Pledge.sol\":8615:8766  return... */\n      swap1\n      pop\n        /* \"Pledge.sol\":8541:8773  function allValidators() public view returns (address[] memory) {... */\n      swap1\n      jump\t// out\n        /* \"Pledge.sol\":622:642  address public token */\n    tag_139:\n      0x04\n      0x00\n      swap1\n      sload\n      swap1\n      0x0100\n      exp\n      swap1\n      div\n      0xffffffffffffffffffffffffffffffffffffffff\n      and\n      dup2\n      jump\t// out\n        /* \"@openzeppelin/contracts/security/ReentrancyGuard.sol\":2336:2623  function _nonReentrantBefore() private {... */\n    tag_143:\n        /* \"@openzeppelin/contracts/security/ReentrancyGuard.sol\":1759:1760  2 */\n      0x02\n        /* \"@openzeppelin/contracts/security/ReentrancyGuard.sol\":2468:2475  _status */\n      sload(0x01)\n        /* \"@openzeppelin/contracts/security/ReentrancyGuard.sol\":2468:2487  _status != _ENTERED */\n      sub\n        /* \"@openzeppelin/contracts/security/ReentrancyGuard.sol\":2460:2523  require(_status != _ENTERED, \"ReentrancyGuard: reentrant call\") */\n      tag_278\n      jumpi\n      mload(0x40)\n      0x08c379a000000000000000000000000000000000000000000000000000000000\n      dup2\n      mstore\n      0x04\n      add\n      tag_279\n      swap1\n      tag_280\n      jump\t// in\n    tag_279:\n      mload(0x40)\n      dup1\n      swap2\n      sub\n      swap1\n      revert\n    tag_278:\n        /* \"@openzeppelin/contracts/security/ReentrancyGuard.sol\":1759:1760  2 */\n      0x02\n        /* \"@openzeppelin/contracts/security/ReentrancyGuard.sol\":2598:2605  _status */\n      0x01\n        /* \"@openzeppelin/contracts/security/ReentrancyGuard.sol\":2598:2616  _status = _ENTERED */\n      dup2\n      swap1\n      sstore\n      pop\n        /* \"@openzeppelin/contracts/security/ReentrancyGuard.sol\":2336:2623  function _nonReentrantBefore() private {... */\n      jump\t// out\n        /* \"@openzeppelin/contracts/utils/Context.sol\":640:736  function _msgSender() internal view virtual returns (address) {... */\n    tag_150:\n        /* \"@openzeppelin/contracts/utils/Context.sol\":693:700  address */\n      0x00\n        /* \"@openzeppelin/contracts/utils/Context.sol\":719:729  msg.sender */\n      caller\n        /* \"@openzeppelin/contracts/utils/Context.sol\":712:729  return msg.sender */\n      swap1\n      pop\n        /* \"@openzeppelin/contracts/utils/Context.sol\":640:736  function _msgSender() internal view virtual returns (address) {... */\n      swap1\n      jump\t// out\n        /* \"Pledge.sol\":2477:3219  function minerStake(uint256 store_, address user_) internal returns (bool) {... */\n    tag_159:\n        /* \"Pledge.sol\":2546:2550  bool */\n      0x00\n        /* \"Pledge.sol\":2579:2580  0 */\n      dup1\n        /* \"Pledge.sol\":2570:2576  store_ */\n      dup4\n        /* \"Pledge.sol\":2570:2580  store_ > 0 */\n      gt\n        /* \"Pledge.sol\":2562:2616  require(store_ > 0, \"Pledge: stake storeage is zero!\") */\n      tag_283\n      jumpi\n      mload(0x40)\n      0x08c379a000000000000000000000000000000000000000000000000000000000\n      dup2\n      mstore\n      0x04\n      add\n      tag_284\n      swap1\n      tag_285\n      jump\t// in\n    tag_284:\n      mload(0x40)\n      dup1\n      swap2\n      sub\n      swap1\n      revert\n    tag_283:\n        /* \"Pledge.sol\":2626:2640  uint256 amount */\n      0x00\n        /* \"Pledge.sol\":2661:2667  store_ */\n      dup4\n        /* \"Pledge.sol\":2643:2658  minerStakePrice */\n      sload(0x05)\n        /* \"Pledge.sol\":2643:2667  minerStakePrice * store_ */\n      tag_286\n      swap2\n      swap1\n      tag_183\n      jump\t// in\n    tag_286:\n        /* \"Pledge.sol\":2626:2667  uint256 amount = minerStakePrice * store_ */\n      swap1\n      pop\n        /* \"Pledge.sol\":2732:2738  amount */\n      dup1\n        /* \"Pledge.sol\":2705:2710  token */\n      0x04\n      0x00\n      swap1\n      sload\n      swap1\n      0x0100\n      exp\n      swap1\n      div\n      0xffffffffffffffffffffffffffffffffffffffff\n      and\n        /* \"Pledge.sol\":2698:2721  IERC20(token).balanceOf */\n      0xffffffffffffffffffffffffffffffffffffffff\n      and\n      0x70a08231\n        /* \"Pledge.sol\":2722:2727  user_ */\n      dup6\n        /* \"Pledge.sol\":2698:2728  IERC20(token).balanceOf(user_) */\n      mload(0x40)\n      dup3\n      0xffffffff\n      and\n      0xe0\n      shl\n      dup2\n      mstore\n      0x04\n      add\n      tag_287\n      swap2\n      swap1\n      tag_55\n      jump\t// in\n    tag_287:\n      0x20\n      mload(0x40)\n      dup1\n      dup4\n      sub\n      dup2\n      dup7\n      gas\n      staticcall\n      iszero\n      dup1\n      iszero\n      tag_289\n      jumpi\n      returndatasize\n      0x00\n      dup1\n      returndatacopy\n      revert(0x00, returndatasize)\n    tag_289:\n      pop\n      pop\n      pop\n      pop\n      mload(0x40)\n      returndatasize\n      not(0x1f)\n      0x1f\n      dup3\n      add\n      and\n      dup3\n      add\n      dup1\n      0x40\n      mstore\n      pop\n      dup2\n      add\n      swap1\n      tag_290\n      swap2\n      swap1\n      tag_291\n      jump\t// in\n    tag_290:\n        /* \"Pledge.sol\":2698:2738  IERC20(token).balanceOf(user_) >= amount */\n      lt\n      iszero\n        /* \"Pledge.sol\":2677:2791  require(... */\n      tag_292\n      jumpi\n      mload(0x40)\n      0x08c379a000000000000000000000000000000000000000000000000000000000\n      dup2\n      mstore\n      0x04\n      add\n      tag_293\n      swap1\n      tag_294\n      jump\t// in\n    tag_293:\n      mload(0x40)\n      dup1\n      swap2\n      sub\n      swap1\n      revert\n    tag_292:\n        /* \"Pledge.sol\":2806:2843  AddressSetLib.contains(miners, user_) */\n      tag_295\n        /* \"Pledge.sol\":2829:2835  miners */\n      0x0d\n        /* \"Pledge.sol\":2837:2842  user_ */\n      dup5\n        /* \"Pledge.sol\":2806:2828  AddressSetLib.contains */\n      tag_215\n        /* \"Pledge.sol\":2806:2843  AddressSetLib.contains(miners, user_) */\n      jump\t// in\n    tag_295:\n        /* \"Pledge.sol\":2801:2902  if (!AddressSetLib.contains(miners, user_)) {... */\n      tag_296\n      jumpi\n        /* \"Pledge.sol\":2859:2891  AddressSetLib.add(miners, user_) */\n      tag_297\n        /* \"Pledge.sol\":2877:2883  miners */\n      0x0d\n        /* \"Pledge.sol\":2885:2890  user_ */\n      dup5\n        /* \"Pledge.sol\":2859:2876  AddressSetLib.add */\n      tag_298\n        /* \"Pledge.sol\":2859:2891  AddressSetLib.add(miners, user_) */\n      jump\t// in\n    tag_297:\n        /* \"Pledge.sol\":2801:2902  if (!AddressSetLib.contains(miners, user_)) {... */\n    tag_296:\n        /* \"Pledge.sol\":2911:2923  bool success */\n      0x00\n        /* \"Pledge.sol\":2933:2938  token */\n      0x04\n      0x00\n      swap1\n      sload\n      swap1\n      0x0100\n      exp\n      swap1\n      div\n      0xffffffffffffffffffffffffffffffffffffffff\n      and\n        /* \"Pledge.sol\":2926:2952  IERC20(token).transferFrom */\n      0xffffffffffffffffffffffffffffffffffffffff\n      and\n      0x23b872dd\n        /* \"Pledge.sol\":2953:2958  user_ */\n      dup6\n        /* \"Pledge.sol\":2960:2964  pool */\n      0x02\n      0x00\n      swap1\n      sload\n      swap1\n      0x0100\n      exp\n      swap1\n      div\n      0xffffffffffffffffffffffffffffffffffffffff\n      and\n        /* \"Pledge.sol\":2966:2972  amount */\n      dup6\n        /* \"Pledge.sol\":2926:2973  IERC20(token).transferFrom(user_, pool, amount) */\n      mload(0x40)\n      dup5\n      0xffffffff\n      and\n      0xe0\n      shl\n      dup2\n      mstore\n      0x04\n      add\n      tag_299\n      swap4\n      swap3\n      swap2\n      swap1\n      tag_300\n      jump\t// in\n    tag_299:\n      0x20\n      mload(0x40)\n      dup1\n      dup4\n      sub\n      dup2\n      0x00\n      dup8\n      gas\n      call\n      iszero\n      dup1\n      iszero\n      tag_302\n      jumpi\n      returndatasize\n      0x00\n      dup1\n      returndatacopy\n      revert(0x00, returndatasize)\n    tag_302:\n      pop\n      pop\n      pop\n      pop\n      mload(0x40)\n      returndatasize\n      not(0x1f)\n      0x1f\n      dup3\n      add\n      and\n      dup3\n      add\n      dup1\n      0x40\n      mstore\n      pop\n      dup2\n      add\n      swap1\n      tag_303\n      swap2\n      swap1\n      tag_264\n      jump\t// in\n    tag_303:\n        /* \"Pledge.sol\":2911:2973  bool success = IERC20(token).transferFrom(user_, pool, amount) */\n      swap1\n      pop\n        /* \"Pledge.sol\":3015:3019  1024 */\n      0x0400\n        /* \"Pledge.sol\":3008:3012  1024 */\n      dup1\n        /* \"Pledge.sol\":3001:3005  1024 */\n      0x0400\n        /* \"Pledge.sol\":2992:2998  store_ */\n      dup8\n        /* \"Pledge.sol\":2992:3005  store_ * 1024 */\n      tag_304\n      swap2\n      swap1\n      tag_183\n      jump\t// in\n    tag_304:\n        /* \"Pledge.sol\":2992:3012  store_ * 1024 * 1024 */\n      tag_305\n      swap2\n      swap1\n      tag_183\n      jump\t// in\n    tag_305:\n        /* \"Pledge.sol\":2992:3019  store_ * 1024 * 1024 * 1024 */\n      tag_306\n      swap2\n      swap1\n      tag_183\n      jump\t// in\n    tag_306:\n        /* \"Pledge.sol\":2983:3019  store_ = store_ * 1024 * 1024 * 1024 */\n      swap5\n      pop\n        /* \"Pledge.sol\":3058:3064  store_ */\n      dup5\n        /* \"Pledge.sol\":3029:3041  minerStorage */\n      0x0a\n        /* \"Pledge.sol\":3029:3048  minerStorage[user_] */\n      0x00\n        /* \"Pledge.sol\":3042:3047  user_ */\n      dup7\n        /* \"Pledge.sol\":3029:3048  minerStorage[user_] */\n      0xffffffffffffffffffffffffffffffffffffffff\n      and\n      0xffffffffffffffffffffffffffffffffffffffff\n      and\n      dup2\n      mstore\n      0x20\n      add\n      swap1\n      dup2\n      mstore\n      0x20\n      add\n      0x00\n      keccak256\n        /* \"Pledge.sol\":3029:3054  minerStorage[user_].total */\n      0x00\n      add\n      0x00\n        /* \"Pledge.sol\":3029:3064  minerStorage[user_].total += store_ */\n      dup3\n      dup3\n      sload\n      tag_307\n      swap2\n      swap1\n      tag_188\n      jump\t// in\n    tag_307:\n      swap3\n      pop\n      pop\n      dup2\n      swap1\n      sstore\n      pop\n        /* \"Pledge.sol\":3100:3106  amount */\n      dup2\n        /* \"Pledge.sol\":3074:3089  userStakeAmount */\n      0x0b\n        /* \"Pledge.sol\":3074:3096  userStakeAmount[user_] */\n      0x00\n        /* \"Pledge.sol\":3090:3095  user_ */\n      dup7\n        /* \"Pledge.sol\":3074:3096  userStakeAmount[user_] */\n      0xffffffffffffffffffffffffffffffffffffffff\n      and\n      0xffffffffffffffffffffffffffffffffffffffff\n      and\n      dup2\n      mstore\n      0x20\n      add\n      swap1\n      dup2\n      mstore\n      0x20\n      add\n      0x00\n      keccak256\n      0x00\n        /* \"Pledge.sol\":3074:3106  userStakeAmount[user_] += amount */\n      dup3\n      dup3\n      sload\n      tag_308\n      swap2\n      swap1\n      tag_188\n      jump\t// in\n    tag_308:\n      swap3\n      pop\n      pop\n      dup2\n      swap1\n      sstore\n      pop\n        /* \"Pledge.sol\":3134:3135  2 */\n      0x02\n        /* \"Pledge.sol\":3116:3124  userRole */\n      0x09\n        /* \"Pledge.sol\":3116:3131  userRole[user_] */\n      0x00\n        /* \"Pledge.sol\":3125:3130  user_ */\n      dup7\n        /* \"Pledge.sol\":3116:3131  userRole[user_] */\n      0xffffffffffffffffffffffffffffffffffffffff\n      and\n      0xffffffffffffffffffffffffffffffffffffffff\n      and\n      dup2\n      mstore\n      0x20\n      add\n      swap1\n      dup2\n      mstore\n      0x20\n      add\n      0x00\n      keccak256\n      0x00\n        /* \"Pledge.sol\":3116:3135  userRole[user_] = 2 */\n      0x0100\n      exp\n      dup2\n      sload\n      dup2\n      0xff\n      mul\n      not\n      and\n      swap1\n      dup4\n      0xff\n      and\n      mul\n      or\n      swap1\n      sstore\n      pop\n        /* \"Pledge.sol\":3166:3171  user_ */\n      dup4\n        /* \"Pledge.sol\":3150:3188  MinerStakeEvent(user_, amount, store_) */\n      0xffffffffffffffffffffffffffffffffffffffff\n      and\n      0xe04f064c94fe0edee3c04978ea069c5445cf7146e23ed179c153983e44778311\n        /* \"Pledge.sol\":3173:3179  amount */\n      dup4\n        /* \"Pledge.sol\":3181:3187  store_ */\n      dup8\n        /* \"Pledge.sol\":3150:3188  MinerStakeEvent(user_, amount, store_) */\n      mload(0x40)\n      tag_309\n      swap3\n      swap2\n      swap1\n      tag_80\n      jump\t// in\n    tag_309:\n      mload(0x40)\n      dup1\n      swap2\n      sub\n      swap1\n      log2\n        /* \"Pledge.sol\":3205:3212  success */\n      dup1\n        /* \"Pledge.sol\":3198:3212  return success */\n      swap3\n      pop\n      pop\n      pop\n        /* \"Pledge.sol\":2477:3219  function minerStake(uint256 store_, address user_) internal returns (bool) {... */\n      swap3\n      swap2\n      pop\n      pop\n      jump\t// out\n        /* \"Pledge.sol\":3242:3542  function validatorStake(address user_) internal returns (bool) {... */\n    tag_164:\n        /* \"Pledge.sol\":3299:3303  bool */\n      0x00\n        /* \"Pledge.sol\":3320:3361  AddressSetLib.contains(validators, user_) */\n      tag_311\n        /* \"Pledge.sol\":3343:3353  validators */\n      0x0f\n        /* \"Pledge.sol\":3355:3360  user_ */\n      dup4\n        /* \"Pledge.sol\":3320:3342  AddressSetLib.contains */\n      tag_215\n        /* \"Pledge.sol\":3320:3361  AddressSetLib.contains(validators, user_) */\n      jump\t// in\n    tag_311:\n        /* \"Pledge.sol\":3315:3424  if (!AddressSetLib.contains(validators, user_)) {... */\n      tag_312\n      jumpi\n        /* \"Pledge.sol\":3377:3413  AddressSetLib.add(validators, user_) */\n      tag_313\n        /* \"Pledge.sol\":3395:3405  validators */\n      0x0f\n        /* \"Pledge.sol\":3407:3412  user_ */\n      dup4\n        /* \"Pledge.sol\":3377:3394  AddressSetLib.add */\n      tag_298\n        /* \"Pledge.sol\":3377:3413  AddressSetLib.add(validators, user_) */\n      jump\t// in\n    tag_313:\n        /* \"Pledge.sol\":3315:3424  if (!AddressSetLib.contains(validators, user_)) {... */\n    tag_312:\n        /* \"Pledge.sol\":3451:3452  3 */\n      0x03\n        /* \"Pledge.sol\":3433:3441  userRole */\n      0x09\n        /* \"Pledge.sol\":3433:3448  userRole[user_] */\n      0x00\n        /* \"Pledge.sol\":3442:3447  user_ */\n      dup5\n        /* \"Pledge.sol\":3433:3448  userRole[user_] */\n      0xffffffffffffffffffffffffffffffffffffffff\n      and\n      0xffffffffffffffffffffffffffffffffffffffff\n      and\n      dup2\n      mstore\n      0x20\n      add\n      swap1\n      dup2\n      mstore\n      0x20\n      add\n      0x00\n      keccak256\n      0x00\n        /* \"Pledge.sol\":3433:3452  userRole[user_] = 3 */\n      0x0100\n      exp\n      dup2\n      sload\n      dup2\n      0xff\n      mul\n      not\n      and\n      swap1\n      dup4\n      0xff\n      and\n      mul\n      or\n      swap1\n      sstore\n      pop\n        /* \"Pledge.sol\":3487:3492  user_ */\n      dup2\n        /* \"Pledge.sol\":3467:3514  ValidatorStakeEvent(user_, validatorStakePrice) */\n      0xffffffffffffffffffffffffffffffffffffffff\n      and\n      0x261a1e5397da268bd5f5561920d0fd2b3ac2f1a2c9dea7cd9bc679a8f18d87d3\n        /* \"Pledge.sol\":3494:3513  validatorStakePrice */\n      sload(0x06)\n        /* \"Pledge.sol\":3467:3514  ValidatorStakeEvent(user_, validatorStakePrice) */\n      mload(0x40)\n      tag_314\n      swap2\n      swap1\n      tag_41\n      jump\t// in\n    tag_314:\n      mload(0x40)\n      dup1\n      swap2\n      sub\n      swap1\n      log2\n        /* \"Pledge.sol\":3531:3535  true */\n      0x01\n        /* \"Pledge.sol\":3524:3535  return true */\n      swap1\n      pop\n        /* \"Pledge.sol\":3242:3542  function validatorStake(address user_) internal returns (bool) {... */\n      swap2\n      swap1\n      pop\n      jump\t// out\n        /* \"@openzeppelin/contracts/security/ReentrancyGuard.sol\":2629:2838  function _nonReentrantAfter() private {... */\n    tag_166:\n        /* \"@openzeppelin/contracts/security/ReentrancyGuard.sol\":1716:1717  1 */\n      0x01\n        /* \"@openzeppelin/contracts/security/ReentrancyGuard.sol\":2809:2816  _status */\n      dup1\n        /* \"@openzeppelin/contracts/security/ReentrancyGuard.sol\":2809:2831  _status = _NOT_ENTERED */\n      dup2\n      swap1\n      sstore\n      pop\n        /* \"@openzeppelin/contracts/security/ReentrancyGuard.sol\":2629:2838  function _nonReentrantAfter() private {... */\n      jump\t// out\n        /* \"@openzeppelin/contracts/access/Ownable.sol\":1359:1489  function _checkOwner() internal view virtual {... */\n    tag_170:\n        /* \"@openzeppelin/contracts/access/Ownable.sol\":1433:1445  _msgSender() */\n      tag_317\n        /* \"@openzeppelin/contracts/access/Ownable.sol\":1433:1443  _msgSender */\n      tag_150\n        /* \"@openzeppelin/contracts/access/Ownable.sol\":1433:1445  _msgSender() */\n      jump\t// in\n    tag_317:\n        /* \"@openzeppelin/contracts/access/Ownable.sol\":1422:1445  owner() == _msgSender() */\n      0xffffffffffffffffffffffffffffffffffffffff\n      and\n        /* \"@openzeppelin/contracts/access/Ownable.sol\":1422:1429  owner() */\n      tag_318\n        /* \"@openzeppelin/contracts/access/Ownable.sol\":1422:1427  owner */\n      tag_92\n        /* \"@openzeppelin/contracts/access/Ownable.sol\":1422:1429  owner() */\n      jump\t// in\n    tag_318:\n        /* \"@openzeppelin/contracts/access/Ownable.sol\":1422:1445  owner() == _msgSender() */\n      0xffffffffffffffffffffffffffffffffffffffff\n      and\n      eq\n        /* \"@openzeppelin/contracts/access/Ownable.sol\":1414:1482  require(owner() == _msgSender(), \"Ownable: caller is not the owner\") */\n      tag_319\n      jumpi\n      mload(0x40)\n      0x08c379a000000000000000000000000000000000000000000000000000000000\n      dup2\n      mstore\n      0x04\n      add\n      tag_320\n      swap1\n      tag_321\n      jump\t// in\n    tag_320:\n      mload(0x40)\n      dup1\n      swap2\n      sub\n      swap1\n      revert\n    tag_319:\n        /* \"@openzeppelin/contracts/access/Ownable.sol\":1359:1489  function _checkOwner() internal view virtual {... */\n      jump\t// out\n        /* \"libraries/AddressSetLib.sol\":2374:2489  function length(AddressSet storage set) internal view returns (uint256) {... */\n    tag_205:\n        /* \"libraries/AddressSetLib.sol\":2437:2444  uint256 */\n      0x00\n        /* \"libraries/AddressSetLib.sol\":2463:2466  set */\n      dup2\n        /* \"libraries/AddressSetLib.sol\":2463:2475  set.elements */\n      0x00\n      add\n        /* \"libraries/AddressSetLib.sol\":2463:2482  set.elements.length */\n      dup1\n      sload\n      swap1\n      pop\n        /* \"libraries/AddressSetLib.sol\":2456:2482  return set.elements.length */\n      swap1\n      pop\n        /* \"libraries/AddressSetLib.sol\":2374:2489  function length(AddressSet storage set) internal view returns (uint256) {... */\n      swap2\n      swap1\n      pop\n      jump\t// out\n        /* \"@openzeppelin/contracts/access/Ownable.sol\":2426:2613  function _transferOwnership(address newOwner) internal virtual {... */\n    tag_212:\n        /* \"@openzeppelin/contracts/access/Ownable.sol\":2499:2515  address oldOwner */\n      0x00\n        /* \"@openzeppelin/contracts/access/Ownable.sol\":2518:2524  _owner */\n      dup1\n      0x00\n      swap1\n      sload\n      swap1\n      0x0100\n      exp\n      swap1\n      div\n      0xffffffffffffffffffffffffffffffffffffffff\n      and\n        /* \"@openzeppelin/contracts/access/Ownable.sol\":2499:2524  address oldOwner = _owner */\n      swap1\n      pop\n        /* \"@openzeppelin/contracts/access/Ownable.sol\":2543:2551  newOwner */\n      dup2\n        /* \"@openzeppelin/contracts/access/Ownable.sol\":2534:2540  _owner */\n      0x00\n      dup1\n        /* \"@openzeppelin/contracts/access/Ownable.sol\":2534:2551  _owner = newOwner */\n      0x0100\n      exp\n      dup2\n      sload\n      dup2\n      0xffffffffffffffffffffffffffffffffffffffff\n      mul\n      not\n      and\n      swap1\n      dup4\n      0xffffffffffffffffffffffffffffffffffffffff\n      and\n      mul\n      or\n      swap1\n      sstore\n      pop\n        /* \"@openzeppelin/contracts/access/Ownable.sol\":2597:2605  newOwner */\n      dup2\n        /* \"@openzeppelin/contracts/access/Ownable.sol\":2566:2606  OwnershipTransferred(oldOwner, newOwner) */\n      0xffffffffffffffffffffffffffffffffffffffff\n      and\n        /* \"@openzeppelin/contracts/access/Ownable.sol\":2587:2595  oldOwner */\n      dup2\n        /* \"@openzeppelin/contracts/access/Ownable.sol\":2566:2606  OwnershipTransferred(oldOwner, newOwner) */\n      0xffffffffffffffffffffffffffffffffffffffff\n      and\n      0x8be0079c531659141344cd1fd0a4f28419497f9722a3daafe3b4186f6b6457e0\n      mload(0x40)\n      mload(0x40)\n      dup1\n      swap2\n      sub\n      swap1\n      log3\n        /* \"@openzeppelin/contracts/access/Ownable.sol\":2489:2613  {... */\n      pop\n        /* \"@openzeppelin/contracts/access/Ownable.sol\":2426:2613  function _transferOwnership(address newOwner) internal virtual {... */\n      pop\n      jump\t// out\n        /* \"libraries/AddressSetLib.sol\":190:470  function contains(AddressSet storage set, address candidate) internal view returns (bool) {... */\n    tag_215:\n        /* \"libraries/AddressSetLib.sol\":274:278  bool */\n      0x00\n        /* \"libraries/AddressSetLib.sol\":317:318  0 */\n      dup1\n        /* \"libraries/AddressSetLib.sol\":294:297  set */\n      dup4\n        /* \"libraries/AddressSetLib.sol\":294:306  set.elements */\n      0x00\n      add\n        /* \"libraries/AddressSetLib.sol\":294:313  set.elements.length */\n      dup1\n      sload\n      swap1\n      pop\n        /* \"libraries/AddressSetLib.sol\":294:318  set.elements.length == 0 */\n      sub\n        /* \"libraries/AddressSetLib.sol\":290:357  if (set.elements.length == 0) {... */\n      tag_325\n      jumpi\n        /* \"libraries/AddressSetLib.sol\":341:346  false */\n      0x00\n        /* \"libraries/AddressSetLib.sol\":334:346  return false */\n      swap1\n      pop\n      jump(tag_324)\n        /* \"libraries/AddressSetLib.sol\":290:357  if (set.elements.length == 0) {... */\n    tag_325:\n        /* \"libraries/AddressSetLib.sol\":366:379  uint256 index */\n      0x00\n        /* \"libraries/AddressSetLib.sol\":382:385  set */\n      dup4\n        /* \"libraries/AddressSetLib.sol\":382:393  set.indices */\n      0x01\n      add\n        /* \"libraries/AddressSetLib.sol\":382:404  set.indices[candidate] */\n      0x00\n        /* \"libraries/AddressSetLib.sol\":394:403  candidate */\n      dup5\n        /* \"libraries/AddressSetLib.sol\":382:404  set.indices[candidate] */\n      0xffffffffffffffffffffffffffffffffffffffff\n      and\n      0xffffffffffffffffffffffffffffffffffffffff\n      and\n      dup2\n      mstore\n      0x20\n      add\n      swap1\n      dup2\n      mstore\n      0x20\n      add\n      0x00\n      keccak256\n      sload\n        /* \"libraries/AddressSetLib.sol\":366:404  uint256 index = set.indices[candidate] */\n      swap1\n      pop\n        /* \"libraries/AddressSetLib.sol\":430:431  0 */\n      0x00\n        /* \"libraries/AddressSetLib.sol\":421:426  index */\n      dup2\n        /* \"libraries/AddressSetLib.sol\":421:431  index != 0 */\n      eq\n      iszero\n        /* \"libraries/AddressSetLib.sol\":421:463  index != 0 || set.elements[0] == candidate */\n      dup1\n      tag_326\n      jumpi\n      pop\n        /* \"libraries/AddressSetLib.sol\":454:463  candidate */\n      dup3\n        /* \"libraries/AddressSetLib.sol\":435:463  set.elements[0] == candidate */\n      0xffffffffffffffffffffffffffffffffffffffff\n      and\n        /* \"libraries/AddressSetLib.sol\":435:438  set */\n      dup5\n        /* \"libraries/AddressSetLib.sol\":435:447  set.elements */\n      0x00\n      add\n        /* \"libraries/AddressSetLib.sol\":448:449  0 */\n      0x00\n        /* \"libraries/AddressSetLib.sol\":435:450  set.elements[0] */\n      dup2\n      sload\n      dup2\n      lt\n      tag_327\n      jumpi\n      tag_328\n      tag_329\n      jump\t// in\n    tag_328:\n    tag_327:\n      swap1\n      0x00\n      mstore\n      keccak256(0x00, 0x20)\n      add\n      0x00\n      swap1\n      sload\n      swap1\n      0x0100\n      exp\n      swap1\n      div\n      0xffffffffffffffffffffffffffffffffffffffff\n      and\n        /* \"libraries/AddressSetLib.sol\":435:463  set.elements[0] == candidate */\n      0xffffffffffffffffffffffffffffffffffffffff\n      and\n      eq\n        /* \"libraries/AddressSetLib.sol\":421:463  index != 0 || set.elements[0] == candidate */\n    tag_326:\n        /* \"libraries/AddressSetLib.sol\":414:463  return index != 0 || set.elements[0] == candidate */\n      swap2\n      pop\n      pop\n        /* \"libraries/AddressSetLib.sol\":190:470  function contains(AddressSet storage set, address candidate) internal view returns (bool) {... */\n    tag_324:\n      swap3\n      swap2\n      pop\n      pop\n      jump\t// out\n        /* \"libraries/AddressSetLib.sol\":1630:2368  function remove(AddressSet storage set, address element) internal {... */\n    tag_225:\n        /* \"libraries/AddressSetLib.sol\":1714:1736  contains(set, element) */\n      tag_332\n        /* \"libraries/AddressSetLib.sol\":1723:1726  set */\n      dup3\n        /* \"libraries/AddressSetLib.sol\":1728:1735  element */\n      dup3\n        /* \"libraries/AddressSetLib.sol\":1714:1722  contains */\n      tag_215\n        /* \"libraries/AddressSetLib.sol\":1714:1736  contains(set, element) */\n      jump\t// in\n    tag_332:\n        /* \"libraries/AddressSetLib.sol\":1706:1760  require(contains(set, element), 'Element not in set.') */\n      tag_333\n      jumpi\n      mload(0x40)\n      0x08c379a000000000000000000000000000000000000000000000000000000000\n      dup2\n      mstore\n      0x04\n      add\n      tag_334\n      swap1\n      tag_335\n      jump\t// in\n    tag_334:\n      mload(0x40)\n      dup1\n      swap2\n      sub\n      swap1\n      revert\n    tag_333:\n        /* \"libraries/AddressSetLib.sol\":1841:1854  uint256 index */\n      0x00\n        /* \"libraries/AddressSetLib.sol\":1857:1860  set */\n      dup3\n        /* \"libraries/AddressSetLib.sol\":1857:1868  set.indices */\n      0x01\n      add\n        /* \"libraries/AddressSetLib.sol\":1857:1877  set.indices[element] */\n      0x00\n        /* \"libraries/AddressSetLib.sol\":1869:1876  element */\n      dup4\n        /* \"libraries/AddressSetLib.sol\":1857:1877  set.indices[element] */\n      0xffffffffffffffffffffffffffffffffffffffff\n      and\n      0xffffffffffffffffffffffffffffffffffffffff\n      and\n      dup2\n      mstore\n      0x20\n      add\n      swap1\n      dup2\n      mstore\n      0x20\n      add\n      0x00\n      keccak256\n      sload\n        /* \"libraries/AddressSetLib.sol\":1841:1877  uint256 index = set.indices[element] */\n      swap1\n      pop\n        /* \"libraries/AddressSetLib.sol\":1962:1979  uint256 lastIndex */\n      0x00\n        /* \"libraries/AddressSetLib.sol\":2004:2005  1 */\n      0x01\n        /* \"libraries/AddressSetLib.sol\":1982:1985  set */\n      dup5\n        /* \"libraries/AddressSetLib.sol\":1982:1994  set.elements */\n      0x00\n      add\n        /* \"libraries/AddressSetLib.sol\":1982:2001  set.elements.length */\n      dup1\n      sload\n      swap1\n      pop\n        /* \"libraries/AddressSetLib.sol\":1982:2005  set.elements.length - 1 */\n      tag_336\n      swap2\n      swap1\n      tag_243\n      jump\t// in\n    tag_336:\n        /* \"libraries/AddressSetLib.sol\":1962:2005  uint256 lastIndex = set.elements.length - 1 */\n      swap1\n      pop\n        /* \"libraries/AddressSetLib.sol\":2114:2123  lastIndex */\n      dup1\n        /* \"libraries/AddressSetLib.sol\":2105:2110  index */\n      dup3\n        /* \"libraries/AddressSetLib.sol\":2105:2123  index != lastIndex */\n      eq\n        /* \"libraries/AddressSetLib.sol\":2101:2297  if (index != lastIndex) {... */\n      tag_337\n      jumpi\n        /* \"libraries/AddressSetLib.sol\":2139:2161  address shiftedElement */\n      0x00\n        /* \"libraries/AddressSetLib.sol\":2164:2167  set */\n      dup5\n        /* \"libraries/AddressSetLib.sol\":2164:2176  set.elements */\n      0x00\n      add\n        /* \"libraries/AddressSetLib.sol\":2177:2186  lastIndex */\n      dup3\n        /* \"libraries/AddressSetLib.sol\":2164:2187  set.elements[lastIndex] */\n      dup2\n      sload\n      dup2\n      lt\n      tag_338\n      jumpi\n      tag_339\n      tag_329\n      jump\t// in\n    tag_339:\n    tag_338:\n      swap1\n      0x00\n      mstore\n      keccak256(0x00, 0x20)\n      add\n      0x00\n      swap1\n      sload\n      swap1\n      0x0100\n      exp\n      swap1\n      div\n      0xffffffffffffffffffffffffffffffffffffffff\n      and\n        /* \"libraries/AddressSetLib.sol\":2139:2187  address shiftedElement = set.elements[lastIndex] */\n      swap1\n      pop\n        /* \"libraries/AddressSetLib.sol\":2223:2237  shiftedElement */\n      dup1\n        /* \"libraries/AddressSetLib.sol\":2201:2204  set */\n      dup6\n        /* \"libraries/AddressSetLib.sol\":2201:2213  set.elements */\n      0x00\n      add\n        /* \"libraries/AddressSetLib.sol\":2214:2219  index */\n      dup5\n        /* \"libraries/AddressSetLib.sol\":2201:2220  set.elements[index] */\n      dup2\n      sload\n      dup2\n      lt\n      tag_341\n      jumpi\n      tag_342\n      tag_329\n      jump\t// in\n    tag_342:\n    tag_341:\n      swap1\n      0x00\n      mstore\n      keccak256(0x00, 0x20)\n      add\n      0x00\n        /* \"libraries/AddressSetLib.sol\":2201:2237  set.elements[index] = shiftedElement */\n      0x0100\n      exp\n      dup2\n      sload\n      dup2\n      0xffffffffffffffffffffffffffffffffffffffff\n      mul\n      not\n      and\n      swap1\n      dup4\n      0xffffffffffffffffffffffffffffffffffffffff\n      and\n      mul\n      or\n      swap1\n      sstore\n      pop\n        /* \"libraries/AddressSetLib.sol\":2281:2286  index */\n      dup3\n        /* \"libraries/AddressSetLib.sol\":2251:2254  set */\n      dup6\n        /* \"libraries/AddressSetLib.sol\":2251:2262  set.indices */\n      0x01\n      add\n        /* \"libraries/AddressSetLib.sol\":2251:2278  set.indices[shiftedElement] */\n      0x00\n        /* \"libraries/AddressSetLib.sol\":2263:2277  shiftedElement */\n      dup4\n        /* \"libraries/AddressSetLib.sol\":2251:2278  set.indices[shiftedElement] */\n      0xffffffffffffffffffffffffffffffffffffffff\n      and\n      0xffffffffffffffffffffffffffffffffffffffff\n      and\n      dup2\n      mstore\n      0x20\n      add\n      swap1\n      dup2\n      mstore\n      0x20\n      add\n      0x00\n      keccak256\n        /* \"libraries/AddressSetLib.sol\":2251:2286  set.indices[shiftedElement] = index */\n      dup2\n      swap1\n      sstore\n      pop\n        /* \"libraries/AddressSetLib.sol\":2125:2297  {... */\n      pop\n        /* \"libraries/AddressSetLib.sol\":2101:2297  if (index != lastIndex) {... */\n    tag_337:\n        /* \"libraries/AddressSetLib.sol\":2306:2309  set */\n      dup4\n        /* \"libraries/AddressSetLib.sol\":2306:2318  set.elements */\n      0x00\n      add\n        /* \"libraries/AddressSetLib.sol\":2306:2324  set.elements.pop() */\n      dup1\n      sload\n      dup1\n      tag_344\n      jumpi\n      tag_345\n      tag_346\n      jump\t// in\n    tag_345:\n    tag_344:\n      0x01\n      swap1\n      sub\n      dup2\n      dup2\n      swap1\n      0x00\n      mstore\n      keccak256(0x00, 0x20)\n      add\n      exp(0x0100, 0x00)\n      dup2\n      sload\n      swap1\n      0xffffffffffffffffffffffffffffffffffffffff\n      mul\n      not\n      and\n      swap1\n      sstore\n      swap1\n      sstore\n        /* \"libraries/AddressSetLib.sol\":2341:2344  set */\n      dup4\n        /* \"libraries/AddressSetLib.sol\":2341:2352  set.indices */\n      0x01\n      add\n        /* \"libraries/AddressSetLib.sol\":2341:2361  set.indices[element] */\n      0x00\n        /* \"libraries/AddressSetLib.sol\":2353:2360  element */\n      dup5\n        /* \"libraries/AddressSetLib.sol\":2341:2361  set.indices[element] */\n      0xffffffffffffffffffffffffffffffffffffffff\n      and\n      0xffffffffffffffffffffffffffffffffffffffff\n      and\n      dup2\n      mstore\n      0x20\n      add\n      swap1\n      dup2\n      mstore\n      0x20\n      add\n      0x00\n      keccak256\n        /* \"libraries/AddressSetLib.sol\":2334:2361  delete set.indices[element] */\n      0x00\n      swap1\n      sstore\n        /* \"libraries/AddressSetLib.sol\":1696:2368  {... */\n      pop\n      pop\n        /* \"libraries/AddressSetLib.sol\":1630:2368  function remove(AddressSet storage set, address element) internal {... */\n      pop\n      pop\n      jump\t// out\n        /* \"libraries/AddressSetLib.sol\":476:1348  function getPage(... */\n    tag_251:\n        /* \"libraries/AddressSetLib.sol\":603:619  address[] memory */\n      0x60\n        /* \"libraries/AddressSetLib.sol\":745:761  uint256 endIndex */\n      0x00\n        /* \"libraries/AddressSetLib.sol\":772:780  pageSize */\n      dup3\n        /* \"libraries/AddressSetLib.sol\":764:769  index */\n      dup5\n        /* \"libraries/AddressSetLib.sol\":764:780  index + pageSize */\n      tag_349\n      swap2\n      swap1\n      tag_188\n      jump\t// in\n    tag_349:\n        /* \"libraries/AddressSetLib.sol\":745:780  uint256 endIndex = index + pageSize */\n      swap1\n      pop\n        /* \"libraries/AddressSetLib.sol\":936:939  set */\n      dup5\n        /* \"libraries/AddressSetLib.sol\":936:948  set.elements */\n      0x00\n      add\n        /* \"libraries/AddressSetLib.sol\":936:955  set.elements.length */\n      dup1\n      sload\n      swap1\n      pop\n        /* \"libraries/AddressSetLib.sol\":925:933  endIndex */\n      dup2\n        /* \"libraries/AddressSetLib.sol\":925:955  endIndex > set.elements.length */\n      gt\n        /* \"libraries/AddressSetLib.sol\":921:1012  if (endIndex > set.elements.length) {... */\n      iszero\n      tag_350\n      jumpi\n        /* \"libraries/AddressSetLib.sol\":982:985  set */\n      dup5\n        /* \"libraries/AddressSetLib.sol\":982:994  set.elements */\n      0x00\n      add\n        /* \"libraries/AddressSetLib.sol\":982:1001  set.elements.length */\n      dup1\n      sload\n      swap1\n      pop\n        /* \"libraries/AddressSetLib.sol\":971:1001  endIndex = set.elements.length */\n      swap1\n      pop\n        /* \"libraries/AddressSetLib.sol\":921:1012  if (endIndex > set.elements.length) {... */\n    tag_350:\n        /* \"libraries/AddressSetLib.sol\":1037:1042  index */\n      dup4\n        /* \"libraries/AddressSetLib.sol\":1025:1033  endIndex */\n      dup2\n        /* \"libraries/AddressSetLib.sol\":1025:1042  endIndex <= index */\n      gt\n        /* \"libraries/AddressSetLib.sol\":1021:1092  if (endIndex <= index) {... */\n      tag_351\n      jumpi\n        /* \"libraries/AddressSetLib.sol\":1079:1080  0 */\n      0x00\n        /* \"libraries/AddressSetLib.sol\":1065:1081  new address[](0) */\n      0xffffffffffffffff\n      dup2\n      gt\n      iszero\n      tag_352\n      jumpi\n      tag_353\n      tag_202\n      jump\t// in\n    tag_353:\n    tag_352:\n      mload(0x40)\n      swap1\n      dup1\n      dup3\n      mstore\n      dup1\n      0x20\n      mul\n      0x20\n      add\n      dup3\n      add\n      0x40\n      mstore\n      dup1\n      iszero\n      tag_354\n      jumpi\n      dup2\n      0x20\n      add\n      0x20\n      dup3\n      mul\n      dup1\n      calldatasize\n      dup4\n      calldatacopy\n      dup1\n      dup3\n      add\n      swap2\n      pop\n      pop\n      swap1\n      pop\n    tag_354:\n      pop\n        /* \"libraries/AddressSetLib.sol\":1058:1081  return new address[](0) */\n      swap2\n      pop\n      pop\n      jump(tag_348)\n        /* \"libraries/AddressSetLib.sol\":1021:1092  if (endIndex <= index) {... */\n    tag_351:\n        /* \"libraries/AddressSetLib.sol\":1102:1111  uint256 n */\n      0x00\n        /* \"libraries/AddressSetLib.sol\":1125:1130  index */\n      dup5\n        /* \"libraries/AddressSetLib.sol\":1114:1122  endIndex */\n      dup3\n        /* \"libraries/AddressSetLib.sol\":1114:1130  endIndex - index */\n      tag_355\n      swap2\n      swap1\n      tag_243\n      jump\t// in\n    tag_355:\n        /* \"libraries/AddressSetLib.sol\":1102:1130  uint256 n = endIndex - index */\n      swap1\n      pop\n        /* \"libraries/AddressSetLib.sol\":1185:1206  address[] memory page */\n      0x00\n        /* \"libraries/AddressSetLib.sol\":1223:1224  n */\n      dup2\n        /* \"libraries/AddressSetLib.sol\":1209:1225  new address[](n) */\n      0xffffffffffffffff\n      dup2\n      gt\n      iszero\n      tag_356\n      jumpi\n      tag_357\n      tag_202\n      jump\t// in\n    tag_357:\n    tag_356:\n      mload(0x40)\n      swap1\n      dup1\n      dup3\n      mstore\n      dup1\n      0x20\n      mul\n      0x20\n      add\n      dup3\n      add\n      0x40\n      mstore\n      dup1\n      iszero\n      tag_358\n      jumpi\n      dup2\n      0x20\n      add\n      0x20\n      dup3\n      mul\n      dup1\n      calldatasize\n      dup4\n      calldatacopy\n      dup1\n      dup3\n      add\n      swap2\n      pop\n      pop\n      swap1\n      pop\n    tag_358:\n      pop\n        /* \"libraries/AddressSetLib.sol\":1185:1225  address[] memory page = new address[](n) */\n      swap1\n      pop\n        /* \"libraries/AddressSetLib.sol\":1240:1249  uint256 i */\n      0x00\n        /* \"libraries/AddressSetLib.sol\":1235:1321  for (uint256 i; i < n; i++) {... */\n    tag_359:\n        /* \"libraries/AddressSetLib.sol\":1255:1256  n */\n      dup3\n        /* \"libraries/AddressSetLib.sol\":1251:1252  i */\n      dup2\n        /* \"libraries/AddressSetLib.sol\":1251:1256  i < n */\n      lt\n        /* \"libraries/AddressSetLib.sol\":1235:1321  for (uint256 i; i < n; i++) {... */\n      iszero\n      tag_360\n      jumpi\n        /* \"libraries/AddressSetLib.sol\":1287:1290  set */\n      dup8\n        /* \"libraries/AddressSetLib.sol\":1287:1299  set.elements */\n      0x00\n      add\n        /* \"libraries/AddressSetLib.sol\":1304:1309  index */\n      dup8\n        /* \"libraries/AddressSetLib.sol\":1300:1301  i */\n      dup3\n        /* \"libraries/AddressSetLib.sol\":1300:1309  i + index */\n      tag_362\n      swap2\n      swap1\n      tag_188\n      jump\t// in\n    tag_362:\n        /* \"libraries/AddressSetLib.sol\":1287:1310  set.elements[i + index] */\n      dup2\n      sload\n      dup2\n      lt\n      tag_363\n      jumpi\n      tag_364\n      tag_329\n      jump\t// in\n    tag_364:\n    tag_363:\n      swap1\n      0x00\n      mstore\n      keccak256(0x00, 0x20)\n      add\n      0x00\n      swap1\n      sload\n      swap1\n      0x0100\n      exp\n      swap1\n      div\n      0xffffffffffffffffffffffffffffffffffffffff\n      and\n        /* \"libraries/AddressSetLib.sol\":1277:1281  page */\n      dup3\n        /* \"libraries/AddressSetLib.sol\":1282:1283  i */\n      dup3\n        /* \"libraries/AddressSetLib.sol\":1277:1284  page[i] */\n      dup2\n      mload\n      dup2\n      lt\n      tag_366\n      jumpi\n      tag_367\n      tag_329\n      jump\t// in\n    tag_367:\n    tag_366:\n      0x20\n      mul\n      0x20\n      add\n      add\n        /* \"libraries/AddressSetLib.sol\":1277:1310  page[i] = set.elements[i + index] */\n      swap1\n      0xffffffffffffffffffffffffffffffffffffffff\n      and\n      swap1\n      dup2\n      0xffffffffffffffffffffffffffffffffffffffff\n      and\n      dup2\n      mstore\n      pop\n      pop\n        /* \"libraries/AddressSetLib.sol\":1258:1261  i++ */\n      dup1\n      dup1\n      tag_368\n      swap1\n      tag_369\n      jump\t// in\n    tag_368:\n      swap2\n      pop\n      pop\n        /* \"libraries/AddressSetLib.sol\":1235:1321  for (uint256 i; i < n; i++) {... */\n      jump(tag_359)\n    tag_360:\n      pop\n        /* \"libraries/AddressSetLib.sol\":1337:1341  page */\n      dup1\n        /* \"libraries/AddressSetLib.sol\":1330:1341  return page */\n      swap4\n      pop\n      pop\n      pop\n      pop\n        /* \"libraries/AddressSetLib.sol\":476:1348  function getPage(... */\n    tag_348:\n      swap4\n      swap3\n      pop\n      pop\n      pop\n      jump\t// out\n        /* \"libraries/AddressSetLib.sol\":1354:1624  function add(AddressSet storage set, address element) internal {... */\n    tag_298:\n        /* \"libraries/AddressSetLib.sol\":1487:1509  contains(set, element) */\n      tag_371\n        /* \"libraries/AddressSetLib.sol\":1496:1499  set */\n      dup3\n        /* \"libraries/AddressSetLib.sol\":1501:1508  element */\n      dup3\n        /* \"libraries/AddressSetLib.sol\":1487:1495  contains */\n      tag_215\n        /* \"libraries/AddressSetLib.sol\":1487:1509  contains(set, element) */\n      jump\t// in\n    tag_371:\n        /* \"libraries/AddressSetLib.sol\":1482:1618  if (!contains(set, element)) {... */\n      tag_372\n      jumpi\n        /* \"libraries/AddressSetLib.sol\":1548:1551  set */\n      dup2\n        /* \"libraries/AddressSetLib.sol\":1548:1560  set.elements */\n      0x00\n      add\n        /* \"libraries/AddressSetLib.sol\":1548:1567  set.elements.length */\n      dup1\n      sload\n      swap1\n      pop\n        /* \"libraries/AddressSetLib.sol\":1525:1528  set */\n      dup3\n        /* \"libraries/AddressSetLib.sol\":1525:1536  set.indices */\n      0x01\n      add\n        /* \"libraries/AddressSetLib.sol\":1525:1545  set.indices[element] */\n      0x00\n        /* \"libraries/AddressSetLib.sol\":1537:1544  element */\n      dup4\n        /* \"libraries/AddressSetLib.sol\":1525:1545  set.indices[element] */\n      0xffffffffffffffffffffffffffffffffffffffff\n      and\n      0xffffffffffffffffffffffffffffffffffffffff\n      and\n      dup2\n      mstore\n      0x20\n      add\n      swap1\n      dup2\n      mstore\n      0x20\n      add\n      0x00\n      keccak256\n        /* \"libraries/AddressSetLib.sol\":1525:1567  set.indices[element] = set.elements.length */\n      dup2\n      swap1\n      sstore\n      pop\n        /* \"libraries/AddressSetLib.sol\":1581:1584  set */\n      dup2\n        /* \"libraries/AddressSetLib.sol\":1581:1593  set.elements */\n      0x00\n      add\n        /* \"libraries/AddressSetLib.sol\":1599:1606  element */\n      dup2\n        /* \"libraries/AddressSetLib.sol\":1581:1607  set.elements.push(element) */\n      swap1\n      dup1\n      0x01\n      dup2\n      sload\n      add\n      dup1\n      dup3\n      sstore\n      dup1\n      swap2\n      pop\n      pop\n      0x01\n      swap1\n      sub\n      swap1\n      0x00\n      mstore\n      keccak256(0x00, 0x20)\n      add\n      0x00\n      swap1\n      swap2\n      swap1\n      swap2\n      swap1\n      swap2\n      0x0100\n      exp\n      dup2\n      sload\n      dup2\n      0xffffffffffffffffffffffffffffffffffffffff\n      mul\n      not\n      and\n      swap1\n      dup4\n      0xffffffffffffffffffffffffffffffffffffffff\n      and\n      mul\n      or\n      swap1\n      sstore\n      pop\n        /* \"libraries/AddressSetLib.sol\":1482:1618  if (!contains(set, element)) {... */\n    tag_372:\n        /* \"libraries/AddressSetLib.sol\":1354:1624  function add(AddressSet storage set, address element) internal {... */\n      pop\n      pop\n      jump\t// out\n        /* \"#utility.yul\":7:84   */\n    tag_374:\n        /* \"#utility.yul\":44:51   */\n      0x00\n        /* \"#utility.yul\":73:78   */\n      dup2\n        /* \"#utility.yul\":62:78   */\n      swap1\n      pop\n        /* \"#utility.yul\":7:84   */\n      swap2\n      swap1\n      pop\n      jump\t// out\n        /* \"#utility.yul\":90:208   */\n    tag_375:\n        /* \"#utility.yul\":177:201   */\n      tag_464\n        /* \"#utility.yul\":195:200   */\n      dup2\n        /* \"#utility.yul\":177:201   */\n      tag_374\n      jump\t// in\n    tag_464:\n        /* \"#utility.yul\":172:175   */\n      dup3\n        /* \"#utility.yul\":165:202   */\n      mstore\n        /* \"#utility.yul\":90:208   */\n      pop\n      pop\n      jump\t// out\n        /* \"#utility.yul\":214:436   */\n    tag_41:\n        /* \"#utility.yul\":307:311   */\n      0x00\n        /* \"#utility.yul\":345:347   */\n      0x20\n        /* \"#utility.yul\":334:343   */\n      dup3\n        /* \"#utility.yul\":330:348   */\n      add\n        /* \"#utility.yul\":322:348   */\n      swap1\n      pop\n        /* \"#utility.yul\":358:429   */\n      tag_466\n        /* \"#utility.yul\":426:427   */\n      0x00\n        /* \"#utility.yul\":415:424   */\n      dup4\n        /* \"#utility.yul\":411:428   */\n      add\n        /* \"#utility.yul\":402:408   */\n      dup5\n        /* \"#utility.yul\":358:429   */\n      tag_375\n      jump\t// in\n    tag_466:\n        /* \"#utility.yul\":214:436   */\n      swap3\n      swap2\n      pop\n      pop\n      jump\t// out\n        /* \"#utility.yul\":442:517   */\n    tag_376:\n        /* \"#utility.yul\":475:481   */\n      0x00\n        /* \"#utility.yul\":508:510   */\n      0x40\n        /* \"#utility.yul\":502:511   */\n      mload\n        /* \"#utility.yul\":492:511   */\n      swap1\n      pop\n        /* \"#utility.yul\":442:517   */\n      swap1\n      jump\t// out\n        /* \"#utility.yul\":523:640   */\n    tag_377:\n        /* \"#utility.yul\":632:633   */\n      0x00\n        /* \"#utility.yul\":629:630   */\n      dup1\n        /* \"#utility.yul\":622:634   */\n      revert\n        /* \"#utility.yul\":646:763   */\n    tag_378:\n        /* \"#utility.yul\":755:756   */\n      0x00\n        /* \"#utility.yul\":752:753   */\n      dup1\n        /* \"#utility.yul\":745:757   */\n      revert\n        /* \"#utility.yul\":769:895   */\n    tag_379:\n        /* \"#utility.yul\":806:813   */\n      0x00\n        /* \"#utility.yul\":846:888   */\n      0xffffffffffffffffffffffffffffffffffffffff\n        /* \"#utility.yul\":839:844   */\n      dup3\n        /* \"#utility.yul\":835:889   */\n      and\n        /* \"#utility.yul\":824:889   */\n      swap1\n      pop\n        /* \"#utility.yul\":769:895   */\n      swap2\n      swap1\n      pop\n      jump\t// out\n        /* \"#utility.yul\":901:997   */\n    tag_380:\n        /* \"#utility.yul\":938:945   */\n      0x00\n        /* \"#utility.yul\":967:991   */\n      tag_472\n        /* \"#utility.yul\":985:990   */\n      dup3\n        /* \"#utility.yul\":967:991   */\n      tag_379\n      jump\t// in\n    tag_472:\n        /* \"#utility.yul\":956:991   */\n      swap1\n      pop\n        /* \"#utility.yul\":901:997   */\n      swap2\n      swap1\n      pop\n      jump\t// out\n        /* \"#utility.yul\":1003:1125   */\n    tag_381:\n        /* \"#utility.yul\":1076:1100   */\n      tag_474\n        /* \"#utility.yul\":1094:1099   */\n      dup2\n        /* \"#utility.yul\":1076:1100   */\n      tag_380\n      jump\t// in\n    tag_474:\n        /* \"#utility.yul\":1069:1074   */\n      dup2\n        /* \"#utility.yul\":1066:1101   */\n      eq\n        /* \"#utility.yul\":1056:1119   */\n      tag_475\n      jumpi\n        /* \"#utility.yul\":1115:1116   */\n      0x00\n        /* \"#utility.yul\":1112:1113   */\n      dup1\n        /* \"#utility.yul\":1105:1117   */\n      revert\n        /* \"#utility.yul\":1056:1119   */\n    tag_475:\n        /* \"#utility.yul\":1003:1125   */\n      pop\n      jump\t// out\n        /* \"#utility.yul\":1131:1270   */\n    tag_382:\n        /* \"#utility.yul\":1177:1182   */\n      0x00\n        /* \"#utility.yul\":1215:1221   */\n      dup2\n        /* \"#utility.yul\":1202:1222   */\n      calldataload\n        /* \"#utility.yul\":1193:1222   */\n      swap1\n      pop\n        /* \"#utility.yul\":1231:1264   */\n      tag_477\n        /* \"#utility.yul\":1258:1263   */\n      dup2\n        /* \"#utility.yul\":1231:1264   */\n      tag_381\n      jump\t// in\n    tag_477:\n        /* \"#utility.yul\":1131:1270   */\n      swap3\n      swap2\n      pop\n      pop\n      jump\t// out\n        /* \"#utility.yul\":1276:1605   */\n    tag_44:\n        /* \"#utility.yul\":1335:1341   */\n      0x00\n        /* \"#utility.yul\":1384:1386   */\n      0x20\n        /* \"#utility.yul\":1372:1381   */\n      dup3\n        /* \"#utility.yul\":1363:1370   */\n      dup5\n        /* \"#utility.yul\":1359:1382   */\n      sub\n        /* \"#utility.yul\":1355:1387   */\n      slt\n        /* \"#utility.yul\":1352:1471   */\n      iszero\n      tag_479\n      jumpi\n        /* \"#utility.yul\":1390:1469   */\n      tag_480\n      tag_377\n      jump\t// in\n    tag_480:\n        /* \"#utility.yul\":1352:1471   */\n    tag_479:\n        /* \"#utility.yul\":1510:1511   */\n      0x00\n        /* \"#utility.yul\":1535:1588   */\n      tag_481\n        /* \"#utility.yul\":1580:1587   */\n      dup5\n        /* \"#utility.yul\":1571:1577   */\n      dup3\n        /* \"#utility.yul\":1560:1569   */\n      dup6\n        /* \"#utility.yul\":1556:1578   */\n      add\n        /* \"#utility.yul\":1535:1588   */\n      tag_382\n      jump\t// in\n    tag_481:\n        /* \"#utility.yul\":1525:1588   */\n      swap2\n      pop\n        /* \"#utility.yul\":1481:1598   */\n      pop\n        /* \"#utility.yul\":1276:1605   */\n      swap3\n      swap2\n      pop\n      pop\n      jump\t// out\n        /* \"#utility.yul\":1611:2053   */\n    tag_47:\n        /* \"#utility.yul\":1760:1764   */\n      0x00\n        /* \"#utility.yul\":1798:1800   */\n      0x60\n        /* \"#utility.yul\":1787:1796   */\n      dup3\n        /* \"#utility.yul\":1783:1801   */\n      add\n        /* \"#utility.yul\":1775:1801   */\n      swap1\n      pop\n        /* \"#utility.yul\":1811:1882   */\n      tag_483\n        /* \"#utility.yul\":1879:1880   */\n      0x00\n        /* \"#utility.yul\":1868:1877   */\n      dup4\n        /* \"#utility.yul\":1864:1881   */\n      add\n        /* \"#utility.yul\":1855:1861   */\n      dup7\n        /* \"#utility.yul\":1811:1882   */\n      tag_375\n      jump\t// in\n    tag_483:\n        /* \"#utility.yul\":1892:1964   */\n      tag_484\n        /* \"#utility.yul\":1960:1962   */\n      0x20\n        /* \"#utility.yul\":1949:1958   */\n      dup4\n        /* \"#utility.yul\":1945:1963   */\n      add\n        /* \"#utility.yul\":1936:1942   */\n      dup6\n        /* \"#utility.yul\":1892:1964   */\n      tag_375\n      jump\t// in\n    tag_484:\n        /* \"#utility.yul\":1974:2046   */\n      tag_485\n        /* \"#utility.yul\":2042:2044   */\n      0x40\n        /* \"#utility.yul\":2031:2040   */\n      dup4\n        /* \"#utility.yul\":2027:2045   */\n      add\n        /* \"#utility.yul\":2018:2024   */\n      dup5\n        /* \"#utility.yul\":1974:2046   */\n      tag_375\n      jump\t// in\n    tag_485:\n        /* \"#utility.yul\":1611:2053   */\n      swap5\n      swap4\n      pop\n      pop\n      pop\n      pop\n      jump\t// out\n        /* \"#utility.yul\":2059:2181   */\n    tag_383:\n        /* \"#utility.yul\":2132:2156   */\n      tag_487\n        /* \"#utility.yul\":2150:2155   */\n      dup2\n        /* \"#utility.yul\":2132:2156   */\n      tag_374\n      jump\t// in\n    tag_487:\n        /* \"#utility.yul\":2125:2130   */\n      dup2\n        /* \"#utility.yul\":2122:2157   */\n      eq\n        /* \"#utility.yul\":2112:2175   */\n      tag_488\n      jumpi\n        /* \"#utility.yul\":2171:2172   */\n      0x00\n        /* \"#utility.yul\":2168:2169   */\n      dup1\n        /* \"#utility.yul\":2161:2173   */\n      revert\n        /* \"#utility.yul\":2112:2175   */\n    tag_488:\n        /* \"#utility.yul\":2059:2181   */\n      pop\n      jump\t// out\n        /* \"#utility.yul\":2187:2326   */\n    tag_384:\n        /* \"#utility.yul\":2233:2238   */\n      0x00\n        /* \"#utility.yul\":2271:2277   */\n      dup2\n        /* \"#utility.yul\":2258:2278   */\n      calldataload\n        /* \"#utility.yul\":2249:2278   */\n      swap1\n      pop\n        /* \"#utility.yul\":2287:2320   */\n      tag_490\n        /* \"#utility.yul\":2314:2319   */\n      dup2\n        /* \"#utility.yul\":2287:2320   */\n      tag_383\n      jump\t// in\n    tag_490:\n        /* \"#utility.yul\":2187:2326   */\n      swap3\n      swap2\n      pop\n      pop\n      jump\t// out\n        /* \"#utility.yul\":2332:2418   */\n    tag_385:\n        /* \"#utility.yul\":2367:2374   */\n      0x00\n        /* \"#utility.yul\":2407:2411   */\n      0xff\n        /* \"#utility.yul\":2400:2405   */\n      dup3\n        /* \"#utility.yul\":2396:2412   */\n      and\n        /* \"#utility.yul\":2385:2412   */\n      swap1\n      pop\n        /* \"#utility.yul\":2332:2418   */\n      swap2\n      swap1\n      pop\n      jump\t// out\n        /* \"#utility.yul\":2424:2542   */\n    tag_386:\n        /* \"#utility.yul\":2495:2517   */\n      tag_493\n        /* \"#utility.yul\":2511:2516   */\n      dup2\n        /* \"#utility.yul\":2495:2517   */\n      tag_385\n      jump\t// in\n    tag_493:\n        /* \"#utility.yul\":2488:2493   */\n      dup2\n        /* \"#utility.yul\":2485:2518   */\n      eq\n        /* \"#utility.yul\":2475:2536   */\n      tag_494\n      jumpi\n        /* \"#utility.yul\":2532:2533   */\n      0x00\n        /* \"#utility.yul\":2529:2530   */\n      dup1\n        /* \"#utility.yul\":2522:2534   */\n      revert\n        /* \"#utility.yul\":2475:2536   */\n    tag_494:\n        /* \"#utility.yul\":2424:2542   */\n      pop\n      jump\t// out\n        /* \"#utility.yul\":2548:2683   */\n    tag_387:\n        /* \"#utility.yul\":2592:2597   */\n      0x00\n        /* \"#utility.yul\":2630:2636   */\n      dup2\n        /* \"#utility.yul\":2617:2637   */\n      calldataload\n        /* \"#utility.yul\":2608:2637   */\n      swap1\n      pop\n        /* \"#utility.yul\":2646:2677   */\n      tag_496\n        /* \"#utility.yul\":2671:2676   */\n      dup2\n        /* \"#utility.yul\":2646:2677   */\n      tag_386\n      jump\t// in\n    tag_496:\n        /* \"#utility.yul\":2548:2683   */\n      swap3\n      swap2\n      pop\n      pop\n      jump\t// out\n        /* \"#utility.yul\":2689:3159   */\n    tag_50:\n        /* \"#utility.yul\":2755:2761   */\n      0x00\n        /* \"#utility.yul\":2763:2769   */\n      dup1\n        /* \"#utility.yul\":2812:2814   */\n      0x40\n        /* \"#utility.yul\":2800:2809   */\n      dup4\n        /* \"#utility.yul\":2791:2798   */\n      dup6\n        /* \"#utility.yul\":2787:2810   */\n      sub\n        /* \"#utility.yul\":2783:2815   */\n      slt\n        /* \"#utility.yul\":2780:2899   */\n      iszero\n      tag_498\n      jumpi\n        /* \"#utility.yul\":2818:2897   */\n      tag_499\n      tag_377\n      jump\t// in\n    tag_499:\n        /* \"#utility.yul\":2780:2899   */\n    tag_498:\n        /* \"#utility.yul\":2938:2939   */\n      0x00\n        /* \"#utility.yul\":2963:3016   */\n      tag_500\n        /* \"#utility.yul\":3008:3015   */\n      dup6\n        /* \"#utility.yul\":2999:3005   */\n      dup3\n        /* \"#utility.yul\":2988:2997   */\n      dup7\n        /* \"#utility.yul\":2984:3006   */\n      add\n        /* \"#utility.yul\":2963:3016   */\n      tag_384\n      jump\t// in\n    tag_500:\n        /* \"#utility.yul\":2953:3016   */\n      swap3\n      pop\n        /* \"#utility.yul\":2909:3026   */\n      pop\n        /* \"#utility.yul\":3065:3067   */\n      0x20\n        /* \"#utility.yul\":3091:3142   */\n      tag_501\n        /* \"#utility.yul\":3134:3141   */\n      dup6\n        /* \"#utility.yul\":3125:3131   */\n      dup3\n        /* \"#utility.yul\":3114:3123   */\n      dup7\n        /* \"#utility.yul\":3110:3132   */\n      add\n        /* \"#utility.yul\":3091:3142   */\n      tag_387\n      jump\t// in\n    tag_501:\n        /* \"#utility.yul\":3081:3142   */\n      swap2\n      pop\n        /* \"#utility.yul\":3036:3152   */\n      pop\n        /* \"#utility.yul\":2689:3159   */\n      swap3\n      pop\n      swap3\n      swap1\n      pop\n      jump\t// out\n        /* \"#utility.yul\":3165:3283   */\n    tag_388:\n        /* \"#utility.yul\":3252:3276   */\n      tag_503\n        /* \"#utility.yul\":3270:3275   */\n      dup2\n        /* \"#utility.yul\":3252:3276   */\n      tag_380\n      jump\t// in\n    tag_503:\n        /* \"#utility.yul\":3247:3250   */\n      dup3\n        /* \"#utility.yul\":3240:3277   */\n      mstore\n        /* \"#utility.yul\":3165:3283   */\n      pop\n      pop\n      jump\t// out\n        /* \"#utility.yul\":3289:3511   */\n    tag_55:\n        /* \"#utility.yul\":3382:3386   */\n      0x00\n        /* \"#utility.yul\":3420:3422   */\n      0x20\n        /* \"#utility.yul\":3409:3418   */\n      dup3\n        /* \"#utility.yul\":3405:3423   */\n      add\n        /* \"#utility.yul\":3397:3423   */\n      swap1\n      pop\n        /* \"#utility.yul\":3433:3504   */\n      tag_505\n        /* \"#utility.yul\":3501:3502   */\n      0x00\n        /* \"#utility.yul\":3490:3499   */\n      dup4\n        /* \"#utility.yul\":3486:3503   */\n      add\n        /* \"#utility.yul\":3477:3483   */\n      dup5\n        /* \"#utility.yul\":3433:3504   */\n      tag_388\n      jump\t// in\n    tag_505:\n        /* \"#utility.yul\":3289:3511   */\n      swap3\n      swap2\n      pop\n      pop\n      jump\t// out\n        /* \"#utility.yul\":3517:3991   */\n    tag_65:\n        /* \"#utility.yul\":3585:3591   */\n      0x00\n        /* \"#utility.yul\":3593:3599   */\n      dup1\n        /* \"#utility.yul\":3642:3644   */\n      0x40\n        /* \"#utility.yul\":3630:3639   */\n      dup4\n        /* \"#utility.yul\":3621:3628   */\n      dup6\n        /* \"#utility.yul\":3617:3640   */\n      sub\n        /* \"#utility.yul\":3613:3645   */\n      slt\n        /* \"#utility.yul\":3610:3729   */\n      iszero\n      tag_507\n      jumpi\n        /* \"#utility.yul\":3648:3727   */\n      tag_508\n      tag_377\n      jump\t// in\n    tag_508:\n        /* \"#utility.yul\":3610:3729   */\n    tag_507:\n        /* \"#utility.yul\":3768:3769   */\n      0x00\n        /* \"#utility.yul\":3793:3846   */\n      tag_509\n        /* \"#utility.yul\":3838:3845   */\n      dup6\n        /* \"#utility.yul\":3829:3835   */\n      dup3\n        /* \"#utility.yul\":3818:3827   */\n      dup7\n        /* \"#utility.yul\":3814:3836   */\n      add\n        /* \"#utility.yul\":3793:3846   */\n      tag_384\n      jump\t// in\n    tag_509:\n        /* \"#utility.yul\":3783:3846   */\n      swap3\n      pop\n        /* \"#utility.yul\":3739:3856   */\n      pop\n        /* \"#utility.yul\":3895:3897   */\n      0x20\n        /* \"#utility.yul\":3921:3974   */\n      tag_510\n        /* \"#utility.yul\":3966:3973   */\n      dup6\n        /* \"#utility.yul\":3957:3963   */\n      dup3\n        /* \"#utility.yul\":3946:3955   */\n      dup7\n        /* \"#utility.yul\":3942:3964   */\n      add\n        /* \"#utility.yul\":3921:3974   */\n      tag_384\n      jump\t// in\n    tag_510:\n        /* \"#utility.yul\":3911:3974   */\n      swap2\n      pop\n        /* \"#utility.yul\":3866:3984   */\n      pop\n        /* \"#utility.yul\":3517:3991   */\n      swap3\n      pop\n      swap3\n      swap1\n      pop\n      jump\t// out\n        /* \"#utility.yul\":3997:4111   */\n    tag_389:\n        /* \"#utility.yul\":4064:4070   */\n      0x00\n        /* \"#utility.yul\":4098:4103   */\n      dup2\n        /* \"#utility.yul\":4092:4104   */\n      mload\n        /* \"#utility.yul\":4082:4104   */\n      swap1\n      pop\n        /* \"#utility.yul\":3997:4111   */\n      swap2\n      swap1\n      pop\n      jump\t// out\n        /* \"#utility.yul\":4117:4301   */\n    tag_390:\n        /* \"#utility.yul\":4216:4227   */\n      0x00\n        /* \"#utility.yul\":4250:4256   */\n      dup3\n        /* \"#utility.yul\":4245:4248   */\n      dup3\n        /* \"#utility.yul\":4238:4257   */\n      mstore\n        /* \"#utility.yul\":4290:4294   */\n      0x20\n        /* \"#utility.yul\":4285:4288   */\n      dup3\n        /* \"#utility.yul\":4281:4295   */\n      add\n        /* \"#utility.yul\":4266:4295   */\n      swap1\n      pop\n        /* \"#utility.yul\":4117:4301   */\n      swap3\n      swap2\n      pop\n      pop\n      jump\t// out\n        /* \"#utility.yul\":4307:4439   */\n    tag_391:\n        /* \"#utility.yul\":4374:4378   */\n      0x00\n        /* \"#utility.yul\":4397:4400   */\n      dup2\n        /* \"#utility.yul\":4389:4400   */\n      swap1\n      pop\n        /* \"#utility.yul\":4427:4431   */\n      0x20\n        /* \"#utility.yul\":4422:4425   */\n      dup3\n        /* \"#utility.yul\":4418:4432   */\n      add\n        /* \"#utility.yul\":4410:4432   */\n      swap1\n      pop\n        /* \"#utility.yul\":4307:4439   */\n      swap2\n      swap1\n      pop\n      jump\t// out\n        /* \"#utility.yul\":4445:4553   */\n    tag_392:\n        /* \"#utility.yul\":4522:4546   */\n      tag_515\n        /* \"#utility.yul\":4540:4545   */\n      dup2\n        /* \"#utility.yul\":4522:4546   */\n      tag_380\n      jump\t// in\n    tag_515:\n        /* \"#utility.yul\":4517:4520   */\n      dup3\n        /* \"#utility.yul\":4510:4547   */\n      mstore\n        /* \"#utility.yul\":4445:4553   */\n      pop\n      pop\n      jump\t// out\n        /* \"#utility.yul\":4559:4738   */\n    tag_393:\n        /* \"#utility.yul\":4628:4638   */\n      0x00\n        /* \"#utility.yul\":4649:4695   */\n      tag_517\n        /* \"#utility.yul\":4691:4694   */\n      dup4\n        /* \"#utility.yul\":4683:4689   */\n      dup4\n        /* \"#utility.yul\":4649:4695   */\n      tag_392\n      jump\t// in\n    tag_517:\n        /* \"#utility.yul\":4727:4731   */\n      0x20\n        /* \"#utility.yul\":4722:4725   */\n      dup4\n        /* \"#utility.yul\":4718:4732   */\n      add\n        /* \"#utility.yul\":4704:4732   */\n      swap1\n      pop\n        /* \"#utility.yul\":4559:4738   */\n      swap3\n      swap2\n      pop\n      pop\n      jump\t// out\n        /* \"#utility.yul\":4744:4857   */\n    tag_394:\n        /* \"#utility.yul\":4814:4818   */\n      0x00\n        /* \"#utility.yul\":4846:4850   */\n      0x20\n        /* \"#utility.yul\":4841:4844   */\n      dup3\n        /* \"#utility.yul\":4837:4851   */\n      add\n        /* \"#utility.yul\":4829:4851   */\n      swap1\n      pop\n        /* \"#utility.yul\":4744:4857   */\n      swap2\n      swap1\n      pop\n      jump\t// out\n        /* \"#utility.yul\":4893:5625   */\n    tag_395:\n        /* \"#utility.yul\":5012:5015   */\n      0x00\n        /* \"#utility.yul\":5041:5095   */\n      tag_520\n        /* \"#utility.yul\":5089:5094   */\n      dup3\n        /* \"#utility.yul\":5041:5095   */\n      tag_389\n      jump\t// in\n    tag_520:\n        /* \"#utility.yul\":5111:5197   */\n      tag_521\n        /* \"#utility.yul\":5190:5196   */\n      dup2\n        /* \"#utility.yul\":5185:5188   */\n      dup6\n        /* \"#utility.yul\":5111:5197   */\n      tag_390\n      jump\t// in\n    tag_521:\n        /* \"#utility.yul\":5104:5197   */\n      swap4\n      pop\n        /* \"#utility.yul\":5221:5277   */\n      tag_522\n        /* \"#utility.yul\":5271:5276   */\n      dup4\n        /* \"#utility.yul\":5221:5277   */\n      tag_391\n      jump\t// in\n    tag_522:\n        /* \"#utility.yul\":5300:5307   */\n      dup1\n        /* \"#utility.yul\":5331:5332   */\n      0x00\n        /* \"#utility.yul\":5316:5600   */\n    tag_523:\n        /* \"#utility.yul\":5341:5347   */\n      dup4\n        /* \"#utility.yul\":5338:5339   */\n      dup2\n        /* \"#utility.yul\":5335:5348   */\n      lt\n        /* \"#utility.yul\":5316:5600   */\n      iszero\n      tag_525\n      jumpi\n        /* \"#utility.yul\":5417:5423   */\n      dup2\n        /* \"#utility.yul\":5411:5424   */\n      mload\n        /* \"#utility.yul\":5444:5507   */\n      tag_526\n        /* \"#utility.yul\":5503:5506   */\n      dup9\n        /* \"#utility.yul\":5488:5501   */\n      dup3\n        /* \"#utility.yul\":5444:5507   */\n      tag_393\n      jump\t// in\n    tag_526:\n        /* \"#utility.yul\":5437:5507   */\n      swap8\n      pop\n        /* \"#utility.yul\":5530:5590   */\n      tag_527\n        /* \"#utility.yul\":5583:5589   */\n      dup4\n        /* \"#utility.yul\":5530:5590   */\n      tag_394\n      jump\t// in\n    tag_527:\n        /* \"#utility.yul\":5520:5590   */\n      swap3\n      pop\n        /* \"#utility.yul\":5376:5600   */\n      pop\n        /* \"#utility.yul\":5363:5364   */\n      0x01\n        /* \"#utility.yul\":5360:5361   */\n      dup2\n        /* \"#utility.yul\":5356:5365   */\n      add\n        /* \"#utility.yul\":5351:5365   */\n      swap1\n      pop\n        /* \"#utility.yul\":5316:5600   */\n      jump(tag_523)\n    tag_525:\n        /* \"#utility.yul\":5320:5334   */\n      pop\n        /* \"#utility.yul\":5616:5619   */\n      dup6\n        /* \"#utility.yul\":5609:5619   */\n      swap4\n      pop\n        /* \"#utility.yul\":5017:5625   */\n      pop\n      pop\n      pop\n        /* \"#utility.yul\":4893:5625   */\n      swap3\n      swap2\n      pop\n      pop\n      jump\t// out\n        /* \"#utility.yul\":5631:6004   */\n    tag_75:\n        /* \"#utility.yul\":5774:5778   */\n      0x00\n        /* \"#utility.yul\":5812:5814   */\n      0x20\n        /* \"#utility.yul\":5801:5810   */\n      dup3\n        /* \"#utility.yul\":5797:5815   */\n      add\n        /* \"#utility.yul\":5789:5815   */\n      swap1\n      pop\n        /* \"#utility.yul\":5861:5870   */\n      dup2\n        /* \"#utility.yul\":5855:5859   */\n      dup2\n        /* \"#utility.yul\":5851:5871   */\n      sub\n        /* \"#utility.yul\":5847:5848   */\n      0x00\n        /* \"#utility.yul\":5836:5845   */\n      dup4\n        /* \"#utility.yul\":5832:5849   */\n      add\n        /* \"#utility.yul\":5825:5872   */\n      mstore\n        /* \"#utility.yul\":5889:5997   */\n      tag_529\n        /* \"#utility.yul\":5992:5996   */\n      dup2\n        /* \"#utility.yul\":5983:5989   */\n      dup5\n        /* \"#utility.yul\":5889:5997   */\n      tag_395\n      jump\t// in\n    tag_529:\n        /* \"#utility.yul\":5881:5997   */\n      swap1\n      pop\n        /* \"#utility.yul\":5631:6004   */\n      swap3\n      swap2\n      pop\n      pop\n      jump\t// out\n        /* \"#utility.yul\":6010:6342   */\n    tag_80:\n        /* \"#utility.yul\":6131:6135   */\n      0x00\n        /* \"#utility.yul\":6169:6171   */\n      0x40\n        /* \"#utility.yul\":6158:6167   */\n      dup3\n        /* \"#utility.yul\":6154:6172   */\n      add\n        /* \"#utility.yul\":6146:6172   */\n      swap1\n      pop\n        /* \"#utility.yul\":6182:6253   */\n      tag_531\n        /* \"#utility.yul\":6250:6251   */\n      0x00\n        /* \"#utility.yul\":6239:6248   */\n      dup4\n        /* \"#utility.yul\":6235:6252   */\n      add\n        /* \"#utility.yul\":6226:6232   */\n      dup6\n        /* \"#utility.yul\":6182:6253   */\n      tag_375\n      jump\t// in\n    tag_531:\n        /* \"#utility.yul\":6263:6335   */\n      tag_532\n        /* \"#utility.yul\":6331:6333   */\n      0x20\n        /* \"#utility.yul\":6320:6329   */\n      dup4\n        /* \"#utility.yul\":6316:6334   */\n      add\n        /* \"#utility.yul\":6307:6313   */\n      dup5\n        /* \"#utility.yul\":6263:6335   */\n      tag_375\n      jump\t// in\n    tag_532:\n        /* \"#utility.yul\":6010:6342   */\n      swap4\n      swap3\n      pop\n      pop\n      pop\n      jump\t// out\n        /* \"#utility.yul\":6348:6438   */\n    tag_396:\n        /* \"#utility.yul\":6382:6389   */\n      0x00\n        /* \"#utility.yul\":6425:6430   */\n      dup2\n        /* \"#utility.yul\":6418:6431   */\n      iszero\n        /* \"#utility.yul\":6411:6432   */\n      iszero\n        /* \"#utility.yul\":6400:6432   */\n      swap1\n      pop\n        /* \"#utility.yul\":6348:6438   */\n      swap2\n      swap1\n      pop\n      jump\t// out\n        /* \"#utility.yul\":6444:6553   */\n    tag_397:\n        /* \"#utility.yul\":6525:6546   */\n      tag_535\n        /* \"#utility.yul\":6540:6545   */\n      dup2\n        /* \"#utility.yul\":6525:6546   */\n      tag_396\n      jump\t// in\n    tag_535:\n        /* \"#utility.yul\":6520:6523   */\n      dup3\n        /* \"#utility.yul\":6513:6547   */\n      mstore\n        /* \"#utility.yul\":6444:6553   */\n      pop\n      pop\n      jump\t// out\n        /* \"#utility.yul\":6559:6769   */\n    tag_90:\n        /* \"#utility.yul\":6646:6650   */\n      0x00\n        /* \"#utility.yul\":6684:6686   */\n      0x20\n        /* \"#utility.yul\":6673:6682   */\n      dup3\n        /* \"#utility.yul\":6669:6687   */\n      add\n        /* \"#utility.yul\":6661:6687   */\n      swap1\n      pop\n        /* \"#utility.yul\":6697:6762   */\n      tag_537\n        /* \"#utility.yul\":6759:6760   */\n      0x00\n        /* \"#utility.yul\":6748:6757   */\n      dup4\n        /* \"#utility.yul\":6744:6761   */\n      add\n        /* \"#utility.yul\":6735:6741   */\n      dup5\n        /* \"#utility.yul\":6697:6762   */\n      tag_397\n      jump\t// in\n    tag_537:\n        /* \"#utility.yul\":6559:6769   */\n      swap3\n      swap2\n      pop\n      pop\n      jump\t// out\n        /* \"#utility.yul\":6775:7249   */\n    tag_106:\n        /* \"#utility.yul\":6843:6849   */\n      0x00\n        /* \"#utility.yul\":6851:6857   */\n      dup1\n        /* \"#utility.yul\":6900:6902   */\n      0x40\n        /* \"#utility.yul\":6888:6897   */\n      dup4\n        /* \"#utility.yul\":6879:6886   */\n      dup6\n        /* \"#utility.yul\":6875:6898   */\n      sub\n        /* \"#utility.yul\":6871:6903   */\n      slt\n        /* \"#utility.yul\":6868:6987   */\n      iszero\n      tag_539\n      jumpi\n        /* \"#utility.yul\":6906:6985   */\n      tag_540\n      tag_377\n      jump\t// in\n    tag_540:\n        /* \"#utility.yul\":6868:6987   */\n    tag_539:\n        /* \"#utility.yul\":7026:7027   */\n      0x00\n        /* \"#utility.yul\":7051:7104   */\n      tag_541\n        /* \"#utility.yul\":7096:7103   */\n      dup6\n        /* \"#utility.yul\":7087:7093   */\n      dup3\n        /* \"#utility.yul\":7076:7085   */\n      dup7\n        /* \"#utility.yul\":7072:7094   */\n      add\n        /* \"#utility.yul\":7051:7104   */\n      tag_382\n      jump\t// in\n    tag_541:\n        /* \"#utility.yul\":7041:7104   */\n      swap3\n      pop\n        /* \"#utility.yul\":6997:7114   */\n      pop\n        /* \"#utility.yul\":7153:7155   */\n      0x20\n        /* \"#utility.yul\":7179:7232   */\n      tag_542\n        /* \"#utility.yul\":7224:7231   */\n      dup6\n        /* \"#utility.yul\":7215:7221   */\n      dup3\n        /* \"#utility.yul\":7204:7213   */\n      dup7\n        /* \"#utility.yul\":7200:7222   */\n      add\n        /* \"#utility.yul\":7179:7232   */\n      tag_384\n      jump\t// in\n    tag_542:\n        /* \"#utility.yul\":7169:7232   */\n      swap2\n      pop\n        /* \"#utility.yul\":7124:7242   */\n      pop\n        /* \"#utility.yul\":6775:7249   */\n      swap3\n      pop\n      swap3\n      swap1\n      pop\n      jump\t// out\n        /* \"#utility.yul\":7255:7372   */\n    tag_398:\n        /* \"#utility.yul\":7364:7365   */\n      0x00\n        /* \"#utility.yul\":7361:7362   */\n      dup1\n        /* \"#utility.yul\":7354:7366   */\n      revert\n        /* \"#utility.yul\":7378:7495   */\n    tag_399:\n        /* \"#utility.yul\":7487:7488   */\n      0x00\n        /* \"#utility.yul\":7484:7485   */\n      dup1\n        /* \"#utility.yul\":7477:7489   */\n      revert\n        /* \"#utility.yul\":7501:7603   */\n    tag_400:\n        /* \"#utility.yul\":7542:7548   */\n      0x00\n        /* \"#utility.yul\":7593:7595   */\n      0x1f\n        /* \"#utility.yul\":7589:7596   */\n      not\n        /* \"#utility.yul\":7584:7586   */\n      0x1f\n        /* \"#utility.yul\":7577:7582   */\n      dup4\n        /* \"#utility.yul\":7573:7587   */\n      add\n        /* \"#utility.yul\":7569:7597   */\n      and\n        /* \"#utility.yul\":7559:7597   */\n      swap1\n      pop\n        /* \"#utility.yul\":7501:7603   */\n      swap2\n      swap1\n      pop\n      jump\t// out\n        /* \"#utility.yul\":7609:7789   */\n    tag_202:\n        /* \"#utility.yul\":7657:7734   */\n      0x4e487b7100000000000000000000000000000000000000000000000000000000\n        /* \"#utility.yul\":7654:7655   */\n      0x00\n        /* \"#utility.yul\":7647:7735   */\n      mstore\n        /* \"#utility.yul\":7754:7758   */\n      0x41\n        /* \"#utility.yul\":7751:7752   */\n      0x04\n        /* \"#utility.yul\":7744:7759   */\n      mstore\n        /* \"#utility.yul\":7778:7782   */\n      0x24\n        /* \"#utility.yul\":7775:7776   */\n      0x00\n        /* \"#utility.yul\":7768:7783   */\n      revert\n        /* \"#utility.yul\":7795:8076   */\n    tag_401:\n        /* \"#utility.yul\":7878:7905   */\n      tag_548\n        /* \"#utility.yul\":7900:7904   */\n      dup3\n        /* \"#utility.yul\":7878:7905   */\n      tag_400\n      jump\t// in\n    tag_548:\n        /* \"#utility.yul\":7870:7876   */\n      dup2\n        /* \"#utility.yul\":7866:7906   */\n      add\n        /* \"#utility.yul\":8008:8014   */\n      dup2\n        /* \"#utility.yul\":7996:8006   */\n      dup2\n        /* \"#utility.yul\":7993:8015   */\n      lt\n        /* \"#utility.yul\":7972:7990   */\n      0xffffffffffffffff\n        /* \"#utility.yul\":7960:7970   */\n      dup3\n        /* \"#utility.yul\":7957:7991   */\n      gt\n        /* \"#utility.yul\":7954:8016   */\n      or\n        /* \"#utility.yul\":7951:8039   */\n      iszero\n      tag_549\n      jumpi\n        /* \"#utility.yul\":8019:8037   */\n      tag_550\n      tag_202\n      jump\t// in\n    tag_550:\n        /* \"#utility.yul\":7951:8039   */\n    tag_549:\n        /* \"#utility.yul\":8059:8069   */\n      dup1\n        /* \"#utility.yul\":8055:8057   */\n      0x40\n        /* \"#utility.yul\":8048:8070   */\n      mstore\n        /* \"#utility.yul\":7838:8076   */\n      pop\n        /* \"#utility.yul\":7795:8076   */\n      pop\n      pop\n      jump\t// out\n        /* \"#utility.yul\":8082:8211   */\n    tag_402:\n        /* \"#utility.yul\":8116:8122   */\n      0x00\n        /* \"#utility.yul\":8143:8163   */\n      tag_552\n      tag_376\n      jump\t// in\n    tag_552:\n        /* \"#utility.yul\":8133:8163   */\n      swap1\n      pop\n        /* \"#utility.yul\":8172:8205   */\n      tag_553\n        /* \"#utility.yul\":8200:8204   */\n      dup3\n        /* \"#utility.yul\":8192:8198   */\n      dup3\n        /* \"#utility.yul\":8172:8205   */\n      tag_401\n      jump\t// in\n    tag_553:\n        /* \"#utility.yul\":8082:8211   */\n      swap2\n      swap1\n      pop\n      jump\t// out\n        /* \"#utility.yul\":8217:8524   */\n    tag_403:\n        /* \"#utility.yul\":8278:8282   */\n      0x00\n        /* \"#utility.yul\":8368:8386   */\n      0xffffffffffffffff\n        /* \"#utility.yul\":8360:8366   */\n      dup3\n        /* \"#utility.yul\":8357:8387   */\n      gt\n        /* \"#utility.yul\":8354:8410   */\n      iszero\n      tag_555\n      jumpi\n        /* \"#utility.yul\":8390:8408   */\n      tag_556\n      tag_202\n      jump\t// in\n    tag_556:\n        /* \"#utility.yul\":8354:8410   */\n    tag_555:\n        /* \"#utility.yul\":8428:8457   */\n      tag_557\n        /* \"#utility.yul\":8450:8456   */\n      dup3\n        /* \"#utility.yul\":8428:8457   */\n      tag_400\n      jump\t// in\n    tag_557:\n        /* \"#utility.yul\":8420:8457   */\n      swap1\n      pop\n        /* \"#utility.yul\":8512:8516   */\n      0x20\n        /* \"#utility.yul\":8506:8510   */\n      dup2\n        /* \"#utility.yul\":8502:8517   */\n      add\n        /* \"#utility.yul\":8494:8517   */\n      swap1\n      pop\n        /* \"#utility.yul\":8217:8524   */\n      swap2\n      swap1\n      pop\n      jump\t// out\n        /* \"#utility.yul\":8530:8676   */\n    tag_404:\n        /* \"#utility.yul\":8627:8633   */\n      dup3\n        /* \"#utility.yul\":8622:8625   */\n      dup2\n        /* \"#utility.yul\":8617:8620   */\n      dup4\n        /* \"#utility.yul\":8604:8634   */\n      calldatacopy\n        /* \"#utility.yul\":8668:8669   */\n      0x00\n        /* \"#utility.yul\":8659:8665   */\n      dup4\n        /* \"#utility.yul\":8654:8657   */\n      dup4\n        /* \"#utility.yul\":8650:8666   */\n      add\n        /* \"#utility.yul\":8643:8670   */\n      mstore\n        /* \"#utility.yul\":8530:8676   */\n      pop\n      pop\n      pop\n      jump\t// out\n        /* \"#utility.yul\":8682:9105   */\n    tag_405:\n        /* \"#utility.yul\":8759:8764   */\n      0x00\n        /* \"#utility.yul\":8784:8849   */\n      tag_560\n        /* \"#utility.yul\":8800:8848   */\n      tag_561\n        /* \"#utility.yul\":8841:8847   */\n      dup5\n        /* \"#utility.yul\":8800:8848   */\n      tag_403\n      jump\t// in\n    tag_561:\n        /* \"#utility.yul\":8784:8849   */\n      tag_402\n      jump\t// in\n    tag_560:\n        /* \"#utility.yul\":8775:8849   */\n      swap1\n      pop\n        /* \"#utility.yul\":8872:8878   */\n      dup3\n        /* \"#utility.yul\":8865:8870   */\n      dup2\n        /* \"#utility.yul\":8858:8879   */\n      mstore\n        /* \"#utility.yul\":8910:8914   */\n      0x20\n        /* \"#utility.yul\":8903:8908   */\n      dup2\n        /* \"#utility.yul\":8899:8915   */\n      add\n        /* \"#utility.yul\":8948:8951   */\n      dup5\n        /* \"#utility.yul\":8939:8945   */\n      dup5\n        /* \"#utility.yul\":8934:8937   */\n      dup5\n        /* \"#utility.yul\":8930:8946   */\n      add\n        /* \"#utility.yul\":8927:8952   */\n      gt\n        /* \"#utility.yul\":8924:9036   */\n      iszero\n      tag_562\n      jumpi\n        /* \"#utility.yul\":8955:9034   */\n      tag_563\n      tag_399\n      jump\t// in\n    tag_563:\n        /* \"#utility.yul\":8924:9036   */\n    tag_562:\n        /* \"#utility.yul\":9045:9099   */\n      tag_564\n        /* \"#utility.yul\":9092:9098   */\n      dup5\n        /* \"#utility.yul\":9087:9090   */\n      dup3\n        /* \"#utility.yul\":9082:9085   */\n      dup6\n        /* \"#utility.yul\":9045:9099   */\n      tag_404\n      jump\t// in\n    tag_564:\n        /* \"#utility.yul\":8765:9105   */\n      pop\n        /* \"#utility.yul\":8682:9105   */\n      swap4\n      swap3\n      pop\n      pop\n      pop\n      jump\t// out\n        /* \"#utility.yul\":9124:9462   */\n    tag_406:\n        /* \"#utility.yul\":9179:9184   */\n      0x00\n        /* \"#utility.yul\":9228:9231   */\n      dup3\n        /* \"#utility.yul\":9221:9225   */\n      0x1f\n        /* \"#utility.yul\":9213:9219   */\n      dup4\n        /* \"#utility.yul\":9209:9226   */\n      add\n        /* \"#utility.yul\":9205:9232   */\n      slt\n        /* \"#utility.yul\":9195:9317   */\n      tag_566\n      jumpi\n        /* \"#utility.yul\":9236:9315   */\n      tag_567\n      tag_398\n      jump\t// in\n    tag_567:\n        /* \"#utility.yul\":9195:9317   */\n    tag_566:\n        /* \"#utility.yul\":9353:9359   */\n      dup2\n        /* \"#utility.yul\":9340:9360   */\n      calldataload\n        /* \"#utility.yul\":9378:9456   */\n      tag_568\n        /* \"#utility.yul\":9452:9455   */\n      dup5\n        /* \"#utility.yul\":9444:9450   */\n      dup3\n        /* \"#utility.yul\":9437:9441   */\n      0x20\n        /* \"#utility.yul\":9429:9435   */\n      dup7\n        /* \"#utility.yul\":9425:9442   */\n      add\n        /* \"#utility.yul\":9378:9456   */\n      tag_405\n      jump\t// in\n    tag_568:\n        /* \"#utility.yul\":9369:9456   */\n      swap2\n      pop\n        /* \"#utility.yul\":9185:9462   */\n      pop\n        /* \"#utility.yul\":9124:9462   */\n      swap3\n      swap2\n      pop\n      pop\n      jump\t// out\n        /* \"#utility.yul\":9468:9975   */\n    tag_130:\n        /* \"#utility.yul\":9536:9542   */\n      0x00\n        /* \"#utility.yul\":9585:9587   */\n      0x20\n        /* \"#utility.yul\":9573:9582   */\n      dup3\n        /* \"#utility.yul\":9564:9571   */\n      dup5\n        /* \"#utility.yul\":9560:9583   */\n      sub\n        /* \"#utility.yul\":9556:9588   */\n      slt\n        /* \"#utility.yul\":9553:9672   */\n      iszero\n      tag_570\n      jumpi\n        /* \"#utility.yul\":9591:9670   */\n      tag_571\n      tag_377\n      jump\t// in\n    tag_571:\n        /* \"#utility.yul\":9553:9672   */\n    tag_570:\n        /* \"#utility.yul\":9739:9740   */\n      0x00\n        /* \"#utility.yul\":9728:9737   */\n      dup3\n        /* \"#utility.yul\":9724:9741   */\n      add\n        /* \"#utility.yul\":9711:9742   */\n      calldataload\n        /* \"#utility.yul\":9769:9787   */\n      0xffffffffffffffff\n        /* \"#utility.yul\":9761:9767   */\n      dup2\n        /* \"#utility.yul\":9758:9788   */\n      gt\n        /* \"#utility.yul\":9755:9872   */\n      iszero\n      tag_572\n      jumpi\n        /* \"#utility.yul\":9791:9870   */\n      tag_573\n      tag_378\n      jump\t// in\n    tag_573:\n        /* \"#utility.yul\":9755:9872   */\n    tag_572:\n        /* \"#utility.yul\":9896:9958   */\n      tag_574\n        /* \"#utility.yul\":9950:9957   */\n      dup5\n        /* \"#utility.yul\":9941:9947   */\n      dup3\n        /* \"#utility.yul\":9930:9939   */\n      dup6\n        /* \"#utility.yul\":9926:9948   */\n      add\n        /* \"#utility.yul\":9896:9958   */\n      tag_406\n      jump\t// in\n    tag_574:\n        /* \"#utility.yul\":9886:9958   */\n      swap2\n      pop\n        /* \"#utility.yul\":9682:9968   */\n      pop\n        /* \"#utility.yul\":9468:9975   */\n      swap3\n      swap2\n      pop\n      pop\n      jump\t// out\n        /* \"#utility.yul\":9981:10150   */\n    tag_407:\n        /* \"#utility.yul\":10065:10076   */\n      0x00\n        /* \"#utility.yul\":10099:10105   */\n      dup3\n        /* \"#utility.yul\":10094:10097   */\n      dup3\n        /* \"#utility.yul\":10087:10106   */\n      mstore\n        /* \"#utility.yul\":10139:10143   */\n      0x20\n        /* \"#utility.yul\":10134:10137   */\n      dup3\n        /* \"#utility.yul\":10130:10144   */\n      add\n        /* \"#utility.yul\":10115:10144   */\n      swap1\n      pop\n        /* \"#utility.yul\":9981:10150   */\n      swap3\n      swap2\n      pop\n      pop\n      jump\t// out\n        /* \"#utility.yul\":10156:10329   */\n    tag_408:\n        /* \"#utility.yul\":10296:10321   */\n      0x50656c6467653a20726f6c65206e6f7420657869737421000000000000000000\n        /* \"#utility.yul\":10292:10293   */\n      0x00\n        /* \"#utility.yul\":10284:10290   */\n      dup3\n        /* \"#utility.yul\":10280:10294   */\n      add\n        /* \"#utility.yul\":10273:10322   */\n      mstore\n        /* \"#utility.yul\":10156:10329   */\n      pop\n      jump\t// out\n        /* \"#utility.yul\":10335:10701   */\n    tag_409:\n        /* \"#utility.yul\":10477:10480   */\n      0x00\n        /* \"#utility.yul\":10498:10565   */\n      tag_578\n        /* \"#utility.yul\":10562:10564   */\n      0x17\n        /* \"#utility.yul\":10557:10560   */\n      dup4\n        /* \"#utility.yul\":10498:10565   */\n      tag_407\n      jump\t// in\n    tag_578:\n        /* \"#utility.yul\":10491:10565   */\n      swap2\n      pop\n        /* \"#utility.yul\":10574:10667   */\n      tag_579\n        /* \"#utility.yul\":10663:10666   */\n      dup3\n        /* \"#utility.yul\":10574:10667   */\n      tag_408\n      jump\t// in\n    tag_579:\n        /* \"#utility.yul\":10692:10694   */\n      0x20\n        /* \"#utility.yul\":10687:10690   */\n      dup3\n        /* \"#utility.yul\":10683:10695   */\n      add\n        /* \"#utility.yul\":10676:10695   */\n      swap1\n      pop\n        /* \"#utility.yul\":10335:10701   */\n      swap2\n      swap1\n      pop\n      jump\t// out\n        /* \"#utility.yul\":10707:11126   */\n    tag_148:\n        /* \"#utility.yul\":10873:10877   */\n      0x00\n        /* \"#utility.yul\":10911:10913   */\n      0x20\n        /* \"#utility.yul\":10900:10909   */\n      dup3\n        /* \"#utility.yul\":10896:10914   */\n      add\n        /* \"#utility.yul\":10888:10914   */\n      swap1\n      pop\n        /* \"#utility.yul\":10960:10969   */\n      dup2\n        /* \"#utility.yul\":10954:10958   */\n      dup2\n        /* \"#utility.yul\":10950:10970   */\n      sub\n        /* \"#utility.yul\":10946:10947   */\n      0x00\n        /* \"#utility.yul\":10935:10944   */\n      dup4\n        /* \"#utility.yul\":10931:10948   */\n      add\n        /* \"#utility.yul\":10924:10971   */\n      mstore\n        /* \"#utility.yul\":10988:11119   */\n      tag_581\n        /* \"#utility.yul\":11114:11118   */\n      dup2\n        /* \"#utility.yul\":10988:11119   */\n      tag_409\n      jump\t// in\n    tag_581:\n        /* \"#utility.yul\":10980:11119   */\n      swap1\n      pop\n        /* \"#utility.yul\":10707:11126   */\n      swap2\n      swap1\n      pop\n      jump\t// out\n        /* \"#utility.yul\":11132:11305   */\n    tag_410:\n        /* \"#utility.yul\":11272:11297   */\n      0x50656c6467653a20616c7265616479207374616b656421000000000000000000\n        /* \"#utility.yul\":11268:11269   */\n      0x00\n        /* \"#utility.yul\":11260:11266   */\n      dup3\n        /* \"#utility.yul\":11256:11270   */\n      add\n        /* \"#utility.yul\":11249:11298   */\n      mstore\n        /* \"#utility.yul\":11132:11305   */\n      pop\n      jump\t// out\n        /* \"#utility.yul\":11311:11677   */\n    tag_411:\n        /* \"#utility.yul\":11453:11456   */\n      0x00\n        /* \"#utility.yul\":11474:11541   */\n      tag_584\n        /* \"#utility.yul\":11538:11540   */\n      0x17\n        /* \"#utility.yul\":11533:11536   */\n      dup4\n        /* \"#utility.yul\":11474:11541   */\n      tag_407\n      jump\t// in\n    tag_584:\n        /* \"#utility.yul\":11467:11541   */\n      swap2\n      pop\n        /* \"#utility.yul\":11550:11643   */\n      tag_585\n        /* \"#utility.yul\":11639:11642   */\n      dup3\n        /* \"#utility.yul\":11550:11643   */\n      tag_410\n      jump\t// in\n    tag_585:\n        /* \"#utility.yul\":11668:11670   */\n      0x20\n        /* \"#utility.yul\":11663:11666   */\n      dup3\n        /* \"#utility.yul\":11659:11671   */\n      add\n        /* \"#utility.yul\":11652:11671   */\n      swap1\n      pop\n        /* \"#utility.yul\":11311:11677   */\n      swap2\n      swap1\n      pop\n      jump\t// out\n        /* \"#utility.yul\":11683:12102   */\n    tag_155:\n        /* \"#utility.yul\":11849:11853   */\n      0x00\n        /* \"#utility.yul\":11887:11889   */\n      0x20\n        /* \"#utility.yul\":11876:11885   */\n      dup3\n        /* \"#utility.yul\":11872:11890   */\n      add\n        /* \"#utility.yul\":11864:11890   */\n      swap1\n      pop\n        /* \"#utility.yul\":11936:11945   */\n      dup2\n        /* \"#utility.yul\":11930:11934   */\n      dup2\n        /* \"#utility.yul\":11926:11946   */\n      sub\n        /* \"#utility.yul\":11922:11923   */\n      0x00\n        /* \"#utility.yul\":11911:11920   */\n      dup4\n        /* \"#utility.yul\":11907:11924   */\n      add\n        /* \"#utility.yul\":11900:11947   */\n      mstore\n        /* \"#utility.yul\":11964:12095   */\n      tag_587\n        /* \"#utility.yul\":12090:12094   */\n      dup2\n        /* \"#utility.yul\":11964:12095   */\n      tag_411\n      jump\t// in\n    tag_587:\n        /* \"#utility.yul\":11956:12095   */\n      swap1\n      pop\n        /* \"#utility.yul\":11683:12102   */\n      swap2\n      swap1\n      pop\n      jump\t// out\n        /* \"#utility.yul\":12108:12288   */\n    tag_412:\n        /* \"#utility.yul\":12156:12233   */\n      0x4e487b7100000000000000000000000000000000000000000000000000000000\n        /* \"#utility.yul\":12153:12154   */\n      0x00\n        /* \"#utility.yul\":12146:12234   */\n      mstore\n        /* \"#utility.yul\":12253:12257   */\n      0x12\n        /* \"#utility.yul\":12250:12251   */\n      0x04\n        /* \"#utility.yul\":12243:12258   */\n      mstore\n        /* \"#utility.yul\":12277:12281   */\n      0x24\n        /* \"#utility.yul\":12274:12275   */\n      0x00\n        /* \"#utility.yul\":12267:12282   */\n      revert\n        /* \"#utility.yul\":12294:12470   */\n    tag_177:\n        /* \"#utility.yul\":12326:12327   */\n      0x00\n        /* \"#utility.yul\":12343:12363   */\n      tag_590\n        /* \"#utility.yul\":12361:12362   */\n      dup3\n        /* \"#utility.yul\":12343:12363   */\n      tag_374\n      jump\t// in\n    tag_590:\n        /* \"#utility.yul\":12338:12363   */\n      swap2\n      pop\n        /* \"#utility.yul\":12377:12397   */\n      tag_591\n        /* \"#utility.yul\":12395:12396   */\n      dup4\n        /* \"#utility.yul\":12377:12397   */\n      tag_374\n      jump\t// in\n    tag_591:\n        /* \"#utility.yul\":12372:12397   */\n      swap3\n      pop\n        /* \"#utility.yul\":12416:12417   */\n      dup3\n        /* \"#utility.yul\":12406:12441   */\n      tag_592\n      jumpi\n        /* \"#utility.yul\":12421:12439   */\n      tag_593\n      tag_412\n      jump\t// in\n    tag_593:\n        /* \"#utility.yul\":12406:12441   */\n    tag_592:\n        /* \"#utility.yul\":12462:12463   */\n      dup3\n        /* \"#utility.yul\":12459:12460   */\n      dup3\n        /* \"#utility.yul\":12455:12464   */\n      mod\n        /* \"#utility.yul\":12450:12464   */\n      swap1\n      pop\n        /* \"#utility.yul\":12294:12470   */\n      swap3\n      swap2\n      pop\n      pop\n      jump\t// out\n        /* \"#utility.yul\":12476:12698   */\n    tag_413:\n        /* \"#utility.yul\":12616:12650   */\n      0x506c656467653a206275792073746f726167652074696d652073657420657272\n        /* \"#utility.yul\":12612:12613   */\n      0x00\n        /* \"#utility.yul\":12604:12610   */\n      dup3\n        /* \"#utility.yul\":12600:12614   */\n      add\n        /* \"#utility.yul\":12593:12651   */\n      mstore\n        /* \"#utility.yul\":12685:12690   */\n      0x6f72210000000000000000000000000000000000000000000000000000000000\n        /* \"#utility.yul\":12680:12682   */\n      0x20\n        /* \"#utility.yul\":12672:12678   */\n      dup3\n        /* \"#utility.yul\":12668:12683   */\n      add\n        /* \"#utility.yul\":12661:12691   */\n      mstore\n        /* \"#utility.yul\":12476:12698   */\n      pop\n      jump\t// out\n        /* \"#utility.yul\":12704:13070   */\n    tag_414:\n        /* \"#utility.yul\":12846:12849   */\n      0x00\n        /* \"#utility.yul\":12867:12934   */\n      tag_596\n        /* \"#utility.yul\":12931:12933   */\n      0x23\n        /* \"#utility.yul\":12926:12929   */\n      dup4\n        /* \"#utility.yul\":12867:12934   */\n      tag_407\n      jump\t// in\n    tag_596:\n        /* \"#utility.yul\":12860:12934   */\n      swap2\n      pop\n        /* \"#utility.yul\":12943:13036   */\n      tag_597\n        /* \"#utility.yul\":13032:13035   */\n      dup3\n        /* \"#utility.yul\":12943:13036   */\n      tag_413\n      jump\t// in\n    tag_597:\n        /* \"#utility.yul\":13061:13063   */\n      0x40\n        /* \"#utility.yul\":13056:13059   */\n      dup3\n        /* \"#utility.yul\":13052:13064   */\n      add\n        /* \"#utility.yul\":13045:13064   */\n      swap1\n      pop\n        /* \"#utility.yul\":12704:13070   */\n      swap2\n      swap1\n      pop\n      jump\t// out\n        /* \"#utility.yul\":13076:13495   */\n    tag_180:\n        /* \"#utility.yul\":13242:13246   */\n      0x00\n        /* \"#utility.yul\":13280:13282   */\n      0x20\n        /* \"#utility.yul\":13269:13278   */\n      dup3\n        /* \"#utility.yul\":13265:13283   */\n      add\n        /* \"#utility.yul\":13257:13283   */\n      swap1\n      pop\n        /* \"#utility.yul\":13329:13338   */\n      dup2\n        /* \"#utility.yul\":13323:13327   */\n      dup2\n        /* \"#utility.yul\":13319:13339   */\n      sub\n        /* \"#utility.yul\":13315:13316   */\n      0x00\n        /* \"#utility.yul\":13304:13313   */\n      dup4\n        /* \"#utility.yul\":13300:13317   */\n      add\n        /* \"#utility.yul\":13293:13340   */\n      mstore\n        /* \"#utility.yul\":13357:13488   */\n      tag_599\n        /* \"#utility.yul\":13483:13487   */\n      dup2\n        /* \"#utility.yul\":13357:13488   */\n      tag_414\n      jump\t// in\n    tag_599:\n        /* \"#utility.yul\":13349:13488   */\n      swap1\n      pop\n        /* \"#utility.yul\":13076:13495   */\n      swap2\n      swap1\n      pop\n      jump\t// out\n        /* \"#utility.yul\":13501:13681   */\n    tag_415:\n        /* \"#utility.yul\":13549:13626   */\n      0x4e487b7100000000000000000000000000000000000000000000000000000000\n        /* \"#utility.yul\":13546:13547   */\n      0x00\n        /* \"#utility.yul\":13539:13627   */\n      mstore\n        /* \"#utility.yul\":13646:13650   */\n      0x11\n        /* \"#utility.yul\":13643:13644   */\n      0x04\n        /* \"#utility.yul\":13636:13651   */\n      mstore\n        /* \"#utility.yul\":13670:13674   */\n      0x24\n        /* \"#utility.yul\":13667:13668   */\n      0x00\n        /* \"#utility.yul\":13660:13675   */\n      revert\n        /* \"#utility.yul\":13687:14097   */\n    tag_183:\n        /* \"#utility.yul\":13727:13734   */\n      0x00\n        /* \"#utility.yul\":13750:13770   */\n      tag_602\n        /* \"#utility.yul\":13768:13769   */\n      dup3\n        /* \"#utility.yul\":13750:13770   */\n      tag_374\n      jump\t// in\n    tag_602:\n        /* \"#utility.yul\":13745:13770   */\n      swap2\n      pop\n        /* \"#utility.yul\":13784:13804   */\n      tag_603\n        /* \"#utility.yul\":13802:13803   */\n      dup4\n        /* \"#utility.yul\":13784:13804   */\n      tag_374\n      jump\t// in\n    tag_603:\n        /* \"#utility.yul\":13779:13804   */\n      swap3\n      pop\n        /* \"#utility.yul\":13839:13840   */\n      dup3\n        /* \"#utility.yul\":13836:13837   */\n      dup3\n        /* \"#utility.yul\":13832:13841   */\n      mul\n        /* \"#utility.yul\":13861:13891   */\n      tag_604\n        /* \"#utility.yul\":13879:13890   */\n      dup2\n        /* \"#utility.yul\":13861:13891   */\n      tag_374\n      jump\t// in\n    tag_604:\n        /* \"#utility.yul\":13850:13891   */\n      swap2\n      pop\n        /* \"#utility.yul\":14040:14041   */\n      dup3\n        /* \"#utility.yul\":14031:14038   */\n      dup3\n        /* \"#utility.yul\":14027:14042   */\n      div\n        /* \"#utility.yul\":14024:14025   */\n      dup5\n        /* \"#utility.yul\":14021:14043   */\n      eq\n        /* \"#utility.yul\":14001:14002   */\n      dup4\n        /* \"#utility.yul\":13994:14003   */\n      iszero\n        /* \"#utility.yul\":13974:14057   */\n      or\n        /* \"#utility.yul\":13951:14090   */\n      tag_605\n      jumpi\n        /* \"#utility.yul\":14070:14088   */\n      tag_606\n      tag_415\n      jump\t// in\n    tag_606:\n        /* \"#utility.yul\":13951:14090   */\n    tag_605:\n        /* \"#utility.yul\":13735:14097   */\n      pop\n        /* \"#utility.yul\":13687:14097   */\n      swap3\n      swap2\n      pop\n      pop\n      jump\t// out\n        /* \"#utility.yul\":14103:14294   */\n    tag_188:\n        /* \"#utility.yul\":14143:14146   */\n      0x00\n        /* \"#utility.yul\":14162:14182   */\n      tag_608\n        /* \"#utility.yul\":14180:14181   */\n      dup3\n        /* \"#utility.yul\":14162:14182   */\n      tag_374\n      jump\t// in\n    tag_608:\n        /* \"#utility.yul\":14157:14182   */\n      swap2\n      pop\n        /* \"#utility.yul\":14196:14216   */\n      tag_609\n        /* \"#utility.yul\":14214:14215   */\n      dup4\n        /* \"#utility.yul\":14196:14216   */\n      tag_374\n      jump\t// in\n    tag_609:\n        /* \"#utility.yul\":14191:14216   */\n      swap3\n      pop\n        /* \"#utility.yul\":14239:14240   */\n      dup3\n        /* \"#utility.yul\":14236:14237   */\n      dup3\n        /* \"#utility.yul\":14232:14241   */\n      add\n        /* \"#utility.yul\":14225:14241   */\n      swap1\n      pop\n        /* \"#utility.yul\":14260:14263   */\n      dup1\n        /* \"#utility.yul\":14257:14258   */\n      dup3\n        /* \"#utility.yul\":14254:14264   */\n      gt\n        /* \"#utility.yul\":14251:14287   */\n      iszero\n      tag_610\n      jumpi\n        /* \"#utility.yul\":14267:14285   */\n      tag_611\n      tag_415\n      jump\t// in\n    tag_611:\n        /* \"#utility.yul\":14251:14287   */\n    tag_610:\n        /* \"#utility.yul\":14103:14294   */\n      swap3\n      swap2\n      pop\n      pop\n      jump\t// out\n        /* \"#utility.yul\":14300:14473   */\n    tag_416:\n        /* \"#utility.yul\":14440:14465   */\n      0x506c656467653a2075736572206e6f7420657869737421000000000000000000\n        /* \"#utility.yul\":14436:14437   */\n      0x00\n        /* \"#utility.yul\":14428:14434   */\n      dup3\n        /* \"#utility.yul\":14424:14438   */\n      add\n        /* \"#utility.yul\":14417:14466   */\n      mstore\n        /* \"#utility.yul\":14300:14473   */\n      pop\n      jump\t// out\n        /* \"#utility.yul\":14479:14845   */\n    tag_417:\n        /* \"#utility.yul\":14621:14624   */\n      0x00\n        /* \"#utility.yul\":14642:14709   */\n      tag_614\n        /* \"#utility.yul\":14706:14708   */\n      0x17\n        /* \"#utility.yul\":14701:14704   */\n      dup4\n        /* \"#utility.yul\":14642:14709   */\n      tag_407\n      jump\t// in\n    tag_614:\n        /* \"#utility.yul\":14635:14709   */\n      swap2\n      pop\n        /* \"#utility.yul\":14718:14811   */\n      tag_615\n        /* \"#utility.yul\":14807:14810   */\n      dup3\n        /* \"#utility.yul\":14718:14811   */\n      tag_416\n      jump\t// in\n    tag_615:\n        /* \"#utility.yul\":14836:14838   */\n      0x20\n        /* \"#utility.yul\":14831:14834   */\n      dup3\n        /* \"#utility.yul\":14827:14839   */\n      add\n        /* \"#utility.yul\":14820:14839   */\n      swap1\n      pop\n        /* \"#utility.yul\":14479:14845   */\n      swap2\n      swap1\n      pop\n      jump\t// out\n        /* \"#utility.yul\":14851:15270   */\n    tag_222:\n        /* \"#utility.yul\":15017:15021   */\n      0x00\n        /* \"#utility.yul\":15055:15057   */\n      0x20\n        /* \"#utility.yul\":15044:15053   */\n      dup3\n        /* \"#utility.yul\":15040:15058   */\n      add\n        /* \"#utility.yul\":15032:15058   */\n      swap1\n      pop\n        /* \"#utility.yul\":15104:15113   */\n      dup2\n        /* \"#utility.yul\":15098:15102   */\n      dup2\n        /* \"#utility.yul\":15094:15114   */\n      sub\n        /* \"#utility.yul\":15090:15091   */\n      0x00\n        /* \"#utility.yul\":15079:15088   */\n      dup4\n        /* \"#utility.yul\":15075:15092   */\n      add\n        /* \"#utility.yul\":15068:15115   */\n      mstore\n        /* \"#utility.yul\":15132:15263   */\n      tag_617\n        /* \"#utility.yul\":15258:15262   */\n      dup2\n        /* \"#utility.yul\":15132:15263   */\n      tag_417\n      jump\t// in\n    tag_617:\n        /* \"#utility.yul\":15124:15263   */\n      swap1\n      pop\n        /* \"#utility.yul\":14851:15270   */\n      swap2\n      swap1\n      pop\n      jump\t// out\n        /* \"#utility.yul\":15276:15388   */\n    tag_418:\n        /* \"#utility.yul\":15359:15381   */\n      tag_619\n        /* \"#utility.yul\":15375:15380   */\n      dup2\n        /* \"#utility.yul\":15359:15381   */\n      tag_385\n      jump\t// in\n    tag_619:\n        /* \"#utility.yul\":15354:15357   */\n      dup3\n        /* \"#utility.yul\":15347:15382   */\n      mstore\n        /* \"#utility.yul\":15276:15388   */\n      pop\n      pop\n      jump\t// out\n        /* \"#utility.yul\":15394:15608   */\n    tag_230:\n        /* \"#utility.yul\":15483:15487   */\n      0x00\n        /* \"#utility.yul\":15521:15523   */\n      0x20\n        /* \"#utility.yul\":15510:15519   */\n      dup3\n        /* \"#utility.yul\":15506:15524   */\n      add\n        /* \"#utility.yul\":15498:15524   */\n      swap1\n      pop\n        /* \"#utility.yul\":15534:15601   */\n      tag_621\n        /* \"#utility.yul\":15598:15599   */\n      0x00\n        /* \"#utility.yul\":15587:15596   */\n      dup4\n        /* \"#utility.yul\":15583:15600   */\n      add\n        /* \"#utility.yul\":15574:15580   */\n      dup5\n        /* \"#utility.yul\":15534:15601   */\n      tag_418\n      jump\t// in\n    tag_621:\n        /* \"#utility.yul\":15394:15608   */\n      swap3\n      swap2\n      pop\n      pop\n      jump\t// out\n        /* \"#utility.yul\":15614:15793   */\n    tag_419:\n        /* \"#utility.yul\":15754:15785   */\n      0x506c656467653a207374616b6520616d6f756e74206973207a65726f21000000\n        /* \"#utility.yul\":15750:15751   */\n      0x00\n        /* \"#utility.yul\":15742:15748   */\n      dup3\n        /* \"#utility.yul\":15738:15752   */\n      add\n        /* \"#utility.yul\":15731:15786   */\n      mstore\n        /* \"#utility.yul\":15614:15793   */\n      pop\n      jump\t// out\n        /* \"#utility.yul\":15799:16165   */\n    tag_420:\n        /* \"#utility.yul\":15941:15944   */\n      0x00\n        /* \"#utility.yul\":15962:16029   */\n      tag_624\n        /* \"#utility.yul\":16026:16028   */\n      0x1d\n        /* \"#utility.yul\":16021:16024   */\n      dup4\n        /* \"#utility.yul\":15962:16029   */\n      tag_407\n      jump\t// in\n    tag_624:\n        /* \"#utility.yul\":15955:16029   */\n      swap2\n      pop\n        /* \"#utility.yul\":16038:16131   */\n      tag_625\n        /* \"#utility.yul\":16127:16130   */\n      dup3\n        /* \"#utility.yul\":16038:16131   */\n      tag_419\n      jump\t// in\n    tag_625:\n        /* \"#utility.yul\":16156:16158   */\n      0x20\n        /* \"#utility.yul\":16151:16154   */\n      dup3\n        /* \"#utility.yul\":16147:16159   */\n      add\n        /* \"#utility.yul\":16140:16159   */\n      swap1\n      pop\n        /* \"#utility.yul\":15799:16165   */\n      swap2\n      swap1\n      pop\n      jump\t// out\n        /* \"#utility.yul\":16171:16590   */\n    tag_240:\n        /* \"#utility.yul\":16337:16341   */\n      0x00\n        /* \"#utility.yul\":16375:16377   */\n      0x20\n        /* \"#utility.yul\":16364:16373   */\n      dup3\n        /* \"#utility.yul\":16360:16378   */\n      add\n        /* \"#utility.yul\":16352:16378   */\n      swap1\n      pop\n        /* \"#utility.yul\":16424:16433   */\n      dup2\n        /* \"#utility.yul\":16418:16422   */\n      dup2\n        /* \"#utility.yul\":16414:16434   */\n      sub\n        /* \"#utility.yul\":16410:16411   */\n      0x00\n        /* \"#utility.yul\":16399:16408   */\n      dup4\n        /* \"#utility.yul\":16395:16412   */\n      add\n        /* \"#utility.yul\":16388:16435   */\n      mstore\n        /* \"#utility.yul\":16452:16583   */\n      tag_627\n        /* \"#utility.yul\":16578:16582   */\n      dup2\n        /* \"#utility.yul\":16452:16583   */\n      tag_420\n      jump\t// in\n    tag_627:\n        /* \"#utility.yul\":16444:16583   */\n      swap1\n      pop\n        /* \"#utility.yul\":16171:16590   */\n      swap2\n      swap1\n      pop\n      jump\t// out\n        /* \"#utility.yul\":16596:16790   */\n    tag_243:\n        /* \"#utility.yul\":16636:16640   */\n      0x00\n        /* \"#utility.yul\":16656:16676   */\n      tag_629\n        /* \"#utility.yul\":16674:16675   */\n      dup3\n        /* \"#utility.yul\":16656:16676   */\n      tag_374\n      jump\t// in\n    tag_629:\n        /* \"#utility.yul\":16651:16676   */\n      swap2\n      pop\n        /* \"#utility.yul\":16690:16710   */\n      tag_630\n        /* \"#utility.yul\":16708:16709   */\n      dup4\n        /* \"#utility.yul\":16690:16710   */\n      tag_374\n      jump\t// in\n    tag_630:\n        /* \"#utility.yul\":16685:16710   */\n      swap3\n      pop\n        /* \"#utility.yul\":16734:16735   */\n      dup3\n        /* \"#utility.yul\":16731:16732   */\n      dup3\n        /* \"#utility.yul\":16727:16736   */\n      sub\n        /* \"#utility.yul\":16719:16736   */\n      swap1\n      pop\n        /* \"#utility.yul\":16758:16759   */\n      dup2\n        /* \"#utility.yul\":16752:16756   */\n      dup2\n        /* \"#utility.yul\":16749:16760   */\n      gt\n        /* \"#utility.yul\":16746:16783   */\n      iszero\n      tag_631\n      jumpi\n        /* \"#utility.yul\":16763:16781   */\n      tag_632\n      tag_415\n      jump\t// in\n    tag_632:\n        /* \"#utility.yul\":16746:16783   */\n    tag_631:\n        /* \"#utility.yul\":16596:16790   */\n      swap3\n      swap2\n      pop\n      pop\n      jump\t// out\n        /* \"#utility.yul\":16796:17107   */\n    tag_421:\n        /* \"#utility.yul\":16873:16877   */\n      0x00\n        /* \"#utility.yul\":16963:16981   */\n      0xffffffffffffffff\n        /* \"#utility.yul\":16955:16961   */\n      dup3\n        /* \"#utility.yul\":16952:16982   */\n      gt\n        /* \"#utility.yul\":16949:17005   */\n      iszero\n      tag_634\n      jumpi\n        /* \"#utility.yul\":16985:17003   */\n      tag_635\n      tag_202\n      jump\t// in\n    tag_635:\n        /* \"#utility.yul\":16949:17005   */\n    tag_634:\n        /* \"#utility.yul\":17035:17039   */\n      0x20\n        /* \"#utility.yul\":17027:17033   */\n      dup3\n        /* \"#utility.yul\":17023:17040   */\n      mul\n        /* \"#utility.yul\":17015:17040   */\n      swap1\n      pop\n        /* \"#utility.yul\":17095:17099   */\n      0x20\n        /* \"#utility.yul\":17089:17093   */\n      dup2\n        /* \"#utility.yul\":17085:17100   */\n      add\n        /* \"#utility.yul\":17077:17100   */\n      swap1\n      pop\n        /* \"#utility.yul\":16796:17107   */\n      swap2\n      swap1\n      pop\n      jump\t// out\n        /* \"#utility.yul\":17113:17230   */\n    tag_422:\n        /* \"#utility.yul\":17222:17223   */\n      0x00\n        /* \"#utility.yul\":17219:17220   */\n      dup1\n        /* \"#utility.yul\":17212:17224   */\n      revert\n        /* \"#utility.yul\":17236:17379   */\n    tag_423:\n        /* \"#utility.yul\":17293:17298   */\n      0x00\n        /* \"#utility.yul\":17324:17330   */\n      dup2\n        /* \"#utility.yul\":17318:17331   */\n      mload\n        /* \"#utility.yul\":17309:17331   */\n      swap1\n      pop\n        /* \"#utility.yul\":17340:17373   */\n      tag_638\n        /* \"#utility.yul\":17367:17372   */\n      dup2\n        /* \"#utility.yul\":17340:17373   */\n      tag_381\n      jump\t// in\n    tag_638:\n        /* \"#utility.yul\":17236:17379   */\n      swap3\n      swap2\n      pop\n      pop\n      jump\t// out\n        /* \"#utility.yul\":17402:18134   */\n    tag_424:\n        /* \"#utility.yul\":17509:17514   */\n      0x00\n        /* \"#utility.yul\":17534:17615   */\n      tag_640\n        /* \"#utility.yul\":17550:17614   */\n      tag_641\n        /* \"#utility.yul\":17607:17613   */\n      dup5\n        /* \"#utility.yul\":17550:17614   */\n      tag_421\n      jump\t// in\n    tag_641:\n        /* \"#utility.yul\":17534:17615   */\n      tag_402\n      jump\t// in\n    tag_640:\n        /* \"#utility.yul\":17525:17615   */\n      swap1\n      pop\n        /* \"#utility.yul\":17635:17640   */\n      dup1\n        /* \"#utility.yul\":17664:17670   */\n      dup4\n        /* \"#utility.yul\":17657:17662   */\n      dup3\n        /* \"#utility.yul\":17650:17671   */\n      mstore\n        /* \"#utility.yul\":17698:17702   */\n      0x20\n        /* \"#utility.yul\":17691:17696   */\n      dup3\n        /* \"#utility.yul\":17687:17703   */\n      add\n        /* \"#utility.yul\":17680:17703   */\n      swap1\n      pop\n        /* \"#utility.yul\":17751:17755   */\n      0x20\n        /* \"#utility.yul\":17743:17749   */\n      dup5\n        /* \"#utility.yul\":17739:17756   */\n      mul\n        /* \"#utility.yul\":17731:17737   */\n      dup4\n        /* \"#utility.yul\":17727:17757   */\n      add\n        /* \"#utility.yul\":17780:17783   */\n      dup6\n        /* \"#utility.yul\":17772:17778   */\n      dup2\n        /* \"#utility.yul\":17769:17784   */\n      gt\n        /* \"#utility.yul\":17766:17888   */\n      iszero\n      tag_642\n      jumpi\n        /* \"#utility.yul\":17799:17878   */\n      tag_643\n      tag_422\n      jump\t// in\n    tag_643:\n        /* \"#utility.yul\":17766:17888   */\n    tag_642:\n        /* \"#utility.yul\":17914:17920   */\n      dup4\n        /* \"#utility.yul\":17897:18128   */\n    tag_644:\n        /* \"#utility.yul\":17931:17937   */\n      dup2\n        /* \"#utility.yul\":17926:17929   */\n      dup2\n        /* \"#utility.yul\":17923:17938   */\n      lt\n        /* \"#utility.yul\":17897:18128   */\n      iszero\n      tag_646\n      jumpi\n        /* \"#utility.yul\":18006:18009   */\n      dup1\n        /* \"#utility.yul\":18035:18083   */\n      tag_647\n        /* \"#utility.yul\":18079:18082   */\n      dup9\n        /* \"#utility.yul\":18067:18077   */\n      dup3\n        /* \"#utility.yul\":18035:18083   */\n      tag_423\n      jump\t// in\n    tag_647:\n        /* \"#utility.yul\":18030:18033   */\n      dup5\n        /* \"#utility.yul\":18023:18084   */\n      mstore\n        /* \"#utility.yul\":18113:18117   */\n      0x20\n        /* \"#utility.yul\":18108:18111   */\n      dup5\n        /* \"#utility.yul\":18104:18118   */\n      add\n        /* \"#utility.yul\":18097:18118   */\n      swap4\n      pop\n        /* \"#utility.yul\":17973:18128   */\n      pop\n        /* \"#utility.yul\":17957:17961   */\n      0x20\n        /* \"#utility.yul\":17952:17955   */\n      dup2\n        /* \"#utility.yul\":17948:17962   */\n      add\n        /* \"#utility.yul\":17941:17962   */\n      swap1\n      pop\n        /* \"#utility.yul\":17897:18128   */\n      jump(tag_644)\n    tag_646:\n        /* \"#utility.yul\":17901:17922   */\n      pop\n        /* \"#utility.yul\":17515:18134   */\n      pop\n      pop\n        /* \"#utility.yul\":17402:18134   */\n      swap4\n      swap3\n      pop\n      pop\n      pop\n      jump\t// out\n        /* \"#utility.yul\":18157:18542   */\n    tag_425:\n        /* \"#utility.yul\":18239:18244   */\n      0x00\n        /* \"#utility.yul\":18288:18291   */\n      dup3\n        /* \"#utility.yul\":18281:18285   */\n      0x1f\n        /* \"#utility.yul\":18273:18279   */\n      dup4\n        /* \"#utility.yul\":18269:18286   */\n      add\n        /* \"#utility.yul\":18265:18292   */\n      slt\n        /* \"#utility.yul\":18255:18377   */\n      tag_649\n      jumpi\n        /* \"#utility.yul\":18296:18375   */\n      tag_650\n      tag_398\n      jump\t// in\n    tag_650:\n        /* \"#utility.yul\":18255:18377   */\n    tag_649:\n        /* \"#utility.yul\":18406:18412   */\n      dup2\n        /* \"#utility.yul\":18400:18413   */\n      mload\n        /* \"#utility.yul\":18431:18536   */\n      tag_651\n        /* \"#utility.yul\":18532:18535   */\n      dup5\n        /* \"#utility.yul\":18524:18530   */\n      dup3\n        /* \"#utility.yul\":18517:18521   */\n      0x20\n        /* \"#utility.yul\":18509:18515   */\n      dup7\n        /* \"#utility.yul\":18505:18522   */\n      add\n        /* \"#utility.yul\":18431:18536   */\n      tag_424\n      jump\t// in\n    tag_651:\n        /* \"#utility.yul\":18422:18536   */\n      swap2\n      pop\n        /* \"#utility.yul\":18245:18542   */\n      pop\n        /* \"#utility.yul\":18157:18542   */\n      swap3\n      swap2\n      pop\n      pop\n      jump\t// out\n        /* \"#utility.yul\":18548:18869   */\n    tag_426:\n        /* \"#utility.yul\":18635:18639   */\n      0x00\n        /* \"#utility.yul\":18725:18743   */\n      0xffffffffffffffff\n        /* \"#utility.yul\":18717:18723   */\n      dup3\n        /* \"#utility.yul\":18714:18744   */\n      gt\n        /* \"#utility.yul\":18711:18767   */\n      iszero\n      tag_653\n      jumpi\n        /* \"#utility.yul\":18747:18765   */\n      tag_654\n      tag_202\n      jump\t// in\n    tag_654:\n        /* \"#utility.yul\":18711:18767   */\n    tag_653:\n        /* \"#utility.yul\":18797:18801   */\n      0x20\n        /* \"#utility.yul\":18789:18795   */\n      dup3\n        /* \"#utility.yul\":18785:18802   */\n      mul\n        /* \"#utility.yul\":18777:18802   */\n      swap1\n      pop\n        /* \"#utility.yul\":18857:18861   */\n      0x20\n        /* \"#utility.yul\":18851:18855   */\n      dup2\n        /* \"#utility.yul\":18847:18862   */\n      add\n        /* \"#utility.yul\":18839:18862   */\n      swap1\n      pop\n        /* \"#utility.yul\":18548:18869   */\n      swap2\n      swap1\n      pop\n      jump\t// out\n        /* \"#utility.yul\":18875:19183   */\n    tag_427:\n        /* \"#utility.yul\":18937:18941   */\n      0x00\n        /* \"#utility.yul\":19027:19045   */\n      0xffffffffffffffff\n        /* \"#utility.yul\":19019:19025   */\n      dup3\n        /* \"#utility.yul\":19016:19046   */\n      gt\n        /* \"#utility.yul\":19013:19069   */\n      iszero\n      tag_656\n      jumpi\n        /* \"#utility.yul\":19049:19067   */\n      tag_657\n      tag_202\n      jump\t// in\n    tag_657:\n        /* \"#utility.yul\":19013:19069   */\n    tag_656:\n        /* \"#utility.yul\":19087:19116   */\n      tag_658\n        /* \"#utility.yul\":19109:19115   */\n      dup3\n        /* \"#utility.yul\":19087:19116   */\n      tag_400\n      jump\t// in\n    tag_658:\n        /* \"#utility.yul\":19079:19116   */\n      swap1\n      pop\n        /* \"#utility.yul\":19171:19175   */\n      0x20\n        /* \"#utility.yul\":19165:19169   */\n      dup2\n        /* \"#utility.yul\":19161:19176   */\n      add\n        /* \"#utility.yul\":19153:19176   */\n      swap1\n      pop\n        /* \"#utility.yul\":18875:19183   */\n      swap2\n      swap1\n      pop\n      jump\t// out\n        /* \"#utility.yul\":19189:19435   */\n    tag_428:\n        /* \"#utility.yul\":19270:19271   */\n      0x00\n        /* \"#utility.yul\":19280:19393   */\n    tag_660:\n        /* \"#utility.yul\":19294:19300   */\n      dup4\n        /* \"#utility.yul\":19291:19292   */\n      dup2\n        /* \"#utility.yul\":19288:19301   */\n      lt\n        /* \"#utility.yul\":19280:19393   */\n      iszero\n      tag_662\n      jumpi\n        /* \"#utility.yul\":19379:19380   */\n      dup1\n        /* \"#utility.yul\":19374:19377   */\n      dup3\n        /* \"#utility.yul\":19370:19381   */\n      add\n        /* \"#utility.yul\":19364:19382   */\n      mload\n        /* \"#utility.yul\":19360:19361   */\n      dup2\n        /* \"#utility.yul\":19355:19358   */\n      dup5\n        /* \"#utility.yul\":19351:19362   */\n      add\n        /* \"#utility.yul\":19344:19383   */\n      mstore\n        /* \"#utility.yul\":19316:19318   */\n      0x20\n        /* \"#utility.yul\":19313:19314   */\n      dup2\n        /* \"#utility.yul\":19309:19319   */\n      add\n        /* \"#utility.yul\":19304:19319   */\n      swap1\n      pop\n        /* \"#utility.yul\":19280:19393   */\n      jump(tag_660)\n    tag_662:\n        /* \"#utility.yul\":19427:19428   */\n      0x00\n        /* \"#utility.yul\":19418:19424   */\n      dup5\n        /* \"#utility.yul\":19413:19416   */\n      dup5\n        /* \"#utility.yul\":19409:19425   */\n      add\n        /* \"#utility.yul\":19402:19429   */\n      mstore\n        /* \"#utility.yul\":19251:19435   */\n      pop\n        /* \"#utility.yul\":19189:19435   */\n      pop\n      pop\n      pop\n      jump\t// out\n        /* \"#utility.yul\":19441:19875   */\n    tag_429:\n        /* \"#utility.yul\":19530:19535   */\n      0x00\n        /* \"#utility.yul\":19555:19621   */\n      tag_664\n        /* \"#utility.yul\":19571:19620   */\n      tag_665\n        /* \"#utility.yul\":19613:19619   */\n      dup5\n        /* \"#utility.yul\":19571:19620   */\n      tag_427\n      jump\t// in\n    tag_665:\n        /* \"#utility.yul\":19555:19621   */\n      tag_402\n      jump\t// in\n    tag_664:\n        /* \"#utility.yul\":19546:19621   */\n      swap1\n      pop\n        /* \"#utility.yul\":19644:19650   */\n      dup3\n        /* \"#utility.yul\":19637:19642   */\n      dup2\n        /* \"#utility.yul\":19630:19651   */\n      mstore\n        /* \"#utility.yul\":19682:19686   */\n      0x20\n        /* \"#utility.yul\":19675:19680   */\n      dup2\n        /* \"#utility.yul\":19671:19687   */\n      add\n        /* \"#utility.yul\":19720:19723   */\n      dup5\n        /* \"#utility.yul\":19711:19717   */\n      dup5\n        /* \"#utility.yul\":19706:19709   */\n      dup5\n        /* \"#utility.yul\":19702:19718   */\n      add\n        /* \"#utility.yul\":19699:19724   */\n      gt\n        /* \"#utility.yul\":19696:19808   */\n      iszero\n      tag_666\n      jumpi\n        /* \"#utility.yul\":19727:19806   */\n      tag_667\n      tag_399\n      jump\t// in\n    tag_667:\n        /* \"#utility.yul\":19696:19808   */\n    tag_666:\n        /* \"#utility.yul\":19817:19869   */\n      tag_668\n        /* \"#utility.yul\":19862:19868   */\n      dup5\n        /* \"#utility.yul\":19857:19860   */\n      dup3\n        /* \"#utility.yul\":19852:19855   */\n      dup6\n        /* \"#utility.yul\":19817:19869   */\n      tag_428\n      jump\t// in\n    tag_668:\n        /* \"#utility.yul\":19536:19875   */\n      pop\n        /* \"#utility.yul\":19441:19875   */\n      swap4\n      swap3\n      pop\n      pop\n      pop\n      jump\t// out\n        /* \"#utility.yul\":19895:20250   */\n    tag_430:\n        /* \"#utility.yul\":19962:19967   */\n      0x00\n        /* \"#utility.yul\":20011:20014   */\n      dup3\n        /* \"#utility.yul\":20004:20008   */\n      0x1f\n        /* \"#utility.yul\":19996:20002   */\n      dup4\n        /* \"#utility.yul\":19992:20009   */\n      add\n        /* \"#utility.yul\":19988:20015   */\n      slt\n        /* \"#utility.yul\":19978:20100   */\n      tag_670\n      jumpi\n        /* \"#utility.yul\":20019:20098   */\n      tag_671\n      tag_398\n      jump\t// in\n    tag_671:\n        /* \"#utility.yul\":19978:20100   */\n    tag_670:\n        /* \"#utility.yul\":20129:20135   */\n      dup2\n        /* \"#utility.yul\":20123:20136   */\n      mload\n        /* \"#utility.yul\":20154:20244   */\n      tag_672\n        /* \"#utility.yul\":20240:20243   */\n      dup5\n        /* \"#utility.yul\":20232:20238   */\n      dup3\n        /* \"#utility.yul\":20225:20229   */\n      0x20\n        /* \"#utility.yul\":20217:20223   */\n      dup7\n        /* \"#utility.yul\":20213:20230   */\n      add\n        /* \"#utility.yul\":20154:20244   */\n      tag_429\n      jump\t// in\n    tag_672:\n        /* \"#utility.yul\":20145:20244   */\n      swap2\n      pop\n        /* \"#utility.yul\":19968:20250   */\n      pop\n        /* \"#utility.yul\":19895:20250   */\n      swap3\n      swap2\n      pop\n      pop\n      jump\t// out\n        /* \"#utility.yul\":20272:21232   */\n    tag_431:\n        /* \"#utility.yul\":20389:20394   */\n      0x00\n        /* \"#utility.yul\":20414:20505   */\n      tag_674\n        /* \"#utility.yul\":20430:20504   */\n      tag_675\n        /* \"#utility.yul\":20497:20503   */\n      dup5\n        /* \"#utility.yul\":20430:20504   */\n      tag_426\n      jump\t// in\n    tag_675:\n        /* \"#utility.yul\":20414:20505   */\n      tag_402\n      jump\t// in\n    tag_674:\n        /* \"#utility.yul\":20405:20505   */\n      swap1\n      pop\n        /* \"#utility.yul\":20525:20530   */\n      dup1\n        /* \"#utility.yul\":20554:20560   */\n      dup4\n        /* \"#utility.yul\":20547:20552   */\n      dup3\n        /* \"#utility.yul\":20540:20561   */\n      mstore\n        /* \"#utility.yul\":20588:20592   */\n      0x20\n        /* \"#utility.yul\":20581:20586   */\n      dup3\n        /* \"#utility.yul\":20577:20593   */\n      add\n        /* \"#utility.yul\":20570:20593   */\n      swap1\n      pop\n        /* \"#utility.yul\":20641:20645   */\n      0x20\n        /* \"#utility.yul\":20633:20639   */\n      dup5\n        /* \"#utility.yul\":20629:20646   */\n      mul\n        /* \"#utility.yul\":20621:20627   */\n      dup4\n        /* \"#utility.yul\":20617:20647   */\n      add\n        /* \"#utility.yul\":20670:20673   */\n      dup6\n        /* \"#utility.yul\":20662:20668   */\n      dup2\n        /* \"#utility.yul\":20659:20674   */\n      gt\n        /* \"#utility.yul\":20656:20778   */\n      iszero\n      tag_676\n      jumpi\n        /* \"#utility.yul\":20689:20768   */\n      tag_677\n      tag_422\n      jump\t// in\n    tag_677:\n        /* \"#utility.yul\":20656:20778   */\n    tag_676:\n        /* \"#utility.yul\":20804:20810   */\n      dup4\n        /* \"#utility.yul\":20787:21226   */\n    tag_678:\n        /* \"#utility.yul\":20821:20827   */\n      dup2\n        /* \"#utility.yul\":20816:20819   */\n      dup2\n        /* \"#utility.yul\":20813:20828   */\n      lt\n        /* \"#utility.yul\":20787:21226   */\n      iszero\n      tag_680\n      jumpi\n        /* \"#utility.yul\":20903:20906   */\n      dup1\n        /* \"#utility.yul\":20897:20907   */\n      mload\n        /* \"#utility.yul\":20939:20957   */\n      0xffffffffffffffff\n        /* \"#utility.yul\":20926:20937   */\n      dup2\n        /* \"#utility.yul\":20923:20958   */\n      gt\n        /* \"#utility.yul\":20920:21042   */\n      iszero\n      tag_681\n      jumpi\n        /* \"#utility.yul\":20961:21040   */\n      tag_682\n      tag_398\n      jump\t// in\n    tag_682:\n        /* \"#utility.yul\":20920:21042   */\n    tag_681:\n        /* \"#utility.yul\":21085:21096   */\n      dup1\n        /* \"#utility.yul\":21077:21083   */\n      dup7\n        /* \"#utility.yul\":21073:21097   */\n      add\n        /* \"#utility.yul\":21123:21181   */\n      tag_683\n        /* \"#utility.yul\":21177:21180   */\n      dup10\n        /* \"#utility.yul\":21165:21175   */\n      dup3\n        /* \"#utility.yul\":21123:21181   */\n      tag_430\n      jump\t// in\n    tag_683:\n        /* \"#utility.yul\":21118:21121   */\n      dup6\n        /* \"#utility.yul\":21111:21182   */\n      mstore\n        /* \"#utility.yul\":21211:21215   */\n      0x20\n        /* \"#utility.yul\":21206:21209   */\n      dup6\n        /* \"#utility.yul\":21202:21216   */\n      add\n        /* \"#utility.yul\":21195:21216   */\n      swap5\n      pop\n        /* \"#utility.yul\":20863:21226   */\n      pop\n      pop\n        /* \"#utility.yul\":20847:20851   */\n      0x20\n        /* \"#utility.yul\":20842:20845   */\n      dup2\n        /* \"#utility.yul\":20838:20852   */\n      add\n        /* \"#utility.yul\":20831:20852   */\n      swap1\n      pop\n        /* \"#utility.yul\":20787:21226   */\n      jump(tag_678)\n    tag_680:\n        /* \"#utility.yul\":20791:20812   */\n      pop\n        /* \"#utility.yul\":20395:21232   */\n      pop\n      pop\n        /* \"#utility.yul\":20272:21232   */\n      swap4\n      swap3\n      pop\n      pop\n      pop\n      jump\t// out\n        /* \"#utility.yul\":21254:21659   */\n    tag_432:\n        /* \"#utility.yul\":21346:21351   */\n      0x00\n        /* \"#utility.yul\":21395:21398   */\n      dup3\n        /* \"#utility.yul\":21388:21392   */\n      0x1f\n        /* \"#utility.yul\":21380:21386   */\n      dup4\n        /* \"#utility.yul\":21376:21393   */\n      add\n        /* \"#utility.yul\":21372:21399   */\n      slt\n        /* \"#utility.yul\":21362:21484   */\n      tag_685\n      jumpi\n        /* \"#utility.yul\":21403:21482   */\n      tag_686\n      tag_398\n      jump\t// in\n    tag_686:\n        /* \"#utility.yul\":21362:21484   */\n    tag_685:\n        /* \"#utility.yul\":21513:21519   */\n      dup2\n        /* \"#utility.yul\":21507:21520   */\n      mload\n        /* \"#utility.yul\":21538:21653   */\n      tag_687\n        /* \"#utility.yul\":21649:21652   */\n      dup5\n        /* \"#utility.yul\":21641:21647   */\n      dup3\n        /* \"#utility.yul\":21634:21638   */\n      0x20\n        /* \"#utility.yul\":21626:21632   */\n      dup7\n        /* \"#utility.yul\":21622:21639   */\n      add\n        /* \"#utility.yul\":21538:21653   */\n      tag_431\n      jump\t// in\n    tag_687:\n        /* \"#utility.yul\":21529:21653   */\n      swap2\n      pop\n        /* \"#utility.yul\":21352:21659   */\n      pop\n        /* \"#utility.yul\":21254:21659   */\n      swap3\n      swap2\n      pop\n      pop\n      jump\t// out\n        /* \"#utility.yul\":21665:21808   */\n    tag_433:\n        /* \"#utility.yul\":21722:21727   */\n      0x00\n        /* \"#utility.yul\":21753:21759   */\n      dup2\n        /* \"#utility.yul\":21747:21760   */\n      mload\n        /* \"#utility.yul\":21738:21760   */\n      swap1\n      pop\n        /* \"#utility.yul\":21769:21802   */\n      tag_689\n        /* \"#utility.yul\":21796:21801   */\n      dup2\n        /* \"#utility.yul\":21769:21802   */\n      tag_383\n      jump\t// in\n    tag_689:\n        /* \"#utility.yul\":21665:21808   */\n      swap3\n      swap2\n      pop\n      pop\n      jump\t// out\n        /* \"#utility.yul\":21814:21918   */\n    tag_434:\n        /* \"#utility.yul\":21859:21866   */\n      0x00\n        /* \"#utility.yul\":21888:21912   */\n      tag_691\n        /* \"#utility.yul\":21906:21911   */\n      dup3\n        /* \"#utility.yul\":21888:21912   */\n      tag_379\n      jump\t// in\n    tag_691:\n        /* \"#utility.yul\":21877:21912   */\n      swap1\n      pop\n        /* \"#utility.yul\":21814:21918   */\n      swap2\n      swap1\n      pop\n      jump\t// out\n        /* \"#utility.yul\":21924:22062   */\n    tag_435:\n        /* \"#utility.yul\":22005:22037   */\n      tag_693\n        /* \"#utility.yul\":22031:22036   */\n      dup2\n        /* \"#utility.yul\":22005:22037   */\n      tag_434\n      jump\t// in\n    tag_693:\n        /* \"#utility.yul\":21998:22003   */\n      dup2\n        /* \"#utility.yul\":21995:22038   */\n      eq\n        /* \"#utility.yul\":21985:22056   */\n      tag_694\n      jumpi\n        /* \"#utility.yul\":22052:22053   */\n      0x00\n        /* \"#utility.yul\":22049:22050   */\n      dup1\n        /* \"#utility.yul\":22042:22054   */\n      revert\n        /* \"#utility.yul\":21985:22056   */\n    tag_694:\n        /* \"#utility.yul\":21924:22062   */\n      pop\n      jump\t// out\n        /* \"#utility.yul\":22068:22227   */\n    tag_436:\n        /* \"#utility.yul\":22133:22138   */\n      0x00\n        /* \"#utility.yul\":22164:22170   */\n      dup2\n        /* \"#utility.yul\":22158:22171   */\n      mload\n        /* \"#utility.yul\":22149:22171   */\n      swap1\n      pop\n        /* \"#utility.yul\":22180:22221   */\n      tag_696\n        /* \"#utility.yul\":22215:22220   */\n      dup2\n        /* \"#utility.yul\":22180:22221   */\n      tag_435\n      jump\t// in\n    tag_696:\n        /* \"#utility.yul\":22068:22227   */\n      swap3\n      swap2\n      pop\n      pop\n      jump\t// out\n        /* \"#utility.yul\":22233:24626   */\n    tag_258:\n        /* \"#utility.yul\":22463:22469   */\n      0x00\n        /* \"#utility.yul\":22471:22477   */\n      dup1\n        /* \"#utility.yul\":22479:22485   */\n      0x00\n        /* \"#utility.yul\":22487:22493   */\n      dup1\n        /* \"#utility.yul\":22495:22501   */\n      0x00\n        /* \"#utility.yul\":22503:22509   */\n      dup1\n        /* \"#utility.yul\":22511:22517   */\n      0x00\n        /* \"#utility.yul\":22519:22525   */\n      dup1\n        /* \"#utility.yul\":22527:22533   */\n      0x00\n        /* \"#utility.yul\":22576:22579   */\n      0x0120\n        /* \"#utility.yul\":22564:22573   */\n      dup11\n        /* \"#utility.yul\":22555:22562   */\n      dup13\n        /* \"#utility.yul\":22551:22574   */\n      sub\n        /* \"#utility.yul\":22547:22580   */\n      slt\n        /* \"#utility.yul\":22544:22664   */\n      iszero\n      tag_698\n      jumpi\n        /* \"#utility.yul\":22583:22662   */\n      tag_699\n      tag_377\n      jump\t// in\n    tag_699:\n        /* \"#utility.yul\":22544:22664   */\n    tag_698:\n        /* \"#utility.yul\":22724:22725   */\n      0x00\n        /* \"#utility.yul\":22713:22722   */\n      dup11\n        /* \"#utility.yul\":22709:22726   */\n      add\n        /* \"#utility.yul\":22703:22727   */\n      mload\n        /* \"#utility.yul\":22754:22772   */\n      0xffffffffffffffff\n        /* \"#utility.yul\":22746:22752   */\n      dup2\n        /* \"#utility.yul\":22743:22773   */\n      gt\n        /* \"#utility.yul\":22740:22857   */\n      iszero\n      tag_700\n      jumpi\n        /* \"#utility.yul\":22776:22855   */\n      tag_701\n      tag_378\n      jump\t// in\n    tag_701:\n        /* \"#utility.yul\":22740:22857   */\n    tag_700:\n        /* \"#utility.yul\":22881:22970   */\n      tag_702\n        /* \"#utility.yul\":22962:22969   */\n      dup13\n        /* \"#utility.yul\":22953:22959   */\n      dup3\n        /* \"#utility.yul\":22942:22951   */\n      dup14\n        /* \"#utility.yul\":22938:22960   */\n      add\n        /* \"#utility.yul\":22881:22970   */\n      tag_425\n      jump\t// in\n    tag_702:\n        /* \"#utility.yul\":22871:22970   */\n      swap10\n      pop\n        /* \"#utility.yul\":22674:22980   */\n      pop\n        /* \"#utility.yul\":23040:23042   */\n      0x20\n        /* \"#utility.yul\":23029:23038   */\n      dup11\n        /* \"#utility.yul\":23025:23043   */\n      add\n        /* \"#utility.yul\":23019:23044   */\n      mload\n        /* \"#utility.yul\":23071:23089   */\n      0xffffffffffffffff\n        /* \"#utility.yul\":23063:23069   */\n      dup2\n        /* \"#utility.yul\":23060:23090   */\n      gt\n        /* \"#utility.yul\":23057:23174   */\n      iszero\n      tag_703\n      jumpi\n        /* \"#utility.yul\":23093:23172   */\n      tag_704\n      tag_378\n      jump\t// in\n    tag_704:\n        /* \"#utility.yul\":23057:23174   */\n    tag_703:\n        /* \"#utility.yul\":23198:23297   */\n      tag_705\n        /* \"#utility.yul\":23289:23296   */\n      dup13\n        /* \"#utility.yul\":23280:23286   */\n      dup3\n        /* \"#utility.yul\":23269:23278   */\n      dup14\n        /* \"#utility.yul\":23265:23287   */\n      add\n        /* \"#utility.yul\":23198:23297   */\n      tag_432\n      jump\t// in\n    tag_705:\n        /* \"#utility.yul\":23188:23297   */\n      swap9\n      pop\n        /* \"#utility.yul\":22990:23307   */\n      pop\n        /* \"#utility.yul\":23367:23369   */\n      0x40\n        /* \"#utility.yul\":23356:23365   */\n      dup11\n        /* \"#utility.yul\":23352:23370   */\n      add\n        /* \"#utility.yul\":23346:23371   */\n      mload\n        /* \"#utility.yul\":23398:23416   */\n      0xffffffffffffffff\n        /* \"#utility.yul\":23390:23396   */\n      dup2\n        /* \"#utility.yul\":23387:23417   */\n      gt\n        /* \"#utility.yul\":23384:23501   */\n      iszero\n      tag_706\n      jumpi\n        /* \"#utility.yul\":23420:23499   */\n      tag_707\n      tag_378\n      jump\t// in\n    tag_707:\n        /* \"#utility.yul\":23384:23501   */\n    tag_706:\n        /* \"#utility.yul\":23525:23599   */\n      tag_708\n        /* \"#utility.yul\":23591:23598   */\n      dup13\n        /* \"#utility.yul\":23582:23588   */\n      dup3\n        /* \"#utility.yul\":23571:23580   */\n      dup14\n        /* \"#utility.yul\":23567:23589   */\n      add\n        /* \"#utility.yul\":23525:23599   */\n      tag_430\n      jump\t// in\n    tag_708:\n        /* \"#utility.yul\":23515:23599   */\n      swap8\n      pop\n        /* \"#utility.yul\":23317:23609   */\n      pop\n        /* \"#utility.yul\":23669:23671   */\n      0x60\n        /* \"#utility.yul\":23658:23667   */\n      dup11\n        /* \"#utility.yul\":23654:23672   */\n      add\n        /* \"#utility.yul\":23648:23673   */\n      mload\n        /* \"#utility.yul\":23700:23718   */\n      0xffffffffffffffff\n        /* \"#utility.yul\":23692:23698   */\n      dup2\n        /* \"#utility.yul\":23689:23719   */\n      gt\n        /* \"#utility.yul\":23686:23803   */\n      iszero\n      tag_709\n      jumpi\n        /* \"#utility.yul\":23722:23801   */\n      tag_710\n      tag_378\n      jump\t// in\n    tag_710:\n        /* \"#utility.yul\":23686:23803   */\n    tag_709:\n        /* \"#utility.yul\":23827:23901   */\n      tag_711\n        /* \"#utility.yul\":23893:23900   */\n      dup13\n        /* \"#utility.yul\":23884:23890   */\n      dup3\n        /* \"#utility.yul\":23873:23882   */\n      dup14\n        /* \"#utility.yul\":23869:23891   */\n      add\n        /* \"#utility.yul\":23827:23901   */\n      tag_430\n      jump\t// in\n    tag_711:\n        /* \"#utility.yul\":23817:23901   */\n      swap7\n      pop\n        /* \"#utility.yul\":23619:23911   */\n      pop\n        /* \"#utility.yul\":23950:23953   */\n      0x80\n        /* \"#utility.yul\":23977:24041   */\n      tag_712\n        /* \"#utility.yul\":24033:24040   */\n      dup13\n        /* \"#utility.yul\":24024:24030   */\n      dup3\n        /* \"#utility.yul\":24013:24022   */\n      dup14\n        /* \"#utility.yul\":24009:24031   */\n      add\n        /* \"#utility.yul\":23977:24041   */\n      tag_433\n      jump\t// in\n    tag_712:\n        /* \"#utility.yul\":23967:24041   */\n      swap6\n      pop\n        /* \"#utility.yul\":23921:24051   */\n      pop\n        /* \"#utility.yul\":24090:24093   */\n      0xa0\n        /* \"#utility.yul\":24117:24181   */\n      tag_713\n        /* \"#utility.yul\":24173:24180   */\n      dup13\n        /* \"#utility.yul\":24164:24170   */\n      dup3\n        /* \"#utility.yul\":24153:24162   */\n      dup14\n        /* \"#utility.yul\":24149:24171   */\n      add\n        /* \"#utility.yul\":24117:24181   */\n      tag_433\n      jump\t// in\n    tag_713:\n        /* \"#utility.yul\":24107:24181   */\n      swap5\n      pop\n        /* \"#utility.yul\":24061:24191   */\n      pop\n        /* \"#utility.yul\":24230:24233   */\n      0xc0\n        /* \"#utility.yul\":24257:24321   */\n      tag_714\n        /* \"#utility.yul\":24313:24320   */\n      dup13\n        /* \"#utility.yul\":24304:24310   */\n      dup3\n        /* \"#utility.yul\":24293:24302   */\n      dup14\n        /* \"#utility.yul\":24289:24311   */\n      add\n        /* \"#utility.yul\":24257:24321   */\n      tag_433\n      jump\t// in\n    tag_714:\n        /* \"#utility.yul\":24247:24321   */\n      swap4\n      pop\n        /* \"#utility.yul\":24201:24331   */\n      pop\n        /* \"#utility.yul\":24370:24373   */\n      0xe0\n        /* \"#utility.yul\":24397:24461   */\n      tag_715\n        /* \"#utility.yul\":24453:24460   */\n      dup13\n        /* \"#utility.yul\":24444:24450   */\n      dup3\n        /* \"#utility.yul\":24433:24442   */\n      dup14\n        /* \"#utility.yul\":24429:24451   */\n      add\n        /* \"#utility.yul\":24397:24461   */\n      tag_433\n      jump\t// in\n    tag_715:\n        /* \"#utility.yul\":24387:24461   */\n      swap3\n      pop\n        /* \"#utility.yul\":24341:24471   */\n      pop\n        /* \"#utility.yul\":24510:24513   */\n      0x0100\n        /* \"#utility.yul\":24537:24609   */\n      tag_716\n        /* \"#utility.yul\":24601:24608   */\n      dup13\n        /* \"#utility.yul\":24592:24598   */\n      dup3\n        /* \"#utility.yul\":24581:24590   */\n      dup14\n        /* \"#utility.yul\":24577:24599   */\n      add\n        /* \"#utility.yul\":24537:24609   */\n      tag_436\n      jump\t// in\n    tag_716:\n        /* \"#utility.yul\":24527:24609   */\n      swap2\n      pop\n        /* \"#utility.yul\":24481:24619   */\n      pop\n        /* \"#utility.yul\":22233:24626   */\n      swap3\n      swap6\n      swap9\n      pop\n      swap3\n      swap6\n      swap9\n      pop\n      swap3\n      swap6\n      swap9\n      jump\t// out\n        /* \"#utility.yul\":24632:24756   */\n    tag_437:\n        /* \"#utility.yul\":24709:24715   */\n      0x00\n        /* \"#utility.yul\":24743:24748   */\n      dup2\n        /* \"#utility.yul\":24737:24749   */\n      mload\n        /* \"#utility.yul\":24727:24749   */\n      swap1\n      pop\n        /* \"#utility.yul\":24632:24756   */\n      swap2\n      swap1\n      pop\n      jump\t// out\n        /* \"#utility.yul\":24762:24956   */\n    tag_438:\n        /* \"#utility.yul\":24871:24882   */\n      0x00\n        /* \"#utility.yul\":24905:24911   */\n      dup3\n        /* \"#utility.yul\":24900:24903   */\n      dup3\n        /* \"#utility.yul\":24893:24912   */\n      mstore\n        /* \"#utility.yul\":24945:24949   */\n      0x20\n        /* \"#utility.yul\":24940:24943   */\n      dup3\n        /* \"#utility.yul\":24936:24950   */\n      add\n        /* \"#utility.yul\":24921:24950   */\n      swap1\n      pop\n        /* \"#utility.yul\":24762:24956   */\n      swap3\n      swap2\n      pop\n      pop\n      jump\t// out\n        /* \"#utility.yul\":24962:25104   */\n    tag_439:\n        /* \"#utility.yul\":25039:25043   */\n      0x00\n        /* \"#utility.yul\":25062:25065   */\n      dup2\n        /* \"#utility.yul\":25054:25065   */\n      swap1\n      pop\n        /* \"#utility.yul\":25092:25096   */\n      0x20\n        /* \"#utility.yul\":25087:25090   */\n      dup3\n        /* \"#utility.yul\":25083:25097   */\n      add\n        /* \"#utility.yul\":25075:25097   */\n      swap1\n      pop\n        /* \"#utility.yul\":24962:25104   */\n      swap2\n      swap1\n      pop\n      jump\t// out\n        /* \"#utility.yul\":25110:25209   */\n    tag_440:\n        /* \"#utility.yul\":25162:25168   */\n      0x00\n        /* \"#utility.yul\":25196:25201   */\n      dup2\n        /* \"#utility.yul\":25190:25202   */\n      mload\n        /* \"#utility.yul\":25180:25202   */\n      swap1\n      pop\n        /* \"#utility.yul\":25110:25209   */\n      swap2\n      swap1\n      pop\n      jump\t// out\n        /* \"#utility.yul\":25215:25374   */\n    tag_441:\n        /* \"#utility.yul\":25289:25300   */\n      0x00\n        /* \"#utility.yul\":25323:25329   */\n      dup3\n        /* \"#utility.yul\":25318:25321   */\n      dup3\n        /* \"#utility.yul\":25311:25330   */\n      mstore\n        /* \"#utility.yul\":25363:25367   */\n      0x20\n        /* \"#utility.yul\":25358:25361   */\n      dup3\n        /* \"#utility.yul\":25354:25368   */\n      add\n        /* \"#utility.yul\":25339:25368   */\n      swap1\n      pop\n        /* \"#utility.yul\":25215:25374   */\n      swap3\n      swap2\n      pop\n      pop\n      jump\t// out\n        /* \"#utility.yul\":25380:25737   */\n    tag_442:\n        /* \"#utility.yul\":25458:25461   */\n      0x00\n        /* \"#utility.yul\":25486:25525   */\n      tag_723\n        /* \"#utility.yul\":25519:25524   */\n      dup3\n        /* \"#utility.yul\":25486:25525   */\n      tag_440\n      jump\t// in\n    tag_723:\n        /* \"#utility.yul\":25541:25602   */\n      tag_724\n        /* \"#utility.yul\":25595:25601   */\n      dup2\n        /* \"#utility.yul\":25590:25593   */\n      dup6\n        /* \"#utility.yul\":25541:25602   */\n      tag_441\n      jump\t// in\n    tag_724:\n        /* \"#utility.yul\":25534:25602   */\n      swap4\n      pop\n        /* \"#utility.yul\":25611:25676   */\n      tag_725\n        /* \"#utility.yul\":25669:25675   */\n      dup2\n        /* \"#utility.yul\":25664:25667   */\n      dup6\n        /* \"#utility.yul\":25657:25661   */\n      0x20\n        /* \"#utility.yul\":25650:25655   */\n      dup7\n        /* \"#utility.yul\":25646:25662   */\n      add\n        /* \"#utility.yul\":25611:25676   */\n      tag_428\n      jump\t// in\n    tag_725:\n        /* \"#utility.yul\":25701:25730   */\n      tag_726\n        /* \"#utility.yul\":25723:25729   */\n      dup2\n        /* \"#utility.yul\":25701:25730   */\n      tag_400\n      jump\t// in\n    tag_726:\n        /* \"#utility.yul\":25696:25699   */\n      dup5\n        /* \"#utility.yul\":25692:25731   */\n      add\n        /* \"#utility.yul\":25685:25731   */\n      swap2\n      pop\n        /* \"#utility.yul\":25462:25737   */\n      pop\n        /* \"#utility.yul\":25380:25737   */\n      swap3\n      swap2\n      pop\n      pop\n      jump\t// out\n        /* \"#utility.yul\":25743:25939   */\n    tag_443:\n        /* \"#utility.yul\":25832:25842   */\n      0x00\n        /* \"#utility.yul\":25867:25933   */\n      tag_728\n        /* \"#utility.yul\":25929:25932   */\n      dup4\n        /* \"#utility.yul\":25921:25927   */\n      dup4\n        /* \"#utility.yul\":25867:25933   */\n      tag_442\n      jump\t// in\n    tag_728:\n        /* \"#utility.yul\":25853:25933   */\n      swap1\n      pop\n        /* \"#utility.yul\":25743:25939   */\n      swap3\n      swap2\n      pop\n      pop\n      jump\t// out\n        /* \"#utility.yul\":25945:26068   */\n    tag_444:\n        /* \"#utility.yul\":26025:26029   */\n      0x00\n        /* \"#utility.yul\":26057:26061   */\n      0x20\n        /* \"#utility.yul\":26052:26055   */\n      dup3\n        /* \"#utility.yul\":26048:26062   */\n      add\n        /* \"#utility.yul\":26040:26062   */\n      swap1\n      pop\n        /* \"#utility.yul\":25945:26068   */\n      swap2\n      swap1\n      pop\n      jump\t// out\n        /* \"#utility.yul\":26102:27093   */\n    tag_445:\n        /* \"#utility.yul\":26241:26244   */\n      0x00\n        /* \"#utility.yul\":26270:26334   */\n      tag_731\n        /* \"#utility.yul\":26328:26333   */\n      dup3\n        /* \"#utility.yul\":26270:26334   */\n      tag_437\n      jump\t// in\n    tag_731:\n        /* \"#utility.yul\":26350:26446   */\n      tag_732\n        /* \"#utility.yul\":26439:26445   */\n      dup2\n        /* \"#utility.yul\":26434:26437   */\n      dup6\n        /* \"#utility.yul\":26350:26446   */\n      tag_438\n      jump\t// in\n    tag_732:\n        /* \"#utility.yul\":26343:26446   */\n      swap4\n      pop\n        /* \"#utility.yul\":26472:26475   */\n      dup4\n        /* \"#utility.yul\":26517:26521   */\n      0x20\n        /* \"#utility.yul\":26509:26515   */\n      dup3\n        /* \"#utility.yul\":26505:26522   */\n      mul\n        /* \"#utility.yul\":26500:26503   */\n      dup6\n        /* \"#utility.yul\":26496:26523   */\n      add\n        /* \"#utility.yul\":26547:26613   */\n      tag_733\n        /* \"#utility.yul\":26607:26612   */\n      dup6\n        /* \"#utility.yul\":26547:26613   */\n      tag_439\n      jump\t// in\n    tag_733:\n        /* \"#utility.yul\":26636:26643   */\n      dup1\n        /* \"#utility.yul\":26667:26668   */\n      0x00\n        /* \"#utility.yul\":26652:27048   */\n    tag_734:\n        /* \"#utility.yul\":26677:26683   */\n      dup6\n        /* \"#utility.yul\":26674:26675   */\n      dup2\n        /* \"#utility.yul\":26671:26684   */\n      lt\n        /* \"#utility.yul\":26652:27048   */\n      iszero\n      tag_736\n      jumpi\n        /* \"#utility.yul\":26748:26757   */\n      dup5\n        /* \"#utility.yul\":26742:26746   */\n      dup5\n        /* \"#utility.yul\":26738:26758   */\n      sub\n        /* \"#utility.yul\":26733:26736   */\n      dup10\n        /* \"#utility.yul\":26726:26759   */\n      mstore\n        /* \"#utility.yul\":26799:26805   */\n      dup2\n        /* \"#utility.yul\":26793:26806   */\n      mload\n        /* \"#utility.yul\":26827:26911   */\n      tag_737\n        /* \"#utility.yul\":26906:26910   */\n      dup6\n        /* \"#utility.yul\":26891:26904   */\n      dup3\n        /* \"#utility.yul\":26827:26911   */\n      tag_443\n      jump\t// in\n    tag_737:\n        /* \"#utility.yul\":26819:26911   */\n      swap5\n      pop\n        /* \"#utility.yul\":26934:27004   */\n      tag_738\n        /* \"#utility.yul\":26997:27003   */\n      dup4\n        /* \"#utility.yul\":26934:27004   */\n      tag_444\n      jump\t// in\n    tag_738:\n        /* \"#utility.yul\":26924:27004   */\n      swap3\n      pop\n        /* \"#utility.yul\":27033:27037   */\n      0x20\n        /* \"#utility.yul\":27028:27031   */\n      dup11\n        /* \"#utility.yul\":27024:27038   */\n      add\n        /* \"#utility.yul\":27017:27038   */\n      swap10\n      pop\n        /* \"#utility.yul\":26712:27048   */\n      pop\n        /* \"#utility.yul\":26699:26700   */\n      0x01\n        /* \"#utility.yul\":26696:26697   */\n      dup2\n        /* \"#utility.yul\":26692:26701   */\n      add\n        /* \"#utility.yul\":26687:26701   */\n      swap1\n      pop\n        /* \"#utility.yul\":26652:27048   */\n      jump(tag_734)\n    tag_736:\n        /* \"#utility.yul\":26656:26670   */\n      pop\n        /* \"#utility.yul\":27064:27068   */\n      dup3\n        /* \"#utility.yul\":27057:27068   */\n      swap8\n      pop\n        /* \"#utility.yul\":27084:27087   */\n      dup8\n        /* \"#utility.yul\":27077:27087   */\n      swap6\n      pop\n        /* \"#utility.yul\":26246:27093   */\n      pop\n      pop\n      pop\n      pop\n      pop\n        /* \"#utility.yul\":26102:27093   */\n      swap3\n      swap2\n      pop\n      pop\n      jump\t// out\n        /* \"#utility.yul\":27099:27476   */\n    tag_446:\n        /* \"#utility.yul\":27187:27190   */\n      0x00\n        /* \"#utility.yul\":27215:27254   */\n      tag_740\n        /* \"#utility.yul\":27248:27253   */\n      dup3\n        /* \"#utility.yul\":27215:27254   */\n      tag_440\n      jump\t// in\n    tag_740:\n        /* \"#utility.yul\":27270:27341   */\n      tag_741\n        /* \"#utility.yul\":27334:27340   */\n      dup2\n        /* \"#utility.yul\":27329:27332   */\n      dup6\n        /* \"#utility.yul\":27270:27341   */\n      tag_407\n      jump\t// in\n    tag_741:\n        /* \"#utility.yul\":27263:27341   */\n      swap4\n      pop\n        /* \"#utility.yul\":27350:27415   */\n      tag_742\n        /* \"#utility.yul\":27408:27414   */\n      dup2\n        /* \"#utility.yul\":27403:27406   */\n      dup6\n        /* \"#utility.yul\":27396:27400   */\n      0x20\n        /* \"#utility.yul\":27389:27394   */\n      dup7\n        /* \"#utility.yul\":27385:27401   */\n      add\n        /* \"#utility.yul\":27350:27415   */\n      tag_428\n      jump\t// in\n    tag_742:\n        /* \"#utility.yul\":27440:27469   */\n      tag_743\n        /* \"#utility.yul\":27462:27468   */\n      dup2\n        /* \"#utility.yul\":27440:27469   */\n      tag_400\n      jump\t// in\n    tag_743:\n        /* \"#utility.yul\":27435:27438   */\n      dup5\n        /* \"#utility.yul\":27431:27470   */\n      add\n        /* \"#utility.yul\":27424:27470   */\n      swap2\n      pop\n        /* \"#utility.yul\":27191:27476   */\n      pop\n        /* \"#utility.yul\":27099:27476   */\n      swap3\n      swap2\n      pop\n      pop\n      jump\t// out\n        /* \"#utility.yul\":27482:29003   */\n    tag_260:\n        /* \"#utility.yul\":27931:27935   */\n      0x00\n        /* \"#utility.yul\":27969:27972   */\n      0x0100\n        /* \"#utility.yul\":27958:27967   */\n      dup3\n        /* \"#utility.yul\":27954:27973   */\n      add\n        /* \"#utility.yul\":27946:27973   */\n      swap1\n      pop\n        /* \"#utility.yul\":28019:28028   */\n      dup2\n        /* \"#utility.yul\":28013:28017   */\n      dup2\n        /* \"#utility.yul\":28009:28029   */\n      sub\n        /* \"#utility.yul\":28005:28006   */\n      0x00\n        /* \"#utility.yul\":27994:28003   */\n      dup4\n        /* \"#utility.yul\":27990:28007   */\n      add\n        /* \"#utility.yul\":27983:28030   */\n      mstore\n        /* \"#utility.yul\":28047:28155   */\n      tag_745\n        /* \"#utility.yul\":28150:28154   */\n      dup2\n        /* \"#utility.yul\":28141:28147   */\n      dup12\n        /* \"#utility.yul\":28047:28155   */\n      tag_395\n      jump\t// in\n    tag_745:\n        /* \"#utility.yul\":28039:28155   */\n      swap1\n      pop\n        /* \"#utility.yul\":28202:28211   */\n      dup2\n        /* \"#utility.yul\":28196:28200   */\n      dup2\n        /* \"#utility.yul\":28192:28212   */\n      sub\n        /* \"#utility.yul\":28187:28189   */\n      0x20\n        /* \"#utility.yul\":28176:28185   */\n      dup4\n        /* \"#utility.yul\":28172:28190   */\n      add\n        /* \"#utility.yul\":28165:28213   */\n      mstore\n        /* \"#utility.yul\":28230:28358   */\n      tag_746\n        /* \"#utility.yul\":28353:28357   */\n      dup2\n        /* \"#utility.yul\":28344:28350   */\n      dup11\n        /* \"#utility.yul\":28230:28358   */\n      tag_445\n      jump\t// in\n    tag_746:\n        /* \"#utility.yul\":28222:28358   */\n      swap1\n      pop\n        /* \"#utility.yul\":28405:28414   */\n      dup2\n        /* \"#utility.yul\":28399:28403   */\n      dup2\n        /* \"#utility.yul\":28395:28415   */\n      sub\n        /* \"#utility.yul\":28390:28392   */\n      0x40\n        /* \"#utility.yul\":28379:28388   */\n      dup4\n        /* \"#utility.yul\":28375:28393   */\n      add\n        /* \"#utility.yul\":28368:28416   */\n      mstore\n        /* \"#utility.yul\":28433:28511   */\n      tag_747\n        /* \"#utility.yul\":28506:28510   */\n      dup2\n        /* \"#utility.yul\":28497:28503   */\n      dup10\n        /* \"#utility.yul\":28433:28511   */\n      tag_446\n      jump\t// in\n    tag_747:\n        /* \"#utility.yul\":28425:28511   */\n      swap1\n      pop\n        /* \"#utility.yul\":28558:28567   */\n      dup2\n        /* \"#utility.yul\":28552:28556   */\n      dup2\n        /* \"#utility.yul\":28548:28568   */\n      sub\n        /* \"#utility.yul\":28543:28545   */\n      0x60\n        /* \"#utility.yul\":28532:28541   */\n      dup4\n        /* \"#utility.yul\":28528:28546   */\n      add\n        /* \"#utility.yul\":28521:28569   */\n      mstore\n        /* \"#utility.yul\":28586:28664   */\n      tag_748\n        /* \"#utility.yul\":28659:28663   */\n      dup2\n        /* \"#utility.yul\":28650:28656   */\n      dup9\n        /* \"#utility.yul\":28586:28664   */\n      tag_446\n      jump\t// in\n    tag_748:\n        /* \"#utility.yul\":28578:28664   */\n      swap1\n      pop\n        /* \"#utility.yul\":28674:28747   */\n      tag_749\n        /* \"#utility.yul\":28742:28745   */\n      0x80\n        /* \"#utility.yul\":28731:28740   */\n      dup4\n        /* \"#utility.yul\":28727:28746   */\n      add\n        /* \"#utility.yul\":28718:28724   */\n      dup8\n        /* \"#utility.yul\":28674:28747   */\n      tag_375\n      jump\t// in\n    tag_749:\n        /* \"#utility.yul\":28757:28830   */\n      tag_750\n        /* \"#utility.yul\":28825:28828   */\n      0xa0\n        /* \"#utility.yul\":28814:28823   */\n      dup4\n        /* \"#utility.yul\":28810:28829   */\n      add\n        /* \"#utility.yul\":28801:28807   */\n      dup7\n        /* \"#utility.yul\":28757:28830   */\n      tag_375\n      jump\t// in\n    tag_750:\n        /* \"#utility.yul\":28840:28913   */\n      tag_751\n        /* \"#utility.yul\":28908:28911   */\n      0xc0\n        /* \"#utility.yul\":28897:28906   */\n      dup4\n        /* \"#utility.yul\":28893:28912   */\n      add\n        /* \"#utility.yul\":28884:28890   */\n      dup6\n        /* \"#utility.yul\":28840:28913   */\n      tag_375\n      jump\t// in\n    tag_751:\n        /* \"#utility.yul\":28923:28996   */\n      tag_752\n        /* \"#utility.yul\":28991:28994   */\n      0xe0\n        /* \"#utility.yul\":28980:28989   */\n      dup4\n        /* \"#utility.yul\":28976:28995   */\n      add\n        /* \"#utility.yul\":28967:28973   */\n      dup5\n        /* \"#utility.yul\":28923:28996   */\n      tag_388\n      jump\t// in\n    tag_752:\n        /* \"#utility.yul\":27482:29003   */\n      swap10\n      swap9\n      pop\n      pop\n      pop\n      pop\n      pop\n      pop\n      pop\n      pop\n      pop\n      jump\t// out\n        /* \"#utility.yul\":29009:29125   */\n    tag_447:\n        /* \"#utility.yul\":29079:29100   */\n      tag_754\n        /* \"#utility.yul\":29094:29099   */\n      dup2\n        /* \"#utility.yul\":29079:29100   */\n      tag_396\n      jump\t// in\n    tag_754:\n        /* \"#utility.yul\":29072:29077   */\n      dup2\n        /* \"#utility.yul\":29069:29101   */\n      eq\n        /* \"#utility.yul\":29059:29119   */\n      tag_755\n      jumpi\n        /* \"#utility.yul\":29115:29116   */\n      0x00\n        /* \"#utility.yul\":29112:29113   */\n      dup1\n        /* \"#utility.yul\":29105:29117   */\n      revert\n        /* \"#utility.yul\":29059:29119   */\n    tag_755:\n        /* \"#utility.yul\":29009:29125   */\n      pop\n      jump\t// out\n        /* \"#utility.yul\":29131:29268   */\n    tag_448:\n        /* \"#utility.yul\":29185:29190   */\n      0x00\n        /* \"#utility.yul\":29216:29222   */\n      dup2\n        /* \"#utility.yul\":29210:29223   */\n      mload\n        /* \"#utility.yul\":29201:29223   */\n      swap1\n      pop\n        /* \"#utility.yul\":29232:29262   */\n      tag_757\n        /* \"#utility.yul\":29256:29261   */\n      dup2\n        /* \"#utility.yul\":29232:29262   */\n      tag_447\n      jump\t// in\n    tag_757:\n        /* \"#utility.yul\":29131:29268   */\n      swap3\n      swap2\n      pop\n      pop\n      jump\t// out\n        /* \"#utility.yul\":29274:29619   */\n    tag_264:\n        /* \"#utility.yul\":29341:29347   */\n      0x00\n        /* \"#utility.yul\":29390:29392   */\n      0x20\n        /* \"#utility.yul\":29378:29387   */\n      dup3\n        /* \"#utility.yul\":29369:29376   */\n      dup5\n        /* \"#utility.yul\":29365:29388   */\n      sub\n        /* \"#utility.yul\":29361:29393   */\n      slt\n        /* \"#utility.yul\":29358:29477   */\n      iszero\n      tag_759\n      jumpi\n        /* \"#utility.yul\":29396:29475   */\n      tag_760\n      tag_377\n      jump\t// in\n    tag_760:\n        /* \"#utility.yul\":29358:29477   */\n    tag_759:\n        /* \"#utility.yul\":29516:29517   */\n      0x00\n        /* \"#utility.yul\":29541:29602   */\n      tag_761\n        /* \"#utility.yul\":29594:29601   */\n      dup5\n        /* \"#utility.yul\":29585:29591   */\n      dup3\n        /* \"#utility.yul\":29574:29583   */\n      dup6\n        /* \"#utility.yul\":29570:29592   */\n      add\n        /* \"#utility.yul\":29541:29602   */\n      tag_448\n      jump\t// in\n    tag_761:\n        /* \"#utility.yul\":29531:29602   */\n      swap2\n      pop\n        /* \"#utility.yul\":29487:29612   */\n      pop\n        /* \"#utility.yul\":29274:29619   */\n      swap3\n      swap2\n      pop\n      pop\n      jump\t// out\n        /* \"#utility.yul\":29625:29850   */\n    tag_449:\n        /* \"#utility.yul\":29765:29799   */\n      0x4f776e61626c653a206e6577206f776e657220697320746865207a65726f2061\n        /* \"#utility.yul\":29761:29762   */\n      0x00\n        /* \"#utility.yul\":29753:29759   */\n      dup3\n        /* \"#utility.yul\":29749:29763   */\n      add\n        /* \"#utility.yul\":29742:29800   */\n      mstore\n        /* \"#utility.yul\":29834:29842   */\n      0x6464726573730000000000000000000000000000000000000000000000000000\n        /* \"#utility.yul\":29829:29831   */\n      0x20\n        /* \"#utility.yul\":29821:29827   */\n      dup3\n        /* \"#utility.yul\":29817:29832   */\n      add\n        /* \"#utility.yul\":29810:29843   */\n      mstore\n        /* \"#utility.yul\":29625:29850   */\n      pop\n      jump\t// out\n        /* \"#utility.yul\":29856:30222   */\n    tag_450:\n        /* \"#utility.yul\":29998:30001   */\n      0x00\n        /* \"#utility.yul\":30019:30086   */\n      tag_764\n        /* \"#utility.yul\":30083:30085   */\n      0x26\n        /* \"#utility.yul\":30078:30081   */\n      dup4\n        /* \"#utility.yul\":30019:30086   */\n      tag_407\n      jump\t// in\n    tag_764:\n        /* \"#utility.yul\":30012:30086   */\n      swap2\n      pop\n        /* \"#utility.yul\":30095:30188   */\n      tag_765\n        /* \"#utility.yul\":30184:30187   */\n      dup3\n        /* \"#utility.yul\":30095:30188   */\n      tag_449\n      jump\t// in\n    tag_765:\n        /* \"#utility.yul\":30213:30215   */\n      0x40\n        /* \"#utility.yul\":30208:30211   */\n      dup3\n        /* \"#utility.yul\":30204:30216   */\n      add\n        /* \"#utility.yul\":30197:30216   */\n      swap1\n      pop\n        /* \"#utility.yul\":29856:30222   */\n      swap2\n      swap1\n      pop\n      jump\t// out\n        /* \"#utility.yul\":30228:30647   */\n    tag_272:\n        /* \"#utility.yul\":30394:30398   */\n      0x00\n        /* \"#utility.yul\":30432:30434   */\n      0x20\n        /* \"#utility.yul\":30421:30430   */\n      dup3\n        /* \"#utility.yul\":30417:30435   */\n      add\n        /* \"#utility.yul\":30409:30435   */\n      swap1\n      pop\n        /* \"#utility.yul\":30481:30490   */\n      dup2\n        /* \"#utility.yul\":30475:30479   */\n      dup2\n        /* \"#utility.yul\":30471:30491   */\n      sub\n        /* \"#utility.yul\":30467:30468   */\n      0x00\n        /* \"#utility.yul\":30456:30465   */\n      dup4\n        /* \"#utility.yul\":30452:30469   */\n      add\n        /* \"#utility.yul\":30445:30492   */\n      mstore\n        /* \"#utility.yul\":30509:30640   */\n      tag_767\n        /* \"#utility.yul\":30635:30639   */\n      dup2\n        /* \"#utility.yul\":30509:30640   */\n      tag_450\n      jump\t// in\n    tag_767:\n        /* \"#utility.yul\":30501:30640   */\n      swap1\n      pop\n        /* \"#utility.yul\":30228:30647   */\n      swap2\n      swap1\n      pop\n      jump\t// out\n        /* \"#utility.yul\":30653:30834   */\n    tag_451:\n        /* \"#utility.yul\":30793:30826   */\n      0x5265656e7472616e637947756172643a207265656e7472616e742063616c6c00\n        /* \"#utility.yul\":30789:30790   */\n      0x00\n        /* \"#utility.yul\":30781:30787   */\n      dup3\n        /* \"#utility.yul\":30777:30791   */\n      add\n        /* \"#utility.yul\":30770:30827   */\n      mstore\n        /* \"#utility.yul\":30653:30834   */\n      pop\n      jump\t// out\n        /* \"#utility.yul\":30840:31206   */\n    tag_452:\n        /* \"#utility.yul\":30982:30985   */\n      0x00\n        /* \"#utility.yul\":31003:31070   */\n      tag_770\n        /* \"#utility.yul\":31067:31069   */\n      0x1f\n        /* \"#utility.yul\":31062:31065   */\n      dup4\n        /* \"#utility.yul\":31003:31070   */\n      tag_407\n      jump\t// in\n    tag_770:\n        /* \"#utility.yul\":30996:31070   */\n      swap2\n      pop\n        /* \"#utility.yul\":31079:31172   */\n      tag_771\n        /* \"#utility.yul\":31168:31171   */\n      dup3\n        /* \"#utility.yul\":31079:31172   */\n      tag_451\n      jump\t// in\n    tag_771:\n        /* \"#utility.yul\":31197:31199   */\n      0x20\n        /* \"#utility.yul\":31192:31195   */\n      dup3\n        /* \"#utility.yul\":31188:31200   */\n      add\n        /* \"#utility.yul\":31181:31200   */\n      swap1\n      pop\n        /* \"#utility.yul\":30840:31206   */\n      swap2\n      swap1\n      pop\n      jump\t// out\n        /* \"#utility.yul\":31212:31631   */\n    tag_280:\n        /* \"#utility.yul\":31378:31382   */\n      0x00\n        /* \"#utility.yul\":31416:31418   */\n      0x20\n        /* \"#utility.yul\":31405:31414   */\n      dup3\n        /* \"#utility.yul\":31401:31419   */\n      add\n        /* \"#utility.yul\":31393:31419   */\n      swap1\n      pop\n        /* \"#utility.yul\":31465:31474   */\n      dup2\n        /* \"#utility.yul\":31459:31463   */\n      dup2\n        /* \"#utility.yul\":31455:31475   */\n      sub\n        /* \"#utility.yul\":31451:31452   */\n      0x00\n        /* \"#utility.yul\":31440:31449   */\n      dup4\n        /* \"#utility.yul\":31436:31453   */\n      add\n        /* \"#utility.yul\":31429:31476   */\n      mstore\n        /* \"#utility.yul\":31493:31624   */\n      tag_773\n        /* \"#utility.yul\":31619:31623   */\n      dup2\n        /* \"#utility.yul\":31493:31624   */\n      tag_452\n      jump\t// in\n    tag_773:\n        /* \"#utility.yul\":31485:31624   */\n      swap1\n      pop\n        /* \"#utility.yul\":31212:31631   */\n      swap2\n      swap1\n      pop\n      jump\t// out\n        /* \"#utility.yul\":31637:31818   */\n    tag_453:\n        /* \"#utility.yul\":31777:31810   */\n      0x506c656467653a207374616b652073746f7265616765206973207a65726f2100\n        /* \"#utility.yul\":31773:31774   */\n      0x00\n        /* \"#utility.yul\":31765:31771   */\n      dup3\n        /* \"#utility.yul\":31761:31775   */\n      add\n        /* \"#utility.yul\":31754:31811   */\n      mstore\n        /* \"#utility.yul\":31637:31818   */\n      pop\n      jump\t// out\n        /* \"#utility.yul\":31824:32190   */\n    tag_454:\n        /* \"#utility.yul\":31966:31969   */\n      0x00\n        /* \"#utility.yul\":31987:32054   */\n      tag_776\n        /* \"#utility.yul\":32051:32053   */\n      0x1f\n        /* \"#utility.yul\":32046:32049   */\n      dup4\n        /* \"#utility.yul\":31987:32054   */\n      tag_407\n      jump\t// in\n    tag_776:\n        /* \"#utility.yul\":31980:32054   */\n      swap2\n      pop\n        /* \"#utility.yul\":32063:32156   */\n      tag_777\n        /* \"#utility.yul\":32152:32155   */\n      dup3\n        /* \"#utility.yul\":32063:32156   */\n      tag_453\n      jump\t// in\n    tag_777:\n        /* \"#utility.yul\":32181:32183   */\n      0x20\n        /* \"#utility.yul\":32176:32179   */\n      dup3\n        /* \"#utility.yul\":32172:32184   */\n      add\n        /* \"#utility.yul\":32165:32184   */\n      swap1\n      pop\n        /* \"#utility.yul\":31824:32190   */\n      swap2\n      swap1\n      pop\n      jump\t// out\n        /* \"#utility.yul\":32196:32615   */\n    tag_285:\n        /* \"#utility.yul\":32362:32366   */\n      0x00\n        /* \"#utility.yul\":32400:32402   */\n      0x20\n        /* \"#utility.yul\":32389:32398   */\n      dup3\n        /* \"#utility.yul\":32385:32403   */\n      add\n        /* \"#utility.yul\":32377:32403   */\n      swap1\n      pop\n        /* \"#utility.yul\":32449:32458   */\n      dup2\n        /* \"#utility.yul\":32443:32447   */\n      dup2\n        /* \"#utility.yul\":32439:32459   */\n      sub\n        /* \"#utility.yul\":32435:32436   */\n      0x00\n        /* \"#utility.yul\":32424:32433   */\n      dup4\n        /* \"#utility.yul\":32420:32437   */\n      add\n        /* \"#utility.yul\":32413:32460   */\n      mstore\n        /* \"#utility.yul\":32477:32608   */\n      tag_779\n        /* \"#utility.yul\":32603:32607   */\n      dup2\n        /* \"#utility.yul\":32477:32608   */\n      tag_454\n      jump\t// in\n    tag_779:\n        /* \"#utility.yul\":32469:32608   */\n      swap1\n      pop\n        /* \"#utility.yul\":32196:32615   */\n      swap2\n      swap1\n      pop\n      jump\t// out\n        /* \"#utility.yul\":32621:32972   */\n    tag_291:\n        /* \"#utility.yul\":32691:32697   */\n      0x00\n        /* \"#utility.yul\":32740:32742   */\n      0x20\n        /* \"#utility.yul\":32728:32737   */\n      dup3\n        /* \"#utility.yul\":32719:32726   */\n      dup5\n        /* \"#utility.yul\":32715:32738   */\n      sub\n        /* \"#utility.yul\":32711:32743   */\n      slt\n        /* \"#utility.yul\":32708:32827   */\n      iszero\n      tag_781\n      jumpi\n        /* \"#utility.yul\":32746:32825   */\n      tag_782\n      tag_377\n      jump\t// in\n    tag_782:\n        /* \"#utility.yul\":32708:32827   */\n    tag_781:\n        /* \"#utility.yul\":32866:32867   */\n      0x00\n        /* \"#utility.yul\":32891:32955   */\n      tag_783\n        /* \"#utility.yul\":32947:32954   */\n      dup5\n        /* \"#utility.yul\":32938:32944   */\n      dup3\n        /* \"#utility.yul\":32927:32936   */\n      dup6\n        /* \"#utility.yul\":32923:32945   */\n      add\n        /* \"#utility.yul\":32891:32955   */\n      tag_433\n      jump\t// in\n    tag_783:\n        /* \"#utility.yul\":32881:32955   */\n      swap2\n      pop\n        /* \"#utility.yul\":32837:32965   */\n      pop\n        /* \"#utility.yul\":32621:32972   */\n      swap3\n      swap2\n      pop\n      pop\n      jump\t// out\n        /* \"#utility.yul\":32978:33155   */\n    tag_455:\n        /* \"#utility.yul\":33118:33147   */\n      0x506c656467653a2062616c616e6365206e6f7420656e6f756768210000000000\n        /* \"#utility.yul\":33114:33115   */\n      0x00\n        /* \"#utility.yul\":33106:33112   */\n      dup3\n        /* \"#utility.yul\":33102:33116   */\n      add\n        /* \"#utility.yul\":33095:33148   */\n      mstore\n        /* \"#utility.yul\":32978:33155   */\n      pop\n      jump\t// out\n        /* \"#utility.yul\":33161:33527   */\n    tag_456:\n        /* \"#utility.yul\":33303:33306   */\n      0x00\n        /* \"#utility.yul\":33324:33391   */\n      tag_786\n        /* \"#utility.yul\":33388:33390   */\n      0x1b\n        /* \"#utility.yul\":33383:33386   */\n      dup4\n        /* \"#utility.yul\":33324:33391   */\n      tag_407\n      jump\t// in\n    tag_786:\n        /* \"#utility.yul\":33317:33391   */\n      swap2\n      pop\n        /* \"#utility.yul\":33400:33493   */\n      tag_787\n        /* \"#utility.yul\":33489:33492   */\n      dup3\n        /* \"#utility.yul\":33400:33493   */\n      tag_455\n      jump\t// in\n    tag_787:\n        /* \"#utility.yul\":33518:33520   */\n      0x20\n        /* \"#utility.yul\":33513:33516   */\n      dup3\n        /* \"#utility.yul\":33509:33521   */\n      add\n        /* \"#utility.yul\":33502:33521   */\n      swap1\n      pop\n        /* \"#utility.yul\":33161:33527   */\n      swap2\n      swap1\n      pop\n      jump\t// out\n        /* \"#utility.yul\":33533:33952   */\n    tag_294:\n        /* \"#utility.yul\":33699:33703   */\n      0x00\n        /* \"#utility.yul\":33737:33739   */\n      0x20\n        /* \"#utility.yul\":33726:33735   */\n      dup3\n        /* \"#utility.yul\":33722:33740   */\n      add\n        /* \"#utility.yul\":33714:33740   */\n      swap1\n      pop\n        /* \"#utility.yul\":33786:33795   */\n      dup2\n        /* \"#utility.yul\":33780:33784   */\n      dup2\n        /* \"#utility.yul\":33776:33796   */\n      sub\n        /* \"#utility.yul\":33772:33773   */\n      0x00\n        /* \"#utility.yul\":33761:33770   */\n      dup4\n        /* \"#utility.yul\":33757:33774   */\n      add\n        /* \"#utility.yul\":33750:33797   */\n      mstore\n        /* \"#utility.yul\":33814:33945   */\n      tag_789\n        /* \"#utility.yul\":33940:33944   */\n      dup2\n        /* \"#utility.yul\":33814:33945   */\n      tag_456\n      jump\t// in\n    tag_789:\n        /* \"#utility.yul\":33806:33945   */\n      swap1\n      pop\n        /* \"#utility.yul\":33533:33952   */\n      swap2\n      swap1\n      pop\n      jump\t// out\n        /* \"#utility.yul\":33958:34400   */\n    tag_300:\n        /* \"#utility.yul\":34107:34111   */\n      0x00\n        /* \"#utility.yul\":34145:34147   */\n      0x60\n        /* \"#utility.yul\":34134:34143   */\n      dup3\n        /* \"#utility.yul\":34130:34148   */\n      add\n        /* \"#utility.yul\":34122:34148   */\n      swap1\n      pop\n        /* \"#utility.yul\":34158:34229   */\n      tag_791\n        /* \"#utility.yul\":34226:34227   */\n      0x00\n        /* \"#utility.yul\":34215:34224   */\n      dup4\n        /* \"#utility.yul\":34211:34228   */\n      add\n        /* \"#utility.yul\":34202:34208   */\n      dup7\n        /* \"#utility.yul\":34158:34229   */\n      tag_388\n      jump\t// in\n    tag_791:\n        /* \"#utility.yul\":34239:34311   */\n      tag_792\n        /* \"#utility.yul\":34307:34309   */\n      0x20\n        /* \"#utility.yul\":34296:34305   */\n      dup4\n        /* \"#utility.yul\":34292:34310   */\n      add\n        /* \"#utility.yul\":34283:34289   */\n      dup6\n        /* \"#utility.yul\":34239:34311   */\n      tag_388\n      jump\t// in\n    tag_792:\n        /* \"#utility.yul\":34321:34393   */\n      tag_793\n        /* \"#utility.yul\":34389:34391   */\n      0x40\n        /* \"#utility.yul\":34378:34387   */\n      dup4\n        /* \"#utility.yul\":34374:34392   */\n      add\n        /* \"#utility.yul\":34365:34371   */\n      dup5\n        /* \"#utility.yul\":34321:34393   */\n      tag_375\n      jump\t// in\n    tag_793:\n        /* \"#utility.yul\":33958:34400   */\n      swap5\n      swap4\n      pop\n      pop\n      pop\n      pop\n      jump\t// out\n        /* \"#utility.yul\":34406:34588   */\n    tag_457:\n        /* \"#utility.yul\":34546:34580   */\n      0x4f776e61626c653a2063616c6c6572206973206e6f7420746865206f776e6572\n        /* \"#utility.yul\":34542:34543   */\n      0x00\n        /* \"#utility.yul\":34534:34540   */\n      dup3\n        /* \"#utility.yul\":34530:34544   */\n      add\n        /* \"#utility.yul\":34523:34581   */\n      mstore\n        /* \"#utility.yul\":34406:34588   */\n      pop\n      jump\t// out\n        /* \"#utility.yul\":34594:34960   */\n    tag_458:\n        /* \"#utility.yul\":34736:34739   */\n      0x00\n        /* \"#utility.yul\":34757:34824   */\n      tag_796\n        /* \"#utility.yul\":34821:34823   */\n      0x20\n        /* \"#utility.yul\":34816:34819   */\n      dup4\n        /* \"#utility.yul\":34757:34824   */\n      tag_407\n      jump\t// in\n    tag_796:\n        /* \"#utility.yul\":34750:34824   */\n      swap2\n      pop\n        /* \"#utility.yul\":34833:34926   */\n      tag_797\n        /* \"#utility.yul\":34922:34925   */\n      dup3\n        /* \"#utility.yul\":34833:34926   */\n      tag_457\n      jump\t// in\n    tag_797:\n        /* \"#utility.yul\":34951:34953   */\n      0x20\n        /* \"#utility.yul\":34946:34949   */\n      dup3\n        /* \"#utility.yul\":34942:34954   */\n      add\n        /* \"#utility.yul\":34935:34954   */\n      swap1\n      pop\n        /* \"#utility.yul\":34594:34960   */\n      swap2\n      swap1\n      pop\n      jump\t// out\n        /* \"#utility.yul\":34966:35385   */\n    tag_321:\n        /* \"#utility.yul\":35132:35136   */\n      0x00\n        /* \"#utility.yul\":35170:35172   */\n      0x20\n        /* \"#utility.yul\":35159:35168   */\n      dup3\n        /* \"#utility.yul\":35155:35173   */\n      add\n        /* \"#utility.yul\":35147:35173   */\n      swap1\n      pop\n        /* \"#utility.yul\":35219:35228   */\n      dup2\n        /* \"#utility.yul\":35213:35217   */\n      dup2\n        /* \"#utility.yul\":35209:35229   */\n      sub\n        /* \"#utility.yul\":35205:35206   */\n      0x00\n        /* \"#utility.yul\":35194:35203   */\n      dup4\n        /* \"#utility.yul\":35190:35207   */\n      add\n        /* \"#utility.yul\":35183:35230   */\n      mstore\n        /* \"#utility.yul\":35247:35378   */\n      tag_799\n        /* \"#utility.yul\":35373:35377   */\n      dup2\n        /* \"#utility.yul\":35247:35378   */\n      tag_458\n      jump\t// in\n    tag_799:\n        /* \"#utility.yul\":35239:35378   */\n      swap1\n      pop\n        /* \"#utility.yul\":34966:35385   */\n      swap2\n      swap1\n      pop\n      jump\t// out\n        /* \"#utility.yul\":35391:35571   */\n    tag_329:\n        /* \"#utility.yul\":35439:35516   */\n      0x4e487b7100000000000000000000000000000000000000000000000000000000\n        /* \"#utility.yul\":35436:35437   */\n      0x00\n        /* \"#utility.yul\":35429:35517   */\n      mstore\n        /* \"#utility.yul\":35536:35540   */\n      0x32\n        /* \"#utility.yul\":35533:35534   */\n      0x04\n        /* \"#utility.yul\":35526:35541   */\n      mstore\n        /* \"#utility.yul\":35560:35564   */\n      0x24\n        /* \"#utility.yul\":35557:35558   */\n      0x00\n        /* \"#utility.yul\":35550:35565   */\n      revert\n        /* \"#utility.yul\":35577:35746   */\n    tag_459:\n        /* \"#utility.yul\":35717:35738   */\n      0x456c656d656e74206e6f7420696e207365742e00000000000000000000000000\n        /* \"#utility.yul\":35713:35714   */\n      0x00\n        /* \"#utility.yul\":35705:35711   */\n      dup3\n        /* \"#utility.yul\":35701:35715   */\n      add\n        /* \"#utility.yul\":35694:35739   */\n      mstore\n        /* \"#utility.yul\":35577:35746   */\n      pop\n      jump\t// out\n        /* \"#utility.yul\":35752:36118   */\n    tag_460:\n        /* \"#utility.yul\":35894:35897   */\n      0x00\n        /* \"#utility.yul\":35915:35982   */\n      tag_803\n        /* \"#utility.yul\":35979:35981   */\n      0x13\n        /* \"#utility.yul\":35974:35977   */\n      dup4\n        /* \"#utility.yul\":35915:35982   */\n      tag_407\n      jump\t// in\n    tag_803:\n        /* \"#utility.yul\":35908:35982   */\n      swap2\n      pop\n        /* \"#utility.yul\":35991:36084   */\n      tag_804\n        /* \"#utility.yul\":36080:36083   */\n      dup3\n        /* \"#utility.yul\":35991:36084   */\n      tag_459\n      jump\t// in\n    tag_804:\n        /* \"#utility.yul\":36109:36111   */\n      0x20\n        /* \"#utility.yul\":36104:36107   */\n      dup3\n        /* \"#utility.yul\":36100:36112   */\n      add\n        /* \"#utility.yul\":36093:36112   */\n      swap1\n      pop\n        /* \"#utility.yul\":35752:36118   */\n      swap2\n      swap1\n      pop\n      jump\t// out\n        /* \"#utility.yul\":36124:36543   */\n    tag_335:\n        /* \"#utility.yul\":36290:36294   */\n      0x00\n        /* \"#utility.yul\":36328:36330   */\n      0x20\n        /* \"#utility.yul\":36317:36326   */\n      dup3\n        /* \"#utility.yul\":36313:36331   */\n      add\n        /* \"#utility.yul\":36305:36331   */\n      swap1\n      pop\n        /* \"#utility.yul\":36377:36386   */\n      dup2\n        /* \"#utility.yul\":36371:36375   */\n      dup2\n        /* \"#utility.yul\":36367:36387   */\n      sub\n        /* \"#utility.yul\":36363:36364   */\n      0x00\n        /* \"#utility.yul\":36352:36361   */\n      dup4\n        /* \"#utility.yul\":36348:36365   */\n      add\n        /* \"#utility.yul\":36341:36388   */\n      mstore\n        /* \"#utility.yul\":36405:36536   */\n      tag_806\n        /* \"#utility.yul\":36531:36535   */\n      dup2\n        /* \"#utility.yul\":36405:36536   */\n      tag_460\n      jump\t// in\n    tag_806:\n        /* \"#utility.yul\":36397:36536   */\n      swap1\n      pop\n        /* \"#utility.yul\":36124:36543   */\n      swap2\n      swap1\n      pop\n      jump\t// out\n        /* \"#utility.yul\":36549:36729   */\n    tag_346:\n        /* \"#utility.yul\":36597:36674   */\n      0x4e487b7100000000000000000000000000000000000000000000000000000000\n        /* \"#utility.yul\":36594:36595   */\n      0x00\n        /* \"#utility.yul\":36587:36675   */\n      mstore\n        /* \"#utility.yul\":36694:36698   */\n      0x31\n        /* \"#utility.yul\":36691:36692   */\n      0x04\n        /* \"#utility.yul\":36684:36699   */\n      mstore\n        /* \"#utility.yul\":36718:36722   */\n      0x24\n        /* \"#utility.yul\":36715:36716   */\n      0x00\n        /* \"#utility.yul\":36708:36723   */\n      revert\n        /* \"#utility.yul\":36735:36968   */\n    tag_369:\n        /* \"#utility.yul\":36774:36777   */\n      0x00\n        /* \"#utility.yul\":36797:36821   */\n      tag_809\n        /* \"#utility.yul\":36815:36820   */\n      dup3\n        /* \"#utility.yul\":36797:36821   */\n      tag_374\n      jump\t// in\n    tag_809:\n        /* \"#utility.yul\":36788:36821   */\n      swap2\n      pop\n        /* \"#utility.yul\":36843:36909   */\n      0xffffffffffffffffffffffffffffffffffffffffffffffffffffffffffffffff\n        /* \"#utility.yul\":36836:36841   */\n      dup3\n        /* \"#utility.yul\":36833:36910   */\n      sub\n        /* \"#utility.yul\":36830:36933   */\n      tag_810\n      jumpi\n        /* \"#utility.yul\":36913:36931   */\n      tag_811\n      tag_415\n      jump\t// in\n    tag_811:\n        /* \"#utility.yul\":36830:36933   */\n    tag_810:\n        /* \"#utility.yul\":36960:36961   */\n      0x01\n        /* \"#utility.yul\":36953:36958   */\n      dup3\n        /* \"#utility.yul\":36949:36962   */\n      add\n        /* \"#utility.yul\":36942:36962   */\n      swap1\n      pop\n        /* \"#utility.yul\":36735:36968   */\n      swap2\n      swap1\n      pop\n      jump\t// out\n\n    auxdata: 0xa264697066735822122017038bd733e8c0e598c8c479872fdd3770f1b5189c106c93f4ee86acc439278d64736f6c63430008120033\n}\n",
				"bytecode": {
					"linkReferences": {},
					"object": "60806040523480156200001157600080fd5b506040516200349238038062003492833981810160405281019062000037919062000248565b620000576200004b6200011260201b60201c565b6200011a60201b60201c565b6001808190555080600460006101000a81548173ffffffffffffffffffffffffffffffffffffffff021916908373ffffffffffffffffffffffffffffffffffffffff16021790555081600260006101000a81548173ffffffffffffffffffffffffffffffffffffffff021916908373ffffffffffffffffffffffffffffffffffffffff160217905550670de0b6b3a7640000600581905550670de0b6b3a76400006006819055506402540be40060078190555050506200028f565b600033905090565b60008060009054906101000a900473ffffffffffffffffffffffffffffffffffffffff169050816000806101000a81548173ffffffffffffffffffffffffffffffffffffffff021916908373ffffffffffffffffffffffffffffffffffffffff1602179055508173ffffffffffffffffffffffffffffffffffffffff168173ffffffffffffffffffffffffffffffffffffffff167f8be0079c531659141344cd1fd0a4f28419497f9722a3daafe3b4186f6b6457e060405160405180910390a35050565b600080fd5b600073ffffffffffffffffffffffffffffffffffffffff82169050919050565b60006200021082620001e3565b9050919050565b620002228162000203565b81146200022e57600080fd5b50565b600081519050620002428162000217565b92915050565b60008060408385031215620002625762000261620001de565b5b6000620002728582860162000231565b9250506020620002858582860162000231565b9150509250929050565b6131f3806200029f6000396000f3fe608060405234801561001057600080fd5b50600436106101c35760003560e01c8063975057e7116100f9578063bf7e864911610097578063e3edb27511610071578063e3edb27514610521578063f2fde38b1461053d578063f30589c314610559578063fc0c546a14610577576101c3565b8063bf7e8649146104b5578063cafc8658146104d3578063dde20c54146104f1576101c3565b8063b37e67e4116100d3578063b37e67e41461042d578063b83f783f1461045d578063b96bb66f1461047b578063bf68faed14610499576101c3565b8063975057e7146103c157806398575188146103df578063aed1d4031461040f576101c3565b80633e84681a116101665780636d746cfb116101405780636d746cfb1461034b578063715018a614610369578063797327ae146103735780638da5cb5b146103a3576101c3565b80633e84681a146102ba5780635bf1196f146102ea5780636c8939cd1461031a576101c3565b806316f0115b116101a257806316f0115b146102345780631ff512d1146102525780632bbf9b8c146102825780633b962c531461029e576101c3565b8062c9e74d146101c857806305ccac1f146101e657806310087fb114610218575b600080fd5b6101d0610595565b6040516101dd9190611ee8565b60405180910390f35b61020060048036038101906101fb9190611f75565b61059b565b60405161020f93929190611fa2565b60405180910390f35b610232600480360381019061022d919061203e565b6105c5565b005b61023c610767565b604051610249919061208d565b60405180910390f35b61026c60048036038101906102679190611f75565b61078d565b6040516102799190611ee8565b60405180910390f35b61029c60048036038101906102979190611f75565b6107e6565b005b6102b860048036038101906102b391906120a8565b610832565b005b6102d460048036038101906102cf9190611f75565b610aaf565b6040516102e19190611ee8565b60405180910390f35b61030460048036038101906102ff91906120a8565b610ac7565b60405161031191906121a6565b60405180910390f35b610334600480360381019061032f9190611f75565b610b56565b6040516103429291906121c8565b60405180910390f35b610353610b7a565b6040516103609190611ee8565b60405180910390f35b610371610b8b565b005b61038d60048036038101906103889190611f75565b610b9f565b60405161039a919061220c565b60405180910390f35b6103ab610bb3565b6040516103b8919061208d565b60405180910390f35b6103c9610bdc565b6040516103d6919061208d565b60405180910390f35b6103f960048036038101906103f49190611f75565b610c02565b604051610406919061220c565b60405180910390f35b610417610e9e565b6040516104249190611ee8565b60405180910390f35b61044760048036038101906104429190612227565b610eaf565b604051610454919061220c565b60405180910390f35b6104656110d2565b6040516104729190611ee8565b60405180910390f35b6104836110d9565b6040516104909190611ee8565b60405180910390f35b6104b360048036038101906104ae91906120a8565b6110df565b005b6104bd6110e3565b6040516104ca9190611ee8565b60405180910390f35b6104db6110e9565b6040516104e891906121a6565b60405180910390f35b61050b60048036038101906105069190611f75565b611106565b604051610518919061220c565b60405180910390f35b61053b600480360381019061053691906123ad565b61111a565b005b61055760048036038101906105529190611f75565b611265565b005b6105616112e8565b60405161056e91906121a6565b60405180910390f35b61057f611305565b60405161058c919061208d565b60405180910390f35b60055481565b600c6020528060005260406000206000915090508060000154908060010154908060020154905083565b6105cd61132b565b60028160ff1614806105e2575060038160ff16145b610621576040517f08c379a000000000000000000000000000000000000000000000000000000000815260040161061890612453565b60405180910390fd5b60006009600061062f61137a565b73ffffffffffffffffffffffffffffffffffffffff1673ffffffffffffffffffffffffffffffffffffffff16815260200190815260200160002060009054906101000a900460ff1660ff1614806106dc575060026009600061068f61137a565b73ffffffffffffffffffffffffffffffffffffffff1673ffffffffffffffffffffffffffffffffffffffff16815260200190815260200160002060009054906101000a900460ff1660ff16145b61071b576040517f08c379a0000000000000000000000000000000000000000000000000000000008152600401610712906124bf565b60405180910390fd5b60028160ff160361073d576107378261073261137a565b611382565b5061075b565b60038160ff160361075a5761075861075361137a565b611724565b505b5b6107636117f3565b5050565b600260009054906101000a900473ffffffffffffffffffffffffffffffffffffffff1681565b6000600960008373ffffffffffffffffffffffffffffffffffffffff1673ffffffffffffffffffffffffffffffffffffffff16815260200190815260200160002060009054906101000a900460ff1660ff169050919050565b6107ee6117fc565b80600360006101000a81548173ffffffffffffffffffffffffffffffffffffffff021916908373ffffffffffffffffffffffffffffffffffffffff16021790555050565b61083a61132b565b601e811015801561085757506000601e82610855919061250e565b145b610896576040517f08c379a000000000000000000000000000000000000000000000000000000000815260040161088d906125b1565b60405180910390fd5b6001600960006108a461137a565b73ffffffffffffffffffffffffffffffffffffffff1673ffffffffffffffffffffffffffffffffffffffff16815260200190815260200160002060006101000a81548160ff021916908360ff16021790555061040080610400846109089190612600565b6109129190612600565b61091c9190612600565b915081600c600061092b61137a565b73ffffffffffffffffffffffffffffffffffffffff1673ffffffffffffffffffffffffffffffffffffffff16815260200190815260200160002060000160008282546109779190612642565b9250508190555081600c600061098b61137a565b73ffffffffffffffffffffffffffffffffffffffff1673ffffffffffffffffffffffffffffffffffffffff16815260200190815260200160002060010160008282546109d79190612642565b9250508190555062015180816109ed9190612600565b600c60006109f961137a565b73ffffffffffffffffffffffffffffffffffffffff1673ffffffffffffffffffffffffffffffffffffffff1681526020019081526020016000206002016000828254610a459190612642565b92505081905550610a5461137a565b73ffffffffffffffffffffffffffffffffffffffff167f5bdf3f5623fa7ae0fa364fa40561a15fbdbdc8cb2b162ac2820678880f17c2598383604051610a9b9291906121c8565b60405180910390a2610aab6117f3565b5050565b600b6020528060005260406000206000915090505481565b60606000610ad36110e9565b905082815111610ae65780915050610b50565b60008367ffffffffffffffff811115610b0257610b01612282565b5b604051908082528060200260200182016040528015610b305781602001602082028036833780820191505090505b5090506000849050600080610b45600d61187a565b905083955050505050505b92915050565b600a6020528060005260406000206000915090508060000154908060010154905082565b6000610b86600d61187a565b905090565b610b936117fc565b610b9d600061188b565b565b6000610bac600f8361194f565b9050919050565b60008060009054906101000a900473ffffffffffffffffffffffffffffffffffffffff16905090565b600360009054906101000a900473ffffffffffffffffffffffffffffffffffffffff1681565b6000610c0c6117fc565b6000600960008473ffffffffffffffffffffffffffffffffffffffff1673ffffffffffffffffffffffffffffffffffffffff16815260200190815260200160002060009054906101000a900460ff1660ff1603610c9e576040517f08c379a0000000000000000000000000000000000000000000000000000000008152600401610c95906126c2565b60405180910390fd5b6001600960008473ffffffffffffffffffffffffffffffffffffffff1673ffffffffffffffffffffffffffffffffffffffff16815260200190815260200160002060009054906101000a900460ff1660ff1603610d0557610d00600d83611a34565b610d69565b6002600960008473ffffffffffffffffffffffffffffffffffffffff1673ffffffffffffffffffffffffffffffffffffffff16815260200190815260200160002060009054906101000a900460ff1660ff1603610d6857610d67600f83611a34565b5b5b8173ffffffffffffffffffffffffffffffffffffffff167fc0944d59892e6715b5f3fbf230ed4545fc611c304ac5e1827e583585b4180159600960008573ffffffffffffffffffffffffffffffffffffffff1673ffffffffffffffffffffffffffffffffffffffff16815260200190815260200160002060009054906101000a900460ff16604051610dfb91906126f1565b60405180910390a2600960008373ffffffffffffffffffffffffffffffffffffffff1673ffffffffffffffffffffffffffffffffffffffff16815260200190815260200160002060006101000a81549060ff0219169055600b60008373ffffffffffffffffffffffffffffffffffffffff1673ffffffffffffffffffffffffffffffffffffffff1681526020019081526020016000206000905560019050919050565b6000610eaa600f61187a565b905090565b6000610eb96117fc565b6000600960008573ffffffffffffffffffffffffffffffffffffffff1673ffffffffffffffffffffffffffffffffffffffff16815260200190815260200160002060009054906101000a900460ff1660ff1603610f4b576040517f08c379a0000000000000000000000000000000000000000000000000000000008152600401610f42906126c2565b60405180910390fd5b6000600b60008573ffffffffffffffffffffffffffffffffffffffff1673ffffffffffffffffffffffffffffffffffffffff168152602001908152602001600020541015610fce576040517f08c379a0000000000000000000000000000000000000000000000000000000008152600401610fc590612758565b60405180910390fd5b81600b60008573ffffffffffffffffffffffffffffffffffffffff1673ffffffffffffffffffffffffffffffffffffffff168152602001908152602001600020541161106f5781600b60008573ffffffffffffffffffffffffffffffffffffffff1673ffffffffffffffffffffffffffffffffffffffff16815260200190815260200160002060008282546110639190612778565b9250508190555061107a565b61107883610c02565b505b8273ffffffffffffffffffffffffffffffffffffffff167f53fcb0d5ac9969dcec28baa60beb9b56b28fa301971f7e19c6c8beb0d1e86ece836040516110c09190611ee8565b60405180910390a26001905092915050565b6201518081565b60065481565b5050565b60075481565b6060611101600d60006110fc600d61187a565b611c62565b905090565b6000611113600d8361194f565b9050919050565b61112261132b565b6000806000806000806000806000898060200190518101906111449190612a88565b985098509850985098509850985098509850600360009054906101000a900473ffffffffffffffffffffffffffffffffffffffff1673ffffffffffffffffffffffffffffffffffffffff166347618f188a8a8a8a8a8989896040518963ffffffff1660e01b81526004016111bf989796959493929190612d12565b6020604051808303816000875af11580156111de573d6000803e3d6000fd5b505050506040513d601f19601f820116820180604052508101906112029190612dd8565b508073ffffffffffffffffffffffffffffffffffffffff167f30ebd9082452f045cbb677f33bafcd83242c048d21fa3f84705ab051a900ac33866040516112499190611ee8565b60405180910390a25050505050505050506112626117f3565b50565b61126d6117fc565b600073ffffffffffffffffffffffffffffffffffffffff168173ffffffffffffffffffffffffffffffffffffffff16036112dc576040517f08c379a00000000000000000000000000000000000000000000000000000000081526004016112d390612e77565b60405180910390fd5b6112e58161188b565b50565b6060611300600f60006112fb600f61187a565b611c62565b905090565b600460009054906101000a900473ffffffffffffffffffffffffffffffffffffffff1681565b600260015403611370576040517f08c379a000000000000000000000000000000000000000000000000000000000815260040161136790612ee3565b60405180910390fd5b6002600181905550565b600033905090565b60008083116113c6576040517f08c379a00000000000000000000000000000000000000000000000000000000081526004016113bd90612f4f565b60405180910390fd5b6000836005546113d69190612600565b905080600460009054906101000a900473ffffffffffffffffffffffffffffffffffffffff1673ffffffffffffffffffffffffffffffffffffffff166370a08231856040518263ffffffff1660e01b8152600401611434919061208d565b602060405180830381865afa158015611451573d6000803e3d6000fd5b505050506040513d601f19601f820116820180604052508101906114759190612f6f565b10156114b6576040517f08c379a00000000000000000000000000000000000000000000000000000000081526004016114ad90612fe8565b60405180910390fd5b6114c1600d8461194f565b6114d1576114d0600d84611e0a565b5b6000600460009054906101000a900473ffffffffffffffffffffffffffffffffffffffff1673ffffffffffffffffffffffffffffffffffffffff166323b872dd85600260009054906101000a900473ffffffffffffffffffffffffffffffffffffffff16856040518463ffffffff1660e01b815260040161155493929190613008565b6020604051808303816000875af1158015611573573d6000803e3d6000fd5b505050506040513d601f19601f820116820180604052508101906115979190612dd8565b905061040080610400876115ab9190612600565b6115b59190612600565b6115bf9190612600565b945084600a60008673ffffffffffffffffffffffffffffffffffffffff1673ffffffffffffffffffffffffffffffffffffffff16815260200190815260200160002060000160008282546116139190612642565b9250508190555081600b60008673ffffffffffffffffffffffffffffffffffffffff1673ffffffffffffffffffffffffffffffffffffffff16815260200190815260200160002060008282546116699190612642565b925050819055506002600960008673ffffffffffffffffffffffffffffffffffffffff1673ffffffffffffffffffffffffffffffffffffffff16815260200190815260200160002060006101000a81548160ff021916908360ff1602179055508373ffffffffffffffffffffffffffffffffffffffff167fe04f064c94fe0edee3c04978ea069c5445cf7146e23ed179c153983e4477831183876040516117119291906121c8565b60405180910390a2809250505092915050565b6000611731600f8361194f565b61174157611740600f83611e0a565b5b6003600960008473ffffffffffffffffffffffffffffffffffffffff1673ffffffffffffffffffffffffffffffffffffffff16815260200190815260200160002060006101000a81548160ff021916908360ff1602179055508173ffffffffffffffffffffffffffffffffffffffff167f261a1e5397da268bd5f5561920d0fd2b3ac2f1a2c9dea7cd9bc679a8f18d87d36006546040516117e29190611ee8565b60405180910390a260019050919050565b60018081905550565b61180461137a565b73ffffffffffffffffffffffffffffffffffffffff16611822610bb3565b73ffffffffffffffffffffffffffffffffffffffff1614611878576040517f08c379a000000000000000000000000000000000000000000000000000000000815260040161186f9061308b565b60405180910390fd5b565b600081600001805490509050919050565b60008060009054906101000a900473ffffffffffffffffffffffffffffffffffffffff169050816000806101000a81548173ffffffffffffffffffffffffffffffffffffffff021916908373ffffffffffffffffffffffffffffffffffffffff1602179055508173ffffffffffffffffffffffffffffffffffffffff168173ffffffffffffffffffffffffffffffffffffffff167f8be0079c531659141344cd1fd0a4f28419497f9722a3daafe3b4186f6b6457e060405160405180910390a35050565b6000808360000180549050036119685760009050611a2e565b60008360010160008473ffffffffffffffffffffffffffffffffffffffff1673ffffffffffffffffffffffffffffffffffffffff168152602001908152602001600020549050600081141580611a2a57508273ffffffffffffffffffffffffffffffffffffffff16846000016000815481106119e7576119e66130ab565b5b9060005260206000200160009054906101000a900473ffffffffffffffffffffffffffffffffffffffff1673ffffffffffffffffffffffffffffffffffffffff16145b9150505b92915050565b611a3e828261194f565b611a7d576040517f08c379a0000000000000000000000000000000000000000000000000000000008152600401611a7490613126565b60405180910390fd5b60008260010160008373ffffffffffffffffffffffffffffffffffffffff1673ffffffffffffffffffffffffffffffffffffffff168152602001908152602001600020549050600060018460000180549050611ad99190612778565b9050808214611bce576000846000018281548110611afa57611af96130ab565b5b9060005260206000200160009054906101000a900473ffffffffffffffffffffffffffffffffffffffff16905080856000018481548110611b3e57611b3d6130ab565b5b9060005260206000200160006101000a81548173ffffffffffffffffffffffffffffffffffffffff021916908373ffffffffffffffffffffffffffffffffffffffff160217905550828560010160008373ffffffffffffffffffffffffffffffffffffffff1673ffffffffffffffffffffffffffffffffffffffff16815260200190815260200160002081905550505b83600001805480611be257611be1613146565b5b6001900381819060005260206000200160006101000a81549073ffffffffffffffffffffffffffffffffffffffff021916905590558360010160008473ffffffffffffffffffffffffffffffffffffffff1673ffffffffffffffffffffffffffffffffffffffff1681526020019081526020016000206000905550505050565b606060008284611c729190612642565b90508460000180549050811115611c8e57846000018054905090505b838111611ce757600067ffffffffffffffff811115611cb057611caf612282565b5b604051908082528060200260200182016040528015611cde5781602001602082028036833780820191505090505b50915050611e03565b60008482611cf59190612778565b905060008167ffffffffffffffff811115611d1357611d12612282565b5b604051908082528060200260200182016040528015611d415781602001602082028036833780820191505090505b50905060005b82811015611dfb57876000018782611d5f9190612642565b81548110611d7057611d6f6130ab565b5b9060005260206000200160009054906101000a900473ffffffffffffffffffffffffffffffffffffffff16828281518110611dae57611dad6130ab565b5b602002602001019073ffffffffffffffffffffffffffffffffffffffff16908173ffffffffffffffffffffffffffffffffffffffff16815250508080611df390613175565b915050611d47565b508093505050505b9392505050565b611e14828261194f565b611ecb5781600001805490508260010160008373ffffffffffffffffffffffffffffffffffffffff1673ffffffffffffffffffffffffffffffffffffffff1681526020019081526020016000208190555081600001819080600181540180825580915050600190039060005260206000200160009091909190916101000a81548173ffffffffffffffffffffffffffffffffffffffff021916908373ffffffffffffffffffffffffffffffffffffffff1602179055505b5050565b6000819050919050565b611ee281611ecf565b82525050565b6000602082019050611efd6000830184611ed9565b92915050565b6000604051905090565b600080fd5b600080fd5b600073ffffffffffffffffffffffffffffffffffffffff82169050919050565b6000611f4282611f17565b9050919050565b611f5281611f37565b8114611f5d57600080fd5b50565b600081359050611f6f81611f49565b92915050565b600060208284031215611f8b57611f8a611f0d565b5b6000611f9984828501611f60565b91505092915050565b6000606082019050611fb76000830186611ed9565b611fc46020830185611ed9565b611fd16040830184611ed9565b949350505050565b611fe281611ecf565b8114611fed57600080fd5b50565b600081359050611fff81611fd9565b92915050565b600060ff82169050919050565b61201b81612005565b811461202657600080fd5b50565b60008135905061203881612012565b92915050565b6000806040838503121561205557612054611f0d565b5b600061206385828601611ff0565b925050602061207485828601612029565b9150509250929050565b61208781611f37565b82525050565b60006020820190506120a2600083018461207e565b92915050565b600080604083850312156120bf576120be611f0d565b5b60006120cd85828601611ff0565b92505060206120de85828601611ff0565b9150509250929050565b600081519050919050565b600082825260208201905092915050565b6000819050602082019050919050565b61211d81611f37565b82525050565b600061212f8383612114565b60208301905092915050565b6000602082019050919050565b6000612153826120e8565b61215d81856120f3565b935061216883612104565b8060005b838110156121995781516121808882612123565b975061218b8361213b565b92505060018101905061216c565b5085935050505092915050565b600060208201905081810360008301526121c08184612148565b905092915050565b60006040820190506121dd6000830185611ed9565b6121ea6020830184611ed9565b9392505050565b60008115159050919050565b612206816121f1565b82525050565b600060208201905061222160008301846121fd565b92915050565b6000806040838503121561223e5761223d611f0d565b5b600061224c85828601611f60565b925050602061225d85828601611ff0565b9150509250929050565b600080fd5b600080fd5b6000601f19601f8301169050919050565b7f4e487b7100000000000000000000000000000000000000000000000000000000600052604160045260246000fd5b6122ba82612271565b810181811067ffffffffffffffff821117156122d9576122d8612282565b5b80604052505050565b60006122ec611f03565b90506122f882826122b1565b919050565b600067ffffffffffffffff82111561231857612317612282565b5b61232182612271565b9050602081019050919050565b82818337600083830152505050565b600061235061234b846122fd565b6122e2565b90508281526020810184848401111561236c5761236b61226c565b5b61237784828561232e565b509392505050565b600082601f83011261239457612393612267565b5b81356123a484826020860161233d565b91505092915050565b6000602082840312156123c3576123c2611f0d565b5b600082013567ffffffffffffffff8111156123e1576123e0611f12565b5b6123ed8482850161237f565b91505092915050565b600082825260208201905092915050565b7f50656c6467653a20726f6c65206e6f7420657869737421000000000000000000600082015250565b600061243d6017836123f6565b915061244882612407565b602082019050919050565b6000602082019050818103600083015261246c81612430565b9050919050565b7f50656c6467653a20616c7265616479207374616b656421000000000000000000600082015250565b60006124a96017836123f6565b91506124b482612473565b602082019050919050565b600060208201905081810360008301526124d88161249c565b9050919050565b7f4e487b7100000000000000000000000000000000000000000000000000000000600052601260045260246000fd5b600061251982611ecf565b915061252483611ecf565b925082612534576125336124df565b5b828206905092915050565b7f506c656467653a206275792073746f726167652074696d65207365742065727260008201527f6f72210000000000000000000000000000000000000000000000000000000000602082015250565b600061259b6023836123f6565b91506125a68261253f565b604082019050919050565b600060208201905081810360008301526125ca8161258e565b9050919050565b7f4e487b7100000000000000000000000000000000000000000000000000000000600052601160045260246000fd5b600061260b82611ecf565b915061261683611ecf565b925082820261262481611ecf565b9150828204841483151761263b5761263a6125d1565b5b5092915050565b600061264d82611ecf565b915061265883611ecf565b92508282019050808211156126705761266f6125d1565b5b92915050565b7f506c656467653a2075736572206e6f7420657869737421000000000000000000600082015250565b60006126ac6017836123f6565b91506126b782612676565b602082019050919050565b600060208201905081810360008301526126db8161269f565b9050919050565b6126eb81612005565b82525050565b600060208201905061270660008301846126e2565b92915050565b7f506c656467653a207374616b6520616d6f756e74206973207a65726f21000000600082015250565b6000612742601d836123f6565b915061274d8261270c565b602082019050919050565b6000602082019050818103600083015261277181612735565b9050919050565b600061278382611ecf565b915061278e83611ecf565b92508282039050818111156127a6576127a56125d1565b5b92915050565b600067ffffffffffffffff8211156127c7576127c6612282565b5b602082029050602081019050919050565b600080fd5b6000815190506127ec81611f49565b92915050565b6000612805612800846127ac565b6122e2565b90508083825260208201905060208402830185811115612828576128276127d8565b5b835b81811015612851578061283d88826127dd565b84526020840193505060208101905061282a565b5050509392505050565b600082601f8301126128705761286f612267565b5b81516128808482602086016127f2565b91505092915050565b600067ffffffffffffffff8211156128a4576128a3612282565b5b602082029050602081019050919050565b600067ffffffffffffffff8211156128d0576128cf612282565b5b6128d982612271565b9050602081019050919050565b60005b838110156129045780820151818401526020810190506128e9565b60008484015250505050565b600061292361291e846128b5565b6122e2565b90508281526020810184848401111561293f5761293e61226c565b5b61294a8482856128e6565b509392505050565b600082601f83011261296757612966612267565b5b8151612977848260208601612910565b91505092915050565b600061299361298e84612889565b6122e2565b905080838252602082019050602084028301858111156129b6576129b56127d8565b5b835b818110156129fd57805167ffffffffffffffff8111156129db576129da612267565b5b8086016129e88982612952565b855260208501945050506020810190506129b8565b5050509392505050565b600082601f830112612a1c57612a1b612267565b5b8151612a2c848260208601612980565b91505092915050565b600081519050612a4481611fd9565b92915050565b6000612a5582611f17565b9050919050565b612a6581612a4a565b8114612a7057600080fd5b50565b600081519050612a8281612a5c565b92915050565b60008060008060008060008060006101208a8c031215612aab57612aaa611f0d565b5b60008a015167ffffffffffffffff811115612ac957612ac8611f12565b5b612ad58c828d0161285b565b99505060208a015167ffffffffffffffff811115612af657612af5611f12565b5b612b028c828d01612a07565b98505060408a015167ffffffffffffffff811115612b2357612b22611f12565b5b612b2f8c828d01612952565b97505060608a015167ffffffffffffffff811115612b5057612b4f611f12565b5b612b5c8c828d01612952565b9650506080612b6d8c828d01612a35565b95505060a0612b7e8c828d01612a35565b94505060c0612b8f8c828d01612a35565b93505060e0612ba08c828d01612a35565b925050610100612bb28c828d01612a73565b9150509295985092959850929598565b600081519050919050565b600082825260208201905092915050565b6000819050602082019050919050565b600081519050919050565b600082825260208201905092915050565b6000612c1582612bee565b612c1f8185612bf9565b9350612c2f8185602086016128e6565b612c3881612271565b840191505092915050565b6000612c4f8383612c0a565b905092915050565b6000602082019050919050565b6000612c6f82612bc2565b612c798185612bcd565b935083602082028501612c8b85612bde565b8060005b85811015612cc75784840389528151612ca88582612c43565b9450612cb383612c57565b925060208a01995050600181019050612c8f565b50829750879550505050505092915050565b6000612ce482612bee565b612cee81856123f6565b9350612cfe8185602086016128e6565b612d0781612271565b840191505092915050565b6000610100820190508181036000830152612d2d818b612148565b90508181036020830152612d41818a612c64565b90508181036040830152612d558189612cd9565b90508181036060830152612d698188612cd9565b9050612d786080830187611ed9565b612d8560a0830186611ed9565b612d9260c0830185611ed9565b612d9f60e083018461207e565b9998505050505050505050565b612db5816121f1565b8114612dc057600080fd5b50565b600081519050612dd281612dac565b92915050565b600060208284031215612dee57612ded611f0d565b5b6000612dfc84828501612dc3565b91505092915050565b7f4f776e61626c653a206e6577206f776e657220697320746865207a65726f206160008201527f6464726573730000000000000000000000000000000000000000000000000000602082015250565b6000612e616026836123f6565b9150612e6c82612e05565b604082019050919050565b60006020820190508181036000830152612e9081612e54565b9050919050565b7f5265656e7472616e637947756172643a207265656e7472616e742063616c6c00600082015250565b6000612ecd601f836123f6565b9150612ed882612e97565b602082019050919050565b60006020820190508181036000830152612efc81612ec0565b9050919050565b7f506c656467653a207374616b652073746f7265616765206973207a65726f2100600082015250565b6000612f39601f836123f6565b9150612f4482612f03565b602082019050919050565b60006020820190508181036000830152612f6881612f2c565b9050919050565b600060208284031215612f8557612f84611f0d565b5b6000612f9384828501612a35565b91505092915050565b7f506c656467653a2062616c616e6365206e6f7420656e6f756768210000000000600082015250565b6000612fd2601b836123f6565b9150612fdd82612f9c565b602082019050919050565b6000602082019050818103600083015261300181612fc5565b9050919050565b600060608201905061301d600083018661207e565b61302a602083018561207e565b6130376040830184611ed9565b949350505050565b7f4f776e61626c653a2063616c6c6572206973206e6f7420746865206f776e6572600082015250565b60006130756020836123f6565b91506130808261303f565b602082019050919050565b600060208201905081810360008301526130a481613068565b9050919050565b7f4e487b7100000000000000000000000000000000000000000000000000000000600052603260045260246000fd5b7f456c656d656e74206e6f7420696e207365742e00000000000000000000000000600082015250565b60006131106013836123f6565b915061311b826130da565b602082019050919050565b6000602082019050818103600083015261313f81613103565b9050919050565b7f4e487b7100000000000000000000000000000000000000000000000000000000600052603160045260246000fd5b600061318082611ecf565b91507fffffffffffffffffffffffffffffffffffffffffffffffffffffffffffffffff82036131b2576131b16125d1565b5b60018201905091905056fea264697066735822122017038bd733e8c0e598c8c479872fdd3770f1b5189c106c93f4ee86acc439278d64736f6c63430008120033",
					"opcodes": "PUSH1 0x80 PUSH1 0x40 MSTORE CALLVALUE DUP1 ISZERO PUSH3 0x11 JUMPI PUSH1 0x0 DUP1 REVERT JUMPDEST POP PUSH1 0x40 MLOAD PUSH3 0x3492 CODESIZE SUB DUP1 PUSH3 0x3492 DUP4 CODECOPY DUP2 DUP2 ADD PUSH1 0x40 MSTORE DUP2 ADD SWAP1 PUSH3 0x37 SWAP2 SWAP1 PUSH3 0x248 JUMP JUMPDEST PUSH3 0x57 PUSH3 0x4B PUSH3 0x112 PUSH1 0x20 SHL PUSH1 0x20 SHR JUMP JUMPDEST PUSH3 0x11A PUSH1 0x20 SHL PUSH1 0x20 SHR JUMP JUMPDEST PUSH1 0x1 DUP1 DUP2 SWAP1 SSTORE POP DUP1 PUSH1 0x4 PUSH1 0x0 PUSH2 0x100 EXP DUP2 SLOAD DUP2 PUSH20 0xFFFFFFFFFFFFFFFFFFFFFFFFFFFFFFFFFFFFFFFF MUL NOT AND SWAP1 DUP4 PUSH20 0xFFFFFFFFFFFFFFFFFFFFFFFFFFFFFFFFFFFFFFFF AND MUL OR SWAP1 SSTORE POP DUP2 PUSH1 0x2 PUSH1 0x0 PUSH2 0x100 EXP DUP2 SLOAD DUP2 PUSH20 0xFFFFFFFFFFFFFFFFFFFFFFFFFFFFFFFFFFFFFFFF MUL NOT AND SWAP1 DUP4 PUSH20 0xFFFFFFFFFFFFFFFFFFFFFFFFFFFFFFFFFFFFFFFF AND MUL OR SWAP1 SSTORE POP PUSH8 0xDE0B6B3A7640000 PUSH1 0x5 DUP2 SWAP1 SSTORE POP PUSH8 0xDE0B6B3A7640000 PUSH1 0x6 DUP2 SWAP1 SSTORE POP PUSH5 0x2540BE400 PUSH1 0x7 DUP2 SWAP1 SSTORE POP POP POP PUSH3 0x28F JUMP JUMPDEST PUSH1 0x0 CALLER SWAP1 POP SWAP1 JUMP JUMPDEST PUSH1 0x0 DUP1 PUSH1 0x0 SWAP1 SLOAD SWAP1 PUSH2 0x100 EXP SWAP1 DIV PUSH20 0xFFFFFFFFFFFFFFFFFFFFFFFFFFFFFFFFFFFFFFFF AND SWAP1 POP DUP2 PUSH1 0x0 DUP1 PUSH2 0x100 EXP DUP2 SLOAD DUP2 PUSH20 0xFFFFFFFFFFFFFFFFFFFFFFFFFFFFFFFFFFFFFFFF MUL NOT AND SWAP1 DUP4 PUSH20 0xFFFFFFFFFFFFFFFFFFFFFFFFFFFFFFFFFFFFFFFF AND MUL OR SWAP1 SSTORE POP DUP2 PUSH20 0xFFFFFFFFFFFFFFFFFFFFFFFFFFFFFFFFFFFFFFFF AND DUP2 PUSH20 0xFFFFFFFFFFFFFFFFFFFFFFFFFFFFFFFFFFFFFFFF AND PUSH32 0x8BE0079C531659141344CD1FD0A4F28419497F9722A3DAAFE3B4186F6B6457E0 PUSH1 0x40 MLOAD PUSH1 0x40 MLOAD DUP1 SWAP2 SUB SWAP1 LOG3 POP POP JUMP JUMPDEST PUSH1 0x0 DUP1 REVERT JUMPDEST PUSH1 0x0 PUSH20 0xFFFFFFFFFFFFFFFFFFFFFFFFFFFFFFFFFFFFFFFF DUP3 AND SWAP1 POP SWAP2 SWAP1 POP JUMP JUMPDEST PUSH1 0x0 PUSH3 0x210 DUP3 PUSH3 0x1E3 JUMP JUMPDEST SWAP1 POP SWAP2 SWAP1 POP JUMP JUMPDEST PUSH3 0x222 DUP2 PUSH3 0x203 JUMP JUMPDEST DUP2 EQ PUSH3 0x22E JUMPI PUSH1 0x0 DUP1 REVERT JUMPDEST POP JUMP JUMPDEST PUSH1 0x0 DUP2 MLOAD SWAP1 POP PUSH3 0x242 DUP2 PUSH3 0x217 JUMP JUMPDEST SWAP3 SWAP2 POP POP JUMP JUMPDEST PUSH1 0x0 DUP1 PUSH1 0x40 DUP4 DUP6 SUB SLT ISZERO PUSH3 0x262 JUMPI PUSH3 0x261 PUSH3 0x1DE JUMP JUMPDEST JUMPDEST PUSH1 0x0 PUSH3 0x272 DUP6 DUP3 DUP7 ADD PUSH3 0x231 JUMP JUMPDEST SWAP3 POP POP PUSH1 0x20 PUSH3 0x285 DUP6 DUP3 DUP7 ADD PUSH3 0x231 JUMP JUMPDEST SWAP2 POP POP SWAP3 POP SWAP3 SWAP1 POP JUMP JUMPDEST PUSH2 0x31F3 DUP1 PUSH3 0x29F PUSH1 0x0 CODECOPY PUSH1 0x0 RETURN INVALID PUSH1 0x80 PUSH1 0x40 MSTORE CALLVALUE DUP1 ISZERO PUSH2 0x10 JUMPI PUSH1 0x0 DUP1 REVERT JUMPDEST POP PUSH1 0x4 CALLDATASIZE LT PUSH2 0x1C3 JUMPI PUSH1 0x0 CALLDATALOAD PUSH1 0xE0 SHR DUP1 PUSH4 0x975057E7 GT PUSH2 0xF9 JUMPI DUP1 PUSH4 0xBF7E8649 GT PUSH2 0x97 JUMPI DUP1 PUSH4 0xE3EDB275 GT PUSH2 0x71 JUMPI DUP1 PUSH4 0xE3EDB275 EQ PUSH2 0x521 JUMPI DUP1 PUSH4 0xF2FDE38B EQ PUSH2 0x53D JUMPI DUP1 PUSH4 0xF30589C3 EQ PUSH2 0x559 JUMPI DUP1 PUSH4 0xFC0C546A EQ PUSH2 0x577 JUMPI PUSH2 0x1C3 JUMP JUMPDEST DUP1 PUSH4 0xBF7E8649 EQ PUSH2 0x4B5 JUMPI DUP1 PUSH4 0xCAFC8658 EQ PUSH2 0x4D3 JUMPI DUP1 PUSH4 0xDDE20C54 EQ PUSH2 0x4F1 JUMPI PUSH2 0x1C3 JUMP JUMPDEST DUP1 PUSH4 0xB37E67E4 GT PUSH2 0xD3 JUMPI DUP1 PUSH4 0xB37E67E4 EQ PUSH2 0x42D JUMPI DUP1 PUSH4 0xB83F783F EQ PUSH2 0x45D JUMPI DUP1 PUSH4 0xB96BB66F EQ PUSH2 0x47B JUMPI DUP1 PUSH4 0xBF68FAED EQ PUSH2 0x499 JUMPI PUSH2 0x1C3 JUMP JUMPDEST DUP1 PUSH4 0x975057E7 EQ PUSH2 0x3C1 JUMPI DUP1 PUSH4 0x98575188 EQ PUSH2 0x3DF JUMPI DUP1 PUSH4 0xAED1D403 EQ PUSH2 0x40F JUMPI PUSH2 0x1C3 JUMP JUMPDEST DUP1 PUSH4 0x3E84681A GT PUSH2 0x166 JUMPI DUP1 PUSH4 0x6D746CFB GT PUSH2 0x140 JUMPI DUP1 PUSH4 0x6D746CFB EQ PUSH2 0x34B JUMPI DUP1 PUSH4 0x715018A6 EQ PUSH2 0x369 JUMPI DUP1 PUSH4 0x797327AE EQ PUSH2 0x373 JUMPI DUP1 PUSH4 0x8DA5CB5B EQ PUSH2 0x3A3 JUMPI PUSH2 0x1C3 JUMP JUMPDEST DUP1 PUSH4 0x3E84681A EQ PUSH2 0x2BA JUMPI DUP1 PUSH4 0x5BF1196F EQ PUSH2 0x2EA JUMPI DUP1 PUSH4 0x6C8939CD EQ PUSH2 0x31A JUMPI PUSH2 0x1C3 JUMP JUMPDEST DUP1 PUSH4 0x16F0115B GT PUSH2 0x1A2 JUMPI DUP1 PUSH4 0x16F0115B EQ PUSH2 0x234 JUMPI DUP1 PUSH4 0x1FF512D1 EQ PUSH2 0x252 JUMPI DUP1 PUSH4 0x2BBF9B8C EQ PUSH2 0x282 JUMPI DUP1 PUSH4 0x3B962C53 EQ PUSH2 0x29E JUMPI PUSH2 0x1C3 JUMP JUMPDEST DUP1 PUSH3 0xC9E74D EQ PUSH2 0x1C8 JUMPI DUP1 PUSH4 0x5CCAC1F EQ PUSH2 0x1E6 JUMPI DUP1 PUSH4 0x10087FB1 EQ PUSH2 0x218 JUMPI JUMPDEST PUSH1 0x0 DUP1 REVERT JUMPDEST PUSH2 0x1D0 PUSH2 0x595 JUMP JUMPDEST PUSH1 0x40 MLOAD PUSH2 0x1DD SWAP2 SWAP1 PUSH2 0x1EE8 JUMP JUMPDEST PUSH1 0x40 MLOAD DUP1 SWAP2 SUB SWAP1 RETURN JUMPDEST PUSH2 0x200 PUSH1 0x4 DUP1 CALLDATASIZE SUB DUP2 ADD SWAP1 PUSH2 0x1FB SWAP2 SWAP1 PUSH2 0x1F75 JUMP JUMPDEST PUSH2 0x59B JUMP JUMPDEST PUSH1 0x40 MLOAD PUSH2 0x20F SWAP4 SWAP3 SWAP2 SWAP1 PUSH2 0x1FA2 JUMP JUMPDEST PUSH1 0x40 MLOAD DUP1 SWAP2 SUB SWAP1 RETURN JUMPDEST PUSH2 0x232 PUSH1 0x4 DUP1 CALLDATASIZE SUB DUP2 ADD SWAP1 PUSH2 0x22D SWAP2 SWAP1 PUSH2 0x203E JUMP JUMPDEST PUSH2 0x5C5 JUMP JUMPDEST STOP JUMPDEST PUSH2 0x23C PUSH2 0x767 JUMP JUMPDEST PUSH1 0x40 MLOAD PUSH2 0x249 SWAP2 SWAP1 PUSH2 0x208D JUMP JUMPDEST PUSH1 0x40 MLOAD DUP1 SWAP2 SUB SWAP1 RETURN JUMPDEST PUSH2 0x26C PUSH1 0x4 DUP1 CALLDATASIZE SUB DUP2 ADD SWAP1 PUSH2 0x267 SWAP2 SWAP1 PUSH2 0x1F75 JUMP JUMPDEST PUSH2 0x78D JUMP JUMPDEST PUSH1 0x40 MLOAD PUSH2 0x279 SWAP2 SWAP1 PUSH2 0x1EE8 JUMP JUMPDEST PUSH1 0x40 MLOAD DUP1 SWAP2 SUB SWAP1 RETURN JUMPDEST PUSH2 0x29C PUSH1 0x4 DUP1 CALLDATASIZE SUB DUP2 ADD SWAP1 PUSH2 0x297 SWAP2 SWAP1 PUSH2 0x1F75 JUMP JUMPDEST PUSH2 0x7E6 JUMP JUMPDEST STOP JUMPDEST PUSH2 0x2B8 PUSH1 0x4 DUP1 CALLDATASIZE SUB DUP2 ADD SWAP1 PUSH2 0x2B3 SWAP2 SWAP1 PUSH2 0x20A8 JUMP JUMPDEST PUSH2 0x832 JUMP JUMPDEST STOP JUMPDEST PUSH2 0x2D4 PUSH1 0x4 DUP1 CALLDATASIZE SUB DUP2 ADD SWAP1 PUSH2 0x2CF SWAP2 SWAP1 PUSH2 0x1F75 JUMP JUMPDEST PUSH2 0xAAF JUMP JUMPDEST PUSH1 0x40 MLOAD PUSH2 0x2E1 SWAP2 SWAP1 PUSH2 0x1EE8 JUMP JUMPDEST PUSH1 0x40 MLOAD DUP1 SWAP2 SUB SWAP1 RETURN JUMPDEST PUSH2 0x304 PUSH1 0x4 DUP1 CALLDATASIZE SUB DUP2 ADD SWAP1 PUSH2 0x2FF SWAP2 SWAP1 PUSH2 0x20A8 JUMP JUMPDEST PUSH2 0xAC7 JUMP JUMPDEST PUSH1 0x40 MLOAD PUSH2 0x311 SWAP2 SWAP1 PUSH2 0x21A6 JUMP JUMPDEST PUSH1 0x40 MLOAD DUP1 SWAP2 SUB SWAP1 RETURN JUMPDEST PUSH2 0x334 PUSH1 0x4 DUP1 CALLDATASIZE SUB DUP2 ADD SWAP1 PUSH2 0x32F SWAP2 SWAP1 PUSH2 0x1F75 JUMP JUMPDEST PUSH2 0xB56 JUMP JUMPDEST PUSH1 0x40 MLOAD PUSH2 0x342 SWAP3 SWAP2 SWAP1 PUSH2 0x21C8 JUMP JUMPDEST PUSH1 0x40 MLOAD DUP1 SWAP2 SUB SWAP1 RETURN JUMPDEST PUSH2 0x353 PUSH2 0xB7A JUMP JUMPDEST PUSH1 0x40 MLOAD PUSH2 0x360 SWAP2 SWAP1 PUSH2 0x1EE8 JUMP JUMPDEST PUSH1 0x40 MLOAD DUP1 SWAP2 SUB SWAP1 RETURN JUMPDEST PUSH2 0x371 PUSH2 0xB8B JUMP JUMPDEST STOP JUMPDEST PUSH2 0x38D PUSH1 0x4 DUP1 CALLDATASIZE SUB DUP2 ADD SWAP1 PUSH2 0x388 SWAP2 SWAP1 PUSH2 0x1F75 JUMP JUMPDEST PUSH2 0xB9F JUMP JUMPDEST PUSH1 0x40 MLOAD PUSH2 0x39A SWAP2 SWAP1 PUSH2 0x220C JUMP JUMPDEST PUSH1 0x40 MLOAD DUP1 SWAP2 SUB SWAP1 RETURN JUMPDEST PUSH2 0x3AB PUSH2 0xBB3 JUMP JUMPDEST PUSH1 0x40 MLOAD PUSH2 0x3B8 SWAP2 SWAP1 PUSH2 0x208D JUMP JUMPDEST PUSH1 0x40 MLOAD DUP1 SWAP2 SUB SWAP1 RETURN JUMPDEST PUSH2 0x3C9 PUSH2 0xBDC JUMP JUMPDEST PUSH1 0x40 MLOAD PUSH2 0x3D6 SWAP2 SWAP1 PUSH2 0x208D JUMP JUMPDEST PUSH1 0x40 MLOAD DUP1 SWAP2 SUB SWAP1 RETURN JUMPDEST PUSH2 0x3F9 PUSH1 0x4 DUP1 CALLDATASIZE SUB DUP2 ADD SWAP1 PUSH2 0x3F4 SWAP2 SWAP1 PUSH2 0x1F75 JUMP JUMPDEST PUSH2 0xC02 JUMP JUMPDEST PUSH1 0x40 MLOAD PUSH2 0x406 SWAP2 SWAP1 PUSH2 0x220C JUMP JUMPDEST PUSH1 0x40 MLOAD DUP1 SWAP2 SUB SWAP1 RETURN JUMPDEST PUSH2 0x417 PUSH2 0xE9E JUMP JUMPDEST PUSH1 0x40 MLOAD PUSH2 0x424 SWAP2 SWAP1 PUSH2 0x1EE8 JUMP JUMPDEST PUSH1 0x40 MLOAD DUP1 SWAP2 SUB SWAP1 RETURN JUMPDEST PUSH2 0x447 PUSH1 0x4 DUP1 CALLDATASIZE SUB DUP2 ADD SWAP1 PUSH2 0x442 SWAP2 SWAP1 PUSH2 0x2227 JUMP JUMPDEST PUSH2 0xEAF JUMP JUMPDEST PUSH1 0x40 MLOAD PUSH2 0x454 SWAP2 SWAP1 PUSH2 0x220C JUMP JUMPDEST PUSH1 0x40 MLOAD DUP1 SWAP2 SUB SWAP1 RETURN JUMPDEST PUSH2 0x465 PUSH2 0x10D2 JUMP JUMPDEST PUSH1 0x40 MLOAD PUSH2 0x472 SWAP2 SWAP1 PUSH2 0x1EE8 JUMP JUMPDEST PUSH1 0x40 MLOAD DUP1 SWAP2 SUB SWAP1 RETURN JUMPDEST PUSH2 0x483 PUSH2 0x10D9 JUMP JUMPDEST PUSH1 0x40 MLOAD PUSH2 0x490 SWAP2 SWAP1 PUSH2 0x1EE8 JUMP JUMPDEST PUSH1 0x40 MLOAD DUP1 SWAP2 SUB SWAP1 RETURN JUMPDEST PUSH2 0x4B3 PUSH1 0x4 DUP1 CALLDATASIZE SUB DUP2 ADD SWAP1 PUSH2 0x4AE SWAP2 SWAP1 PUSH2 0x20A8 JUMP JUMPDEST PUSH2 0x10DF JUMP JUMPDEST STOP JUMPDEST PUSH2 0x4BD PUSH2 0x10E3 JUMP JUMPDEST PUSH1 0x40 MLOAD PUSH2 0x4CA SWAP2 SWAP1 PUSH2 0x1EE8 JUMP JUMPDEST PUSH1 0x40 MLOAD DUP1 SWAP2 SUB SWAP1 RETURN JUMPDEST PUSH2 0x4DB PUSH2 0x10E9 JUMP JUMPDEST PUSH1 0x40 MLOAD PUSH2 0x4E8 SWAP2 SWAP1 PUSH2 0x21A6 JUMP JUMPDEST PUSH1 0x40 MLOAD DUP1 SWAP2 SUB SWAP1 RETURN JUMPDEST PUSH2 0x50B PUSH1 0x4 DUP1 CALLDATASIZE SUB DUP2 ADD SWAP1 PUSH2 0x506 SWAP2 SWAP1 PUSH2 0x1F75 JUMP JUMPDEST PUSH2 0x1106 JUMP JUMPDEST PUSH1 0x40 MLOAD PUSH2 0x518 SWAP2 SWAP1 PUSH2 0x220C JUMP JUMPDEST PUSH1 0x40 MLOAD DUP1 SWAP2 SUB SWAP1 RETURN JUMPDEST PUSH2 0x53B PUSH1 0x4 DUP1 CALLDATASIZE SUB DUP2 ADD SWAP1 PUSH2 0x536 SWAP2 SWAP1 PUSH2 0x23AD JUMP JUMPDEST PUSH2 0x111A JUMP JUMPDEST STOP JUMPDEST PUSH2 0x557 PUSH1 0x4 DUP1 CALLDATASIZE SUB DUP2 ADD SWAP1 PUSH2 0x552 SWAP2 SWAP1 PUSH2 0x1F75 JUMP JUMPDEST PUSH2 0x1265 JUMP JUMPDEST STOP JUMPDEST PUSH2 0x561 PUSH2 0x12E8 JUMP JUMPDEST PUSH1 0x40 MLOAD PUSH2 0x56E SWAP2 SWAP1 PUSH2 0x21A6 JUMP JUMPDEST PUSH1 0x40 MLOAD DUP1 SWAP2 SUB SWAP1 RETURN JUMPDEST PUSH2 0x57F PUSH2 0x1305 JUMP JUMPDEST PUSH1 0x40 MLOAD PUSH2 0x58C SWAP2 SWAP1 PUSH2 0x208D JUMP JUMPDEST PUSH1 0x40 MLOAD DUP1 SWAP2 SUB SWAP1 RETURN JUMPDEST PUSH1 0x5 SLOAD DUP2 JUMP JUMPDEST PUSH1 0xC PUSH1 0x20 MSTORE DUP1 PUSH1 0x0 MSTORE PUSH1 0x40 PUSH1 0x0 KECCAK256 PUSH1 0x0 SWAP2 POP SWAP1 POP DUP1 PUSH1 0x0 ADD SLOAD SWAP1 DUP1 PUSH1 0x1 ADD SLOAD SWAP1 DUP1 PUSH1 0x2 ADD SLOAD SWAP1 POP DUP4 JUMP JUMPDEST PUSH2 0x5CD PUSH2 0x132B JUMP JUMPDEST PUSH1 0x2 DUP2 PUSH1 0xFF AND EQ DUP1 PUSH2 0x5E2 JUMPI POP PUSH1 0x3 DUP2 PUSH1 0xFF AND EQ JUMPDEST PUSH2 0x621 JUMPI PUSH1 0x40 MLOAD PUSH32 0x8C379A000000000000000000000000000000000000000000000000000000000 DUP2 MSTORE PUSH1 0x4 ADD PUSH2 0x618 SWAP1 PUSH2 0x2453 JUMP JUMPDEST PUSH1 0x40 MLOAD DUP1 SWAP2 SUB SWAP1 REVERT JUMPDEST PUSH1 0x0 PUSH1 0x9 PUSH1 0x0 PUSH2 0x62F PUSH2 0x137A JUMP JUMPDEST PUSH20 0xFFFFFFFFFFFFFFFFFFFFFFFFFFFFFFFFFFFFFFFF AND PUSH20 0xFFFFFFFFFFFFFFFFFFFFFFFFFFFFFFFFFFFFFFFF AND DUP2 MSTORE PUSH1 0x20 ADD SWAP1 DUP2 MSTORE PUSH1 0x20 ADD PUSH1 0x0 KECCAK256 PUSH1 0x0 SWAP1 SLOAD SWAP1 PUSH2 0x100 EXP SWAP1 DIV PUSH1 0xFF AND PUSH1 0xFF AND EQ DUP1 PUSH2 0x6DC JUMPI POP PUSH1 0x2 PUSH1 0x9 PUSH1 0x0 PUSH2 0x68F PUSH2 0x137A JUMP JUMPDEST PUSH20 0xFFFFFFFFFFFFFFFFFFFFFFFFFFFFFFFFFFFFFFFF AND PUSH20 0xFFFFFFFFFFFFFFFFFFFFFFFFFFFFFFFFFFFFFFFF AND DUP2 MSTORE PUSH1 0x20 ADD SWAP1 DUP2 MSTORE PUSH1 0x20 ADD PUSH1 0x0 KECCAK256 PUSH1 0x0 SWAP1 SLOAD SWAP1 PUSH2 0x100 EXP SWAP1 DIV PUSH1 0xFF AND PUSH1 0xFF AND EQ JUMPDEST PUSH2 0x71B JUMPI PUSH1 0x40 MLOAD PUSH32 0x8C379A000000000000000000000000000000000000000000000000000000000 DUP2 MSTORE PUSH1 0x4 ADD PUSH2 0x712 SWAP1 PUSH2 0x24BF JUMP JUMPDEST PUSH1 0x40 MLOAD DUP1 SWAP2 SUB SWAP1 REVERT JUMPDEST PUSH1 0x2 DUP2 PUSH1 0xFF AND SUB PUSH2 0x73D JUMPI PUSH2 0x737 DUP3 PUSH2 0x732 PUSH2 0x137A JUMP JUMPDEST PUSH2 0x1382 JUMP JUMPDEST POP PUSH2 0x75B JUMP JUMPDEST PUSH1 0x3 DUP2 PUSH1 0xFF AND SUB PUSH2 0x75A JUMPI PUSH2 0x758 PUSH2 0x753 PUSH2 0x137A JUMP JUMPDEST PUSH2 0x1724 JUMP JUMPDEST POP JUMPDEST JUMPDEST PUSH2 0x763 PUSH2 0x17F3 JUMP JUMPDEST POP POP JUMP JUMPDEST PUSH1 0x2 PUSH1 0x0 SWAP1 SLOAD SWAP1 PUSH2 0x100 EXP SWAP1 DIV PUSH20 0xFFFFFFFFFFFFFFFFFFFFFFFFFFFFFFFFFFFFFFFF AND DUP2 JUMP JUMPDEST PUSH1 0x0 PUSH1 0x9 PUSH1 0x0 DUP4 PUSH20 0xFFFFFFFFFFFFFFFFFFFFFFFFFFFFFFFFFFFFFFFF AND PUSH20 0xFFFFFFFFFFFFFFFFFFFFFFFFFFFFFFFFFFFFFFFF AND DUP2 MSTORE PUSH1 0x20 ADD SWAP1 DUP2 MSTORE PUSH1 0x20 ADD PUSH1 0x0 KECCAK256 PUSH1 0x0 SWAP1 SLOAD SWAP1 PUSH2 0x100 EXP SWAP1 DIV PUSH1 0xFF AND PUSH1 0xFF AND SWAP1 POP SWAP2 SWAP1 POP JUMP JUMPDEST PUSH2 0x7EE PUSH2 0x17FC JUMP JUMPDEST DUP1 PUSH1 0x3 PUSH1 0x0 PUSH2 0x100 EXP DUP2 SLOAD DUP2 PUSH20 0xFFFFFFFFFFFFFFFFFFFFFFFFFFFFFFFFFFFFFFFF MUL NOT AND SWAP1 DUP4 PUSH20 0xFFFFFFFFFFFFFFFFFFFFFFFFFFFFFFFFFFFFFFFF AND MUL OR SWAP1 SSTORE POP POP JUMP JUMPDEST PUSH2 0x83A PUSH2 0x132B JUMP JUMPDEST PUSH1 0x1E DUP2 LT ISZERO DUP1 ISZERO PUSH2 0x857 JUMPI POP PUSH1 0x0 PUSH1 0x1E DUP3 PUSH2 0x855 SWAP2 SWAP1 PUSH2 0x250E JUMP JUMPDEST EQ JUMPDEST PUSH2 0x896 JUMPI PUSH1 0x40 MLOAD PUSH32 0x8C379A000000000000000000000000000000000000000000000000000000000 DUP2 MSTORE PUSH1 0x4 ADD PUSH2 0x88D SWAP1 PUSH2 0x25B1 JUMP JUMPDEST PUSH1 0x40 MLOAD DUP1 SWAP2 SUB SWAP1 REVERT JUMPDEST PUSH1 0x1 PUSH1 0x9 PUSH1 0x0 PUSH2 0x8A4 PUSH2 0x137A JUMP JUMPDEST PUSH20 0xFFFFFFFFFFFFFFFFFFFFFFFFFFFFFFFFFFFFFFFF AND PUSH20 0xFFFFFFFFFFFFFFFFFFFFFFFFFFFFFFFFFFFFFFFF AND DUP2 MSTORE PUSH1 0x20 ADD SWAP1 DUP2 MSTORE PUSH1 0x20 ADD PUSH1 0x0 KECCAK256 PUSH1 0x0 PUSH2 0x100 EXP DUP2 SLOAD DUP2 PUSH1 0xFF MUL NOT AND SWAP1 DUP4 PUSH1 0xFF AND MUL OR SWAP1 SSTORE POP PUSH2 0x400 DUP1 PUSH2 0x400 DUP5 PUSH2 0x908 SWAP2 SWAP1 PUSH2 0x2600 JUMP JUMPDEST PUSH2 0x912 SWAP2 SWAP1 PUSH2 0x2600 JUMP JUMPDEST PUSH2 0x91C SWAP2 SWAP1 PUSH2 0x2600 JUMP JUMPDEST SWAP2 POP DUP2 PUSH1 0xC PUSH1 0x0 PUSH2 0x92B PUSH2 0x137A JUMP JUMPDEST PUSH20 0xFFFFFFFFFFFFFFFFFFFFFFFFFFFFFFFFFFFFFFFF AND PUSH20 0xFFFFFFFFFFFFFFFFFFFFFFFFFFFFFFFFFFFFFFFF AND DUP2 MSTORE PUSH1 0x20 ADD SWAP1 DUP2 MSTORE PUSH1 0x20 ADD PUSH1 0x0 KECCAK256 PUSH1 0x0 ADD PUSH1 0x0 DUP3 DUP3 SLOAD PUSH2 0x977 SWAP2 SWAP1 PUSH2 0x2642 JUMP JUMPDEST SWAP3 POP POP DUP2 SWAP1 SSTORE POP DUP2 PUSH1 0xC PUSH1 0x0 PUSH2 0x98B PUSH2 0x137A JUMP JUMPDEST PUSH20 0xFFFFFFFFFFFFFFFFFFFFFFFFFFFFFFFFFFFFFFFF AND PUSH20 0xFFFFFFFFFFFFFFFFFFFFFFFFFFFFFFFFFFFFFFFF AND DUP2 MSTORE PUSH1 0x20 ADD SWAP1 DUP2 MSTORE PUSH1 0x20 ADD PUSH1 0x0 KECCAK256 PUSH1 0x1 ADD PUSH1 0x0 DUP3 DUP3 SLOAD PUSH2 0x9D7 SWAP2 SWAP1 PUSH2 0x2642 JUMP JUMPDEST SWAP3 POP POP DUP2 SWAP1 SSTORE POP PUSH3 0x15180 DUP2 PUSH2 0x9ED SWAP2 SWAP1 PUSH2 0x2600 JUMP JUMPDEST PUSH1 0xC PUSH1 0x0 PUSH2 0x9F9 PUSH2 0x137A JUMP JUMPDEST PUSH20 0xFFFFFFFFFFFFFFFFFFFFFFFFFFFFFFFFFFFFFFFF AND PUSH20 0xFFFFFFFFFFFFFFFFFFFFFFFFFFFFFFFFFFFFFFFF AND DUP2 MSTORE PUSH1 0x20 ADD SWAP1 DUP2 MSTORE PUSH1 0x20 ADD PUSH1 0x0 KECCAK256 PUSH1 0x2 ADD PUSH1 0x0 DUP3 DUP3 SLOAD PUSH2 0xA45 SWAP2 SWAP1 PUSH2 0x2642 JUMP JUMPDEST SWAP3 POP POP DUP2 SWAP1 SSTORE POP PUSH2 0xA54 PUSH2 0x137A JUMP JUMPDEST PUSH20 0xFFFFFFFFFFFFFFFFFFFFFFFFFFFFFFFFFFFFFFFF AND PUSH32 0x5BDF3F5623FA7AE0FA364FA40561A15FBDBDC8CB2B162AC2820678880F17C259 DUP4 DUP4 PUSH1 0x40 MLOAD PUSH2 0xA9B SWAP3 SWAP2 SWAP1 PUSH2 0x21C8 JUMP JUMPDEST PUSH1 0x40 MLOAD DUP1 SWAP2 SUB SWAP1 LOG2 PUSH2 0xAAB PUSH2 0x17F3 JUMP JUMPDEST POP POP JUMP JUMPDEST PUSH1 0xB PUSH1 0x20 MSTORE DUP1 PUSH1 0x0 MSTORE PUSH1 0x40 PUSH1 0x0 KECCAK256 PUSH1 0x0 SWAP2 POP SWAP1 POP SLOAD DUP2 JUMP JUMPDEST PUSH1 0x60 PUSH1 0x0 PUSH2 0xAD3 PUSH2 0x10E9 JUMP JUMPDEST SWAP1 POP DUP3 DUP2 MLOAD GT PUSH2 0xAE6 JUMPI DUP1 SWAP2 POP POP PUSH2 0xB50 JUMP JUMPDEST PUSH1 0x0 DUP4 PUSH8 0xFFFFFFFFFFFFFFFF DUP2 GT ISZERO PUSH2 0xB02 JUMPI PUSH2 0xB01 PUSH2 0x2282 JUMP JUMPDEST JUMPDEST PUSH1 0x40 MLOAD SWAP1 DUP1 DUP3 MSTORE DUP1 PUSH1 0x20 MUL PUSH1 0x20 ADD DUP3 ADD PUSH1 0x40 MSTORE DUP1 ISZERO PUSH2 0xB30 JUMPI DUP2 PUSH1 0x20 ADD PUSH1 0x20 DUP3 MUL DUP1 CALLDATASIZE DUP4 CALLDATACOPY DUP1 DUP3 ADD SWAP2 POP POP SWAP1 POP JUMPDEST POP SWAP1 POP PUSH1 0x0 DUP5 SWAP1 POP PUSH1 0x0 DUP1 PUSH2 0xB45 PUSH1 0xD PUSH2 0x187A JUMP JUMPDEST SWAP1 POP DUP4 SWAP6 POP POP POP POP POP POP JUMPDEST SWAP3 SWAP2 POP POP JUMP JUMPDEST PUSH1 0xA PUSH1 0x20 MSTORE DUP1 PUSH1 0x0 MSTORE PUSH1 0x40 PUSH1 0x0 KECCAK256 PUSH1 0x0 SWAP2 POP SWAP1 POP DUP1 PUSH1 0x0 ADD SLOAD SWAP1 DUP1 PUSH1 0x1 ADD SLOAD SWAP1 POP DUP3 JUMP JUMPDEST PUSH1 0x0 PUSH2 0xB86 PUSH1 0xD PUSH2 0x187A JUMP JUMPDEST SWAP1 POP SWAP1 JUMP JUMPDEST PUSH2 0xB93 PUSH2 0x17FC JUMP JUMPDEST PUSH2 0xB9D PUSH1 0x0 PUSH2 0x188B JUMP JUMPDEST JUMP JUMPDEST PUSH1 0x0 PUSH2 0xBAC PUSH1 0xF DUP4 PUSH2 0x194F JUMP JUMPDEST SWAP1 POP SWAP2 SWAP1 POP JUMP JUMPDEST PUSH1 0x0 DUP1 PUSH1 0x0 SWAP1 SLOAD SWAP1 PUSH2 0x100 EXP SWAP1 DIV PUSH20 0xFFFFFFFFFFFFFFFFFFFFFFFFFFFFFFFFFFFFFFFF AND SWAP1 POP SWAP1 JUMP JUMPDEST PUSH1 0x3 PUSH1 0x0 SWAP1 SLOAD SWAP1 PUSH2 0x100 EXP SWAP1 DIV PUSH20 0xFFFFFFFFFFFFFFFFFFFFFFFFFFFFFFFFFFFFFFFF AND DUP2 JUMP JUMPDEST PUSH1 0x0 PUSH2 0xC0C PUSH2 0x17FC JUMP JUMPDEST PUSH1 0x0 PUSH1 0x9 PUSH1 0x0 DUP5 PUSH20 0xFFFFFFFFFFFFFFFFFFFFFFFFFFFFFFFFFFFFFFFF AND PUSH20 0xFFFFFFFFFFFFFFFFFFFFFFFFFFFFFFFFFFFFFFFF AND DUP2 MSTORE PUSH1 0x20 ADD SWAP1 DUP2 MSTORE PUSH1 0x20 ADD PUSH1 0x0 KECCAK256 PUSH1 0x0 SWAP1 SLOAD SWAP1 PUSH2 0x100 EXP SWAP1 DIV PUSH1 0xFF AND PUSH1 0xFF AND SUB PUSH2 0xC9E JUMPI PUSH1 0x40 MLOAD PUSH32 0x8C379A000000000000000000000000000000000000000000000000000000000 DUP2 MSTORE PUSH1 0x4 ADD PUSH2 0xC95 SWAP1 PUSH2 0x26C2 JUMP JUMPDEST PUSH1 0x40 MLOAD DUP1 SWAP2 SUB SWAP1 REVERT JUMPDEST PUSH1 0x1 PUSH1 0x9 PUSH1 0x0 DUP5 PUSH20 0xFFFFFFFFFFFFFFFFFFFFFFFFFFFFFFFFFFFFFFFF AND PUSH20 0xFFFFFFFFFFFFFFFFFFFFFFFFFFFFFFFFFFFFFFFF AND DUP2 MSTORE PUSH1 0x20 ADD SWAP1 DUP2 MSTORE PUSH1 0x20 ADD PUSH1 0x0 KECCAK256 PUSH1 0x0 SWAP1 SLOAD SWAP1 PUSH2 0x100 EXP SWAP1 DIV PUSH1 0xFF AND PUSH1 0xFF AND SUB PUSH2 0xD05 JUMPI PUSH2 0xD00 PUSH1 0xD DUP4 PUSH2 0x1A34 JUMP JUMPDEST PUSH2 0xD69 JUMP JUMPDEST PUSH1 0x2 PUSH1 0x9 PUSH1 0x0 DUP5 PUSH20 0xFFFFFFFFFFFFFFFFFFFFFFFFFFFFFFFFFFFFFFFF AND PUSH20 0xFFFFFFFFFFFFFFFFFFFFFFFFFFFFFFFFFFFFFFFF AND DUP2 MSTORE PUSH1 0x20 ADD SWAP1 DUP2 MSTORE PUSH1 0x20 ADD PUSH1 0x0 KECCAK256 PUSH1 0x0 SWAP1 SLOAD SWAP1 PUSH2 0x100 EXP SWAP1 DIV PUSH1 0xFF AND PUSH1 0xFF AND SUB PUSH2 0xD68 JUMPI PUSH2 0xD67 PUSH1 0xF DUP4 PUSH2 0x1A34 JUMP JUMPDEST JUMPDEST JUMPDEST DUP2 PUSH20 0xFFFFFFFFFFFFFFFFFFFFFFFFFFFFFFFFFFFFFFFF AND PUSH32 0xC0944D59892E6715B5F3FBF230ED4545FC611C304AC5E1827E583585B4180159 PUSH1 0x9 PUSH1 0x0 DUP6 PUSH20 0xFFFFFFFFFFFFFFFFFFFFFFFFFFFFFFFFFFFFFFFF AND PUSH20 0xFFFFFFFFFFFFFFFFFFFFFFFFFFFFFFFFFFFFFFFF AND DUP2 MSTORE PUSH1 0x20 ADD SWAP1 DUP2 MSTORE PUSH1 0x20 ADD PUSH1 0x0 KECCAK256 PUSH1 0x0 SWAP1 SLOAD SWAP1 PUSH2 0x100 EXP SWAP1 DIV PUSH1 0xFF AND PUSH1 0x40 MLOAD PUSH2 0xDFB SWAP2 SWAP1 PUSH2 0x26F1 JUMP JUMPDEST PUSH1 0x40 MLOAD DUP1 SWAP2 SUB SWAP1 LOG2 PUSH1 0x9 PUSH1 0x0 DUP4 PUSH20 0xFFFFFFFFFFFFFFFFFFFFFFFFFFFFFFFFFFFFFFFF AND PUSH20 0xFFFFFFFFFFFFFFFFFFFFFFFFFFFFFFFFFFFFFFFF AND DUP2 MSTORE PUSH1 0x20 ADD SWAP1 DUP2 MSTORE PUSH1 0x20 ADD PUSH1 0x0 KECCAK256 PUSH1 0x0 PUSH2 0x100 EXP DUP2 SLOAD SWAP1 PUSH1 0xFF MUL NOT AND SWAP1 SSTORE PUSH1 0xB PUSH1 0x0 DUP4 PUSH20 0xFFFFFFFFFFFFFFFFFFFFFFFFFFFFFFFFFFFFFFFF AND PUSH20 0xFFFFFFFFFFFFFFFFFFFFFFFFFFFFFFFFFFFFFFFF AND DUP2 MSTORE PUSH1 0x20 ADD SWAP1 DUP2 MSTORE PUSH1 0x20 ADD PUSH1 0x0 KECCAK256 PUSH1 0x0 SWAP1 SSTORE PUSH1 0x1 SWAP1 POP SWAP2 SWAP1 POP JUMP JUMPDEST PUSH1 0x0 PUSH2 0xEAA PUSH1 0xF PUSH2 0x187A JUMP JUMPDEST SWAP1 POP SWAP1 JUMP JUMPDEST PUSH1 0x0 PUSH2 0xEB9 PUSH2 0x17FC JUMP JUMPDEST PUSH1 0x0 PUSH1 0x9 PUSH1 0x0 DUP6 PUSH20 0xFFFFFFFFFFFFFFFFFFFFFFFFFFFFFFFFFFFFFFFF AND PUSH20 0xFFFFFFFFFFFFFFFFFFFFFFFFFFFFFFFFFFFFFFFF AND DUP2 MSTORE PUSH1 0x20 ADD SWAP1 DUP2 MSTORE PUSH1 0x20 ADD PUSH1 0x0 KECCAK256 PUSH1 0x0 SWAP1 SLOAD SWAP1 PUSH2 0x100 EXP SWAP1 DIV PUSH1 0xFF AND PUSH1 0xFF AND SUB PUSH2 0xF4B JUMPI PUSH1 0x40 MLOAD PUSH32 0x8C379A000000000000000000000000000000000000000000000000000000000 DUP2 MSTORE PUSH1 0x4 ADD PUSH2 0xF42 SWAP1 PUSH2 0x26C2 JUMP JUMPDEST PUSH1 0x40 MLOAD DUP1 SWAP2 SUB SWAP1 REVERT JUMPDEST PUSH1 0x0 PUSH1 0xB PUSH1 0x0 DUP6 PUSH20 0xFFFFFFFFFFFFFFFFFFFFFFFFFFFFFFFFFFFFFFFF AND PUSH20 0xFFFFFFFFFFFFFFFFFFFFFFFFFFFFFFFFFFFFFFFF AND DUP2 MSTORE PUSH1 0x20 ADD SWAP1 DUP2 MSTORE PUSH1 0x20 ADD PUSH1 0x0 KECCAK256 SLOAD LT ISZERO PUSH2 0xFCE JUMPI PUSH1 0x40 MLOAD PUSH32 0x8C379A000000000000000000000000000000000000000000000000000000000 DUP2 MSTORE PUSH1 0x4 ADD PUSH2 0xFC5 SWAP1 PUSH2 0x2758 JUMP JUMPDEST PUSH1 0x40 MLOAD DUP1 SWAP2 SUB SWAP1 REVERT JUMPDEST DUP2 PUSH1 0xB PUSH1 0x0 DUP6 PUSH20 0xFFFFFFFFFFFFFFFFFFFFFFFFFFFFFFFFFFFFFFFF AND PUSH20 0xFFFFFFFFFFFFFFFFFFFFFFFFFFFFFFFFFFFFFFFF AND DUP2 MSTORE PUSH1 0x20 ADD SWAP1 DUP2 MSTORE PUSH1 0x20 ADD PUSH1 0x0 KECCAK256 SLOAD GT PUSH2 0x106F JUMPI DUP2 PUSH1 0xB PUSH1 0x0 DUP6 PUSH20 0xFFFFFFFFFFFFFFFFFFFFFFFFFFFFFFFFFFFFFFFF AND PUSH20 0xFFFFFFFFFFFFFFFFFFFFFFFFFFFFFFFFFFFFFFFF AND DUP2 MSTORE PUSH1 0x20 ADD SWAP1 DUP2 MSTORE PUSH1 0x20 ADD PUSH1 0x0 KECCAK256 PUSH1 0x0 DUP3 DUP3 SLOAD PUSH2 0x1063 SWAP2 SWAP1 PUSH2 0x2778 JUMP JUMPDEST SWAP3 POP POP DUP2 SWAP1 SSTORE POP PUSH2 0x107A JUMP JUMPDEST PUSH2 0x1078 DUP4 PUSH2 0xC02 JUMP JUMPDEST POP JUMPDEST DUP3 PUSH20 0xFFFFFFFFFFFFFFFFFFFFFFFFFFFFFFFFFFFFFFFF AND PUSH32 0x53FCB0D5AC9969DCEC28BAA60BEB9B56B28FA301971F7E19C6C8BEB0D1E86ECE DUP4 PUSH1 0x40 MLOAD PUSH2 0x10C0 SWAP2 SWAP1 PUSH2 0x1EE8 JUMP JUMPDEST PUSH1 0x40 MLOAD DUP1 SWAP2 SUB SWAP1 LOG2 PUSH1 0x1 SWAP1 POP SWAP3 SWAP2 POP POP JUMP JUMPDEST PUSH3 0x15180 DUP2 JUMP JUMPDEST PUSH1 0x6 SLOAD DUP2 JUMP JUMPDEST POP POP JUMP JUMPDEST PUSH1 0x7 SLOAD DUP2 JUMP JUMPDEST PUSH1 0x60 PUSH2 0x1101 PUSH1 0xD PUSH1 0x0 PUSH2 0x10FC PUSH1 0xD PUSH2 0x187A JUMP JUMPDEST PUSH2 0x1C62 JUMP JUMPDEST SWAP1 POP SWAP1 JUMP JUMPDEST PUSH1 0x0 PUSH2 0x1113 PUSH1 0xD DUP4 PUSH2 0x194F JUMP JUMPDEST SWAP1 POP SWAP2 SWAP1 POP JUMP JUMPDEST PUSH2 0x1122 PUSH2 0x132B JUMP JUMPDEST PUSH1 0x0 DUP1 PUSH1 0x0 DUP1 PUSH1 0x0 DUP1 PUSH1 0x0 DUP1 PUSH1 0x0 DUP10 DUP1 PUSH1 0x20 ADD SWAP1 MLOAD DUP2 ADD SWAP1 PUSH2 0x1144 SWAP2 SWAP1 PUSH2 0x2A88 JUMP JUMPDEST SWAP9 POP SWAP9 POP SWAP9 POP SWAP9 POP SWAP9 POP SWAP9 POP SWAP9 POP SWAP9 POP SWAP9 POP PUSH1 0x3 PUSH1 0x0 SWAP1 SLOAD SWAP1 PUSH2 0x100 EXP SWAP1 DIV PUSH20 0xFFFFFFFFFFFFFFFFFFFFFFFFFFFFFFFFFFFFFFFF AND PUSH20 0xFFFFFFFFFFFFFFFFFFFFFFFFFFFFFFFFFFFFFFFF AND PUSH4 0x47618F18 DUP11 DUP11 DUP11 DUP11 DUP11 DUP10 DUP10 DUP10 PUSH1 0x40 MLOAD DUP10 PUSH4 0xFFFFFFFF AND PUSH1 0xE0 SHL DUP2 MSTORE PUSH1 0x4 ADD PUSH2 0x11BF SWAP9 SWAP8 SWAP7 SWAP6 SWAP5 SWAP4 SWAP3 SWAP2 SWAP1 PUSH2 0x2D12 JUMP JUMPDEST PUSH1 0x20 PUSH1 0x40 MLOAD DUP1 DUP4 SUB DUP2 PUSH1 0x0 DUP8 GAS CALL ISZERO DUP1 ISZERO PUSH2 0x11DE JUMPI RETURNDATASIZE PUSH1 0x0 DUP1 RETURNDATACOPY RETURNDATASIZE PUSH1 0x0 REVERT JUMPDEST POP POP POP POP PUSH1 0x40 MLOAD RETURNDATASIZE PUSH1 0x1F NOT PUSH1 0x1F DUP3 ADD AND DUP3 ADD DUP1 PUSH1 0x40 MSTORE POP DUP2 ADD SWAP1 PUSH2 0x1202 SWAP2 SWAP1 PUSH2 0x2DD8 JUMP JUMPDEST POP DUP1 PUSH20 0xFFFFFFFFFFFFFFFFFFFFFFFFFFFFFFFFFFFFFFFF AND PUSH32 0x30EBD9082452F045CBB677F33BAFCD83242C048D21FA3F84705AB051A900AC33 DUP7 PUSH1 0x40 MLOAD PUSH2 0x1249 SWAP2 SWAP1 PUSH2 0x1EE8 JUMP JUMPDEST PUSH1 0x40 MLOAD DUP1 SWAP2 SUB SWAP1 LOG2 POP POP POP POP POP POP POP POP POP PUSH2 0x1262 PUSH2 0x17F3 JUMP JUMPDEST POP JUMP JUMPDEST PUSH2 0x126D PUSH2 0x17FC JUMP JUMPDEST PUSH1 0x0 PUSH20 0xFFFFFFFFFFFFFFFFFFFFFFFFFFFFFFFFFFFFFFFF AND DUP2 PUSH20 0xFFFFFFFFFFFFFFFFFFFFFFFFFFFFFFFFFFFFFFFF AND SUB PUSH2 0x12DC JUMPI PUSH1 0x40 MLOAD PUSH32 0x8C379A000000000000000000000000000000000000000000000000000000000 DUP2 MSTORE PUSH1 0x4 ADD PUSH2 0x12D3 SWAP1 PUSH2 0x2E77 JUMP JUMPDEST PUSH1 0x40 MLOAD DUP1 SWAP2 SUB SWAP1 REVERT JUMPDEST PUSH2 0x12E5 DUP2 PUSH2 0x188B JUMP JUMPDEST POP JUMP JUMPDEST PUSH1 0x60 PUSH2 0x1300 PUSH1 0xF PUSH1 0x0 PUSH2 0x12FB PUSH1 0xF PUSH2 0x187A JUMP JUMPDEST PUSH2 0x1C62 JUMP JUMPDEST SWAP1 POP SWAP1 JUMP JUMPDEST PUSH1 0x4 PUSH1 0x0 SWAP1 SLOAD SWAP1 PUSH2 0x100 EXP SWAP1 DIV PUSH20 0xFFFFFFFFFFFFFFFFFFFFFFFFFFFFFFFFFFFFFFFF AND DUP2 JUMP JUMPDEST PUSH1 0x2 PUSH1 0x1 SLOAD SUB PUSH2 0x1370 JUMPI PUSH1 0x40 MLOAD PUSH32 0x8C379A000000000000000000000000000000000000000000000000000000000 DUP2 MSTORE PUSH1 0x4 ADD PUSH2 0x1367 SWAP1 PUSH2 0x2EE3 JUMP JUMPDEST PUSH1 0x40 MLOAD DUP1 SWAP2 SUB SWAP1 REVERT JUMPDEST PUSH1 0x2 PUSH1 0x1 DUP2 SWAP1 SSTORE POP JUMP JUMPDEST PUSH1 0x0 CALLER SWAP1 POP SWAP1 JUMP JUMPDEST PUSH1 0x0 DUP1 DUP4 GT PUSH2 0x13C6 JUMPI PUSH1 0x40 MLOAD PUSH32 0x8C379A000000000000000000000000000000000000000000000000000000000 DUP2 MSTORE PUSH1 0x4 ADD PUSH2 0x13BD SWAP1 PUSH2 0x2F4F JUMP JUMPDEST PUSH1 0x40 MLOAD DUP1 SWAP2 SUB SWAP1 REVERT JUMPDEST PUSH1 0x0 DUP4 PUSH1 0x5 SLOAD PUSH2 0x13D6 SWAP2 SWAP1 PUSH2 0x2600 JUMP JUMPDEST SWAP1 POP DUP1 PUSH1 0x4 PUSH1 0x0 SWAP1 SLOAD SWAP1 PUSH2 0x100 EXP SWAP1 DIV PUSH20 0xFFFFFFFFFFFFFFFFFFFFFFFFFFFFFFFFFFFFFFFF AND PUSH20 0xFFFFFFFFFFFFFFFFFFFFFFFFFFFFFFFFFFFFFFFF AND PUSH4 0x70A08231 DUP6 PUSH1 0x40 MLOAD DUP3 PUSH4 0xFFFFFFFF AND PUSH1 0xE0 SHL DUP2 MSTORE PUSH1 0x4 ADD PUSH2 0x1434 SWAP2 SWAP1 PUSH2 0x208D JUMP JUMPDEST PUSH1 0x20 PUSH1 0x40 MLOAD DUP1 DUP4 SUB DUP2 DUP7 GAS STATICCALL ISZERO DUP1 ISZERO PUSH2 0x1451 JUMPI RETURNDATASIZE PUSH1 0x0 DUP1 RETURNDATACOPY RETURNDATASIZE PUSH1 0x0 REVERT JUMPDEST POP POP POP POP PUSH1 0x40 MLOAD RETURNDATASIZE PUSH1 0x1F NOT PUSH1 0x1F DUP3 ADD AND DUP3 ADD DUP1 PUSH1 0x40 MSTORE POP DUP2 ADD SWAP1 PUSH2 0x1475 SWAP2 SWAP1 PUSH2 0x2F6F JUMP JUMPDEST LT ISZERO PUSH2 0x14B6 JUMPI PUSH1 0x40 MLOAD PUSH32 0x8C379A000000000000000000000000000000000000000000000000000000000 DUP2 MSTORE PUSH1 0x4 ADD PUSH2 0x14AD SWAP1 PUSH2 0x2FE8 JUMP JUMPDEST PUSH1 0x40 MLOAD DUP1 SWAP2 SUB SWAP1 REVERT JUMPDEST PUSH2 0x14C1 PUSH1 0xD DUP5 PUSH2 0x194F JUMP JUMPDEST PUSH2 0x14D1 JUMPI PUSH2 0x14D0 PUSH1 0xD DUP5 PUSH2 0x1E0A JUMP JUMPDEST JUMPDEST PUSH1 0x0 PUSH1 0x4 PUSH1 0x0 SWAP1 SLOAD SWAP1 PUSH2 0x100 EXP SWAP1 DIV PUSH20 0xFFFFFFFFFFFFFFFFFFFFFFFFFFFFFFFFFFFFFFFF AND PUSH20 0xFFFFFFFFFFFFFFFFFFFFFFFFFFFFFFFFFFFFFFFF AND PUSH4 0x23B872DD DUP6 PUSH1 0x2 PUSH1 0x0 SWAP1 SLOAD SWAP1 PUSH2 0x100 EXP SWAP1 DIV PUSH20 0xFFFFFFFFFFFFFFFFFFFFFFFFFFFFFFFFFFFFFFFF AND DUP6 PUSH1 0x40 MLOAD DUP5 PUSH4 0xFFFFFFFF AND PUSH1 0xE0 SHL DUP2 MSTORE PUSH1 0x4 ADD PUSH2 0x1554 SWAP4 SWAP3 SWAP2 SWAP1 PUSH2 0x3008 JUMP JUMPDEST PUSH1 0x20 PUSH1 0x40 MLOAD DUP1 DUP4 SUB DUP2 PUSH1 0x0 DUP8 GAS CALL ISZERO DUP1 ISZERO PUSH2 0x1573 JUMPI RETURNDATASIZE PUSH1 0x0 DUP1 RETURNDATACOPY RETURNDATASIZE PUSH1 0x0 REVERT JUMPDEST POP POP POP POP PUSH1 0x40 MLOAD RETURNDATASIZE PUSH1 0x1F NOT PUSH1 0x1F DUP3 ADD AND DUP3 ADD DUP1 PUSH1 0x40 MSTORE POP DUP2 ADD SWAP1 PUSH2 0x1597 SWAP2 SWAP1 PUSH2 0x2DD8 JUMP JUMPDEST SWAP1 POP PUSH2 0x400 DUP1 PUSH2 0x400 DUP8 PUSH2 0x15AB SWAP2 SWAP1 PUSH2 0x2600 JUMP JUMPDEST PUSH2 0x15B5 SWAP2 SWAP1 PUSH2 0x2600 JUMP JUMPDEST PUSH2 0x15BF SWAP2 SWAP1 PUSH2 0x2600 JUMP JUMPDEST SWAP5 POP DUP5 PUSH1 0xA PUSH1 0x0 DUP7 PUSH20 0xFFFFFFFFFFFFFFFFFFFFFFFFFFFFFFFFFFFFFFFF AND PUSH20 0xFFFFFFFFFFFFFFFFFFFFFFFFFFFFFFFFFFFFFFFF AND DUP2 MSTORE PUSH1 0x20 ADD SWAP1 DUP2 MSTORE PUSH1 0x20 ADD PUSH1 0x0 KECCAK256 PUSH1 0x0 ADD PUSH1 0x0 DUP3 DUP3 SLOAD PUSH2 0x1613 SWAP2 SWAP1 PUSH2 0x2642 JUMP JUMPDEST SWAP3 POP POP DUP2 SWAP1 SSTORE POP DUP2 PUSH1 0xB PUSH1 0x0 DUP7 PUSH20 0xFFFFFFFFFFFFFFFFFFFFFFFFFFFFFFFFFFFFFFFF AND PUSH20 0xFFFFFFFFFFFFFFFFFFFFFFFFFFFFFFFFFFFFFFFF AND DUP2 MSTORE PUSH1 0x20 ADD SWAP1 DUP2 MSTORE PUSH1 0x20 ADD PUSH1 0x0 KECCAK256 PUSH1 0x0 DUP3 DUP3 SLOAD PUSH2 0x1669 SWAP2 SWAP1 PUSH2 0x2642 JUMP JUMPDEST SWAP3 POP POP DUP2 SWAP1 SSTORE POP PUSH1 0x2 PUSH1 0x9 PUSH1 0x0 DUP7 PUSH20 0xFFFFFFFFFFFFFFFFFFFFFFFFFFFFFFFFFFFFFFFF AND PUSH20 0xFFFFFFFFFFFFFFFFFFFFFFFFFFFFFFFFFFFFFFFF AND DUP2 MSTORE PUSH1 0x20 ADD SWAP1 DUP2 MSTORE PUSH1 0x20 ADD PUSH1 0x0 KECCAK256 PUSH1 0x0 PUSH2 0x100 EXP DUP2 SLOAD DUP2 PUSH1 0xFF MUL NOT AND SWAP1 DUP4 PUSH1 0xFF AND MUL OR SWAP1 SSTORE POP DUP4 PUSH20 0xFFFFFFFFFFFFFFFFFFFFFFFFFFFFFFFFFFFFFFFF AND PUSH32 0xE04F064C94FE0EDEE3C04978EA069C5445CF7146E23ED179C153983E44778311 DUP4 DUP8 PUSH1 0x40 MLOAD PUSH2 0x1711 SWAP3 SWAP2 SWAP1 PUSH2 0x21C8 JUMP JUMPDEST PUSH1 0x40 MLOAD DUP1 SWAP2 SUB SWAP1 LOG2 DUP1 SWAP3 POP POP POP SWAP3 SWAP2 POP POP JUMP JUMPDEST PUSH1 0x0 PUSH2 0x1731 PUSH1 0xF DUP4 PUSH2 0x194F JUMP JUMPDEST PUSH2 0x1741 JUMPI PUSH2 0x1740 PUSH1 0xF DUP4 PUSH2 0x1E0A JUMP JUMPDEST JUMPDEST PUSH1 0x3 PUSH1 0x9 PUSH1 0x0 DUP5 PUSH20 0xFFFFFFFFFFFFFFFFFFFFFFFFFFFFFFFFFFFFFFFF AND PUSH20 0xFFFFFFFFFFFFFFFFFFFFFFFFFFFFFFFFFFFFFFFF AND DUP2 MSTORE PUSH1 0x20 ADD SWAP1 DUP2 MSTORE PUSH1 0x20 ADD PUSH1 0x0 KECCAK256 PUSH1 0x0 PUSH2 0x100 EXP DUP2 SLOAD DUP2 PUSH1 0xFF MUL NOT AND SWAP1 DUP4 PUSH1 0xFF AND MUL OR SWAP1 SSTORE POP DUP2 PUSH20 0xFFFFFFFFFFFFFFFFFFFFFFFFFFFFFFFFFFFFFFFF AND PUSH32 0x261A1E5397DA268BD5F5561920D0FD2B3AC2F1A2C9DEA7CD9BC679A8F18D87D3 PUSH1 0x6 SLOAD PUSH1 0x40 MLOAD PUSH2 0x17E2 SWAP2 SWAP1 PUSH2 0x1EE8 JUMP JUMPDEST PUSH1 0x40 MLOAD DUP1 SWAP2 SUB SWAP1 LOG2 PUSH1 0x1 SWAP1 POP SWAP2 SWAP1 POP JUMP JUMPDEST PUSH1 0x1 DUP1 DUP2 SWAP1 SSTORE POP JUMP JUMPDEST PUSH2 0x1804 PUSH2 0x137A JUMP JUMPDEST PUSH20 0xFFFFFFFFFFFFFFFFFFFFFFFFFFFFFFFFFFFFFFFF AND PUSH2 0x1822 PUSH2 0xBB3 JUMP JUMPDEST PUSH20 0xFFFFFFFFFFFFFFFFFFFFFFFFFFFFFFFFFFFFFFFF AND EQ PUSH2 0x1878 JUMPI PUSH1 0x40 MLOAD PUSH32 0x8C379A000000000000000000000000000000000000000000000000000000000 DUP2 MSTORE PUSH1 0x4 ADD PUSH2 0x186F SWAP1 PUSH2 0x308B JUMP JUMPDEST PUSH1 0x40 MLOAD DUP1 SWAP2 SUB SWAP1 REVERT JUMPDEST JUMP JUMPDEST PUSH1 0x0 DUP2 PUSH1 0x0 ADD DUP1 SLOAD SWAP1 POP SWAP1 POP SWAP2 SWAP1 POP JUMP JUMPDEST PUSH1 0x0 DUP1 PUSH1 0x0 SWAP1 SLOAD SWAP1 PUSH2 0x100 EXP SWAP1 DIV PUSH20 0xFFFFFFFFFFFFFFFFFFFFFFFFFFFFFFFFFFFFFFFF AND SWAP1 POP DUP2 PUSH1 0x0 DUP1 PUSH2 0x100 EXP DUP2 SLOAD DUP2 PUSH20 0xFFFFFFFFFFFFFFFFFFFFFFFFFFFFFFFFFFFFFFFF MUL NOT AND SWAP1 DUP4 PUSH20 0xFFFFFFFFFFFFFFFFFFFFFFFFFFFFFFFFFFFFFFFF AND MUL OR SWAP1 SSTORE POP DUP2 PUSH20 0xFFFFFFFFFFFFFFFFFFFFFFFFFFFFFFFFFFFFFFFF AND DUP2 PUSH20 0xFFFFFFFFFFFFFFFFFFFFFFFFFFFFFFFFFFFFFFFF AND PUSH32 0x8BE0079C531659141344CD1FD0A4F28419497F9722A3DAAFE3B4186F6B6457E0 PUSH1 0x40 MLOAD PUSH1 0x40 MLOAD DUP1 SWAP2 SUB SWAP1 LOG3 POP POP JUMP JUMPDEST PUSH1 0x0 DUP1 DUP4 PUSH1 0x0 ADD DUP1 SLOAD SWAP1 POP SUB PUSH2 0x1968 JUMPI PUSH1 0x0 SWAP1 POP PUSH2 0x1A2E JUMP JUMPDEST PUSH1 0x0 DUP4 PUSH1 0x1 ADD PUSH1 0x0 DUP5 PUSH20 0xFFFFFFFFFFFFFFFFFFFFFFFFFFFFFFFFFFFFFFFF AND PUSH20 0xFFFFFFFFFFFFFFFFFFFFFFFFFFFFFFFFFFFFFFFF AND DUP2 MSTORE PUSH1 0x20 ADD SWAP1 DUP2 MSTORE PUSH1 0x20 ADD PUSH1 0x0 KECCAK256 SLOAD SWAP1 POP PUSH1 0x0 DUP2 EQ ISZERO DUP1 PUSH2 0x1A2A JUMPI POP DUP3 PUSH20 0xFFFFFFFFFFFFFFFFFFFFFFFFFFFFFFFFFFFFFFFF AND DUP5 PUSH1 0x0 ADD PUSH1 0x0 DUP2 SLOAD DUP2 LT PUSH2 0x19E7 JUMPI PUSH2 0x19E6 PUSH2 0x30AB JUMP JUMPDEST JUMPDEST SWAP1 PUSH1 0x0 MSTORE PUSH1 0x20 PUSH1 0x0 KECCAK256 ADD PUSH1 0x0 SWAP1 SLOAD SWAP1 PUSH2 0x100 EXP SWAP1 DIV PUSH20 0xFFFFFFFFFFFFFFFFFFFFFFFFFFFFFFFFFFFFFFFF AND PUSH20 0xFFFFFFFFFFFFFFFFFFFFFFFFFFFFFFFFFFFFFFFF AND EQ JUMPDEST SWAP2 POP POP JUMPDEST SWAP3 SWAP2 POP POP JUMP JUMPDEST PUSH2 0x1A3E DUP3 DUP3 PUSH2 0x194F JUMP JUMPDEST PUSH2 0x1A7D JUMPI PUSH1 0x40 MLOAD PUSH32 0x8C379A000000000000000000000000000000000000000000000000000000000 DUP2 MSTORE PUSH1 0x4 ADD PUSH2 0x1A74 SWAP1 PUSH2 0x3126 JUMP JUMPDEST PUSH1 0x40 MLOAD DUP1 SWAP2 SUB SWAP1 REVERT JUMPDEST PUSH1 0x0 DUP3 PUSH1 0x1 ADD PUSH1 0x0 DUP4 PUSH20 0xFFFFFFFFFFFFFFFFFFFFFFFFFFFFFFFFFFFFFFFF AND PUSH20 0xFFFFFFFFFFFFFFFFFFFFFFFFFFFFFFFFFFFFFFFF AND DUP2 MSTORE PUSH1 0x20 ADD SWAP1 DUP2 MSTORE PUSH1 0x20 ADD PUSH1 0x0 KECCAK256 SLOAD SWAP1 POP PUSH1 0x0 PUSH1 0x1 DUP5 PUSH1 0x0 ADD DUP1 SLOAD SWAP1 POP PUSH2 0x1AD9 SWAP2 SWAP1 PUSH2 0x2778 JUMP JUMPDEST SWAP1 POP DUP1 DUP3 EQ PUSH2 0x1BCE JUMPI PUSH1 0x0 DUP5 PUSH1 0x0 ADD DUP3 DUP2 SLOAD DUP2 LT PUSH2 0x1AFA JUMPI PUSH2 0x1AF9 PUSH2 0x30AB JUMP JUMPDEST JUMPDEST SWAP1 PUSH1 0x0 MSTORE PUSH1 0x20 PUSH1 0x0 KECCAK256 ADD PUSH1 0x0 SWAP1 SLOAD SWAP1 PUSH2 0x100 EXP SWAP1 DIV PUSH20 0xFFFFFFFFFFFFFFFFFFFFFFFFFFFFFFFFFFFFFFFF AND SWAP1 POP DUP1 DUP6 PUSH1 0x0 ADD DUP5 DUP2 SLOAD DUP2 LT PUSH2 0x1B3E JUMPI PUSH2 0x1B3D PUSH2 0x30AB JUMP JUMPDEST JUMPDEST SWAP1 PUSH1 0x0 MSTORE PUSH1 0x20 PUSH1 0x0 KECCAK256 ADD PUSH1 0x0 PUSH2 0x100 EXP DUP2 SLOAD DUP2 PUSH20 0xFFFFFFFFFFFFFFFFFFFFFFFFFFFFFFFFFFFFFFFF MUL NOT AND SWAP1 DUP4 PUSH20 0xFFFFFFFFFFFFFFFFFFFFFFFFFFFFFFFFFFFFFFFF AND MUL OR SWAP1 SSTORE POP DUP3 DUP6 PUSH1 0x1 ADD PUSH1 0x0 DUP4 PUSH20 0xFFFFFFFFFFFFFFFFFFFFFFFFFFFFFFFFFFFFFFFF AND PUSH20 0xFFFFFFFFFFFFFFFFFFFFFFFFFFFFFFFFFFFFFFFF AND DUP2 MSTORE PUSH1 0x20 ADD SWAP1 DUP2 MSTORE PUSH1 0x20 ADD PUSH1 0x0 KECCAK256 DUP2 SWAP1 SSTORE POP POP JUMPDEST DUP4 PUSH1 0x0 ADD DUP1 SLOAD DUP1 PUSH2 0x1BE2 JUMPI PUSH2 0x1BE1 PUSH2 0x3146 JUMP JUMPDEST JUMPDEST PUSH1 0x1 SWAP1 SUB DUP2 DUP2 SWAP1 PUSH1 0x0 MSTORE PUSH1 0x20 PUSH1 0x0 KECCAK256 ADD PUSH1 0x0 PUSH2 0x100 EXP DUP2 SLOAD SWAP1 PUSH20 0xFFFFFFFFFFFFFFFFFFFFFFFFFFFFFFFFFFFFFFFF MUL NOT AND SWAP1 SSTORE SWAP1 SSTORE DUP4 PUSH1 0x1 ADD PUSH1 0x0 DUP5 PUSH20 0xFFFFFFFFFFFFFFFFFFFFFFFFFFFFFFFFFFFFFFFF AND PUSH20 0xFFFFFFFFFFFFFFFFFFFFFFFFFFFFFFFFFFFFFFFF AND DUP2 MSTORE PUSH1 0x20 ADD SWAP1 DUP2 MSTORE PUSH1 0x20 ADD PUSH1 0x0 KECCAK256 PUSH1 0x0 SWAP1 SSTORE POP POP POP POP JUMP JUMPDEST PUSH1 0x60 PUSH1 0x0 DUP3 DUP5 PUSH2 0x1C72 SWAP2 SWAP1 PUSH2 0x2642 JUMP JUMPDEST SWAP1 POP DUP5 PUSH1 0x0 ADD DUP1 SLOAD SWAP1 POP DUP2 GT ISZERO PUSH2 0x1C8E JUMPI DUP5 PUSH1 0x0 ADD DUP1 SLOAD SWAP1 POP SWAP1 POP JUMPDEST DUP4 DUP2 GT PUSH2 0x1CE7 JUMPI PUSH1 0x0 PUSH8 0xFFFFFFFFFFFFFFFF DUP2 GT ISZERO PUSH2 0x1CB0 JUMPI PUSH2 0x1CAF PUSH2 0x2282 JUMP JUMPDEST JUMPDEST PUSH1 0x40 MLOAD SWAP1 DUP1 DUP3 MSTORE DUP1 PUSH1 0x20 MUL PUSH1 0x20 ADD DUP3 ADD PUSH1 0x40 MSTORE DUP1 ISZERO PUSH2 0x1CDE JUMPI DUP2 PUSH1 0x20 ADD PUSH1 0x20 DUP3 MUL DUP1 CALLDATASIZE DUP4 CALLDATACOPY DUP1 DUP3 ADD SWAP2 POP POP SWAP1 POP JUMPDEST POP SWAP2 POP POP PUSH2 0x1E03 JUMP JUMPDEST PUSH1 0x0 DUP5 DUP3 PUSH2 0x1CF5 SWAP2 SWAP1 PUSH2 0x2778 JUMP JUMPDEST SWAP1 POP PUSH1 0x0 DUP2 PUSH8 0xFFFFFFFFFFFFFFFF DUP2 GT ISZERO PUSH2 0x1D13 JUMPI PUSH2 0x1D12 PUSH2 0x2282 JUMP JUMPDEST JUMPDEST PUSH1 0x40 MLOAD SWAP1 DUP1 DUP3 MSTORE DUP1 PUSH1 0x20 MUL PUSH1 0x20 ADD DUP3 ADD PUSH1 0x40 MSTORE DUP1 ISZERO PUSH2 0x1D41 JUMPI DUP2 PUSH1 0x20 ADD PUSH1 0x20 DUP3 MUL DUP1 CALLDATASIZE DUP4 CALLDATACOPY DUP1 DUP3 ADD SWAP2 POP POP SWAP1 POP JUMPDEST POP SWAP1 POP PUSH1 0x0 JUMPDEST DUP3 DUP2 LT ISZERO PUSH2 0x1DFB JUMPI DUP8 PUSH1 0x0 ADD DUP8 DUP3 PUSH2 0x1D5F SWAP2 SWAP1 PUSH2 0x2642 JUMP JUMPDEST DUP2 SLOAD DUP2 LT PUSH2 0x1D70 JUMPI PUSH2 0x1D6F PUSH2 0x30AB JUMP JUMPDEST JUMPDEST SWAP1 PUSH1 0x0 MSTORE PUSH1 0x20 PUSH1 0x0 KECCAK256 ADD PUSH1 0x0 SWAP1 SLOAD SWAP1 PUSH2 0x100 EXP SWAP1 DIV PUSH20 0xFFFFFFFFFFFFFFFFFFFFFFFFFFFFFFFFFFFFFFFF AND DUP3 DUP3 DUP2 MLOAD DUP2 LT PUSH2 0x1DAE JUMPI PUSH2 0x1DAD PUSH2 0x30AB JUMP JUMPDEST JUMPDEST PUSH1 0x20 MUL PUSH1 0x20 ADD ADD SWAP1 PUSH20 0xFFFFFFFFFFFFFFFFFFFFFFFFFFFFFFFFFFFFFFFF AND SWAP1 DUP2 PUSH20 0xFFFFFFFFFFFFFFFFFFFFFFFFFFFFFFFFFFFFFFFF AND DUP2 MSTORE POP POP DUP1 DUP1 PUSH2 0x1DF3 SWAP1 PUSH2 0x3175 JUMP JUMPDEST SWAP2 POP POP PUSH2 0x1D47 JUMP JUMPDEST POP DUP1 SWAP4 POP POP POP POP JUMPDEST SWAP4 SWAP3 POP POP POP JUMP JUMPDEST PUSH2 0x1E14 DUP3 DUP3 PUSH2 0x194F JUMP JUMPDEST PUSH2 0x1ECB JUMPI DUP2 PUSH1 0x0 ADD DUP1 SLOAD SWAP1 POP DUP3 PUSH1 0x1 ADD PUSH1 0x0 DUP4 PUSH20 0xFFFFFFFFFFFFFFFFFFFFFFFFFFFFFFFFFFFFFFFF AND PUSH20 0xFFFFFFFFFFFFFFFFFFFFFFFFFFFFFFFFFFFFFFFF AND DUP2 MSTORE PUSH1 0x20 ADD SWAP1 DUP2 MSTORE PUSH1 0x20 ADD PUSH1 0x0 KECCAK256 DUP2 SWAP1 SSTORE POP DUP2 PUSH1 0x0 ADD DUP2 SWAP1 DUP1 PUSH1 0x1 DUP2 SLOAD ADD DUP1 DUP3 SSTORE DUP1 SWAP2 POP POP PUSH1 0x1 SWAP1 SUB SWAP1 PUSH1 0x0 MSTORE PUSH1 0x20 PUSH1 0x0 KECCAK256 ADD PUSH1 0x0 SWAP1 SWAP2 SWAP1 SWAP2 SWAP1 SWAP2 PUSH2 0x100 EXP DUP2 SLOAD DUP2 PUSH20 0xFFFFFFFFFFFFFFFFFFFFFFFFFFFFFFFFFFFFFFFF MUL NOT AND SWAP1 DUP4 PUSH20 0xFFFFFFFFFFFFFFFFFFFFFFFFFFFFFFFFFFFFFFFF AND MUL OR SWAP1 SSTORE POP JUMPDEST POP POP JUMP JUMPDEST PUSH1 0x0 DUP2 SWAP1 POP SWAP2 SWAP1 POP JUMP JUMPDEST PUSH2 0x1EE2 DUP2 PUSH2 0x1ECF JUMP JUMPDEST DUP3 MSTORE POP POP JUMP JUMPDEST PUSH1 0x0 PUSH1 0x20 DUP3 ADD SWAP1 POP PUSH2 0x1EFD PUSH1 0x0 DUP4 ADD DUP5 PUSH2 0x1ED9 JUMP JUMPDEST SWAP3 SWAP2 POP POP JUMP JUMPDEST PUSH1 0x0 PUSH1 0x40 MLOAD SWAP1 POP SWAP1 JUMP JUMPDEST PUSH1 0x0 DUP1 REVERT JUMPDEST PUSH1 0x0 DUP1 REVERT JUMPDEST PUSH1 0x0 PUSH20 0xFFFFFFFFFFFFFFFFFFFFFFFFFFFFFFFFFFFFFFFF DUP3 AND SWAP1 POP SWAP2 SWAP1 POP JUMP JUMPDEST PUSH1 0x0 PUSH2 0x1F42 DUP3 PUSH2 0x1F17 JUMP JUMPDEST SWAP1 POP SWAP2 SWAP1 POP JUMP JUMPDEST PUSH2 0x1F52 DUP2 PUSH2 0x1F37 JUMP JUMPDEST DUP2 EQ PUSH2 0x1F5D JUMPI PUSH1 0x0 DUP1 REVERT JUMPDEST POP JUMP JUMPDEST PUSH1 0x0 DUP2 CALLDATALOAD SWAP1 POP PUSH2 0x1F6F DUP2 PUSH2 0x1F49 JUMP JUMPDEST SWAP3 SWAP2 POP POP JUMP JUMPDEST PUSH1 0x0 PUSH1 0x20 DUP3 DUP5 SUB SLT ISZERO PUSH2 0x1F8B JUMPI PUSH2 0x1F8A PUSH2 0x1F0D JUMP JUMPDEST JUMPDEST PUSH1 0x0 PUSH2 0x1F99 DUP5 DUP3 DUP6 ADD PUSH2 0x1F60 JUMP JUMPDEST SWAP2 POP POP SWAP3 SWAP2 POP POP JUMP JUMPDEST PUSH1 0x0 PUSH1 0x60 DUP3 ADD SWAP1 POP PUSH2 0x1FB7 PUSH1 0x0 DUP4 ADD DUP7 PUSH2 0x1ED9 JUMP JUMPDEST PUSH2 0x1FC4 PUSH1 0x20 DUP4 ADD DUP6 PUSH2 0x1ED9 JUMP JUMPDEST PUSH2 0x1FD1 PUSH1 0x40 DUP4 ADD DUP5 PUSH2 0x1ED9 JUMP JUMPDEST SWAP5 SWAP4 POP POP POP POP JUMP JUMPDEST PUSH2 0x1FE2 DUP2 PUSH2 0x1ECF JUMP JUMPDEST DUP2 EQ PUSH2 0x1FED JUMPI PUSH1 0x0 DUP1 REVERT JUMPDEST POP JUMP JUMPDEST PUSH1 0x0 DUP2 CALLDATALOAD SWAP1 POP PUSH2 0x1FFF DUP2 PUSH2 0x1FD9 JUMP JUMPDEST SWAP3 SWAP2 POP POP JUMP JUMPDEST PUSH1 0x0 PUSH1 0xFF DUP3 AND SWAP1 POP SWAP2 SWAP1 POP JUMP JUMPDEST PUSH2 0x201B DUP2 PUSH2 0x2005 JUMP JUMPDEST DUP2 EQ PUSH2 0x2026 JUMPI PUSH1 0x0 DUP1 REVERT JUMPDEST POP JUMP JUMPDEST PUSH1 0x0 DUP2 CALLDATALOAD SWAP1 POP PUSH2 0x2038 DUP2 PUSH2 0x2012 JUMP JUMPDEST SWAP3 SWAP2 POP POP JUMP JUMPDEST PUSH1 0x0 DUP1 PUSH1 0x40 DUP4 DUP6 SUB SLT ISZERO PUSH2 0x2055 JUMPI PUSH2 0x2054 PUSH2 0x1F0D JUMP JUMPDEST JUMPDEST PUSH1 0x0 PUSH2 0x2063 DUP6 DUP3 DUP7 ADD PUSH2 0x1FF0 JUMP JUMPDEST SWAP3 POP POP PUSH1 0x20 PUSH2 0x2074 DUP6 DUP3 DUP7 ADD PUSH2 0x2029 JUMP JUMPDEST SWAP2 POP POP SWAP3 POP SWAP3 SWAP1 POP JUMP JUMPDEST PUSH2 0x2087 DUP2 PUSH2 0x1F37 JUMP JUMPDEST DUP3 MSTORE POP POP JUMP JUMPDEST PUSH1 0x0 PUSH1 0x20 DUP3 ADD SWAP1 POP PUSH2 0x20A2 PUSH1 0x0 DUP4 ADD DUP5 PUSH2 0x207E JUMP JUMPDEST SWAP3 SWAP2 POP POP JUMP JUMPDEST PUSH1 0x0 DUP1 PUSH1 0x40 DUP4 DUP6 SUB SLT ISZERO PUSH2 0x20BF JUMPI PUSH2 0x20BE PUSH2 0x1F0D JUMP JUMPDEST JUMPDEST PUSH1 0x0 PUSH2 0x20CD DUP6 DUP3 DUP7 ADD PUSH2 0x1FF0 JUMP JUMPDEST SWAP3 POP POP PUSH1 0x20 PUSH2 0x20DE DUP6 DUP3 DUP7 ADD PUSH2 0x1FF0 JUMP JUMPDEST SWAP2 POP POP SWAP3 POP SWAP3 SWAP1 POP JUMP JUMPDEST PUSH1 0x0 DUP2 MLOAD SWAP1 POP SWAP2 SWAP1 POP JUMP JUMPDEST PUSH1 0x0 DUP3 DUP3 MSTORE PUSH1 0x20 DUP3 ADD SWAP1 POP SWAP3 SWAP2 POP POP JUMP JUMPDEST PUSH1 0x0 DUP2 SWAP1 POP PUSH1 0x20 DUP3 ADD SWAP1 POP SWAP2 SWAP1 POP JUMP JUMPDEST PUSH2 0x211D DUP2 PUSH2 0x1F37 JUMP JUMPDEST DUP3 MSTORE POP POP JUMP JUMPDEST PUSH1 0x0 PUSH2 0x212F DUP4 DUP4 PUSH2 0x2114 JUMP JUMPDEST PUSH1 0x20 DUP4 ADD SWAP1 POP SWAP3 SWAP2 POP POP JUMP JUMPDEST PUSH1 0x0 PUSH1 0x20 DUP3 ADD SWAP1 POP SWAP2 SWAP1 POP JUMP JUMPDEST PUSH1 0x0 PUSH2 0x2153 DUP3 PUSH2 0x20E8 JUMP JUMPDEST PUSH2 0x215D DUP2 DUP6 PUSH2 0x20F3 JUMP JUMPDEST SWAP4 POP PUSH2 0x2168 DUP4 PUSH2 0x2104 JUMP JUMPDEST DUP1 PUSH1 0x0 JUMPDEST DUP4 DUP2 LT ISZERO PUSH2 0x2199 JUMPI DUP2 MLOAD PUSH2 0x2180 DUP9 DUP3 PUSH2 0x2123 JUMP JUMPDEST SWAP8 POP PUSH2 0x218B DUP4 PUSH2 0x213B JUMP JUMPDEST SWAP3 POP POP PUSH1 0x1 DUP2 ADD SWAP1 POP PUSH2 0x216C JUMP JUMPDEST POP DUP6 SWAP4 POP POP POP POP SWAP3 SWAP2 POP POP JUMP JUMPDEST PUSH1 0x0 PUSH1 0x20 DUP3 ADD SWAP1 POP DUP2 DUP2 SUB PUSH1 0x0 DUP4 ADD MSTORE PUSH2 0x21C0 DUP2 DUP5 PUSH2 0x2148 JUMP JUMPDEST SWAP1 POP SWAP3 SWAP2 POP POP JUMP JUMPDEST PUSH1 0x0 PUSH1 0x40 DUP3 ADD SWAP1 POP PUSH2 0x21DD PUSH1 0x0 DUP4 ADD DUP6 PUSH2 0x1ED9 JUMP JUMPDEST PUSH2 0x21EA PUSH1 0x20 DUP4 ADD DUP5 PUSH2 0x1ED9 JUMP JUMPDEST SWAP4 SWAP3 POP POP POP JUMP JUMPDEST PUSH1 0x0 DUP2 ISZERO ISZERO SWAP1 POP SWAP2 SWAP1 POP JUMP JUMPDEST PUSH2 0x2206 DUP2 PUSH2 0x21F1 JUMP JUMPDEST DUP3 MSTORE POP POP JUMP JUMPDEST PUSH1 0x0 PUSH1 0x20 DUP3 ADD SWAP1 POP PUSH2 0x2221 PUSH1 0x0 DUP4 ADD DUP5 PUSH2 0x21FD JUMP JUMPDEST SWAP3 SWAP2 POP POP JUMP JUMPDEST PUSH1 0x0 DUP1 PUSH1 0x40 DUP4 DUP6 SUB SLT ISZERO PUSH2 0x223E JUMPI PUSH2 0x223D PUSH2 0x1F0D JUMP JUMPDEST JUMPDEST PUSH1 0x0 PUSH2 0x224C DUP6 DUP3 DUP7 ADD PUSH2 0x1F60 JUMP JUMPDEST SWAP3 POP POP PUSH1 0x20 PUSH2 0x225D DUP6 DUP3 DUP7 ADD PUSH2 0x1FF0 JUMP JUMPDEST SWAP2 POP POP SWAP3 POP SWAP3 SWAP1 POP JUMP JUMPDEST PUSH1 0x0 DUP1 REVERT JUMPDEST PUSH1 0x0 DUP1 REVERT JUMPDEST PUSH1 0x0 PUSH1 0x1F NOT PUSH1 0x1F DUP4 ADD AND SWAP1 POP SWAP2 SWAP1 POP JUMP JUMPDEST PUSH32 0x4E487B7100000000000000000000000000000000000000000000000000000000 PUSH1 0x0 MSTORE PUSH1 0x41 PUSH1 0x4 MSTORE PUSH1 0x24 PUSH1 0x0 REVERT JUMPDEST PUSH2 0x22BA DUP3 PUSH2 0x2271 JUMP JUMPDEST DUP2 ADD DUP2 DUP2 LT PUSH8 0xFFFFFFFFFFFFFFFF DUP3 GT OR ISZERO PUSH2 0x22D9 JUMPI PUSH2 0x22D8 PUSH2 0x2282 JUMP JUMPDEST JUMPDEST DUP1 PUSH1 0x40 MSTORE POP POP POP JUMP JUMPDEST PUSH1 0x0 PUSH2 0x22EC PUSH2 0x1F03 JUMP JUMPDEST SWAP1 POP PUSH2 0x22F8 DUP3 DUP3 PUSH2 0x22B1 JUMP JUMPDEST SWAP2 SWAP1 POP JUMP JUMPDEST PUSH1 0x0 PUSH8 0xFFFFFFFFFFFFFFFF DUP3 GT ISZERO PUSH2 0x2318 JUMPI PUSH2 0x2317 PUSH2 0x2282 JUMP JUMPDEST JUMPDEST PUSH2 0x2321 DUP3 PUSH2 0x2271 JUMP JUMPDEST SWAP1 POP PUSH1 0x20 DUP2 ADD SWAP1 POP SWAP2 SWAP1 POP JUMP JUMPDEST DUP3 DUP2 DUP4 CALLDATACOPY PUSH1 0x0 DUP4 DUP4 ADD MSTORE POP POP POP JUMP JUMPDEST PUSH1 0x0 PUSH2 0x2350 PUSH2 0x234B DUP5 PUSH2 0x22FD JUMP JUMPDEST PUSH2 0x22E2 JUMP JUMPDEST SWAP1 POP DUP3 DUP2 MSTORE PUSH1 0x20 DUP2 ADD DUP5 DUP5 DUP5 ADD GT ISZERO PUSH2 0x236C JUMPI PUSH2 0x236B PUSH2 0x226C JUMP JUMPDEST JUMPDEST PUSH2 0x2377 DUP5 DUP3 DUP6 PUSH2 0x232E JUMP JUMPDEST POP SWAP4 SWAP3 POP POP POP JUMP JUMPDEST PUSH1 0x0 DUP3 PUSH1 0x1F DUP4 ADD SLT PUSH2 0x2394 JUMPI PUSH2 0x2393 PUSH2 0x2267 JUMP JUMPDEST JUMPDEST DUP2 CALLDATALOAD PUSH2 0x23A4 DUP5 DUP3 PUSH1 0x20 DUP7 ADD PUSH2 0x233D JUMP JUMPDEST SWAP2 POP POP SWAP3 SWAP2 POP POP JUMP JUMPDEST PUSH1 0x0 PUSH1 0x20 DUP3 DUP5 SUB SLT ISZERO PUSH2 0x23C3 JUMPI PUSH2 0x23C2 PUSH2 0x1F0D JUMP JUMPDEST JUMPDEST PUSH1 0x0 DUP3 ADD CALLDATALOAD PUSH8 0xFFFFFFFFFFFFFFFF DUP2 GT ISZERO PUSH2 0x23E1 JUMPI PUSH2 0x23E0 PUSH2 0x1F12 JUMP JUMPDEST JUMPDEST PUSH2 0x23ED DUP5 DUP3 DUP6 ADD PUSH2 0x237F JUMP JUMPDEST SWAP2 POP POP SWAP3 SWAP2 POP POP JUMP JUMPDEST PUSH1 0x0 DUP3 DUP3 MSTORE PUSH1 0x20 DUP3 ADD SWAP1 POP SWAP3 SWAP2 POP POP JUMP JUMPDEST PUSH32 0x50656C6467653A20726F6C65206E6F7420657869737421000000000000000000 PUSH1 0x0 DUP3 ADD MSTORE POP JUMP JUMPDEST PUSH1 0x0 PUSH2 0x243D PUSH1 0x17 DUP4 PUSH2 0x23F6 JUMP JUMPDEST SWAP2 POP PUSH2 0x2448 DUP3 PUSH2 0x2407 JUMP JUMPDEST PUSH1 0x20 DUP3 ADD SWAP1 POP SWAP2 SWAP1 POP JUMP JUMPDEST PUSH1 0x0 PUSH1 0x20 DUP3 ADD SWAP1 POP DUP2 DUP2 SUB PUSH1 0x0 DUP4 ADD MSTORE PUSH2 0x246C DUP2 PUSH2 0x2430 JUMP JUMPDEST SWAP1 POP SWAP2 SWAP1 POP JUMP JUMPDEST PUSH32 0x50656C6467653A20616C7265616479207374616B656421000000000000000000 PUSH1 0x0 DUP3 ADD MSTORE POP JUMP JUMPDEST PUSH1 0x0 PUSH2 0x24A9 PUSH1 0x17 DUP4 PUSH2 0x23F6 JUMP JUMPDEST SWAP2 POP PUSH2 0x24B4 DUP3 PUSH2 0x2473 JUMP JUMPDEST PUSH1 0x20 DUP3 ADD SWAP1 POP SWAP2 SWAP1 POP JUMP JUMPDEST PUSH1 0x0 PUSH1 0x20 DUP3 ADD SWAP1 POP DUP2 DUP2 SUB PUSH1 0x0 DUP4 ADD MSTORE PUSH2 0x24D8 DUP2 PUSH2 0x249C JUMP JUMPDEST SWAP1 POP SWAP2 SWAP1 POP JUMP JUMPDEST PUSH32 0x4E487B7100000000000000000000000000000000000000000000000000000000 PUSH1 0x0 MSTORE PUSH1 0x12 PUSH1 0x4 MSTORE PUSH1 0x24 PUSH1 0x0 REVERT JUMPDEST PUSH1 0x0 PUSH2 0x2519 DUP3 PUSH2 0x1ECF JUMP JUMPDEST SWAP2 POP PUSH2 0x2524 DUP4 PUSH2 0x1ECF JUMP JUMPDEST SWAP3 POP DUP3 PUSH2 0x2534 JUMPI PUSH2 0x2533 PUSH2 0x24DF JUMP JUMPDEST JUMPDEST DUP3 DUP3 MOD SWAP1 POP SWAP3 SWAP2 POP POP JUMP JUMPDEST PUSH32 0x506C656467653A206275792073746F726167652074696D652073657420657272 PUSH1 0x0 DUP3 ADD MSTORE PUSH32 0x6F72210000000000000000000000000000000000000000000000000000000000 PUSH1 0x20 DUP3 ADD MSTORE POP JUMP JUMPDEST PUSH1 0x0 PUSH2 0x259B PUSH1 0x23 DUP4 PUSH2 0x23F6 JUMP JUMPDEST SWAP2 POP PUSH2 0x25A6 DUP3 PUSH2 0x253F JUMP JUMPDEST PUSH1 0x40 DUP3 ADD SWAP1 POP SWAP2 SWAP1 POP JUMP JUMPDEST PUSH1 0x0 PUSH1 0x20 DUP3 ADD SWAP1 POP DUP2 DUP2 SUB PUSH1 0x0 DUP4 ADD MSTORE PUSH2 0x25CA DUP2 PUSH2 0x258E JUMP JUMPDEST SWAP1 POP SWAP2 SWAP1 POP JUMP JUMPDEST PUSH32 0x4E487B7100000000000000000000000000000000000000000000000000000000 PUSH1 0x0 MSTORE PUSH1 0x11 PUSH1 0x4 MSTORE PUSH1 0x24 PUSH1 0x0 REVERT JUMPDEST PUSH1 0x0 PUSH2 0x260B DUP3 PUSH2 0x1ECF JUMP JUMPDEST SWAP2 POP PUSH2 0x2616 DUP4 PUSH2 0x1ECF JUMP JUMPDEST SWAP3 POP DUP3 DUP3 MUL PUSH2 0x2624 DUP2 PUSH2 0x1ECF JUMP JUMPDEST SWAP2 POP DUP3 DUP3 DIV DUP5 EQ DUP4 ISZERO OR PUSH2 0x263B JUMPI PUSH2 0x263A PUSH2 0x25D1 JUMP JUMPDEST JUMPDEST POP SWAP3 SWAP2 POP POP JUMP JUMPDEST PUSH1 0x0 PUSH2 0x264D DUP3 PUSH2 0x1ECF JUMP JUMPDEST SWAP2 POP PUSH2 0x2658 DUP4 PUSH2 0x1ECF JUMP JUMPDEST SWAP3 POP DUP3 DUP3 ADD SWAP1 POP DUP1 DUP3 GT ISZERO PUSH2 0x2670 JUMPI PUSH2 0x266F PUSH2 0x25D1 JUMP JUMPDEST JUMPDEST SWAP3 SWAP2 POP POP JUMP JUMPDEST PUSH32 0x506C656467653A2075736572206E6F7420657869737421000000000000000000 PUSH1 0x0 DUP3 ADD MSTORE POP JUMP JUMPDEST PUSH1 0x0 PUSH2 0x26AC PUSH1 0x17 DUP4 PUSH2 0x23F6 JUMP JUMPDEST SWAP2 POP PUSH2 0x26B7 DUP3 PUSH2 0x2676 JUMP JUMPDEST PUSH1 0x20 DUP3 ADD SWAP1 POP SWAP2 SWAP1 POP JUMP JUMPDEST PUSH1 0x0 PUSH1 0x20 DUP3 ADD SWAP1 POP DUP2 DUP2 SUB PUSH1 0x0 DUP4 ADD MSTORE PUSH2 0x26DB DUP2 PUSH2 0x269F JUMP JUMPDEST SWAP1 POP SWAP2 SWAP1 POP JUMP JUMPDEST PUSH2 0x26EB DUP2 PUSH2 0x2005 JUMP JUMPDEST DUP3 MSTORE POP POP JUMP JUMPDEST PUSH1 0x0 PUSH1 0x20 DUP3 ADD SWAP1 POP PUSH2 0x2706 PUSH1 0x0 DUP4 ADD DUP5 PUSH2 0x26E2 JUMP JUMPDEST SWAP3 SWAP2 POP POP JUMP JUMPDEST PUSH32 0x506C656467653A207374616B6520616D6F756E74206973207A65726F21000000 PUSH1 0x0 DUP3 ADD MSTORE POP JUMP JUMPDEST PUSH1 0x0 PUSH2 0x2742 PUSH1 0x1D DUP4 PUSH2 0x23F6 JUMP JUMPDEST SWAP2 POP PUSH2 0x274D DUP3 PUSH2 0x270C JUMP JUMPDEST PUSH1 0x20 DUP3 ADD SWAP1 POP SWAP2 SWAP1 POP JUMP JUMPDEST PUSH1 0x0 PUSH1 0x20 DUP3 ADD SWAP1 POP DUP2 DUP2 SUB PUSH1 0x0 DUP4 ADD MSTORE PUSH2 0x2771 DUP2 PUSH2 0x2735 JUMP JUMPDEST SWAP1 POP SWAP2 SWAP1 POP JUMP JUMPDEST PUSH1 0x0 PUSH2 0x2783 DUP3 PUSH2 0x1ECF JUMP JUMPDEST SWAP2 POP PUSH2 0x278E DUP4 PUSH2 0x1ECF JUMP JUMPDEST SWAP3 POP DUP3 DUP3 SUB SWAP1 POP DUP2 DUP2 GT ISZERO PUSH2 0x27A6 JUMPI PUSH2 0x27A5 PUSH2 0x25D1 JUMP JUMPDEST JUMPDEST SWAP3 SWAP2 POP POP JUMP JUMPDEST PUSH1 0x0 PUSH8 0xFFFFFFFFFFFFFFFF DUP3 GT ISZERO PUSH2 0x27C7 JUMPI PUSH2 0x27C6 PUSH2 0x2282 JUMP JUMPDEST JUMPDEST PUSH1 0x20 DUP3 MUL SWAP1 POP PUSH1 0x20 DUP2 ADD SWAP1 POP SWAP2 SWAP1 POP JUMP JUMPDEST PUSH1 0x0 DUP1 REVERT JUMPDEST PUSH1 0x0 DUP2 MLOAD SWAP1 POP PUSH2 0x27EC DUP2 PUSH2 0x1F49 JUMP JUMPDEST SWAP3 SWAP2 POP POP JUMP JUMPDEST PUSH1 0x0 PUSH2 0x2805 PUSH2 0x2800 DUP5 PUSH2 0x27AC JUMP JUMPDEST PUSH2 0x22E2 JUMP JUMPDEST SWAP1 POP DUP1 DUP4 DUP3 MSTORE PUSH1 0x20 DUP3 ADD SWAP1 POP PUSH1 0x20 DUP5 MUL DUP4 ADD DUP6 DUP2 GT ISZERO PUSH2 0x2828 JUMPI PUSH2 0x2827 PUSH2 0x27D8 JUMP JUMPDEST JUMPDEST DUP4 JUMPDEST DUP2 DUP2 LT ISZERO PUSH2 0x2851 JUMPI DUP1 PUSH2 0x283D DUP9 DUP3 PUSH2 0x27DD JUMP JUMPDEST DUP5 MSTORE PUSH1 0x20 DUP5 ADD SWAP4 POP POP PUSH1 0x20 DUP2 ADD SWAP1 POP PUSH2 0x282A JUMP JUMPDEST POP POP POP SWAP4 SWAP3 POP POP POP JUMP JUMPDEST PUSH1 0x0 DUP3 PUSH1 0x1F DUP4 ADD SLT PUSH2 0x2870 JUMPI PUSH2 0x286F PUSH2 0x2267 JUMP JUMPDEST JUMPDEST DUP2 MLOAD PUSH2 0x2880 DUP5 DUP3 PUSH1 0x20 DUP7 ADD PUSH2 0x27F2 JUMP JUMPDEST SWAP2 POP POP SWAP3 SWAP2 POP POP JUMP JUMPDEST PUSH1 0x0 PUSH8 0xFFFFFFFFFFFFFFFF DUP3 GT ISZERO PUSH2 0x28A4 JUMPI PUSH2 0x28A3 PUSH2 0x2282 JUMP JUMPDEST JUMPDEST PUSH1 0x20 DUP3 MUL SWAP1 POP PUSH1 0x20 DUP2 ADD SWAP1 POP SWAP2 SWAP1 POP JUMP JUMPDEST PUSH1 0x0 PUSH8 0xFFFFFFFFFFFFFFFF DUP3 GT ISZERO PUSH2 0x28D0 JUMPI PUSH2 0x28CF PUSH2 0x2282 JUMP JUMPDEST JUMPDEST PUSH2 0x28D9 DUP3 PUSH2 0x2271 JUMP JUMPDEST SWAP1 POP PUSH1 0x20 DUP2 ADD SWAP1 POP SWAP2 SWAP1 POP JUMP JUMPDEST PUSH1 0x0 JUMPDEST DUP4 DUP2 LT ISZERO PUSH2 0x2904 JUMPI DUP1 DUP3 ADD MLOAD DUP2 DUP5 ADD MSTORE PUSH1 0x20 DUP2 ADD SWAP1 POP PUSH2 0x28E9 JUMP JUMPDEST PUSH1 0x0 DUP5 DUP5 ADD MSTORE POP POP POP POP JUMP JUMPDEST PUSH1 0x0 PUSH2 0x2923 PUSH2 0x291E DUP5 PUSH2 0x28B5 JUMP JUMPDEST PUSH2 0x22E2 JUMP JUMPDEST SWAP1 POP DUP3 DUP2 MSTORE PUSH1 0x20 DUP2 ADD DUP5 DUP5 DUP5 ADD GT ISZERO PUSH2 0x293F JUMPI PUSH2 0x293E PUSH2 0x226C JUMP JUMPDEST JUMPDEST PUSH2 0x294A DUP5 DUP3 DUP6 PUSH2 0x28E6 JUMP JUMPDEST POP SWAP4 SWAP3 POP POP POP JUMP JUMPDEST PUSH1 0x0 DUP3 PUSH1 0x1F DUP4 ADD SLT PUSH2 0x2967 JUMPI PUSH2 0x2966 PUSH2 0x2267 JUMP JUMPDEST JUMPDEST DUP2 MLOAD PUSH2 0x2977 DUP5 DUP3 PUSH1 0x20 DUP7 ADD PUSH2 0x2910 JUMP JUMPDEST SWAP2 POP POP SWAP3 SWAP2 POP POP JUMP JUMPDEST PUSH1 0x0 PUSH2 0x2993 PUSH2 0x298E DUP5 PUSH2 0x2889 JUMP JUMPDEST PUSH2 0x22E2 JUMP JUMPDEST SWAP1 POP DUP1 DUP4 DUP3 MSTORE PUSH1 0x20 DUP3 ADD SWAP1 POP PUSH1 0x20 DUP5 MUL DUP4 ADD DUP6 DUP2 GT ISZERO PUSH2 0x29B6 JUMPI PUSH2 0x29B5 PUSH2 0x27D8 JUMP JUMPDEST JUMPDEST DUP4 JUMPDEST DUP2 DUP2 LT ISZERO PUSH2 0x29FD JUMPI DUP1 MLOAD PUSH8 0xFFFFFFFFFFFFFFFF DUP2 GT ISZERO PUSH2 0x29DB JUMPI PUSH2 0x29DA PUSH2 0x2267 JUMP JUMPDEST JUMPDEST DUP1 DUP7 ADD PUSH2 0x29E8 DUP10 DUP3 PUSH2 0x2952 JUMP JUMPDEST DUP6 MSTORE PUSH1 0x20 DUP6 ADD SWAP5 POP POP POP PUSH1 0x20 DUP2 ADD SWAP1 POP PUSH2 0x29B8 JUMP JUMPDEST POP POP POP SWAP4 SWAP3 POP POP POP JUMP JUMPDEST PUSH1 0x0 DUP3 PUSH1 0x1F DUP4 ADD SLT PUSH2 0x2A1C JUMPI PUSH2 0x2A1B PUSH2 0x2267 JUMP JUMPDEST JUMPDEST DUP2 MLOAD PUSH2 0x2A2C DUP5 DUP3 PUSH1 0x20 DUP7 ADD PUSH2 0x2980 JUMP JUMPDEST SWAP2 POP POP SWAP3 SWAP2 POP POP JUMP JUMPDEST PUSH1 0x0 DUP2 MLOAD SWAP1 POP PUSH2 0x2A44 DUP2 PUSH2 0x1FD9 JUMP JUMPDEST SWAP3 SWAP2 POP POP JUMP JUMPDEST PUSH1 0x0 PUSH2 0x2A55 DUP3 PUSH2 0x1F17 JUMP JUMPDEST SWAP1 POP SWAP2 SWAP1 POP JUMP JUMPDEST PUSH2 0x2A65 DUP2 PUSH2 0x2A4A JUMP JUMPDEST DUP2 EQ PUSH2 0x2A70 JUMPI PUSH1 0x0 DUP1 REVERT JUMPDEST POP JUMP JUMPDEST PUSH1 0x0 DUP2 MLOAD SWAP1 POP PUSH2 0x2A82 DUP2 PUSH2 0x2A5C JUMP JUMPDEST SWAP3 SWAP2 POP POP JUMP JUMPDEST PUSH1 0x0 DUP1 PUSH1 0x0 DUP1 PUSH1 0x0 DUP1 PUSH1 0x0 DUP1 PUSH1 0x0 PUSH2 0x120 DUP11 DUP13 SUB SLT ISZERO PUSH2 0x2AAB JUMPI PUSH2 0x2AAA PUSH2 0x1F0D JUMP JUMPDEST JUMPDEST PUSH1 0x0 DUP11 ADD MLOAD PUSH8 0xFFFFFFFFFFFFFFFF DUP2 GT ISZERO PUSH2 0x2AC9 JUMPI PUSH2 0x2AC8 PUSH2 0x1F12 JUMP JUMPDEST JUMPDEST PUSH2 0x2AD5 DUP13 DUP3 DUP14 ADD PUSH2 0x285B JUMP JUMPDEST SWAP10 POP POP PUSH1 0x20 DUP11 ADD MLOAD PUSH8 0xFFFFFFFFFFFFFFFF DUP2 GT ISZERO PUSH2 0x2AF6 JUMPI PUSH2 0x2AF5 PUSH2 0x1F12 JUMP JUMPDEST JUMPDEST PUSH2 0x2B02 DUP13 DUP3 DUP14 ADD PUSH2 0x2A07 JUMP JUMPDEST SWAP9 POP POP PUSH1 0x40 DUP11 ADD MLOAD PUSH8 0xFFFFFFFFFFFFFFFF DUP2 GT ISZERO PUSH2 0x2B23 JUMPI PUSH2 0x2B22 PUSH2 0x1F12 JUMP JUMPDEST JUMPDEST PUSH2 0x2B2F DUP13 DUP3 DUP14 ADD PUSH2 0x2952 JUMP JUMPDEST SWAP8 POP POP PUSH1 0x60 DUP11 ADD MLOAD PUSH8 0xFFFFFFFFFFFFFFFF DUP2 GT ISZERO PUSH2 0x2B50 JUMPI PUSH2 0x2B4F PUSH2 0x1F12 JUMP JUMPDEST JUMPDEST PUSH2 0x2B5C DUP13 DUP3 DUP14 ADD PUSH2 0x2952 JUMP JUMPDEST SWAP7 POP POP PUSH1 0x80 PUSH2 0x2B6D DUP13 DUP3 DUP14 ADD PUSH2 0x2A35 JUMP JUMPDEST SWAP6 POP POP PUSH1 0xA0 PUSH2 0x2B7E DUP13 DUP3 DUP14 ADD PUSH2 0x2A35 JUMP JUMPDEST SWAP5 POP POP PUSH1 0xC0 PUSH2 0x2B8F DUP13 DUP3 DUP14 ADD PUSH2 0x2A35 JUMP JUMPDEST SWAP4 POP POP PUSH1 0xE0 PUSH2 0x2BA0 DUP13 DUP3 DUP14 ADD PUSH2 0x2A35 JUMP JUMPDEST SWAP3 POP POP PUSH2 0x100 PUSH2 0x2BB2 DUP13 DUP3 DUP14 ADD PUSH2 0x2A73 JUMP JUMPDEST SWAP2 POP POP SWAP3 SWAP6 SWAP9 POP SWAP3 SWAP6 SWAP9 POP SWAP3 SWAP6 SWAP9 JUMP JUMPDEST PUSH1 0x0 DUP2 MLOAD SWAP1 POP SWAP2 SWAP1 POP JUMP JUMPDEST PUSH1 0x0 DUP3 DUP3 MSTORE PUSH1 0x20 DUP3 ADD SWAP1 POP SWAP3 SWAP2 POP POP JUMP JUMPDEST PUSH1 0x0 DUP2 SWAP1 POP PUSH1 0x20 DUP3 ADD SWAP1 POP SWAP2 SWAP1 POP JUMP JUMPDEST PUSH1 0x0 DUP2 MLOAD SWAP1 POP SWAP2 SWAP1 POP JUMP JUMPDEST PUSH1 0x0 DUP3 DUP3 MSTORE PUSH1 0x20 DUP3 ADD SWAP1 POP SWAP3 SWAP2 POP POP JUMP JUMPDEST PUSH1 0x0 PUSH2 0x2C15 DUP3 PUSH2 0x2BEE JUMP JUMPDEST PUSH2 0x2C1F DUP2 DUP6 PUSH2 0x2BF9 JUMP JUMPDEST SWAP4 POP PUSH2 0x2C2F DUP2 DUP6 PUSH1 0x20 DUP7 ADD PUSH2 0x28E6 JUMP JUMPDEST PUSH2 0x2C38 DUP2 PUSH2 0x2271 JUMP JUMPDEST DUP5 ADD SWAP2 POP POP SWAP3 SWAP2 POP POP JUMP JUMPDEST PUSH1 0x0 PUSH2 0x2C4F DUP4 DUP4 PUSH2 0x2C0A JUMP JUMPDEST SWAP1 POP SWAP3 SWAP2 POP POP JUMP JUMPDEST PUSH1 0x0 PUSH1 0x20 DUP3 ADD SWAP1 POP SWAP2 SWAP1 POP JUMP JUMPDEST PUSH1 0x0 PUSH2 0x2C6F DUP3 PUSH2 0x2BC2 JUMP JUMPDEST PUSH2 0x2C79 DUP2 DUP6 PUSH2 0x2BCD JUMP JUMPDEST SWAP4 POP DUP4 PUSH1 0x20 DUP3 MUL DUP6 ADD PUSH2 0x2C8B DUP6 PUSH2 0x2BDE JUMP JUMPDEST DUP1 PUSH1 0x0 JUMPDEST DUP6 DUP2 LT ISZERO PUSH2 0x2CC7 JUMPI DUP5 DUP5 SUB DUP10 MSTORE DUP2 MLOAD PUSH2 0x2CA8 DUP6 DUP3 PUSH2 0x2C43 JUMP JUMPDEST SWAP5 POP PUSH2 0x2CB3 DUP4 PUSH2 0x2C57 JUMP JUMPDEST SWAP3 POP PUSH1 0x20 DUP11 ADD SWAP10 POP POP PUSH1 0x1 DUP2 ADD SWAP1 POP PUSH2 0x2C8F JUMP JUMPDEST POP DUP3 SWAP8 POP DUP8 SWAP6 POP POP POP POP POP POP SWAP3 SWAP2 POP POP JUMP JUMPDEST PUSH1 0x0 PUSH2 0x2CE4 DUP3 PUSH2 0x2BEE JUMP JUMPDEST PUSH2 0x2CEE DUP2 DUP6 PUSH2 0x23F6 JUMP JUMPDEST SWAP4 POP PUSH2 0x2CFE DUP2 DUP6 PUSH1 0x20 DUP7 ADD PUSH2 0x28E6 JUMP JUMPDEST PUSH2 0x2D07 DUP2 PUSH2 0x2271 JUMP JUMPDEST DUP5 ADD SWAP2 POP POP SWAP3 SWAP2 POP POP JUMP JUMPDEST PUSH1 0x0 PUSH2 0x100 DUP3 ADD SWAP1 POP DUP2 DUP2 SUB PUSH1 0x0 DUP4 ADD MSTORE PUSH2 0x2D2D DUP2 DUP12 PUSH2 0x2148 JUMP JUMPDEST SWAP1 POP DUP2 DUP2 SUB PUSH1 0x20 DUP4 ADD MSTORE PUSH2 0x2D41 DUP2 DUP11 PUSH2 0x2C64 JUMP JUMPDEST SWAP1 POP DUP2 DUP2 SUB PUSH1 0x40 DUP4 ADD MSTORE PUSH2 0x2D55 DUP2 DUP10 PUSH2 0x2CD9 JUMP JUMPDEST SWAP1 POP DUP2 DUP2 SUB PUSH1 0x60 DUP4 ADD MSTORE PUSH2 0x2D69 DUP2 DUP9 PUSH2 0x2CD9 JUMP JUMPDEST SWAP1 POP PUSH2 0x2D78 PUSH1 0x80 DUP4 ADD DUP8 PUSH2 0x1ED9 JUMP JUMPDEST PUSH2 0x2D85 PUSH1 0xA0 DUP4 ADD DUP7 PUSH2 0x1ED9 JUMP JUMPDEST PUSH2 0x2D92 PUSH1 0xC0 DUP4 ADD DUP6 PUSH2 0x1ED9 JUMP JUMPDEST PUSH2 0x2D9F PUSH1 0xE0 DUP4 ADD DUP5 PUSH2 0x207E JUMP JUMPDEST SWAP10 SWAP9 POP POP POP POP POP POP POP POP POP JUMP JUMPDEST PUSH2 0x2DB5 DUP2 PUSH2 0x21F1 JUMP JUMPDEST DUP2 EQ PUSH2 0x2DC0 JUMPI PUSH1 0x0 DUP1 REVERT JUMPDEST POP JUMP JUMPDEST PUSH1 0x0 DUP2 MLOAD SWAP1 POP PUSH2 0x2DD2 DUP2 PUSH2 0x2DAC JUMP JUMPDEST SWAP3 SWAP2 POP POP JUMP JUMPDEST PUSH1 0x0 PUSH1 0x20 DUP3 DUP5 SUB SLT ISZERO PUSH2 0x2DEE JUMPI PUSH2 0x2DED PUSH2 0x1F0D JUMP JUMPDEST JUMPDEST PUSH1 0x0 PUSH2 0x2DFC DUP5 DUP3 DUP6 ADD PUSH2 0x2DC3 JUMP JUMPDEST SWAP2 POP POP SWAP3 SWAP2 POP POP JUMP JUMPDEST PUSH32 0x4F776E61626C653A206E6577206F776E657220697320746865207A65726F2061 PUSH1 0x0 DUP3 ADD MSTORE PUSH32 0x6464726573730000000000000000000000000000000000000000000000000000 PUSH1 0x20 DUP3 ADD MSTORE POP JUMP JUMPDEST PUSH1 0x0 PUSH2 0x2E61 PUSH1 0x26 DUP4 PUSH2 0x23F6 JUMP JUMPDEST SWAP2 POP PUSH2 0x2E6C DUP3 PUSH2 0x2E05 JUMP JUMPDEST PUSH1 0x40 DUP3 ADD SWAP1 POP SWAP2 SWAP1 POP JUMP JUMPDEST PUSH1 0x0 PUSH1 0x20 DUP3 ADD SWAP1 POP DUP2 DUP2 SUB PUSH1 0x0 DUP4 ADD MSTORE PUSH2 0x2E90 DUP2 PUSH2 0x2E54 JUMP JUMPDEST SWAP1 POP SWAP2 SWAP1 POP JUMP JUMPDEST PUSH32 0x5265656E7472616E637947756172643A207265656E7472616E742063616C6C00 PUSH1 0x0 DUP3 ADD MSTORE POP JUMP JUMPDEST PUSH1 0x0 PUSH2 0x2ECD PUSH1 0x1F DUP4 PUSH2 0x23F6 JUMP JUMPDEST SWAP2 POP PUSH2 0x2ED8 DUP3 PUSH2 0x2E97 JUMP JUMPDEST PUSH1 0x20 DUP3 ADD SWAP1 POP SWAP2 SWAP1 POP JUMP JUMPDEST PUSH1 0x0 PUSH1 0x20 DUP3 ADD SWAP1 POP DUP2 DUP2 SUB PUSH1 0x0 DUP4 ADD MSTORE PUSH2 0x2EFC DUP2 PUSH2 0x2EC0 JUMP JUMPDEST SWAP1 POP SWAP2 SWAP1 POP JUMP JUMPDEST PUSH32 0x506C656467653A207374616B652073746F7265616765206973207A65726F2100 PUSH1 0x0 DUP3 ADD MSTORE POP JUMP JUMPDEST PUSH1 0x0 PUSH2 0x2F39 PUSH1 0x1F DUP4 PUSH2 0x23F6 JUMP JUMPDEST SWAP2 POP PUSH2 0x2F44 DUP3 PUSH2 0x2F03 JUMP JUMPDEST PUSH1 0x20 DUP3 ADD SWAP1 POP SWAP2 SWAP1 POP JUMP JUMPDEST PUSH1 0x0 PUSH1 0x20 DUP3 ADD SWAP1 POP DUP2 DUP2 SUB PUSH1 0x0 DUP4 ADD MSTORE PUSH2 0x2F68 DUP2 PUSH2 0x2F2C JUMP JUMPDEST SWAP1 POP SWAP2 SWAP1 POP JUMP JUMPDEST PUSH1 0x0 PUSH1 0x20 DUP3 DUP5 SUB SLT ISZERO PUSH2 0x2F85 JUMPI PUSH2 0x2F84 PUSH2 0x1F0D JUMP JUMPDEST JUMPDEST PUSH1 0x0 PUSH2 0x2F93 DUP5 DUP3 DUP6 ADD PUSH2 0x2A35 JUMP JUMPDEST SWAP2 POP POP SWAP3 SWAP2 POP POP JUMP JUMPDEST PUSH32 0x506C656467653A2062616C616E6365206E6F7420656E6F756768210000000000 PUSH1 0x0 DUP3 ADD MSTORE POP JUMP JUMPDEST PUSH1 0x0 PUSH2 0x2FD2 PUSH1 0x1B DUP4 PUSH2 0x23F6 JUMP JUMPDEST SWAP2 POP PUSH2 0x2FDD DUP3 PUSH2 0x2F9C JUMP JUMPDEST PUSH1 0x20 DUP3 ADD SWAP1 POP SWAP2 SWAP1 POP JUMP JUMPDEST PUSH1 0x0 PUSH1 0x20 DUP3 ADD SWAP1 POP DUP2 DUP2 SUB PUSH1 0x0 DUP4 ADD MSTORE PUSH2 0x3001 DUP2 PUSH2 0x2FC5 JUMP JUMPDEST SWAP1 POP SWAP2 SWAP1 POP JUMP JUMPDEST PUSH1 0x0 PUSH1 0x60 DUP3 ADD SWAP1 POP PUSH2 0x301D PUSH1 0x0 DUP4 ADD DUP7 PUSH2 0x207E JUMP JUMPDEST PUSH2 0x302A PUSH1 0x20 DUP4 ADD DUP6 PUSH2 0x207E JUMP JUMPDEST PUSH2 0x3037 PUSH1 0x40 DUP4 ADD DUP5 PUSH2 0x1ED9 JUMP JUMPDEST SWAP5 SWAP4 POP POP POP POP JUMP JUMPDEST PUSH32 0x4F776E61626C653A2063616C6C6572206973206E6F7420746865206F776E6572 PUSH1 0x0 DUP3 ADD MSTORE POP JUMP JUMPDEST PUSH1 0x0 PUSH2 0x3075 PUSH1 0x20 DUP4 PUSH2 0x23F6 JUMP JUMPDEST SWAP2 POP PUSH2 0x3080 DUP3 PUSH2 0x303F JUMP JUMPDEST PUSH1 0x20 DUP3 ADD SWAP1 POP SWAP2 SWAP1 POP JUMP JUMPDEST PUSH1 0x0 PUSH1 0x20 DUP3 ADD SWAP1 POP DUP2 DUP2 SUB PUSH1 0x0 DUP4 ADD MSTORE PUSH2 0x30A4 DUP2 PUSH2 0x3068 JUMP JUMPDEST SWAP1 POP SWAP2 SWAP1 POP JUMP JUMPDEST PUSH32 0x4E487B7100000000000000000000000000000000000000000000000000000000 PUSH1 0x0 MSTORE PUSH1 0x32 PUSH1 0x4 MSTORE PUSH1 0x24 PUSH1 0x0 REVERT JUMPDEST PUSH32 0x456C656D656E74206E6F7420696E207365742E00000000000000000000000000 PUSH1 0x0 DUP3 ADD MSTORE POP JUMP JUMPDEST PUSH1 0x0 PUSH2 0x3110 PUSH1 0x13 DUP4 PUSH2 0x23F6 JUMP JUMPDEST SWAP2 POP PUSH2 0x311B DUP3 PUSH2 0x30DA JUMP JUMPDEST PUSH1 0x20 DUP3 ADD SWAP1 POP SWAP2 SWAP1 POP JUMP JUMPDEST PUSH1 0x0 PUSH1 0x20 DUP3 ADD SWAP1 POP DUP2 DUP2 SUB PUSH1 0x0 DUP4 ADD MSTORE PUSH2 0x313F DUP2 PUSH2 0x3103 JUMP JUMPDEST SWAP1 POP SWAP2 SWAP1 POP JUMP JUMPDEST PUSH32 0x4E487B7100000000000000000000000000000000000000000000000000000000 PUSH1 0x0 MSTORE PUSH1 0x31 PUSH1 0x4 MSTORE PUSH1 0x24 PUSH1 0x0 REVERT JUMPDEST PUSH1 0x0 PUSH2 0x3180 DUP3 PUSH2 0x1ECF JUMP JUMPDEST SWAP2 POP PUSH32 0xFFFFFFFFFFFFFFFFFFFFFFFFFFFFFFFFFFFFFFFFFFFFFFFFFFFFFFFFFFFFFFFF DUP3 SUB PUSH2 0x31B2 JUMPI PUSH2 0x31B1 PUSH2 0x25D1 JUMP JUMPDEST JUMPDEST PUSH1 0x1 DUP3 ADD SWAP1 POP SWAP2 SWAP1 POP JUMP INVALID LOG2 PUSH5 0x6970667358 0x22 SLT KECCAK256 OR SUB DUP12 0xD7 CALLER 0xE8 0xC0 0xE5 SWAP9 0xC8 0xC4 PUSH26 0x872FDD3770F1B5189C106C93F4EE86ACC439278D64736F6C6343 STOP ADDMOD SLT STOP CALLER "
				},
				"gasEstimates": {
					"creation": {
						"codeDepositCost": "2557400",
						"executionCost": "infinite",
						"totalCost": "infinite"
					},
					"external": {
						"allMiners()": "infinite",
						"allValidators()": "infinite",
						"buyStorage(uint256,uint256)": "infinite",
						"checkMiner(address)": "9512",
						"checkValidator(address)": "9512",
						"dayStamp()": "396",
						"getMiners(uint256,uint256)": "infinite",
						"getUerRole(address)": "2951",
						"minerLength()": "2539",
						"minerStakePrice()": "2476",
						"minerStorage(address)": "infinite",
						"owner()": "2633",
						"pool()": "2560",
						"pulishAndReward(uint256,uint256)": "infinite",
						"punishUser(address,uint256)": "infinite",
						"removeUser(address)": "infinite",
						"renounceOwnership()": "30465",
						"setSotre(address)": "27076",
						"singleStoragePricce()": "2474",
						"stake(uint256,uint8)": "infinite",
						"store()": "2560",
						"token()": "2624",
						"transferOwnership(address)": "30810",
						"uploadMetaDataBytes(bytes)": "infinite",
						"userOwnStorage(address)": "infinite",
						"userStakeAmount(address)": "2860",
						"validatorLength()": "2584",
						"validatorStakePrice()": "2518"
					},
					"internal": {
						"_getRandomIndex(uint256,uint256)": "infinite",
						"minerStake(uint256,address)": "infinite",
						"validatorStake(address)": "infinite"
					}
				},
				"methodIdentifiers": {
					"allMiners()": "cafc8658",
					"allValidators()": "f30589c3",
					"buyStorage(uint256,uint256)": "3b962c53",
					"checkMiner(address)": "dde20c54",
					"checkValidator(address)": "797327ae",
					"dayStamp()": "b83f783f",
					"getMiners(uint256,uint256)": "5bf1196f",
					"getUerRole(address)": "1ff512d1",
					"minerLength()": "6d746cfb",
					"minerStakePrice()": "00c9e74d",
					"minerStorage(address)": "6c8939cd",
					"owner()": "8da5cb5b",
					"pool()": "16f0115b",
					"pulishAndReward(uint256,uint256)": "bf68faed",
					"punishUser(address,uint256)": "b37e67e4",
					"removeUser(address)": "98575188",
					"renounceOwnership()": "715018a6",
					"setSotre(address)": "2bbf9b8c",
					"singleStoragePricce()": "bf7e8649",
					"stake(uint256,uint8)": "10087fb1",
					"store()": "975057e7",
					"token()": "fc0c546a",
					"transferOwnership(address)": "f2fde38b",
					"uploadMetaDataBytes(bytes)": "e3edb275",
					"userOwnStorage(address)": "05ccac1f",
					"userStakeAmount(address)": "3e84681a",
					"validatorLength()": "aed1d403",
					"validatorStakePrice()": "b96bb66f"
				}
			},
			"storageLayout": {
				"storage": [
					{
						"astId": 7,
						"contract": "Pledge.sol:Pledge",
						"label": "_owner",
						"offset": 0,
						"slot": "0",
						"type": "t_address"
					},
					{
						"astId": 123,
						"contract": "Pledge.sol:Pledge",
						"label": "_status",
						"offset": 0,
						"slot": "1",
						"type": "t_uint256"
					},
					{
						"astId": 613,
						"contract": "Pledge.sol:Pledge",
						"label": "pool",
						"offset": 0,
						"slot": "2",
						"type": "t_address"
					},
					{
						"astId": 615,
						"contract": "Pledge.sol:Pledge",
						"label": "store",
						"offset": 0,
						"slot": "3",
						"type": "t_address"
					},
					{
						"astId": 617,
						"contract": "Pledge.sol:Pledge",
						"label": "token",
						"offset": 0,
						"slot": "4",
						"type": "t_address"
					},
					{
						"astId": 619,
						"contract": "Pledge.sol:Pledge",
						"label": "minerStakePrice",
						"offset": 0,
						"slot": "5",
						"type": "t_uint256"
					},
					{
						"astId": 621,
						"contract": "Pledge.sol:Pledge",
						"label": "validatorStakePrice",
						"offset": 0,
						"slot": "6",
						"type": "t_uint256"
					},
					{
						"astId": 623,
						"contract": "Pledge.sol:Pledge",
						"label": "singleStoragePricce",
						"offset": 0,
						"slot": "7",
						"type": "t_uint256"
					},
					{
						"astId": 626,
						"contract": "Pledge.sol:Pledge",
						"label": "filterAddress",
						"offset": 0,
						"slot": "8",
						"type": "t_array(t_address)dyn_storage"
					},
					{
						"astId": 630,
						"contract": "Pledge.sol:Pledge",
						"label": "userRole",
						"offset": 0,
						"slot": "9",
						"type": "t_mapping(t_address,t_uint8)"
					},
					{
						"astId": 635,
						"contract": "Pledge.sol:Pledge",
						"label": "minerStorage",
						"offset": 0,
						"slot": "10",
						"type": "t_mapping(t_address,t_struct(MinerStorage)1368_storage)"
					},
					{
						"astId": 639,
						"contract": "Pledge.sol:Pledge",
						"label": "userStakeAmount",
						"offset": 0,
						"slot": "11",
						"type": "t_mapping(t_address,t_uint256)"
					},
					{
						"astId": 644,
						"contract": "Pledge.sol:Pledge",
						"label": "userOwnStorage",
						"offset": 0,
						"slot": "12",
						"type": "t_mapping(t_address,t_struct(UserStorage)1375_storage)"
					},
					{
						"astId": 647,
						"contract": "Pledge.sol:Pledge",
						"label": "miners",
						"offset": 0,
						"slot": "13",
						"type": "t_struct(AddressSet)1537_storage"
					},
					{
						"astId": 650,
						"contract": "Pledge.sol:Pledge",
						"label": "validators",
						"offset": 0,
						"slot": "15",
						"type": "t_struct(AddressSet)1537_storage"
					},
					{
						"astId": 653,
						"contract": "Pledge.sol:Pledge",
						"label": "distributors",
						"offset": 0,
						"slot": "17",
						"type": "t_struct(AddressSet)1537_storage"
					},
					{
						"astId": 656,
						"contract": "Pledge.sol:Pledge",
						"label": "chainUsers",
						"offset": 0,
						"slot": "19",
						"type": "t_struct(AddressSet)1537_storage"
					}
				],
				"types": {
					"t_address": {
						"encoding": "inplace",
						"label": "address",
						"numberOfBytes": "20"
					},
					"t_array(t_address)dyn_storage": {
						"base": "t_address",
						"encoding": "dynamic_array",
						"label": "address[]",
						"numberOfBytes": "32"
					},
					"t_mapping(t_address,t_struct(MinerStorage)1368_storage)": {
						"encoding": "mapping",
						"key": "t_address",
						"label": "mapping(address => struct IPledge.MinerStorage)",
						"numberOfBytes": "32",
						"value": "t_struct(MinerStorage)1368_storage"
					},
					"t_mapping(t_address,t_struct(UserStorage)1375_storage)": {
						"encoding": "mapping",
						"key": "t_address",
						"label": "mapping(address => struct IPledge.UserStorage)",
						"numberOfBytes": "32",
						"value": "t_struct(UserStorage)1375_storage"
					},
					"t_mapping(t_address,t_uint256)": {
						"encoding": "mapping",
						"key": "t_address",
						"label": "mapping(address => uint256)",
						"numberOfBytes": "32",
						"value": "t_uint256"
					},
					"t_mapping(t_address,t_uint8)": {
						"encoding": "mapping",
						"key": "t_address",
						"label": "mapping(address => uint8)",
						"numberOfBytes": "32",
						"value": "t_uint8"
					},
					"t_struct(AddressSet)1537_storage": {
						"encoding": "inplace",
						"label": "struct AddressSetLib.AddressSet",
						"members": [
							{
								"astId": 1532,
								"contract": "Pledge.sol:Pledge",
								"label": "elements",
								"offset": 0,
								"slot": "0",
								"type": "t_array(t_address)dyn_storage"
							},
							{
								"astId": 1536,
								"contract": "Pledge.sol:Pledge",
								"label": "indices",
								"offset": 0,
								"slot": "1",
								"type": "t_mapping(t_address,t_uint256)"
							}
						],
						"numberOfBytes": "64"
					},
					"t_struct(MinerStorage)1368_storage": {
						"encoding": "inplace",
						"label": "struct IPledge.MinerStorage",
						"members": [
							{
								"astId": 1365,
								"contract": "Pledge.sol:Pledge",
								"label": "total",
								"offset": 0,
								"slot": "0",
								"type": "t_uint256"
							},
							{
								"astId": 1367,
								"contract": "Pledge.sol:Pledge",
								"label": "unUse",
								"offset": 0,
								"slot": "1",
								"type": "t_uint256"
							}
						],
						"numberOfBytes": "64"
					},
					"t_struct(UserStorage)1375_storage": {
						"encoding": "inplace",
						"label": "struct IPledge.UserStorage",
						"members": [
							{
								"astId": 1370,
								"contract": "Pledge.sol:Pledge",
								"label": "total",
								"offset": 0,
								"slot": "0",
								"type": "t_uint256"
							},
							{
								"astId": 1372,
								"contract": "Pledge.sol:Pledge",
								"label": "unUse",
								"offset": 0,
								"slot": "1",
								"type": "t_uint256"
							},
							{
								"astId": 1374,
								"contract": "Pledge.sol:Pledge",
								"label": "deadline",
								"offset": 0,
								"slot": "2",
								"type": "t_uint256"
							}
						],
						"numberOfBytes": "96"
					},
					"t_uint256": {
						"encoding": "inplace",
						"label": "uint256",
						"numberOfBytes": "32"
					},
					"t_uint8": {
						"encoding": "inplace",
						"label": "uint8",
						"numberOfBytes": "1"
					}
				}
			},
			"userdoc": {
				"kind": "user",
				"methods": {},
				"version": 1
			}
		}
	}
}