{
	"Pledge.sol": {
		"Pledge": {
			"abi": [
				{
					"inputs": [
						{
							"internalType": "address",
							"name": "pool_",
							"type": "address"
						},
						{
							"internalType": "address",
							"name": "token_",
							"type": "address"
						}
					],
					"stateMutability": "nonpayable",
					"type": "constructor"
				},
				{
					"inputs": [],
					"name": "TransferFailed",
					"type": "error"
				},
				{
					"anonymous": false,
					"inputs": [
						{
							"indexed": true,
							"internalType": "address",
							"name": "user",
							"type": "address"
						},
						{
							"indexed": false,
							"internalType": "uint256",
							"name": "store",
							"type": "uint256"
						},
						{
							"indexed": false,
							"internalType": "uint256",
							"name": "deadline",
							"type": "uint256"
						}
					],
					"name": "BuyStorageEvent",
					"type": "event"
				},
				{
					"anonymous": false,
					"inputs": [
						{
							"indexed": true,
							"internalType": "address",
							"name": "miner",
							"type": "address"
						},
						{
							"indexed": false,
							"internalType": "uint256",
							"name": "amount",
							"type": "uint256"
						},
						{
							"indexed": false,
							"internalType": "uint256",
							"name": "store",
							"type": "uint256"
						}
					],
					"name": "MinerStakeEvent",
					"type": "event"
				},
				{
					"anonymous": false,
					"inputs": [
						{
							"indexed": true,
							"internalType": "address",
							"name": "previousOwner",
							"type": "address"
						},
						{
							"indexed": true,
							"internalType": "address",
							"name": "newOwner",
							"type": "address"
						}
					],
					"name": "OwnershipTransferred",
					"type": "event"
				},
				{
					"anonymous": false,
					"inputs": [
						{
							"indexed": true,
							"internalType": "address",
							"name": "user",
							"type": "address"
						},
						{
							"indexed": false,
							"internalType": "uint256",
							"name": "amount",
							"type": "uint256"
						}
					],
					"name": "PunishEvent",
					"type": "event"
				},
				{
					"anonymous": false,
					"inputs": [
						{
							"indexed": true,
							"internalType": "address",
							"name": "user",
							"type": "address"
						},
						{
							"indexed": false,
							"internalType": "uint8",
							"name": "role",
							"type": "uint8"
						}
					],
					"name": "RemoveEvent",
					"type": "event"
				},
				{
					"anonymous": false,
					"inputs": [
						{
							"indexed": true,
							"internalType": "address",
							"name": "user",
							"type": "address"
						},
						{
							"indexed": false,
							"internalType": "uint256",
							"name": "size",
							"type": "uint256"
						}
					],
					"name": "UploadMetaInfoEvent",
					"type": "event"
				},
				{
					"anonymous": false,
					"inputs": [
						{
							"indexed": true,
							"internalType": "address",
							"name": "miner",
							"type": "address"
						},
						{
							"indexed": false,
							"internalType": "string[]",
							"name": "info",
							"type": "string[]"
						}
					],
					"name": "UploadMinerInfoEvent",
					"type": "event"
				},
				{
					"anonymous": false,
					"inputs": [
						{
							"indexed": true,
							"internalType": "address",
							"name": "user",
							"type": "address"
						},
						{
							"indexed": false,
							"internalType": "uint256",
							"name": "store",
							"type": "uint256"
						}
					],
					"name": "UserBuyStorageEvent",
					"type": "event"
				},
				{
					"anonymous": false,
					"inputs": [
						{
							"indexed": true,
							"internalType": "address",
							"name": "validator",
							"type": "address"
						},
						{
							"indexed": false,
							"internalType": "uint256",
							"name": "amount",
							"type": "uint256"
						}
					],
					"name": "ValidatorStakeEvent",
					"type": "event"
				},
				{
					"inputs": [],
					"name": "allMiners",
					"outputs": [
						{
							"internalType": "address[]",
							"name": "",
							"type": "address[]"
						}
					],
					"stateMutability": "view",
					"type": "function"
				},
				{
					"inputs": [],
					"name": "allValidators",
					"outputs": [
						{
							"internalType": "address[]",
							"name": "",
							"type": "address[]"
						}
					],
					"stateMutability": "view",
					"type": "function"
				},
				{
					"inputs": [
						{
							"internalType": "uint256",
							"name": "store_",
							"type": "uint256"
						},
						{
							"internalType": "uint256",
							"name": "days_",
							"type": "uint256"
						}
					],
					"name": "buyStorage",
					"outputs": [],
					"stateMutability": "nonpayable",
					"type": "function"
				},
				{
					"inputs": [
						{
							"internalType": "address",
							"name": "user_",
							"type": "address"
						}
					],
					"name": "checkMiner",
					"outputs": [
						{
							"internalType": "bool",
							"name": "",
							"type": "bool"
						}
					],
					"stateMutability": "view",
					"type": "function"
				},
				{
					"inputs": [
						{
							"internalType": "address",
							"name": "user_",
							"type": "address"
						}
					],
					"name": "checkValidator",
					"outputs": [
						{
							"internalType": "bool",
							"name": "",
							"type": "bool"
						}
					],
					"stateMutability": "view",
					"type": "function"
				},
				{
					"inputs": [],
					"name": "dayStamp",
					"outputs": [
						{
							"internalType": "uint256",
							"name": "",
							"type": "uint256"
						}
					],
					"stateMutability": "view",
					"type": "function"
				},
				{
					"inputs": [
						{
							"internalType": "uint256",
							"name": "store_",
							"type": "uint256"
						},
						{
							"internalType": "uint256",
							"name": "numbers_",
							"type": "uint256"
						}
					],
					"name": "getMiners",
					"outputs": [
						{
							"internalType": "address[]",
							"name": "",
							"type": "address[]"
						}
					],
					"stateMutability": "view",
					"type": "function"
				},
				{
					"inputs": [
						{
							"internalType": "address",
							"name": "user_",
							"type": "address"
						}
					],
					"name": "getUerRole",
					"outputs": [
						{
							"internalType": "uint256",
							"name": "",
							"type": "uint256"
						}
					],
					"stateMutability": "view",
					"type": "function"
				},
				{
					"inputs": [],
					"name": "minerLength",
					"outputs": [
						{
							"internalType": "uint256",
							"name": "",
							"type": "uint256"
						}
					],
					"stateMutability": "view",
					"type": "function"
				},
				{
					"inputs": [],
					"name": "minerStakePrice",
					"outputs": [
						{
							"internalType": "uint256",
							"name": "",
							"type": "uint256"
						}
					],
					"stateMutability": "view",
					"type": "function"
				},
				{
					"inputs": [
						{
							"internalType": "address",
							"name": "",
							"type": "address"
						}
					],
					"name": "minerStorage",
					"outputs": [
						{
							"internalType": "uint256",
							"name": "total",
							"type": "uint256"
						},
						{
							"internalType": "uint256",
							"name": "unUse",
							"type": "uint256"
						}
					],
					"stateMutability": "view",
					"type": "function"
				},
				{
					"inputs": [],
					"name": "owner",
					"outputs": [
						{
							"internalType": "address",
							"name": "",
							"type": "address"
						}
					],
					"stateMutability": "view",
					"type": "function"
				},
				{
					"inputs": [],
					"name": "pool",
					"outputs": [
						{
							"internalType": "address",
							"name": "",
							"type": "address"
						}
					],
					"stateMutability": "view",
					"type": "function"
				},
				{
					"inputs": [
						{
							"internalType": "address",
							"name": "user_",
							"type": "address"
						},
						{
							"internalType": "uint256",
							"name": "amount_",
							"type": "uint256"
						}
					],
					"name": "punishUser",
					"outputs": [
						{
							"internalType": "bool",
							"name": "",
							"type": "bool"
						}
					],
					"stateMutability": "nonpayable",
					"type": "function"
				},
				{
					"inputs": [
						{
							"internalType": "address",
							"name": "user_",
							"type": "address"
						}
					],
					"name": "removeUser",
					"outputs": [
						{
							"internalType": "bool",
							"name": "",
							"type": "bool"
						}
					],
					"stateMutability": "nonpayable",
					"type": "function"
				},
				{
					"inputs": [],
					"name": "renounceOwnership",
					"outputs": [],
					"stateMutability": "nonpayable",
					"type": "function"
				},
				{
					"inputs": [
						{
							"internalType": "address",
							"name": "store_",
							"type": "address"
						}
					],
					"name": "setSotre",
					"outputs": [],
					"stateMutability": "nonpayable",
					"type": "function"
				},
				{
					"inputs": [],
					"name": "singleStoragePricce",
					"outputs": [
						{
							"internalType": "uint256",
							"name": "",
							"type": "uint256"
						}
					],
					"stateMutability": "view",
					"type": "function"
				},
				{
					"inputs": [
						{
							"internalType": "uint256",
							"name": "store_",
							"type": "uint256"
						},
						{
							"internalType": "uint8",
							"name": "role_",
							"type": "uint8"
						}
					],
					"name": "stake",
					"outputs": [],
					"stateMutability": "nonpayable",
					"type": "function"
				},
				{
					"inputs": [],
					"name": "store",
					"outputs": [
						{
							"internalType": "address",
							"name": "",
							"type": "address"
						}
					],
					"stateMutability": "view",
					"type": "function"
				},
				{
					"inputs": [],
					"name": "token",
					"outputs": [
						{
							"internalType": "address",
							"name": "",
							"type": "address"
						}
					],
					"stateMutability": "view",
					"type": "function"
				},
				{
					"inputs": [
						{
							"internalType": "address",
							"name": "newOwner",
							"type": "address"
						}
					],
					"name": "transferOwnership",
					"outputs": [],
					"stateMutability": "nonpayable",
					"type": "function"
				},
				{
					"inputs": [
						{
							"internalType": "address[]",
							"name": "miners_",
							"type": "address[]"
						},
						{
							"internalType": "string[]",
							"name": "fileHash_",
							"type": "string[]"
						},
						{
							"internalType": "string",
							"name": "ext_",
							"type": "string"
						},
						{
							"internalType": "string",
							"name": "cid_",
							"type": "string"
						},
						{
							"internalType": "uint256",
							"name": "size_",
							"type": "uint256"
						},
						{
							"internalType": "uint256",
							"name": "blockSize",
							"type": "uint256"
						},
						{
							"internalType": "uint256",
							"name": "dataShards",
							"type": "uint256"
						},
						{
							"internalType": "uint256",
							"name": "parityShards",
							"type": "uint256"
						},
						{
							"internalType": "address",
							"name": "user_",
							"type": "address"
						}
					],
					"name": "uploadMetaData",
					"outputs": [],
					"stateMutability": "nonpayable",
					"type": "function"
				},
				{
					"inputs": [
						{
							"internalType": "address",
							"name": "",
							"type": "address"
						}
					],
					"name": "userOwnStorage",
					"outputs": [
						{
							"internalType": "uint256",
							"name": "total",
							"type": "uint256"
						},
						{
							"internalType": "uint256",
							"name": "unUse",
							"type": "uint256"
						},
						{
							"internalType": "uint256",
							"name": "deadline",
							"type": "uint256"
						}
					],
					"stateMutability": "view",
					"type": "function"
				},
				{
					"inputs": [
						{
							"internalType": "address",
							"name": "",
							"type": "address"
						}
					],
					"name": "userStakeAmount",
					"outputs": [
						{
							"internalType": "uint256",
							"name": "",
							"type": "uint256"
						}
					],
					"stateMutability": "view",
					"type": "function"
				},
				{
					"inputs": [],
					"name": "validatorLength",
					"outputs": [
						{
							"internalType": "uint256",
							"name": "",
							"type": "uint256"
						}
					],
					"stateMutability": "view",
					"type": "function"
				},
				{
					"inputs": [],
					"name": "validatorStakePrice",
					"outputs": [
						{
							"internalType": "uint256",
							"name": "",
							"type": "uint256"
						}
					],
					"stateMutability": "view",
					"type": "function"
				}
			],
			"devdoc": {
				"kind": "dev",
				"methods": {
					"owner()": {
						"details": "Returns the address of the current owner."
					},
					"renounceOwnership()": {
						"details": "Leaves the contract without owner. It will not be possible to call `onlyOwner` functions. Can only be called by the current owner. NOTE: Renouncing ownership will leave the contract without an owner, thereby disabling any functionality that is only available to the owner."
					},
					"transferOwnership(address)": {
						"details": "Transfers ownership of the contract to a new account (`newOwner`). Can only be called by the current owner."
					}
				},
				"version": 1
			},
			"evm": {
				"assembly": "    /* \"Pledge.sol\":458:8105  contract Pledge is IPledge, Ownable, ReentrancyGuard {... */\n  mstore(0x40, 0x80)\n    /* \"Pledge.sol\":1248:1462  constructor(address pool_, address token_) {... */\n  callvalue\n  dup1\n  iszero\n  tag_1\n  jumpi\n  0x00\n  dup1\n  revert\ntag_1:\n  pop\n  mload(0x40)\n  sub(codesize, bytecodeSize)\n  dup1\n  bytecodeSize\n  dup4\n  codecopy\n  dup2\n  dup2\n  add\n  0x40\n  mstore\n  dup2\n  add\n  swap1\n  tag_2\n  swap2\n  swap1\n  tag_3\n  jump\t// in\ntag_2:\n    /* \"@openzeppelin/contracts/access/Ownable.sol\":936:968  _transferOwnership(_msgSender()) */\n  tag_8\n    /* \"@openzeppelin/contracts/access/Ownable.sol\":955:967  _msgSender() */\n  tag_9\n    /* \"@openzeppelin/contracts/access/Ownable.sol\":955:965  _msgSender */\n  shl(0x20, tag_10)\n    /* \"@openzeppelin/contracts/access/Ownable.sol\":955:967  _msgSender() */\n  0x20\n  shr\n  jump\t// in\ntag_9:\n    /* \"@openzeppelin/contracts/access/Ownable.sol\":936:954  _transferOwnership */\n  shl(0x20, tag_11)\n    /* \"@openzeppelin/contracts/access/Ownable.sol\":936:968  _transferOwnership(_msgSender()) */\n  0x20\n  shr\n  jump\t// in\ntag_8:\n    /* \"@openzeppelin/contracts/security/ReentrancyGuard.sol\":1716:1717  1 */\n  0x01\n    /* \"@openzeppelin/contracts/security/ReentrancyGuard.sol\":1821:1828  _status */\n  dup1\n    /* \"@openzeppelin/contracts/security/ReentrancyGuard.sol\":1821:1843  _status = _NOT_ENTERED */\n  dup2\n  swap1\n  sstore\n  pop\n    /* \"Pledge.sol\":1309:1315  token_ */\n  dup1\n    /* \"Pledge.sol\":1301:1306  token */\n  0x04\n  0x00\n    /* \"Pledge.sol\":1301:1315  token = token_ */\n  0x0100\n  exp\n  dup2\n  sload\n  dup2\n  0xffffffffffffffffffffffffffffffffffffffff\n  mul\n  not\n  and\n  swap1\n  dup4\n  0xffffffffffffffffffffffffffffffffffffffff\n  and\n  mul\n  or\n  swap1\n  sstore\n  pop\n    /* \"Pledge.sol\":1332:1337  pool_ */\n  dup2\n    /* \"Pledge.sol\":1325:1329  pool */\n  0x02\n  0x00\n    /* \"Pledge.sol\":1325:1337  pool = pool_ */\n  0x0100\n  exp\n  dup2\n  sload\n  dup2\n  0xffffffffffffffffffffffffffffffffffffffff\n  mul\n  not\n  and\n  swap1\n  dup4\n  0xffffffffffffffffffffffffffffffffffffffff\n  and\n  mul\n  or\n  swap1\n  sstore\n  pop\n    /* \"Pledge.sol\":1365:1369  1e18 */\n  0x0de0b6b3a7640000\n    /* \"Pledge.sol\":1347:1362  minerStakePrice */\n  0x05\n    /* \"Pledge.sol\":1347:1369  minerStakePrice = 1e18 */\n  dup2\n  swap1\n  sstore\n  pop\n    /* \"Pledge.sol\":1401:1405  1e18 */\n  0x0de0b6b3a7640000\n    /* \"Pledge.sol\":1379:1398  validatorStakePrice */\n  0x06\n    /* \"Pledge.sol\":1379:1405  validatorStakePrice = 1e18 */\n  dup2\n  swap1\n  sstore\n  pop\n    /* \"Pledge.sol\":1438:1442  1e10 */\n  0x02540be400\n    /* \"Pledge.sol\":1416:1435  singleStoragePricce */\n  0x07\n    /* \"Pledge.sol\":1416:1442  singleStoragePricce = 1e10 */\n  dup2\n  swap1\n  sstore\n  pop\n    /* \"Pledge.sol\":1248:1462  constructor(address pool_, address token_) {... */\n  pop\n  pop\n    /* \"Pledge.sol\":458:8105  contract Pledge is IPledge, Ownable, ReentrancyGuard {... */\n  jump(tag_14)\n    /* \"@openzeppelin/contracts/utils/Context.sol\":640:736  function _msgSender() internal view virtual returns (address) {... */\ntag_10:\n    /* \"@openzeppelin/contracts/utils/Context.sol\":693:700  address */\n  0x00\n    /* \"@openzeppelin/contracts/utils/Context.sol\":719:729  msg.sender */\n  caller\n    /* \"@openzeppelin/contracts/utils/Context.sol\":712:729  return msg.sender */\n  swap1\n  pop\n    /* \"@openzeppelin/contracts/utils/Context.sol\":640:736  function _msgSender() internal view virtual returns (address) {... */\n  swap1\n  jump\t// out\n    /* \"@openzeppelin/contracts/access/Ownable.sol\":2426:2613  function _transferOwnership(address newOwner) internal virtual {... */\ntag_11:\n    /* \"@openzeppelin/contracts/access/Ownable.sol\":2499:2515  address oldOwner */\n  0x00\n    /* \"@openzeppelin/contracts/access/Ownable.sol\":2518:2524  _owner */\n  dup1\n  0x00\n  swap1\n  sload\n  swap1\n  0x0100\n  exp\n  swap1\n  div\n  0xffffffffffffffffffffffffffffffffffffffff\n  and\n    /* \"@openzeppelin/contracts/access/Ownable.sol\":2499:2524  address oldOwner = _owner */\n  swap1\n  pop\n    /* \"@openzeppelin/contracts/access/Ownable.sol\":2543:2551  newOwner */\n  dup2\n    /* \"@openzeppelin/contracts/access/Ownable.sol\":2534:2540  _owner */\n  0x00\n  dup1\n    /* \"@openzeppelin/contracts/access/Ownable.sol\":2534:2551  _owner = newOwner */\n  0x0100\n  exp\n  dup2\n  sload\n  dup2\n  0xffffffffffffffffffffffffffffffffffffffff\n  mul\n  not\n  and\n  swap1\n  dup4\n  0xffffffffffffffffffffffffffffffffffffffff\n  and\n  mul\n  or\n  swap1\n  sstore\n  pop\n    /* \"@openzeppelin/contracts/access/Ownable.sol\":2597:2605  newOwner */\n  dup2\n    /* \"@openzeppelin/contracts/access/Ownable.sol\":2566:2606  OwnershipTransferred(oldOwner, newOwner) */\n  0xffffffffffffffffffffffffffffffffffffffff\n  and\n    /* \"@openzeppelin/contracts/access/Ownable.sol\":2587:2595  oldOwner */\n  dup2\n    /* \"@openzeppelin/contracts/access/Ownable.sol\":2566:2606  OwnershipTransferred(oldOwner, newOwner) */\n  0xffffffffffffffffffffffffffffffffffffffff\n  and\n  0x8be0079c531659141344cd1fd0a4f28419497f9722a3daafe3b4186f6b6457e0\n  mload(0x40)\n  mload(0x40)\n  dup1\n  swap2\n  sub\n  swap1\n  log3\n    /* \"@openzeppelin/contracts/access/Ownable.sol\":2489:2613  {... */\n  pop\n    /* \"@openzeppelin/contracts/access/Ownable.sol\":2426:2613  function _transferOwnership(address newOwner) internal virtual {... */\n  pop\n  jump\t// out\n    /* \"#utility.yul\":88:205   */\ntag_18:\n    /* \"#utility.yul\":197:198   */\n  0x00\n    /* \"#utility.yul\":194:195   */\n  dup1\n    /* \"#utility.yul\":187:199   */\n  revert\n    /* \"#utility.yul\":334:460   */\ntag_20:\n    /* \"#utility.yul\":371:378   */\n  0x00\n    /* \"#utility.yul\":411:453   */\n  0xffffffffffffffffffffffffffffffffffffffff\n    /* \"#utility.yul\":404:409   */\n  dup3\n    /* \"#utility.yul\":400:454   */\n  and\n    /* \"#utility.yul\":389:454   */\n  swap1\n  pop\n    /* \"#utility.yul\":334:460   */\n  swap2\n  swap1\n  pop\n  jump\t// out\n    /* \"#utility.yul\":466:562   */\ntag_21:\n    /* \"#utility.yul\":503:510   */\n  0x00\n    /* \"#utility.yul\":532:556   */\n  tag_30\n    /* \"#utility.yul\":550:555   */\n  dup3\n    /* \"#utility.yul\":532:556   */\n  tag_20\n  jump\t// in\ntag_30:\n    /* \"#utility.yul\":521:556   */\n  swap1\n  pop\n    /* \"#utility.yul\":466:562   */\n  swap2\n  swap1\n  pop\n  jump\t// out\n    /* \"#utility.yul\":568:690   */\ntag_22:\n    /* \"#utility.yul\":641:665   */\n  tag_32\n    /* \"#utility.yul\":659:664   */\n  dup2\n    /* \"#utility.yul\":641:665   */\n  tag_21\n  jump\t// in\ntag_32:\n    /* \"#utility.yul\":634:639   */\n  dup2\n    /* \"#utility.yul\":631:666   */\n  eq\n    /* \"#utility.yul\":621:684   */\n  tag_33\n  jumpi\n    /* \"#utility.yul\":680:681   */\n  0x00\n    /* \"#utility.yul\":677:678   */\n  dup1\n    /* \"#utility.yul\":670:682   */\n  revert\n    /* \"#utility.yul\":621:684   */\ntag_33:\n    /* \"#utility.yul\":568:690   */\n  pop\n  jump\t// out\n    /* \"#utility.yul\":696:839   */\ntag_23:\n    /* \"#utility.yul\":753:758   */\n  0x00\n    /* \"#utility.yul\":784:790   */\n  dup2\n    /* \"#utility.yul\":778:791   */\n  mload\n    /* \"#utility.yul\":769:791   */\n  swap1\n  pop\n    /* \"#utility.yul\":800:833   */\n  tag_35\n    /* \"#utility.yul\":827:832   */\n  dup2\n    /* \"#utility.yul\":800:833   */\n  tag_22\n  jump\t// in\ntag_35:\n    /* \"#utility.yul\":696:839   */\n  swap3\n  swap2\n  pop\n  pop\n  jump\t// out\n    /* \"#utility.yul\":845:1352   */\ntag_3:\n    /* \"#utility.yul\":924:930   */\n  0x00\n    /* \"#utility.yul\":932:938   */\n  dup1\n    /* \"#utility.yul\":981:983   */\n  0x40\n    /* \"#utility.yul\":969:978   */\n  dup4\n    /* \"#utility.yul\":960:967   */\n  dup6\n    /* \"#utility.yul\":956:979   */\n  sub\n    /* \"#utility.yul\":952:984   */\n  slt\n    /* \"#utility.yul\":949:1068   */\n  iszero\n  tag_37\n  jumpi\n    /* \"#utility.yul\":987:1066   */\n  tag_38\n  tag_18\n  jump\t// in\ntag_38:\n    /* \"#utility.yul\":949:1068   */\ntag_37:\n    /* \"#utility.yul\":1107:1108   */\n  0x00\n    /* \"#utility.yul\":1132:1196   */\n  tag_39\n    /* \"#utility.yul\":1188:1195   */\n  dup6\n    /* \"#utility.yul\":1179:1185   */\n  dup3\n    /* \"#utility.yul\":1168:1177   */\n  dup7\n    /* \"#utility.yul\":1164:1186   */\n  add\n    /* \"#utility.yul\":1132:1196   */\n  tag_23\n  jump\t// in\ntag_39:\n    /* \"#utility.yul\":1122:1196   */\n  swap3\n  pop\n    /* \"#utility.yul\":1078:1206   */\n  pop\n    /* \"#utility.yul\":1245:1247   */\n  0x20\n    /* \"#utility.yul\":1271:1335   */\n  tag_40\n    /* \"#utility.yul\":1327:1334   */\n  dup6\n    /* \"#utility.yul\":1318:1324   */\n  dup3\n    /* \"#utility.yul\":1307:1316   */\n  dup7\n    /* \"#utility.yul\":1303:1325   */\n  add\n    /* \"#utility.yul\":1271:1335   */\n  tag_23\n  jump\t// in\ntag_40:\n    /* \"#utility.yul\":1261:1335   */\n  swap2\n  pop\n    /* \"#utility.yul\":1216:1345   */\n  pop\n    /* \"#utility.yul\":845:1352   */\n  swap3\n  pop\n  swap3\n  swap1\n  pop\n  jump\t// out\n    /* \"Pledge.sol\":458:8105  contract Pledge is IPledge, Ownable, ReentrancyGuard {... */\ntag_14:\n  dataSize(sub_0)\n  dup1\n  dataOffset(sub_0)\n  0x00\n  codecopy\n  0x00\n  return\nstop\n\nsub_0: assembly {\n        /* \"Pledge.sol\":458:8105  contract Pledge is IPledge, Ownable, ReentrancyGuard {... */\n      mstore(0x40, 0x80)\n      callvalue\n      dup1\n      iszero\n      tag_1\n      jumpi\n      0x00\n      dup1\n      revert\n    tag_1:\n      pop\n      jumpi(tag_2, lt(calldatasize, 0x04))\n      shr(0xe0, calldataload(0x00))\n      dup1\n      0x797327ae\n      gt\n      tag_30\n      jumpi\n      dup1\n      0xb96bb66f\n      gt\n      tag_31\n      jumpi\n      dup1\n      0xdde20c54\n      gt\n      tag_32\n      jumpi\n      dup1\n      0xdde20c54\n      eq\n      tag_26\n      jumpi\n      dup1\n      0xf2fde38b\n      eq\n      tag_27\n      jumpi\n      dup1\n      0xf30589c3\n      eq\n      tag_28\n      jumpi\n      dup1\n      0xfc0c546a\n      eq\n      tag_29\n      jumpi\n      jump(tag_2)\n    tag_32:\n      dup1\n      0xb96bb66f\n      eq\n      tag_23\n      jumpi\n      dup1\n      0xbf7e8649\n      eq\n      tag_24\n      jumpi\n      dup1\n      0xcafc8658\n      eq\n      tag_25\n      jumpi\n      jump(tag_2)\n    tag_31:\n      dup1\n      0x98575188\n      gt\n      tag_33\n      jumpi\n      dup1\n      0x98575188\n      eq\n      tag_19\n      jumpi\n      dup1\n      0xaed1d403\n      eq\n      tag_20\n      jumpi\n      dup1\n      0xb37e67e4\n      eq\n      tag_21\n      jumpi\n      dup1\n      0xb83f783f\n      eq\n      tag_22\n      jumpi\n      jump(tag_2)\n    tag_33:\n      dup1\n      0x797327ae\n      eq\n      tag_16\n      jumpi\n      dup1\n      0x8da5cb5b\n      eq\n      tag_17\n      jumpi\n      dup1\n      0x975057e7\n      eq\n      tag_18\n      jumpi\n      jump(tag_2)\n    tag_30:\n      dup1\n      0x3b962c53\n      gt\n      tag_34\n      jumpi\n      dup1\n      0x5bf1196f\n      gt\n      tag_35\n      jumpi\n      dup1\n      0x5bf1196f\n      eq\n      tag_12\n      jumpi\n      dup1\n      0x6c8939cd\n      eq\n      tag_13\n      jumpi\n      dup1\n      0x6d746cfb\n      eq\n      tag_14\n      jumpi\n      dup1\n      0x715018a6\n      eq\n      tag_15\n      jumpi\n      jump(tag_2)\n    tag_35:\n      dup1\n      0x3b962c53\n      eq\n      tag_9\n      jumpi\n      dup1\n      0x3e84681a\n      eq\n      tag_10\n      jumpi\n      dup1\n      0x55f314c4\n      eq\n      tag_11\n      jumpi\n      jump(tag_2)\n    tag_34:\n      dup1\n      0xc9e74d\n      eq\n      tag_3\n      jumpi\n      dup1\n      0x05ccac1f\n      eq\n      tag_4\n      jumpi\n      dup1\n      0x10087fb1\n      eq\n      tag_5\n      jumpi\n      dup1\n      0x16f0115b\n      eq\n      tag_6\n      jumpi\n      dup1\n      0x1ff512d1\n      eq\n      tag_7\n      jumpi\n      dup1\n      0x2bbf9b8c\n      eq\n      tag_8\n      jumpi\n    tag_2:\n      0x00\n      dup1\n      revert\n        /* \"Pledge.sol\":674:704  uint256 public minerStakePrice */\n    tag_3:\n      tag_36\n      tag_37\n      jump\t// in\n    tag_36:\n      mload(0x40)\n      tag_38\n      swap2\n      swap1\n      tag_39\n      jump\t// in\n    tag_38:\n      mload(0x40)\n      dup1\n      swap2\n      sub\n      swap1\n      return\n        /* \"Pledge.sol\":993:1046  mapping(address => UserStorage) public userOwnStorage */\n    tag_4:\n      tag_40\n      0x04\n      dup1\n      calldatasize\n      sub\n      dup2\n      add\n      swap1\n      tag_41\n      swap2\n      swap1\n      tag_42\n      jump\t// in\n    tag_41:\n      tag_43\n      jump\t// in\n    tag_40:\n      mload(0x40)\n      tag_44\n      swap4\n      swap3\n      swap2\n      swap1\n      tag_45\n      jump\t// in\n    tag_44:\n      mload(0x40)\n      dup1\n      swap2\n      sub\n      swap1\n      return\n        /* \"Pledge.sol\":3647:4127  function stake(uint256 store_, uint8 role_) external nonReentrant {... */\n    tag_5:\n      tag_46\n      0x04\n      dup1\n      calldatasize\n      sub\n      dup2\n      add\n      swap1\n      tag_47\n      swap2\n      swap1\n      tag_48\n      jump\t// in\n    tag_47:\n      tag_49\n      jump\t// in\n    tag_46:\n      stop\n        /* \"Pledge.sol\":596:615  address public pool */\n    tag_6:\n      tag_50\n      tag_51\n      jump\t// in\n    tag_50:\n      mload(0x40)\n      tag_52\n      swap2\n      swap1\n      tag_53\n      jump\t// in\n    tag_52:\n      mload(0x40)\n      dup1\n      swap2\n      sub\n      swap1\n      return\n        /* \"Pledge.sol\":7997:8103  function getUerRole(address user_) external view returns (uint256) {... */\n    tag_7:\n      tag_54\n      0x04\n      dup1\n      calldatasize\n      sub\n      dup2\n      add\n      swap1\n      tag_55\n      swap2\n      swap1\n      tag_42\n      jump\t// in\n    tag_55:\n      tag_56\n      jump\t// in\n    tag_54:\n      mload(0x40)\n      tag_57\n      swap2\n      swap1\n      tag_39\n      jump\t// in\n    tag_57:\n      mload(0x40)\n      dup1\n      swap2\n      sub\n      swap1\n      return\n        /* \"Pledge.sol\":1468:1552  function setSotre(address store_) external onlyOwner {... */\n    tag_8:\n      tag_58\n      0x04\n      dup1\n      calldatasize\n      sub\n      dup2\n      add\n      swap1\n      tag_59\n      swap2\n      swap1\n      tag_42\n      jump\t// in\n    tag_59:\n      tag_60\n      jump\t// in\n    tag_58:\n      stop\n        /* \"Pledge.sol\":1887:2485  function buyStorage(uint256 store_, uint256 days_) external nonReentrant {... */\n    tag_9:\n      tag_61\n      0x04\n      dup1\n      calldatasize\n      sub\n      dup2\n      add\n      swap1\n      tag_62\n      swap2\n      swap1\n      tag_63\n      jump\t// in\n    tag_62:\n      tag_64\n      jump\t// in\n    tag_61:\n      stop\n        /* \"Pledge.sol\":936:986  mapping(address => uint256) public userStakeAmount */\n    tag_10:\n      tag_65\n      0x04\n      dup1\n      calldatasize\n      sub\n      dup2\n      add\n      swap1\n      tag_66\n      swap2\n      swap1\n      tag_42\n      jump\t// in\n    tag_66:\n      tag_67\n      jump\t// in\n    tag_65:\n      mload(0x40)\n      tag_68\n      swap2\n      swap1\n      tag_39\n      jump\t// in\n    tag_68:\n      mload(0x40)\n      dup1\n      swap2\n      sub\n      swap1\n      return\n        /* \"Pledge.sol\":5099:6124  function uploadMetaData(... */\n    tag_11:\n      tag_69\n      0x04\n      dup1\n      calldatasize\n      sub\n      dup2\n      add\n      swap1\n      tag_70\n      swap2\n      swap1\n      tag_71\n      jump\t// in\n    tag_70:\n      tag_72\n      jump\t// in\n    tag_69:\n      stop\n        /* \"Pledge.sol\":6152:7097  function getMiners(... */\n    tag_12:\n      tag_73\n      0x04\n      dup1\n      calldatasize\n      sub\n      dup2\n      add\n      swap1\n      tag_74\n      swap2\n      swap1\n      tag_63\n      jump\t// in\n    tag_74:\n      tag_75\n      jump\t// in\n    tag_73:\n      mload(0x40)\n      tag_76\n      swap2\n      swap1\n      tag_77\n      jump\t// in\n    tag_76:\n      mload(0x40)\n      dup1\n      swap2\n      sub\n      swap1\n      return\n        /* \"Pledge.sol\":877:929  mapping(address => MinerStorage) public minerStorage */\n    tag_13:\n      tag_78\n      0x04\n      dup1\n      calldatasize\n      sub\n      dup2\n      add\n      swap1\n      tag_79\n      swap2\n      swap1\n      tag_42\n      jump\t// in\n    tag_79:\n      tag_80\n      jump\t// in\n    tag_78:\n      mload(0x40)\n      tag_81\n      swap3\n      swap2\n      swap1\n      tag_82\n      jump\t// in\n    tag_81:\n      mload(0x40)\n      dup1\n      swap2\n      sub\n      swap1\n      return\n        /* \"Pledge.sol\":7493:7600  function minerLength() external view returns (uint256) {... */\n    tag_14:\n      tag_83\n      tag_84\n      jump\t// in\n    tag_83:\n      mload(0x40)\n      tag_85\n      swap2\n      swap1\n      tag_39\n      jump\t// in\n    tag_85:\n      mload(0x40)\n      dup1\n      swap2\n      sub\n      swap1\n      return\n        /* \"@openzeppelin/contracts/access/Ownable.sol\":1824:1925  function renounceOwnership() public virtual onlyOwner {... */\n    tag_15:\n      tag_86\n      tag_87\n      jump\t// in\n    tag_86:\n      stop\n        /* \"Pledge.sol\":7727:7860  function checkValidator(address user_) external view returns (bool) {... */\n    tag_16:\n      tag_88\n      0x04\n      dup1\n      calldatasize\n      sub\n      dup2\n      add\n      swap1\n      tag_89\n      swap2\n      swap1\n      tag_42\n      jump\t// in\n    tag_89:\n      tag_90\n      jump\t// in\n    tag_88:\n      mload(0x40)\n      tag_91\n      swap2\n      swap1\n      tag_92\n      jump\t// in\n    tag_91:\n      mload(0x40)\n      dup1\n      swap2\n      sub\n      swap1\n      return\n        /* \"@openzeppelin/contracts/access/Ownable.sol\":1201:1286  function owner() public view virtual returns (address) {... */\n    tag_17:\n      tag_93\n      tag_94\n      jump\t// in\n    tag_93:\n      mload(0x40)\n      tag_95\n      swap2\n      swap1\n      tag_53\n      jump\t// in\n    tag_95:\n      mload(0x40)\n      dup1\n      swap2\n      sub\n      swap1\n      return\n        /* \"Pledge.sol\":621:641  address public store */\n    tag_18:\n      tag_96\n      tag_97\n      jump\t// in\n    tag_96:\n      mload(0x40)\n      tag_98\n      swap2\n      swap1\n      tag_53\n      jump\t// in\n    tag_98:\n      mload(0x40)\n      dup1\n      swap2\n      sub\n      swap1\n      return\n        /* \"Pledge.sol\":4133:4610  function removeUser(address user_) public onlyOwner returns (bool) {... */\n    tag_19:\n      tag_99\n      0x04\n      dup1\n      calldatasize\n      sub\n      dup2\n      add\n      swap1\n      tag_100\n      swap2\n      swap1\n      tag_42\n      jump\t// in\n    tag_100:\n      tag_101\n      jump\t// in\n    tag_99:\n      mload(0x40)\n      tag_102\n      swap2\n      swap1\n      tag_92\n      jump\t// in\n    tag_102:\n      mload(0x40)\n      dup1\n      swap2\n      sub\n      swap1\n      return\n        /* \"Pledge.sol\":7606:7721  function validatorLength() external view returns (uint256) {... */\n    tag_20:\n      tag_103\n      tag_104\n      jump\t// in\n    tag_103:\n      mload(0x40)\n      tag_105\n      swap2\n      swap1\n      tag_39\n      jump\t// in\n    tag_105:\n      mload(0x40)\n      dup1\n      swap2\n      sub\n      swap1\n      return\n        /* \"Pledge.sol\":4616:5093  function punishUser(... */\n    tag_21:\n      tag_106\n      0x04\n      dup1\n      calldatasize\n      sub\n      dup2\n      add\n      swap1\n      tag_107\n      swap2\n      swap1\n      tag_108\n      jump\t// in\n    tag_107:\n      tag_109\n      jump\t// in\n    tag_106:\n      mload(0x40)\n      tag_110\n      swap2\n      swap1\n      tag_92\n      jump\t// in\n    tag_110:\n      mload(0x40)\n      dup1\n      swap2\n      sub\n      swap1\n      return\n        /* \"Pledge.sol\":550:590  uint256 public constant dayStamp = 86400 */\n    tag_22:\n      tag_111\n      tag_112\n      jump\t// in\n    tag_111:\n      mload(0x40)\n      tag_113\n      swap2\n      swap1\n      tag_39\n      jump\t// in\n    tag_113:\n      mload(0x40)\n      dup1\n      swap2\n      sub\n      swap1\n      return\n        /* \"Pledge.sol\":710:744  uint256 public validatorStakePrice */\n    tag_23:\n      tag_114\n      tag_115\n      jump\t// in\n    tag_114:\n      mload(0x40)\n      tag_116\n      swap2\n      swap1\n      tag_39\n      jump\t// in\n    tag_116:\n      mload(0x40)\n      dup1\n      swap2\n      sub\n      swap1\n      return\n        /* \"Pledge.sol\":750:784  uint256 public singleStoragePricce */\n    tag_24:\n      tag_117\n      tag_118\n      jump\t// in\n    tag_117:\n      mload(0x40)\n      tag_119\n      swap2\n      swap1\n      tag_39\n      jump\t// in\n    tag_119:\n      mload(0x40)\n      dup1\n      swap2\n      sub\n      swap1\n      return\n        /* \"Pledge.sol\":7103:7249  function allMiners() public view returns (address[] memory) {... */\n    tag_25:\n      tag_120\n      tag_121\n      jump\t// in\n    tag_120:\n      mload(0x40)\n      tag_122\n      swap2\n      swap1\n      tag_77\n      jump\t// in\n    tag_122:\n      mload(0x40)\n      dup1\n      swap2\n      sub\n      swap1\n      return\n        /* \"Pledge.sol\":7866:7991  function checkMiner(address user_) external view returns (bool) {... */\n    tag_26:\n      tag_123\n      0x04\n      dup1\n      calldatasize\n      sub\n      dup2\n      add\n      swap1\n      tag_124\n      swap2\n      swap1\n      tag_42\n      jump\t// in\n    tag_124:\n      tag_125\n      jump\t// in\n    tag_123:\n      mload(0x40)\n      tag_126\n      swap2\n      swap1\n      tag_92\n      jump\t// in\n    tag_126:\n      mload(0x40)\n      dup1\n      swap2\n      sub\n      swap1\n      return\n        /* \"@openzeppelin/contracts/access/Ownable.sol\":2074:2272  function transferOwnership(address newOwner) public virtual onlyOwner {... */\n    tag_27:\n      tag_127\n      0x04\n      dup1\n      calldatasize\n      sub\n      dup2\n      add\n      swap1\n      tag_128\n      swap2\n      swap1\n      tag_42\n      jump\t// in\n    tag_128:\n      tag_129\n      jump\t// in\n    tag_127:\n      stop\n        /* \"Pledge.sol\":7255:7487  function allValidators() public view returns (address[] memory) {... */\n    tag_28:\n      tag_130\n      tag_131\n      jump\t// in\n    tag_130:\n      mload(0x40)\n      tag_132\n      swap2\n      swap1\n      tag_77\n      jump\t// in\n    tag_132:\n      mload(0x40)\n      dup1\n      swap2\n      sub\n      swap1\n      return\n        /* \"Pledge.sol\":647:667  address public token */\n    tag_29:\n      tag_133\n      tag_134\n      jump\t// in\n    tag_133:\n      mload(0x40)\n      tag_135\n      swap2\n      swap1\n      tag_53\n      jump\t// in\n    tag_135:\n      mload(0x40)\n      dup1\n      swap2\n      sub\n      swap1\n      return\n        /* \"Pledge.sol\":674:704  uint256 public minerStakePrice */\n    tag_37:\n      sload(0x05)\n      dup2\n      jump\t// out\n        /* \"Pledge.sol\":993:1046  mapping(address => UserStorage) public userOwnStorage */\n    tag_43:\n      mstore(0x20, 0x0c)\n      dup1\n      0x00\n      mstore\n      keccak256(0x00, 0x40)\n      0x00\n      swap2\n      pop\n      swap1\n      pop\n      dup1\n      0x00\n      add\n      sload\n      swap1\n      dup1\n      0x01\n      add\n      sload\n      swap1\n      dup1\n      0x02\n      add\n      sload\n      swap1\n      pop\n      dup4\n      jump\t// out\n        /* \"Pledge.sol\":3647:4127  function stake(uint256 store_, uint8 role_) external nonReentrant {... */\n    tag_49:\n        /* \"@openzeppelin/contracts/security/ReentrancyGuard.sol\":2261:2282  _nonReentrantBefore() */\n      tag_137\n        /* \"@openzeppelin/contracts/security/ReentrancyGuard.sol\":2261:2280  _nonReentrantBefore */\n      tag_138\n        /* \"@openzeppelin/contracts/security/ReentrancyGuard.sol\":2261:2282  _nonReentrantBefore() */\n      jump\t// in\n    tag_137:\n        /* \"Pledge.sol\":3740:3741  2 */\n      0x02\n        /* \"Pledge.sol\":3731:3736  role_ */\n      dup2\n        /* \"Pledge.sol\":3731:3741  role_ == 2 */\n      0xff\n      and\n      eq\n        /* \"Pledge.sol\":3731:3755  role_ == 2 || role_ == 3 */\n      dup1\n      tag_140\n      jumpi\n      pop\n        /* \"Pledge.sol\":3754:3755  3 */\n      0x03\n        /* \"Pledge.sol\":3745:3750  role_ */\n      dup2\n        /* \"Pledge.sol\":3745:3755  role_ == 3 */\n      0xff\n      and\n      eq\n        /* \"Pledge.sol\":3731:3755  role_ == 2 || role_ == 3 */\n    tag_140:\n        /* \"Pledge.sol\":3723:3783  require(role_ == 2 || role_ == 3, \"Peldge: role not exist!\") */\n      tag_141\n      jumpi\n      mload(0x40)\n      0x08c379a000000000000000000000000000000000000000000000000000000000\n      dup2\n      mstore\n      0x04\n      add\n      tag_142\n      swap1\n      tag_143\n      jump\t// in\n    tag_142:\n      mload(0x40)\n      dup1\n      swap2\n      sub\n      swap1\n      revert\n    tag_141:\n        /* \"Pledge.sol\":3882:3883  0 */\n      0x00\n        /* \"Pledge.sol\":3856:3864  userRole */\n      0x09\n        /* \"Pledge.sol\":3856:3878  userRole[_msgSender()] */\n      0x00\n        /* \"Pledge.sol\":3865:3877  _msgSender() */\n      tag_144\n        /* \"Pledge.sol\":3865:3875  _msgSender */\n      tag_145\n        /* \"Pledge.sol\":3865:3877  _msgSender() */\n      jump\t// in\n    tag_144:\n        /* \"Pledge.sol\":3856:3878  userRole[_msgSender()] */\n      0xffffffffffffffffffffffffffffffffffffffff\n      and\n      0xffffffffffffffffffffffffffffffffffffffff\n      and\n      dup2\n      mstore\n      0x20\n      add\n      swap1\n      dup2\n      mstore\n      0x20\n      add\n      0x00\n      keccak256\n      0x00\n      swap1\n      sload\n      swap1\n      0x0100\n      exp\n      swap1\n      div\n      0xff\n      and\n        /* \"Pledge.sol\":3856:3883  userRole[_msgSender()] == 0 */\n      0xff\n      and\n      eq\n        /* \"Pledge.sol\":3856:3914  userRole[_msgSender()] == 0 || userRole[_msgSender()] == 2 */\n      dup1\n      tag_146\n      jumpi\n      pop\n        /* \"Pledge.sol\":3913:3914  2 */\n      0x02\n        /* \"Pledge.sol\":3887:3895  userRole */\n      0x09\n        /* \"Pledge.sol\":3887:3909  userRole[_msgSender()] */\n      0x00\n        /* \"Pledge.sol\":3896:3908  _msgSender() */\n      tag_147\n        /* \"Pledge.sol\":3896:3906  _msgSender */\n      tag_145\n        /* \"Pledge.sol\":3896:3908  _msgSender() */\n      jump\t// in\n    tag_147:\n        /* \"Pledge.sol\":3887:3909  userRole[_msgSender()] */\n      0xffffffffffffffffffffffffffffffffffffffff\n      and\n      0xffffffffffffffffffffffffffffffffffffffff\n      and\n      dup2\n      mstore\n      0x20\n      add\n      swap1\n      dup2\n      mstore\n      0x20\n      add\n      0x00\n      keccak256\n      0x00\n      swap1\n      sload\n      swap1\n      0x0100\n      exp\n      swap1\n      div\n      0xff\n      and\n        /* \"Pledge.sol\":3887:3914  userRole[_msgSender()] == 2 */\n      0xff\n      and\n      eq\n        /* \"Pledge.sol\":3856:3914  userRole[_msgSender()] == 0 || userRole[_msgSender()] == 2 */\n    tag_146:\n        /* \"Pledge.sol\":3835:3963  require(... */\n      tag_148\n      jumpi\n      mload(0x40)\n      0x08c379a000000000000000000000000000000000000000000000000000000000\n      dup2\n      mstore\n      0x04\n      add\n      tag_149\n      swap1\n      tag_150\n      jump\t// in\n    tag_149:\n      mload(0x40)\n      dup1\n      swap2\n      sub\n      swap1\n      revert\n    tag_148:\n        /* \"Pledge.sol\":3986:3987  2 */\n      0x02\n        /* \"Pledge.sol\":3977:3982  role_ */\n      dup2\n        /* \"Pledge.sol\":3977:3987  role_ == 2 */\n      0xff\n      and\n      sub\n        /* \"Pledge.sol\":3973:4121  if (role_ == 2) {... */\n      tag_151\n      jumpi\n        /* \"Pledge.sol\":4003:4035  minerStake(store_, _msgSender()) */\n      tag_152\n        /* \"Pledge.sol\":4014:4020  store_ */\n      dup3\n        /* \"Pledge.sol\":4022:4034  _msgSender() */\n      tag_153\n        /* \"Pledge.sol\":4022:4032  _msgSender */\n      tag_145\n        /* \"Pledge.sol\":4022:4034  _msgSender() */\n      jump\t// in\n    tag_153:\n        /* \"Pledge.sol\":4003:4013  minerStake */\n      tag_154\n        /* \"Pledge.sol\":4003:4035  minerStake(store_, _msgSender()) */\n      jump\t// in\n    tag_152:\n      pop\n        /* \"Pledge.sol\":3973:4121  if (role_ == 2) {... */\n      jump(tag_155)\n    tag_151:\n        /* \"Pledge.sol\":4065:4066  3 */\n      0x03\n        /* \"Pledge.sol\":4056:4061  role_ */\n      dup2\n        /* \"Pledge.sol\":4056:4066  role_ == 3 */\n      0xff\n      and\n      sub\n        /* \"Pledge.sol\":4052:4121  if (role_ == 3) {... */\n      tag_156\n      jumpi\n        /* \"Pledge.sol\":4082:4110  validatorStake(_msgSender()) */\n      tag_157\n        /* \"Pledge.sol\":4097:4109  _msgSender() */\n      tag_158\n        /* \"Pledge.sol\":4097:4107  _msgSender */\n      tag_145\n        /* \"Pledge.sol\":4097:4109  _msgSender() */\n      jump\t// in\n    tag_158:\n        /* \"Pledge.sol\":4082:4096  validatorStake */\n      tag_159\n        /* \"Pledge.sol\":4082:4110  validatorStake(_msgSender()) */\n      jump\t// in\n    tag_157:\n      pop\n        /* \"Pledge.sol\":4052:4121  if (role_ == 3) {... */\n    tag_156:\n        /* \"Pledge.sol\":3973:4121  if (role_ == 2) {... */\n    tag_155:\n        /* \"@openzeppelin/contracts/security/ReentrancyGuard.sol\":2303:2323  _nonReentrantAfter() */\n      tag_160\n        /* \"@openzeppelin/contracts/security/ReentrancyGuard.sol\":2303:2321  _nonReentrantAfter */\n      tag_161\n        /* \"@openzeppelin/contracts/security/ReentrancyGuard.sol\":2303:2323  _nonReentrantAfter() */\n      jump\t// in\n    tag_160:\n        /* \"Pledge.sol\":3647:4127  function stake(uint256 store_, uint8 role_) external nonReentrant {... */\n      pop\n      pop\n      jump\t// out\n        /* \"Pledge.sol\":596:615  address public pool */\n    tag_51:\n      0x02\n      0x00\n      swap1\n      sload\n      swap1\n      0x0100\n      exp\n      swap1\n      div\n      0xffffffffffffffffffffffffffffffffffffffff\n      and\n      dup2\n      jump\t// out\n        /* \"Pledge.sol\":7997:8103  function getUerRole(address user_) external view returns (uint256) {... */\n    tag_56:\n        /* \"Pledge.sol\":8055:8062  uint256 */\n      0x00\n        /* \"Pledge.sol\":8081:8089  userRole */\n      0x09\n        /* \"Pledge.sol\":8081:8096  userRole[user_] */\n      0x00\n        /* \"Pledge.sol\":8090:8095  user_ */\n      dup4\n        /* \"Pledge.sol\":8081:8096  userRole[user_] */\n      0xffffffffffffffffffffffffffffffffffffffff\n      and\n      0xffffffffffffffffffffffffffffffffffffffff\n      and\n      dup2\n      mstore\n      0x20\n      add\n      swap1\n      dup2\n      mstore\n      0x20\n      add\n      0x00\n      keccak256\n      0x00\n      swap1\n      sload\n      swap1\n      0x0100\n      exp\n      swap1\n      div\n      0xff\n      and\n        /* \"Pledge.sol\":8074:8096  return userRole[user_] */\n      0xff\n      and\n      swap1\n      pop\n        /* \"Pledge.sol\":7997:8103  function getUerRole(address user_) external view returns (uint256) {... */\n      swap2\n      swap1\n      pop\n      jump\t// out\n        /* \"Pledge.sol\":1468:1552  function setSotre(address store_) external onlyOwner {... */\n    tag_60:\n        /* \"@openzeppelin/contracts/access/Ownable.sol\":1094:1107  _checkOwner() */\n      tag_164\n        /* \"@openzeppelin/contracts/access/Ownable.sol\":1094:1105  _checkOwner */\n      tag_165\n        /* \"@openzeppelin/contracts/access/Ownable.sol\":1094:1107  _checkOwner() */\n      jump\t// in\n    tag_164:\n        /* \"Pledge.sol\":1539:1545  store_ */\n      dup1\n        /* \"Pledge.sol\":1531:1536  store */\n      0x03\n      0x00\n        /* \"Pledge.sol\":1531:1545  store = store_ */\n      0x0100\n      exp\n      dup2\n      sload\n      dup2\n      0xffffffffffffffffffffffffffffffffffffffff\n      mul\n      not\n      and\n      swap1\n      dup4\n      0xffffffffffffffffffffffffffffffffffffffff\n      and\n      mul\n      or\n      swap1\n      sstore\n      pop\n        /* \"Pledge.sol\":1468:1552  function setSotre(address store_) external onlyOwner {... */\n      pop\n      jump\t// out\n        /* \"Pledge.sol\":1887:2485  function buyStorage(uint256 store_, uint256 days_) external nonReentrant {... */\n    tag_64:\n        /* \"@openzeppelin/contracts/security/ReentrancyGuard.sol\":2261:2282  _nonReentrantBefore() */\n      tag_168\n        /* \"@openzeppelin/contracts/security/ReentrancyGuard.sol\":2261:2280  _nonReentrantBefore */\n      tag_138\n        /* \"@openzeppelin/contracts/security/ReentrancyGuard.sol\":2261:2282  _nonReentrantBefore() */\n      jump\t// in\n    tag_168:\n        /* \"Pledge.sol\":2000:2002  30 */\n      0x1e\n        /* \"Pledge.sol\":1991:1996  days_ */\n      dup2\n        /* \"Pledge.sol\":1991:2002  days_ >= 30 */\n      lt\n      iszero\n        /* \"Pledge.sol\":1991:2021  days_ >= 30 && days_ % 30 == 0 */\n      dup1\n      iszero\n      tag_170\n      jumpi\n      pop\n        /* \"Pledge.sol\":2020:2021  0 */\n      0x00\n        /* \"Pledge.sol\":2014:2016  30 */\n      0x1e\n        /* \"Pledge.sol\":2006:2011  days_ */\n      dup3\n        /* \"Pledge.sol\":2006:2016  days_ % 30 */\n      tag_171\n      swap2\n      swap1\n      tag_172\n      jump\t// in\n    tag_171:\n        /* \"Pledge.sol\":2006:2021  days_ % 30 == 0 */\n      eq\n        /* \"Pledge.sol\":1991:2021  days_ >= 30 && days_ % 30 == 0 */\n    tag_170:\n        /* \"Pledge.sol\":1970:2082  require(... */\n      tag_173\n      jumpi\n      mload(0x40)\n      0x08c379a000000000000000000000000000000000000000000000000000000000\n      dup2\n      mstore\n      0x04\n      add\n      tag_174\n      swap1\n      tag_175\n      jump\t// in\n    tag_174:\n      mload(0x40)\n      dup1\n      swap2\n      sub\n      swap1\n      revert\n    tag_173:\n        /* \"Pledge.sol\":2197:2198  1 */\n      0x01\n        /* \"Pledge.sol\":2172:2180  userRole */\n      0x09\n        /* \"Pledge.sol\":2172:2194  userRole[_msgSender()] */\n      0x00\n        /* \"Pledge.sol\":2181:2193  _msgSender() */\n      tag_176\n        /* \"Pledge.sol\":2181:2191  _msgSender */\n      tag_145\n        /* \"Pledge.sol\":2181:2193  _msgSender() */\n      jump\t// in\n    tag_176:\n        /* \"Pledge.sol\":2172:2194  userRole[_msgSender()] */\n      0xffffffffffffffffffffffffffffffffffffffff\n      and\n      0xffffffffffffffffffffffffffffffffffffffff\n      and\n      dup2\n      mstore\n      0x20\n      add\n      swap1\n      dup2\n      mstore\n      0x20\n      add\n      0x00\n      keccak256\n      0x00\n        /* \"Pledge.sol\":2172:2198  userRole[_msgSender()] = 1 */\n      0x0100\n      exp\n      dup2\n      sload\n      dup2\n      0xff\n      mul\n      not\n      and\n      swap1\n      dup4\n      0xff\n      and\n      mul\n      or\n      swap1\n      sstore\n      pop\n        /* \"Pledge.sol\":2240:2244  1024 */\n      0x0400\n        /* \"Pledge.sol\":2233:2237  1024 */\n      dup1\n        /* \"Pledge.sol\":2226:2230  1024 */\n      0x0400\n        /* \"Pledge.sol\":2217:2223  store_ */\n      dup5\n        /* \"Pledge.sol\":2217:2230  store_ * 1024 */\n      tag_177\n      swap2\n      swap1\n      tag_178\n      jump\t// in\n    tag_177:\n        /* \"Pledge.sol\":2217:2237  store_ * 1024 * 1024 */\n      tag_179\n      swap2\n      swap1\n      tag_178\n      jump\t// in\n    tag_179:\n        /* \"Pledge.sol\":2217:2244  store_ * 1024 * 1024 * 1024 */\n      tag_180\n      swap2\n      swap1\n      tag_178\n      jump\t// in\n    tag_180:\n        /* \"Pledge.sol\":2208:2244  store_ = store_ * 1024 * 1024 * 1024 */\n      swap2\n      pop\n        /* \"Pledge.sol\":2292:2298  store_ */\n      dup2\n        /* \"Pledge.sol\":2254:2268  userOwnStorage */\n      0x0c\n        /* \"Pledge.sol\":2254:2282  userOwnStorage[_msgSender()] */\n      0x00\n        /* \"Pledge.sol\":2269:2281  _msgSender() */\n      tag_181\n        /* \"Pledge.sol\":2269:2279  _msgSender */\n      tag_145\n        /* \"Pledge.sol\":2269:2281  _msgSender() */\n      jump\t// in\n    tag_181:\n        /* \"Pledge.sol\":2254:2282  userOwnStorage[_msgSender()] */\n      0xffffffffffffffffffffffffffffffffffffffff\n      and\n      0xffffffffffffffffffffffffffffffffffffffff\n      and\n      dup2\n      mstore\n      0x20\n      add\n      swap1\n      dup2\n      mstore\n      0x20\n      add\n      0x00\n      keccak256\n        /* \"Pledge.sol\":2254:2288  userOwnStorage[_msgSender()].total */\n      0x00\n      add\n      0x00\n        /* \"Pledge.sol\":2254:2298  userOwnStorage[_msgSender()].total += store_ */\n      dup3\n      dup3\n      sload\n      tag_182\n      swap2\n      swap1\n      tag_183\n      jump\t// in\n    tag_182:\n      swap3\n      pop\n      pop\n      dup2\n      swap1\n      sstore\n      pop\n        /* \"Pledge.sol\":2346:2352  store_ */\n      dup2\n        /* \"Pledge.sol\":2308:2322  userOwnStorage */\n      0x0c\n        /* \"Pledge.sol\":2308:2336  userOwnStorage[_msgSender()] */\n      0x00\n        /* \"Pledge.sol\":2323:2335  _msgSender() */\n      tag_184\n        /* \"Pledge.sol\":2323:2333  _msgSender */\n      tag_145\n        /* \"Pledge.sol\":2323:2335  _msgSender() */\n      jump\t// in\n    tag_184:\n        /* \"Pledge.sol\":2308:2336  userOwnStorage[_msgSender()] */\n      0xffffffffffffffffffffffffffffffffffffffff\n      and\n      0xffffffffffffffffffffffffffffffffffffffff\n      and\n      dup2\n      mstore\n      0x20\n      add\n      swap1\n      dup2\n      mstore\n      0x20\n      add\n      0x00\n      keccak256\n        /* \"Pledge.sol\":2308:2342  userOwnStorage[_msgSender()].unUse */\n      0x01\n      add\n      0x00\n        /* \"Pledge.sol\":2308:2352  userOwnStorage[_msgSender()].unUse += store_ */\n      dup3\n      dup3\n      sload\n      tag_185\n      swap2\n      swap1\n      tag_183\n      jump\t// in\n    tag_185:\n      swap3\n      pop\n      pop\n      dup2\n      swap1\n      sstore\n      pop\n        /* \"Pledge.sol\":585:590  86400 */\n      0x015180\n        /* \"Pledge.sol\":2403:2408  days_ */\n      dup2\n        /* \"Pledge.sol\":2403:2419  days_ * dayStamp */\n      tag_186\n      swap2\n      swap1\n      tag_178\n      jump\t// in\n    tag_186:\n        /* \"Pledge.sol\":2362:2376  userOwnStorage */\n      0x0c\n        /* \"Pledge.sol\":2362:2390  userOwnStorage[_msgSender()] */\n      0x00\n        /* \"Pledge.sol\":2377:2389  _msgSender() */\n      tag_187\n        /* \"Pledge.sol\":2377:2387  _msgSender */\n      tag_145\n        /* \"Pledge.sol\":2377:2389  _msgSender() */\n      jump\t// in\n    tag_187:\n        /* \"Pledge.sol\":2362:2390  userOwnStorage[_msgSender()] */\n      0xffffffffffffffffffffffffffffffffffffffff\n      and\n      0xffffffffffffffffffffffffffffffffffffffff\n      and\n      dup2\n      mstore\n      0x20\n      add\n      swap1\n      dup2\n      mstore\n      0x20\n      add\n      0x00\n      keccak256\n        /* \"Pledge.sol\":2362:2399  userOwnStorage[_msgSender()].deadline */\n      0x02\n      add\n      0x00\n        /* \"Pledge.sol\":2362:2419  userOwnStorage[_msgSender()].deadline += days_ * dayStamp */\n      dup3\n      dup3\n      sload\n      tag_188\n      swap2\n      swap1\n      tag_183\n      jump\t// in\n    tag_188:\n      swap3\n      pop\n      pop\n      dup2\n      swap1\n      sstore\n      pop\n        /* \"Pledge.sol\":2450:2462  _msgSender() */\n      tag_189\n        /* \"Pledge.sol\":2450:2460  _msgSender */\n      tag_145\n        /* \"Pledge.sol\":2450:2462  _msgSender() */\n      jump\t// in\n    tag_189:\n        /* \"Pledge.sol\":2434:2478  BuyStorageEvent(_msgSender(), store_, days_) */\n      0xffffffffffffffffffffffffffffffffffffffff\n      and\n      0x5bdf3f5623fa7ae0fa364fa40561a15fbdbdc8cb2b162ac2820678880f17c259\n        /* \"Pledge.sol\":2464:2470  store_ */\n      dup4\n        /* \"Pledge.sol\":2472:2477  days_ */\n      dup4\n        /* \"Pledge.sol\":2434:2478  BuyStorageEvent(_msgSender(), store_, days_) */\n      mload(0x40)\n      tag_190\n      swap3\n      swap2\n      swap1\n      tag_82\n      jump\t// in\n    tag_190:\n      mload(0x40)\n      dup1\n      swap2\n      sub\n      swap1\n      log2\n        /* \"@openzeppelin/contracts/security/ReentrancyGuard.sol\":2303:2323  _nonReentrantAfter() */\n      tag_191\n        /* \"@openzeppelin/contracts/security/ReentrancyGuard.sol\":2303:2321  _nonReentrantAfter */\n      tag_161\n        /* \"@openzeppelin/contracts/security/ReentrancyGuard.sol\":2303:2323  _nonReentrantAfter() */\n      jump\t// in\n    tag_191:\n        /* \"Pledge.sol\":1887:2485  function buyStorage(uint256 store_, uint256 days_) external nonReentrant {... */\n      pop\n      pop\n      jump\t// out\n        /* \"Pledge.sol\":936:986  mapping(address => uint256) public userStakeAmount */\n    tag_67:\n      mstore(0x20, 0x0b)\n      dup1\n      0x00\n      mstore\n      keccak256(0x00, 0x40)\n      0x00\n      swap2\n      pop\n      swap1\n      pop\n      sload\n      dup2\n      jump\t// out\n        /* \"Pledge.sol\":5099:6124  function uploadMetaData(... */\n    tag_72:\n        /* \"@openzeppelin/contracts/security/ReentrancyGuard.sol\":2261:2282  _nonReentrantBefore() */\n      tag_193\n        /* \"@openzeppelin/contracts/security/ReentrancyGuard.sol\":2261:2280  _nonReentrantBefore */\n      tag_138\n        /* \"@openzeppelin/contracts/security/ReentrancyGuard.sol\":2261:2282  _nonReentrantBefore() */\n      jump\t// in\n    tag_193:\n        /* \"Pledge.sol\":5477:5478  0 */\n      0x00\n        /* \"Pledge.sol\":5468:5473  size_ */\n      dup6\n        /* \"Pledge.sol\":5438:5452  userOwnStorage */\n      0x0c\n        /* \"Pledge.sol\":5438:5459  userOwnStorage[user_] */\n      0x00\n        /* \"Pledge.sol\":5453:5458  user_ */\n      dup5\n        /* \"Pledge.sol\":5438:5459  userOwnStorage[user_] */\n      0xffffffffffffffffffffffffffffffffffffffff\n      and\n      0xffffffffffffffffffffffffffffffffffffffff\n      and\n      dup2\n      mstore\n      0x20\n      add\n      swap1\n      dup2\n      mstore\n      0x20\n      add\n      0x00\n      keccak256\n        /* \"Pledge.sol\":5438:5465  userOwnStorage[user_].unUse */\n      0x01\n      add\n      sload\n        /* \"Pledge.sol\":5438:5473  userOwnStorage[user_].unUse - size_ */\n      tag_195\n      swap2\n      swap1\n      tag_196\n      jump\t// in\n    tag_195:\n        /* \"Pledge.sol\":5438:5478  userOwnStorage[user_].unUse - size_ >= 0 */\n      lt\n      iszero\n        /* \"Pledge.sol\":5417:5536  require(... */\n      tag_197\n      jumpi\n      mload(0x40)\n      0x08c379a000000000000000000000000000000000000000000000000000000000\n      dup2\n      mstore\n      0x04\n      add\n      tag_198\n      swap1\n      tag_199\n      jump\t// in\n    tag_198:\n      mload(0x40)\n      dup1\n      swap2\n      sub\n      swap1\n      revert\n    tag_197:\n        /* \"Pledge.sol\":5546:5557  bool result */\n      0x00\n        /* \"Pledge.sol\":5567:5572  store */\n      0x03\n      0x00\n      swap1\n      sload\n      swap1\n      0x0100\n      exp\n      swap1\n      div\n      0xffffffffffffffffffffffffffffffffffffffff\n      and\n        /* \"Pledge.sol\":5560:5588  IStore(store).uploadMetaData */\n      0xffffffffffffffffffffffffffffffffffffffff\n      and\n      0x47618f18\n        /* \"Pledge.sol\":5602:5609  miners_ */\n      dup12\n        /* \"Pledge.sol\":5623:5632  fileHash_ */\n      dup12\n        /* \"Pledge.sol\":5646:5650  ext_ */\n      dup12\n        /* \"Pledge.sol\":5664:5668  cid_ */\n      dup12\n        /* \"Pledge.sol\":5682:5687  size_ */\n      dup12\n        /* \"Pledge.sol\":5701:5711  dataShards */\n      dup11\n        /* \"Pledge.sol\":5725:5737  parityShards */\n      dup11\n        /* \"Pledge.sol\":5751:5756  user_ */\n      dup11\n        /* \"Pledge.sol\":5560:5766  IStore(store).uploadMetaData(... */\n      mload(0x40)\n      dup10\n      0xffffffff\n      and\n      0xe0\n      shl\n      dup2\n      mstore\n      0x04\n      add\n      tag_200\n      swap9\n      swap8\n      swap7\n      swap6\n      swap5\n      swap4\n      swap3\n      swap2\n      swap1\n      tag_201\n      jump\t// in\n    tag_200:\n      0x20\n      mload(0x40)\n      dup1\n      dup4\n      sub\n      dup2\n      0x00\n      dup8\n      gas\n      call\n      iszero\n      dup1\n      iszero\n      tag_203\n      jumpi\n      returndatasize\n      0x00\n      dup1\n      returndatacopy\n      revert(0x00, returndatasize)\n    tag_203:\n      pop\n      pop\n      pop\n      pop\n      mload(0x40)\n      returndatasize\n      not(0x1f)\n      0x1f\n      dup3\n      add\n      and\n      dup3\n      add\n      dup1\n      0x40\n      mstore\n      pop\n      dup2\n      add\n      swap1\n      tag_204\n      swap2\n      swap1\n      tag_205\n      jump\t// in\n    tag_204:\n        /* \"Pledge.sol\":5546:5766  bool result = IStore(store).uploadMetaData(... */\n      swap1\n      pop\n        /* \"Pledge.sol\":5781:5787  result */\n      dup1\n        /* \"Pledge.sol\":5776:5812  if (!result) revert TransferFailed() */\n      tag_206\n      jumpi\n        /* \"Pledge.sol\":5796:5812  TransferFailed() */\n      mload(0x40)\n      0x90b8ec1800000000000000000000000000000000000000000000000000000000\n      dup2\n      mstore\n      0x04\n      add\n      mload(0x40)\n      dup1\n      swap2\n      sub\n      swap1\n      revert\n        /* \"Pledge.sol\":5776:5812  if (!result) revert TransferFailed() */\n    tag_206:\n        /* \"Pledge.sol\":5884:5889  size_ */\n      dup6\n        /* \"Pledge.sol\":5853:5867  userOwnStorage */\n      0x0c\n        /* \"Pledge.sol\":5853:5874  userOwnStorage[user_] */\n      0x00\n        /* \"Pledge.sol\":5868:5873  user_ */\n      dup5\n        /* \"Pledge.sol\":5853:5874  userOwnStorage[user_] */\n      0xffffffffffffffffffffffffffffffffffffffff\n      and\n      0xffffffffffffffffffffffffffffffffffffffff\n      and\n      dup2\n      mstore\n      0x20\n      add\n      swap1\n      dup2\n      mstore\n      0x20\n      add\n      0x00\n      keccak256\n        /* \"Pledge.sol\":5853:5880  userOwnStorage[user_].unUse */\n      0x01\n      add\n      0x00\n        /* \"Pledge.sol\":5853:5889  userOwnStorage[user_].unUse -= size_ */\n      dup3\n      dup3\n      sload\n      tag_207\n      swap2\n      swap1\n      tag_196\n      jump\t// in\n    tag_207:\n      swap3\n      pop\n      pop\n      dup2\n      swap1\n      sstore\n      pop\n        /* \"Pledge.sol\":5905:5914  uint256 i */\n      0x00\n        /* \"Pledge.sol\":5900:6069  for (uint256 i = 0; i < miners_.length; ) {... */\n    tag_208:\n        /* \"Pledge.sol\":5924:5931  miners_ */\n      dup11\n        /* \"Pledge.sol\":5924:5938  miners_.length */\n      mload\n        /* \"Pledge.sol\":5920:5921  i */\n      dup2\n        /* \"Pledge.sol\":5920:5938  i < miners_.length */\n      lt\n        /* \"Pledge.sol\":5900:6069  for (uint256 i = 0; i < miners_.length; ) {... */\n      iszero\n      tag_209\n      jumpi\n        /* \"Pledge.sol\":5990:5999  blockSize */\n      dup6\n        /* \"Pledge.sol\":5956:5968  minerStorage */\n      0x0a\n        /* \"Pledge.sol\":5956:5980  minerStorage[miners_[i]] */\n      0x00\n        /* \"Pledge.sol\":5969:5976  miners_ */\n      dup14\n        /* \"Pledge.sol\":5977:5978  i */\n      dup5\n        /* \"Pledge.sol\":5969:5979  miners_[i] */\n      dup2\n      mload\n      dup2\n      lt\n      tag_211\n      jumpi\n      tag_212\n      tag_213\n      jump\t// in\n    tag_212:\n    tag_211:\n      0x20\n      mul\n      0x20\n      add\n      add\n      mload\n        /* \"Pledge.sol\":5956:5980  minerStorage[miners_[i]] */\n      0xffffffffffffffffffffffffffffffffffffffff\n      and\n      0xffffffffffffffffffffffffffffffffffffffff\n      and\n      dup2\n      mstore\n      0x20\n      add\n      swap1\n      dup2\n      mstore\n      0x20\n      add\n      0x00\n      keccak256\n        /* \"Pledge.sol\":5956:5986  minerStorage[miners_[i]].unUse */\n      0x01\n      add\n      0x00\n        /* \"Pledge.sol\":5956:5999  minerStorage[miners_[i]].unUse -= blockSize */\n      dup3\n      dup3\n      sload\n      tag_214\n      swap2\n      swap1\n      tag_196\n      jump\t// in\n    tag_214:\n      swap3\n      pop\n      pop\n      dup2\n      swap1\n      sstore\n      pop\n        /* \"Pledge.sol\":6041:6044  ++i */\n      dup1\n      0x01\n      add\n      swap1\n      pop\n        /* \"Pledge.sol\":5900:6069  for (uint256 i = 0; i < miners_.length; ) {... */\n      jump(tag_208)\n    tag_209:\n      pop\n        /* \"Pledge.sol\":6104:6109  user_ */\n      dup2\n        /* \"Pledge.sol\":6084:6117  UploadMetaInfoEvent(user_, size_) */\n      0xffffffffffffffffffffffffffffffffffffffff\n      and\n      0x30ebd9082452f045cbb677f33bafcd83242c048d21fa3f84705ab051a900ac33\n        /* \"Pledge.sol\":6111:6116  size_ */\n      dup8\n        /* \"Pledge.sol\":6084:6117  UploadMetaInfoEvent(user_, size_) */\n      mload(0x40)\n      tag_215\n      swap2\n      swap1\n      tag_39\n      jump\t// in\n    tag_215:\n      mload(0x40)\n      dup1\n      swap2\n      sub\n      swap1\n      log2\n        /* \"Pledge.sol\":5407:6124  {... */\n      pop\n        /* \"@openzeppelin/contracts/security/ReentrancyGuard.sol\":2303:2323  _nonReentrantAfter() */\n      tag_216\n        /* \"@openzeppelin/contracts/security/ReentrancyGuard.sol\":2303:2321  _nonReentrantAfter */\n      tag_161\n        /* \"@openzeppelin/contracts/security/ReentrancyGuard.sol\":2303:2323  _nonReentrantAfter() */\n      jump\t// in\n    tag_216:\n        /* \"Pledge.sol\":5099:6124  function uploadMetaData(... */\n      pop\n      pop\n      pop\n      pop\n      pop\n      pop\n      pop\n      pop\n      pop\n      jump\t// out\n        /* \"Pledge.sol\":6152:7097  function getMiners(... */\n    tag_75:\n        /* \"Pledge.sol\":6250:6266  address[] memory */\n      0x60\n        /* \"Pledge.sol\":6278:6299  address[] memory list */\n      0x00\n        /* \"Pledge.sol\":6302:6313  allMiners() */\n      tag_218\n        /* \"Pledge.sol\":6302:6311  allMiners */\n      tag_121\n        /* \"Pledge.sol\":6302:6313  allMiners() */\n      jump\t// in\n    tag_218:\n        /* \"Pledge.sol\":6278:6313  address[] memory list = allMiners() */\n      swap1\n      pop\n        /* \"Pledge.sol\":6342:6350  numbers_ */\n      dup3\n        /* \"Pledge.sol\":6327:6331  list */\n      dup2\n        /* \"Pledge.sol\":6327:6338  list.length */\n      mload\n        /* \"Pledge.sol\":6327:6350  list.length <= numbers_ */\n      gt\n        /* \"Pledge.sol\":6323:6388  if (list.length <= numbers_) {... */\n      tag_219\n      jumpi\n        /* \"Pledge.sol\":6373:6377  list */\n      dup1\n        /* \"Pledge.sol\":6366:6377  return list */\n      swap2\n      pop\n      pop\n      jump(tag_217)\n        /* \"Pledge.sol\":6323:6388  if (list.length <= numbers_) {... */\n    tag_219:\n        /* \"Pledge.sol\":6654:6674  address[] memory res */\n      0x00\n        /* \"Pledge.sol\":6691:6699  numbers_ */\n      dup4\n        /* \"Pledge.sol\":6677:6700  new address[](numbers_) */\n      0xffffffffffffffff\n      dup2\n      gt\n      iszero\n      tag_220\n      jumpi\n      tag_221\n      tag_222\n      jump\t// in\n    tag_221:\n    tag_220:\n      mload(0x40)\n      swap1\n      dup1\n      dup3\n      mstore\n      dup1\n      0x20\n      mul\n      0x20\n      add\n      dup3\n      add\n      0x40\n      mstore\n      dup1\n      iszero\n      tag_223\n      jumpi\n      dup2\n      0x20\n      add\n      0x20\n      dup3\n      mul\n      dup1\n      calldatasize\n      dup4\n      calldatacopy\n      dup1\n      dup3\n      add\n      swap2\n      pop\n      pop\n      swap1\n      pop\n    tag_223:\n      pop\n        /* \"Pledge.sol\":6654:6700  address[] memory res = new address[](numbers_) */\n      swap1\n      pop\n        /* \"Pledge.sol\":6710:6732  uint256 remainingCount */\n      0x00\n        /* \"Pledge.sol\":6735:6743  numbers_ */\n      dup5\n        /* \"Pledge.sol\":6710:6743  uint256 remainingCount = numbers_ */\n      swap1\n      pop\n        /* \"Pledge.sol\":6753:6773  uint256 currentIndex */\n      0x00\n        /* \"Pledge.sol\":6787:6804  uint256 lastIndex */\n      dup1\n        /* \"Pledge.sol\":6807:6835  AddressSetLib.length(miners) */\n      tag_224\n        /* \"Pledge.sol\":6828:6834  miners */\n      0x0d\n        /* \"Pledge.sol\":6807:6827  AddressSetLib.length */\n      tag_225\n        /* \"Pledge.sol\":6807:6835  AddressSetLib.length(miners) */\n      jump\t// in\n    tag_224:\n        /* \"Pledge.sol\":6787:6835  uint256 lastIndex = AddressSetLib.length(miners) */\n      swap1\n      pop\n        /* \"Pledge.sol\":7087:7090  res */\n      dup4\n        /* \"Pledge.sol\":7080:7090  return res */\n      swap6\n      pop\n      pop\n      pop\n      pop\n      pop\n      pop\n        /* \"Pledge.sol\":6152:7097  function getMiners(... */\n    tag_217:\n      swap3\n      swap2\n      pop\n      pop\n      jump\t// out\n        /* \"Pledge.sol\":877:929  mapping(address => MinerStorage) public minerStorage */\n    tag_80:\n      mstore(0x20, 0x0a)\n      dup1\n      0x00\n      mstore\n      keccak256(0x00, 0x40)\n      0x00\n      swap2\n      pop\n      swap1\n      pop\n      dup1\n      0x00\n      add\n      sload\n      swap1\n      dup1\n      0x01\n      add\n      sload\n      swap1\n      pop\n      dup3\n      jump\t// out\n        /* \"Pledge.sol\":7493:7600  function minerLength() external view returns (uint256) {... */\n    tag_84:\n        /* \"Pledge.sol\":7539:7546  uint256 */\n      0x00\n        /* \"Pledge.sol\":7565:7593  AddressSetLib.length(miners) */\n      tag_227\n        /* \"Pledge.sol\":7586:7592  miners */\n      0x0d\n        /* \"Pledge.sol\":7565:7585  AddressSetLib.length */\n      tag_225\n        /* \"Pledge.sol\":7565:7593  AddressSetLib.length(miners) */\n      jump\t// in\n    tag_227:\n        /* \"Pledge.sol\":7558:7593  return AddressSetLib.length(miners) */\n      swap1\n      pop\n        /* \"Pledge.sol\":7493:7600  function minerLength() external view returns (uint256) {... */\n      swap1\n      jump\t// out\n        /* \"@openzeppelin/contracts/access/Ownable.sol\":1824:1925  function renounceOwnership() public virtual onlyOwner {... */\n    tag_87:\n        /* \"@openzeppelin/contracts/access/Ownable.sol\":1094:1107  _checkOwner() */\n      tag_229\n        /* \"@openzeppelin/contracts/access/Ownable.sol\":1094:1105  _checkOwner */\n      tag_165\n        /* \"@openzeppelin/contracts/access/Ownable.sol\":1094:1107  _checkOwner() */\n      jump\t// in\n    tag_229:\n        /* \"@openzeppelin/contracts/access/Ownable.sol\":1888:1918  _transferOwnership(address(0)) */\n      tag_231\n        /* \"@openzeppelin/contracts/access/Ownable.sol\":1915:1916  0 */\n      0x00\n        /* \"@openzeppelin/contracts/access/Ownable.sol\":1888:1906  _transferOwnership */\n      tag_232\n        /* \"@openzeppelin/contracts/access/Ownable.sol\":1888:1918  _transferOwnership(address(0)) */\n      jump\t// in\n    tag_231:\n        /* \"@openzeppelin/contracts/access/Ownable.sol\":1824:1925  function renounceOwnership() public virtual onlyOwner {... */\n      jump\t// out\n        /* \"Pledge.sol\":7727:7860  function checkValidator(address user_) external view returns (bool) {... */\n    tag_90:\n        /* \"Pledge.sol\":7789:7793  bool */\n      0x00\n        /* \"Pledge.sol\":7812:7853  AddressSetLib.contains(validators, user_) */\n      tag_234\n        /* \"Pledge.sol\":7835:7845  validators */\n      0x0f\n        /* \"Pledge.sol\":7847:7852  user_ */\n      dup4\n        /* \"Pledge.sol\":7812:7834  AddressSetLib.contains */\n      tag_235\n        /* \"Pledge.sol\":7812:7853  AddressSetLib.contains(validators, user_) */\n      jump\t// in\n    tag_234:\n        /* \"Pledge.sol\":7805:7853  return AddressSetLib.contains(validators, user_) */\n      swap1\n      pop\n        /* \"Pledge.sol\":7727:7860  function checkValidator(address user_) external view returns (bool) {... */\n      swap2\n      swap1\n      pop\n      jump\t// out\n        /* \"@openzeppelin/contracts/access/Ownable.sol\":1201:1286  function owner() public view virtual returns (address) {... */\n    tag_94:\n        /* \"@openzeppelin/contracts/access/Ownable.sol\":1247:1254  address */\n      0x00\n        /* \"@openzeppelin/contracts/access/Ownable.sol\":1273:1279  _owner */\n      dup1\n      0x00\n      swap1\n      sload\n      swap1\n      0x0100\n      exp\n      swap1\n      div\n      0xffffffffffffffffffffffffffffffffffffffff\n      and\n        /* \"@openzeppelin/contracts/access/Ownable.sol\":1266:1279  return _owner */\n      swap1\n      pop\n        /* \"@openzeppelin/contracts/access/Ownable.sol\":1201:1286  function owner() public view virtual returns (address) {... */\n      swap1\n      jump\t// out\n        /* \"Pledge.sol\":621:641  address public store */\n    tag_97:\n      0x03\n      0x00\n      swap1\n      sload\n      swap1\n      0x0100\n      exp\n      swap1\n      div\n      0xffffffffffffffffffffffffffffffffffffffff\n      and\n      dup2\n      jump\t// out\n        /* \"Pledge.sol\":4133:4610  function removeUser(address user_) public onlyOwner returns (bool) {... */\n    tag_101:\n        /* \"Pledge.sol\":4194:4198  bool */\n      0x00\n        /* \"@openzeppelin/contracts/access/Ownable.sol\":1094:1107  _checkOwner() */\n      tag_238\n        /* \"@openzeppelin/contracts/access/Ownable.sol\":1094:1105  _checkOwner */\n      tag_165\n        /* \"@openzeppelin/contracts/access/Ownable.sol\":1094:1107  _checkOwner() */\n      jump\t// in\n    tag_238:\n        /* \"Pledge.sol\":4237:4238  0 */\n      0x00\n        /* \"Pledge.sol\":4218:4226  userRole */\n      0x09\n        /* \"Pledge.sol\":4218:4233  userRole[user_] */\n      0x00\n        /* \"Pledge.sol\":4227:4232  user_ */\n      dup5\n        /* \"Pledge.sol\":4218:4233  userRole[user_] */\n      0xffffffffffffffffffffffffffffffffffffffff\n      and\n      0xffffffffffffffffffffffffffffffffffffffff\n      and\n      dup2\n      mstore\n      0x20\n      add\n      swap1\n      dup2\n      mstore\n      0x20\n      add\n      0x00\n      keccak256\n      0x00\n      swap1\n      sload\n      swap1\n      0x0100\n      exp\n      swap1\n      div\n      0xff\n      and\n        /* \"Pledge.sol\":4218:4238  userRole[user_] != 0 */\n      0xff\n      and\n      sub\n        /* \"Pledge.sol\":4210:4266  require(userRole[user_] != 0, \"Pledge: user not exist!\") */\n      tag_240\n      jumpi\n      mload(0x40)\n      0x08c379a000000000000000000000000000000000000000000000000000000000\n      dup2\n      mstore\n      0x04\n      add\n      tag_241\n      swap1\n      tag_242\n      jump\t// in\n    tag_241:\n      mload(0x40)\n      dup1\n      swap2\n      sub\n      swap1\n      revert\n    tag_240:\n        /* \"Pledge.sol\":4299:4300  1 */\n      0x01\n        /* \"Pledge.sol\":4280:4288  userRole */\n      0x09\n        /* \"Pledge.sol\":4280:4295  userRole[user_] */\n      0x00\n        /* \"Pledge.sol\":4289:4294  user_ */\n      dup5\n        /* \"Pledge.sol\":4280:4295  userRole[user_] */\n      0xffffffffffffffffffffffffffffffffffffffff\n      and\n      0xffffffffffffffffffffffffffffffffffffffff\n      and\n      dup2\n      mstore\n      0x20\n      add\n      swap1\n      dup2\n      mstore\n      0x20\n      add\n      0x00\n      keccak256\n      0x00\n      swap1\n      sload\n      swap1\n      0x0100\n      exp\n      swap1\n      div\n      0xff\n      and\n        /* \"Pledge.sol\":4280:4300  userRole[user_] == 1 */\n      0xff\n      and\n      sub\n        /* \"Pledge.sol\":4276:4458  if (userRole[user_] == 1) {... */\n      tag_243\n      jumpi\n        /* \"Pledge.sol\":4316:4351  AddressSetLib.remove(miners, user_) */\n      tag_244\n        /* \"Pledge.sol\":4337:4343  miners */\n      0x0d\n        /* \"Pledge.sol\":4345:4350  user_ */\n      dup4\n        /* \"Pledge.sol\":4316:4336  AddressSetLib.remove */\n      tag_245\n        /* \"Pledge.sol\":4316:4351  AddressSetLib.remove(miners, user_) */\n      jump\t// in\n    tag_244:\n        /* \"Pledge.sol\":4276:4458  if (userRole[user_] == 1) {... */\n      jump(tag_246)\n    tag_243:\n        /* \"Pledge.sol\":4391:4392  2 */\n      0x02\n        /* \"Pledge.sol\":4372:4380  userRole */\n      0x09\n        /* \"Pledge.sol\":4372:4387  userRole[user_] */\n      0x00\n        /* \"Pledge.sol\":4381:4386  user_ */\n      dup5\n        /* \"Pledge.sol\":4372:4387  userRole[user_] */\n      0xffffffffffffffffffffffffffffffffffffffff\n      and\n      0xffffffffffffffffffffffffffffffffffffffff\n      and\n      dup2\n      mstore\n      0x20\n      add\n      swap1\n      dup2\n      mstore\n      0x20\n      add\n      0x00\n      keccak256\n      0x00\n      swap1\n      sload\n      swap1\n      0x0100\n      exp\n      swap1\n      div\n      0xff\n      and\n        /* \"Pledge.sol\":4372:4392  userRole[user_] == 2 */\n      0xff\n      and\n      sub\n        /* \"Pledge.sol\":4368:4458  if (userRole[user_] == 2) {... */\n      tag_247\n      jumpi\n        /* \"Pledge.sol\":4408:4447  AddressSetLib.remove(validators, user_) */\n      tag_248\n        /* \"Pledge.sol\":4429:4439  validators */\n      0x0f\n        /* \"Pledge.sol\":4441:4446  user_ */\n      dup4\n        /* \"Pledge.sol\":4408:4428  AddressSetLib.remove */\n      tag_245\n        /* \"Pledge.sol\":4408:4447  AddressSetLib.remove(validators, user_) */\n      jump\t// in\n    tag_248:\n        /* \"Pledge.sol\":4368:4458  if (userRole[user_] == 2) {... */\n    tag_247:\n        /* \"Pledge.sol\":4276:4458  if (userRole[user_] == 1) {... */\n    tag_246:\n        /* \"Pledge.sol\":4484:4489  user_ */\n      dup2\n        /* \"Pledge.sol\":4472:4507  RemoveEvent(user_, userRole[user_]) */\n      0xffffffffffffffffffffffffffffffffffffffff\n      and\n      0xc0944d59892e6715b5f3fbf230ed4545fc611c304ac5e1827e583585b4180159\n        /* \"Pledge.sol\":4491:4499  userRole */\n      0x09\n        /* \"Pledge.sol\":4491:4506  userRole[user_] */\n      0x00\n        /* \"Pledge.sol\":4500:4505  user_ */\n      dup6\n        /* \"Pledge.sol\":4491:4506  userRole[user_] */\n      0xffffffffffffffffffffffffffffffffffffffff\n      and\n      0xffffffffffffffffffffffffffffffffffffffff\n      and\n      dup2\n      mstore\n      0x20\n      add\n      swap1\n      dup2\n      mstore\n      0x20\n      add\n      0x00\n      keccak256\n      0x00\n      swap1\n      sload\n      swap1\n      0x0100\n      exp\n      swap1\n      div\n      0xff\n      and\n        /* \"Pledge.sol\":4472:4507  RemoveEvent(user_, userRole[user_]) */\n      mload(0x40)\n      tag_249\n      swap2\n      swap1\n      tag_250\n      jump\t// in\n    tag_249:\n      mload(0x40)\n      dup1\n      swap2\n      sub\n      swap1\n      log2\n        /* \"Pledge.sol\":4525:4533  userRole */\n      0x09\n        /* \"Pledge.sol\":4525:4540  userRole[user_] */\n      0x00\n        /* \"Pledge.sol\":4534:4539  user_ */\n      dup4\n        /* \"Pledge.sol\":4525:4540  userRole[user_] */\n      0xffffffffffffffffffffffffffffffffffffffff\n      and\n      0xffffffffffffffffffffffffffffffffffffffff\n      and\n      dup2\n      mstore\n      0x20\n      add\n      swap1\n      dup2\n      mstore\n      0x20\n      add\n      0x00\n      keccak256\n      0x00\n        /* \"Pledge.sol\":4517:4541  delete (userRole[user_]) */\n      0x0100\n      exp\n      dup2\n      sload\n      swap1\n      0xff\n      mul\n      not\n      and\n      swap1\n      sstore\n        /* \"Pledge.sol\":4559:4574  userStakeAmount */\n      0x0b\n        /* \"Pledge.sol\":4559:4581  userStakeAmount[user_] */\n      0x00\n        /* \"Pledge.sol\":4575:4580  user_ */\n      dup4\n        /* \"Pledge.sol\":4559:4581  userStakeAmount[user_] */\n      0xffffffffffffffffffffffffffffffffffffffff\n      and\n      0xffffffffffffffffffffffffffffffffffffffff\n      and\n      dup2\n      mstore\n      0x20\n      add\n      swap1\n      dup2\n      mstore\n      0x20\n      add\n      0x00\n      keccak256\n        /* \"Pledge.sol\":4551:4582  delete (userStakeAmount[user_]) */\n      0x00\n      swap1\n      sstore\n        /* \"Pledge.sol\":4599:4603  true */\n      0x01\n        /* \"Pledge.sol\":4592:4603  return true */\n      swap1\n      pop\n        /* \"Pledge.sol\":4133:4610  function removeUser(address user_) public onlyOwner returns (bool) {... */\n      swap2\n      swap1\n      pop\n      jump\t// out\n        /* \"Pledge.sol\":7606:7721  function validatorLength() external view returns (uint256) {... */\n    tag_104:\n        /* \"Pledge.sol\":7656:7663  uint256 */\n      0x00\n        /* \"Pledge.sol\":7682:7714  AddressSetLib.length(validators) */\n      tag_252\n        /* \"Pledge.sol\":7703:7713  validators */\n      0x0f\n        /* \"Pledge.sol\":7682:7702  AddressSetLib.length */\n      tag_225\n        /* \"Pledge.sol\":7682:7714  AddressSetLib.length(validators) */\n      jump\t// in\n    tag_252:\n        /* \"Pledge.sol\":7675:7714  return AddressSetLib.length(validators) */\n      swap1\n      pop\n        /* \"Pledge.sol\":7606:7721  function validatorLength() external view returns (uint256) {... */\n      swap1\n      jump\t// out\n        /* \"Pledge.sol\":4616:5093  function punishUser(... */\n    tag_109:\n        /* \"Pledge.sol\":4718:4722  bool */\n      0x00\n        /* \"@openzeppelin/contracts/access/Ownable.sol\":1094:1107  _checkOwner() */\n      tag_254\n        /* \"@openzeppelin/contracts/access/Ownable.sol\":1094:1105  _checkOwner */\n      tag_165\n        /* \"@openzeppelin/contracts/access/Ownable.sol\":1094:1107  _checkOwner() */\n      jump\t// in\n    tag_254:\n        /* \"Pledge.sol\":4761:4762  0 */\n      0x00\n        /* \"Pledge.sol\":4742:4750  userRole */\n      0x09\n        /* \"Pledge.sol\":4742:4757  userRole[user_] */\n      0x00\n        /* \"Pledge.sol\":4751:4756  user_ */\n      dup6\n        /* \"Pledge.sol\":4742:4757  userRole[user_] */\n      0xffffffffffffffffffffffffffffffffffffffff\n      and\n      0xffffffffffffffffffffffffffffffffffffffff\n      and\n      dup2\n      mstore\n      0x20\n      add\n      swap1\n      dup2\n      mstore\n      0x20\n      add\n      0x00\n      keccak256\n      0x00\n      swap1\n      sload\n      swap1\n      0x0100\n      exp\n      swap1\n      div\n      0xff\n      and\n        /* \"Pledge.sol\":4742:4762  userRole[user_] != 0 */\n      0xff\n      and\n      sub\n        /* \"Pledge.sol\":4734:4790  require(userRole[user_] != 0, \"Pledge: user not exist!\") */\n      tag_256\n      jumpi\n      mload(0x40)\n      0x08c379a000000000000000000000000000000000000000000000000000000000\n      dup2\n      mstore\n      0x04\n      add\n      tag_257\n      swap1\n      tag_242\n      jump\t// in\n    tag_257:\n      mload(0x40)\n      dup1\n      swap2\n      sub\n      swap1\n      revert\n    tag_256:\n        /* \"Pledge.sol\":4834:4835  0 */\n      0x00\n        /* \"Pledge.sol\":4808:4823  userStakeAmount */\n      0x0b\n        /* \"Pledge.sol\":4808:4830  userStakeAmount[user_] */\n      0x00\n        /* \"Pledge.sol\":4824:4829  user_ */\n      dup6\n        /* \"Pledge.sol\":4808:4830  userStakeAmount[user_] */\n      0xffffffffffffffffffffffffffffffffffffffff\n      and\n      0xffffffffffffffffffffffffffffffffffffffff\n      and\n      dup2\n      mstore\n      0x20\n      add\n      swap1\n      dup2\n      mstore\n      0x20\n      add\n      0x00\n      keccak256\n      sload\n        /* \"Pledge.sol\":4808:4835  userStakeAmount[user_] >= 0 */\n      lt\n      iszero\n        /* \"Pledge.sol\":4800:4869  require(userStakeAmount[user_] >= 0, \"Pledge: stake amount is zero!\") */\n      tag_258\n      jumpi\n      mload(0x40)\n      0x08c379a000000000000000000000000000000000000000000000000000000000\n      dup2\n      mstore\n      0x04\n      add\n      tag_259\n      swap1\n      tag_260\n      jump\t// in\n    tag_259:\n      mload(0x40)\n      dup1\n      swap2\n      sub\n      swap1\n      revert\n    tag_258:\n        /* \"Pledge.sol\":4909:4916  amount_ */\n      dup2\n        /* \"Pledge.sol\":4883:4898  userStakeAmount */\n      0x0b\n        /* \"Pledge.sol\":4883:4905  userStakeAmount[user_] */\n      0x00\n        /* \"Pledge.sol\":4899:4904  user_ */\n      dup6\n        /* \"Pledge.sol\":4883:4905  userStakeAmount[user_] */\n      0xffffffffffffffffffffffffffffffffffffffff\n      and\n      0xffffffffffffffffffffffffffffffffffffffff\n      and\n      dup2\n      mstore\n      0x20\n      add\n      swap1\n      dup2\n      mstore\n      0x20\n      add\n      0x00\n      keccak256\n      sload\n        /* \"Pledge.sol\":4883:4916  userStakeAmount[user_] <= amount_ */\n      gt\n        /* \"Pledge.sol\":4879:5024  if (userStakeAmount[user_] <= amount_) {... */\n      tag_261\n      jumpi\n        /* \"Pledge.sol\":4958:4965  amount_ */\n      dup2\n        /* \"Pledge.sol\":4932:4947  userStakeAmount */\n      0x0b\n        /* \"Pledge.sol\":4932:4954  userStakeAmount[user_] */\n      0x00\n        /* \"Pledge.sol\":4948:4953  user_ */\n      dup6\n        /* \"Pledge.sol\":4932:4954  userStakeAmount[user_] */\n      0xffffffffffffffffffffffffffffffffffffffff\n      and\n      0xffffffffffffffffffffffffffffffffffffffff\n      and\n      dup2\n      mstore\n      0x20\n      add\n      swap1\n      dup2\n      mstore\n      0x20\n      add\n      0x00\n      keccak256\n      0x00\n        /* \"Pledge.sol\":4932:4965  userStakeAmount[user_] -= amount_ */\n      dup3\n      dup3\n      sload\n      tag_262\n      swap2\n      swap1\n      tag_196\n      jump\t// in\n    tag_262:\n      swap3\n      pop\n      pop\n      dup2\n      swap1\n      sstore\n      pop\n        /* \"Pledge.sol\":4879:5024  if (userStakeAmount[user_] <= amount_) {... */\n      jump(tag_263)\n    tag_261:\n        /* \"Pledge.sol\":4996:5013  removeUser(user_) */\n      tag_264\n        /* \"Pledge.sol\":5007:5012  user_ */\n      dup4\n        /* \"Pledge.sol\":4996:5006  removeUser */\n      tag_101\n        /* \"Pledge.sol\":4996:5013  removeUser(user_) */\n      jump\t// in\n    tag_264:\n      pop\n        /* \"Pledge.sol\":4879:5024  if (userStakeAmount[user_] <= amount_) {... */\n    tag_263:\n        /* \"Pledge.sol\":5050:5055  user_ */\n      dup3\n        /* \"Pledge.sol\":5038:5065  PunishEvent(user_, amount_) */\n      0xffffffffffffffffffffffffffffffffffffffff\n      and\n      0x53fcb0d5ac9969dcec28baa60beb9b56b28fa301971f7e19c6c8beb0d1e86ece\n        /* \"Pledge.sol\":5057:5064  amount_ */\n      dup4\n        /* \"Pledge.sol\":5038:5065  PunishEvent(user_, amount_) */\n      mload(0x40)\n      tag_265\n      swap2\n      swap1\n      tag_39\n      jump\t// in\n    tag_265:\n      mload(0x40)\n      dup1\n      swap2\n      sub\n      swap1\n      log2\n        /* \"Pledge.sol\":5082:5086  true */\n      0x01\n        /* \"Pledge.sol\":5075:5086  return true */\n      swap1\n      pop\n        /* \"Pledge.sol\":4616:5093  function punishUser(... */\n      swap3\n      swap2\n      pop\n      pop\n      jump\t// out\n        /* \"Pledge.sol\":550:590  uint256 public constant dayStamp = 86400 */\n    tag_112:\n        /* \"Pledge.sol\":585:590  86400 */\n      0x015180\n        /* \"Pledge.sol\":550:590  uint256 public constant dayStamp = 86400 */\n      dup2\n      jump\t// out\n        /* \"Pledge.sol\":710:744  uint256 public validatorStakePrice */\n    tag_115:\n      sload(0x06)\n      dup2\n      jump\t// out\n        /* \"Pledge.sol\":750:784  uint256 public singleStoragePricce */\n    tag_118:\n      sload(0x07)\n      dup2\n      jump\t// out\n        /* \"Pledge.sol\":7103:7249  function allMiners() public view returns (address[] memory) {... */\n    tag_121:\n        /* \"Pledge.sol\":7145:7161  address[] memory */\n      0x60\n        /* \"Pledge.sol\":7180:7242  AddressSetLib.getPage(miners, 0, AddressSetLib.length(miners)) */\n      tag_267\n        /* \"Pledge.sol\":7202:7208  miners */\n      0x0d\n        /* \"Pledge.sol\":7210:7211  0 */\n      0x00\n        /* \"Pledge.sol\":7213:7241  AddressSetLib.length(miners) */\n      tag_268\n        /* \"Pledge.sol\":7234:7240  miners */\n      0x0d\n        /* \"Pledge.sol\":7213:7233  AddressSetLib.length */\n      tag_225\n        /* \"Pledge.sol\":7213:7241  AddressSetLib.length(miners) */\n      jump\t// in\n    tag_268:\n        /* \"Pledge.sol\":7180:7201  AddressSetLib.getPage */\n      tag_269\n        /* \"Pledge.sol\":7180:7242  AddressSetLib.getPage(miners, 0, AddressSetLib.length(miners)) */\n      jump\t// in\n    tag_267:\n        /* \"Pledge.sol\":7173:7242  return AddressSetLib.getPage(miners, 0, AddressSetLib.length(miners)) */\n      swap1\n      pop\n        /* \"Pledge.sol\":7103:7249  function allMiners() public view returns (address[] memory) {... */\n      swap1\n      jump\t// out\n        /* \"Pledge.sol\":7866:7991  function checkMiner(address user_) external view returns (bool) {... */\n    tag_125:\n        /* \"Pledge.sol\":7924:7928  bool */\n      0x00\n        /* \"Pledge.sol\":7947:7984  AddressSetLib.contains(miners, user_) */\n      tag_271\n        /* \"Pledge.sol\":7970:7976  miners */\n      0x0d\n        /* \"Pledge.sol\":7978:7983  user_ */\n      dup4\n        /* \"Pledge.sol\":7947:7969  AddressSetLib.contains */\n      tag_235\n        /* \"Pledge.sol\":7947:7984  AddressSetLib.contains(miners, user_) */\n      jump\t// in\n    tag_271:\n        /* \"Pledge.sol\":7940:7984  return AddressSetLib.contains(miners, user_) */\n      swap1\n      pop\n        /* \"Pledge.sol\":7866:7991  function checkMiner(address user_) external view returns (bool) {... */\n      swap2\n      swap1\n      pop\n      jump\t// out\n        /* \"@openzeppelin/contracts/access/Ownable.sol\":2074:2272  function transferOwnership(address newOwner) public virtual onlyOwner {... */\n    tag_129:\n        /* \"@openzeppelin/contracts/access/Ownable.sol\":1094:1107  _checkOwner() */\n      tag_273\n        /* \"@openzeppelin/contracts/access/Ownable.sol\":1094:1105  _checkOwner */\n      tag_165\n        /* \"@openzeppelin/contracts/access/Ownable.sol\":1094:1107  _checkOwner() */\n      jump\t// in\n    tag_273:\n        /* \"@openzeppelin/contracts/access/Ownable.sol\":2182:2183  0 */\n      0x00\n        /* \"@openzeppelin/contracts/access/Ownable.sol\":2162:2184  newOwner != address(0) */\n      0xffffffffffffffffffffffffffffffffffffffff\n      and\n        /* \"@openzeppelin/contracts/access/Ownable.sol\":2162:2170  newOwner */\n      dup2\n        /* \"@openzeppelin/contracts/access/Ownable.sol\":2162:2184  newOwner != address(0) */\n      0xffffffffffffffffffffffffffffffffffffffff\n      and\n      sub\n        /* \"@openzeppelin/contracts/access/Ownable.sol\":2154:2227  require(newOwner != address(0), \"Ownable: new owner is the zero address\") */\n      tag_275\n      jumpi\n      mload(0x40)\n      0x08c379a000000000000000000000000000000000000000000000000000000000\n      dup2\n      mstore\n      0x04\n      add\n      tag_276\n      swap1\n      tag_277\n      jump\t// in\n    tag_276:\n      mload(0x40)\n      dup1\n      swap2\n      sub\n      swap1\n      revert\n    tag_275:\n        /* \"@openzeppelin/contracts/access/Ownable.sol\":2237:2265  _transferOwnership(newOwner) */\n      tag_278\n        /* \"@openzeppelin/contracts/access/Ownable.sol\":2256:2264  newOwner */\n      dup2\n        /* \"@openzeppelin/contracts/access/Ownable.sol\":2237:2255  _transferOwnership */\n      tag_232\n        /* \"@openzeppelin/contracts/access/Ownable.sol\":2237:2265  _transferOwnership(newOwner) */\n      jump\t// in\n    tag_278:\n        /* \"@openzeppelin/contracts/access/Ownable.sol\":2074:2272  function transferOwnership(address newOwner) public virtual onlyOwner {... */\n      pop\n      jump\t// out\n        /* \"Pledge.sol\":7255:7487  function allValidators() public view returns (address[] memory) {... */\n    tag_131:\n        /* \"Pledge.sol\":7301:7317  address[] memory */\n      0x60\n        /* \"Pledge.sol\":7348:7480  AddressSetLib.getPage(... */\n      tag_280\n        /* \"Pledge.sol\":7387:7397  validators */\n      0x0f\n        /* \"Pledge.sol\":7415:7416  0 */\n      0x00\n        /* \"Pledge.sol\":7434:7466  AddressSetLib.length(validators) */\n      tag_281\n        /* \"Pledge.sol\":7455:7465  validators */\n      0x0f\n        /* \"Pledge.sol\":7434:7454  AddressSetLib.length */\n      tag_225\n        /* \"Pledge.sol\":7434:7466  AddressSetLib.length(validators) */\n      jump\t// in\n    tag_281:\n        /* \"Pledge.sol\":7348:7369  AddressSetLib.getPage */\n      tag_269\n        /* \"Pledge.sol\":7348:7480  AddressSetLib.getPage(... */\n      jump\t// in\n    tag_280:\n        /* \"Pledge.sol\":7329:7480  return... */\n      swap1\n      pop\n        /* \"Pledge.sol\":7255:7487  function allValidators() public view returns (address[] memory) {... */\n      swap1\n      jump\t// out\n        /* \"Pledge.sol\":647:667  address public token */\n    tag_134:\n      0x04\n      0x00\n      swap1\n      sload\n      swap1\n      0x0100\n      exp\n      swap1\n      div\n      0xffffffffffffffffffffffffffffffffffffffff\n      and\n      dup2\n      jump\t// out\n        /* \"@openzeppelin/contracts/security/ReentrancyGuard.sol\":2336:2623  function _nonReentrantBefore() private {... */\n    tag_138:\n        /* \"@openzeppelin/contracts/security/ReentrancyGuard.sol\":1759:1760  2 */\n      0x02\n        /* \"@openzeppelin/contracts/security/ReentrancyGuard.sol\":2468:2475  _status */\n      sload(0x01)\n        /* \"@openzeppelin/contracts/security/ReentrancyGuard.sol\":2468:2487  _status != _ENTERED */\n      sub\n        /* \"@openzeppelin/contracts/security/ReentrancyGuard.sol\":2460:2523  require(_status != _ENTERED, \"ReentrancyGuard: reentrant call\") */\n      tag_283\n      jumpi\n      mload(0x40)\n      0x08c379a000000000000000000000000000000000000000000000000000000000\n      dup2\n      mstore\n      0x04\n      add\n      tag_284\n      swap1\n      tag_285\n      jump\t// in\n    tag_284:\n      mload(0x40)\n      dup1\n      swap2\n      sub\n      swap1\n      revert\n    tag_283:\n        /* \"@openzeppelin/contracts/security/ReentrancyGuard.sol\":1759:1760  2 */\n      0x02\n        /* \"@openzeppelin/contracts/security/ReentrancyGuard.sol\":2598:2605  _status */\n      0x01\n        /* \"@openzeppelin/contracts/security/ReentrancyGuard.sol\":2598:2616  _status = _ENTERED */\n      dup2\n      swap1\n      sstore\n      pop\n        /* \"@openzeppelin/contracts/security/ReentrancyGuard.sol\":2336:2623  function _nonReentrantBefore() private {... */\n      jump\t// out\n        /* \"@openzeppelin/contracts/utils/Context.sol\":640:736  function _msgSender() internal view virtual returns (address) {... */\n    tag_145:\n        /* \"@openzeppelin/contracts/utils/Context.sol\":693:700  address */\n      0x00\n        /* \"@openzeppelin/contracts/utils/Context.sol\":719:729  msg.sender */\n      caller\n        /* \"@openzeppelin/contracts/utils/Context.sol\":712:729  return msg.sender */\n      swap1\n      pop\n        /* \"@openzeppelin/contracts/utils/Context.sol\":640:736  function _msgSender() internal view virtual returns (address) {... */\n      swap1\n      jump\t// out\n        /* \"Pledge.sol\":2504:3293  function minerStake(uint256 store_, address user_) internal returns (bool) {... */\n    tag_154:\n        /* \"Pledge.sol\":2573:2577  bool */\n      0x00\n        /* \"Pledge.sol\":2606:2607  0 */\n      dup1\n        /* \"Pledge.sol\":2597:2603  store_ */\n      dup4\n        /* \"Pledge.sol\":2597:2607  store_ > 0 */\n      gt\n        /* \"Pledge.sol\":2589:2643  require(store_ > 0, \"Pledge: stake storeage is zero!\") */\n      tag_288\n      jumpi\n      mload(0x40)\n      0x08c379a000000000000000000000000000000000000000000000000000000000\n      dup2\n      mstore\n      0x04\n      add\n      tag_289\n      swap1\n      tag_290\n      jump\t// in\n    tag_289:\n      mload(0x40)\n      dup1\n      swap2\n      sub\n      swap1\n      revert\n    tag_288:\n        /* \"Pledge.sol\":2653:2667  uint256 amount */\n      0x00\n        /* \"Pledge.sol\":2688:2694  store_ */\n      dup4\n        /* \"Pledge.sol\":2670:2685  minerStakePrice */\n      sload(0x05)\n        /* \"Pledge.sol\":2670:2694  minerStakePrice * store_ */\n      tag_291\n      swap2\n      swap1\n      tag_178\n      jump\t// in\n    tag_291:\n        /* \"Pledge.sol\":2653:2694  uint256 amount = minerStakePrice * store_ */\n      swap1\n      pop\n        /* \"Pledge.sol\":2759:2765  amount */\n      dup1\n        /* \"Pledge.sol\":2732:2737  token */\n      0x04\n      0x00\n      swap1\n      sload\n      swap1\n      0x0100\n      exp\n      swap1\n      div\n      0xffffffffffffffffffffffffffffffffffffffff\n      and\n        /* \"Pledge.sol\":2725:2748  IERC20(token).balanceOf */\n      0xffffffffffffffffffffffffffffffffffffffff\n      and\n      0x70a08231\n        /* \"Pledge.sol\":2749:2754  user_ */\n      dup6\n        /* \"Pledge.sol\":2725:2755  IERC20(token).balanceOf(user_) */\n      mload(0x40)\n      dup3\n      0xffffffff\n      and\n      0xe0\n      shl\n      dup2\n      mstore\n      0x04\n      add\n      tag_292\n      swap2\n      swap1\n      tag_53\n      jump\t// in\n    tag_292:\n      0x20\n      mload(0x40)\n      dup1\n      dup4\n      sub\n      dup2\n      dup7\n      gas\n      staticcall\n      iszero\n      dup1\n      iszero\n      tag_294\n      jumpi\n      returndatasize\n      0x00\n      dup1\n      returndatacopy\n      revert(0x00, returndatasize)\n    tag_294:\n      pop\n      pop\n      pop\n      pop\n      mload(0x40)\n      returndatasize\n      not(0x1f)\n      0x1f\n      dup3\n      add\n      and\n      dup3\n      add\n      dup1\n      0x40\n      mstore\n      pop\n      dup2\n      add\n      swap1\n      tag_295\n      swap2\n      swap1\n      tag_296\n      jump\t// in\n    tag_295:\n        /* \"Pledge.sol\":2725:2765  IERC20(token).balanceOf(user_) >= amount */\n      lt\n      iszero\n        /* \"Pledge.sol\":2704:2818  require(... */\n      tag_297\n      jumpi\n      mload(0x40)\n      0x08c379a000000000000000000000000000000000000000000000000000000000\n      dup2\n      mstore\n      0x04\n      add\n      tag_298\n      swap1\n      tag_299\n      jump\t// in\n    tag_298:\n      mload(0x40)\n      dup1\n      swap2\n      sub\n      swap1\n      revert\n    tag_297:\n        /* \"Pledge.sol\":2833:2870  AddressSetLib.contains(miners, user_) */\n      tag_300\n        /* \"Pledge.sol\":2856:2862  miners */\n      0x0d\n        /* \"Pledge.sol\":2864:2869  user_ */\n      dup5\n        /* \"Pledge.sol\":2833:2855  AddressSetLib.contains */\n      tag_235\n        /* \"Pledge.sol\":2833:2870  AddressSetLib.contains(miners, user_) */\n      jump\t// in\n    tag_300:\n        /* \"Pledge.sol\":2828:2929  if (!AddressSetLib.contains(miners, user_)) {... */\n      tag_301\n      jumpi\n        /* \"Pledge.sol\":2886:2918  AddressSetLib.add(miners, user_) */\n      tag_302\n        /* \"Pledge.sol\":2904:2910  miners */\n      0x0d\n        /* \"Pledge.sol\":2912:2917  user_ */\n      dup5\n        /* \"Pledge.sol\":2886:2903  AddressSetLib.add */\n      tag_303\n        /* \"Pledge.sol\":2886:2918  AddressSetLib.add(miners, user_) */\n      jump\t// in\n    tag_302:\n        /* \"Pledge.sol\":2828:2929  if (!AddressSetLib.contains(miners, user_)) {... */\n    tag_301:\n        /* \"Pledge.sol\":2938:2950  bool success */\n      0x00\n        /* \"Pledge.sol\":2960:2965  token */\n      0x04\n      0x00\n      swap1\n      sload\n      swap1\n      0x0100\n      exp\n      swap1\n      div\n      0xffffffffffffffffffffffffffffffffffffffff\n      and\n        /* \"Pledge.sol\":2953:2979  IERC20(token).transferFrom */\n      0xffffffffffffffffffffffffffffffffffffffff\n      and\n      0x23b872dd\n        /* \"Pledge.sol\":2980:2985  user_ */\n      dup6\n        /* \"Pledge.sol\":2987:2991  pool */\n      0x02\n      0x00\n      swap1\n      sload\n      swap1\n      0x0100\n      exp\n      swap1\n      div\n      0xffffffffffffffffffffffffffffffffffffffff\n      and\n        /* \"Pledge.sol\":2993:2999  amount */\n      dup6\n        /* \"Pledge.sol\":2953:3000  IERC20(token).transferFrom(user_, pool, amount) */\n      mload(0x40)\n      dup5\n      0xffffffff\n      and\n      0xe0\n      shl\n      dup2\n      mstore\n      0x04\n      add\n      tag_304\n      swap4\n      swap3\n      swap2\n      swap1\n      tag_305\n      jump\t// in\n    tag_304:\n      0x20\n      mload(0x40)\n      dup1\n      dup4\n      sub\n      dup2\n      0x00\n      dup8\n      gas\n      call\n      iszero\n      dup1\n      iszero\n      tag_307\n      jumpi\n      returndatasize\n      0x00\n      dup1\n      returndatacopy\n      revert(0x00, returndatasize)\n    tag_307:\n      pop\n      pop\n      pop\n      pop\n      mload(0x40)\n      returndatasize\n      not(0x1f)\n      0x1f\n      dup3\n      add\n      and\n      dup3\n      add\n      dup1\n      0x40\n      mstore\n      pop\n      dup2\n      add\n      swap1\n      tag_308\n      swap2\n      swap1\n      tag_205\n      jump\t// in\n    tag_308:\n        /* \"Pledge.sol\":2938:3000  bool success = IERC20(token).transferFrom(user_, pool, amount) */\n      swap1\n      pop\n        /* \"Pledge.sol\":3015:3022  success */\n      dup1\n        /* \"Pledge.sol\":3010:3047  if (!success) revert TransferFailed() */\n      tag_309\n      jumpi\n        /* \"Pledge.sol\":3031:3047  TransferFailed() */\n      mload(0x40)\n      0x90b8ec1800000000000000000000000000000000000000000000000000000000\n      dup2\n      mstore\n      0x04\n      add\n      mload(0x40)\n      dup1\n      swap2\n      sub\n      swap1\n      revert\n        /* \"Pledge.sol\":3010:3047  if (!success) revert TransferFailed() */\n    tag_309:\n        /* \"Pledge.sol\":3089:3093  1024 */\n      0x0400\n        /* \"Pledge.sol\":3082:3086  1024 */\n      dup1\n        /* \"Pledge.sol\":3075:3079  1024 */\n      0x0400\n        /* \"Pledge.sol\":3066:3072  store_ */\n      dup8\n        /* \"Pledge.sol\":3066:3079  store_ * 1024 */\n      tag_310\n      swap2\n      swap1\n      tag_178\n      jump\t// in\n    tag_310:\n        /* \"Pledge.sol\":3066:3086  store_ * 1024 * 1024 */\n      tag_311\n      swap2\n      swap1\n      tag_178\n      jump\t// in\n    tag_311:\n        /* \"Pledge.sol\":3066:3093  store_ * 1024 * 1024 * 1024 */\n      tag_312\n      swap2\n      swap1\n      tag_178\n      jump\t// in\n    tag_312:\n        /* \"Pledge.sol\":3057:3093  store_ = store_ * 1024 * 1024 * 1024 */\n      swap5\n      pop\n        /* \"Pledge.sol\":3132:3138  store_ */\n      dup5\n        /* \"Pledge.sol\":3103:3115  minerStorage */\n      0x0a\n        /* \"Pledge.sol\":3103:3122  minerStorage[user_] */\n      0x00\n        /* \"Pledge.sol\":3116:3121  user_ */\n      dup7\n        /* \"Pledge.sol\":3103:3122  minerStorage[user_] */\n      0xffffffffffffffffffffffffffffffffffffffff\n      and\n      0xffffffffffffffffffffffffffffffffffffffff\n      and\n      dup2\n      mstore\n      0x20\n      add\n      swap1\n      dup2\n      mstore\n      0x20\n      add\n      0x00\n      keccak256\n        /* \"Pledge.sol\":3103:3128  minerStorage[user_].total */\n      0x00\n      add\n      0x00\n        /* \"Pledge.sol\":3103:3138  minerStorage[user_].total += store_ */\n      dup3\n      dup3\n      sload\n      tag_313\n      swap2\n      swap1\n      tag_183\n      jump\t// in\n    tag_313:\n      swap3\n      pop\n      pop\n      dup2\n      swap1\n      sstore\n      pop\n        /* \"Pledge.sol\":3174:3180  amount */\n      dup2\n        /* \"Pledge.sol\":3148:3163  userStakeAmount */\n      0x0b\n        /* \"Pledge.sol\":3148:3170  userStakeAmount[user_] */\n      0x00\n        /* \"Pledge.sol\":3164:3169  user_ */\n      dup7\n        /* \"Pledge.sol\":3148:3170  userStakeAmount[user_] */\n      0xffffffffffffffffffffffffffffffffffffffff\n      and\n      0xffffffffffffffffffffffffffffffffffffffff\n      and\n      dup2\n      mstore\n      0x20\n      add\n      swap1\n      dup2\n      mstore\n      0x20\n      add\n      0x00\n      keccak256\n      0x00\n        /* \"Pledge.sol\":3148:3180  userStakeAmount[user_] += amount */\n      dup3\n      dup3\n      sload\n      tag_314\n      swap2\n      swap1\n      tag_183\n      jump\t// in\n    tag_314:\n      swap3\n      pop\n      pop\n      dup2\n      swap1\n      sstore\n      pop\n        /* \"Pledge.sol\":3208:3209  2 */\n      0x02\n        /* \"Pledge.sol\":3190:3198  userRole */\n      0x09\n        /* \"Pledge.sol\":3190:3205  userRole[user_] */\n      0x00\n        /* \"Pledge.sol\":3199:3204  user_ */\n      dup7\n        /* \"Pledge.sol\":3190:3205  userRole[user_] */\n      0xffffffffffffffffffffffffffffffffffffffff\n      and\n      0xffffffffffffffffffffffffffffffffffffffff\n      and\n      dup2\n      mstore\n      0x20\n      add\n      swap1\n      dup2\n      mstore\n      0x20\n      add\n      0x00\n      keccak256\n      0x00\n        /* \"Pledge.sol\":3190:3209  userRole[user_] = 2 */\n      0x0100\n      exp\n      dup2\n      sload\n      dup2\n      0xff\n      mul\n      not\n      and\n      swap1\n      dup4\n      0xff\n      and\n      mul\n      or\n      swap1\n      sstore\n      pop\n        /* \"Pledge.sol\":3240:3245  user_ */\n      dup4\n        /* \"Pledge.sol\":3224:3262  MinerStakeEvent(user_, amount, store_) */\n      0xffffffffffffffffffffffffffffffffffffffff\n      and\n      0xe04f064c94fe0edee3c04978ea069c5445cf7146e23ed179c153983e44778311\n        /* \"Pledge.sol\":3247:3253  amount */\n      dup4\n        /* \"Pledge.sol\":3255:3261  store_ */\n      dup8\n        /* \"Pledge.sol\":3224:3262  MinerStakeEvent(user_, amount, store_) */\n      mload(0x40)\n      tag_315\n      swap3\n      swap2\n      swap1\n      tag_82\n      jump\t// in\n    tag_315:\n      mload(0x40)\n      dup1\n      swap2\n      sub\n      swap1\n      log2\n        /* \"Pledge.sol\":3279:3286  success */\n      dup1\n        /* \"Pledge.sol\":3272:3286  return success */\n      swap3\n      pop\n      pop\n      pop\n        /* \"Pledge.sol\":2504:3293  function minerStake(uint256 store_, address user_) internal returns (bool) {... */\n      swap3\n      swap2\n      pop\n      pop\n      jump\t// out\n        /* \"Pledge.sol\":3316:3616  function validatorStake(address user_) internal returns (bool) {... */\n    tag_159:\n        /* \"Pledge.sol\":3373:3377  bool */\n      0x00\n        /* \"Pledge.sol\":3394:3435  AddressSetLib.contains(validators, user_) */\n      tag_317\n        /* \"Pledge.sol\":3417:3427  validators */\n      0x0f\n        /* \"Pledge.sol\":3429:3434  user_ */\n      dup4\n        /* \"Pledge.sol\":3394:3416  AddressSetLib.contains */\n      tag_235\n        /* \"Pledge.sol\":3394:3435  AddressSetLib.contains(validators, user_) */\n      jump\t// in\n    tag_317:\n        /* \"Pledge.sol\":3389:3498  if (!AddressSetLib.contains(validators, user_)) {... */\n      tag_318\n      jumpi\n        /* \"Pledge.sol\":3451:3487  AddressSetLib.add(validators, user_) */\n      tag_319\n        /* \"Pledge.sol\":3469:3479  validators */\n      0x0f\n        /* \"Pledge.sol\":3481:3486  user_ */\n      dup4\n        /* \"Pledge.sol\":3451:3468  AddressSetLib.add */\n      tag_303\n        /* \"Pledge.sol\":3451:3487  AddressSetLib.add(validators, user_) */\n      jump\t// in\n    tag_319:\n        /* \"Pledge.sol\":3389:3498  if (!AddressSetLib.contains(validators, user_)) {... */\n    tag_318:\n        /* \"Pledge.sol\":3525:3526  3 */\n      0x03\n        /* \"Pledge.sol\":3507:3515  userRole */\n      0x09\n        /* \"Pledge.sol\":3507:3522  userRole[user_] */\n      0x00\n        /* \"Pledge.sol\":3516:3521  user_ */\n      dup5\n        /* \"Pledge.sol\":3507:3522  userRole[user_] */\n      0xffffffffffffffffffffffffffffffffffffffff\n      and\n      0xffffffffffffffffffffffffffffffffffffffff\n      and\n      dup2\n      mstore\n      0x20\n      add\n      swap1\n      dup2\n      mstore\n      0x20\n      add\n      0x00\n      keccak256\n      0x00\n        /* \"Pledge.sol\":3507:3526  userRole[user_] = 3 */\n      0x0100\n      exp\n      dup2\n      sload\n      dup2\n      0xff\n      mul\n      not\n      and\n      swap1\n      dup4\n      0xff\n      and\n      mul\n      or\n      swap1\n      sstore\n      pop\n        /* \"Pledge.sol\":3561:3566  user_ */\n      dup2\n        /* \"Pledge.sol\":3541:3588  ValidatorStakeEvent(user_, validatorStakePrice) */\n      0xffffffffffffffffffffffffffffffffffffffff\n      and\n      0x261a1e5397da268bd5f5561920d0fd2b3ac2f1a2c9dea7cd9bc679a8f18d87d3\n        /* \"Pledge.sol\":3568:3587  validatorStakePrice */\n      sload(0x06)\n        /* \"Pledge.sol\":3541:3588  ValidatorStakeEvent(user_, validatorStakePrice) */\n      mload(0x40)\n      tag_320\n      swap2\n      swap1\n      tag_39\n      jump\t// in\n    tag_320:\n      mload(0x40)\n      dup1\n      swap2\n      sub\n      swap1\n      log2\n        /* \"Pledge.sol\":3605:3609  true */\n      0x01\n        /* \"Pledge.sol\":3598:3609  return true */\n      swap1\n      pop\n        /* \"Pledge.sol\":3316:3616  function validatorStake(address user_) internal returns (bool) {... */\n      swap2\n      swap1\n      pop\n      jump\t// out\n        /* \"@openzeppelin/contracts/security/ReentrancyGuard.sol\":2629:2838  function _nonReentrantAfter() private {... */\n    tag_161:\n        /* \"@openzeppelin/contracts/security/ReentrancyGuard.sol\":1716:1717  1 */\n      0x01\n        /* \"@openzeppelin/contracts/security/ReentrancyGuard.sol\":2809:2816  _status */\n      dup1\n        /* \"@openzeppelin/contracts/security/ReentrancyGuard.sol\":2809:2831  _status = _NOT_ENTERED */\n      dup2\n      swap1\n      sstore\n      pop\n        /* \"@openzeppelin/contracts/security/ReentrancyGuard.sol\":2629:2838  function _nonReentrantAfter() private {... */\n      jump\t// out\n        /* \"@openzeppelin/contracts/access/Ownable.sol\":1359:1489  function _checkOwner() internal view virtual {... */\n    tag_165:\n        /* \"@openzeppelin/contracts/access/Ownable.sol\":1433:1445  _msgSender() */\n      tag_323\n        /* \"@openzeppelin/contracts/access/Ownable.sol\":1433:1443  _msgSender */\n      tag_145\n        /* \"@openzeppelin/contracts/access/Ownable.sol\":1433:1445  _msgSender() */\n      jump\t// in\n    tag_323:\n        /* \"@openzeppelin/contracts/access/Ownable.sol\":1422:1445  owner() == _msgSender() */\n      0xffffffffffffffffffffffffffffffffffffffff\n      and\n        /* \"@openzeppelin/contracts/access/Ownable.sol\":1422:1429  owner() */\n      tag_324\n        /* \"@openzeppelin/contracts/access/Ownable.sol\":1422:1427  owner */\n      tag_94\n        /* \"@openzeppelin/contracts/access/Ownable.sol\":1422:1429  owner() */\n      jump\t// in\n    tag_324:\n        /* \"@openzeppelin/contracts/access/Ownable.sol\":1422:1445  owner() == _msgSender() */\n      0xffffffffffffffffffffffffffffffffffffffff\n      and\n      eq\n        /* \"@openzeppelin/contracts/access/Ownable.sol\":1414:1482  require(owner() == _msgSender(), \"Ownable: caller is not the owner\") */\n      tag_325\n      jumpi\n      mload(0x40)\n      0x08c379a000000000000000000000000000000000000000000000000000000000\n      dup2\n      mstore\n      0x04\n      add\n      tag_326\n      swap1\n      tag_327\n      jump\t// in\n    tag_326:\n      mload(0x40)\n      dup1\n      swap2\n      sub\n      swap1\n      revert\n    tag_325:\n        /* \"@openzeppelin/contracts/access/Ownable.sol\":1359:1489  function _checkOwner() internal view virtual {... */\n      jump\t// out\n        /* \"libraries/AddressSetLib.sol\":2374:2489  function length(AddressSet storage set) internal view returns (uint256) {... */\n    tag_225:\n        /* \"libraries/AddressSetLib.sol\":2437:2444  uint256 */\n      0x00\n        /* \"libraries/AddressSetLib.sol\":2463:2466  set */\n      dup2\n        /* \"libraries/AddressSetLib.sol\":2463:2475  set.elements */\n      0x00\n      add\n        /* \"libraries/AddressSetLib.sol\":2463:2482  set.elements.length */\n      dup1\n      sload\n      swap1\n      pop\n        /* \"libraries/AddressSetLib.sol\":2456:2482  return set.elements.length */\n      swap1\n      pop\n        /* \"libraries/AddressSetLib.sol\":2374:2489  function length(AddressSet storage set) internal view returns (uint256) {... */\n      swap2\n      swap1\n      pop\n      jump\t// out\n        /* \"@openzeppelin/contracts/access/Ownable.sol\":2426:2613  function _transferOwnership(address newOwner) internal virtual {... */\n    tag_232:\n        /* \"@openzeppelin/contracts/access/Ownable.sol\":2499:2515  address oldOwner */\n      0x00\n        /* \"@openzeppelin/contracts/access/Ownable.sol\":2518:2524  _owner */\n      dup1\n      0x00\n      swap1\n      sload\n      swap1\n      0x0100\n      exp\n      swap1\n      div\n      0xffffffffffffffffffffffffffffffffffffffff\n      and\n        /* \"@openzeppelin/contracts/access/Ownable.sol\":2499:2524  address oldOwner = _owner */\n      swap1\n      pop\n        /* \"@openzeppelin/contracts/access/Ownable.sol\":2543:2551  newOwner */\n      dup2\n        /* \"@openzeppelin/contracts/access/Ownable.sol\":2534:2540  _owner */\n      0x00\n      dup1\n        /* \"@openzeppelin/contracts/access/Ownable.sol\":2534:2551  _owner = newOwner */\n      0x0100\n      exp\n      dup2\n      sload\n      dup2\n      0xffffffffffffffffffffffffffffffffffffffff\n      mul\n      not\n      and\n      swap1\n      dup4\n      0xffffffffffffffffffffffffffffffffffffffff\n      and\n      mul\n      or\n      swap1\n      sstore\n      pop\n        /* \"@openzeppelin/contracts/access/Ownable.sol\":2597:2605  newOwner */\n      dup2\n        /* \"@openzeppelin/contracts/access/Ownable.sol\":2566:2606  OwnershipTransferred(oldOwner, newOwner) */\n      0xffffffffffffffffffffffffffffffffffffffff\n      and\n        /* \"@openzeppelin/contracts/access/Ownable.sol\":2587:2595  oldOwner */\n      dup2\n        /* \"@openzeppelin/contracts/access/Ownable.sol\":2566:2606  OwnershipTransferred(oldOwner, newOwner) */\n      0xffffffffffffffffffffffffffffffffffffffff\n      and\n      0x8be0079c531659141344cd1fd0a4f28419497f9722a3daafe3b4186f6b6457e0\n      mload(0x40)\n      mload(0x40)\n      dup1\n      swap2\n      sub\n      swap1\n      log3\n        /* \"@openzeppelin/contracts/access/Ownable.sol\":2489:2613  {... */\n      pop\n        /* \"@openzeppelin/contracts/access/Ownable.sol\":2426:2613  function _transferOwnership(address newOwner) internal virtual {... */\n      pop\n      jump\t// out\n        /* \"libraries/AddressSetLib.sol\":190:470  function contains(AddressSet storage set, address candidate) internal view returns (bool) {... */\n    tag_235:\n        /* \"libraries/AddressSetLib.sol\":274:278  bool */\n      0x00\n        /* \"libraries/AddressSetLib.sol\":317:318  0 */\n      dup1\n        /* \"libraries/AddressSetLib.sol\":294:297  set */\n      dup4\n        /* \"libraries/AddressSetLib.sol\":294:306  set.elements */\n      0x00\n      add\n        /* \"libraries/AddressSetLib.sol\":294:313  set.elements.length */\n      dup1\n      sload\n      swap1\n      pop\n        /* \"libraries/AddressSetLib.sol\":294:318  set.elements.length == 0 */\n      sub\n        /* \"libraries/AddressSetLib.sol\":290:357  if (set.elements.length == 0) {... */\n      tag_331\n      jumpi\n        /* \"libraries/AddressSetLib.sol\":341:346  false */\n      0x00\n        /* \"libraries/AddressSetLib.sol\":334:346  return false */\n      swap1\n      pop\n      jump(tag_330)\n        /* \"libraries/AddressSetLib.sol\":290:357  if (set.elements.length == 0) {... */\n    tag_331:\n        /* \"libraries/AddressSetLib.sol\":366:379  uint256 index */\n      0x00\n        /* \"libraries/AddressSetLib.sol\":382:385  set */\n      dup4\n        /* \"libraries/AddressSetLib.sol\":382:393  set.indices */\n      0x01\n      add\n        /* \"libraries/AddressSetLib.sol\":382:404  set.indices[candidate] */\n      0x00\n        /* \"libraries/AddressSetLib.sol\":394:403  candidate */\n      dup5\n        /* \"libraries/AddressSetLib.sol\":382:404  set.indices[candidate] */\n      0xffffffffffffffffffffffffffffffffffffffff\n      and\n      0xffffffffffffffffffffffffffffffffffffffff\n      and\n      dup2\n      mstore\n      0x20\n      add\n      swap1\n      dup2\n      mstore\n      0x20\n      add\n      0x00\n      keccak256\n      sload\n        /* \"libraries/AddressSetLib.sol\":366:404  uint256 index = set.indices[candidate] */\n      swap1\n      pop\n        /* \"libraries/AddressSetLib.sol\":430:431  0 */\n      0x00\n        /* \"libraries/AddressSetLib.sol\":421:426  index */\n      dup2\n        /* \"libraries/AddressSetLib.sol\":421:431  index != 0 */\n      eq\n      iszero\n        /* \"libraries/AddressSetLib.sol\":421:463  index != 0 || set.elements[0] == candidate */\n      dup1\n      tag_332\n      jumpi\n      pop\n        /* \"libraries/AddressSetLib.sol\":454:463  candidate */\n      dup3\n        /* \"libraries/AddressSetLib.sol\":435:463  set.elements[0] == candidate */\n      0xffffffffffffffffffffffffffffffffffffffff\n      and\n        /* \"libraries/AddressSetLib.sol\":435:438  set */\n      dup5\n        /* \"libraries/AddressSetLib.sol\":435:447  set.elements */\n      0x00\n      add\n        /* \"libraries/AddressSetLib.sol\":448:449  0 */\n      0x00\n        /* \"libraries/AddressSetLib.sol\":435:450  set.elements[0] */\n      dup2\n      sload\n      dup2\n      lt\n      tag_333\n      jumpi\n      tag_334\n      tag_213\n      jump\t// in\n    tag_334:\n    tag_333:\n      swap1\n      0x00\n      mstore\n      keccak256(0x00, 0x20)\n      add\n      0x00\n      swap1\n      sload\n      swap1\n      0x0100\n      exp\n      swap1\n      div\n      0xffffffffffffffffffffffffffffffffffffffff\n      and\n        /* \"libraries/AddressSetLib.sol\":435:463  set.elements[0] == candidate */\n      0xffffffffffffffffffffffffffffffffffffffff\n      and\n      eq\n        /* \"libraries/AddressSetLib.sol\":421:463  index != 0 || set.elements[0] == candidate */\n    tag_332:\n        /* \"libraries/AddressSetLib.sol\":414:463  return index != 0 || set.elements[0] == candidate */\n      swap2\n      pop\n      pop\n        /* \"libraries/AddressSetLib.sol\":190:470  function contains(AddressSet storage set, address candidate) internal view returns (bool) {... */\n    tag_330:\n      swap3\n      swap2\n      pop\n      pop\n      jump\t// out\n        /* \"libraries/AddressSetLib.sol\":1630:2368  function remove(AddressSet storage set, address element) internal {... */\n    tag_245:\n        /* \"libraries/AddressSetLib.sol\":1714:1736  contains(set, element) */\n      tag_337\n        /* \"libraries/AddressSetLib.sol\":1723:1726  set */\n      dup3\n        /* \"libraries/AddressSetLib.sol\":1728:1735  element */\n      dup3\n        /* \"libraries/AddressSetLib.sol\":1714:1722  contains */\n      tag_235\n        /* \"libraries/AddressSetLib.sol\":1714:1736  contains(set, element) */\n      jump\t// in\n    tag_337:\n        /* \"libraries/AddressSetLib.sol\":1706:1760  require(contains(set, element), 'Element not in set.') */\n      tag_338\n      jumpi\n      mload(0x40)\n      0x08c379a000000000000000000000000000000000000000000000000000000000\n      dup2\n      mstore\n      0x04\n      add\n      tag_339\n      swap1\n      tag_340\n      jump\t// in\n    tag_339:\n      mload(0x40)\n      dup1\n      swap2\n      sub\n      swap1\n      revert\n    tag_338:\n        /* \"libraries/AddressSetLib.sol\":1841:1854  uint256 index */\n      0x00\n        /* \"libraries/AddressSetLib.sol\":1857:1860  set */\n      dup3\n        /* \"libraries/AddressSetLib.sol\":1857:1868  set.indices */\n      0x01\n      add\n        /* \"libraries/AddressSetLib.sol\":1857:1877  set.indices[element] */\n      0x00\n        /* \"libraries/AddressSetLib.sol\":1869:1876  element */\n      dup4\n        /* \"libraries/AddressSetLib.sol\":1857:1877  set.indices[element] */\n      0xffffffffffffffffffffffffffffffffffffffff\n      and\n      0xffffffffffffffffffffffffffffffffffffffff\n      and\n      dup2\n      mstore\n      0x20\n      add\n      swap1\n      dup2\n      mstore\n      0x20\n      add\n      0x00\n      keccak256\n      sload\n        /* \"libraries/AddressSetLib.sol\":1841:1877  uint256 index = set.indices[element] */\n      swap1\n      pop\n        /* \"libraries/AddressSetLib.sol\":1962:1979  uint256 lastIndex */\n      0x00\n        /* \"libraries/AddressSetLib.sol\":2004:2005  1 */\n      0x01\n        /* \"libraries/AddressSetLib.sol\":1982:1985  set */\n      dup5\n        /* \"libraries/AddressSetLib.sol\":1982:1994  set.elements */\n      0x00\n      add\n        /* \"libraries/AddressSetLib.sol\":1982:2001  set.elements.length */\n      dup1\n      sload\n      swap1\n      pop\n        /* \"libraries/AddressSetLib.sol\":1982:2005  set.elements.length - 1 */\n      tag_341\n      swap2\n      swap1\n      tag_196\n      jump\t// in\n    tag_341:\n        /* \"libraries/AddressSetLib.sol\":1962:2005  uint256 lastIndex = set.elements.length - 1 */\n      swap1\n      pop\n        /* \"libraries/AddressSetLib.sol\":2114:2123  lastIndex */\n      dup1\n        /* \"libraries/AddressSetLib.sol\":2105:2110  index */\n      dup3\n        /* \"libraries/AddressSetLib.sol\":2105:2123  index != lastIndex */\n      eq\n        /* \"libraries/AddressSetLib.sol\":2101:2297  if (index != lastIndex) {... */\n      tag_342\n      jumpi\n        /* \"libraries/AddressSetLib.sol\":2139:2161  address shiftedElement */\n      0x00\n        /* \"libraries/AddressSetLib.sol\":2164:2167  set */\n      dup5\n        /* \"libraries/AddressSetLib.sol\":2164:2176  set.elements */\n      0x00\n      add\n        /* \"libraries/AddressSetLib.sol\":2177:2186  lastIndex */\n      dup3\n        /* \"libraries/AddressSetLib.sol\":2164:2187  set.elements[lastIndex] */\n      dup2\n      sload\n      dup2\n      lt\n      tag_343\n      jumpi\n      tag_344\n      tag_213\n      jump\t// in\n    tag_344:\n    tag_343:\n      swap1\n      0x00\n      mstore\n      keccak256(0x00, 0x20)\n      add\n      0x00\n      swap1\n      sload\n      swap1\n      0x0100\n      exp\n      swap1\n      div\n      0xffffffffffffffffffffffffffffffffffffffff\n      and\n        /* \"libraries/AddressSetLib.sol\":2139:2187  address shiftedElement = set.elements[lastIndex] */\n      swap1\n      pop\n        /* \"libraries/AddressSetLib.sol\":2223:2237  shiftedElement */\n      dup1\n        /* \"libraries/AddressSetLib.sol\":2201:2204  set */\n      dup6\n        /* \"libraries/AddressSetLib.sol\":2201:2213  set.elements */\n      0x00\n      add\n        /* \"libraries/AddressSetLib.sol\":2214:2219  index */\n      dup5\n        /* \"libraries/AddressSetLib.sol\":2201:2220  set.elements[index] */\n      dup2\n      sload\n      dup2\n      lt\n      tag_346\n      jumpi\n      tag_347\n      tag_213\n      jump\t// in\n    tag_347:\n    tag_346:\n      swap1\n      0x00\n      mstore\n      keccak256(0x00, 0x20)\n      add\n      0x00\n        /* \"libraries/AddressSetLib.sol\":2201:2237  set.elements[index] = shiftedElement */\n      0x0100\n      exp\n      dup2\n      sload\n      dup2\n      0xffffffffffffffffffffffffffffffffffffffff\n      mul\n      not\n      and\n      swap1\n      dup4\n      0xffffffffffffffffffffffffffffffffffffffff\n      and\n      mul\n      or\n      swap1\n      sstore\n      pop\n        /* \"libraries/AddressSetLib.sol\":2281:2286  index */\n      dup3\n        /* \"libraries/AddressSetLib.sol\":2251:2254  set */\n      dup6\n        /* \"libraries/AddressSetLib.sol\":2251:2262  set.indices */\n      0x01\n      add\n        /* \"libraries/AddressSetLib.sol\":2251:2278  set.indices[shiftedElement] */\n      0x00\n        /* \"libraries/AddressSetLib.sol\":2263:2277  shiftedElement */\n      dup4\n        /* \"libraries/AddressSetLib.sol\":2251:2278  set.indices[shiftedElement] */\n      0xffffffffffffffffffffffffffffffffffffffff\n      and\n      0xffffffffffffffffffffffffffffffffffffffff\n      and\n      dup2\n      mstore\n      0x20\n      add\n      swap1\n      dup2\n      mstore\n      0x20\n      add\n      0x00\n      keccak256\n        /* \"libraries/AddressSetLib.sol\":2251:2286  set.indices[shiftedElement] = index */\n      dup2\n      swap1\n      sstore\n      pop\n        /* \"libraries/AddressSetLib.sol\":2125:2297  {... */\n      pop\n        /* \"libraries/AddressSetLib.sol\":2101:2297  if (index != lastIndex) {... */\n    tag_342:\n        /* \"libraries/AddressSetLib.sol\":2306:2309  set */\n      dup4\n        /* \"libraries/AddressSetLib.sol\":2306:2318  set.elements */\n      0x00\n      add\n        /* \"libraries/AddressSetLib.sol\":2306:2324  set.elements.pop() */\n      dup1\n      sload\n      dup1\n      tag_349\n      jumpi\n      tag_350\n      tag_351\n      jump\t// in\n    tag_350:\n    tag_349:\n      0x01\n      swap1\n      sub\n      dup2\n      dup2\n      swap1\n      0x00\n      mstore\n      keccak256(0x00, 0x20)\n      add\n      exp(0x0100, 0x00)\n      dup2\n      sload\n      swap1\n      0xffffffffffffffffffffffffffffffffffffffff\n      mul\n      not\n      and\n      swap1\n      sstore\n      swap1\n      sstore\n        /* \"libraries/AddressSetLib.sol\":2341:2344  set */\n      dup4\n        /* \"libraries/AddressSetLib.sol\":2341:2352  set.indices */\n      0x01\n      add\n        /* \"libraries/AddressSetLib.sol\":2341:2361  set.indices[element] */\n      0x00\n        /* \"libraries/AddressSetLib.sol\":2353:2360  element */\n      dup5\n        /* \"libraries/AddressSetLib.sol\":2341:2361  set.indices[element] */\n      0xffffffffffffffffffffffffffffffffffffffff\n      and\n      0xffffffffffffffffffffffffffffffffffffffff\n      and\n      dup2\n      mstore\n      0x20\n      add\n      swap1\n      dup2\n      mstore\n      0x20\n      add\n      0x00\n      keccak256\n        /* \"libraries/AddressSetLib.sol\":2334:2361  delete set.indices[element] */\n      0x00\n      swap1\n      sstore\n        /* \"libraries/AddressSetLib.sol\":1696:2368  {... */\n      pop\n      pop\n        /* \"libraries/AddressSetLib.sol\":1630:2368  function remove(AddressSet storage set, address element) internal {... */\n      pop\n      pop\n      jump\t// out\n        /* \"libraries/AddressSetLib.sol\":476:1348  function getPage(... */\n    tag_269:\n        /* \"libraries/AddressSetLib.sol\":603:619  address[] memory */\n      0x60\n        /* \"libraries/AddressSetLib.sol\":745:761  uint256 endIndex */\n      0x00\n        /* \"libraries/AddressSetLib.sol\":772:780  pageSize */\n      dup3\n        /* \"libraries/AddressSetLib.sol\":764:769  index */\n      dup5\n        /* \"libraries/AddressSetLib.sol\":764:780  index + pageSize */\n      tag_354\n      swap2\n      swap1\n      tag_183\n      jump\t// in\n    tag_354:\n        /* \"libraries/AddressSetLib.sol\":745:780  uint256 endIndex = index + pageSize */\n      swap1\n      pop\n        /* \"libraries/AddressSetLib.sol\":936:939  set */\n      dup5\n        /* \"libraries/AddressSetLib.sol\":936:948  set.elements */\n      0x00\n      add\n        /* \"libraries/AddressSetLib.sol\":936:955  set.elements.length */\n      dup1\n      sload\n      swap1\n      pop\n        /* \"libraries/AddressSetLib.sol\":925:933  endIndex */\n      dup2\n        /* \"libraries/AddressSetLib.sol\":925:955  endIndex > set.elements.length */\n      gt\n        /* \"libraries/AddressSetLib.sol\":921:1012  if (endIndex > set.elements.length) {... */\n      iszero\n      tag_355\n      jumpi\n        /* \"libraries/AddressSetLib.sol\":982:985  set */\n      dup5\n        /* \"libraries/AddressSetLib.sol\":982:994  set.elements */\n      0x00\n      add\n        /* \"libraries/AddressSetLib.sol\":982:1001  set.elements.length */\n      dup1\n      sload\n      swap1\n      pop\n        /* \"libraries/AddressSetLib.sol\":971:1001  endIndex = set.elements.length */\n      swap1\n      pop\n        /* \"libraries/AddressSetLib.sol\":921:1012  if (endIndex > set.elements.length) {... */\n    tag_355:\n        /* \"libraries/AddressSetLib.sol\":1037:1042  index */\n      dup4\n        /* \"libraries/AddressSetLib.sol\":1025:1033  endIndex */\n      dup2\n        /* \"libraries/AddressSetLib.sol\":1025:1042  endIndex <= index */\n      gt\n        /* \"libraries/AddressSetLib.sol\":1021:1092  if (endIndex <= index) {... */\n      tag_356\n      jumpi\n        /* \"libraries/AddressSetLib.sol\":1079:1080  0 */\n      0x00\n        /* \"libraries/AddressSetLib.sol\":1065:1081  new address[](0) */\n      0xffffffffffffffff\n      dup2\n      gt\n      iszero\n      tag_357\n      jumpi\n      tag_358\n      tag_222\n      jump\t// in\n    tag_358:\n    tag_357:\n      mload(0x40)\n      swap1\n      dup1\n      dup3\n      mstore\n      dup1\n      0x20\n      mul\n      0x20\n      add\n      dup3\n      add\n      0x40\n      mstore\n      dup1\n      iszero\n      tag_359\n      jumpi\n      dup2\n      0x20\n      add\n      0x20\n      dup3\n      mul\n      dup1\n      calldatasize\n      dup4\n      calldatacopy\n      dup1\n      dup3\n      add\n      swap2\n      pop\n      pop\n      swap1\n      pop\n    tag_359:\n      pop\n        /* \"libraries/AddressSetLib.sol\":1058:1081  return new address[](0) */\n      swap2\n      pop\n      pop\n      jump(tag_353)\n        /* \"libraries/AddressSetLib.sol\":1021:1092  if (endIndex <= index) {... */\n    tag_356:\n        /* \"libraries/AddressSetLib.sol\":1102:1111  uint256 n */\n      0x00\n        /* \"libraries/AddressSetLib.sol\":1125:1130  index */\n      dup5\n        /* \"libraries/AddressSetLib.sol\":1114:1122  endIndex */\n      dup3\n        /* \"libraries/AddressSetLib.sol\":1114:1130  endIndex - index */\n      tag_360\n      swap2\n      swap1\n      tag_196\n      jump\t// in\n    tag_360:\n        /* \"libraries/AddressSetLib.sol\":1102:1130  uint256 n = endIndex - index */\n      swap1\n      pop\n        /* \"libraries/AddressSetLib.sol\":1185:1206  address[] memory page */\n      0x00\n        /* \"libraries/AddressSetLib.sol\":1223:1224  n */\n      dup2\n        /* \"libraries/AddressSetLib.sol\":1209:1225  new address[](n) */\n      0xffffffffffffffff\n      dup2\n      gt\n      iszero\n      tag_361\n      jumpi\n      tag_362\n      tag_222\n      jump\t// in\n    tag_362:\n    tag_361:\n      mload(0x40)\n      swap1\n      dup1\n      dup3\n      mstore\n      dup1\n      0x20\n      mul\n      0x20\n      add\n      dup3\n      add\n      0x40\n      mstore\n      dup1\n      iszero\n      tag_363\n      jumpi\n      dup2\n      0x20\n      add\n      0x20\n      dup3\n      mul\n      dup1\n      calldatasize\n      dup4\n      calldatacopy\n      dup1\n      dup3\n      add\n      swap2\n      pop\n      pop\n      swap1\n      pop\n    tag_363:\n      pop\n        /* \"libraries/AddressSetLib.sol\":1185:1225  address[] memory page = new address[](n) */\n      swap1\n      pop\n        /* \"libraries/AddressSetLib.sol\":1240:1249  uint256 i */\n      0x00\n        /* \"libraries/AddressSetLib.sol\":1235:1321  for (uint256 i; i < n; i++) {... */\n    tag_364:\n        /* \"libraries/AddressSetLib.sol\":1255:1256  n */\n      dup3\n        /* \"libraries/AddressSetLib.sol\":1251:1252  i */\n      dup2\n        /* \"libraries/AddressSetLib.sol\":1251:1256  i < n */\n      lt\n        /* \"libraries/AddressSetLib.sol\":1235:1321  for (uint256 i; i < n; i++) {... */\n      iszero\n      tag_365\n      jumpi\n        /* \"libraries/AddressSetLib.sol\":1287:1290  set */\n      dup8\n        /* \"libraries/AddressSetLib.sol\":1287:1299  set.elements */\n      0x00\n      add\n        /* \"libraries/AddressSetLib.sol\":1304:1309  index */\n      dup8\n        /* \"libraries/AddressSetLib.sol\":1300:1301  i */\n      dup3\n        /* \"libraries/AddressSetLib.sol\":1300:1309  i + index */\n      tag_367\n      swap2\n      swap1\n      tag_183\n      jump\t// in\n    tag_367:\n        /* \"libraries/AddressSetLib.sol\":1287:1310  set.elements[i + index] */\n      dup2\n      sload\n      dup2\n      lt\n      tag_368\n      jumpi\n      tag_369\n      tag_213\n      jump\t// in\n    tag_369:\n    tag_368:\n      swap1\n      0x00\n      mstore\n      keccak256(0x00, 0x20)\n      add\n      0x00\n      swap1\n      sload\n      swap1\n      0x0100\n      exp\n      swap1\n      div\n      0xffffffffffffffffffffffffffffffffffffffff\n      and\n        /* \"libraries/AddressSetLib.sol\":1277:1281  page */\n      dup3\n        /* \"libraries/AddressSetLib.sol\":1282:1283  i */\n      dup3\n        /* \"libraries/AddressSetLib.sol\":1277:1284  page[i] */\n      dup2\n      mload\n      dup2\n      lt\n      tag_371\n      jumpi\n      tag_372\n      tag_213\n      jump\t// in\n    tag_372:\n    tag_371:\n      0x20\n      mul\n      0x20\n      add\n      add\n        /* \"libraries/AddressSetLib.sol\":1277:1310  page[i] = set.elements[i + index] */\n      swap1\n      0xffffffffffffffffffffffffffffffffffffffff\n      and\n      swap1\n      dup2\n      0xffffffffffffffffffffffffffffffffffffffff\n      and\n      dup2\n      mstore\n      pop\n      pop\n        /* \"libraries/AddressSetLib.sol\":1258:1261  i++ */\n      dup1\n      dup1\n      tag_373\n      swap1\n      tag_374\n      jump\t// in\n    tag_373:\n      swap2\n      pop\n      pop\n        /* \"libraries/AddressSetLib.sol\":1235:1321  for (uint256 i; i < n; i++) {... */\n      jump(tag_364)\n    tag_365:\n      pop\n        /* \"libraries/AddressSetLib.sol\":1337:1341  page */\n      dup1\n        /* \"libraries/AddressSetLib.sol\":1330:1341  return page */\n      swap4\n      pop\n      pop\n      pop\n      pop\n        /* \"libraries/AddressSetLib.sol\":476:1348  function getPage(... */\n    tag_353:\n      swap4\n      swap3\n      pop\n      pop\n      pop\n      jump\t// out\n        /* \"libraries/AddressSetLib.sol\":1354:1624  function add(AddressSet storage set, address element) internal {... */\n    tag_303:\n        /* \"libraries/AddressSetLib.sol\":1487:1509  contains(set, element) */\n      tag_376\n        /* \"libraries/AddressSetLib.sol\":1496:1499  set */\n      dup3\n        /* \"libraries/AddressSetLib.sol\":1501:1508  element */\n      dup3\n        /* \"libraries/AddressSetLib.sol\":1487:1495  contains */\n      tag_235\n        /* \"libraries/AddressSetLib.sol\":1487:1509  contains(set, element) */\n      jump\t// in\n    tag_376:\n        /* \"libraries/AddressSetLib.sol\":1482:1618  if (!contains(set, element)) {... */\n      tag_377\n      jumpi\n        /* \"libraries/AddressSetLib.sol\":1548:1551  set */\n      dup2\n        /* \"libraries/AddressSetLib.sol\":1548:1560  set.elements */\n      0x00\n      add\n        /* \"libraries/AddressSetLib.sol\":1548:1567  set.elements.length */\n      dup1\n      sload\n      swap1\n      pop\n        /* \"libraries/AddressSetLib.sol\":1525:1528  set */\n      dup3\n        /* \"libraries/AddressSetLib.sol\":1525:1536  set.indices */\n      0x01\n      add\n        /* \"libraries/AddressSetLib.sol\":1525:1545  set.indices[element] */\n      0x00\n        /* \"libraries/AddressSetLib.sol\":1537:1544  element */\n      dup4\n        /* \"libraries/AddressSetLib.sol\":1525:1545  set.indices[element] */\n      0xffffffffffffffffffffffffffffffffffffffff\n      and\n      0xffffffffffffffffffffffffffffffffffffffff\n      and\n      dup2\n      mstore\n      0x20\n      add\n      swap1\n      dup2\n      mstore\n      0x20\n      add\n      0x00\n      keccak256\n        /* \"libraries/AddressSetLib.sol\":1525:1567  set.indices[element] = set.elements.length */\n      dup2\n      swap1\n      sstore\n      pop\n        /* \"libraries/AddressSetLib.sol\":1581:1584  set */\n      dup2\n        /* \"libraries/AddressSetLib.sol\":1581:1593  set.elements */\n      0x00\n      add\n        /* \"libraries/AddressSetLib.sol\":1599:1606  element */\n      dup2\n        /* \"libraries/AddressSetLib.sol\":1581:1607  set.elements.push(element) */\n      swap1\n      dup1\n      0x01\n      dup2\n      sload\n      add\n      dup1\n      dup3\n      sstore\n      dup1\n      swap2\n      pop\n      pop\n      0x01\n      swap1\n      sub\n      swap1\n      0x00\n      mstore\n      keccak256(0x00, 0x20)\n      add\n      0x00\n      swap1\n      swap2\n      swap1\n      swap2\n      swap1\n      swap2\n      0x0100\n      exp\n      dup2\n      sload\n      dup2\n      0xffffffffffffffffffffffffffffffffffffffff\n      mul\n      not\n      and\n      swap1\n      dup4\n      0xffffffffffffffffffffffffffffffffffffffff\n      and\n      mul\n      or\n      swap1\n      sstore\n      pop\n        /* \"libraries/AddressSetLib.sol\":1482:1618  if (!contains(set, element)) {... */\n    tag_377:\n        /* \"libraries/AddressSetLib.sol\":1354:1624  function add(AddressSet storage set, address element) internal {... */\n      pop\n      pop\n      jump\t// out\n        /* \"#utility.yul\":7:84   */\n    tag_379:\n        /* \"#utility.yul\":44:51   */\n      0x00\n        /* \"#utility.yul\":73:78   */\n      dup2\n        /* \"#utility.yul\":62:78   */\n      swap1\n      pop\n        /* \"#utility.yul\":7:84   */\n      swap2\n      swap1\n      pop\n      jump\t// out\n        /* \"#utility.yul\":90:208   */\n    tag_380:\n        /* \"#utility.yul\":177:201   */\n      tag_464\n        /* \"#utility.yul\":195:200   */\n      dup2\n        /* \"#utility.yul\":177:201   */\n      tag_379\n      jump\t// in\n    tag_464:\n        /* \"#utility.yul\":172:175   */\n      dup3\n        /* \"#utility.yul\":165:202   */\n      mstore\n        /* \"#utility.yul\":90:208   */\n      pop\n      pop\n      jump\t// out\n        /* \"#utility.yul\":214:436   */\n    tag_39:\n        /* \"#utility.yul\":307:311   */\n      0x00\n        /* \"#utility.yul\":345:347   */\n      0x20\n        /* \"#utility.yul\":334:343   */\n      dup3\n        /* \"#utility.yul\":330:348   */\n      add\n        /* \"#utility.yul\":322:348   */\n      swap1\n      pop\n        /* \"#utility.yul\":358:429   */\n      tag_466\n        /* \"#utility.yul\":426:427   */\n      0x00\n        /* \"#utility.yul\":415:424   */\n      dup4\n        /* \"#utility.yul\":411:428   */\n      add\n        /* \"#utility.yul\":402:408   */\n      dup5\n        /* \"#utility.yul\":358:429   */\n      tag_380\n      jump\t// in\n    tag_466:\n        /* \"#utility.yul\":214:436   */\n      swap3\n      swap2\n      pop\n      pop\n      jump\t// out\n        /* \"#utility.yul\":442:517   */\n    tag_381:\n        /* \"#utility.yul\":475:481   */\n      0x00\n        /* \"#utility.yul\":508:510   */\n      0x40\n        /* \"#utility.yul\":502:511   */\n      mload\n        /* \"#utility.yul\":492:511   */\n      swap1\n      pop\n        /* \"#utility.yul\":442:517   */\n      swap1\n      jump\t// out\n        /* \"#utility.yul\":523:640   */\n    tag_382:\n        /* \"#utility.yul\":632:633   */\n      0x00\n        /* \"#utility.yul\":629:630   */\n      dup1\n        /* \"#utility.yul\":622:634   */\n      revert\n        /* \"#utility.yul\":646:763   */\n    tag_383:\n        /* \"#utility.yul\":755:756   */\n      0x00\n        /* \"#utility.yul\":752:753   */\n      dup1\n        /* \"#utility.yul\":745:757   */\n      revert\n        /* \"#utility.yul\":769:895   */\n    tag_384:\n        /* \"#utility.yul\":806:813   */\n      0x00\n        /* \"#utility.yul\":846:888   */\n      0xffffffffffffffffffffffffffffffffffffffff\n        /* \"#utility.yul\":839:844   */\n      dup3\n        /* \"#utility.yul\":835:889   */\n      and\n        /* \"#utility.yul\":824:889   */\n      swap1\n      pop\n        /* \"#utility.yul\":769:895   */\n      swap2\n      swap1\n      pop\n      jump\t// out\n        /* \"#utility.yul\":901:997   */\n    tag_385:\n        /* \"#utility.yul\":938:945   */\n      0x00\n        /* \"#utility.yul\":967:991   */\n      tag_472\n        /* \"#utility.yul\":985:990   */\n      dup3\n        /* \"#utility.yul\":967:991   */\n      tag_384\n      jump\t// in\n    tag_472:\n        /* \"#utility.yul\":956:991   */\n      swap1\n      pop\n        /* \"#utility.yul\":901:997   */\n      swap2\n      swap1\n      pop\n      jump\t// out\n        /* \"#utility.yul\":1003:1125   */\n    tag_386:\n        /* \"#utility.yul\":1076:1100   */\n      tag_474\n        /* \"#utility.yul\":1094:1099   */\n      dup2\n        /* \"#utility.yul\":1076:1100   */\n      tag_385\n      jump\t// in\n    tag_474:\n        /* \"#utility.yul\":1069:1074   */\n      dup2\n        /* \"#utility.yul\":1066:1101   */\n      eq\n        /* \"#utility.yul\":1056:1119   */\n      tag_475\n      jumpi\n        /* \"#utility.yul\":1115:1116   */\n      0x00\n        /* \"#utility.yul\":1112:1113   */\n      dup1\n        /* \"#utility.yul\":1105:1117   */\n      revert\n        /* \"#utility.yul\":1056:1119   */\n    tag_475:\n        /* \"#utility.yul\":1003:1125   */\n      pop\n      jump\t// out\n        /* \"#utility.yul\":1131:1270   */\n    tag_387:\n        /* \"#utility.yul\":1177:1182   */\n      0x00\n        /* \"#utility.yul\":1215:1221   */\n      dup2\n        /* \"#utility.yul\":1202:1222   */\n      calldataload\n        /* \"#utility.yul\":1193:1222   */\n      swap1\n      pop\n        /* \"#utility.yul\":1231:1264   */\n      tag_477\n        /* \"#utility.yul\":1258:1263   */\n      dup2\n        /* \"#utility.yul\":1231:1264   */\n      tag_386\n      jump\t// in\n    tag_477:\n        /* \"#utility.yul\":1131:1270   */\n      swap3\n      swap2\n      pop\n      pop\n      jump\t// out\n        /* \"#utility.yul\":1276:1605   */\n    tag_42:\n        /* \"#utility.yul\":1335:1341   */\n      0x00\n        /* \"#utility.yul\":1384:1386   */\n      0x20\n        /* \"#utility.yul\":1372:1381   */\n      dup3\n        /* \"#utility.yul\":1363:1370   */\n      dup5\n        /* \"#utility.yul\":1359:1382   */\n      sub\n        /* \"#utility.yul\":1355:1387   */\n      slt\n        /* \"#utility.yul\":1352:1471   */\n      iszero\n      tag_479\n      jumpi\n        /* \"#utility.yul\":1390:1469   */\n      tag_480\n      tag_382\n      jump\t// in\n    tag_480:\n        /* \"#utility.yul\":1352:1471   */\n    tag_479:\n        /* \"#utility.yul\":1510:1511   */\n      0x00\n        /* \"#utility.yul\":1535:1588   */\n      tag_481\n        /* \"#utility.yul\":1580:1587   */\n      dup5\n        /* \"#utility.yul\":1571:1577   */\n      dup3\n        /* \"#utility.yul\":1560:1569   */\n      dup6\n        /* \"#utility.yul\":1556:1578   */\n      add\n        /* \"#utility.yul\":1535:1588   */\n      tag_387\n      jump\t// in\n    tag_481:\n        /* \"#utility.yul\":1525:1588   */\n      swap2\n      pop\n        /* \"#utility.yul\":1481:1598   */\n      pop\n        /* \"#utility.yul\":1276:1605   */\n      swap3\n      swap2\n      pop\n      pop\n      jump\t// out\n        /* \"#utility.yul\":1611:2053   */\n    tag_45:\n        /* \"#utility.yul\":1760:1764   */\n      0x00\n        /* \"#utility.yul\":1798:1800   */\n      0x60\n        /* \"#utility.yul\":1787:1796   */\n      dup3\n        /* \"#utility.yul\":1783:1801   */\n      add\n        /* \"#utility.yul\":1775:1801   */\n      swap1\n      pop\n        /* \"#utility.yul\":1811:1882   */\n      tag_483\n        /* \"#utility.yul\":1879:1880   */\n      0x00\n        /* \"#utility.yul\":1868:1877   */\n      dup4\n        /* \"#utility.yul\":1864:1881   */\n      add\n        /* \"#utility.yul\":1855:1861   */\n      dup7\n        /* \"#utility.yul\":1811:1882   */\n      tag_380\n      jump\t// in\n    tag_483:\n        /* \"#utility.yul\":1892:1964   */\n      tag_484\n        /* \"#utility.yul\":1960:1962   */\n      0x20\n        /* \"#utility.yul\":1949:1958   */\n      dup4\n        /* \"#utility.yul\":1945:1963   */\n      add\n        /* \"#utility.yul\":1936:1942   */\n      dup6\n        /* \"#utility.yul\":1892:1964   */\n      tag_380\n      jump\t// in\n    tag_484:\n        /* \"#utility.yul\":1974:2046   */\n      tag_485\n        /* \"#utility.yul\":2042:2044   */\n      0x40\n        /* \"#utility.yul\":2031:2040   */\n      dup4\n        /* \"#utility.yul\":2027:2045   */\n      add\n        /* \"#utility.yul\":2018:2024   */\n      dup5\n        /* \"#utility.yul\":1974:2046   */\n      tag_380\n      jump\t// in\n    tag_485:\n        /* \"#utility.yul\":1611:2053   */\n      swap5\n      swap4\n      pop\n      pop\n      pop\n      pop\n      jump\t// out\n        /* \"#utility.yul\":2059:2181   */\n    tag_388:\n        /* \"#utility.yul\":2132:2156   */\n      tag_487\n        /* \"#utility.yul\":2150:2155   */\n      dup2\n        /* \"#utility.yul\":2132:2156   */\n      tag_379\n      jump\t// in\n    tag_487:\n        /* \"#utility.yul\":2125:2130   */\n      dup2\n        /* \"#utility.yul\":2122:2157   */\n      eq\n        /* \"#utility.yul\":2112:2175   */\n      tag_488\n      jumpi\n        /* \"#utility.yul\":2171:2172   */\n      0x00\n        /* \"#utility.yul\":2168:2169   */\n      dup1\n        /* \"#utility.yul\":2161:2173   */\n      revert\n        /* \"#utility.yul\":2112:2175   */\n    tag_488:\n        /* \"#utility.yul\":2059:2181   */\n      pop\n      jump\t// out\n        /* \"#utility.yul\":2187:2326   */\n    tag_389:\n        /* \"#utility.yul\":2233:2238   */\n      0x00\n        /* \"#utility.yul\":2271:2277   */\n      dup2\n        /* \"#utility.yul\":2258:2278   */\n      calldataload\n        /* \"#utility.yul\":2249:2278   */\n      swap1\n      pop\n        /* \"#utility.yul\":2287:2320   */\n      tag_490\n        /* \"#utility.yul\":2314:2319   */\n      dup2\n        /* \"#utility.yul\":2287:2320   */\n      tag_388\n      jump\t// in\n    tag_490:\n        /* \"#utility.yul\":2187:2326   */\n      swap3\n      swap2\n      pop\n      pop\n      jump\t// out\n        /* \"#utility.yul\":2332:2418   */\n    tag_390:\n        /* \"#utility.yul\":2367:2374   */\n      0x00\n        /* \"#utility.yul\":2407:2411   */\n      0xff\n        /* \"#utility.yul\":2400:2405   */\n      dup3\n        /* \"#utility.yul\":2396:2412   */\n      and\n        /* \"#utility.yul\":2385:2412   */\n      swap1\n      pop\n        /* \"#utility.yul\":2332:2418   */\n      swap2\n      swap1\n      pop\n      jump\t// out\n        /* \"#utility.yul\":2424:2542   */\n    tag_391:\n        /* \"#utility.yul\":2495:2517   */\n      tag_493\n        /* \"#utility.yul\":2511:2516   */\n      dup2\n        /* \"#utility.yul\":2495:2517   */\n      tag_390\n      jump\t// in\n    tag_493:\n        /* \"#utility.yul\":2488:2493   */\n      dup2\n        /* \"#utility.yul\":2485:2518   */\n      eq\n        /* \"#utility.yul\":2475:2536   */\n      tag_494\n      jumpi\n        /* \"#utility.yul\":2532:2533   */\n      0x00\n        /* \"#utility.yul\":2529:2530   */\n      dup1\n        /* \"#utility.yul\":2522:2534   */\n      revert\n        /* \"#utility.yul\":2475:2536   */\n    tag_494:\n        /* \"#utility.yul\":2424:2542   */\n      pop\n      jump\t// out\n        /* \"#utility.yul\":2548:2683   */\n    tag_392:\n        /* \"#utility.yul\":2592:2597   */\n      0x00\n        /* \"#utility.yul\":2630:2636   */\n      dup2\n        /* \"#utility.yul\":2617:2637   */\n      calldataload\n        /* \"#utility.yul\":2608:2637   */\n      swap1\n      pop\n        /* \"#utility.yul\":2646:2677   */\n      tag_496\n        /* \"#utility.yul\":2671:2676   */\n      dup2\n        /* \"#utility.yul\":2646:2677   */\n      tag_391\n      jump\t// in\n    tag_496:\n        /* \"#utility.yul\":2548:2683   */\n      swap3\n      swap2\n      pop\n      pop\n      jump\t// out\n        /* \"#utility.yul\":2689:3159   */\n    tag_48:\n        /* \"#utility.yul\":2755:2761   */\n      0x00\n        /* \"#utility.yul\":2763:2769   */\n      dup1\n        /* \"#utility.yul\":2812:2814   */\n      0x40\n        /* \"#utility.yul\":2800:2809   */\n      dup4\n        /* \"#utility.yul\":2791:2798   */\n      dup6\n        /* \"#utility.yul\":2787:2810   */\n      sub\n        /* \"#utility.yul\":2783:2815   */\n      slt\n        /* \"#utility.yul\":2780:2899   */\n      iszero\n      tag_498\n      jumpi\n        /* \"#utility.yul\":2818:2897   */\n      tag_499\n      tag_382\n      jump\t// in\n    tag_499:\n        /* \"#utility.yul\":2780:2899   */\n    tag_498:\n        /* \"#utility.yul\":2938:2939   */\n      0x00\n        /* \"#utility.yul\":2963:3016   */\n      tag_500\n        /* \"#utility.yul\":3008:3015   */\n      dup6\n        /* \"#utility.yul\":2999:3005   */\n      dup3\n        /* \"#utility.yul\":2988:2997   */\n      dup7\n        /* \"#utility.yul\":2984:3006   */\n      add\n        /* \"#utility.yul\":2963:3016   */\n      tag_389\n      jump\t// in\n    tag_500:\n        /* \"#utility.yul\":2953:3016   */\n      swap3\n      pop\n        /* \"#utility.yul\":2909:3026   */\n      pop\n        /* \"#utility.yul\":3065:3067   */\n      0x20\n        /* \"#utility.yul\":3091:3142   */\n      tag_501\n        /* \"#utility.yul\":3134:3141   */\n      dup6\n        /* \"#utility.yul\":3125:3131   */\n      dup3\n        /* \"#utility.yul\":3114:3123   */\n      dup7\n        /* \"#utility.yul\":3110:3132   */\n      add\n        /* \"#utility.yul\":3091:3142   */\n      tag_392\n      jump\t// in\n    tag_501:\n        /* \"#utility.yul\":3081:3142   */\n      swap2\n      pop\n        /* \"#utility.yul\":3036:3152   */\n      pop\n        /* \"#utility.yul\":2689:3159   */\n      swap3\n      pop\n      swap3\n      swap1\n      pop\n      jump\t// out\n        /* \"#utility.yul\":3165:3283   */\n    tag_393:\n        /* \"#utility.yul\":3252:3276   */\n      tag_503\n        /* \"#utility.yul\":3270:3275   */\n      dup2\n        /* \"#utility.yul\":3252:3276   */\n      tag_385\n      jump\t// in\n    tag_503:\n        /* \"#utility.yul\":3247:3250   */\n      dup3\n        /* \"#utility.yul\":3240:3277   */\n      mstore\n        /* \"#utility.yul\":3165:3283   */\n      pop\n      pop\n      jump\t// out\n        /* \"#utility.yul\":3289:3511   */\n    tag_53:\n        /* \"#utility.yul\":3382:3386   */\n      0x00\n        /* \"#utility.yul\":3420:3422   */\n      0x20\n        /* \"#utility.yul\":3409:3418   */\n      dup3\n        /* \"#utility.yul\":3405:3423   */\n      add\n        /* \"#utility.yul\":3397:3423   */\n      swap1\n      pop\n        /* \"#utility.yul\":3433:3504   */\n      tag_505\n        /* \"#utility.yul\":3501:3502   */\n      0x00\n        /* \"#utility.yul\":3490:3499   */\n      dup4\n        /* \"#utility.yul\":3486:3503   */\n      add\n        /* \"#utility.yul\":3477:3483   */\n      dup5\n        /* \"#utility.yul\":3433:3504   */\n      tag_393\n      jump\t// in\n    tag_505:\n        /* \"#utility.yul\":3289:3511   */\n      swap3\n      swap2\n      pop\n      pop\n      jump\t// out\n        /* \"#utility.yul\":3517:3991   */\n    tag_63:\n        /* \"#utility.yul\":3585:3591   */\n      0x00\n        /* \"#utility.yul\":3593:3599   */\n      dup1\n        /* \"#utility.yul\":3642:3644   */\n      0x40\n        /* \"#utility.yul\":3630:3639   */\n      dup4\n        /* \"#utility.yul\":3621:3628   */\n      dup6\n        /* \"#utility.yul\":3617:3640   */\n      sub\n        /* \"#utility.yul\":3613:3645   */\n      slt\n        /* \"#utility.yul\":3610:3729   */\n      iszero\n      tag_507\n      jumpi\n        /* \"#utility.yul\":3648:3727   */\n      tag_508\n      tag_382\n      jump\t// in\n    tag_508:\n        /* \"#utility.yul\":3610:3729   */\n    tag_507:\n        /* \"#utility.yul\":3768:3769   */\n      0x00\n        /* \"#utility.yul\":3793:3846   */\n      tag_509\n        /* \"#utility.yul\":3838:3845   */\n      dup6\n        /* \"#utility.yul\":3829:3835   */\n      dup3\n        /* \"#utility.yul\":3818:3827   */\n      dup7\n        /* \"#utility.yul\":3814:3836   */\n      add\n        /* \"#utility.yul\":3793:3846   */\n      tag_389\n      jump\t// in\n    tag_509:\n        /* \"#utility.yul\":3783:3846   */\n      swap3\n      pop\n        /* \"#utility.yul\":3739:3856   */\n      pop\n        /* \"#utility.yul\":3895:3897   */\n      0x20\n        /* \"#utility.yul\":3921:3974   */\n      tag_510\n        /* \"#utility.yul\":3966:3973   */\n      dup6\n        /* \"#utility.yul\":3957:3963   */\n      dup3\n        /* \"#utility.yul\":3946:3955   */\n      dup7\n        /* \"#utility.yul\":3942:3964   */\n      add\n        /* \"#utility.yul\":3921:3974   */\n      tag_389\n      jump\t// in\n    tag_510:\n        /* \"#utility.yul\":3911:3974   */\n      swap2\n      pop\n        /* \"#utility.yul\":3866:3984   */\n      pop\n        /* \"#utility.yul\":3517:3991   */\n      swap3\n      pop\n      swap3\n      swap1\n      pop\n      jump\t// out\n        /* \"#utility.yul\":3997:4114   */\n    tag_394:\n        /* \"#utility.yul\":4106:4107   */\n      0x00\n        /* \"#utility.yul\":4103:4104   */\n      dup1\n        /* \"#utility.yul\":4096:4108   */\n      revert\n        /* \"#utility.yul\":4120:4222   */\n    tag_395:\n        /* \"#utility.yul\":4161:4167   */\n      0x00\n        /* \"#utility.yul\":4212:4214   */\n      0x1f\n        /* \"#utility.yul\":4208:4215   */\n      not\n        /* \"#utility.yul\":4203:4205   */\n      0x1f\n        /* \"#utility.yul\":4196:4201   */\n      dup4\n        /* \"#utility.yul\":4192:4206   */\n      add\n        /* \"#utility.yul\":4188:4216   */\n      and\n        /* \"#utility.yul\":4178:4216   */\n      swap1\n      pop\n        /* \"#utility.yul\":4120:4222   */\n      swap2\n      swap1\n      pop\n      jump\t// out\n        /* \"#utility.yul\":4228:4408   */\n    tag_222:\n        /* \"#utility.yul\":4276:4353   */\n      0x4e487b7100000000000000000000000000000000000000000000000000000000\n        /* \"#utility.yul\":4273:4274   */\n      0x00\n        /* \"#utility.yul\":4266:4354   */\n      mstore\n        /* \"#utility.yul\":4373:4377   */\n      0x41\n        /* \"#utility.yul\":4370:4371   */\n      0x04\n        /* \"#utility.yul\":4363:4378   */\n      mstore\n        /* \"#utility.yul\":4397:4401   */\n      0x24\n        /* \"#utility.yul\":4394:4395   */\n      0x00\n        /* \"#utility.yul\":4387:4402   */\n      revert\n        /* \"#utility.yul\":4414:4695   */\n    tag_396:\n        /* \"#utility.yul\":4497:4524   */\n      tag_515\n        /* \"#utility.yul\":4519:4523   */\n      dup3\n        /* \"#utility.yul\":4497:4524   */\n      tag_395\n      jump\t// in\n    tag_515:\n        /* \"#utility.yul\":4489:4495   */\n      dup2\n        /* \"#utility.yul\":4485:4525   */\n      add\n        /* \"#utility.yul\":4627:4633   */\n      dup2\n        /* \"#utility.yul\":4615:4625   */\n      dup2\n        /* \"#utility.yul\":4612:4634   */\n      lt\n        /* \"#utility.yul\":4591:4609   */\n      0xffffffffffffffff\n        /* \"#utility.yul\":4579:4589   */\n      dup3\n        /* \"#utility.yul\":4576:4610   */\n      gt\n        /* \"#utility.yul\":4573:4635   */\n      or\n        /* \"#utility.yul\":4570:4658   */\n      iszero\n      tag_516\n      jumpi\n        /* \"#utility.yul\":4638:4656   */\n      tag_517\n      tag_222\n      jump\t// in\n    tag_517:\n        /* \"#utility.yul\":4570:4658   */\n    tag_516:\n        /* \"#utility.yul\":4678:4688   */\n      dup1\n        /* \"#utility.yul\":4674:4676   */\n      0x40\n        /* \"#utility.yul\":4667:4689   */\n      mstore\n        /* \"#utility.yul\":4457:4695   */\n      pop\n        /* \"#utility.yul\":4414:4695   */\n      pop\n      pop\n      jump\t// out\n        /* \"#utility.yul\":4701:4830   */\n    tag_397:\n        /* \"#utility.yul\":4735:4741   */\n      0x00\n        /* \"#utility.yul\":4762:4782   */\n      tag_519\n      tag_381\n      jump\t// in\n    tag_519:\n        /* \"#utility.yul\":4752:4782   */\n      swap1\n      pop\n        /* \"#utility.yul\":4791:4824   */\n      tag_520\n        /* \"#utility.yul\":4819:4823   */\n      dup3\n        /* \"#utility.yul\":4811:4817   */\n      dup3\n        /* \"#utility.yul\":4791:4824   */\n      tag_396\n      jump\t// in\n    tag_520:\n        /* \"#utility.yul\":4701:4830   */\n      swap2\n      swap1\n      pop\n      jump\t// out\n        /* \"#utility.yul\":4836:5147   */\n    tag_398:\n        /* \"#utility.yul\":4913:4917   */\n      0x00\n        /* \"#utility.yul\":5003:5021   */\n      0xffffffffffffffff\n        /* \"#utility.yul\":4995:5001   */\n      dup3\n        /* \"#utility.yul\":4992:5022   */\n      gt\n        /* \"#utility.yul\":4989:5045   */\n      iszero\n      tag_522\n      jumpi\n        /* \"#utility.yul\":5025:5043   */\n      tag_523\n      tag_222\n      jump\t// in\n    tag_523:\n        /* \"#utility.yul\":4989:5045   */\n    tag_522:\n        /* \"#utility.yul\":5075:5079   */\n      0x20\n        /* \"#utility.yul\":5067:5073   */\n      dup3\n        /* \"#utility.yul\":5063:5080   */\n      mul\n        /* \"#utility.yul\":5055:5080   */\n      swap1\n      pop\n        /* \"#utility.yul\":5135:5139   */\n      0x20\n        /* \"#utility.yul\":5129:5133   */\n      dup2\n        /* \"#utility.yul\":5125:5140   */\n      add\n        /* \"#utility.yul\":5117:5140   */\n      swap1\n      pop\n        /* \"#utility.yul\":4836:5147   */\n      swap2\n      swap1\n      pop\n      jump\t// out\n        /* \"#utility.yul\":5153:5270   */\n    tag_399:\n        /* \"#utility.yul\":5262:5263   */\n      0x00\n        /* \"#utility.yul\":5259:5260   */\n      dup1\n        /* \"#utility.yul\":5252:5264   */\n      revert\n        /* \"#utility.yul\":5293:6003   */\n    tag_400:\n        /* \"#utility.yul\":5389:5394   */\n      0x00\n        /* \"#utility.yul\":5414:5495   */\n      tag_526\n        /* \"#utility.yul\":5430:5494   */\n      tag_527\n        /* \"#utility.yul\":5487:5493   */\n      dup5\n        /* \"#utility.yul\":5430:5494   */\n      tag_398\n      jump\t// in\n    tag_527:\n        /* \"#utility.yul\":5414:5495   */\n      tag_397\n      jump\t// in\n    tag_526:\n        /* \"#utility.yul\":5405:5495   */\n      swap1\n      pop\n        /* \"#utility.yul\":5515:5520   */\n      dup1\n        /* \"#utility.yul\":5544:5550   */\n      dup4\n        /* \"#utility.yul\":5537:5542   */\n      dup3\n        /* \"#utility.yul\":5530:5551   */\n      mstore\n        /* \"#utility.yul\":5578:5582   */\n      0x20\n        /* \"#utility.yul\":5571:5576   */\n      dup3\n        /* \"#utility.yul\":5567:5583   */\n      add\n        /* \"#utility.yul\":5560:5583   */\n      swap1\n      pop\n        /* \"#utility.yul\":5631:5635   */\n      0x20\n        /* \"#utility.yul\":5623:5629   */\n      dup5\n        /* \"#utility.yul\":5619:5636   */\n      mul\n        /* \"#utility.yul\":5611:5617   */\n      dup4\n        /* \"#utility.yul\":5607:5637   */\n      add\n        /* \"#utility.yul\":5660:5663   */\n      dup6\n        /* \"#utility.yul\":5652:5658   */\n      dup2\n        /* \"#utility.yul\":5649:5664   */\n      gt\n        /* \"#utility.yul\":5646:5768   */\n      iszero\n      tag_528\n      jumpi\n        /* \"#utility.yul\":5679:5758   */\n      tag_529\n      tag_399\n      jump\t// in\n    tag_529:\n        /* \"#utility.yul\":5646:5768   */\n    tag_528:\n        /* \"#utility.yul\":5794:5800   */\n      dup4\n        /* \"#utility.yul\":5777:5997   */\n    tag_530:\n        /* \"#utility.yul\":5811:5817   */\n      dup2\n        /* \"#utility.yul\":5806:5809   */\n      dup2\n        /* \"#utility.yul\":5803:5818   */\n      lt\n        /* \"#utility.yul\":5777:5997   */\n      iszero\n      tag_532\n      jumpi\n        /* \"#utility.yul\":5886:5889   */\n      dup1\n        /* \"#utility.yul\":5915:5952   */\n      tag_533\n        /* \"#utility.yul\":5948:5951   */\n      dup9\n        /* \"#utility.yul\":5936:5946   */\n      dup3\n        /* \"#utility.yul\":5915:5952   */\n      tag_387\n      jump\t// in\n    tag_533:\n        /* \"#utility.yul\":5910:5913   */\n      dup5\n        /* \"#utility.yul\":5903:5953   */\n      mstore\n        /* \"#utility.yul\":5982:5986   */\n      0x20\n        /* \"#utility.yul\":5977:5980   */\n      dup5\n        /* \"#utility.yul\":5973:5987   */\n      add\n        /* \"#utility.yul\":5966:5987   */\n      swap4\n      pop\n        /* \"#utility.yul\":5853:5997   */\n      pop\n        /* \"#utility.yul\":5837:5841   */\n      0x20\n        /* \"#utility.yul\":5832:5835   */\n      dup2\n        /* \"#utility.yul\":5828:5842   */\n      add\n        /* \"#utility.yul\":5821:5842   */\n      swap1\n      pop\n        /* \"#utility.yul\":5777:5997   */\n      jump(tag_530)\n    tag_532:\n        /* \"#utility.yul\":5781:5802   */\n      pop\n        /* \"#utility.yul\":5395:6003   */\n      pop\n      pop\n        /* \"#utility.yul\":5293:6003   */\n      swap4\n      swap3\n      pop\n      pop\n      pop\n      jump\t// out\n        /* \"#utility.yul\":6026:6396   */\n    tag_401:\n        /* \"#utility.yul\":6097:6102   */\n      0x00\n        /* \"#utility.yul\":6146:6149   */\n      dup3\n        /* \"#utility.yul\":6139:6143   */\n      0x1f\n        /* \"#utility.yul\":6131:6137   */\n      dup4\n        /* \"#utility.yul\":6127:6144   */\n      add\n        /* \"#utility.yul\":6123:6150   */\n      slt\n        /* \"#utility.yul\":6113:6235   */\n      tag_535\n      jumpi\n        /* \"#utility.yul\":6154:6233   */\n      tag_536\n      tag_394\n      jump\t// in\n    tag_536:\n        /* \"#utility.yul\":6113:6235   */\n    tag_535:\n        /* \"#utility.yul\":6271:6277   */\n      dup2\n        /* \"#utility.yul\":6258:6278   */\n      calldataload\n        /* \"#utility.yul\":6296:6390   */\n      tag_537\n        /* \"#utility.yul\":6386:6389   */\n      dup5\n        /* \"#utility.yul\":6378:6384   */\n      dup3\n        /* \"#utility.yul\":6371:6375   */\n      0x20\n        /* \"#utility.yul\":6363:6369   */\n      dup7\n        /* \"#utility.yul\":6359:6376   */\n      add\n        /* \"#utility.yul\":6296:6390   */\n      tag_400\n      jump\t// in\n    tag_537:\n        /* \"#utility.yul\":6287:6390   */\n      swap2\n      pop\n        /* \"#utility.yul\":6103:6396   */\n      pop\n        /* \"#utility.yul\":6026:6396   */\n      swap3\n      swap2\n      pop\n      pop\n      jump\t// out\n        /* \"#utility.yul\":6402:6723   */\n    tag_402:\n        /* \"#utility.yul\":6489:6493   */\n      0x00\n        /* \"#utility.yul\":6579:6597   */\n      0xffffffffffffffff\n        /* \"#utility.yul\":6571:6577   */\n      dup3\n        /* \"#utility.yul\":6568:6598   */\n      gt\n        /* \"#utility.yul\":6565:6621   */\n      iszero\n      tag_539\n      jumpi\n        /* \"#utility.yul\":6601:6619   */\n      tag_540\n      tag_222\n      jump\t// in\n    tag_540:\n        /* \"#utility.yul\":6565:6621   */\n    tag_539:\n        /* \"#utility.yul\":6651:6655   */\n      0x20\n        /* \"#utility.yul\":6643:6649   */\n      dup3\n        /* \"#utility.yul\":6639:6656   */\n      mul\n        /* \"#utility.yul\":6631:6656   */\n      swap1\n      pop\n        /* \"#utility.yul\":6711:6715   */\n      0x20\n        /* \"#utility.yul\":6705:6709   */\n      dup2\n        /* \"#utility.yul\":6701:6716   */\n      add\n        /* \"#utility.yul\":6693:6716   */\n      swap1\n      pop\n        /* \"#utility.yul\":6402:6723   */\n      swap2\n      swap1\n      pop\n      jump\t// out\n        /* \"#utility.yul\":6729:6846   */\n    tag_403:\n        /* \"#utility.yul\":6838:6839   */\n      0x00\n        /* \"#utility.yul\":6835:6836   */\n      dup1\n        /* \"#utility.yul\":6828:6840   */\n      revert\n        /* \"#utility.yul\":6852:7160   */\n    tag_404:\n        /* \"#utility.yul\":6914:6918   */\n      0x00\n        /* \"#utility.yul\":7004:7022   */\n      0xffffffffffffffff\n        /* \"#utility.yul\":6996:7002   */\n      dup3\n        /* \"#utility.yul\":6993:7023   */\n      gt\n        /* \"#utility.yul\":6990:7046   */\n      iszero\n      tag_543\n      jumpi\n        /* \"#utility.yul\":7026:7044   */\n      tag_544\n      tag_222\n      jump\t// in\n    tag_544:\n        /* \"#utility.yul\":6990:7046   */\n    tag_543:\n        /* \"#utility.yul\":7064:7093   */\n      tag_545\n        /* \"#utility.yul\":7086:7092   */\n      dup3\n        /* \"#utility.yul\":7064:7093   */\n      tag_395\n      jump\t// in\n    tag_545:\n        /* \"#utility.yul\":7056:7093   */\n      swap1\n      pop\n        /* \"#utility.yul\":7148:7152   */\n      0x20\n        /* \"#utility.yul\":7142:7146   */\n      dup2\n        /* \"#utility.yul\":7138:7153   */\n      add\n        /* \"#utility.yul\":7130:7153   */\n      swap1\n      pop\n        /* \"#utility.yul\":6852:7160   */\n      swap2\n      swap1\n      pop\n      jump\t// out\n        /* \"#utility.yul\":7166:7312   */\n    tag_405:\n        /* \"#utility.yul\":7263:7269   */\n      dup3\n        /* \"#utility.yul\":7258:7261   */\n      dup2\n        /* \"#utility.yul\":7253:7256   */\n      dup4\n        /* \"#utility.yul\":7240:7270   */\n      calldatacopy\n        /* \"#utility.yul\":7304:7305   */\n      0x00\n        /* \"#utility.yul\":7295:7301   */\n      dup4\n        /* \"#utility.yul\":7290:7293   */\n      dup4\n        /* \"#utility.yul\":7286:7302   */\n      add\n        /* \"#utility.yul\":7279:7306   */\n      mstore\n        /* \"#utility.yul\":7166:7312   */\n      pop\n      pop\n      pop\n      jump\t// out\n        /* \"#utility.yul\":7318:7743   */\n    tag_406:\n        /* \"#utility.yul\":7396:7401   */\n      0x00\n        /* \"#utility.yul\":7421:7487   */\n      tag_548\n        /* \"#utility.yul\":7437:7486   */\n      tag_549\n        /* \"#utility.yul\":7479:7485   */\n      dup5\n        /* \"#utility.yul\":7437:7486   */\n      tag_404\n      jump\t// in\n    tag_549:\n        /* \"#utility.yul\":7421:7487   */\n      tag_397\n      jump\t// in\n    tag_548:\n        /* \"#utility.yul\":7412:7487   */\n      swap1\n      pop\n        /* \"#utility.yul\":7510:7516   */\n      dup3\n        /* \"#utility.yul\":7503:7508   */\n      dup2\n        /* \"#utility.yul\":7496:7517   */\n      mstore\n        /* \"#utility.yul\":7548:7552   */\n      0x20\n        /* \"#utility.yul\":7541:7546   */\n      dup2\n        /* \"#utility.yul\":7537:7553   */\n      add\n        /* \"#utility.yul\":7586:7589   */\n      dup5\n        /* \"#utility.yul\":7577:7583   */\n      dup5\n        /* \"#utility.yul\":7572:7575   */\n      dup5\n        /* \"#utility.yul\":7568:7584   */\n      add\n        /* \"#utility.yul\":7565:7590   */\n      gt\n        /* \"#utility.yul\":7562:7674   */\n      iszero\n      tag_550\n      jumpi\n        /* \"#utility.yul\":7593:7672   */\n      tag_551\n      tag_403\n      jump\t// in\n    tag_551:\n        /* \"#utility.yul\":7562:7674   */\n    tag_550:\n        /* \"#utility.yul\":7683:7737   */\n      tag_552\n        /* \"#utility.yul\":7730:7736   */\n      dup5\n        /* \"#utility.yul\":7725:7728   */\n      dup3\n        /* \"#utility.yul\":7720:7723   */\n      dup6\n        /* \"#utility.yul\":7683:7737   */\n      tag_405\n      jump\t// in\n    tag_552:\n        /* \"#utility.yul\":7402:7743   */\n      pop\n        /* \"#utility.yul\":7318:7743   */\n      swap4\n      swap3\n      pop\n      pop\n      pop\n      jump\t// out\n        /* \"#utility.yul\":7763:8103   */\n    tag_407:\n        /* \"#utility.yul\":7819:7824   */\n      0x00\n        /* \"#utility.yul\":7868:7871   */\n      dup3\n        /* \"#utility.yul\":7861:7865   */\n      0x1f\n        /* \"#utility.yul\":7853:7859   */\n      dup4\n        /* \"#utility.yul\":7849:7866   */\n      add\n        /* \"#utility.yul\":7845:7872   */\n      slt\n        /* \"#utility.yul\":7835:7957   */\n      tag_554\n      jumpi\n        /* \"#utility.yul\":7876:7955   */\n      tag_555\n      tag_394\n      jump\t// in\n    tag_555:\n        /* \"#utility.yul\":7835:7957   */\n    tag_554:\n        /* \"#utility.yul\":7993:7999   */\n      dup2\n        /* \"#utility.yul\":7980:8000   */\n      calldataload\n        /* \"#utility.yul\":8018:8097   */\n      tag_556\n        /* \"#utility.yul\":8093:8096   */\n      dup5\n        /* \"#utility.yul\":8085:8091   */\n      dup3\n        /* \"#utility.yul\":8078:8082   */\n      0x20\n        /* \"#utility.yul\":8070:8076   */\n      dup7\n        /* \"#utility.yul\":8066:8083   */\n      add\n        /* \"#utility.yul\":8018:8097   */\n      tag_406\n      jump\t// in\n    tag_556:\n        /* \"#utility.yul\":8009:8097   */\n      swap2\n      pop\n        /* \"#utility.yul\":7825:8103   */\n      pop\n        /* \"#utility.yul\":7763:8103   */\n      swap3\n      swap2\n      pop\n      pop\n      jump\t// out\n        /* \"#utility.yul\":8125:9070   */\n    tag_408:\n        /* \"#utility.yul\":8231:8236   */\n      0x00\n        /* \"#utility.yul\":8256:8347   */\n      tag_558\n        /* \"#utility.yul\":8272:8346   */\n      tag_559\n        /* \"#utility.yul\":8339:8345   */\n      dup5\n        /* \"#utility.yul\":8272:8346   */\n      tag_402\n      jump\t// in\n    tag_559:\n        /* \"#utility.yul\":8256:8347   */\n      tag_397\n      jump\t// in\n    tag_558:\n        /* \"#utility.yul\":8247:8347   */\n      swap1\n      pop\n        /* \"#utility.yul\":8367:8372   */\n      dup1\n        /* \"#utility.yul\":8396:8402   */\n      dup4\n        /* \"#utility.yul\":8389:8394   */\n      dup3\n        /* \"#utility.yul\":8382:8403   */\n      mstore\n        /* \"#utility.yul\":8430:8434   */\n      0x20\n        /* \"#utility.yul\":8423:8428   */\n      dup3\n        /* \"#utility.yul\":8419:8435   */\n      add\n        /* \"#utility.yul\":8412:8435   */\n      swap1\n      pop\n        /* \"#utility.yul\":8483:8487   */\n      0x20\n        /* \"#utility.yul\":8475:8481   */\n      dup5\n        /* \"#utility.yul\":8471:8488   */\n      mul\n        /* \"#utility.yul\":8463:8469   */\n      dup4\n        /* \"#utility.yul\":8459:8489   */\n      add\n        /* \"#utility.yul\":8512:8515   */\n      dup6\n        /* \"#utility.yul\":8504:8510   */\n      dup2\n        /* \"#utility.yul\":8501:8516   */\n      gt\n        /* \"#utility.yul\":8498:8620   */\n      iszero\n      tag_560\n      jumpi\n        /* \"#utility.yul\":8531:8610   */\n      tag_561\n      tag_399\n      jump\t// in\n    tag_561:\n        /* \"#utility.yul\":8498:8620   */\n    tag_560:\n        /* \"#utility.yul\":8646:8652   */\n      dup4\n        /* \"#utility.yul\":8629:9064   */\n    tag_562:\n        /* \"#utility.yul\":8663:8669   */\n      dup2\n        /* \"#utility.yul\":8658:8661   */\n      dup2\n        /* \"#utility.yul\":8655:8670   */\n      lt\n        /* \"#utility.yul\":8629:9064   */\n      iszero\n      tag_564\n      jumpi\n        /* \"#utility.yul\":8752:8755   */\n      dup1\n        /* \"#utility.yul\":8739:8756   */\n      calldataload\n        /* \"#utility.yul\":8788:8806   */\n      0xffffffffffffffff\n        /* \"#utility.yul\":8775:8786   */\n      dup2\n        /* \"#utility.yul\":8772:8807   */\n      gt\n        /* \"#utility.yul\":8769:8891   */\n      iszero\n      tag_565\n      jumpi\n        /* \"#utility.yul\":8810:8889   */\n      tag_566\n      tag_394\n      jump\t// in\n    tag_566:\n        /* \"#utility.yul\":8769:8891   */\n    tag_565:\n        /* \"#utility.yul\":8934:8945   */\n      dup1\n        /* \"#utility.yul\":8926:8932   */\n      dup7\n        /* \"#utility.yul\":8922:8946   */\n      add\n        /* \"#utility.yul\":8972:9019   */\n      tag_567\n        /* \"#utility.yul\":9015:9018   */\n      dup10\n        /* \"#utility.yul\":9003:9013   */\n      dup3\n        /* \"#utility.yul\":8972:9019   */\n      tag_407\n      jump\t// in\n    tag_567:\n        /* \"#utility.yul\":8967:8970   */\n      dup6\n        /* \"#utility.yul\":8960:9020   */\n      mstore\n        /* \"#utility.yul\":9049:9053   */\n      0x20\n        /* \"#utility.yul\":9044:9047   */\n      dup6\n        /* \"#utility.yul\":9040:9054   */\n      add\n        /* \"#utility.yul\":9033:9054   */\n      swap5\n      pop\n        /* \"#utility.yul\":8705:9064   */\n      pop\n      pop\n        /* \"#utility.yul\":8689:8693   */\n      0x20\n        /* \"#utility.yul\":8684:8687   */\n      dup2\n        /* \"#utility.yul\":8680:8694   */\n      add\n        /* \"#utility.yul\":8673:8694   */\n      swap1\n      pop\n        /* \"#utility.yul\":8629:9064   */\n      jump(tag_562)\n    tag_564:\n        /* \"#utility.yul\":8633:8654   */\n      pop\n        /* \"#utility.yul\":8237:9070   */\n      pop\n      pop\n        /* \"#utility.yul\":8125:9070   */\n      swap4\n      swap3\n      pop\n      pop\n      pop\n      jump\t// out\n        /* \"#utility.yul\":9092:9482   */\n    tag_409:\n        /* \"#utility.yul\":9173:9178   */\n      0x00\n        /* \"#utility.yul\":9222:9225   */\n      dup3\n        /* \"#utility.yul\":9215:9219   */\n      0x1f\n        /* \"#utility.yul\":9207:9213   */\n      dup4\n        /* \"#utility.yul\":9203:9220   */\n      add\n        /* \"#utility.yul\":9199:9226   */\n      slt\n        /* \"#utility.yul\":9189:9311   */\n      tag_569\n      jumpi\n        /* \"#utility.yul\":9230:9309   */\n      tag_570\n      tag_394\n      jump\t// in\n    tag_570:\n        /* \"#utility.yul\":9189:9311   */\n    tag_569:\n        /* \"#utility.yul\":9347:9353   */\n      dup2\n        /* \"#utility.yul\":9334:9354   */\n      calldataload\n        /* \"#utility.yul\":9372:9476   */\n      tag_571\n        /* \"#utility.yul\":9472:9475   */\n      dup5\n        /* \"#utility.yul\":9464:9470   */\n      dup3\n        /* \"#utility.yul\":9457:9461   */\n      0x20\n        /* \"#utility.yul\":9449:9455   */\n      dup7\n        /* \"#utility.yul\":9445:9462   */\n      add\n        /* \"#utility.yul\":9372:9476   */\n      tag_408\n      jump\t// in\n    tag_571:\n        /* \"#utility.yul\":9363:9476   */\n      swap2\n      pop\n        /* \"#utility.yul\":9179:9482   */\n      pop\n        /* \"#utility.yul\":9092:9482   */\n      swap3\n      swap2\n      pop\n      pop\n      jump\t// out\n        /* \"#utility.yul\":9488:11783   */\n    tag_71:\n        /* \"#utility.yul\":9699:9705   */\n      0x00\n        /* \"#utility.yul\":9707:9713   */\n      dup1\n        /* \"#utility.yul\":9715:9721   */\n      0x00\n        /* \"#utility.yul\":9723:9729   */\n      dup1\n        /* \"#utility.yul\":9731:9737   */\n      0x00\n        /* \"#utility.yul\":9739:9745   */\n      dup1\n        /* \"#utility.yul\":9747:9753   */\n      0x00\n        /* \"#utility.yul\":9755:9761   */\n      dup1\n        /* \"#utility.yul\":9763:9769   */\n      0x00\n        /* \"#utility.yul\":9812:9815   */\n      0x0120\n        /* \"#utility.yul\":9800:9809   */\n      dup11\n        /* \"#utility.yul\":9791:9798   */\n      dup13\n        /* \"#utility.yul\":9787:9810   */\n      sub\n        /* \"#utility.yul\":9783:9816   */\n      slt\n        /* \"#utility.yul\":9780:9900   */\n      iszero\n      tag_573\n      jumpi\n        /* \"#utility.yul\":9819:9898   */\n      tag_574\n      tag_382\n      jump\t// in\n    tag_574:\n        /* \"#utility.yul\":9780:9900   */\n    tag_573:\n        /* \"#utility.yul\":9967:9968   */\n      0x00\n        /* \"#utility.yul\":9956:9965   */\n      dup11\n        /* \"#utility.yul\":9952:9969   */\n      add\n        /* \"#utility.yul\":9939:9970   */\n      calldataload\n        /* \"#utility.yul\":9997:10015   */\n      0xffffffffffffffff\n        /* \"#utility.yul\":9989:9995   */\n      dup2\n        /* \"#utility.yul\":9986:10016   */\n      gt\n        /* \"#utility.yul\":9983:10100   */\n      iszero\n      tag_575\n      jumpi\n        /* \"#utility.yul\":10019:10098   */\n      tag_576\n      tag_383\n      jump\t// in\n    tag_576:\n        /* \"#utility.yul\":9983:10100   */\n    tag_575:\n        /* \"#utility.yul\":10124:10202   */\n      tag_577\n        /* \"#utility.yul\":10194:10201   */\n      dup13\n        /* \"#utility.yul\":10185:10191   */\n      dup3\n        /* \"#utility.yul\":10174:10183   */\n      dup14\n        /* \"#utility.yul\":10170:10192   */\n      add\n        /* \"#utility.yul\":10124:10202   */\n      tag_401\n      jump\t// in\n    tag_577:\n        /* \"#utility.yul\":10114:10202   */\n      swap10\n      pop\n        /* \"#utility.yul\":9910:10212   */\n      pop\n        /* \"#utility.yul\":10279:10281   */\n      0x20\n        /* \"#utility.yul\":10268:10277   */\n      dup11\n        /* \"#utility.yul\":10264:10282   */\n      add\n        /* \"#utility.yul\":10251:10283   */\n      calldataload\n        /* \"#utility.yul\":10310:10328   */\n      0xffffffffffffffff\n        /* \"#utility.yul\":10302:10308   */\n      dup2\n        /* \"#utility.yul\":10299:10329   */\n      gt\n        /* \"#utility.yul\":10296:10413   */\n      iszero\n      tag_578\n      jumpi\n        /* \"#utility.yul\":10332:10411   */\n      tag_579\n      tag_383\n      jump\t// in\n    tag_579:\n        /* \"#utility.yul\":10296:10413   */\n    tag_578:\n        /* \"#utility.yul\":10437:10525   */\n      tag_580\n        /* \"#utility.yul\":10517:10524   */\n      dup13\n        /* \"#utility.yul\":10508:10514   */\n      dup3\n        /* \"#utility.yul\":10497:10506   */\n      dup14\n        /* \"#utility.yul\":10493:10515   */\n      add\n        /* \"#utility.yul\":10437:10525   */\n      tag_409\n      jump\t// in\n    tag_580:\n        /* \"#utility.yul\":10427:10525   */\n      swap9\n      pop\n        /* \"#utility.yul\":10222:10535   */\n      pop\n        /* \"#utility.yul\":10602:10604   */\n      0x40\n        /* \"#utility.yul\":10591:10600   */\n      dup11\n        /* \"#utility.yul\":10587:10605   */\n      add\n        /* \"#utility.yul\":10574:10606   */\n      calldataload\n        /* \"#utility.yul\":10633:10651   */\n      0xffffffffffffffff\n        /* \"#utility.yul\":10625:10631   */\n      dup2\n        /* \"#utility.yul\":10622:10652   */\n      gt\n        /* \"#utility.yul\":10619:10736   */\n      iszero\n      tag_581\n      jumpi\n        /* \"#utility.yul\":10655:10734   */\n      tag_582\n      tag_383\n      jump\t// in\n    tag_582:\n        /* \"#utility.yul\":10619:10736   */\n    tag_581:\n        /* \"#utility.yul\":10760:10823   */\n      tag_583\n        /* \"#utility.yul\":10815:10822   */\n      dup13\n        /* \"#utility.yul\":10806:10812   */\n      dup3\n        /* \"#utility.yul\":10795:10804   */\n      dup14\n        /* \"#utility.yul\":10791:10813   */\n      add\n        /* \"#utility.yul\":10760:10823   */\n      tag_407\n      jump\t// in\n    tag_583:\n        /* \"#utility.yul\":10750:10823   */\n      swap8\n      pop\n        /* \"#utility.yul\":10545:10833   */\n      pop\n        /* \"#utility.yul\":10900:10902   */\n      0x60\n        /* \"#utility.yul\":10889:10898   */\n      dup11\n        /* \"#utility.yul\":10885:10903   */\n      add\n        /* \"#utility.yul\":10872:10904   */\n      calldataload\n        /* \"#utility.yul\":10931:10949   */\n      0xffffffffffffffff\n        /* \"#utility.yul\":10923:10929   */\n      dup2\n        /* \"#utility.yul\":10920:10950   */\n      gt\n        /* \"#utility.yul\":10917:11034   */\n      iszero\n      tag_584\n      jumpi\n        /* \"#utility.yul\":10953:11032   */\n      tag_585\n      tag_383\n      jump\t// in\n    tag_585:\n        /* \"#utility.yul\":10917:11034   */\n    tag_584:\n        /* \"#utility.yul\":11058:11121   */\n      tag_586\n        /* \"#utility.yul\":11113:11120   */\n      dup13\n        /* \"#utility.yul\":11104:11110   */\n      dup3\n        /* \"#utility.yul\":11093:11102   */\n      dup14\n        /* \"#utility.yul\":11089:11111   */\n      add\n        /* \"#utility.yul\":11058:11121   */\n      tag_407\n      jump\t// in\n    tag_586:\n        /* \"#utility.yul\":11048:11121   */\n      swap7\n      pop\n        /* \"#utility.yul\":10843:11131   */\n      pop\n        /* \"#utility.yul\":11170:11173   */\n      0x80\n        /* \"#utility.yul\":11197:11250   */\n      tag_587\n        /* \"#utility.yul\":11242:11249   */\n      dup13\n        /* \"#utility.yul\":11233:11239   */\n      dup3\n        /* \"#utility.yul\":11222:11231   */\n      dup14\n        /* \"#utility.yul\":11218:11240   */\n      add\n        /* \"#utility.yul\":11197:11250   */\n      tag_389\n      jump\t// in\n    tag_587:\n        /* \"#utility.yul\":11187:11250   */\n      swap6\n      pop\n        /* \"#utility.yul\":11141:11260   */\n      pop\n        /* \"#utility.yul\":11299:11302   */\n      0xa0\n        /* \"#utility.yul\":11326:11379   */\n      tag_588\n        /* \"#utility.yul\":11371:11378   */\n      dup13\n        /* \"#utility.yul\":11362:11368   */\n      dup3\n        /* \"#utility.yul\":11351:11360   */\n      dup14\n        /* \"#utility.yul\":11347:11369   */\n      add\n        /* \"#utility.yul\":11326:11379   */\n      tag_389\n      jump\t// in\n    tag_588:\n        /* \"#utility.yul\":11316:11379   */\n      swap5\n      pop\n        /* \"#utility.yul\":11270:11389   */\n      pop\n        /* \"#utility.yul\":11428:11431   */\n      0xc0\n        /* \"#utility.yul\":11455:11508   */\n      tag_589\n        /* \"#utility.yul\":11500:11507   */\n      dup13\n        /* \"#utility.yul\":11491:11497   */\n      dup3\n        /* \"#utility.yul\":11480:11489   */\n      dup14\n        /* \"#utility.yul\":11476:11498   */\n      add\n        /* \"#utility.yul\":11455:11508   */\n      tag_389\n      jump\t// in\n    tag_589:\n        /* \"#utility.yul\":11445:11508   */\n      swap4\n      pop\n        /* \"#utility.yul\":11399:11518   */\n      pop\n        /* \"#utility.yul\":11557:11560   */\n      0xe0\n        /* \"#utility.yul\":11584:11637   */\n      tag_590\n        /* \"#utility.yul\":11629:11636   */\n      dup13\n        /* \"#utility.yul\":11620:11626   */\n      dup3\n        /* \"#utility.yul\":11609:11618   */\n      dup14\n        /* \"#utility.yul\":11605:11627   */\n      add\n        /* \"#utility.yul\":11584:11637   */\n      tag_389\n      jump\t// in\n    tag_590:\n        /* \"#utility.yul\":11574:11637   */\n      swap3\n      pop\n        /* \"#utility.yul\":11528:11647   */\n      pop\n        /* \"#utility.yul\":11686:11689   */\n      0x0100\n        /* \"#utility.yul\":11713:11766   */\n      tag_591\n        /* \"#utility.yul\":11758:11765   */\n      dup13\n        /* \"#utility.yul\":11749:11755   */\n      dup3\n        /* \"#utility.yul\":11738:11747   */\n      dup14\n        /* \"#utility.yul\":11734:11756   */\n      add\n        /* \"#utility.yul\":11713:11766   */\n      tag_387\n      jump\t// in\n    tag_591:\n        /* \"#utility.yul\":11703:11766   */\n      swap2\n      pop\n        /* \"#utility.yul\":11657:11776   */\n      pop\n        /* \"#utility.yul\":9488:11783   */\n      swap3\n      swap6\n      swap9\n      pop\n      swap3\n      swap6\n      swap9\n      pop\n      swap3\n      swap6\n      swap9\n      jump\t// out\n        /* \"#utility.yul\":11789:11903   */\n    tag_410:\n        /* \"#utility.yul\":11856:11862   */\n      0x00\n        /* \"#utility.yul\":11890:11895   */\n      dup2\n        /* \"#utility.yul\":11884:11896   */\n      mload\n        /* \"#utility.yul\":11874:11896   */\n      swap1\n      pop\n        /* \"#utility.yul\":11789:11903   */\n      swap2\n      swap1\n      pop\n      jump\t// out\n        /* \"#utility.yul\":11909:12093   */\n    tag_411:\n        /* \"#utility.yul\":12008:12019   */\n      0x00\n        /* \"#utility.yul\":12042:12048   */\n      dup3\n        /* \"#utility.yul\":12037:12040   */\n      dup3\n        /* \"#utility.yul\":12030:12049   */\n      mstore\n        /* \"#utility.yul\":12082:12086   */\n      0x20\n        /* \"#utility.yul\":12077:12080   */\n      dup3\n        /* \"#utility.yul\":12073:12087   */\n      add\n        /* \"#utility.yul\":12058:12087   */\n      swap1\n      pop\n        /* \"#utility.yul\":11909:12093   */\n      swap3\n      swap2\n      pop\n      pop\n      jump\t// out\n        /* \"#utility.yul\":12099:12231   */\n    tag_412:\n        /* \"#utility.yul\":12166:12170   */\n      0x00\n        /* \"#utility.yul\":12189:12192   */\n      dup2\n        /* \"#utility.yul\":12181:12192   */\n      swap1\n      pop\n        /* \"#utility.yul\":12219:12223   */\n      0x20\n        /* \"#utility.yul\":12214:12217   */\n      dup3\n        /* \"#utility.yul\":12210:12224   */\n      add\n        /* \"#utility.yul\":12202:12224   */\n      swap1\n      pop\n        /* \"#utility.yul\":12099:12231   */\n      swap2\n      swap1\n      pop\n      jump\t// out\n        /* \"#utility.yul\":12237:12345   */\n    tag_413:\n        /* \"#utility.yul\":12314:12338   */\n      tag_596\n        /* \"#utility.yul\":12332:12337   */\n      dup2\n        /* \"#utility.yul\":12314:12338   */\n      tag_385\n      jump\t// in\n    tag_596:\n        /* \"#utility.yul\":12309:12312   */\n      dup3\n        /* \"#utility.yul\":12302:12339   */\n      mstore\n        /* \"#utility.yul\":12237:12345   */\n      pop\n      pop\n      jump\t// out\n        /* \"#utility.yul\":12351:12530   */\n    tag_414:\n        /* \"#utility.yul\":12420:12430   */\n      0x00\n        /* \"#utility.yul\":12441:12487   */\n      tag_598\n        /* \"#utility.yul\":12483:12486   */\n      dup4\n        /* \"#utility.yul\":12475:12481   */\n      dup4\n        /* \"#utility.yul\":12441:12487   */\n      tag_413\n      jump\t// in\n    tag_598:\n        /* \"#utility.yul\":12519:12523   */\n      0x20\n        /* \"#utility.yul\":12514:12517   */\n      dup4\n        /* \"#utility.yul\":12510:12524   */\n      add\n        /* \"#utility.yul\":12496:12524   */\n      swap1\n      pop\n        /* \"#utility.yul\":12351:12530   */\n      swap3\n      swap2\n      pop\n      pop\n      jump\t// out\n        /* \"#utility.yul\":12536:12649   */\n    tag_415:\n        /* \"#utility.yul\":12606:12610   */\n      0x00\n        /* \"#utility.yul\":12638:12642   */\n      0x20\n        /* \"#utility.yul\":12633:12636   */\n      dup3\n        /* \"#utility.yul\":12629:12643   */\n      add\n        /* \"#utility.yul\":12621:12643   */\n      swap1\n      pop\n        /* \"#utility.yul\":12536:12649   */\n      swap2\n      swap1\n      pop\n      jump\t// out\n        /* \"#utility.yul\":12685:13417   */\n    tag_416:\n        /* \"#utility.yul\":12804:12807   */\n      0x00\n        /* \"#utility.yul\":12833:12887   */\n      tag_601\n        /* \"#utility.yul\":12881:12886   */\n      dup3\n        /* \"#utility.yul\":12833:12887   */\n      tag_410\n      jump\t// in\n    tag_601:\n        /* \"#utility.yul\":12903:12989   */\n      tag_602\n        /* \"#utility.yul\":12982:12988   */\n      dup2\n        /* \"#utility.yul\":12977:12980   */\n      dup6\n        /* \"#utility.yul\":12903:12989   */\n      tag_411\n      jump\t// in\n    tag_602:\n        /* \"#utility.yul\":12896:12989   */\n      swap4\n      pop\n        /* \"#utility.yul\":13013:13069   */\n      tag_603\n        /* \"#utility.yul\":13063:13068   */\n      dup4\n        /* \"#utility.yul\":13013:13069   */\n      tag_412\n      jump\t// in\n    tag_603:\n        /* \"#utility.yul\":13092:13099   */\n      dup1\n        /* \"#utility.yul\":13123:13124   */\n      0x00\n        /* \"#utility.yul\":13108:13392   */\n    tag_604:\n        /* \"#utility.yul\":13133:13139   */\n      dup4\n        /* \"#utility.yul\":13130:13131   */\n      dup2\n        /* \"#utility.yul\":13127:13140   */\n      lt\n        /* \"#utility.yul\":13108:13392   */\n      iszero\n      tag_606\n      jumpi\n        /* \"#utility.yul\":13209:13215   */\n      dup2\n        /* \"#utility.yul\":13203:13216   */\n      mload\n        /* \"#utility.yul\":13236:13299   */\n      tag_607\n        /* \"#utility.yul\":13295:13298   */\n      dup9\n        /* \"#utility.yul\":13280:13293   */\n      dup3\n        /* \"#utility.yul\":13236:13299   */\n      tag_414\n      jump\t// in\n    tag_607:\n        /* \"#utility.yul\":13229:13299   */\n      swap8\n      pop\n        /* \"#utility.yul\":13322:13382   */\n      tag_608\n        /* \"#utility.yul\":13375:13381   */\n      dup4\n        /* \"#utility.yul\":13322:13382   */\n      tag_415\n      jump\t// in\n    tag_608:\n        /* \"#utility.yul\":13312:13382   */\n      swap3\n      pop\n        /* \"#utility.yul\":13168:13392   */\n      pop\n        /* \"#utility.yul\":13155:13156   */\n      0x01\n        /* \"#utility.yul\":13152:13153   */\n      dup2\n        /* \"#utility.yul\":13148:13157   */\n      add\n        /* \"#utility.yul\":13143:13157   */\n      swap1\n      pop\n        /* \"#utility.yul\":13108:13392   */\n      jump(tag_604)\n    tag_606:\n        /* \"#utility.yul\":13112:13126   */\n      pop\n        /* \"#utility.yul\":13408:13411   */\n      dup6\n        /* \"#utility.yul\":13401:13411   */\n      swap4\n      pop\n        /* \"#utility.yul\":12809:13417   */\n      pop\n      pop\n      pop\n        /* \"#utility.yul\":12685:13417   */\n      swap3\n      swap2\n      pop\n      pop\n      jump\t// out\n        /* \"#utility.yul\":13423:13796   */\n    tag_77:\n        /* \"#utility.yul\":13566:13570   */\n      0x00\n        /* \"#utility.yul\":13604:13606   */\n      0x20\n        /* \"#utility.yul\":13593:13602   */\n      dup3\n        /* \"#utility.yul\":13589:13607   */\n      add\n        /* \"#utility.yul\":13581:13607   */\n      swap1\n      pop\n        /* \"#utility.yul\":13653:13662   */\n      dup2\n        /* \"#utility.yul\":13647:13651   */\n      dup2\n        /* \"#utility.yul\":13643:13663   */\n      sub\n        /* \"#utility.yul\":13639:13640   */\n      0x00\n        /* \"#utility.yul\":13628:13637   */\n      dup4\n        /* \"#utility.yul\":13624:13641   */\n      add\n        /* \"#utility.yul\":13617:13664   */\n      mstore\n        /* \"#utility.yul\":13681:13789   */\n      tag_610\n        /* \"#utility.yul\":13784:13788   */\n      dup2\n        /* \"#utility.yul\":13775:13781   */\n      dup5\n        /* \"#utility.yul\":13681:13789   */\n      tag_416\n      jump\t// in\n    tag_610:\n        /* \"#utility.yul\":13673:13789   */\n      swap1\n      pop\n        /* \"#utility.yul\":13423:13796   */\n      swap3\n      swap2\n      pop\n      pop\n      jump\t// out\n        /* \"#utility.yul\":13802:14134   */\n    tag_82:\n        /* \"#utility.yul\":13923:13927   */\n      0x00\n        /* \"#utility.yul\":13961:13963   */\n      0x40\n        /* \"#utility.yul\":13950:13959   */\n      dup3\n        /* \"#utility.yul\":13946:13964   */\n      add\n        /* \"#utility.yul\":13938:13964   */\n      swap1\n      pop\n        /* \"#utility.yul\":13974:14045   */\n      tag_612\n        /* \"#utility.yul\":14042:14043   */\n      0x00\n        /* \"#utility.yul\":14031:14040   */\n      dup4\n        /* \"#utility.yul\":14027:14044   */\n      add\n        /* \"#utility.yul\":14018:14024   */\n      dup6\n        /* \"#utility.yul\":13974:14045   */\n      tag_380\n      jump\t// in\n    tag_612:\n        /* \"#utility.yul\":14055:14127   */\n      tag_613\n        /* \"#utility.yul\":14123:14125   */\n      0x20\n        /* \"#utility.yul\":14112:14121   */\n      dup4\n        /* \"#utility.yul\":14108:14126   */\n      add\n        /* \"#utility.yul\":14099:14105   */\n      dup5\n        /* \"#utility.yul\":14055:14127   */\n      tag_380\n      jump\t// in\n    tag_613:\n        /* \"#utility.yul\":13802:14134   */\n      swap4\n      swap3\n      pop\n      pop\n      pop\n      jump\t// out\n        /* \"#utility.yul\":14140:14230   */\n    tag_417:\n        /* \"#utility.yul\":14174:14181   */\n      0x00\n        /* \"#utility.yul\":14217:14222   */\n      dup2\n        /* \"#utility.yul\":14210:14223   */\n      iszero\n        /* \"#utility.yul\":14203:14224   */\n      iszero\n        /* \"#utility.yul\":14192:14224   */\n      swap1\n      pop\n        /* \"#utility.yul\":14140:14230   */\n      swap2\n      swap1\n      pop\n      jump\t// out\n        /* \"#utility.yul\":14236:14345   */\n    tag_418:\n        /* \"#utility.yul\":14317:14338   */\n      tag_616\n        /* \"#utility.yul\":14332:14337   */\n      dup2\n        /* \"#utility.yul\":14317:14338   */\n      tag_417\n      jump\t// in\n    tag_616:\n        /* \"#utility.yul\":14312:14315   */\n      dup3\n        /* \"#utility.yul\":14305:14339   */\n      mstore\n        /* \"#utility.yul\":14236:14345   */\n      pop\n      pop\n      jump\t// out\n        /* \"#utility.yul\":14351:14561   */\n    tag_92:\n        /* \"#utility.yul\":14438:14442   */\n      0x00\n        /* \"#utility.yul\":14476:14478   */\n      0x20\n        /* \"#utility.yul\":14465:14474   */\n      dup3\n        /* \"#utility.yul\":14461:14479   */\n      add\n        /* \"#utility.yul\":14453:14479   */\n      swap1\n      pop\n        /* \"#utility.yul\":14489:14554   */\n      tag_618\n        /* \"#utility.yul\":14551:14552   */\n      0x00\n        /* \"#utility.yul\":14540:14549   */\n      dup4\n        /* \"#utility.yul\":14536:14553   */\n      add\n        /* \"#utility.yul\":14527:14533   */\n      dup5\n        /* \"#utility.yul\":14489:14554   */\n      tag_418\n      jump\t// in\n    tag_618:\n        /* \"#utility.yul\":14351:14561   */\n      swap3\n      swap2\n      pop\n      pop\n      jump\t// out\n        /* \"#utility.yul\":14567:15041   */\n    tag_108:\n        /* \"#utility.yul\":14635:14641   */\n      0x00\n        /* \"#utility.yul\":14643:14649   */\n      dup1\n        /* \"#utility.yul\":14692:14694   */\n      0x40\n        /* \"#utility.yul\":14680:14689   */\n      dup4\n        /* \"#utility.yul\":14671:14678   */\n      dup6\n        /* \"#utility.yul\":14667:14690   */\n      sub\n        /* \"#utility.yul\":14663:14695   */\n      slt\n        /* \"#utility.yul\":14660:14779   */\n      iszero\n      tag_620\n      jumpi\n        /* \"#utility.yul\":14698:14777   */\n      tag_621\n      tag_382\n      jump\t// in\n    tag_621:\n        /* \"#utility.yul\":14660:14779   */\n    tag_620:\n        /* \"#utility.yul\":14818:14819   */\n      0x00\n        /* \"#utility.yul\":14843:14896   */\n      tag_622\n        /* \"#utility.yul\":14888:14895   */\n      dup6\n        /* \"#utility.yul\":14879:14885   */\n      dup3\n        /* \"#utility.yul\":14868:14877   */\n      dup7\n        /* \"#utility.yul\":14864:14886   */\n      add\n        /* \"#utility.yul\":14843:14896   */\n      tag_387\n      jump\t// in\n    tag_622:\n        /* \"#utility.yul\":14833:14896   */\n      swap3\n      pop\n        /* \"#utility.yul\":14789:14906   */\n      pop\n        /* \"#utility.yul\":14945:14947   */\n      0x20\n        /* \"#utility.yul\":14971:15024   */\n      tag_623\n        /* \"#utility.yul\":15016:15023   */\n      dup6\n        /* \"#utility.yul\":15007:15013   */\n      dup3\n        /* \"#utility.yul\":14996:15005   */\n      dup7\n        /* \"#utility.yul\":14992:15014   */\n      add\n        /* \"#utility.yul\":14971:15024   */\n      tag_389\n      jump\t// in\n    tag_623:\n        /* \"#utility.yul\":14961:15024   */\n      swap2\n      pop\n        /* \"#utility.yul\":14916:15034   */\n      pop\n        /* \"#utility.yul\":14567:15041   */\n      swap3\n      pop\n      swap3\n      swap1\n      pop\n      jump\t// out\n        /* \"#utility.yul\":15047:15216   */\n    tag_419:\n        /* \"#utility.yul\":15131:15142   */\n      0x00\n        /* \"#utility.yul\":15165:15171   */\n      dup3\n        /* \"#utility.yul\":15160:15163   */\n      dup3\n        /* \"#utility.yul\":15153:15172   */\n      mstore\n        /* \"#utility.yul\":15205:15209   */\n      0x20\n        /* \"#utility.yul\":15200:15203   */\n      dup3\n        /* \"#utility.yul\":15196:15210   */\n      add\n        /* \"#utility.yul\":15181:15210   */\n      swap1\n      pop\n        /* \"#utility.yul\":15047:15216   */\n      swap3\n      swap2\n      pop\n      pop\n      jump\t// out\n        /* \"#utility.yul\":15222:15395   */\n    tag_420:\n        /* \"#utility.yul\":15362:15387   */\n      0x50656c6467653a20726f6c65206e6f7420657869737421000000000000000000\n        /* \"#utility.yul\":15358:15359   */\n      0x00\n        /* \"#utility.yul\":15350:15356   */\n      dup3\n        /* \"#utility.yul\":15346:15360   */\n      add\n        /* \"#utility.yul\":15339:15388   */\n      mstore\n        /* \"#utility.yul\":15222:15395   */\n      pop\n      jump\t// out\n        /* \"#utility.yul\":15401:15767   */\n    tag_421:\n        /* \"#utility.yul\":15543:15546   */\n      0x00\n        /* \"#utility.yul\":15564:15631   */\n      tag_627\n        /* \"#utility.yul\":15628:15630   */\n      0x17\n        /* \"#utility.yul\":15623:15626   */\n      dup4\n        /* \"#utility.yul\":15564:15631   */\n      tag_419\n      jump\t// in\n    tag_627:\n        /* \"#utility.yul\":15557:15631   */\n      swap2\n      pop\n        /* \"#utility.yul\":15640:15733   */\n      tag_628\n        /* \"#utility.yul\":15729:15732   */\n      dup3\n        /* \"#utility.yul\":15640:15733   */\n      tag_420\n      jump\t// in\n    tag_628:\n        /* \"#utility.yul\":15758:15760   */\n      0x20\n        /* \"#utility.yul\":15753:15756   */\n      dup3\n        /* \"#utility.yul\":15749:15761   */\n      add\n        /* \"#utility.yul\":15742:15761   */\n      swap1\n      pop\n        /* \"#utility.yul\":15401:15767   */\n      swap2\n      swap1\n      pop\n      jump\t// out\n        /* \"#utility.yul\":15773:16192   */\n    tag_143:\n        /* \"#utility.yul\":15939:15943   */\n      0x00\n        /* \"#utility.yul\":15977:15979   */\n      0x20\n        /* \"#utility.yul\":15966:15975   */\n      dup3\n        /* \"#utility.yul\":15962:15980   */\n      add\n        /* \"#utility.yul\":15954:15980   */\n      swap1\n      pop\n        /* \"#utility.yul\":16026:16035   */\n      dup2\n        /* \"#utility.yul\":16020:16024   */\n      dup2\n        /* \"#utility.yul\":16016:16036   */\n      sub\n        /* \"#utility.yul\":16012:16013   */\n      0x00\n        /* \"#utility.yul\":16001:16010   */\n      dup4\n        /* \"#utility.yul\":15997:16014   */\n      add\n        /* \"#utility.yul\":15990:16037   */\n      mstore\n        /* \"#utility.yul\":16054:16185   */\n      tag_630\n        /* \"#utility.yul\":16180:16184   */\n      dup2\n        /* \"#utility.yul\":16054:16185   */\n      tag_421\n      jump\t// in\n    tag_630:\n        /* \"#utility.yul\":16046:16185   */\n      swap1\n      pop\n        /* \"#utility.yul\":15773:16192   */\n      swap2\n      swap1\n      pop\n      jump\t// out\n        /* \"#utility.yul\":16198:16371   */\n    tag_422:\n        /* \"#utility.yul\":16338:16363   */\n      0x50656c6467653a20616c7265616479207374616b656421000000000000000000\n        /* \"#utility.yul\":16334:16335   */\n      0x00\n        /* \"#utility.yul\":16326:16332   */\n      dup3\n        /* \"#utility.yul\":16322:16336   */\n      add\n        /* \"#utility.yul\":16315:16364   */\n      mstore\n        /* \"#utility.yul\":16198:16371   */\n      pop\n      jump\t// out\n        /* \"#utility.yul\":16377:16743   */\n    tag_423:\n        /* \"#utility.yul\":16519:16522   */\n      0x00\n        /* \"#utility.yul\":16540:16607   */\n      tag_633\n        /* \"#utility.yul\":16604:16606   */\n      0x17\n        /* \"#utility.yul\":16599:16602   */\n      dup4\n        /* \"#utility.yul\":16540:16607   */\n      tag_419\n      jump\t// in\n    tag_633:\n        /* \"#utility.yul\":16533:16607   */\n      swap2\n      pop\n        /* \"#utility.yul\":16616:16709   */\n      tag_634\n        /* \"#utility.yul\":16705:16708   */\n      dup3\n        /* \"#utility.yul\":16616:16709   */\n      tag_422\n      jump\t// in\n    tag_634:\n        /* \"#utility.yul\":16734:16736   */\n      0x20\n        /* \"#utility.yul\":16729:16732   */\n      dup3\n        /* \"#utility.yul\":16725:16737   */\n      add\n        /* \"#utility.yul\":16718:16737   */\n      swap1\n      pop\n        /* \"#utility.yul\":16377:16743   */\n      swap2\n      swap1\n      pop\n      jump\t// out\n        /* \"#utility.yul\":16749:17168   */\n    tag_150:\n        /* \"#utility.yul\":16915:16919   */\n      0x00\n        /* \"#utility.yul\":16953:16955   */\n      0x20\n        /* \"#utility.yul\":16942:16951   */\n      dup3\n        /* \"#utility.yul\":16938:16956   */\n      add\n        /* \"#utility.yul\":16930:16956   */\n      swap1\n      pop\n        /* \"#utility.yul\":17002:17011   */\n      dup2\n        /* \"#utility.yul\":16996:17000   */\n      dup2\n        /* \"#utility.yul\":16992:17012   */\n      sub\n        /* \"#utility.yul\":16988:16989   */\n      0x00\n        /* \"#utility.yul\":16977:16986   */\n      dup4\n        /* \"#utility.yul\":16973:16990   */\n      add\n        /* \"#utility.yul\":16966:17013   */\n      mstore\n        /* \"#utility.yul\":17030:17161   */\n      tag_636\n        /* \"#utility.yul\":17156:17160   */\n      dup2\n        /* \"#utility.yul\":17030:17161   */\n      tag_423\n      jump\t// in\n    tag_636:\n        /* \"#utility.yul\":17022:17161   */\n      swap1\n      pop\n        /* \"#utility.yul\":16749:17168   */\n      swap2\n      swap1\n      pop\n      jump\t// out\n        /* \"#utility.yul\":17174:17354   */\n    tag_424:\n        /* \"#utility.yul\":17222:17299   */\n      0x4e487b7100000000000000000000000000000000000000000000000000000000\n        /* \"#utility.yul\":17219:17220   */\n      0x00\n        /* \"#utility.yul\":17212:17300   */\n      mstore\n        /* \"#utility.yul\":17319:17323   */\n      0x12\n        /* \"#utility.yul\":17316:17317   */\n      0x04\n        /* \"#utility.yul\":17309:17324   */\n      mstore\n        /* \"#utility.yul\":17343:17347   */\n      0x24\n        /* \"#utility.yul\":17340:17341   */\n      0x00\n        /* \"#utility.yul\":17333:17348   */\n      revert\n        /* \"#utility.yul\":17360:17536   */\n    tag_172:\n        /* \"#utility.yul\":17392:17393   */\n      0x00\n        /* \"#utility.yul\":17409:17429   */\n      tag_639\n        /* \"#utility.yul\":17427:17428   */\n      dup3\n        /* \"#utility.yul\":17409:17429   */\n      tag_379\n      jump\t// in\n    tag_639:\n        /* \"#utility.yul\":17404:17429   */\n      swap2\n      pop\n        /* \"#utility.yul\":17443:17463   */\n      tag_640\n        /* \"#utility.yul\":17461:17462   */\n      dup4\n        /* \"#utility.yul\":17443:17463   */\n      tag_379\n      jump\t// in\n    tag_640:\n        /* \"#utility.yul\":17438:17463   */\n      swap3\n      pop\n        /* \"#utility.yul\":17482:17483   */\n      dup3\n        /* \"#utility.yul\":17472:17507   */\n      tag_641\n      jumpi\n        /* \"#utility.yul\":17487:17505   */\n      tag_642\n      tag_424\n      jump\t// in\n    tag_642:\n        /* \"#utility.yul\":17472:17507   */\n    tag_641:\n        /* \"#utility.yul\":17528:17529   */\n      dup3\n        /* \"#utility.yul\":17525:17526   */\n      dup3\n        /* \"#utility.yul\":17521:17530   */\n      mod\n        /* \"#utility.yul\":17516:17530   */\n      swap1\n      pop\n        /* \"#utility.yul\":17360:17536   */\n      swap3\n      swap2\n      pop\n      pop\n      jump\t// out\n        /* \"#utility.yul\":17542:17764   */\n    tag_425:\n        /* \"#utility.yul\":17682:17716   */\n      0x506c656467653a206275792073746f726167652074696d652073657420657272\n        /* \"#utility.yul\":17678:17679   */\n      0x00\n        /* \"#utility.yul\":17670:17676   */\n      dup3\n        /* \"#utility.yul\":17666:17680   */\n      add\n        /* \"#utility.yul\":17659:17717   */\n      mstore\n        /* \"#utility.yul\":17751:17756   */\n      0x6f72210000000000000000000000000000000000000000000000000000000000\n        /* \"#utility.yul\":17746:17748   */\n      0x20\n        /* \"#utility.yul\":17738:17744   */\n      dup3\n        /* \"#utility.yul\":17734:17749   */\n      add\n        /* \"#utility.yul\":17727:17757   */\n      mstore\n        /* \"#utility.yul\":17542:17764   */\n      pop\n      jump\t// out\n        /* \"#utility.yul\":17770:18136   */\n    tag_426:\n        /* \"#utility.yul\":17912:17915   */\n      0x00\n        /* \"#utility.yul\":17933:18000   */\n      tag_645\n        /* \"#utility.yul\":17997:17999   */\n      0x23\n        /* \"#utility.yul\":17992:17995   */\n      dup4\n        /* \"#utility.yul\":17933:18000   */\n      tag_419\n      jump\t// in\n    tag_645:\n        /* \"#utility.yul\":17926:18000   */\n      swap2\n      pop\n        /* \"#utility.yul\":18009:18102   */\n      tag_646\n        /* \"#utility.yul\":18098:18101   */\n      dup3\n        /* \"#utility.yul\":18009:18102   */\n      tag_425\n      jump\t// in\n    tag_646:\n        /* \"#utility.yul\":18127:18129   */\n      0x40\n        /* \"#utility.yul\":18122:18125   */\n      dup3\n        /* \"#utility.yul\":18118:18130   */\n      add\n        /* \"#utility.yul\":18111:18130   */\n      swap1\n      pop\n        /* \"#utility.yul\":17770:18136   */\n      swap2\n      swap1\n      pop\n      jump\t// out\n        /* \"#utility.yul\":18142:18561   */\n    tag_175:\n        /* \"#utility.yul\":18308:18312   */\n      0x00\n        /* \"#utility.yul\":18346:18348   */\n      0x20\n        /* \"#utility.yul\":18335:18344   */\n      dup3\n        /* \"#utility.yul\":18331:18349   */\n      add\n        /* \"#utility.yul\":18323:18349   */\n      swap1\n      pop\n        /* \"#utility.yul\":18395:18404   */\n      dup2\n        /* \"#utility.yul\":18389:18393   */\n      dup2\n        /* \"#utility.yul\":18385:18405   */\n      sub\n        /* \"#utility.yul\":18381:18382   */\n      0x00\n        /* \"#utility.yul\":18370:18379   */\n      dup4\n        /* \"#utility.yul\":18366:18383   */\n      add\n        /* \"#utility.yul\":18359:18406   */\n      mstore\n        /* \"#utility.yul\":18423:18554   */\n      tag_648\n        /* \"#utility.yul\":18549:18553   */\n      dup2\n        /* \"#utility.yul\":18423:18554   */\n      tag_426\n      jump\t// in\n    tag_648:\n        /* \"#utility.yul\":18415:18554   */\n      swap1\n      pop\n        /* \"#utility.yul\":18142:18561   */\n      swap2\n      swap1\n      pop\n      jump\t// out\n        /* \"#utility.yul\":18567:18747   */\n    tag_427:\n        /* \"#utility.yul\":18615:18692   */\n      0x4e487b7100000000000000000000000000000000000000000000000000000000\n        /* \"#utility.yul\":18612:18613   */\n      0x00\n        /* \"#utility.yul\":18605:18693   */\n      mstore\n        /* \"#utility.yul\":18712:18716   */\n      0x11\n        /* \"#utility.yul\":18709:18710   */\n      0x04\n        /* \"#utility.yul\":18702:18717   */\n      mstore\n        /* \"#utility.yul\":18736:18740   */\n      0x24\n        /* \"#utility.yul\":18733:18734   */\n      0x00\n        /* \"#utility.yul\":18726:18741   */\n      revert\n        /* \"#utility.yul\":18753:19163   */\n    tag_178:\n        /* \"#utility.yul\":18793:18800   */\n      0x00\n        /* \"#utility.yul\":18816:18836   */\n      tag_651\n        /* \"#utility.yul\":18834:18835   */\n      dup3\n        /* \"#utility.yul\":18816:18836   */\n      tag_379\n      jump\t// in\n    tag_651:\n        /* \"#utility.yul\":18811:18836   */\n      swap2\n      pop\n        /* \"#utility.yul\":18850:18870   */\n      tag_652\n        /* \"#utility.yul\":18868:18869   */\n      dup4\n        /* \"#utility.yul\":18850:18870   */\n      tag_379\n      jump\t// in\n    tag_652:\n        /* \"#utility.yul\":18845:18870   */\n      swap3\n      pop\n        /* \"#utility.yul\":18905:18906   */\n      dup3\n        /* \"#utility.yul\":18902:18903   */\n      dup3\n        /* \"#utility.yul\":18898:18907   */\n      mul\n        /* \"#utility.yul\":18927:18957   */\n      tag_653\n        /* \"#utility.yul\":18945:18956   */\n      dup2\n        /* \"#utility.yul\":18927:18957   */\n      tag_379\n      jump\t// in\n    tag_653:\n        /* \"#utility.yul\":18916:18957   */\n      swap2\n      pop\n        /* \"#utility.yul\":19106:19107   */\n      dup3\n        /* \"#utility.yul\":19097:19104   */\n      dup3\n        /* \"#utility.yul\":19093:19108   */\n      div\n        /* \"#utility.yul\":19090:19091   */\n      dup5\n        /* \"#utility.yul\":19087:19109   */\n      eq\n        /* \"#utility.yul\":19067:19068   */\n      dup4\n        /* \"#utility.yul\":19060:19069   */\n      iszero\n        /* \"#utility.yul\":19040:19123   */\n      or\n        /* \"#utility.yul\":19017:19156   */\n      tag_654\n      jumpi\n        /* \"#utility.yul\":19136:19154   */\n      tag_655\n      tag_427\n      jump\t// in\n    tag_655:\n        /* \"#utility.yul\":19017:19156   */\n    tag_654:\n        /* \"#utility.yul\":18801:19163   */\n      pop\n        /* \"#utility.yul\":18753:19163   */\n      swap3\n      swap2\n      pop\n      pop\n      jump\t// out\n        /* \"#utility.yul\":19169:19360   */\n    tag_183:\n        /* \"#utility.yul\":19209:19212   */\n      0x00\n        /* \"#utility.yul\":19228:19248   */\n      tag_657\n        /* \"#utility.yul\":19246:19247   */\n      dup3\n        /* \"#utility.yul\":19228:19248   */\n      tag_379\n      jump\t// in\n    tag_657:\n        /* \"#utility.yul\":19223:19248   */\n      swap2\n      pop\n        /* \"#utility.yul\":19262:19282   */\n      tag_658\n        /* \"#utility.yul\":19280:19281   */\n      dup4\n        /* \"#utility.yul\":19262:19282   */\n      tag_379\n      jump\t// in\n    tag_658:\n        /* \"#utility.yul\":19257:19282   */\n      swap3\n      pop\n        /* \"#utility.yul\":19305:19306   */\n      dup3\n        /* \"#utility.yul\":19302:19303   */\n      dup3\n        /* \"#utility.yul\":19298:19307   */\n      add\n        /* \"#utility.yul\":19291:19307   */\n      swap1\n      pop\n        /* \"#utility.yul\":19326:19329   */\n      dup1\n        /* \"#utility.yul\":19323:19324   */\n      dup3\n        /* \"#utility.yul\":19320:19330   */\n      gt\n        /* \"#utility.yul\":19317:19353   */\n      iszero\n      tag_659\n      jumpi\n        /* \"#utility.yul\":19333:19351   */\n      tag_660\n      tag_427\n      jump\t// in\n    tag_660:\n        /* \"#utility.yul\":19317:19353   */\n    tag_659:\n        /* \"#utility.yul\":19169:19360   */\n      swap3\n      swap2\n      pop\n      pop\n      jump\t// out\n        /* \"#utility.yul\":19366:19560   */\n    tag_196:\n        /* \"#utility.yul\":19406:19410   */\n      0x00\n        /* \"#utility.yul\":19426:19446   */\n      tag_662\n        /* \"#utility.yul\":19444:19445   */\n      dup3\n        /* \"#utility.yul\":19426:19446   */\n      tag_379\n      jump\t// in\n    tag_662:\n        /* \"#utility.yul\":19421:19446   */\n      swap2\n      pop\n        /* \"#utility.yul\":19460:19480   */\n      tag_663\n        /* \"#utility.yul\":19478:19479   */\n      dup4\n        /* \"#utility.yul\":19460:19480   */\n      tag_379\n      jump\t// in\n    tag_663:\n        /* \"#utility.yul\":19455:19480   */\n      swap3\n      pop\n        /* \"#utility.yul\":19504:19505   */\n      dup3\n        /* \"#utility.yul\":19501:19502   */\n      dup3\n        /* \"#utility.yul\":19497:19506   */\n      sub\n        /* \"#utility.yul\":19489:19506   */\n      swap1\n      pop\n        /* \"#utility.yul\":19528:19529   */\n      dup2\n        /* \"#utility.yul\":19522:19526   */\n      dup2\n        /* \"#utility.yul\":19519:19530   */\n      gt\n        /* \"#utility.yul\":19516:19553   */\n      iszero\n      tag_664\n      jumpi\n        /* \"#utility.yul\":19533:19551   */\n      tag_665\n      tag_427\n      jump\t// in\n    tag_665:\n        /* \"#utility.yul\":19516:19553   */\n    tag_664:\n        /* \"#utility.yul\":19366:19560   */\n      swap3\n      swap2\n      pop\n      pop\n      jump\t// out\n        /* \"#utility.yul\":19566:19748   */\n    tag_428:\n        /* \"#utility.yul\":19706:19740   */\n      0x506c656467653a20757365722073746f72616765206e6f7420656e6f75676821\n        /* \"#utility.yul\":19702:19703   */\n      0x00\n        /* \"#utility.yul\":19694:19700   */\n      dup3\n        /* \"#utility.yul\":19690:19704   */\n      add\n        /* \"#utility.yul\":19683:19741   */\n      mstore\n        /* \"#utility.yul\":19566:19748   */\n      pop\n      jump\t// out\n        /* \"#utility.yul\":19754:20120   */\n    tag_429:\n        /* \"#utility.yul\":19896:19899   */\n      0x00\n        /* \"#utility.yul\":19917:19984   */\n      tag_668\n        /* \"#utility.yul\":19981:19983   */\n      0x20\n        /* \"#utility.yul\":19976:19979   */\n      dup4\n        /* \"#utility.yul\":19917:19984   */\n      tag_419\n      jump\t// in\n    tag_668:\n        /* \"#utility.yul\":19910:19984   */\n      swap2\n      pop\n        /* \"#utility.yul\":19993:20086   */\n      tag_669\n        /* \"#utility.yul\":20082:20085   */\n      dup3\n        /* \"#utility.yul\":19993:20086   */\n      tag_428\n      jump\t// in\n    tag_669:\n        /* \"#utility.yul\":20111:20113   */\n      0x20\n        /* \"#utility.yul\":20106:20109   */\n      dup3\n        /* \"#utility.yul\":20102:20114   */\n      add\n        /* \"#utility.yul\":20095:20114   */\n      swap1\n      pop\n        /* \"#utility.yul\":19754:20120   */\n      swap2\n      swap1\n      pop\n      jump\t// out\n        /* \"#utility.yul\":20126:20545   */\n    tag_199:\n        /* \"#utility.yul\":20292:20296   */\n      0x00\n        /* \"#utility.yul\":20330:20332   */\n      0x20\n        /* \"#utility.yul\":20319:20328   */\n      dup3\n        /* \"#utility.yul\":20315:20333   */\n      add\n        /* \"#utility.yul\":20307:20333   */\n      swap1\n      pop\n        /* \"#utility.yul\":20379:20388   */\n      dup2\n        /* \"#utility.yul\":20373:20377   */\n      dup2\n        /* \"#utility.yul\":20369:20389   */\n      sub\n        /* \"#utility.yul\":20365:20366   */\n      0x00\n        /* \"#utility.yul\":20354:20363   */\n      dup4\n        /* \"#utility.yul\":20350:20367   */\n      add\n        /* \"#utility.yul\":20343:20390   */\n      mstore\n        /* \"#utility.yul\":20407:20538   */\n      tag_671\n        /* \"#utility.yul\":20533:20537   */\n      dup2\n        /* \"#utility.yul\":20407:20538   */\n      tag_429\n      jump\t// in\n    tag_671:\n        /* \"#utility.yul\":20399:20538   */\n      swap1\n      pop\n        /* \"#utility.yul\":20126:20545   */\n      swap2\n      swap1\n      pop\n      jump\t// out\n        /* \"#utility.yul\":20551:20675   */\n    tag_430:\n        /* \"#utility.yul\":20628:20634   */\n      0x00\n        /* \"#utility.yul\":20662:20667   */\n      dup2\n        /* \"#utility.yul\":20656:20668   */\n      mload\n        /* \"#utility.yul\":20646:20668   */\n      swap1\n      pop\n        /* \"#utility.yul\":20551:20675   */\n      swap2\n      swap1\n      pop\n      jump\t// out\n        /* \"#utility.yul\":20681:20875   */\n    tag_431:\n        /* \"#utility.yul\":20790:20801   */\n      0x00\n        /* \"#utility.yul\":20824:20830   */\n      dup3\n        /* \"#utility.yul\":20819:20822   */\n      dup3\n        /* \"#utility.yul\":20812:20831   */\n      mstore\n        /* \"#utility.yul\":20864:20868   */\n      0x20\n        /* \"#utility.yul\":20859:20862   */\n      dup3\n        /* \"#utility.yul\":20855:20869   */\n      add\n        /* \"#utility.yul\":20840:20869   */\n      swap1\n      pop\n        /* \"#utility.yul\":20681:20875   */\n      swap3\n      swap2\n      pop\n      pop\n      jump\t// out\n        /* \"#utility.yul\":20881:21023   */\n    tag_432:\n        /* \"#utility.yul\":20958:20962   */\n      0x00\n        /* \"#utility.yul\":20981:20984   */\n      dup2\n        /* \"#utility.yul\":20973:20984   */\n      swap1\n      pop\n        /* \"#utility.yul\":21011:21015   */\n      0x20\n        /* \"#utility.yul\":21006:21009   */\n      dup3\n        /* \"#utility.yul\":21002:21016   */\n      add\n        /* \"#utility.yul\":20994:21016   */\n      swap1\n      pop\n        /* \"#utility.yul\":20881:21023   */\n      swap2\n      swap1\n      pop\n      jump\t// out\n        /* \"#utility.yul\":21029:21128   */\n    tag_433:\n        /* \"#utility.yul\":21081:21087   */\n      0x00\n        /* \"#utility.yul\":21115:21120   */\n      dup2\n        /* \"#utility.yul\":21109:21121   */\n      mload\n        /* \"#utility.yul\":21099:21121   */\n      swap1\n      pop\n        /* \"#utility.yul\":21029:21128   */\n      swap2\n      swap1\n      pop\n      jump\t// out\n        /* \"#utility.yul\":21134:21293   */\n    tag_434:\n        /* \"#utility.yul\":21208:21219   */\n      0x00\n        /* \"#utility.yul\":21242:21248   */\n      dup3\n        /* \"#utility.yul\":21237:21240   */\n      dup3\n        /* \"#utility.yul\":21230:21249   */\n      mstore\n        /* \"#utility.yul\":21282:21286   */\n      0x20\n        /* \"#utility.yul\":21277:21280   */\n      dup3\n        /* \"#utility.yul\":21273:21287   */\n      add\n        /* \"#utility.yul\":21258:21287   */\n      swap1\n      pop\n        /* \"#utility.yul\":21134:21293   */\n      swap3\n      swap2\n      pop\n      pop\n      jump\t// out\n        /* \"#utility.yul\":21299:21545   */\n    tag_435:\n        /* \"#utility.yul\":21380:21381   */\n      0x00\n        /* \"#utility.yul\":21390:21503   */\n    tag_678:\n        /* \"#utility.yul\":21404:21410   */\n      dup4\n        /* \"#utility.yul\":21401:21402   */\n      dup2\n        /* \"#utility.yul\":21398:21411   */\n      lt\n        /* \"#utility.yul\":21390:21503   */\n      iszero\n      tag_680\n      jumpi\n        /* \"#utility.yul\":21489:21490   */\n      dup1\n        /* \"#utility.yul\":21484:21487   */\n      dup3\n        /* \"#utility.yul\":21480:21491   */\n      add\n        /* \"#utility.yul\":21474:21492   */\n      mload\n        /* \"#utility.yul\":21470:21471   */\n      dup2\n        /* \"#utility.yul\":21465:21468   */\n      dup5\n        /* \"#utility.yul\":21461:21472   */\n      add\n        /* \"#utility.yul\":21454:21493   */\n      mstore\n        /* \"#utility.yul\":21426:21428   */\n      0x20\n        /* \"#utility.yul\":21423:21424   */\n      dup2\n        /* \"#utility.yul\":21419:21429   */\n      add\n        /* \"#utility.yul\":21414:21429   */\n      swap1\n      pop\n        /* \"#utility.yul\":21390:21503   */\n      jump(tag_678)\n    tag_680:\n        /* \"#utility.yul\":21537:21538   */\n      0x00\n        /* \"#utility.yul\":21528:21534   */\n      dup5\n        /* \"#utility.yul\":21523:21526   */\n      dup5\n        /* \"#utility.yul\":21519:21535   */\n      add\n        /* \"#utility.yul\":21512:21539   */\n      mstore\n        /* \"#utility.yul\":21361:21545   */\n      pop\n        /* \"#utility.yul\":21299:21545   */\n      pop\n      pop\n      pop\n      jump\t// out\n        /* \"#utility.yul\":21551:21908   */\n    tag_436:\n        /* \"#utility.yul\":21629:21632   */\n      0x00\n        /* \"#utility.yul\":21657:21696   */\n      tag_682\n        /* \"#utility.yul\":21690:21695   */\n      dup3\n        /* \"#utility.yul\":21657:21696   */\n      tag_433\n      jump\t// in\n    tag_682:\n        /* \"#utility.yul\":21712:21773   */\n      tag_683\n        /* \"#utility.yul\":21766:21772   */\n      dup2\n        /* \"#utility.yul\":21761:21764   */\n      dup6\n        /* \"#utility.yul\":21712:21773   */\n      tag_434\n      jump\t// in\n    tag_683:\n        /* \"#utility.yul\":21705:21773   */\n      swap4\n      pop\n        /* \"#utility.yul\":21782:21847   */\n      tag_684\n        /* \"#utility.yul\":21840:21846   */\n      dup2\n        /* \"#utility.yul\":21835:21838   */\n      dup6\n        /* \"#utility.yul\":21828:21832   */\n      0x20\n        /* \"#utility.yul\":21821:21826   */\n      dup7\n        /* \"#utility.yul\":21817:21833   */\n      add\n        /* \"#utility.yul\":21782:21847   */\n      tag_435\n      jump\t// in\n    tag_684:\n        /* \"#utility.yul\":21872:21901   */\n      tag_685\n        /* \"#utility.yul\":21894:21900   */\n      dup2\n        /* \"#utility.yul\":21872:21901   */\n      tag_395\n      jump\t// in\n    tag_685:\n        /* \"#utility.yul\":21867:21870   */\n      dup5\n        /* \"#utility.yul\":21863:21902   */\n      add\n        /* \"#utility.yul\":21856:21902   */\n      swap2\n      pop\n        /* \"#utility.yul\":21633:21908   */\n      pop\n        /* \"#utility.yul\":21551:21908   */\n      swap3\n      swap2\n      pop\n      pop\n      jump\t// out\n        /* \"#utility.yul\":21914:22110   */\n    tag_437:\n        /* \"#utility.yul\":22003:22013   */\n      0x00\n        /* \"#utility.yul\":22038:22104   */\n      tag_687\n        /* \"#utility.yul\":22100:22103   */\n      dup4\n        /* \"#utility.yul\":22092:22098   */\n      dup4\n        /* \"#utility.yul\":22038:22104   */\n      tag_436\n      jump\t// in\n    tag_687:\n        /* \"#utility.yul\":22024:22104   */\n      swap1\n      pop\n        /* \"#utility.yul\":21914:22110   */\n      swap3\n      swap2\n      pop\n      pop\n      jump\t// out\n        /* \"#utility.yul\":22116:22239   */\n    tag_438:\n        /* \"#utility.yul\":22196:22200   */\n      0x00\n        /* \"#utility.yul\":22228:22232   */\n      0x20\n        /* \"#utility.yul\":22223:22226   */\n      dup3\n        /* \"#utility.yul\":22219:22233   */\n      add\n        /* \"#utility.yul\":22211:22233   */\n      swap1\n      pop\n        /* \"#utility.yul\":22116:22239   */\n      swap2\n      swap1\n      pop\n      jump\t// out\n        /* \"#utility.yul\":22273:23264   */\n    tag_439:\n        /* \"#utility.yul\":22412:22415   */\n      0x00\n        /* \"#utility.yul\":22441:22505   */\n      tag_690\n        /* \"#utility.yul\":22499:22504   */\n      dup3\n        /* \"#utility.yul\":22441:22505   */\n      tag_430\n      jump\t// in\n    tag_690:\n        /* \"#utility.yul\":22521:22617   */\n      tag_691\n        /* \"#utility.yul\":22610:22616   */\n      dup2\n        /* \"#utility.yul\":22605:22608   */\n      dup6\n        /* \"#utility.yul\":22521:22617   */\n      tag_431\n      jump\t// in\n    tag_691:\n        /* \"#utility.yul\":22514:22617   */\n      swap4\n      pop\n        /* \"#utility.yul\":22643:22646   */\n      dup4\n        /* \"#utility.yul\":22688:22692   */\n      0x20\n        /* \"#utility.yul\":22680:22686   */\n      dup3\n        /* \"#utility.yul\":22676:22693   */\n      mul\n        /* \"#utility.yul\":22671:22674   */\n      dup6\n        /* \"#utility.yul\":22667:22694   */\n      add\n        /* \"#utility.yul\":22718:22784   */\n      tag_692\n        /* \"#utility.yul\":22778:22783   */\n      dup6\n        /* \"#utility.yul\":22718:22784   */\n      tag_432\n      jump\t// in\n    tag_692:\n        /* \"#utility.yul\":22807:22814   */\n      dup1\n        /* \"#utility.yul\":22838:22839   */\n      0x00\n        /* \"#utility.yul\":22823:23219   */\n    tag_693:\n        /* \"#utility.yul\":22848:22854   */\n      dup6\n        /* \"#utility.yul\":22845:22846   */\n      dup2\n        /* \"#utility.yul\":22842:22855   */\n      lt\n        /* \"#utility.yul\":22823:23219   */\n      iszero\n      tag_695\n      jumpi\n        /* \"#utility.yul\":22919:22928   */\n      dup5\n        /* \"#utility.yul\":22913:22917   */\n      dup5\n        /* \"#utility.yul\":22909:22929   */\n      sub\n        /* \"#utility.yul\":22904:22907   */\n      dup10\n        /* \"#utility.yul\":22897:22930   */\n      mstore\n        /* \"#utility.yul\":22970:22976   */\n      dup2\n        /* \"#utility.yul\":22964:22977   */\n      mload\n        /* \"#utility.yul\":22998:23082   */\n      tag_696\n        /* \"#utility.yul\":23077:23081   */\n      dup6\n        /* \"#utility.yul\":23062:23075   */\n      dup3\n        /* \"#utility.yul\":22998:23082   */\n      tag_437\n      jump\t// in\n    tag_696:\n        /* \"#utility.yul\":22990:23082   */\n      swap5\n      pop\n        /* \"#utility.yul\":23105:23175   */\n      tag_697\n        /* \"#utility.yul\":23168:23174   */\n      dup4\n        /* \"#utility.yul\":23105:23175   */\n      tag_438\n      jump\t// in\n    tag_697:\n        /* \"#utility.yul\":23095:23175   */\n      swap3\n      pop\n        /* \"#utility.yul\":23204:23208   */\n      0x20\n        /* \"#utility.yul\":23199:23202   */\n      dup11\n        /* \"#utility.yul\":23195:23209   */\n      add\n        /* \"#utility.yul\":23188:23209   */\n      swap10\n      pop\n        /* \"#utility.yul\":22883:23219   */\n      pop\n        /* \"#utility.yul\":22870:22871   */\n      0x01\n        /* \"#utility.yul\":22867:22868   */\n      dup2\n        /* \"#utility.yul\":22863:22872   */\n      add\n        /* \"#utility.yul\":22858:22872   */\n      swap1\n      pop\n        /* \"#utility.yul\":22823:23219   */\n      jump(tag_693)\n    tag_695:\n        /* \"#utility.yul\":22827:22841   */\n      pop\n        /* \"#utility.yul\":23235:23239   */\n      dup3\n        /* \"#utility.yul\":23228:23239   */\n      swap8\n      pop\n        /* \"#utility.yul\":23255:23258   */\n      dup8\n        /* \"#utility.yul\":23248:23258   */\n      swap6\n      pop\n        /* \"#utility.yul\":22417:23264   */\n      pop\n      pop\n      pop\n      pop\n      pop\n        /* \"#utility.yul\":22273:23264   */\n      swap3\n      swap2\n      pop\n      pop\n      jump\t// out\n        /* \"#utility.yul\":23270:23647   */\n    tag_440:\n        /* \"#utility.yul\":23358:23361   */\n      0x00\n        /* \"#utility.yul\":23386:23425   */\n      tag_699\n        /* \"#utility.yul\":23419:23424   */\n      dup3\n        /* \"#utility.yul\":23386:23425   */\n      tag_433\n      jump\t// in\n    tag_699:\n        /* \"#utility.yul\":23441:23512   */\n      tag_700\n        /* \"#utility.yul\":23505:23511   */\n      dup2\n        /* \"#utility.yul\":23500:23503   */\n      dup6\n        /* \"#utility.yul\":23441:23512   */\n      tag_419\n      jump\t// in\n    tag_700:\n        /* \"#utility.yul\":23434:23512   */\n      swap4\n      pop\n        /* \"#utility.yul\":23521:23586   */\n      tag_701\n        /* \"#utility.yul\":23579:23585   */\n      dup2\n        /* \"#utility.yul\":23574:23577   */\n      dup6\n        /* \"#utility.yul\":23567:23571   */\n      0x20\n        /* \"#utility.yul\":23560:23565   */\n      dup7\n        /* \"#utility.yul\":23556:23572   */\n      add\n        /* \"#utility.yul\":23521:23586   */\n      tag_435\n      jump\t// in\n    tag_701:\n        /* \"#utility.yul\":23611:23640   */\n      tag_702\n        /* \"#utility.yul\":23633:23639   */\n      dup2\n        /* \"#utility.yul\":23611:23640   */\n      tag_395\n      jump\t// in\n    tag_702:\n        /* \"#utility.yul\":23606:23609   */\n      dup5\n        /* \"#utility.yul\":23602:23641   */\n      add\n        /* \"#utility.yul\":23595:23641   */\n      swap2\n      pop\n        /* \"#utility.yul\":23362:23647   */\n      pop\n        /* \"#utility.yul\":23270:23647   */\n      swap3\n      swap2\n      pop\n      pop\n      jump\t// out\n        /* \"#utility.yul\":23653:25174   */\n    tag_201:\n        /* \"#utility.yul\":24102:24106   */\n      0x00\n        /* \"#utility.yul\":24140:24143   */\n      0x0100\n        /* \"#utility.yul\":24129:24138   */\n      dup3\n        /* \"#utility.yul\":24125:24144   */\n      add\n        /* \"#utility.yul\":24117:24144   */\n      swap1\n      pop\n        /* \"#utility.yul\":24190:24199   */\n      dup2\n        /* \"#utility.yul\":24184:24188   */\n      dup2\n        /* \"#utility.yul\":24180:24200   */\n      sub\n        /* \"#utility.yul\":24176:24177   */\n      0x00\n        /* \"#utility.yul\":24165:24174   */\n      dup4\n        /* \"#utility.yul\":24161:24178   */\n      add\n        /* \"#utility.yul\":24154:24201   */\n      mstore\n        /* \"#utility.yul\":24218:24326   */\n      tag_704\n        /* \"#utility.yul\":24321:24325   */\n      dup2\n        /* \"#utility.yul\":24312:24318   */\n      dup12\n        /* \"#utility.yul\":24218:24326   */\n      tag_416\n      jump\t// in\n    tag_704:\n        /* \"#utility.yul\":24210:24326   */\n      swap1\n      pop\n        /* \"#utility.yul\":24373:24382   */\n      dup2\n        /* \"#utility.yul\":24367:24371   */\n      dup2\n        /* \"#utility.yul\":24363:24383   */\n      sub\n        /* \"#utility.yul\":24358:24360   */\n      0x20\n        /* \"#utility.yul\":24347:24356   */\n      dup4\n        /* \"#utility.yul\":24343:24361   */\n      add\n        /* \"#utility.yul\":24336:24384   */\n      mstore\n        /* \"#utility.yul\":24401:24529   */\n      tag_705\n        /* \"#utility.yul\":24524:24528   */\n      dup2\n        /* \"#utility.yul\":24515:24521   */\n      dup11\n        /* \"#utility.yul\":24401:24529   */\n      tag_439\n      jump\t// in\n    tag_705:\n        /* \"#utility.yul\":24393:24529   */\n      swap1\n      pop\n        /* \"#utility.yul\":24576:24585   */\n      dup2\n        /* \"#utility.yul\":24570:24574   */\n      dup2\n        /* \"#utility.yul\":24566:24586   */\n      sub\n        /* \"#utility.yul\":24561:24563   */\n      0x40\n        /* \"#utility.yul\":24550:24559   */\n      dup4\n        /* \"#utility.yul\":24546:24564   */\n      add\n        /* \"#utility.yul\":24539:24587   */\n      mstore\n        /* \"#utility.yul\":24604:24682   */\n      tag_706\n        /* \"#utility.yul\":24677:24681   */\n      dup2\n        /* \"#utility.yul\":24668:24674   */\n      dup10\n        /* \"#utility.yul\":24604:24682   */\n      tag_440\n      jump\t// in\n    tag_706:\n        /* \"#utility.yul\":24596:24682   */\n      swap1\n      pop\n        /* \"#utility.yul\":24729:24738   */\n      dup2\n        /* \"#utility.yul\":24723:24727   */\n      dup2\n        /* \"#utility.yul\":24719:24739   */\n      sub\n        /* \"#utility.yul\":24714:24716   */\n      0x60\n        /* \"#utility.yul\":24703:24712   */\n      dup4\n        /* \"#utility.yul\":24699:24717   */\n      add\n        /* \"#utility.yul\":24692:24740   */\n      mstore\n        /* \"#utility.yul\":24757:24835   */\n      tag_707\n        /* \"#utility.yul\":24830:24834   */\n      dup2\n        /* \"#utility.yul\":24821:24827   */\n      dup9\n        /* \"#utility.yul\":24757:24835   */\n      tag_440\n      jump\t// in\n    tag_707:\n        /* \"#utility.yul\":24749:24835   */\n      swap1\n      pop\n        /* \"#utility.yul\":24845:24918   */\n      tag_708\n        /* \"#utility.yul\":24913:24916   */\n      0x80\n        /* \"#utility.yul\":24902:24911   */\n      dup4\n        /* \"#utility.yul\":24898:24917   */\n      add\n        /* \"#utility.yul\":24889:24895   */\n      dup8\n        /* \"#utility.yul\":24845:24918   */\n      tag_380\n      jump\t// in\n    tag_708:\n        /* \"#utility.yul\":24928:25001   */\n      tag_709\n        /* \"#utility.yul\":24996:24999   */\n      0xa0\n        /* \"#utility.yul\":24985:24994   */\n      dup4\n        /* \"#utility.yul\":24981:25000   */\n      add\n        /* \"#utility.yul\":24972:24978   */\n      dup7\n        /* \"#utility.yul\":24928:25001   */\n      tag_380\n      jump\t// in\n    tag_709:\n        /* \"#utility.yul\":25011:25084   */\n      tag_710\n        /* \"#utility.yul\":25079:25082   */\n      0xc0\n        /* \"#utility.yul\":25068:25077   */\n      dup4\n        /* \"#utility.yul\":25064:25083   */\n      add\n        /* \"#utility.yul\":25055:25061   */\n      dup6\n        /* \"#utility.yul\":25011:25084   */\n      tag_380\n      jump\t// in\n    tag_710:\n        /* \"#utility.yul\":25094:25167   */\n      tag_711\n        /* \"#utility.yul\":25162:25165   */\n      0xe0\n        /* \"#utility.yul\":25151:25160   */\n      dup4\n        /* \"#utility.yul\":25147:25166   */\n      add\n        /* \"#utility.yul\":25138:25144   */\n      dup5\n        /* \"#utility.yul\":25094:25167   */\n      tag_393\n      jump\t// in\n    tag_711:\n        /* \"#utility.yul\":23653:25174   */\n      swap10\n      swap9\n      pop\n      pop\n      pop\n      pop\n      pop\n      pop\n      pop\n      pop\n      pop\n      jump\t// out\n        /* \"#utility.yul\":25180:25296   */\n    tag_441:\n        /* \"#utility.yul\":25250:25271   */\n      tag_713\n        /* \"#utility.yul\":25265:25270   */\n      dup2\n        /* \"#utility.yul\":25250:25271   */\n      tag_417\n      jump\t// in\n    tag_713:\n        /* \"#utility.yul\":25243:25248   */\n      dup2\n        /* \"#utility.yul\":25240:25272   */\n      eq\n        /* \"#utility.yul\":25230:25290   */\n      tag_714\n      jumpi\n        /* \"#utility.yul\":25286:25287   */\n      0x00\n        /* \"#utility.yul\":25283:25284   */\n      dup1\n        /* \"#utility.yul\":25276:25288   */\n      revert\n        /* \"#utility.yul\":25230:25290   */\n    tag_714:\n        /* \"#utility.yul\":25180:25296   */\n      pop\n      jump\t// out\n        /* \"#utility.yul\":25302:25439   */\n    tag_442:\n        /* \"#utility.yul\":25356:25361   */\n      0x00\n        /* \"#utility.yul\":25387:25393   */\n      dup2\n        /* \"#utility.yul\":25381:25394   */\n      mload\n        /* \"#utility.yul\":25372:25394   */\n      swap1\n      pop\n        /* \"#utility.yul\":25403:25433   */\n      tag_716\n        /* \"#utility.yul\":25427:25432   */\n      dup2\n        /* \"#utility.yul\":25403:25433   */\n      tag_441\n      jump\t// in\n    tag_716:\n        /* \"#utility.yul\":25302:25439   */\n      swap3\n      swap2\n      pop\n      pop\n      jump\t// out\n        /* \"#utility.yul\":25445:25790   */\n    tag_205:\n        /* \"#utility.yul\":25512:25518   */\n      0x00\n        /* \"#utility.yul\":25561:25563   */\n      0x20\n        /* \"#utility.yul\":25549:25558   */\n      dup3\n        /* \"#utility.yul\":25540:25547   */\n      dup5\n        /* \"#utility.yul\":25536:25559   */\n      sub\n        /* \"#utility.yul\":25532:25564   */\n      slt\n        /* \"#utility.yul\":25529:25648   */\n      iszero\n      tag_718\n      jumpi\n        /* \"#utility.yul\":25567:25646   */\n      tag_719\n      tag_382\n      jump\t// in\n    tag_719:\n        /* \"#utility.yul\":25529:25648   */\n    tag_718:\n        /* \"#utility.yul\":25687:25688   */\n      0x00\n        /* \"#utility.yul\":25712:25773   */\n      tag_720\n        /* \"#utility.yul\":25765:25772   */\n      dup5\n        /* \"#utility.yul\":25756:25762   */\n      dup3\n        /* \"#utility.yul\":25745:25754   */\n      dup6\n        /* \"#utility.yul\":25741:25763   */\n      add\n        /* \"#utility.yul\":25712:25773   */\n      tag_442\n      jump\t// in\n    tag_720:\n        /* \"#utility.yul\":25702:25773   */\n      swap2\n      pop\n        /* \"#utility.yul\":25658:25783   */\n      pop\n        /* \"#utility.yul\":25445:25790   */\n      swap3\n      swap2\n      pop\n      pop\n      jump\t// out\n        /* \"#utility.yul\":25796:25976   */\n    tag_213:\n        /* \"#utility.yul\":25844:25921   */\n      0x4e487b7100000000000000000000000000000000000000000000000000000000\n        /* \"#utility.yul\":25841:25842   */\n      0x00\n        /* \"#utility.yul\":25834:25922   */\n      mstore\n        /* \"#utility.yul\":25941:25945   */\n      0x32\n        /* \"#utility.yul\":25938:25939   */\n      0x04\n        /* \"#utility.yul\":25931:25946   */\n      mstore\n        /* \"#utility.yul\":25965:25969   */\n      0x24\n        /* \"#utility.yul\":25962:25963   */\n      0x00\n        /* \"#utility.yul\":25955:25970   */\n      revert\n        /* \"#utility.yul\":25982:26155   */\n    tag_443:\n        /* \"#utility.yul\":26122:26147   */\n      0x506c656467653a2075736572206e6f7420657869737421000000000000000000\n        /* \"#utility.yul\":26118:26119   */\n      0x00\n        /* \"#utility.yul\":26110:26116   */\n      dup3\n        /* \"#utility.yul\":26106:26120   */\n      add\n        /* \"#utility.yul\":26099:26148   */\n      mstore\n        /* \"#utility.yul\":25982:26155   */\n      pop\n      jump\t// out\n        /* \"#utility.yul\":26161:26527   */\n    tag_444:\n        /* \"#utility.yul\":26303:26306   */\n      0x00\n        /* \"#utility.yul\":26324:26391   */\n      tag_724\n        /* \"#utility.yul\":26388:26390   */\n      0x17\n        /* \"#utility.yul\":26383:26386   */\n      dup4\n        /* \"#utility.yul\":26324:26391   */\n      tag_419\n      jump\t// in\n    tag_724:\n        /* \"#utility.yul\":26317:26391   */\n      swap2\n      pop\n        /* \"#utility.yul\":26400:26493   */\n      tag_725\n        /* \"#utility.yul\":26489:26492   */\n      dup3\n        /* \"#utility.yul\":26400:26493   */\n      tag_443\n      jump\t// in\n    tag_725:\n        /* \"#utility.yul\":26518:26520   */\n      0x20\n        /* \"#utility.yul\":26513:26516   */\n      dup3\n        /* \"#utility.yul\":26509:26521   */\n      add\n        /* \"#utility.yul\":26502:26521   */\n      swap1\n      pop\n        /* \"#utility.yul\":26161:26527   */\n      swap2\n      swap1\n      pop\n      jump\t// out\n        /* \"#utility.yul\":26533:26952   */\n    tag_242:\n        /* \"#utility.yul\":26699:26703   */\n      0x00\n        /* \"#utility.yul\":26737:26739   */\n      0x20\n        /* \"#utility.yul\":26726:26735   */\n      dup3\n        /* \"#utility.yul\":26722:26740   */\n      add\n        /* \"#utility.yul\":26714:26740   */\n      swap1\n      pop\n        /* \"#utility.yul\":26786:26795   */\n      dup2\n        /* \"#utility.yul\":26780:26784   */\n      dup2\n        /* \"#utility.yul\":26776:26796   */\n      sub\n        /* \"#utility.yul\":26772:26773   */\n      0x00\n        /* \"#utility.yul\":26761:26770   */\n      dup4\n        /* \"#utility.yul\":26757:26774   */\n      add\n        /* \"#utility.yul\":26750:26797   */\n      mstore\n        /* \"#utility.yul\":26814:26945   */\n      tag_727\n        /* \"#utility.yul\":26940:26944   */\n      dup2\n        /* \"#utility.yul\":26814:26945   */\n      tag_444\n      jump\t// in\n    tag_727:\n        /* \"#utility.yul\":26806:26945   */\n      swap1\n      pop\n        /* \"#utility.yul\":26533:26952   */\n      swap2\n      swap1\n      pop\n      jump\t// out\n        /* \"#utility.yul\":26958:27070   */\n    tag_445:\n        /* \"#utility.yul\":27041:27063   */\n      tag_729\n        /* \"#utility.yul\":27057:27062   */\n      dup2\n        /* \"#utility.yul\":27041:27063   */\n      tag_390\n      jump\t// in\n    tag_729:\n        /* \"#utility.yul\":27036:27039   */\n      dup3\n        /* \"#utility.yul\":27029:27064   */\n      mstore\n        /* \"#utility.yul\":26958:27070   */\n      pop\n      pop\n      jump\t// out\n        /* \"#utility.yul\":27076:27290   */\n    tag_250:\n        /* \"#utility.yul\":27165:27169   */\n      0x00\n        /* \"#utility.yul\":27203:27205   */\n      0x20\n        /* \"#utility.yul\":27192:27201   */\n      dup3\n        /* \"#utility.yul\":27188:27206   */\n      add\n        /* \"#utility.yul\":27180:27206   */\n      swap1\n      pop\n        /* \"#utility.yul\":27216:27283   */\n      tag_731\n        /* \"#utility.yul\":27280:27281   */\n      0x00\n        /* \"#utility.yul\":27269:27278   */\n      dup4\n        /* \"#utility.yul\":27265:27282   */\n      add\n        /* \"#utility.yul\":27256:27262   */\n      dup5\n        /* \"#utility.yul\":27216:27283   */\n      tag_445\n      jump\t// in\n    tag_731:\n        /* \"#utility.yul\":27076:27290   */\n      swap3\n      swap2\n      pop\n      pop\n      jump\t// out\n        /* \"#utility.yul\":27296:27475   */\n    tag_446:\n        /* \"#utility.yul\":27436:27467   */\n      0x506c656467653a207374616b6520616d6f756e74206973207a65726f21000000\n        /* \"#utility.yul\":27432:27433   */\n      0x00\n        /* \"#utility.yul\":27424:27430   */\n      dup3\n        /* \"#utility.yul\":27420:27434   */\n      add\n        /* \"#utility.yul\":27413:27468   */\n      mstore\n        /* \"#utility.yul\":27296:27475   */\n      pop\n      jump\t// out\n        /* \"#utility.yul\":27481:27847   */\n    tag_447:\n        /* \"#utility.yul\":27623:27626   */\n      0x00\n        /* \"#utility.yul\":27644:27711   */\n      tag_734\n        /* \"#utility.yul\":27708:27710   */\n      0x1d\n        /* \"#utility.yul\":27703:27706   */\n      dup4\n        /* \"#utility.yul\":27644:27711   */\n      tag_419\n      jump\t// in\n    tag_734:\n        /* \"#utility.yul\":27637:27711   */\n      swap2\n      pop\n        /* \"#utility.yul\":27720:27813   */\n      tag_735\n        /* \"#utility.yul\":27809:27812   */\n      dup3\n        /* \"#utility.yul\":27720:27813   */\n      tag_446\n      jump\t// in\n    tag_735:\n        /* \"#utility.yul\":27838:27840   */\n      0x20\n        /* \"#utility.yul\":27833:27836   */\n      dup3\n        /* \"#utility.yul\":27829:27841   */\n      add\n        /* \"#utility.yul\":27822:27841   */\n      swap1\n      pop\n        /* \"#utility.yul\":27481:27847   */\n      swap2\n      swap1\n      pop\n      jump\t// out\n        /* \"#utility.yul\":27853:28272   */\n    tag_260:\n        /* \"#utility.yul\":28019:28023   */\n      0x00\n        /* \"#utility.yul\":28057:28059   */\n      0x20\n        /* \"#utility.yul\":28046:28055   */\n      dup3\n        /* \"#utility.yul\":28042:28060   */\n      add\n        /* \"#utility.yul\":28034:28060   */\n      swap1\n      pop\n        /* \"#utility.yul\":28106:28115   */\n      dup2\n        /* \"#utility.yul\":28100:28104   */\n      dup2\n        /* \"#utility.yul\":28096:28116   */\n      sub\n        /* \"#utility.yul\":28092:28093   */\n      0x00\n        /* \"#utility.yul\":28081:28090   */\n      dup4\n        /* \"#utility.yul\":28077:28094   */\n      add\n        /* \"#utility.yul\":28070:28117   */\n      mstore\n        /* \"#utility.yul\":28134:28265   */\n      tag_737\n        /* \"#utility.yul\":28260:28264   */\n      dup2\n        /* \"#utility.yul\":28134:28265   */\n      tag_447\n      jump\t// in\n    tag_737:\n        /* \"#utility.yul\":28126:28265   */\n      swap1\n      pop\n        /* \"#utility.yul\":27853:28272   */\n      swap2\n      swap1\n      pop\n      jump\t// out\n        /* \"#utility.yul\":28278:28503   */\n    tag_448:\n        /* \"#utility.yul\":28418:28452   */\n      0x4f776e61626c653a206e6577206f776e657220697320746865207a65726f2061\n        /* \"#utility.yul\":28414:28415   */\n      0x00\n        /* \"#utility.yul\":28406:28412   */\n      dup3\n        /* \"#utility.yul\":28402:28416   */\n      add\n        /* \"#utility.yul\":28395:28453   */\n      mstore\n        /* \"#utility.yul\":28487:28495   */\n      0x6464726573730000000000000000000000000000000000000000000000000000\n        /* \"#utility.yul\":28482:28484   */\n      0x20\n        /* \"#utility.yul\":28474:28480   */\n      dup3\n        /* \"#utility.yul\":28470:28485   */\n      add\n        /* \"#utility.yul\":28463:28496   */\n      mstore\n        /* \"#utility.yul\":28278:28503   */\n      pop\n      jump\t// out\n        /* \"#utility.yul\":28509:28875   */\n    tag_449:\n        /* \"#utility.yul\":28651:28654   */\n      0x00\n        /* \"#utility.yul\":28672:28739   */\n      tag_740\n        /* \"#utility.yul\":28736:28738   */\n      0x26\n        /* \"#utility.yul\":28731:28734   */\n      dup4\n        /* \"#utility.yul\":28672:28739   */\n      tag_419\n      jump\t// in\n    tag_740:\n        /* \"#utility.yul\":28665:28739   */\n      swap2\n      pop\n        /* \"#utility.yul\":28748:28841   */\n      tag_741\n        /* \"#utility.yul\":28837:28840   */\n      dup3\n        /* \"#utility.yul\":28748:28841   */\n      tag_448\n      jump\t// in\n    tag_741:\n        /* \"#utility.yul\":28866:28868   */\n      0x40\n        /* \"#utility.yul\":28861:28864   */\n      dup3\n        /* \"#utility.yul\":28857:28869   */\n      add\n        /* \"#utility.yul\":28850:28869   */\n      swap1\n      pop\n        /* \"#utility.yul\":28509:28875   */\n      swap2\n      swap1\n      pop\n      jump\t// out\n        /* \"#utility.yul\":28881:29300   */\n    tag_277:\n        /* \"#utility.yul\":29047:29051   */\n      0x00\n        /* \"#utility.yul\":29085:29087   */\n      0x20\n        /* \"#utility.yul\":29074:29083   */\n      dup3\n        /* \"#utility.yul\":29070:29088   */\n      add\n        /* \"#utility.yul\":29062:29088   */\n      swap1\n      pop\n        /* \"#utility.yul\":29134:29143   */\n      dup2\n        /* \"#utility.yul\":29128:29132   */\n      dup2\n        /* \"#utility.yul\":29124:29144   */\n      sub\n        /* \"#utility.yul\":29120:29121   */\n      0x00\n        /* \"#utility.yul\":29109:29118   */\n      dup4\n        /* \"#utility.yul\":29105:29122   */\n      add\n        /* \"#utility.yul\":29098:29145   */\n      mstore\n        /* \"#utility.yul\":29162:29293   */\n      tag_743\n        /* \"#utility.yul\":29288:29292   */\n      dup2\n        /* \"#utility.yul\":29162:29293   */\n      tag_449\n      jump\t// in\n    tag_743:\n        /* \"#utility.yul\":29154:29293   */\n      swap1\n      pop\n        /* \"#utility.yul\":28881:29300   */\n      swap2\n      swap1\n      pop\n      jump\t// out\n        /* \"#utility.yul\":29306:29487   */\n    tag_450:\n        /* \"#utility.yul\":29446:29479   */\n      0x5265656e7472616e637947756172643a207265656e7472616e742063616c6c00\n        /* \"#utility.yul\":29442:29443   */\n      0x00\n        /* \"#utility.yul\":29434:29440   */\n      dup3\n        /* \"#utility.yul\":29430:29444   */\n      add\n        /* \"#utility.yul\":29423:29480   */\n      mstore\n        /* \"#utility.yul\":29306:29487   */\n      pop\n      jump\t// out\n        /* \"#utility.yul\":29493:29859   */\n    tag_451:\n        /* \"#utility.yul\":29635:29638   */\n      0x00\n        /* \"#utility.yul\":29656:29723   */\n      tag_746\n        /* \"#utility.yul\":29720:29722   */\n      0x1f\n        /* \"#utility.yul\":29715:29718   */\n      dup4\n        /* \"#utility.yul\":29656:29723   */\n      tag_419\n      jump\t// in\n    tag_746:\n        /* \"#utility.yul\":29649:29723   */\n      swap2\n      pop\n        /* \"#utility.yul\":29732:29825   */\n      tag_747\n        /* \"#utility.yul\":29821:29824   */\n      dup3\n        /* \"#utility.yul\":29732:29825   */\n      tag_450\n      jump\t// in\n    tag_747:\n        /* \"#utility.yul\":29850:29852   */\n      0x20\n        /* \"#utility.yul\":29845:29848   */\n      dup3\n        /* \"#utility.yul\":29841:29853   */\n      add\n        /* \"#utility.yul\":29834:29853   */\n      swap1\n      pop\n        /* \"#utility.yul\":29493:29859   */\n      swap2\n      swap1\n      pop\n      jump\t// out\n        /* \"#utility.yul\":29865:30284   */\n    tag_285:\n        /* \"#utility.yul\":30031:30035   */\n      0x00\n        /* \"#utility.yul\":30069:30071   */\n      0x20\n        /* \"#utility.yul\":30058:30067   */\n      dup3\n        /* \"#utility.yul\":30054:30072   */\n      add\n        /* \"#utility.yul\":30046:30072   */\n      swap1\n      pop\n        /* \"#utility.yul\":30118:30127   */\n      dup2\n        /* \"#utility.yul\":30112:30116   */\n      dup2\n        /* \"#utility.yul\":30108:30128   */\n      sub\n        /* \"#utility.yul\":30104:30105   */\n      0x00\n        /* \"#utility.yul\":30093:30102   */\n      dup4\n        /* \"#utility.yul\":30089:30106   */\n      add\n        /* \"#utility.yul\":30082:30129   */\n      mstore\n        /* \"#utility.yul\":30146:30277   */\n      tag_749\n        /* \"#utility.yul\":30272:30276   */\n      dup2\n        /* \"#utility.yul\":30146:30277   */\n      tag_451\n      jump\t// in\n    tag_749:\n        /* \"#utility.yul\":30138:30277   */\n      swap1\n      pop\n        /* \"#utility.yul\":29865:30284   */\n      swap2\n      swap1\n      pop\n      jump\t// out\n        /* \"#utility.yul\":30290:30471   */\n    tag_452:\n        /* \"#utility.yul\":30430:30463   */\n      0x506c656467653a207374616b652073746f7265616765206973207a65726f2100\n        /* \"#utility.yul\":30426:30427   */\n      0x00\n        /* \"#utility.yul\":30418:30424   */\n      dup3\n        /* \"#utility.yul\":30414:30428   */\n      add\n        /* \"#utility.yul\":30407:30464   */\n      mstore\n        /* \"#utility.yul\":30290:30471   */\n      pop\n      jump\t// out\n        /* \"#utility.yul\":30477:30843   */\n    tag_453:\n        /* \"#utility.yul\":30619:30622   */\n      0x00\n        /* \"#utility.yul\":30640:30707   */\n      tag_752\n        /* \"#utility.yul\":30704:30706   */\n      0x1f\n        /* \"#utility.yul\":30699:30702   */\n      dup4\n        /* \"#utility.yul\":30640:30707   */\n      tag_419\n      jump\t// in\n    tag_752:\n        /* \"#utility.yul\":30633:30707   */\n      swap2\n      pop\n        /* \"#utility.yul\":30716:30809   */\n      tag_753\n        /* \"#utility.yul\":30805:30808   */\n      dup3\n        /* \"#utility.yul\":30716:30809   */\n      tag_452\n      jump\t// in\n    tag_753:\n        /* \"#utility.yul\":30834:30836   */\n      0x20\n        /* \"#utility.yul\":30829:30832   */\n      dup3\n        /* \"#utility.yul\":30825:30837   */\n      add\n        /* \"#utility.yul\":30818:30837   */\n      swap1\n      pop\n        /* \"#utility.yul\":30477:30843   */\n      swap2\n      swap1\n      pop\n      jump\t// out\n        /* \"#utility.yul\":30849:31268   */\n    tag_290:\n        /* \"#utility.yul\":31015:31019   */\n      0x00\n        /* \"#utility.yul\":31053:31055   */\n      0x20\n        /* \"#utility.yul\":31042:31051   */\n      dup3\n        /* \"#utility.yul\":31038:31056   */\n      add\n        /* \"#utility.yul\":31030:31056   */\n      swap1\n      pop\n        /* \"#utility.yul\":31102:31111   */\n      dup2\n        /* \"#utility.yul\":31096:31100   */\n      dup2\n        /* \"#utility.yul\":31092:31112   */\n      sub\n        /* \"#utility.yul\":31088:31089   */\n      0x00\n        /* \"#utility.yul\":31077:31086   */\n      dup4\n        /* \"#utility.yul\":31073:31090   */\n      add\n        /* \"#utility.yul\":31066:31113   */\n      mstore\n        /* \"#utility.yul\":31130:31261   */\n      tag_755\n        /* \"#utility.yul\":31256:31260   */\n      dup2\n        /* \"#utility.yul\":31130:31261   */\n      tag_453\n      jump\t// in\n    tag_755:\n        /* \"#utility.yul\":31122:31261   */\n      swap1\n      pop\n        /* \"#utility.yul\":30849:31268   */\n      swap2\n      swap1\n      pop\n      jump\t// out\n        /* \"#utility.yul\":31274:31417   */\n    tag_454:\n        /* \"#utility.yul\":31331:31336   */\n      0x00\n        /* \"#utility.yul\":31362:31368   */\n      dup2\n        /* \"#utility.yul\":31356:31369   */\n      mload\n        /* \"#utility.yul\":31347:31369   */\n      swap1\n      pop\n        /* \"#utility.yul\":31378:31411   */\n      tag_757\n        /* \"#utility.yul\":31405:31410   */\n      dup2\n        /* \"#utility.yul\":31378:31411   */\n      tag_388\n      jump\t// in\n    tag_757:\n        /* \"#utility.yul\":31274:31417   */\n      swap3\n      swap2\n      pop\n      pop\n      jump\t// out\n        /* \"#utility.yul\":31423:31774   */\n    tag_296:\n        /* \"#utility.yul\":31493:31499   */\n      0x00\n        /* \"#utility.yul\":31542:31544   */\n      0x20\n        /* \"#utility.yul\":31530:31539   */\n      dup3\n        /* \"#utility.yul\":31521:31528   */\n      dup5\n        /* \"#utility.yul\":31517:31540   */\n      sub\n        /* \"#utility.yul\":31513:31545   */\n      slt\n        /* \"#utility.yul\":31510:31629   */\n      iszero\n      tag_759\n      jumpi\n        /* \"#utility.yul\":31548:31627   */\n      tag_760\n      tag_382\n      jump\t// in\n    tag_760:\n        /* \"#utility.yul\":31510:31629   */\n    tag_759:\n        /* \"#utility.yul\":31668:31669   */\n      0x00\n        /* \"#utility.yul\":31693:31757   */\n      tag_761\n        /* \"#utility.yul\":31749:31756   */\n      dup5\n        /* \"#utility.yul\":31740:31746   */\n      dup3\n        /* \"#utility.yul\":31729:31738   */\n      dup6\n        /* \"#utility.yul\":31725:31747   */\n      add\n        /* \"#utility.yul\":31693:31757   */\n      tag_454\n      jump\t// in\n    tag_761:\n        /* \"#utility.yul\":31683:31757   */\n      swap2\n      pop\n        /* \"#utility.yul\":31639:31767   */\n      pop\n        /* \"#utility.yul\":31423:31774   */\n      swap3\n      swap2\n      pop\n      pop\n      jump\t// out\n        /* \"#utility.yul\":31780:31957   */\n    tag_455:\n        /* \"#utility.yul\":31920:31949   */\n      0x506c656467653a2062616c616e6365206e6f7420656e6f756768210000000000\n        /* \"#utility.yul\":31916:31917   */\n      0x00\n        /* \"#utility.yul\":31908:31914   */\n      dup3\n        /* \"#utility.yul\":31904:31918   */\n      add\n        /* \"#utility.yul\":31897:31950   */\n      mstore\n        /* \"#utility.yul\":31780:31957   */\n      pop\n      jump\t// out\n        /* \"#utility.yul\":31963:32329   */\n    tag_456:\n        /* \"#utility.yul\":32105:32108   */\n      0x00\n        /* \"#utility.yul\":32126:32193   */\n      tag_764\n        /* \"#utility.yul\":32190:32192   */\n      0x1b\n        /* \"#utility.yul\":32185:32188   */\n      dup4\n        /* \"#utility.yul\":32126:32193   */\n      tag_419\n      jump\t// in\n    tag_764:\n        /* \"#utility.yul\":32119:32193   */\n      swap2\n      pop\n        /* \"#utility.yul\":32202:32295   */\n      tag_765\n        /* \"#utility.yul\":32291:32294   */\n      dup3\n        /* \"#utility.yul\":32202:32295   */\n      tag_455\n      jump\t// in\n    tag_765:\n        /* \"#utility.yul\":32320:32322   */\n      0x20\n        /* \"#utility.yul\":32315:32318   */\n      dup3\n        /* \"#utility.yul\":32311:32323   */\n      add\n        /* \"#utility.yul\":32304:32323   */\n      swap1\n      pop\n        /* \"#utility.yul\":31963:32329   */\n      swap2\n      swap1\n      pop\n      jump\t// out\n        /* \"#utility.yul\":32335:32754   */\n    tag_299:\n        /* \"#utility.yul\":32501:32505   */\n      0x00\n        /* \"#utility.yul\":32539:32541   */\n      0x20\n        /* \"#utility.yul\":32528:32537   */\n      dup3\n        /* \"#utility.yul\":32524:32542   */\n      add\n        /* \"#utility.yul\":32516:32542   */\n      swap1\n      pop\n        /* \"#utility.yul\":32588:32597   */\n      dup2\n        /* \"#utility.yul\":32582:32586   */\n      dup2\n        /* \"#utility.yul\":32578:32598   */\n      sub\n        /* \"#utility.yul\":32574:32575   */\n      0x00\n        /* \"#utility.yul\":32563:32572   */\n      dup4\n        /* \"#utility.yul\":32559:32576   */\n      add\n        /* \"#utility.yul\":32552:32599   */\n      mstore\n        /* \"#utility.yul\":32616:32747   */\n      tag_767\n        /* \"#utility.yul\":32742:32746   */\n      dup2\n        /* \"#utility.yul\":32616:32747   */\n      tag_456\n      jump\t// in\n    tag_767:\n        /* \"#utility.yul\":32608:32747   */\n      swap1\n      pop\n        /* \"#utility.yul\":32335:32754   */\n      swap2\n      swap1\n      pop\n      jump\t// out\n        /* \"#utility.yul\":32760:33202   */\n    tag_305:\n        /* \"#utility.yul\":32909:32913   */\n      0x00\n        /* \"#utility.yul\":32947:32949   */\n      0x60\n        /* \"#utility.yul\":32936:32945   */\n      dup3\n        /* \"#utility.yul\":32932:32950   */\n      add\n        /* \"#utility.yul\":32924:32950   */\n      swap1\n      pop\n        /* \"#utility.yul\":32960:33031   */\n      tag_769\n        /* \"#utility.yul\":33028:33029   */\n      0x00\n        /* \"#utility.yul\":33017:33026   */\n      dup4\n        /* \"#utility.yul\":33013:33030   */\n      add\n        /* \"#utility.yul\":33004:33010   */\n      dup7\n        /* \"#utility.yul\":32960:33031   */\n      tag_393\n      jump\t// in\n    tag_769:\n        /* \"#utility.yul\":33041:33113   */\n      tag_770\n        /* \"#utility.yul\":33109:33111   */\n      0x20\n        /* \"#utility.yul\":33098:33107   */\n      dup4\n        /* \"#utility.yul\":33094:33112   */\n      add\n        /* \"#utility.yul\":33085:33091   */\n      dup6\n        /* \"#utility.yul\":33041:33113   */\n      tag_393\n      jump\t// in\n    tag_770:\n        /* \"#utility.yul\":33123:33195   */\n      tag_771\n        /* \"#utility.yul\":33191:33193   */\n      0x40\n        /* \"#utility.yul\":33180:33189   */\n      dup4\n        /* \"#utility.yul\":33176:33194   */\n      add\n        /* \"#utility.yul\":33167:33173   */\n      dup5\n        /* \"#utility.yul\":33123:33195   */\n      tag_380\n      jump\t// in\n    tag_771:\n        /* \"#utility.yul\":32760:33202   */\n      swap5\n      swap4\n      pop\n      pop\n      pop\n      pop\n      jump\t// out\n        /* \"#utility.yul\":33208:33390   */\n    tag_457:\n        /* \"#utility.yul\":33348:33382   */\n      0x4f776e61626c653a2063616c6c6572206973206e6f7420746865206f776e6572\n        /* \"#utility.yul\":33344:33345   */\n      0x00\n        /* \"#utility.yul\":33336:33342   */\n      dup3\n        /* \"#utility.yul\":33332:33346   */\n      add\n        /* \"#utility.yul\":33325:33383   */\n      mstore\n        /* \"#utility.yul\":33208:33390   */\n      pop\n      jump\t// out\n        /* \"#utility.yul\":33396:33762   */\n    tag_458:\n        /* \"#utility.yul\":33538:33541   */\n      0x00\n        /* \"#utility.yul\":33559:33626   */\n      tag_774\n        /* \"#utility.yul\":33623:33625   */\n      0x20\n        /* \"#utility.yul\":33618:33621   */\n      dup4\n        /* \"#utility.yul\":33559:33626   */\n      tag_419\n      jump\t// in\n    tag_774:\n        /* \"#utility.yul\":33552:33626   */\n      swap2\n      pop\n        /* \"#utility.yul\":33635:33728   */\n      tag_775\n        /* \"#utility.yul\":33724:33727   */\n      dup3\n        /* \"#utility.yul\":33635:33728   */\n      tag_457\n      jump\t// in\n    tag_775:\n        /* \"#utility.yul\":33753:33755   */\n      0x20\n        /* \"#utility.yul\":33748:33751   */\n      dup3\n        /* \"#utility.yul\":33744:33756   */\n      add\n        /* \"#utility.yul\":33737:33756   */\n      swap1\n      pop\n        /* \"#utility.yul\":33396:33762   */\n      swap2\n      swap1\n      pop\n      jump\t// out\n        /* \"#utility.yul\":33768:34187   */\n    tag_327:\n        /* \"#utility.yul\":33934:33938   */\n      0x00\n        /* \"#utility.yul\":33972:33974   */\n      0x20\n        /* \"#utility.yul\":33961:33970   */\n      dup3\n        /* \"#utility.yul\":33957:33975   */\n      add\n        /* \"#utility.yul\":33949:33975   */\n      swap1\n      pop\n        /* \"#utility.yul\":34021:34030   */\n      dup2\n        /* \"#utility.yul\":34015:34019   */\n      dup2\n        /* \"#utility.yul\":34011:34031   */\n      sub\n        /* \"#utility.yul\":34007:34008   */\n      0x00\n        /* \"#utility.yul\":33996:34005   */\n      dup4\n        /* \"#utility.yul\":33992:34009   */\n      add\n        /* \"#utility.yul\":33985:34032   */\n      mstore\n        /* \"#utility.yul\":34049:34180   */\n      tag_777\n        /* \"#utility.yul\":34175:34179   */\n      dup2\n        /* \"#utility.yul\":34049:34180   */\n      tag_458\n      jump\t// in\n    tag_777:\n        /* \"#utility.yul\":34041:34180   */\n      swap1\n      pop\n        /* \"#utility.yul\":33768:34187   */\n      swap2\n      swap1\n      pop\n      jump\t// out\n        /* \"#utility.yul\":34193:34362   */\n    tag_459:\n        /* \"#utility.yul\":34333:34354   */\n      0x456c656d656e74206e6f7420696e207365742e00000000000000000000000000\n        /* \"#utility.yul\":34329:34330   */\n      0x00\n        /* \"#utility.yul\":34321:34327   */\n      dup3\n        /* \"#utility.yul\":34317:34331   */\n      add\n        /* \"#utility.yul\":34310:34355   */\n      mstore\n        /* \"#utility.yul\":34193:34362   */\n      pop\n      jump\t// out\n        /* \"#utility.yul\":34368:34734   */\n    tag_460:\n        /* \"#utility.yul\":34510:34513   */\n      0x00\n        /* \"#utility.yul\":34531:34598   */\n      tag_780\n        /* \"#utility.yul\":34595:34597   */\n      0x13\n        /* \"#utility.yul\":34590:34593   */\n      dup4\n        /* \"#utility.yul\":34531:34598   */\n      tag_419\n      jump\t// in\n    tag_780:\n        /* \"#utility.yul\":34524:34598   */\n      swap2\n      pop\n        /* \"#utility.yul\":34607:34700   */\n      tag_781\n        /* \"#utility.yul\":34696:34699   */\n      dup3\n        /* \"#utility.yul\":34607:34700   */\n      tag_459\n      jump\t// in\n    tag_781:\n        /* \"#utility.yul\":34725:34727   */\n      0x20\n        /* \"#utility.yul\":34720:34723   */\n      dup3\n        /* \"#utility.yul\":34716:34728   */\n      add\n        /* \"#utility.yul\":34709:34728   */\n      swap1\n      pop\n        /* \"#utility.yul\":34368:34734   */\n      swap2\n      swap1\n      pop\n      jump\t// out\n        /* \"#utility.yul\":34740:35159   */\n    tag_340:\n        /* \"#utility.yul\":34906:34910   */\n      0x00\n        /* \"#utility.yul\":34944:34946   */\n      0x20\n        /* \"#utility.yul\":34933:34942   */\n      dup3\n        /* \"#utility.yul\":34929:34947   */\n      add\n        /* \"#utility.yul\":34921:34947   */\n      swap1\n      pop\n        /* \"#utility.yul\":34993:35002   */\n      dup2\n        /* \"#utility.yul\":34987:34991   */\n      dup2\n        /* \"#utility.yul\":34983:35003   */\n      sub\n        /* \"#utility.yul\":34979:34980   */\n      0x00\n        /* \"#utility.yul\":34968:34977   */\n      dup4\n        /* \"#utility.yul\":34964:34981   */\n      add\n        /* \"#utility.yul\":34957:35004   */\n      mstore\n        /* \"#utility.yul\":35021:35152   */\n      tag_783\n        /* \"#utility.yul\":35147:35151   */\n      dup2\n        /* \"#utility.yul\":35021:35152   */\n      tag_460\n      jump\t// in\n    tag_783:\n        /* \"#utility.yul\":35013:35152   */\n      swap1\n      pop\n        /* \"#utility.yul\":34740:35159   */\n      swap2\n      swap1\n      pop\n      jump\t// out\n        /* \"#utility.yul\":35165:35345   */\n    tag_351:\n        /* \"#utility.yul\":35213:35290   */\n      0x4e487b7100000000000000000000000000000000000000000000000000000000\n        /* \"#utility.yul\":35210:35211   */\n      0x00\n        /* \"#utility.yul\":35203:35291   */\n      mstore\n        /* \"#utility.yul\":35310:35314   */\n      0x31\n        /* \"#utility.yul\":35307:35308   */\n      0x04\n        /* \"#utility.yul\":35300:35315   */\n      mstore\n        /* \"#utility.yul\":35334:35338   */\n      0x24\n        /* \"#utility.yul\":35331:35332   */\n      0x00\n        /* \"#utility.yul\":35324:35339   */\n      revert\n        /* \"#utility.yul\":35351:35584   */\n    tag_374:\n        /* \"#utility.yul\":35390:35393   */\n      0x00\n        /* \"#utility.yul\":35413:35437   */\n      tag_786\n        /* \"#utility.yul\":35431:35436   */\n      dup3\n        /* \"#utility.yul\":35413:35437   */\n      tag_379\n      jump\t// in\n    tag_786:\n        /* \"#utility.yul\":35404:35437   */\n      swap2\n      pop\n        /* \"#utility.yul\":35459:35525   */\n      0xffffffffffffffffffffffffffffffffffffffffffffffffffffffffffffffff\n        /* \"#utility.yul\":35452:35457   */\n      dup3\n        /* \"#utility.yul\":35449:35526   */\n      sub\n        /* \"#utility.yul\":35446:35549   */\n      tag_787\n      jumpi\n        /* \"#utility.yul\":35529:35547   */\n      tag_788\n      tag_427\n      jump\t// in\n    tag_788:\n        /* \"#utility.yul\":35446:35549   */\n    tag_787:\n        /* \"#utility.yul\":35576:35577   */\n      0x01\n        /* \"#utility.yul\":35569:35574   */\n      dup3\n        /* \"#utility.yul\":35565:35578   */\n      add\n        /* \"#utility.yul\":35558:35578   */\n      swap1\n      pop\n        /* \"#utility.yul\":35351:35584   */\n      swap2\n      swap1\n      pop\n      jump\t// out\n\n    auxdata: 0xa26469706673582212203d52f649abbeebe9eb7a0ae8e72b4c2ddf0eff0be3129ddb17dddfb96c993f5764736f6c63430008120033\n}\n",
				"bytecode": {
					"linkReferences": {},
					"object": "60806040523480156200001157600080fd5b506040516200353838038062003538833981810160405281019062000037919062000248565b620000576200004b6200011260201b60201c565b6200011a60201b60201c565b6001808190555080600460006101000a81548173ffffffffffffffffffffffffffffffffffffffff021916908373ffffffffffffffffffffffffffffffffffffffff16021790555081600260006101000a81548173ffffffffffffffffffffffffffffffffffffffff021916908373ffffffffffffffffffffffffffffffffffffffff160217905550670de0b6b3a7640000600581905550670de0b6b3a76400006006819055506402540be40060078190555050506200028f565b600033905090565b60008060009054906101000a900473ffffffffffffffffffffffffffffffffffffffff169050816000806101000a81548173ffffffffffffffffffffffffffffffffffffffff021916908373ffffffffffffffffffffffffffffffffffffffff1602179055508173ffffffffffffffffffffffffffffffffffffffff168173ffffffffffffffffffffffffffffffffffffffff167f8be0079c531659141344cd1fd0a4f28419497f9722a3daafe3b4186f6b6457e060405160405180910390a35050565b600080fd5b600073ffffffffffffffffffffffffffffffffffffffff82169050919050565b60006200021082620001e3565b9050919050565b620002228162000203565b81146200022e57600080fd5b50565b600081519050620002428162000217565b92915050565b60008060408385031215620002625762000261620001de565b5b6000620002728582860162000231565b9250506020620002858582860162000231565b9150509250929050565b613299806200029f6000396000f3fe608060405234801561001057600080fd5b50600436106101a85760003560e01c8063797327ae116100f9578063b96bb66f11610097578063dde20c5411610071578063dde20c54146104d6578063f2fde38b14610506578063f30589c314610522578063fc0c546a14610540576101a8565b8063b96bb66f1461047c578063bf7e86491461049a578063cafc8658146104b8576101a8565b806398575188116100d357806398575188146103e0578063aed1d40314610410578063b37e67e41461042e578063b83f783f1461045e576101a8565b8063797327ae146103745780638da5cb5b146103a4578063975057e7146103c2576101a8565b80633b962c53116101665780635bf1196f116101405780635bf1196f146102eb5780636c8939cd1461031b5780636d746cfb1461034c578063715018a61461036a576101a8565b80633b962c53146102835780633e84681a1461029f57806355f314c4146102cf576101a8565b8062c9e74d146101ad57806305ccac1f146101cb57806310087fb1146101fd57806316f0115b146102195780631ff512d1146102375780632bbf9b8c14610267575b600080fd5b6101b561055e565b6040516101c2919061205f565b60405180910390f35b6101e560048036038101906101e091906120ec565b610564565b6040516101f493929190612119565b60405180910390f35b610217600480360381019061021291906121b5565b61058e565b005b610221610730565b60405161022e9190612204565b60405180910390f35b610251600480360381019061024c91906120ec565b610756565b60405161025e919061205f565b60405180910390f35b610281600480360381019061027c91906120ec565b6107af565b005b61029d6004803603810190610298919061221f565b6107fb565b005b6102b960048036038101906102b491906120ec565b610a78565b6040516102c6919061205f565b60405180910390f35b6102e960048036038101906102e4919061254e565b610a90565b005b6103056004803603810190610300919061221f565b610d56565b6040516103129190612746565b60405180910390f35b610335600480360381019061033091906120ec565b610de5565b604051610343929190612768565b60405180910390f35b610354610e09565b604051610361919061205f565b60405180910390f35b610372610e1a565b005b61038e600480360381019061038991906120ec565b610e2e565b60405161039b91906127ac565b60405180910390f35b6103ac610e42565b6040516103b99190612204565b60405180910390f35b6103ca610e6b565b6040516103d79190612204565b60405180910390f35b6103fa60048036038101906103f591906120ec565b610e91565b60405161040791906127ac565b60405180910390f35b61041861112d565b604051610425919061205f565b60405180910390f35b610448600480360381019061044391906127c7565b61113e565b60405161045591906127ac565b60405180910390f35b610466611361565b604051610473919061205f565b60405180910390f35b610484611368565b604051610491919061205f565b60405180910390f35b6104a261136e565b6040516104af919061205f565b60405180910390f35b6104c0611374565b6040516104cd9190612746565b60405180910390f35b6104f060048036038101906104eb91906120ec565b611391565b6040516104fd91906127ac565b60405180910390f35b610520600480360381019061051b91906120ec565b6113a5565b005b61052a611428565b6040516105379190612746565b60405180910390f35b610548611445565b6040516105559190612204565b60405180910390f35b60055481565b600c6020528060005260406000206000915090508060000154908060010154908060020154905083565b61059661146b565b60028160ff1614806105ab575060038160ff16145b6105ea576040517f08c379a00000000000000000000000000000000000000000000000000000000081526004016105e190612864565b60405180910390fd5b6000600960006105f86114ba565b73ffffffffffffffffffffffffffffffffffffffff1673ffffffffffffffffffffffffffffffffffffffff16815260200190815260200160002060009054906101000a900460ff1660ff1614806106a557506002600960006106586114ba565b73ffffffffffffffffffffffffffffffffffffffff1673ffffffffffffffffffffffffffffffffffffffff16815260200190815260200160002060009054906101000a900460ff1660ff16145b6106e4576040517f08c379a00000000000000000000000000000000000000000000000000000000081526004016106db906128d0565b60405180910390fd5b60028160ff160361070657610700826106fb6114ba565b6114c2565b50610724565b60038160ff16036107235761072161071c6114ba565b61189b565b505b5b61072c61196a565b5050565b600260009054906101000a900473ffffffffffffffffffffffffffffffffffffffff1681565b6000600960008373ffffffffffffffffffffffffffffffffffffffff1673ffffffffffffffffffffffffffffffffffffffff16815260200190815260200160002060009054906101000a900460ff1660ff169050919050565b6107b7611973565b80600360006101000a81548173ffffffffffffffffffffffffffffffffffffffff021916908373ffffffffffffffffffffffffffffffffffffffff16021790555050565b61080361146b565b601e811015801561082057506000601e8261081e919061291f565b145b61085f576040517f08c379a0000000000000000000000000000000000000000000000000000000008152600401610856906129c2565b60405180910390fd5b60016009600061086d6114ba565b73ffffffffffffffffffffffffffffffffffffffff1673ffffffffffffffffffffffffffffffffffffffff16815260200190815260200160002060006101000a81548160ff021916908360ff16021790555061040080610400846108d19190612a11565b6108db9190612a11565b6108e59190612a11565b915081600c60006108f46114ba565b73ffffffffffffffffffffffffffffffffffffffff1673ffffffffffffffffffffffffffffffffffffffff16815260200190815260200160002060000160008282546109409190612a53565b9250508190555081600c60006109546114ba565b73ffffffffffffffffffffffffffffffffffffffff1673ffffffffffffffffffffffffffffffffffffffff16815260200190815260200160002060010160008282546109a09190612a53565b9250508190555062015180816109b69190612a11565b600c60006109c26114ba565b73ffffffffffffffffffffffffffffffffffffffff1673ffffffffffffffffffffffffffffffffffffffff1681526020019081526020016000206002016000828254610a0e9190612a53565b92505081905550610a1d6114ba565b73ffffffffffffffffffffffffffffffffffffffff167f5bdf3f5623fa7ae0fa364fa40561a15fbdbdc8cb2b162ac2820678880f17c2598383604051610a64929190612768565b60405180910390a2610a7461196a565b5050565b600b6020528060005260406000206000915090505481565b610a9861146b565b600085600c60008473ffffffffffffffffffffffffffffffffffffffff1673ffffffffffffffffffffffffffffffffffffffff16815260200190815260200160002060010154610ae89190612a87565b1015610b29576040517f08c379a0000000000000000000000000000000000000000000000000000000008152600401610b2090612b07565b60405180910390fd5b6000600360009054906101000a900473ffffffffffffffffffffffffffffffffffffffff1673ffffffffffffffffffffffffffffffffffffffff166347618f188b8b8b8b8b8a8a8a6040518963ffffffff1660e01b8152600401610b94989796959493929190612ca1565b6020604051808303816000875af1158015610bb3573d6000803e3d6000fd5b505050506040513d601f19601f82011682018060405250810190610bd79190612d67565b905080610c10576040517f90b8ec1800000000000000000000000000000000000000000000000000000000815260040160405180910390fd5b85600c60008473ffffffffffffffffffffffffffffffffffffffff1673ffffffffffffffffffffffffffffffffffffffff1681526020019081526020016000206001016000828254610c629190612a87565b9250508190555060005b8a51811015610cf35785600a60008d8481518110610c8d57610c8c612d94565b5b602002602001015173ffffffffffffffffffffffffffffffffffffffff1673ffffffffffffffffffffffffffffffffffffffff1681526020019081526020016000206001016000828254610ce19190612a87565b92505081905550806001019050610c6c565b508173ffffffffffffffffffffffffffffffffffffffff167f30ebd9082452f045cbb677f33bafcd83242c048d21fa3f84705ab051a900ac3387604051610d3a919061205f565b60405180910390a250610d4b61196a565b505050505050505050565b60606000610d62611374565b905082815111610d755780915050610ddf565b60008367ffffffffffffffff811115610d9157610d90612275565b5b604051908082528060200260200182016040528015610dbf5781602001602082028036833780820191505090505b5090506000849050600080610dd4600d6119f1565b905083955050505050505b92915050565b600a6020528060005260406000206000915090508060000154908060010154905082565b6000610e15600d6119f1565b905090565b610e22611973565b610e2c6000611a02565b565b6000610e3b600f83611ac6565b9050919050565b60008060009054906101000a900473ffffffffffffffffffffffffffffffffffffffff16905090565b600360009054906101000a900473ffffffffffffffffffffffffffffffffffffffff1681565b6000610e9b611973565b6000600960008473ffffffffffffffffffffffffffffffffffffffff1673ffffffffffffffffffffffffffffffffffffffff16815260200190815260200160002060009054906101000a900460ff1660ff1603610f2d576040517f08c379a0000000000000000000000000000000000000000000000000000000008152600401610f2490612e0f565b60405180910390fd5b6001600960008473ffffffffffffffffffffffffffffffffffffffff1673ffffffffffffffffffffffffffffffffffffffff16815260200190815260200160002060009054906101000a900460ff1660ff1603610f9457610f8f600d83611bab565b610ff8565b6002600960008473ffffffffffffffffffffffffffffffffffffffff1673ffffffffffffffffffffffffffffffffffffffff16815260200190815260200160002060009054906101000a900460ff1660ff1603610ff757610ff6600f83611bab565b5b5b8173ffffffffffffffffffffffffffffffffffffffff167fc0944d59892e6715b5f3fbf230ed4545fc611c304ac5e1827e583585b4180159600960008573ffffffffffffffffffffffffffffffffffffffff1673ffffffffffffffffffffffffffffffffffffffff16815260200190815260200160002060009054906101000a900460ff1660405161108a9190612e3e565b60405180910390a2600960008373ffffffffffffffffffffffffffffffffffffffff1673ffffffffffffffffffffffffffffffffffffffff16815260200190815260200160002060006101000a81549060ff0219169055600b60008373ffffffffffffffffffffffffffffffffffffffff1673ffffffffffffffffffffffffffffffffffffffff1681526020019081526020016000206000905560019050919050565b6000611139600f6119f1565b905090565b6000611148611973565b6000600960008573ffffffffffffffffffffffffffffffffffffffff1673ffffffffffffffffffffffffffffffffffffffff16815260200190815260200160002060009054906101000a900460ff1660ff16036111da576040517f08c379a00000000000000000000000000000000000000000000000000000000081526004016111d190612e0f565b60405180910390fd5b6000600b60008573ffffffffffffffffffffffffffffffffffffffff1673ffffffffffffffffffffffffffffffffffffffff16815260200190815260200160002054101561125d576040517f08c379a000000000000000000000000000000000000000000000000000000000815260040161125490612ea5565b60405180910390fd5b81600b60008573ffffffffffffffffffffffffffffffffffffffff1673ffffffffffffffffffffffffffffffffffffffff16815260200190815260200160002054116112fe5781600b60008573ffffffffffffffffffffffffffffffffffffffff1673ffffffffffffffffffffffffffffffffffffffff16815260200190815260200160002060008282546112f29190612a87565b92505081905550611309565b61130783610e91565b505b8273ffffffffffffffffffffffffffffffffffffffff167f53fcb0d5ac9969dcec28baa60beb9b56b28fa301971f7e19c6c8beb0d1e86ece8360405161134f919061205f565b60405180910390a26001905092915050565b6201518081565b60065481565b60075481565b606061138c600d6000611387600d6119f1565b611dd9565b905090565b600061139e600d83611ac6565b9050919050565b6113ad611973565b600073ffffffffffffffffffffffffffffffffffffffff168173ffffffffffffffffffffffffffffffffffffffff160361141c576040517f08c379a000000000000000000000000000000000000000000000000000000000815260040161141390612f37565b60405180910390fd5b61142581611a02565b50565b6060611440600f600061143b600f6119f1565b611dd9565b905090565b600460009054906101000a900473ffffffffffffffffffffffffffffffffffffffff1681565b6002600154036114b0576040517f08c379a00000000000000000000000000000000000000000000000000000000081526004016114a790612fa3565b60405180910390fd5b6002600181905550565b600033905090565b6000808311611506576040517f08c379a00000000000000000000000000000000000000000000000000000000081526004016114fd9061300f565b60405180910390fd5b6000836005546115169190612a11565b905080600460009054906101000a900473ffffffffffffffffffffffffffffffffffffffff1673ffffffffffffffffffffffffffffffffffffffff166370a08231856040518263ffffffff1660e01b81526004016115749190612204565b602060405180830381865afa158015611591573d6000803e3d6000fd5b505050506040513d601f19601f820116820180604052508101906115b59190613044565b10156115f6576040517f08c379a00000000000000000000000000000000000000000000000000000000081526004016115ed906130bd565b60405180910390fd5b611601600d84611ac6565b61161157611610600d84611f81565b5b6000600460009054906101000a900473ffffffffffffffffffffffffffffffffffffffff1673ffffffffffffffffffffffffffffffffffffffff166323b872dd85600260009054906101000a900473ffffffffffffffffffffffffffffffffffffffff16856040518463ffffffff1660e01b8152600401611694939291906130dd565b6020604051808303816000875af11580156116b3573d6000803e3d6000fd5b505050506040513d601f19601f820116820180604052508101906116d79190612d67565b905080611710576040517f90b8ec1800000000000000000000000000000000000000000000000000000000815260040160405180910390fd5b61040080610400876117229190612a11565b61172c9190612a11565b6117369190612a11565b945084600a60008673ffffffffffffffffffffffffffffffffffffffff1673ffffffffffffffffffffffffffffffffffffffff168152602001908152602001600020600001600082825461178a9190612a53565b9250508190555081600b60008673ffffffffffffffffffffffffffffffffffffffff1673ffffffffffffffffffffffffffffffffffffffff16815260200190815260200160002060008282546117e09190612a53565b925050819055506002600960008673ffffffffffffffffffffffffffffffffffffffff1673ffffffffffffffffffffffffffffffffffffffff16815260200190815260200160002060006101000a81548160ff021916908360ff1602179055508373ffffffffffffffffffffffffffffffffffffffff167fe04f064c94fe0edee3c04978ea069c5445cf7146e23ed179c153983e447783118387604051611888929190612768565b60405180910390a2809250505092915050565b60006118a8600f83611ac6565b6118b8576118b7600f83611f81565b5b6003600960008473ffffffffffffffffffffffffffffffffffffffff1673ffffffffffffffffffffffffffffffffffffffff16815260200190815260200160002060006101000a81548160ff021916908360ff1602179055508173ffffffffffffffffffffffffffffffffffffffff167f261a1e5397da268bd5f5561920d0fd2b3ac2f1a2c9dea7cd9bc679a8f18d87d3600654604051611959919061205f565b60405180910390a260019050919050565b60018081905550565b61197b6114ba565b73ffffffffffffffffffffffffffffffffffffffff16611999610e42565b73ffffffffffffffffffffffffffffffffffffffff16146119ef576040517f08c379a00000000000000000000000000000000000000000000000000000000081526004016119e690613160565b60405180910390fd5b565b600081600001805490509050919050565b60008060009054906101000a900473ffffffffffffffffffffffffffffffffffffffff169050816000806101000a81548173ffffffffffffffffffffffffffffffffffffffff021916908373ffffffffffffffffffffffffffffffffffffffff1602179055508173ffffffffffffffffffffffffffffffffffffffff168173ffffffffffffffffffffffffffffffffffffffff167f8be0079c531659141344cd1fd0a4f28419497f9722a3daafe3b4186f6b6457e060405160405180910390a35050565b600080836000018054905003611adf5760009050611ba5565b60008360010160008473ffffffffffffffffffffffffffffffffffffffff1673ffffffffffffffffffffffffffffffffffffffff168152602001908152602001600020549050600081141580611ba157508273ffffffffffffffffffffffffffffffffffffffff1684600001600081548110611b5e57611b5d612d94565b5b9060005260206000200160009054906101000a900473ffffffffffffffffffffffffffffffffffffffff1673ffffffffffffffffffffffffffffffffffffffff16145b9150505b92915050565b611bb58282611ac6565b611bf4576040517f08c379a0000000000000000000000000000000000000000000000000000000008152600401611beb906131cc565b60405180910390fd5b60008260010160008373ffffffffffffffffffffffffffffffffffffffff1673ffffffffffffffffffffffffffffffffffffffff168152602001908152602001600020549050600060018460000180549050611c509190612a87565b9050808214611d45576000846000018281548110611c7157611c70612d94565b5b9060005260206000200160009054906101000a900473ffffffffffffffffffffffffffffffffffffffff16905080856000018481548110611cb557611cb4612d94565b5b9060005260206000200160006101000a81548173ffffffffffffffffffffffffffffffffffffffff021916908373ffffffffffffffffffffffffffffffffffffffff160217905550828560010160008373ffffffffffffffffffffffffffffffffffffffff1673ffffffffffffffffffffffffffffffffffffffff16815260200190815260200160002081905550505b83600001805480611d5957611d586131ec565b5b6001900381819060005260206000200160006101000a81549073ffffffffffffffffffffffffffffffffffffffff021916905590558360010160008473ffffffffffffffffffffffffffffffffffffffff1673ffffffffffffffffffffffffffffffffffffffff1681526020019081526020016000206000905550505050565b606060008284611de99190612a53565b90508460000180549050811115611e0557846000018054905090505b838111611e5e57600067ffffffffffffffff811115611e2757611e26612275565b5b604051908082528060200260200182016040528015611e555781602001602082028036833780820191505090505b50915050611f7a565b60008482611e6c9190612a87565b905060008167ffffffffffffffff811115611e8a57611e89612275565b5b604051908082528060200260200182016040528015611eb85781602001602082028036833780820191505090505b50905060005b82811015611f7257876000018782611ed69190612a53565b81548110611ee757611ee6612d94565b5b9060005260206000200160009054906101000a900473ffffffffffffffffffffffffffffffffffffffff16828281518110611f2557611f24612d94565b5b602002602001019073ffffffffffffffffffffffffffffffffffffffff16908173ffffffffffffffffffffffffffffffffffffffff16815250508080611f6a9061321b565b915050611ebe565b508093505050505b9392505050565b611f8b8282611ac6565b6120425781600001805490508260010160008373ffffffffffffffffffffffffffffffffffffffff1673ffffffffffffffffffffffffffffffffffffffff1681526020019081526020016000208190555081600001819080600181540180825580915050600190039060005260206000200160009091909190916101000a81548173ffffffffffffffffffffffffffffffffffffffff021916908373ffffffffffffffffffffffffffffffffffffffff1602179055505b5050565b6000819050919050565b61205981612046565b82525050565b60006020820190506120746000830184612050565b92915050565b6000604051905090565b600080fd5b600080fd5b600073ffffffffffffffffffffffffffffffffffffffff82169050919050565b60006120b98261208e565b9050919050565b6120c9816120ae565b81146120d457600080fd5b50565b6000813590506120e6816120c0565b92915050565b60006020828403121561210257612101612084565b5b6000612110848285016120d7565b91505092915050565b600060608201905061212e6000830186612050565b61213b6020830185612050565b6121486040830184612050565b949350505050565b61215981612046565b811461216457600080fd5b50565b60008135905061217681612150565b92915050565b600060ff82169050919050565b6121928161217c565b811461219d57600080fd5b50565b6000813590506121af81612189565b92915050565b600080604083850312156121cc576121cb612084565b5b60006121da85828601612167565b92505060206121eb858286016121a0565b9150509250929050565b6121fe816120ae565b82525050565b600060208201905061221960008301846121f5565b92915050565b6000806040838503121561223657612235612084565b5b600061224485828601612167565b925050602061225585828601612167565b9150509250929050565b600080fd5b6000601f19601f8301169050919050565b7f4e487b7100000000000000000000000000000000000000000000000000000000600052604160045260246000fd5b6122ad82612264565b810181811067ffffffffffffffff821117156122cc576122cb612275565b5b80604052505050565b60006122df61207a565b90506122eb82826122a4565b919050565b600067ffffffffffffffff82111561230b5761230a612275565b5b602082029050602081019050919050565b600080fd5b600061233461232f846122f0565b6122d5565b905080838252602082019050602084028301858111156123575761235661231c565b5b835b81811015612380578061236c88826120d7565b845260208401935050602081019050612359565b5050509392505050565b600082601f83011261239f5761239e61225f565b5b81356123af848260208601612321565b91505092915050565b600067ffffffffffffffff8211156123d3576123d2612275565b5b602082029050602081019050919050565b600080fd5b600067ffffffffffffffff82111561240457612403612275565b5b61240d82612264565b9050602081019050919050565b82818337600083830152505050565b600061243c612437846123e9565b6122d5565b905082815260208101848484011115612458576124576123e4565b5b61246384828561241a565b509392505050565b600082601f8301126124805761247f61225f565b5b8135612490848260208601612429565b91505092915050565b60006124ac6124a7846123b8565b6122d5565b905080838252602082019050602084028301858111156124cf576124ce61231c565b5b835b8181101561251657803567ffffffffffffffff8111156124f4576124f361225f565b5b808601612501898261246b565b855260208501945050506020810190506124d1565b5050509392505050565b600082601f8301126125355761253461225f565b5b8135612545848260208601612499565b91505092915050565b60008060008060008060008060006101208a8c03121561257157612570612084565b5b60008a013567ffffffffffffffff81111561258f5761258e612089565b5b61259b8c828d0161238a565b99505060208a013567ffffffffffffffff8111156125bc576125bb612089565b5b6125c88c828d01612520565b98505060408a013567ffffffffffffffff8111156125e9576125e8612089565b5b6125f58c828d0161246b565b97505060608a013567ffffffffffffffff81111561261657612615612089565b5b6126228c828d0161246b565b96505060806126338c828d01612167565b95505060a06126448c828d01612167565b94505060c06126558c828d01612167565b93505060e06126668c828d01612167565b9250506101006126788c828d016120d7565b9150509295985092959850929598565b600081519050919050565b600082825260208201905092915050565b6000819050602082019050919050565b6126bd816120ae565b82525050565b60006126cf83836126b4565b60208301905092915050565b6000602082019050919050565b60006126f382612688565b6126fd8185612693565b9350612708836126a4565b8060005b8381101561273957815161272088826126c3565b975061272b836126db565b92505060018101905061270c565b5085935050505092915050565b6000602082019050818103600083015261276081846126e8565b905092915050565b600060408201905061277d6000830185612050565b61278a6020830184612050565b9392505050565b60008115159050919050565b6127a681612791565b82525050565b60006020820190506127c1600083018461279d565b92915050565b600080604083850312156127de576127dd612084565b5b60006127ec858286016120d7565b92505060206127fd85828601612167565b9150509250929050565b600082825260208201905092915050565b7f50656c6467653a20726f6c65206e6f7420657869737421000000000000000000600082015250565b600061284e601783612807565b915061285982612818565b602082019050919050565b6000602082019050818103600083015261287d81612841565b9050919050565b7f50656c6467653a20616c7265616479207374616b656421000000000000000000600082015250565b60006128ba601783612807565b91506128c582612884565b602082019050919050565b600060208201905081810360008301526128e9816128ad565b9050919050565b7f4e487b7100000000000000000000000000000000000000000000000000000000600052601260045260246000fd5b600061292a82612046565b915061293583612046565b925082612945576129446128f0565b5b828206905092915050565b7f506c656467653a206275792073746f726167652074696d65207365742065727260008201527f6f72210000000000000000000000000000000000000000000000000000000000602082015250565b60006129ac602383612807565b91506129b782612950565b604082019050919050565b600060208201905081810360008301526129db8161299f565b9050919050565b7f4e487b7100000000000000000000000000000000000000000000000000000000600052601160045260246000fd5b6000612a1c82612046565b9150612a2783612046565b9250828202612a3581612046565b91508282048414831517612a4c57612a4b6129e2565b5b5092915050565b6000612a5e82612046565b9150612a6983612046565b9250828201905080821115612a8157612a806129e2565b5b92915050565b6000612a9282612046565b9150612a9d83612046565b9250828203905081811115612ab557612ab46129e2565b5b92915050565b7f506c656467653a20757365722073746f72616765206e6f7420656e6f75676821600082015250565b6000612af1602083612807565b9150612afc82612abb565b602082019050919050565b60006020820190508181036000830152612b2081612ae4565b9050919050565b600081519050919050565b600082825260208201905092915050565b6000819050602082019050919050565b600081519050919050565b600082825260208201905092915050565b60005b83811015612b8d578082015181840152602081019050612b72565b60008484015250505050565b6000612ba482612b53565b612bae8185612b5e565b9350612bbe818560208601612b6f565b612bc781612264565b840191505092915050565b6000612bde8383612b99565b905092915050565b6000602082019050919050565b6000612bfe82612b27565b612c088185612b32565b935083602082028501612c1a85612b43565b8060005b85811015612c565784840389528151612c378582612bd2565b9450612c4283612be6565b925060208a01995050600181019050612c1e565b50829750879550505050505092915050565b6000612c7382612b53565b612c7d8185612807565b9350612c8d818560208601612b6f565b612c9681612264565b840191505092915050565b6000610100820190508181036000830152612cbc818b6126e8565b90508181036020830152612cd0818a612bf3565b90508181036040830152612ce48189612c68565b90508181036060830152612cf88188612c68565b9050612d076080830187612050565b612d1460a0830186612050565b612d2160c0830185612050565b612d2e60e08301846121f5565b9998505050505050505050565b612d4481612791565b8114612d4f57600080fd5b50565b600081519050612d6181612d3b565b92915050565b600060208284031215612d7d57612d7c612084565b5b6000612d8b84828501612d52565b91505092915050565b7f4e487b7100000000000000000000000000000000000000000000000000000000600052603260045260246000fd5b7f506c656467653a2075736572206e6f7420657869737421000000000000000000600082015250565b6000612df9601783612807565b9150612e0482612dc3565b602082019050919050565b60006020820190508181036000830152612e2881612dec565b9050919050565b612e388161217c565b82525050565b6000602082019050612e536000830184612e2f565b92915050565b7f506c656467653a207374616b6520616d6f756e74206973207a65726f21000000600082015250565b6000612e8f601d83612807565b9150612e9a82612e59565b602082019050919050565b60006020820190508181036000830152612ebe81612e82565b9050919050565b7f4f776e61626c653a206e6577206f776e657220697320746865207a65726f206160008201527f6464726573730000000000000000000000000000000000000000000000000000602082015250565b6000612f21602683612807565b9150612f2c82612ec5565b604082019050919050565b60006020820190508181036000830152612f5081612f14565b9050919050565b7f5265656e7472616e637947756172643a207265656e7472616e742063616c6c00600082015250565b6000612f8d601f83612807565b9150612f9882612f57565b602082019050919050565b60006020820190508181036000830152612fbc81612f80565b9050919050565b7f506c656467653a207374616b652073746f7265616765206973207a65726f2100600082015250565b6000612ff9601f83612807565b915061300482612fc3565b602082019050919050565b6000602082019050818103600083015261302881612fec565b9050919050565b60008151905061303e81612150565b92915050565b60006020828403121561305a57613059612084565b5b60006130688482850161302f565b91505092915050565b7f506c656467653a2062616c616e6365206e6f7420656e6f756768210000000000600082015250565b60006130a7601b83612807565b91506130b282613071565b602082019050919050565b600060208201905081810360008301526130d68161309a565b9050919050565b60006060820190506130f260008301866121f5565b6130ff60208301856121f5565b61310c6040830184612050565b949350505050565b7f4f776e61626c653a2063616c6c6572206973206e6f7420746865206f776e6572600082015250565b600061314a602083612807565b915061315582613114565b602082019050919050565b600060208201905081810360008301526131798161313d565b9050919050565b7f456c656d656e74206e6f7420696e207365742e00000000000000000000000000600082015250565b60006131b6601383612807565b91506131c182613180565b602082019050919050565b600060208201905081810360008301526131e5816131a9565b9050919050565b7f4e487b7100000000000000000000000000000000000000000000000000000000600052603160045260246000fd5b600061322682612046565b91507fffffffffffffffffffffffffffffffffffffffffffffffffffffffffffffffff8203613258576132576129e2565b5b60018201905091905056fea26469706673582212203d52f649abbeebe9eb7a0ae8e72b4c2ddf0eff0be3129ddb17dddfb96c993f5764736f6c63430008120033",
					"opcodes": "PUSH1 0x80 PUSH1 0x40 MSTORE CALLVALUE DUP1 ISZERO PUSH3 0x11 JUMPI PUSH1 0x0 DUP1 REVERT JUMPDEST POP PUSH1 0x40 MLOAD PUSH3 0x3538 CODESIZE SUB DUP1 PUSH3 0x3538 DUP4 CODECOPY DUP2 DUP2 ADD PUSH1 0x40 MSTORE DUP2 ADD SWAP1 PUSH3 0x37 SWAP2 SWAP1 PUSH3 0x248 JUMP JUMPDEST PUSH3 0x57 PUSH3 0x4B PUSH3 0x112 PUSH1 0x20 SHL PUSH1 0x20 SHR JUMP JUMPDEST PUSH3 0x11A PUSH1 0x20 SHL PUSH1 0x20 SHR JUMP JUMPDEST PUSH1 0x1 DUP1 DUP2 SWAP1 SSTORE POP DUP1 PUSH1 0x4 PUSH1 0x0 PUSH2 0x100 EXP DUP2 SLOAD DUP2 PUSH20 0xFFFFFFFFFFFFFFFFFFFFFFFFFFFFFFFFFFFFFFFF MUL NOT AND SWAP1 DUP4 PUSH20 0xFFFFFFFFFFFFFFFFFFFFFFFFFFFFFFFFFFFFFFFF AND MUL OR SWAP1 SSTORE POP DUP2 PUSH1 0x2 PUSH1 0x0 PUSH2 0x100 EXP DUP2 SLOAD DUP2 PUSH20 0xFFFFFFFFFFFFFFFFFFFFFFFFFFFFFFFFFFFFFFFF MUL NOT AND SWAP1 DUP4 PUSH20 0xFFFFFFFFFFFFFFFFFFFFFFFFFFFFFFFFFFFFFFFF AND MUL OR SWAP1 SSTORE POP PUSH8 0xDE0B6B3A7640000 PUSH1 0x5 DUP2 SWAP1 SSTORE POP PUSH8 0xDE0B6B3A7640000 PUSH1 0x6 DUP2 SWAP1 SSTORE POP PUSH5 0x2540BE400 PUSH1 0x7 DUP2 SWAP1 SSTORE POP POP POP PUSH3 0x28F JUMP JUMPDEST PUSH1 0x0 CALLER SWAP1 POP SWAP1 JUMP JUMPDEST PUSH1 0x0 DUP1 PUSH1 0x0 SWAP1 SLOAD SWAP1 PUSH2 0x100 EXP SWAP1 DIV PUSH20 0xFFFFFFFFFFFFFFFFFFFFFFFFFFFFFFFFFFFFFFFF AND SWAP1 POP DUP2 PUSH1 0x0 DUP1 PUSH2 0x100 EXP DUP2 SLOAD DUP2 PUSH20 0xFFFFFFFFFFFFFFFFFFFFFFFFFFFFFFFFFFFFFFFF MUL NOT AND SWAP1 DUP4 PUSH20 0xFFFFFFFFFFFFFFFFFFFFFFFFFFFFFFFFFFFFFFFF AND MUL OR SWAP1 SSTORE POP DUP2 PUSH20 0xFFFFFFFFFFFFFFFFFFFFFFFFFFFFFFFFFFFFFFFF AND DUP2 PUSH20 0xFFFFFFFFFFFFFFFFFFFFFFFFFFFFFFFFFFFFFFFF AND PUSH32 0x8BE0079C531659141344CD1FD0A4F28419497F9722A3DAAFE3B4186F6B6457E0 PUSH1 0x40 MLOAD PUSH1 0x40 MLOAD DUP1 SWAP2 SUB SWAP1 LOG3 POP POP JUMP JUMPDEST PUSH1 0x0 DUP1 REVERT JUMPDEST PUSH1 0x0 PUSH20 0xFFFFFFFFFFFFFFFFFFFFFFFFFFFFFFFFFFFFFFFF DUP3 AND SWAP1 POP SWAP2 SWAP1 POP JUMP JUMPDEST PUSH1 0x0 PUSH3 0x210 DUP3 PUSH3 0x1E3 JUMP JUMPDEST SWAP1 POP SWAP2 SWAP1 POP JUMP JUMPDEST PUSH3 0x222 DUP2 PUSH3 0x203 JUMP JUMPDEST DUP2 EQ PUSH3 0x22E JUMPI PUSH1 0x0 DUP1 REVERT JUMPDEST POP JUMP JUMPDEST PUSH1 0x0 DUP2 MLOAD SWAP1 POP PUSH3 0x242 DUP2 PUSH3 0x217 JUMP JUMPDEST SWAP3 SWAP2 POP POP JUMP JUMPDEST PUSH1 0x0 DUP1 PUSH1 0x40 DUP4 DUP6 SUB SLT ISZERO PUSH3 0x262 JUMPI PUSH3 0x261 PUSH3 0x1DE JUMP JUMPDEST JUMPDEST PUSH1 0x0 PUSH3 0x272 DUP6 DUP3 DUP7 ADD PUSH3 0x231 JUMP JUMPDEST SWAP3 POP POP PUSH1 0x20 PUSH3 0x285 DUP6 DUP3 DUP7 ADD PUSH3 0x231 JUMP JUMPDEST SWAP2 POP POP SWAP3 POP SWAP3 SWAP1 POP JUMP JUMPDEST PUSH2 0x3299 DUP1 PUSH3 0x29F PUSH1 0x0 CODECOPY PUSH1 0x0 RETURN INVALID PUSH1 0x80 PUSH1 0x40 MSTORE CALLVALUE DUP1 ISZERO PUSH2 0x10 JUMPI PUSH1 0x0 DUP1 REVERT JUMPDEST POP PUSH1 0x4 CALLDATASIZE LT PUSH2 0x1A8 JUMPI PUSH1 0x0 CALLDATALOAD PUSH1 0xE0 SHR DUP1 PUSH4 0x797327AE GT PUSH2 0xF9 JUMPI DUP1 PUSH4 0xB96BB66F GT PUSH2 0x97 JUMPI DUP1 PUSH4 0xDDE20C54 GT PUSH2 0x71 JUMPI DUP1 PUSH4 0xDDE20C54 EQ PUSH2 0x4D6 JUMPI DUP1 PUSH4 0xF2FDE38B EQ PUSH2 0x506 JUMPI DUP1 PUSH4 0xF30589C3 EQ PUSH2 0x522 JUMPI DUP1 PUSH4 0xFC0C546A EQ PUSH2 0x540 JUMPI PUSH2 0x1A8 JUMP JUMPDEST DUP1 PUSH4 0xB96BB66F EQ PUSH2 0x47C JUMPI DUP1 PUSH4 0xBF7E8649 EQ PUSH2 0x49A JUMPI DUP1 PUSH4 0xCAFC8658 EQ PUSH2 0x4B8 JUMPI PUSH2 0x1A8 JUMP JUMPDEST DUP1 PUSH4 0x98575188 GT PUSH2 0xD3 JUMPI DUP1 PUSH4 0x98575188 EQ PUSH2 0x3E0 JUMPI DUP1 PUSH4 0xAED1D403 EQ PUSH2 0x410 JUMPI DUP1 PUSH4 0xB37E67E4 EQ PUSH2 0x42E JUMPI DUP1 PUSH4 0xB83F783F EQ PUSH2 0x45E JUMPI PUSH2 0x1A8 JUMP JUMPDEST DUP1 PUSH4 0x797327AE EQ PUSH2 0x374 JUMPI DUP1 PUSH4 0x8DA5CB5B EQ PUSH2 0x3A4 JUMPI DUP1 PUSH4 0x975057E7 EQ PUSH2 0x3C2 JUMPI PUSH2 0x1A8 JUMP JUMPDEST DUP1 PUSH4 0x3B962C53 GT PUSH2 0x166 JUMPI DUP1 PUSH4 0x5BF1196F GT PUSH2 0x140 JUMPI DUP1 PUSH4 0x5BF1196F EQ PUSH2 0x2EB JUMPI DUP1 PUSH4 0x6C8939CD EQ PUSH2 0x31B JUMPI DUP1 PUSH4 0x6D746CFB EQ PUSH2 0x34C JUMPI DUP1 PUSH4 0x715018A6 EQ PUSH2 0x36A JUMPI PUSH2 0x1A8 JUMP JUMPDEST DUP1 PUSH4 0x3B962C53 EQ PUSH2 0x283 JUMPI DUP1 PUSH4 0x3E84681A EQ PUSH2 0x29F JUMPI DUP1 PUSH4 0x55F314C4 EQ PUSH2 0x2CF JUMPI PUSH2 0x1A8 JUMP JUMPDEST DUP1 PUSH3 0xC9E74D EQ PUSH2 0x1AD JUMPI DUP1 PUSH4 0x5CCAC1F EQ PUSH2 0x1CB JUMPI DUP1 PUSH4 0x10087FB1 EQ PUSH2 0x1FD JUMPI DUP1 PUSH4 0x16F0115B EQ PUSH2 0x219 JUMPI DUP1 PUSH4 0x1FF512D1 EQ PUSH2 0x237 JUMPI DUP1 PUSH4 0x2BBF9B8C EQ PUSH2 0x267 JUMPI JUMPDEST PUSH1 0x0 DUP1 REVERT JUMPDEST PUSH2 0x1B5 PUSH2 0x55E JUMP JUMPDEST PUSH1 0x40 MLOAD PUSH2 0x1C2 SWAP2 SWAP1 PUSH2 0x205F JUMP JUMPDEST PUSH1 0x40 MLOAD DUP1 SWAP2 SUB SWAP1 RETURN JUMPDEST PUSH2 0x1E5 PUSH1 0x4 DUP1 CALLDATASIZE SUB DUP2 ADD SWAP1 PUSH2 0x1E0 SWAP2 SWAP1 PUSH2 0x20EC JUMP JUMPDEST PUSH2 0x564 JUMP JUMPDEST PUSH1 0x40 MLOAD PUSH2 0x1F4 SWAP4 SWAP3 SWAP2 SWAP1 PUSH2 0x2119 JUMP JUMPDEST PUSH1 0x40 MLOAD DUP1 SWAP2 SUB SWAP1 RETURN JUMPDEST PUSH2 0x217 PUSH1 0x4 DUP1 CALLDATASIZE SUB DUP2 ADD SWAP1 PUSH2 0x212 SWAP2 SWAP1 PUSH2 0x21B5 JUMP JUMPDEST PUSH2 0x58E JUMP JUMPDEST STOP JUMPDEST PUSH2 0x221 PUSH2 0x730 JUMP JUMPDEST PUSH1 0x40 MLOAD PUSH2 0x22E SWAP2 SWAP1 PUSH2 0x2204 JUMP JUMPDEST PUSH1 0x40 MLOAD DUP1 SWAP2 SUB SWAP1 RETURN JUMPDEST PUSH2 0x251 PUSH1 0x4 DUP1 CALLDATASIZE SUB DUP2 ADD SWAP1 PUSH2 0x24C SWAP2 SWAP1 PUSH2 0x20EC JUMP JUMPDEST PUSH2 0x756 JUMP JUMPDEST PUSH1 0x40 MLOAD PUSH2 0x25E SWAP2 SWAP1 PUSH2 0x205F JUMP JUMPDEST PUSH1 0x40 MLOAD DUP1 SWAP2 SUB SWAP1 RETURN JUMPDEST PUSH2 0x281 PUSH1 0x4 DUP1 CALLDATASIZE SUB DUP2 ADD SWAP1 PUSH2 0x27C SWAP2 SWAP1 PUSH2 0x20EC JUMP JUMPDEST PUSH2 0x7AF JUMP JUMPDEST STOP JUMPDEST PUSH2 0x29D PUSH1 0x4 DUP1 CALLDATASIZE SUB DUP2 ADD SWAP1 PUSH2 0x298 SWAP2 SWAP1 PUSH2 0x221F JUMP JUMPDEST PUSH2 0x7FB JUMP JUMPDEST STOP JUMPDEST PUSH2 0x2B9 PUSH1 0x4 DUP1 CALLDATASIZE SUB DUP2 ADD SWAP1 PUSH2 0x2B4 SWAP2 SWAP1 PUSH2 0x20EC JUMP JUMPDEST PUSH2 0xA78 JUMP JUMPDEST PUSH1 0x40 MLOAD PUSH2 0x2C6 SWAP2 SWAP1 PUSH2 0x205F JUMP JUMPDEST PUSH1 0x40 MLOAD DUP1 SWAP2 SUB SWAP1 RETURN JUMPDEST PUSH2 0x2E9 PUSH1 0x4 DUP1 CALLDATASIZE SUB DUP2 ADD SWAP1 PUSH2 0x2E4 SWAP2 SWAP1 PUSH2 0x254E JUMP JUMPDEST PUSH2 0xA90 JUMP JUMPDEST STOP JUMPDEST PUSH2 0x305 PUSH1 0x4 DUP1 CALLDATASIZE SUB DUP2 ADD SWAP1 PUSH2 0x300 SWAP2 SWAP1 PUSH2 0x221F JUMP JUMPDEST PUSH2 0xD56 JUMP JUMPDEST PUSH1 0x40 MLOAD PUSH2 0x312 SWAP2 SWAP1 PUSH2 0x2746 JUMP JUMPDEST PUSH1 0x40 MLOAD DUP1 SWAP2 SUB SWAP1 RETURN JUMPDEST PUSH2 0x335 PUSH1 0x4 DUP1 CALLDATASIZE SUB DUP2 ADD SWAP1 PUSH2 0x330 SWAP2 SWAP1 PUSH2 0x20EC JUMP JUMPDEST PUSH2 0xDE5 JUMP JUMPDEST PUSH1 0x40 MLOAD PUSH2 0x343 SWAP3 SWAP2 SWAP1 PUSH2 0x2768 JUMP JUMPDEST PUSH1 0x40 MLOAD DUP1 SWAP2 SUB SWAP1 RETURN JUMPDEST PUSH2 0x354 PUSH2 0xE09 JUMP JUMPDEST PUSH1 0x40 MLOAD PUSH2 0x361 SWAP2 SWAP1 PUSH2 0x205F JUMP JUMPDEST PUSH1 0x40 MLOAD DUP1 SWAP2 SUB SWAP1 RETURN JUMPDEST PUSH2 0x372 PUSH2 0xE1A JUMP JUMPDEST STOP JUMPDEST PUSH2 0x38E PUSH1 0x4 DUP1 CALLDATASIZE SUB DUP2 ADD SWAP1 PUSH2 0x389 SWAP2 SWAP1 PUSH2 0x20EC JUMP JUMPDEST PUSH2 0xE2E JUMP JUMPDEST PUSH1 0x40 MLOAD PUSH2 0x39B SWAP2 SWAP1 PUSH2 0x27AC JUMP JUMPDEST PUSH1 0x40 MLOAD DUP1 SWAP2 SUB SWAP1 RETURN JUMPDEST PUSH2 0x3AC PUSH2 0xE42 JUMP JUMPDEST PUSH1 0x40 MLOAD PUSH2 0x3B9 SWAP2 SWAP1 PUSH2 0x2204 JUMP JUMPDEST PUSH1 0x40 MLOAD DUP1 SWAP2 SUB SWAP1 RETURN JUMPDEST PUSH2 0x3CA PUSH2 0xE6B JUMP JUMPDEST PUSH1 0x40 MLOAD PUSH2 0x3D7 SWAP2 SWAP1 PUSH2 0x2204 JUMP JUMPDEST PUSH1 0x40 MLOAD DUP1 SWAP2 SUB SWAP1 RETURN JUMPDEST PUSH2 0x3FA PUSH1 0x4 DUP1 CALLDATASIZE SUB DUP2 ADD SWAP1 PUSH2 0x3F5 SWAP2 SWAP1 PUSH2 0x20EC JUMP JUMPDEST PUSH2 0xE91 JUMP JUMPDEST PUSH1 0x40 MLOAD PUSH2 0x407 SWAP2 SWAP1 PUSH2 0x27AC JUMP JUMPDEST PUSH1 0x40 MLOAD DUP1 SWAP2 SUB SWAP1 RETURN JUMPDEST PUSH2 0x418 PUSH2 0x112D JUMP JUMPDEST PUSH1 0x40 MLOAD PUSH2 0x425 SWAP2 SWAP1 PUSH2 0x205F JUMP JUMPDEST PUSH1 0x40 MLOAD DUP1 SWAP2 SUB SWAP1 RETURN JUMPDEST PUSH2 0x448 PUSH1 0x4 DUP1 CALLDATASIZE SUB DUP2 ADD SWAP1 PUSH2 0x443 SWAP2 SWAP1 PUSH2 0x27C7 JUMP JUMPDEST PUSH2 0x113E JUMP JUMPDEST PUSH1 0x40 MLOAD PUSH2 0x455 SWAP2 SWAP1 PUSH2 0x27AC JUMP JUMPDEST PUSH1 0x40 MLOAD DUP1 SWAP2 SUB SWAP1 RETURN JUMPDEST PUSH2 0x466 PUSH2 0x1361 JUMP JUMPDEST PUSH1 0x40 MLOAD PUSH2 0x473 SWAP2 SWAP1 PUSH2 0x205F JUMP JUMPDEST PUSH1 0x40 MLOAD DUP1 SWAP2 SUB SWAP1 RETURN JUMPDEST PUSH2 0x484 PUSH2 0x1368 JUMP JUMPDEST PUSH1 0x40 MLOAD PUSH2 0x491 SWAP2 SWAP1 PUSH2 0x205F JUMP JUMPDEST PUSH1 0x40 MLOAD DUP1 SWAP2 SUB SWAP1 RETURN JUMPDEST PUSH2 0x4A2 PUSH2 0x136E JUMP JUMPDEST PUSH1 0x40 MLOAD PUSH2 0x4AF SWAP2 SWAP1 PUSH2 0x205F JUMP JUMPDEST PUSH1 0x40 MLOAD DUP1 SWAP2 SUB SWAP1 RETURN JUMPDEST PUSH2 0x4C0 PUSH2 0x1374 JUMP JUMPDEST PUSH1 0x40 MLOAD PUSH2 0x4CD SWAP2 SWAP1 PUSH2 0x2746 JUMP JUMPDEST PUSH1 0x40 MLOAD DUP1 SWAP2 SUB SWAP1 RETURN JUMPDEST PUSH2 0x4F0 PUSH1 0x4 DUP1 CALLDATASIZE SUB DUP2 ADD SWAP1 PUSH2 0x4EB SWAP2 SWAP1 PUSH2 0x20EC JUMP JUMPDEST PUSH2 0x1391 JUMP JUMPDEST PUSH1 0x40 MLOAD PUSH2 0x4FD SWAP2 SWAP1 PUSH2 0x27AC JUMP JUMPDEST PUSH1 0x40 MLOAD DUP1 SWAP2 SUB SWAP1 RETURN JUMPDEST PUSH2 0x520 PUSH1 0x4 DUP1 CALLDATASIZE SUB DUP2 ADD SWAP1 PUSH2 0x51B SWAP2 SWAP1 PUSH2 0x20EC JUMP JUMPDEST PUSH2 0x13A5 JUMP JUMPDEST STOP JUMPDEST PUSH2 0x52A PUSH2 0x1428 JUMP JUMPDEST PUSH1 0x40 MLOAD PUSH2 0x537 SWAP2 SWAP1 PUSH2 0x2746 JUMP JUMPDEST PUSH1 0x40 MLOAD DUP1 SWAP2 SUB SWAP1 RETURN JUMPDEST PUSH2 0x548 PUSH2 0x1445 JUMP JUMPDEST PUSH1 0x40 MLOAD PUSH2 0x555 SWAP2 SWAP1 PUSH2 0x2204 JUMP JUMPDEST PUSH1 0x40 MLOAD DUP1 SWAP2 SUB SWAP1 RETURN JUMPDEST PUSH1 0x5 SLOAD DUP2 JUMP JUMPDEST PUSH1 0xC PUSH1 0x20 MSTORE DUP1 PUSH1 0x0 MSTORE PUSH1 0x40 PUSH1 0x0 KECCAK256 PUSH1 0x0 SWAP2 POP SWAP1 POP DUP1 PUSH1 0x0 ADD SLOAD SWAP1 DUP1 PUSH1 0x1 ADD SLOAD SWAP1 DUP1 PUSH1 0x2 ADD SLOAD SWAP1 POP DUP4 JUMP JUMPDEST PUSH2 0x596 PUSH2 0x146B JUMP JUMPDEST PUSH1 0x2 DUP2 PUSH1 0xFF AND EQ DUP1 PUSH2 0x5AB JUMPI POP PUSH1 0x3 DUP2 PUSH1 0xFF AND EQ JUMPDEST PUSH2 0x5EA JUMPI PUSH1 0x40 MLOAD PUSH32 0x8C379A000000000000000000000000000000000000000000000000000000000 DUP2 MSTORE PUSH1 0x4 ADD PUSH2 0x5E1 SWAP1 PUSH2 0x2864 JUMP JUMPDEST PUSH1 0x40 MLOAD DUP1 SWAP2 SUB SWAP1 REVERT JUMPDEST PUSH1 0x0 PUSH1 0x9 PUSH1 0x0 PUSH2 0x5F8 PUSH2 0x14BA JUMP JUMPDEST PUSH20 0xFFFFFFFFFFFFFFFFFFFFFFFFFFFFFFFFFFFFFFFF AND PUSH20 0xFFFFFFFFFFFFFFFFFFFFFFFFFFFFFFFFFFFFFFFF AND DUP2 MSTORE PUSH1 0x20 ADD SWAP1 DUP2 MSTORE PUSH1 0x20 ADD PUSH1 0x0 KECCAK256 PUSH1 0x0 SWAP1 SLOAD SWAP1 PUSH2 0x100 EXP SWAP1 DIV PUSH1 0xFF AND PUSH1 0xFF AND EQ DUP1 PUSH2 0x6A5 JUMPI POP PUSH1 0x2 PUSH1 0x9 PUSH1 0x0 PUSH2 0x658 PUSH2 0x14BA JUMP JUMPDEST PUSH20 0xFFFFFFFFFFFFFFFFFFFFFFFFFFFFFFFFFFFFFFFF AND PUSH20 0xFFFFFFFFFFFFFFFFFFFFFFFFFFFFFFFFFFFFFFFF AND DUP2 MSTORE PUSH1 0x20 ADD SWAP1 DUP2 MSTORE PUSH1 0x20 ADD PUSH1 0x0 KECCAK256 PUSH1 0x0 SWAP1 SLOAD SWAP1 PUSH2 0x100 EXP SWAP1 DIV PUSH1 0xFF AND PUSH1 0xFF AND EQ JUMPDEST PUSH2 0x6E4 JUMPI PUSH1 0x40 MLOAD PUSH32 0x8C379A000000000000000000000000000000000000000000000000000000000 DUP2 MSTORE PUSH1 0x4 ADD PUSH2 0x6DB SWAP1 PUSH2 0x28D0 JUMP JUMPDEST PUSH1 0x40 MLOAD DUP1 SWAP2 SUB SWAP1 REVERT JUMPDEST PUSH1 0x2 DUP2 PUSH1 0xFF AND SUB PUSH2 0x706 JUMPI PUSH2 0x700 DUP3 PUSH2 0x6FB PUSH2 0x14BA JUMP JUMPDEST PUSH2 0x14C2 JUMP JUMPDEST POP PUSH2 0x724 JUMP JUMPDEST PUSH1 0x3 DUP2 PUSH1 0xFF AND SUB PUSH2 0x723 JUMPI PUSH2 0x721 PUSH2 0x71C PUSH2 0x14BA JUMP JUMPDEST PUSH2 0x189B JUMP JUMPDEST POP JUMPDEST JUMPDEST PUSH2 0x72C PUSH2 0x196A JUMP JUMPDEST POP POP JUMP JUMPDEST PUSH1 0x2 PUSH1 0x0 SWAP1 SLOAD SWAP1 PUSH2 0x100 EXP SWAP1 DIV PUSH20 0xFFFFFFFFFFFFFFFFFFFFFFFFFFFFFFFFFFFFFFFF AND DUP2 JUMP JUMPDEST PUSH1 0x0 PUSH1 0x9 PUSH1 0x0 DUP4 PUSH20 0xFFFFFFFFFFFFFFFFFFFFFFFFFFFFFFFFFFFFFFFF AND PUSH20 0xFFFFFFFFFFFFFFFFFFFFFFFFFFFFFFFFFFFFFFFF AND DUP2 MSTORE PUSH1 0x20 ADD SWAP1 DUP2 MSTORE PUSH1 0x20 ADD PUSH1 0x0 KECCAK256 PUSH1 0x0 SWAP1 SLOAD SWAP1 PUSH2 0x100 EXP SWAP1 DIV PUSH1 0xFF AND PUSH1 0xFF AND SWAP1 POP SWAP2 SWAP1 POP JUMP JUMPDEST PUSH2 0x7B7 PUSH2 0x1973 JUMP JUMPDEST DUP1 PUSH1 0x3 PUSH1 0x0 PUSH2 0x100 EXP DUP2 SLOAD DUP2 PUSH20 0xFFFFFFFFFFFFFFFFFFFFFFFFFFFFFFFFFFFFFFFF MUL NOT AND SWAP1 DUP4 PUSH20 0xFFFFFFFFFFFFFFFFFFFFFFFFFFFFFFFFFFFFFFFF AND MUL OR SWAP1 SSTORE POP POP JUMP JUMPDEST PUSH2 0x803 PUSH2 0x146B JUMP JUMPDEST PUSH1 0x1E DUP2 LT ISZERO DUP1 ISZERO PUSH2 0x820 JUMPI POP PUSH1 0x0 PUSH1 0x1E DUP3 PUSH2 0x81E SWAP2 SWAP1 PUSH2 0x291F JUMP JUMPDEST EQ JUMPDEST PUSH2 0x85F JUMPI PUSH1 0x40 MLOAD PUSH32 0x8C379A000000000000000000000000000000000000000000000000000000000 DUP2 MSTORE PUSH1 0x4 ADD PUSH2 0x856 SWAP1 PUSH2 0x29C2 JUMP JUMPDEST PUSH1 0x40 MLOAD DUP1 SWAP2 SUB SWAP1 REVERT JUMPDEST PUSH1 0x1 PUSH1 0x9 PUSH1 0x0 PUSH2 0x86D PUSH2 0x14BA JUMP JUMPDEST PUSH20 0xFFFFFFFFFFFFFFFFFFFFFFFFFFFFFFFFFFFFFFFF AND PUSH20 0xFFFFFFFFFFFFFFFFFFFFFFFFFFFFFFFFFFFFFFFF AND DUP2 MSTORE PUSH1 0x20 ADD SWAP1 DUP2 MSTORE PUSH1 0x20 ADD PUSH1 0x0 KECCAK256 PUSH1 0x0 PUSH2 0x100 EXP DUP2 SLOAD DUP2 PUSH1 0xFF MUL NOT AND SWAP1 DUP4 PUSH1 0xFF AND MUL OR SWAP1 SSTORE POP PUSH2 0x400 DUP1 PUSH2 0x400 DUP5 PUSH2 0x8D1 SWAP2 SWAP1 PUSH2 0x2A11 JUMP JUMPDEST PUSH2 0x8DB SWAP2 SWAP1 PUSH2 0x2A11 JUMP JUMPDEST PUSH2 0x8E5 SWAP2 SWAP1 PUSH2 0x2A11 JUMP JUMPDEST SWAP2 POP DUP2 PUSH1 0xC PUSH1 0x0 PUSH2 0x8F4 PUSH2 0x14BA JUMP JUMPDEST PUSH20 0xFFFFFFFFFFFFFFFFFFFFFFFFFFFFFFFFFFFFFFFF AND PUSH20 0xFFFFFFFFFFFFFFFFFFFFFFFFFFFFFFFFFFFFFFFF AND DUP2 MSTORE PUSH1 0x20 ADD SWAP1 DUP2 MSTORE PUSH1 0x20 ADD PUSH1 0x0 KECCAK256 PUSH1 0x0 ADD PUSH1 0x0 DUP3 DUP3 SLOAD PUSH2 0x940 SWAP2 SWAP1 PUSH2 0x2A53 JUMP JUMPDEST SWAP3 POP POP DUP2 SWAP1 SSTORE POP DUP2 PUSH1 0xC PUSH1 0x0 PUSH2 0x954 PUSH2 0x14BA JUMP JUMPDEST PUSH20 0xFFFFFFFFFFFFFFFFFFFFFFFFFFFFFFFFFFFFFFFF AND PUSH20 0xFFFFFFFFFFFFFFFFFFFFFFFFFFFFFFFFFFFFFFFF AND DUP2 MSTORE PUSH1 0x20 ADD SWAP1 DUP2 MSTORE PUSH1 0x20 ADD PUSH1 0x0 KECCAK256 PUSH1 0x1 ADD PUSH1 0x0 DUP3 DUP3 SLOAD PUSH2 0x9A0 SWAP2 SWAP1 PUSH2 0x2A53 JUMP JUMPDEST SWAP3 POP POP DUP2 SWAP1 SSTORE POP PUSH3 0x15180 DUP2 PUSH2 0x9B6 SWAP2 SWAP1 PUSH2 0x2A11 JUMP JUMPDEST PUSH1 0xC PUSH1 0x0 PUSH2 0x9C2 PUSH2 0x14BA JUMP JUMPDEST PUSH20 0xFFFFFFFFFFFFFFFFFFFFFFFFFFFFFFFFFFFFFFFF AND PUSH20 0xFFFFFFFFFFFFFFFFFFFFFFFFFFFFFFFFFFFFFFFF AND DUP2 MSTORE PUSH1 0x20 ADD SWAP1 DUP2 MSTORE PUSH1 0x20 ADD PUSH1 0x0 KECCAK256 PUSH1 0x2 ADD PUSH1 0x0 DUP3 DUP3 SLOAD PUSH2 0xA0E SWAP2 SWAP1 PUSH2 0x2A53 JUMP JUMPDEST SWAP3 POP POP DUP2 SWAP1 SSTORE POP PUSH2 0xA1D PUSH2 0x14BA JUMP JUMPDEST PUSH20 0xFFFFFFFFFFFFFFFFFFFFFFFFFFFFFFFFFFFFFFFF AND PUSH32 0x5BDF3F5623FA7AE0FA364FA40561A15FBDBDC8CB2B162AC2820678880F17C259 DUP4 DUP4 PUSH1 0x40 MLOAD PUSH2 0xA64 SWAP3 SWAP2 SWAP1 PUSH2 0x2768 JUMP JUMPDEST PUSH1 0x40 MLOAD DUP1 SWAP2 SUB SWAP1 LOG2 PUSH2 0xA74 PUSH2 0x196A JUMP JUMPDEST POP POP JUMP JUMPDEST PUSH1 0xB PUSH1 0x20 MSTORE DUP1 PUSH1 0x0 MSTORE PUSH1 0x40 PUSH1 0x0 KECCAK256 PUSH1 0x0 SWAP2 POP SWAP1 POP SLOAD DUP2 JUMP JUMPDEST PUSH2 0xA98 PUSH2 0x146B JUMP JUMPDEST PUSH1 0x0 DUP6 PUSH1 0xC PUSH1 0x0 DUP5 PUSH20 0xFFFFFFFFFFFFFFFFFFFFFFFFFFFFFFFFFFFFFFFF AND PUSH20 0xFFFFFFFFFFFFFFFFFFFFFFFFFFFFFFFFFFFFFFFF AND DUP2 MSTORE PUSH1 0x20 ADD SWAP1 DUP2 MSTORE PUSH1 0x20 ADD PUSH1 0x0 KECCAK256 PUSH1 0x1 ADD SLOAD PUSH2 0xAE8 SWAP2 SWAP1 PUSH2 0x2A87 JUMP JUMPDEST LT ISZERO PUSH2 0xB29 JUMPI PUSH1 0x40 MLOAD PUSH32 0x8C379A000000000000000000000000000000000000000000000000000000000 DUP2 MSTORE PUSH1 0x4 ADD PUSH2 0xB20 SWAP1 PUSH2 0x2B07 JUMP JUMPDEST PUSH1 0x40 MLOAD DUP1 SWAP2 SUB SWAP1 REVERT JUMPDEST PUSH1 0x0 PUSH1 0x3 PUSH1 0x0 SWAP1 SLOAD SWAP1 PUSH2 0x100 EXP SWAP1 DIV PUSH20 0xFFFFFFFFFFFFFFFFFFFFFFFFFFFFFFFFFFFFFFFF AND PUSH20 0xFFFFFFFFFFFFFFFFFFFFFFFFFFFFFFFFFFFFFFFF AND PUSH4 0x47618F18 DUP12 DUP12 DUP12 DUP12 DUP12 DUP11 DUP11 DUP11 PUSH1 0x40 MLOAD DUP10 PUSH4 0xFFFFFFFF AND PUSH1 0xE0 SHL DUP2 MSTORE PUSH1 0x4 ADD PUSH2 0xB94 SWAP9 SWAP8 SWAP7 SWAP6 SWAP5 SWAP4 SWAP3 SWAP2 SWAP1 PUSH2 0x2CA1 JUMP JUMPDEST PUSH1 0x20 PUSH1 0x40 MLOAD DUP1 DUP4 SUB DUP2 PUSH1 0x0 DUP8 GAS CALL ISZERO DUP1 ISZERO PUSH2 0xBB3 JUMPI RETURNDATASIZE PUSH1 0x0 DUP1 RETURNDATACOPY RETURNDATASIZE PUSH1 0x0 REVERT JUMPDEST POP POP POP POP PUSH1 0x40 MLOAD RETURNDATASIZE PUSH1 0x1F NOT PUSH1 0x1F DUP3 ADD AND DUP3 ADD DUP1 PUSH1 0x40 MSTORE POP DUP2 ADD SWAP1 PUSH2 0xBD7 SWAP2 SWAP1 PUSH2 0x2D67 JUMP JUMPDEST SWAP1 POP DUP1 PUSH2 0xC10 JUMPI PUSH1 0x40 MLOAD PUSH32 0x90B8EC1800000000000000000000000000000000000000000000000000000000 DUP2 MSTORE PUSH1 0x4 ADD PUSH1 0x40 MLOAD DUP1 SWAP2 SUB SWAP1 REVERT JUMPDEST DUP6 PUSH1 0xC PUSH1 0x0 DUP5 PUSH20 0xFFFFFFFFFFFFFFFFFFFFFFFFFFFFFFFFFFFFFFFF AND PUSH20 0xFFFFFFFFFFFFFFFFFFFFFFFFFFFFFFFFFFFFFFFF AND DUP2 MSTORE PUSH1 0x20 ADD SWAP1 DUP2 MSTORE PUSH1 0x20 ADD PUSH1 0x0 KECCAK256 PUSH1 0x1 ADD PUSH1 0x0 DUP3 DUP3 SLOAD PUSH2 0xC62 SWAP2 SWAP1 PUSH2 0x2A87 JUMP JUMPDEST SWAP3 POP POP DUP2 SWAP1 SSTORE POP PUSH1 0x0 JUMPDEST DUP11 MLOAD DUP2 LT ISZERO PUSH2 0xCF3 JUMPI DUP6 PUSH1 0xA PUSH1 0x0 DUP14 DUP5 DUP2 MLOAD DUP2 LT PUSH2 0xC8D JUMPI PUSH2 0xC8C PUSH2 0x2D94 JUMP JUMPDEST JUMPDEST PUSH1 0x20 MUL PUSH1 0x20 ADD ADD MLOAD PUSH20 0xFFFFFFFFFFFFFFFFFFFFFFFFFFFFFFFFFFFFFFFF AND PUSH20 0xFFFFFFFFFFFFFFFFFFFFFFFFFFFFFFFFFFFFFFFF AND DUP2 MSTORE PUSH1 0x20 ADD SWAP1 DUP2 MSTORE PUSH1 0x20 ADD PUSH1 0x0 KECCAK256 PUSH1 0x1 ADD PUSH1 0x0 DUP3 DUP3 SLOAD PUSH2 0xCE1 SWAP2 SWAP1 PUSH2 0x2A87 JUMP JUMPDEST SWAP3 POP POP DUP2 SWAP1 SSTORE POP DUP1 PUSH1 0x1 ADD SWAP1 POP PUSH2 0xC6C JUMP JUMPDEST POP DUP2 PUSH20 0xFFFFFFFFFFFFFFFFFFFFFFFFFFFFFFFFFFFFFFFF AND PUSH32 0x30EBD9082452F045CBB677F33BAFCD83242C048D21FA3F84705AB051A900AC33 DUP8 PUSH1 0x40 MLOAD PUSH2 0xD3A SWAP2 SWAP1 PUSH2 0x205F JUMP JUMPDEST PUSH1 0x40 MLOAD DUP1 SWAP2 SUB SWAP1 LOG2 POP PUSH2 0xD4B PUSH2 0x196A JUMP JUMPDEST POP POP POP POP POP POP POP POP POP JUMP JUMPDEST PUSH1 0x60 PUSH1 0x0 PUSH2 0xD62 PUSH2 0x1374 JUMP JUMPDEST SWAP1 POP DUP3 DUP2 MLOAD GT PUSH2 0xD75 JUMPI DUP1 SWAP2 POP POP PUSH2 0xDDF JUMP JUMPDEST PUSH1 0x0 DUP4 PUSH8 0xFFFFFFFFFFFFFFFF DUP2 GT ISZERO PUSH2 0xD91 JUMPI PUSH2 0xD90 PUSH2 0x2275 JUMP JUMPDEST JUMPDEST PUSH1 0x40 MLOAD SWAP1 DUP1 DUP3 MSTORE DUP1 PUSH1 0x20 MUL PUSH1 0x20 ADD DUP3 ADD PUSH1 0x40 MSTORE DUP1 ISZERO PUSH2 0xDBF JUMPI DUP2 PUSH1 0x20 ADD PUSH1 0x20 DUP3 MUL DUP1 CALLDATASIZE DUP4 CALLDATACOPY DUP1 DUP3 ADD SWAP2 POP POP SWAP1 POP JUMPDEST POP SWAP1 POP PUSH1 0x0 DUP5 SWAP1 POP PUSH1 0x0 DUP1 PUSH2 0xDD4 PUSH1 0xD PUSH2 0x19F1 JUMP JUMPDEST SWAP1 POP DUP4 SWAP6 POP POP POP POP POP POP JUMPDEST SWAP3 SWAP2 POP POP JUMP JUMPDEST PUSH1 0xA PUSH1 0x20 MSTORE DUP1 PUSH1 0x0 MSTORE PUSH1 0x40 PUSH1 0x0 KECCAK256 PUSH1 0x0 SWAP2 POP SWAP1 POP DUP1 PUSH1 0x0 ADD SLOAD SWAP1 DUP1 PUSH1 0x1 ADD SLOAD SWAP1 POP DUP3 JUMP JUMPDEST PUSH1 0x0 PUSH2 0xE15 PUSH1 0xD PUSH2 0x19F1 JUMP JUMPDEST SWAP1 POP SWAP1 JUMP JUMPDEST PUSH2 0xE22 PUSH2 0x1973 JUMP JUMPDEST PUSH2 0xE2C PUSH1 0x0 PUSH2 0x1A02 JUMP JUMPDEST JUMP JUMPDEST PUSH1 0x0 PUSH2 0xE3B PUSH1 0xF DUP4 PUSH2 0x1AC6 JUMP JUMPDEST SWAP1 POP SWAP2 SWAP1 POP JUMP JUMPDEST PUSH1 0x0 DUP1 PUSH1 0x0 SWAP1 SLOAD SWAP1 PUSH2 0x100 EXP SWAP1 DIV PUSH20 0xFFFFFFFFFFFFFFFFFFFFFFFFFFFFFFFFFFFFFFFF AND SWAP1 POP SWAP1 JUMP JUMPDEST PUSH1 0x3 PUSH1 0x0 SWAP1 SLOAD SWAP1 PUSH2 0x100 EXP SWAP1 DIV PUSH20 0xFFFFFFFFFFFFFFFFFFFFFFFFFFFFFFFFFFFFFFFF AND DUP2 JUMP JUMPDEST PUSH1 0x0 PUSH2 0xE9B PUSH2 0x1973 JUMP JUMPDEST PUSH1 0x0 PUSH1 0x9 PUSH1 0x0 DUP5 PUSH20 0xFFFFFFFFFFFFFFFFFFFFFFFFFFFFFFFFFFFFFFFF AND PUSH20 0xFFFFFFFFFFFFFFFFFFFFFFFFFFFFFFFFFFFFFFFF AND DUP2 MSTORE PUSH1 0x20 ADD SWAP1 DUP2 MSTORE PUSH1 0x20 ADD PUSH1 0x0 KECCAK256 PUSH1 0x0 SWAP1 SLOAD SWAP1 PUSH2 0x100 EXP SWAP1 DIV PUSH1 0xFF AND PUSH1 0xFF AND SUB PUSH2 0xF2D JUMPI PUSH1 0x40 MLOAD PUSH32 0x8C379A000000000000000000000000000000000000000000000000000000000 DUP2 MSTORE PUSH1 0x4 ADD PUSH2 0xF24 SWAP1 PUSH2 0x2E0F JUMP JUMPDEST PUSH1 0x40 MLOAD DUP1 SWAP2 SUB SWAP1 REVERT JUMPDEST PUSH1 0x1 PUSH1 0x9 PUSH1 0x0 DUP5 PUSH20 0xFFFFFFFFFFFFFFFFFFFFFFFFFFFFFFFFFFFFFFFF AND PUSH20 0xFFFFFFFFFFFFFFFFFFFFFFFFFFFFFFFFFFFFFFFF AND DUP2 MSTORE PUSH1 0x20 ADD SWAP1 DUP2 MSTORE PUSH1 0x20 ADD PUSH1 0x0 KECCAK256 PUSH1 0x0 SWAP1 SLOAD SWAP1 PUSH2 0x100 EXP SWAP1 DIV PUSH1 0xFF AND PUSH1 0xFF AND SUB PUSH2 0xF94 JUMPI PUSH2 0xF8F PUSH1 0xD DUP4 PUSH2 0x1BAB JUMP JUMPDEST PUSH2 0xFF8 JUMP JUMPDEST PUSH1 0x2 PUSH1 0x9 PUSH1 0x0 DUP5 PUSH20 0xFFFFFFFFFFFFFFFFFFFFFFFFFFFFFFFFFFFFFFFF AND PUSH20 0xFFFFFFFFFFFFFFFFFFFFFFFFFFFFFFFFFFFFFFFF AND DUP2 MSTORE PUSH1 0x20 ADD SWAP1 DUP2 MSTORE PUSH1 0x20 ADD PUSH1 0x0 KECCAK256 PUSH1 0x0 SWAP1 SLOAD SWAP1 PUSH2 0x100 EXP SWAP1 DIV PUSH1 0xFF AND PUSH1 0xFF AND SUB PUSH2 0xFF7 JUMPI PUSH2 0xFF6 PUSH1 0xF DUP4 PUSH2 0x1BAB JUMP JUMPDEST JUMPDEST JUMPDEST DUP2 PUSH20 0xFFFFFFFFFFFFFFFFFFFFFFFFFFFFFFFFFFFFFFFF AND PUSH32 0xC0944D59892E6715B5F3FBF230ED4545FC611C304AC5E1827E583585B4180159 PUSH1 0x9 PUSH1 0x0 DUP6 PUSH20 0xFFFFFFFFFFFFFFFFFFFFFFFFFFFFFFFFFFFFFFFF AND PUSH20 0xFFFFFFFFFFFFFFFFFFFFFFFFFFFFFFFFFFFFFFFF AND DUP2 MSTORE PUSH1 0x20 ADD SWAP1 DUP2 MSTORE PUSH1 0x20 ADD PUSH1 0x0 KECCAK256 PUSH1 0x0 SWAP1 SLOAD SWAP1 PUSH2 0x100 EXP SWAP1 DIV PUSH1 0xFF AND PUSH1 0x40 MLOAD PUSH2 0x108A SWAP2 SWAP1 PUSH2 0x2E3E JUMP JUMPDEST PUSH1 0x40 MLOAD DUP1 SWAP2 SUB SWAP1 LOG2 PUSH1 0x9 PUSH1 0x0 DUP4 PUSH20 0xFFFFFFFFFFFFFFFFFFFFFFFFFFFFFFFFFFFFFFFF AND PUSH20 0xFFFFFFFFFFFFFFFFFFFFFFFFFFFFFFFFFFFFFFFF AND DUP2 MSTORE PUSH1 0x20 ADD SWAP1 DUP2 MSTORE PUSH1 0x20 ADD PUSH1 0x0 KECCAK256 PUSH1 0x0 PUSH2 0x100 EXP DUP2 SLOAD SWAP1 PUSH1 0xFF MUL NOT AND SWAP1 SSTORE PUSH1 0xB PUSH1 0x0 DUP4 PUSH20 0xFFFFFFFFFFFFFFFFFFFFFFFFFFFFFFFFFFFFFFFF AND PUSH20 0xFFFFFFFFFFFFFFFFFFFFFFFFFFFFFFFFFFFFFFFF AND DUP2 MSTORE PUSH1 0x20 ADD SWAP1 DUP2 MSTORE PUSH1 0x20 ADD PUSH1 0x0 KECCAK256 PUSH1 0x0 SWAP1 SSTORE PUSH1 0x1 SWAP1 POP SWAP2 SWAP1 POP JUMP JUMPDEST PUSH1 0x0 PUSH2 0x1139 PUSH1 0xF PUSH2 0x19F1 JUMP JUMPDEST SWAP1 POP SWAP1 JUMP JUMPDEST PUSH1 0x0 PUSH2 0x1148 PUSH2 0x1973 JUMP JUMPDEST PUSH1 0x0 PUSH1 0x9 PUSH1 0x0 DUP6 PUSH20 0xFFFFFFFFFFFFFFFFFFFFFFFFFFFFFFFFFFFFFFFF AND PUSH20 0xFFFFFFFFFFFFFFFFFFFFFFFFFFFFFFFFFFFFFFFF AND DUP2 MSTORE PUSH1 0x20 ADD SWAP1 DUP2 MSTORE PUSH1 0x20 ADD PUSH1 0x0 KECCAK256 PUSH1 0x0 SWAP1 SLOAD SWAP1 PUSH2 0x100 EXP SWAP1 DIV PUSH1 0xFF AND PUSH1 0xFF AND SUB PUSH2 0x11DA JUMPI PUSH1 0x40 MLOAD PUSH32 0x8C379A000000000000000000000000000000000000000000000000000000000 DUP2 MSTORE PUSH1 0x4 ADD PUSH2 0x11D1 SWAP1 PUSH2 0x2E0F JUMP JUMPDEST PUSH1 0x40 MLOAD DUP1 SWAP2 SUB SWAP1 REVERT JUMPDEST PUSH1 0x0 PUSH1 0xB PUSH1 0x0 DUP6 PUSH20 0xFFFFFFFFFFFFFFFFFFFFFFFFFFFFFFFFFFFFFFFF AND PUSH20 0xFFFFFFFFFFFFFFFFFFFFFFFFFFFFFFFFFFFFFFFF AND DUP2 MSTORE PUSH1 0x20 ADD SWAP1 DUP2 MSTORE PUSH1 0x20 ADD PUSH1 0x0 KECCAK256 SLOAD LT ISZERO PUSH2 0x125D JUMPI PUSH1 0x40 MLOAD PUSH32 0x8C379A000000000000000000000000000000000000000000000000000000000 DUP2 MSTORE PUSH1 0x4 ADD PUSH2 0x1254 SWAP1 PUSH2 0x2EA5 JUMP JUMPDEST PUSH1 0x40 MLOAD DUP1 SWAP2 SUB SWAP1 REVERT JUMPDEST DUP2 PUSH1 0xB PUSH1 0x0 DUP6 PUSH20 0xFFFFFFFFFFFFFFFFFFFFFFFFFFFFFFFFFFFFFFFF AND PUSH20 0xFFFFFFFFFFFFFFFFFFFFFFFFFFFFFFFFFFFFFFFF AND DUP2 MSTORE PUSH1 0x20 ADD SWAP1 DUP2 MSTORE PUSH1 0x20 ADD PUSH1 0x0 KECCAK256 SLOAD GT PUSH2 0x12FE JUMPI DUP2 PUSH1 0xB PUSH1 0x0 DUP6 PUSH20 0xFFFFFFFFFFFFFFFFFFFFFFFFFFFFFFFFFFFFFFFF AND PUSH20 0xFFFFFFFFFFFFFFFFFFFFFFFFFFFFFFFFFFFFFFFF AND DUP2 MSTORE PUSH1 0x20 ADD SWAP1 DUP2 MSTORE PUSH1 0x20 ADD PUSH1 0x0 KECCAK256 PUSH1 0x0 DUP3 DUP3 SLOAD PUSH2 0x12F2 SWAP2 SWAP1 PUSH2 0x2A87 JUMP JUMPDEST SWAP3 POP POP DUP2 SWAP1 SSTORE POP PUSH2 0x1309 JUMP JUMPDEST PUSH2 0x1307 DUP4 PUSH2 0xE91 JUMP JUMPDEST POP JUMPDEST DUP3 PUSH20 0xFFFFFFFFFFFFFFFFFFFFFFFFFFFFFFFFFFFFFFFF AND PUSH32 0x53FCB0D5AC9969DCEC28BAA60BEB9B56B28FA301971F7E19C6C8BEB0D1E86ECE DUP4 PUSH1 0x40 MLOAD PUSH2 0x134F SWAP2 SWAP1 PUSH2 0x205F JUMP JUMPDEST PUSH1 0x40 MLOAD DUP1 SWAP2 SUB SWAP1 LOG2 PUSH1 0x1 SWAP1 POP SWAP3 SWAP2 POP POP JUMP JUMPDEST PUSH3 0x15180 DUP2 JUMP JUMPDEST PUSH1 0x6 SLOAD DUP2 JUMP JUMPDEST PUSH1 0x7 SLOAD DUP2 JUMP JUMPDEST PUSH1 0x60 PUSH2 0x138C PUSH1 0xD PUSH1 0x0 PUSH2 0x1387 PUSH1 0xD PUSH2 0x19F1 JUMP JUMPDEST PUSH2 0x1DD9 JUMP JUMPDEST SWAP1 POP SWAP1 JUMP JUMPDEST PUSH1 0x0 PUSH2 0x139E PUSH1 0xD DUP4 PUSH2 0x1AC6 JUMP JUMPDEST SWAP1 POP SWAP2 SWAP1 POP JUMP JUMPDEST PUSH2 0x13AD PUSH2 0x1973 JUMP JUMPDEST PUSH1 0x0 PUSH20 0xFFFFFFFFFFFFFFFFFFFFFFFFFFFFFFFFFFFFFFFF AND DUP2 PUSH20 0xFFFFFFFFFFFFFFFFFFFFFFFFFFFFFFFFFFFFFFFF AND SUB PUSH2 0x141C JUMPI PUSH1 0x40 MLOAD PUSH32 0x8C379A000000000000000000000000000000000000000000000000000000000 DUP2 MSTORE PUSH1 0x4 ADD PUSH2 0x1413 SWAP1 PUSH2 0x2F37 JUMP JUMPDEST PUSH1 0x40 MLOAD DUP1 SWAP2 SUB SWAP1 REVERT JUMPDEST PUSH2 0x1425 DUP2 PUSH2 0x1A02 JUMP JUMPDEST POP JUMP JUMPDEST PUSH1 0x60 PUSH2 0x1440 PUSH1 0xF PUSH1 0x0 PUSH2 0x143B PUSH1 0xF PUSH2 0x19F1 JUMP JUMPDEST PUSH2 0x1DD9 JUMP JUMPDEST SWAP1 POP SWAP1 JUMP JUMPDEST PUSH1 0x4 PUSH1 0x0 SWAP1 SLOAD SWAP1 PUSH2 0x100 EXP SWAP1 DIV PUSH20 0xFFFFFFFFFFFFFFFFFFFFFFFFFFFFFFFFFFFFFFFF AND DUP2 JUMP JUMPDEST PUSH1 0x2 PUSH1 0x1 SLOAD SUB PUSH2 0x14B0 JUMPI PUSH1 0x40 MLOAD PUSH32 0x8C379A000000000000000000000000000000000000000000000000000000000 DUP2 MSTORE PUSH1 0x4 ADD PUSH2 0x14A7 SWAP1 PUSH2 0x2FA3 JUMP JUMPDEST PUSH1 0x40 MLOAD DUP1 SWAP2 SUB SWAP1 REVERT JUMPDEST PUSH1 0x2 PUSH1 0x1 DUP2 SWAP1 SSTORE POP JUMP JUMPDEST PUSH1 0x0 CALLER SWAP1 POP SWAP1 JUMP JUMPDEST PUSH1 0x0 DUP1 DUP4 GT PUSH2 0x1506 JUMPI PUSH1 0x40 MLOAD PUSH32 0x8C379A000000000000000000000000000000000000000000000000000000000 DUP2 MSTORE PUSH1 0x4 ADD PUSH2 0x14FD SWAP1 PUSH2 0x300F JUMP JUMPDEST PUSH1 0x40 MLOAD DUP1 SWAP2 SUB SWAP1 REVERT JUMPDEST PUSH1 0x0 DUP4 PUSH1 0x5 SLOAD PUSH2 0x1516 SWAP2 SWAP1 PUSH2 0x2A11 JUMP JUMPDEST SWAP1 POP DUP1 PUSH1 0x4 PUSH1 0x0 SWAP1 SLOAD SWAP1 PUSH2 0x100 EXP SWAP1 DIV PUSH20 0xFFFFFFFFFFFFFFFFFFFFFFFFFFFFFFFFFFFFFFFF AND PUSH20 0xFFFFFFFFFFFFFFFFFFFFFFFFFFFFFFFFFFFFFFFF AND PUSH4 0x70A08231 DUP6 PUSH1 0x40 MLOAD DUP3 PUSH4 0xFFFFFFFF AND PUSH1 0xE0 SHL DUP2 MSTORE PUSH1 0x4 ADD PUSH2 0x1574 SWAP2 SWAP1 PUSH2 0x2204 JUMP JUMPDEST PUSH1 0x20 PUSH1 0x40 MLOAD DUP1 DUP4 SUB DUP2 DUP7 GAS STATICCALL ISZERO DUP1 ISZERO PUSH2 0x1591 JUMPI RETURNDATASIZE PUSH1 0x0 DUP1 RETURNDATACOPY RETURNDATASIZE PUSH1 0x0 REVERT JUMPDEST POP POP POP POP PUSH1 0x40 MLOAD RETURNDATASIZE PUSH1 0x1F NOT PUSH1 0x1F DUP3 ADD AND DUP3 ADD DUP1 PUSH1 0x40 MSTORE POP DUP2 ADD SWAP1 PUSH2 0x15B5 SWAP2 SWAP1 PUSH2 0x3044 JUMP JUMPDEST LT ISZERO PUSH2 0x15F6 JUMPI PUSH1 0x40 MLOAD PUSH32 0x8C379A000000000000000000000000000000000000000000000000000000000 DUP2 MSTORE PUSH1 0x4 ADD PUSH2 0x15ED SWAP1 PUSH2 0x30BD JUMP JUMPDEST PUSH1 0x40 MLOAD DUP1 SWAP2 SUB SWAP1 REVERT JUMPDEST PUSH2 0x1601 PUSH1 0xD DUP5 PUSH2 0x1AC6 JUMP JUMPDEST PUSH2 0x1611 JUMPI PUSH2 0x1610 PUSH1 0xD DUP5 PUSH2 0x1F81 JUMP JUMPDEST JUMPDEST PUSH1 0x0 PUSH1 0x4 PUSH1 0x0 SWAP1 SLOAD SWAP1 PUSH2 0x100 EXP SWAP1 DIV PUSH20 0xFFFFFFFFFFFFFFFFFFFFFFFFFFFFFFFFFFFFFFFF AND PUSH20 0xFFFFFFFFFFFFFFFFFFFFFFFFFFFFFFFFFFFFFFFF AND PUSH4 0x23B872DD DUP6 PUSH1 0x2 PUSH1 0x0 SWAP1 SLOAD SWAP1 PUSH2 0x100 EXP SWAP1 DIV PUSH20 0xFFFFFFFFFFFFFFFFFFFFFFFFFFFFFFFFFFFFFFFF AND DUP6 PUSH1 0x40 MLOAD DUP5 PUSH4 0xFFFFFFFF AND PUSH1 0xE0 SHL DUP2 MSTORE PUSH1 0x4 ADD PUSH2 0x1694 SWAP4 SWAP3 SWAP2 SWAP1 PUSH2 0x30DD JUMP JUMPDEST PUSH1 0x20 PUSH1 0x40 MLOAD DUP1 DUP4 SUB DUP2 PUSH1 0x0 DUP8 GAS CALL ISZERO DUP1 ISZERO PUSH2 0x16B3 JUMPI RETURNDATASIZE PUSH1 0x0 DUP1 RETURNDATACOPY RETURNDATASIZE PUSH1 0x0 REVERT JUMPDEST POP POP POP POP PUSH1 0x40 MLOAD RETURNDATASIZE PUSH1 0x1F NOT PUSH1 0x1F DUP3 ADD AND DUP3 ADD DUP1 PUSH1 0x40 MSTORE POP DUP2 ADD SWAP1 PUSH2 0x16D7 SWAP2 SWAP1 PUSH2 0x2D67 JUMP JUMPDEST SWAP1 POP DUP1 PUSH2 0x1710 JUMPI PUSH1 0x40 MLOAD PUSH32 0x90B8EC1800000000000000000000000000000000000000000000000000000000 DUP2 MSTORE PUSH1 0x4 ADD PUSH1 0x40 MLOAD DUP1 SWAP2 SUB SWAP1 REVERT JUMPDEST PUSH2 0x400 DUP1 PUSH2 0x400 DUP8 PUSH2 0x1722 SWAP2 SWAP1 PUSH2 0x2A11 JUMP JUMPDEST PUSH2 0x172C SWAP2 SWAP1 PUSH2 0x2A11 JUMP JUMPDEST PUSH2 0x1736 SWAP2 SWAP1 PUSH2 0x2A11 JUMP JUMPDEST SWAP5 POP DUP5 PUSH1 0xA PUSH1 0x0 DUP7 PUSH20 0xFFFFFFFFFFFFFFFFFFFFFFFFFFFFFFFFFFFFFFFF AND PUSH20 0xFFFFFFFFFFFFFFFFFFFFFFFFFFFFFFFFFFFFFFFF AND DUP2 MSTORE PUSH1 0x20 ADD SWAP1 DUP2 MSTORE PUSH1 0x20 ADD PUSH1 0x0 KECCAK256 PUSH1 0x0 ADD PUSH1 0x0 DUP3 DUP3 SLOAD PUSH2 0x178A SWAP2 SWAP1 PUSH2 0x2A53 JUMP JUMPDEST SWAP3 POP POP DUP2 SWAP1 SSTORE POP DUP2 PUSH1 0xB PUSH1 0x0 DUP7 PUSH20 0xFFFFFFFFFFFFFFFFFFFFFFFFFFFFFFFFFFFFFFFF AND PUSH20 0xFFFFFFFFFFFFFFFFFFFFFFFFFFFFFFFFFFFFFFFF AND DUP2 MSTORE PUSH1 0x20 ADD SWAP1 DUP2 MSTORE PUSH1 0x20 ADD PUSH1 0x0 KECCAK256 PUSH1 0x0 DUP3 DUP3 SLOAD PUSH2 0x17E0 SWAP2 SWAP1 PUSH2 0x2A53 JUMP JUMPDEST SWAP3 POP POP DUP2 SWAP1 SSTORE POP PUSH1 0x2 PUSH1 0x9 PUSH1 0x0 DUP7 PUSH20 0xFFFFFFFFFFFFFFFFFFFFFFFFFFFFFFFFFFFFFFFF AND PUSH20 0xFFFFFFFFFFFFFFFFFFFFFFFFFFFFFFFFFFFFFFFF AND DUP2 MSTORE PUSH1 0x20 ADD SWAP1 DUP2 MSTORE PUSH1 0x20 ADD PUSH1 0x0 KECCAK256 PUSH1 0x0 PUSH2 0x100 EXP DUP2 SLOAD DUP2 PUSH1 0xFF MUL NOT AND SWAP1 DUP4 PUSH1 0xFF AND MUL OR SWAP1 SSTORE POP DUP4 PUSH20 0xFFFFFFFFFFFFFFFFFFFFFFFFFFFFFFFFFFFFFFFF AND PUSH32 0xE04F064C94FE0EDEE3C04978EA069C5445CF7146E23ED179C153983E44778311 DUP4 DUP8 PUSH1 0x40 MLOAD PUSH2 0x1888 SWAP3 SWAP2 SWAP1 PUSH2 0x2768 JUMP JUMPDEST PUSH1 0x40 MLOAD DUP1 SWAP2 SUB SWAP1 LOG2 DUP1 SWAP3 POP POP POP SWAP3 SWAP2 POP POP JUMP JUMPDEST PUSH1 0x0 PUSH2 0x18A8 PUSH1 0xF DUP4 PUSH2 0x1AC6 JUMP JUMPDEST PUSH2 0x18B8 JUMPI PUSH2 0x18B7 PUSH1 0xF DUP4 PUSH2 0x1F81 JUMP JUMPDEST JUMPDEST PUSH1 0x3 PUSH1 0x9 PUSH1 0x0 DUP5 PUSH20 0xFFFFFFFFFFFFFFFFFFFFFFFFFFFFFFFFFFFFFFFF AND PUSH20 0xFFFFFFFFFFFFFFFFFFFFFFFFFFFFFFFFFFFFFFFF AND DUP2 MSTORE PUSH1 0x20 ADD SWAP1 DUP2 MSTORE PUSH1 0x20 ADD PUSH1 0x0 KECCAK256 PUSH1 0x0 PUSH2 0x100 EXP DUP2 SLOAD DUP2 PUSH1 0xFF MUL NOT AND SWAP1 DUP4 PUSH1 0xFF AND MUL OR SWAP1 SSTORE POP DUP2 PUSH20 0xFFFFFFFFFFFFFFFFFFFFFFFFFFFFFFFFFFFFFFFF AND PUSH32 0x261A1E5397DA268BD5F5561920D0FD2B3AC2F1A2C9DEA7CD9BC679A8F18D87D3 PUSH1 0x6 SLOAD PUSH1 0x40 MLOAD PUSH2 0x1959 SWAP2 SWAP1 PUSH2 0x205F JUMP JUMPDEST PUSH1 0x40 MLOAD DUP1 SWAP2 SUB SWAP1 LOG2 PUSH1 0x1 SWAP1 POP SWAP2 SWAP1 POP JUMP JUMPDEST PUSH1 0x1 DUP1 DUP2 SWAP1 SSTORE POP JUMP JUMPDEST PUSH2 0x197B PUSH2 0x14BA JUMP JUMPDEST PUSH20 0xFFFFFFFFFFFFFFFFFFFFFFFFFFFFFFFFFFFFFFFF AND PUSH2 0x1999 PUSH2 0xE42 JUMP JUMPDEST PUSH20 0xFFFFFFFFFFFFFFFFFFFFFFFFFFFFFFFFFFFFFFFF AND EQ PUSH2 0x19EF JUMPI PUSH1 0x40 MLOAD PUSH32 0x8C379A000000000000000000000000000000000000000000000000000000000 DUP2 MSTORE PUSH1 0x4 ADD PUSH2 0x19E6 SWAP1 PUSH2 0x3160 JUMP JUMPDEST PUSH1 0x40 MLOAD DUP1 SWAP2 SUB SWAP1 REVERT JUMPDEST JUMP JUMPDEST PUSH1 0x0 DUP2 PUSH1 0x0 ADD DUP1 SLOAD SWAP1 POP SWAP1 POP SWAP2 SWAP1 POP JUMP JUMPDEST PUSH1 0x0 DUP1 PUSH1 0x0 SWAP1 SLOAD SWAP1 PUSH2 0x100 EXP SWAP1 DIV PUSH20 0xFFFFFFFFFFFFFFFFFFFFFFFFFFFFFFFFFFFFFFFF AND SWAP1 POP DUP2 PUSH1 0x0 DUP1 PUSH2 0x100 EXP DUP2 SLOAD DUP2 PUSH20 0xFFFFFFFFFFFFFFFFFFFFFFFFFFFFFFFFFFFFFFFF MUL NOT AND SWAP1 DUP4 PUSH20 0xFFFFFFFFFFFFFFFFFFFFFFFFFFFFFFFFFFFFFFFF AND MUL OR SWAP1 SSTORE POP DUP2 PUSH20 0xFFFFFFFFFFFFFFFFFFFFFFFFFFFFFFFFFFFFFFFF AND DUP2 PUSH20 0xFFFFFFFFFFFFFFFFFFFFFFFFFFFFFFFFFFFFFFFF AND PUSH32 0x8BE0079C531659141344CD1FD0A4F28419497F9722A3DAAFE3B4186F6B6457E0 PUSH1 0x40 MLOAD PUSH1 0x40 MLOAD DUP1 SWAP2 SUB SWAP1 LOG3 POP POP JUMP JUMPDEST PUSH1 0x0 DUP1 DUP4 PUSH1 0x0 ADD DUP1 SLOAD SWAP1 POP SUB PUSH2 0x1ADF JUMPI PUSH1 0x0 SWAP1 POP PUSH2 0x1BA5 JUMP JUMPDEST PUSH1 0x0 DUP4 PUSH1 0x1 ADD PUSH1 0x0 DUP5 PUSH20 0xFFFFFFFFFFFFFFFFFFFFFFFFFFFFFFFFFFFFFFFF AND PUSH20 0xFFFFFFFFFFFFFFFFFFFFFFFFFFFFFFFFFFFFFFFF AND DUP2 MSTORE PUSH1 0x20 ADD SWAP1 DUP2 MSTORE PUSH1 0x20 ADD PUSH1 0x0 KECCAK256 SLOAD SWAP1 POP PUSH1 0x0 DUP2 EQ ISZERO DUP1 PUSH2 0x1BA1 JUMPI POP DUP3 PUSH20 0xFFFFFFFFFFFFFFFFFFFFFFFFFFFFFFFFFFFFFFFF AND DUP5 PUSH1 0x0 ADD PUSH1 0x0 DUP2 SLOAD DUP2 LT PUSH2 0x1B5E JUMPI PUSH2 0x1B5D PUSH2 0x2D94 JUMP JUMPDEST JUMPDEST SWAP1 PUSH1 0x0 MSTORE PUSH1 0x20 PUSH1 0x0 KECCAK256 ADD PUSH1 0x0 SWAP1 SLOAD SWAP1 PUSH2 0x100 EXP SWAP1 DIV PUSH20 0xFFFFFFFFFFFFFFFFFFFFFFFFFFFFFFFFFFFFFFFF AND PUSH20 0xFFFFFFFFFFFFFFFFFFFFFFFFFFFFFFFFFFFFFFFF AND EQ JUMPDEST SWAP2 POP POP JUMPDEST SWAP3 SWAP2 POP POP JUMP JUMPDEST PUSH2 0x1BB5 DUP3 DUP3 PUSH2 0x1AC6 JUMP JUMPDEST PUSH2 0x1BF4 JUMPI PUSH1 0x40 MLOAD PUSH32 0x8C379A000000000000000000000000000000000000000000000000000000000 DUP2 MSTORE PUSH1 0x4 ADD PUSH2 0x1BEB SWAP1 PUSH2 0x31CC JUMP JUMPDEST PUSH1 0x40 MLOAD DUP1 SWAP2 SUB SWAP1 REVERT JUMPDEST PUSH1 0x0 DUP3 PUSH1 0x1 ADD PUSH1 0x0 DUP4 PUSH20 0xFFFFFFFFFFFFFFFFFFFFFFFFFFFFFFFFFFFFFFFF AND PUSH20 0xFFFFFFFFFFFFFFFFFFFFFFFFFFFFFFFFFFFFFFFF AND DUP2 MSTORE PUSH1 0x20 ADD SWAP1 DUP2 MSTORE PUSH1 0x20 ADD PUSH1 0x0 KECCAK256 SLOAD SWAP1 POP PUSH1 0x0 PUSH1 0x1 DUP5 PUSH1 0x0 ADD DUP1 SLOAD SWAP1 POP PUSH2 0x1C50 SWAP2 SWAP1 PUSH2 0x2A87 JUMP JUMPDEST SWAP1 POP DUP1 DUP3 EQ PUSH2 0x1D45 JUMPI PUSH1 0x0 DUP5 PUSH1 0x0 ADD DUP3 DUP2 SLOAD DUP2 LT PUSH2 0x1C71 JUMPI PUSH2 0x1C70 PUSH2 0x2D94 JUMP JUMPDEST JUMPDEST SWAP1 PUSH1 0x0 MSTORE PUSH1 0x20 PUSH1 0x0 KECCAK256 ADD PUSH1 0x0 SWAP1 SLOAD SWAP1 PUSH2 0x100 EXP SWAP1 DIV PUSH20 0xFFFFFFFFFFFFFFFFFFFFFFFFFFFFFFFFFFFFFFFF AND SWAP1 POP DUP1 DUP6 PUSH1 0x0 ADD DUP5 DUP2 SLOAD DUP2 LT PUSH2 0x1CB5 JUMPI PUSH2 0x1CB4 PUSH2 0x2D94 JUMP JUMPDEST JUMPDEST SWAP1 PUSH1 0x0 MSTORE PUSH1 0x20 PUSH1 0x0 KECCAK256 ADD PUSH1 0x0 PUSH2 0x100 EXP DUP2 SLOAD DUP2 PUSH20 0xFFFFFFFFFFFFFFFFFFFFFFFFFFFFFFFFFFFFFFFF MUL NOT AND SWAP1 DUP4 PUSH20 0xFFFFFFFFFFFFFFFFFFFFFFFFFFFFFFFFFFFFFFFF AND MUL OR SWAP1 SSTORE POP DUP3 DUP6 PUSH1 0x1 ADD PUSH1 0x0 DUP4 PUSH20 0xFFFFFFFFFFFFFFFFFFFFFFFFFFFFFFFFFFFFFFFF AND PUSH20 0xFFFFFFFFFFFFFFFFFFFFFFFFFFFFFFFFFFFFFFFF AND DUP2 MSTORE PUSH1 0x20 ADD SWAP1 DUP2 MSTORE PUSH1 0x20 ADD PUSH1 0x0 KECCAK256 DUP2 SWAP1 SSTORE POP POP JUMPDEST DUP4 PUSH1 0x0 ADD DUP1 SLOAD DUP1 PUSH2 0x1D59 JUMPI PUSH2 0x1D58 PUSH2 0x31EC JUMP JUMPDEST JUMPDEST PUSH1 0x1 SWAP1 SUB DUP2 DUP2 SWAP1 PUSH1 0x0 MSTORE PUSH1 0x20 PUSH1 0x0 KECCAK256 ADD PUSH1 0x0 PUSH2 0x100 EXP DUP2 SLOAD SWAP1 PUSH20 0xFFFFFFFFFFFFFFFFFFFFFFFFFFFFFFFFFFFFFFFF MUL NOT AND SWAP1 SSTORE SWAP1 SSTORE DUP4 PUSH1 0x1 ADD PUSH1 0x0 DUP5 PUSH20 0xFFFFFFFFFFFFFFFFFFFFFFFFFFFFFFFFFFFFFFFF AND PUSH20 0xFFFFFFFFFFFFFFFFFFFFFFFFFFFFFFFFFFFFFFFF AND DUP2 MSTORE PUSH1 0x20 ADD SWAP1 DUP2 MSTORE PUSH1 0x20 ADD PUSH1 0x0 KECCAK256 PUSH1 0x0 SWAP1 SSTORE POP POP POP POP JUMP JUMPDEST PUSH1 0x60 PUSH1 0x0 DUP3 DUP5 PUSH2 0x1DE9 SWAP2 SWAP1 PUSH2 0x2A53 JUMP JUMPDEST SWAP1 POP DUP5 PUSH1 0x0 ADD DUP1 SLOAD SWAP1 POP DUP2 GT ISZERO PUSH2 0x1E05 JUMPI DUP5 PUSH1 0x0 ADD DUP1 SLOAD SWAP1 POP SWAP1 POP JUMPDEST DUP4 DUP2 GT PUSH2 0x1E5E JUMPI PUSH1 0x0 PUSH8 0xFFFFFFFFFFFFFFFF DUP2 GT ISZERO PUSH2 0x1E27 JUMPI PUSH2 0x1E26 PUSH2 0x2275 JUMP JUMPDEST JUMPDEST PUSH1 0x40 MLOAD SWAP1 DUP1 DUP3 MSTORE DUP1 PUSH1 0x20 MUL PUSH1 0x20 ADD DUP3 ADD PUSH1 0x40 MSTORE DUP1 ISZERO PUSH2 0x1E55 JUMPI DUP2 PUSH1 0x20 ADD PUSH1 0x20 DUP3 MUL DUP1 CALLDATASIZE DUP4 CALLDATACOPY DUP1 DUP3 ADD SWAP2 POP POP SWAP1 POP JUMPDEST POP SWAP2 POP POP PUSH2 0x1F7A JUMP JUMPDEST PUSH1 0x0 DUP5 DUP3 PUSH2 0x1E6C SWAP2 SWAP1 PUSH2 0x2A87 JUMP JUMPDEST SWAP1 POP PUSH1 0x0 DUP2 PUSH8 0xFFFFFFFFFFFFFFFF DUP2 GT ISZERO PUSH2 0x1E8A JUMPI PUSH2 0x1E89 PUSH2 0x2275 JUMP JUMPDEST JUMPDEST PUSH1 0x40 MLOAD SWAP1 DUP1 DUP3 MSTORE DUP1 PUSH1 0x20 MUL PUSH1 0x20 ADD DUP3 ADD PUSH1 0x40 MSTORE DUP1 ISZERO PUSH2 0x1EB8 JUMPI DUP2 PUSH1 0x20 ADD PUSH1 0x20 DUP3 MUL DUP1 CALLDATASIZE DUP4 CALLDATACOPY DUP1 DUP3 ADD SWAP2 POP POP SWAP1 POP JUMPDEST POP SWAP1 POP PUSH1 0x0 JUMPDEST DUP3 DUP2 LT ISZERO PUSH2 0x1F72 JUMPI DUP8 PUSH1 0x0 ADD DUP8 DUP3 PUSH2 0x1ED6 SWAP2 SWAP1 PUSH2 0x2A53 JUMP JUMPDEST DUP2 SLOAD DUP2 LT PUSH2 0x1EE7 JUMPI PUSH2 0x1EE6 PUSH2 0x2D94 JUMP JUMPDEST JUMPDEST SWAP1 PUSH1 0x0 MSTORE PUSH1 0x20 PUSH1 0x0 KECCAK256 ADD PUSH1 0x0 SWAP1 SLOAD SWAP1 PUSH2 0x100 EXP SWAP1 DIV PUSH20 0xFFFFFFFFFFFFFFFFFFFFFFFFFFFFFFFFFFFFFFFF AND DUP3 DUP3 DUP2 MLOAD DUP2 LT PUSH2 0x1F25 JUMPI PUSH2 0x1F24 PUSH2 0x2D94 JUMP JUMPDEST JUMPDEST PUSH1 0x20 MUL PUSH1 0x20 ADD ADD SWAP1 PUSH20 0xFFFFFFFFFFFFFFFFFFFFFFFFFFFFFFFFFFFFFFFF AND SWAP1 DUP2 PUSH20 0xFFFFFFFFFFFFFFFFFFFFFFFFFFFFFFFFFFFFFFFF AND DUP2 MSTORE POP POP DUP1 DUP1 PUSH2 0x1F6A SWAP1 PUSH2 0x321B JUMP JUMPDEST SWAP2 POP POP PUSH2 0x1EBE JUMP JUMPDEST POP DUP1 SWAP4 POP POP POP POP JUMPDEST SWAP4 SWAP3 POP POP POP JUMP JUMPDEST PUSH2 0x1F8B DUP3 DUP3 PUSH2 0x1AC6 JUMP JUMPDEST PUSH2 0x2042 JUMPI DUP2 PUSH1 0x0 ADD DUP1 SLOAD SWAP1 POP DUP3 PUSH1 0x1 ADD PUSH1 0x0 DUP4 PUSH20 0xFFFFFFFFFFFFFFFFFFFFFFFFFFFFFFFFFFFFFFFF AND PUSH20 0xFFFFFFFFFFFFFFFFFFFFFFFFFFFFFFFFFFFFFFFF AND DUP2 MSTORE PUSH1 0x20 ADD SWAP1 DUP2 MSTORE PUSH1 0x20 ADD PUSH1 0x0 KECCAK256 DUP2 SWAP1 SSTORE POP DUP2 PUSH1 0x0 ADD DUP2 SWAP1 DUP1 PUSH1 0x1 DUP2 SLOAD ADD DUP1 DUP3 SSTORE DUP1 SWAP2 POP POP PUSH1 0x1 SWAP1 SUB SWAP1 PUSH1 0x0 MSTORE PUSH1 0x20 PUSH1 0x0 KECCAK256 ADD PUSH1 0x0 SWAP1 SWAP2 SWAP1 SWAP2 SWAP1 SWAP2 PUSH2 0x100 EXP DUP2 SLOAD DUP2 PUSH20 0xFFFFFFFFFFFFFFFFFFFFFFFFFFFFFFFFFFFFFFFF MUL NOT AND SWAP1 DUP4 PUSH20 0xFFFFFFFFFFFFFFFFFFFFFFFFFFFFFFFFFFFFFFFF AND MUL OR SWAP1 SSTORE POP JUMPDEST POP POP JUMP JUMPDEST PUSH1 0x0 DUP2 SWAP1 POP SWAP2 SWAP1 POP JUMP JUMPDEST PUSH2 0x2059 DUP2 PUSH2 0x2046 JUMP JUMPDEST DUP3 MSTORE POP POP JUMP JUMPDEST PUSH1 0x0 PUSH1 0x20 DUP3 ADD SWAP1 POP PUSH2 0x2074 PUSH1 0x0 DUP4 ADD DUP5 PUSH2 0x2050 JUMP JUMPDEST SWAP3 SWAP2 POP POP JUMP JUMPDEST PUSH1 0x0 PUSH1 0x40 MLOAD SWAP1 POP SWAP1 JUMP JUMPDEST PUSH1 0x0 DUP1 REVERT JUMPDEST PUSH1 0x0 DUP1 REVERT JUMPDEST PUSH1 0x0 PUSH20 0xFFFFFFFFFFFFFFFFFFFFFFFFFFFFFFFFFFFFFFFF DUP3 AND SWAP1 POP SWAP2 SWAP1 POP JUMP JUMPDEST PUSH1 0x0 PUSH2 0x20B9 DUP3 PUSH2 0x208E JUMP JUMPDEST SWAP1 POP SWAP2 SWAP1 POP JUMP JUMPDEST PUSH2 0x20C9 DUP2 PUSH2 0x20AE JUMP JUMPDEST DUP2 EQ PUSH2 0x20D4 JUMPI PUSH1 0x0 DUP1 REVERT JUMPDEST POP JUMP JUMPDEST PUSH1 0x0 DUP2 CALLDATALOAD SWAP1 POP PUSH2 0x20E6 DUP2 PUSH2 0x20C0 JUMP JUMPDEST SWAP3 SWAP2 POP POP JUMP JUMPDEST PUSH1 0x0 PUSH1 0x20 DUP3 DUP5 SUB SLT ISZERO PUSH2 0x2102 JUMPI PUSH2 0x2101 PUSH2 0x2084 JUMP JUMPDEST JUMPDEST PUSH1 0x0 PUSH2 0x2110 DUP5 DUP3 DUP6 ADD PUSH2 0x20D7 JUMP JUMPDEST SWAP2 POP POP SWAP3 SWAP2 POP POP JUMP JUMPDEST PUSH1 0x0 PUSH1 0x60 DUP3 ADD SWAP1 POP PUSH2 0x212E PUSH1 0x0 DUP4 ADD DUP7 PUSH2 0x2050 JUMP JUMPDEST PUSH2 0x213B PUSH1 0x20 DUP4 ADD DUP6 PUSH2 0x2050 JUMP JUMPDEST PUSH2 0x2148 PUSH1 0x40 DUP4 ADD DUP5 PUSH2 0x2050 JUMP JUMPDEST SWAP5 SWAP4 POP POP POP POP JUMP JUMPDEST PUSH2 0x2159 DUP2 PUSH2 0x2046 JUMP JUMPDEST DUP2 EQ PUSH2 0x2164 JUMPI PUSH1 0x0 DUP1 REVERT JUMPDEST POP JUMP JUMPDEST PUSH1 0x0 DUP2 CALLDATALOAD SWAP1 POP PUSH2 0x2176 DUP2 PUSH2 0x2150 JUMP JUMPDEST SWAP3 SWAP2 POP POP JUMP JUMPDEST PUSH1 0x0 PUSH1 0xFF DUP3 AND SWAP1 POP SWAP2 SWAP1 POP JUMP JUMPDEST PUSH2 0x2192 DUP2 PUSH2 0x217C JUMP JUMPDEST DUP2 EQ PUSH2 0x219D JUMPI PUSH1 0x0 DUP1 REVERT JUMPDEST POP JUMP JUMPDEST PUSH1 0x0 DUP2 CALLDATALOAD SWAP1 POP PUSH2 0x21AF DUP2 PUSH2 0x2189 JUMP JUMPDEST SWAP3 SWAP2 POP POP JUMP JUMPDEST PUSH1 0x0 DUP1 PUSH1 0x40 DUP4 DUP6 SUB SLT ISZERO PUSH2 0x21CC JUMPI PUSH2 0x21CB PUSH2 0x2084 JUMP JUMPDEST JUMPDEST PUSH1 0x0 PUSH2 0x21DA DUP6 DUP3 DUP7 ADD PUSH2 0x2167 JUMP JUMPDEST SWAP3 POP POP PUSH1 0x20 PUSH2 0x21EB DUP6 DUP3 DUP7 ADD PUSH2 0x21A0 JUMP JUMPDEST SWAP2 POP POP SWAP3 POP SWAP3 SWAP1 POP JUMP JUMPDEST PUSH2 0x21FE DUP2 PUSH2 0x20AE JUMP JUMPDEST DUP3 MSTORE POP POP JUMP JUMPDEST PUSH1 0x0 PUSH1 0x20 DUP3 ADD SWAP1 POP PUSH2 0x2219 PUSH1 0x0 DUP4 ADD DUP5 PUSH2 0x21F5 JUMP JUMPDEST SWAP3 SWAP2 POP POP JUMP JUMPDEST PUSH1 0x0 DUP1 PUSH1 0x40 DUP4 DUP6 SUB SLT ISZERO PUSH2 0x2236 JUMPI PUSH2 0x2235 PUSH2 0x2084 JUMP JUMPDEST JUMPDEST PUSH1 0x0 PUSH2 0x2244 DUP6 DUP3 DUP7 ADD PUSH2 0x2167 JUMP JUMPDEST SWAP3 POP POP PUSH1 0x20 PUSH2 0x2255 DUP6 DUP3 DUP7 ADD PUSH2 0x2167 JUMP JUMPDEST SWAP2 POP POP SWAP3 POP SWAP3 SWAP1 POP JUMP JUMPDEST PUSH1 0x0 DUP1 REVERT JUMPDEST PUSH1 0x0 PUSH1 0x1F NOT PUSH1 0x1F DUP4 ADD AND SWAP1 POP SWAP2 SWAP1 POP JUMP JUMPDEST PUSH32 0x4E487B7100000000000000000000000000000000000000000000000000000000 PUSH1 0x0 MSTORE PUSH1 0x41 PUSH1 0x4 MSTORE PUSH1 0x24 PUSH1 0x0 REVERT JUMPDEST PUSH2 0x22AD DUP3 PUSH2 0x2264 JUMP JUMPDEST DUP2 ADD DUP2 DUP2 LT PUSH8 0xFFFFFFFFFFFFFFFF DUP3 GT OR ISZERO PUSH2 0x22CC JUMPI PUSH2 0x22CB PUSH2 0x2275 JUMP JUMPDEST JUMPDEST DUP1 PUSH1 0x40 MSTORE POP POP POP JUMP JUMPDEST PUSH1 0x0 PUSH2 0x22DF PUSH2 0x207A JUMP JUMPDEST SWAP1 POP PUSH2 0x22EB DUP3 DUP3 PUSH2 0x22A4 JUMP JUMPDEST SWAP2 SWAP1 POP JUMP JUMPDEST PUSH1 0x0 PUSH8 0xFFFFFFFFFFFFFFFF DUP3 GT ISZERO PUSH2 0x230B JUMPI PUSH2 0x230A PUSH2 0x2275 JUMP JUMPDEST JUMPDEST PUSH1 0x20 DUP3 MUL SWAP1 POP PUSH1 0x20 DUP2 ADD SWAP1 POP SWAP2 SWAP1 POP JUMP JUMPDEST PUSH1 0x0 DUP1 REVERT JUMPDEST PUSH1 0x0 PUSH2 0x2334 PUSH2 0x232F DUP5 PUSH2 0x22F0 JUMP JUMPDEST PUSH2 0x22D5 JUMP JUMPDEST SWAP1 POP DUP1 DUP4 DUP3 MSTORE PUSH1 0x20 DUP3 ADD SWAP1 POP PUSH1 0x20 DUP5 MUL DUP4 ADD DUP6 DUP2 GT ISZERO PUSH2 0x2357 JUMPI PUSH2 0x2356 PUSH2 0x231C JUMP JUMPDEST JUMPDEST DUP4 JUMPDEST DUP2 DUP2 LT ISZERO PUSH2 0x2380 JUMPI DUP1 PUSH2 0x236C DUP9 DUP3 PUSH2 0x20D7 JUMP JUMPDEST DUP5 MSTORE PUSH1 0x20 DUP5 ADD SWAP4 POP POP PUSH1 0x20 DUP2 ADD SWAP1 POP PUSH2 0x2359 JUMP JUMPDEST POP POP POP SWAP4 SWAP3 POP POP POP JUMP JUMPDEST PUSH1 0x0 DUP3 PUSH1 0x1F DUP4 ADD SLT PUSH2 0x239F JUMPI PUSH2 0x239E PUSH2 0x225F JUMP JUMPDEST JUMPDEST DUP2 CALLDATALOAD PUSH2 0x23AF DUP5 DUP3 PUSH1 0x20 DUP7 ADD PUSH2 0x2321 JUMP JUMPDEST SWAP2 POP POP SWAP3 SWAP2 POP POP JUMP JUMPDEST PUSH1 0x0 PUSH8 0xFFFFFFFFFFFFFFFF DUP3 GT ISZERO PUSH2 0x23D3 JUMPI PUSH2 0x23D2 PUSH2 0x2275 JUMP JUMPDEST JUMPDEST PUSH1 0x20 DUP3 MUL SWAP1 POP PUSH1 0x20 DUP2 ADD SWAP1 POP SWAP2 SWAP1 POP JUMP JUMPDEST PUSH1 0x0 DUP1 REVERT JUMPDEST PUSH1 0x0 PUSH8 0xFFFFFFFFFFFFFFFF DUP3 GT ISZERO PUSH2 0x2404 JUMPI PUSH2 0x2403 PUSH2 0x2275 JUMP JUMPDEST JUMPDEST PUSH2 0x240D DUP3 PUSH2 0x2264 JUMP JUMPDEST SWAP1 POP PUSH1 0x20 DUP2 ADD SWAP1 POP SWAP2 SWAP1 POP JUMP JUMPDEST DUP3 DUP2 DUP4 CALLDATACOPY PUSH1 0x0 DUP4 DUP4 ADD MSTORE POP POP POP JUMP JUMPDEST PUSH1 0x0 PUSH2 0x243C PUSH2 0x2437 DUP5 PUSH2 0x23E9 JUMP JUMPDEST PUSH2 0x22D5 JUMP JUMPDEST SWAP1 POP DUP3 DUP2 MSTORE PUSH1 0x20 DUP2 ADD DUP5 DUP5 DUP5 ADD GT ISZERO PUSH2 0x2458 JUMPI PUSH2 0x2457 PUSH2 0x23E4 JUMP JUMPDEST JUMPDEST PUSH2 0x2463 DUP5 DUP3 DUP6 PUSH2 0x241A JUMP JUMPDEST POP SWAP4 SWAP3 POP POP POP JUMP JUMPDEST PUSH1 0x0 DUP3 PUSH1 0x1F DUP4 ADD SLT PUSH2 0x2480 JUMPI PUSH2 0x247F PUSH2 0x225F JUMP JUMPDEST JUMPDEST DUP2 CALLDATALOAD PUSH2 0x2490 DUP5 DUP3 PUSH1 0x20 DUP7 ADD PUSH2 0x2429 JUMP JUMPDEST SWAP2 POP POP SWAP3 SWAP2 POP POP JUMP JUMPDEST PUSH1 0x0 PUSH2 0x24AC PUSH2 0x24A7 DUP5 PUSH2 0x23B8 JUMP JUMPDEST PUSH2 0x22D5 JUMP JUMPDEST SWAP1 POP DUP1 DUP4 DUP3 MSTORE PUSH1 0x20 DUP3 ADD SWAP1 POP PUSH1 0x20 DUP5 MUL DUP4 ADD DUP6 DUP2 GT ISZERO PUSH2 0x24CF JUMPI PUSH2 0x24CE PUSH2 0x231C JUMP JUMPDEST JUMPDEST DUP4 JUMPDEST DUP2 DUP2 LT ISZERO PUSH2 0x2516 JUMPI DUP1 CALLDATALOAD PUSH8 0xFFFFFFFFFFFFFFFF DUP2 GT ISZERO PUSH2 0x24F4 JUMPI PUSH2 0x24F3 PUSH2 0x225F JUMP JUMPDEST JUMPDEST DUP1 DUP7 ADD PUSH2 0x2501 DUP10 DUP3 PUSH2 0x246B JUMP JUMPDEST DUP6 MSTORE PUSH1 0x20 DUP6 ADD SWAP5 POP POP POP PUSH1 0x20 DUP2 ADD SWAP1 POP PUSH2 0x24D1 JUMP JUMPDEST POP POP POP SWAP4 SWAP3 POP POP POP JUMP JUMPDEST PUSH1 0x0 DUP3 PUSH1 0x1F DUP4 ADD SLT PUSH2 0x2535 JUMPI PUSH2 0x2534 PUSH2 0x225F JUMP JUMPDEST JUMPDEST DUP2 CALLDATALOAD PUSH2 0x2545 DUP5 DUP3 PUSH1 0x20 DUP7 ADD PUSH2 0x2499 JUMP JUMPDEST SWAP2 POP POP SWAP3 SWAP2 POP POP JUMP JUMPDEST PUSH1 0x0 DUP1 PUSH1 0x0 DUP1 PUSH1 0x0 DUP1 PUSH1 0x0 DUP1 PUSH1 0x0 PUSH2 0x120 DUP11 DUP13 SUB SLT ISZERO PUSH2 0x2571 JUMPI PUSH2 0x2570 PUSH2 0x2084 JUMP JUMPDEST JUMPDEST PUSH1 0x0 DUP11 ADD CALLDATALOAD PUSH8 0xFFFFFFFFFFFFFFFF DUP2 GT ISZERO PUSH2 0x258F JUMPI PUSH2 0x258E PUSH2 0x2089 JUMP JUMPDEST JUMPDEST PUSH2 0x259B DUP13 DUP3 DUP14 ADD PUSH2 0x238A JUMP JUMPDEST SWAP10 POP POP PUSH1 0x20 DUP11 ADD CALLDATALOAD PUSH8 0xFFFFFFFFFFFFFFFF DUP2 GT ISZERO PUSH2 0x25BC JUMPI PUSH2 0x25BB PUSH2 0x2089 JUMP JUMPDEST JUMPDEST PUSH2 0x25C8 DUP13 DUP3 DUP14 ADD PUSH2 0x2520 JUMP JUMPDEST SWAP9 POP POP PUSH1 0x40 DUP11 ADD CALLDATALOAD PUSH8 0xFFFFFFFFFFFFFFFF DUP2 GT ISZERO PUSH2 0x25E9 JUMPI PUSH2 0x25E8 PUSH2 0x2089 JUMP JUMPDEST JUMPDEST PUSH2 0x25F5 DUP13 DUP3 DUP14 ADD PUSH2 0x246B JUMP JUMPDEST SWAP8 POP POP PUSH1 0x60 DUP11 ADD CALLDATALOAD PUSH8 0xFFFFFFFFFFFFFFFF DUP2 GT ISZERO PUSH2 0x2616 JUMPI PUSH2 0x2615 PUSH2 0x2089 JUMP JUMPDEST JUMPDEST PUSH2 0x2622 DUP13 DUP3 DUP14 ADD PUSH2 0x246B JUMP JUMPDEST SWAP7 POP POP PUSH1 0x80 PUSH2 0x2633 DUP13 DUP3 DUP14 ADD PUSH2 0x2167 JUMP JUMPDEST SWAP6 POP POP PUSH1 0xA0 PUSH2 0x2644 DUP13 DUP3 DUP14 ADD PUSH2 0x2167 JUMP JUMPDEST SWAP5 POP POP PUSH1 0xC0 PUSH2 0x2655 DUP13 DUP3 DUP14 ADD PUSH2 0x2167 JUMP JUMPDEST SWAP4 POP POP PUSH1 0xE0 PUSH2 0x2666 DUP13 DUP3 DUP14 ADD PUSH2 0x2167 JUMP JUMPDEST SWAP3 POP POP PUSH2 0x100 PUSH2 0x2678 DUP13 DUP3 DUP14 ADD PUSH2 0x20D7 JUMP JUMPDEST SWAP2 POP POP SWAP3 SWAP6 SWAP9 POP SWAP3 SWAP6 SWAP9 POP SWAP3 SWAP6 SWAP9 JUMP JUMPDEST PUSH1 0x0 DUP2 MLOAD SWAP1 POP SWAP2 SWAP1 POP JUMP JUMPDEST PUSH1 0x0 DUP3 DUP3 MSTORE PUSH1 0x20 DUP3 ADD SWAP1 POP SWAP3 SWAP2 POP POP JUMP JUMPDEST PUSH1 0x0 DUP2 SWAP1 POP PUSH1 0x20 DUP3 ADD SWAP1 POP SWAP2 SWAP1 POP JUMP JUMPDEST PUSH2 0x26BD DUP2 PUSH2 0x20AE JUMP JUMPDEST DUP3 MSTORE POP POP JUMP JUMPDEST PUSH1 0x0 PUSH2 0x26CF DUP4 DUP4 PUSH2 0x26B4 JUMP JUMPDEST PUSH1 0x20 DUP4 ADD SWAP1 POP SWAP3 SWAP2 POP POP JUMP JUMPDEST PUSH1 0x0 PUSH1 0x20 DUP3 ADD SWAP1 POP SWAP2 SWAP1 POP JUMP JUMPDEST PUSH1 0x0 PUSH2 0x26F3 DUP3 PUSH2 0x2688 JUMP JUMPDEST PUSH2 0x26FD DUP2 DUP6 PUSH2 0x2693 JUMP JUMPDEST SWAP4 POP PUSH2 0x2708 DUP4 PUSH2 0x26A4 JUMP JUMPDEST DUP1 PUSH1 0x0 JUMPDEST DUP4 DUP2 LT ISZERO PUSH2 0x2739 JUMPI DUP2 MLOAD PUSH2 0x2720 DUP9 DUP3 PUSH2 0x26C3 JUMP JUMPDEST SWAP8 POP PUSH2 0x272B DUP4 PUSH2 0x26DB JUMP JUMPDEST SWAP3 POP POP PUSH1 0x1 DUP2 ADD SWAP1 POP PUSH2 0x270C JUMP JUMPDEST POP DUP6 SWAP4 POP POP POP POP SWAP3 SWAP2 POP POP JUMP JUMPDEST PUSH1 0x0 PUSH1 0x20 DUP3 ADD SWAP1 POP DUP2 DUP2 SUB PUSH1 0x0 DUP4 ADD MSTORE PUSH2 0x2760 DUP2 DUP5 PUSH2 0x26E8 JUMP JUMPDEST SWAP1 POP SWAP3 SWAP2 POP POP JUMP JUMPDEST PUSH1 0x0 PUSH1 0x40 DUP3 ADD SWAP1 POP PUSH2 0x277D PUSH1 0x0 DUP4 ADD DUP6 PUSH2 0x2050 JUMP JUMPDEST PUSH2 0x278A PUSH1 0x20 DUP4 ADD DUP5 PUSH2 0x2050 JUMP JUMPDEST SWAP4 SWAP3 POP POP POP JUMP JUMPDEST PUSH1 0x0 DUP2 ISZERO ISZERO SWAP1 POP SWAP2 SWAP1 POP JUMP JUMPDEST PUSH2 0x27A6 DUP2 PUSH2 0x2791 JUMP JUMPDEST DUP3 MSTORE POP POP JUMP JUMPDEST PUSH1 0x0 PUSH1 0x20 DUP3 ADD SWAP1 POP PUSH2 0x27C1 PUSH1 0x0 DUP4 ADD DUP5 PUSH2 0x279D JUMP JUMPDEST SWAP3 SWAP2 POP POP JUMP JUMPDEST PUSH1 0x0 DUP1 PUSH1 0x40 DUP4 DUP6 SUB SLT ISZERO PUSH2 0x27DE JUMPI PUSH2 0x27DD PUSH2 0x2084 JUMP JUMPDEST JUMPDEST PUSH1 0x0 PUSH2 0x27EC DUP6 DUP3 DUP7 ADD PUSH2 0x20D7 JUMP JUMPDEST SWAP3 POP POP PUSH1 0x20 PUSH2 0x27FD DUP6 DUP3 DUP7 ADD PUSH2 0x2167 JUMP JUMPDEST SWAP2 POP POP SWAP3 POP SWAP3 SWAP1 POP JUMP JUMPDEST PUSH1 0x0 DUP3 DUP3 MSTORE PUSH1 0x20 DUP3 ADD SWAP1 POP SWAP3 SWAP2 POP POP JUMP JUMPDEST PUSH32 0x50656C6467653A20726F6C65206E6F7420657869737421000000000000000000 PUSH1 0x0 DUP3 ADD MSTORE POP JUMP JUMPDEST PUSH1 0x0 PUSH2 0x284E PUSH1 0x17 DUP4 PUSH2 0x2807 JUMP JUMPDEST SWAP2 POP PUSH2 0x2859 DUP3 PUSH2 0x2818 JUMP JUMPDEST PUSH1 0x20 DUP3 ADD SWAP1 POP SWAP2 SWAP1 POP JUMP JUMPDEST PUSH1 0x0 PUSH1 0x20 DUP3 ADD SWAP1 POP DUP2 DUP2 SUB PUSH1 0x0 DUP4 ADD MSTORE PUSH2 0x287D DUP2 PUSH2 0x2841 JUMP JUMPDEST SWAP1 POP SWAP2 SWAP1 POP JUMP JUMPDEST PUSH32 0x50656C6467653A20616C7265616479207374616B656421000000000000000000 PUSH1 0x0 DUP3 ADD MSTORE POP JUMP JUMPDEST PUSH1 0x0 PUSH2 0x28BA PUSH1 0x17 DUP4 PUSH2 0x2807 JUMP JUMPDEST SWAP2 POP PUSH2 0x28C5 DUP3 PUSH2 0x2884 JUMP JUMPDEST PUSH1 0x20 DUP3 ADD SWAP1 POP SWAP2 SWAP1 POP JUMP JUMPDEST PUSH1 0x0 PUSH1 0x20 DUP3 ADD SWAP1 POP DUP2 DUP2 SUB PUSH1 0x0 DUP4 ADD MSTORE PUSH2 0x28E9 DUP2 PUSH2 0x28AD JUMP JUMPDEST SWAP1 POP SWAP2 SWAP1 POP JUMP JUMPDEST PUSH32 0x4E487B7100000000000000000000000000000000000000000000000000000000 PUSH1 0x0 MSTORE PUSH1 0x12 PUSH1 0x4 MSTORE PUSH1 0x24 PUSH1 0x0 REVERT JUMPDEST PUSH1 0x0 PUSH2 0x292A DUP3 PUSH2 0x2046 JUMP JUMPDEST SWAP2 POP PUSH2 0x2935 DUP4 PUSH2 0x2046 JUMP JUMPDEST SWAP3 POP DUP3 PUSH2 0x2945 JUMPI PUSH2 0x2944 PUSH2 0x28F0 JUMP JUMPDEST JUMPDEST DUP3 DUP3 MOD SWAP1 POP SWAP3 SWAP2 POP POP JUMP JUMPDEST PUSH32 0x506C656467653A206275792073746F726167652074696D652073657420657272 PUSH1 0x0 DUP3 ADD MSTORE PUSH32 0x6F72210000000000000000000000000000000000000000000000000000000000 PUSH1 0x20 DUP3 ADD MSTORE POP JUMP JUMPDEST PUSH1 0x0 PUSH2 0x29AC PUSH1 0x23 DUP4 PUSH2 0x2807 JUMP JUMPDEST SWAP2 POP PUSH2 0x29B7 DUP3 PUSH2 0x2950 JUMP JUMPDEST PUSH1 0x40 DUP3 ADD SWAP1 POP SWAP2 SWAP1 POP JUMP JUMPDEST PUSH1 0x0 PUSH1 0x20 DUP3 ADD SWAP1 POP DUP2 DUP2 SUB PUSH1 0x0 DUP4 ADD MSTORE PUSH2 0x29DB DUP2 PUSH2 0x299F JUMP JUMPDEST SWAP1 POP SWAP2 SWAP1 POP JUMP JUMPDEST PUSH32 0x4E487B7100000000000000000000000000000000000000000000000000000000 PUSH1 0x0 MSTORE PUSH1 0x11 PUSH1 0x4 MSTORE PUSH1 0x24 PUSH1 0x0 REVERT JUMPDEST PUSH1 0x0 PUSH2 0x2A1C DUP3 PUSH2 0x2046 JUMP JUMPDEST SWAP2 POP PUSH2 0x2A27 DUP4 PUSH2 0x2046 JUMP JUMPDEST SWAP3 POP DUP3 DUP3 MUL PUSH2 0x2A35 DUP2 PUSH2 0x2046 JUMP JUMPDEST SWAP2 POP DUP3 DUP3 DIV DUP5 EQ DUP4 ISZERO OR PUSH2 0x2A4C JUMPI PUSH2 0x2A4B PUSH2 0x29E2 JUMP JUMPDEST JUMPDEST POP SWAP3 SWAP2 POP POP JUMP JUMPDEST PUSH1 0x0 PUSH2 0x2A5E DUP3 PUSH2 0x2046 JUMP JUMPDEST SWAP2 POP PUSH2 0x2A69 DUP4 PUSH2 0x2046 JUMP JUMPDEST SWAP3 POP DUP3 DUP3 ADD SWAP1 POP DUP1 DUP3 GT ISZERO PUSH2 0x2A81 JUMPI PUSH2 0x2A80 PUSH2 0x29E2 JUMP JUMPDEST JUMPDEST SWAP3 SWAP2 POP POP JUMP JUMPDEST PUSH1 0x0 PUSH2 0x2A92 DUP3 PUSH2 0x2046 JUMP JUMPDEST SWAP2 POP PUSH2 0x2A9D DUP4 PUSH2 0x2046 JUMP JUMPDEST SWAP3 POP DUP3 DUP3 SUB SWAP1 POP DUP2 DUP2 GT ISZERO PUSH2 0x2AB5 JUMPI PUSH2 0x2AB4 PUSH2 0x29E2 JUMP JUMPDEST JUMPDEST SWAP3 SWAP2 POP POP JUMP JUMPDEST PUSH32 0x506C656467653A20757365722073746F72616765206E6F7420656E6F75676821 PUSH1 0x0 DUP3 ADD MSTORE POP JUMP JUMPDEST PUSH1 0x0 PUSH2 0x2AF1 PUSH1 0x20 DUP4 PUSH2 0x2807 JUMP JUMPDEST SWAP2 POP PUSH2 0x2AFC DUP3 PUSH2 0x2ABB JUMP JUMPDEST PUSH1 0x20 DUP3 ADD SWAP1 POP SWAP2 SWAP1 POP JUMP JUMPDEST PUSH1 0x0 PUSH1 0x20 DUP3 ADD SWAP1 POP DUP2 DUP2 SUB PUSH1 0x0 DUP4 ADD MSTORE PUSH2 0x2B20 DUP2 PUSH2 0x2AE4 JUMP JUMPDEST SWAP1 POP SWAP2 SWAP1 POP JUMP JUMPDEST PUSH1 0x0 DUP2 MLOAD SWAP1 POP SWAP2 SWAP1 POP JUMP JUMPDEST PUSH1 0x0 DUP3 DUP3 MSTORE PUSH1 0x20 DUP3 ADD SWAP1 POP SWAP3 SWAP2 POP POP JUMP JUMPDEST PUSH1 0x0 DUP2 SWAP1 POP PUSH1 0x20 DUP3 ADD SWAP1 POP SWAP2 SWAP1 POP JUMP JUMPDEST PUSH1 0x0 DUP2 MLOAD SWAP1 POP SWAP2 SWAP1 POP JUMP JUMPDEST PUSH1 0x0 DUP3 DUP3 MSTORE PUSH1 0x20 DUP3 ADD SWAP1 POP SWAP3 SWAP2 POP POP JUMP JUMPDEST PUSH1 0x0 JUMPDEST DUP4 DUP2 LT ISZERO PUSH2 0x2B8D JUMPI DUP1 DUP3 ADD MLOAD DUP2 DUP5 ADD MSTORE PUSH1 0x20 DUP2 ADD SWAP1 POP PUSH2 0x2B72 JUMP JUMPDEST PUSH1 0x0 DUP5 DUP5 ADD MSTORE POP POP POP POP JUMP JUMPDEST PUSH1 0x0 PUSH2 0x2BA4 DUP3 PUSH2 0x2B53 JUMP JUMPDEST PUSH2 0x2BAE DUP2 DUP6 PUSH2 0x2B5E JUMP JUMPDEST SWAP4 POP PUSH2 0x2BBE DUP2 DUP6 PUSH1 0x20 DUP7 ADD PUSH2 0x2B6F JUMP JUMPDEST PUSH2 0x2BC7 DUP2 PUSH2 0x2264 JUMP JUMPDEST DUP5 ADD SWAP2 POP POP SWAP3 SWAP2 POP POP JUMP JUMPDEST PUSH1 0x0 PUSH2 0x2BDE DUP4 DUP4 PUSH2 0x2B99 JUMP JUMPDEST SWAP1 POP SWAP3 SWAP2 POP POP JUMP JUMPDEST PUSH1 0x0 PUSH1 0x20 DUP3 ADD SWAP1 POP SWAP2 SWAP1 POP JUMP JUMPDEST PUSH1 0x0 PUSH2 0x2BFE DUP3 PUSH2 0x2B27 JUMP JUMPDEST PUSH2 0x2C08 DUP2 DUP6 PUSH2 0x2B32 JUMP JUMPDEST SWAP4 POP DUP4 PUSH1 0x20 DUP3 MUL DUP6 ADD PUSH2 0x2C1A DUP6 PUSH2 0x2B43 JUMP JUMPDEST DUP1 PUSH1 0x0 JUMPDEST DUP6 DUP2 LT ISZERO PUSH2 0x2C56 JUMPI DUP5 DUP5 SUB DUP10 MSTORE DUP2 MLOAD PUSH2 0x2C37 DUP6 DUP3 PUSH2 0x2BD2 JUMP JUMPDEST SWAP5 POP PUSH2 0x2C42 DUP4 PUSH2 0x2BE6 JUMP JUMPDEST SWAP3 POP PUSH1 0x20 DUP11 ADD SWAP10 POP POP PUSH1 0x1 DUP2 ADD SWAP1 POP PUSH2 0x2C1E JUMP JUMPDEST POP DUP3 SWAP8 POP DUP8 SWAP6 POP POP POP POP POP POP SWAP3 SWAP2 POP POP JUMP JUMPDEST PUSH1 0x0 PUSH2 0x2C73 DUP3 PUSH2 0x2B53 JUMP JUMPDEST PUSH2 0x2C7D DUP2 DUP6 PUSH2 0x2807 JUMP JUMPDEST SWAP4 POP PUSH2 0x2C8D DUP2 DUP6 PUSH1 0x20 DUP7 ADD PUSH2 0x2B6F JUMP JUMPDEST PUSH2 0x2C96 DUP2 PUSH2 0x2264 JUMP JUMPDEST DUP5 ADD SWAP2 POP POP SWAP3 SWAP2 POP POP JUMP JUMPDEST PUSH1 0x0 PUSH2 0x100 DUP3 ADD SWAP1 POP DUP2 DUP2 SUB PUSH1 0x0 DUP4 ADD MSTORE PUSH2 0x2CBC DUP2 DUP12 PUSH2 0x26E8 JUMP JUMPDEST SWAP1 POP DUP2 DUP2 SUB PUSH1 0x20 DUP4 ADD MSTORE PUSH2 0x2CD0 DUP2 DUP11 PUSH2 0x2BF3 JUMP JUMPDEST SWAP1 POP DUP2 DUP2 SUB PUSH1 0x40 DUP4 ADD MSTORE PUSH2 0x2CE4 DUP2 DUP10 PUSH2 0x2C68 JUMP JUMPDEST SWAP1 POP DUP2 DUP2 SUB PUSH1 0x60 DUP4 ADD MSTORE PUSH2 0x2CF8 DUP2 DUP9 PUSH2 0x2C68 JUMP JUMPDEST SWAP1 POP PUSH2 0x2D07 PUSH1 0x80 DUP4 ADD DUP8 PUSH2 0x2050 JUMP JUMPDEST PUSH2 0x2D14 PUSH1 0xA0 DUP4 ADD DUP7 PUSH2 0x2050 JUMP JUMPDEST PUSH2 0x2D21 PUSH1 0xC0 DUP4 ADD DUP6 PUSH2 0x2050 JUMP JUMPDEST PUSH2 0x2D2E PUSH1 0xE0 DUP4 ADD DUP5 PUSH2 0x21F5 JUMP JUMPDEST SWAP10 SWAP9 POP POP POP POP POP POP POP POP POP JUMP JUMPDEST PUSH2 0x2D44 DUP2 PUSH2 0x2791 JUMP JUMPDEST DUP2 EQ PUSH2 0x2D4F JUMPI PUSH1 0x0 DUP1 REVERT JUMPDEST POP JUMP JUMPDEST PUSH1 0x0 DUP2 MLOAD SWAP1 POP PUSH2 0x2D61 DUP2 PUSH2 0x2D3B JUMP JUMPDEST SWAP3 SWAP2 POP POP JUMP JUMPDEST PUSH1 0x0 PUSH1 0x20 DUP3 DUP5 SUB SLT ISZERO PUSH2 0x2D7D JUMPI PUSH2 0x2D7C PUSH2 0x2084 JUMP JUMPDEST JUMPDEST PUSH1 0x0 PUSH2 0x2D8B DUP5 DUP3 DUP6 ADD PUSH2 0x2D52 JUMP JUMPDEST SWAP2 POP POP SWAP3 SWAP2 POP POP JUMP JUMPDEST PUSH32 0x4E487B7100000000000000000000000000000000000000000000000000000000 PUSH1 0x0 MSTORE PUSH1 0x32 PUSH1 0x4 MSTORE PUSH1 0x24 PUSH1 0x0 REVERT JUMPDEST PUSH32 0x506C656467653A2075736572206E6F7420657869737421000000000000000000 PUSH1 0x0 DUP3 ADD MSTORE POP JUMP JUMPDEST PUSH1 0x0 PUSH2 0x2DF9 PUSH1 0x17 DUP4 PUSH2 0x2807 JUMP JUMPDEST SWAP2 POP PUSH2 0x2E04 DUP3 PUSH2 0x2DC3 JUMP JUMPDEST PUSH1 0x20 DUP3 ADD SWAP1 POP SWAP2 SWAP1 POP JUMP JUMPDEST PUSH1 0x0 PUSH1 0x20 DUP3 ADD SWAP1 POP DUP2 DUP2 SUB PUSH1 0x0 DUP4 ADD MSTORE PUSH2 0x2E28 DUP2 PUSH2 0x2DEC JUMP JUMPDEST SWAP1 POP SWAP2 SWAP1 POP JUMP JUMPDEST PUSH2 0x2E38 DUP2 PUSH2 0x217C JUMP JUMPDEST DUP3 MSTORE POP POP JUMP JUMPDEST PUSH1 0x0 PUSH1 0x20 DUP3 ADD SWAP1 POP PUSH2 0x2E53 PUSH1 0x0 DUP4 ADD DUP5 PUSH2 0x2E2F JUMP JUMPDEST SWAP3 SWAP2 POP POP JUMP JUMPDEST PUSH32 0x506C656467653A207374616B6520616D6F756E74206973207A65726F21000000 PUSH1 0x0 DUP3 ADD MSTORE POP JUMP JUMPDEST PUSH1 0x0 PUSH2 0x2E8F PUSH1 0x1D DUP4 PUSH2 0x2807 JUMP JUMPDEST SWAP2 POP PUSH2 0x2E9A DUP3 PUSH2 0x2E59 JUMP JUMPDEST PUSH1 0x20 DUP3 ADD SWAP1 POP SWAP2 SWAP1 POP JUMP JUMPDEST PUSH1 0x0 PUSH1 0x20 DUP3 ADD SWAP1 POP DUP2 DUP2 SUB PUSH1 0x0 DUP4 ADD MSTORE PUSH2 0x2EBE DUP2 PUSH2 0x2E82 JUMP JUMPDEST SWAP1 POP SWAP2 SWAP1 POP JUMP JUMPDEST PUSH32 0x4F776E61626C653A206E6577206F776E657220697320746865207A65726F2061 PUSH1 0x0 DUP3 ADD MSTORE PUSH32 0x6464726573730000000000000000000000000000000000000000000000000000 PUSH1 0x20 DUP3 ADD MSTORE POP JUMP JUMPDEST PUSH1 0x0 PUSH2 0x2F21 PUSH1 0x26 DUP4 PUSH2 0x2807 JUMP JUMPDEST SWAP2 POP PUSH2 0x2F2C DUP3 PUSH2 0x2EC5 JUMP JUMPDEST PUSH1 0x40 DUP3 ADD SWAP1 POP SWAP2 SWAP1 POP JUMP JUMPDEST PUSH1 0x0 PUSH1 0x20 DUP3 ADD SWAP1 POP DUP2 DUP2 SUB PUSH1 0x0 DUP4 ADD MSTORE PUSH2 0x2F50 DUP2 PUSH2 0x2F14 JUMP JUMPDEST SWAP1 POP SWAP2 SWAP1 POP JUMP JUMPDEST PUSH32 0x5265656E7472616E637947756172643A207265656E7472616E742063616C6C00 PUSH1 0x0 DUP3 ADD MSTORE POP JUMP JUMPDEST PUSH1 0x0 PUSH2 0x2F8D PUSH1 0x1F DUP4 PUSH2 0x2807 JUMP JUMPDEST SWAP2 POP PUSH2 0x2F98 DUP3 PUSH2 0x2F57 JUMP JUMPDEST PUSH1 0x20 DUP3 ADD SWAP1 POP SWAP2 SWAP1 POP JUMP JUMPDEST PUSH1 0x0 PUSH1 0x20 DUP3 ADD SWAP1 POP DUP2 DUP2 SUB PUSH1 0x0 DUP4 ADD MSTORE PUSH2 0x2FBC DUP2 PUSH2 0x2F80 JUMP JUMPDEST SWAP1 POP SWAP2 SWAP1 POP JUMP JUMPDEST PUSH32 0x506C656467653A207374616B652073746F7265616765206973207A65726F2100 PUSH1 0x0 DUP3 ADD MSTORE POP JUMP JUMPDEST PUSH1 0x0 PUSH2 0x2FF9 PUSH1 0x1F DUP4 PUSH2 0x2807 JUMP JUMPDEST SWAP2 POP PUSH2 0x3004 DUP3 PUSH2 0x2FC3 JUMP JUMPDEST PUSH1 0x20 DUP3 ADD SWAP1 POP SWAP2 SWAP1 POP JUMP JUMPDEST PUSH1 0x0 PUSH1 0x20 DUP3 ADD SWAP1 POP DUP2 DUP2 SUB PUSH1 0x0 DUP4 ADD MSTORE PUSH2 0x3028 DUP2 PUSH2 0x2FEC JUMP JUMPDEST SWAP1 POP SWAP2 SWAP1 POP JUMP JUMPDEST PUSH1 0x0 DUP2 MLOAD SWAP1 POP PUSH2 0x303E DUP2 PUSH2 0x2150 JUMP JUMPDEST SWAP3 SWAP2 POP POP JUMP JUMPDEST PUSH1 0x0 PUSH1 0x20 DUP3 DUP5 SUB SLT ISZERO PUSH2 0x305A JUMPI PUSH2 0x3059 PUSH2 0x2084 JUMP JUMPDEST JUMPDEST PUSH1 0x0 PUSH2 0x3068 DUP5 DUP3 DUP6 ADD PUSH2 0x302F JUMP JUMPDEST SWAP2 POP POP SWAP3 SWAP2 POP POP JUMP JUMPDEST PUSH32 0x506C656467653A2062616C616E6365206E6F7420656E6F756768210000000000 PUSH1 0x0 DUP3 ADD MSTORE POP JUMP JUMPDEST PUSH1 0x0 PUSH2 0x30A7 PUSH1 0x1B DUP4 PUSH2 0x2807 JUMP JUMPDEST SWAP2 POP PUSH2 0x30B2 DUP3 PUSH2 0x3071 JUMP JUMPDEST PUSH1 0x20 DUP3 ADD SWAP1 POP SWAP2 SWAP1 POP JUMP JUMPDEST PUSH1 0x0 PUSH1 0x20 DUP3 ADD SWAP1 POP DUP2 DUP2 SUB PUSH1 0x0 DUP4 ADD MSTORE PUSH2 0x30D6 DUP2 PUSH2 0x309A JUMP JUMPDEST SWAP1 POP SWAP2 SWAP1 POP JUMP JUMPDEST PUSH1 0x0 PUSH1 0x60 DUP3 ADD SWAP1 POP PUSH2 0x30F2 PUSH1 0x0 DUP4 ADD DUP7 PUSH2 0x21F5 JUMP JUMPDEST PUSH2 0x30FF PUSH1 0x20 DUP4 ADD DUP6 PUSH2 0x21F5 JUMP JUMPDEST PUSH2 0x310C PUSH1 0x40 DUP4 ADD DUP5 PUSH2 0x2050 JUMP JUMPDEST SWAP5 SWAP4 POP POP POP POP JUMP JUMPDEST PUSH32 0x4F776E61626C653A2063616C6C6572206973206E6F7420746865206F776E6572 PUSH1 0x0 DUP3 ADD MSTORE POP JUMP JUMPDEST PUSH1 0x0 PUSH2 0x314A PUSH1 0x20 DUP4 PUSH2 0x2807 JUMP JUMPDEST SWAP2 POP PUSH2 0x3155 DUP3 PUSH2 0x3114 JUMP JUMPDEST PUSH1 0x20 DUP3 ADD SWAP1 POP SWAP2 SWAP1 POP JUMP JUMPDEST PUSH1 0x0 PUSH1 0x20 DUP3 ADD SWAP1 POP DUP2 DUP2 SUB PUSH1 0x0 DUP4 ADD MSTORE PUSH2 0x3179 DUP2 PUSH2 0x313D JUMP JUMPDEST SWAP1 POP SWAP2 SWAP1 POP JUMP JUMPDEST PUSH32 0x456C656D656E74206E6F7420696E207365742E00000000000000000000000000 PUSH1 0x0 DUP3 ADD MSTORE POP JUMP JUMPDEST PUSH1 0x0 PUSH2 0x31B6 PUSH1 0x13 DUP4 PUSH2 0x2807 JUMP JUMPDEST SWAP2 POP PUSH2 0x31C1 DUP3 PUSH2 0x3180 JUMP JUMPDEST PUSH1 0x20 DUP3 ADD SWAP1 POP SWAP2 SWAP1 POP JUMP JUMPDEST PUSH1 0x0 PUSH1 0x20 DUP3 ADD SWAP1 POP DUP2 DUP2 SUB PUSH1 0x0 DUP4 ADD MSTORE PUSH2 0x31E5 DUP2 PUSH2 0x31A9 JUMP JUMPDEST SWAP1 POP SWAP2 SWAP1 POP JUMP JUMPDEST PUSH32 0x4E487B7100000000000000000000000000000000000000000000000000000000 PUSH1 0x0 MSTORE PUSH1 0x31 PUSH1 0x4 MSTORE PUSH1 0x24 PUSH1 0x0 REVERT JUMPDEST PUSH1 0x0 PUSH2 0x3226 DUP3 PUSH2 0x2046 JUMP JUMPDEST SWAP2 POP PUSH32 0xFFFFFFFFFFFFFFFFFFFFFFFFFFFFFFFFFFFFFFFFFFFFFFFFFFFFFFFFFFFFFFFF DUP3 SUB PUSH2 0x3258 JUMPI PUSH2 0x3257 PUSH2 0x29E2 JUMP JUMPDEST JUMPDEST PUSH1 0x1 DUP3 ADD SWAP1 POP SWAP2 SWAP1 POP JUMP INVALID LOG2 PUSH5 0x6970667358 0x22 SLT KECCAK256 RETURNDATASIZE MSTORE 0xF6 0x49 0xAB 0xBE 0xEB 0xE9 0xEB PUSH27 0xAE8E72B4C2DDF0EFF0BE3129DDB17DDDFB96C993F5764736F6C63 NUMBER STOP ADDMOD SLT STOP CALLER "
				},
				"gasEstimates": {
					"creation": {
						"codeDepositCost": "2590600",
						"executionCost": "infinite",
						"totalCost": "infinite"
					},
					"external": {
						"allMiners()": "infinite",
						"allValidators()": "infinite",
						"buyStorage(uint256,uint256)": "infinite",
						"checkMiner(address)": "9467",
						"checkValidator(address)": "9469",
						"dayStamp()": "440",
						"getMiners(uint256,uint256)": "infinite",
						"getUerRole(address)": "2995",
						"minerLength()": "2583",
						"minerStakePrice()": "2453",
						"minerStorage(address)": "infinite",
						"owner()": "2590",
						"pool()": "2604",
						"punishUser(address,uint256)": "infinite",
						"removeUser(address)": "infinite",
						"renounceOwnership()": "30509",
						"setSotre(address)": "27120",
						"singleStoragePricce()": "2496",
						"stake(uint256,uint8)": "infinite",
						"store()": "2604",
						"token()": "2624",
						"transferOwnership(address)": "30810",
						"uploadMetaData(address[],string[],string,string,uint256,uint256,uint256,uint256,address)": "infinite",
						"userOwnStorage(address)": "infinite",
						"userStakeAmount(address)": "2882",
						"validatorLength()": "2561",
						"validatorStakePrice()": "2474"
					},
					"internal": {
						"_getRandomIndex(uint256,uint256)": "infinite",
						"minerStake(uint256,address)": "infinite",
						"validatorStake(address)": "infinite"
					}
				},
				"methodIdentifiers": {
					"allMiners()": "cafc8658",
					"allValidators()": "f30589c3",
					"buyStorage(uint256,uint256)": "3b962c53",
					"checkMiner(address)": "dde20c54",
					"checkValidator(address)": "797327ae",
					"dayStamp()": "b83f783f",
					"getMiners(uint256,uint256)": "5bf1196f",
					"getUerRole(address)": "1ff512d1",
					"minerLength()": "6d746cfb",
					"minerStakePrice()": "00c9e74d",
					"minerStorage(address)": "6c8939cd",
					"owner()": "8da5cb5b",
					"pool()": "16f0115b",
					"punishUser(address,uint256)": "b37e67e4",
					"removeUser(address)": "98575188",
					"renounceOwnership()": "715018a6",
					"setSotre(address)": "2bbf9b8c",
					"singleStoragePricce()": "bf7e8649",
					"stake(uint256,uint8)": "10087fb1",
					"store()": "975057e7",
					"token()": "fc0c546a",
					"transferOwnership(address)": "f2fde38b",
					"uploadMetaData(address[],string[],string,string,uint256,uint256,uint256,uint256,address)": "55f314c4",
					"userOwnStorage(address)": "05ccac1f",
					"userStakeAmount(address)": "3e84681a",
					"validatorLength()": "aed1d403",
					"validatorStakePrice()": "b96bb66f"
				}
			},
			"storageLayout": {
				"storage": [
					{
						"astId": 7,
						"contract": "Pledge.sol:Pledge",
						"label": "_owner",
						"offset": 0,
						"slot": "0",
						"type": "t_address"
					},
					{
						"astId": 123,
						"contract": "Pledge.sol:Pledge",
						"label": "_status",
						"offset": 0,
						"slot": "1",
						"type": "t_uint256"
					},
					{
						"astId": 615,
						"contract": "Pledge.sol:Pledge",
						"label": "pool",
						"offset": 0,
						"slot": "2",
						"type": "t_address"
					},
					{
						"astId": 617,
						"contract": "Pledge.sol:Pledge",
						"label": "store",
						"offset": 0,
						"slot": "3",
						"type": "t_address"
					},
					{
						"astId": 619,
						"contract": "Pledge.sol:Pledge",
						"label": "token",
						"offset": 0,
						"slot": "4",
						"type": "t_address"
					},
					{
						"astId": 621,
						"contract": "Pledge.sol:Pledge",
						"label": "minerStakePrice",
						"offset": 0,
						"slot": "5",
						"type": "t_uint256"
					},
					{
						"astId": 623,
						"contract": "Pledge.sol:Pledge",
						"label": "validatorStakePrice",
						"offset": 0,
						"slot": "6",
						"type": "t_uint256"
					},
					{
						"astId": 625,
						"contract": "Pledge.sol:Pledge",
						"label": "singleStoragePricce",
						"offset": 0,
						"slot": "7",
						"type": "t_uint256"
					},
					{
						"astId": 628,
						"contract": "Pledge.sol:Pledge",
						"label": "filterAddress",
						"offset": 0,
						"slot": "8",
						"type": "t_array(t_address)dyn_storage"
					},
					{
						"astId": 632,
						"contract": "Pledge.sol:Pledge",
						"label": "userRole",
						"offset": 0,
						"slot": "9",
						"type": "t_mapping(t_address,t_uint8)"
					},
					{
						"astId": 637,
						"contract": "Pledge.sol:Pledge",
						"label": "minerStorage",
						"offset": 0,
						"slot": "10",
						"type": "t_mapping(t_address,t_struct(MinerStorage)1388_storage)"
					},
					{
						"astId": 641,
						"contract": "Pledge.sol:Pledge",
						"label": "userStakeAmount",
						"offset": 0,
						"slot": "11",
						"type": "t_mapping(t_address,t_uint256)"
					},
					{
						"astId": 646,
						"contract": "Pledge.sol:Pledge",
						"label": "userOwnStorage",
						"offset": 0,
						"slot": "12",
						"type": "t_mapping(t_address,t_struct(UserStorage)1395_storage)"
					},
					{
						"astId": 649,
						"contract": "Pledge.sol:Pledge",
						"label": "miners",
						"offset": 0,
						"slot": "13",
						"type": "t_struct(AddressSet)1549_storage"
					},
					{
						"astId": 652,
						"contract": "Pledge.sol:Pledge",
						"label": "validators",
						"offset": 0,
						"slot": "15",
						"type": "t_struct(AddressSet)1549_storage"
					},
					{
						"astId": 655,
						"contract": "Pledge.sol:Pledge",
						"label": "distributors",
						"offset": 0,
						"slot": "17",
						"type": "t_struct(AddressSet)1549_storage"
					},
					{
						"astId": 658,
						"contract": "Pledge.sol:Pledge",
						"label": "chainUsers",
						"offset": 0,
						"slot": "19",
						"type": "t_struct(AddressSet)1549_storage"
					}
				],
				"types": {
					"t_address": {
						"encoding": "inplace",
						"label": "address",
						"numberOfBytes": "20"
					},
					"t_array(t_address)dyn_storage": {
						"base": "t_address",
						"encoding": "dynamic_array",
						"label": "address[]",
						"numberOfBytes": "32"
					},
					"t_mapping(t_address,t_struct(MinerStorage)1388_storage)": {
						"encoding": "mapping",
						"key": "t_address",
						"label": "mapping(address => struct IPledge.MinerStorage)",
						"numberOfBytes": "32",
						"value": "t_struct(MinerStorage)1388_storage"
					},
					"t_mapping(t_address,t_struct(UserStorage)1395_storage)": {
						"encoding": "mapping",
						"key": "t_address",
						"label": "mapping(address => struct IPledge.UserStorage)",
						"numberOfBytes": "32",
						"value": "t_struct(UserStorage)1395_storage"
					},
					"t_mapping(t_address,t_uint256)": {
						"encoding": "mapping",
						"key": "t_address",
						"label": "mapping(address => uint256)",
						"numberOfBytes": "32",
						"value": "t_uint256"
					},
					"t_mapping(t_address,t_uint8)": {
						"encoding": "mapping",
						"key": "t_address",
						"label": "mapping(address => uint8)",
						"numberOfBytes": "32",
						"value": "t_uint8"
					},
					"t_struct(AddressSet)1549_storage": {
						"encoding": "inplace",
						"label": "struct AddressSetLib.AddressSet",
						"members": [
							{
								"astId": 1544,
								"contract": "Pledge.sol:Pledge",
								"label": "elements",
								"offset": 0,
								"slot": "0",
								"type": "t_array(t_address)dyn_storage"
							},
							{
								"astId": 1548,
								"contract": "Pledge.sol:Pledge",
								"label": "indices",
								"offset": 0,
								"slot": "1",
								"type": "t_mapping(t_address,t_uint256)"
							}
						],
						"numberOfBytes": "64"
					},
					"t_struct(MinerStorage)1388_storage": {
						"encoding": "inplace",
						"label": "struct IPledge.MinerStorage",
						"members": [
							{
								"astId": 1385,
								"contract": "Pledge.sol:Pledge",
								"label": "total",
								"offset": 0,
								"slot": "0",
								"type": "t_uint256"
							},
							{
								"astId": 1387,
								"contract": "Pledge.sol:Pledge",
								"label": "unUse",
								"offset": 0,
								"slot": "1",
								"type": "t_uint256"
							}
						],
						"numberOfBytes": "64"
					},
					"t_struct(UserStorage)1395_storage": {
						"encoding": "inplace",
						"label": "struct IPledge.UserStorage",
						"members": [
							{
								"astId": 1390,
								"contract": "Pledge.sol:Pledge",
								"label": "total",
								"offset": 0,
								"slot": "0",
								"type": "t_uint256"
							},
							{
								"astId": 1392,
								"contract": "Pledge.sol:Pledge",
								"label": "unUse",
								"offset": 0,
								"slot": "1",
								"type": "t_uint256"
							},
							{
								"astId": 1394,
								"contract": "Pledge.sol:Pledge",
								"label": "deadline",
								"offset": 0,
								"slot": "2",
								"type": "t_uint256"
							}
						],
						"numberOfBytes": "96"
					},
					"t_uint256": {
						"encoding": "inplace",
						"label": "uint256",
						"numberOfBytes": "32"
					},
					"t_uint8": {
						"encoding": "inplace",
						"label": "uint8",
						"numberOfBytes": "1"
					}
				}
			},
			"userdoc": {
				"kind": "user",
				"methods": {},
				"version": 1
			}
		}
	}
}