{
	"Store.sol": {
		"Store": {
			"abi": [
				{
					"inputs": [
						{
							"internalType": "address",
							"name": "pledge_",
							"type": "address"
						}
					],
					"stateMutability": "nonpayable",
					"type": "constructor"
				},
				{
					"anonymous": false,
					"inputs": [
						{
							"indexed": true,
							"internalType": "address",
							"name": "previousOwner",
							"type": "address"
						},
						{
							"indexed": true,
							"internalType": "address",
							"name": "newOwner",
							"type": "address"
						}
					],
					"name": "OwnershipTransferred",
					"type": "event"
				},
				{
					"anonymous": false,
					"inputs": [
						{
							"indexed": true,
							"internalType": "address",
							"name": "user",
							"type": "address"
						},
						{
							"indexed": false,
							"internalType": "string",
							"name": "cid",
							"type": "string"
						},
						{
							"indexed": false,
							"internalType": "string",
							"name": "ext",
							"type": "string"
						}
					],
					"name": "UploadMetaEvent",
					"type": "event"
				},
				{
					"inputs": [
						{
							"internalType": "address",
							"name": "",
							"type": "address"
						},
						{
							"internalType": "uint256",
							"name": "",
							"type": "uint256"
						}
					],
					"name": "cidList",
					"outputs": [
						{
							"internalType": "string",
							"name": "",
							"type": "string"
						}
					],
					"stateMutability": "view",
					"type": "function"
				},
				{
					"inputs": [
						{
							"internalType": "string",
							"name": "",
							"type": "string"
						}
					],
					"name": "cidMeta",
					"outputs": [
						{
							"internalType": "string",
							"name": "ext",
							"type": "string"
						},
						{
							"internalType": "uint256",
							"name": "size",
							"type": "uint256"
						},
						{
							"internalType": "uint256",
							"name": "dataShards",
							"type": "uint256"
						},
						{
							"internalType": "uint256",
							"name": "parityShards",
							"type": "uint256"
						}
					],
					"stateMutability": "view",
					"type": "function"
				},
				{
					"inputs": [
						{
							"internalType": "string",
							"name": "",
							"type": "string"
						}
					],
					"name": "cidOwner",
					"outputs": [
						{
							"internalType": "address",
							"name": "",
							"type": "address"
						}
					],
					"stateMutability": "view",
					"type": "function"
				},
				{
					"inputs": [
						{
							"internalType": "address",
							"name": "miner_",
							"type": "address"
						},
						{
							"internalType": "string",
							"name": "fileHash_",
							"type": "string"
						}
					],
					"name": "delFileHash",
					"outputs": [],
					"stateMutability": "nonpayable",
					"type": "function"
				},
				{
					"inputs": [
						{
							"internalType": "address",
							"name": "miner_",
							"type": "address"
						}
					],
					"name": "getMinerAllHash",
					"outputs": [
						{
							"internalType": "string[]",
							"name": "",
							"type": "string[]"
						}
					],
					"stateMutability": "view",
					"type": "function"
				},
				{
					"inputs": [
						{
							"internalType": "address",
							"name": "miner_",
							"type": "address"
						}
					],
					"name": "getlength",
					"outputs": [
						{
							"internalType": "uint256",
							"name": "",
							"type": "uint256"
						}
					],
					"stateMutability": "view",
					"type": "function"
				},
				{
					"inputs": [],
					"name": "owner",
					"outputs": [
						{
							"internalType": "address",
							"name": "",
							"type": "address"
						}
					],
					"stateMutability": "view",
					"type": "function"
				},
				{
					"inputs": [],
					"name": "pledge",
					"outputs": [
						{
							"internalType": "address",
							"name": "",
							"type": "address"
						}
					],
					"stateMutability": "view",
					"type": "function"
				},
				{
					"inputs": [],
					"name": "renounceOwnership",
					"outputs": [],
					"stateMutability": "nonpayable",
					"type": "function"
				},
				{
					"inputs": [
						{
							"internalType": "address",
							"name": "newOwner",
							"type": "address"
						}
					],
					"name": "transferOwnership",
					"outputs": [],
					"stateMutability": "nonpayable",
					"type": "function"
				},
				{
					"inputs": [
						{
							"internalType": "address[]",
							"name": "miners_",
							"type": "address[]"
						},
						{
							"internalType": "string[]",
							"name": "fileHash_",
							"type": "string[]"
						},
						{
							"internalType": "string",
							"name": "ext_",
							"type": "string"
						},
						{
							"internalType": "string",
							"name": "cid_",
							"type": "string"
						},
						{
							"internalType": "uint256",
							"name": "size_",
							"type": "uint256"
						},
						{
							"internalType": "uint256",
							"name": "dataShards",
							"type": "uint256"
						},
						{
							"internalType": "uint256",
							"name": "parityShards",
							"type": "uint256"
						},
						{
							"internalType": "address",
							"name": "user_",
							"type": "address"
						}
					],
					"name": "uploadMetaData",
					"outputs": [
						{
							"internalType": "bool",
							"name": "",
							"type": "bool"
						}
					],
					"stateMutability": "nonpayable",
					"type": "function"
				},
				{
					"inputs": [
						{
							"internalType": "address",
							"name": "",
							"type": "address"
						}
					],
					"name": "userCidLength",
					"outputs": [
						{
							"internalType": "uint256",
							"name": "",
							"type": "uint256"
						}
					],
					"stateMutability": "view",
					"type": "function"
				}
			],
			"devdoc": {
				"kind": "dev",
				"methods": {
					"owner()": {
						"details": "Returns the address of the current owner."
					},
					"renounceOwnership()": {
						"details": "Leaves the contract without owner. It will not be possible to call `onlyOwner` functions. Can only be called by the current owner. NOTE: Renouncing ownership will leave the contract without an owner, thereby disabling any functionality that is only available to the owner."
					},
					"transferOwnership(address)": {
						"details": "Transfers ownership of the contract to a new account (`newOwner`). Can only be called by the current owner."
					}
				},
				"version": 1
			},
			"evm": {
				"assembly": "    /* \"Store.sol\":249:2309  contract Store is IStore, Ownable, ReentrancyGuard {... */\n  mstore(0x40, 0x80)\n    /* \"Store.sol\":805:899  constructor(address pledge_) {... */\n  callvalue\n  dup1\n  iszero\n  tag_1\n  jumpi\n  0x00\n  dup1\n  revert\ntag_1:\n  pop\n  mload(0x40)\n  sub(codesize, bytecodeSize)\n  dup1\n  bytecodeSize\n  dup4\n  codecopy\n  dup2\n  dup2\n  add\n  0x40\n  mstore\n  dup2\n  add\n  swap1\n  tag_2\n  swap2\n  swap1\n  tag_3\n  jump\t// in\ntag_2:\n    /* \"@openzeppelin/contracts/access/Ownable.sol\":936:968  _transferOwnership(_msgSender()) */\n  tag_8\n    /* \"@openzeppelin/contracts/access/Ownable.sol\":955:967  _msgSender() */\n  tag_9\n    /* \"@openzeppelin/contracts/access/Ownable.sol\":955:965  _msgSender */\n  shl(0x20, tag_10)\n    /* \"@openzeppelin/contracts/access/Ownable.sol\":955:967  _msgSender() */\n  0x20\n  shr\n  jump\t// in\ntag_9:\n    /* \"@openzeppelin/contracts/access/Ownable.sol\":936:954  _transferOwnership */\n  shl(0x20, tag_11)\n    /* \"@openzeppelin/contracts/access/Ownable.sol\":936:968  _transferOwnership(_msgSender()) */\n  0x20\n  shr\n  jump\t// in\ntag_8:\n    /* \"@openzeppelin/contracts/security/ReentrancyGuard.sol\":1716:1717  1 */\n  0x01\n    /* \"@openzeppelin/contracts/security/ReentrancyGuard.sol\":1821:1828  _status */\n  dup1\n    /* \"@openzeppelin/contracts/security/ReentrancyGuard.sol\":1821:1843  _status = _NOT_ENTERED */\n  dup2\n  swap1\n  sstore\n  pop\n    /* \"Store.sol\":853:860  pledge_ */\n  dup1\n    /* \"Store.sol\":844:850  pledge */\n  0x02\n  0x00\n    /* \"Store.sol\":844:860  pledge = pledge_ */\n  0x0100\n  exp\n  dup2\n  sload\n  dup2\n  0xffffffffffffffffffffffffffffffffffffffff\n  mul\n  not\n  and\n  swap1\n  dup4\n  0xffffffffffffffffffffffffffffffffffffffff\n  and\n  mul\n  or\n  swap1\n  sstore\n  pop\n    /* \"Store.sol\":888:892  true */\n  0x01\n    /* \"Store.sol\":870:876  admins */\n  0x04\n    /* \"Store.sol\":870:885  admins[pledge_] */\n  0x00\n    /* \"Store.sol\":877:884  pledge_ */\n  dup4\n    /* \"Store.sol\":870:885  admins[pledge_] */\n  0xffffffffffffffffffffffffffffffffffffffff\n  and\n  0xffffffffffffffffffffffffffffffffffffffff\n  and\n  dup2\n  mstore\n  0x20\n  add\n  swap1\n  dup2\n  mstore\n  0x20\n  add\n  0x00\n  keccak256\n  0x00\n    /* \"Store.sol\":870:892  admins[pledge_] = true */\n  0x0100\n  exp\n  dup2\n  sload\n  dup2\n  0xff\n  mul\n  not\n  and\n  swap1\n  dup4\n  iszero\n  iszero\n  mul\n  or\n  swap1\n  sstore\n  pop\n    /* \"Store.sol\":805:899  constructor(address pledge_) {... */\n  pop\n    /* \"Store.sol\":249:2309  contract Store is IStore, Ownable, ReentrancyGuard {... */\n  jump(tag_14)\n    /* \"@openzeppelin/contracts/utils/Context.sol\":640:736  function _msgSender() internal view virtual returns (address) {... */\ntag_10:\n    /* \"@openzeppelin/contracts/utils/Context.sol\":693:700  address */\n  0x00\n    /* \"@openzeppelin/contracts/utils/Context.sol\":719:729  msg.sender */\n  caller\n    /* \"@openzeppelin/contracts/utils/Context.sol\":712:729  return msg.sender */\n  swap1\n  pop\n    /* \"@openzeppelin/contracts/utils/Context.sol\":640:736  function _msgSender() internal view virtual returns (address) {... */\n  swap1\n  jump\t// out\n    /* \"@openzeppelin/contracts/access/Ownable.sol\":2426:2613  function _transferOwnership(address newOwner) internal virtual {... */\ntag_11:\n    /* \"@openzeppelin/contracts/access/Ownable.sol\":2499:2515  address oldOwner */\n  0x00\n    /* \"@openzeppelin/contracts/access/Ownable.sol\":2518:2524  _owner */\n  dup1\n  0x00\n  swap1\n  sload\n  swap1\n  0x0100\n  exp\n  swap1\n  div\n  0xffffffffffffffffffffffffffffffffffffffff\n  and\n    /* \"@openzeppelin/contracts/access/Ownable.sol\":2499:2524  address oldOwner = _owner */\n  swap1\n  pop\n    /* \"@openzeppelin/contracts/access/Ownable.sol\":2543:2551  newOwner */\n  dup2\n    /* \"@openzeppelin/contracts/access/Ownable.sol\":2534:2540  _owner */\n  0x00\n  dup1\n    /* \"@openzeppelin/contracts/access/Ownable.sol\":2534:2551  _owner = newOwner */\n  0x0100\n  exp\n  dup2\n  sload\n  dup2\n  0xffffffffffffffffffffffffffffffffffffffff\n  mul\n  not\n  and\n  swap1\n  dup4\n  0xffffffffffffffffffffffffffffffffffffffff\n  and\n  mul\n  or\n  swap1\n  sstore\n  pop\n    /* \"@openzeppelin/contracts/access/Ownable.sol\":2597:2605  newOwner */\n  dup2\n    /* \"@openzeppelin/contracts/access/Ownable.sol\":2566:2606  OwnershipTransferred(oldOwner, newOwner) */\n  0xffffffffffffffffffffffffffffffffffffffff\n  and\n    /* \"@openzeppelin/contracts/access/Ownable.sol\":2587:2595  oldOwner */\n  dup2\n    /* \"@openzeppelin/contracts/access/Ownable.sol\":2566:2606  OwnershipTransferred(oldOwner, newOwner) */\n  0xffffffffffffffffffffffffffffffffffffffff\n  and\n  0x8be0079c531659141344cd1fd0a4f28419497f9722a3daafe3b4186f6b6457e0\n  mload(0x40)\n  mload(0x40)\n  dup1\n  swap2\n  sub\n  swap1\n  log3\n    /* \"@openzeppelin/contracts/access/Ownable.sol\":2489:2613  {... */\n  pop\n    /* \"@openzeppelin/contracts/access/Ownable.sol\":2426:2613  function _transferOwnership(address newOwner) internal virtual {... */\n  pop\n  jump\t// out\n    /* \"#utility.yul\":88:205   */\ntag_18:\n    /* \"#utility.yul\":197:198   */\n  0x00\n    /* \"#utility.yul\":194:195   */\n  dup1\n    /* \"#utility.yul\":187:199   */\n  revert\n    /* \"#utility.yul\":334:460   */\ntag_20:\n    /* \"#utility.yul\":371:378   */\n  0x00\n    /* \"#utility.yul\":411:453   */\n  0xffffffffffffffffffffffffffffffffffffffff\n    /* \"#utility.yul\":404:409   */\n  dup3\n    /* \"#utility.yul\":400:454   */\n  and\n    /* \"#utility.yul\":389:454   */\n  swap1\n  pop\n    /* \"#utility.yul\":334:460   */\n  swap2\n  swap1\n  pop\n  jump\t// out\n    /* \"#utility.yul\":466:562   */\ntag_21:\n    /* \"#utility.yul\":503:510   */\n  0x00\n    /* \"#utility.yul\":532:556   */\n  tag_30\n    /* \"#utility.yul\":550:555   */\n  dup3\n    /* \"#utility.yul\":532:556   */\n  tag_20\n  jump\t// in\ntag_30:\n    /* \"#utility.yul\":521:556   */\n  swap1\n  pop\n    /* \"#utility.yul\":466:562   */\n  swap2\n  swap1\n  pop\n  jump\t// out\n    /* \"#utility.yul\":568:690   */\ntag_22:\n    /* \"#utility.yul\":641:665   */\n  tag_32\n    /* \"#utility.yul\":659:664   */\n  dup2\n    /* \"#utility.yul\":641:665   */\n  tag_21\n  jump\t// in\ntag_32:\n    /* \"#utility.yul\":634:639   */\n  dup2\n    /* \"#utility.yul\":631:666   */\n  eq\n    /* \"#utility.yul\":621:684   */\n  tag_33\n  jumpi\n    /* \"#utility.yul\":680:681   */\n  0x00\n    /* \"#utility.yul\":677:678   */\n  dup1\n    /* \"#utility.yul\":670:682   */\n  revert\n    /* \"#utility.yul\":621:684   */\ntag_33:\n    /* \"#utility.yul\":568:690   */\n  pop\n  jump\t// out\n    /* \"#utility.yul\":696:839   */\ntag_23:\n    /* \"#utility.yul\":753:758   */\n  0x00\n    /* \"#utility.yul\":784:790   */\n  dup2\n    /* \"#utility.yul\":778:791   */\n  mload\n    /* \"#utility.yul\":769:791   */\n  swap1\n  pop\n    /* \"#utility.yul\":800:833   */\n  tag_35\n    /* \"#utility.yul\":827:832   */\n  dup2\n    /* \"#utility.yul\":800:833   */\n  tag_22\n  jump\t// in\ntag_35:\n    /* \"#utility.yul\":696:839   */\n  swap3\n  swap2\n  pop\n  pop\n  jump\t// out\n    /* \"#utility.yul\":845:1196   */\ntag_3:\n    /* \"#utility.yul\":915:921   */\n  0x00\n    /* \"#utility.yul\":964:966   */\n  0x20\n    /* \"#utility.yul\":952:961   */\n  dup3\n    /* \"#utility.yul\":943:950   */\n  dup5\n    /* \"#utility.yul\":939:962   */\n  sub\n    /* \"#utility.yul\":935:967   */\n  slt\n    /* \"#utility.yul\":932:1051   */\n  iszero\n  tag_37\n  jumpi\n    /* \"#utility.yul\":970:1049   */\n  tag_38\n  tag_18\n  jump\t// in\ntag_38:\n    /* \"#utility.yul\":932:1051   */\ntag_37:\n    /* \"#utility.yul\":1090:1091   */\n  0x00\n    /* \"#utility.yul\":1115:1179   */\n  tag_39\n    /* \"#utility.yul\":1171:1178   */\n  dup5\n    /* \"#utility.yul\":1162:1168   */\n  dup3\n    /* \"#utility.yul\":1151:1160   */\n  dup6\n    /* \"#utility.yul\":1147:1169   */\n  add\n    /* \"#utility.yul\":1115:1179   */\n  tag_23\n  jump\t// in\ntag_39:\n    /* \"#utility.yul\":1105:1179   */\n  swap2\n  pop\n    /* \"#utility.yul\":1061:1189   */\n  pop\n    /* \"#utility.yul\":845:1196   */\n  swap3\n  swap2\n  pop\n  pop\n  jump\t// out\n    /* \"Store.sol\":249:2309  contract Store is IStore, Ownable, ReentrancyGuard {... */\ntag_14:\n  dataSize(sub_0)\n  dup1\n  dataOffset(sub_0)\n  0x00\n  codecopy\n  0x00\n  return\nstop\n\nsub_0: assembly {\n        /* \"Store.sol\":249:2309  contract Store is IStore, Ownable, ReentrancyGuard {... */\n      mstore(0x40, 0x80)\n      callvalue\n      dup1\n      iszero\n      tag_1\n      jumpi\n      0x00\n      dup1\n      revert\n    tag_1:\n      pop\n      jumpi(tag_2, lt(calldatasize, 0x04))\n      shr(0xe0, calldataload(0x00))\n      dup1\n      0x8da5cb5b\n      gt\n      tag_15\n      jumpi\n      dup1\n      0x8da5cb5b\n      eq\n      tag_9\n      jumpi\n      dup1\n      0xd3ef12e3\n      eq\n      tag_10\n      jumpi\n      dup1\n      0xdb8dc059\n      eq\n      tag_11\n      jumpi\n      dup1\n      0xe220574b\n      eq\n      tag_12\n      jumpi\n      dup1\n      0xf2fde38b\n      eq\n      tag_13\n      jumpi\n      dup1\n      0xf5d3c86f\n      eq\n      tag_14\n      jumpi\n      jump(tag_2)\n    tag_15:\n      dup1\n      0x0ca204a0\n      eq\n      tag_3\n      jumpi\n      dup1\n      0x3fda2a00\n      eq\n      tag_4\n      jumpi\n      dup1\n      0x47618f18\n      eq\n      tag_5\n      jumpi\n      dup1\n      0x4843c0be\n      eq\n      tag_6\n      jumpi\n      dup1\n      0x715018a6\n      eq\n      tag_7\n      jumpi\n      dup1\n      0x88ffe867\n      eq\n      tag_8\n      jumpi\n    tag_2:\n      0x00\n      dup1\n      revert\n        /* \"Store.sol\":517:555  mapping(string => Meta) public cidMeta */\n    tag_3:\n      tag_16\n      0x04\n      dup1\n      calldatasize\n      sub\n      dup2\n      add\n      swap1\n      tag_17\n      swap2\n      swap1\n      tag_18\n      jump\t// in\n    tag_17:\n      tag_19\n      jump\t// in\n    tag_16:\n      mload(0x40)\n      tag_20\n      swap5\n      swap4\n      swap3\n      swap2\n      swap1\n      tag_21\n      jump\t// in\n    tag_20:\n      mload(0x40)\n      dup1\n      swap2\n      sub\n      swap1\n      return\n        /* \"Store.sol\":1096:1377  function getMinerAllHash(... */\n    tag_4:\n      tag_22\n      0x04\n      dup1\n      calldatasize\n      sub\n      dup2\n      add\n      swap1\n      tag_23\n      swap2\n      swap1\n      tag_24\n      jump\t// in\n    tag_23:\n      tag_25\n      jump\t// in\n    tag_22:\n      mload(0x40)\n      tag_26\n      swap2\n      swap1\n      tag_27\n      jump\t// in\n    tag_26:\n      mload(0x40)\n      dup1\n      swap2\n      sub\n      swap1\n      return\n        /* \"Store.sol\":1521:2307  function uploadMetaData(... */\n    tag_5:\n      tag_28\n      0x04\n      dup1\n      calldatasize\n      sub\n      dup2\n      add\n      swap1\n      tag_29\n      swap2\n      swap1\n      tag_30\n      jump\t// in\n    tag_29:\n      tag_31\n      jump\t// in\n    tag_28:\n      mload(0x40)\n      tag_32\n      swap2\n      swap1\n      tag_33\n      jump\t// in\n    tag_32:\n      mload(0x40)\n      dup1\n      swap2\n      sub\n      swap1\n      return\n        /* \"Store.sol\":905:1090  function delFileHash(... */\n    tag_6:\n      tag_34\n      0x04\n      dup1\n      calldatasize\n      sub\n      dup2\n      add\n      swap1\n      tag_35\n      swap2\n      swap1\n      tag_36\n      jump\t// in\n    tag_35:\n      tag_37\n      jump\t// in\n    tag_34:\n      stop\n        /* \"@openzeppelin/contracts/access/Ownable.sol\":1824:1925  function renounceOwnership() public virtual onlyOwner {... */\n    tag_7:\n      tag_38\n      tag_39\n      jump\t// in\n    tag_38:\n      stop\n        /* \"Store.sol\":306:327  address public pledge */\n    tag_8:\n      tag_40\n      tag_41\n      jump\t// in\n    tag_40:\n      mload(0x40)\n      tag_42\n      swap2\n      swap1\n      tag_43\n      jump\t// in\n    tag_42:\n      mload(0x40)\n      dup1\n      swap2\n      sub\n      swap1\n      return\n        /* \"@openzeppelin/contracts/access/Ownable.sol\":1201:1286  function owner() public view virtual returns (address) {... */\n    tag_9:\n      tag_44\n      tag_45\n      jump\t// in\n    tag_44:\n      mload(0x40)\n      tag_46\n      swap2\n      swap1\n      tag_43\n      jump\t// in\n    tag_46:\n      mload(0x40)\n      dup1\n      swap2\n      sub\n      swap1\n      return\n        /* \"Store.sol\":468:511  mapping(address => string[]) public cidList */\n    tag_10:\n      tag_47\n      0x04\n      dup1\n      calldatasize\n      sub\n      dup2\n      add\n      swap1\n      tag_48\n      swap2\n      swap1\n      tag_49\n      jump\t// in\n    tag_48:\n      tag_50\n      jump\t// in\n    tag_47:\n      mload(0x40)\n      tag_51\n      swap2\n      swap1\n      tag_52\n      jump\t// in\n    tag_51:\n      mload(0x40)\n      dup1\n      swap2\n      sub\n      swap1\n      return\n        /* \"Store.sol\":1383:1515  function getlength(address miner_) external view returns (uint256) {... */\n    tag_11:\n      tag_53\n      0x04\n      dup1\n      calldatasize\n      sub\n      dup2\n      add\n      swap1\n      tag_54\n      swap2\n      swap1\n      tag_24\n      jump\t// in\n    tag_54:\n      tag_55\n      jump\t// in\n    tag_53:\n      mload(0x40)\n      tag_56\n      swap2\n      swap1\n      tag_57\n      jump\t// in\n    tag_56:\n      mload(0x40)\n      dup1\n      swap2\n      sub\n      swap1\n      return\n        /* \"Store.sol\":561:603  mapping(string => address) public cidOwner */\n    tag_12:\n      tag_58\n      0x04\n      dup1\n      calldatasize\n      sub\n      dup2\n      add\n      swap1\n      tag_59\n      swap2\n      swap1\n      tag_18\n      jump\t// in\n    tag_59:\n      tag_60\n      jump\t// in\n    tag_58:\n      mload(0x40)\n      tag_61\n      swap2\n      swap1\n      tag_43\n      jump\t// in\n    tag_61:\n      mload(0x40)\n      dup1\n      swap2\n      sub\n      swap1\n      return\n        /* \"@openzeppelin/contracts/access/Ownable.sol\":2074:2272  function transferOwnership(address newOwner) public virtual onlyOwner {... */\n    tag_13:\n      tag_62\n      0x04\n      dup1\n      calldatasize\n      sub\n      dup2\n      add\n      swap1\n      tag_63\n      swap2\n      swap1\n      tag_24\n      jump\t// in\n    tag_63:\n      tag_64\n      jump\t// in\n    tag_62:\n      stop\n        /* \"Store.sol\":417:462  mapping(address=>uint256)public userCidLength */\n    tag_14:\n      tag_65\n      0x04\n      dup1\n      calldatasize\n      sub\n      dup2\n      add\n      swap1\n      tag_66\n      swap2\n      swap1\n      tag_24\n      jump\t// in\n    tag_66:\n      tag_67\n      jump\t// in\n    tag_65:\n      mload(0x40)\n      tag_68\n      swap2\n      swap1\n      tag_57\n      jump\t// in\n    tag_68:\n      mload(0x40)\n      dup1\n      swap2\n      sub\n      swap1\n      return\n        /* \"Store.sol\":517:555  mapping(string => Meta) public cidMeta */\n    tag_19:\n      0x07\n      dup2\n      dup1\n      mload\n      0x20\n      dup2\n      add\n      dup3\n      add\n      dup1\n      mload\n      dup5\n      dup3\n      mstore\n      0x20\n      dup4\n      add\n      0x20\n      dup6\n      add\n      keccak256\n      dup2\n      dup4\n      mstore\n      dup1\n      swap6\n      pop\n      pop\n      pop\n      pop\n      pop\n      pop\n      0x00\n      swap2\n      pop\n      swap1\n      pop\n      dup1\n      0x02\n      add\n      dup1\n      sload\n      tag_69\n      swap1\n      tag_70\n      jump\t// in\n    tag_69:\n      dup1\n      0x1f\n      add\n      0x20\n      dup1\n      swap2\n      div\n      mul\n      0x20\n      add\n      mload(0x40)\n      swap1\n      dup2\n      add\n      0x40\n      mstore\n      dup1\n      swap3\n      swap2\n      swap1\n      dup2\n      dup2\n      mstore\n      0x20\n      add\n      dup3\n      dup1\n      sload\n      tag_71\n      swap1\n      tag_70\n      jump\t// in\n    tag_71:\n      dup1\n      iszero\n      tag_72\n      jumpi\n      dup1\n      0x1f\n      lt\n      tag_73\n      jumpi\n      0x0100\n      dup1\n      dup4\n      sload\n      div\n      mul\n      dup4\n      mstore\n      swap2\n      0x20\n      add\n      swap2\n      jump(tag_72)\n    tag_73:\n      dup3\n      add\n      swap2\n      swap1\n      0x00\n      mstore\n      keccak256(0x00, 0x20)\n      swap1\n    tag_74:\n      dup2\n      sload\n      dup2\n      mstore\n      swap1\n      0x01\n      add\n      swap1\n      0x20\n      add\n      dup1\n      dup4\n      gt\n      tag_74\n      jumpi\n      dup3\n      swap1\n      sub\n      0x1f\n      and\n      dup3\n      add\n      swap2\n    tag_72:\n      pop\n      pop\n      pop\n      pop\n      pop\n      swap1\n      dup1\n      0x03\n      add\n      sload\n      swap1\n      dup1\n      0x04\n      add\n      sload\n      swap1\n      dup1\n      0x05\n      add\n      sload\n      swap1\n      pop\n      dup5\n      jump\t// out\n        /* \"Store.sol\":1096:1377  function getMinerAllHash(... */\n    tag_25:\n        /* \"Store.sol\":1174:1189  string[] memory */\n      0x60\n        /* \"Store.sol\":1220:1370  LinkIdSetLib.getPage(... */\n      tag_76\n        /* \"Store.sol\":1258:1270  minerOwnHash */\n      0x09\n        /* \"Store.sol\":1258:1278  minerOwnHash[miner_] */\n      0x00\n        /* \"Store.sol\":1271:1277  miner_ */\n      dup5\n        /* \"Store.sol\":1258:1278  minerOwnHash[miner_] */\n      0xffffffffffffffffffffffffffffffffffffffff\n      and\n      0xffffffffffffffffffffffffffffffffffffffff\n      and\n      dup2\n      mstore\n      0x20\n      add\n      swap1\n      dup2\n      mstore\n      0x20\n      add\n      0x00\n      keccak256\n        /* \"Store.sol\":1296:1297  0 */\n      0x00\n        /* \"Store.sol\":1315:1356  LinkIdSetLib.length(minerOwnHash[miner_]) */\n      tag_77\n        /* \"Store.sol\":1335:1347  minerOwnHash */\n      0x09\n        /* \"Store.sol\":1335:1355  minerOwnHash[miner_] */\n      0x00\n        /* \"Store.sol\":1348:1354  miner_ */\n      dup8\n        /* \"Store.sol\":1335:1355  minerOwnHash[miner_] */\n      0xffffffffffffffffffffffffffffffffffffffff\n      and\n      0xffffffffffffffffffffffffffffffffffffffff\n      and\n      dup2\n      mstore\n      0x20\n      add\n      swap1\n      dup2\n      mstore\n      0x20\n      add\n      0x00\n      keccak256\n        /* \"Store.sol\":1315:1334  LinkIdSetLib.length */\n      tag_78\n        /* \"Store.sol\":1315:1356  LinkIdSetLib.length(minerOwnHash[miner_]) */\n      jump\t// in\n    tag_77:\n        /* \"Store.sol\":1220:1240  LinkIdSetLib.getPage */\n      tag_79\n        /* \"Store.sol\":1220:1370  LinkIdSetLib.getPage(... */\n      jump\t// in\n    tag_76:\n        /* \"Store.sol\":1201:1370  return... */\n      swap1\n      pop\n        /* \"Store.sol\":1096:1377  function getMinerAllHash(... */\n      swap2\n      swap1\n      pop\n      jump\t// out\n        /* \"Store.sol\":1521:2307  function uploadMetaData(... */\n    tag_31:\n        /* \"Store.sol\":1819:1823  bool */\n      0x00\n        /* \"Store.sol\":737:743  admins */\n      0x04\n        /* \"Store.sol\":737:757  admins[_msgSender()] */\n      0x00\n        /* \"Store.sol\":744:756  _msgSender() */\n      tag_81\n        /* \"Store.sol\":744:754  _msgSender */\n      tag_82\n        /* \"Store.sol\":744:756  _msgSender() */\n      jump\t// in\n    tag_81:\n        /* \"Store.sol\":737:757  admins[_msgSender()] */\n      0xffffffffffffffffffffffffffffffffffffffff\n      and\n      0xffffffffffffffffffffffffffffffffffffffff\n      and\n      dup2\n      mstore\n      0x20\n      add\n      swap1\n      dup2\n      mstore\n      0x20\n      add\n      0x00\n      keccak256\n      0x00\n      swap1\n      sload\n      swap1\n      0x0100\n      exp\n      swap1\n      div\n      0xff\n      and\n        /* \"Store.sol\":729:781  require(admins[_msgSender()], \"Store: not allowed!\") */\n      tag_83\n      jumpi\n      mload(0x40)\n      0x08c379a000000000000000000000000000000000000000000000000000000000\n      dup2\n      mstore\n      0x04\n      add\n      tag_84\n      swap1\n      tag_85\n      jump\t// in\n    tag_84:\n      mload(0x40)\n      dup1\n      swap2\n      sub\n      swap1\n      revert\n    tag_83:\n        /* \"@openzeppelin/contracts/security/ReentrancyGuard.sol\":2261:2282  _nonReentrantBefore() */\n      tag_87\n        /* \"@openzeppelin/contracts/security/ReentrancyGuard.sol\":2261:2280  _nonReentrantBefore */\n      tag_88\n        /* \"@openzeppelin/contracts/security/ReentrancyGuard.sol\":2261:2282  _nonReentrantBefore() */\n      jump\t// in\n    tag_87:\n        /* \"Store.sol\":1863:1872  uint256 i */\n      0x00\n        /* \"Store.sol\":1858:2040  for (uint256 i = 0; i < miners_.length; ) {... */\n    tag_90:\n        /* \"Store.sol\":1882:1889  miners_ */\n      dup10\n        /* \"Store.sol\":1882:1896  miners_.length */\n      mload\n        /* \"Store.sol\":1878:1879  i */\n      dup2\n        /* \"Store.sol\":1878:1896  i < miners_.length */\n      lt\n        /* \"Store.sol\":1858:2040  for (uint256 i = 0; i < miners_.length; ) {... */\n      iszero\n      tag_91\n      jumpi\n        /* \"Store.sol\":1914:1970  LinkIdSetLib.add(minerOwnHash[miners_[i]], fileHash_[i]) */\n      tag_93\n        /* \"Store.sol\":1931:1943  minerOwnHash */\n      0x09\n        /* \"Store.sol\":1931:1955  minerOwnHash[miners_[i]] */\n      0x00\n        /* \"Store.sol\":1944:1951  miners_ */\n      dup13\n        /* \"Store.sol\":1952:1953  i */\n      dup5\n        /* \"Store.sol\":1944:1954  miners_[i] */\n      dup2\n      mload\n      dup2\n      lt\n      tag_94\n      jumpi\n      tag_95\n      tag_96\n      jump\t// in\n    tag_95:\n    tag_94:\n      0x20\n      mul\n      0x20\n      add\n      add\n      mload\n        /* \"Store.sol\":1931:1955  minerOwnHash[miners_[i]] */\n      0xffffffffffffffffffffffffffffffffffffffff\n      and\n      0xffffffffffffffffffffffffffffffffffffffff\n      and\n      dup2\n      mstore\n      0x20\n      add\n      swap1\n      dup2\n      mstore\n      0x20\n      add\n      0x00\n      keccak256\n        /* \"Store.sol\":1957:1966  fileHash_ */\n      dup11\n        /* \"Store.sol\":1967:1968  i */\n      dup4\n        /* \"Store.sol\":1957:1969  fileHash_[i] */\n      dup2\n      mload\n      dup2\n      lt\n      tag_97\n      jumpi\n      tag_98\n      tag_96\n      jump\t// in\n    tag_98:\n    tag_97:\n      0x20\n      mul\n      0x20\n      add\n      add\n      mload\n        /* \"Store.sol\":1914:1930  LinkIdSetLib.add */\n      tag_99\n        /* \"Store.sol\":1914:1970  LinkIdSetLib.add(minerOwnHash[miners_[i]], fileHash_[i]) */\n      jump\t// in\n    tag_93:\n        /* \"Store.sol\":2012:2015  ++i */\n      dup1\n      0x01\n      add\n      swap1\n      pop\n        /* \"Store.sol\":1858:2040  for (uint256 i = 0; i < miners_.length; ) {... */\n      jump(tag_90)\n    tag_91:\n      pop\n        /* \"Store.sol\":2049:2067  Meta memory metas_ */\n      0x00\n        /* \"Store.sol\":2070:2131  Meta(miners_, fileHash_, ext_, size_,dataShards,parityShards) */\n      mload(0x40)\n      dup1\n      0xc0\n      add\n      0x40\n      mstore\n      dup1\n        /* \"Store.sol\":2075:2082  miners_ */\n      dup12\n        /* \"Store.sol\":2070:2131  Meta(miners_, fileHash_, ext_, size_,dataShards,parityShards) */\n      dup2\n      mstore\n      0x20\n      add\n        /* \"Store.sol\":2084:2093  fileHash_ */\n      dup11\n        /* \"Store.sol\":2070:2131  Meta(miners_, fileHash_, ext_, size_,dataShards,parityShards) */\n      dup2\n      mstore\n      0x20\n      add\n        /* \"Store.sol\":2095:2099  ext_ */\n      dup10\n        /* \"Store.sol\":2070:2131  Meta(miners_, fileHash_, ext_, size_,dataShards,parityShards) */\n      dup2\n      mstore\n      0x20\n      add\n        /* \"Store.sol\":2101:2106  size_ */\n      dup8\n        /* \"Store.sol\":2070:2131  Meta(miners_, fileHash_, ext_, size_,dataShards,parityShards) */\n      dup2\n      mstore\n      0x20\n      add\n        /* \"Store.sol\":2107:2117  dataShards */\n      dup7\n        /* \"Store.sol\":2070:2131  Meta(miners_, fileHash_, ext_, size_,dataShards,parityShards) */\n      dup2\n      mstore\n      0x20\n      add\n        /* \"Store.sol\":2118:2130  parityShards */\n      dup6\n        /* \"Store.sol\":2070:2131  Meta(miners_, fileHash_, ext_, size_,dataShards,parityShards) */\n      dup2\n      mstore\n      pop\n        /* \"Store.sol\":2049:2131  Meta memory metas_ = Meta(miners_, fileHash_, ext_, size_,dataShards,parityShards) */\n      swap1\n      pop\n        /* \"Store.sol\":2141:2148  cidList */\n      0x06\n        /* \"Store.sol\":2141:2155  cidList[user_] */\n      0x00\n        /* \"Store.sol\":2149:2154  user_ */\n      dup5\n        /* \"Store.sol\":2141:2155  cidList[user_] */\n      0xffffffffffffffffffffffffffffffffffffffff\n      and\n      0xffffffffffffffffffffffffffffffffffffffff\n      and\n      dup2\n      mstore\n      0x20\n      add\n      swap1\n      dup2\n      mstore\n      0x20\n      add\n      0x00\n      keccak256\n        /* \"Store.sol\":2161:2165  cid_ */\n      dup8\n        /* \"Store.sol\":2141:2166  cidList[user_].push(cid_) */\n      swap1\n      dup1\n      0x01\n      dup2\n      sload\n      add\n      dup1\n      dup3\n      sstore\n      dup1\n      swap2\n      pop\n      pop\n      0x01\n      swap1\n      sub\n      swap1\n      0x00\n      mstore\n      keccak256(0x00, 0x20)\n      add\n      0x00\n      swap1\n      swap2\n      swap1\n      swap2\n      swap1\n      swap2\n      pop\n      swap1\n      dup2\n      tag_101\n      swap2\n      swap1\n      tag_102\n      jump\t// in\n    tag_101:\n      pop\n        /* \"Store.sol\":2192:2198  metas_ */\n      dup1\n        /* \"Store.sol\":2176:2183  cidMeta */\n      0x07\n        /* \"Store.sol\":2184:2188  cid_ */\n      dup9\n        /* \"Store.sol\":2176:2189  cidMeta[cid_] */\n      mload(0x40)\n      tag_103\n      swap2\n      swap1\n      tag_104\n      jump\t// in\n    tag_103:\n      swap1\n      dup2\n      mstore\n      0x20\n      add\n      mload(0x40)\n      dup1\n      swap2\n      sub\n      swap1\n      keccak256\n        /* \"Store.sol\":2176:2198  cidMeta[cid_] = metas_ */\n      0x00\n      dup3\n      add\n      mload\n      dup2\n      0x00\n      add\n      swap1\n      dup1\n      mload\n      swap1\n      0x20\n      add\n      swap1\n      tag_105\n      swap3\n      swap2\n      swap1\n      tag_106\n      jump\t// in\n    tag_105:\n      pop\n      0x20\n      dup3\n      add\n      mload\n      dup2\n      0x01\n      add\n      swap1\n      dup1\n      mload\n      swap1\n      0x20\n      add\n      swap1\n      tag_107\n      swap3\n      swap2\n      swap1\n      tag_108\n      jump\t// in\n    tag_107:\n      pop\n      0x40\n      dup3\n      add\n      mload\n      dup2\n      0x02\n      add\n      swap1\n      dup2\n      tag_109\n      swap2\n      swap1\n      tag_102\n      jump\t// in\n    tag_109:\n      pop\n      0x60\n      dup3\n      add\n      mload\n      dup2\n      0x03\n      add\n      sstore\n      0x80\n      dup3\n      add\n      mload\n      dup2\n      0x04\n      add\n      sstore\n      0xa0\n      dup3\n      add\n      mload\n      dup2\n      0x05\n      add\n      sstore\n      swap1\n      pop\n      pop\n        /* \"Store.sol\":2225:2230  user_ */\n      dup3\n        /* \"Store.sol\":2208:2216  cidOwner */\n      0x08\n        /* \"Store.sol\":2217:2221  cid_ */\n      dup9\n        /* \"Store.sol\":2208:2222  cidOwner[cid_] */\n      mload(0x40)\n      tag_110\n      swap2\n      swap1\n      tag_104\n      jump\t// in\n    tag_110:\n      swap1\n      dup2\n      mstore\n      0x20\n      add\n      mload(0x40)\n      dup1\n      swap2\n      sub\n      swap1\n      keccak256\n      0x00\n        /* \"Store.sol\":2208:2230  cidOwner[cid_] = user_ */\n      0x0100\n      exp\n      dup2\n      sload\n      dup2\n      0xffffffffffffffffffffffffffffffffffffffff\n      mul\n      not\n      and\n      swap1\n      dup4\n      0xffffffffffffffffffffffffffffffffffffffff\n      and\n      mul\n      or\n      swap1\n      sstore\n      pop\n        /* \"Store.sol\":2261:2266  user_ */\n      dup3\n        /* \"Store.sol\":2245:2279  UploadMetaEvent(user_, cid_, ext_) */\n      0xffffffffffffffffffffffffffffffffffffffff\n      and\n      0x80255d2f9385ba6d4b5d8ba3a9387b50f602d5ba4061660a51a9fcbeb1325c8e\n        /* \"Store.sol\":2268:2272  cid_ */\n      dup9\n        /* \"Store.sol\":2274:2278  ext_ */\n      dup11\n        /* \"Store.sol\":2245:2279  UploadMetaEvent(user_, cid_, ext_) */\n      mload(0x40)\n      tag_111\n      swap3\n      swap2\n      swap1\n      tag_112\n      jump\t// in\n    tag_111:\n      mload(0x40)\n      dup1\n      swap2\n      sub\n      swap1\n      log2\n        /* \"Store.sol\":2296:2300  true */\n      0x01\n        /* \"Store.sol\":2289:2300  return true */\n      swap2\n      pop\n      pop\n        /* \"@openzeppelin/contracts/security/ReentrancyGuard.sol\":2303:2323  _nonReentrantAfter() */\n      tag_113\n        /* \"@openzeppelin/contracts/security/ReentrancyGuard.sol\":2303:2321  _nonReentrantAfter */\n      tag_114\n        /* \"@openzeppelin/contracts/security/ReentrancyGuard.sol\":2303:2323  _nonReentrantAfter() */\n      jump\t// in\n    tag_113:\n        /* \"Store.sol\":1521:2307  function uploadMetaData(... */\n      swap9\n      swap8\n      pop\n      pop\n      pop\n      pop\n      pop\n      pop\n      pop\n      pop\n      jump\t// out\n        /* \"Store.sol\":905:1090  function delFileHash(... */\n    tag_37:\n        /* \"Store.sol\":737:743  admins */\n      0x04\n        /* \"Store.sol\":737:757  admins[_msgSender()] */\n      0x00\n        /* \"Store.sol\":744:756  _msgSender() */\n      tag_116\n        /* \"Store.sol\":744:754  _msgSender */\n      tag_82\n        /* \"Store.sol\":744:756  _msgSender() */\n      jump\t// in\n    tag_116:\n        /* \"Store.sol\":737:757  admins[_msgSender()] */\n      0xffffffffffffffffffffffffffffffffffffffff\n      and\n      0xffffffffffffffffffffffffffffffffffffffff\n      and\n      dup2\n      mstore\n      0x20\n      add\n      swap1\n      dup2\n      mstore\n      0x20\n      add\n      0x00\n      keccak256\n      0x00\n      swap1\n      sload\n      swap1\n      0x0100\n      exp\n      swap1\n      div\n      0xff\n      and\n        /* \"Store.sol\":729:781  require(admins[_msgSender()], \"Store: not allowed!\") */\n      tag_117\n      jumpi\n      mload(0x40)\n      0x08c379a000000000000000000000000000000000000000000000000000000000\n      dup2\n      mstore\n      0x04\n      add\n      tag_118\n      swap1\n      tag_85\n      jump\t// in\n    tag_118:\n      mload(0x40)\n      dup1\n      swap2\n      sub\n      swap1\n      revert\n    tag_117:\n        /* \"@openzeppelin/contracts/security/ReentrancyGuard.sol\":2261:2282  _nonReentrantBefore() */\n      tag_120\n        /* \"@openzeppelin/contracts/security/ReentrancyGuard.sol\":2261:2280  _nonReentrantBefore */\n      tag_88\n        /* \"@openzeppelin/contracts/security/ReentrancyGuard.sol\":2261:2282  _nonReentrantBefore() */\n      jump\t// in\n    tag_120:\n        /* \"Store.sol\":1031:1083  LinkIdSetLib.remove(minerOwnHash[miner_], fileHash_) */\n      tag_122\n        /* \"Store.sol\":1051:1063  minerOwnHash */\n      0x09\n        /* \"Store.sol\":1051:1071  minerOwnHash[miner_] */\n      0x00\n        /* \"Store.sol\":1064:1070  miner_ */\n      dup5\n        /* \"Store.sol\":1051:1071  minerOwnHash[miner_] */\n      0xffffffffffffffffffffffffffffffffffffffff\n      and\n      0xffffffffffffffffffffffffffffffffffffffff\n      and\n      dup2\n      mstore\n      0x20\n      add\n      swap1\n      dup2\n      mstore\n      0x20\n      add\n      0x00\n      keccak256\n        /* \"Store.sol\":1073:1082  fileHash_ */\n      dup3\n        /* \"Store.sol\":1031:1050  LinkIdSetLib.remove */\n      tag_123\n        /* \"Store.sol\":1031:1083  LinkIdSetLib.remove(minerOwnHash[miner_], fileHash_) */\n      jump\t// in\n    tag_122:\n        /* \"@openzeppelin/contracts/security/ReentrancyGuard.sol\":2303:2323  _nonReentrantAfter() */\n      tag_124\n        /* \"@openzeppelin/contracts/security/ReentrancyGuard.sol\":2303:2321  _nonReentrantAfter */\n      tag_114\n        /* \"@openzeppelin/contracts/security/ReentrancyGuard.sol\":2303:2323  _nonReentrantAfter() */\n      jump\t// in\n    tag_124:\n        /* \"Store.sol\":905:1090  function delFileHash(... */\n      pop\n      pop\n      jump\t// out\n        /* \"@openzeppelin/contracts/access/Ownable.sol\":1824:1925  function renounceOwnership() public virtual onlyOwner {... */\n    tag_39:\n        /* \"@openzeppelin/contracts/access/Ownable.sol\":1094:1107  _checkOwner() */\n      tag_126\n        /* \"@openzeppelin/contracts/access/Ownable.sol\":1094:1105  _checkOwner */\n      tag_127\n        /* \"@openzeppelin/contracts/access/Ownable.sol\":1094:1107  _checkOwner() */\n      jump\t// in\n    tag_126:\n        /* \"@openzeppelin/contracts/access/Ownable.sol\":1888:1918  _transferOwnership(address(0)) */\n      tag_129\n        /* \"@openzeppelin/contracts/access/Ownable.sol\":1915:1916  0 */\n      0x00\n        /* \"@openzeppelin/contracts/access/Ownable.sol\":1888:1906  _transferOwnership */\n      tag_130\n        /* \"@openzeppelin/contracts/access/Ownable.sol\":1888:1918  _transferOwnership(address(0)) */\n      jump\t// in\n    tag_129:\n        /* \"@openzeppelin/contracts/access/Ownable.sol\":1824:1925  function renounceOwnership() public virtual onlyOwner {... */\n      jump\t// out\n        /* \"Store.sol\":306:327  address public pledge */\n    tag_41:\n      0x02\n      0x00\n      swap1\n      sload\n      swap1\n      0x0100\n      exp\n      swap1\n      div\n      0xffffffffffffffffffffffffffffffffffffffff\n      and\n      dup2\n      jump\t// out\n        /* \"@openzeppelin/contracts/access/Ownable.sol\":1201:1286  function owner() public view virtual returns (address) {... */\n    tag_45:\n        /* \"@openzeppelin/contracts/access/Ownable.sol\":1247:1254  address */\n      0x00\n        /* \"@openzeppelin/contracts/access/Ownable.sol\":1273:1279  _owner */\n      dup1\n      0x00\n      swap1\n      sload\n      swap1\n      0x0100\n      exp\n      swap1\n      div\n      0xffffffffffffffffffffffffffffffffffffffff\n      and\n        /* \"@openzeppelin/contracts/access/Ownable.sol\":1266:1279  return _owner */\n      swap1\n      pop\n        /* \"@openzeppelin/contracts/access/Ownable.sol\":1201:1286  function owner() public view virtual returns (address) {... */\n      swap1\n      jump\t// out\n        /* \"Store.sol\":468:511  mapping(address => string[]) public cidList */\n    tag_50:\n      mstore(0x20, 0x06)\n      dup2\n      0x00\n      mstore\n      keccak256(0x00, 0x40)\n      dup2\n      dup2\n      sload\n      dup2\n      lt\n      tag_132\n      jumpi\n      0x00\n      dup1\n      revert\n    tag_132:\n      swap1\n      0x00\n      mstore\n      keccak256(0x00, 0x20)\n      add\n      0x00\n      swap2\n      pop\n      swap2\n      pop\n      pop\n      dup1\n      sload\n      tag_134\n      swap1\n      tag_70\n      jump\t// in\n    tag_134:\n      dup1\n      0x1f\n      add\n      0x20\n      dup1\n      swap2\n      div\n      mul\n      0x20\n      add\n      mload(0x40)\n      swap1\n      dup2\n      add\n      0x40\n      mstore\n      dup1\n      swap3\n      swap2\n      swap1\n      dup2\n      dup2\n      mstore\n      0x20\n      add\n      dup3\n      dup1\n      sload\n      tag_135\n      swap1\n      tag_70\n      jump\t// in\n    tag_135:\n      dup1\n      iszero\n      tag_136\n      jumpi\n      dup1\n      0x1f\n      lt\n      tag_137\n      jumpi\n      0x0100\n      dup1\n      dup4\n      sload\n      div\n      mul\n      dup4\n      mstore\n      swap2\n      0x20\n      add\n      swap2\n      jump(tag_136)\n    tag_137:\n      dup3\n      add\n      swap2\n      swap1\n      0x00\n      mstore\n      keccak256(0x00, 0x20)\n      swap1\n    tag_138:\n      dup2\n      sload\n      dup2\n      mstore\n      swap1\n      0x01\n      add\n      swap1\n      0x20\n      add\n      dup1\n      dup4\n      gt\n      tag_138\n      jumpi\n      dup3\n      swap1\n      sub\n      0x1f\n      and\n      dup3\n      add\n      swap2\n    tag_136:\n      pop\n      pop\n      pop\n      pop\n      pop\n      dup2\n      jump\t// out\n        /* \"Store.sol\":1383:1515  function getlength(address miner_) external view returns (uint256) {... */\n    tag_55:\n        /* \"Store.sol\":1441:1448  uint256 */\n      0x00\n        /* \"Store.sol\":1467:1508  LinkIdSetLib.length(minerOwnHash[miner_]) */\n      tag_140\n        /* \"Store.sol\":1487:1499  minerOwnHash */\n      0x09\n        /* \"Store.sol\":1487:1507  minerOwnHash[miner_] */\n      0x00\n        /* \"Store.sol\":1500:1506  miner_ */\n      dup5\n        /* \"Store.sol\":1487:1507  minerOwnHash[miner_] */\n      0xffffffffffffffffffffffffffffffffffffffff\n      and\n      0xffffffffffffffffffffffffffffffffffffffff\n      and\n      dup2\n      mstore\n      0x20\n      add\n      swap1\n      dup2\n      mstore\n      0x20\n      add\n      0x00\n      keccak256\n        /* \"Store.sol\":1467:1486  LinkIdSetLib.length */\n      tag_78\n        /* \"Store.sol\":1467:1508  LinkIdSetLib.length(minerOwnHash[miner_]) */\n      jump\t// in\n    tag_140:\n        /* \"Store.sol\":1460:1508  return LinkIdSetLib.length(minerOwnHash[miner_]) */\n      swap1\n      pop\n        /* \"Store.sol\":1383:1515  function getlength(address miner_) external view returns (uint256) {... */\n      swap2\n      swap1\n      pop\n      jump\t// out\n        /* \"Store.sol\":561:603  mapping(string => address) public cidOwner */\n    tag_60:\n      0x08\n      dup2\n      dup1\n      mload\n      0x20\n      dup2\n      add\n      dup3\n      add\n      dup1\n      mload\n      dup5\n      dup3\n      mstore\n      0x20\n      dup4\n      add\n      0x20\n      dup6\n      add\n      keccak256\n      dup2\n      dup4\n      mstore\n      dup1\n      swap6\n      pop\n      pop\n      pop\n      pop\n      pop\n      pop\n      0x00\n      swap2\n      pop\n      sload\n      swap1\n      0x0100\n      exp\n      swap1\n      div\n      0xffffffffffffffffffffffffffffffffffffffff\n      and\n      dup2\n      jump\t// out\n        /* \"@openzeppelin/contracts/access/Ownable.sol\":2074:2272  function transferOwnership(address newOwner) public virtual onlyOwner {... */\n    tag_64:\n        /* \"@openzeppelin/contracts/access/Ownable.sol\":1094:1107  _checkOwner() */\n      tag_142\n        /* \"@openzeppelin/contracts/access/Ownable.sol\":1094:1105  _checkOwner */\n      tag_127\n        /* \"@openzeppelin/contracts/access/Ownable.sol\":1094:1107  _checkOwner() */\n      jump\t// in\n    tag_142:\n        /* \"@openzeppelin/contracts/access/Ownable.sol\":2182:2183  0 */\n      0x00\n        /* \"@openzeppelin/contracts/access/Ownable.sol\":2162:2184  newOwner != address(0) */\n      0xffffffffffffffffffffffffffffffffffffffff\n      and\n        /* \"@openzeppelin/contracts/access/Ownable.sol\":2162:2170  newOwner */\n      dup2\n        /* \"@openzeppelin/contracts/access/Ownable.sol\":2162:2184  newOwner != address(0) */\n      0xffffffffffffffffffffffffffffffffffffffff\n      and\n      sub\n        /* \"@openzeppelin/contracts/access/Ownable.sol\":2154:2227  require(newOwner != address(0), \"Ownable: new owner is the zero address\") */\n      tag_144\n      jumpi\n      mload(0x40)\n      0x08c379a000000000000000000000000000000000000000000000000000000000\n      dup2\n      mstore\n      0x04\n      add\n      tag_145\n      swap1\n      tag_146\n      jump\t// in\n    tag_145:\n      mload(0x40)\n      dup1\n      swap2\n      sub\n      swap1\n      revert\n    tag_144:\n        /* \"@openzeppelin/contracts/access/Ownable.sol\":2237:2265  _transferOwnership(newOwner) */\n      tag_147\n        /* \"@openzeppelin/contracts/access/Ownable.sol\":2256:2264  newOwner */\n      dup2\n        /* \"@openzeppelin/contracts/access/Ownable.sol\":2237:2255  _transferOwnership */\n      tag_130\n        /* \"@openzeppelin/contracts/access/Ownable.sol\":2237:2265  _transferOwnership(newOwner) */\n      jump\t// in\n    tag_147:\n        /* \"@openzeppelin/contracts/access/Ownable.sol\":2074:2272  function transferOwnership(address newOwner) public virtual onlyOwner {... */\n      pop\n      jump\t// out\n        /* \"Store.sol\":417:462  mapping(address=>uint256)public userCidLength */\n    tag_67:\n      mstore(0x20, 0x05)\n      dup1\n      0x00\n      mstore\n      keccak256(0x00, 0x40)\n      0x00\n      swap2\n      pop\n      swap1\n      pop\n      sload\n      dup2\n      jump\t// out\n        /* \"libraries/LinkIdSetLib.sol\":1957:2071  function length(LinkIdSet storage set) internal view returns (uint256) {... */\n    tag_78:\n        /* \"libraries/LinkIdSetLib.sol\":2019:2026  uint256 */\n      0x00\n        /* \"libraries/LinkIdSetLib.sol\":2045:2048  set */\n      dup2\n        /* \"libraries/LinkIdSetLib.sol\":2045:2057  set.elements */\n      0x00\n      add\n        /* \"libraries/LinkIdSetLib.sol\":2045:2064  set.elements.length */\n      dup1\n      sload\n      swap1\n      pop\n        /* \"libraries/LinkIdSetLib.sol\":2038:2064  return set.elements.length */\n      swap1\n      pop\n        /* \"libraries/LinkIdSetLib.sol\":1957:2071  function length(LinkIdSet storage set) internal view returns (uint256) {... */\n      swap2\n      swap1\n      pop\n      jump\t// out\n        /* \"libraries/LinkIdSetLib.sol\":567:1200  function getPage(... */\n    tag_79:\n        /* \"libraries/LinkIdSetLib.sol\":693:708  string[] memory */\n      0x60\n        /* \"libraries/LinkIdSetLib.sol\":720:736  uint256 endIndex */\n      0x00\n        /* \"libraries/LinkIdSetLib.sol\":747:755  pageSize */\n      dup3\n        /* \"libraries/LinkIdSetLib.sol\":739:744  index */\n      dup5\n        /* \"libraries/LinkIdSetLib.sol\":739:755  index + pageSize */\n      tag_150\n      swap2\n      swap1\n      tag_151\n      jump\t// in\n    tag_150:\n        /* \"libraries/LinkIdSetLib.sol\":720:755  uint256 endIndex = index + pageSize */\n      swap1\n      pop\n        /* \"libraries/LinkIdSetLib.sol\":780:783  set */\n      dup5\n        /* \"libraries/LinkIdSetLib.sol\":780:792  set.elements */\n      0x00\n      add\n        /* \"libraries/LinkIdSetLib.sol\":780:799  set.elements.length */\n      dup1\n      sload\n      swap1\n      pop\n        /* \"libraries/LinkIdSetLib.sol\":769:777  endIndex */\n      dup2\n        /* \"libraries/LinkIdSetLib.sol\":769:799  endIndex > set.elements.length */\n      gt\n        /* \"libraries/LinkIdSetLib.sol\":765:856  if (endIndex > set.elements.length) {... */\n      iszero\n      tag_152\n      jumpi\n        /* \"libraries/LinkIdSetLib.sol\":826:829  set */\n      dup5\n        /* \"libraries/LinkIdSetLib.sol\":826:838  set.elements */\n      0x00\n      add\n        /* \"libraries/LinkIdSetLib.sol\":826:845  set.elements.length */\n      dup1\n      sload\n      swap1\n      pop\n        /* \"libraries/LinkIdSetLib.sol\":815:845  endIndex = set.elements.length */\n      swap1\n      pop\n        /* \"libraries/LinkIdSetLib.sol\":765:856  if (endIndex > set.elements.length) {... */\n    tag_152:\n        /* \"libraries/LinkIdSetLib.sol\":881:886  index */\n      dup4\n        /* \"libraries/LinkIdSetLib.sol\":869:877  endIndex */\n      dup2\n        /* \"libraries/LinkIdSetLib.sol\":869:886  endIndex <= index */\n      gt\n        /* \"libraries/LinkIdSetLib.sol\":865:935  if (endIndex <= index) {... */\n      tag_153\n      jumpi\n        /* \"libraries/LinkIdSetLib.sol\":922:923  0 */\n      0x00\n        /* \"libraries/LinkIdSetLib.sol\":909:924  new string[](0) */\n      0xffffffffffffffff\n      dup2\n      gt\n      iszero\n      tag_154\n      jumpi\n      tag_155\n      tag_156\n      jump\t// in\n    tag_155:\n    tag_154:\n      mload(0x40)\n      swap1\n      dup1\n      dup3\n      mstore\n      dup1\n      0x20\n      mul\n      0x20\n      add\n      dup3\n      add\n      0x40\n      mstore\n      dup1\n      iszero\n      tag_157\n      jumpi\n      dup2\n      0x20\n      add\n    tag_158:\n      0x60\n      dup2\n      mstore\n      0x20\n      add\n      swap1\n      0x01\n      swap1\n      sub\n      swap1\n      dup2\n      tag_158\n      jumpi\n      swap1\n      pop\n    tag_157:\n      pop\n        /* \"libraries/LinkIdSetLib.sol\":902:924  return new string[](0) */\n      swap2\n      pop\n      pop\n      jump(tag_149)\n        /* \"libraries/LinkIdSetLib.sol\":865:935  if (endIndex <= index) {... */\n    tag_153:\n        /* \"libraries/LinkIdSetLib.sol\":945:954  uint256 n */\n      0x00\n        /* \"libraries/LinkIdSetLib.sol\":968:973  index */\n      dup5\n        /* \"libraries/LinkIdSetLib.sol\":957:965  endIndex */\n      dup3\n        /* \"libraries/LinkIdSetLib.sol\":957:973  endIndex - index */\n      tag_159\n      swap2\n      swap1\n      tag_160\n      jump\t// in\n    tag_159:\n        /* \"libraries/LinkIdSetLib.sol\":945:973  uint256 n = endIndex - index */\n      swap1\n      pop\n        /* \"libraries/LinkIdSetLib.sol\":983:1003  string[] memory page */\n      0x00\n        /* \"libraries/LinkIdSetLib.sol\":1019:1020  n */\n      dup2\n        /* \"libraries/LinkIdSetLib.sol\":1006:1021  new string[](n) */\n      0xffffffffffffffff\n      dup2\n      gt\n      iszero\n      tag_161\n      jumpi\n      tag_162\n      tag_156\n      jump\t// in\n    tag_162:\n    tag_161:\n      mload(0x40)\n      swap1\n      dup1\n      dup3\n      mstore\n      dup1\n      0x20\n      mul\n      0x20\n      add\n      dup3\n      add\n      0x40\n      mstore\n      dup1\n      iszero\n      tag_163\n      jumpi\n      dup2\n      0x20\n      add\n    tag_164:\n      0x60\n      dup2\n      mstore\n      0x20\n      add\n      swap1\n      0x01\n      swap1\n      sub\n      swap1\n      dup2\n      tag_164\n      jumpi\n      swap1\n      pop\n    tag_163:\n      pop\n        /* \"libraries/LinkIdSetLib.sol\":983:1021  string[] memory page = new string[](n) */\n      swap1\n      pop\n        /* \"libraries/LinkIdSetLib.sol\":1036:1045  uint256 i */\n      0x00\n        /* \"libraries/LinkIdSetLib.sol\":1031:1173  for (uint256 i; i < n; ) {... */\n    tag_165:\n        /* \"libraries/LinkIdSetLib.sol\":1051:1052  n */\n      dup3\n        /* \"libraries/LinkIdSetLib.sol\":1047:1048  i */\n      dup2\n        /* \"libraries/LinkIdSetLib.sol\":1047:1052  i < n */\n      lt\n        /* \"libraries/LinkIdSetLib.sol\":1031:1173  for (uint256 i; i < n; ) {... */\n      iszero\n      tag_166\n      jumpi\n        /* \"libraries/LinkIdSetLib.sol\":1080:1083  set */\n      dup8\n        /* \"libraries/LinkIdSetLib.sol\":1080:1092  set.elements */\n      0x00\n      add\n        /* \"libraries/LinkIdSetLib.sol\":1097:1102  index */\n      dup8\n        /* \"libraries/LinkIdSetLib.sol\":1093:1094  i */\n      dup3\n        /* \"libraries/LinkIdSetLib.sol\":1093:1102  i + index */\n      tag_168\n      swap2\n      swap1\n      tag_151\n      jump\t// in\n    tag_168:\n        /* \"libraries/LinkIdSetLib.sol\":1080:1103  set.elements[i + index] */\n      dup2\n      sload\n      dup2\n      lt\n      tag_169\n      jumpi\n      tag_170\n      tag_96\n      jump\t// in\n    tag_170:\n    tag_169:\n      swap1\n      0x00\n      mstore\n      keccak256(0x00, 0x20)\n      add\n        /* \"libraries/LinkIdSetLib.sol\":1070:1103  page[i] = set.elements[i + index] */\n      dup1\n      sload\n      tag_172\n      swap1\n      tag_70\n      jump\t// in\n    tag_172:\n      dup1\n      0x1f\n      add\n      0x20\n      dup1\n      swap2\n      div\n      mul\n      0x20\n      add\n      mload(0x40)\n      swap1\n      dup2\n      add\n      0x40\n      mstore\n      dup1\n      swap3\n      swap2\n      swap1\n      dup2\n      dup2\n      mstore\n      0x20\n      add\n      dup3\n      dup1\n      sload\n      tag_173\n      swap1\n      tag_70\n      jump\t// in\n    tag_173:\n      dup1\n      iszero\n      tag_174\n      jumpi\n      dup1\n      0x1f\n      lt\n      tag_175\n      jumpi\n      0x0100\n      dup1\n      dup4\n      sload\n      div\n      mul\n      dup4\n      mstore\n      swap2\n      0x20\n      add\n      swap2\n      jump(tag_174)\n    tag_175:\n      dup3\n      add\n      swap2\n      swap1\n      0x00\n      mstore\n      keccak256(0x00, 0x20)\n      swap1\n    tag_176:\n      dup2\n      sload\n      dup2\n      mstore\n      swap1\n      0x01\n      add\n      swap1\n      0x20\n      add\n      dup1\n      dup4\n      gt\n      tag_176\n      jumpi\n      dup3\n      swap1\n      sub\n      0x1f\n      and\n      dup3\n      add\n      swap2\n    tag_174:\n      pop\n      pop\n      pop\n      pop\n      pop\n        /* \"libraries/LinkIdSetLib.sol\":1070:1074  page */\n      dup3\n        /* \"libraries/LinkIdSetLib.sol\":1075:1076  i */\n      dup3\n        /* \"libraries/LinkIdSetLib.sol\":1070:1077  page[i] */\n      dup2\n      mload\n      dup2\n      lt\n      tag_177\n      jumpi\n      tag_178\n      tag_96\n      jump\t// in\n    tag_178:\n    tag_177:\n      0x20\n      mul\n      0x20\n      add\n      add\n        /* \"libraries/LinkIdSetLib.sol\":1070:1103  page[i] = set.elements[i + index] */\n      dup2\n      swap1\n      mstore\n      pop\n        /* \"libraries/LinkIdSetLib.sol\":1145:1148  ++i */\n      dup1\n      0x01\n      add\n      swap1\n      pop\n        /* \"libraries/LinkIdSetLib.sol\":1031:1173  for (uint256 i; i < n; ) {... */\n      jump(tag_165)\n    tag_166:\n      pop\n        /* \"libraries/LinkIdSetLib.sol\":1189:1193  page */\n      dup1\n        /* \"libraries/LinkIdSetLib.sol\":1182:1193  return page */\n      swap4\n      pop\n      pop\n      pop\n      pop\n        /* \"libraries/LinkIdSetLib.sol\":567:1200  function getPage(... */\n    tag_149:\n      swap4\n      swap3\n      pop\n      pop\n      pop\n      jump\t// out\n        /* \"@openzeppelin/contracts/utils/Context.sol\":640:736  function _msgSender() internal view virtual returns (address) {... */\n    tag_82:\n        /* \"@openzeppelin/contracts/utils/Context.sol\":693:700  address */\n      0x00\n        /* \"@openzeppelin/contracts/utils/Context.sol\":719:729  msg.sender */\n      caller\n        /* \"@openzeppelin/contracts/utils/Context.sol\":712:729  return msg.sender */\n      swap1\n      pop\n        /* \"@openzeppelin/contracts/utils/Context.sol\":640:736  function _msgSender() internal view virtual returns (address) {... */\n      swap1\n      jump\t// out\n        /* \"@openzeppelin/contracts/security/ReentrancyGuard.sol\":2336:2623  function _nonReentrantBefore() private {... */\n    tag_88:\n        /* \"@openzeppelin/contracts/security/ReentrancyGuard.sol\":1759:1760  2 */\n      0x02\n        /* \"@openzeppelin/contracts/security/ReentrancyGuard.sol\":2468:2475  _status */\n      sload(0x01)\n        /* \"@openzeppelin/contracts/security/ReentrancyGuard.sol\":2468:2487  _status != _ENTERED */\n      sub\n        /* \"@openzeppelin/contracts/security/ReentrancyGuard.sol\":2460:2523  require(_status != _ENTERED, \"ReentrancyGuard: reentrant call\") */\n      tag_181\n      jumpi\n      mload(0x40)\n      0x08c379a000000000000000000000000000000000000000000000000000000000\n      dup2\n      mstore\n      0x04\n      add\n      tag_182\n      swap1\n      tag_183\n      jump\t// in\n    tag_182:\n      mload(0x40)\n      dup1\n      swap2\n      sub\n      swap1\n      revert\n    tag_181:\n        /* \"@openzeppelin/contracts/security/ReentrancyGuard.sol\":1759:1760  2 */\n      0x02\n        /* \"@openzeppelin/contracts/security/ReentrancyGuard.sol\":2598:2605  _status */\n      0x01\n        /* \"@openzeppelin/contracts/security/ReentrancyGuard.sol\":2598:2616  _status = _ENTERED */\n      dup2\n      swap1\n      sstore\n      pop\n        /* \"@openzeppelin/contracts/security/ReentrancyGuard.sol\":2336:2623  function _nonReentrantBefore() private {... */\n      jump\t// out\n        /* \"libraries/LinkIdSetLib.sol\":1206:1426  function add(LinkIdSet storage set, string memory element) internal {... */\n    tag_99:\n        /* \"libraries/LinkIdSetLib.sol\":1289:1311  contains(set, element) */\n      tag_185\n        /* \"libraries/LinkIdSetLib.sol\":1298:1301  set */\n      dup3\n        /* \"libraries/LinkIdSetLib.sol\":1303:1310  element */\n      dup3\n        /* \"libraries/LinkIdSetLib.sol\":1289:1297  contains */\n      tag_186\n        /* \"libraries/LinkIdSetLib.sol\":1289:1311  contains(set, element) */\n      jump\t// in\n    tag_185:\n        /* \"libraries/LinkIdSetLib.sol\":1284:1420  if (!contains(set, element)) {... */\n      tag_187\n      jumpi\n        /* \"libraries/LinkIdSetLib.sol\":1350:1353  set */\n      dup2\n        /* \"libraries/LinkIdSetLib.sol\":1350:1362  set.elements */\n      0x00\n      add\n        /* \"libraries/LinkIdSetLib.sol\":1350:1369  set.elements.length */\n      dup1\n      sload\n      swap1\n      pop\n        /* \"libraries/LinkIdSetLib.sol\":1327:1330  set */\n      dup3\n        /* \"libraries/LinkIdSetLib.sol\":1327:1338  set.indices */\n      0x01\n      add\n        /* \"libraries/LinkIdSetLib.sol\":1339:1346  element */\n      dup3\n        /* \"libraries/LinkIdSetLib.sol\":1327:1347  set.indices[element] */\n      mload(0x40)\n      tag_188\n      swap2\n      swap1\n      tag_104\n      jump\t// in\n    tag_188:\n      swap1\n      dup2\n      mstore\n      0x20\n      add\n      mload(0x40)\n      dup1\n      swap2\n      sub\n      swap1\n      keccak256\n        /* \"libraries/LinkIdSetLib.sol\":1327:1369  set.indices[element] = set.elements.length */\n      dup2\n      swap1\n      sstore\n      pop\n        /* \"libraries/LinkIdSetLib.sol\":1383:1386  set */\n      dup2\n        /* \"libraries/LinkIdSetLib.sol\":1383:1395  set.elements */\n      0x00\n      add\n        /* \"libraries/LinkIdSetLib.sol\":1401:1408  element */\n      dup2\n        /* \"libraries/LinkIdSetLib.sol\":1383:1409  set.elements.push(element) */\n      swap1\n      dup1\n      0x01\n      dup2\n      sload\n      add\n      dup1\n      dup3\n      sstore\n      dup1\n      swap2\n      pop\n      pop\n      0x01\n      swap1\n      sub\n      swap1\n      0x00\n      mstore\n      keccak256(0x00, 0x20)\n      add\n      0x00\n      swap1\n      swap2\n      swap1\n      swap2\n      swap1\n      swap2\n      pop\n      swap1\n      dup2\n      tag_190\n      swap2\n      swap1\n      tag_102\n      jump\t// in\n    tag_190:\n      pop\n        /* \"libraries/LinkIdSetLib.sol\":1284:1420  if (!contains(set, element)) {... */\n    tag_187:\n        /* \"libraries/LinkIdSetLib.sol\":1206:1426  function add(LinkIdSet storage set, string memory element) internal {... */\n      pop\n      pop\n      jump\t// out\n        /* \"@openzeppelin/contracts/security/ReentrancyGuard.sol\":2629:2838  function _nonReentrantAfter() private {... */\n    tag_114:\n        /* \"@openzeppelin/contracts/security/ReentrancyGuard.sol\":1716:1717  1 */\n      0x01\n        /* \"@openzeppelin/contracts/security/ReentrancyGuard.sol\":2809:2816  _status */\n      dup1\n        /* \"@openzeppelin/contracts/security/ReentrancyGuard.sol\":2809:2831  _status = _NOT_ENTERED */\n      dup2\n      swap1\n      sstore\n      pop\n        /* \"@openzeppelin/contracts/security/ReentrancyGuard.sol\":2629:2838  function _nonReentrantAfter() private {... */\n      jump\t// out\n        /* \"libraries/LinkIdSetLib.sol\":1432:1951  function remove(LinkIdSet storage set, string memory element) internal {... */\n    tag_123:\n        /* \"libraries/LinkIdSetLib.sol\":1521:1543  contains(set, element) */\n      tag_193\n        /* \"libraries/LinkIdSetLib.sol\":1530:1533  set */\n      dup3\n        /* \"libraries/LinkIdSetLib.sol\":1535:1542  element */\n      dup3\n        /* \"libraries/LinkIdSetLib.sol\":1521:1529  contains */\n      tag_186\n        /* \"libraries/LinkIdSetLib.sol\":1521:1543  contains(set, element) */\n      jump\t// in\n    tag_193:\n        /* \"libraries/LinkIdSetLib.sol\":1513:1567  require(contains(set, element), \"Element not in set!\") */\n      tag_194\n      jumpi\n      mload(0x40)\n      0x08c379a000000000000000000000000000000000000000000000000000000000\n      dup2\n      mstore\n      0x04\n      add\n      tag_195\n      swap1\n      tag_196\n      jump\t// in\n    tag_195:\n      mload(0x40)\n      dup1\n      swap2\n      sub\n      swap1\n      revert\n    tag_194:\n        /* \"libraries/LinkIdSetLib.sol\":1578:1591  uint256 index */\n      0x00\n        /* \"libraries/LinkIdSetLib.sol\":1594:1597  set */\n      dup3\n        /* \"libraries/LinkIdSetLib.sol\":1594:1605  set.indices */\n      0x01\n      add\n        /* \"libraries/LinkIdSetLib.sol\":1606:1613  element */\n      dup3\n        /* \"libraries/LinkIdSetLib.sol\":1594:1614  set.indices[element] */\n      mload(0x40)\n      tag_197\n      swap2\n      swap1\n      tag_104\n      jump\t// in\n    tag_197:\n      swap1\n      dup2\n      mstore\n      0x20\n      add\n      mload(0x40)\n      dup1\n      swap2\n      sub\n      swap1\n      keccak256\n      sload\n        /* \"libraries/LinkIdSetLib.sol\":1578:1614  uint256 index = set.indices[element] */\n      swap1\n      pop\n        /* \"libraries/LinkIdSetLib.sol\":1625:1642  uint256 lastIndex */\n      0x00\n        /* \"libraries/LinkIdSetLib.sol\":1667:1668  1 */\n      0x01\n        /* \"libraries/LinkIdSetLib.sol\":1645:1648  set */\n      dup5\n        /* \"libraries/LinkIdSetLib.sol\":1645:1657  set.elements */\n      0x00\n      add\n        /* \"libraries/LinkIdSetLib.sol\":1645:1664  set.elements.length */\n      dup1\n      sload\n      swap1\n      pop\n        /* \"libraries/LinkIdSetLib.sol\":1645:1668  set.elements.length - 1 */\n      tag_198\n      swap2\n      swap1\n      tag_160\n      jump\t// in\n    tag_198:\n        /* \"libraries/LinkIdSetLib.sol\":1625:1668  uint256 lastIndex = set.elements.length - 1 */\n      swap1\n      pop\n        /* \"libraries/LinkIdSetLib.sol\":1691:1700  lastIndex */\n      dup1\n        /* \"libraries/LinkIdSetLib.sol\":1682:1687  index */\n      dup3\n        /* \"libraries/LinkIdSetLib.sol\":1682:1700  index != lastIndex */\n      eq\n        /* \"libraries/LinkIdSetLib.sol\":1678:1880  if (index != lastIndex) {... */\n      tag_199\n      jumpi\n        /* \"libraries/LinkIdSetLib.sol\":1716:1744  string memory shiftedElement */\n      0x00\n        /* \"libraries/LinkIdSetLib.sol\":1747:1750  set */\n      dup5\n        /* \"libraries/LinkIdSetLib.sol\":1747:1759  set.elements */\n      0x00\n      add\n        /* \"libraries/LinkIdSetLib.sol\":1760:1769  lastIndex */\n      dup3\n        /* \"libraries/LinkIdSetLib.sol\":1747:1770  set.elements[lastIndex] */\n      dup2\n      sload\n      dup2\n      lt\n      tag_200\n      jumpi\n      tag_201\n      tag_96\n      jump\t// in\n    tag_201:\n    tag_200:\n      swap1\n      0x00\n      mstore\n      keccak256(0x00, 0x20)\n      add\n        /* \"libraries/LinkIdSetLib.sol\":1716:1770  string memory shiftedElement = set.elements[lastIndex] */\n      dup1\n      sload\n      tag_203\n      swap1\n      tag_70\n      jump\t// in\n    tag_203:\n      dup1\n      0x1f\n      add\n      0x20\n      dup1\n      swap2\n      div\n      mul\n      0x20\n      add\n      mload(0x40)\n      swap1\n      dup2\n      add\n      0x40\n      mstore\n      dup1\n      swap3\n      swap2\n      swap1\n      dup2\n      dup2\n      mstore\n      0x20\n      add\n      dup3\n      dup1\n      sload\n      tag_204\n      swap1\n      tag_70\n      jump\t// in\n    tag_204:\n      dup1\n      iszero\n      tag_205\n      jumpi\n      dup1\n      0x1f\n      lt\n      tag_206\n      jumpi\n      0x0100\n      dup1\n      dup4\n      sload\n      div\n      mul\n      dup4\n      mstore\n      swap2\n      0x20\n      add\n      swap2\n      jump(tag_205)\n    tag_206:\n      dup3\n      add\n      swap2\n      swap1\n      0x00\n      mstore\n      keccak256(0x00, 0x20)\n      swap1\n    tag_207:\n      dup2\n      sload\n      dup2\n      mstore\n      swap1\n      0x01\n      add\n      swap1\n      0x20\n      add\n      dup1\n      dup4\n      gt\n      tag_207\n      jumpi\n      dup3\n      swap1\n      sub\n      0x1f\n      and\n      dup3\n      add\n      swap2\n    tag_205:\n      pop\n      pop\n      pop\n      pop\n      pop\n      swap1\n      pop\n        /* \"libraries/LinkIdSetLib.sol\":1806:1820  shiftedElement */\n      dup1\n        /* \"libraries/LinkIdSetLib.sol\":1784:1787  set */\n      dup6\n        /* \"libraries/LinkIdSetLib.sol\":1784:1796  set.elements */\n      0x00\n      add\n        /* \"libraries/LinkIdSetLib.sol\":1797:1802  index */\n      dup5\n        /* \"libraries/LinkIdSetLib.sol\":1784:1803  set.elements[index] */\n      dup2\n      sload\n      dup2\n      lt\n      tag_208\n      jumpi\n      tag_209\n      tag_96\n      jump\t// in\n    tag_209:\n    tag_208:\n      swap1\n      0x00\n      mstore\n      keccak256(0x00, 0x20)\n      add\n        /* \"libraries/LinkIdSetLib.sol\":1784:1820  set.elements[index] = shiftedElement */\n      swap1\n      dup2\n      tag_211\n      swap2\n      swap1\n      tag_102\n      jump\t// in\n    tag_211:\n      pop\n        /* \"libraries/LinkIdSetLib.sol\":1864:1869  index */\n      dup3\n        /* \"libraries/LinkIdSetLib.sol\":1834:1837  set */\n      dup6\n        /* \"libraries/LinkIdSetLib.sol\":1834:1845  set.indices */\n      0x01\n      add\n        /* \"libraries/LinkIdSetLib.sol\":1846:1860  shiftedElement */\n      dup3\n        /* \"libraries/LinkIdSetLib.sol\":1834:1861  set.indices[shiftedElement] */\n      mload(0x40)\n      tag_212\n      swap2\n      swap1\n      tag_104\n      jump\t// in\n    tag_212:\n      swap1\n      dup2\n      mstore\n      0x20\n      add\n      mload(0x40)\n      dup1\n      swap2\n      sub\n      swap1\n      keccak256\n        /* \"libraries/LinkIdSetLib.sol\":1834:1869  set.indices[shiftedElement] = index */\n      dup2\n      swap1\n      sstore\n      pop\n        /* \"libraries/LinkIdSetLib.sol\":1702:1880  {... */\n      pop\n        /* \"libraries/LinkIdSetLib.sol\":1678:1880  if (index != lastIndex) {... */\n    tag_199:\n        /* \"libraries/LinkIdSetLib.sol\":1889:1892  set */\n      dup4\n        /* \"libraries/LinkIdSetLib.sol\":1889:1901  set.elements */\n      0x00\n      add\n        /* \"libraries/LinkIdSetLib.sol\":1889:1907  set.elements.pop() */\n      dup1\n      sload\n      dup1\n      tag_213\n      jumpi\n      tag_214\n      tag_215\n      jump\t// in\n    tag_214:\n    tag_213:\n      0x01\n      swap1\n      sub\n      dup2\n      dup2\n      swap1\n      0x00\n      mstore\n      keccak256(0x00, 0x20)\n      add\n      0x00\n      tag_217\n      swap2\n      swap1\n      tag_218\n      jump\t// in\n    tag_217:\n      swap1\n      sstore\n        /* \"libraries/LinkIdSetLib.sol\":1924:1927  set */\n      dup4\n        /* \"libraries/LinkIdSetLib.sol\":1924:1935  set.indices */\n      0x01\n      add\n        /* \"libraries/LinkIdSetLib.sol\":1936:1943  element */\n      dup4\n        /* \"libraries/LinkIdSetLib.sol\":1924:1944  set.indices[element] */\n      mload(0x40)\n      tag_219\n      swap2\n      swap1\n      tag_104\n      jump\t// in\n    tag_219:\n      swap1\n      dup2\n      mstore\n      0x20\n      add\n      mload(0x40)\n      dup1\n      swap2\n      sub\n      swap1\n      keccak256\n        /* \"libraries/LinkIdSetLib.sol\":1917:1944  delete set.indices[element] */\n      0x00\n      swap1\n      sstore\n        /* \"libraries/LinkIdSetLib.sol\":1503:1951  {... */\n      pop\n      pop\n        /* \"libraries/LinkIdSetLib.sol\":1432:1951  function remove(LinkIdSet storage set, string memory element) internal {... */\n      pop\n      pop\n      jump\t// out\n        /* \"@openzeppelin/contracts/access/Ownable.sol\":1359:1489  function _checkOwner() internal view virtual {... */\n    tag_127:\n        /* \"@openzeppelin/contracts/access/Ownable.sol\":1433:1445  _msgSender() */\n      tag_221\n        /* \"@openzeppelin/contracts/access/Ownable.sol\":1433:1443  _msgSender */\n      tag_82\n        /* \"@openzeppelin/contracts/access/Ownable.sol\":1433:1445  _msgSender() */\n      jump\t// in\n    tag_221:\n        /* \"@openzeppelin/contracts/access/Ownable.sol\":1422:1445  owner() == _msgSender() */\n      0xffffffffffffffffffffffffffffffffffffffff\n      and\n        /* \"@openzeppelin/contracts/access/Ownable.sol\":1422:1429  owner() */\n      tag_222\n        /* \"@openzeppelin/contracts/access/Ownable.sol\":1422:1427  owner */\n      tag_45\n        /* \"@openzeppelin/contracts/access/Ownable.sol\":1422:1429  owner() */\n      jump\t// in\n    tag_222:\n        /* \"@openzeppelin/contracts/access/Ownable.sol\":1422:1445  owner() == _msgSender() */\n      0xffffffffffffffffffffffffffffffffffffffff\n      and\n      eq\n        /* \"@openzeppelin/contracts/access/Ownable.sol\":1414:1482  require(owner() == _msgSender(), \"Ownable: caller is not the owner\") */\n      tag_223\n      jumpi\n      mload(0x40)\n      0x08c379a000000000000000000000000000000000000000000000000000000000\n      dup2\n      mstore\n      0x04\n      add\n      tag_224\n      swap1\n      tag_225\n      jump\t// in\n    tag_224:\n      mload(0x40)\n      dup1\n      swap2\n      sub\n      swap1\n      revert\n    tag_223:\n        /* \"@openzeppelin/contracts/access/Ownable.sol\":1359:1489  function _checkOwner() internal view virtual {... */\n      jump\t// out\n        /* \"@openzeppelin/contracts/access/Ownable.sol\":2426:2613  function _transferOwnership(address newOwner) internal virtual {... */\n    tag_130:\n        /* \"@openzeppelin/contracts/access/Ownable.sol\":2499:2515  address oldOwner */\n      0x00\n        /* \"@openzeppelin/contracts/access/Ownable.sol\":2518:2524  _owner */\n      dup1\n      0x00\n      swap1\n      sload\n      swap1\n      0x0100\n      exp\n      swap1\n      div\n      0xffffffffffffffffffffffffffffffffffffffff\n      and\n        /* \"@openzeppelin/contracts/access/Ownable.sol\":2499:2524  address oldOwner = _owner */\n      swap1\n      pop\n        /* \"@openzeppelin/contracts/access/Ownable.sol\":2543:2551  newOwner */\n      dup2\n        /* \"@openzeppelin/contracts/access/Ownable.sol\":2534:2540  _owner */\n      0x00\n      dup1\n        /* \"@openzeppelin/contracts/access/Ownable.sol\":2534:2551  _owner = newOwner */\n      0x0100\n      exp\n      dup2\n      sload\n      dup2\n      0xffffffffffffffffffffffffffffffffffffffff\n      mul\n      not\n      and\n      swap1\n      dup4\n      0xffffffffffffffffffffffffffffffffffffffff\n      and\n      mul\n      or\n      swap1\n      sstore\n      pop\n        /* \"@openzeppelin/contracts/access/Ownable.sol\":2597:2605  newOwner */\n      dup2\n        /* \"@openzeppelin/contracts/access/Ownable.sol\":2566:2606  OwnershipTransferred(oldOwner, newOwner) */\n      0xffffffffffffffffffffffffffffffffffffffff\n      and\n        /* \"@openzeppelin/contracts/access/Ownable.sol\":2587:2595  oldOwner */\n      dup2\n        /* \"@openzeppelin/contracts/access/Ownable.sol\":2566:2606  OwnershipTransferred(oldOwner, newOwner) */\n      0xffffffffffffffffffffffffffffffffffffffff\n      and\n      0x8be0079c531659141344cd1fd0a4f28419497f9722a3daafe3b4186f6b6457e0\n      mload(0x40)\n      mload(0x40)\n      dup1\n      swap2\n      sub\n      swap1\n      log3\n        /* \"@openzeppelin/contracts/access/Ownable.sol\":2489:2613  {... */\n      pop\n        /* \"@openzeppelin/contracts/access/Ownable.sol\":2426:2613  function _transferOwnership(address newOwner) internal virtual {... */\n      pop\n      jump\t// out\n        /* \"libraries/LinkIdSetLib.sol\":193:561  function contains(... */\n    tag_186:\n        /* \"libraries/LinkIdSetLib.sol\":304:308  bool */\n      0x00\n        /* \"libraries/LinkIdSetLib.sol\":347:348  0 */\n      dup1\n        /* \"libraries/LinkIdSetLib.sol\":324:327  set */\n      dup4\n        /* \"libraries/LinkIdSetLib.sol\":324:336  set.elements */\n      0x00\n      add\n        /* \"libraries/LinkIdSetLib.sol\":324:343  set.elements.length */\n      dup1\n      sload\n      swap1\n      pop\n        /* \"libraries/LinkIdSetLib.sol\":324:348  set.elements.length == 0 */\n      sub\n        /* \"libraries/LinkIdSetLib.sol\":320:387  if (set.elements.length == 0) {... */\n      tag_228\n      jumpi\n        /* \"libraries/LinkIdSetLib.sol\":371:376  false */\n      0x00\n        /* \"libraries/LinkIdSetLib.sol\":364:376  return false */\n      swap1\n      pop\n      jump(tag_227)\n        /* \"libraries/LinkIdSetLib.sol\":320:387  if (set.elements.length == 0) {... */\n    tag_228:\n        /* \"libraries/LinkIdSetLib.sol\":396:409  uint256 index */\n      0x00\n        /* \"libraries/LinkIdSetLib.sol\":412:415  set */\n      dup4\n        /* \"libraries/LinkIdSetLib.sol\":412:423  set.indices */\n      0x01\n      add\n        /* \"libraries/LinkIdSetLib.sol\":424:433  candidate */\n      dup4\n        /* \"libraries/LinkIdSetLib.sol\":412:434  set.indices[candidate] */\n      mload(0x40)\n      tag_229\n      swap2\n      swap1\n      tag_104\n      jump\t// in\n    tag_229:\n      swap1\n      dup2\n      mstore\n      0x20\n      add\n      mload(0x40)\n      dup1\n      swap2\n      sub\n      swap1\n      keccak256\n      sload\n        /* \"libraries/LinkIdSetLib.sol\":396:434  uint256 index = set.indices[candidate] */\n      swap1\n      pop\n        /* \"libraries/LinkIdSetLib.sol\":473:474  0 */\n      0x00\n        /* \"libraries/LinkIdSetLib.sol\":464:469  index */\n      dup2\n        /* \"libraries/LinkIdSetLib.sol\":464:474  index != 0 */\n      eq\n      iszero\n        /* \"libraries/LinkIdSetLib.sol\":464:554  index != 0 ||... */\n      dup1\n      tag_230\n      jumpi\n      pop\n        /* \"libraries/LinkIdSetLib.sol\":537:540  set */\n      dup4\n        /* \"libraries/LinkIdSetLib.sol\":537:549  set.elements */\n      0x00\n      add\n        /* \"libraries/LinkIdSetLib.sol\":550:551  0 */\n      0x00\n        /* \"libraries/LinkIdSetLib.sol\":537:552  set.elements[0] */\n      dup2\n      sload\n      dup2\n      lt\n      tag_231\n      jumpi\n      tag_232\n      tag_96\n      jump\t// in\n    tag_232:\n    tag_231:\n      swap1\n      0x00\n      mstore\n      keccak256(0x00, 0x20)\n      add\n        /* \"libraries/LinkIdSetLib.sol\":521:554  keccak256(bytes(set.elements[0])) */\n      mload(0x40)\n      tag_234\n      swap2\n      swap1\n      tag_235\n      jump\t// in\n    tag_234:\n      mload(0x40)\n      dup1\n      swap2\n      sub\n      swap1\n      keccak256\n        /* \"libraries/LinkIdSetLib.sol\":506:515  candidate */\n      dup4\n        /* \"libraries/LinkIdSetLib.sol\":490:517  keccak256(bytes(candidate)) */\n      dup1\n      mload\n      swap1\n      0x20\n      add\n      keccak256\n        /* \"libraries/LinkIdSetLib.sol\":490:554  keccak256(bytes(candidate)) == keccak256(bytes(set.elements[0])) */\n      eq\n        /* \"libraries/LinkIdSetLib.sol\":464:554  index != 0 ||... */\n    tag_230:\n        /* \"libraries/LinkIdSetLib.sol\":445:554  return... */\n      swap2\n      pop\n      pop\n        /* \"libraries/LinkIdSetLib.sol\":193:561  function contains(... */\n    tag_227:\n      swap3\n      swap2\n      pop\n      pop\n      jump\t// out\n    tag_106:\n      dup3\n      dup1\n      sload\n      dup3\n      dup3\n      sstore\n      swap1\n      0x00\n      mstore\n      keccak256(0x00, 0x20)\n      swap1\n      dup2\n      add\n      swap3\n      dup3\n      iszero\n      tag_236\n      jumpi\n      swap2\n      0x20\n      mul\n      dup3\n      add\n    tag_237:\n      dup3\n      dup2\n      gt\n      iszero\n      tag_238\n      jumpi\n      dup3\n      mload\n      dup3\n      exp(0x0100, 0x00)\n      dup2\n      sload\n      dup2\n      0xffffffffffffffffffffffffffffffffffffffff\n      mul\n      not\n      and\n      swap1\n      dup4\n      0xffffffffffffffffffffffffffffffffffffffff\n      and\n      mul\n      or\n      swap1\n      sstore\n      pop\n      swap2\n      0x20\n      add\n      swap2\n      swap1\n      0x01\n      add\n      swap1\n      jump(tag_237)\n    tag_238:\n    tag_236:\n      pop\n      swap1\n      pop\n      tag_239\n      swap2\n      swap1\n      tag_240\n      jump\t// in\n    tag_239:\n      pop\n      swap1\n      jump\t// out\n    tag_108:\n      dup3\n      dup1\n      sload\n      dup3\n      dup3\n      sstore\n      swap1\n      0x00\n      mstore\n      keccak256(0x00, 0x20)\n      swap1\n      dup2\n      add\n      swap3\n      dup3\n      iszero\n      tag_241\n      jumpi\n      swap2\n      0x20\n      mul\n      dup3\n      add\n    tag_242:\n      dup3\n      dup2\n      gt\n      iszero\n      tag_243\n      jumpi\n      dup3\n      mload\n      dup3\n      swap1\n      dup2\n      tag_244\n      swap2\n      swap1\n      tag_102\n      jump\t// in\n    tag_244:\n      pop\n      swap2\n      0x20\n      add\n      swap2\n      swap1\n      0x01\n      add\n      swap1\n      jump(tag_242)\n    tag_243:\n    tag_241:\n      pop\n      swap1\n      pop\n      tag_245\n      swap2\n      swap1\n      tag_246\n      jump\t// in\n    tag_245:\n      pop\n      swap1\n      jump\t// out\n    tag_218:\n      pop\n      dup1\n      sload\n      tag_247\n      swap1\n      tag_70\n      jump\t// in\n    tag_247:\n      0x00\n      dup3\n      sstore\n      dup1\n      0x1f\n      lt\n      tag_249\n      jumpi\n      pop\n      jump(tag_248)\n    tag_249:\n      0x1f\n      add\n      0x20\n      swap1\n      div\n      swap1\n      0x00\n      mstore\n      keccak256(0x00, 0x20)\n      swap1\n      dup2\n      add\n      swap1\n      tag_250\n      swap2\n      swap1\n      tag_240\n      jump\t// in\n    tag_250:\n    tag_248:\n      pop\n      jump\t// out\n    tag_240:\n    tag_251:\n      dup1\n      dup3\n      gt\n      iszero\n      tag_252\n      jumpi\n      0x00\n      dup2\n      0x00\n      swap1\n      sstore\n      pop\n      0x01\n      add\n      jump(tag_251)\n    tag_252:\n      pop\n      swap1\n      jump\t// out\n    tag_246:\n    tag_253:\n      dup1\n      dup3\n      gt\n      iszero\n      tag_254\n      jumpi\n      0x00\n      dup2\n      dup2\n      tag_255\n      swap2\n      swap1\n      tag_218\n      jump\t// in\n    tag_255:\n      pop\n      0x01\n      add\n      jump(tag_253)\n    tag_254:\n      pop\n      swap1\n      jump\t// out\n        /* \"#utility.yul\":7:82   */\n    tag_256:\n        /* \"#utility.yul\":40:46   */\n      0x00\n        /* \"#utility.yul\":73:75   */\n      0x40\n        /* \"#utility.yul\":67:76   */\n      mload\n        /* \"#utility.yul\":57:76   */\n      swap1\n      pop\n        /* \"#utility.yul\":7:82   */\n      swap1\n      jump\t// out\n        /* \"#utility.yul\":88:205   */\n    tag_257:\n        /* \"#utility.yul\":197:198   */\n      0x00\n        /* \"#utility.yul\":194:195   */\n      dup1\n        /* \"#utility.yul\":187:199   */\n      revert\n        /* \"#utility.yul\":211:328   */\n    tag_258:\n        /* \"#utility.yul\":320:321   */\n      0x00\n        /* \"#utility.yul\":317:318   */\n      dup1\n        /* \"#utility.yul\":310:322   */\n      revert\n        /* \"#utility.yul\":334:451   */\n    tag_259:\n        /* \"#utility.yul\":443:444   */\n      0x00\n        /* \"#utility.yul\":440:441   */\n      dup1\n        /* \"#utility.yul\":433:445   */\n      revert\n        /* \"#utility.yul\":457:574   */\n    tag_260:\n        /* \"#utility.yul\":566:567   */\n      0x00\n        /* \"#utility.yul\":563:564   */\n      dup1\n        /* \"#utility.yul\":556:568   */\n      revert\n        /* \"#utility.yul\":580:682   */\n    tag_261:\n        /* \"#utility.yul\":621:627   */\n      0x00\n        /* \"#utility.yul\":672:674   */\n      0x1f\n        /* \"#utility.yul\":668:675   */\n      not\n        /* \"#utility.yul\":663:665   */\n      0x1f\n        /* \"#utility.yul\":656:661   */\n      dup4\n        /* \"#utility.yul\":652:666   */\n      add\n        /* \"#utility.yul\":648:676   */\n      and\n        /* \"#utility.yul\":638:676   */\n      swap1\n      pop\n        /* \"#utility.yul\":580:682   */\n      swap2\n      swap1\n      pop\n      jump\t// out\n        /* \"#utility.yul\":688:868   */\n    tag_156:\n        /* \"#utility.yul\":736:813   */\n      0x4e487b7100000000000000000000000000000000000000000000000000000000\n        /* \"#utility.yul\":733:734   */\n      0x00\n        /* \"#utility.yul\":726:814   */\n      mstore\n        /* \"#utility.yul\":833:837   */\n      0x41\n        /* \"#utility.yul\":830:831   */\n      0x04\n        /* \"#utility.yul\":823:838   */\n      mstore\n        /* \"#utility.yul\":857:861   */\n      0x24\n        /* \"#utility.yul\":854:855   */\n      0x00\n        /* \"#utility.yul\":847:862   */\n      revert\n        /* \"#utility.yul\":874:1155   */\n    tag_262:\n        /* \"#utility.yul\":957:984   */\n      tag_339\n        /* \"#utility.yul\":979:983   */\n      dup3\n        /* \"#utility.yul\":957:984   */\n      tag_261\n      jump\t// in\n    tag_339:\n        /* \"#utility.yul\":949:955   */\n      dup2\n        /* \"#utility.yul\":945:985   */\n      add\n        /* \"#utility.yul\":1087:1093   */\n      dup2\n        /* \"#utility.yul\":1075:1085   */\n      dup2\n        /* \"#utility.yul\":1072:1094   */\n      lt\n        /* \"#utility.yul\":1051:1069   */\n      0xffffffffffffffff\n        /* \"#utility.yul\":1039:1049   */\n      dup3\n        /* \"#utility.yul\":1036:1070   */\n      gt\n        /* \"#utility.yul\":1033:1095   */\n      or\n        /* \"#utility.yul\":1030:1118   */\n      iszero\n      tag_340\n      jumpi\n        /* \"#utility.yul\":1098:1116   */\n      tag_341\n      tag_156\n      jump\t// in\n    tag_341:\n        /* \"#utility.yul\":1030:1118   */\n    tag_340:\n        /* \"#utility.yul\":1138:1148   */\n      dup1\n        /* \"#utility.yul\":1134:1136   */\n      0x40\n        /* \"#utility.yul\":1127:1149   */\n      mstore\n        /* \"#utility.yul\":917:1155   */\n      pop\n        /* \"#utility.yul\":874:1155   */\n      pop\n      pop\n      jump\t// out\n        /* \"#utility.yul\":1161:1290   */\n    tag_263:\n        /* \"#utility.yul\":1195:1201   */\n      0x00\n        /* \"#utility.yul\":1222:1242   */\n      tag_343\n      tag_256\n      jump\t// in\n    tag_343:\n        /* \"#utility.yul\":1212:1242   */\n      swap1\n      pop\n        /* \"#utility.yul\":1251:1284   */\n      tag_344\n        /* \"#utility.yul\":1279:1283   */\n      dup3\n        /* \"#utility.yul\":1271:1277   */\n      dup3\n        /* \"#utility.yul\":1251:1284   */\n      tag_262\n      jump\t// in\n    tag_344:\n        /* \"#utility.yul\":1161:1290   */\n      swap2\n      swap1\n      pop\n      jump\t// out\n        /* \"#utility.yul\":1296:1604   */\n    tag_264:\n        /* \"#utility.yul\":1358:1362   */\n      0x00\n        /* \"#utility.yul\":1448:1466   */\n      0xffffffffffffffff\n        /* \"#utility.yul\":1440:1446   */\n      dup3\n        /* \"#utility.yul\":1437:1467   */\n      gt\n        /* \"#utility.yul\":1434:1490   */\n      iszero\n      tag_346\n      jumpi\n        /* \"#utility.yul\":1470:1488   */\n      tag_347\n      tag_156\n      jump\t// in\n    tag_347:\n        /* \"#utility.yul\":1434:1490   */\n    tag_346:\n        /* \"#utility.yul\":1508:1537   */\n      tag_348\n        /* \"#utility.yul\":1530:1536   */\n      dup3\n        /* \"#utility.yul\":1508:1537   */\n      tag_261\n      jump\t// in\n    tag_348:\n        /* \"#utility.yul\":1500:1537   */\n      swap1\n      pop\n        /* \"#utility.yul\":1592:1596   */\n      0x20\n        /* \"#utility.yul\":1586:1590   */\n      dup2\n        /* \"#utility.yul\":1582:1597   */\n      add\n        /* \"#utility.yul\":1574:1597   */\n      swap1\n      pop\n        /* \"#utility.yul\":1296:1604   */\n      swap2\n      swap1\n      pop\n      jump\t// out\n        /* \"#utility.yul\":1610:1756   */\n    tag_265:\n        /* \"#utility.yul\":1707:1713   */\n      dup3\n        /* \"#utility.yul\":1702:1705   */\n      dup2\n        /* \"#utility.yul\":1697:1700   */\n      dup4\n        /* \"#utility.yul\":1684:1714   */\n      calldatacopy\n        /* \"#utility.yul\":1748:1749   */\n      0x00\n        /* \"#utility.yul\":1739:1745   */\n      dup4\n        /* \"#utility.yul\":1734:1737   */\n      dup4\n        /* \"#utility.yul\":1730:1746   */\n      add\n        /* \"#utility.yul\":1723:1750   */\n      mstore\n        /* \"#utility.yul\":1610:1756   */\n      pop\n      pop\n      pop\n      jump\t// out\n        /* \"#utility.yul\":1762:2187   */\n    tag_266:\n        /* \"#utility.yul\":1840:1845   */\n      0x00\n        /* \"#utility.yul\":1865:1931   */\n      tag_351\n        /* \"#utility.yul\":1881:1930   */\n      tag_352\n        /* \"#utility.yul\":1923:1929   */\n      dup5\n        /* \"#utility.yul\":1881:1930   */\n      tag_264\n      jump\t// in\n    tag_352:\n        /* \"#utility.yul\":1865:1931   */\n      tag_263\n      jump\t// in\n    tag_351:\n        /* \"#utility.yul\":1856:1931   */\n      swap1\n      pop\n        /* \"#utility.yul\":1954:1960   */\n      dup3\n        /* \"#utility.yul\":1947:1952   */\n      dup2\n        /* \"#utility.yul\":1940:1961   */\n      mstore\n        /* \"#utility.yul\":1992:1996   */\n      0x20\n        /* \"#utility.yul\":1985:1990   */\n      dup2\n        /* \"#utility.yul\":1981:1997   */\n      add\n        /* \"#utility.yul\":2030:2033   */\n      dup5\n        /* \"#utility.yul\":2021:2027   */\n      dup5\n        /* \"#utility.yul\":2016:2019   */\n      dup5\n        /* \"#utility.yul\":2012:2028   */\n      add\n        /* \"#utility.yul\":2009:2034   */\n      gt\n        /* \"#utility.yul\":2006:2118   */\n      iszero\n      tag_353\n      jumpi\n        /* \"#utility.yul\":2037:2116   */\n      tag_354\n      tag_260\n      jump\t// in\n    tag_354:\n        /* \"#utility.yul\":2006:2118   */\n    tag_353:\n        /* \"#utility.yul\":2127:2181   */\n      tag_355\n        /* \"#utility.yul\":2174:2180   */\n      dup5\n        /* \"#utility.yul\":2169:2172   */\n      dup3\n        /* \"#utility.yul\":2164:2167   */\n      dup6\n        /* \"#utility.yul\":2127:2181   */\n      tag_265\n      jump\t// in\n    tag_355:\n        /* \"#utility.yul\":1846:2187   */\n      pop\n        /* \"#utility.yul\":1762:2187   */\n      swap4\n      swap3\n      pop\n      pop\n      pop\n      jump\t// out\n        /* \"#utility.yul\":2207:2547   */\n    tag_267:\n        /* \"#utility.yul\":2263:2268   */\n      0x00\n        /* \"#utility.yul\":2312:2315   */\n      dup3\n        /* \"#utility.yul\":2305:2309   */\n      0x1f\n        /* \"#utility.yul\":2297:2303   */\n      dup4\n        /* \"#utility.yul\":2293:2310   */\n      add\n        /* \"#utility.yul\":2289:2316   */\n      slt\n        /* \"#utility.yul\":2279:2401   */\n      tag_357\n      jumpi\n        /* \"#utility.yul\":2320:2399   */\n      tag_358\n      tag_259\n      jump\t// in\n    tag_358:\n        /* \"#utility.yul\":2279:2401   */\n    tag_357:\n        /* \"#utility.yul\":2437:2443   */\n      dup2\n        /* \"#utility.yul\":2424:2444   */\n      calldataload\n        /* \"#utility.yul\":2462:2541   */\n      tag_359\n        /* \"#utility.yul\":2537:2540   */\n      dup5\n        /* \"#utility.yul\":2529:2535   */\n      dup3\n        /* \"#utility.yul\":2522:2526   */\n      0x20\n        /* \"#utility.yul\":2514:2520   */\n      dup7\n        /* \"#utility.yul\":2510:2527   */\n      add\n        /* \"#utility.yul\":2462:2541   */\n      tag_266\n      jump\t// in\n    tag_359:\n        /* \"#utility.yul\":2453:2541   */\n      swap2\n      pop\n        /* \"#utility.yul\":2269:2547   */\n      pop\n        /* \"#utility.yul\":2207:2547   */\n      swap3\n      swap2\n      pop\n      pop\n      jump\t// out\n        /* \"#utility.yul\":2553:3062   */\n    tag_18:\n        /* \"#utility.yul\":2622:2628   */\n      0x00\n        /* \"#utility.yul\":2671:2673   */\n      0x20\n        /* \"#utility.yul\":2659:2668   */\n      dup3\n        /* \"#utility.yul\":2650:2657   */\n      dup5\n        /* \"#utility.yul\":2646:2669   */\n      sub\n        /* \"#utility.yul\":2642:2674   */\n      slt\n        /* \"#utility.yul\":2639:2758   */\n      iszero\n      tag_361\n      jumpi\n        /* \"#utility.yul\":2677:2756   */\n      tag_362\n      tag_257\n      jump\t// in\n    tag_362:\n        /* \"#utility.yul\":2639:2758   */\n    tag_361:\n        /* \"#utility.yul\":2825:2826   */\n      0x00\n        /* \"#utility.yul\":2814:2823   */\n      dup3\n        /* \"#utility.yul\":2810:2827   */\n      add\n        /* \"#utility.yul\":2797:2828   */\n      calldataload\n        /* \"#utility.yul\":2855:2873   */\n      0xffffffffffffffff\n        /* \"#utility.yul\":2847:2853   */\n      dup2\n        /* \"#utility.yul\":2844:2874   */\n      gt\n        /* \"#utility.yul\":2841:2958   */\n      iszero\n      tag_363\n      jumpi\n        /* \"#utility.yul\":2877:2956   */\n      tag_364\n      tag_258\n      jump\t// in\n    tag_364:\n        /* \"#utility.yul\":2841:2958   */\n    tag_363:\n        /* \"#utility.yul\":2982:3045   */\n      tag_365\n        /* \"#utility.yul\":3037:3044   */\n      dup5\n        /* \"#utility.yul\":3028:3034   */\n      dup3\n        /* \"#utility.yul\":3017:3026   */\n      dup6\n        /* \"#utility.yul\":3013:3035   */\n      add\n        /* \"#utility.yul\":2982:3045   */\n      tag_267\n      jump\t// in\n    tag_365:\n        /* \"#utility.yul\":2972:3045   */\n      swap2\n      pop\n        /* \"#utility.yul\":2768:3055   */\n      pop\n        /* \"#utility.yul\":2553:3062   */\n      swap3\n      swap2\n      pop\n      pop\n      jump\t// out\n        /* \"#utility.yul\":3068:3167   */\n    tag_268:\n        /* \"#utility.yul\":3120:3126   */\n      0x00\n        /* \"#utility.yul\":3154:3159   */\n      dup2\n        /* \"#utility.yul\":3148:3160   */\n      mload\n        /* \"#utility.yul\":3138:3160   */\n      swap1\n      pop\n        /* \"#utility.yul\":3068:3167   */\n      swap2\n      swap1\n      pop\n      jump\t// out\n        /* \"#utility.yul\":3173:3342   */\n    tag_269:\n        /* \"#utility.yul\":3257:3268   */\n      0x00\n        /* \"#utility.yul\":3291:3297   */\n      dup3\n        /* \"#utility.yul\":3286:3289   */\n      dup3\n        /* \"#utility.yul\":3279:3298   */\n      mstore\n        /* \"#utility.yul\":3331:3335   */\n      0x20\n        /* \"#utility.yul\":3326:3329   */\n      dup3\n        /* \"#utility.yul\":3322:3336   */\n      add\n        /* \"#utility.yul\":3307:3336   */\n      swap1\n      pop\n        /* \"#utility.yul\":3173:3342   */\n      swap3\n      swap2\n      pop\n      pop\n      jump\t// out\n        /* \"#utility.yul\":3348:3594   */\n    tag_270:\n        /* \"#utility.yul\":3429:3430   */\n      0x00\n        /* \"#utility.yul\":3439:3552   */\n    tag_369:\n        /* \"#utility.yul\":3453:3459   */\n      dup4\n        /* \"#utility.yul\":3450:3451   */\n      dup2\n        /* \"#utility.yul\":3447:3460   */\n      lt\n        /* \"#utility.yul\":3439:3552   */\n      iszero\n      tag_371\n      jumpi\n        /* \"#utility.yul\":3538:3539   */\n      dup1\n        /* \"#utility.yul\":3533:3536   */\n      dup3\n        /* \"#utility.yul\":3529:3540   */\n      add\n        /* \"#utility.yul\":3523:3541   */\n      mload\n        /* \"#utility.yul\":3519:3520   */\n      dup2\n        /* \"#utility.yul\":3514:3517   */\n      dup5\n        /* \"#utility.yul\":3510:3521   */\n      add\n        /* \"#utility.yul\":3503:3542   */\n      mstore\n        /* \"#utility.yul\":3475:3477   */\n      0x20\n        /* \"#utility.yul\":3472:3473   */\n      dup2\n        /* \"#utility.yul\":3468:3478   */\n      add\n        /* \"#utility.yul\":3463:3478   */\n      swap1\n      pop\n        /* \"#utility.yul\":3439:3552   */\n      jump(tag_369)\n    tag_371:\n        /* \"#utility.yul\":3586:3587   */\n      0x00\n        /* \"#utility.yul\":3577:3583   */\n      dup5\n        /* \"#utility.yul\":3572:3575   */\n      dup5\n        /* \"#utility.yul\":3568:3584   */\n      add\n        /* \"#utility.yul\":3561:3588   */\n      mstore\n        /* \"#utility.yul\":3410:3594   */\n      pop\n        /* \"#utility.yul\":3348:3594   */\n      pop\n      pop\n      pop\n      jump\t// out\n        /* \"#utility.yul\":3600:3977   */\n    tag_271:\n        /* \"#utility.yul\":3688:3691   */\n      0x00\n        /* \"#utility.yul\":3716:3755   */\n      tag_373\n        /* \"#utility.yul\":3749:3754   */\n      dup3\n        /* \"#utility.yul\":3716:3755   */\n      tag_268\n      jump\t// in\n    tag_373:\n        /* \"#utility.yul\":3771:3842   */\n      tag_374\n        /* \"#utility.yul\":3835:3841   */\n      dup2\n        /* \"#utility.yul\":3830:3833   */\n      dup6\n        /* \"#utility.yul\":3771:3842   */\n      tag_269\n      jump\t// in\n    tag_374:\n        /* \"#utility.yul\":3764:3842   */\n      swap4\n      pop\n        /* \"#utility.yul\":3851:3916   */\n      tag_375\n        /* \"#utility.yul\":3909:3915   */\n      dup2\n        /* \"#utility.yul\":3904:3907   */\n      dup6\n        /* \"#utility.yul\":3897:3901   */\n      0x20\n        /* \"#utility.yul\":3890:3895   */\n      dup7\n        /* \"#utility.yul\":3886:3902   */\n      add\n        /* \"#utility.yul\":3851:3916   */\n      tag_270\n      jump\t// in\n    tag_375:\n        /* \"#utility.yul\":3941:3970   */\n      tag_376\n        /* \"#utility.yul\":3963:3969   */\n      dup2\n        /* \"#utility.yul\":3941:3970   */\n      tag_261\n      jump\t// in\n    tag_376:\n        /* \"#utility.yul\":3936:3939   */\n      dup5\n        /* \"#utility.yul\":3932:3971   */\n      add\n        /* \"#utility.yul\":3925:3971   */\n      swap2\n      pop\n        /* \"#utility.yul\":3692:3977   */\n      pop\n        /* \"#utility.yul\":3600:3977   */\n      swap3\n      swap2\n      pop\n      pop\n      jump\t// out\n        /* \"#utility.yul\":3983:4060   */\n    tag_272:\n        /* \"#utility.yul\":4020:4027   */\n      0x00\n        /* \"#utility.yul\":4049:4054   */\n      dup2\n        /* \"#utility.yul\":4038:4054   */\n      swap1\n      pop\n        /* \"#utility.yul\":3983:4060   */\n      swap2\n      swap1\n      pop\n      jump\t// out\n        /* \"#utility.yul\":4066:4184   */\n    tag_273:\n        /* \"#utility.yul\":4153:4177   */\n      tag_379\n        /* \"#utility.yul\":4171:4176   */\n      dup2\n        /* \"#utility.yul\":4153:4177   */\n      tag_272\n      jump\t// in\n    tag_379:\n        /* \"#utility.yul\":4148:4151   */\n      dup3\n        /* \"#utility.yul\":4141:4178   */\n      mstore\n        /* \"#utility.yul\":4066:4184   */\n      pop\n      pop\n      jump\t// out\n        /* \"#utility.yul\":4190:4834   */\n    tag_21:\n        /* \"#utility.yul\":4387:4391   */\n      0x00\n        /* \"#utility.yul\":4425:4428   */\n      0x80\n        /* \"#utility.yul\":4414:4423   */\n      dup3\n        /* \"#utility.yul\":4410:4429   */\n      add\n        /* \"#utility.yul\":4402:4429   */\n      swap1\n      pop\n        /* \"#utility.yul\":4475:4484   */\n      dup2\n        /* \"#utility.yul\":4469:4473   */\n      dup2\n        /* \"#utility.yul\":4465:4485   */\n      sub\n        /* \"#utility.yul\":4461:4462   */\n      0x00\n        /* \"#utility.yul\":4450:4459   */\n      dup4\n        /* \"#utility.yul\":4446:4463   */\n      add\n        /* \"#utility.yul\":4439:4486   */\n      mstore\n        /* \"#utility.yul\":4503:4581   */\n      tag_381\n        /* \"#utility.yul\":4576:4580   */\n      dup2\n        /* \"#utility.yul\":4567:4573   */\n      dup8\n        /* \"#utility.yul\":4503:4581   */\n      tag_271\n      jump\t// in\n    tag_381:\n        /* \"#utility.yul\":4495:4581   */\n      swap1\n      pop\n        /* \"#utility.yul\":4591:4663   */\n      tag_382\n        /* \"#utility.yul\":4659:4661   */\n      0x20\n        /* \"#utility.yul\":4648:4657   */\n      dup4\n        /* \"#utility.yul\":4644:4662   */\n      add\n        /* \"#utility.yul\":4635:4641   */\n      dup7\n        /* \"#utility.yul\":4591:4663   */\n      tag_273\n      jump\t// in\n    tag_382:\n        /* \"#utility.yul\":4673:4745   */\n      tag_383\n        /* \"#utility.yul\":4741:4743   */\n      0x40\n        /* \"#utility.yul\":4730:4739   */\n      dup4\n        /* \"#utility.yul\":4726:4744   */\n      add\n        /* \"#utility.yul\":4717:4723   */\n      dup6\n        /* \"#utility.yul\":4673:4745   */\n      tag_273\n      jump\t// in\n    tag_383:\n        /* \"#utility.yul\":4755:4827   */\n      tag_384\n        /* \"#utility.yul\":4823:4825   */\n      0x60\n        /* \"#utility.yul\":4812:4821   */\n      dup4\n        /* \"#utility.yul\":4808:4826   */\n      add\n        /* \"#utility.yul\":4799:4805   */\n      dup5\n        /* \"#utility.yul\":4755:4827   */\n      tag_273\n      jump\t// in\n    tag_384:\n        /* \"#utility.yul\":4190:4834   */\n      swap6\n      swap5\n      pop\n      pop\n      pop\n      pop\n      pop\n      jump\t// out\n        /* \"#utility.yul\":4840:4966   */\n    tag_274:\n        /* \"#utility.yul\":4877:4884   */\n      0x00\n        /* \"#utility.yul\":4917:4959   */\n      0xffffffffffffffffffffffffffffffffffffffff\n        /* \"#utility.yul\":4910:4915   */\n      dup3\n        /* \"#utility.yul\":4906:4960   */\n      and\n        /* \"#utility.yul\":4895:4960   */\n      swap1\n      pop\n        /* \"#utility.yul\":4840:4966   */\n      swap2\n      swap1\n      pop\n      jump\t// out\n        /* \"#utility.yul\":4972:5068   */\n    tag_275:\n        /* \"#utility.yul\":5009:5016   */\n      0x00\n        /* \"#utility.yul\":5038:5062   */\n      tag_387\n        /* \"#utility.yul\":5056:5061   */\n      dup3\n        /* \"#utility.yul\":5038:5062   */\n      tag_274\n      jump\t// in\n    tag_387:\n        /* \"#utility.yul\":5027:5062   */\n      swap1\n      pop\n        /* \"#utility.yul\":4972:5068   */\n      swap2\n      swap1\n      pop\n      jump\t// out\n        /* \"#utility.yul\":5074:5196   */\n    tag_276:\n        /* \"#utility.yul\":5147:5171   */\n      tag_389\n        /* \"#utility.yul\":5165:5170   */\n      dup2\n        /* \"#utility.yul\":5147:5171   */\n      tag_275\n      jump\t// in\n    tag_389:\n        /* \"#utility.yul\":5140:5145   */\n      dup2\n        /* \"#utility.yul\":5137:5172   */\n      eq\n        /* \"#utility.yul\":5127:5190   */\n      tag_390\n      jumpi\n        /* \"#utility.yul\":5186:5187   */\n      0x00\n        /* \"#utility.yul\":5183:5184   */\n      dup1\n        /* \"#utility.yul\":5176:5188   */\n      revert\n        /* \"#utility.yul\":5127:5190   */\n    tag_390:\n        /* \"#utility.yul\":5074:5196   */\n      pop\n      jump\t// out\n        /* \"#utility.yul\":5202:5341   */\n    tag_277:\n        /* \"#utility.yul\":5248:5253   */\n      0x00\n        /* \"#utility.yul\":5286:5292   */\n      dup2\n        /* \"#utility.yul\":5273:5293   */\n      calldataload\n        /* \"#utility.yul\":5264:5293   */\n      swap1\n      pop\n        /* \"#utility.yul\":5302:5335   */\n      tag_392\n        /* \"#utility.yul\":5329:5334   */\n      dup2\n        /* \"#utility.yul\":5302:5335   */\n      tag_276\n      jump\t// in\n    tag_392:\n        /* \"#utility.yul\":5202:5341   */\n      swap3\n      swap2\n      pop\n      pop\n      jump\t// out\n        /* \"#utility.yul\":5347:5676   */\n    tag_24:\n        /* \"#utility.yul\":5406:5412   */\n      0x00\n        /* \"#utility.yul\":5455:5457   */\n      0x20\n        /* \"#utility.yul\":5443:5452   */\n      dup3\n        /* \"#utility.yul\":5434:5441   */\n      dup5\n        /* \"#utility.yul\":5430:5453   */\n      sub\n        /* \"#utility.yul\":5426:5458   */\n      slt\n        /* \"#utility.yul\":5423:5542   */\n      iszero\n      tag_394\n      jumpi\n        /* \"#utility.yul\":5461:5540   */\n      tag_395\n      tag_257\n      jump\t// in\n    tag_395:\n        /* \"#utility.yul\":5423:5542   */\n    tag_394:\n        /* \"#utility.yul\":5581:5582   */\n      0x00\n        /* \"#utility.yul\":5606:5659   */\n      tag_396\n        /* \"#utility.yul\":5651:5658   */\n      dup5\n        /* \"#utility.yul\":5642:5648   */\n      dup3\n        /* \"#utility.yul\":5631:5640   */\n      dup6\n        /* \"#utility.yul\":5627:5649   */\n      add\n        /* \"#utility.yul\":5606:5659   */\n      tag_277\n      jump\t// in\n    tag_396:\n        /* \"#utility.yul\":5596:5659   */\n      swap2\n      pop\n        /* \"#utility.yul\":5552:5669   */\n      pop\n        /* \"#utility.yul\":5347:5676   */\n      swap3\n      swap2\n      pop\n      pop\n      jump\t// out\n        /* \"#utility.yul\":5682:5806   */\n    tag_278:\n        /* \"#utility.yul\":5759:5765   */\n      0x00\n        /* \"#utility.yul\":5793:5798   */\n      dup2\n        /* \"#utility.yul\":5787:5799   */\n      mload\n        /* \"#utility.yul\":5777:5799   */\n      swap1\n      pop\n        /* \"#utility.yul\":5682:5806   */\n      swap2\n      swap1\n      pop\n      jump\t// out\n        /* \"#utility.yul\":5812:6006   */\n    tag_279:\n        /* \"#utility.yul\":5921:5932   */\n      0x00\n        /* \"#utility.yul\":5955:5961   */\n      dup3\n        /* \"#utility.yul\":5950:5953   */\n      dup3\n        /* \"#utility.yul\":5943:5962   */\n      mstore\n        /* \"#utility.yul\":5995:5999   */\n      0x20\n        /* \"#utility.yul\":5990:5993   */\n      dup3\n        /* \"#utility.yul\":5986:6000   */\n      add\n        /* \"#utility.yul\":5971:6000   */\n      swap1\n      pop\n        /* \"#utility.yul\":5812:6006   */\n      swap3\n      swap2\n      pop\n      pop\n      jump\t// out\n        /* \"#utility.yul\":6012:6154   */\n    tag_280:\n        /* \"#utility.yul\":6089:6093   */\n      0x00\n        /* \"#utility.yul\":6112:6115   */\n      dup2\n        /* \"#utility.yul\":6104:6115   */\n      swap1\n      pop\n        /* \"#utility.yul\":6142:6146   */\n      0x20\n        /* \"#utility.yul\":6137:6140   */\n      dup3\n        /* \"#utility.yul\":6133:6147   */\n      add\n        /* \"#utility.yul\":6125:6147   */\n      swap1\n      pop\n        /* \"#utility.yul\":6012:6154   */\n      swap2\n      swap1\n      pop\n      jump\t// out\n        /* \"#utility.yul\":6160:6319   */\n    tag_281:\n        /* \"#utility.yul\":6234:6245   */\n      0x00\n        /* \"#utility.yul\":6268:6274   */\n      dup3\n        /* \"#utility.yul\":6263:6266   */\n      dup3\n        /* \"#utility.yul\":6256:6275   */\n      mstore\n        /* \"#utility.yul\":6308:6312   */\n      0x20\n        /* \"#utility.yul\":6303:6306   */\n      dup3\n        /* \"#utility.yul\":6299:6313   */\n      add\n        /* \"#utility.yul\":6284:6313   */\n      swap1\n      pop\n        /* \"#utility.yul\":6160:6319   */\n      swap3\n      swap2\n      pop\n      pop\n      jump\t// out\n        /* \"#utility.yul\":6325:6682   */\n    tag_282:\n        /* \"#utility.yul\":6403:6406   */\n      0x00\n        /* \"#utility.yul\":6431:6470   */\n      tag_402\n        /* \"#utility.yul\":6464:6469   */\n      dup3\n        /* \"#utility.yul\":6431:6470   */\n      tag_268\n      jump\t// in\n    tag_402:\n        /* \"#utility.yul\":6486:6547   */\n      tag_403\n        /* \"#utility.yul\":6540:6546   */\n      dup2\n        /* \"#utility.yul\":6535:6538   */\n      dup6\n        /* \"#utility.yul\":6486:6547   */\n      tag_281\n      jump\t// in\n    tag_403:\n        /* \"#utility.yul\":6479:6547   */\n      swap4\n      pop\n        /* \"#utility.yul\":6556:6621   */\n      tag_404\n        /* \"#utility.yul\":6614:6620   */\n      dup2\n        /* \"#utility.yul\":6609:6612   */\n      dup6\n        /* \"#utility.yul\":6602:6606   */\n      0x20\n        /* \"#utility.yul\":6595:6600   */\n      dup7\n        /* \"#utility.yul\":6591:6607   */\n      add\n        /* \"#utility.yul\":6556:6621   */\n      tag_270\n      jump\t// in\n    tag_404:\n        /* \"#utility.yul\":6646:6675   */\n      tag_405\n        /* \"#utility.yul\":6668:6674   */\n      dup2\n        /* \"#utility.yul\":6646:6675   */\n      tag_261\n      jump\t// in\n    tag_405:\n        /* \"#utility.yul\":6641:6644   */\n      dup5\n        /* \"#utility.yul\":6637:6676   */\n      add\n        /* \"#utility.yul\":6630:6676   */\n      swap2\n      pop\n        /* \"#utility.yul\":6407:6682   */\n      pop\n        /* \"#utility.yul\":6325:6682   */\n      swap3\n      swap2\n      pop\n      pop\n      jump\t// out\n        /* \"#utility.yul\":6688:6884   */\n    tag_283:\n        /* \"#utility.yul\":6777:6787   */\n      0x00\n        /* \"#utility.yul\":6812:6878   */\n      tag_407\n        /* \"#utility.yul\":6874:6877   */\n      dup4\n        /* \"#utility.yul\":6866:6872   */\n      dup4\n        /* \"#utility.yul\":6812:6878   */\n      tag_282\n      jump\t// in\n    tag_407:\n        /* \"#utility.yul\":6798:6878   */\n      swap1\n      pop\n        /* \"#utility.yul\":6688:6884   */\n      swap3\n      swap2\n      pop\n      pop\n      jump\t// out\n        /* \"#utility.yul\":6890:7013   */\n    tag_284:\n        /* \"#utility.yul\":6970:6974   */\n      0x00\n        /* \"#utility.yul\":7002:7006   */\n      0x20\n        /* \"#utility.yul\":6997:7000   */\n      dup3\n        /* \"#utility.yul\":6993:7007   */\n      add\n        /* \"#utility.yul\":6985:7007   */\n      swap1\n      pop\n        /* \"#utility.yul\":6890:7013   */\n      swap2\n      swap1\n      pop\n      jump\t// out\n        /* \"#utility.yul\":7047:8038   */\n    tag_285:\n        /* \"#utility.yul\":7186:7189   */\n      0x00\n        /* \"#utility.yul\":7215:7279   */\n      tag_410\n        /* \"#utility.yul\":7273:7278   */\n      dup3\n        /* \"#utility.yul\":7215:7279   */\n      tag_278\n      jump\t// in\n    tag_410:\n        /* \"#utility.yul\":7295:7391   */\n      tag_411\n        /* \"#utility.yul\":7384:7390   */\n      dup2\n        /* \"#utility.yul\":7379:7382   */\n      dup6\n        /* \"#utility.yul\":7295:7391   */\n      tag_279\n      jump\t// in\n    tag_411:\n        /* \"#utility.yul\":7288:7391   */\n      swap4\n      pop\n        /* \"#utility.yul\":7417:7420   */\n      dup4\n        /* \"#utility.yul\":7462:7466   */\n      0x20\n        /* \"#utility.yul\":7454:7460   */\n      dup3\n        /* \"#utility.yul\":7450:7467   */\n      mul\n        /* \"#utility.yul\":7445:7448   */\n      dup6\n        /* \"#utility.yul\":7441:7468   */\n      add\n        /* \"#utility.yul\":7492:7558   */\n      tag_412\n        /* \"#utility.yul\":7552:7557   */\n      dup6\n        /* \"#utility.yul\":7492:7558   */\n      tag_280\n      jump\t// in\n    tag_412:\n        /* \"#utility.yul\":7581:7588   */\n      dup1\n        /* \"#utility.yul\":7612:7613   */\n      0x00\n        /* \"#utility.yul\":7597:7993   */\n    tag_413:\n        /* \"#utility.yul\":7622:7628   */\n      dup6\n        /* \"#utility.yul\":7619:7620   */\n      dup2\n        /* \"#utility.yul\":7616:7629   */\n      lt\n        /* \"#utility.yul\":7597:7993   */\n      iszero\n      tag_415\n      jumpi\n        /* \"#utility.yul\":7693:7702   */\n      dup5\n        /* \"#utility.yul\":7687:7691   */\n      dup5\n        /* \"#utility.yul\":7683:7703   */\n      sub\n        /* \"#utility.yul\":7678:7681   */\n      dup10\n        /* \"#utility.yul\":7671:7704   */\n      mstore\n        /* \"#utility.yul\":7744:7750   */\n      dup2\n        /* \"#utility.yul\":7738:7751   */\n      mload\n        /* \"#utility.yul\":7772:7856   */\n      tag_416\n        /* \"#utility.yul\":7851:7855   */\n      dup6\n        /* \"#utility.yul\":7836:7849   */\n      dup3\n        /* \"#utility.yul\":7772:7856   */\n      tag_283\n      jump\t// in\n    tag_416:\n        /* \"#utility.yul\":7764:7856   */\n      swap5\n      pop\n        /* \"#utility.yul\":7879:7949   */\n      tag_417\n        /* \"#utility.yul\":7942:7948   */\n      dup4\n        /* \"#utility.yul\":7879:7949   */\n      tag_284\n      jump\t// in\n    tag_417:\n        /* \"#utility.yul\":7869:7949   */\n      swap3\n      pop\n        /* \"#utility.yul\":7978:7982   */\n      0x20\n        /* \"#utility.yul\":7973:7976   */\n      dup11\n        /* \"#utility.yul\":7969:7983   */\n      add\n        /* \"#utility.yul\":7962:7983   */\n      swap10\n      pop\n        /* \"#utility.yul\":7657:7993   */\n      pop\n        /* \"#utility.yul\":7644:7645   */\n      0x01\n        /* \"#utility.yul\":7641:7642   */\n      dup2\n        /* \"#utility.yul\":7637:7646   */\n      add\n        /* \"#utility.yul\":7632:7646   */\n      swap1\n      pop\n        /* \"#utility.yul\":7597:7993   */\n      jump(tag_413)\n    tag_415:\n        /* \"#utility.yul\":7601:7615   */\n      pop\n        /* \"#utility.yul\":8009:8013   */\n      dup3\n        /* \"#utility.yul\":8002:8013   */\n      swap8\n      pop\n        /* \"#utility.yul\":8029:8032   */\n      dup8\n        /* \"#utility.yul\":8022:8032   */\n      swap6\n      pop\n        /* \"#utility.yul\":7191:8038   */\n      pop\n      pop\n      pop\n      pop\n      pop\n        /* \"#utility.yul\":7047:8038   */\n      swap3\n      swap2\n      pop\n      pop\n      jump\t// out\n        /* \"#utility.yul\":8044:8457   */\n    tag_27:\n        /* \"#utility.yul\":8207:8211   */\n      0x00\n        /* \"#utility.yul\":8245:8247   */\n      0x20\n        /* \"#utility.yul\":8234:8243   */\n      dup3\n        /* \"#utility.yul\":8230:8248   */\n      add\n        /* \"#utility.yul\":8222:8248   */\n      swap1\n      pop\n        /* \"#utility.yul\":8294:8303   */\n      dup2\n        /* \"#utility.yul\":8288:8292   */\n      dup2\n        /* \"#utility.yul\":8284:8304   */\n      sub\n        /* \"#utility.yul\":8280:8281   */\n      0x00\n        /* \"#utility.yul\":8269:8278   */\n      dup4\n        /* \"#utility.yul\":8265:8282   */\n      add\n        /* \"#utility.yul\":8258:8305   */\n      mstore\n        /* \"#utility.yul\":8322:8450   */\n      tag_419\n        /* \"#utility.yul\":8445:8449   */\n      dup2\n        /* \"#utility.yul\":8436:8442   */\n      dup5\n        /* \"#utility.yul\":8322:8450   */\n      tag_285\n      jump\t// in\n    tag_419:\n        /* \"#utility.yul\":8314:8450   */\n      swap1\n      pop\n        /* \"#utility.yul\":8044:8457   */\n      swap3\n      swap2\n      pop\n      pop\n      jump\t// out\n        /* \"#utility.yul\":8463:8774   */\n    tag_286:\n        /* \"#utility.yul\":8540:8544   */\n      0x00\n        /* \"#utility.yul\":8630:8648   */\n      0xffffffffffffffff\n        /* \"#utility.yul\":8622:8628   */\n      dup3\n        /* \"#utility.yul\":8619:8649   */\n      gt\n        /* \"#utility.yul\":8616:8672   */\n      iszero\n      tag_421\n      jumpi\n        /* \"#utility.yul\":8652:8670   */\n      tag_422\n      tag_156\n      jump\t// in\n    tag_422:\n        /* \"#utility.yul\":8616:8672   */\n    tag_421:\n        /* \"#utility.yul\":8702:8706   */\n      0x20\n        /* \"#utility.yul\":8694:8700   */\n      dup3\n        /* \"#utility.yul\":8690:8707   */\n      mul\n        /* \"#utility.yul\":8682:8707   */\n      swap1\n      pop\n        /* \"#utility.yul\":8762:8766   */\n      0x20\n        /* \"#utility.yul\":8756:8760   */\n      dup2\n        /* \"#utility.yul\":8752:8767   */\n      add\n        /* \"#utility.yul\":8744:8767   */\n      swap1\n      pop\n        /* \"#utility.yul\":8463:8774   */\n      swap2\n      swap1\n      pop\n      jump\t// out\n        /* \"#utility.yul\":8780:8897   */\n    tag_287:\n        /* \"#utility.yul\":8889:8890   */\n      0x00\n        /* \"#utility.yul\":8886:8887   */\n      dup1\n        /* \"#utility.yul\":8879:8891   */\n      revert\n        /* \"#utility.yul\":8920:9630   */\n    tag_288:\n        /* \"#utility.yul\":9016:9021   */\n      0x00\n        /* \"#utility.yul\":9041:9122   */\n      tag_425\n        /* \"#utility.yul\":9057:9121   */\n      tag_426\n        /* \"#utility.yul\":9114:9120   */\n      dup5\n        /* \"#utility.yul\":9057:9121   */\n      tag_286\n      jump\t// in\n    tag_426:\n        /* \"#utility.yul\":9041:9122   */\n      tag_263\n      jump\t// in\n    tag_425:\n        /* \"#utility.yul\":9032:9122   */\n      swap1\n      pop\n        /* \"#utility.yul\":9142:9147   */\n      dup1\n        /* \"#utility.yul\":9171:9177   */\n      dup4\n        /* \"#utility.yul\":9164:9169   */\n      dup3\n        /* \"#utility.yul\":9157:9178   */\n      mstore\n        /* \"#utility.yul\":9205:9209   */\n      0x20\n        /* \"#utility.yul\":9198:9203   */\n      dup3\n        /* \"#utility.yul\":9194:9210   */\n      add\n        /* \"#utility.yul\":9187:9210   */\n      swap1\n      pop\n        /* \"#utility.yul\":9258:9262   */\n      0x20\n        /* \"#utility.yul\":9250:9256   */\n      dup5\n        /* \"#utility.yul\":9246:9263   */\n      mul\n        /* \"#utility.yul\":9238:9244   */\n      dup4\n        /* \"#utility.yul\":9234:9264   */\n      add\n        /* \"#utility.yul\":9287:9290   */\n      dup6\n        /* \"#utility.yul\":9279:9285   */\n      dup2\n        /* \"#utility.yul\":9276:9291   */\n      gt\n        /* \"#utility.yul\":9273:9395   */\n      iszero\n      tag_427\n      jumpi\n        /* \"#utility.yul\":9306:9385   */\n      tag_428\n      tag_287\n      jump\t// in\n    tag_428:\n        /* \"#utility.yul\":9273:9395   */\n    tag_427:\n        /* \"#utility.yul\":9421:9427   */\n      dup4\n        /* \"#utility.yul\":9404:9624   */\n    tag_429:\n        /* \"#utility.yul\":9438:9444   */\n      dup2\n        /* \"#utility.yul\":9433:9436   */\n      dup2\n        /* \"#utility.yul\":9430:9445   */\n      lt\n        /* \"#utility.yul\":9404:9624   */\n      iszero\n      tag_431\n      jumpi\n        /* \"#utility.yul\":9513:9516   */\n      dup1\n        /* \"#utility.yul\":9542:9579   */\n      tag_432\n        /* \"#utility.yul\":9575:9578   */\n      dup9\n        /* \"#utility.yul\":9563:9573   */\n      dup3\n        /* \"#utility.yul\":9542:9579   */\n      tag_277\n      jump\t// in\n    tag_432:\n        /* \"#utility.yul\":9537:9540   */\n      dup5\n        /* \"#utility.yul\":9530:9580   */\n      mstore\n        /* \"#utility.yul\":9609:9613   */\n      0x20\n        /* \"#utility.yul\":9604:9607   */\n      dup5\n        /* \"#utility.yul\":9600:9614   */\n      add\n        /* \"#utility.yul\":9593:9614   */\n      swap4\n      pop\n        /* \"#utility.yul\":9480:9624   */\n      pop\n        /* \"#utility.yul\":9464:9468   */\n      0x20\n        /* \"#utility.yul\":9459:9462   */\n      dup2\n        /* \"#utility.yul\":9455:9469   */\n      add\n        /* \"#utility.yul\":9448:9469   */\n      swap1\n      pop\n        /* \"#utility.yul\":9404:9624   */\n      jump(tag_429)\n    tag_431:\n        /* \"#utility.yul\":9408:9429   */\n      pop\n        /* \"#utility.yul\":9022:9630   */\n      pop\n      pop\n        /* \"#utility.yul\":8920:9630   */\n      swap4\n      swap3\n      pop\n      pop\n      pop\n      jump\t// out\n        /* \"#utility.yul\":9653:10023   */\n    tag_289:\n        /* \"#utility.yul\":9724:9729   */\n      0x00\n        /* \"#utility.yul\":9773:9776   */\n      dup3\n        /* \"#utility.yul\":9766:9770   */\n      0x1f\n        /* \"#utility.yul\":9758:9764   */\n      dup4\n        /* \"#utility.yul\":9754:9771   */\n      add\n        /* \"#utility.yul\":9750:9777   */\n      slt\n        /* \"#utility.yul\":9740:9862   */\n      tag_434\n      jumpi\n        /* \"#utility.yul\":9781:9860   */\n      tag_435\n      tag_259\n      jump\t// in\n    tag_435:\n        /* \"#utility.yul\":9740:9862   */\n    tag_434:\n        /* \"#utility.yul\":9898:9904   */\n      dup2\n        /* \"#utility.yul\":9885:9905   */\n      calldataload\n        /* \"#utility.yul\":9923:10017   */\n      tag_436\n        /* \"#utility.yul\":10013:10016   */\n      dup5\n        /* \"#utility.yul\":10005:10011   */\n      dup3\n        /* \"#utility.yul\":9998:10002   */\n      0x20\n        /* \"#utility.yul\":9990:9996   */\n      dup7\n        /* \"#utility.yul\":9986:10003   */\n      add\n        /* \"#utility.yul\":9923:10017   */\n      tag_288\n      jump\t// in\n    tag_436:\n        /* \"#utility.yul\":9914:10017   */\n      swap2\n      pop\n        /* \"#utility.yul\":9730:10023   */\n      pop\n        /* \"#utility.yul\":9653:10023   */\n      swap3\n      swap2\n      pop\n      pop\n      jump\t// out\n        /* \"#utility.yul\":10029:10350   */\n    tag_290:\n        /* \"#utility.yul\":10116:10120   */\n      0x00\n        /* \"#utility.yul\":10206:10224   */\n      0xffffffffffffffff\n        /* \"#utility.yul\":10198:10204   */\n      dup3\n        /* \"#utility.yul\":10195:10225   */\n      gt\n        /* \"#utility.yul\":10192:10248   */\n      iszero\n      tag_438\n      jumpi\n        /* \"#utility.yul\":10228:10246   */\n      tag_439\n      tag_156\n      jump\t// in\n    tag_439:\n        /* \"#utility.yul\":10192:10248   */\n    tag_438:\n        /* \"#utility.yul\":10278:10282   */\n      0x20\n        /* \"#utility.yul\":10270:10276   */\n      dup3\n        /* \"#utility.yul\":10266:10283   */\n      mul\n        /* \"#utility.yul\":10258:10283   */\n      swap1\n      pop\n        /* \"#utility.yul\":10338:10342   */\n      0x20\n        /* \"#utility.yul\":10332:10336   */\n      dup2\n        /* \"#utility.yul\":10328:10343   */\n      add\n        /* \"#utility.yul\":10320:10343   */\n      swap1\n      pop\n        /* \"#utility.yul\":10029:10350   */\n      swap2\n      swap1\n      pop\n      jump\t// out\n        /* \"#utility.yul\":10372:11317   */\n    tag_291:\n        /* \"#utility.yul\":10478:10483   */\n      0x00\n        /* \"#utility.yul\":10503:10594   */\n      tag_441\n        /* \"#utility.yul\":10519:10593   */\n      tag_442\n        /* \"#utility.yul\":10586:10592   */\n      dup5\n        /* \"#utility.yul\":10519:10593   */\n      tag_290\n      jump\t// in\n    tag_442:\n        /* \"#utility.yul\":10503:10594   */\n      tag_263\n      jump\t// in\n    tag_441:\n        /* \"#utility.yul\":10494:10594   */\n      swap1\n      pop\n        /* \"#utility.yul\":10614:10619   */\n      dup1\n        /* \"#utility.yul\":10643:10649   */\n      dup4\n        /* \"#utility.yul\":10636:10641   */\n      dup3\n        /* \"#utility.yul\":10629:10650   */\n      mstore\n        /* \"#utility.yul\":10677:10681   */\n      0x20\n        /* \"#utility.yul\":10670:10675   */\n      dup3\n        /* \"#utility.yul\":10666:10682   */\n      add\n        /* \"#utility.yul\":10659:10682   */\n      swap1\n      pop\n        /* \"#utility.yul\":10730:10734   */\n      0x20\n        /* \"#utility.yul\":10722:10728   */\n      dup5\n        /* \"#utility.yul\":10718:10735   */\n      mul\n        /* \"#utility.yul\":10710:10716   */\n      dup4\n        /* \"#utility.yul\":10706:10736   */\n      add\n        /* \"#utility.yul\":10759:10762   */\n      dup6\n        /* \"#utility.yul\":10751:10757   */\n      dup2\n        /* \"#utility.yul\":10748:10763   */\n      gt\n        /* \"#utility.yul\":10745:10867   */\n      iszero\n      tag_443\n      jumpi\n        /* \"#utility.yul\":10778:10857   */\n      tag_444\n      tag_287\n      jump\t// in\n    tag_444:\n        /* \"#utility.yul\":10745:10867   */\n    tag_443:\n        /* \"#utility.yul\":10893:10899   */\n      dup4\n        /* \"#utility.yul\":10876:11311   */\n    tag_445:\n        /* \"#utility.yul\":10910:10916   */\n      dup2\n        /* \"#utility.yul\":10905:10908   */\n      dup2\n        /* \"#utility.yul\":10902:10917   */\n      lt\n        /* \"#utility.yul\":10876:11311   */\n      iszero\n      tag_447\n      jumpi\n        /* \"#utility.yul\":10999:11002   */\n      dup1\n        /* \"#utility.yul\":10986:11003   */\n      calldataload\n        /* \"#utility.yul\":11035:11053   */\n      0xffffffffffffffff\n        /* \"#utility.yul\":11022:11033   */\n      dup2\n        /* \"#utility.yul\":11019:11054   */\n      gt\n        /* \"#utility.yul\":11016:11138   */\n      iszero\n      tag_448\n      jumpi\n        /* \"#utility.yul\":11057:11136   */\n      tag_449\n      tag_259\n      jump\t// in\n    tag_449:\n        /* \"#utility.yul\":11016:11138   */\n    tag_448:\n        /* \"#utility.yul\":11181:11192   */\n      dup1\n        /* \"#utility.yul\":11173:11179   */\n      dup7\n        /* \"#utility.yul\":11169:11193   */\n      add\n        /* \"#utility.yul\":11219:11266   */\n      tag_450\n        /* \"#utility.yul\":11262:11265   */\n      dup10\n        /* \"#utility.yul\":11250:11260   */\n      dup3\n        /* \"#utility.yul\":11219:11266   */\n      tag_267\n      jump\t// in\n    tag_450:\n        /* \"#utility.yul\":11214:11217   */\n      dup6\n        /* \"#utility.yul\":11207:11267   */\n      mstore\n        /* \"#utility.yul\":11296:11300   */\n      0x20\n        /* \"#utility.yul\":11291:11294   */\n      dup6\n        /* \"#utility.yul\":11287:11301   */\n      add\n        /* \"#utility.yul\":11280:11301   */\n      swap5\n      pop\n        /* \"#utility.yul\":10952:11311   */\n      pop\n      pop\n        /* \"#utility.yul\":10936:10940   */\n      0x20\n        /* \"#utility.yul\":10931:10934   */\n      dup2\n        /* \"#utility.yul\":10927:10941   */\n      add\n        /* \"#utility.yul\":10920:10941   */\n      swap1\n      pop\n        /* \"#utility.yul\":10876:11311   */\n      jump(tag_445)\n    tag_447:\n        /* \"#utility.yul\":10880:10901   */\n      pop\n        /* \"#utility.yul\":10484:11317   */\n      pop\n      pop\n        /* \"#utility.yul\":10372:11317   */\n      swap4\n      swap3\n      pop\n      pop\n      pop\n      jump\t// out\n        /* \"#utility.yul\":11339:11729   */\n    tag_292:\n        /* \"#utility.yul\":11420:11425   */\n      0x00\n        /* \"#utility.yul\":11469:11472   */\n      dup3\n        /* \"#utility.yul\":11462:11466   */\n      0x1f\n        /* \"#utility.yul\":11454:11460   */\n      dup4\n        /* \"#utility.yul\":11450:11467   */\n      add\n        /* \"#utility.yul\":11446:11473   */\n      slt\n        /* \"#utility.yul\":11436:11558   */\n      tag_452\n      jumpi\n        /* \"#utility.yul\":11477:11556   */\n      tag_453\n      tag_259\n      jump\t// in\n    tag_453:\n        /* \"#utility.yul\":11436:11558   */\n    tag_452:\n        /* \"#utility.yul\":11594:11600   */\n      dup2\n        /* \"#utility.yul\":11581:11601   */\n      calldataload\n        /* \"#utility.yul\":11619:11723   */\n      tag_454\n        /* \"#utility.yul\":11719:11722   */\n      dup5\n        /* \"#utility.yul\":11711:11717   */\n      dup3\n        /* \"#utility.yul\":11704:11708   */\n      0x20\n        /* \"#utility.yul\":11696:11702   */\n      dup7\n        /* \"#utility.yul\":11692:11709   */\n      add\n        /* \"#utility.yul\":11619:11723   */\n      tag_291\n      jump\t// in\n    tag_454:\n        /* \"#utility.yul\":11610:11723   */\n      swap2\n      pop\n        /* \"#utility.yul\":11426:11729   */\n      pop\n        /* \"#utility.yul\":11339:11729   */\n      swap3\n      swap2\n      pop\n      pop\n      jump\t// out\n        /* \"#utility.yul\":11735:11857   */\n    tag_293:\n        /* \"#utility.yul\":11808:11832   */\n      tag_456\n        /* \"#utility.yul\":11826:11831   */\n      dup2\n        /* \"#utility.yul\":11808:11832   */\n      tag_272\n      jump\t// in\n    tag_456:\n        /* \"#utility.yul\":11801:11806   */\n      dup2\n        /* \"#utility.yul\":11798:11833   */\n      eq\n        /* \"#utility.yul\":11788:11851   */\n      tag_457\n      jumpi\n        /* \"#utility.yul\":11847:11848   */\n      0x00\n        /* \"#utility.yul\":11844:11845   */\n      dup1\n        /* \"#utility.yul\":11837:11849   */\n      revert\n        /* \"#utility.yul\":11788:11851   */\n    tag_457:\n        /* \"#utility.yul\":11735:11857   */\n      pop\n      jump\t// out\n        /* \"#utility.yul\":11863:12002   */\n    tag_294:\n        /* \"#utility.yul\":11909:11914   */\n      0x00\n        /* \"#utility.yul\":11947:11953   */\n      dup2\n        /* \"#utility.yul\":11934:11954   */\n      calldataload\n        /* \"#utility.yul\":11925:11954   */\n      swap1\n      pop\n        /* \"#utility.yul\":11963:11996   */\n      tag_459\n        /* \"#utility.yul\":11990:11995   */\n      dup2\n        /* \"#utility.yul\":11963:11996   */\n      tag_293\n      jump\t// in\n    tag_459:\n        /* \"#utility.yul\":11863:12002   */\n      swap3\n      swap2\n      pop\n      pop\n      jump\t// out\n        /* \"#utility.yul\":12008:14157   */\n    tag_30:\n        /* \"#utility.yul\":12210:12216   */\n      0x00\n        /* \"#utility.yul\":12218:12224   */\n      dup1\n        /* \"#utility.yul\":12226:12232   */\n      0x00\n        /* \"#utility.yul\":12234:12240   */\n      dup1\n        /* \"#utility.yul\":12242:12248   */\n      0x00\n        /* \"#utility.yul\":12250:12256   */\n      dup1\n        /* \"#utility.yul\":12258:12264   */\n      0x00\n        /* \"#utility.yul\":12266:12272   */\n      dup1\n        /* \"#utility.yul\":12315:12318   */\n      0x0100\n        /* \"#utility.yul\":12303:12312   */\n      dup10\n        /* \"#utility.yul\":12294:12301   */\n      dup12\n        /* \"#utility.yul\":12290:12313   */\n      sub\n        /* \"#utility.yul\":12286:12319   */\n      slt\n        /* \"#utility.yul\":12283:12403   */\n      iszero\n      tag_461\n      jumpi\n        /* \"#utility.yul\":12322:12401   */\n      tag_462\n      tag_257\n      jump\t// in\n    tag_462:\n        /* \"#utility.yul\":12283:12403   */\n    tag_461:\n        /* \"#utility.yul\":12470:12471   */\n      0x00\n        /* \"#utility.yul\":12459:12468   */\n      dup10\n        /* \"#utility.yul\":12455:12472   */\n      add\n        /* \"#utility.yul\":12442:12473   */\n      calldataload\n        /* \"#utility.yul\":12500:12518   */\n      0xffffffffffffffff\n        /* \"#utility.yul\":12492:12498   */\n      dup2\n        /* \"#utility.yul\":12489:12519   */\n      gt\n        /* \"#utility.yul\":12486:12603   */\n      iszero\n      tag_463\n      jumpi\n        /* \"#utility.yul\":12522:12601   */\n      tag_464\n      tag_258\n      jump\t// in\n    tag_464:\n        /* \"#utility.yul\":12486:12603   */\n    tag_463:\n        /* \"#utility.yul\":12627:12705   */\n      tag_465\n        /* \"#utility.yul\":12697:12704   */\n      dup12\n        /* \"#utility.yul\":12688:12694   */\n      dup3\n        /* \"#utility.yul\":12677:12686   */\n      dup13\n        /* \"#utility.yul\":12673:12695   */\n      add\n        /* \"#utility.yul\":12627:12705   */\n      tag_289\n      jump\t// in\n    tag_465:\n        /* \"#utility.yul\":12617:12705   */\n      swap9\n      pop\n        /* \"#utility.yul\":12413:12715   */\n      pop\n        /* \"#utility.yul\":12782:12784   */\n      0x20\n        /* \"#utility.yul\":12771:12780   */\n      dup10\n        /* \"#utility.yul\":12767:12785   */\n      add\n        /* \"#utility.yul\":12754:12786   */\n      calldataload\n        /* \"#utility.yul\":12813:12831   */\n      0xffffffffffffffff\n        /* \"#utility.yul\":12805:12811   */\n      dup2\n        /* \"#utility.yul\":12802:12832   */\n      gt\n        /* \"#utility.yul\":12799:12916   */\n      iszero\n      tag_466\n      jumpi\n        /* \"#utility.yul\":12835:12914   */\n      tag_467\n      tag_258\n      jump\t// in\n    tag_467:\n        /* \"#utility.yul\":12799:12916   */\n    tag_466:\n        /* \"#utility.yul\":12940:13028   */\n      tag_468\n        /* \"#utility.yul\":13020:13027   */\n      dup12\n        /* \"#utility.yul\":13011:13017   */\n      dup3\n        /* \"#utility.yul\":13000:13009   */\n      dup13\n        /* \"#utility.yul\":12996:13018   */\n      add\n        /* \"#utility.yul\":12940:13028   */\n      tag_292\n      jump\t// in\n    tag_468:\n        /* \"#utility.yul\":12930:13028   */\n      swap8\n      pop\n        /* \"#utility.yul\":12725:13038   */\n      pop\n        /* \"#utility.yul\":13105:13107   */\n      0x40\n        /* \"#utility.yul\":13094:13103   */\n      dup10\n        /* \"#utility.yul\":13090:13108   */\n      add\n        /* \"#utility.yul\":13077:13109   */\n      calldataload\n        /* \"#utility.yul\":13136:13154   */\n      0xffffffffffffffff\n        /* \"#utility.yul\":13128:13134   */\n      dup2\n        /* \"#utility.yul\":13125:13155   */\n      gt\n        /* \"#utility.yul\":13122:13239   */\n      iszero\n      tag_469\n      jumpi\n        /* \"#utility.yul\":13158:13237   */\n      tag_470\n      tag_258\n      jump\t// in\n    tag_470:\n        /* \"#utility.yul\":13122:13239   */\n    tag_469:\n        /* \"#utility.yul\":13263:13326   */\n      tag_471\n        /* \"#utility.yul\":13318:13325   */\n      dup12\n        /* \"#utility.yul\":13309:13315   */\n      dup3\n        /* \"#utility.yul\":13298:13307   */\n      dup13\n        /* \"#utility.yul\":13294:13316   */\n      add\n        /* \"#utility.yul\":13263:13326   */\n      tag_267\n      jump\t// in\n    tag_471:\n        /* \"#utility.yul\":13253:13326   */\n      swap7\n      pop\n        /* \"#utility.yul\":13048:13336   */\n      pop\n        /* \"#utility.yul\":13403:13405   */\n      0x60\n        /* \"#utility.yul\":13392:13401   */\n      dup10\n        /* \"#utility.yul\":13388:13406   */\n      add\n        /* \"#utility.yul\":13375:13407   */\n      calldataload\n        /* \"#utility.yul\":13434:13452   */\n      0xffffffffffffffff\n        /* \"#utility.yul\":13426:13432   */\n      dup2\n        /* \"#utility.yul\":13423:13453   */\n      gt\n        /* \"#utility.yul\":13420:13537   */\n      iszero\n      tag_472\n      jumpi\n        /* \"#utility.yul\":13456:13535   */\n      tag_473\n      tag_258\n      jump\t// in\n    tag_473:\n        /* \"#utility.yul\":13420:13537   */\n    tag_472:\n        /* \"#utility.yul\":13561:13624   */\n      tag_474\n        /* \"#utility.yul\":13616:13623   */\n      dup12\n        /* \"#utility.yul\":13607:13613   */\n      dup3\n        /* \"#utility.yul\":13596:13605   */\n      dup13\n        /* \"#utility.yul\":13592:13614   */\n      add\n        /* \"#utility.yul\":13561:13624   */\n      tag_267\n      jump\t// in\n    tag_474:\n        /* \"#utility.yul\":13551:13624   */\n      swap6\n      pop\n        /* \"#utility.yul\":13346:13634   */\n      pop\n        /* \"#utility.yul\":13673:13676   */\n      0x80\n        /* \"#utility.yul\":13700:13753   */\n      tag_475\n        /* \"#utility.yul\":13745:13752   */\n      dup12\n        /* \"#utility.yul\":13736:13742   */\n      dup3\n        /* \"#utility.yul\":13725:13734   */\n      dup13\n        /* \"#utility.yul\":13721:13743   */\n      add\n        /* \"#utility.yul\":13700:13753   */\n      tag_294\n      jump\t// in\n    tag_475:\n        /* \"#utility.yul\":13690:13753   */\n      swap5\n      pop\n        /* \"#utility.yul\":13644:13763   */\n      pop\n        /* \"#utility.yul\":13802:13805   */\n      0xa0\n        /* \"#utility.yul\":13829:13882   */\n      tag_476\n        /* \"#utility.yul\":13874:13881   */\n      dup12\n        /* \"#utility.yul\":13865:13871   */\n      dup3\n        /* \"#utility.yul\":13854:13863   */\n      dup13\n        /* \"#utility.yul\":13850:13872   */\n      add\n        /* \"#utility.yul\":13829:13882   */\n      tag_294\n      jump\t// in\n    tag_476:\n        /* \"#utility.yul\":13819:13882   */\n      swap4\n      pop\n        /* \"#utility.yul\":13773:13892   */\n      pop\n        /* \"#utility.yul\":13931:13934   */\n      0xc0\n        /* \"#utility.yul\":13958:14011   */\n      tag_477\n        /* \"#utility.yul\":14003:14010   */\n      dup12\n        /* \"#utility.yul\":13994:14000   */\n      dup3\n        /* \"#utility.yul\":13983:13992   */\n      dup13\n        /* \"#utility.yul\":13979:14001   */\n      add\n        /* \"#utility.yul\":13958:14011   */\n      tag_294\n      jump\t// in\n    tag_477:\n        /* \"#utility.yul\":13948:14011   */\n      swap3\n      pop\n        /* \"#utility.yul\":13902:14021   */\n      pop\n        /* \"#utility.yul\":14060:14063   */\n      0xe0\n        /* \"#utility.yul\":14087:14140   */\n      tag_478\n        /* \"#utility.yul\":14132:14139   */\n      dup12\n        /* \"#utility.yul\":14123:14129   */\n      dup3\n        /* \"#utility.yul\":14112:14121   */\n      dup13\n        /* \"#utility.yul\":14108:14130   */\n      add\n        /* \"#utility.yul\":14087:14140   */\n      tag_277\n      jump\t// in\n    tag_478:\n        /* \"#utility.yul\":14077:14140   */\n      swap2\n      pop\n        /* \"#utility.yul\":14031:14150   */\n      pop\n        /* \"#utility.yul\":12008:14157   */\n      swap3\n      swap6\n      swap9\n      pop\n      swap3\n      swap6\n      swap9\n      swap1\n      swap4\n      swap7\n      pop\n      jump\t// out\n        /* \"#utility.yul\":14163:14253   */\n    tag_295:\n        /* \"#utility.yul\":14197:14204   */\n      0x00\n        /* \"#utility.yul\":14240:14245   */\n      dup2\n        /* \"#utility.yul\":14233:14246   */\n      iszero\n        /* \"#utility.yul\":14226:14247   */\n      iszero\n        /* \"#utility.yul\":14215:14247   */\n      swap1\n      pop\n        /* \"#utility.yul\":14163:14253   */\n      swap2\n      swap1\n      pop\n      jump\t// out\n        /* \"#utility.yul\":14259:14368   */\n    tag_296:\n        /* \"#utility.yul\":14340:14361   */\n      tag_481\n        /* \"#utility.yul\":14355:14360   */\n      dup2\n        /* \"#utility.yul\":14340:14361   */\n      tag_295\n      jump\t// in\n    tag_481:\n        /* \"#utility.yul\":14335:14338   */\n      dup3\n        /* \"#utility.yul\":14328:14362   */\n      mstore\n        /* \"#utility.yul\":14259:14368   */\n      pop\n      pop\n      jump\t// out\n        /* \"#utility.yul\":14374:14584   */\n    tag_33:\n        /* \"#utility.yul\":14461:14465   */\n      0x00\n        /* \"#utility.yul\":14499:14501   */\n      0x20\n        /* \"#utility.yul\":14488:14497   */\n      dup3\n        /* \"#utility.yul\":14484:14502   */\n      add\n        /* \"#utility.yul\":14476:14502   */\n      swap1\n      pop\n        /* \"#utility.yul\":14512:14577   */\n      tag_483\n        /* \"#utility.yul\":14574:14575   */\n      0x00\n        /* \"#utility.yul\":14563:14572   */\n      dup4\n        /* \"#utility.yul\":14559:14576   */\n      add\n        /* \"#utility.yul\":14550:14556   */\n      dup5\n        /* \"#utility.yul\":14512:14577   */\n      tag_296\n      jump\t// in\n    tag_483:\n        /* \"#utility.yul\":14374:14584   */\n      swap3\n      swap2\n      pop\n      pop\n      jump\t// out\n        /* \"#utility.yul\":14590:15244   */\n    tag_36:\n        /* \"#utility.yul\":14668:14674   */\n      0x00\n        /* \"#utility.yul\":14676:14682   */\n      dup1\n        /* \"#utility.yul\":14725:14727   */\n      0x40\n        /* \"#utility.yul\":14713:14722   */\n      dup4\n        /* \"#utility.yul\":14704:14711   */\n      dup6\n        /* \"#utility.yul\":14700:14723   */\n      sub\n        /* \"#utility.yul\":14696:14728   */\n      slt\n        /* \"#utility.yul\":14693:14812   */\n      iszero\n      tag_485\n      jumpi\n        /* \"#utility.yul\":14731:14810   */\n      tag_486\n      tag_257\n      jump\t// in\n    tag_486:\n        /* \"#utility.yul\":14693:14812   */\n    tag_485:\n        /* \"#utility.yul\":14851:14852   */\n      0x00\n        /* \"#utility.yul\":14876:14929   */\n      tag_487\n        /* \"#utility.yul\":14921:14928   */\n      dup6\n        /* \"#utility.yul\":14912:14918   */\n      dup3\n        /* \"#utility.yul\":14901:14910   */\n      dup7\n        /* \"#utility.yul\":14897:14919   */\n      add\n        /* \"#utility.yul\":14876:14929   */\n      tag_277\n      jump\t// in\n    tag_487:\n        /* \"#utility.yul\":14866:14929   */\n      swap3\n      pop\n        /* \"#utility.yul\":14822:14939   */\n      pop\n        /* \"#utility.yul\":15006:15008   */\n      0x20\n        /* \"#utility.yul\":14995:15004   */\n      dup4\n        /* \"#utility.yul\":14991:15009   */\n      add\n        /* \"#utility.yul\":14978:15010   */\n      calldataload\n        /* \"#utility.yul\":15037:15055   */\n      0xffffffffffffffff\n        /* \"#utility.yul\":15029:15035   */\n      dup2\n        /* \"#utility.yul\":15026:15056   */\n      gt\n        /* \"#utility.yul\":15023:15140   */\n      iszero\n      tag_488\n      jumpi\n        /* \"#utility.yul\":15059:15138   */\n      tag_489\n      tag_258\n      jump\t// in\n    tag_489:\n        /* \"#utility.yul\":15023:15140   */\n    tag_488:\n        /* \"#utility.yul\":15164:15227   */\n      tag_490\n        /* \"#utility.yul\":15219:15226   */\n      dup6\n        /* \"#utility.yul\":15210:15216   */\n      dup3\n        /* \"#utility.yul\":15199:15208   */\n      dup7\n        /* \"#utility.yul\":15195:15217   */\n      add\n        /* \"#utility.yul\":15164:15227   */\n      tag_267\n      jump\t// in\n    tag_490:\n        /* \"#utility.yul\":15154:15227   */\n      swap2\n      pop\n        /* \"#utility.yul\":14949:15237   */\n      pop\n        /* \"#utility.yul\":14590:15244   */\n      swap3\n      pop\n      swap3\n      swap1\n      pop\n      jump\t// out\n        /* \"#utility.yul\":15250:15368   */\n    tag_297:\n        /* \"#utility.yul\":15337:15361   */\n      tag_492\n        /* \"#utility.yul\":15355:15360   */\n      dup2\n        /* \"#utility.yul\":15337:15361   */\n      tag_275\n      jump\t// in\n    tag_492:\n        /* \"#utility.yul\":15332:15335   */\n      dup3\n        /* \"#utility.yul\":15325:15362   */\n      mstore\n        /* \"#utility.yul\":15250:15368   */\n      pop\n      pop\n      jump\t// out\n        /* \"#utility.yul\":15374:15596   */\n    tag_43:\n        /* \"#utility.yul\":15467:15471   */\n      0x00\n        /* \"#utility.yul\":15505:15507   */\n      0x20\n        /* \"#utility.yul\":15494:15503   */\n      dup3\n        /* \"#utility.yul\":15490:15508   */\n      add\n        /* \"#utility.yul\":15482:15508   */\n      swap1\n      pop\n        /* \"#utility.yul\":15518:15589   */\n      tag_494\n        /* \"#utility.yul\":15586:15587   */\n      0x00\n        /* \"#utility.yul\":15575:15584   */\n      dup4\n        /* \"#utility.yul\":15571:15588   */\n      add\n        /* \"#utility.yul\":15562:15568   */\n      dup5\n        /* \"#utility.yul\":15518:15589   */\n      tag_297\n      jump\t// in\n    tag_494:\n        /* \"#utility.yul\":15374:15596   */\n      swap3\n      swap2\n      pop\n      pop\n      jump\t// out\n        /* \"#utility.yul\":15602:16076   */\n    tag_49:\n        /* \"#utility.yul\":15670:15676   */\n      0x00\n        /* \"#utility.yul\":15678:15684   */\n      dup1\n        /* \"#utility.yul\":15727:15729   */\n      0x40\n        /* \"#utility.yul\":15715:15724   */\n      dup4\n        /* \"#utility.yul\":15706:15713   */\n      dup6\n        /* \"#utility.yul\":15702:15725   */\n      sub\n        /* \"#utility.yul\":15698:15730   */\n      slt\n        /* \"#utility.yul\":15695:15814   */\n      iszero\n      tag_496\n      jumpi\n        /* \"#utility.yul\":15733:15812   */\n      tag_497\n      tag_257\n      jump\t// in\n    tag_497:\n        /* \"#utility.yul\":15695:15814   */\n    tag_496:\n        /* \"#utility.yul\":15853:15854   */\n      0x00\n        /* \"#utility.yul\":15878:15931   */\n      tag_498\n        /* \"#utility.yul\":15923:15930   */\n      dup6\n        /* \"#utility.yul\":15914:15920   */\n      dup3\n        /* \"#utility.yul\":15903:15912   */\n      dup7\n        /* \"#utility.yul\":15899:15921   */\n      add\n        /* \"#utility.yul\":15878:15931   */\n      tag_277\n      jump\t// in\n    tag_498:\n        /* \"#utility.yul\":15868:15931   */\n      swap3\n      pop\n        /* \"#utility.yul\":15824:15941   */\n      pop\n        /* \"#utility.yul\":15980:15982   */\n      0x20\n        /* \"#utility.yul\":16006:16059   */\n      tag_499\n        /* \"#utility.yul\":16051:16058   */\n      dup6\n        /* \"#utility.yul\":16042:16048   */\n      dup3\n        /* \"#utility.yul\":16031:16040   */\n      dup7\n        /* \"#utility.yul\":16027:16049   */\n      add\n        /* \"#utility.yul\":16006:16059   */\n      tag_294\n      jump\t// in\n    tag_499:\n        /* \"#utility.yul\":15996:16059   */\n      swap2\n      pop\n        /* \"#utility.yul\":15951:16069   */\n      pop\n        /* \"#utility.yul\":15602:16076   */\n      swap3\n      pop\n      swap3\n      swap1\n      pop\n      jump\t// out\n        /* \"#utility.yul\":16082:16395   */\n    tag_52:\n        /* \"#utility.yul\":16195:16199   */\n      0x00\n        /* \"#utility.yul\":16233:16235   */\n      0x20\n        /* \"#utility.yul\":16222:16231   */\n      dup3\n        /* \"#utility.yul\":16218:16236   */\n      add\n        /* \"#utility.yul\":16210:16236   */\n      swap1\n      pop\n        /* \"#utility.yul\":16282:16291   */\n      dup2\n        /* \"#utility.yul\":16276:16280   */\n      dup2\n        /* \"#utility.yul\":16272:16292   */\n      sub\n        /* \"#utility.yul\":16268:16269   */\n      0x00\n        /* \"#utility.yul\":16257:16266   */\n      dup4\n        /* \"#utility.yul\":16253:16270   */\n      add\n        /* \"#utility.yul\":16246:16293   */\n      mstore\n        /* \"#utility.yul\":16310:16388   */\n      tag_501\n        /* \"#utility.yul\":16383:16387   */\n      dup2\n        /* \"#utility.yul\":16374:16380   */\n      dup5\n        /* \"#utility.yul\":16310:16388   */\n      tag_271\n      jump\t// in\n    tag_501:\n        /* \"#utility.yul\":16302:16388   */\n      swap1\n      pop\n        /* \"#utility.yul\":16082:16395   */\n      swap3\n      swap2\n      pop\n      pop\n      jump\t// out\n        /* \"#utility.yul\":16401:16623   */\n    tag_57:\n        /* \"#utility.yul\":16494:16498   */\n      0x00\n        /* \"#utility.yul\":16532:16534   */\n      0x20\n        /* \"#utility.yul\":16521:16530   */\n      dup3\n        /* \"#utility.yul\":16517:16535   */\n      add\n        /* \"#utility.yul\":16509:16535   */\n      swap1\n      pop\n        /* \"#utility.yul\":16545:16616   */\n      tag_503\n        /* \"#utility.yul\":16613:16614   */\n      0x00\n        /* \"#utility.yul\":16602:16611   */\n      dup4\n        /* \"#utility.yul\":16598:16615   */\n      add\n        /* \"#utility.yul\":16589:16595   */\n      dup5\n        /* \"#utility.yul\":16545:16616   */\n      tag_273\n      jump\t// in\n    tag_503:\n        /* \"#utility.yul\":16401:16623   */\n      swap3\n      swap2\n      pop\n      pop\n      jump\t// out\n        /* \"#utility.yul\":16629:16809   */\n    tag_298:\n        /* \"#utility.yul\":16677:16754   */\n      0x4e487b7100000000000000000000000000000000000000000000000000000000\n        /* \"#utility.yul\":16674:16675   */\n      0x00\n        /* \"#utility.yul\":16667:16755   */\n      mstore\n        /* \"#utility.yul\":16774:16778   */\n      0x22\n        /* \"#utility.yul\":16771:16772   */\n      0x04\n        /* \"#utility.yul\":16764:16779   */\n      mstore\n        /* \"#utility.yul\":16798:16802   */\n      0x24\n        /* \"#utility.yul\":16795:16796   */\n      0x00\n        /* \"#utility.yul\":16788:16803   */\n      revert\n        /* \"#utility.yul\":16815:17135   */\n    tag_70:\n        /* \"#utility.yul\":16859:16865   */\n      0x00\n        /* \"#utility.yul\":16896:16897   */\n      0x02\n        /* \"#utility.yul\":16890:16894   */\n      dup3\n        /* \"#utility.yul\":16886:16898   */\n      div\n        /* \"#utility.yul\":16876:16898   */\n      swap1\n      pop\n        /* \"#utility.yul\":16943:16944   */\n      0x01\n        /* \"#utility.yul\":16937:16941   */\n      dup3\n        /* \"#utility.yul\":16933:16945   */\n      and\n        /* \"#utility.yul\":16964:16982   */\n      dup1\n        /* \"#utility.yul\":16954:17035   */\n      tag_506\n      jumpi\n        /* \"#utility.yul\":17020:17024   */\n      0x7f\n        /* \"#utility.yul\":17012:17018   */\n      dup3\n        /* \"#utility.yul\":17008:17025   */\n      and\n        /* \"#utility.yul\":16998:17025   */\n      swap2\n      pop\n        /* \"#utility.yul\":16954:17035   */\n    tag_506:\n        /* \"#utility.yul\":17082:17084   */\n      0x20\n        /* \"#utility.yul\":17074:17080   */\n      dup3\n        /* \"#utility.yul\":17071:17085   */\n      lt\n        /* \"#utility.yul\":17051:17069   */\n      dup2\n        /* \"#utility.yul\":17048:17086   */\n      sub\n        /* \"#utility.yul\":17045:17129   */\n      tag_507\n      jumpi\n        /* \"#utility.yul\":17101:17119   */\n      tag_508\n      tag_298\n      jump\t// in\n    tag_508:\n        /* \"#utility.yul\":17045:17129   */\n    tag_507:\n        /* \"#utility.yul\":16866:17135   */\n      pop\n        /* \"#utility.yul\":16815:17135   */\n      swap2\n      swap1\n      pop\n      jump\t// out\n        /* \"#utility.yul\":17141:17310   */\n    tag_299:\n        /* \"#utility.yul\":17281:17302   */\n      0x53746f72653a206e6f7420616c6c6f7765642100000000000000000000000000\n        /* \"#utility.yul\":17277:17278   */\n      0x00\n        /* \"#utility.yul\":17269:17275   */\n      dup3\n        /* \"#utility.yul\":17265:17279   */\n      add\n        /* \"#utility.yul\":17258:17303   */\n      mstore\n        /* \"#utility.yul\":17141:17310   */\n      pop\n      jump\t// out\n        /* \"#utility.yul\":17316:17682   */\n    tag_300:\n        /* \"#utility.yul\":17458:17461   */\n      0x00\n        /* \"#utility.yul\":17479:17546   */\n      tag_511\n        /* \"#utility.yul\":17543:17545   */\n      0x13\n        /* \"#utility.yul\":17538:17541   */\n      dup4\n        /* \"#utility.yul\":17479:17546   */\n      tag_269\n      jump\t// in\n    tag_511:\n        /* \"#utility.yul\":17472:17546   */\n      swap2\n      pop\n        /* \"#utility.yul\":17555:17648   */\n      tag_512\n        /* \"#utility.yul\":17644:17647   */\n      dup3\n        /* \"#utility.yul\":17555:17648   */\n      tag_299\n      jump\t// in\n    tag_512:\n        /* \"#utility.yul\":17673:17675   */\n      0x20\n        /* \"#utility.yul\":17668:17671   */\n      dup3\n        /* \"#utility.yul\":17664:17676   */\n      add\n        /* \"#utility.yul\":17657:17676   */\n      swap1\n      pop\n        /* \"#utility.yul\":17316:17682   */\n      swap2\n      swap1\n      pop\n      jump\t// out\n        /* \"#utility.yul\":17688:18107   */\n    tag_85:\n        /* \"#utility.yul\":17854:17858   */\n      0x00\n        /* \"#utility.yul\":17892:17894   */\n      0x20\n        /* \"#utility.yul\":17881:17890   */\n      dup3\n        /* \"#utility.yul\":17877:17895   */\n      add\n        /* \"#utility.yul\":17869:17895   */\n      swap1\n      pop\n        /* \"#utility.yul\":17941:17950   */\n      dup2\n        /* \"#utility.yul\":17935:17939   */\n      dup2\n        /* \"#utility.yul\":17931:17951   */\n      sub\n        /* \"#utility.yul\":17927:17928   */\n      0x00\n        /* \"#utility.yul\":17916:17925   */\n      dup4\n        /* \"#utility.yul\":17912:17929   */\n      add\n        /* \"#utility.yul\":17905:17952   */\n      mstore\n        /* \"#utility.yul\":17969:18100   */\n      tag_514\n        /* \"#utility.yul\":18095:18099   */\n      dup2\n        /* \"#utility.yul\":17969:18100   */\n      tag_300\n      jump\t// in\n    tag_514:\n        /* \"#utility.yul\":17961:18100   */\n      swap1\n      pop\n        /* \"#utility.yul\":17688:18107   */\n      swap2\n      swap1\n      pop\n      jump\t// out\n        /* \"#utility.yul\":18113:18293   */\n    tag_96:\n        /* \"#utility.yul\":18161:18238   */\n      0x4e487b7100000000000000000000000000000000000000000000000000000000\n        /* \"#utility.yul\":18158:18159   */\n      0x00\n        /* \"#utility.yul\":18151:18239   */\n      mstore\n        /* \"#utility.yul\":18258:18262   */\n      0x32\n        /* \"#utility.yul\":18255:18256   */\n      0x04\n        /* \"#utility.yul\":18248:18263   */\n      mstore\n        /* \"#utility.yul\":18282:18286   */\n      0x24\n        /* \"#utility.yul\":18279:18280   */\n      0x00\n        /* \"#utility.yul\":18272:18287   */\n      revert\n        /* \"#utility.yul\":18299:18440   */\n    tag_301:\n        /* \"#utility.yul\":18348:18352   */\n      0x00\n        /* \"#utility.yul\":18371:18374   */\n      dup2\n        /* \"#utility.yul\":18363:18374   */\n      swap1\n      pop\n        /* \"#utility.yul\":18394:18397   */\n      dup2\n        /* \"#utility.yul\":18391:18392   */\n      0x00\n        /* \"#utility.yul\":18384:18398   */\n      mstore\n        /* \"#utility.yul\":18428:18432   */\n      0x20\n        /* \"#utility.yul\":18425:18426   */\n      0x00\n        /* \"#utility.yul\":18415:18433   */\n      keccak256\n        /* \"#utility.yul\":18407:18433   */\n      swap1\n      pop\n        /* \"#utility.yul\":18299:18440   */\n      swap2\n      swap1\n      pop\n      jump\t// out\n        /* \"#utility.yul\":18446:18539   */\n    tag_302:\n        /* \"#utility.yul\":18483:18489   */\n      0x00\n        /* \"#utility.yul\":18530:18532   */\n      0x20\n        /* \"#utility.yul\":18525:18527   */\n      0x1f\n        /* \"#utility.yul\":18518:18523   */\n      dup4\n        /* \"#utility.yul\":18514:18528   */\n      add\n        /* \"#utility.yul\":18510:18533   */\n      div\n        /* \"#utility.yul\":18500:18533   */\n      swap1\n      pop\n        /* \"#utility.yul\":18446:18539   */\n      swap2\n      swap1\n      pop\n      jump\t// out\n        /* \"#utility.yul\":18545:18652   */\n    tag_303:\n        /* \"#utility.yul\":18589:18597   */\n      0x00\n        /* \"#utility.yul\":18639:18644   */\n      dup3\n        /* \"#utility.yul\":18633:18637   */\n      dup3\n        /* \"#utility.yul\":18629:18645   */\n      shl\n        /* \"#utility.yul\":18608:18645   */\n      swap1\n      pop\n        /* \"#utility.yul\":18545:18652   */\n      swap3\n      swap2\n      pop\n      pop\n      jump\t// out\n        /* \"#utility.yul\":18658:19051   */\n    tag_304:\n        /* \"#utility.yul\":18727:18733   */\n      0x00\n        /* \"#utility.yul\":18777:18778   */\n      0x08\n        /* \"#utility.yul\":18765:18775   */\n      dup4\n        /* \"#utility.yul\":18761:18779   */\n      mul\n        /* \"#utility.yul\":18800:18897   */\n      tag_520\n        /* \"#utility.yul\":18830:18896   */\n      0xffffffffffffffffffffffffffffffffffffffffffffffffffffffffffffffff\n        /* \"#utility.yul\":18819:18828   */\n      dup3\n        /* \"#utility.yul\":18800:18897   */\n      tag_303\n      jump\t// in\n    tag_520:\n        /* \"#utility.yul\":18918:18957   */\n      tag_521\n        /* \"#utility.yul\":18948:18956   */\n      dup7\n        /* \"#utility.yul\":18937:18946   */\n      dup4\n        /* \"#utility.yul\":18918:18957   */\n      tag_303\n      jump\t// in\n    tag_521:\n        /* \"#utility.yul\":18906:18957   */\n      swap6\n      pop\n        /* \"#utility.yul\":18990:18994   */\n      dup1\n        /* \"#utility.yul\":18986:18995   */\n      not\n        /* \"#utility.yul\":18979:18984   */\n      dup5\n        /* \"#utility.yul\":18975:18996   */\n      and\n        /* \"#utility.yul\":18966:18996   */\n      swap4\n      pop\n        /* \"#utility.yul\":19039:19043   */\n      dup1\n        /* \"#utility.yul\":19029:19037   */\n      dup7\n        /* \"#utility.yul\":19025:19044   */\n      and\n        /* \"#utility.yul\":19018:19023   */\n      dup5\n        /* \"#utility.yul\":19015:19045   */\n      or\n        /* \"#utility.yul\":19005:19045   */\n      swap3\n      pop\n        /* \"#utility.yul\":18734:19051   */\n      pop\n      pop\n        /* \"#utility.yul\":18658:19051   */\n      swap4\n      swap3\n      pop\n      pop\n      pop\n      jump\t// out\n        /* \"#utility.yul\":19057:19117   */\n    tag_305:\n        /* \"#utility.yul\":19085:19088   */\n      0x00\n        /* \"#utility.yul\":19106:19111   */\n      dup2\n        /* \"#utility.yul\":19099:19111   */\n      swap1\n      pop\n        /* \"#utility.yul\":19057:19117   */\n      swap2\n      swap1\n      pop\n      jump\t// out\n        /* \"#utility.yul\":19123:19265   */\n    tag_306:\n        /* \"#utility.yul\":19173:19182   */\n      0x00\n        /* \"#utility.yul\":19206:19259   */\n      tag_524\n        /* \"#utility.yul\":19224:19258   */\n      tag_525\n        /* \"#utility.yul\":19233:19257   */\n      tag_526\n        /* \"#utility.yul\":19251:19256   */\n      dup5\n        /* \"#utility.yul\":19233:19257   */\n      tag_272\n      jump\t// in\n    tag_526:\n        /* \"#utility.yul\":19224:19258   */\n      tag_305\n      jump\t// in\n    tag_525:\n        /* \"#utility.yul\":19206:19259   */\n      tag_272\n      jump\t// in\n    tag_524:\n        /* \"#utility.yul\":19193:19259   */\n      swap1\n      pop\n        /* \"#utility.yul\":19123:19265   */\n      swap2\n      swap1\n      pop\n      jump\t// out\n        /* \"#utility.yul\":19271:19346   */\n    tag_307:\n        /* \"#utility.yul\":19314:19317   */\n      0x00\n        /* \"#utility.yul\":19335:19340   */\n      dup2\n        /* \"#utility.yul\":19328:19340   */\n      swap1\n      pop\n        /* \"#utility.yul\":19271:19346   */\n      swap2\n      swap1\n      pop\n      jump\t// out\n        /* \"#utility.yul\":19352:19621   */\n    tag_308:\n        /* \"#utility.yul\":19462:19501   */\n      tag_529\n        /* \"#utility.yul\":19493:19500   */\n      dup4\n        /* \"#utility.yul\":19462:19501   */\n      tag_306\n      jump\t// in\n    tag_529:\n        /* \"#utility.yul\":19523:19614   */\n      tag_530\n        /* \"#utility.yul\":19572:19613   */\n      tag_531\n        /* \"#utility.yul\":19596:19612   */\n      dup3\n        /* \"#utility.yul\":19572:19613   */\n      tag_307\n      jump\t// in\n    tag_531:\n        /* \"#utility.yul\":19564:19570   */\n      dup5\n        /* \"#utility.yul\":19557:19561   */\n      dup5\n        /* \"#utility.yul\":19551:19562   */\n      sload\n        /* \"#utility.yul\":19523:19614   */\n      tag_304\n      jump\t// in\n    tag_530:\n        /* \"#utility.yul\":19517:19521   */\n      dup3\n        /* \"#utility.yul\":19510:19615   */\n      sstore\n        /* \"#utility.yul\":19428:19621   */\n      pop\n        /* \"#utility.yul\":19352:19621   */\n      pop\n      pop\n      pop\n      jump\t// out\n        /* \"#utility.yul\":19627:19700   */\n    tag_309:\n        /* \"#utility.yul\":19672:19675   */\n      0x00\n        /* \"#utility.yul\":19627:19700   */\n      swap1\n      jump\t// out\n        /* \"#utility.yul\":19706:19895   */\n    tag_310:\n        /* \"#utility.yul\":19783:19815   */\n      tag_534\n      tag_309\n      jump\t// in\n    tag_534:\n        /* \"#utility.yul\":19824:19889   */\n      tag_535\n        /* \"#utility.yul\":19882:19888   */\n      dup2\n        /* \"#utility.yul\":19874:19880   */\n      dup5\n        /* \"#utility.yul\":19868:19872   */\n      dup5\n        /* \"#utility.yul\":19824:19889   */\n      tag_308\n      jump\t// in\n    tag_535:\n        /* \"#utility.yul\":19759:19895   */\n      pop\n        /* \"#utility.yul\":19706:19895   */\n      pop\n      pop\n      jump\t// out\n        /* \"#utility.yul\":19901:20087   */\n    tag_311:\n        /* \"#utility.yul\":19961:20081   */\n    tag_537:\n        /* \"#utility.yul\":19978:19981   */\n      dup2\n        /* \"#utility.yul\":19971:19976   */\n      dup2\n        /* \"#utility.yul\":19968:19982   */\n      lt\n        /* \"#utility.yul\":19961:20081   */\n      iszero\n      tag_539\n      jumpi\n        /* \"#utility.yul\":20032:20071   */\n      tag_540\n        /* \"#utility.yul\":20069:20070   */\n      0x00\n        /* \"#utility.yul\":20062:20067   */\n      dup3\n        /* \"#utility.yul\":20032:20071   */\n      tag_310\n      jump\t// in\n    tag_540:\n        /* \"#utility.yul\":20005:20006   */\n      0x01\n        /* \"#utility.yul\":19998:20003   */\n      dup2\n        /* \"#utility.yul\":19994:20007   */\n      add\n        /* \"#utility.yul\":19985:20007   */\n      swap1\n      pop\n        /* \"#utility.yul\":19961:20081   */\n      jump(tag_537)\n    tag_539:\n        /* \"#utility.yul\":19901:20087   */\n      pop\n      pop\n      jump\t// out\n        /* \"#utility.yul\":20093:20636   */\n    tag_312:\n        /* \"#utility.yul\":20194:20196   */\n      0x1f\n        /* \"#utility.yul\":20189:20192   */\n      dup3\n        /* \"#utility.yul\":20186:20197   */\n      gt\n        /* \"#utility.yul\":20183:20629   */\n      iszero\n      tag_542\n      jumpi\n        /* \"#utility.yul\":20228:20266   */\n      tag_543\n        /* \"#utility.yul\":20260:20265   */\n      dup2\n        /* \"#utility.yul\":20228:20266   */\n      tag_301\n      jump\t// in\n    tag_543:\n        /* \"#utility.yul\":20312:20341   */\n      tag_544\n        /* \"#utility.yul\":20330:20340   */\n      dup5\n        /* \"#utility.yul\":20312:20341   */\n      tag_302\n      jump\t// in\n    tag_544:\n        /* \"#utility.yul\":20302:20310   */\n      dup2\n        /* \"#utility.yul\":20298:20342   */\n      add\n        /* \"#utility.yul\":20495:20497   */\n      0x20\n        /* \"#utility.yul\":20483:20493   */\n      dup6\n        /* \"#utility.yul\":20480:20498   */\n      lt\n        /* \"#utility.yul\":20477:20526   */\n      iszero\n      tag_545\n      jumpi\n        /* \"#utility.yul\":20516:20524   */\n      dup2\n        /* \"#utility.yul\":20501:20524   */\n      swap1\n      pop\n        /* \"#utility.yul\":20477:20526   */\n    tag_545:\n        /* \"#utility.yul\":20539:20619   */\n      tag_546\n        /* \"#utility.yul\":20595:20617   */\n      tag_547\n        /* \"#utility.yul\":20613:20616   */\n      dup6\n        /* \"#utility.yul\":20595:20617   */\n      tag_302\n      jump\t// in\n    tag_547:\n        /* \"#utility.yul\":20585:20593   */\n      dup4\n        /* \"#utility.yul\":20581:20618   */\n      add\n        /* \"#utility.yul\":20568:20579   */\n      dup3\n        /* \"#utility.yul\":20539:20619   */\n      tag_311\n      jump\t// in\n    tag_546:\n        /* \"#utility.yul\":20198:20629   */\n      pop\n      pop\n        /* \"#utility.yul\":20183:20629   */\n    tag_542:\n        /* \"#utility.yul\":20093:20636   */\n      pop\n      pop\n      pop\n      jump\t// out\n        /* \"#utility.yul\":20642:20759   */\n    tag_313:\n        /* \"#utility.yul\":20696:20704   */\n      0x00\n        /* \"#utility.yul\":20746:20751   */\n      dup3\n        /* \"#utility.yul\":20740:20744   */\n      dup3\n        /* \"#utility.yul\":20736:20752   */\n      shr\n        /* \"#utility.yul\":20715:20752   */\n      swap1\n      pop\n        /* \"#utility.yul\":20642:20759   */\n      swap3\n      swap2\n      pop\n      pop\n      jump\t// out\n        /* \"#utility.yul\":20765:20934   */\n    tag_314:\n        /* \"#utility.yul\":20809:20815   */\n      0x00\n        /* \"#utility.yul\":20842:20893   */\n      tag_550\n        /* \"#utility.yul\":20890:20891   */\n      0x00\n        /* \"#utility.yul\":20886:20892   */\n      not\n        /* \"#utility.yul\":20878:20883   */\n      dup5\n        /* \"#utility.yul\":20875:20876   */\n      0x08\n        /* \"#utility.yul\":20871:20884   */\n      mul\n        /* \"#utility.yul\":20842:20893   */\n      tag_313\n      jump\t// in\n    tag_550:\n        /* \"#utility.yul\":20838:20894   */\n      not\n        /* \"#utility.yul\":20923:20927   */\n      dup1\n        /* \"#utility.yul\":20917:20921   */\n      dup4\n        /* \"#utility.yul\":20913:20928   */\n      and\n        /* \"#utility.yul\":20903:20928   */\n      swap2\n      pop\n        /* \"#utility.yul\":20816:20934   */\n      pop\n        /* \"#utility.yul\":20765:20934   */\n      swap3\n      swap2\n      pop\n      pop\n      jump\t// out\n        /* \"#utility.yul\":20939:21234   */\n    tag_315:\n        /* \"#utility.yul\":21015:21019   */\n      0x00\n        /* \"#utility.yul\":21161:21190   */\n      tag_552\n        /* \"#utility.yul\":21186:21189   */\n      dup4\n        /* \"#utility.yul\":21180:21184   */\n      dup4\n        /* \"#utility.yul\":21161:21190   */\n      tag_314\n      jump\t// in\n    tag_552:\n        /* \"#utility.yul\":21153:21190   */\n      swap2\n      pop\n        /* \"#utility.yul\":21223:21226   */\n      dup3\n        /* \"#utility.yul\":21220:21221   */\n      0x02\n        /* \"#utility.yul\":21216:21227   */\n      mul\n        /* \"#utility.yul\":21210:21214   */\n      dup3\n        /* \"#utility.yul\":21207:21228   */\n      or\n        /* \"#utility.yul\":21199:21228   */\n      swap1\n      pop\n        /* \"#utility.yul\":20939:21234   */\n      swap3\n      swap2\n      pop\n      pop\n      jump\t// out\n        /* \"#utility.yul\":21239:22634   */\n    tag_102:\n        /* \"#utility.yul\":21356:21393   */\n      tag_554\n        /* \"#utility.yul\":21389:21392   */\n      dup3\n        /* \"#utility.yul\":21356:21393   */\n      tag_268\n      jump\t// in\n    tag_554:\n        /* \"#utility.yul\":21458:21476   */\n      0xffffffffffffffff\n        /* \"#utility.yul\":21450:21456   */\n      dup2\n        /* \"#utility.yul\":21447:21477   */\n      gt\n        /* \"#utility.yul\":21444:21500   */\n      iszero\n      tag_555\n      jumpi\n        /* \"#utility.yul\":21480:21498   */\n      tag_556\n      tag_156\n      jump\t// in\n    tag_556:\n        /* \"#utility.yul\":21444:21500   */\n    tag_555:\n        /* \"#utility.yul\":21524:21562   */\n      tag_557\n        /* \"#utility.yul\":21556:21560   */\n      dup3\n        /* \"#utility.yul\":21550:21561   */\n      sload\n        /* \"#utility.yul\":21524:21562   */\n      tag_70\n      jump\t// in\n    tag_557:\n        /* \"#utility.yul\":21609:21676   */\n      tag_558\n        /* \"#utility.yul\":21669:21675   */\n      dup3\n        /* \"#utility.yul\":21661:21667   */\n      dup3\n        /* \"#utility.yul\":21655:21659   */\n      dup6\n        /* \"#utility.yul\":21609:21676   */\n      tag_312\n      jump\t// in\n    tag_558:\n        /* \"#utility.yul\":21703:21704   */\n      0x00\n        /* \"#utility.yul\":21727:21731   */\n      0x20\n        /* \"#utility.yul\":21714:21731   */\n      swap1\n      pop\n        /* \"#utility.yul\":21759:21761   */\n      0x1f\n        /* \"#utility.yul\":21751:21757   */\n      dup4\n        /* \"#utility.yul\":21748:21762   */\n      gt\n        /* \"#utility.yul\":21776:21777   */\n      0x01\n        /* \"#utility.yul\":21771:22389   */\n      dup2\n      eq\n      tag_560\n      jumpi\n        /* \"#utility.yul\":22433:22434   */\n      0x00\n        /* \"#utility.yul\":22450:22456   */\n      dup5\n        /* \"#utility.yul\":22447:22524   */\n      iszero\n      tag_561\n      jumpi\n        /* \"#utility.yul\":22499:22508   */\n      dup3\n        /* \"#utility.yul\":22494:22497   */\n      dup8\n        /* \"#utility.yul\":22490:22509   */\n      add\n        /* \"#utility.yul\":22484:22510   */\n      mload\n        /* \"#utility.yul\":22475:22510   */\n      swap1\n      pop\n        /* \"#utility.yul\":22447:22524   */\n    tag_561:\n        /* \"#utility.yul\":22550:22617   */\n      tag_562\n        /* \"#utility.yul\":22610:22616   */\n      dup6\n        /* \"#utility.yul\":22603:22608   */\n      dup3\n        /* \"#utility.yul\":22550:22617   */\n      tag_315\n      jump\t// in\n    tag_562:\n        /* \"#utility.yul\":22544:22548   */\n      dup7\n        /* \"#utility.yul\":22537:22618   */\n      sstore\n        /* \"#utility.yul\":22406:22628   */\n      pop\n        /* \"#utility.yul\":21741:22628   */\n      jump(tag_559)\n        /* \"#utility.yul\":21771:22389   */\n    tag_560:\n        /* \"#utility.yul\":21823:21827   */\n      0x1f\n        /* \"#utility.yul\":21819:21828   */\n      not\n        /* \"#utility.yul\":21811:21817   */\n      dup5\n        /* \"#utility.yul\":21807:21829   */\n      and\n        /* \"#utility.yul\":21857:21894   */\n      tag_563\n        /* \"#utility.yul\":21889:21893   */\n      dup7\n        /* \"#utility.yul\":21857:21894   */\n      tag_301\n      jump\t// in\n    tag_563:\n        /* \"#utility.yul\":21916:21917   */\n      0x00\n        /* \"#utility.yul\":21930:22138   */\n    tag_564:\n        /* \"#utility.yul\":21944:21951   */\n      dup3\n        /* \"#utility.yul\":21941:21942   */\n      dup2\n        /* \"#utility.yul\":21938:21952   */\n      lt\n        /* \"#utility.yul\":21930:22138   */\n      iszero\n      tag_566\n      jumpi\n        /* \"#utility.yul\":22023:22032   */\n      dup5\n        /* \"#utility.yul\":22018:22021   */\n      dup10\n        /* \"#utility.yul\":22014:22033   */\n      add\n        /* \"#utility.yul\":22008:22034   */\n      mload\n        /* \"#utility.yul\":22000:22006   */\n      dup3\n        /* \"#utility.yul\":21993:22035   */\n      sstore\n        /* \"#utility.yul\":22074:22075   */\n      0x01\n        /* \"#utility.yul\":22066:22072   */\n      dup3\n        /* \"#utility.yul\":22062:22076   */\n      add\n        /* \"#utility.yul\":22052:22076   */\n      swap2\n      pop\n        /* \"#utility.yul\":22121:22123   */\n      0x20\n        /* \"#utility.yul\":22110:22119   */\n      dup6\n        /* \"#utility.yul\":22106:22124   */\n      add\n        /* \"#utility.yul\":22093:22124   */\n      swap5\n      pop\n        /* \"#utility.yul\":21967:21971   */\n      0x20\n        /* \"#utility.yul\":21964:21965   */\n      dup2\n        /* \"#utility.yul\":21960:21972   */\n      add\n        /* \"#utility.yul\":21955:21972   */\n      swap1\n      pop\n        /* \"#utility.yul\":21930:22138   */\n      jump(tag_564)\n    tag_566:\n        /* \"#utility.yul\":22166:22172   */\n      dup7\n        /* \"#utility.yul\":22157:22164   */\n      dup4\n        /* \"#utility.yul\":22154:22173   */\n      lt\n        /* \"#utility.yul\":22151:22330   */\n      iszero\n      tag_567\n      jumpi\n        /* \"#utility.yul\":22224:22233   */\n      dup5\n        /* \"#utility.yul\":22219:22222   */\n      dup10\n        /* \"#utility.yul\":22215:22234   */\n      add\n        /* \"#utility.yul\":22209:22235   */\n      mload\n        /* \"#utility.yul\":22267:22315   */\n      tag_568\n        /* \"#utility.yul\":22309:22313   */\n      0x1f\n        /* \"#utility.yul\":22301:22307   */\n      dup10\n        /* \"#utility.yul\":22297:22314   */\n      and\n        /* \"#utility.yul\":22286:22295   */\n      dup3\n        /* \"#utility.yul\":22267:22315   */\n      tag_314\n      jump\t// in\n    tag_568:\n        /* \"#utility.yul\":22259:22265   */\n      dup4\n        /* \"#utility.yul\":22252:22316   */\n      sstore\n        /* \"#utility.yul\":22174:22330   */\n      pop\n        /* \"#utility.yul\":22151:22330   */\n    tag_567:\n        /* \"#utility.yul\":22376:22377   */\n      0x01\n        /* \"#utility.yul\":22372:22373   */\n      0x02\n        /* \"#utility.yul\":22364:22370   */\n      dup9\n        /* \"#utility.yul\":22360:22374   */\n      mul\n        /* \"#utility.yul\":22356:22378   */\n      add\n        /* \"#utility.yul\":22350:22354   */\n      dup9\n        /* \"#utility.yul\":22343:22379   */\n      sstore\n        /* \"#utility.yul\":21778:22389   */\n      pop\n      pop\n      pop\n        /* \"#utility.yul\":21741:22628   */\n    tag_559:\n      pop\n        /* \"#utility.yul\":21331:22634   */\n      pop\n      pop\n      pop\n        /* \"#utility.yul\":21239:22634   */\n      pop\n      pop\n      jump\t// out\n        /* \"#utility.yul\":22640:22788   */\n    tag_316:\n        /* \"#utility.yul\":22742:22753   */\n      0x00\n        /* \"#utility.yul\":22779:22782   */\n      dup2\n        /* \"#utility.yul\":22764:22782   */\n      swap1\n      pop\n        /* \"#utility.yul\":22640:22788   */\n      swap3\n      swap2\n      pop\n      pop\n      jump\t// out\n        /* \"#utility.yul\":22794:23184   */\n    tag_317:\n        /* \"#utility.yul\":22900:22903   */\n      0x00\n        /* \"#utility.yul\":22928:22967   */\n      tag_571\n        /* \"#utility.yul\":22961:22966   */\n      dup3\n        /* \"#utility.yul\":22928:22967   */\n      tag_268\n      jump\t// in\n    tag_571:\n        /* \"#utility.yul\":22983:23072   */\n      tag_572\n        /* \"#utility.yul\":23065:23071   */\n      dup2\n        /* \"#utility.yul\":23060:23063   */\n      dup6\n        /* \"#utility.yul\":22983:23072   */\n      tag_316\n      jump\t// in\n    tag_572:\n        /* \"#utility.yul\":22976:23072   */\n      swap4\n      pop\n        /* \"#utility.yul\":23081:23146   */\n      tag_573\n        /* \"#utility.yul\":23139:23145   */\n      dup2\n        /* \"#utility.yul\":23134:23137   */\n      dup6\n        /* \"#utility.yul\":23127:23131   */\n      0x20\n        /* \"#utility.yul\":23120:23125   */\n      dup7\n        /* \"#utility.yul\":23116:23132   */\n      add\n        /* \"#utility.yul\":23081:23146   */\n      tag_270\n      jump\t// in\n    tag_573:\n        /* \"#utility.yul\":23171:23177   */\n      dup1\n        /* \"#utility.yul\":23166:23169   */\n      dup5\n        /* \"#utility.yul\":23162:23178   */\n      add\n        /* \"#utility.yul\":23155:23178   */\n      swap2\n      pop\n        /* \"#utility.yul\":22904:23184   */\n      pop\n        /* \"#utility.yul\":22794:23184   */\n      swap3\n      swap2\n      pop\n      pop\n      jump\t// out\n        /* \"#utility.yul\":23190:23465   */\n    tag_104:\n        /* \"#utility.yul\":23322:23325   */\n      0x00\n        /* \"#utility.yul\":23344:23439   */\n      tag_575\n        /* \"#utility.yul\":23435:23438   */\n      dup3\n        /* \"#utility.yul\":23426:23432   */\n      dup5\n        /* \"#utility.yul\":23344:23439   */\n      tag_317\n      jump\t// in\n    tag_575:\n        /* \"#utility.yul\":23337:23439   */\n      swap2\n      pop\n        /* \"#utility.yul\":23456:23459   */\n      dup2\n        /* \"#utility.yul\":23449:23459   */\n      swap1\n      pop\n        /* \"#utility.yul\":23190:23465   */\n      swap3\n      swap2\n      pop\n      pop\n      jump\t// out\n        /* \"#utility.yul\":23471:23985   */\n    tag_112:\n        /* \"#utility.yul\":23632:23636   */\n      0x00\n        /* \"#utility.yul\":23670:23672   */\n      0x40\n        /* \"#utility.yul\":23659:23668   */\n      dup3\n        /* \"#utility.yul\":23655:23673   */\n      add\n        /* \"#utility.yul\":23647:23673   */\n      swap1\n      pop\n        /* \"#utility.yul\":23719:23728   */\n      dup2\n        /* \"#utility.yul\":23713:23717   */\n      dup2\n        /* \"#utility.yul\":23709:23729   */\n      sub\n        /* \"#utility.yul\":23705:23706   */\n      0x00\n        /* \"#utility.yul\":23694:23703   */\n      dup4\n        /* \"#utility.yul\":23690:23707   */\n      add\n        /* \"#utility.yul\":23683:23730   */\n      mstore\n        /* \"#utility.yul\":23747:23825   */\n      tag_577\n        /* \"#utility.yul\":23820:23824   */\n      dup2\n        /* \"#utility.yul\":23811:23817   */\n      dup6\n        /* \"#utility.yul\":23747:23825   */\n      tag_271\n      jump\t// in\n    tag_577:\n        /* \"#utility.yul\":23739:23825   */\n      swap1\n      pop\n        /* \"#utility.yul\":23872:23881   */\n      dup2\n        /* \"#utility.yul\":23866:23870   */\n      dup2\n        /* \"#utility.yul\":23862:23882   */\n      sub\n        /* \"#utility.yul\":23857:23859   */\n      0x20\n        /* \"#utility.yul\":23846:23855   */\n      dup4\n        /* \"#utility.yul\":23842:23860   */\n      add\n        /* \"#utility.yul\":23835:23883   */\n      mstore\n        /* \"#utility.yul\":23900:23978   */\n      tag_578\n        /* \"#utility.yul\":23973:23977   */\n      dup2\n        /* \"#utility.yul\":23964:23970   */\n      dup5\n        /* \"#utility.yul\":23900:23978   */\n      tag_271\n      jump\t// in\n    tag_578:\n        /* \"#utility.yul\":23892:23978   */\n      swap1\n      pop\n        /* \"#utility.yul\":23471:23985   */\n      swap4\n      swap3\n      pop\n      pop\n      pop\n      jump\t// out\n        /* \"#utility.yul\":23991:24216   */\n    tag_318:\n        /* \"#utility.yul\":24131:24165   */\n      0x4f776e61626c653a206e6577206f776e657220697320746865207a65726f2061\n        /* \"#utility.yul\":24127:24128   */\n      0x00\n        /* \"#utility.yul\":24119:24125   */\n      dup3\n        /* \"#utility.yul\":24115:24129   */\n      add\n        /* \"#utility.yul\":24108:24166   */\n      mstore\n        /* \"#utility.yul\":24200:24208   */\n      0x6464726573730000000000000000000000000000000000000000000000000000\n        /* \"#utility.yul\":24195:24197   */\n      0x20\n        /* \"#utility.yul\":24187:24193   */\n      dup3\n        /* \"#utility.yul\":24183:24198   */\n      add\n        /* \"#utility.yul\":24176:24209   */\n      mstore\n        /* \"#utility.yul\":23991:24216   */\n      pop\n      jump\t// out\n        /* \"#utility.yul\":24222:24588   */\n    tag_319:\n        /* \"#utility.yul\":24364:24367   */\n      0x00\n        /* \"#utility.yul\":24385:24452   */\n      tag_581\n        /* \"#utility.yul\":24449:24451   */\n      0x26\n        /* \"#utility.yul\":24444:24447   */\n      dup4\n        /* \"#utility.yul\":24385:24452   */\n      tag_269\n      jump\t// in\n    tag_581:\n        /* \"#utility.yul\":24378:24452   */\n      swap2\n      pop\n        /* \"#utility.yul\":24461:24554   */\n      tag_582\n        /* \"#utility.yul\":24550:24553   */\n      dup3\n        /* \"#utility.yul\":24461:24554   */\n      tag_318\n      jump\t// in\n    tag_582:\n        /* \"#utility.yul\":24579:24581   */\n      0x40\n        /* \"#utility.yul\":24574:24577   */\n      dup3\n        /* \"#utility.yul\":24570:24582   */\n      add\n        /* \"#utility.yul\":24563:24582   */\n      swap1\n      pop\n        /* \"#utility.yul\":24222:24588   */\n      swap2\n      swap1\n      pop\n      jump\t// out\n        /* \"#utility.yul\":24594:25013   */\n    tag_146:\n        /* \"#utility.yul\":24760:24764   */\n      0x00\n        /* \"#utility.yul\":24798:24800   */\n      0x20\n        /* \"#utility.yul\":24787:24796   */\n      dup3\n        /* \"#utility.yul\":24783:24801   */\n      add\n        /* \"#utility.yul\":24775:24801   */\n      swap1\n      pop\n        /* \"#utility.yul\":24847:24856   */\n      dup2\n        /* \"#utility.yul\":24841:24845   */\n      dup2\n        /* \"#utility.yul\":24837:24857   */\n      sub\n        /* \"#utility.yul\":24833:24834   */\n      0x00\n        /* \"#utility.yul\":24822:24831   */\n      dup4\n        /* \"#utility.yul\":24818:24835   */\n      add\n        /* \"#utility.yul\":24811:24858   */\n      mstore\n        /* \"#utility.yul\":24875:25006   */\n      tag_584\n        /* \"#utility.yul\":25001:25005   */\n      dup2\n        /* \"#utility.yul\":24875:25006   */\n      tag_319\n      jump\t// in\n    tag_584:\n        /* \"#utility.yul\":24867:25006   */\n      swap1\n      pop\n        /* \"#utility.yul\":24594:25013   */\n      swap2\n      swap1\n      pop\n      jump\t// out\n        /* \"#utility.yul\":25019:25199   */\n    tag_320:\n        /* \"#utility.yul\":25067:25144   */\n      0x4e487b7100000000000000000000000000000000000000000000000000000000\n        /* \"#utility.yul\":25064:25065   */\n      0x00\n        /* \"#utility.yul\":25057:25145   */\n      mstore\n        /* \"#utility.yul\":25164:25168   */\n      0x11\n        /* \"#utility.yul\":25161:25162   */\n      0x04\n        /* \"#utility.yul\":25154:25169   */\n      mstore\n        /* \"#utility.yul\":25188:25192   */\n      0x24\n        /* \"#utility.yul\":25185:25186   */\n      0x00\n        /* \"#utility.yul\":25178:25193   */\n      revert\n        /* \"#utility.yul\":25205:25396   */\n    tag_151:\n        /* \"#utility.yul\":25245:25248   */\n      0x00\n        /* \"#utility.yul\":25264:25284   */\n      tag_587\n        /* \"#utility.yul\":25282:25283   */\n      dup3\n        /* \"#utility.yul\":25264:25284   */\n      tag_272\n      jump\t// in\n    tag_587:\n        /* \"#utility.yul\":25259:25284   */\n      swap2\n      pop\n        /* \"#utility.yul\":25298:25318   */\n      tag_588\n        /* \"#utility.yul\":25316:25317   */\n      dup4\n        /* \"#utility.yul\":25298:25318   */\n      tag_272\n      jump\t// in\n    tag_588:\n        /* \"#utility.yul\":25293:25318   */\n      swap3\n      pop\n        /* \"#utility.yul\":25341:25342   */\n      dup3\n        /* \"#utility.yul\":25338:25339   */\n      dup3\n        /* \"#utility.yul\":25334:25343   */\n      add\n        /* \"#utility.yul\":25327:25343   */\n      swap1\n      pop\n        /* \"#utility.yul\":25362:25365   */\n      dup1\n        /* \"#utility.yul\":25359:25360   */\n      dup3\n        /* \"#utility.yul\":25356:25366   */\n      gt\n        /* \"#utility.yul\":25353:25389   */\n      iszero\n      tag_589\n      jumpi\n        /* \"#utility.yul\":25369:25387   */\n      tag_590\n      tag_320\n      jump\t// in\n    tag_590:\n        /* \"#utility.yul\":25353:25389   */\n    tag_589:\n        /* \"#utility.yul\":25205:25396   */\n      swap3\n      swap2\n      pop\n      pop\n      jump\t// out\n        /* \"#utility.yul\":25402:25596   */\n    tag_160:\n        /* \"#utility.yul\":25442:25446   */\n      0x00\n        /* \"#utility.yul\":25462:25482   */\n      tag_592\n        /* \"#utility.yul\":25480:25481   */\n      dup3\n        /* \"#utility.yul\":25462:25482   */\n      tag_272\n      jump\t// in\n    tag_592:\n        /* \"#utility.yul\":25457:25482   */\n      swap2\n      pop\n        /* \"#utility.yul\":25496:25516   */\n      tag_593\n        /* \"#utility.yul\":25514:25515   */\n      dup4\n        /* \"#utility.yul\":25496:25516   */\n      tag_272\n      jump\t// in\n    tag_593:\n        /* \"#utility.yul\":25491:25516   */\n      swap3\n      pop\n        /* \"#utility.yul\":25540:25541   */\n      dup3\n        /* \"#utility.yul\":25537:25538   */\n      dup3\n        /* \"#utility.yul\":25533:25542   */\n      sub\n        /* \"#utility.yul\":25525:25542   */\n      swap1\n      pop\n        /* \"#utility.yul\":25564:25565   */\n      dup2\n        /* \"#utility.yul\":25558:25562   */\n      dup2\n        /* \"#utility.yul\":25555:25566   */\n      gt\n        /* \"#utility.yul\":25552:25589   */\n      iszero\n      tag_594\n      jumpi\n        /* \"#utility.yul\":25569:25587   */\n      tag_595\n      tag_320\n      jump\t// in\n    tag_595:\n        /* \"#utility.yul\":25552:25589   */\n    tag_594:\n        /* \"#utility.yul\":25402:25596   */\n      swap3\n      swap2\n      pop\n      pop\n      jump\t// out\n        /* \"#utility.yul\":25602:25783   */\n    tag_321:\n        /* \"#utility.yul\":25742:25775   */\n      0x5265656e7472616e637947756172643a207265656e7472616e742063616c6c00\n        /* \"#utility.yul\":25738:25739   */\n      0x00\n        /* \"#utility.yul\":25730:25736   */\n      dup3\n        /* \"#utility.yul\":25726:25740   */\n      add\n        /* \"#utility.yul\":25719:25776   */\n      mstore\n        /* \"#utility.yul\":25602:25783   */\n      pop\n      jump\t// out\n        /* \"#utility.yul\":25789:26155   */\n    tag_322:\n        /* \"#utility.yul\":25931:25934   */\n      0x00\n        /* \"#utility.yul\":25952:26019   */\n      tag_598\n        /* \"#utility.yul\":26016:26018   */\n      0x1f\n        /* \"#utility.yul\":26011:26014   */\n      dup4\n        /* \"#utility.yul\":25952:26019   */\n      tag_269\n      jump\t// in\n    tag_598:\n        /* \"#utility.yul\":25945:26019   */\n      swap2\n      pop\n        /* \"#utility.yul\":26028:26121   */\n      tag_599\n        /* \"#utility.yul\":26117:26120   */\n      dup3\n        /* \"#utility.yul\":26028:26121   */\n      tag_321\n      jump\t// in\n    tag_599:\n        /* \"#utility.yul\":26146:26148   */\n      0x20\n        /* \"#utility.yul\":26141:26144   */\n      dup3\n        /* \"#utility.yul\":26137:26149   */\n      add\n        /* \"#utility.yul\":26130:26149   */\n      swap1\n      pop\n        /* \"#utility.yul\":25789:26155   */\n      swap2\n      swap1\n      pop\n      jump\t// out\n        /* \"#utility.yul\":26161:26580   */\n    tag_183:\n        /* \"#utility.yul\":26327:26331   */\n      0x00\n        /* \"#utility.yul\":26365:26367   */\n      0x20\n        /* \"#utility.yul\":26354:26363   */\n      dup3\n        /* \"#utility.yul\":26350:26368   */\n      add\n        /* \"#utility.yul\":26342:26368   */\n      swap1\n      pop\n        /* \"#utility.yul\":26414:26423   */\n      dup2\n        /* \"#utility.yul\":26408:26412   */\n      dup2\n        /* \"#utility.yul\":26404:26424   */\n      sub\n        /* \"#utility.yul\":26400:26401   */\n      0x00\n        /* \"#utility.yul\":26389:26398   */\n      dup4\n        /* \"#utility.yul\":26385:26402   */\n      add\n        /* \"#utility.yul\":26378:26425   */\n      mstore\n        /* \"#utility.yul\":26442:26573   */\n      tag_601\n        /* \"#utility.yul\":26568:26572   */\n      dup2\n        /* \"#utility.yul\":26442:26573   */\n      tag_322\n      jump\t// in\n    tag_601:\n        /* \"#utility.yul\":26434:26573   */\n      swap1\n      pop\n        /* \"#utility.yul\":26161:26580   */\n      swap2\n      swap1\n      pop\n      jump\t// out\n        /* \"#utility.yul\":26586:26755   */\n    tag_323:\n        /* \"#utility.yul\":26726:26747   */\n      0x456c656d656e74206e6f7420696e207365742100000000000000000000000000\n        /* \"#utility.yul\":26722:26723   */\n      0x00\n        /* \"#utility.yul\":26714:26720   */\n      dup3\n        /* \"#utility.yul\":26710:26724   */\n      add\n        /* \"#utility.yul\":26703:26748   */\n      mstore\n        /* \"#utility.yul\":26586:26755   */\n      pop\n      jump\t// out\n        /* \"#utility.yul\":26761:27127   */\n    tag_324:\n        /* \"#utility.yul\":26903:26906   */\n      0x00\n        /* \"#utility.yul\":26924:26991   */\n      tag_604\n        /* \"#utility.yul\":26988:26990   */\n      0x13\n        /* \"#utility.yul\":26983:26986   */\n      dup4\n        /* \"#utility.yul\":26924:26991   */\n      tag_269\n      jump\t// in\n    tag_604:\n        /* \"#utility.yul\":26917:26991   */\n      swap2\n      pop\n        /* \"#utility.yul\":27000:27093   */\n      tag_605\n        /* \"#utility.yul\":27089:27092   */\n      dup3\n        /* \"#utility.yul\":27000:27093   */\n      tag_323\n      jump\t// in\n    tag_605:\n        /* \"#utility.yul\":27118:27120   */\n      0x20\n        /* \"#utility.yul\":27113:27116   */\n      dup3\n        /* \"#utility.yul\":27109:27121   */\n      add\n        /* \"#utility.yul\":27102:27121   */\n      swap1\n      pop\n        /* \"#utility.yul\":26761:27127   */\n      swap2\n      swap1\n      pop\n      jump\t// out\n        /* \"#utility.yul\":27133:27552   */\n    tag_196:\n        /* \"#utility.yul\":27299:27303   */\n      0x00\n        /* \"#utility.yul\":27337:27339   */\n      0x20\n        /* \"#utility.yul\":27326:27335   */\n      dup3\n        /* \"#utility.yul\":27322:27340   */\n      add\n        /* \"#utility.yul\":27314:27340   */\n      swap1\n      pop\n        /* \"#utility.yul\":27386:27395   */\n      dup2\n        /* \"#utility.yul\":27380:27384   */\n      dup2\n        /* \"#utility.yul\":27376:27396   */\n      sub\n        /* \"#utility.yul\":27372:27373   */\n      0x00\n        /* \"#utility.yul\":27361:27370   */\n      dup4\n        /* \"#utility.yul\":27357:27374   */\n      add\n        /* \"#utility.yul\":27350:27397   */\n      mstore\n        /* \"#utility.yul\":27414:27545   */\n      tag_607\n        /* \"#utility.yul\":27540:27544   */\n      dup2\n        /* \"#utility.yul\":27414:27545   */\n      tag_324\n      jump\t// in\n    tag_607:\n        /* \"#utility.yul\":27406:27545   */\n      swap1\n      pop\n        /* \"#utility.yul\":27133:27552   */\n      swap2\n      swap1\n      pop\n      jump\t// out\n        /* \"#utility.yul\":27558:27738   */\n    tag_215:\n        /* \"#utility.yul\":27606:27683   */\n      0x4e487b7100000000000000000000000000000000000000000000000000000000\n        /* \"#utility.yul\":27603:27604   */\n      0x00\n        /* \"#utility.yul\":27596:27684   */\n      mstore\n        /* \"#utility.yul\":27703:27707   */\n      0x31\n        /* \"#utility.yul\":27700:27701   */\n      0x04\n        /* \"#utility.yul\":27693:27708   */\n      mstore\n        /* \"#utility.yul\":27727:27731   */\n      0x24\n        /* \"#utility.yul\":27724:27725   */\n      0x00\n        /* \"#utility.yul\":27717:27732   */\n      revert\n        /* \"#utility.yul\":27744:27926   */\n    tag_325:\n        /* \"#utility.yul\":27884:27918   */\n      0x4f776e61626c653a2063616c6c6572206973206e6f7420746865206f776e6572\n        /* \"#utility.yul\":27880:27881   */\n      0x00\n        /* \"#utility.yul\":27872:27878   */\n      dup3\n        /* \"#utility.yul\":27868:27882   */\n      add\n        /* \"#utility.yul\":27861:27919   */\n      mstore\n        /* \"#utility.yul\":27744:27926   */\n      pop\n      jump\t// out\n        /* \"#utility.yul\":27932:28298   */\n    tag_326:\n        /* \"#utility.yul\":28074:28077   */\n      0x00\n        /* \"#utility.yul\":28095:28162   */\n      tag_611\n        /* \"#utility.yul\":28159:28161   */\n      0x20\n        /* \"#utility.yul\":28154:28157   */\n      dup4\n        /* \"#utility.yul\":28095:28162   */\n      tag_269\n      jump\t// in\n    tag_611:\n        /* \"#utility.yul\":28088:28162   */\n      swap2\n      pop\n        /* \"#utility.yul\":28171:28264   */\n      tag_612\n        /* \"#utility.yul\":28260:28263   */\n      dup3\n        /* \"#utility.yul\":28171:28264   */\n      tag_325\n      jump\t// in\n    tag_612:\n        /* \"#utility.yul\":28289:28291   */\n      0x20\n        /* \"#utility.yul\":28284:28287   */\n      dup3\n        /* \"#utility.yul\":28280:28292   */\n      add\n        /* \"#utility.yul\":28273:28292   */\n      swap1\n      pop\n        /* \"#utility.yul\":27932:28298   */\n      swap2\n      swap1\n      pop\n      jump\t// out\n        /* \"#utility.yul\":28304:28723   */\n    tag_225:\n        /* \"#utility.yul\":28470:28474   */\n      0x00\n        /* \"#utility.yul\":28508:28510   */\n      0x20\n        /* \"#utility.yul\":28497:28506   */\n      dup3\n        /* \"#utility.yul\":28493:28511   */\n      add\n        /* \"#utility.yul\":28485:28511   */\n      swap1\n      pop\n        /* \"#utility.yul\":28557:28566   */\n      dup2\n        /* \"#utility.yul\":28551:28555   */\n      dup2\n        /* \"#utility.yul\":28547:28567   */\n      sub\n        /* \"#utility.yul\":28543:28544   */\n      0x00\n        /* \"#utility.yul\":28532:28541   */\n      dup4\n        /* \"#utility.yul\":28528:28545   */\n      add\n        /* \"#utility.yul\":28521:28568   */\n      mstore\n        /* \"#utility.yul\":28585:28716   */\n      tag_614\n        /* \"#utility.yul\":28711:28715   */\n      dup2\n        /* \"#utility.yul\":28585:28716   */\n      tag_326\n      jump\t// in\n    tag_614:\n        /* \"#utility.yul\":28577:28716   */\n      swap1\n      pop\n        /* \"#utility.yul\":28304:28723   */\n      swap2\n      swap1\n      pop\n      jump\t// out\n        /* \"#utility.yul\":28729:28876   */\n    tag_327:\n        /* \"#utility.yul\":28830:28841   */\n      0x00\n        /* \"#utility.yul\":28867:28870   */\n      dup2\n        /* \"#utility.yul\":28852:28870   */\n      swap1\n      pop\n        /* \"#utility.yul\":28729:28876   */\n      swap3\n      swap2\n      pop\n      pop\n      jump\t// out\n        /* \"#utility.yul\":28882:29026   */\n    tag_328:\n        /* \"#utility.yul\":28934:28938   */\n      0x00\n        /* \"#utility.yul\":28957:28960   */\n      dup2\n        /* \"#utility.yul\":28949:28960   */\n      swap1\n      pop\n        /* \"#utility.yul\":28980:28983   */\n      dup2\n        /* \"#utility.yul\":28977:28978   */\n      0x00\n        /* \"#utility.yul\":28970:28984   */\n      mstore\n        /* \"#utility.yul\":29014:29018   */\n      0x20\n        /* \"#utility.yul\":29011:29012   */\n      0x00\n        /* \"#utility.yul\":29001:29019   */\n      keccak256\n        /* \"#utility.yul\":28993:29019   */\n      swap1\n      pop\n        /* \"#utility.yul\":28882:29026   */\n      swap2\n      swap1\n      pop\n      jump\t// out\n        /* \"#utility.yul\":29054:29932   */\n    tag_329:\n        /* \"#utility.yul\":29159:29162   */\n      0x00\n        /* \"#utility.yul\":29196:29201   */\n      dup2\n        /* \"#utility.yul\":29190:29202   */\n      sload\n        /* \"#utility.yul\":29225:29261   */\n      tag_618\n        /* \"#utility.yul\":29251:29260   */\n      dup2\n        /* \"#utility.yul\":29225:29261   */\n      tag_70\n      jump\t// in\n    tag_618:\n        /* \"#utility.yul\":29277:29365   */\n      tag_619\n        /* \"#utility.yul\":29358:29364   */\n      dup2\n        /* \"#utility.yul\":29353:29356   */\n      dup7\n        /* \"#utility.yul\":29277:29365   */\n      tag_327\n      jump\t// in\n    tag_619:\n        /* \"#utility.yul\":29270:29365   */\n      swap5\n      pop\n        /* \"#utility.yul\":29396:29397   */\n      0x01\n        /* \"#utility.yul\":29385:29394   */\n      dup3\n        /* \"#utility.yul\":29381:29398   */\n      and\n        /* \"#utility.yul\":29412:29413   */\n      0x00\n        /* \"#utility.yul\":29407:29573   */\n      dup2\n      eq\n      tag_621\n      jumpi\n        /* \"#utility.yul\":29587:29588   */\n      0x01\n        /* \"#utility.yul\":29582:29926   */\n      dup2\n      eq\n      tag_622\n      jumpi\n        /* \"#utility.yul\":29374:29926   */\n      jump(tag_620)\n        /* \"#utility.yul\":29407:29573   */\n    tag_621:\n        /* \"#utility.yul\":29491:29495   */\n      0xff\n        /* \"#utility.yul\":29487:29496   */\n      not\n        /* \"#utility.yul\":29476:29485   */\n      dup4\n        /* \"#utility.yul\":29472:29497   */\n      and\n        /* \"#utility.yul\":29467:29470   */\n      dup7\n        /* \"#utility.yul\":29460:29498   */\n      mstore\n        /* \"#utility.yul\":29553:29559   */\n      dup2\n        /* \"#utility.yul\":29546:29560   */\n      iszero\n        /* \"#utility.yul\":29539:29561   */\n      iszero\n        /* \"#utility.yul\":29531:29537   */\n      dup3\n        /* \"#utility.yul\":29527:29562   */\n      mul\n        /* \"#utility.yul\":29522:29525   */\n      dup7\n        /* \"#utility.yul\":29518:29563   */\n      add\n        /* \"#utility.yul\":29511:29563   */\n      swap4\n      pop\n        /* \"#utility.yul\":29407:29573   */\n      jump(tag_620)\n        /* \"#utility.yul\":29582:29926   */\n    tag_622:\n        /* \"#utility.yul\":29649:29690   */\n      tag_623\n        /* \"#utility.yul\":29684:29689   */\n      dup6\n        /* \"#utility.yul\":29649:29690   */\n      tag_328\n      jump\t// in\n    tag_623:\n        /* \"#utility.yul\":29712:29713   */\n      0x00\n        /* \"#utility.yul\":29726:29880   */\n    tag_624:\n        /* \"#utility.yul\":29740:29746   */\n      dup4\n        /* \"#utility.yul\":29737:29738   */\n      dup2\n        /* \"#utility.yul\":29734:29747   */\n      lt\n        /* \"#utility.yul\":29726:29880   */\n      iszero\n      tag_626\n      jumpi\n        /* \"#utility.yul\":29814:29821   */\n      dup2\n        /* \"#utility.yul\":29808:29822   */\n      sload\n        /* \"#utility.yul\":29804:29805   */\n      dup2\n        /* \"#utility.yul\":29799:29802   */\n      dup10\n        /* \"#utility.yul\":29795:29806   */\n      add\n        /* \"#utility.yul\":29788:29823   */\n      mstore\n        /* \"#utility.yul\":29864:29865   */\n      0x01\n        /* \"#utility.yul\":29855:29862   */\n      dup3\n        /* \"#utility.yul\":29851:29866   */\n      add\n        /* \"#utility.yul\":29840:29866   */\n      swap2\n      pop\n        /* \"#utility.yul\":29762:29766   */\n      0x20\n        /* \"#utility.yul\":29759:29760   */\n      dup2\n        /* \"#utility.yul\":29755:29767   */\n      add\n        /* \"#utility.yul\":29750:29767   */\n      swap1\n      pop\n        /* \"#utility.yul\":29726:29880   */\n      jump(tag_624)\n    tag_626:\n        /* \"#utility.yul\":29909:29915   */\n      dup4\n        /* \"#utility.yul\":29904:29907   */\n      dup9\n        /* \"#utility.yul\":29900:29916   */\n      add\n        /* \"#utility.yul\":29893:29916   */\n      swap6\n      pop\n        /* \"#utility.yul\":29589:29926   */\n      pop\n      pop\n        /* \"#utility.yul\":29374:29926   */\n    tag_620:\n      pop\n        /* \"#utility.yul\":29163:29932   */\n      pop\n      pop\n        /* \"#utility.yul\":29054:29932   */\n      swap3\n      swap2\n      pop\n      pop\n      jump\t// out\n        /* \"#utility.yul\":29938:30211   */\n    tag_235:\n        /* \"#utility.yul\":30069:30072   */\n      0x00\n        /* \"#utility.yul\":30091:30185   */\n      tag_628\n        /* \"#utility.yul\":30181:30184   */\n      dup3\n        /* \"#utility.yul\":30172:30178   */\n      dup5\n        /* \"#utility.yul\":30091:30185   */\n      tag_329\n      jump\t// in\n    tag_628:\n        /* \"#utility.yul\":30084:30185   */\n      swap2\n      pop\n        /* \"#utility.yul\":30202:30205   */\n      dup2\n        /* \"#utility.yul\":30195:30205   */\n      swap1\n      pop\n        /* \"#utility.yul\":29938:30211   */\n      swap3\n      swap2\n      pop\n      pop\n      jump\t// out\n\n    auxdata: 0xa2646970667358221220338962afbba01ed855109232134ed170dd195777268239770172ce303b54f7c264736f6c63430008120033\n}\n",
				"bytecode": {
					"linkReferences": {},
					"object": "60806040523480156200001157600080fd5b50604051620024c1380380620024c1833981810160405281019062000037919062000234565b620000576200004b620000fe60201b60201c565b6200010660201b60201c565b6001808190555080600260006101000a81548173ffffffffffffffffffffffffffffffffffffffff021916908373ffffffffffffffffffffffffffffffffffffffff1602179055506001600460008373ffffffffffffffffffffffffffffffffffffffff1673ffffffffffffffffffffffffffffffffffffffff16815260200190815260200160002060006101000a81548160ff0219169083151502179055505062000266565b600033905090565b60008060009054906101000a900473ffffffffffffffffffffffffffffffffffffffff169050816000806101000a81548173ffffffffffffffffffffffffffffffffffffffff021916908373ffffffffffffffffffffffffffffffffffffffff1602179055508173ffffffffffffffffffffffffffffffffffffffff168173ffffffffffffffffffffffffffffffffffffffff167f8be0079c531659141344cd1fd0a4f28419497f9722a3daafe3b4186f6b6457e060405160405180910390a35050565b600080fd5b600073ffffffffffffffffffffffffffffffffffffffff82169050919050565b6000620001fc82620001cf565b9050919050565b6200020e81620001ef565b81146200021a57600080fd5b50565b6000815190506200022e8162000203565b92915050565b6000602082840312156200024d576200024c620001ca565b5b60006200025d848285016200021d565b91505092915050565b61224b80620002766000396000f3fe608060405234801561001057600080fd5b50600436106100b45760003560e01c80638da5cb5b116100715780638da5cb5b14610190578063d3ef12e3146101ae578063db8dc059146101de578063e220574b1461020e578063f2fde38b1461023e578063f5d3c86f1461025a576100b4565b80630ca204a0146100b95780633fda2a00146100ec57806347618f181461011c5780634843c0be1461014c578063715018a61461016857806388ffe86714610172575b600080fd5b6100d360048036038101906100ce91906113a2565b61028a565b6040516100e39493929190611483565b60405180910390f35b6101066004803603810190610101919061152d565b610358565b6040516101139190611666565b60405180910390f35b6101366004803603810190610131919061185d565b6103f1565b604051610143919061199e565b60405180910390f35b610166600480360381019061016191906119b9565b61071b565b005b61017061080a565b005b61017a61081e565b6040516101879190611a24565b60405180910390f35b610198610844565b6040516101a59190611a24565b60405180910390f35b6101c860048036038101906101c39190611a3f565b61086d565b6040516101d59190611a7f565b60405180910390f35b6101f860048036038101906101f3919061152d565b610926565b6040516102059190611aa1565b60405180910390f35b610228600480360381019061022391906113a2565b610976565b6040516102359190611a24565b60405180910390f35b6102586004803603810190610253919061152d565b6109bf565b005b610274600480360381019061026f919061152d565b610a42565b6040516102819190611aa1565b60405180910390f35b6007818051602081018201805184825260208301602085012081835280955050505050506000915090508060020180546102c390611aeb565b80601f01602080910402602001604051908101604052809291908181526020018280546102ef90611aeb565b801561033c5780601f106103115761010080835404028352916020019161033c565b820191906000526020600020905b81548152906001019060200180831161031f57829003601f168201915b5050505050908060030154908060040154908060050154905084565b60606103ea600960008473ffffffffffffffffffffffffffffffffffffffff1673ffffffffffffffffffffffffffffffffffffffff16815260200190815260200160002060006103e5600960008773ffffffffffffffffffffffffffffffffffffffff1673ffffffffffffffffffffffffffffffffffffffff168152602001908152602001600020610a5a565b610a6b565b9050919050565b6000600460006103ff610c4e565b73ffffffffffffffffffffffffffffffffffffffff1673ffffffffffffffffffffffffffffffffffffffff16815260200190815260200160002060009054906101000a900460ff16610486576040517f08c379a000000000000000000000000000000000000000000000000000000000815260040161047d90611b68565b60405180910390fd5b61048e610c56565b60005b895181101561052157610516600960008c84815181106104b4576104b3611b88565b5b602002602001015173ffffffffffffffffffffffffffffffffffffffff1673ffffffffffffffffffffffffffffffffffffffff1681526020019081526020016000208a838151811061050957610508611b88565b5b6020026020010151610ca5565b806001019050610491565b5060006040518060c001604052808b81526020018a8152602001898152602001878152602001868152602001858152509050600660008473ffffffffffffffffffffffffffffffffffffffff1673ffffffffffffffffffffffffffffffffffffffff168152602001908152602001600020879080600181540180825580915050600190039060005260206000200160009091909190915090816105c49190611d63565b50806007886040516105d69190611e71565b908152602001604051809103902060008201518160000190805190602001906106009291906110e4565b50602082015181600101908051906020019061061d92919061116e565b5060408201518160020190816106339190611d63565b50606082015181600301556080820151816004015560a08201518160050155905050826008886040516106669190611e71565b908152602001604051809103902060006101000a81548173ffffffffffffffffffffffffffffffffffffffff021916908373ffffffffffffffffffffffffffffffffffffffff1602179055508273ffffffffffffffffffffffffffffffffffffffff167f80255d2f9385ba6d4b5d8ba3a9387b50f602d5ba4061660a51a9fcbeb1325c8e888a6040516106fa929190611e88565b60405180910390a2600191505061070f610d1b565b98975050505050505050565b60046000610727610c4e565b73ffffffffffffffffffffffffffffffffffffffff1673ffffffffffffffffffffffffffffffffffffffff16815260200190815260200160002060009054906101000a900460ff166107ae576040517f08c379a00000000000000000000000000000000000000000000000000000000081526004016107a590611b68565b60405180910390fd5b6107b6610c56565b6107fe600960008473ffffffffffffffffffffffffffffffffffffffff1673ffffffffffffffffffffffffffffffffffffffff16815260200190815260200160002082610d24565b610806610d1b565b5050565b610812610f0f565b61081c6000610f8d565b565b600260009054906101000a900473ffffffffffffffffffffffffffffffffffffffff1681565b60008060009054906101000a900473ffffffffffffffffffffffffffffffffffffffff16905090565b6006602052816000526040600020818154811061088957600080fd5b906000526020600020016000915091505080546108a590611aeb565b80601f01602080910402602001604051908101604052809291908181526020018280546108d190611aeb565b801561091e5780601f106108f35761010080835404028352916020019161091e565b820191906000526020600020905b81548152906001019060200180831161090157829003601f168201915b505050505081565b600061096f600960008473ffffffffffffffffffffffffffffffffffffffff1673ffffffffffffffffffffffffffffffffffffffff168152602001908152602001600020610a5a565b9050919050565b6008818051602081018201805184825260208301602085012081835280955050505050506000915054906101000a900473ffffffffffffffffffffffffffffffffffffffff1681565b6109c7610f0f565b600073ffffffffffffffffffffffffffffffffffffffff168173ffffffffffffffffffffffffffffffffffffffff1603610a36576040517f08c379a0000000000000000000000000000000000000000000000000000000008152600401610a2d90611f31565b60405180910390fd5b610a3f81610f8d565b50565b60056020528060005260406000206000915090505481565b600081600001805490509050919050565b606060008284610a7b9190611f80565b90508460000180549050811115610a9757846000018054905090505b838111610af557600067ffffffffffffffff811115610ab957610ab8611277565b5b604051908082528060200260200182016040528015610aec57816020015b6060815260200190600190039081610ad75790505b50915050610c47565b60008482610b039190611fb4565b905060008167ffffffffffffffff811115610b2157610b20611277565b5b604051908082528060200260200182016040528015610b5457816020015b6060815260200190600190039081610b3f5790505b50905060005b82811015610c3f57876000018782610b729190611f80565b81548110610b8357610b82611b88565b5b906000526020600020018054610b9890611aeb565b80601f0160208091040260200160405190810160405280929190818152602001828054610bc490611aeb565b8015610c115780601f10610be657610100808354040283529160200191610c11565b820191906000526020600020905b815481529060010190602001808311610bf457829003601f168201915b5050505050828281518110610c2957610c28611b88565b5b6020026020010181905250806001019050610b5a565b508093505050505b9392505050565b600033905090565b600260015403610c9b576040517f08c379a0000000000000000000000000000000000000000000000000000000008152600401610c9290612034565b60405180910390fd5b6002600181905550565b610caf8282611051565b610d175781600001805490508260010182604051610ccd9190611e71565b9081526020016040518091039020819055508160000181908060018154018082558091505060019003906000526020600020016000909190919091509081610d159190611d63565b505b5050565b60018081905550565b610d2e8282611051565b610d6d576040517f08c379a0000000000000000000000000000000000000000000000000000000008152600401610d64906120a0565b60405180910390fd5b60008260010182604051610d819190611e71565b9081526020016040518091039020549050600060018460000180549050610da89190611fb4565b9050808214610eb3576000846000018281548110610dc957610dc8611b88565b5b906000526020600020018054610dde90611aeb565b80601f0160208091040260200160405190810160405280929190818152602001828054610e0a90611aeb565b8015610e575780601f10610e2c57610100808354040283529160200191610e57565b820191906000526020600020905b815481529060010190602001808311610e3a57829003601f168201915b5050505050905080856000018481548110610e7557610e74611b88565b5b906000526020600020019081610e8b9190611d63565b50828560010182604051610e9f9190611e71565b908152602001604051809103902081905550505b83600001805480610ec757610ec66120c0565b5b600190038181906000526020600020016000610ee391906111c7565b90558360010183604051610ef79190611e71565b90815260200160405180910390206000905550505050565b610f17610c4e565b73ffffffffffffffffffffffffffffffffffffffff16610f35610844565b73ffffffffffffffffffffffffffffffffffffffff1614610f8b576040517f08c379a0000000000000000000000000000000000000000000000000000000008152600401610f829061213b565b60405180910390fd5b565b60008060009054906101000a900473ffffffffffffffffffffffffffffffffffffffff169050816000806101000a81548173ffffffffffffffffffffffffffffffffffffffff021916908373ffffffffffffffffffffffffffffffffffffffff1602179055508173ffffffffffffffffffffffffffffffffffffffff168173ffffffffffffffffffffffffffffffffffffffff167f8be0079c531659141344cd1fd0a4f28419497f9722a3daafe3b4186f6b6457e060405160405180910390a35050565b60008083600001805490500361106a57600090506110de565b6000836001018360405161107e9190611e71565b90815260200160405180910390205490506000811415806110da5750836000016000815481106110b1576110b0611b88565b5b906000526020600020016040516110c891906121fe565b60405180910390208380519060200120145b9150505b92915050565b82805482825590600052602060002090810192821561115d579160200282015b8281111561115c5782518260006101000a81548173ffffffffffffffffffffffffffffffffffffffff021916908373ffffffffffffffffffffffffffffffffffffffff16021790555091602001919060010190611104565b5b50905061116a9190611207565b5090565b8280548282559060005260206000209081019282156111b6579160200282015b828111156111b55782518290816111a59190611d63565b509160200191906001019061118e565b5b5090506111c39190611224565b5090565b5080546111d390611aeb565b6000825580601f106111e55750611204565b601f0160209004906000526020600020908101906112039190611207565b5b50565b5b80821115611220576000816000905550600101611208565b5090565b5b80821115611244576000818161123b91906111c7565b50600101611225565b5090565b6000604051905090565b600080fd5b600080fd5b600080fd5b600080fd5b6000601f19601f8301169050919050565b7f4e487b7100000000000000000000000000000000000000000000000000000000600052604160045260246000fd5b6112af82611266565b810181811067ffffffffffffffff821117156112ce576112cd611277565b5b80604052505050565b60006112e1611248565b90506112ed82826112a6565b919050565b600067ffffffffffffffff82111561130d5761130c611277565b5b61131682611266565b9050602081019050919050565b82818337600083830152505050565b6000611345611340846112f2565b6112d7565b90508281526020810184848401111561136157611360611261565b5b61136c848285611323565b509392505050565b600082601f8301126113895761138861125c565b5b8135611399848260208601611332565b91505092915050565b6000602082840312156113b8576113b7611252565b5b600082013567ffffffffffffffff8111156113d6576113d5611257565b5b6113e284828501611374565b91505092915050565b600081519050919050565b600082825260208201905092915050565b60005b8381101561142557808201518184015260208101905061140a565b60008484015250505050565b600061143c826113eb565b61144681856113f6565b9350611456818560208601611407565b61145f81611266565b840191505092915050565b6000819050919050565b61147d8161146a565b82525050565b6000608082019050818103600083015261149d8187611431565b90506114ac6020830186611474565b6114b96040830185611474565b6114c66060830184611474565b95945050505050565b600073ffffffffffffffffffffffffffffffffffffffff82169050919050565b60006114fa826114cf565b9050919050565b61150a816114ef565b811461151557600080fd5b50565b60008135905061152781611501565b92915050565b60006020828403121561154357611542611252565b5b600061155184828501611518565b91505092915050565b600081519050919050565b600082825260208201905092915050565b6000819050602082019050919050565b600082825260208201905092915050565b60006115a2826113eb565b6115ac8185611586565b93506115bc818560208601611407565b6115c581611266565b840191505092915050565b60006115dc8383611597565b905092915050565b6000602082019050919050565b60006115fc8261155a565b6116068185611565565b93508360208202850161161885611576565b8060005b85811015611654578484038952815161163585826115d0565b9450611640836115e4565b925060208a0199505060018101905061161c565b50829750879550505050505092915050565b6000602082019050818103600083015261168081846115f1565b905092915050565b600067ffffffffffffffff8211156116a3576116a2611277565b5b602082029050602081019050919050565b600080fd5b60006116cc6116c784611688565b6112d7565b905080838252602082019050602084028301858111156116ef576116ee6116b4565b5b835b8181101561171857806117048882611518565b8452602084019350506020810190506116f1565b5050509392505050565b600082601f8301126117375761173661125c565b5b81356117478482602086016116b9565b91505092915050565b600067ffffffffffffffff82111561176b5761176a611277565b5b602082029050602081019050919050565b600061178f61178a84611750565b6112d7565b905080838252602082019050602084028301858111156117b2576117b16116b4565b5b835b818110156117f957803567ffffffffffffffff8111156117d7576117d661125c565b5b8086016117e48982611374565b855260208501945050506020810190506117b4565b5050509392505050565b600082601f8301126118185761181761125c565b5b813561182884826020860161177c565b91505092915050565b61183a8161146a565b811461184557600080fd5b50565b60008135905061185781611831565b92915050565b600080600080600080600080610100898b03121561187e5761187d611252565b5b600089013567ffffffffffffffff81111561189c5761189b611257565b5b6118a88b828c01611722565b985050602089013567ffffffffffffffff8111156118c9576118c8611257565b5b6118d58b828c01611803565b975050604089013567ffffffffffffffff8111156118f6576118f5611257565b5b6119028b828c01611374565b965050606089013567ffffffffffffffff81111561192357611922611257565b5b61192f8b828c01611374565b95505060806119408b828c01611848565b94505060a06119518b828c01611848565b93505060c06119628b828c01611848565b92505060e06119738b828c01611518565b9150509295985092959890939650565b60008115159050919050565b61199881611983565b82525050565b60006020820190506119b3600083018461198f565b92915050565b600080604083850312156119d0576119cf611252565b5b60006119de85828601611518565b925050602083013567ffffffffffffffff8111156119ff576119fe611257565b5b611a0b85828601611374565b9150509250929050565b611a1e816114ef565b82525050565b6000602082019050611a396000830184611a15565b92915050565b60008060408385031215611a5657611a55611252565b5b6000611a6485828601611518565b9250506020611a7585828601611848565b9150509250929050565b60006020820190508181036000830152611a998184611431565b905092915050565b6000602082019050611ab66000830184611474565b92915050565b7f4e487b7100000000000000000000000000000000000000000000000000000000600052602260045260246000fd5b60006002820490506001821680611b0357607f821691505b602082108103611b1657611b15611abc565b5b50919050565b7f53746f72653a206e6f7420616c6c6f7765642100000000000000000000000000600082015250565b6000611b526013836113f6565b9150611b5d82611b1c565b602082019050919050565b60006020820190508181036000830152611b8181611b45565b9050919050565b7f4e487b7100000000000000000000000000000000000000000000000000000000600052603260045260246000fd5b60008190508160005260206000209050919050565b60006020601f8301049050919050565b600082821b905092915050565b600060088302611c197fffffffffffffffffffffffffffffffffffffffffffffffffffffffffffffffff82611bdc565b611c238683611bdc565b95508019841693508086168417925050509392505050565b6000819050919050565b6000611c60611c5b611c568461146a565b611c3b565b61146a565b9050919050565b6000819050919050565b611c7a83611c45565b611c8e611c8682611c67565b848454611be9565b825550505050565b600090565b611ca3611c96565b611cae818484611c71565b505050565b5b81811015611cd257611cc7600082611c9b565b600181019050611cb4565b5050565b601f821115611d1757611ce881611bb7565b611cf184611bcc565b81016020851015611d00578190505b611d14611d0c85611bcc565b830182611cb3565b50505b505050565b600082821c905092915050565b6000611d3a60001984600802611d1c565b1980831691505092915050565b6000611d538383611d29565b9150826002028217905092915050565b611d6c826113eb565b67ffffffffffffffff811115611d8557611d84611277565b5b611d8f8254611aeb565b611d9a828285611cd6565b600060209050601f831160018114611dcd5760008415611dbb578287015190505b611dc58582611d47565b865550611e2d565b601f198416611ddb86611bb7565b60005b82811015611e0357848901518255600182019150602085019450602081019050611dde565b86831015611e205784890151611e1c601f891682611d29565b8355505b6001600288020188555050505b505050505050565b600081905092915050565b6000611e4b826113eb565b611e558185611e35565b9350611e65818560208601611407565b80840191505092915050565b6000611e7d8284611e40565b915081905092915050565b60006040820190508181036000830152611ea28185611431565b90508181036020830152611eb68184611431565b90509392505050565b7f4f776e61626c653a206e6577206f776e657220697320746865207a65726f206160008201527f6464726573730000000000000000000000000000000000000000000000000000602082015250565b6000611f1b6026836113f6565b9150611f2682611ebf565b604082019050919050565b60006020820190508181036000830152611f4a81611f0e565b9050919050565b7f4e487b7100000000000000000000000000000000000000000000000000000000600052601160045260246000fd5b6000611f8b8261146a565b9150611f968361146a565b9250828201905080821115611fae57611fad611f51565b5b92915050565b6000611fbf8261146a565b9150611fca8361146a565b9250828203905081811115611fe257611fe1611f51565b5b92915050565b7f5265656e7472616e637947756172643a207265656e7472616e742063616c6c00600082015250565b600061201e601f836113f6565b915061202982611fe8565b602082019050919050565b6000602082019050818103600083015261204d81612011565b9050919050565b7f456c656d656e74206e6f7420696e207365742100000000000000000000000000600082015250565b600061208a6013836113f6565b915061209582612054565b602082019050919050565b600060208201905081810360008301526120b98161207d565b9050919050565b7f4e487b7100000000000000000000000000000000000000000000000000000000600052603160045260246000fd5b7f4f776e61626c653a2063616c6c6572206973206e6f7420746865206f776e6572600082015250565b60006121256020836113f6565b9150612130826120ef565b602082019050919050565b6000602082019050818103600083015261215481612118565b9050919050565b600081905092915050565b60008190508160005260206000209050919050565b6000815461218881611aeb565b612192818661215b565b945060018216600081146121ad57600181146121c2576121f5565b60ff19831686528115158202860193506121f5565b6121cb85612166565b60005b838110156121ed578154818901526001820191506020810190506121ce565b838801955050505b50505092915050565b600061220a828461217b565b91508190509291505056fea2646970667358221220338962afbba01ed855109232134ed170dd195777268239770172ce303b54f7c264736f6c63430008120033",
					"opcodes": "PUSH1 0x80 PUSH1 0x40 MSTORE CALLVALUE DUP1 ISZERO PUSH3 0x11 JUMPI PUSH1 0x0 DUP1 REVERT JUMPDEST POP PUSH1 0x40 MLOAD PUSH3 0x24C1 CODESIZE SUB DUP1 PUSH3 0x24C1 DUP4 CODECOPY DUP2 DUP2 ADD PUSH1 0x40 MSTORE DUP2 ADD SWAP1 PUSH3 0x37 SWAP2 SWAP1 PUSH3 0x234 JUMP JUMPDEST PUSH3 0x57 PUSH3 0x4B PUSH3 0xFE PUSH1 0x20 SHL PUSH1 0x20 SHR JUMP JUMPDEST PUSH3 0x106 PUSH1 0x20 SHL PUSH1 0x20 SHR JUMP JUMPDEST PUSH1 0x1 DUP1 DUP2 SWAP1 SSTORE POP DUP1 PUSH1 0x2 PUSH1 0x0 PUSH2 0x100 EXP DUP2 SLOAD DUP2 PUSH20 0xFFFFFFFFFFFFFFFFFFFFFFFFFFFFFFFFFFFFFFFF MUL NOT AND SWAP1 DUP4 PUSH20 0xFFFFFFFFFFFFFFFFFFFFFFFFFFFFFFFFFFFFFFFF AND MUL OR SWAP1 SSTORE POP PUSH1 0x1 PUSH1 0x4 PUSH1 0x0 DUP4 PUSH20 0xFFFFFFFFFFFFFFFFFFFFFFFFFFFFFFFFFFFFFFFF AND PUSH20 0xFFFFFFFFFFFFFFFFFFFFFFFFFFFFFFFFFFFFFFFF AND DUP2 MSTORE PUSH1 0x20 ADD SWAP1 DUP2 MSTORE PUSH1 0x20 ADD PUSH1 0x0 KECCAK256 PUSH1 0x0 PUSH2 0x100 EXP DUP2 SLOAD DUP2 PUSH1 0xFF MUL NOT AND SWAP1 DUP4 ISZERO ISZERO MUL OR SWAP1 SSTORE POP POP PUSH3 0x266 JUMP JUMPDEST PUSH1 0x0 CALLER SWAP1 POP SWAP1 JUMP JUMPDEST PUSH1 0x0 DUP1 PUSH1 0x0 SWAP1 SLOAD SWAP1 PUSH2 0x100 EXP SWAP1 DIV PUSH20 0xFFFFFFFFFFFFFFFFFFFFFFFFFFFFFFFFFFFFFFFF AND SWAP1 POP DUP2 PUSH1 0x0 DUP1 PUSH2 0x100 EXP DUP2 SLOAD DUP2 PUSH20 0xFFFFFFFFFFFFFFFFFFFFFFFFFFFFFFFFFFFFFFFF MUL NOT AND SWAP1 DUP4 PUSH20 0xFFFFFFFFFFFFFFFFFFFFFFFFFFFFFFFFFFFFFFFF AND MUL OR SWAP1 SSTORE POP DUP2 PUSH20 0xFFFFFFFFFFFFFFFFFFFFFFFFFFFFFFFFFFFFFFFF AND DUP2 PUSH20 0xFFFFFFFFFFFFFFFFFFFFFFFFFFFFFFFFFFFFFFFF AND PUSH32 0x8BE0079C531659141344CD1FD0A4F28419497F9722A3DAAFE3B4186F6B6457E0 PUSH1 0x40 MLOAD PUSH1 0x40 MLOAD DUP1 SWAP2 SUB SWAP1 LOG3 POP POP JUMP JUMPDEST PUSH1 0x0 DUP1 REVERT JUMPDEST PUSH1 0x0 PUSH20 0xFFFFFFFFFFFFFFFFFFFFFFFFFFFFFFFFFFFFFFFF DUP3 AND SWAP1 POP SWAP2 SWAP1 POP JUMP JUMPDEST PUSH1 0x0 PUSH3 0x1FC DUP3 PUSH3 0x1CF JUMP JUMPDEST SWAP1 POP SWAP2 SWAP1 POP JUMP JUMPDEST PUSH3 0x20E DUP2 PUSH3 0x1EF JUMP JUMPDEST DUP2 EQ PUSH3 0x21A JUMPI PUSH1 0x0 DUP1 REVERT JUMPDEST POP JUMP JUMPDEST PUSH1 0x0 DUP2 MLOAD SWAP1 POP PUSH3 0x22E DUP2 PUSH3 0x203 JUMP JUMPDEST SWAP3 SWAP2 POP POP JUMP JUMPDEST PUSH1 0x0 PUSH1 0x20 DUP3 DUP5 SUB SLT ISZERO PUSH3 0x24D JUMPI PUSH3 0x24C PUSH3 0x1CA JUMP JUMPDEST JUMPDEST PUSH1 0x0 PUSH3 0x25D DUP5 DUP3 DUP6 ADD PUSH3 0x21D JUMP JUMPDEST SWAP2 POP POP SWAP3 SWAP2 POP POP JUMP JUMPDEST PUSH2 0x224B DUP1 PUSH3 0x276 PUSH1 0x0 CODECOPY PUSH1 0x0 RETURN INVALID PUSH1 0x80 PUSH1 0x40 MSTORE CALLVALUE DUP1 ISZERO PUSH2 0x10 JUMPI PUSH1 0x0 DUP1 REVERT JUMPDEST POP PUSH1 0x4 CALLDATASIZE LT PUSH2 0xB4 JUMPI PUSH1 0x0 CALLDATALOAD PUSH1 0xE0 SHR DUP1 PUSH4 0x8DA5CB5B GT PUSH2 0x71 JUMPI DUP1 PUSH4 0x8DA5CB5B EQ PUSH2 0x190 JUMPI DUP1 PUSH4 0xD3EF12E3 EQ PUSH2 0x1AE JUMPI DUP1 PUSH4 0xDB8DC059 EQ PUSH2 0x1DE JUMPI DUP1 PUSH4 0xE220574B EQ PUSH2 0x20E JUMPI DUP1 PUSH4 0xF2FDE38B EQ PUSH2 0x23E JUMPI DUP1 PUSH4 0xF5D3C86F EQ PUSH2 0x25A JUMPI PUSH2 0xB4 JUMP JUMPDEST DUP1 PUSH4 0xCA204A0 EQ PUSH2 0xB9 JUMPI DUP1 PUSH4 0x3FDA2A00 EQ PUSH2 0xEC JUMPI DUP1 PUSH4 0x47618F18 EQ PUSH2 0x11C JUMPI DUP1 PUSH4 0x4843C0BE EQ PUSH2 0x14C JUMPI DUP1 PUSH4 0x715018A6 EQ PUSH2 0x168 JUMPI DUP1 PUSH4 0x88FFE867 EQ PUSH2 0x172 JUMPI JUMPDEST PUSH1 0x0 DUP1 REVERT JUMPDEST PUSH2 0xD3 PUSH1 0x4 DUP1 CALLDATASIZE SUB DUP2 ADD SWAP1 PUSH2 0xCE SWAP2 SWAP1 PUSH2 0x13A2 JUMP JUMPDEST PUSH2 0x28A JUMP JUMPDEST PUSH1 0x40 MLOAD PUSH2 0xE3 SWAP5 SWAP4 SWAP3 SWAP2 SWAP1 PUSH2 0x1483 JUMP JUMPDEST PUSH1 0x40 MLOAD DUP1 SWAP2 SUB SWAP1 RETURN JUMPDEST PUSH2 0x106 PUSH1 0x4 DUP1 CALLDATASIZE SUB DUP2 ADD SWAP1 PUSH2 0x101 SWAP2 SWAP1 PUSH2 0x152D JUMP JUMPDEST PUSH2 0x358 JUMP JUMPDEST PUSH1 0x40 MLOAD PUSH2 0x113 SWAP2 SWAP1 PUSH2 0x1666 JUMP JUMPDEST PUSH1 0x40 MLOAD DUP1 SWAP2 SUB SWAP1 RETURN JUMPDEST PUSH2 0x136 PUSH1 0x4 DUP1 CALLDATASIZE SUB DUP2 ADD SWAP1 PUSH2 0x131 SWAP2 SWAP1 PUSH2 0x185D JUMP JUMPDEST PUSH2 0x3F1 JUMP JUMPDEST PUSH1 0x40 MLOAD PUSH2 0x143 SWAP2 SWAP1 PUSH2 0x199E JUMP JUMPDEST PUSH1 0x40 MLOAD DUP1 SWAP2 SUB SWAP1 RETURN JUMPDEST PUSH2 0x166 PUSH1 0x4 DUP1 CALLDATASIZE SUB DUP2 ADD SWAP1 PUSH2 0x161 SWAP2 SWAP1 PUSH2 0x19B9 JUMP JUMPDEST PUSH2 0x71B JUMP JUMPDEST STOP JUMPDEST PUSH2 0x170 PUSH2 0x80A JUMP JUMPDEST STOP JUMPDEST PUSH2 0x17A PUSH2 0x81E JUMP JUMPDEST PUSH1 0x40 MLOAD PUSH2 0x187 SWAP2 SWAP1 PUSH2 0x1A24 JUMP JUMPDEST PUSH1 0x40 MLOAD DUP1 SWAP2 SUB SWAP1 RETURN JUMPDEST PUSH2 0x198 PUSH2 0x844 JUMP JUMPDEST PUSH1 0x40 MLOAD PUSH2 0x1A5 SWAP2 SWAP1 PUSH2 0x1A24 JUMP JUMPDEST PUSH1 0x40 MLOAD DUP1 SWAP2 SUB SWAP1 RETURN JUMPDEST PUSH2 0x1C8 PUSH1 0x4 DUP1 CALLDATASIZE SUB DUP2 ADD SWAP1 PUSH2 0x1C3 SWAP2 SWAP1 PUSH2 0x1A3F JUMP JUMPDEST PUSH2 0x86D JUMP JUMPDEST PUSH1 0x40 MLOAD PUSH2 0x1D5 SWAP2 SWAP1 PUSH2 0x1A7F JUMP JUMPDEST PUSH1 0x40 MLOAD DUP1 SWAP2 SUB SWAP1 RETURN JUMPDEST PUSH2 0x1F8 PUSH1 0x4 DUP1 CALLDATASIZE SUB DUP2 ADD SWAP1 PUSH2 0x1F3 SWAP2 SWAP1 PUSH2 0x152D JUMP JUMPDEST PUSH2 0x926 JUMP JUMPDEST PUSH1 0x40 MLOAD PUSH2 0x205 SWAP2 SWAP1 PUSH2 0x1AA1 JUMP JUMPDEST PUSH1 0x40 MLOAD DUP1 SWAP2 SUB SWAP1 RETURN JUMPDEST PUSH2 0x228 PUSH1 0x4 DUP1 CALLDATASIZE SUB DUP2 ADD SWAP1 PUSH2 0x223 SWAP2 SWAP1 PUSH2 0x13A2 JUMP JUMPDEST PUSH2 0x976 JUMP JUMPDEST PUSH1 0x40 MLOAD PUSH2 0x235 SWAP2 SWAP1 PUSH2 0x1A24 JUMP JUMPDEST PUSH1 0x40 MLOAD DUP1 SWAP2 SUB SWAP1 RETURN JUMPDEST PUSH2 0x258 PUSH1 0x4 DUP1 CALLDATASIZE SUB DUP2 ADD SWAP1 PUSH2 0x253 SWAP2 SWAP1 PUSH2 0x152D JUMP JUMPDEST PUSH2 0x9BF JUMP JUMPDEST STOP JUMPDEST PUSH2 0x274 PUSH1 0x4 DUP1 CALLDATASIZE SUB DUP2 ADD SWAP1 PUSH2 0x26F SWAP2 SWAP1 PUSH2 0x152D JUMP JUMPDEST PUSH2 0xA42 JUMP JUMPDEST PUSH1 0x40 MLOAD PUSH2 0x281 SWAP2 SWAP1 PUSH2 0x1AA1 JUMP JUMPDEST PUSH1 0x40 MLOAD DUP1 SWAP2 SUB SWAP1 RETURN JUMPDEST PUSH1 0x7 DUP2 DUP1 MLOAD PUSH1 0x20 DUP2 ADD DUP3 ADD DUP1 MLOAD DUP5 DUP3 MSTORE PUSH1 0x20 DUP4 ADD PUSH1 0x20 DUP6 ADD KECCAK256 DUP2 DUP4 MSTORE DUP1 SWAP6 POP POP POP POP POP POP PUSH1 0x0 SWAP2 POP SWAP1 POP DUP1 PUSH1 0x2 ADD DUP1 SLOAD PUSH2 0x2C3 SWAP1 PUSH2 0x1AEB JUMP JUMPDEST DUP1 PUSH1 0x1F ADD PUSH1 0x20 DUP1 SWAP2 DIV MUL PUSH1 0x20 ADD PUSH1 0x40 MLOAD SWAP1 DUP2 ADD PUSH1 0x40 MSTORE DUP1 SWAP3 SWAP2 SWAP1 DUP2 DUP2 MSTORE PUSH1 0x20 ADD DUP3 DUP1 SLOAD PUSH2 0x2EF SWAP1 PUSH2 0x1AEB JUMP JUMPDEST DUP1 ISZERO PUSH2 0x33C JUMPI DUP1 PUSH1 0x1F LT PUSH2 0x311 JUMPI PUSH2 0x100 DUP1 DUP4 SLOAD DIV MUL DUP4 MSTORE SWAP2 PUSH1 0x20 ADD SWAP2 PUSH2 0x33C JUMP JUMPDEST DUP3 ADD SWAP2 SWAP1 PUSH1 0x0 MSTORE PUSH1 0x20 PUSH1 0x0 KECCAK256 SWAP1 JUMPDEST DUP2 SLOAD DUP2 MSTORE SWAP1 PUSH1 0x1 ADD SWAP1 PUSH1 0x20 ADD DUP1 DUP4 GT PUSH2 0x31F JUMPI DUP3 SWAP1 SUB PUSH1 0x1F AND DUP3 ADD SWAP2 JUMPDEST POP POP POP POP POP SWAP1 DUP1 PUSH1 0x3 ADD SLOAD SWAP1 DUP1 PUSH1 0x4 ADD SLOAD SWAP1 DUP1 PUSH1 0x5 ADD SLOAD SWAP1 POP DUP5 JUMP JUMPDEST PUSH1 0x60 PUSH2 0x3EA PUSH1 0x9 PUSH1 0x0 DUP5 PUSH20 0xFFFFFFFFFFFFFFFFFFFFFFFFFFFFFFFFFFFFFFFF AND PUSH20 0xFFFFFFFFFFFFFFFFFFFFFFFFFFFFFFFFFFFFFFFF AND DUP2 MSTORE PUSH1 0x20 ADD SWAP1 DUP2 MSTORE PUSH1 0x20 ADD PUSH1 0x0 KECCAK256 PUSH1 0x0 PUSH2 0x3E5 PUSH1 0x9 PUSH1 0x0 DUP8 PUSH20 0xFFFFFFFFFFFFFFFFFFFFFFFFFFFFFFFFFFFFFFFF AND PUSH20 0xFFFFFFFFFFFFFFFFFFFFFFFFFFFFFFFFFFFFFFFF AND DUP2 MSTORE PUSH1 0x20 ADD SWAP1 DUP2 MSTORE PUSH1 0x20 ADD PUSH1 0x0 KECCAK256 PUSH2 0xA5A JUMP JUMPDEST PUSH2 0xA6B JUMP JUMPDEST SWAP1 POP SWAP2 SWAP1 POP JUMP JUMPDEST PUSH1 0x0 PUSH1 0x4 PUSH1 0x0 PUSH2 0x3FF PUSH2 0xC4E JUMP JUMPDEST PUSH20 0xFFFFFFFFFFFFFFFFFFFFFFFFFFFFFFFFFFFFFFFF AND PUSH20 0xFFFFFFFFFFFFFFFFFFFFFFFFFFFFFFFFFFFFFFFF AND DUP2 MSTORE PUSH1 0x20 ADD SWAP1 DUP2 MSTORE PUSH1 0x20 ADD PUSH1 0x0 KECCAK256 PUSH1 0x0 SWAP1 SLOAD SWAP1 PUSH2 0x100 EXP SWAP1 DIV PUSH1 0xFF AND PUSH2 0x486 JUMPI PUSH1 0x40 MLOAD PUSH32 0x8C379A000000000000000000000000000000000000000000000000000000000 DUP2 MSTORE PUSH1 0x4 ADD PUSH2 0x47D SWAP1 PUSH2 0x1B68 JUMP JUMPDEST PUSH1 0x40 MLOAD DUP1 SWAP2 SUB SWAP1 REVERT JUMPDEST PUSH2 0x48E PUSH2 0xC56 JUMP JUMPDEST PUSH1 0x0 JUMPDEST DUP10 MLOAD DUP2 LT ISZERO PUSH2 0x521 JUMPI PUSH2 0x516 PUSH1 0x9 PUSH1 0x0 DUP13 DUP5 DUP2 MLOAD DUP2 LT PUSH2 0x4B4 JUMPI PUSH2 0x4B3 PUSH2 0x1B88 JUMP JUMPDEST JUMPDEST PUSH1 0x20 MUL PUSH1 0x20 ADD ADD MLOAD PUSH20 0xFFFFFFFFFFFFFFFFFFFFFFFFFFFFFFFFFFFFFFFF AND PUSH20 0xFFFFFFFFFFFFFFFFFFFFFFFFFFFFFFFFFFFFFFFF AND DUP2 MSTORE PUSH1 0x20 ADD SWAP1 DUP2 MSTORE PUSH1 0x20 ADD PUSH1 0x0 KECCAK256 DUP11 DUP4 DUP2 MLOAD DUP2 LT PUSH2 0x509 JUMPI PUSH2 0x508 PUSH2 0x1B88 JUMP JUMPDEST JUMPDEST PUSH1 0x20 MUL PUSH1 0x20 ADD ADD MLOAD PUSH2 0xCA5 JUMP JUMPDEST DUP1 PUSH1 0x1 ADD SWAP1 POP PUSH2 0x491 JUMP JUMPDEST POP PUSH1 0x0 PUSH1 0x40 MLOAD DUP1 PUSH1 0xC0 ADD PUSH1 0x40 MSTORE DUP1 DUP12 DUP2 MSTORE PUSH1 0x20 ADD DUP11 DUP2 MSTORE PUSH1 0x20 ADD DUP10 DUP2 MSTORE PUSH1 0x20 ADD DUP8 DUP2 MSTORE PUSH1 0x20 ADD DUP7 DUP2 MSTORE PUSH1 0x20 ADD DUP6 DUP2 MSTORE POP SWAP1 POP PUSH1 0x6 PUSH1 0x0 DUP5 PUSH20 0xFFFFFFFFFFFFFFFFFFFFFFFFFFFFFFFFFFFFFFFF AND PUSH20 0xFFFFFFFFFFFFFFFFFFFFFFFFFFFFFFFFFFFFFFFF AND DUP2 MSTORE PUSH1 0x20 ADD SWAP1 DUP2 MSTORE PUSH1 0x20 ADD PUSH1 0x0 KECCAK256 DUP8 SWAP1 DUP1 PUSH1 0x1 DUP2 SLOAD ADD DUP1 DUP3 SSTORE DUP1 SWAP2 POP POP PUSH1 0x1 SWAP1 SUB SWAP1 PUSH1 0x0 MSTORE PUSH1 0x20 PUSH1 0x0 KECCAK256 ADD PUSH1 0x0 SWAP1 SWAP2 SWAP1 SWAP2 SWAP1 SWAP2 POP SWAP1 DUP2 PUSH2 0x5C4 SWAP2 SWAP1 PUSH2 0x1D63 JUMP JUMPDEST POP DUP1 PUSH1 0x7 DUP9 PUSH1 0x40 MLOAD PUSH2 0x5D6 SWAP2 SWAP1 PUSH2 0x1E71 JUMP JUMPDEST SWAP1 DUP2 MSTORE PUSH1 0x20 ADD PUSH1 0x40 MLOAD DUP1 SWAP2 SUB SWAP1 KECCAK256 PUSH1 0x0 DUP3 ADD MLOAD DUP2 PUSH1 0x0 ADD SWAP1 DUP1 MLOAD SWAP1 PUSH1 0x20 ADD SWAP1 PUSH2 0x600 SWAP3 SWAP2 SWAP1 PUSH2 0x10E4 JUMP JUMPDEST POP PUSH1 0x20 DUP3 ADD MLOAD DUP2 PUSH1 0x1 ADD SWAP1 DUP1 MLOAD SWAP1 PUSH1 0x20 ADD SWAP1 PUSH2 0x61D SWAP3 SWAP2 SWAP1 PUSH2 0x116E JUMP JUMPDEST POP PUSH1 0x40 DUP3 ADD MLOAD DUP2 PUSH1 0x2 ADD SWAP1 DUP2 PUSH2 0x633 SWAP2 SWAP1 PUSH2 0x1D63 JUMP JUMPDEST POP PUSH1 0x60 DUP3 ADD MLOAD DUP2 PUSH1 0x3 ADD SSTORE PUSH1 0x80 DUP3 ADD MLOAD DUP2 PUSH1 0x4 ADD SSTORE PUSH1 0xA0 DUP3 ADD MLOAD DUP2 PUSH1 0x5 ADD SSTORE SWAP1 POP POP DUP3 PUSH1 0x8 DUP9 PUSH1 0x40 MLOAD PUSH2 0x666 SWAP2 SWAP1 PUSH2 0x1E71 JUMP JUMPDEST SWAP1 DUP2 MSTORE PUSH1 0x20 ADD PUSH1 0x40 MLOAD DUP1 SWAP2 SUB SWAP1 KECCAK256 PUSH1 0x0 PUSH2 0x100 EXP DUP2 SLOAD DUP2 PUSH20 0xFFFFFFFFFFFFFFFFFFFFFFFFFFFFFFFFFFFFFFFF MUL NOT AND SWAP1 DUP4 PUSH20 0xFFFFFFFFFFFFFFFFFFFFFFFFFFFFFFFFFFFFFFFF AND MUL OR SWAP1 SSTORE POP DUP3 PUSH20 0xFFFFFFFFFFFFFFFFFFFFFFFFFFFFFFFFFFFFFFFF AND PUSH32 0x80255D2F9385BA6D4B5D8BA3A9387B50F602D5BA4061660A51A9FCBEB1325C8E DUP9 DUP11 PUSH1 0x40 MLOAD PUSH2 0x6FA SWAP3 SWAP2 SWAP1 PUSH2 0x1E88 JUMP JUMPDEST PUSH1 0x40 MLOAD DUP1 SWAP2 SUB SWAP1 LOG2 PUSH1 0x1 SWAP2 POP POP PUSH2 0x70F PUSH2 0xD1B JUMP JUMPDEST SWAP9 SWAP8 POP POP POP POP POP POP POP POP JUMP JUMPDEST PUSH1 0x4 PUSH1 0x0 PUSH2 0x727 PUSH2 0xC4E JUMP JUMPDEST PUSH20 0xFFFFFFFFFFFFFFFFFFFFFFFFFFFFFFFFFFFFFFFF AND PUSH20 0xFFFFFFFFFFFFFFFFFFFFFFFFFFFFFFFFFFFFFFFF AND DUP2 MSTORE PUSH1 0x20 ADD SWAP1 DUP2 MSTORE PUSH1 0x20 ADD PUSH1 0x0 KECCAK256 PUSH1 0x0 SWAP1 SLOAD SWAP1 PUSH2 0x100 EXP SWAP1 DIV PUSH1 0xFF AND PUSH2 0x7AE JUMPI PUSH1 0x40 MLOAD PUSH32 0x8C379A000000000000000000000000000000000000000000000000000000000 DUP2 MSTORE PUSH1 0x4 ADD PUSH2 0x7A5 SWAP1 PUSH2 0x1B68 JUMP JUMPDEST PUSH1 0x40 MLOAD DUP1 SWAP2 SUB SWAP1 REVERT JUMPDEST PUSH2 0x7B6 PUSH2 0xC56 JUMP JUMPDEST PUSH2 0x7FE PUSH1 0x9 PUSH1 0x0 DUP5 PUSH20 0xFFFFFFFFFFFFFFFFFFFFFFFFFFFFFFFFFFFFFFFF AND PUSH20 0xFFFFFFFFFFFFFFFFFFFFFFFFFFFFFFFFFFFFFFFF AND DUP2 MSTORE PUSH1 0x20 ADD SWAP1 DUP2 MSTORE PUSH1 0x20 ADD PUSH1 0x0 KECCAK256 DUP3 PUSH2 0xD24 JUMP JUMPDEST PUSH2 0x806 PUSH2 0xD1B JUMP JUMPDEST POP POP JUMP JUMPDEST PUSH2 0x812 PUSH2 0xF0F JUMP JUMPDEST PUSH2 0x81C PUSH1 0x0 PUSH2 0xF8D JUMP JUMPDEST JUMP JUMPDEST PUSH1 0x2 PUSH1 0x0 SWAP1 SLOAD SWAP1 PUSH2 0x100 EXP SWAP1 DIV PUSH20 0xFFFFFFFFFFFFFFFFFFFFFFFFFFFFFFFFFFFFFFFF AND DUP2 JUMP JUMPDEST PUSH1 0x0 DUP1 PUSH1 0x0 SWAP1 SLOAD SWAP1 PUSH2 0x100 EXP SWAP1 DIV PUSH20 0xFFFFFFFFFFFFFFFFFFFFFFFFFFFFFFFFFFFFFFFF AND SWAP1 POP SWAP1 JUMP JUMPDEST PUSH1 0x6 PUSH1 0x20 MSTORE DUP2 PUSH1 0x0 MSTORE PUSH1 0x40 PUSH1 0x0 KECCAK256 DUP2 DUP2 SLOAD DUP2 LT PUSH2 0x889 JUMPI PUSH1 0x0 DUP1 REVERT JUMPDEST SWAP1 PUSH1 0x0 MSTORE PUSH1 0x20 PUSH1 0x0 KECCAK256 ADD PUSH1 0x0 SWAP2 POP SWAP2 POP POP DUP1 SLOAD PUSH2 0x8A5 SWAP1 PUSH2 0x1AEB JUMP JUMPDEST DUP1 PUSH1 0x1F ADD PUSH1 0x20 DUP1 SWAP2 DIV MUL PUSH1 0x20 ADD PUSH1 0x40 MLOAD SWAP1 DUP2 ADD PUSH1 0x40 MSTORE DUP1 SWAP3 SWAP2 SWAP1 DUP2 DUP2 MSTORE PUSH1 0x20 ADD DUP3 DUP1 SLOAD PUSH2 0x8D1 SWAP1 PUSH2 0x1AEB JUMP JUMPDEST DUP1 ISZERO PUSH2 0x91E JUMPI DUP1 PUSH1 0x1F LT PUSH2 0x8F3 JUMPI PUSH2 0x100 DUP1 DUP4 SLOAD DIV MUL DUP4 MSTORE SWAP2 PUSH1 0x20 ADD SWAP2 PUSH2 0x91E JUMP JUMPDEST DUP3 ADD SWAP2 SWAP1 PUSH1 0x0 MSTORE PUSH1 0x20 PUSH1 0x0 KECCAK256 SWAP1 JUMPDEST DUP2 SLOAD DUP2 MSTORE SWAP1 PUSH1 0x1 ADD SWAP1 PUSH1 0x20 ADD DUP1 DUP4 GT PUSH2 0x901 JUMPI DUP3 SWAP1 SUB PUSH1 0x1F AND DUP3 ADD SWAP2 JUMPDEST POP POP POP POP POP DUP2 JUMP JUMPDEST PUSH1 0x0 PUSH2 0x96F PUSH1 0x9 PUSH1 0x0 DUP5 PUSH20 0xFFFFFFFFFFFFFFFFFFFFFFFFFFFFFFFFFFFFFFFF AND PUSH20 0xFFFFFFFFFFFFFFFFFFFFFFFFFFFFFFFFFFFFFFFF AND DUP2 MSTORE PUSH1 0x20 ADD SWAP1 DUP2 MSTORE PUSH1 0x20 ADD PUSH1 0x0 KECCAK256 PUSH2 0xA5A JUMP JUMPDEST SWAP1 POP SWAP2 SWAP1 POP JUMP JUMPDEST PUSH1 0x8 DUP2 DUP1 MLOAD PUSH1 0x20 DUP2 ADD DUP3 ADD DUP1 MLOAD DUP5 DUP3 MSTORE PUSH1 0x20 DUP4 ADD PUSH1 0x20 DUP6 ADD KECCAK256 DUP2 DUP4 MSTORE DUP1 SWAP6 POP POP POP POP POP POP PUSH1 0x0 SWAP2 POP SLOAD SWAP1 PUSH2 0x100 EXP SWAP1 DIV PUSH20 0xFFFFFFFFFFFFFFFFFFFFFFFFFFFFFFFFFFFFFFFF AND DUP2 JUMP JUMPDEST PUSH2 0x9C7 PUSH2 0xF0F JUMP JUMPDEST PUSH1 0x0 PUSH20 0xFFFFFFFFFFFFFFFFFFFFFFFFFFFFFFFFFFFFFFFF AND DUP2 PUSH20 0xFFFFFFFFFFFFFFFFFFFFFFFFFFFFFFFFFFFFFFFF AND SUB PUSH2 0xA36 JUMPI PUSH1 0x40 MLOAD PUSH32 0x8C379A000000000000000000000000000000000000000000000000000000000 DUP2 MSTORE PUSH1 0x4 ADD PUSH2 0xA2D SWAP1 PUSH2 0x1F31 JUMP JUMPDEST PUSH1 0x40 MLOAD DUP1 SWAP2 SUB SWAP1 REVERT JUMPDEST PUSH2 0xA3F DUP2 PUSH2 0xF8D JUMP JUMPDEST POP JUMP JUMPDEST PUSH1 0x5 PUSH1 0x20 MSTORE DUP1 PUSH1 0x0 MSTORE PUSH1 0x40 PUSH1 0x0 KECCAK256 PUSH1 0x0 SWAP2 POP SWAP1 POP SLOAD DUP2 JUMP JUMPDEST PUSH1 0x0 DUP2 PUSH1 0x0 ADD DUP1 SLOAD SWAP1 POP SWAP1 POP SWAP2 SWAP1 POP JUMP JUMPDEST PUSH1 0x60 PUSH1 0x0 DUP3 DUP5 PUSH2 0xA7B SWAP2 SWAP1 PUSH2 0x1F80 JUMP JUMPDEST SWAP1 POP DUP5 PUSH1 0x0 ADD DUP1 SLOAD SWAP1 POP DUP2 GT ISZERO PUSH2 0xA97 JUMPI DUP5 PUSH1 0x0 ADD DUP1 SLOAD SWAP1 POP SWAP1 POP JUMPDEST DUP4 DUP2 GT PUSH2 0xAF5 JUMPI PUSH1 0x0 PUSH8 0xFFFFFFFFFFFFFFFF DUP2 GT ISZERO PUSH2 0xAB9 JUMPI PUSH2 0xAB8 PUSH2 0x1277 JUMP JUMPDEST JUMPDEST PUSH1 0x40 MLOAD SWAP1 DUP1 DUP3 MSTORE DUP1 PUSH1 0x20 MUL PUSH1 0x20 ADD DUP3 ADD PUSH1 0x40 MSTORE DUP1 ISZERO PUSH2 0xAEC JUMPI DUP2 PUSH1 0x20 ADD JUMPDEST PUSH1 0x60 DUP2 MSTORE PUSH1 0x20 ADD SWAP1 PUSH1 0x1 SWAP1 SUB SWAP1 DUP2 PUSH2 0xAD7 JUMPI SWAP1 POP JUMPDEST POP SWAP2 POP POP PUSH2 0xC47 JUMP JUMPDEST PUSH1 0x0 DUP5 DUP3 PUSH2 0xB03 SWAP2 SWAP1 PUSH2 0x1FB4 JUMP JUMPDEST SWAP1 POP PUSH1 0x0 DUP2 PUSH8 0xFFFFFFFFFFFFFFFF DUP2 GT ISZERO PUSH2 0xB21 JUMPI PUSH2 0xB20 PUSH2 0x1277 JUMP JUMPDEST JUMPDEST PUSH1 0x40 MLOAD SWAP1 DUP1 DUP3 MSTORE DUP1 PUSH1 0x20 MUL PUSH1 0x20 ADD DUP3 ADD PUSH1 0x40 MSTORE DUP1 ISZERO PUSH2 0xB54 JUMPI DUP2 PUSH1 0x20 ADD JUMPDEST PUSH1 0x60 DUP2 MSTORE PUSH1 0x20 ADD SWAP1 PUSH1 0x1 SWAP1 SUB SWAP1 DUP2 PUSH2 0xB3F JUMPI SWAP1 POP JUMPDEST POP SWAP1 POP PUSH1 0x0 JUMPDEST DUP3 DUP2 LT ISZERO PUSH2 0xC3F JUMPI DUP8 PUSH1 0x0 ADD DUP8 DUP3 PUSH2 0xB72 SWAP2 SWAP1 PUSH2 0x1F80 JUMP JUMPDEST DUP2 SLOAD DUP2 LT PUSH2 0xB83 JUMPI PUSH2 0xB82 PUSH2 0x1B88 JUMP JUMPDEST JUMPDEST SWAP1 PUSH1 0x0 MSTORE PUSH1 0x20 PUSH1 0x0 KECCAK256 ADD DUP1 SLOAD PUSH2 0xB98 SWAP1 PUSH2 0x1AEB JUMP JUMPDEST DUP1 PUSH1 0x1F ADD PUSH1 0x20 DUP1 SWAP2 DIV MUL PUSH1 0x20 ADD PUSH1 0x40 MLOAD SWAP1 DUP2 ADD PUSH1 0x40 MSTORE DUP1 SWAP3 SWAP2 SWAP1 DUP2 DUP2 MSTORE PUSH1 0x20 ADD DUP3 DUP1 SLOAD PUSH2 0xBC4 SWAP1 PUSH2 0x1AEB JUMP JUMPDEST DUP1 ISZERO PUSH2 0xC11 JUMPI DUP1 PUSH1 0x1F LT PUSH2 0xBE6 JUMPI PUSH2 0x100 DUP1 DUP4 SLOAD DIV MUL DUP4 MSTORE SWAP2 PUSH1 0x20 ADD SWAP2 PUSH2 0xC11 JUMP JUMPDEST DUP3 ADD SWAP2 SWAP1 PUSH1 0x0 MSTORE PUSH1 0x20 PUSH1 0x0 KECCAK256 SWAP1 JUMPDEST DUP2 SLOAD DUP2 MSTORE SWAP1 PUSH1 0x1 ADD SWAP1 PUSH1 0x20 ADD DUP1 DUP4 GT PUSH2 0xBF4 JUMPI DUP3 SWAP1 SUB PUSH1 0x1F AND DUP3 ADD SWAP2 JUMPDEST POP POP POP POP POP DUP3 DUP3 DUP2 MLOAD DUP2 LT PUSH2 0xC29 JUMPI PUSH2 0xC28 PUSH2 0x1B88 JUMP JUMPDEST JUMPDEST PUSH1 0x20 MUL PUSH1 0x20 ADD ADD DUP2 SWAP1 MSTORE POP DUP1 PUSH1 0x1 ADD SWAP1 POP PUSH2 0xB5A JUMP JUMPDEST POP DUP1 SWAP4 POP POP POP POP JUMPDEST SWAP4 SWAP3 POP POP POP JUMP JUMPDEST PUSH1 0x0 CALLER SWAP1 POP SWAP1 JUMP JUMPDEST PUSH1 0x2 PUSH1 0x1 SLOAD SUB PUSH2 0xC9B JUMPI PUSH1 0x40 MLOAD PUSH32 0x8C379A000000000000000000000000000000000000000000000000000000000 DUP2 MSTORE PUSH1 0x4 ADD PUSH2 0xC92 SWAP1 PUSH2 0x2034 JUMP JUMPDEST PUSH1 0x40 MLOAD DUP1 SWAP2 SUB SWAP1 REVERT JUMPDEST PUSH1 0x2 PUSH1 0x1 DUP2 SWAP1 SSTORE POP JUMP JUMPDEST PUSH2 0xCAF DUP3 DUP3 PUSH2 0x1051 JUMP JUMPDEST PUSH2 0xD17 JUMPI DUP2 PUSH1 0x0 ADD DUP1 SLOAD SWAP1 POP DUP3 PUSH1 0x1 ADD DUP3 PUSH1 0x40 MLOAD PUSH2 0xCCD SWAP2 SWAP1 PUSH2 0x1E71 JUMP JUMPDEST SWAP1 DUP2 MSTORE PUSH1 0x20 ADD PUSH1 0x40 MLOAD DUP1 SWAP2 SUB SWAP1 KECCAK256 DUP2 SWAP1 SSTORE POP DUP2 PUSH1 0x0 ADD DUP2 SWAP1 DUP1 PUSH1 0x1 DUP2 SLOAD ADD DUP1 DUP3 SSTORE DUP1 SWAP2 POP POP PUSH1 0x1 SWAP1 SUB SWAP1 PUSH1 0x0 MSTORE PUSH1 0x20 PUSH1 0x0 KECCAK256 ADD PUSH1 0x0 SWAP1 SWAP2 SWAP1 SWAP2 SWAP1 SWAP2 POP SWAP1 DUP2 PUSH2 0xD15 SWAP2 SWAP1 PUSH2 0x1D63 JUMP JUMPDEST POP JUMPDEST POP POP JUMP JUMPDEST PUSH1 0x1 DUP1 DUP2 SWAP1 SSTORE POP JUMP JUMPDEST PUSH2 0xD2E DUP3 DUP3 PUSH2 0x1051 JUMP JUMPDEST PUSH2 0xD6D JUMPI PUSH1 0x40 MLOAD PUSH32 0x8C379A000000000000000000000000000000000000000000000000000000000 DUP2 MSTORE PUSH1 0x4 ADD PUSH2 0xD64 SWAP1 PUSH2 0x20A0 JUMP JUMPDEST PUSH1 0x40 MLOAD DUP1 SWAP2 SUB SWAP1 REVERT JUMPDEST PUSH1 0x0 DUP3 PUSH1 0x1 ADD DUP3 PUSH1 0x40 MLOAD PUSH2 0xD81 SWAP2 SWAP1 PUSH2 0x1E71 JUMP JUMPDEST SWAP1 DUP2 MSTORE PUSH1 0x20 ADD PUSH1 0x40 MLOAD DUP1 SWAP2 SUB SWAP1 KECCAK256 SLOAD SWAP1 POP PUSH1 0x0 PUSH1 0x1 DUP5 PUSH1 0x0 ADD DUP1 SLOAD SWAP1 POP PUSH2 0xDA8 SWAP2 SWAP1 PUSH2 0x1FB4 JUMP JUMPDEST SWAP1 POP DUP1 DUP3 EQ PUSH2 0xEB3 JUMPI PUSH1 0x0 DUP5 PUSH1 0x0 ADD DUP3 DUP2 SLOAD DUP2 LT PUSH2 0xDC9 JUMPI PUSH2 0xDC8 PUSH2 0x1B88 JUMP JUMPDEST JUMPDEST SWAP1 PUSH1 0x0 MSTORE PUSH1 0x20 PUSH1 0x0 KECCAK256 ADD DUP1 SLOAD PUSH2 0xDDE SWAP1 PUSH2 0x1AEB JUMP JUMPDEST DUP1 PUSH1 0x1F ADD PUSH1 0x20 DUP1 SWAP2 DIV MUL PUSH1 0x20 ADD PUSH1 0x40 MLOAD SWAP1 DUP2 ADD PUSH1 0x40 MSTORE DUP1 SWAP3 SWAP2 SWAP1 DUP2 DUP2 MSTORE PUSH1 0x20 ADD DUP3 DUP1 SLOAD PUSH2 0xE0A SWAP1 PUSH2 0x1AEB JUMP JUMPDEST DUP1 ISZERO PUSH2 0xE57 JUMPI DUP1 PUSH1 0x1F LT PUSH2 0xE2C JUMPI PUSH2 0x100 DUP1 DUP4 SLOAD DIV MUL DUP4 MSTORE SWAP2 PUSH1 0x20 ADD SWAP2 PUSH2 0xE57 JUMP JUMPDEST DUP3 ADD SWAP2 SWAP1 PUSH1 0x0 MSTORE PUSH1 0x20 PUSH1 0x0 KECCAK256 SWAP1 JUMPDEST DUP2 SLOAD DUP2 MSTORE SWAP1 PUSH1 0x1 ADD SWAP1 PUSH1 0x20 ADD DUP1 DUP4 GT PUSH2 0xE3A JUMPI DUP3 SWAP1 SUB PUSH1 0x1F AND DUP3 ADD SWAP2 JUMPDEST POP POP POP POP POP SWAP1 POP DUP1 DUP6 PUSH1 0x0 ADD DUP5 DUP2 SLOAD DUP2 LT PUSH2 0xE75 JUMPI PUSH2 0xE74 PUSH2 0x1B88 JUMP JUMPDEST JUMPDEST SWAP1 PUSH1 0x0 MSTORE PUSH1 0x20 PUSH1 0x0 KECCAK256 ADD SWAP1 DUP2 PUSH2 0xE8B SWAP2 SWAP1 PUSH2 0x1D63 JUMP JUMPDEST POP DUP3 DUP6 PUSH1 0x1 ADD DUP3 PUSH1 0x40 MLOAD PUSH2 0xE9F SWAP2 SWAP1 PUSH2 0x1E71 JUMP JUMPDEST SWAP1 DUP2 MSTORE PUSH1 0x20 ADD PUSH1 0x40 MLOAD DUP1 SWAP2 SUB SWAP1 KECCAK256 DUP2 SWAP1 SSTORE POP POP JUMPDEST DUP4 PUSH1 0x0 ADD DUP1 SLOAD DUP1 PUSH2 0xEC7 JUMPI PUSH2 0xEC6 PUSH2 0x20C0 JUMP JUMPDEST JUMPDEST PUSH1 0x1 SWAP1 SUB DUP2 DUP2 SWAP1 PUSH1 0x0 MSTORE PUSH1 0x20 PUSH1 0x0 KECCAK256 ADD PUSH1 0x0 PUSH2 0xEE3 SWAP2 SWAP1 PUSH2 0x11C7 JUMP JUMPDEST SWAP1 SSTORE DUP4 PUSH1 0x1 ADD DUP4 PUSH1 0x40 MLOAD PUSH2 0xEF7 SWAP2 SWAP1 PUSH2 0x1E71 JUMP JUMPDEST SWAP1 DUP2 MSTORE PUSH1 0x20 ADD PUSH1 0x40 MLOAD DUP1 SWAP2 SUB SWAP1 KECCAK256 PUSH1 0x0 SWAP1 SSTORE POP POP POP POP JUMP JUMPDEST PUSH2 0xF17 PUSH2 0xC4E JUMP JUMPDEST PUSH20 0xFFFFFFFFFFFFFFFFFFFFFFFFFFFFFFFFFFFFFFFF AND PUSH2 0xF35 PUSH2 0x844 JUMP JUMPDEST PUSH20 0xFFFFFFFFFFFFFFFFFFFFFFFFFFFFFFFFFFFFFFFF AND EQ PUSH2 0xF8B JUMPI PUSH1 0x40 MLOAD PUSH32 0x8C379A000000000000000000000000000000000000000000000000000000000 DUP2 MSTORE PUSH1 0x4 ADD PUSH2 0xF82 SWAP1 PUSH2 0x213B JUMP JUMPDEST PUSH1 0x40 MLOAD DUP1 SWAP2 SUB SWAP1 REVERT JUMPDEST JUMP JUMPDEST PUSH1 0x0 DUP1 PUSH1 0x0 SWAP1 SLOAD SWAP1 PUSH2 0x100 EXP SWAP1 DIV PUSH20 0xFFFFFFFFFFFFFFFFFFFFFFFFFFFFFFFFFFFFFFFF AND SWAP1 POP DUP2 PUSH1 0x0 DUP1 PUSH2 0x100 EXP DUP2 SLOAD DUP2 PUSH20 0xFFFFFFFFFFFFFFFFFFFFFFFFFFFFFFFFFFFFFFFF MUL NOT AND SWAP1 DUP4 PUSH20 0xFFFFFFFFFFFFFFFFFFFFFFFFFFFFFFFFFFFFFFFF AND MUL OR SWAP1 SSTORE POP DUP2 PUSH20 0xFFFFFFFFFFFFFFFFFFFFFFFFFFFFFFFFFFFFFFFF AND DUP2 PUSH20 0xFFFFFFFFFFFFFFFFFFFFFFFFFFFFFFFFFFFFFFFF AND PUSH32 0x8BE0079C531659141344CD1FD0A4F28419497F9722A3DAAFE3B4186F6B6457E0 PUSH1 0x40 MLOAD PUSH1 0x40 MLOAD DUP1 SWAP2 SUB SWAP1 LOG3 POP POP JUMP JUMPDEST PUSH1 0x0 DUP1 DUP4 PUSH1 0x0 ADD DUP1 SLOAD SWAP1 POP SUB PUSH2 0x106A JUMPI PUSH1 0x0 SWAP1 POP PUSH2 0x10DE JUMP JUMPDEST PUSH1 0x0 DUP4 PUSH1 0x1 ADD DUP4 PUSH1 0x40 MLOAD PUSH2 0x107E SWAP2 SWAP1 PUSH2 0x1E71 JUMP JUMPDEST SWAP1 DUP2 MSTORE PUSH1 0x20 ADD PUSH1 0x40 MLOAD DUP1 SWAP2 SUB SWAP1 KECCAK256 SLOAD SWAP1 POP PUSH1 0x0 DUP2 EQ ISZERO DUP1 PUSH2 0x10DA JUMPI POP DUP4 PUSH1 0x0 ADD PUSH1 0x0 DUP2 SLOAD DUP2 LT PUSH2 0x10B1 JUMPI PUSH2 0x10B0 PUSH2 0x1B88 JUMP JUMPDEST JUMPDEST SWAP1 PUSH1 0x0 MSTORE PUSH1 0x20 PUSH1 0x0 KECCAK256 ADD PUSH1 0x40 MLOAD PUSH2 0x10C8 SWAP2 SWAP1 PUSH2 0x21FE JUMP JUMPDEST PUSH1 0x40 MLOAD DUP1 SWAP2 SUB SWAP1 KECCAK256 DUP4 DUP1 MLOAD SWAP1 PUSH1 0x20 ADD KECCAK256 EQ JUMPDEST SWAP2 POP POP JUMPDEST SWAP3 SWAP2 POP POP JUMP JUMPDEST DUP3 DUP1 SLOAD DUP3 DUP3 SSTORE SWAP1 PUSH1 0x0 MSTORE PUSH1 0x20 PUSH1 0x0 KECCAK256 SWAP1 DUP2 ADD SWAP3 DUP3 ISZERO PUSH2 0x115D JUMPI SWAP2 PUSH1 0x20 MUL DUP3 ADD JUMPDEST DUP3 DUP2 GT ISZERO PUSH2 0x115C JUMPI DUP3 MLOAD DUP3 PUSH1 0x0 PUSH2 0x100 EXP DUP2 SLOAD DUP2 PUSH20 0xFFFFFFFFFFFFFFFFFFFFFFFFFFFFFFFFFFFFFFFF MUL NOT AND SWAP1 DUP4 PUSH20 0xFFFFFFFFFFFFFFFFFFFFFFFFFFFFFFFFFFFFFFFF AND MUL OR SWAP1 SSTORE POP SWAP2 PUSH1 0x20 ADD SWAP2 SWAP1 PUSH1 0x1 ADD SWAP1 PUSH2 0x1104 JUMP JUMPDEST JUMPDEST POP SWAP1 POP PUSH2 0x116A SWAP2 SWAP1 PUSH2 0x1207 JUMP JUMPDEST POP SWAP1 JUMP JUMPDEST DUP3 DUP1 SLOAD DUP3 DUP3 SSTORE SWAP1 PUSH1 0x0 MSTORE PUSH1 0x20 PUSH1 0x0 KECCAK256 SWAP1 DUP2 ADD SWAP3 DUP3 ISZERO PUSH2 0x11B6 JUMPI SWAP2 PUSH1 0x20 MUL DUP3 ADD JUMPDEST DUP3 DUP2 GT ISZERO PUSH2 0x11B5 JUMPI DUP3 MLOAD DUP3 SWAP1 DUP2 PUSH2 0x11A5 SWAP2 SWAP1 PUSH2 0x1D63 JUMP JUMPDEST POP SWAP2 PUSH1 0x20 ADD SWAP2 SWAP1 PUSH1 0x1 ADD SWAP1 PUSH2 0x118E JUMP JUMPDEST JUMPDEST POP SWAP1 POP PUSH2 0x11C3 SWAP2 SWAP1 PUSH2 0x1224 JUMP JUMPDEST POP SWAP1 JUMP JUMPDEST POP DUP1 SLOAD PUSH2 0x11D3 SWAP1 PUSH2 0x1AEB JUMP JUMPDEST PUSH1 0x0 DUP3 SSTORE DUP1 PUSH1 0x1F LT PUSH2 0x11E5 JUMPI POP PUSH2 0x1204 JUMP JUMPDEST PUSH1 0x1F ADD PUSH1 0x20 SWAP1 DIV SWAP1 PUSH1 0x0 MSTORE PUSH1 0x20 PUSH1 0x0 KECCAK256 SWAP1 DUP2 ADD SWAP1 PUSH2 0x1203 SWAP2 SWAP1 PUSH2 0x1207 JUMP JUMPDEST JUMPDEST POP JUMP JUMPDEST JUMPDEST DUP1 DUP3 GT ISZERO PUSH2 0x1220 JUMPI PUSH1 0x0 DUP2 PUSH1 0x0 SWAP1 SSTORE POP PUSH1 0x1 ADD PUSH2 0x1208 JUMP JUMPDEST POP SWAP1 JUMP JUMPDEST JUMPDEST DUP1 DUP3 GT ISZERO PUSH2 0x1244 JUMPI PUSH1 0x0 DUP2 DUP2 PUSH2 0x123B SWAP2 SWAP1 PUSH2 0x11C7 JUMP JUMPDEST POP PUSH1 0x1 ADD PUSH2 0x1225 JUMP JUMPDEST POP SWAP1 JUMP JUMPDEST PUSH1 0x0 PUSH1 0x40 MLOAD SWAP1 POP SWAP1 JUMP JUMPDEST PUSH1 0x0 DUP1 REVERT JUMPDEST PUSH1 0x0 DUP1 REVERT JUMPDEST PUSH1 0x0 DUP1 REVERT JUMPDEST PUSH1 0x0 DUP1 REVERT JUMPDEST PUSH1 0x0 PUSH1 0x1F NOT PUSH1 0x1F DUP4 ADD AND SWAP1 POP SWAP2 SWAP1 POP JUMP JUMPDEST PUSH32 0x4E487B7100000000000000000000000000000000000000000000000000000000 PUSH1 0x0 MSTORE PUSH1 0x41 PUSH1 0x4 MSTORE PUSH1 0x24 PUSH1 0x0 REVERT JUMPDEST PUSH2 0x12AF DUP3 PUSH2 0x1266 JUMP JUMPDEST DUP2 ADD DUP2 DUP2 LT PUSH8 0xFFFFFFFFFFFFFFFF DUP3 GT OR ISZERO PUSH2 0x12CE JUMPI PUSH2 0x12CD PUSH2 0x1277 JUMP JUMPDEST JUMPDEST DUP1 PUSH1 0x40 MSTORE POP POP POP JUMP JUMPDEST PUSH1 0x0 PUSH2 0x12E1 PUSH2 0x1248 JUMP JUMPDEST SWAP1 POP PUSH2 0x12ED DUP3 DUP3 PUSH2 0x12A6 JUMP JUMPDEST SWAP2 SWAP1 POP JUMP JUMPDEST PUSH1 0x0 PUSH8 0xFFFFFFFFFFFFFFFF DUP3 GT ISZERO PUSH2 0x130D JUMPI PUSH2 0x130C PUSH2 0x1277 JUMP JUMPDEST JUMPDEST PUSH2 0x1316 DUP3 PUSH2 0x1266 JUMP JUMPDEST SWAP1 POP PUSH1 0x20 DUP2 ADD SWAP1 POP SWAP2 SWAP1 POP JUMP JUMPDEST DUP3 DUP2 DUP4 CALLDATACOPY PUSH1 0x0 DUP4 DUP4 ADD MSTORE POP POP POP JUMP JUMPDEST PUSH1 0x0 PUSH2 0x1345 PUSH2 0x1340 DUP5 PUSH2 0x12F2 JUMP JUMPDEST PUSH2 0x12D7 JUMP JUMPDEST SWAP1 POP DUP3 DUP2 MSTORE PUSH1 0x20 DUP2 ADD DUP5 DUP5 DUP5 ADD GT ISZERO PUSH2 0x1361 JUMPI PUSH2 0x1360 PUSH2 0x1261 JUMP JUMPDEST JUMPDEST PUSH2 0x136C DUP5 DUP3 DUP6 PUSH2 0x1323 JUMP JUMPDEST POP SWAP4 SWAP3 POP POP POP JUMP JUMPDEST PUSH1 0x0 DUP3 PUSH1 0x1F DUP4 ADD SLT PUSH2 0x1389 JUMPI PUSH2 0x1388 PUSH2 0x125C JUMP JUMPDEST JUMPDEST DUP2 CALLDATALOAD PUSH2 0x1399 DUP5 DUP3 PUSH1 0x20 DUP7 ADD PUSH2 0x1332 JUMP JUMPDEST SWAP2 POP POP SWAP3 SWAP2 POP POP JUMP JUMPDEST PUSH1 0x0 PUSH1 0x20 DUP3 DUP5 SUB SLT ISZERO PUSH2 0x13B8 JUMPI PUSH2 0x13B7 PUSH2 0x1252 JUMP JUMPDEST JUMPDEST PUSH1 0x0 DUP3 ADD CALLDATALOAD PUSH8 0xFFFFFFFFFFFFFFFF DUP2 GT ISZERO PUSH2 0x13D6 JUMPI PUSH2 0x13D5 PUSH2 0x1257 JUMP JUMPDEST JUMPDEST PUSH2 0x13E2 DUP5 DUP3 DUP6 ADD PUSH2 0x1374 JUMP JUMPDEST SWAP2 POP POP SWAP3 SWAP2 POP POP JUMP JUMPDEST PUSH1 0x0 DUP2 MLOAD SWAP1 POP SWAP2 SWAP1 POP JUMP JUMPDEST PUSH1 0x0 DUP3 DUP3 MSTORE PUSH1 0x20 DUP3 ADD SWAP1 POP SWAP3 SWAP2 POP POP JUMP JUMPDEST PUSH1 0x0 JUMPDEST DUP4 DUP2 LT ISZERO PUSH2 0x1425 JUMPI DUP1 DUP3 ADD MLOAD DUP2 DUP5 ADD MSTORE PUSH1 0x20 DUP2 ADD SWAP1 POP PUSH2 0x140A JUMP JUMPDEST PUSH1 0x0 DUP5 DUP5 ADD MSTORE POP POP POP POP JUMP JUMPDEST PUSH1 0x0 PUSH2 0x143C DUP3 PUSH2 0x13EB JUMP JUMPDEST PUSH2 0x1446 DUP2 DUP6 PUSH2 0x13F6 JUMP JUMPDEST SWAP4 POP PUSH2 0x1456 DUP2 DUP6 PUSH1 0x20 DUP7 ADD PUSH2 0x1407 JUMP JUMPDEST PUSH2 0x145F DUP2 PUSH2 0x1266 JUMP JUMPDEST DUP5 ADD SWAP2 POP POP SWAP3 SWAP2 POP POP JUMP JUMPDEST PUSH1 0x0 DUP2 SWAP1 POP SWAP2 SWAP1 POP JUMP JUMPDEST PUSH2 0x147D DUP2 PUSH2 0x146A JUMP JUMPDEST DUP3 MSTORE POP POP JUMP JUMPDEST PUSH1 0x0 PUSH1 0x80 DUP3 ADD SWAP1 POP DUP2 DUP2 SUB PUSH1 0x0 DUP4 ADD MSTORE PUSH2 0x149D DUP2 DUP8 PUSH2 0x1431 JUMP JUMPDEST SWAP1 POP PUSH2 0x14AC PUSH1 0x20 DUP4 ADD DUP7 PUSH2 0x1474 JUMP JUMPDEST PUSH2 0x14B9 PUSH1 0x40 DUP4 ADD DUP6 PUSH2 0x1474 JUMP JUMPDEST PUSH2 0x14C6 PUSH1 0x60 DUP4 ADD DUP5 PUSH2 0x1474 JUMP JUMPDEST SWAP6 SWAP5 POP POP POP POP POP JUMP JUMPDEST PUSH1 0x0 PUSH20 0xFFFFFFFFFFFFFFFFFFFFFFFFFFFFFFFFFFFFFFFF DUP3 AND SWAP1 POP SWAP2 SWAP1 POP JUMP JUMPDEST PUSH1 0x0 PUSH2 0x14FA DUP3 PUSH2 0x14CF JUMP JUMPDEST SWAP1 POP SWAP2 SWAP1 POP JUMP JUMPDEST PUSH2 0x150A DUP2 PUSH2 0x14EF JUMP JUMPDEST DUP2 EQ PUSH2 0x1515 JUMPI PUSH1 0x0 DUP1 REVERT JUMPDEST POP JUMP JUMPDEST PUSH1 0x0 DUP2 CALLDATALOAD SWAP1 POP PUSH2 0x1527 DUP2 PUSH2 0x1501 JUMP JUMPDEST SWAP3 SWAP2 POP POP JUMP JUMPDEST PUSH1 0x0 PUSH1 0x20 DUP3 DUP5 SUB SLT ISZERO PUSH2 0x1543 JUMPI PUSH2 0x1542 PUSH2 0x1252 JUMP JUMPDEST JUMPDEST PUSH1 0x0 PUSH2 0x1551 DUP5 DUP3 DUP6 ADD PUSH2 0x1518 JUMP JUMPDEST SWAP2 POP POP SWAP3 SWAP2 POP POP JUMP JUMPDEST PUSH1 0x0 DUP2 MLOAD SWAP1 POP SWAP2 SWAP1 POP JUMP JUMPDEST PUSH1 0x0 DUP3 DUP3 MSTORE PUSH1 0x20 DUP3 ADD SWAP1 POP SWAP3 SWAP2 POP POP JUMP JUMPDEST PUSH1 0x0 DUP2 SWAP1 POP PUSH1 0x20 DUP3 ADD SWAP1 POP SWAP2 SWAP1 POP JUMP JUMPDEST PUSH1 0x0 DUP3 DUP3 MSTORE PUSH1 0x20 DUP3 ADD SWAP1 POP SWAP3 SWAP2 POP POP JUMP JUMPDEST PUSH1 0x0 PUSH2 0x15A2 DUP3 PUSH2 0x13EB JUMP JUMPDEST PUSH2 0x15AC DUP2 DUP6 PUSH2 0x1586 JUMP JUMPDEST SWAP4 POP PUSH2 0x15BC DUP2 DUP6 PUSH1 0x20 DUP7 ADD PUSH2 0x1407 JUMP JUMPDEST PUSH2 0x15C5 DUP2 PUSH2 0x1266 JUMP JUMPDEST DUP5 ADD SWAP2 POP POP SWAP3 SWAP2 POP POP JUMP JUMPDEST PUSH1 0x0 PUSH2 0x15DC DUP4 DUP4 PUSH2 0x1597 JUMP JUMPDEST SWAP1 POP SWAP3 SWAP2 POP POP JUMP JUMPDEST PUSH1 0x0 PUSH1 0x20 DUP3 ADD SWAP1 POP SWAP2 SWAP1 POP JUMP JUMPDEST PUSH1 0x0 PUSH2 0x15FC DUP3 PUSH2 0x155A JUMP JUMPDEST PUSH2 0x1606 DUP2 DUP6 PUSH2 0x1565 JUMP JUMPDEST SWAP4 POP DUP4 PUSH1 0x20 DUP3 MUL DUP6 ADD PUSH2 0x1618 DUP6 PUSH2 0x1576 JUMP JUMPDEST DUP1 PUSH1 0x0 JUMPDEST DUP6 DUP2 LT ISZERO PUSH2 0x1654 JUMPI DUP5 DUP5 SUB DUP10 MSTORE DUP2 MLOAD PUSH2 0x1635 DUP6 DUP3 PUSH2 0x15D0 JUMP JUMPDEST SWAP5 POP PUSH2 0x1640 DUP4 PUSH2 0x15E4 JUMP JUMPDEST SWAP3 POP PUSH1 0x20 DUP11 ADD SWAP10 POP POP PUSH1 0x1 DUP2 ADD SWAP1 POP PUSH2 0x161C JUMP JUMPDEST POP DUP3 SWAP8 POP DUP8 SWAP6 POP POP POP POP POP POP SWAP3 SWAP2 POP POP JUMP JUMPDEST PUSH1 0x0 PUSH1 0x20 DUP3 ADD SWAP1 POP DUP2 DUP2 SUB PUSH1 0x0 DUP4 ADD MSTORE PUSH2 0x1680 DUP2 DUP5 PUSH2 0x15F1 JUMP JUMPDEST SWAP1 POP SWAP3 SWAP2 POP POP JUMP JUMPDEST PUSH1 0x0 PUSH8 0xFFFFFFFFFFFFFFFF DUP3 GT ISZERO PUSH2 0x16A3 JUMPI PUSH2 0x16A2 PUSH2 0x1277 JUMP JUMPDEST JUMPDEST PUSH1 0x20 DUP3 MUL SWAP1 POP PUSH1 0x20 DUP2 ADD SWAP1 POP SWAP2 SWAP1 POP JUMP JUMPDEST PUSH1 0x0 DUP1 REVERT JUMPDEST PUSH1 0x0 PUSH2 0x16CC PUSH2 0x16C7 DUP5 PUSH2 0x1688 JUMP JUMPDEST PUSH2 0x12D7 JUMP JUMPDEST SWAP1 POP DUP1 DUP4 DUP3 MSTORE PUSH1 0x20 DUP3 ADD SWAP1 POP PUSH1 0x20 DUP5 MUL DUP4 ADD DUP6 DUP2 GT ISZERO PUSH2 0x16EF JUMPI PUSH2 0x16EE PUSH2 0x16B4 JUMP JUMPDEST JUMPDEST DUP4 JUMPDEST DUP2 DUP2 LT ISZERO PUSH2 0x1718 JUMPI DUP1 PUSH2 0x1704 DUP9 DUP3 PUSH2 0x1518 JUMP JUMPDEST DUP5 MSTORE PUSH1 0x20 DUP5 ADD SWAP4 POP POP PUSH1 0x20 DUP2 ADD SWAP1 POP PUSH2 0x16F1 JUMP JUMPDEST POP POP POP SWAP4 SWAP3 POP POP POP JUMP JUMPDEST PUSH1 0x0 DUP3 PUSH1 0x1F DUP4 ADD SLT PUSH2 0x1737 JUMPI PUSH2 0x1736 PUSH2 0x125C JUMP JUMPDEST JUMPDEST DUP2 CALLDATALOAD PUSH2 0x1747 DUP5 DUP3 PUSH1 0x20 DUP7 ADD PUSH2 0x16B9 JUMP JUMPDEST SWAP2 POP POP SWAP3 SWAP2 POP POP JUMP JUMPDEST PUSH1 0x0 PUSH8 0xFFFFFFFFFFFFFFFF DUP3 GT ISZERO PUSH2 0x176B JUMPI PUSH2 0x176A PUSH2 0x1277 JUMP JUMPDEST JUMPDEST PUSH1 0x20 DUP3 MUL SWAP1 POP PUSH1 0x20 DUP2 ADD SWAP1 POP SWAP2 SWAP1 POP JUMP JUMPDEST PUSH1 0x0 PUSH2 0x178F PUSH2 0x178A DUP5 PUSH2 0x1750 JUMP JUMPDEST PUSH2 0x12D7 JUMP JUMPDEST SWAP1 POP DUP1 DUP4 DUP3 MSTORE PUSH1 0x20 DUP3 ADD SWAP1 POP PUSH1 0x20 DUP5 MUL DUP4 ADD DUP6 DUP2 GT ISZERO PUSH2 0x17B2 JUMPI PUSH2 0x17B1 PUSH2 0x16B4 JUMP JUMPDEST JUMPDEST DUP4 JUMPDEST DUP2 DUP2 LT ISZERO PUSH2 0x17F9 JUMPI DUP1 CALLDATALOAD PUSH8 0xFFFFFFFFFFFFFFFF DUP2 GT ISZERO PUSH2 0x17D7 JUMPI PUSH2 0x17D6 PUSH2 0x125C JUMP JUMPDEST JUMPDEST DUP1 DUP7 ADD PUSH2 0x17E4 DUP10 DUP3 PUSH2 0x1374 JUMP JUMPDEST DUP6 MSTORE PUSH1 0x20 DUP6 ADD SWAP5 POP POP POP PUSH1 0x20 DUP2 ADD SWAP1 POP PUSH2 0x17B4 JUMP JUMPDEST POP POP POP SWAP4 SWAP3 POP POP POP JUMP JUMPDEST PUSH1 0x0 DUP3 PUSH1 0x1F DUP4 ADD SLT PUSH2 0x1818 JUMPI PUSH2 0x1817 PUSH2 0x125C JUMP JUMPDEST JUMPDEST DUP2 CALLDATALOAD PUSH2 0x1828 DUP5 DUP3 PUSH1 0x20 DUP7 ADD PUSH2 0x177C JUMP JUMPDEST SWAP2 POP POP SWAP3 SWAP2 POP POP JUMP JUMPDEST PUSH2 0x183A DUP2 PUSH2 0x146A JUMP JUMPDEST DUP2 EQ PUSH2 0x1845 JUMPI PUSH1 0x0 DUP1 REVERT JUMPDEST POP JUMP JUMPDEST PUSH1 0x0 DUP2 CALLDATALOAD SWAP1 POP PUSH2 0x1857 DUP2 PUSH2 0x1831 JUMP JUMPDEST SWAP3 SWAP2 POP POP JUMP JUMPDEST PUSH1 0x0 DUP1 PUSH1 0x0 DUP1 PUSH1 0x0 DUP1 PUSH1 0x0 DUP1 PUSH2 0x100 DUP10 DUP12 SUB SLT ISZERO PUSH2 0x187E JUMPI PUSH2 0x187D PUSH2 0x1252 JUMP JUMPDEST JUMPDEST PUSH1 0x0 DUP10 ADD CALLDATALOAD PUSH8 0xFFFFFFFFFFFFFFFF DUP2 GT ISZERO PUSH2 0x189C JUMPI PUSH2 0x189B PUSH2 0x1257 JUMP JUMPDEST JUMPDEST PUSH2 0x18A8 DUP12 DUP3 DUP13 ADD PUSH2 0x1722 JUMP JUMPDEST SWAP9 POP POP PUSH1 0x20 DUP10 ADD CALLDATALOAD PUSH8 0xFFFFFFFFFFFFFFFF DUP2 GT ISZERO PUSH2 0x18C9 JUMPI PUSH2 0x18C8 PUSH2 0x1257 JUMP JUMPDEST JUMPDEST PUSH2 0x18D5 DUP12 DUP3 DUP13 ADD PUSH2 0x1803 JUMP JUMPDEST SWAP8 POP POP PUSH1 0x40 DUP10 ADD CALLDATALOAD PUSH8 0xFFFFFFFFFFFFFFFF DUP2 GT ISZERO PUSH2 0x18F6 JUMPI PUSH2 0x18F5 PUSH2 0x1257 JUMP JUMPDEST JUMPDEST PUSH2 0x1902 DUP12 DUP3 DUP13 ADD PUSH2 0x1374 JUMP JUMPDEST SWAP7 POP POP PUSH1 0x60 DUP10 ADD CALLDATALOAD PUSH8 0xFFFFFFFFFFFFFFFF DUP2 GT ISZERO PUSH2 0x1923 JUMPI PUSH2 0x1922 PUSH2 0x1257 JUMP JUMPDEST JUMPDEST PUSH2 0x192F DUP12 DUP3 DUP13 ADD PUSH2 0x1374 JUMP JUMPDEST SWAP6 POP POP PUSH1 0x80 PUSH2 0x1940 DUP12 DUP3 DUP13 ADD PUSH2 0x1848 JUMP JUMPDEST SWAP5 POP POP PUSH1 0xA0 PUSH2 0x1951 DUP12 DUP3 DUP13 ADD PUSH2 0x1848 JUMP JUMPDEST SWAP4 POP POP PUSH1 0xC0 PUSH2 0x1962 DUP12 DUP3 DUP13 ADD PUSH2 0x1848 JUMP JUMPDEST SWAP3 POP POP PUSH1 0xE0 PUSH2 0x1973 DUP12 DUP3 DUP13 ADD PUSH2 0x1518 JUMP JUMPDEST SWAP2 POP POP SWAP3 SWAP6 SWAP9 POP SWAP3 SWAP6 SWAP9 SWAP1 SWAP4 SWAP7 POP JUMP JUMPDEST PUSH1 0x0 DUP2 ISZERO ISZERO SWAP1 POP SWAP2 SWAP1 POP JUMP JUMPDEST PUSH2 0x1998 DUP2 PUSH2 0x1983 JUMP JUMPDEST DUP3 MSTORE POP POP JUMP JUMPDEST PUSH1 0x0 PUSH1 0x20 DUP3 ADD SWAP1 POP PUSH2 0x19B3 PUSH1 0x0 DUP4 ADD DUP5 PUSH2 0x198F JUMP JUMPDEST SWAP3 SWAP2 POP POP JUMP JUMPDEST PUSH1 0x0 DUP1 PUSH1 0x40 DUP4 DUP6 SUB SLT ISZERO PUSH2 0x19D0 JUMPI PUSH2 0x19CF PUSH2 0x1252 JUMP JUMPDEST JUMPDEST PUSH1 0x0 PUSH2 0x19DE DUP6 DUP3 DUP7 ADD PUSH2 0x1518 JUMP JUMPDEST SWAP3 POP POP PUSH1 0x20 DUP4 ADD CALLDATALOAD PUSH8 0xFFFFFFFFFFFFFFFF DUP2 GT ISZERO PUSH2 0x19FF JUMPI PUSH2 0x19FE PUSH2 0x1257 JUMP JUMPDEST JUMPDEST PUSH2 0x1A0B DUP6 DUP3 DUP7 ADD PUSH2 0x1374 JUMP JUMPDEST SWAP2 POP POP SWAP3 POP SWAP3 SWAP1 POP JUMP JUMPDEST PUSH2 0x1A1E DUP2 PUSH2 0x14EF JUMP JUMPDEST DUP3 MSTORE POP POP JUMP JUMPDEST PUSH1 0x0 PUSH1 0x20 DUP3 ADD SWAP1 POP PUSH2 0x1A39 PUSH1 0x0 DUP4 ADD DUP5 PUSH2 0x1A15 JUMP JUMPDEST SWAP3 SWAP2 POP POP JUMP JUMPDEST PUSH1 0x0 DUP1 PUSH1 0x40 DUP4 DUP6 SUB SLT ISZERO PUSH2 0x1A56 JUMPI PUSH2 0x1A55 PUSH2 0x1252 JUMP JUMPDEST JUMPDEST PUSH1 0x0 PUSH2 0x1A64 DUP6 DUP3 DUP7 ADD PUSH2 0x1518 JUMP JUMPDEST SWAP3 POP POP PUSH1 0x20 PUSH2 0x1A75 DUP6 DUP3 DUP7 ADD PUSH2 0x1848 JUMP JUMPDEST SWAP2 POP POP SWAP3 POP SWAP3 SWAP1 POP JUMP JUMPDEST PUSH1 0x0 PUSH1 0x20 DUP3 ADD SWAP1 POP DUP2 DUP2 SUB PUSH1 0x0 DUP4 ADD MSTORE PUSH2 0x1A99 DUP2 DUP5 PUSH2 0x1431 JUMP JUMPDEST SWAP1 POP SWAP3 SWAP2 POP POP JUMP JUMPDEST PUSH1 0x0 PUSH1 0x20 DUP3 ADD SWAP1 POP PUSH2 0x1AB6 PUSH1 0x0 DUP4 ADD DUP5 PUSH2 0x1474 JUMP JUMPDEST SWAP3 SWAP2 POP POP JUMP JUMPDEST PUSH32 0x4E487B7100000000000000000000000000000000000000000000000000000000 PUSH1 0x0 MSTORE PUSH1 0x22 PUSH1 0x4 MSTORE PUSH1 0x24 PUSH1 0x0 REVERT JUMPDEST PUSH1 0x0 PUSH1 0x2 DUP3 DIV SWAP1 POP PUSH1 0x1 DUP3 AND DUP1 PUSH2 0x1B03 JUMPI PUSH1 0x7F DUP3 AND SWAP2 POP JUMPDEST PUSH1 0x20 DUP3 LT DUP2 SUB PUSH2 0x1B16 JUMPI PUSH2 0x1B15 PUSH2 0x1ABC JUMP JUMPDEST JUMPDEST POP SWAP2 SWAP1 POP JUMP JUMPDEST PUSH32 0x53746F72653A206E6F7420616C6C6F7765642100000000000000000000000000 PUSH1 0x0 DUP3 ADD MSTORE POP JUMP JUMPDEST PUSH1 0x0 PUSH2 0x1B52 PUSH1 0x13 DUP4 PUSH2 0x13F6 JUMP JUMPDEST SWAP2 POP PUSH2 0x1B5D DUP3 PUSH2 0x1B1C JUMP JUMPDEST PUSH1 0x20 DUP3 ADD SWAP1 POP SWAP2 SWAP1 POP JUMP JUMPDEST PUSH1 0x0 PUSH1 0x20 DUP3 ADD SWAP1 POP DUP2 DUP2 SUB PUSH1 0x0 DUP4 ADD MSTORE PUSH2 0x1B81 DUP2 PUSH2 0x1B45 JUMP JUMPDEST SWAP1 POP SWAP2 SWAP1 POP JUMP JUMPDEST PUSH32 0x4E487B7100000000000000000000000000000000000000000000000000000000 PUSH1 0x0 MSTORE PUSH1 0x32 PUSH1 0x4 MSTORE PUSH1 0x24 PUSH1 0x0 REVERT JUMPDEST PUSH1 0x0 DUP2 SWAP1 POP DUP2 PUSH1 0x0 MSTORE PUSH1 0x20 PUSH1 0x0 KECCAK256 SWAP1 POP SWAP2 SWAP1 POP JUMP JUMPDEST PUSH1 0x0 PUSH1 0x20 PUSH1 0x1F DUP4 ADD DIV SWAP1 POP SWAP2 SWAP1 POP JUMP JUMPDEST PUSH1 0x0 DUP3 DUP3 SHL SWAP1 POP SWAP3 SWAP2 POP POP JUMP JUMPDEST PUSH1 0x0 PUSH1 0x8 DUP4 MUL PUSH2 0x1C19 PUSH32 0xFFFFFFFFFFFFFFFFFFFFFFFFFFFFFFFFFFFFFFFFFFFFFFFFFFFFFFFFFFFFFFFF DUP3 PUSH2 0x1BDC JUMP JUMPDEST PUSH2 0x1C23 DUP7 DUP4 PUSH2 0x1BDC JUMP JUMPDEST SWAP6 POP DUP1 NOT DUP5 AND SWAP4 POP DUP1 DUP7 AND DUP5 OR SWAP3 POP POP POP SWAP4 SWAP3 POP POP POP JUMP JUMPDEST PUSH1 0x0 DUP2 SWAP1 POP SWAP2 SWAP1 POP JUMP JUMPDEST PUSH1 0x0 PUSH2 0x1C60 PUSH2 0x1C5B PUSH2 0x1C56 DUP5 PUSH2 0x146A JUMP JUMPDEST PUSH2 0x1C3B JUMP JUMPDEST PUSH2 0x146A JUMP JUMPDEST SWAP1 POP SWAP2 SWAP1 POP JUMP JUMPDEST PUSH1 0x0 DUP2 SWAP1 POP SWAP2 SWAP1 POP JUMP JUMPDEST PUSH2 0x1C7A DUP4 PUSH2 0x1C45 JUMP JUMPDEST PUSH2 0x1C8E PUSH2 0x1C86 DUP3 PUSH2 0x1C67 JUMP JUMPDEST DUP5 DUP5 SLOAD PUSH2 0x1BE9 JUMP JUMPDEST DUP3 SSTORE POP POP POP POP JUMP JUMPDEST PUSH1 0x0 SWAP1 JUMP JUMPDEST PUSH2 0x1CA3 PUSH2 0x1C96 JUMP JUMPDEST PUSH2 0x1CAE DUP2 DUP5 DUP5 PUSH2 0x1C71 JUMP JUMPDEST POP POP POP JUMP JUMPDEST JUMPDEST DUP2 DUP2 LT ISZERO PUSH2 0x1CD2 JUMPI PUSH2 0x1CC7 PUSH1 0x0 DUP3 PUSH2 0x1C9B JUMP JUMPDEST PUSH1 0x1 DUP2 ADD SWAP1 POP PUSH2 0x1CB4 JUMP JUMPDEST POP POP JUMP JUMPDEST PUSH1 0x1F DUP3 GT ISZERO PUSH2 0x1D17 JUMPI PUSH2 0x1CE8 DUP2 PUSH2 0x1BB7 JUMP JUMPDEST PUSH2 0x1CF1 DUP5 PUSH2 0x1BCC JUMP JUMPDEST DUP2 ADD PUSH1 0x20 DUP6 LT ISZERO PUSH2 0x1D00 JUMPI DUP2 SWAP1 POP JUMPDEST PUSH2 0x1D14 PUSH2 0x1D0C DUP6 PUSH2 0x1BCC JUMP JUMPDEST DUP4 ADD DUP3 PUSH2 0x1CB3 JUMP JUMPDEST POP POP JUMPDEST POP POP POP JUMP JUMPDEST PUSH1 0x0 DUP3 DUP3 SHR SWAP1 POP SWAP3 SWAP2 POP POP JUMP JUMPDEST PUSH1 0x0 PUSH2 0x1D3A PUSH1 0x0 NOT DUP5 PUSH1 0x8 MUL PUSH2 0x1D1C JUMP JUMPDEST NOT DUP1 DUP4 AND SWAP2 POP POP SWAP3 SWAP2 POP POP JUMP JUMPDEST PUSH1 0x0 PUSH2 0x1D53 DUP4 DUP4 PUSH2 0x1D29 JUMP JUMPDEST SWAP2 POP DUP3 PUSH1 0x2 MUL DUP3 OR SWAP1 POP SWAP3 SWAP2 POP POP JUMP JUMPDEST PUSH2 0x1D6C DUP3 PUSH2 0x13EB JUMP JUMPDEST PUSH8 0xFFFFFFFFFFFFFFFF DUP2 GT ISZERO PUSH2 0x1D85 JUMPI PUSH2 0x1D84 PUSH2 0x1277 JUMP JUMPDEST JUMPDEST PUSH2 0x1D8F DUP3 SLOAD PUSH2 0x1AEB JUMP JUMPDEST PUSH2 0x1D9A DUP3 DUP3 DUP6 PUSH2 0x1CD6 JUMP JUMPDEST PUSH1 0x0 PUSH1 0x20 SWAP1 POP PUSH1 0x1F DUP4 GT PUSH1 0x1 DUP2 EQ PUSH2 0x1DCD JUMPI PUSH1 0x0 DUP5 ISZERO PUSH2 0x1DBB JUMPI DUP3 DUP8 ADD MLOAD SWAP1 POP JUMPDEST PUSH2 0x1DC5 DUP6 DUP3 PUSH2 0x1D47 JUMP JUMPDEST DUP7 SSTORE POP PUSH2 0x1E2D JUMP JUMPDEST PUSH1 0x1F NOT DUP5 AND PUSH2 0x1DDB DUP7 PUSH2 0x1BB7 JUMP JUMPDEST PUSH1 0x0 JUMPDEST DUP3 DUP2 LT ISZERO PUSH2 0x1E03 JUMPI DUP5 DUP10 ADD MLOAD DUP3 SSTORE PUSH1 0x1 DUP3 ADD SWAP2 POP PUSH1 0x20 DUP6 ADD SWAP5 POP PUSH1 0x20 DUP2 ADD SWAP1 POP PUSH2 0x1DDE JUMP JUMPDEST DUP7 DUP4 LT ISZERO PUSH2 0x1E20 JUMPI DUP5 DUP10 ADD MLOAD PUSH2 0x1E1C PUSH1 0x1F DUP10 AND DUP3 PUSH2 0x1D29 JUMP JUMPDEST DUP4 SSTORE POP JUMPDEST PUSH1 0x1 PUSH1 0x2 DUP9 MUL ADD DUP9 SSTORE POP POP POP JUMPDEST POP POP POP POP POP POP JUMP JUMPDEST PUSH1 0x0 DUP2 SWAP1 POP SWAP3 SWAP2 POP POP JUMP JUMPDEST PUSH1 0x0 PUSH2 0x1E4B DUP3 PUSH2 0x13EB JUMP JUMPDEST PUSH2 0x1E55 DUP2 DUP6 PUSH2 0x1E35 JUMP JUMPDEST SWAP4 POP PUSH2 0x1E65 DUP2 DUP6 PUSH1 0x20 DUP7 ADD PUSH2 0x1407 JUMP JUMPDEST DUP1 DUP5 ADD SWAP2 POP POP SWAP3 SWAP2 POP POP JUMP JUMPDEST PUSH1 0x0 PUSH2 0x1E7D DUP3 DUP5 PUSH2 0x1E40 JUMP JUMPDEST SWAP2 POP DUP2 SWAP1 POP SWAP3 SWAP2 POP POP JUMP JUMPDEST PUSH1 0x0 PUSH1 0x40 DUP3 ADD SWAP1 POP DUP2 DUP2 SUB PUSH1 0x0 DUP4 ADD MSTORE PUSH2 0x1EA2 DUP2 DUP6 PUSH2 0x1431 JUMP JUMPDEST SWAP1 POP DUP2 DUP2 SUB PUSH1 0x20 DUP4 ADD MSTORE PUSH2 0x1EB6 DUP2 DUP5 PUSH2 0x1431 JUMP JUMPDEST SWAP1 POP SWAP4 SWAP3 POP POP POP JUMP JUMPDEST PUSH32 0x4F776E61626C653A206E6577206F776E657220697320746865207A65726F2061 PUSH1 0x0 DUP3 ADD MSTORE PUSH32 0x6464726573730000000000000000000000000000000000000000000000000000 PUSH1 0x20 DUP3 ADD MSTORE POP JUMP JUMPDEST PUSH1 0x0 PUSH2 0x1F1B PUSH1 0x26 DUP4 PUSH2 0x13F6 JUMP JUMPDEST SWAP2 POP PUSH2 0x1F26 DUP3 PUSH2 0x1EBF JUMP JUMPDEST PUSH1 0x40 DUP3 ADD SWAP1 POP SWAP2 SWAP1 POP JUMP JUMPDEST PUSH1 0x0 PUSH1 0x20 DUP3 ADD SWAP1 POP DUP2 DUP2 SUB PUSH1 0x0 DUP4 ADD MSTORE PUSH2 0x1F4A DUP2 PUSH2 0x1F0E JUMP JUMPDEST SWAP1 POP SWAP2 SWAP1 POP JUMP JUMPDEST PUSH32 0x4E487B7100000000000000000000000000000000000000000000000000000000 PUSH1 0x0 MSTORE PUSH1 0x11 PUSH1 0x4 MSTORE PUSH1 0x24 PUSH1 0x0 REVERT JUMPDEST PUSH1 0x0 PUSH2 0x1F8B DUP3 PUSH2 0x146A JUMP JUMPDEST SWAP2 POP PUSH2 0x1F96 DUP4 PUSH2 0x146A JUMP JUMPDEST SWAP3 POP DUP3 DUP3 ADD SWAP1 POP DUP1 DUP3 GT ISZERO PUSH2 0x1FAE JUMPI PUSH2 0x1FAD PUSH2 0x1F51 JUMP JUMPDEST JUMPDEST SWAP3 SWAP2 POP POP JUMP JUMPDEST PUSH1 0x0 PUSH2 0x1FBF DUP3 PUSH2 0x146A JUMP JUMPDEST SWAP2 POP PUSH2 0x1FCA DUP4 PUSH2 0x146A JUMP JUMPDEST SWAP3 POP DUP3 DUP3 SUB SWAP1 POP DUP2 DUP2 GT ISZERO PUSH2 0x1FE2 JUMPI PUSH2 0x1FE1 PUSH2 0x1F51 JUMP JUMPDEST JUMPDEST SWAP3 SWAP2 POP POP JUMP JUMPDEST PUSH32 0x5265656E7472616E637947756172643A207265656E7472616E742063616C6C00 PUSH1 0x0 DUP3 ADD MSTORE POP JUMP JUMPDEST PUSH1 0x0 PUSH2 0x201E PUSH1 0x1F DUP4 PUSH2 0x13F6 JUMP JUMPDEST SWAP2 POP PUSH2 0x2029 DUP3 PUSH2 0x1FE8 JUMP JUMPDEST PUSH1 0x20 DUP3 ADD SWAP1 POP SWAP2 SWAP1 POP JUMP JUMPDEST PUSH1 0x0 PUSH1 0x20 DUP3 ADD SWAP1 POP DUP2 DUP2 SUB PUSH1 0x0 DUP4 ADD MSTORE PUSH2 0x204D DUP2 PUSH2 0x2011 JUMP JUMPDEST SWAP1 POP SWAP2 SWAP1 POP JUMP JUMPDEST PUSH32 0x456C656D656E74206E6F7420696E207365742100000000000000000000000000 PUSH1 0x0 DUP3 ADD MSTORE POP JUMP JUMPDEST PUSH1 0x0 PUSH2 0x208A PUSH1 0x13 DUP4 PUSH2 0x13F6 JUMP JUMPDEST SWAP2 POP PUSH2 0x2095 DUP3 PUSH2 0x2054 JUMP JUMPDEST PUSH1 0x20 DUP3 ADD SWAP1 POP SWAP2 SWAP1 POP JUMP JUMPDEST PUSH1 0x0 PUSH1 0x20 DUP3 ADD SWAP1 POP DUP2 DUP2 SUB PUSH1 0x0 DUP4 ADD MSTORE PUSH2 0x20B9 DUP2 PUSH2 0x207D JUMP JUMPDEST SWAP1 POP SWAP2 SWAP1 POP JUMP JUMPDEST PUSH32 0x4E487B7100000000000000000000000000000000000000000000000000000000 PUSH1 0x0 MSTORE PUSH1 0x31 PUSH1 0x4 MSTORE PUSH1 0x24 PUSH1 0x0 REVERT JUMPDEST PUSH32 0x4F776E61626C653A2063616C6C6572206973206E6F7420746865206F776E6572 PUSH1 0x0 DUP3 ADD MSTORE POP JUMP JUMPDEST PUSH1 0x0 PUSH2 0x2125 PUSH1 0x20 DUP4 PUSH2 0x13F6 JUMP JUMPDEST SWAP2 POP PUSH2 0x2130 DUP3 PUSH2 0x20EF JUMP JUMPDEST PUSH1 0x20 DUP3 ADD SWAP1 POP SWAP2 SWAP1 POP JUMP JUMPDEST PUSH1 0x0 PUSH1 0x20 DUP3 ADD SWAP1 POP DUP2 DUP2 SUB PUSH1 0x0 DUP4 ADD MSTORE PUSH2 0x2154 DUP2 PUSH2 0x2118 JUMP JUMPDEST SWAP1 POP SWAP2 SWAP1 POP JUMP JUMPDEST PUSH1 0x0 DUP2 SWAP1 POP SWAP3 SWAP2 POP POP JUMP JUMPDEST PUSH1 0x0 DUP2 SWAP1 POP DUP2 PUSH1 0x0 MSTORE PUSH1 0x20 PUSH1 0x0 KECCAK256 SWAP1 POP SWAP2 SWAP1 POP JUMP JUMPDEST PUSH1 0x0 DUP2 SLOAD PUSH2 0x2188 DUP2 PUSH2 0x1AEB JUMP JUMPDEST PUSH2 0x2192 DUP2 DUP7 PUSH2 0x215B JUMP JUMPDEST SWAP5 POP PUSH1 0x1 DUP3 AND PUSH1 0x0 DUP2 EQ PUSH2 0x21AD JUMPI PUSH1 0x1 DUP2 EQ PUSH2 0x21C2 JUMPI PUSH2 0x21F5 JUMP JUMPDEST PUSH1 0xFF NOT DUP4 AND DUP7 MSTORE DUP2 ISZERO ISZERO DUP3 MUL DUP7 ADD SWAP4 POP PUSH2 0x21F5 JUMP JUMPDEST PUSH2 0x21CB DUP6 PUSH2 0x2166 JUMP JUMPDEST PUSH1 0x0 JUMPDEST DUP4 DUP2 LT ISZERO PUSH2 0x21ED JUMPI DUP2 SLOAD DUP2 DUP10 ADD MSTORE PUSH1 0x1 DUP3 ADD SWAP2 POP PUSH1 0x20 DUP2 ADD SWAP1 POP PUSH2 0x21CE JUMP JUMPDEST DUP4 DUP9 ADD SWAP6 POP POP POP JUMPDEST POP POP POP SWAP3 SWAP2 POP POP JUMP JUMPDEST PUSH1 0x0 PUSH2 0x220A DUP3 DUP5 PUSH2 0x217B JUMP JUMPDEST SWAP2 POP DUP2 SWAP1 POP SWAP3 SWAP2 POP POP JUMP INVALID LOG2 PUSH5 0x6970667358 0x22 SLT KECCAK256 CALLER DUP10 PUSH3 0xAFBBA0 0x1E 0xD8 SSTORE LT SWAP3 ORIGIN SGT 0x4E 0xD1 PUSH17 0xDD195777268239770172CE303B54F7C264 PUSH20 0x6F6C634300081200330000000000000000000000 "
				},
				"gasEstimates": {
					"creation": {
						"codeDepositCost": "1755800",
						"executionCost": "infinite",
						"totalCost": "infinite"
					},
					"external": {
						"cidList(address,uint256)": "infinite",
						"cidMeta(string)": "infinite",
						"cidOwner(string)": "infinite",
						"delFileHash(address,string)": "infinite",
						"getMinerAllHash(address)": "infinite",
						"getlength(address)": "2942",
						"owner()": "2522",
						"pledge()": "2625",
						"renounceOwnership()": "30487",
						"transferOwnership(address)": "30832",
						"uploadMetaData(address[],string[],string,string,uint256,uint256,uint256,address)": "infinite",
						"userCidLength(address)": "2924"
					}
				},
				"methodIdentifiers": {
					"cidList(address,uint256)": "d3ef12e3",
					"cidMeta(string)": "0ca204a0",
					"cidOwner(string)": "e220574b",
					"delFileHash(address,string)": "4843c0be",
					"getMinerAllHash(address)": "3fda2a00",
					"getlength(address)": "db8dc059",
					"owner()": "8da5cb5b",
					"pledge()": "88ffe867",
					"renounceOwnership()": "715018a6",
					"transferOwnership(address)": "f2fde38b",
					"uploadMetaData(address[],string[],string,string,uint256,uint256,uint256,address)": "47618f18",
					"userCidLength(address)": "f5d3c86f"
				}
			},
			"storageLayout": {
				"storage": [
					{
						"astId": 7,
						"contract": "Store.sol:Store",
						"label": "_owner",
						"offset": 0,
						"slot": "0",
						"type": "t_address"
					},
					{
						"astId": 123,
						"contract": "Store.sol:Store",
						"label": "_status",
						"offset": 0,
						"slot": "1",
						"type": "t_uint256"
					},
					{
						"astId": 213,
						"contract": "Store.sol:Store",
						"label": "pledge",
						"offset": 0,
						"slot": "2",
						"type": "t_address"
					},
					{
						"astId": 215,
						"contract": "Store.sol:Store",
						"label": "incrementLinkId",
						"offset": 0,
						"slot": "3",
						"type": "t_uint256"
					},
					{
						"astId": 219,
						"contract": "Store.sol:Store",
						"label": "admins",
						"offset": 0,
						"slot": "4",
						"type": "t_mapping(t_address,t_bool)"
					},
					{
						"astId": 223,
						"contract": "Store.sol:Store",
						"label": "userCidLength",
						"offset": 0,
						"slot": "5",
						"type": "t_mapping(t_address,t_uint256)"
					},
					{
						"astId": 228,
						"contract": "Store.sol:Store",
						"label": "cidList",
						"offset": 0,
						"slot": "6",
						"type": "t_mapping(t_address,t_array(t_string_storage)dyn_storage)"
					},
					{
						"astId": 233,
						"contract": "Store.sol:Store",
						"label": "cidMeta",
						"offset": 0,
						"slot": "7",
						"type": "t_mapping(t_string_memory_ptr,t_struct(Meta)441_storage)"
					},
					{
						"astId": 237,
						"contract": "Store.sol:Store",
						"label": "cidOwner",
						"offset": 0,
						"slot": "8",
						"type": "t_mapping(t_string_memory_ptr,t_address)"
					},
					{
						"astId": 242,
						"contract": "Store.sol:Store",
						"label": "minerOwnHash",
						"offset": 0,
						"slot": "9",
						"type": "t_mapping(t_address,t_struct(LinkIdSet)483_storage)"
					}
				],
				"types": {
					"t_address": {
						"encoding": "inplace",
						"label": "address",
						"numberOfBytes": "20"
					},
					"t_array(t_address)dyn_storage": {
						"base": "t_address",
						"encoding": "dynamic_array",
						"label": "address[]",
						"numberOfBytes": "32"
					},
					"t_array(t_string_storage)dyn_storage": {
						"base": "t_string_storage",
						"encoding": "dynamic_array",
						"label": "string[]",
						"numberOfBytes": "32"
					},
					"t_bool": {
						"encoding": "inplace",
						"label": "bool",
						"numberOfBytes": "1"
					},
					"t_mapping(t_address,t_array(t_string_storage)dyn_storage)": {
						"encoding": "mapping",
						"key": "t_address",
						"label": "mapping(address => string[])",
						"numberOfBytes": "32",
						"value": "t_array(t_string_storage)dyn_storage"
					},
					"t_mapping(t_address,t_bool)": {
						"encoding": "mapping",
						"key": "t_address",
						"label": "mapping(address => bool)",
						"numberOfBytes": "32",
						"value": "t_bool"
					},
					"t_mapping(t_address,t_struct(LinkIdSet)483_storage)": {
						"encoding": "mapping",
						"key": "t_address",
						"label": "mapping(address => struct LinkIdSetLib.LinkIdSet)",
						"numberOfBytes": "32",
						"value": "t_struct(LinkIdSet)483_storage"
					},
					"t_mapping(t_address,t_uint256)": {
						"encoding": "mapping",
						"key": "t_address",
						"label": "mapping(address => uint256)",
						"numberOfBytes": "32",
						"value": "t_uint256"
					},
					"t_mapping(t_string_memory_ptr,t_address)": {
						"encoding": "mapping",
						"key": "t_string_memory_ptr",
						"label": "mapping(string => address)",
						"numberOfBytes": "32",
						"value": "t_address"
					},
					"t_mapping(t_string_memory_ptr,t_struct(Meta)441_storage)": {
						"encoding": "mapping",
						"key": "t_string_memory_ptr",
						"label": "mapping(string => struct IStore.Meta)",
						"numberOfBytes": "32",
						"value": "t_struct(Meta)441_storage"
					},
					"t_mapping(t_string_memory_ptr,t_uint256)": {
						"encoding": "mapping",
						"key": "t_string_memory_ptr",
						"label": "mapping(string => uint256)",
						"numberOfBytes": "32",
						"value": "t_uint256"
					},
					"t_string_memory_ptr": {
						"encoding": "bytes",
						"label": "string",
						"numberOfBytes": "32"
					},
					"t_string_storage": {
						"encoding": "bytes",
						"label": "string",
						"numberOfBytes": "32"
					},
					"t_struct(LinkIdSet)483_storage": {
						"encoding": "inplace",
						"label": "struct LinkIdSetLib.LinkIdSet",
						"members": [
							{
								"astId": 478,
								"contract": "Store.sol:Store",
								"label": "elements",
								"offset": 0,
								"slot": "0",
								"type": "t_array(t_string_storage)dyn_storage"
							},
							{
								"astId": 482,
								"contract": "Store.sol:Store",
								"label": "indices",
								"offset": 0,
								"slot": "1",
								"type": "t_mapping(t_string_memory_ptr,t_uint256)"
							}
						],
						"numberOfBytes": "64"
					},
					"t_struct(Meta)441_storage": {
						"encoding": "inplace",
						"label": "struct IStore.Meta",
						"members": [
							{
								"astId": 429,
								"contract": "Store.sol:Store",
								"label": "miner",
								"offset": 0,
								"slot": "0",
								"type": "t_array(t_address)dyn_storage"
							},
							{
								"astId": 432,
								"contract": "Store.sol:Store",
								"label": "content",
								"offset": 0,
								"slot": "1",
								"type": "t_array(t_string_storage)dyn_storage"
							},
							{
								"astId": 434,
								"contract": "Store.sol:Store",
								"label": "ext",
								"offset": 0,
								"slot": "2",
								"type": "t_string_storage"
							},
							{
								"astId": 436,
								"contract": "Store.sol:Store",
								"label": "size",
								"offset": 0,
								"slot": "3",
								"type": "t_uint256"
							},
							{
								"astId": 438,
								"contract": "Store.sol:Store",
								"label": "dataShards",
								"offset": 0,
								"slot": "4",
								"type": "t_uint256"
							},
							{
								"astId": 440,
								"contract": "Store.sol:Store",
								"label": "parityShards",
								"offset": 0,
								"slot": "5",
								"type": "t_uint256"
							}
						],
						"numberOfBytes": "192"
					},
					"t_uint256": {
						"encoding": "inplace",
						"label": "uint256",
						"numberOfBytes": "32"
					}
				}
			},
			"userdoc": {
				"kind": "user",
				"methods": {},
				"version": 1
			}
		}
	}
}