{
	"Pool.sol": {
		"Pool": {
			"abi": [
				{
					"inputs": [
						{
							"internalType": "address",
							"name": "token_",
							"type": "address"
						}
					],
					"stateMutability": "nonpayable",
					"type": "constructor"
				},
				{
					"anonymous": false,
					"inputs": [
						{
							"indexed": true,
							"internalType": "address",
							"name": "user",
							"type": "address"
						},
						{
							"indexed": false,
							"internalType": "uint256",
							"name": "amount",
							"type": "uint256"
						}
					],
					"name": "DepositEvent",
					"type": "event"
				},
				{
					"anonymous": false,
					"inputs": [
						{
							"indexed": true,
							"internalType": "address",
							"name": "previousOwner",
							"type": "address"
						},
						{
							"indexed": true,
							"internalType": "address",
							"name": "newOwner",
							"type": "address"
						}
					],
					"name": "OwnershipTransferred",
					"type": "event"
				},
				{
					"anonymous": false,
					"inputs": [
						{
							"indexed": true,
							"internalType": "address",
							"name": "from",
							"type": "address"
						},
						{
							"indexed": true,
							"internalType": "address",
							"name": "to",
							"type": "address"
						},
						{
							"indexed": false,
							"internalType": "uint256",
							"name": "amount",
							"type": "uint256"
						}
					],
					"name": "WithdrawEvent",
					"type": "event"
				},
				{
					"inputs": [
						{
							"internalType": "address",
							"name": "",
							"type": "address"
						}
					],
					"name": "adminList",
					"outputs": [
						{
							"internalType": "bool",
							"name": "",
							"type": "bool"
						}
					],
					"stateMutability": "view",
					"type": "function"
				},
				{
					"inputs": [],
					"name": "claim",
					"outputs": [],
					"stateMutability": "nonpayable",
					"type": "function"
				},
				{
					"inputs": [],
					"name": "deposit",
					"outputs": [],
					"stateMutability": "payable",
					"type": "function"
				},
				{
					"inputs": [],
					"name": "owner",
					"outputs": [
						{
							"internalType": "address",
							"name": "",
							"type": "address"
						}
					],
					"stateMutability": "view",
					"type": "function"
				},
				{
					"inputs": [],
					"name": "renounceOwnership",
					"outputs": [],
					"stateMutability": "nonpayable",
					"type": "function"
				},
				{
					"inputs": [
						{
							"internalType": "address",
							"name": "addr_",
							"type": "address"
						}
					],
					"name": "setAdmin",
					"outputs": [],
					"stateMutability": "nonpayable",
					"type": "function"
				},
				{
					"inputs": [],
					"name": "token",
					"outputs": [
						{
							"internalType": "address",
							"name": "",
							"type": "address"
						}
					],
					"stateMutability": "view",
					"type": "function"
				},
				{
					"inputs": [
						{
							"internalType": "address",
							"name": "newOwner",
							"type": "address"
						}
					],
					"name": "transferOwnership",
					"outputs": [],
					"stateMutability": "nonpayable",
					"type": "function"
				},
				{
					"inputs": [
						{
							"internalType": "address",
							"name": "user_",
							"type": "address"
						},
						{
							"internalType": "uint256",
							"name": "amount_",
							"type": "uint256"
						}
					],
					"name": "withdrawToken",
					"outputs": [],
					"stateMutability": "nonpayable",
					"type": "function"
				},
				{
					"stateMutability": "payable",
					"type": "receive"
				}
			],
			"devdoc": {
				"kind": "dev",
				"methods": {
					"owner()": {
						"details": "Returns the address of the current owner."
					},
					"renounceOwnership()": {
						"details": "Leaves the contract without owner. It will not be possible to call `onlyOwner` functions. Can only be called by the current owner. NOTE: Renouncing ownership will leave the contract without an owner, thereby disabling any functionality that is only available to the owner."
					},
					"transferOwnership(address)": {
						"details": "Transfers ownership of the contract to a new account (`newOwner`). Can only be called by the current owner."
					}
				},
				"version": 1
			},
			"evm": {
				"assembly": "    /* \"Pool.sol\":266:1492  contract Pool is Ownable, ReentrancyGuard, IPool {... */\n  mstore(0x40, 0x80)\n    /* \"Pool.sol\":678:737  constructor(address token_) {... */\n  callvalue\n  dup1\n  iszero\n  tag_1\n  jumpi\n  0x00\n  dup1\n  revert\ntag_1:\n  pop\n  mload(0x40)\n  sub(codesize, bytecodeSize)\n  dup1\n  bytecodeSize\n  dup4\n  codecopy\n  dup2\n  dup2\n  add\n  0x40\n  mstore\n  dup2\n  add\n  swap1\n  tag_2\n  swap2\n  swap1\n  tag_3\n  jump\t// in\ntag_2:\n    /* \"@openzeppelin/contracts/access/Ownable.sol\":936:968  _transferOwnership(_msgSender()) */\n  tag_8\n    /* \"@openzeppelin/contracts/access/Ownable.sol\":955:967  _msgSender() */\n  tag_9\n    /* \"@openzeppelin/contracts/access/Ownable.sol\":955:965  _msgSender */\n  shl(0x20, tag_10)\n    /* \"@openzeppelin/contracts/access/Ownable.sol\":955:967  _msgSender() */\n  0x20\n  shr\n  jump\t// in\ntag_9:\n    /* \"@openzeppelin/contracts/access/Ownable.sol\":936:954  _transferOwnership */\n  shl(0x20, tag_11)\n    /* \"@openzeppelin/contracts/access/Ownable.sol\":936:968  _transferOwnership(_msgSender()) */\n  0x20\n  shr\n  jump\t// in\ntag_8:\n    /* \"@openzeppelin/contracts/security/ReentrancyGuard.sol\":1716:1717  1 */\n  0x01\n    /* \"@openzeppelin/contracts/security/ReentrancyGuard.sol\":1821:1828  _status */\n  dup1\n    /* \"@openzeppelin/contracts/security/ReentrancyGuard.sol\":1821:1843  _status = _NOT_ENTERED */\n  dup2\n  swap1\n  sstore\n  pop\n    /* \"Pool.sol\":724:730  token_ */\n  dup1\n    /* \"Pool.sol\":716:721  token */\n  0x02\n  0x00\n    /* \"Pool.sol\":716:730  token = token_ */\n  0x0100\n  exp\n  dup2\n  sload\n  dup2\n  0xffffffffffffffffffffffffffffffffffffffff\n  mul\n  not\n  and\n  swap1\n  dup4\n  0xffffffffffffffffffffffffffffffffffffffff\n  and\n  mul\n  or\n  swap1\n  sstore\n  pop\n    /* \"Pool.sol\":678:737  constructor(address token_) {... */\n  pop\n    /* \"Pool.sol\":266:1492  contract Pool is Ownable, ReentrancyGuard, IPool {... */\n  jump(tag_14)\n    /* \"@openzeppelin/contracts/utils/Context.sol\":640:736  function _msgSender() internal view virtual returns (address) {... */\ntag_10:\n    /* \"@openzeppelin/contracts/utils/Context.sol\":693:700  address */\n  0x00\n    /* \"@openzeppelin/contracts/utils/Context.sol\":719:729  msg.sender */\n  caller\n    /* \"@openzeppelin/contracts/utils/Context.sol\":712:729  return msg.sender */\n  swap1\n  pop\n    /* \"@openzeppelin/contracts/utils/Context.sol\":640:736  function _msgSender() internal view virtual returns (address) {... */\n  swap1\n  jump\t// out\n    /* \"@openzeppelin/contracts/access/Ownable.sol\":2426:2613  function _transferOwnership(address newOwner) internal virtual {... */\ntag_11:\n    /* \"@openzeppelin/contracts/access/Ownable.sol\":2499:2515  address oldOwner */\n  0x00\n    /* \"@openzeppelin/contracts/access/Ownable.sol\":2518:2524  _owner */\n  dup1\n  0x00\n  swap1\n  sload\n  swap1\n  0x0100\n  exp\n  swap1\n  div\n  0xffffffffffffffffffffffffffffffffffffffff\n  and\n    /* \"@openzeppelin/contracts/access/Ownable.sol\":2499:2524  address oldOwner = _owner */\n  swap1\n  pop\n    /* \"@openzeppelin/contracts/access/Ownable.sol\":2543:2551  newOwner */\n  dup2\n    /* \"@openzeppelin/contracts/access/Ownable.sol\":2534:2540  _owner */\n  0x00\n  dup1\n    /* \"@openzeppelin/contracts/access/Ownable.sol\":2534:2551  _owner = newOwner */\n  0x0100\n  exp\n  dup2\n  sload\n  dup2\n  0xffffffffffffffffffffffffffffffffffffffff\n  mul\n  not\n  and\n  swap1\n  dup4\n  0xffffffffffffffffffffffffffffffffffffffff\n  and\n  mul\n  or\n  swap1\n  sstore\n  pop\n    /* \"@openzeppelin/contracts/access/Ownable.sol\":2597:2605  newOwner */\n  dup2\n    /* \"@openzeppelin/contracts/access/Ownable.sol\":2566:2606  OwnershipTransferred(oldOwner, newOwner) */\n  0xffffffffffffffffffffffffffffffffffffffff\n  and\n    /* \"@openzeppelin/contracts/access/Ownable.sol\":2587:2595  oldOwner */\n  dup2\n    /* \"@openzeppelin/contracts/access/Ownable.sol\":2566:2606  OwnershipTransferred(oldOwner, newOwner) */\n  0xffffffffffffffffffffffffffffffffffffffff\n  and\n  0x8be0079c531659141344cd1fd0a4f28419497f9722a3daafe3b4186f6b6457e0\n  mload(0x40)\n  mload(0x40)\n  dup1\n  swap2\n  sub\n  swap1\n  log3\n    /* \"@openzeppelin/contracts/access/Ownable.sol\":2489:2613  {... */\n  pop\n    /* \"@openzeppelin/contracts/access/Ownable.sol\":2426:2613  function _transferOwnership(address newOwner) internal virtual {... */\n  pop\n  jump\t// out\n    /* \"#utility.yul\":88:205   */\ntag_18:\n    /* \"#utility.yul\":197:198   */\n  0x00\n    /* \"#utility.yul\":194:195   */\n  dup1\n    /* \"#utility.yul\":187:199   */\n  revert\n    /* \"#utility.yul\":334:460   */\ntag_20:\n    /* \"#utility.yul\":371:378   */\n  0x00\n    /* \"#utility.yul\":411:453   */\n  0xffffffffffffffffffffffffffffffffffffffff\n    /* \"#utility.yul\":404:409   */\n  dup3\n    /* \"#utility.yul\":400:454   */\n  and\n    /* \"#utility.yul\":389:454   */\n  swap1\n  pop\n    /* \"#utility.yul\":334:460   */\n  swap2\n  swap1\n  pop\n  jump\t// out\n    /* \"#utility.yul\":466:562   */\ntag_21:\n    /* \"#utility.yul\":503:510   */\n  0x00\n    /* \"#utility.yul\":532:556   */\n  tag_30\n    /* \"#utility.yul\":550:555   */\n  dup3\n    /* \"#utility.yul\":532:556   */\n  tag_20\n  jump\t// in\ntag_30:\n    /* \"#utility.yul\":521:556   */\n  swap1\n  pop\n    /* \"#utility.yul\":466:562   */\n  swap2\n  swap1\n  pop\n  jump\t// out\n    /* \"#utility.yul\":568:690   */\ntag_22:\n    /* \"#utility.yul\":641:665   */\n  tag_32\n    /* \"#utility.yul\":659:664   */\n  dup2\n    /* \"#utility.yul\":641:665   */\n  tag_21\n  jump\t// in\ntag_32:\n    /* \"#utility.yul\":634:639   */\n  dup2\n    /* \"#utility.yul\":631:666   */\n  eq\n    /* \"#utility.yul\":621:684   */\n  tag_33\n  jumpi\n    /* \"#utility.yul\":680:681   */\n  0x00\n    /* \"#utility.yul\":677:678   */\n  dup1\n    /* \"#utility.yul\":670:682   */\n  revert\n    /* \"#utility.yul\":621:684   */\ntag_33:\n    /* \"#utility.yul\":568:690   */\n  pop\n  jump\t// out\n    /* \"#utility.yul\":696:839   */\ntag_23:\n    /* \"#utility.yul\":753:758   */\n  0x00\n    /* \"#utility.yul\":784:790   */\n  dup2\n    /* \"#utility.yul\":778:791   */\n  mload\n    /* \"#utility.yul\":769:791   */\n  swap1\n  pop\n    /* \"#utility.yul\":800:833   */\n  tag_35\n    /* \"#utility.yul\":827:832   */\n  dup2\n    /* \"#utility.yul\":800:833   */\n  tag_22\n  jump\t// in\ntag_35:\n    /* \"#utility.yul\":696:839   */\n  swap3\n  swap2\n  pop\n  pop\n  jump\t// out\n    /* \"#utility.yul\":845:1196   */\ntag_3:\n    /* \"#utility.yul\":915:921   */\n  0x00\n    /* \"#utility.yul\":964:966   */\n  0x20\n    /* \"#utility.yul\":952:961   */\n  dup3\n    /* \"#utility.yul\":943:950   */\n  dup5\n    /* \"#utility.yul\":939:962   */\n  sub\n    /* \"#utility.yul\":935:967   */\n  slt\n    /* \"#utility.yul\":932:1051   */\n  iszero\n  tag_37\n  jumpi\n    /* \"#utility.yul\":970:1049   */\n  tag_38\n  tag_18\n  jump\t// in\ntag_38:\n    /* \"#utility.yul\":932:1051   */\ntag_37:\n    /* \"#utility.yul\":1090:1091   */\n  0x00\n    /* \"#utility.yul\":1115:1179   */\n  tag_39\n    /* \"#utility.yul\":1171:1178   */\n  dup5\n    /* \"#utility.yul\":1162:1168   */\n  dup3\n    /* \"#utility.yul\":1151:1160   */\n  dup6\n    /* \"#utility.yul\":1147:1169   */\n  add\n    /* \"#utility.yul\":1115:1179   */\n  tag_23\n  jump\t// in\ntag_39:\n    /* \"#utility.yul\":1105:1179   */\n  swap2\n  pop\n    /* \"#utility.yul\":1061:1189   */\n  pop\n    /* \"#utility.yul\":845:1196   */\n  swap3\n  swap2\n  pop\n  pop\n  jump\t// out\n    /* \"Pool.sol\":266:1492  contract Pool is Ownable, ReentrancyGuard, IPool {... */\ntag_14:\n  dataSize(sub_0)\n  dup1\n  dataOffset(sub_0)\n  0x00\n  codecopy\n  0x00\n  return\nstop\n\nsub_0: assembly {\n        /* \"Pool.sol\":266:1492  contract Pool is Ownable, ReentrancyGuard, IPool {... */\n      mstore(0x40, 0x80)\n      jumpi(tag_1, lt(calldatasize, 0x04))\n      shr(0xe0, calldataload(0x00))\n      dup1\n      0x8da5cb5b\n      gt\n      tag_12\n      jumpi\n      dup1\n      0x8da5cb5b\n      eq\n      tag_7\n      jumpi\n      dup1\n      0x9e281a98\n      eq\n      tag_8\n      jumpi\n      dup1\n      0xd0e30db0\n      eq\n      tag_9\n      jumpi\n      dup1\n      0xf2fde38b\n      eq\n      tag_10\n      jumpi\n      dup1\n      0xfc0c546a\n      eq\n      tag_11\n      jumpi\n      jump(tag_2)\n    tag_12:\n      dup1\n      0x27304dfd\n      eq\n      tag_3\n      jumpi\n      dup1\n      0x4e71d92d\n      eq\n      tag_4\n      jumpi\n      dup1\n      0x704b6c02\n      eq\n      tag_5\n      jumpi\n      dup1\n      0x715018a6\n      eq\n      tag_6\n      jumpi\n      jump(tag_2)\n    tag_1:\n      jumpi(tag_2, calldatasize)\n      stop\n    tag_2:\n      0x00\n      dup1\n      revert\n        /* \"Pool.sol\":348:389  mapping(address => bool) public adminList */\n    tag_3:\n      callvalue\n      dup1\n      iszero\n      tag_15\n      jumpi\n      0x00\n      dup1\n      revert\n    tag_15:\n      pop\n      tag_16\n      0x04\n      dup1\n      calldatasize\n      sub\n      dup2\n      add\n      swap1\n      tag_17\n      swap2\n      swap1\n      tag_18\n      jump\t// in\n    tag_17:\n      tag_19\n      jump\t// in\n    tag_16:\n      mload(0x40)\n      tag_20\n      swap2\n      swap1\n      tag_21\n      jump\t// in\n    tag_20:\n      mload(0x40)\n      dup1\n      swap2\n      sub\n      swap1\n      return\n        /* \"Pool.sol\":1401:1489  function claim() external onlyOwner {... */\n    tag_4:\n      callvalue\n      dup1\n      iszero\n      tag_22\n      jumpi\n      0x00\n      dup1\n      revert\n    tag_22:\n      pop\n      tag_23\n      tag_24\n      jump\t// in\n    tag_23:\n      stop\n        /* \"Pool.sol\":743:835  function setAdmin(address addr_) external onlyOwner {... */\n    tag_5:\n      callvalue\n      dup1\n      iszero\n      tag_25\n      jumpi\n      0x00\n      dup1\n      revert\n    tag_25:\n      pop\n      tag_26\n      0x04\n      dup1\n      calldatasize\n      sub\n      dup2\n      add\n      swap1\n      tag_27\n      swap2\n      swap1\n      tag_18\n      jump\t// in\n    tag_27:\n      tag_28\n      jump\t// in\n    tag_26:\n      stop\n        /* \"@openzeppelin/contracts/access/Ownable.sol\":1824:1925  function renounceOwnership() public virtual onlyOwner {... */\n    tag_6:\n      callvalue\n      dup1\n      iszero\n      tag_29\n      jumpi\n      0x00\n      dup1\n      revert\n    tag_29:\n      pop\n      tag_30\n      tag_31\n      jump\t// in\n    tag_30:\n      stop\n        /* \"@openzeppelin/contracts/access/Ownable.sol\":1201:1286  function owner() public view virtual returns (address) {... */\n    tag_7:\n      callvalue\n      dup1\n      iszero\n      tag_32\n      jumpi\n      0x00\n      dup1\n      revert\n    tag_32:\n      pop\n      tag_33\n      tag_34\n      jump\t// in\n    tag_33:\n      mload(0x40)\n      tag_35\n      swap2\n      swap1\n      tag_36\n      jump\t// in\n    tag_35:\n      mload(0x40)\n      dup1\n      swap2\n      sub\n      swap1\n      return\n        /* \"Pool.sol\":964:1323  function withdrawToken(... */\n    tag_8:\n      callvalue\n      dup1\n      iszero\n      tag_37\n      jumpi\n      0x00\n      dup1\n      revert\n    tag_37:\n      pop\n      tag_38\n      0x04\n      dup1\n      calldatasize\n      sub\n      dup2\n      add\n      swap1\n      tag_39\n      swap2\n      swap1\n      tag_40\n      jump\t// in\n    tag_39:\n      tag_41\n      jump\t// in\n    tag_38:\n      stop\n        /* \"Pool.sol\":841:958  function deposit() external payable override nonReentrant {... */\n    tag_9:\n      tag_42\n      tag_43\n      jump\t// in\n    tag_42:\n      stop\n        /* \"@openzeppelin/contracts/access/Ownable.sol\":2074:2272  function transferOwnership(address newOwner) public virtual onlyOwner {... */\n    tag_10:\n      callvalue\n      dup1\n      iszero\n      tag_44\n      jumpi\n      0x00\n      dup1\n      revert\n    tag_44:\n      pop\n      tag_45\n      0x04\n      dup1\n      calldatasize\n      sub\n      dup2\n      add\n      swap1\n      tag_46\n      swap2\n      swap1\n      tag_18\n      jump\t// in\n    tag_46:\n      tag_47\n      jump\t// in\n    tag_45:\n      stop\n        /* \"Pool.sol\":321:341  address public token */\n    tag_11:\n      callvalue\n      dup1\n      iszero\n      tag_48\n      jumpi\n      0x00\n      dup1\n      revert\n    tag_48:\n      pop\n      tag_49\n      tag_50\n      jump\t// in\n    tag_49:\n      mload(0x40)\n      tag_51\n      swap2\n      swap1\n      tag_36\n      jump\t// in\n    tag_51:\n      mload(0x40)\n      dup1\n      swap2\n      sub\n      swap1\n      return\n        /* \"Pool.sol\":348:389  mapping(address => bool) public adminList */\n    tag_19:\n      mstore(0x20, 0x03)\n      dup1\n      0x00\n      mstore\n      keccak256(0x00, 0x40)\n      0x00\n      swap2\n      pop\n      sload\n      swap1\n      0x0100\n      exp\n      swap1\n      div\n      0xff\n      and\n      dup2\n      jump\t// out\n        /* \"Pool.sol\":1401:1489  function claim() external onlyOwner {... */\n    tag_24:\n        /* \"@openzeppelin/contracts/access/Ownable.sol\":1094:1107  _checkOwner() */\n      tag_53\n        /* \"@openzeppelin/contracts/access/Ownable.sol\":1094:1105  _checkOwner */\n      tag_54\n        /* \"@openzeppelin/contracts/access/Ownable.sol\":1094:1107  _checkOwner() */\n      jump\t// in\n    tag_53:\n        /* \"Pool.sol\":1468:1480  _msgSender() */\n      tag_56\n        /* \"Pool.sol\":1468:1478  _msgSender */\n      tag_57\n        /* \"Pool.sol\":1468:1480  _msgSender() */\n      jump\t// in\n    tag_56:\n        /* \"Pool.sol\":1447:1482  selfdestruct(payable(_msgSender())) */\n      0xffffffffffffffffffffffffffffffffffffffff\n      and\n      selfdestruct\n        /* \"Pool.sol\":743:835  function setAdmin(address addr_) external onlyOwner {... */\n    tag_28:\n        /* \"@openzeppelin/contracts/access/Ownable.sol\":1094:1107  _checkOwner() */\n      tag_59\n        /* \"@openzeppelin/contracts/access/Ownable.sol\":1094:1105  _checkOwner */\n      tag_54\n        /* \"@openzeppelin/contracts/access/Ownable.sol\":1094:1107  _checkOwner() */\n      jump\t// in\n    tag_59:\n        /* \"Pool.sol\":824:828  true */\n      0x01\n        /* \"Pool.sol\":805:814  adminList */\n      0x03\n        /* \"Pool.sol\":805:821  adminList[addr_] */\n      0x00\n        /* \"Pool.sol\":815:820  addr_ */\n      dup4\n        /* \"Pool.sol\":805:821  adminList[addr_] */\n      0xffffffffffffffffffffffffffffffffffffffff\n      and\n      0xffffffffffffffffffffffffffffffffffffffff\n      and\n      dup2\n      mstore\n      0x20\n      add\n      swap1\n      dup2\n      mstore\n      0x20\n      add\n      0x00\n      keccak256\n      0x00\n        /* \"Pool.sol\":805:828  adminList[addr_] = true */\n      0x0100\n      exp\n      dup2\n      sload\n      dup2\n      0xff\n      mul\n      not\n      and\n      swap1\n      dup4\n      iszero\n      iszero\n      mul\n      or\n      swap1\n      sstore\n      pop\n        /* \"Pool.sol\":743:835  function setAdmin(address addr_) external onlyOwner {... */\n      pop\n      jump\t// out\n        /* \"@openzeppelin/contracts/access/Ownable.sol\":1824:1925  function renounceOwnership() public virtual onlyOwner {... */\n    tag_31:\n        /* \"@openzeppelin/contracts/access/Ownable.sol\":1094:1107  _checkOwner() */\n      tag_62\n        /* \"@openzeppelin/contracts/access/Ownable.sol\":1094:1105  _checkOwner */\n      tag_54\n        /* \"@openzeppelin/contracts/access/Ownable.sol\":1094:1107  _checkOwner() */\n      jump\t// in\n    tag_62:\n        /* \"@openzeppelin/contracts/access/Ownable.sol\":1888:1918  _transferOwnership(address(0)) */\n      tag_64\n        /* \"@openzeppelin/contracts/access/Ownable.sol\":1915:1916  0 */\n      0x00\n        /* \"@openzeppelin/contracts/access/Ownable.sol\":1888:1906  _transferOwnership */\n      tag_65\n        /* \"@openzeppelin/contracts/access/Ownable.sol\":1888:1918  _transferOwnership(address(0)) */\n      jump\t// in\n    tag_64:\n        /* \"@openzeppelin/contracts/access/Ownable.sol\":1824:1925  function renounceOwnership() public virtual onlyOwner {... */\n      jump\t// out\n        /* \"@openzeppelin/contracts/access/Ownable.sol\":1201:1286  function owner() public view virtual returns (address) {... */\n    tag_34:\n        /* \"@openzeppelin/contracts/access/Ownable.sol\":1247:1254  address */\n      0x00\n        /* \"@openzeppelin/contracts/access/Ownable.sol\":1273:1279  _owner */\n      dup1\n      0x00\n      swap1\n      sload\n      swap1\n      0x0100\n      exp\n      swap1\n      div\n      0xffffffffffffffffffffffffffffffffffffffff\n      and\n        /* \"@openzeppelin/contracts/access/Ownable.sol\":1266:1279  return _owner */\n      swap1\n      pop\n        /* \"@openzeppelin/contracts/access/Ownable.sol\":1201:1286  function owner() public view virtual returns (address) {... */\n      swap1\n      jump\t// out\n        /* \"Pool.sol\":964:1323  function withdrawToken(... */\n    tag_41:\n        /* \"@openzeppelin/contracts/security/ReentrancyGuard.sol\":2261:2282  _nonReentrantBefore() */\n      tag_68\n        /* \"@openzeppelin/contracts/security/ReentrancyGuard.sol\":2261:2280  _nonReentrantBefore */\n      tag_69\n        /* \"@openzeppelin/contracts/security/ReentrancyGuard.sol\":2261:2282  _nonReentrantBefore() */\n      jump\t// in\n    tag_68:\n        /* \"Pool.sol\":611:620  adminList */\n      0x03\n        /* \"Pool.sol\":611:634  adminList[_msgSender()] */\n      0x00\n        /* \"Pool.sol\":621:633  _msgSender() */\n      tag_71\n        /* \"Pool.sol\":621:631  _msgSender */\n      tag_57\n        /* \"Pool.sol\":621:633  _msgSender() */\n      jump\t// in\n    tag_71:\n        /* \"Pool.sol\":611:634  adminList[_msgSender()] */\n      0xffffffffffffffffffffffffffffffffffffffff\n      and\n      0xffffffffffffffffffffffffffffffffffffffff\n      and\n      dup2\n      mstore\n      0x20\n      add\n      swap1\n      dup2\n      mstore\n      0x20\n      add\n      0x00\n      keccak256\n      0x00\n      swap1\n      sload\n      swap1\n      0x0100\n      exp\n      swap1\n      div\n      0xff\n      and\n        /* \"Pool.sol\":603:654  require(adminList[_msgSender()], \"Pool: not admin\") */\n      tag_72\n      jumpi\n      mload(0x40)\n      0x08c379a000000000000000000000000000000000000000000000000000000000\n      dup2\n      mstore\n      0x04\n      add\n      tag_73\n      swap1\n      tag_74\n      jump\t// in\n    tag_73:\n      mload(0x40)\n      dup1\n      swap2\n      sub\n      swap1\n      revert\n    tag_72:\n        /* \"Pool.sol\":1125:1132  amount_ */\n      dup1\n        /* \"Pool.sol\":1100:1121  address(this).balance */\n      selfbalance\n        /* \"Pool.sol\":1100:1132  address(this).balance >= amount_ */\n      lt\n      iszero\n        /* \"Pool.sol\":1092:1168  require(address(this).balance >= amount_, \"Pool: token balance not enough!\") */\n      tag_76\n      jumpi\n      mload(0x40)\n      0x08c379a000000000000000000000000000000000000000000000000000000000\n      dup2\n      mstore\n      0x04\n      add\n      tag_77\n      swap1\n      tag_78\n      jump\t// in\n    tag_77:\n      mload(0x40)\n      dup1\n      swap2\n      sub\n      swap1\n      revert\n    tag_76:\n        /* \"Pool.sol\":1228:1233  token */\n      0x02\n      0x00\n      swap1\n      sload\n      swap1\n      0x0100\n      exp\n      swap1\n      div\n      0xffffffffffffffffffffffffffffffffffffffff\n      and\n        /* \"Pool.sol\":1221:1243  IERC20(token).transfer */\n      0xffffffffffffffffffffffffffffffffffffffff\n      and\n      0xa9059cbb\n        /* \"Pool.sol\":1244:1249  user_ */\n      dup4\n        /* \"Pool.sol\":1250:1257  amount_ */\n      dup4\n        /* \"Pool.sol\":1221:1258  IERC20(token).transfer(user_,amount_) */\n      mload(0x40)\n      dup4\n      0xffffffff\n      and\n      0xe0\n      shl\n      dup2\n      mstore\n      0x04\n      add\n      tag_79\n      swap3\n      swap2\n      swap1\n      tag_80\n      jump\t// in\n    tag_79:\n      0x20\n      mload(0x40)\n      dup1\n      dup4\n      sub\n      dup2\n      0x00\n      dup8\n      gas\n      call\n      iszero\n      dup1\n      iszero\n      tag_82\n      jumpi\n      returndatasize\n      0x00\n      dup1\n      returndatacopy\n      revert(0x00, returndatasize)\n    tag_82:\n      pop\n      pop\n      pop\n      pop\n      mload(0x40)\n      returndatasize\n      not(0x1f)\n      0x1f\n      dup3\n      add\n      and\n      dup3\n      add\n      dup1\n      0x40\n      mstore\n      pop\n      dup2\n      add\n      swap1\n      tag_83\n      swap2\n      swap1\n      tag_84\n      jump\t// in\n    tag_83:\n      pop\n        /* \"Pool.sol\":1301:1306  user_ */\n      dup2\n        /* \"Pool.sol\":1273:1316  WithdrawEvent(_msgSender(), user_, amount_) */\n      0xffffffffffffffffffffffffffffffffffffffff\n      and\n        /* \"Pool.sol\":1287:1299  _msgSender() */\n      tag_85\n        /* \"Pool.sol\":1287:1297  _msgSender */\n      tag_57\n        /* \"Pool.sol\":1287:1299  _msgSender() */\n      jump\t// in\n    tag_85:\n        /* \"Pool.sol\":1273:1316  WithdrawEvent(_msgSender(), user_, amount_) */\n      0xffffffffffffffffffffffffffffffffffffffff\n      and\n      0x93cb7b4ba12c5bb07f02e52c4e43788d8f4db1e66e9d30aaaeffc5ab325b810c\n        /* \"Pool.sol\":1308:1315  amount_ */\n      dup4\n        /* \"Pool.sol\":1273:1316  WithdrawEvent(_msgSender(), user_, amount_) */\n      mload(0x40)\n      tag_86\n      swap2\n      swap1\n      tag_87\n      jump\t// in\n    tag_86:\n      mload(0x40)\n      dup1\n      swap2\n      sub\n      swap1\n      log3\n        /* \"@openzeppelin/contracts/security/ReentrancyGuard.sol\":2303:2323  _nonReentrantAfter() */\n      tag_88\n        /* \"@openzeppelin/contracts/security/ReentrancyGuard.sol\":2303:2321  _nonReentrantAfter */\n      tag_89\n        /* \"@openzeppelin/contracts/security/ReentrancyGuard.sol\":2303:2323  _nonReentrantAfter() */\n      jump\t// in\n    tag_88:\n        /* \"Pool.sol\":964:1323  function withdrawToken(... */\n      pop\n      pop\n      jump\t// out\n        /* \"Pool.sol\":841:958  function deposit() external payable override nonReentrant {... */\n    tag_43:\n        /* \"@openzeppelin/contracts/security/ReentrancyGuard.sol\":2261:2282  _nonReentrantBefore() */\n      tag_91\n        /* \"@openzeppelin/contracts/security/ReentrancyGuard.sol\":2261:2280  _nonReentrantBefore */\n      tag_69\n        /* \"@openzeppelin/contracts/security/ReentrancyGuard.sol\":2261:2282  _nonReentrantBefore() */\n      jump\t// in\n    tag_91:\n        /* \"Pool.sol\":927:939  _msgSender() */\n      tag_93\n        /* \"Pool.sol\":927:937  _msgSender */\n      tag_57\n        /* \"Pool.sol\":927:939  _msgSender() */\n      jump\t// in\n    tag_93:\n        /* \"Pool.sol\":914:951  DepositEvent(_msgSender(), msg.value) */\n      0xffffffffffffffffffffffffffffffffffffffff\n      and\n      0x2d8a08b6430a894aea608bcaa6013d5d3e263bc49110605e4d4ba76930ae5c29\n        /* \"Pool.sol\":941:950  msg.value */\n      callvalue\n        /* \"Pool.sol\":914:951  DepositEvent(_msgSender(), msg.value) */\n      mload(0x40)\n      tag_94\n      swap2\n      swap1\n      tag_87\n      jump\t// in\n    tag_94:\n      mload(0x40)\n      dup1\n      swap2\n      sub\n      swap1\n      log2\n        /* \"@openzeppelin/contracts/security/ReentrancyGuard.sol\":2303:2323  _nonReentrantAfter() */\n      tag_95\n        /* \"@openzeppelin/contracts/security/ReentrancyGuard.sol\":2303:2321  _nonReentrantAfter */\n      tag_89\n        /* \"@openzeppelin/contracts/security/ReentrancyGuard.sol\":2303:2323  _nonReentrantAfter() */\n      jump\t// in\n    tag_95:\n        /* \"Pool.sol\":841:958  function deposit() external payable override nonReentrant {... */\n      jump\t// out\n        /* \"@openzeppelin/contracts/access/Ownable.sol\":2074:2272  function transferOwnership(address newOwner) public virtual onlyOwner {... */\n    tag_47:\n        /* \"@openzeppelin/contracts/access/Ownable.sol\":1094:1107  _checkOwner() */\n      tag_97\n        /* \"@openzeppelin/contracts/access/Ownable.sol\":1094:1105  _checkOwner */\n      tag_54\n        /* \"@openzeppelin/contracts/access/Ownable.sol\":1094:1107  _checkOwner() */\n      jump\t// in\n    tag_97:\n        /* \"@openzeppelin/contracts/access/Ownable.sol\":2182:2183  0 */\n      0x00\n        /* \"@openzeppelin/contracts/access/Ownable.sol\":2162:2184  newOwner != address(0) */\n      0xffffffffffffffffffffffffffffffffffffffff\n      and\n        /* \"@openzeppelin/contracts/access/Ownable.sol\":2162:2170  newOwner */\n      dup2\n        /* \"@openzeppelin/contracts/access/Ownable.sol\":2162:2184  newOwner != address(0) */\n      0xffffffffffffffffffffffffffffffffffffffff\n      and\n      sub\n        /* \"@openzeppelin/contracts/access/Ownable.sol\":2154:2227  require(newOwner != address(0), \"Ownable: new owner is the zero address\") */\n      tag_99\n      jumpi\n      mload(0x40)\n      0x08c379a000000000000000000000000000000000000000000000000000000000\n      dup2\n      mstore\n      0x04\n      add\n      tag_100\n      swap1\n      tag_101\n      jump\t// in\n    tag_100:\n      mload(0x40)\n      dup1\n      swap2\n      sub\n      swap1\n      revert\n    tag_99:\n        /* \"@openzeppelin/contracts/access/Ownable.sol\":2237:2265  _transferOwnership(newOwner) */\n      tag_102\n        /* \"@openzeppelin/contracts/access/Ownable.sol\":2256:2264  newOwner */\n      dup2\n        /* \"@openzeppelin/contracts/access/Ownable.sol\":2237:2255  _transferOwnership */\n      tag_65\n        /* \"@openzeppelin/contracts/access/Ownable.sol\":2237:2265  _transferOwnership(newOwner) */\n      jump\t// in\n    tag_102:\n        /* \"@openzeppelin/contracts/access/Ownable.sol\":2074:2272  function transferOwnership(address newOwner) public virtual onlyOwner {... */\n      pop\n      jump\t// out\n        /* \"Pool.sol\":321:341  address public token */\n    tag_50:\n      0x02\n      0x00\n      swap1\n      sload\n      swap1\n      0x0100\n      exp\n      swap1\n      div\n      0xffffffffffffffffffffffffffffffffffffffff\n      and\n      dup2\n      jump\t// out\n        /* \"@openzeppelin/contracts/access/Ownable.sol\":1359:1489  function _checkOwner() internal view virtual {... */\n    tag_54:\n        /* \"@openzeppelin/contracts/access/Ownable.sol\":1433:1445  _msgSender() */\n      tag_104\n        /* \"@openzeppelin/contracts/access/Ownable.sol\":1433:1443  _msgSender */\n      tag_57\n        /* \"@openzeppelin/contracts/access/Ownable.sol\":1433:1445  _msgSender() */\n      jump\t// in\n    tag_104:\n        /* \"@openzeppelin/contracts/access/Ownable.sol\":1422:1445  owner() == _msgSender() */\n      0xffffffffffffffffffffffffffffffffffffffff\n      and\n        /* \"@openzeppelin/contracts/access/Ownable.sol\":1422:1429  owner() */\n      tag_105\n        /* \"@openzeppelin/contracts/access/Ownable.sol\":1422:1427  owner */\n      tag_34\n        /* \"@openzeppelin/contracts/access/Ownable.sol\":1422:1429  owner() */\n      jump\t// in\n    tag_105:\n        /* \"@openzeppelin/contracts/access/Ownable.sol\":1422:1445  owner() == _msgSender() */\n      0xffffffffffffffffffffffffffffffffffffffff\n      and\n      eq\n        /* \"@openzeppelin/contracts/access/Ownable.sol\":1414:1482  require(owner() == _msgSender(), \"Ownable: caller is not the owner\") */\n      tag_106\n      jumpi\n      mload(0x40)\n      0x08c379a000000000000000000000000000000000000000000000000000000000\n      dup2\n      mstore\n      0x04\n      add\n      tag_107\n      swap1\n      tag_108\n      jump\t// in\n    tag_107:\n      mload(0x40)\n      dup1\n      swap2\n      sub\n      swap1\n      revert\n    tag_106:\n        /* \"@openzeppelin/contracts/access/Ownable.sol\":1359:1489  function _checkOwner() internal view virtual {... */\n      jump\t// out\n        /* \"@openzeppelin/contracts/utils/Context.sol\":640:736  function _msgSender() internal view virtual returns (address) {... */\n    tag_57:\n        /* \"@openzeppelin/contracts/utils/Context.sol\":693:700  address */\n      0x00\n        /* \"@openzeppelin/contracts/utils/Context.sol\":719:729  msg.sender */\n      caller\n        /* \"@openzeppelin/contracts/utils/Context.sol\":712:729  return msg.sender */\n      swap1\n      pop\n        /* \"@openzeppelin/contracts/utils/Context.sol\":640:736  function _msgSender() internal view virtual returns (address) {... */\n      swap1\n      jump\t// out\n        /* \"@openzeppelin/contracts/access/Ownable.sol\":2426:2613  function _transferOwnership(address newOwner) internal virtual {... */\n    tag_65:\n        /* \"@openzeppelin/contracts/access/Ownable.sol\":2499:2515  address oldOwner */\n      0x00\n        /* \"@openzeppelin/contracts/access/Ownable.sol\":2518:2524  _owner */\n      dup1\n      0x00\n      swap1\n      sload\n      swap1\n      0x0100\n      exp\n      swap1\n      div\n      0xffffffffffffffffffffffffffffffffffffffff\n      and\n        /* \"@openzeppelin/contracts/access/Ownable.sol\":2499:2524  address oldOwner = _owner */\n      swap1\n      pop\n        /* \"@openzeppelin/contracts/access/Ownable.sol\":2543:2551  newOwner */\n      dup2\n        /* \"@openzeppelin/contracts/access/Ownable.sol\":2534:2540  _owner */\n      0x00\n      dup1\n        /* \"@openzeppelin/contracts/access/Ownable.sol\":2534:2551  _owner = newOwner */\n      0x0100\n      exp\n      dup2\n      sload\n      dup2\n      0xffffffffffffffffffffffffffffffffffffffff\n      mul\n      not\n      and\n      swap1\n      dup4\n      0xffffffffffffffffffffffffffffffffffffffff\n      and\n      mul\n      or\n      swap1\n      sstore\n      pop\n        /* \"@openzeppelin/contracts/access/Ownable.sol\":2597:2605  newOwner */\n      dup2\n        /* \"@openzeppelin/contracts/access/Ownable.sol\":2566:2606  OwnershipTransferred(oldOwner, newOwner) */\n      0xffffffffffffffffffffffffffffffffffffffff\n      and\n        /* \"@openzeppelin/contracts/access/Ownable.sol\":2587:2595  oldOwner */\n      dup2\n        /* \"@openzeppelin/contracts/access/Ownable.sol\":2566:2606  OwnershipTransferred(oldOwner, newOwner) */\n      0xffffffffffffffffffffffffffffffffffffffff\n      and\n      0x8be0079c531659141344cd1fd0a4f28419497f9722a3daafe3b4186f6b6457e0\n      mload(0x40)\n      mload(0x40)\n      dup1\n      swap2\n      sub\n      swap1\n      log3\n        /* \"@openzeppelin/contracts/access/Ownable.sol\":2489:2613  {... */\n      pop\n        /* \"@openzeppelin/contracts/access/Ownable.sol\":2426:2613  function _transferOwnership(address newOwner) internal virtual {... */\n      pop\n      jump\t// out\n        /* \"@openzeppelin/contracts/security/ReentrancyGuard.sol\":2336:2623  function _nonReentrantBefore() private {... */\n    tag_69:\n        /* \"@openzeppelin/contracts/security/ReentrancyGuard.sol\":1759:1760  2 */\n      0x02\n        /* \"@openzeppelin/contracts/security/ReentrancyGuard.sol\":2468:2475  _status */\n      sload(0x01)\n        /* \"@openzeppelin/contracts/security/ReentrancyGuard.sol\":2468:2487  _status != _ENTERED */\n      sub\n        /* \"@openzeppelin/contracts/security/ReentrancyGuard.sol\":2460:2523  require(_status != _ENTERED, \"ReentrancyGuard: reentrant call\") */\n      tag_112\n      jumpi\n      mload(0x40)\n      0x08c379a000000000000000000000000000000000000000000000000000000000\n      dup2\n      mstore\n      0x04\n      add\n      tag_113\n      swap1\n      tag_114\n      jump\t// in\n    tag_113:\n      mload(0x40)\n      dup1\n      swap2\n      sub\n      swap1\n      revert\n    tag_112:\n        /* \"@openzeppelin/contracts/security/ReentrancyGuard.sol\":1759:1760  2 */\n      0x02\n        /* \"@openzeppelin/contracts/security/ReentrancyGuard.sol\":2598:2605  _status */\n      0x01\n        /* \"@openzeppelin/contracts/security/ReentrancyGuard.sol\":2598:2616  _status = _ENTERED */\n      dup2\n      swap1\n      sstore\n      pop\n        /* \"@openzeppelin/contracts/security/ReentrancyGuard.sol\":2336:2623  function _nonReentrantBefore() private {... */\n      jump\t// out\n        /* \"@openzeppelin/contracts/security/ReentrancyGuard.sol\":2629:2838  function _nonReentrantAfter() private {... */\n    tag_89:\n        /* \"@openzeppelin/contracts/security/ReentrancyGuard.sol\":1716:1717  1 */\n      0x01\n        /* \"@openzeppelin/contracts/security/ReentrancyGuard.sol\":2809:2816  _status */\n      dup1\n        /* \"@openzeppelin/contracts/security/ReentrancyGuard.sol\":2809:2831  _status = _NOT_ENTERED */\n      dup2\n      swap1\n      sstore\n      pop\n        /* \"@openzeppelin/contracts/security/ReentrancyGuard.sol\":2629:2838  function _nonReentrantAfter() private {... */\n      jump\t// out\n        /* \"#utility.yul\":88:205   */\n    tag_117:\n        /* \"#utility.yul\":197:198   */\n      0x00\n        /* \"#utility.yul\":194:195   */\n      dup1\n        /* \"#utility.yul\":187:199   */\n      revert\n        /* \"#utility.yul\":334:460   */\n    tag_119:\n        /* \"#utility.yul\":371:378   */\n      0x00\n        /* \"#utility.yul\":411:453   */\n      0xffffffffffffffffffffffffffffffffffffffff\n        /* \"#utility.yul\":404:409   */\n      dup3\n        /* \"#utility.yul\":400:454   */\n      and\n        /* \"#utility.yul\":389:454   */\n      swap1\n      pop\n        /* \"#utility.yul\":334:460   */\n      swap2\n      swap1\n      pop\n      jump\t// out\n        /* \"#utility.yul\":466:562   */\n    tag_120:\n        /* \"#utility.yul\":503:510   */\n      0x00\n        /* \"#utility.yul\":532:556   */\n      tag_149\n        /* \"#utility.yul\":550:555   */\n      dup3\n        /* \"#utility.yul\":532:556   */\n      tag_119\n      jump\t// in\n    tag_149:\n        /* \"#utility.yul\":521:556   */\n      swap1\n      pop\n        /* \"#utility.yul\":466:562   */\n      swap2\n      swap1\n      pop\n      jump\t// out\n        /* \"#utility.yul\":568:690   */\n    tag_121:\n        /* \"#utility.yul\":641:665   */\n      tag_151\n        /* \"#utility.yul\":659:664   */\n      dup2\n        /* \"#utility.yul\":641:665   */\n      tag_120\n      jump\t// in\n    tag_151:\n        /* \"#utility.yul\":634:639   */\n      dup2\n        /* \"#utility.yul\":631:666   */\n      eq\n        /* \"#utility.yul\":621:684   */\n      tag_152\n      jumpi\n        /* \"#utility.yul\":680:681   */\n      0x00\n        /* \"#utility.yul\":677:678   */\n      dup1\n        /* \"#utility.yul\":670:682   */\n      revert\n        /* \"#utility.yul\":621:684   */\n    tag_152:\n        /* \"#utility.yul\":568:690   */\n      pop\n      jump\t// out\n        /* \"#utility.yul\":696:835   */\n    tag_122:\n        /* \"#utility.yul\":742:747   */\n      0x00\n        /* \"#utility.yul\":780:786   */\n      dup2\n        /* \"#utility.yul\":767:787   */\n      calldataload\n        /* \"#utility.yul\":758:787   */\n      swap1\n      pop\n        /* \"#utility.yul\":796:829   */\n      tag_154\n        /* \"#utility.yul\":823:828   */\n      dup2\n        /* \"#utility.yul\":796:829   */\n      tag_121\n      jump\t// in\n    tag_154:\n        /* \"#utility.yul\":696:835   */\n      swap3\n      swap2\n      pop\n      pop\n      jump\t// out\n        /* \"#utility.yul\":841:1170   */\n    tag_18:\n        /* \"#utility.yul\":900:906   */\n      0x00\n        /* \"#utility.yul\":949:951   */\n      0x20\n        /* \"#utility.yul\":937:946   */\n      dup3\n        /* \"#utility.yul\":928:935   */\n      dup5\n        /* \"#utility.yul\":924:947   */\n      sub\n        /* \"#utility.yul\":920:952   */\n      slt\n        /* \"#utility.yul\":917:1036   */\n      iszero\n      tag_156\n      jumpi\n        /* \"#utility.yul\":955:1034   */\n      tag_157\n      tag_117\n      jump\t// in\n    tag_157:\n        /* \"#utility.yul\":917:1036   */\n    tag_156:\n        /* \"#utility.yul\":1075:1076   */\n      0x00\n        /* \"#utility.yul\":1100:1153   */\n      tag_158\n        /* \"#utility.yul\":1145:1152   */\n      dup5\n        /* \"#utility.yul\":1136:1142   */\n      dup3\n        /* \"#utility.yul\":1125:1134   */\n      dup6\n        /* \"#utility.yul\":1121:1143   */\n      add\n        /* \"#utility.yul\":1100:1153   */\n      tag_122\n      jump\t// in\n    tag_158:\n        /* \"#utility.yul\":1090:1153   */\n      swap2\n      pop\n        /* \"#utility.yul\":1046:1163   */\n      pop\n        /* \"#utility.yul\":841:1170   */\n      swap3\n      swap2\n      pop\n      pop\n      jump\t// out\n        /* \"#utility.yul\":1176:1266   */\n    tag_123:\n        /* \"#utility.yul\":1210:1217   */\n      0x00\n        /* \"#utility.yul\":1253:1258   */\n      dup2\n        /* \"#utility.yul\":1246:1259   */\n      iszero\n        /* \"#utility.yul\":1239:1260   */\n      iszero\n        /* \"#utility.yul\":1228:1260   */\n      swap1\n      pop\n        /* \"#utility.yul\":1176:1266   */\n      swap2\n      swap1\n      pop\n      jump\t// out\n        /* \"#utility.yul\":1272:1381   */\n    tag_124:\n        /* \"#utility.yul\":1353:1374   */\n      tag_161\n        /* \"#utility.yul\":1368:1373   */\n      dup2\n        /* \"#utility.yul\":1353:1374   */\n      tag_123\n      jump\t// in\n    tag_161:\n        /* \"#utility.yul\":1348:1351   */\n      dup3\n        /* \"#utility.yul\":1341:1375   */\n      mstore\n        /* \"#utility.yul\":1272:1381   */\n      pop\n      pop\n      jump\t// out\n        /* \"#utility.yul\":1387:1597   */\n    tag_21:\n        /* \"#utility.yul\":1474:1478   */\n      0x00\n        /* \"#utility.yul\":1512:1514   */\n      0x20\n        /* \"#utility.yul\":1501:1510   */\n      dup3\n        /* \"#utility.yul\":1497:1515   */\n      add\n        /* \"#utility.yul\":1489:1515   */\n      swap1\n      pop\n        /* \"#utility.yul\":1525:1590   */\n      tag_163\n        /* \"#utility.yul\":1587:1588   */\n      0x00\n        /* \"#utility.yul\":1576:1585   */\n      dup4\n        /* \"#utility.yul\":1572:1589   */\n      add\n        /* \"#utility.yul\":1563:1569   */\n      dup5\n        /* \"#utility.yul\":1525:1590   */\n      tag_124\n      jump\t// in\n    tag_163:\n        /* \"#utility.yul\":1387:1597   */\n      swap3\n      swap2\n      pop\n      pop\n      jump\t// out\n        /* \"#utility.yul\":1603:1721   */\n    tag_125:\n        /* \"#utility.yul\":1690:1714   */\n      tag_165\n        /* \"#utility.yul\":1708:1713   */\n      dup2\n        /* \"#utility.yul\":1690:1714   */\n      tag_120\n      jump\t// in\n    tag_165:\n        /* \"#utility.yul\":1685:1688   */\n      dup3\n        /* \"#utility.yul\":1678:1715   */\n      mstore\n        /* \"#utility.yul\":1603:1721   */\n      pop\n      pop\n      jump\t// out\n        /* \"#utility.yul\":1727:1949   */\n    tag_36:\n        /* \"#utility.yul\":1820:1824   */\n      0x00\n        /* \"#utility.yul\":1858:1860   */\n      0x20\n        /* \"#utility.yul\":1847:1856   */\n      dup3\n        /* \"#utility.yul\":1843:1861   */\n      add\n        /* \"#utility.yul\":1835:1861   */\n      swap1\n      pop\n        /* \"#utility.yul\":1871:1942   */\n      tag_167\n        /* \"#utility.yul\":1939:1940   */\n      0x00\n        /* \"#utility.yul\":1928:1937   */\n      dup4\n        /* \"#utility.yul\":1924:1941   */\n      add\n        /* \"#utility.yul\":1915:1921   */\n      dup5\n        /* \"#utility.yul\":1871:1942   */\n      tag_125\n      jump\t// in\n    tag_167:\n        /* \"#utility.yul\":1727:1949   */\n      swap3\n      swap2\n      pop\n      pop\n      jump\t// out\n        /* \"#utility.yul\":1955:2032   */\n    tag_126:\n        /* \"#utility.yul\":1992:1999   */\n      0x00\n        /* \"#utility.yul\":2021:2026   */\n      dup2\n        /* \"#utility.yul\":2010:2026   */\n      swap1\n      pop\n        /* \"#utility.yul\":1955:2032   */\n      swap2\n      swap1\n      pop\n      jump\t// out\n        /* \"#utility.yul\":2038:2160   */\n    tag_127:\n        /* \"#utility.yul\":2111:2135   */\n      tag_170\n        /* \"#utility.yul\":2129:2134   */\n      dup2\n        /* \"#utility.yul\":2111:2135   */\n      tag_126\n      jump\t// in\n    tag_170:\n        /* \"#utility.yul\":2104:2109   */\n      dup2\n        /* \"#utility.yul\":2101:2136   */\n      eq\n        /* \"#utility.yul\":2091:2154   */\n      tag_171\n      jumpi\n        /* \"#utility.yul\":2150:2151   */\n      0x00\n        /* \"#utility.yul\":2147:2148   */\n      dup1\n        /* \"#utility.yul\":2140:2152   */\n      revert\n        /* \"#utility.yul\":2091:2154   */\n    tag_171:\n        /* \"#utility.yul\":2038:2160   */\n      pop\n      jump\t// out\n        /* \"#utility.yul\":2166:2305   */\n    tag_128:\n        /* \"#utility.yul\":2212:2217   */\n      0x00\n        /* \"#utility.yul\":2250:2256   */\n      dup2\n        /* \"#utility.yul\":2237:2257   */\n      calldataload\n        /* \"#utility.yul\":2228:2257   */\n      swap1\n      pop\n        /* \"#utility.yul\":2266:2299   */\n      tag_173\n        /* \"#utility.yul\":2293:2298   */\n      dup2\n        /* \"#utility.yul\":2266:2299   */\n      tag_127\n      jump\t// in\n    tag_173:\n        /* \"#utility.yul\":2166:2305   */\n      swap3\n      swap2\n      pop\n      pop\n      jump\t// out\n        /* \"#utility.yul\":2311:2785   */\n    tag_40:\n        /* \"#utility.yul\":2379:2385   */\n      0x00\n        /* \"#utility.yul\":2387:2393   */\n      dup1\n        /* \"#utility.yul\":2436:2438   */\n      0x40\n        /* \"#utility.yul\":2424:2433   */\n      dup4\n        /* \"#utility.yul\":2415:2422   */\n      dup6\n        /* \"#utility.yul\":2411:2434   */\n      sub\n        /* \"#utility.yul\":2407:2439   */\n      slt\n        /* \"#utility.yul\":2404:2523   */\n      iszero\n      tag_175\n      jumpi\n        /* \"#utility.yul\":2442:2521   */\n      tag_176\n      tag_117\n      jump\t// in\n    tag_176:\n        /* \"#utility.yul\":2404:2523   */\n    tag_175:\n        /* \"#utility.yul\":2562:2563   */\n      0x00\n        /* \"#utility.yul\":2587:2640   */\n      tag_177\n        /* \"#utility.yul\":2632:2639   */\n      dup6\n        /* \"#utility.yul\":2623:2629   */\n      dup3\n        /* \"#utility.yul\":2612:2621   */\n      dup7\n        /* \"#utility.yul\":2608:2630   */\n      add\n        /* \"#utility.yul\":2587:2640   */\n      tag_122\n      jump\t// in\n    tag_177:\n        /* \"#utility.yul\":2577:2640   */\n      swap3\n      pop\n        /* \"#utility.yul\":2533:2650   */\n      pop\n        /* \"#utility.yul\":2689:2691   */\n      0x20\n        /* \"#utility.yul\":2715:2768   */\n      tag_178\n        /* \"#utility.yul\":2760:2767   */\n      dup6\n        /* \"#utility.yul\":2751:2757   */\n      dup3\n        /* \"#utility.yul\":2740:2749   */\n      dup7\n        /* \"#utility.yul\":2736:2758   */\n      add\n        /* \"#utility.yul\":2715:2768   */\n      tag_128\n      jump\t// in\n    tag_178:\n        /* \"#utility.yul\":2705:2768   */\n      swap2\n      pop\n        /* \"#utility.yul\":2660:2778   */\n      pop\n        /* \"#utility.yul\":2311:2785   */\n      swap3\n      pop\n      swap3\n      swap1\n      pop\n      jump\t// out\n        /* \"#utility.yul\":2791:2960   */\n    tag_129:\n        /* \"#utility.yul\":2875:2886   */\n      0x00\n        /* \"#utility.yul\":2909:2915   */\n      dup3\n        /* \"#utility.yul\":2904:2907   */\n      dup3\n        /* \"#utility.yul\":2897:2916   */\n      mstore\n        /* \"#utility.yul\":2949:2953   */\n      0x20\n        /* \"#utility.yul\":2944:2947   */\n      dup3\n        /* \"#utility.yul\":2940:2954   */\n      add\n        /* \"#utility.yul\":2925:2954   */\n      swap1\n      pop\n        /* \"#utility.yul\":2791:2960   */\n      swap3\n      swap2\n      pop\n      pop\n      jump\t// out\n        /* \"#utility.yul\":2966:3131   */\n    tag_130:\n        /* \"#utility.yul\":3106:3123   */\n      0x506f6f6c3a206e6f742061646d696e0000000000000000000000000000000000\n        /* \"#utility.yul\":3102:3103   */\n      0x00\n        /* \"#utility.yul\":3094:3100   */\n      dup3\n        /* \"#utility.yul\":3090:3104   */\n      add\n        /* \"#utility.yul\":3083:3124   */\n      mstore\n        /* \"#utility.yul\":2966:3131   */\n      pop\n      jump\t// out\n        /* \"#utility.yul\":3137:3503   */\n    tag_131:\n        /* \"#utility.yul\":3279:3282   */\n      0x00\n        /* \"#utility.yul\":3300:3367   */\n      tag_182\n        /* \"#utility.yul\":3364:3366   */\n      0x0f\n        /* \"#utility.yul\":3359:3362   */\n      dup4\n        /* \"#utility.yul\":3300:3367   */\n      tag_129\n      jump\t// in\n    tag_182:\n        /* \"#utility.yul\":3293:3367   */\n      swap2\n      pop\n        /* \"#utility.yul\":3376:3469   */\n      tag_183\n        /* \"#utility.yul\":3465:3468   */\n      dup3\n        /* \"#utility.yul\":3376:3469   */\n      tag_130\n      jump\t// in\n    tag_183:\n        /* \"#utility.yul\":3494:3496   */\n      0x20\n        /* \"#utility.yul\":3489:3492   */\n      dup3\n        /* \"#utility.yul\":3485:3497   */\n      add\n        /* \"#utility.yul\":3478:3497   */\n      swap1\n      pop\n        /* \"#utility.yul\":3137:3503   */\n      swap2\n      swap1\n      pop\n      jump\t// out\n        /* \"#utility.yul\":3509:3928   */\n    tag_74:\n        /* \"#utility.yul\":3675:3679   */\n      0x00\n        /* \"#utility.yul\":3713:3715   */\n      0x20\n        /* \"#utility.yul\":3702:3711   */\n      dup3\n        /* \"#utility.yul\":3698:3716   */\n      add\n        /* \"#utility.yul\":3690:3716   */\n      swap1\n      pop\n        /* \"#utility.yul\":3762:3771   */\n      dup2\n        /* \"#utility.yul\":3756:3760   */\n      dup2\n        /* \"#utility.yul\":3752:3772   */\n      sub\n        /* \"#utility.yul\":3748:3749   */\n      0x00\n        /* \"#utility.yul\":3737:3746   */\n      dup4\n        /* \"#utility.yul\":3733:3750   */\n      add\n        /* \"#utility.yul\":3726:3773   */\n      mstore\n        /* \"#utility.yul\":3790:3921   */\n      tag_185\n        /* \"#utility.yul\":3916:3920   */\n      dup2\n        /* \"#utility.yul\":3790:3921   */\n      tag_131\n      jump\t// in\n    tag_185:\n        /* \"#utility.yul\":3782:3921   */\n      swap1\n      pop\n        /* \"#utility.yul\":3509:3928   */\n      swap2\n      swap1\n      pop\n      jump\t// out\n        /* \"#utility.yul\":3934:4115   */\n    tag_132:\n        /* \"#utility.yul\":4074:4107   */\n      0x506f6f6c3a20746f6b656e2062616c616e6365206e6f7420656e6f7567682100\n        /* \"#utility.yul\":4070:4071   */\n      0x00\n        /* \"#utility.yul\":4062:4068   */\n      dup3\n        /* \"#utility.yul\":4058:4072   */\n      add\n        /* \"#utility.yul\":4051:4108   */\n      mstore\n        /* \"#utility.yul\":3934:4115   */\n      pop\n      jump\t// out\n        /* \"#utility.yul\":4121:4487   */\n    tag_133:\n        /* \"#utility.yul\":4263:4266   */\n      0x00\n        /* \"#utility.yul\":4284:4351   */\n      tag_188\n        /* \"#utility.yul\":4348:4350   */\n      0x1f\n        /* \"#utility.yul\":4343:4346   */\n      dup4\n        /* \"#utility.yul\":4284:4351   */\n      tag_129\n      jump\t// in\n    tag_188:\n        /* \"#utility.yul\":4277:4351   */\n      swap2\n      pop\n        /* \"#utility.yul\":4360:4453   */\n      tag_189\n        /* \"#utility.yul\":4449:4452   */\n      dup3\n        /* \"#utility.yul\":4360:4453   */\n      tag_132\n      jump\t// in\n    tag_189:\n        /* \"#utility.yul\":4478:4480   */\n      0x20\n        /* \"#utility.yul\":4473:4476   */\n      dup3\n        /* \"#utility.yul\":4469:4481   */\n      add\n        /* \"#utility.yul\":4462:4481   */\n      swap1\n      pop\n        /* \"#utility.yul\":4121:4487   */\n      swap2\n      swap1\n      pop\n      jump\t// out\n        /* \"#utility.yul\":4493:4912   */\n    tag_78:\n        /* \"#utility.yul\":4659:4663   */\n      0x00\n        /* \"#utility.yul\":4697:4699   */\n      0x20\n        /* \"#utility.yul\":4686:4695   */\n      dup3\n        /* \"#utility.yul\":4682:4700   */\n      add\n        /* \"#utility.yul\":4674:4700   */\n      swap1\n      pop\n        /* \"#utility.yul\":4746:4755   */\n      dup2\n        /* \"#utility.yul\":4740:4744   */\n      dup2\n        /* \"#utility.yul\":4736:4756   */\n      sub\n        /* \"#utility.yul\":4732:4733   */\n      0x00\n        /* \"#utility.yul\":4721:4730   */\n      dup4\n        /* \"#utility.yul\":4717:4734   */\n      add\n        /* \"#utility.yul\":4710:4757   */\n      mstore\n        /* \"#utility.yul\":4774:4905   */\n      tag_191\n        /* \"#utility.yul\":4900:4904   */\n      dup2\n        /* \"#utility.yul\":4774:4905   */\n      tag_133\n      jump\t// in\n    tag_191:\n        /* \"#utility.yul\":4766:4905   */\n      swap1\n      pop\n        /* \"#utility.yul\":4493:4912   */\n      swap2\n      swap1\n      pop\n      jump\t// out\n        /* \"#utility.yul\":4918:5036   */\n    tag_134:\n        /* \"#utility.yul\":5005:5029   */\n      tag_193\n        /* \"#utility.yul\":5023:5028   */\n      dup2\n        /* \"#utility.yul\":5005:5029   */\n      tag_126\n      jump\t// in\n    tag_193:\n        /* \"#utility.yul\":5000:5003   */\n      dup3\n        /* \"#utility.yul\":4993:5030   */\n      mstore\n        /* \"#utility.yul\":4918:5036   */\n      pop\n      pop\n      jump\t// out\n        /* \"#utility.yul\":5042:5374   */\n    tag_80:\n        /* \"#utility.yul\":5163:5167   */\n      0x00\n        /* \"#utility.yul\":5201:5203   */\n      0x40\n        /* \"#utility.yul\":5190:5199   */\n      dup3\n        /* \"#utility.yul\":5186:5204   */\n      add\n        /* \"#utility.yul\":5178:5204   */\n      swap1\n      pop\n        /* \"#utility.yul\":5214:5285   */\n      tag_195\n        /* \"#utility.yul\":5282:5283   */\n      0x00\n        /* \"#utility.yul\":5271:5280   */\n      dup4\n        /* \"#utility.yul\":5267:5284   */\n      add\n        /* \"#utility.yul\":5258:5264   */\n      dup6\n        /* \"#utility.yul\":5214:5285   */\n      tag_125\n      jump\t// in\n    tag_195:\n        /* \"#utility.yul\":5295:5367   */\n      tag_196\n        /* \"#utility.yul\":5363:5365   */\n      0x20\n        /* \"#utility.yul\":5352:5361   */\n      dup4\n        /* \"#utility.yul\":5348:5366   */\n      add\n        /* \"#utility.yul\":5339:5345   */\n      dup5\n        /* \"#utility.yul\":5295:5367   */\n      tag_134\n      jump\t// in\n    tag_196:\n        /* \"#utility.yul\":5042:5374   */\n      swap4\n      swap3\n      pop\n      pop\n      pop\n      jump\t// out\n        /* \"#utility.yul\":5380:5496   */\n    tag_135:\n        /* \"#utility.yul\":5450:5471   */\n      tag_198\n        /* \"#utility.yul\":5465:5470   */\n      dup2\n        /* \"#utility.yul\":5450:5471   */\n      tag_123\n      jump\t// in\n    tag_198:\n        /* \"#utility.yul\":5443:5448   */\n      dup2\n        /* \"#utility.yul\":5440:5472   */\n      eq\n        /* \"#utility.yul\":5430:5490   */\n      tag_199\n      jumpi\n        /* \"#utility.yul\":5486:5487   */\n      0x00\n        /* \"#utility.yul\":5483:5484   */\n      dup1\n        /* \"#utility.yul\":5476:5488   */\n      revert\n        /* \"#utility.yul\":5430:5490   */\n    tag_199:\n        /* \"#utility.yul\":5380:5496   */\n      pop\n      jump\t// out\n        /* \"#utility.yul\":5502:5639   */\n    tag_136:\n        /* \"#utility.yul\":5556:5561   */\n      0x00\n        /* \"#utility.yul\":5587:5593   */\n      dup2\n        /* \"#utility.yul\":5581:5594   */\n      mload\n        /* \"#utility.yul\":5572:5594   */\n      swap1\n      pop\n        /* \"#utility.yul\":5603:5633   */\n      tag_201\n        /* \"#utility.yul\":5627:5632   */\n      dup2\n        /* \"#utility.yul\":5603:5633   */\n      tag_135\n      jump\t// in\n    tag_201:\n        /* \"#utility.yul\":5502:5639   */\n      swap3\n      swap2\n      pop\n      pop\n      jump\t// out\n        /* \"#utility.yul\":5645:5990   */\n    tag_84:\n        /* \"#utility.yul\":5712:5718   */\n      0x00\n        /* \"#utility.yul\":5761:5763   */\n      0x20\n        /* \"#utility.yul\":5749:5758   */\n      dup3\n        /* \"#utility.yul\":5740:5747   */\n      dup5\n        /* \"#utility.yul\":5736:5759   */\n      sub\n        /* \"#utility.yul\":5732:5764   */\n      slt\n        /* \"#utility.yul\":5729:5848   */\n      iszero\n      tag_203\n      jumpi\n        /* \"#utility.yul\":5767:5846   */\n      tag_204\n      tag_117\n      jump\t// in\n    tag_204:\n        /* \"#utility.yul\":5729:5848   */\n    tag_203:\n        /* \"#utility.yul\":5887:5888   */\n      0x00\n        /* \"#utility.yul\":5912:5973   */\n      tag_205\n        /* \"#utility.yul\":5965:5972   */\n      dup5\n        /* \"#utility.yul\":5956:5962   */\n      dup3\n        /* \"#utility.yul\":5945:5954   */\n      dup6\n        /* \"#utility.yul\":5941:5963   */\n      add\n        /* \"#utility.yul\":5912:5973   */\n      tag_136\n      jump\t// in\n    tag_205:\n        /* \"#utility.yul\":5902:5973   */\n      swap2\n      pop\n        /* \"#utility.yul\":5858:5983   */\n      pop\n        /* \"#utility.yul\":5645:5990   */\n      swap3\n      swap2\n      pop\n      pop\n      jump\t// out\n        /* \"#utility.yul\":5996:6218   */\n    tag_87:\n        /* \"#utility.yul\":6089:6093   */\n      0x00\n        /* \"#utility.yul\":6127:6129   */\n      0x20\n        /* \"#utility.yul\":6116:6125   */\n      dup3\n        /* \"#utility.yul\":6112:6130   */\n      add\n        /* \"#utility.yul\":6104:6130   */\n      swap1\n      pop\n        /* \"#utility.yul\":6140:6211   */\n      tag_207\n        /* \"#utility.yul\":6208:6209   */\n      0x00\n        /* \"#utility.yul\":6197:6206   */\n      dup4\n        /* \"#utility.yul\":6193:6210   */\n      add\n        /* \"#utility.yul\":6184:6190   */\n      dup5\n        /* \"#utility.yul\":6140:6211   */\n      tag_134\n      jump\t// in\n    tag_207:\n        /* \"#utility.yul\":5996:6218   */\n      swap3\n      swap2\n      pop\n      pop\n      jump\t// out\n        /* \"#utility.yul\":6224:6449   */\n    tag_137:\n        /* \"#utility.yul\":6364:6398   */\n      0x4f776e61626c653a206e6577206f776e657220697320746865207a65726f2061\n        /* \"#utility.yul\":6360:6361   */\n      0x00\n        /* \"#utility.yul\":6352:6358   */\n      dup3\n        /* \"#utility.yul\":6348:6362   */\n      add\n        /* \"#utility.yul\":6341:6399   */\n      mstore\n        /* \"#utility.yul\":6433:6441   */\n      0x6464726573730000000000000000000000000000000000000000000000000000\n        /* \"#utility.yul\":6428:6430   */\n      0x20\n        /* \"#utility.yul\":6420:6426   */\n      dup3\n        /* \"#utility.yul\":6416:6431   */\n      add\n        /* \"#utility.yul\":6409:6442   */\n      mstore\n        /* \"#utility.yul\":6224:6449   */\n      pop\n      jump\t// out\n        /* \"#utility.yul\":6455:6821   */\n    tag_138:\n        /* \"#utility.yul\":6597:6600   */\n      0x00\n        /* \"#utility.yul\":6618:6685   */\n      tag_210\n        /* \"#utility.yul\":6682:6684   */\n      0x26\n        /* \"#utility.yul\":6677:6680   */\n      dup4\n        /* \"#utility.yul\":6618:6685   */\n      tag_129\n      jump\t// in\n    tag_210:\n        /* \"#utility.yul\":6611:6685   */\n      swap2\n      pop\n        /* \"#utility.yul\":6694:6787   */\n      tag_211\n        /* \"#utility.yul\":6783:6786   */\n      dup3\n        /* \"#utility.yul\":6694:6787   */\n      tag_137\n      jump\t// in\n    tag_211:\n        /* \"#utility.yul\":6812:6814   */\n      0x40\n        /* \"#utility.yul\":6807:6810   */\n      dup3\n        /* \"#utility.yul\":6803:6815   */\n      add\n        /* \"#utility.yul\":6796:6815   */\n      swap1\n      pop\n        /* \"#utility.yul\":6455:6821   */\n      swap2\n      swap1\n      pop\n      jump\t// out\n        /* \"#utility.yul\":6827:7246   */\n    tag_101:\n        /* \"#utility.yul\":6993:6997   */\n      0x00\n        /* \"#utility.yul\":7031:7033   */\n      0x20\n        /* \"#utility.yul\":7020:7029   */\n      dup3\n        /* \"#utility.yul\":7016:7034   */\n      add\n        /* \"#utility.yul\":7008:7034   */\n      swap1\n      pop\n        /* \"#utility.yul\":7080:7089   */\n      dup2\n        /* \"#utility.yul\":7074:7078   */\n      dup2\n        /* \"#utility.yul\":7070:7090   */\n      sub\n        /* \"#utility.yul\":7066:7067   */\n      0x00\n        /* \"#utility.yul\":7055:7064   */\n      dup4\n        /* \"#utility.yul\":7051:7068   */\n      add\n        /* \"#utility.yul\":7044:7091   */\n      mstore\n        /* \"#utility.yul\":7108:7239   */\n      tag_213\n        /* \"#utility.yul\":7234:7238   */\n      dup2\n        /* \"#utility.yul\":7108:7239   */\n      tag_138\n      jump\t// in\n    tag_213:\n        /* \"#utility.yul\":7100:7239   */\n      swap1\n      pop\n        /* \"#utility.yul\":6827:7246   */\n      swap2\n      swap1\n      pop\n      jump\t// out\n        /* \"#utility.yul\":7252:7434   */\n    tag_139:\n        /* \"#utility.yul\":7392:7426   */\n      0x4f776e61626c653a2063616c6c6572206973206e6f7420746865206f776e6572\n        /* \"#utility.yul\":7388:7389   */\n      0x00\n        /* \"#utility.yul\":7380:7386   */\n      dup3\n        /* \"#utility.yul\":7376:7390   */\n      add\n        /* \"#utility.yul\":7369:7427   */\n      mstore\n        /* \"#utility.yul\":7252:7434   */\n      pop\n      jump\t// out\n        /* \"#utility.yul\":7440:7806   */\n    tag_140:\n        /* \"#utility.yul\":7582:7585   */\n      0x00\n        /* \"#utility.yul\":7603:7670   */\n      tag_216\n        /* \"#utility.yul\":7667:7669   */\n      0x20\n        /* \"#utility.yul\":7662:7665   */\n      dup4\n        /* \"#utility.yul\":7603:7670   */\n      tag_129\n      jump\t// in\n    tag_216:\n        /* \"#utility.yul\":7596:7670   */\n      swap2\n      pop\n        /* \"#utility.yul\":7679:7772   */\n      tag_217\n        /* \"#utility.yul\":7768:7771   */\n      dup3\n        /* \"#utility.yul\":7679:7772   */\n      tag_139\n      jump\t// in\n    tag_217:\n        /* \"#utility.yul\":7797:7799   */\n      0x20\n        /* \"#utility.yul\":7792:7795   */\n      dup3\n        /* \"#utility.yul\":7788:7800   */\n      add\n        /* \"#utility.yul\":7781:7800   */\n      swap1\n      pop\n        /* \"#utility.yul\":7440:7806   */\n      swap2\n      swap1\n      pop\n      jump\t// out\n        /* \"#utility.yul\":7812:8231   */\n    tag_108:\n        /* \"#utility.yul\":7978:7982   */\n      0x00\n        /* \"#utility.yul\":8016:8018   */\n      0x20\n        /* \"#utility.yul\":8005:8014   */\n      dup3\n        /* \"#utility.yul\":8001:8019   */\n      add\n        /* \"#utility.yul\":7993:8019   */\n      swap1\n      pop\n        /* \"#utility.yul\":8065:8074   */\n      dup2\n        /* \"#utility.yul\":8059:8063   */\n      dup2\n        /* \"#utility.yul\":8055:8075   */\n      sub\n        /* \"#utility.yul\":8051:8052   */\n      0x00\n        /* \"#utility.yul\":8040:8049   */\n      dup4\n        /* \"#utility.yul\":8036:8053   */\n      add\n        /* \"#utility.yul\":8029:8076   */\n      mstore\n        /* \"#utility.yul\":8093:8224   */\n      tag_219\n        /* \"#utility.yul\":8219:8223   */\n      dup2\n        /* \"#utility.yul\":8093:8224   */\n      tag_140\n      jump\t// in\n    tag_219:\n        /* \"#utility.yul\":8085:8224   */\n      swap1\n      pop\n        /* \"#utility.yul\":7812:8231   */\n      swap2\n      swap1\n      pop\n      jump\t// out\n        /* \"#utility.yul\":8237:8418   */\n    tag_141:\n        /* \"#utility.yul\":8377:8410   */\n      0x5265656e7472616e637947756172643a207265656e7472616e742063616c6c00\n        /* \"#utility.yul\":8373:8374   */\n      0x00\n        /* \"#utility.yul\":8365:8371   */\n      dup3\n        /* \"#utility.yul\":8361:8375   */\n      add\n        /* \"#utility.yul\":8354:8411   */\n      mstore\n        /* \"#utility.yul\":8237:8418   */\n      pop\n      jump\t// out\n        /* \"#utility.yul\":8424:8790   */\n    tag_142:\n        /* \"#utility.yul\":8566:8569   */\n      0x00\n        /* \"#utility.yul\":8587:8654   */\n      tag_222\n        /* \"#utility.yul\":8651:8653   */\n      0x1f\n        /* \"#utility.yul\":8646:8649   */\n      dup4\n        /* \"#utility.yul\":8587:8654   */\n      tag_129\n      jump\t// in\n    tag_222:\n        /* \"#utility.yul\":8580:8654   */\n      swap2\n      pop\n        /* \"#utility.yul\":8663:8756   */\n      tag_223\n        /* \"#utility.yul\":8752:8755   */\n      dup3\n        /* \"#utility.yul\":8663:8756   */\n      tag_141\n      jump\t// in\n    tag_223:\n        /* \"#utility.yul\":8781:8783   */\n      0x20\n        /* \"#utility.yul\":8776:8779   */\n      dup3\n        /* \"#utility.yul\":8772:8784   */\n      add\n        /* \"#utility.yul\":8765:8784   */\n      swap1\n      pop\n        /* \"#utility.yul\":8424:8790   */\n      swap2\n      swap1\n      pop\n      jump\t// out\n        /* \"#utility.yul\":8796:9215   */\n    tag_114:\n        /* \"#utility.yul\":8962:8966   */\n      0x00\n        /* \"#utility.yul\":9000:9002   */\n      0x20\n        /* \"#utility.yul\":8989:8998   */\n      dup3\n        /* \"#utility.yul\":8985:9003   */\n      add\n        /* \"#utility.yul\":8977:9003   */\n      swap1\n      pop\n        /* \"#utility.yul\":9049:9058   */\n      dup2\n        /* \"#utility.yul\":9043:9047   */\n      dup2\n        /* \"#utility.yul\":9039:9059   */\n      sub\n        /* \"#utility.yul\":9035:9036   */\n      0x00\n        /* \"#utility.yul\":9024:9033   */\n      dup4\n        /* \"#utility.yul\":9020:9037   */\n      add\n        /* \"#utility.yul\":9013:9060   */\n      mstore\n        /* \"#utility.yul\":9077:9208   */\n      tag_225\n        /* \"#utility.yul\":9203:9207   */\n      dup2\n        /* \"#utility.yul\":9077:9208   */\n      tag_142\n      jump\t// in\n    tag_225:\n        /* \"#utility.yul\":9069:9208   */\n      swap1\n      pop\n        /* \"#utility.yul\":8796:9215   */\n      swap2\n      swap1\n      pop\n      jump\t// out\n\n    auxdata: 0xa2646970667358221220d515b00a39998edd3892ca103954e9bc7b89718dabdd3b9f1fb15511c080f55464736f6c63430008120033\n}\n",
				"bytecode": {
					"linkReferences": {},
					"object": "608060405234801561001057600080fd5b5060405162000e1238038062000e12833981810160405281019061003491906101cd565b61005061004561009e60201b60201c565b6100a660201b60201c565b6001808190555080600260006101000a81548173ffffffffffffffffffffffffffffffffffffffff021916908373ffffffffffffffffffffffffffffffffffffffff160217905550506101fa565b600033905090565b60008060009054906101000a900473ffffffffffffffffffffffffffffffffffffffff169050816000806101000a81548173ffffffffffffffffffffffffffffffffffffffff021916908373ffffffffffffffffffffffffffffffffffffffff1602179055508173ffffffffffffffffffffffffffffffffffffffff168173ffffffffffffffffffffffffffffffffffffffff167f8be0079c531659141344cd1fd0a4f28419497f9722a3daafe3b4186f6b6457e060405160405180910390a35050565b600080fd5b600073ffffffffffffffffffffffffffffffffffffffff82169050919050565b600061019a8261016f565b9050919050565b6101aa8161018f565b81146101b557600080fd5b50565b6000815190506101c7816101a1565b92915050565b6000602082840312156101e3576101e261016a565b5b60006101f1848285016101b8565b91505092915050565b610c08806200020a6000396000f3fe60806040526004361061008a5760003560e01c80638da5cb5b116100595780638da5cb5b1461012a5780639e281a9814610155578063d0e30db01461017e578063f2fde38b14610188578063fc0c546a146101b157610091565b806327304dfd146100965780634e71d92d146100d3578063704b6c02146100ea578063715018a61461011357610091565b3661009157005b600080fd5b3480156100a257600080fd5b506100bd60048036038101906100b891906107d0565b6101dc565b6040516100ca9190610818565b60405180910390f35b3480156100df57600080fd5b506100e86101fc565b005b3480156100f657600080fd5b50610111600480360381019061010c91906107d0565b610224565b005b34801561011f57600080fd5b50610128610287565b005b34801561013657600080fd5b5061013f61029b565b60405161014c9190610842565b60405180910390f35b34801561016157600080fd5b5061017c60048036038101906101779190610893565b6102c4565b005b6101866104bb565b005b34801561019457600080fd5b506101af60048036038101906101aa91906107d0565b610522565b005b3480156101bd57600080fd5b506101c66105a5565b6040516101d39190610842565b60405180910390f35b60036020528060005260406000206000915054906101000a900460ff1681565b6102046105cb565b61020c610649565b73ffffffffffffffffffffffffffffffffffffffff16ff5b61022c6105cb565b6001600360008373ffffffffffffffffffffffffffffffffffffffff1673ffffffffffffffffffffffffffffffffffffffff16815260200190815260200160002060006101000a81548160ff02191690831515021790555050565b61028f6105cb565b6102996000610651565b565b60008060009054906101000a900473ffffffffffffffffffffffffffffffffffffffff16905090565b6102cc610715565b600360006102d8610649565b73ffffffffffffffffffffffffffffffffffffffff1673ffffffffffffffffffffffffffffffffffffffff16815260200190815260200160002060009054906101000a900460ff1661035f576040517f08c379a000000000000000000000000000000000000000000000000000000000815260040161035690610930565b60405180910390fd5b804710156103a2576040517f08c379a00000000000000000000000000000000000000000000000000000000081526004016103999061099c565b60405180910390fd5b600260009054906101000a900473ffffffffffffffffffffffffffffffffffffffff1673ffffffffffffffffffffffffffffffffffffffff1663a9059cbb83836040518363ffffffff1660e01b81526004016103ff9291906109cb565b6020604051808303816000875af115801561041e573d6000803e3d6000fd5b505050506040513d601f19601f820116820180604052508101906104429190610a20565b508173ffffffffffffffffffffffffffffffffffffffff16610462610649565b73ffffffffffffffffffffffffffffffffffffffff167f93cb7b4ba12c5bb07f02e52c4e43788d8f4db1e66e9d30aaaeffc5ab325b810c836040516104a79190610a4d565b60405180910390a36104b7610764565b5050565b6104c3610715565b6104cb610649565b73ffffffffffffffffffffffffffffffffffffffff167f2d8a08b6430a894aea608bcaa6013d5d3e263bc49110605e4d4ba76930ae5c29346040516105109190610a4d565b60405180910390a2610520610764565b565b61052a6105cb565b600073ffffffffffffffffffffffffffffffffffffffff168173ffffffffffffffffffffffffffffffffffffffff1603610599576040517f08c379a000000000000000000000000000000000000000000000000000000000815260040161059090610ada565b60405180910390fd5b6105a281610651565b50565b600260009054906101000a900473ffffffffffffffffffffffffffffffffffffffff1681565b6105d3610649565b73ffffffffffffffffffffffffffffffffffffffff166105f161029b565b73ffffffffffffffffffffffffffffffffffffffff1614610647576040517f08c379a000000000000000000000000000000000000000000000000000000000815260040161063e90610b46565b60405180910390fd5b565b600033905090565b60008060009054906101000a900473ffffffffffffffffffffffffffffffffffffffff169050816000806101000a81548173ffffffffffffffffffffffffffffffffffffffff021916908373ffffffffffffffffffffffffffffffffffffffff1602179055508173ffffffffffffffffffffffffffffffffffffffff168173ffffffffffffffffffffffffffffffffffffffff167f8be0079c531659141344cd1fd0a4f28419497f9722a3daafe3b4186f6b6457e060405160405180910390a35050565b60026001540361075a576040517f08c379a000000000000000000000000000000000000000000000000000000000815260040161075190610bb2565b60405180910390fd5b6002600181905550565b60018081905550565b600080fd5b600073ffffffffffffffffffffffffffffffffffffffff82169050919050565b600061079d82610772565b9050919050565b6107ad81610792565b81146107b857600080fd5b50565b6000813590506107ca816107a4565b92915050565b6000602082840312156107e6576107e561076d565b5b60006107f4848285016107bb565b91505092915050565b60008115159050919050565b610812816107fd565b82525050565b600060208201905061082d6000830184610809565b92915050565b61083c81610792565b82525050565b60006020820190506108576000830184610833565b92915050565b6000819050919050565b6108708161085d565b811461087b57600080fd5b50565b60008135905061088d81610867565b92915050565b600080604083850312156108aa576108a961076d565b5b60006108b8858286016107bb565b92505060206108c98582860161087e565b9150509250929050565b600082825260208201905092915050565b7f506f6f6c3a206e6f742061646d696e0000000000000000000000000000000000600082015250565b600061091a600f836108d3565b9150610925826108e4565b602082019050919050565b600060208201905081810360008301526109498161090d565b9050919050565b7f506f6f6c3a20746f6b656e2062616c616e6365206e6f7420656e6f7567682100600082015250565b6000610986601f836108d3565b915061099182610950565b602082019050919050565b600060208201905081810360008301526109b581610979565b9050919050565b6109c58161085d565b82525050565b60006040820190506109e06000830185610833565b6109ed60208301846109bc565b9392505050565b6109fd816107fd565b8114610a0857600080fd5b50565b600081519050610a1a816109f4565b92915050565b600060208284031215610a3657610a3561076d565b5b6000610a4484828501610a0b565b91505092915050565b6000602082019050610a6260008301846109bc565b92915050565b7f4f776e61626c653a206e6577206f776e657220697320746865207a65726f206160008201527f6464726573730000000000000000000000000000000000000000000000000000602082015250565b6000610ac46026836108d3565b9150610acf82610a68565b604082019050919050565b60006020820190508181036000830152610af381610ab7565b9050919050565b7f4f776e61626c653a2063616c6c6572206973206e6f7420746865206f776e6572600082015250565b6000610b306020836108d3565b9150610b3b82610afa565b602082019050919050565b60006020820190508181036000830152610b5f81610b23565b9050919050565b7f5265656e7472616e637947756172643a207265656e7472616e742063616c6c00600082015250565b6000610b9c601f836108d3565b9150610ba782610b66565b602082019050919050565b60006020820190508181036000830152610bcb81610b8f565b905091905056fea2646970667358221220d515b00a39998edd3892ca103954e9bc7b89718dabdd3b9f1fb15511c080f55464736f6c63430008120033",
					"opcodes": "PUSH1 0x80 PUSH1 0x40 MSTORE CALLVALUE DUP1 ISZERO PUSH2 0x10 JUMPI PUSH1 0x0 DUP1 REVERT JUMPDEST POP PUSH1 0x40 MLOAD PUSH3 0xE12 CODESIZE SUB DUP1 PUSH3 0xE12 DUP4 CODECOPY DUP2 DUP2 ADD PUSH1 0x40 MSTORE DUP2 ADD SWAP1 PUSH2 0x34 SWAP2 SWAP1 PUSH2 0x1CD JUMP JUMPDEST PUSH2 0x50 PUSH2 0x45 PUSH2 0x9E PUSH1 0x20 SHL PUSH1 0x20 SHR JUMP JUMPDEST PUSH2 0xA6 PUSH1 0x20 SHL PUSH1 0x20 SHR JUMP JUMPDEST PUSH1 0x1 DUP1 DUP2 SWAP1 SSTORE POP DUP1 PUSH1 0x2 PUSH1 0x0 PUSH2 0x100 EXP DUP2 SLOAD DUP2 PUSH20 0xFFFFFFFFFFFFFFFFFFFFFFFFFFFFFFFFFFFFFFFF MUL NOT AND SWAP1 DUP4 PUSH20 0xFFFFFFFFFFFFFFFFFFFFFFFFFFFFFFFFFFFFFFFF AND MUL OR SWAP1 SSTORE POP POP PUSH2 0x1FA JUMP JUMPDEST PUSH1 0x0 CALLER SWAP1 POP SWAP1 JUMP JUMPDEST PUSH1 0x0 DUP1 PUSH1 0x0 SWAP1 SLOAD SWAP1 PUSH2 0x100 EXP SWAP1 DIV PUSH20 0xFFFFFFFFFFFFFFFFFFFFFFFFFFFFFFFFFFFFFFFF AND SWAP1 POP DUP2 PUSH1 0x0 DUP1 PUSH2 0x100 EXP DUP2 SLOAD DUP2 PUSH20 0xFFFFFFFFFFFFFFFFFFFFFFFFFFFFFFFFFFFFFFFF MUL NOT AND SWAP1 DUP4 PUSH20 0xFFFFFFFFFFFFFFFFFFFFFFFFFFFFFFFFFFFFFFFF AND MUL OR SWAP1 SSTORE POP DUP2 PUSH20 0xFFFFFFFFFFFFFFFFFFFFFFFFFFFFFFFFFFFFFFFF AND DUP2 PUSH20 0xFFFFFFFFFFFFFFFFFFFFFFFFFFFFFFFFFFFFFFFF AND PUSH32 0x8BE0079C531659141344CD1FD0A4F28419497F9722A3DAAFE3B4186F6B6457E0 PUSH1 0x40 MLOAD PUSH1 0x40 MLOAD DUP1 SWAP2 SUB SWAP1 LOG3 POP POP JUMP JUMPDEST PUSH1 0x0 DUP1 REVERT JUMPDEST PUSH1 0x0 PUSH20 0xFFFFFFFFFFFFFFFFFFFFFFFFFFFFFFFFFFFFFFFF DUP3 AND SWAP1 POP SWAP2 SWAP1 POP JUMP JUMPDEST PUSH1 0x0 PUSH2 0x19A DUP3 PUSH2 0x16F JUMP JUMPDEST SWAP1 POP SWAP2 SWAP1 POP JUMP JUMPDEST PUSH2 0x1AA DUP2 PUSH2 0x18F JUMP JUMPDEST DUP2 EQ PUSH2 0x1B5 JUMPI PUSH1 0x0 DUP1 REVERT JUMPDEST POP JUMP JUMPDEST PUSH1 0x0 DUP2 MLOAD SWAP1 POP PUSH2 0x1C7 DUP2 PUSH2 0x1A1 JUMP JUMPDEST SWAP3 SWAP2 POP POP JUMP JUMPDEST PUSH1 0x0 PUSH1 0x20 DUP3 DUP5 SUB SLT ISZERO PUSH2 0x1E3 JUMPI PUSH2 0x1E2 PUSH2 0x16A JUMP JUMPDEST JUMPDEST PUSH1 0x0 PUSH2 0x1F1 DUP5 DUP3 DUP6 ADD PUSH2 0x1B8 JUMP JUMPDEST SWAP2 POP POP SWAP3 SWAP2 POP POP JUMP JUMPDEST PUSH2 0xC08 DUP1 PUSH3 0x20A PUSH1 0x0 CODECOPY PUSH1 0x0 RETURN INVALID PUSH1 0x80 PUSH1 0x40 MSTORE PUSH1 0x4 CALLDATASIZE LT PUSH2 0x8A JUMPI PUSH1 0x0 CALLDATALOAD PUSH1 0xE0 SHR DUP1 PUSH4 0x8DA5CB5B GT PUSH2 0x59 JUMPI DUP1 PUSH4 0x8DA5CB5B EQ PUSH2 0x12A JUMPI DUP1 PUSH4 0x9E281A98 EQ PUSH2 0x155 JUMPI DUP1 PUSH4 0xD0E30DB0 EQ PUSH2 0x17E JUMPI DUP1 PUSH4 0xF2FDE38B EQ PUSH2 0x188 JUMPI DUP1 PUSH4 0xFC0C546A EQ PUSH2 0x1B1 JUMPI PUSH2 0x91 JUMP JUMPDEST DUP1 PUSH4 0x27304DFD EQ PUSH2 0x96 JUMPI DUP1 PUSH4 0x4E71D92D EQ PUSH2 0xD3 JUMPI DUP1 PUSH4 0x704B6C02 EQ PUSH2 0xEA JUMPI DUP1 PUSH4 0x715018A6 EQ PUSH2 0x113 JUMPI PUSH2 0x91 JUMP JUMPDEST CALLDATASIZE PUSH2 0x91 JUMPI STOP JUMPDEST PUSH1 0x0 DUP1 REVERT JUMPDEST CALLVALUE DUP1 ISZERO PUSH2 0xA2 JUMPI PUSH1 0x0 DUP1 REVERT JUMPDEST POP PUSH2 0xBD PUSH1 0x4 DUP1 CALLDATASIZE SUB DUP2 ADD SWAP1 PUSH2 0xB8 SWAP2 SWAP1 PUSH2 0x7D0 JUMP JUMPDEST PUSH2 0x1DC JUMP JUMPDEST PUSH1 0x40 MLOAD PUSH2 0xCA SWAP2 SWAP1 PUSH2 0x818 JUMP JUMPDEST PUSH1 0x40 MLOAD DUP1 SWAP2 SUB SWAP1 RETURN JUMPDEST CALLVALUE DUP1 ISZERO PUSH2 0xDF JUMPI PUSH1 0x0 DUP1 REVERT JUMPDEST POP PUSH2 0xE8 PUSH2 0x1FC JUMP JUMPDEST STOP JUMPDEST CALLVALUE DUP1 ISZERO PUSH2 0xF6 JUMPI PUSH1 0x0 DUP1 REVERT JUMPDEST POP PUSH2 0x111 PUSH1 0x4 DUP1 CALLDATASIZE SUB DUP2 ADD SWAP1 PUSH2 0x10C SWAP2 SWAP1 PUSH2 0x7D0 JUMP JUMPDEST PUSH2 0x224 JUMP JUMPDEST STOP JUMPDEST CALLVALUE DUP1 ISZERO PUSH2 0x11F JUMPI PUSH1 0x0 DUP1 REVERT JUMPDEST POP PUSH2 0x128 PUSH2 0x287 JUMP JUMPDEST STOP JUMPDEST CALLVALUE DUP1 ISZERO PUSH2 0x136 JUMPI PUSH1 0x0 DUP1 REVERT JUMPDEST POP PUSH2 0x13F PUSH2 0x29B JUMP JUMPDEST PUSH1 0x40 MLOAD PUSH2 0x14C SWAP2 SWAP1 PUSH2 0x842 JUMP JUMPDEST PUSH1 0x40 MLOAD DUP1 SWAP2 SUB SWAP1 RETURN JUMPDEST CALLVALUE DUP1 ISZERO PUSH2 0x161 JUMPI PUSH1 0x0 DUP1 REVERT JUMPDEST POP PUSH2 0x17C PUSH1 0x4 DUP1 CALLDATASIZE SUB DUP2 ADD SWAP1 PUSH2 0x177 SWAP2 SWAP1 PUSH2 0x893 JUMP JUMPDEST PUSH2 0x2C4 JUMP JUMPDEST STOP JUMPDEST PUSH2 0x186 PUSH2 0x4BB JUMP JUMPDEST STOP JUMPDEST CALLVALUE DUP1 ISZERO PUSH2 0x194 JUMPI PUSH1 0x0 DUP1 REVERT JUMPDEST POP PUSH2 0x1AF PUSH1 0x4 DUP1 CALLDATASIZE SUB DUP2 ADD SWAP1 PUSH2 0x1AA SWAP2 SWAP1 PUSH2 0x7D0 JUMP JUMPDEST PUSH2 0x522 JUMP JUMPDEST STOP JUMPDEST CALLVALUE DUP1 ISZERO PUSH2 0x1BD JUMPI PUSH1 0x0 DUP1 REVERT JUMPDEST POP PUSH2 0x1C6 PUSH2 0x5A5 JUMP JUMPDEST PUSH1 0x40 MLOAD PUSH2 0x1D3 SWAP2 SWAP1 PUSH2 0x842 JUMP JUMPDEST PUSH1 0x40 MLOAD DUP1 SWAP2 SUB SWAP1 RETURN JUMPDEST PUSH1 0x3 PUSH1 0x20 MSTORE DUP1 PUSH1 0x0 MSTORE PUSH1 0x40 PUSH1 0x0 KECCAK256 PUSH1 0x0 SWAP2 POP SLOAD SWAP1 PUSH2 0x100 EXP SWAP1 DIV PUSH1 0xFF AND DUP2 JUMP JUMPDEST PUSH2 0x204 PUSH2 0x5CB JUMP JUMPDEST PUSH2 0x20C PUSH2 0x649 JUMP JUMPDEST PUSH20 0xFFFFFFFFFFFFFFFFFFFFFFFFFFFFFFFFFFFFFFFF AND SELFDESTRUCT JUMPDEST PUSH2 0x22C PUSH2 0x5CB JUMP JUMPDEST PUSH1 0x1 PUSH1 0x3 PUSH1 0x0 DUP4 PUSH20 0xFFFFFFFFFFFFFFFFFFFFFFFFFFFFFFFFFFFFFFFF AND PUSH20 0xFFFFFFFFFFFFFFFFFFFFFFFFFFFFFFFFFFFFFFFF AND DUP2 MSTORE PUSH1 0x20 ADD SWAP1 DUP2 MSTORE PUSH1 0x20 ADD PUSH1 0x0 KECCAK256 PUSH1 0x0 PUSH2 0x100 EXP DUP2 SLOAD DUP2 PUSH1 0xFF MUL NOT AND SWAP1 DUP4 ISZERO ISZERO MUL OR SWAP1 SSTORE POP POP JUMP JUMPDEST PUSH2 0x28F PUSH2 0x5CB JUMP JUMPDEST PUSH2 0x299 PUSH1 0x0 PUSH2 0x651 JUMP JUMPDEST JUMP JUMPDEST PUSH1 0x0 DUP1 PUSH1 0x0 SWAP1 SLOAD SWAP1 PUSH2 0x100 EXP SWAP1 DIV PUSH20 0xFFFFFFFFFFFFFFFFFFFFFFFFFFFFFFFFFFFFFFFF AND SWAP1 POP SWAP1 JUMP JUMPDEST PUSH2 0x2CC PUSH2 0x715 JUMP JUMPDEST PUSH1 0x3 PUSH1 0x0 PUSH2 0x2D8 PUSH2 0x649 JUMP JUMPDEST PUSH20 0xFFFFFFFFFFFFFFFFFFFFFFFFFFFFFFFFFFFFFFFF AND PUSH20 0xFFFFFFFFFFFFFFFFFFFFFFFFFFFFFFFFFFFFFFFF AND DUP2 MSTORE PUSH1 0x20 ADD SWAP1 DUP2 MSTORE PUSH1 0x20 ADD PUSH1 0x0 KECCAK256 PUSH1 0x0 SWAP1 SLOAD SWAP1 PUSH2 0x100 EXP SWAP1 DIV PUSH1 0xFF AND PUSH2 0x35F JUMPI PUSH1 0x40 MLOAD PUSH32 0x8C379A000000000000000000000000000000000000000000000000000000000 DUP2 MSTORE PUSH1 0x4 ADD PUSH2 0x356 SWAP1 PUSH2 0x930 JUMP JUMPDEST PUSH1 0x40 MLOAD DUP1 SWAP2 SUB SWAP1 REVERT JUMPDEST DUP1 SELFBALANCE LT ISZERO PUSH2 0x3A2 JUMPI PUSH1 0x40 MLOAD PUSH32 0x8C379A000000000000000000000000000000000000000000000000000000000 DUP2 MSTORE PUSH1 0x4 ADD PUSH2 0x399 SWAP1 PUSH2 0x99C JUMP JUMPDEST PUSH1 0x40 MLOAD DUP1 SWAP2 SUB SWAP1 REVERT JUMPDEST PUSH1 0x2 PUSH1 0x0 SWAP1 SLOAD SWAP1 PUSH2 0x100 EXP SWAP1 DIV PUSH20 0xFFFFFFFFFFFFFFFFFFFFFFFFFFFFFFFFFFFFFFFF AND PUSH20 0xFFFFFFFFFFFFFFFFFFFFFFFFFFFFFFFFFFFFFFFF AND PUSH4 0xA9059CBB DUP4 DUP4 PUSH1 0x40 MLOAD DUP4 PUSH4 0xFFFFFFFF AND PUSH1 0xE0 SHL DUP2 MSTORE PUSH1 0x4 ADD PUSH2 0x3FF SWAP3 SWAP2 SWAP1 PUSH2 0x9CB JUMP JUMPDEST PUSH1 0x20 PUSH1 0x40 MLOAD DUP1 DUP4 SUB DUP2 PUSH1 0x0 DUP8 GAS CALL ISZERO DUP1 ISZERO PUSH2 0x41E JUMPI RETURNDATASIZE PUSH1 0x0 DUP1 RETURNDATACOPY RETURNDATASIZE PUSH1 0x0 REVERT JUMPDEST POP POP POP POP PUSH1 0x40 MLOAD RETURNDATASIZE PUSH1 0x1F NOT PUSH1 0x1F DUP3 ADD AND DUP3 ADD DUP1 PUSH1 0x40 MSTORE POP DUP2 ADD SWAP1 PUSH2 0x442 SWAP2 SWAP1 PUSH2 0xA20 JUMP JUMPDEST POP DUP2 PUSH20 0xFFFFFFFFFFFFFFFFFFFFFFFFFFFFFFFFFFFFFFFF AND PUSH2 0x462 PUSH2 0x649 JUMP JUMPDEST PUSH20 0xFFFFFFFFFFFFFFFFFFFFFFFFFFFFFFFFFFFFFFFF AND PUSH32 0x93CB7B4BA12C5BB07F02E52C4E43788D8F4DB1E66E9D30AAAEFFC5AB325B810C DUP4 PUSH1 0x40 MLOAD PUSH2 0x4A7 SWAP2 SWAP1 PUSH2 0xA4D JUMP JUMPDEST PUSH1 0x40 MLOAD DUP1 SWAP2 SUB SWAP1 LOG3 PUSH2 0x4B7 PUSH2 0x764 JUMP JUMPDEST POP POP JUMP JUMPDEST PUSH2 0x4C3 PUSH2 0x715 JUMP JUMPDEST PUSH2 0x4CB PUSH2 0x649 JUMP JUMPDEST PUSH20 0xFFFFFFFFFFFFFFFFFFFFFFFFFFFFFFFFFFFFFFFF AND PUSH32 0x2D8A08B6430A894AEA608BCAA6013D5D3E263BC49110605E4D4BA76930AE5C29 CALLVALUE PUSH1 0x40 MLOAD PUSH2 0x510 SWAP2 SWAP1 PUSH2 0xA4D JUMP JUMPDEST PUSH1 0x40 MLOAD DUP1 SWAP2 SUB SWAP1 LOG2 PUSH2 0x520 PUSH2 0x764 JUMP JUMPDEST JUMP JUMPDEST PUSH2 0x52A PUSH2 0x5CB JUMP JUMPDEST PUSH1 0x0 PUSH20 0xFFFFFFFFFFFFFFFFFFFFFFFFFFFFFFFFFFFFFFFF AND DUP2 PUSH20 0xFFFFFFFFFFFFFFFFFFFFFFFFFFFFFFFFFFFFFFFF AND SUB PUSH2 0x599 JUMPI PUSH1 0x40 MLOAD PUSH32 0x8C379A000000000000000000000000000000000000000000000000000000000 DUP2 MSTORE PUSH1 0x4 ADD PUSH2 0x590 SWAP1 PUSH2 0xADA JUMP JUMPDEST PUSH1 0x40 MLOAD DUP1 SWAP2 SUB SWAP1 REVERT JUMPDEST PUSH2 0x5A2 DUP2 PUSH2 0x651 JUMP JUMPDEST POP JUMP JUMPDEST PUSH1 0x2 PUSH1 0x0 SWAP1 SLOAD SWAP1 PUSH2 0x100 EXP SWAP1 DIV PUSH20 0xFFFFFFFFFFFFFFFFFFFFFFFFFFFFFFFFFFFFFFFF AND DUP2 JUMP JUMPDEST PUSH2 0x5D3 PUSH2 0x649 JUMP JUMPDEST PUSH20 0xFFFFFFFFFFFFFFFFFFFFFFFFFFFFFFFFFFFFFFFF AND PUSH2 0x5F1 PUSH2 0x29B JUMP JUMPDEST PUSH20 0xFFFFFFFFFFFFFFFFFFFFFFFFFFFFFFFFFFFFFFFF AND EQ PUSH2 0x647 JUMPI PUSH1 0x40 MLOAD PUSH32 0x8C379A000000000000000000000000000000000000000000000000000000000 DUP2 MSTORE PUSH1 0x4 ADD PUSH2 0x63E SWAP1 PUSH2 0xB46 JUMP JUMPDEST PUSH1 0x40 MLOAD DUP1 SWAP2 SUB SWAP1 REVERT JUMPDEST JUMP JUMPDEST PUSH1 0x0 CALLER SWAP1 POP SWAP1 JUMP JUMPDEST PUSH1 0x0 DUP1 PUSH1 0x0 SWAP1 SLOAD SWAP1 PUSH2 0x100 EXP SWAP1 DIV PUSH20 0xFFFFFFFFFFFFFFFFFFFFFFFFFFFFFFFFFFFFFFFF AND SWAP1 POP DUP2 PUSH1 0x0 DUP1 PUSH2 0x100 EXP DUP2 SLOAD DUP2 PUSH20 0xFFFFFFFFFFFFFFFFFFFFFFFFFFFFFFFFFFFFFFFF MUL NOT AND SWAP1 DUP4 PUSH20 0xFFFFFFFFFFFFFFFFFFFFFFFFFFFFFFFFFFFFFFFF AND MUL OR SWAP1 SSTORE POP DUP2 PUSH20 0xFFFFFFFFFFFFFFFFFFFFFFFFFFFFFFFFFFFFFFFF AND DUP2 PUSH20 0xFFFFFFFFFFFFFFFFFFFFFFFFFFFFFFFFFFFFFFFF AND PUSH32 0x8BE0079C531659141344CD1FD0A4F28419497F9722A3DAAFE3B4186F6B6457E0 PUSH1 0x40 MLOAD PUSH1 0x40 MLOAD DUP1 SWAP2 SUB SWAP1 LOG3 POP POP JUMP JUMPDEST PUSH1 0x2 PUSH1 0x1 SLOAD SUB PUSH2 0x75A JUMPI PUSH1 0x40 MLOAD PUSH32 0x8C379A000000000000000000000000000000000000000000000000000000000 DUP2 MSTORE PUSH1 0x4 ADD PUSH2 0x751 SWAP1 PUSH2 0xBB2 JUMP JUMPDEST PUSH1 0x40 MLOAD DUP1 SWAP2 SUB SWAP1 REVERT JUMPDEST PUSH1 0x2 PUSH1 0x1 DUP2 SWAP1 SSTORE POP JUMP JUMPDEST PUSH1 0x1 DUP1 DUP2 SWAP1 SSTORE POP JUMP JUMPDEST PUSH1 0x0 DUP1 REVERT JUMPDEST PUSH1 0x0 PUSH20 0xFFFFFFFFFFFFFFFFFFFFFFFFFFFFFFFFFFFFFFFF DUP3 AND SWAP1 POP SWAP2 SWAP1 POP JUMP JUMPDEST PUSH1 0x0 PUSH2 0x79D DUP3 PUSH2 0x772 JUMP JUMPDEST SWAP1 POP SWAP2 SWAP1 POP JUMP JUMPDEST PUSH2 0x7AD DUP2 PUSH2 0x792 JUMP JUMPDEST DUP2 EQ PUSH2 0x7B8 JUMPI PUSH1 0x0 DUP1 REVERT JUMPDEST POP JUMP JUMPDEST PUSH1 0x0 DUP2 CALLDATALOAD SWAP1 POP PUSH2 0x7CA DUP2 PUSH2 0x7A4 JUMP JUMPDEST SWAP3 SWAP2 POP POP JUMP JUMPDEST PUSH1 0x0 PUSH1 0x20 DUP3 DUP5 SUB SLT ISZERO PUSH2 0x7E6 JUMPI PUSH2 0x7E5 PUSH2 0x76D JUMP JUMPDEST JUMPDEST PUSH1 0x0 PUSH2 0x7F4 DUP5 DUP3 DUP6 ADD PUSH2 0x7BB JUMP JUMPDEST SWAP2 POP POP SWAP3 SWAP2 POP POP JUMP JUMPDEST PUSH1 0x0 DUP2 ISZERO ISZERO SWAP1 POP SWAP2 SWAP1 POP JUMP JUMPDEST PUSH2 0x812 DUP2 PUSH2 0x7FD JUMP JUMPDEST DUP3 MSTORE POP POP JUMP JUMPDEST PUSH1 0x0 PUSH1 0x20 DUP3 ADD SWAP1 POP PUSH2 0x82D PUSH1 0x0 DUP4 ADD DUP5 PUSH2 0x809 JUMP JUMPDEST SWAP3 SWAP2 POP POP JUMP JUMPDEST PUSH2 0x83C DUP2 PUSH2 0x792 JUMP JUMPDEST DUP3 MSTORE POP POP JUMP JUMPDEST PUSH1 0x0 PUSH1 0x20 DUP3 ADD SWAP1 POP PUSH2 0x857 PUSH1 0x0 DUP4 ADD DUP5 PUSH2 0x833 JUMP JUMPDEST SWAP3 SWAP2 POP POP JUMP JUMPDEST PUSH1 0x0 DUP2 SWAP1 POP SWAP2 SWAP1 POP JUMP JUMPDEST PUSH2 0x870 DUP2 PUSH2 0x85D JUMP JUMPDEST DUP2 EQ PUSH2 0x87B JUMPI PUSH1 0x0 DUP1 REVERT JUMPDEST POP JUMP JUMPDEST PUSH1 0x0 DUP2 CALLDATALOAD SWAP1 POP PUSH2 0x88D DUP2 PUSH2 0x867 JUMP JUMPDEST SWAP3 SWAP2 POP POP JUMP JUMPDEST PUSH1 0x0 DUP1 PUSH1 0x40 DUP4 DUP6 SUB SLT ISZERO PUSH2 0x8AA JUMPI PUSH2 0x8A9 PUSH2 0x76D JUMP JUMPDEST JUMPDEST PUSH1 0x0 PUSH2 0x8B8 DUP6 DUP3 DUP7 ADD PUSH2 0x7BB JUMP JUMPDEST SWAP3 POP POP PUSH1 0x20 PUSH2 0x8C9 DUP6 DUP3 DUP7 ADD PUSH2 0x87E JUMP JUMPDEST SWAP2 POP POP SWAP3 POP SWAP3 SWAP1 POP JUMP JUMPDEST PUSH1 0x0 DUP3 DUP3 MSTORE PUSH1 0x20 DUP3 ADD SWAP1 POP SWAP3 SWAP2 POP POP JUMP JUMPDEST PUSH32 0x506F6F6C3A206E6F742061646D696E0000000000000000000000000000000000 PUSH1 0x0 DUP3 ADD MSTORE POP JUMP JUMPDEST PUSH1 0x0 PUSH2 0x91A PUSH1 0xF DUP4 PUSH2 0x8D3 JUMP JUMPDEST SWAP2 POP PUSH2 0x925 DUP3 PUSH2 0x8E4 JUMP JUMPDEST PUSH1 0x20 DUP3 ADD SWAP1 POP SWAP2 SWAP1 POP JUMP JUMPDEST PUSH1 0x0 PUSH1 0x20 DUP3 ADD SWAP1 POP DUP2 DUP2 SUB PUSH1 0x0 DUP4 ADD MSTORE PUSH2 0x949 DUP2 PUSH2 0x90D JUMP JUMPDEST SWAP1 POP SWAP2 SWAP1 POP JUMP JUMPDEST PUSH32 0x506F6F6C3A20746F6B656E2062616C616E6365206E6F7420656E6F7567682100 PUSH1 0x0 DUP3 ADD MSTORE POP JUMP JUMPDEST PUSH1 0x0 PUSH2 0x986 PUSH1 0x1F DUP4 PUSH2 0x8D3 JUMP JUMPDEST SWAP2 POP PUSH2 0x991 DUP3 PUSH2 0x950 JUMP JUMPDEST PUSH1 0x20 DUP3 ADD SWAP1 POP SWAP2 SWAP1 POP JUMP JUMPDEST PUSH1 0x0 PUSH1 0x20 DUP3 ADD SWAP1 POP DUP2 DUP2 SUB PUSH1 0x0 DUP4 ADD MSTORE PUSH2 0x9B5 DUP2 PUSH2 0x979 JUMP JUMPDEST SWAP1 POP SWAP2 SWAP1 POP JUMP JUMPDEST PUSH2 0x9C5 DUP2 PUSH2 0x85D JUMP JUMPDEST DUP3 MSTORE POP POP JUMP JUMPDEST PUSH1 0x0 PUSH1 0x40 DUP3 ADD SWAP1 POP PUSH2 0x9E0 PUSH1 0x0 DUP4 ADD DUP6 PUSH2 0x833 JUMP JUMPDEST PUSH2 0x9ED PUSH1 0x20 DUP4 ADD DUP5 PUSH2 0x9BC JUMP JUMPDEST SWAP4 SWAP3 POP POP POP JUMP JUMPDEST PUSH2 0x9FD DUP2 PUSH2 0x7FD JUMP JUMPDEST DUP2 EQ PUSH2 0xA08 JUMPI PUSH1 0x0 DUP1 REVERT JUMPDEST POP JUMP JUMPDEST PUSH1 0x0 DUP2 MLOAD SWAP1 POP PUSH2 0xA1A DUP2 PUSH2 0x9F4 JUMP JUMPDEST SWAP3 SWAP2 POP POP JUMP JUMPDEST PUSH1 0x0 PUSH1 0x20 DUP3 DUP5 SUB SLT ISZERO PUSH2 0xA36 JUMPI PUSH2 0xA35 PUSH2 0x76D JUMP JUMPDEST JUMPDEST PUSH1 0x0 PUSH2 0xA44 DUP5 DUP3 DUP6 ADD PUSH2 0xA0B JUMP JUMPDEST SWAP2 POP POP SWAP3 SWAP2 POP POP JUMP JUMPDEST PUSH1 0x0 PUSH1 0x20 DUP3 ADD SWAP1 POP PUSH2 0xA62 PUSH1 0x0 DUP4 ADD DUP5 PUSH2 0x9BC JUMP JUMPDEST SWAP3 SWAP2 POP POP JUMP JUMPDEST PUSH32 0x4F776E61626C653A206E6577206F776E657220697320746865207A65726F2061 PUSH1 0x0 DUP3 ADD MSTORE PUSH32 0x6464726573730000000000000000000000000000000000000000000000000000 PUSH1 0x20 DUP3 ADD MSTORE POP JUMP JUMPDEST PUSH1 0x0 PUSH2 0xAC4 PUSH1 0x26 DUP4 PUSH2 0x8D3 JUMP JUMPDEST SWAP2 POP PUSH2 0xACF DUP3 PUSH2 0xA68 JUMP JUMPDEST PUSH1 0x40 DUP3 ADD SWAP1 POP SWAP2 SWAP1 POP JUMP JUMPDEST PUSH1 0x0 PUSH1 0x20 DUP3 ADD SWAP1 POP DUP2 DUP2 SUB PUSH1 0x0 DUP4 ADD MSTORE PUSH2 0xAF3 DUP2 PUSH2 0xAB7 JUMP JUMPDEST SWAP1 POP SWAP2 SWAP1 POP JUMP JUMPDEST PUSH32 0x4F776E61626C653A2063616C6C6572206973206E6F7420746865206F776E6572 PUSH1 0x0 DUP3 ADD MSTORE POP JUMP JUMPDEST PUSH1 0x0 PUSH2 0xB30 PUSH1 0x20 DUP4 PUSH2 0x8D3 JUMP JUMPDEST SWAP2 POP PUSH2 0xB3B DUP3 PUSH2 0xAFA JUMP JUMPDEST PUSH1 0x20 DUP3 ADD SWAP1 POP SWAP2 SWAP1 POP JUMP JUMPDEST PUSH1 0x0 PUSH1 0x20 DUP3 ADD SWAP1 POP DUP2 DUP2 SUB PUSH1 0x0 DUP4 ADD MSTORE PUSH2 0xB5F DUP2 PUSH2 0xB23 JUMP JUMPDEST SWAP1 POP SWAP2 SWAP1 POP JUMP JUMPDEST PUSH32 0x5265656E7472616E637947756172643A207265656E7472616E742063616C6C00 PUSH1 0x0 DUP3 ADD MSTORE POP JUMP JUMPDEST PUSH1 0x0 PUSH2 0xB9C PUSH1 0x1F DUP4 PUSH2 0x8D3 JUMP JUMPDEST SWAP2 POP PUSH2 0xBA7 DUP3 PUSH2 0xB66 JUMP JUMPDEST PUSH1 0x20 DUP3 ADD SWAP1 POP SWAP2 SWAP1 POP JUMP JUMPDEST PUSH1 0x0 PUSH1 0x20 DUP3 ADD SWAP1 POP DUP2 DUP2 SUB PUSH1 0x0 DUP4 ADD MSTORE PUSH2 0xBCB DUP2 PUSH2 0xB8F JUMP JUMPDEST SWAP1 POP SWAP2 SWAP1 POP JUMP INVALID LOG2 PUSH5 0x6970667358 0x22 SLT KECCAK256 0xD5 ISZERO 0xB0 EXP CODECOPY SWAP10 DUP15 0xDD CODESIZE SWAP3 0xCA LT CODECOPY SLOAD 0xE9 0xBC PUSH28 0x89718DABDD3B9F1FB15511C080F55464736F6C634300081200330000 "
				},
				"gasEstimates": {
					"creation": {
						"codeDepositCost": "616000",
						"executionCost": "infinite",
						"totalCost": "infinite"
					},
					"external": {
						"adminList(address)": "2846",
						"claim()": "infinite",
						"deposit()": "31071",
						"owner()": "2522",
						"renounceOwnership()": "30465",
						"setAdmin(address)": "27121",
						"token()": "2602",
						"transferOwnership(address)": "30810",
						"withdrawToken(address,uint256)": "infinite"
					}
				},
				"methodIdentifiers": {
					"adminList(address)": "27304dfd",
					"claim()": "4e71d92d",
					"deposit()": "d0e30db0",
					"owner()": "8da5cb5b",
					"renounceOwnership()": "715018a6",
					"setAdmin(address)": "704b6c02",
					"token()": "fc0c546a",
					"transferOwnership(address)": "f2fde38b",
					"withdrawToken(address,uint256)": "9e281a98"
				}
			},
			"storageLayout": {
				"storage": [
					{
						"astId": 7,
						"contract": "Pool.sol:Pool",
						"label": "_owner",
						"offset": 0,
						"slot": "0",
						"type": "t_address"
					},
					{
						"astId": 123,
						"contract": "Pool.sol:Pool",
						"label": "_status",
						"offset": 0,
						"slot": "1",
						"type": "t_uint256"
					},
					{
						"astId": 291,
						"contract": "Pool.sol:Pool",
						"label": "token",
						"offset": 0,
						"slot": "2",
						"type": "t_address"
					},
					{
						"astId": 295,
						"contract": "Pool.sol:Pool",
						"label": "adminList",
						"offset": 0,
						"slot": "3",
						"type": "t_mapping(t_address,t_bool)"
					}
				],
				"types": {
					"t_address": {
						"encoding": "inplace",
						"label": "address",
						"numberOfBytes": "20"
					},
					"t_bool": {
						"encoding": "inplace",
						"label": "bool",
						"numberOfBytes": "1"
					},
					"t_mapping(t_address,t_bool)": {
						"encoding": "mapping",
						"key": "t_address",
						"label": "mapping(address => bool)",
						"numberOfBytes": "32",
						"value": "t_bool"
					},
					"t_uint256": {
						"encoding": "inplace",
						"label": "uint256",
						"numberOfBytes": "32"
					}
				}
			},
			"userdoc": {
				"kind": "user",
				"methods": {},
				"version": 1
			}
		}
	}
}