{
	"data": {
		"bytecode": {
			"linkReferences": {},
			"object": "60806040523480156200001157600080fd5b506040516200349238038062003492833981810160405281019062000037919062000248565b620000576200004b6200011260201b60201c565b6200011a60201b60201c565b6001808190555080600460006101000a81548173ffffffffffffffffffffffffffffffffffffffff021916908373ffffffffffffffffffffffffffffffffffffffff16021790555081600260006101000a81548173ffffffffffffffffffffffffffffffffffffffff021916908373ffffffffffffffffffffffffffffffffffffffff160217905550670de0b6b3a7640000600581905550670de0b6b3a76400006006819055506402540be40060078190555050506200028f565b600033905090565b60008060009054906101000a900473ffffffffffffffffffffffffffffffffffffffff169050816000806101000a81548173ffffffffffffffffffffffffffffffffffffffff021916908373ffffffffffffffffffffffffffffffffffffffff1602179055508173ffffffffffffffffffffffffffffffffffffffff168173ffffffffffffffffffffffffffffffffffffffff167f8be0079c531659141344cd1fd0a4f28419497f9722a3daafe3b4186f6b6457e060405160405180910390a35050565b600080fd5b600073ffffffffffffffffffffffffffffffffffffffff82169050919050565b60006200021082620001e3565b9050919050565b620002228162000203565b81146200022e57600080fd5b50565b600081519050620002428162000217565b92915050565b60008060408385031215620002625762000261620001de565b5b6000620002728582860162000231565b9250506020620002858582860162000231565b9150509250929050565b6131f3806200029f6000396000f3fe608060405234801561001057600080fd5b50600436106101c35760003560e01c8063975057e7116100f9578063bf7e864911610097578063e3edb27511610071578063e3edb27514610521578063f2fde38b1461053d578063f30589c314610559578063fc0c546a14610577576101c3565b8063bf7e8649146104b5578063cafc8658146104d3578063dde20c54146104f1576101c3565b8063b37e67e4116100d3578063b37e67e41461042d578063b83f783f1461045d578063b96bb66f1461047b578063bf68faed14610499576101c3565b8063975057e7146103c157806398575188146103df578063aed1d4031461040f576101c3565b80633e84681a116101665780636d746cfb116101405780636d746cfb1461034b578063715018a614610369578063797327ae146103735780638da5cb5b146103a3576101c3565b80633e84681a146102ba5780635bf1196f146102ea5780636c8939cd1461031a576101c3565b806316f0115b116101a257806316f0115b146102345780631ff512d1146102525780632bbf9b8c146102825780633b962c531461029e576101c3565b8062c9e74d146101c857806305ccac1f146101e657806310087fb114610218575b600080fd5b6101d0610595565b6040516101dd9190611ee8565b60405180910390f35b61020060048036038101906101fb9190611f75565b61059b565b60405161020f93929190611fa2565b60405180910390f35b610232600480360381019061022d919061203e565b6105c5565b005b61023c610767565b604051610249919061208d565b60405180910390f35b61026c60048036038101906102679190611f75565b61078d565b6040516102799190611ee8565b60405180910390f35b61029c60048036038101906102979190611f75565b6107e6565b005b6102b860048036038101906102b391906120a8565b610832565b005b6102d460048036038101906102cf9190611f75565b610aaf565b6040516102e19190611ee8565b60405180910390f35b61030460048036038101906102ff91906120a8565b610ac7565b60405161031191906121a6565b60405180910390f35b610334600480360381019061032f9190611f75565b610b56565b6040516103429291906121c8565b60405180910390f35b610353610b7a565b6040516103609190611ee8565b60405180910390f35b610371610b8b565b005b61038d60048036038101906103889190611f75565b610b9f565b60405161039a919061220c565b60405180910390f35b6103ab610bb3565b6040516103b8919061208d565b60405180910390f35b6103c9610bdc565b6040516103d6919061208d565b60405180910390f35b6103f960048036038101906103f49190611f75565b610c02565b604051610406919061220c565b60405180910390f35b610417610e9e565b6040516104249190611ee8565b60405180910390f35b61044760048036038101906104429190612227565b610eaf565b604051610454919061220c565b60405180910390f35b6104656110d2565b6040516104729190611ee8565b60405180910390f35b6104836110d9565b6040516104909190611ee8565b60405180910390f35b6104b360048036038101906104ae91906120a8565b6110df565b005b6104bd6110e3565b6040516104ca9190611ee8565b60405180910390f35b6104db6110e9565b6040516104e891906121a6565b60405180910390f35b61050b60048036038101906105069190611f75565b611106565b604051610518919061220c565b60405180910390f35b61053b600480360381019061053691906123ad565b61111a565b005b61055760048036038101906105529190611f75565b611265565b005b6105616112e8565b60405161056e91906121a6565b60405180910390f35b61057f611305565b60405161058c919061208d565b60405180910390f35b60055481565b600c6020528060005260406000206000915090508060000154908060010154908060020154905083565b6105cd61132b565b60028160ff1614806105e2575060038160ff16145b610621576040517f08c379a000000000000000000000000000000000000000000000000000000000815260040161061890612453565b60405180910390fd5b60006009600061062f61137a565b73ffffffffffffffffffffffffffffffffffffffff1673ffffffffffffffffffffffffffffffffffffffff16815260200190815260200160002060009054906101000a900460ff1660ff1614806106dc575060026009600061068f61137a565b73ffffffffffffffffffffffffffffffffffffffff1673ffffffffffffffffffffffffffffffffffffffff16815260200190815260200160002060009054906101000a900460ff1660ff16145b61071b576040517f08c379a0000000000000000000000000000000000000000000000000000000008152600401610712906124bf565b60405180910390fd5b60028160ff160361073d576107378261073261137a565b611382565b5061075b565b60038160ff160361075a5761075861075361137a565b611724565b505b5b6107636117f3565b5050565b600260009054906101000a900473ffffffffffffffffffffffffffffffffffffffff1681565b6000600960008373ffffffffffffffffffffffffffffffffffffffff1673ffffffffffffffffffffffffffffffffffffffff16815260200190815260200160002060009054906101000a900460ff1660ff169050919050565b6107ee6117fc565b80600360006101000a81548173ffffffffffffffffffffffffffffffffffffffff021916908373ffffffffffffffffffffffffffffffffffffffff16021790555050565b61083a61132b565b601e811015801561085757506000601e82610855919061250e565b145b610896576040517f08c379a000000000000000000000000000000000000000000000000000000000815260040161088d906125b1565b60405180910390fd5b6001600960006108a461137a565b73ffffffffffffffffffffffffffffffffffffffff1673ffffffffffffffffffffffffffffffffffffffff16815260200190815260200160002060006101000a81548160ff021916908360ff16021790555061040080610400846109089190612600565b6109129190612600565b61091c9190612600565b915081600c600061092b61137a565b73ffffffffffffffffffffffffffffffffffffffff1673ffffffffffffffffffffffffffffffffffffffff16815260200190815260200160002060000160008282546109779190612642565b9250508190555081600c600061098b61137a565b73ffffffffffffffffffffffffffffffffffffffff1673ffffffffffffffffffffffffffffffffffffffff16815260200190815260200160002060010160008282546109d79190612642565b9250508190555062015180816109ed9190612600565b600c60006109f961137a565b73ffffffffffffffffffffffffffffffffffffffff1673ffffffffffffffffffffffffffffffffffffffff1681526020019081526020016000206002016000828254610a459190612642565b92505081905550610a5461137a565b73ffffffffffffffffffffffffffffffffffffffff167f5bdf3f5623fa7ae0fa364fa40561a15fbdbdc8cb2b162ac2820678880f17c2598383604051610a9b9291906121c8565b60405180910390a2610aab6117f3565b5050565b600b6020528060005260406000206000915090505481565b60606000610ad36110e9565b905082815111610ae65780915050610b50565b60008367ffffffffffffffff811115610b0257610b01612282565b5b604051908082528060200260200182016040528015610b305781602001602082028036833780820191505090505b5090506000849050600080610b45600d61187a565b905083955050505050505b92915050565b600a6020528060005260406000206000915090508060000154908060010154905082565b6000610b86600d61187a565b905090565b610b936117fc565b610b9d600061188b565b565b6000610bac600f8361194f565b9050919050565b60008060009054906101000a900473ffffffffffffffffffffffffffffffffffffffff16905090565b600360009054906101000a900473ffffffffffffffffffffffffffffffffffffffff1681565b6000610c0c6117fc565b6000600960008473ffffffffffffffffffffffffffffffffffffffff1673ffffffffffffffffffffffffffffffffffffffff16815260200190815260200160002060009054906101000a900460ff1660ff1603610c9e576040517f08c379a0000000000000000000000000000000000000000000000000000000008152600401610c95906126c2565b60405180910390fd5b6001600960008473ffffffffffffffffffffffffffffffffffffffff1673ffffffffffffffffffffffffffffffffffffffff16815260200190815260200160002060009054906101000a900460ff1660ff1603610d0557610d00600d83611a34565b610d69565b6002600960008473ffffffffffffffffffffffffffffffffffffffff1673ffffffffffffffffffffffffffffffffffffffff16815260200190815260200160002060009054906101000a900460ff1660ff1603610d6857610d67600f83611a34565b5b5b8173ffffffffffffffffffffffffffffffffffffffff167fc0944d59892e6715b5f3fbf230ed4545fc611c304ac5e1827e583585b4180159600960008573ffffffffffffffffffffffffffffffffffffffff1673ffffffffffffffffffffffffffffffffffffffff16815260200190815260200160002060009054906101000a900460ff16604051610dfb91906126f1565b60405180910390a2600960008373ffffffffffffffffffffffffffffffffffffffff1673ffffffffffffffffffffffffffffffffffffffff16815260200190815260200160002060006101000a81549060ff0219169055600b60008373ffffffffffffffffffffffffffffffffffffffff1673ffffffffffffffffffffffffffffffffffffffff1681526020019081526020016000206000905560019050919050565b6000610eaa600f61187a565b905090565b6000610eb96117fc565b6000600960008573ffffffffffffffffffffffffffffffffffffffff1673ffffffffffffffffffffffffffffffffffffffff16815260200190815260200160002060009054906101000a900460ff1660ff1603610f4b576040517f08c379a0000000000000000000000000000000000000000000000000000000008152600401610f42906126c2565b60405180910390fd5b6000600b60008573ffffffffffffffffffffffffffffffffffffffff1673ffffffffffffffffffffffffffffffffffffffff168152602001908152602001600020541015610fce576040517f08c379a0000000000000000000000000000000000000000000000000000000008152600401610fc590612758565b60405180910390fd5b81600b60008573ffffffffffffffffffffffffffffffffffffffff1673ffffffffffffffffffffffffffffffffffffffff168152602001908152602001600020541161106f5781600b60008573ffffffffffffffffffffffffffffffffffffffff1673ffffffffffffffffffffffffffffffffffffffff16815260200190815260200160002060008282546110639190612778565b9250508190555061107a565b61107883610c02565b505b8273ffffffffffffffffffffffffffffffffffffffff167f53fcb0d5ac9969dcec28baa60beb9b56b28fa301971f7e19c6c8beb0d1e86ece836040516110c09190611ee8565b60405180910390a26001905092915050565b6201518081565b60065481565b5050565b60075481565b6060611101600d60006110fc600d61187a565b611c62565b905090565b6000611113600d8361194f565b9050919050565b61112261132b565b6000806000806000806000806000898060200190518101906111449190612a88565b985098509850985098509850985098509850600360009054906101000a900473ffffffffffffffffffffffffffffffffffffffff1673ffffffffffffffffffffffffffffffffffffffff166347618f188a8a8a8a8a8989896040518963ffffffff1660e01b81526004016111bf989796959493929190612d12565b6020604051808303816000875af11580156111de573d6000803e3d6000fd5b505050506040513d601f19601f820116820180604052508101906112029190612dd8565b508073ffffffffffffffffffffffffffffffffffffffff167f30ebd9082452f045cbb677f33bafcd83242c048d21fa3f84705ab051a900ac33866040516112499190611ee8565b60405180910390a25050505050505050506112626117f3565b50565b61126d6117fc565b600073ffffffffffffffffffffffffffffffffffffffff168173ffffffffffffffffffffffffffffffffffffffff16036112dc576040517f08c379a00000000000000000000000000000000000000000000000000000000081526004016112d390612e77565b60405180910390fd5b6112e58161188b565b50565b6060611300600f60006112fb600f61187a565b611c62565b905090565b600460009054906101000a900473ffffffffffffffffffffffffffffffffffffffff1681565b600260015403611370576040517f08c379a000000000000000000000000000000000000000000000000000000000815260040161136790612ee3565b60405180910390fd5b6002600181905550565b600033905090565b60008083116113c6576040517f08c379a00000000000000000000000000000000000000000000000000000000081526004016113bd90612f4f565b60405180910390fd5b6000836005546113d69190612600565b905080600460009054906101000a900473ffffffffffffffffffffffffffffffffffffffff1673ffffffffffffffffffffffffffffffffffffffff166370a08231856040518263ffffffff1660e01b8152600401611434919061208d565b602060405180830381865afa158015611451573d6000803e3d6000fd5b505050506040513d601f19601f820116820180604052508101906114759190612f6f565b10156114b6576040517f08c379a00000000000000000000000000000000000000000000000000000000081526004016114ad90612fe8565b60405180910390fd5b6114c1600d8461194f565b6114d1576114d0600d84611e0a565b5b6000600460009054906101000a900473ffffffffffffffffffffffffffffffffffffffff1673ffffffffffffffffffffffffffffffffffffffff166323b872dd85600260009054906101000a900473ffffffffffffffffffffffffffffffffffffffff16856040518463ffffffff1660e01b815260040161155493929190613008565b6020604051808303816000875af1158015611573573d6000803e3d6000fd5b505050506040513d601f19601f820116820180604052508101906115979190612dd8565b905061040080610400876115ab9190612600565b6115b59190612600565b6115bf9190612600565b945084600a60008673ffffffffffffffffffffffffffffffffffffffff1673ffffffffffffffffffffffffffffffffffffffff16815260200190815260200160002060000160008282546116139190612642565b9250508190555081600b60008673ffffffffffffffffffffffffffffffffffffffff1673ffffffffffffffffffffffffffffffffffffffff16815260200190815260200160002060008282546116699190612642565b925050819055506002600960008673ffffffffffffffffffffffffffffffffffffffff1673ffffffffffffffffffffffffffffffffffffffff16815260200190815260200160002060006101000a81548160ff021916908360ff1602179055508373ffffffffffffffffffffffffffffffffffffffff167fe04f064c94fe0edee3c04978ea069c5445cf7146e23ed179c153983e4477831183876040516117119291906121c8565b60405180910390a2809250505092915050565b6000611731600f8361194f565b61174157611740600f83611e0a565b5b6003600960008473ffffffffffffffffffffffffffffffffffffffff1673ffffffffffffffffffffffffffffffffffffffff16815260200190815260200160002060006101000a81548160ff021916908360ff1602179055508173ffffffffffffffffffffffffffffffffffffffff167f261a1e5397da268bd5f5561920d0fd2b3ac2f1a2c9dea7cd9bc679a8f18d87d36006546040516117e29190611ee8565b60405180910390a260019050919050565b60018081905550565b61180461137a565b73ffffffffffffffffffffffffffffffffffffffff16611822610bb3565b73ffffffffffffffffffffffffffffffffffffffff1614611878576040517f08c379a000000000000000000000000000000000000000000000000000000000815260040161186f9061308b565b60405180910390fd5b565b600081600001805490509050919050565b60008060009054906101000a900473ffffffffffffffffffffffffffffffffffffffff169050816000806101000a81548173ffffffffffffffffffffffffffffffffffffffff021916908373ffffffffffffffffffffffffffffffffffffffff1602179055508173ffffffffffffffffffffffffffffffffffffffff168173ffffffffffffffffffffffffffffffffffffffff167f8be0079c531659141344cd1fd0a4f28419497f9722a3daafe3b4186f6b6457e060405160405180910390a35050565b6000808360000180549050036119685760009050611a2e565b60008360010160008473ffffffffffffffffffffffffffffffffffffffff1673ffffffffffffffffffffffffffffffffffffffff168152602001908152602001600020549050600081141580611a2a57508273ffffffffffffffffffffffffffffffffffffffff16846000016000815481106119e7576119e66130ab565b5b9060005260206000200160009054906101000a900473ffffffffffffffffffffffffffffffffffffffff1673ffffffffffffffffffffffffffffffffffffffff16145b9150505b92915050565b611a3e828261194f565b611a7d576040517f08c379a0000000000000000000000000000000000000000000000000000000008152600401611a7490613126565b60405180910390fd5b60008260010160008373ffffffffffffffffffffffffffffffffffffffff1673ffffffffffffffffffffffffffffffffffffffff168152602001908152602001600020549050600060018460000180549050611ad99190612778565b9050808214611bce576000846000018281548110611afa57611af96130ab565b5b9060005260206000200160009054906101000a900473ffffffffffffffffffffffffffffffffffffffff16905080856000018481548110611b3e57611b3d6130ab565b5b9060005260206000200160006101000a81548173ffffffffffffffffffffffffffffffffffffffff021916908373ffffffffffffffffffffffffffffffffffffffff160217905550828560010160008373ffffffffffffffffffffffffffffffffffffffff1673ffffffffffffffffffffffffffffffffffffffff16815260200190815260200160002081905550505b83600001805480611be257611be1613146565b5b6001900381819060005260206000200160006101000a81549073ffffffffffffffffffffffffffffffffffffffff021916905590558360010160008473ffffffffffffffffffffffffffffffffffffffff1673ffffffffffffffffffffffffffffffffffffffff1681526020019081526020016000206000905550505050565b606060008284611c729190612642565b90508460000180549050811115611c8e57846000018054905090505b838111611ce757600067ffffffffffffffff811115611cb057611caf612282565b5b604051908082528060200260200182016040528015611cde5781602001602082028036833780820191505090505b50915050611e03565b60008482611cf59190612778565b905060008167ffffffffffffffff811115611d1357611d12612282565b5b604051908082528060200260200182016040528015611d415781602001602082028036833780820191505090505b50905060005b82811015611dfb57876000018782611d5f9190612642565b81548110611d7057611d6f6130ab565b5b9060005260206000200160009054906101000a900473ffffffffffffffffffffffffffffffffffffffff16828281518110611dae57611dad6130ab565b5b602002602001019073ffffffffffffffffffffffffffffffffffffffff16908173ffffffffffffffffffffffffffffffffffffffff16815250508080611df390613175565b915050611d47565b508093505050505b9392505050565b611e14828261194f565b611ecb5781600001805490508260010160008373ffffffffffffffffffffffffffffffffffffffff1673ffffffffffffffffffffffffffffffffffffffff1681526020019081526020016000208190555081600001819080600181540180825580915050600190039060005260206000200160009091909190916101000a81548173ffffffffffffffffffffffffffffffffffffffff021916908373ffffffffffffffffffffffffffffffffffffffff1602179055505b5050565b6000819050919050565b611ee281611ecf565b82525050565b6000602082019050611efd6000830184611ed9565b92915050565b6000604051905090565b600080fd5b600080fd5b600073ffffffffffffffffffffffffffffffffffffffff82169050919050565b6000611f4282611f17565b9050919050565b611f5281611f37565b8114611f5d57600080fd5b50565b600081359050611f6f81611f49565b92915050565b600060208284031215611f8b57611f8a611f0d565b5b6000611f9984828501611f60565b91505092915050565b6000606082019050611fb76000830186611ed9565b611fc46020830185611ed9565b611fd16040830184611ed9565b949350505050565b611fe281611ecf565b8114611fed57600080fd5b50565b600081359050611fff81611fd9565b92915050565b600060ff82169050919050565b61201b81612005565b811461202657600080fd5b50565b60008135905061203881612012565b92915050565b6000806040838503121561205557612054611f0d565b5b600061206385828601611ff0565b925050602061207485828601612029565b9150509250929050565b61208781611f37565b82525050565b60006020820190506120a2600083018461207e565b92915050565b600080604083850312156120bf576120be611f0d565b5b60006120cd85828601611ff0565b92505060206120de85828601611ff0565b9150509250929050565b600081519050919050565b600082825260208201905092915050565b6000819050602082019050919050565b61211d81611f37565b82525050565b600061212f8383612114565b60208301905092915050565b6000602082019050919050565b6000612153826120e8565b61215d81856120f3565b935061216883612104565b8060005b838110156121995781516121808882612123565b975061218b8361213b565b92505060018101905061216c565b5085935050505092915050565b600060208201905081810360008301526121c08184612148565b905092915050565b60006040820190506121dd6000830185611ed9565b6121ea6020830184611ed9565b9392505050565b60008115159050919050565b612206816121f1565b82525050565b600060208201905061222160008301846121fd565b92915050565b6000806040838503121561223e5761223d611f0d565b5b600061224c85828601611f60565b925050602061225d85828601611ff0565b9150509250929050565b600080fd5b600080fd5b6000601f19601f8301169050919050565b7f4e487b7100000000000000000000000000000000000000000000000000000000600052604160045260246000fd5b6122ba82612271565b810181811067ffffffffffffffff821117156122d9576122d8612282565b5b80604052505050565b60006122ec611f03565b90506122f882826122b1565b919050565b600067ffffffffffffffff82111561231857612317612282565b5b61232182612271565b9050602081019050919050565b82818337600083830152505050565b600061235061234b846122fd565b6122e2565b90508281526020810184848401111561236c5761236b61226c565b5b61237784828561232e565b509392505050565b600082601f83011261239457612393612267565b5b81356123a484826020860161233d565b91505092915050565b6000602082840312156123c3576123c2611f0d565b5b600082013567ffffffffffffffff8111156123e1576123e0611f12565b5b6123ed8482850161237f565b91505092915050565b600082825260208201905092915050565b7f50656c6467653a20726f6c65206e6f7420657869737421000000000000000000600082015250565b600061243d6017836123f6565b915061244882612407565b602082019050919050565b6000602082019050818103600083015261246c81612430565b9050919050565b7f50656c6467653a20616c7265616479207374616b656421000000000000000000600082015250565b60006124a96017836123f6565b91506124b482612473565b602082019050919050565b600060208201905081810360008301526124d88161249c565b9050919050565b7f4e487b7100000000000000000000000000000000000000000000000000000000600052601260045260246000fd5b600061251982611ecf565b915061252483611ecf565b925082612534576125336124df565b5b828206905092915050565b7f506c656467653a206275792073746f726167652074696d65207365742065727260008201527f6f72210000000000000000000000000000000000000000000000000000000000602082015250565b600061259b6023836123f6565b91506125a68261253f565b604082019050919050565b600060208201905081810360008301526125ca8161258e565b9050919050565b7f4e487b7100000000000000000000000000000000000000000000000000000000600052601160045260246000fd5b600061260b82611ecf565b915061261683611ecf565b925082820261262481611ecf565b9150828204841483151761263b5761263a6125d1565b5b5092915050565b600061264d82611ecf565b915061265883611ecf565b92508282019050808211156126705761266f6125d1565b5b92915050565b7f506c656467653a2075736572206e6f7420657869737421000000000000000000600082015250565b60006126ac6017836123f6565b91506126b782612676565b602082019050919050565b600060208201905081810360008301526126db8161269f565b9050919050565b6126eb81612005565b82525050565b600060208201905061270660008301846126e2565b92915050565b7f506c656467653a207374616b6520616d6f756e74206973207a65726f21000000600082015250565b6000612742601d836123f6565b915061274d8261270c565b602082019050919050565b6000602082019050818103600083015261277181612735565b9050919050565b600061278382611ecf565b915061278e83611ecf565b92508282039050818111156127a6576127a56125d1565b5b92915050565b600067ffffffffffffffff8211156127c7576127c6612282565b5b602082029050602081019050919050565b600080fd5b6000815190506127ec81611f49565b92915050565b6000612805612800846127ac565b6122e2565b90508083825260208201905060208402830185811115612828576128276127d8565b5b835b81811015612851578061283d88826127dd565b84526020840193505060208101905061282a565b5050509392505050565b600082601f8301126128705761286f612267565b5b81516128808482602086016127f2565b91505092915050565b600067ffffffffffffffff8211156128a4576128a3612282565b5b602082029050602081019050919050565b600067ffffffffffffffff8211156128d0576128cf612282565b5b6128d982612271565b9050602081019050919050565b60005b838110156129045780820151818401526020810190506128e9565b60008484015250505050565b600061292361291e846128b5565b6122e2565b90508281526020810184848401111561293f5761293e61226c565b5b61294a8482856128e6565b509392505050565b600082601f83011261296757612966612267565b5b8151612977848260208601612910565b91505092915050565b600061299361298e84612889565b6122e2565b905080838252602082019050602084028301858111156129b6576129b56127d8565b5b835b818110156129fd57805167ffffffffffffffff8111156129db576129da612267565b5b8086016129e88982612952565b855260208501945050506020810190506129b8565b5050509392505050565b600082601f830112612a1c57612a1b612267565b5b8151612a2c848260208601612980565b91505092915050565b600081519050612a4481611fd9565b92915050565b6000612a5582611f17565b9050919050565b612a6581612a4a565b8114612a7057600080fd5b50565b600081519050612a8281612a5c565b92915050565b60008060008060008060008060006101208a8c031215612aab57612aaa611f0d565b5b60008a015167ffffffffffffffff811115612ac957612ac8611f12565b5b612ad58c828d0161285b565b99505060208a015167ffffffffffffffff811115612af657612af5611f12565b5b612b028c828d01612a07565b98505060408a015167ffffffffffffffff811115612b2357612b22611f12565b5b612b2f8c828d01612952565b97505060608a015167ffffffffffffffff811115612b5057612b4f611f12565b5b612b5c8c828d01612952565b9650506080612b6d8c828d01612a35565b95505060a0612b7e8c828d01612a35565b94505060c0612b8f8c828d01612a35565b93505060e0612ba08c828d01612a35565b925050610100612bb28c828d01612a73565b9150509295985092959850929598565b600081519050919050565b600082825260208201905092915050565b6000819050602082019050919050565b600081519050919050565b600082825260208201905092915050565b6000612c1582612bee565b612c1f8185612bf9565b9350612c2f8185602086016128e6565b612c3881612271565b840191505092915050565b6000612c4f8383612c0a565b905092915050565b6000602082019050919050565b6000612c6f82612bc2565b612c798185612bcd565b935083602082028501612c8b85612bde565b8060005b85811015612cc75784840389528151612ca88582612c43565b9450612cb383612c57565b925060208a01995050600181019050612c8f565b50829750879550505050505092915050565b6000612ce482612bee565b612cee81856123f6565b9350612cfe8185602086016128e6565b612d0781612271565b840191505092915050565b6000610100820190508181036000830152612d2d818b612148565b90508181036020830152612d41818a612c64565b90508181036040830152612d558189612cd9565b90508181036060830152612d698188612cd9565b9050612d786080830187611ed9565b612d8560a0830186611ed9565b612d9260c0830185611ed9565b612d9f60e083018461207e565b9998505050505050505050565b612db5816121f1565b8114612dc057600080fd5b50565b600081519050612dd281612dac565b92915050565b600060208284031215612dee57612ded611f0d565b5b6000612dfc84828501612dc3565b91505092915050565b7f4f776e61626c653a206e6577206f776e657220697320746865207a65726f206160008201527f6464726573730000000000000000000000000000000000000000000000000000602082015250565b6000612e616026836123f6565b9150612e6c82612e05565b604082019050919050565b60006020820190508181036000830152612e9081612e54565b9050919050565b7f5265656e7472616e637947756172643a207265656e7472616e742063616c6c00600082015250565b6000612ecd601f836123f6565b9150612ed882612e97565b602082019050919050565b60006020820190508181036000830152612efc81612ec0565b9050919050565b7f506c656467653a207374616b652073746f7265616765206973207a65726f2100600082015250565b6000612f39601f836123f6565b9150612f4482612f03565b602082019050919050565b60006020820190508181036000830152612f6881612f2c565b9050919050565b600060208284031215612f8557612f84611f0d565b5b6000612f9384828501612a35565b91505092915050565b7f506c656467653a2062616c616e6365206e6f7420656e6f756768210000000000600082015250565b6000612fd2601b836123f6565b9150612fdd82612f9c565b602082019050919050565b6000602082019050818103600083015261300181612fc5565b9050919050565b600060608201905061301d600083018661207e565b61302a602083018561207e565b6130376040830184611ed9565b949350505050565b7f4f776e61626c653a2063616c6c6572206973206e6f7420746865206f776e6572600082015250565b60006130756020836123f6565b91506130808261303f565b602082019050919050565b600060208201905081810360008301526130a481613068565b9050919050565b7f4e487b7100000000000000000000000000000000000000000000000000000000600052603260045260246000fd5b7f456c656d656e74206e6f7420696e207365742e00000000000000000000000000600082015250565b60006131106013836123f6565b915061311b826130da565b602082019050919050565b6000602082019050818103600083015261313f81613103565b9050919050565b7f4e487b7100000000000000000000000000000000000000000000000000000000600052603160045260246000fd5b600061318082611ecf565b91507fffffffffffffffffffffffffffffffffffffffffffffffffffffffffffffffff82036131b2576131b16125d1565b5b60018201905091905056fea264697066735822122017038bd733e8c0e598c8c479872fdd3770f1b5189c106c93f4ee86acc439278d64736f6c63430008120033",
			"opcodes": "PUSH1 0x80 PUSH1 0x40 MSTORE CALLVALUE DUP1 ISZERO PUSH3 0x11 JUMPI PUSH1 0x0 DUP1 REVERT JUMPDEST POP PUSH1 0x40 MLOAD PUSH3 0x3492 CODESIZE SUB DUP1 PUSH3 0x3492 DUP4 CODECOPY DUP2 DUP2 ADD PUSH1 0x40 MSTORE DUP2 ADD SWAP1 PUSH3 0x37 SWAP2 SWAP1 PUSH3 0x248 JUMP JUMPDEST PUSH3 0x57 PUSH3 0x4B PUSH3 0x112 PUSH1 0x20 SHL PUSH1 0x20 SHR JUMP JUMPDEST PUSH3 0x11A PUSH1 0x20 SHL PUSH1 0x20 SHR JUMP JUMPDEST PUSH1 0x1 DUP1 DUP2 SWAP1 SSTORE POP DUP1 PUSH1 0x4 PUSH1 0x0 PUSH2 0x100 EXP DUP2 SLOAD DUP2 PUSH20 0xFFFFFFFFFFFFFFFFFFFFFFFFFFFFFFFFFFFFFFFF MUL NOT AND SWAP1 DUP4 PUSH20 0xFFFFFFFFFFFFFFFFFFFFFFFFFFFFFFFFFFFFFFFF AND MUL OR SWAP1 SSTORE POP DUP2 PUSH1 0x2 PUSH1 0x0 PUSH2 0x100 EXP DUP2 SLOAD DUP2 PUSH20 0xFFFFFFFFFFFFFFFFFFFFFFFFFFFFFFFFFFFFFFFF MUL NOT AND SWAP1 DUP4 PUSH20 0xFFFFFFFFFFFFFFFFFFFFFFFFFFFFFFFFFFFFFFFF AND MUL OR SWAP1 SSTORE POP PUSH8 0xDE0B6B3A7640000 PUSH1 0x5 DUP2 SWAP1 SSTORE POP PUSH8 0xDE0B6B3A7640000 PUSH1 0x6 DUP2 SWAP1 SSTORE POP PUSH5 0x2540BE400 PUSH1 0x7 DUP2 SWAP1 SSTORE POP POP POP PUSH3 0x28F JUMP JUMPDEST PUSH1 0x0 CALLER SWAP1 POP SWAP1 JUMP JUMPDEST PUSH1 0x0 DUP1 PUSH1 0x0 SWAP1 SLOAD SWAP1 PUSH2 0x100 EXP SWAP1 DIV PUSH20 0xFFFFFFFFFFFFFFFFFFFFFFFFFFFFFFFFFFFFFFFF AND SWAP1 POP DUP2 PUSH1 0x0 DUP1 PUSH2 0x100 EXP DUP2 SLOAD DUP2 PUSH20 0xFFFFFFFFFFFFFFFFFFFFFFFFFFFFFFFFFFFFFFFF MUL NOT AND SWAP1 DUP4 PUSH20 0xFFFFFFFFFFFFFFFFFFFFFFFFFFFFFFFFFFFFFFFF AND MUL OR SWAP1 SSTORE POP DUP2 PUSH20 0xFFFFFFFFFFFFFFFFFFFFFFFFFFFFFFFFFFFFFFFF AND DUP2 PUSH20 0xFFFFFFFFFFFFFFFFFFFFFFFFFFFFFFFFFFFFFFFF AND PUSH32 0x8BE0079C531659141344CD1FD0A4F28419497F9722A3DAAFE3B4186F6B6457E0 PUSH1 0x40 MLOAD PUSH1 0x40 MLOAD DUP1 SWAP2 SUB SWAP1 LOG3 POP POP JUMP JUMPDEST PUSH1 0x0 DUP1 REVERT JUMPDEST PUSH1 0x0 PUSH20 0xFFFFFFFFFFFFFFFFFFFFFFFFFFFFFFFFFFFFFFFF DUP3 AND SWAP1 POP SWAP2 SWAP1 POP JUMP JUMPDEST PUSH1 0x0 PUSH3 0x210 DUP3 PUSH3 0x1E3 JUMP JUMPDEST SWAP1 POP SWAP2 SWAP1 POP JUMP JUMPDEST PUSH3 0x222 DUP2 PUSH3 0x203 JUMP JUMPDEST DUP2 EQ PUSH3 0x22E JUMPI PUSH1 0x0 DUP1 REVERT JUMPDEST POP JUMP JUMPDEST PUSH1 0x0 DUP2 MLOAD SWAP1 POP PUSH3 0x242 DUP2 PUSH3 0x217 JUMP JUMPDEST SWAP3 SWAP2 POP POP JUMP JUMPDEST PUSH1 0x0 DUP1 PUSH1 0x40 DUP4 DUP6 SUB SLT ISZERO PUSH3 0x262 JUMPI PUSH3 0x261 PUSH3 0x1DE JUMP JUMPDEST JUMPDEST PUSH1 0x0 PUSH3 0x272 DUP6 DUP3 DUP7 ADD PUSH3 0x231 JUMP JUMPDEST SWAP3 POP POP PUSH1 0x20 PUSH3 0x285 DUP6 DUP3 DUP7 ADD PUSH3 0x231 JUMP JUMPDEST SWAP2 POP POP SWAP3 POP SWAP3 SWAP1 POP JUMP JUMPDEST PUSH2 0x31F3 DUP1 PUSH3 0x29F PUSH1 0x0 CODECOPY PUSH1 0x0 RETURN INVALID PUSH1 0x80 PUSH1 0x40 MSTORE CALLVALUE DUP1 ISZERO PUSH2 0x10 JUMPI PUSH1 0x0 DUP1 REVERT JUMPDEST POP PUSH1 0x4 CALLDATASIZE LT PUSH2 0x1C3 JUMPI PUSH1 0x0 CALLDATALOAD PUSH1 0xE0 SHR DUP1 PUSH4 0x975057E7 GT PUSH2 0xF9 JUMPI DUP1 PUSH4 0xBF7E8649 GT PUSH2 0x97 JUMPI DUP1 PUSH4 0xE3EDB275 GT PUSH2 0x71 JUMPI DUP1 PUSH4 0xE3EDB275 EQ PUSH2 0x521 JUMPI DUP1 PUSH4 0xF2FDE38B EQ PUSH2 0x53D JUMPI DUP1 PUSH4 0xF30589C3 EQ PUSH2 0x559 JUMPI DUP1 PUSH4 0xFC0C546A EQ PUSH2 0x577 JUMPI PUSH2 0x1C3 JUMP JUMPDEST DUP1 PUSH4 0xBF7E8649 EQ PUSH2 0x4B5 JUMPI DUP1 PUSH4 0xCAFC8658 EQ PUSH2 0x4D3 JUMPI DUP1 PUSH4 0xDDE20C54 EQ PUSH2 0x4F1 JUMPI PUSH2 0x1C3 JUMP JUMPDEST DUP1 PUSH4 0xB37E67E4 GT PUSH2 0xD3 JUMPI DUP1 PUSH4 0xB37E67E4 EQ PUSH2 0x42D JUMPI DUP1 PUSH4 0xB83F783F EQ PUSH2 0x45D JUMPI DUP1 PUSH4 0xB96BB66F EQ PUSH2 0x47B JUMPI DUP1 PUSH4 0xBF68FAED EQ PUSH2 0x499 JUMPI PUSH2 0x1C3 JUMP JUMPDEST DUP1 PUSH4 0x975057E7 EQ PUSH2 0x3C1 JUMPI DUP1 PUSH4 0x98575188 EQ PUSH2 0x3DF JUMPI DUP1 PUSH4 0xAED1D403 EQ PUSH2 0x40F JUMPI PUSH2 0x1C3 JUMP JUMPDEST DUP1 PUSH4 0x3E84681A GT PUSH2 0x166 JUMPI DUP1 PUSH4 0x6D746CFB GT PUSH2 0x140 JUMPI DUP1 PUSH4 0x6D746CFB EQ PUSH2 0x34B JUMPI DUP1 PUSH4 0x715018A6 EQ PUSH2 0x369 JUMPI DUP1 PUSH4 0x797327AE EQ PUSH2 0x373 JUMPI DUP1 PUSH4 0x8DA5CB5B EQ PUSH2 0x3A3 JUMPI PUSH2 0x1C3 JUMP JUMPDEST DUP1 PUSH4 0x3E84681A EQ PUSH2 0x2BA JUMPI DUP1 PUSH4 0x5BF1196F EQ PUSH2 0x2EA JUMPI DUP1 PUSH4 0x6C8939CD EQ PUSH2 0x31A JUMPI PUSH2 0x1C3 JUMP JUMPDEST DUP1 PUSH4 0x16F0115B GT PUSH2 0x1A2 JUMPI DUP1 PUSH4 0x16F0115B EQ PUSH2 0x234 JUMPI DUP1 PUSH4 0x1FF512D1 EQ PUSH2 0x252 JUMPI DUP1 PUSH4 0x2BBF9B8C EQ PUSH2 0x282 JUMPI DUP1 PUSH4 0x3B962C53 EQ PUSH2 0x29E JUMPI PUSH2 0x1C3 JUMP JUMPDEST DUP1 PUSH3 0xC9E74D EQ PUSH2 0x1C8 JUMPI DUP1 PUSH4 0x5CCAC1F EQ PUSH2 0x1E6 JUMPI DUP1 PUSH4 0x10087FB1 EQ PUSH2 0x218 JUMPI JUMPDEST PUSH1 0x0 DUP1 REVERT JUMPDEST PUSH2 0x1D0 PUSH2 0x595 JUMP JUMPDEST PUSH1 0x40 MLOAD PUSH2 0x1DD SWAP2 SWAP1 PUSH2 0x1EE8 JUMP JUMPDEST PUSH1 0x40 MLOAD DUP1 SWAP2 SUB SWAP1 RETURN JUMPDEST PUSH2 0x200 PUSH1 0x4 DUP1 CALLDATASIZE SUB DUP2 ADD SWAP1 PUSH2 0x1FB SWAP2 SWAP1 PUSH2 0x1F75 JUMP JUMPDEST PUSH2 0x59B JUMP JUMPDEST PUSH1 0x40 MLOAD PUSH2 0x20F SWAP4 SWAP3 SWAP2 SWAP1 PUSH2 0x1FA2 JUMP JUMPDEST PUSH1 0x40 MLOAD DUP1 SWAP2 SUB SWAP1 RETURN JUMPDEST PUSH2 0x232 PUSH1 0x4 DUP1 CALLDATASIZE SUB DUP2 ADD SWAP1 PUSH2 0x22D SWAP2 SWAP1 PUSH2 0x203E JUMP JUMPDEST PUSH2 0x5C5 JUMP JUMPDEST STOP JUMPDEST PUSH2 0x23C PUSH2 0x767 JUMP JUMPDEST PUSH1 0x40 MLOAD PUSH2 0x249 SWAP2 SWAP1 PUSH2 0x208D JUMP JUMPDEST PUSH1 0x40 MLOAD DUP1 SWAP2 SUB SWAP1 RETURN JUMPDEST PUSH2 0x26C PUSH1 0x4 DUP1 CALLDATASIZE SUB DUP2 ADD SWAP1 PUSH2 0x267 SWAP2 SWAP1 PUSH2 0x1F75 JUMP JUMPDEST PUSH2 0x78D JUMP JUMPDEST PUSH1 0x40 MLOAD PUSH2 0x279 SWAP2 SWAP1 PUSH2 0x1EE8 JUMP JUMPDEST PUSH1 0x40 MLOAD DUP1 SWAP2 SUB SWAP1 RETURN JUMPDEST PUSH2 0x29C PUSH1 0x4 DUP1 CALLDATASIZE SUB DUP2 ADD SWAP1 PUSH2 0x297 SWAP2 SWAP1 PUSH2 0x1F75 JUMP JUMPDEST PUSH2 0x7E6 JUMP JUMPDEST STOP JUMPDEST PUSH2 0x2B8 PUSH1 0x4 DUP1 CALLDATASIZE SUB DUP2 ADD SWAP1 PUSH2 0x2B3 SWAP2 SWAP1 PUSH2 0x20A8 JUMP JUMPDEST PUSH2 0x832 JUMP JUMPDEST STOP JUMPDEST PUSH2 0x2D4 PUSH1 0x4 DUP1 CALLDATASIZE SUB DUP2 ADD SWAP1 PUSH2 0x2CF SWAP2 SWAP1 PUSH2 0x1F75 JUMP JUMPDEST PUSH2 0xAAF JUMP JUMPDEST PUSH1 0x40 MLOAD PUSH2 0x2E1 SWAP2 SWAP1 PUSH2 0x1EE8 JUMP JUMPDEST PUSH1 0x40 MLOAD DUP1 SWAP2 SUB SWAP1 RETURN JUMPDEST PUSH2 0x304 PUSH1 0x4 DUP1 CALLDATASIZE SUB DUP2 ADD SWAP1 PUSH2 0x2FF SWAP2 SWAP1 PUSH2 0x20A8 JUMP JUMPDEST PUSH2 0xAC7 JUMP JUMPDEST PUSH1 0x40 MLOAD PUSH2 0x311 SWAP2 SWAP1 PUSH2 0x21A6 JUMP JUMPDEST PUSH1 0x40 MLOAD DUP1 SWAP2 SUB SWAP1 RETURN JUMPDEST PUSH2 0x334 PUSH1 0x4 DUP1 CALLDATASIZE SUB DUP2 ADD SWAP1 PUSH2 0x32F SWAP2 SWAP1 PUSH2 0x1F75 JUMP JUMPDEST PUSH2 0xB56 JUMP JUMPDEST PUSH1 0x40 MLOAD PUSH2 0x342 SWAP3 SWAP2 SWAP1 PUSH2 0x21C8 JUMP JUMPDEST PUSH1 0x40 MLOAD DUP1 SWAP2 SUB SWAP1 RETURN JUMPDEST PUSH2 0x353 PUSH2 0xB7A JUMP JUMPDEST PUSH1 0x40 MLOAD PUSH2 0x360 SWAP2 SWAP1 PUSH2 0x1EE8 JUMP JUMPDEST PUSH1 0x40 MLOAD DUP1 SWAP2 SUB SWAP1 RETURN JUMPDEST PUSH2 0x371 PUSH2 0xB8B JUMP JUMPDEST STOP JUMPDEST PUSH2 0x38D PUSH1 0x4 DUP1 CALLDATASIZE SUB DUP2 ADD SWAP1 PUSH2 0x388 SWAP2 SWAP1 PUSH2 0x1F75 JUMP JUMPDEST PUSH2 0xB9F JUMP JUMPDEST PUSH1 0x40 MLOAD PUSH2 0x39A SWAP2 SWAP1 PUSH2 0x220C JUMP JUMPDEST PUSH1 0x40 MLOAD DUP1 SWAP2 SUB SWAP1 RETURN JUMPDEST PUSH2 0x3AB PUSH2 0xBB3 JUMP JUMPDEST PUSH1 0x40 MLOAD PUSH2 0x3B8 SWAP2 SWAP1 PUSH2 0x208D JUMP JUMPDEST PUSH1 0x40 MLOAD DUP1 SWAP2 SUB SWAP1 RETURN JUMPDEST PUSH2 0x3C9 PUSH2 0xBDC JUMP JUMPDEST PUSH1 0x40 MLOAD PUSH2 0x3D6 SWAP2 SWAP1 PUSH2 0x208D JUMP JUMPDEST PUSH1 0x40 MLOAD DUP1 SWAP2 SUB SWAP1 RETURN JUMPDEST PUSH2 0x3F9 PUSH1 0x4 DUP1 CALLDATASIZE SUB DUP2 ADD SWAP1 PUSH2 0x3F4 SWAP2 SWAP1 PUSH2 0x1F75 JUMP JUMPDEST PUSH2 0xC02 JUMP JUMPDEST PUSH1 0x40 MLOAD PUSH2 0x406 SWAP2 SWAP1 PUSH2 0x220C JUMP JUMPDEST PUSH1 0x40 MLOAD DUP1 SWAP2 SUB SWAP1 RETURN JUMPDEST PUSH2 0x417 PUSH2 0xE9E JUMP JUMPDEST PUSH1 0x40 MLOAD PUSH2 0x424 SWAP2 SWAP1 PUSH2 0x1EE8 JUMP JUMPDEST PUSH1 0x40 MLOAD DUP1 SWAP2 SUB SWAP1 RETURN JUMPDEST PUSH2 0x447 PUSH1 0x4 DUP1 CALLDATASIZE SUB DUP2 ADD SWAP1 PUSH2 0x442 SWAP2 SWAP1 PUSH2 0x2227 JUMP JUMPDEST PUSH2 0xEAF JUMP JUMPDEST PUSH1 0x40 MLOAD PUSH2 0x454 SWAP2 SWAP1 PUSH2 0x220C JUMP JUMPDEST PUSH1 0x40 MLOAD DUP1 SWAP2 SUB SWAP1 RETURN JUMPDEST PUSH2 0x465 PUSH2 0x10D2 JUMP JUMPDEST PUSH1 0x40 MLOAD PUSH2 0x472 SWAP2 SWAP1 PUSH2 0x1EE8 JUMP JUMPDEST PUSH1 0x40 MLOAD DUP1 SWAP2 SUB SWAP1 RETURN JUMPDEST PUSH2 0x483 PUSH2 0x10D9 JUMP JUMPDEST PUSH1 0x40 MLOAD PUSH2 0x490 SWAP2 SWAP1 PUSH2 0x1EE8 JUMP JUMPDEST PUSH1 0x40 MLOAD DUP1 SWAP2 SUB SWAP1 RETURN JUMPDEST PUSH2 0x4B3 PUSH1 0x4 DUP1 CALLDATASIZE SUB DUP2 ADD SWAP1 PUSH2 0x4AE SWAP2 SWAP1 PUSH2 0x20A8 JUMP JUMPDEST PUSH2 0x10DF JUMP JUMPDEST STOP JUMPDEST PUSH2 0x4BD PUSH2 0x10E3 JUMP JUMPDEST PUSH1 0x40 MLOAD PUSH2 0x4CA SWAP2 SWAP1 PUSH2 0x1EE8 JUMP JUMPDEST PUSH1 0x40 MLOAD DUP1 SWAP2 SUB SWAP1 RETURN JUMPDEST PUSH2 0x4DB PUSH2 0x10E9 JUMP JUMPDEST PUSH1 0x40 MLOAD PUSH2 0x4E8 SWAP2 SWAP1 PUSH2 0x21A6 JUMP JUMPDEST PUSH1 0x40 MLOAD DUP1 SWAP2 SUB SWAP1 RETURN JUMPDEST PUSH2 0x50B PUSH1 0x4 DUP1 CALLDATASIZE SUB DUP2 ADD SWAP1 PUSH2 0x506 SWAP2 SWAP1 PUSH2 0x1F75 JUMP JUMPDEST PUSH2 0x1106 JUMP JUMPDEST PUSH1 0x40 MLOAD PUSH2 0x518 SWAP2 SWAP1 PUSH2 0x220C JUMP JUMPDEST PUSH1 0x40 MLOAD DUP1 SWAP2 SUB SWAP1 RETURN JUMPDEST PUSH2 0x53B PUSH1 0x4 DUP1 CALLDATASIZE SUB DUP2 ADD SWAP1 PUSH2 0x536 SWAP2 SWAP1 PUSH2 0x23AD JUMP JUMPDEST PUSH2 0x111A JUMP JUMPDEST STOP JUMPDEST PUSH2 0x557 PUSH1 0x4 DUP1 CALLDATASIZE SUB DUP2 ADD SWAP1 PUSH2 0x552 SWAP2 SWAP1 PUSH2 0x1F75 JUMP JUMPDEST PUSH2 0x1265 JUMP JUMPDEST STOP JUMPDEST PUSH2 0x561 PUSH2 0x12E8 JUMP JUMPDEST PUSH1 0x40 MLOAD PUSH2 0x56E SWAP2 SWAP1 PUSH2 0x21A6 JUMP JUMPDEST PUSH1 0x40 MLOAD DUP1 SWAP2 SUB SWAP1 RETURN JUMPDEST PUSH2 0x57F PUSH2 0x1305 JUMP JUMPDEST PUSH1 0x40 MLOAD PUSH2 0x58C SWAP2 SWAP1 PUSH2 0x208D JUMP JUMPDEST PUSH1 0x40 MLOAD DUP1 SWAP2 SUB SWAP1 RETURN JUMPDEST PUSH1 0x5 SLOAD DUP2 JUMP JUMPDEST PUSH1 0xC PUSH1 0x20 MSTORE DUP1 PUSH1 0x0 MSTORE PUSH1 0x40 PUSH1 0x0 KECCAK256 PUSH1 0x0 SWAP2 POP SWAP1 POP DUP1 PUSH1 0x0 ADD SLOAD SWAP1 DUP1 PUSH1 0x1 ADD SLOAD SWAP1 DUP1 PUSH1 0x2 ADD SLOAD SWAP1 POP DUP4 JUMP JUMPDEST PUSH2 0x5CD PUSH2 0x132B JUMP JUMPDEST PUSH1 0x2 DUP2 PUSH1 0xFF AND EQ DUP1 PUSH2 0x5E2 JUMPI POP PUSH1 0x3 DUP2 PUSH1 0xFF AND EQ JUMPDEST PUSH2 0x621 JUMPI PUSH1 0x40 MLOAD PUSH32 0x8C379A000000000000000000000000000000000000000000000000000000000 DUP2 MSTORE PUSH1 0x4 ADD PUSH2 0x618 SWAP1 PUSH2 0x2453 JUMP JUMPDEST PUSH1 0x40 MLOAD DUP1 SWAP2 SUB SWAP1 REVERT JUMPDEST PUSH1 0x0 PUSH1 0x9 PUSH1 0x0 PUSH2 0x62F PUSH2 0x137A JUMP JUMPDEST PUSH20 0xFFFFFFFFFFFFFFFFFFFFFFFFFFFFFFFFFFFFFFFF AND PUSH20 0xFFFFFFFFFFFFFFFFFFFFFFFFFFFFFFFFFFFFFFFF AND DUP2 MSTORE PUSH1 0x20 ADD SWAP1 DUP2 MSTORE PUSH1 0x20 ADD PUSH1 0x0 KECCAK256 PUSH1 0x0 SWAP1 SLOAD SWAP1 PUSH2 0x100 EXP SWAP1 DIV PUSH1 0xFF AND PUSH1 0xFF AND EQ DUP1 PUSH2 0x6DC JUMPI POP PUSH1 0x2 PUSH1 0x9 PUSH1 0x0 PUSH2 0x68F PUSH2 0x137A JUMP JUMPDEST PUSH20 0xFFFFFFFFFFFFFFFFFFFFFFFFFFFFFFFFFFFFFFFF AND PUSH20 0xFFFFFFFFFFFFFFFFFFFFFFFFFFFFFFFFFFFFFFFF AND DUP2 MSTORE PUSH1 0x20 ADD SWAP1 DUP2 MSTORE PUSH1 0x20 ADD PUSH1 0x0 KECCAK256 PUSH1 0x0 SWAP1 SLOAD SWAP1 PUSH2 0x100 EXP SWAP1 DIV PUSH1 0xFF AND PUSH1 0xFF AND EQ JUMPDEST PUSH2 0x71B JUMPI PUSH1 0x40 MLOAD PUSH32 0x8C379A000000000000000000000000000000000000000000000000000000000 DUP2 MSTORE PUSH1 0x4 ADD PUSH2 0x712 SWAP1 PUSH2 0x24BF JUMP JUMPDEST PUSH1 0x40 MLOAD DUP1 SWAP2 SUB SWAP1 REVERT JUMPDEST PUSH1 0x2 DUP2 PUSH1 0xFF AND SUB PUSH2 0x73D JUMPI PUSH2 0x737 DUP3 PUSH2 0x732 PUSH2 0x137A JUMP JUMPDEST PUSH2 0x1382 JUMP JUMPDEST POP PUSH2 0x75B JUMP JUMPDEST PUSH1 0x3 DUP2 PUSH1 0xFF AND SUB PUSH2 0x75A JUMPI PUSH2 0x758 PUSH2 0x753 PUSH2 0x137A JUMP JUMPDEST PUSH2 0x1724 JUMP JUMPDEST POP JUMPDEST JUMPDEST PUSH2 0x763 PUSH2 0x17F3 JUMP JUMPDEST POP POP JUMP JUMPDEST PUSH1 0x2 PUSH1 0x0 SWAP1 SLOAD SWAP1 PUSH2 0x100 EXP SWAP1 DIV PUSH20 0xFFFFFFFFFFFFFFFFFFFFFFFFFFFFFFFFFFFFFFFF AND DUP2 JUMP JUMPDEST PUSH1 0x0 PUSH1 0x9 PUSH1 0x0 DUP4 PUSH20 0xFFFFFFFFFFFFFFFFFFFFFFFFFFFFFFFFFFFFFFFF AND PUSH20 0xFFFFFFFFFFFFFFFFFFFFFFFFFFFFFFFFFFFFFFFF AND DUP2 MSTORE PUSH1 0x20 ADD SWAP1 DUP2 MSTORE PUSH1 0x20 ADD PUSH1 0x0 KECCAK256 PUSH1 0x0 SWAP1 SLOAD SWAP1 PUSH2 0x100 EXP SWAP1 DIV PUSH1 0xFF AND PUSH1 0xFF AND SWAP1 POP SWAP2 SWAP1 POP JUMP JUMPDEST PUSH2 0x7EE PUSH2 0x17FC JUMP JUMPDEST DUP1 PUSH1 0x3 PUSH1 0x0 PUSH2 0x100 EXP DUP2 SLOAD DUP2 PUSH20 0xFFFFFFFFFFFFFFFFFFFFFFFFFFFFFFFFFFFFFFFF MUL NOT AND SWAP1 DUP4 PUSH20 0xFFFFFFFFFFFFFFFFFFFFFFFFFFFFFFFFFFFFFFFF AND MUL OR SWAP1 SSTORE POP POP JUMP JUMPDEST PUSH2 0x83A PUSH2 0x132B JUMP JUMPDEST PUSH1 0x1E DUP2 LT ISZERO DUP1 ISZERO PUSH2 0x857 JUMPI POP PUSH1 0x0 PUSH1 0x1E DUP3 PUSH2 0x855 SWAP2 SWAP1 PUSH2 0x250E JUMP JUMPDEST EQ JUMPDEST PUSH2 0x896 JUMPI PUSH1 0x40 MLOAD PUSH32 0x8C379A000000000000000000000000000000000000000000000000000000000 DUP2 MSTORE PUSH1 0x4 ADD PUSH2 0x88D SWAP1 PUSH2 0x25B1 JUMP JUMPDEST PUSH1 0x40 MLOAD DUP1 SWAP2 SUB SWAP1 REVERT JUMPDEST PUSH1 0x1 PUSH1 0x9 PUSH1 0x0 PUSH2 0x8A4 PUSH2 0x137A JUMP JUMPDEST PUSH20 0xFFFFFFFFFFFFFFFFFFFFFFFFFFFFFFFFFFFFFFFF AND PUSH20 0xFFFFFFFFFFFFFFFFFFFFFFFFFFFFFFFFFFFFFFFF AND DUP2 MSTORE PUSH1 0x20 ADD SWAP1 DUP2 MSTORE PUSH1 0x20 ADD PUSH1 0x0 KECCAK256 PUSH1 0x0 PUSH2 0x100 EXP DUP2 SLOAD DUP2 PUSH1 0xFF MUL NOT AND SWAP1 DUP4 PUSH1 0xFF AND MUL OR SWAP1 SSTORE POP PUSH2 0x400 DUP1 PUSH2 0x400 DUP5 PUSH2 0x908 SWAP2 SWAP1 PUSH2 0x2600 JUMP JUMPDEST PUSH2 0x912 SWAP2 SWAP1 PUSH2 0x2600 JUMP JUMPDEST PUSH2 0x91C SWAP2 SWAP1 PUSH2 0x2600 JUMP JUMPDEST SWAP2 POP DUP2 PUSH1 0xC PUSH1 0x0 PUSH2 0x92B PUSH2 0x137A JUMP JUMPDEST PUSH20 0xFFFFFFFFFFFFFFFFFFFFFFFFFFFFFFFFFFFFFFFF AND PUSH20 0xFFFFFFFFFFFFFFFFFFFFFFFFFFFFFFFFFFFFFFFF AND DUP2 MSTORE PUSH1 0x20 ADD SWAP1 DUP2 MSTORE PUSH1 0x20 ADD PUSH1 0x0 KECCAK256 PUSH1 0x0 ADD PUSH1 0x0 DUP3 DUP3 SLOAD PUSH2 0x977 SWAP2 SWAP1 PUSH2 0x2642 JUMP JUMPDEST SWAP3 POP POP DUP2 SWAP1 SSTORE POP DUP2 PUSH1 0xC PUSH1 0x0 PUSH2 0x98B PUSH2 0x137A JUMP JUMPDEST PUSH20 0xFFFFFFFFFFFFFFFFFFFFFFFFFFFFFFFFFFFFFFFF AND PUSH20 0xFFFFFFFFFFFFFFFFFFFFFFFFFFFFFFFFFFFFFFFF AND DUP2 MSTORE PUSH1 0x20 ADD SWAP1 DUP2 MSTORE PUSH1 0x20 ADD PUSH1 0x0 KECCAK256 PUSH1 0x1 ADD PUSH1 0x0 DUP3 DUP3 SLOAD PUSH2 0x9D7 SWAP2 SWAP1 PUSH2 0x2642 JUMP JUMPDEST SWAP3 POP POP DUP2 SWAP1 SSTORE POP PUSH3 0x15180 DUP2 PUSH2 0x9ED SWAP2 SWAP1 PUSH2 0x2600 JUMP JUMPDEST PUSH1 0xC PUSH1 0x0 PUSH2 0x9F9 PUSH2 0x137A JUMP JUMPDEST PUSH20 0xFFFFFFFFFFFFFFFFFFFFFFFFFFFFFFFFFFFFFFFF AND PUSH20 0xFFFFFFFFFFFFFFFFFFFFFFFFFFFFFFFFFFFFFFFF AND DUP2 MSTORE PUSH1 0x20 ADD SWAP1 DUP2 MSTORE PUSH1 0x20 ADD PUSH1 0x0 KECCAK256 PUSH1 0x2 ADD PUSH1 0x0 DUP3 DUP3 SLOAD PUSH2 0xA45 SWAP2 SWAP1 PUSH2 0x2642 JUMP JUMPDEST SWAP3 POP POP DUP2 SWAP1 SSTORE POP PUSH2 0xA54 PUSH2 0x137A JUMP JUMPDEST PUSH20 0xFFFFFFFFFFFFFFFFFFFFFFFFFFFFFFFFFFFFFFFF AND PUSH32 0x5BDF3F5623FA7AE0FA364FA40561A15FBDBDC8CB2B162AC2820678880F17C259 DUP4 DUP4 PUSH1 0x40 MLOAD PUSH2 0xA9B SWAP3 SWAP2 SWAP1 PUSH2 0x21C8 JUMP JUMPDEST PUSH1 0x40 MLOAD DUP1 SWAP2 SUB SWAP1 LOG2 PUSH2 0xAAB PUSH2 0x17F3 JUMP JUMPDEST POP POP JUMP JUMPDEST PUSH1 0xB PUSH1 0x20 MSTORE DUP1 PUSH1 0x0 MSTORE PUSH1 0x40 PUSH1 0x0 KECCAK256 PUSH1 0x0 SWAP2 POP SWAP1 POP SLOAD DUP2 JUMP JUMPDEST PUSH1 0x60 PUSH1 0x0 PUSH2 0xAD3 PUSH2 0x10E9 JUMP JUMPDEST SWAP1 POP DUP3 DUP2 MLOAD GT PUSH2 0xAE6 JUMPI DUP1 SWAP2 POP POP PUSH2 0xB50 JUMP JUMPDEST PUSH1 0x0 DUP4 PUSH8 0xFFFFFFFFFFFFFFFF DUP2 GT ISZERO PUSH2 0xB02 JUMPI PUSH2 0xB01 PUSH2 0x2282 JUMP JUMPDEST JUMPDEST PUSH1 0x40 MLOAD SWAP1 DUP1 DUP3 MSTORE DUP1 PUSH1 0x20 MUL PUSH1 0x20 ADD DUP3 ADD PUSH1 0x40 MSTORE DUP1 ISZERO PUSH2 0xB30 JUMPI DUP2 PUSH1 0x20 ADD PUSH1 0x20 DUP3 MUL DUP1 CALLDATASIZE DUP4 CALLDATACOPY DUP1 DUP3 ADD SWAP2 POP POP SWAP1 POP JUMPDEST POP SWAP1 POP PUSH1 0x0 DUP5 SWAP1 POP PUSH1 0x0 DUP1 PUSH2 0xB45 PUSH1 0xD PUSH2 0x187A JUMP JUMPDEST SWAP1 POP DUP4 SWAP6 POP POP POP POP POP POP JUMPDEST SWAP3 SWAP2 POP POP JUMP JUMPDEST PUSH1 0xA PUSH1 0x20 MSTORE DUP1 PUSH1 0x0 MSTORE PUSH1 0x40 PUSH1 0x0 KECCAK256 PUSH1 0x0 SWAP2 POP SWAP1 POP DUP1 PUSH1 0x0 ADD SLOAD SWAP1 DUP1 PUSH1 0x1 ADD SLOAD SWAP1 POP DUP3 JUMP JUMPDEST PUSH1 0x0 PUSH2 0xB86 PUSH1 0xD PUSH2 0x187A JUMP JUMPDEST SWAP1 POP SWAP1 JUMP JUMPDEST PUSH2 0xB93 PUSH2 0x17FC JUMP JUMPDEST PUSH2 0xB9D PUSH1 0x0 PUSH2 0x188B JUMP JUMPDEST JUMP JUMPDEST PUSH1 0x0 PUSH2 0xBAC PUSH1 0xF DUP4 PUSH2 0x194F JUMP JUMPDEST SWAP1 POP SWAP2 SWAP1 POP JUMP JUMPDEST PUSH1 0x0 DUP1 PUSH1 0x0 SWAP1 SLOAD SWAP1 PUSH2 0x100 EXP SWAP1 DIV PUSH20 0xFFFFFFFFFFFFFFFFFFFFFFFFFFFFFFFFFFFFFFFF AND SWAP1 POP SWAP1 JUMP JUMPDEST PUSH1 0x3 PUSH1 0x0 SWAP1 SLOAD SWAP1 PUSH2 0x100 EXP SWAP1 DIV PUSH20 0xFFFFFFFFFFFFFFFFFFFFFFFFFFFFFFFFFFFFFFFF AND DUP2 JUMP JUMPDEST PUSH1 0x0 PUSH2 0xC0C PUSH2 0x17FC JUMP JUMPDEST PUSH1 0x0 PUSH1 0x9 PUSH1 0x0 DUP5 PUSH20 0xFFFFFFFFFFFFFFFFFFFFFFFFFFFFFFFFFFFFFFFF AND PUSH20 0xFFFFFFFFFFFFFFFFFFFFFFFFFFFFFFFFFFFFFFFF AND DUP2 MSTORE PUSH1 0x20 ADD SWAP1 DUP2 MSTORE PUSH1 0x20 ADD PUSH1 0x0 KECCAK256 PUSH1 0x0 SWAP1 SLOAD SWAP1 PUSH2 0x100 EXP SWAP1 DIV PUSH1 0xFF AND PUSH1 0xFF AND SUB PUSH2 0xC9E JUMPI PUSH1 0x40 MLOAD PUSH32 0x8C379A000000000000000000000000000000000000000000000000000000000 DUP2 MSTORE PUSH1 0x4 ADD PUSH2 0xC95 SWAP1 PUSH2 0x26C2 JUMP JUMPDEST PUSH1 0x40 MLOAD DUP1 SWAP2 SUB SWAP1 REVERT JUMPDEST PUSH1 0x1 PUSH1 0x9 PUSH1 0x0 DUP5 PUSH20 0xFFFFFFFFFFFFFFFFFFFFFFFFFFFFFFFFFFFFFFFF AND PUSH20 0xFFFFFFFFFFFFFFFFFFFFFFFFFFFFFFFFFFFFFFFF AND DUP2 MSTORE PUSH1 0x20 ADD SWAP1 DUP2 MSTORE PUSH1 0x20 ADD PUSH1 0x0 KECCAK256 PUSH1 0x0 SWAP1 SLOAD SWAP1 PUSH2 0x100 EXP SWAP1 DIV PUSH1 0xFF AND PUSH1 0xFF AND SUB PUSH2 0xD05 JUMPI PUSH2 0xD00 PUSH1 0xD DUP4 PUSH2 0x1A34 JUMP JUMPDEST PUSH2 0xD69 JUMP JUMPDEST PUSH1 0x2 PUSH1 0x9 PUSH1 0x0 DUP5 PUSH20 0xFFFFFFFFFFFFFFFFFFFFFFFFFFFFFFFFFFFFFFFF AND PUSH20 0xFFFFFFFFFFFFFFFFFFFFFFFFFFFFFFFFFFFFFFFF AND DUP2 MSTORE PUSH1 0x20 ADD SWAP1 DUP2 MSTORE PUSH1 0x20 ADD PUSH1 0x0 KECCAK256 PUSH1 0x0 SWAP1 SLOAD SWAP1 PUSH2 0x100 EXP SWAP1 DIV PUSH1 0xFF AND PUSH1 0xFF AND SUB PUSH2 0xD68 JUMPI PUSH2 0xD67 PUSH1 0xF DUP4 PUSH2 0x1A34 JUMP JUMPDEST JUMPDEST JUMPDEST DUP2 PUSH20 0xFFFFFFFFFFFFFFFFFFFFFFFFFFFFFFFFFFFFFFFF AND PUSH32 0xC0944D59892E6715B5F3FBF230ED4545FC611C304AC5E1827E583585B4180159 PUSH1 0x9 PUSH1 0x0 DUP6 PUSH20 0xFFFFFFFFFFFFFFFFFFFFFFFFFFFFFFFFFFFFFFFF AND PUSH20 0xFFFFFFFFFFFFFFFFFFFFFFFFFFFFFFFFFFFFFFFF AND DUP2 MSTORE PUSH1 0x20 ADD SWAP1 DUP2 MSTORE PUSH1 0x20 ADD PUSH1 0x0 KECCAK256 PUSH1 0x0 SWAP1 SLOAD SWAP1 PUSH2 0x100 EXP SWAP1 DIV PUSH1 0xFF AND PUSH1 0x40 MLOAD PUSH2 0xDFB SWAP2 SWAP1 PUSH2 0x26F1 JUMP JUMPDEST PUSH1 0x40 MLOAD DUP1 SWAP2 SUB SWAP1 LOG2 PUSH1 0x9 PUSH1 0x0 DUP4 PUSH20 0xFFFFFFFFFFFFFFFFFFFFFFFFFFFFFFFFFFFFFFFF AND PUSH20 0xFFFFFFFFFFFFFFFFFFFFFFFFFFFFFFFFFFFFFFFF AND DUP2 MSTORE PUSH1 0x20 ADD SWAP1 DUP2 MSTORE PUSH1 0x20 ADD PUSH1 0x0 KECCAK256 PUSH1 0x0 PUSH2 0x100 EXP DUP2 SLOAD SWAP1 PUSH1 0xFF MUL NOT AND SWAP1 SSTORE PUSH1 0xB PUSH1 0x0 DUP4 PUSH20 0xFFFFFFFFFFFFFFFFFFFFFFFFFFFFFFFFFFFFFFFF AND PUSH20 0xFFFFFFFFFFFFFFFFFFFFFFFFFFFFFFFFFFFFFFFF AND DUP2 MSTORE PUSH1 0x20 ADD SWAP1 DUP2 MSTORE PUSH1 0x20 ADD PUSH1 0x0 KECCAK256 PUSH1 0x0 SWAP1 SSTORE PUSH1 0x1 SWAP1 POP SWAP2 SWAP1 POP JUMP JUMPDEST PUSH1 0x0 PUSH2 0xEAA PUSH1 0xF PUSH2 0x187A JUMP JUMPDEST SWAP1 POP SWAP1 JUMP JUMPDEST PUSH1 0x0 PUSH2 0xEB9 PUSH2 0x17FC JUMP JUMPDEST PUSH1 0x0 PUSH1 0x9 PUSH1 0x0 DUP6 PUSH20 0xFFFFFFFFFFFFFFFFFFFFFFFFFFFFFFFFFFFFFFFF AND PUSH20 0xFFFFFFFFFFFFFFFFFFFFFFFFFFFFFFFFFFFFFFFF AND DUP2 MSTORE PUSH1 0x20 ADD SWAP1 DUP2 MSTORE PUSH1 0x20 ADD PUSH1 0x0 KECCAK256 PUSH1 0x0 SWAP1 SLOAD SWAP1 PUSH2 0x100 EXP SWAP1 DIV PUSH1 0xFF AND PUSH1 0xFF AND SUB PUSH2 0xF4B JUMPI PUSH1 0x40 MLOAD PUSH32 0x8C379A000000000000000000000000000000000000000000000000000000000 DUP2 MSTORE PUSH1 0x4 ADD PUSH2 0xF42 SWAP1 PUSH2 0x26C2 JUMP JUMPDEST PUSH1 0x40 MLOAD DUP1 SWAP2 SUB SWAP1 REVERT JUMPDEST PUSH1 0x0 PUSH1 0xB PUSH1 0x0 DUP6 PUSH20 0xFFFFFFFFFFFFFFFFFFFFFFFFFFFFFFFFFFFFFFFF AND PUSH20 0xFFFFFFFFFFFFFFFFFFFFFFFFFFFFFFFFFFFFFFFF AND DUP2 MSTORE PUSH1 0x20 ADD SWAP1 DUP2 MSTORE PUSH1 0x20 ADD PUSH1 0x0 KECCAK256 SLOAD LT ISZERO PUSH2 0xFCE JUMPI PUSH1 0x40 MLOAD PUSH32 0x8C379A000000000000000000000000000000000000000000000000000000000 DUP2 MSTORE PUSH1 0x4 ADD PUSH2 0xFC5 SWAP1 PUSH2 0x2758 JUMP JUMPDEST PUSH1 0x40 MLOAD DUP1 SWAP2 SUB SWAP1 REVERT JUMPDEST DUP2 PUSH1 0xB PUSH1 0x0 DUP6 PUSH20 0xFFFFFFFFFFFFFFFFFFFFFFFFFFFFFFFFFFFFFFFF AND PUSH20 0xFFFFFFFFFFFFFFFFFFFFFFFFFFFFFFFFFFFFFFFF AND DUP2 MSTORE PUSH1 0x20 ADD SWAP1 DUP2 MSTORE PUSH1 0x20 ADD PUSH1 0x0 KECCAK256 SLOAD GT PUSH2 0x106F JUMPI DUP2 PUSH1 0xB PUSH1 0x0 DUP6 PUSH20 0xFFFFFFFFFFFFFFFFFFFFFFFFFFFFFFFFFFFFFFFF AND PUSH20 0xFFFFFFFFFFFFFFFFFFFFFFFFFFFFFFFFFFFFFFFF AND DUP2 MSTORE PUSH1 0x20 ADD SWAP1 DUP2 MSTORE PUSH1 0x20 ADD PUSH1 0x0 KECCAK256 PUSH1 0x0 DUP3 DUP3 SLOAD PUSH2 0x1063 SWAP2 SWAP1 PUSH2 0x2778 JUMP JUMPDEST SWAP3 POP POP DUP2 SWAP1 SSTORE POP PUSH2 0x107A JUMP JUMPDEST PUSH2 0x1078 DUP4 PUSH2 0xC02 JUMP JUMPDEST POP JUMPDEST DUP3 PUSH20 0xFFFFFFFFFFFFFFFFFFFFFFFFFFFFFFFFFFFFFFFF AND PUSH32 0x53FCB0D5AC9969DCEC28BAA60BEB9B56B28FA301971F7E19C6C8BEB0D1E86ECE DUP4 PUSH1 0x40 MLOAD PUSH2 0x10C0 SWAP2 SWAP1 PUSH2 0x1EE8 JUMP JUMPDEST PUSH1 0x40 MLOAD DUP1 SWAP2 SUB SWAP1 LOG2 PUSH1 0x1 SWAP1 POP SWAP3 SWAP2 POP POP JUMP JUMPDEST PUSH3 0x15180 DUP2 JUMP JUMPDEST PUSH1 0x6 SLOAD DUP2 JUMP JUMPDEST POP POP JUMP JUMPDEST PUSH1 0x7 SLOAD DUP2 JUMP JUMPDEST PUSH1 0x60 PUSH2 0x1101 PUSH1 0xD PUSH1 0x0 PUSH2 0x10FC PUSH1 0xD PUSH2 0x187A JUMP JUMPDEST PUSH2 0x1C62 JUMP JUMPDEST SWAP1 POP SWAP1 JUMP JUMPDEST PUSH1 0x0 PUSH2 0x1113 PUSH1 0xD DUP4 PUSH2 0x194F JUMP JUMPDEST SWAP1 POP SWAP2 SWAP1 POP JUMP JUMPDEST PUSH2 0x1122 PUSH2 0x132B JUMP JUMPDEST PUSH1 0x0 DUP1 PUSH1 0x0 DUP1 PUSH1 0x0 DUP1 PUSH1 0x0 DUP1 PUSH1 0x0 DUP10 DUP1 PUSH1 0x20 ADD SWAP1 MLOAD DUP2 ADD SWAP1 PUSH2 0x1144 SWAP2 SWAP1 PUSH2 0x2A88 JUMP JUMPDEST SWAP9 POP SWAP9 POP SWAP9 POP SWAP9 POP SWAP9 POP SWAP9 POP SWAP9 POP SWAP9 POP SWAP9 POP PUSH1 0x3 PUSH1 0x0 SWAP1 SLOAD SWAP1 PUSH2 0x100 EXP SWAP1 DIV PUSH20 0xFFFFFFFFFFFFFFFFFFFFFFFFFFFFFFFFFFFFFFFF AND PUSH20 0xFFFFFFFFFFFFFFFFFFFFFFFFFFFFFFFFFFFFFFFF AND PUSH4 0x47618F18 DUP11 DUP11 DUP11 DUP11 DUP11 DUP10 DUP10 DUP10 PUSH1 0x40 MLOAD DUP10 PUSH4 0xFFFFFFFF AND PUSH1 0xE0 SHL DUP2 MSTORE PUSH1 0x4 ADD PUSH2 0x11BF SWAP9 SWAP8 SWAP7 SWAP6 SWAP5 SWAP4 SWAP3 SWAP2 SWAP1 PUSH2 0x2D12 JUMP JUMPDEST PUSH1 0x20 PUSH1 0x40 MLOAD DUP1 DUP4 SUB DUP2 PUSH1 0x0 DUP8 GAS CALL ISZERO DUP1 ISZERO PUSH2 0x11DE JUMPI RETURNDATASIZE PUSH1 0x0 DUP1 RETURNDATACOPY RETURNDATASIZE PUSH1 0x0 REVERT JUMPDEST POP POP POP POP PUSH1 0x40 MLOAD RETURNDATASIZE PUSH1 0x1F NOT PUSH1 0x1F DUP3 ADD AND DUP3 ADD DUP1 PUSH1 0x40 MSTORE POP DUP2 ADD SWAP1 PUSH2 0x1202 SWAP2 SWAP1 PUSH2 0x2DD8 JUMP JUMPDEST POP DUP1 PUSH20 0xFFFFFFFFFFFFFFFFFFFFFFFFFFFFFFFFFFFFFFFF AND PUSH32 0x30EBD9082452F045CBB677F33BAFCD83242C048D21FA3F84705AB051A900AC33 DUP7 PUSH1 0x40 MLOAD PUSH2 0x1249 SWAP2 SWAP1 PUSH2 0x1EE8 JUMP JUMPDEST PUSH1 0x40 MLOAD DUP1 SWAP2 SUB SWAP1 LOG2 POP POP POP POP POP POP POP POP POP PUSH2 0x1262 PUSH2 0x17F3 JUMP JUMPDEST POP JUMP JUMPDEST PUSH2 0x126D PUSH2 0x17FC JUMP JUMPDEST PUSH1 0x0 PUSH20 0xFFFFFFFFFFFFFFFFFFFFFFFFFFFFFFFFFFFFFFFF AND DUP2 PUSH20 0xFFFFFFFFFFFFFFFFFFFFFFFFFFFFFFFFFFFFFFFF AND SUB PUSH2 0x12DC JUMPI PUSH1 0x40 MLOAD PUSH32 0x8C379A000000000000000000000000000000000000000000000000000000000 DUP2 MSTORE PUSH1 0x4 ADD PUSH2 0x12D3 SWAP1 PUSH2 0x2E77 JUMP JUMPDEST PUSH1 0x40 MLOAD DUP1 SWAP2 SUB SWAP1 REVERT JUMPDEST PUSH2 0x12E5 DUP2 PUSH2 0x188B JUMP JUMPDEST POP JUMP JUMPDEST PUSH1 0x60 PUSH2 0x1300 PUSH1 0xF PUSH1 0x0 PUSH2 0x12FB PUSH1 0xF PUSH2 0x187A JUMP JUMPDEST PUSH2 0x1C62 JUMP JUMPDEST SWAP1 POP SWAP1 JUMP JUMPDEST PUSH1 0x4 PUSH1 0x0 SWAP1 SLOAD SWAP1 PUSH2 0x100 EXP SWAP1 DIV PUSH20 0xFFFFFFFFFFFFFFFFFFFFFFFFFFFFFFFFFFFFFFFF AND DUP2 JUMP JUMPDEST PUSH1 0x2 PUSH1 0x1 SLOAD SUB PUSH2 0x1370 JUMPI PUSH1 0x40 MLOAD PUSH32 0x8C379A000000000000000000000000000000000000000000000000000000000 DUP2 MSTORE PUSH1 0x4 ADD PUSH2 0x1367 SWAP1 PUSH2 0x2EE3 JUMP JUMPDEST PUSH1 0x40 MLOAD DUP1 SWAP2 SUB SWAP1 REVERT JUMPDEST PUSH1 0x2 PUSH1 0x1 DUP2 SWAP1 SSTORE POP JUMP JUMPDEST PUSH1 0x0 CALLER SWAP1 POP SWAP1 JUMP JUMPDEST PUSH1 0x0 DUP1 DUP4 GT PUSH2 0x13C6 JUMPI PUSH1 0x40 MLOAD PUSH32 0x8C379A000000000000000000000000000000000000000000000000000000000 DUP2 MSTORE PUSH1 0x4 ADD PUSH2 0x13BD SWAP1 PUSH2 0x2F4F JUMP JUMPDEST PUSH1 0x40 MLOAD DUP1 SWAP2 SUB SWAP1 REVERT JUMPDEST PUSH1 0x0 DUP4 PUSH1 0x5 SLOAD PUSH2 0x13D6 SWAP2 SWAP1 PUSH2 0x2600 JUMP JUMPDEST SWAP1 POP DUP1 PUSH1 0x4 PUSH1 0x0 SWAP1 SLOAD SWAP1 PUSH2 0x100 EXP SWAP1 DIV PUSH20 0xFFFFFFFFFFFFFFFFFFFFFFFFFFFFFFFFFFFFFFFF AND PUSH20 0xFFFFFFFFFFFFFFFFFFFFFFFFFFFFFFFFFFFFFFFF AND PUSH4 0x70A08231 DUP6 PUSH1 0x40 MLOAD DUP3 PUSH4 0xFFFFFFFF AND PUSH1 0xE0 SHL DUP2 MSTORE PUSH1 0x4 ADD PUSH2 0x1434 SWAP2 SWAP1 PUSH2 0x208D JUMP JUMPDEST PUSH1 0x20 PUSH1 0x40 MLOAD DUP1 DUP4 SUB DUP2 DUP7 GAS STATICCALL ISZERO DUP1 ISZERO PUSH2 0x1451 JUMPI RETURNDATASIZE PUSH1 0x0 DUP1 RETURNDATACOPY RETURNDATASIZE PUSH1 0x0 REVERT JUMPDEST POP POP POP POP PUSH1 0x40 MLOAD RETURNDATASIZE PUSH1 0x1F NOT PUSH1 0x1F DUP3 ADD AND DUP3 ADD DUP1 PUSH1 0x40 MSTORE POP DUP2 ADD SWAP1 PUSH2 0x1475 SWAP2 SWAP1 PUSH2 0x2F6F JUMP JUMPDEST LT ISZERO PUSH2 0x14B6 JUMPI PUSH1 0x40 MLOAD PUSH32 0x8C379A000000000000000000000000000000000000000000000000000000000 DUP2 MSTORE PUSH1 0x4 ADD PUSH2 0x14AD SWAP1 PUSH2 0x2FE8 JUMP JUMPDEST PUSH1 0x40 MLOAD DUP1 SWAP2 SUB SWAP1 REVERT JUMPDEST PUSH2 0x14C1 PUSH1 0xD DUP5 PUSH2 0x194F JUMP JUMPDEST PUSH2 0x14D1 JUMPI PUSH2 0x14D0 PUSH1 0xD DUP5 PUSH2 0x1E0A JUMP JUMPDEST JUMPDEST PUSH1 0x0 PUSH1 0x4 PUSH1 0x0 SWAP1 SLOAD SWAP1 PUSH2 0x100 EXP SWAP1 DIV PUSH20 0xFFFFFFFFFFFFFFFFFFFFFFFFFFFFFFFFFFFFFFFF AND PUSH20 0xFFFFFFFFFFFFFFFFFFFFFFFFFFFFFFFFFFFFFFFF AND PUSH4 0x23B872DD DUP6 PUSH1 0x2 PUSH1 0x0 SWAP1 SLOAD SWAP1 PUSH2 0x100 EXP SWAP1 DIV PUSH20 0xFFFFFFFFFFFFFFFFFFFFFFFFFFFFFFFFFFFFFFFF AND DUP6 PUSH1 0x40 MLOAD DUP5 PUSH4 0xFFFFFFFF AND PUSH1 0xE0 SHL DUP2 MSTORE PUSH1 0x4 ADD PUSH2 0x1554 SWAP4 SWAP3 SWAP2 SWAP1 PUSH2 0x3008 JUMP JUMPDEST PUSH1 0x20 PUSH1 0x40 MLOAD DUP1 DUP4 SUB DUP2 PUSH1 0x0 DUP8 GAS CALL ISZERO DUP1 ISZERO PUSH2 0x1573 JUMPI RETURNDATASIZE PUSH1 0x0 DUP1 RETURNDATACOPY RETURNDATASIZE PUSH1 0x0 REVERT JUMPDEST POP POP POP POP PUSH1 0x40 MLOAD RETURNDATASIZE PUSH1 0x1F NOT PUSH1 0x1F DUP3 ADD AND DUP3 ADD DUP1 PUSH1 0x40 MSTORE POP DUP2 ADD SWAP1 PUSH2 0x1597 SWAP2 SWAP1 PUSH2 0x2DD8 JUMP JUMPDEST SWAP1 POP PUSH2 0x400 DUP1 PUSH2 0x400 DUP8 PUSH2 0x15AB SWAP2 SWAP1 PUSH2 0x2600 JUMP JUMPDEST PUSH2 0x15B5 SWAP2 SWAP1 PUSH2 0x2600 JUMP JUMPDEST PUSH2 0x15BF SWAP2 SWAP1 PUSH2 0x2600 JUMP JUMPDEST SWAP5 POP DUP5 PUSH1 0xA PUSH1 0x0 DUP7 PUSH20 0xFFFFFFFFFFFFFFFFFFFFFFFFFFFFFFFFFFFFFFFF AND PUSH20 0xFFFFFFFFFFFFFFFFFFFFFFFFFFFFFFFFFFFFFFFF AND DUP2 MSTORE PUSH1 0x20 ADD SWAP1 DUP2 MSTORE PUSH1 0x20 ADD PUSH1 0x0 KECCAK256 PUSH1 0x0 ADD PUSH1 0x0 DUP3 DUP3 SLOAD PUSH2 0x1613 SWAP2 SWAP1 PUSH2 0x2642 JUMP JUMPDEST SWAP3 POP POP DUP2 SWAP1 SSTORE POP DUP2 PUSH1 0xB PUSH1 0x0 DUP7 PUSH20 0xFFFFFFFFFFFFFFFFFFFFFFFFFFFFFFFFFFFFFFFF AND PUSH20 0xFFFFFFFFFFFFFFFFFFFFFFFFFFFFFFFFFFFFFFFF AND DUP2 MSTORE PUSH1 0x20 ADD SWAP1 DUP2 MSTORE PUSH1 0x20 ADD PUSH1 0x0 KECCAK256 PUSH1 0x0 DUP3 DUP3 SLOAD PUSH2 0x1669 SWAP2 SWAP1 PUSH2 0x2642 JUMP JUMPDEST SWAP3 POP POP DUP2 SWAP1 SSTORE POP PUSH1 0x2 PUSH1 0x9 PUSH1 0x0 DUP7 PUSH20 0xFFFFFFFFFFFFFFFFFFFFFFFFFFFFFFFFFFFFFFFF AND PUSH20 0xFFFFFFFFFFFFFFFFFFFFFFFFFFFFFFFFFFFFFFFF AND DUP2 MSTORE PUSH1 0x20 ADD SWAP1 DUP2 MSTORE PUSH1 0x20 ADD PUSH1 0x0 KECCAK256 PUSH1 0x0 PUSH2 0x100 EXP DUP2 SLOAD DUP2 PUSH1 0xFF MUL NOT AND SWAP1 DUP4 PUSH1 0xFF AND MUL OR SWAP1 SSTORE POP DUP4 PUSH20 0xFFFFFFFFFFFFFFFFFFFFFFFFFFFFFFFFFFFFFFFF AND PUSH32 0xE04F064C94FE0EDEE3C04978EA069C5445CF7146E23ED179C153983E44778311 DUP4 DUP8 PUSH1 0x40 MLOAD PUSH2 0x1711 SWAP3 SWAP2 SWAP1 PUSH2 0x21C8 JUMP JUMPDEST PUSH1 0x40 MLOAD DUP1 SWAP2 SUB SWAP1 LOG2 DUP1 SWAP3 POP POP POP SWAP3 SWAP2 POP POP JUMP JUMPDEST PUSH1 0x0 PUSH2 0x1731 PUSH1 0xF DUP4 PUSH2 0x194F JUMP JUMPDEST PUSH2 0x1741 JUMPI PUSH2 0x1740 PUSH1 0xF DUP4 PUSH2 0x1E0A JUMP JUMPDEST JUMPDEST PUSH1 0x3 PUSH1 0x9 PUSH1 0x0 DUP5 PUSH20 0xFFFFFFFFFFFFFFFFFFFFFFFFFFFFFFFFFFFFFFFF AND PUSH20 0xFFFFFFFFFFFFFFFFFFFFFFFFFFFFFFFFFFFFFFFF AND DUP2 MSTORE PUSH1 0x20 ADD SWAP1 DUP2 MSTORE PUSH1 0x20 ADD PUSH1 0x0 KECCAK256 PUSH1 0x0 PUSH2 0x100 EXP DUP2 SLOAD DUP2 PUSH1 0xFF MUL NOT AND SWAP1 DUP4 PUSH1 0xFF AND MUL OR SWAP1 SSTORE POP DUP2 PUSH20 0xFFFFFFFFFFFFFFFFFFFFFFFFFFFFFFFFFFFFFFFF AND PUSH32 0x261A1E5397DA268BD5F5561920D0FD2B3AC2F1A2C9DEA7CD9BC679A8F18D87D3 PUSH1 0x6 SLOAD PUSH1 0x40 MLOAD PUSH2 0x17E2 SWAP2 SWAP1 PUSH2 0x1EE8 JUMP JUMPDEST PUSH1 0x40 MLOAD DUP1 SWAP2 SUB SWAP1 LOG2 PUSH1 0x1 SWAP1 POP SWAP2 SWAP1 POP JUMP JUMPDEST PUSH1 0x1 DUP1 DUP2 SWAP1 SSTORE POP JUMP JUMPDEST PUSH2 0x1804 PUSH2 0x137A JUMP JUMPDEST PUSH20 0xFFFFFFFFFFFFFFFFFFFFFFFFFFFFFFFFFFFFFFFF AND PUSH2 0x1822 PUSH2 0xBB3 JUMP JUMPDEST PUSH20 0xFFFFFFFFFFFFFFFFFFFFFFFFFFFFFFFFFFFFFFFF AND EQ PUSH2 0x1878 JUMPI PUSH1 0x40 MLOAD PUSH32 0x8C379A000000000000000000000000000000000000000000000000000000000 DUP2 MSTORE PUSH1 0x4 ADD PUSH2 0x186F SWAP1 PUSH2 0x308B JUMP JUMPDEST PUSH1 0x40 MLOAD DUP1 SWAP2 SUB SWAP1 REVERT JUMPDEST JUMP JUMPDEST PUSH1 0x0 DUP2 PUSH1 0x0 ADD DUP1 SLOAD SWAP1 POP SWAP1 POP SWAP2 SWAP1 POP JUMP JUMPDEST PUSH1 0x0 DUP1 PUSH1 0x0 SWAP1 SLOAD SWAP1 PUSH2 0x100 EXP SWAP1 DIV PUSH20 0xFFFFFFFFFFFFFFFFFFFFFFFFFFFFFFFFFFFFFFFF AND SWAP1 POP DUP2 PUSH1 0x0 DUP1 PUSH2 0x100 EXP DUP2 SLOAD DUP2 PUSH20 0xFFFFFFFFFFFFFFFFFFFFFFFFFFFFFFFFFFFFFFFF MUL NOT AND SWAP1 DUP4 PUSH20 0xFFFFFFFFFFFFFFFFFFFFFFFFFFFFFFFFFFFFFFFF AND MUL OR SWAP1 SSTORE POP DUP2 PUSH20 0xFFFFFFFFFFFFFFFFFFFFFFFFFFFFFFFFFFFFFFFF AND DUP2 PUSH20 0xFFFFFFFFFFFFFFFFFFFFFFFFFFFFFFFFFFFFFFFF AND PUSH32 0x8BE0079C531659141344CD1FD0A4F28419497F9722A3DAAFE3B4186F6B6457E0 PUSH1 0x40 MLOAD PUSH1 0x40 MLOAD DUP1 SWAP2 SUB SWAP1 LOG3 POP POP JUMP JUMPDEST PUSH1 0x0 DUP1 DUP4 PUSH1 0x0 ADD DUP1 SLOAD SWAP1 POP SUB PUSH2 0x1968 JUMPI PUSH1 0x0 SWAP1 POP PUSH2 0x1A2E JUMP JUMPDEST PUSH1 0x0 DUP4 PUSH1 0x1 ADD PUSH1 0x0 DUP5 PUSH20 0xFFFFFFFFFFFFFFFFFFFFFFFFFFFFFFFFFFFFFFFF AND PUSH20 0xFFFFFFFFFFFFFFFFFFFFFFFFFFFFFFFFFFFFFFFF AND DUP2 MSTORE PUSH1 0x20 ADD SWAP1 DUP2 MSTORE PUSH1 0x20 ADD PUSH1 0x0 KECCAK256 SLOAD SWAP1 POP PUSH1 0x0 DUP2 EQ ISZERO DUP1 PUSH2 0x1A2A JUMPI POP DUP3 PUSH20 0xFFFFFFFFFFFFFFFFFFFFFFFFFFFFFFFFFFFFFFFF AND DUP5 PUSH1 0x0 ADD PUSH1 0x0 DUP2 SLOAD DUP2 LT PUSH2 0x19E7 JUMPI PUSH2 0x19E6 PUSH2 0x30AB JUMP JUMPDEST JUMPDEST SWAP1 PUSH1 0x0 MSTORE PUSH1 0x20 PUSH1 0x0 KECCAK256 ADD PUSH1 0x0 SWAP1 SLOAD SWAP1 PUSH2 0x100 EXP SWAP1 DIV PUSH20 0xFFFFFFFFFFFFFFFFFFFFFFFFFFFFFFFFFFFFFFFF AND PUSH20 0xFFFFFFFFFFFFFFFFFFFFFFFFFFFFFFFFFFFFFFFF AND EQ JUMPDEST SWAP2 POP POP JUMPDEST SWAP3 SWAP2 POP POP JUMP JUMPDEST PUSH2 0x1A3E DUP3 DUP3 PUSH2 0x194F JUMP JUMPDEST PUSH2 0x1A7D JUMPI PUSH1 0x40 MLOAD PUSH32 0x8C379A000000000000000000000000000000000000000000000000000000000 DUP2 MSTORE PUSH1 0x4 ADD PUSH2 0x1A74 SWAP1 PUSH2 0x3126 JUMP JUMPDEST PUSH1 0x40 MLOAD DUP1 SWAP2 SUB SWAP1 REVERT JUMPDEST PUSH1 0x0 DUP3 PUSH1 0x1 ADD PUSH1 0x0 DUP4 PUSH20 0xFFFFFFFFFFFFFFFFFFFFFFFFFFFFFFFFFFFFFFFF AND PUSH20 0xFFFFFFFFFFFFFFFFFFFFFFFFFFFFFFFFFFFFFFFF AND DUP2 MSTORE PUSH1 0x20 ADD SWAP1 DUP2 MSTORE PUSH1 0x20 ADD PUSH1 0x0 KECCAK256 SLOAD SWAP1 POP PUSH1 0x0 PUSH1 0x1 DUP5 PUSH1 0x0 ADD DUP1 SLOAD SWAP1 POP PUSH2 0x1AD9 SWAP2 SWAP1 PUSH2 0x2778 JUMP JUMPDEST SWAP1 POP DUP1 DUP3 EQ PUSH2 0x1BCE JUMPI PUSH1 0x0 DUP5 PUSH1 0x0 ADD DUP3 DUP2 SLOAD DUP2 LT PUSH2 0x1AFA JUMPI PUSH2 0x1AF9 PUSH2 0x30AB JUMP JUMPDEST JUMPDEST SWAP1 PUSH1 0x0 MSTORE PUSH1 0x20 PUSH1 0x0 KECCAK256 ADD PUSH1 0x0 SWAP1 SLOAD SWAP1 PUSH2 0x100 EXP SWAP1 DIV PUSH20 0xFFFFFFFFFFFFFFFFFFFFFFFFFFFFFFFFFFFFFFFF AND SWAP1 POP DUP1 DUP6 PUSH1 0x0 ADD DUP5 DUP2 SLOAD DUP2 LT PUSH2 0x1B3E JUMPI PUSH2 0x1B3D PUSH2 0x30AB JUMP JUMPDEST JUMPDEST SWAP1 PUSH1 0x0 MSTORE PUSH1 0x20 PUSH1 0x0 KECCAK256 ADD PUSH1 0x0 PUSH2 0x100 EXP DUP2 SLOAD DUP2 PUSH20 0xFFFFFFFFFFFFFFFFFFFFFFFFFFFFFFFFFFFFFFFF MUL NOT AND SWAP1 DUP4 PUSH20 0xFFFFFFFFFFFFFFFFFFFFFFFFFFFFFFFFFFFFFFFF AND MUL OR SWAP1 SSTORE POP DUP3 DUP6 PUSH1 0x1 ADD PUSH1 0x0 DUP4 PUSH20 0xFFFFFFFFFFFFFFFFFFFFFFFFFFFFFFFFFFFFFFFF AND PUSH20 0xFFFFFFFFFFFFFFFFFFFFFFFFFFFFFFFFFFFFFFFF AND DUP2 MSTORE PUSH1 0x20 ADD SWAP1 DUP2 MSTORE PUSH1 0x20 ADD PUSH1 0x0 KECCAK256 DUP2 SWAP1 SSTORE POP POP JUMPDEST DUP4 PUSH1 0x0 ADD DUP1 SLOAD DUP1 PUSH2 0x1BE2 JUMPI PUSH2 0x1BE1 PUSH2 0x3146 JUMP JUMPDEST JUMPDEST PUSH1 0x1 SWAP1 SUB DUP2 DUP2 SWAP1 PUSH1 0x0 MSTORE PUSH1 0x20 PUSH1 0x0 KECCAK256 ADD PUSH1 0x0 PUSH2 0x100 EXP DUP2 SLOAD SWAP1 PUSH20 0xFFFFFFFFFFFFFFFFFFFFFFFFFFFFFFFFFFFFFFFF MUL NOT AND SWAP1 SSTORE SWAP1 SSTORE DUP4 PUSH1 0x1 ADD PUSH1 0x0 DUP5 PUSH20 0xFFFFFFFFFFFFFFFFFFFFFFFFFFFFFFFFFFFFFFFF AND PUSH20 0xFFFFFFFFFFFFFFFFFFFFFFFFFFFFFFFFFFFFFFFF AND DUP2 MSTORE PUSH1 0x20 ADD SWAP1 DUP2 MSTORE PUSH1 0x20 ADD PUSH1 0x0 KECCAK256 PUSH1 0x0 SWAP1 SSTORE POP POP POP POP JUMP JUMPDEST PUSH1 0x60 PUSH1 0x0 DUP3 DUP5 PUSH2 0x1C72 SWAP2 SWAP1 PUSH2 0x2642 JUMP JUMPDEST SWAP1 POP DUP5 PUSH1 0x0 ADD DUP1 SLOAD SWAP1 POP DUP2 GT ISZERO PUSH2 0x1C8E JUMPI DUP5 PUSH1 0x0 ADD DUP1 SLOAD SWAP1 POP SWAP1 POP JUMPDEST DUP4 DUP2 GT PUSH2 0x1CE7 JUMPI PUSH1 0x0 PUSH8 0xFFFFFFFFFFFFFFFF DUP2 GT ISZERO PUSH2 0x1CB0 JUMPI PUSH2 0x1CAF PUSH2 0x2282 JUMP JUMPDEST JUMPDEST PUSH1 0x40 MLOAD SWAP1 DUP1 DUP3 MSTORE DUP1 PUSH1 0x20 MUL PUSH1 0x20 ADD DUP3 ADD PUSH1 0x40 MSTORE DUP1 ISZERO PUSH2 0x1CDE JUMPI DUP2 PUSH1 0x20 ADD PUSH1 0x20 DUP3 MUL DUP1 CALLDATASIZE DUP4 CALLDATACOPY DUP1 DUP3 ADD SWAP2 POP POP SWAP1 POP JUMPDEST POP SWAP2 POP POP PUSH2 0x1E03 JUMP JUMPDEST PUSH1 0x0 DUP5 DUP3 PUSH2 0x1CF5 SWAP2 SWAP1 PUSH2 0x2778 JUMP JUMPDEST SWAP1 POP PUSH1 0x0 DUP2 PUSH8 0xFFFFFFFFFFFFFFFF DUP2 GT ISZERO PUSH2 0x1D13 JUMPI PUSH2 0x1D12 PUSH2 0x2282 JUMP JUMPDEST JUMPDEST PUSH1 0x40 MLOAD SWAP1 DUP1 DUP3 MSTORE DUP1 PUSH1 0x20 MUL PUSH1 0x20 ADD DUP3 ADD PUSH1 0x40 MSTORE DUP1 ISZERO PUSH2 0x1D41 JUMPI DUP2 PUSH1 0x20 ADD PUSH1 0x20 DUP3 MUL DUP1 CALLDATASIZE DUP4 CALLDATACOPY DUP1 DUP3 ADD SWAP2 POP POP SWAP1 POP JUMPDEST POP SWAP1 POP PUSH1 0x0 JUMPDEST DUP3 DUP2 LT ISZERO PUSH2 0x1DFB JUMPI DUP8 PUSH1 0x0 ADD DUP8 DUP3 PUSH2 0x1D5F SWAP2 SWAP1 PUSH2 0x2642 JUMP JUMPDEST DUP2 SLOAD DUP2 LT PUSH2 0x1D70 JUMPI PUSH2 0x1D6F PUSH2 0x30AB JUMP JUMPDEST JUMPDEST SWAP1 PUSH1 0x0 MSTORE PUSH1 0x20 PUSH1 0x0 KECCAK256 ADD PUSH1 0x0 SWAP1 SLOAD SWAP1 PUSH2 0x100 EXP SWAP1 DIV PUSH20 0xFFFFFFFFFFFFFFFFFFFFFFFFFFFFFFFFFFFFFFFF AND DUP3 DUP3 DUP2 MLOAD DUP2 LT PUSH2 0x1DAE JUMPI PUSH2 0x1DAD PUSH2 0x30AB JUMP JUMPDEST JUMPDEST PUSH1 0x20 MUL PUSH1 0x20 ADD ADD SWAP1 PUSH20 0xFFFFFFFFFFFFFFFFFFFFFFFFFFFFFFFFFFFFFFFF AND SWAP1 DUP2 PUSH20 0xFFFFFFFFFFFFFFFFFFFFFFFFFFFFFFFFFFFFFFFF AND DUP2 MSTORE POP POP DUP1 DUP1 PUSH2 0x1DF3 SWAP1 PUSH2 0x3175 JUMP JUMPDEST SWAP2 POP POP PUSH2 0x1D47 JUMP JUMPDEST POP DUP1 SWAP4 POP POP POP POP JUMPDEST SWAP4 SWAP3 POP POP POP JUMP JUMPDEST PUSH2 0x1E14 DUP3 DUP3 PUSH2 0x194F JUMP JUMPDEST PUSH2 0x1ECB JUMPI DUP2 PUSH1 0x0 ADD DUP1 SLOAD SWAP1 POP DUP3 PUSH1 0x1 ADD PUSH1 0x0 DUP4 PUSH20 0xFFFFFFFFFFFFFFFFFFFFFFFFFFFFFFFFFFFFFFFF AND PUSH20 0xFFFFFFFFFFFFFFFFFFFFFFFFFFFFFFFFFFFFFFFF AND DUP2 MSTORE PUSH1 0x20 ADD SWAP1 DUP2 MSTORE PUSH1 0x20 ADD PUSH1 0x0 KECCAK256 DUP2 SWAP1 SSTORE POP DUP2 PUSH1 0x0 ADD DUP2 SWAP1 DUP1 PUSH1 0x1 DUP2 SLOAD ADD DUP1 DUP3 SSTORE DUP1 SWAP2 POP POP PUSH1 0x1 SWAP1 SUB SWAP1 PUSH1 0x0 MSTORE PUSH1 0x20 PUSH1 0x0 KECCAK256 ADD PUSH1 0x0 SWAP1 SWAP2 SWAP1 SWAP2 SWAP1 SWAP2 PUSH2 0x100 EXP DUP2 SLOAD DUP2 PUSH20 0xFFFFFFFFFFFFFFFFFFFFFFFFFFFFFFFFFFFFFFFF MUL NOT AND SWAP1 DUP4 PUSH20 0xFFFFFFFFFFFFFFFFFFFFFFFFFFFFFFFFFFFFFFFF AND MUL OR SWAP1 SSTORE POP JUMPDEST POP POP JUMP JUMPDEST PUSH1 0x0 DUP2 SWAP1 POP SWAP2 SWAP1 POP JUMP JUMPDEST PUSH2 0x1EE2 DUP2 PUSH2 0x1ECF JUMP JUMPDEST DUP3 MSTORE POP POP JUMP JUMPDEST PUSH1 0x0 PUSH1 0x20 DUP3 ADD SWAP1 POP PUSH2 0x1EFD PUSH1 0x0 DUP4 ADD DUP5 PUSH2 0x1ED9 JUMP JUMPDEST SWAP3 SWAP2 POP POP JUMP JUMPDEST PUSH1 0x0 PUSH1 0x40 MLOAD SWAP1 POP SWAP1 JUMP JUMPDEST PUSH1 0x0 DUP1 REVERT JUMPDEST PUSH1 0x0 DUP1 REVERT JUMPDEST PUSH1 0x0 PUSH20 0xFFFFFFFFFFFFFFFFFFFFFFFFFFFFFFFFFFFFFFFF DUP3 AND SWAP1 POP SWAP2 SWAP1 POP JUMP JUMPDEST PUSH1 0x0 PUSH2 0x1F42 DUP3 PUSH2 0x1F17 JUMP JUMPDEST SWAP1 POP SWAP2 SWAP1 POP JUMP JUMPDEST PUSH2 0x1F52 DUP2 PUSH2 0x1F37 JUMP JUMPDEST DUP2 EQ PUSH2 0x1F5D JUMPI PUSH1 0x0 DUP1 REVERT JUMPDEST POP JUMP JUMPDEST PUSH1 0x0 DUP2 CALLDATALOAD SWAP1 POP PUSH2 0x1F6F DUP2 PUSH2 0x1F49 JUMP JUMPDEST SWAP3 SWAP2 POP POP JUMP JUMPDEST PUSH1 0x0 PUSH1 0x20 DUP3 DUP5 SUB SLT ISZERO PUSH2 0x1F8B JUMPI PUSH2 0x1F8A PUSH2 0x1F0D JUMP JUMPDEST JUMPDEST PUSH1 0x0 PUSH2 0x1F99 DUP5 DUP3 DUP6 ADD PUSH2 0x1F60 JUMP JUMPDEST SWAP2 POP POP SWAP3 SWAP2 POP POP JUMP JUMPDEST PUSH1 0x0 PUSH1 0x60 DUP3 ADD SWAP1 POP PUSH2 0x1FB7 PUSH1 0x0 DUP4 ADD DUP7 PUSH2 0x1ED9 JUMP JUMPDEST PUSH2 0x1FC4 PUSH1 0x20 DUP4 ADD DUP6 PUSH2 0x1ED9 JUMP JUMPDEST PUSH2 0x1FD1 PUSH1 0x40 DUP4 ADD DUP5 PUSH2 0x1ED9 JUMP JUMPDEST SWAP5 SWAP4 POP POP POP POP JUMP JUMPDEST PUSH2 0x1FE2 DUP2 PUSH2 0x1ECF JUMP JUMPDEST DUP2 EQ PUSH2 0x1FED JUMPI PUSH1 0x0 DUP1 REVERT JUMPDEST POP JUMP JUMPDEST PUSH1 0x0 DUP2 CALLDATALOAD SWAP1 POP PUSH2 0x1FFF DUP2 PUSH2 0x1FD9 JUMP JUMPDEST SWAP3 SWAP2 POP POP JUMP JUMPDEST PUSH1 0x0 PUSH1 0xFF DUP3 AND SWAP1 POP SWAP2 SWAP1 POP JUMP JUMPDEST PUSH2 0x201B DUP2 PUSH2 0x2005 JUMP JUMPDEST DUP2 EQ PUSH2 0x2026 JUMPI PUSH1 0x0 DUP1 REVERT JUMPDEST POP JUMP JUMPDEST PUSH1 0x0 DUP2 CALLDATALOAD SWAP1 POP PUSH2 0x2038 DUP2 PUSH2 0x2012 JUMP JUMPDEST SWAP3 SWAP2 POP POP JUMP JUMPDEST PUSH1 0x0 DUP1 PUSH1 0x40 DUP4 DUP6 SUB SLT ISZERO PUSH2 0x2055 JUMPI PUSH2 0x2054 PUSH2 0x1F0D JUMP JUMPDEST JUMPDEST PUSH1 0x0 PUSH2 0x2063 DUP6 DUP3 DUP7 ADD PUSH2 0x1FF0 JUMP JUMPDEST SWAP3 POP POP PUSH1 0x20 PUSH2 0x2074 DUP6 DUP3 DUP7 ADD PUSH2 0x2029 JUMP JUMPDEST SWAP2 POP POP SWAP3 POP SWAP3 SWAP1 POP JUMP JUMPDEST PUSH2 0x2087 DUP2 PUSH2 0x1F37 JUMP JUMPDEST DUP3 MSTORE POP POP JUMP JUMPDEST PUSH1 0x0 PUSH1 0x20 DUP3 ADD SWAP1 POP PUSH2 0x20A2 PUSH1 0x0 DUP4 ADD DUP5 PUSH2 0x207E JUMP JUMPDEST SWAP3 SWAP2 POP POP JUMP JUMPDEST PUSH1 0x0 DUP1 PUSH1 0x40 DUP4 DUP6 SUB SLT ISZERO PUSH2 0x20BF JUMPI PUSH2 0x20BE PUSH2 0x1F0D JUMP JUMPDEST JUMPDEST PUSH1 0x0 PUSH2 0x20CD DUP6 DUP3 DUP7 ADD PUSH2 0x1FF0 JUMP JUMPDEST SWAP3 POP POP PUSH1 0x20 PUSH2 0x20DE DUP6 DUP3 DUP7 ADD PUSH2 0x1FF0 JUMP JUMPDEST SWAP2 POP POP SWAP3 POP SWAP3 SWAP1 POP JUMP JUMPDEST PUSH1 0x0 DUP2 MLOAD SWAP1 POP SWAP2 SWAP1 POP JUMP JUMPDEST PUSH1 0x0 DUP3 DUP3 MSTORE PUSH1 0x20 DUP3 ADD SWAP1 POP SWAP3 SWAP2 POP POP JUMP JUMPDEST PUSH1 0x0 DUP2 SWAP1 POP PUSH1 0x20 DUP3 ADD SWAP1 POP SWAP2 SWAP1 POP JUMP JUMPDEST PUSH2 0x211D DUP2 PUSH2 0x1F37 JUMP JUMPDEST DUP3 MSTORE POP POP JUMP JUMPDEST PUSH1 0x0 PUSH2 0x212F DUP4 DUP4 PUSH2 0x2114 JUMP JUMPDEST PUSH1 0x20 DUP4 ADD SWAP1 POP SWAP3 SWAP2 POP POP JUMP JUMPDEST PUSH1 0x0 PUSH1 0x20 DUP3 ADD SWAP1 POP SWAP2 SWAP1 POP JUMP JUMPDEST PUSH1 0x0 PUSH2 0x2153 DUP3 PUSH2 0x20E8 JUMP JUMPDEST PUSH2 0x215D DUP2 DUP6 PUSH2 0x20F3 JUMP JUMPDEST SWAP4 POP PUSH2 0x2168 DUP4 PUSH2 0x2104 JUMP JUMPDEST DUP1 PUSH1 0x0 JUMPDEST DUP4 DUP2 LT ISZERO PUSH2 0x2199 JUMPI DUP2 MLOAD PUSH2 0x2180 DUP9 DUP3 PUSH2 0x2123 JUMP JUMPDEST SWAP8 POP PUSH2 0x218B DUP4 PUSH2 0x213B JUMP JUMPDEST SWAP3 POP POP PUSH1 0x1 DUP2 ADD SWAP1 POP PUSH2 0x216C JUMP JUMPDEST POP DUP6 SWAP4 POP POP POP POP SWAP3 SWAP2 POP POP JUMP JUMPDEST PUSH1 0x0 PUSH1 0x20 DUP3 ADD SWAP1 POP DUP2 DUP2 SUB PUSH1 0x0 DUP4 ADD MSTORE PUSH2 0x21C0 DUP2 DUP5 PUSH2 0x2148 JUMP JUMPDEST SWAP1 POP SWAP3 SWAP2 POP POP JUMP JUMPDEST PUSH1 0x0 PUSH1 0x40 DUP3 ADD SWAP1 POP PUSH2 0x21DD PUSH1 0x0 DUP4 ADD DUP6 PUSH2 0x1ED9 JUMP JUMPDEST PUSH2 0x21EA PUSH1 0x20 DUP4 ADD DUP5 PUSH2 0x1ED9 JUMP JUMPDEST SWAP4 SWAP3 POP POP POP JUMP JUMPDEST PUSH1 0x0 DUP2 ISZERO ISZERO SWAP1 POP SWAP2 SWAP1 POP JUMP JUMPDEST PUSH2 0x2206 DUP2 PUSH2 0x21F1 JUMP JUMPDEST DUP3 MSTORE POP POP JUMP JUMPDEST PUSH1 0x0 PUSH1 0x20 DUP3 ADD SWAP1 POP PUSH2 0x2221 PUSH1 0x0 DUP4 ADD DUP5 PUSH2 0x21FD JUMP JUMPDEST SWAP3 SWAP2 POP POP JUMP JUMPDEST PUSH1 0x0 DUP1 PUSH1 0x40 DUP4 DUP6 SUB SLT ISZERO PUSH2 0x223E JUMPI PUSH2 0x223D PUSH2 0x1F0D JUMP JUMPDEST JUMPDEST PUSH1 0x0 PUSH2 0x224C DUP6 DUP3 DUP7 ADD PUSH2 0x1F60 JUMP JUMPDEST SWAP3 POP POP PUSH1 0x20 PUSH2 0x225D DUP6 DUP3 DUP7 ADD PUSH2 0x1FF0 JUMP JUMPDEST SWAP2 POP POP SWAP3 POP SWAP3 SWAP1 POP JUMP JUMPDEST PUSH1 0x0 DUP1 REVERT JUMPDEST PUSH1 0x0 DUP1 REVERT JUMPDEST PUSH1 0x0 PUSH1 0x1F NOT PUSH1 0x1F DUP4 ADD AND SWAP1 POP SWAP2 SWAP1 POP JUMP JUMPDEST PUSH32 0x4E487B7100000000000000000000000000000000000000000000000000000000 PUSH1 0x0 MSTORE PUSH1 0x41 PUSH1 0x4 MSTORE PUSH1 0x24 PUSH1 0x0 REVERT JUMPDEST PUSH2 0x22BA DUP3 PUSH2 0x2271 JUMP JUMPDEST DUP2 ADD DUP2 DUP2 LT PUSH8 0xFFFFFFFFFFFFFFFF DUP3 GT OR ISZERO PUSH2 0x22D9 JUMPI PUSH2 0x22D8 PUSH2 0x2282 JUMP JUMPDEST JUMPDEST DUP1 PUSH1 0x40 MSTORE POP POP POP JUMP JUMPDEST PUSH1 0x0 PUSH2 0x22EC PUSH2 0x1F03 JUMP JUMPDEST SWAP1 POP PUSH2 0x22F8 DUP3 DUP3 PUSH2 0x22B1 JUMP JUMPDEST SWAP2 SWAP1 POP JUMP JUMPDEST PUSH1 0x0 PUSH8 0xFFFFFFFFFFFFFFFF DUP3 GT ISZERO PUSH2 0x2318 JUMPI PUSH2 0x2317 PUSH2 0x2282 JUMP JUMPDEST JUMPDEST PUSH2 0x2321 DUP3 PUSH2 0x2271 JUMP JUMPDEST SWAP1 POP PUSH1 0x20 DUP2 ADD SWAP1 POP SWAP2 SWAP1 POP JUMP JUMPDEST DUP3 DUP2 DUP4 CALLDATACOPY PUSH1 0x0 DUP4 DUP4 ADD MSTORE POP POP POP JUMP JUMPDEST PUSH1 0x0 PUSH2 0x2350 PUSH2 0x234B DUP5 PUSH2 0x22FD JUMP JUMPDEST PUSH2 0x22E2 JUMP JUMPDEST SWAP1 POP DUP3 DUP2 MSTORE PUSH1 0x20 DUP2 ADD DUP5 DUP5 DUP5 ADD GT ISZERO PUSH2 0x236C JUMPI PUSH2 0x236B PUSH2 0x226C JUMP JUMPDEST JUMPDEST PUSH2 0x2377 DUP5 DUP3 DUP6 PUSH2 0x232E JUMP JUMPDEST POP SWAP4 SWAP3 POP POP POP JUMP JUMPDEST PUSH1 0x0 DUP3 PUSH1 0x1F DUP4 ADD SLT PUSH2 0x2394 JUMPI PUSH2 0x2393 PUSH2 0x2267 JUMP JUMPDEST JUMPDEST DUP2 CALLDATALOAD PUSH2 0x23A4 DUP5 DUP3 PUSH1 0x20 DUP7 ADD PUSH2 0x233D JUMP JUMPDEST SWAP2 POP POP SWAP3 SWAP2 POP POP JUMP JUMPDEST PUSH1 0x0 PUSH1 0x20 DUP3 DUP5 SUB SLT ISZERO PUSH2 0x23C3 JUMPI PUSH2 0x23C2 PUSH2 0x1F0D JUMP JUMPDEST JUMPDEST PUSH1 0x0 DUP3 ADD CALLDATALOAD PUSH8 0xFFFFFFFFFFFFFFFF DUP2 GT ISZERO PUSH2 0x23E1 JUMPI PUSH2 0x23E0 PUSH2 0x1F12 JUMP JUMPDEST JUMPDEST PUSH2 0x23ED DUP5 DUP3 DUP6 ADD PUSH2 0x237F JUMP JUMPDEST SWAP2 POP POP SWAP3 SWAP2 POP POP JUMP JUMPDEST PUSH1 0x0 DUP3 DUP3 MSTORE PUSH1 0x20 DUP3 ADD SWAP1 POP SWAP3 SWAP2 POP POP JUMP JUMPDEST PUSH32 0x50656C6467653A20726F6C65206E6F7420657869737421000000000000000000 PUSH1 0x0 DUP3 ADD MSTORE POP JUMP JUMPDEST PUSH1 0x0 PUSH2 0x243D PUSH1 0x17 DUP4 PUSH2 0x23F6 JUMP JUMPDEST SWAP2 POP PUSH2 0x2448 DUP3 PUSH2 0x2407 JUMP JUMPDEST PUSH1 0x20 DUP3 ADD SWAP1 POP SWAP2 SWAP1 POP JUMP JUMPDEST PUSH1 0x0 PUSH1 0x20 DUP3 ADD SWAP1 POP DUP2 DUP2 SUB PUSH1 0x0 DUP4 ADD MSTORE PUSH2 0x246C DUP2 PUSH2 0x2430 JUMP JUMPDEST SWAP1 POP SWAP2 SWAP1 POP JUMP JUMPDEST PUSH32 0x50656C6467653A20616C7265616479207374616B656421000000000000000000 PUSH1 0x0 DUP3 ADD MSTORE POP JUMP JUMPDEST PUSH1 0x0 PUSH2 0x24A9 PUSH1 0x17 DUP4 PUSH2 0x23F6 JUMP JUMPDEST SWAP2 POP PUSH2 0x24B4 DUP3 PUSH2 0x2473 JUMP JUMPDEST PUSH1 0x20 DUP3 ADD SWAP1 POP SWAP2 SWAP1 POP JUMP JUMPDEST PUSH1 0x0 PUSH1 0x20 DUP3 ADD SWAP1 POP DUP2 DUP2 SUB PUSH1 0x0 DUP4 ADD MSTORE PUSH2 0x24D8 DUP2 PUSH2 0x249C JUMP JUMPDEST SWAP1 POP SWAP2 SWAP1 POP JUMP JUMPDEST PUSH32 0x4E487B7100000000000000000000000000000000000000000000000000000000 PUSH1 0x0 MSTORE PUSH1 0x12 PUSH1 0x4 MSTORE PUSH1 0x24 PUSH1 0x0 REVERT JUMPDEST PUSH1 0x0 PUSH2 0x2519 DUP3 PUSH2 0x1ECF JUMP JUMPDEST SWAP2 POP PUSH2 0x2524 DUP4 PUSH2 0x1ECF JUMP JUMPDEST SWAP3 POP DUP3 PUSH2 0x2534 JUMPI PUSH2 0x2533 PUSH2 0x24DF JUMP JUMPDEST JUMPDEST DUP3 DUP3 MOD SWAP1 POP SWAP3 SWAP2 POP POP JUMP JUMPDEST PUSH32 0x506C656467653A206275792073746F726167652074696D652073657420657272 PUSH1 0x0 DUP3 ADD MSTORE PUSH32 0x6F72210000000000000000000000000000000000000000000000000000000000 PUSH1 0x20 DUP3 ADD MSTORE POP JUMP JUMPDEST PUSH1 0x0 PUSH2 0x259B PUSH1 0x23 DUP4 PUSH2 0x23F6 JUMP JUMPDEST SWAP2 POP PUSH2 0x25A6 DUP3 PUSH2 0x253F JUMP JUMPDEST PUSH1 0x40 DUP3 ADD SWAP1 POP SWAP2 SWAP1 POP JUMP JUMPDEST PUSH1 0x0 PUSH1 0x20 DUP3 ADD SWAP1 POP DUP2 DUP2 SUB PUSH1 0x0 DUP4 ADD MSTORE PUSH2 0x25CA DUP2 PUSH2 0x258E JUMP JUMPDEST SWAP1 POP SWAP2 SWAP1 POP JUMP JUMPDEST PUSH32 0x4E487B7100000000000000000000000000000000000000000000000000000000 PUSH1 0x0 MSTORE PUSH1 0x11 PUSH1 0x4 MSTORE PUSH1 0x24 PUSH1 0x0 REVERT JUMPDEST PUSH1 0x0 PUSH2 0x260B DUP3 PUSH2 0x1ECF JUMP JUMPDEST SWAP2 POP PUSH2 0x2616 DUP4 PUSH2 0x1ECF JUMP JUMPDEST SWAP3 POP DUP3 DUP3 MUL PUSH2 0x2624 DUP2 PUSH2 0x1ECF JUMP JUMPDEST SWAP2 POP DUP3 DUP3 DIV DUP5 EQ DUP4 ISZERO OR PUSH2 0x263B JUMPI PUSH2 0x263A PUSH2 0x25D1 JUMP JUMPDEST JUMPDEST POP SWAP3 SWAP2 POP POP JUMP JUMPDEST PUSH1 0x0 PUSH2 0x264D DUP3 PUSH2 0x1ECF JUMP JUMPDEST SWAP2 POP PUSH2 0x2658 DUP4 PUSH2 0x1ECF JUMP JUMPDEST SWAP3 POP DUP3 DUP3 ADD SWAP1 POP DUP1 DUP3 GT ISZERO PUSH2 0x2670 JUMPI PUSH2 0x266F PUSH2 0x25D1 JUMP JUMPDEST JUMPDEST SWAP3 SWAP2 POP POP JUMP JUMPDEST PUSH32 0x506C656467653A2075736572206E6F7420657869737421000000000000000000 PUSH1 0x0 DUP3 ADD MSTORE POP JUMP JUMPDEST PUSH1 0x0 PUSH2 0x26AC PUSH1 0x17 DUP4 PUSH2 0x23F6 JUMP JUMPDEST SWAP2 POP PUSH2 0x26B7 DUP3 PUSH2 0x2676 JUMP JUMPDEST PUSH1 0x20 DUP3 ADD SWAP1 POP SWAP2 SWAP1 POP JUMP JUMPDEST PUSH1 0x0 PUSH1 0x20 DUP3 ADD SWAP1 POP DUP2 DUP2 SUB PUSH1 0x0 DUP4 ADD MSTORE PUSH2 0x26DB DUP2 PUSH2 0x269F JUMP JUMPDEST SWAP1 POP SWAP2 SWAP1 POP JUMP JUMPDEST PUSH2 0x26EB DUP2 PUSH2 0x2005 JUMP JUMPDEST DUP3 MSTORE POP POP JUMP JUMPDEST PUSH1 0x0 PUSH1 0x20 DUP3 ADD SWAP1 POP PUSH2 0x2706 PUSH1 0x0 DUP4 ADD DUP5 PUSH2 0x26E2 JUMP JUMPDEST SWAP3 SWAP2 POP POP JUMP JUMPDEST PUSH32 0x506C656467653A207374616B6520616D6F756E74206973207A65726F21000000 PUSH1 0x0 DUP3 ADD MSTORE POP JUMP JUMPDEST PUSH1 0x0 PUSH2 0x2742 PUSH1 0x1D DUP4 PUSH2 0x23F6 JUMP JUMPDEST SWAP2 POP PUSH2 0x274D DUP3 PUSH2 0x270C JUMP JUMPDEST PUSH1 0x20 DUP3 ADD SWAP1 POP SWAP2 SWAP1 POP JUMP JUMPDEST PUSH1 0x0 PUSH1 0x20 DUP3 ADD SWAP1 POP DUP2 DUP2 SUB PUSH1 0x0 DUP4 ADD MSTORE PUSH2 0x2771 DUP2 PUSH2 0x2735 JUMP JUMPDEST SWAP1 POP SWAP2 SWAP1 POP JUMP JUMPDEST PUSH1 0x0 PUSH2 0x2783 DUP3 PUSH2 0x1ECF JUMP JUMPDEST SWAP2 POP PUSH2 0x278E DUP4 PUSH2 0x1ECF JUMP JUMPDEST SWAP3 POP DUP3 DUP3 SUB SWAP1 POP DUP2 DUP2 GT ISZERO PUSH2 0x27A6 JUMPI PUSH2 0x27A5 PUSH2 0x25D1 JUMP JUMPDEST JUMPDEST SWAP3 SWAP2 POP POP JUMP JUMPDEST PUSH1 0x0 PUSH8 0xFFFFFFFFFFFFFFFF DUP3 GT ISZERO PUSH2 0x27C7 JUMPI PUSH2 0x27C6 PUSH2 0x2282 JUMP JUMPDEST JUMPDEST PUSH1 0x20 DUP3 MUL SWAP1 POP PUSH1 0x20 DUP2 ADD SWAP1 POP SWAP2 SWAP1 POP JUMP JUMPDEST PUSH1 0x0 DUP1 REVERT JUMPDEST PUSH1 0x0 DUP2 MLOAD SWAP1 POP PUSH2 0x27EC DUP2 PUSH2 0x1F49 JUMP JUMPDEST SWAP3 SWAP2 POP POP JUMP JUMPDEST PUSH1 0x0 PUSH2 0x2805 PUSH2 0x2800 DUP5 PUSH2 0x27AC JUMP JUMPDEST PUSH2 0x22E2 JUMP JUMPDEST SWAP1 POP DUP1 DUP4 DUP3 MSTORE PUSH1 0x20 DUP3 ADD SWAP1 POP PUSH1 0x20 DUP5 MUL DUP4 ADD DUP6 DUP2 GT ISZERO PUSH2 0x2828 JUMPI PUSH2 0x2827 PUSH2 0x27D8 JUMP JUMPDEST JUMPDEST DUP4 JUMPDEST DUP2 DUP2 LT ISZERO PUSH2 0x2851 JUMPI DUP1 PUSH2 0x283D DUP9 DUP3 PUSH2 0x27DD JUMP JUMPDEST DUP5 MSTORE PUSH1 0x20 DUP5 ADD SWAP4 POP POP PUSH1 0x20 DUP2 ADD SWAP1 POP PUSH2 0x282A JUMP JUMPDEST POP POP POP SWAP4 SWAP3 POP POP POP JUMP JUMPDEST PUSH1 0x0 DUP3 PUSH1 0x1F DUP4 ADD SLT PUSH2 0x2870 JUMPI PUSH2 0x286F PUSH2 0x2267 JUMP JUMPDEST JUMPDEST DUP2 MLOAD PUSH2 0x2880 DUP5 DUP3 PUSH1 0x20 DUP7 ADD PUSH2 0x27F2 JUMP JUMPDEST SWAP2 POP POP SWAP3 SWAP2 POP POP JUMP JUMPDEST PUSH1 0x0 PUSH8 0xFFFFFFFFFFFFFFFF DUP3 GT ISZERO PUSH2 0x28A4 JUMPI PUSH2 0x28A3 PUSH2 0x2282 JUMP JUMPDEST JUMPDEST PUSH1 0x20 DUP3 MUL SWAP1 POP PUSH1 0x20 DUP2 ADD SWAP1 POP SWAP2 SWAP1 POP JUMP JUMPDEST PUSH1 0x0 PUSH8 0xFFFFFFFFFFFFFFFF DUP3 GT ISZERO PUSH2 0x28D0 JUMPI PUSH2 0x28CF PUSH2 0x2282 JUMP JUMPDEST JUMPDEST PUSH2 0x28D9 DUP3 PUSH2 0x2271 JUMP JUMPDEST SWAP1 POP PUSH1 0x20 DUP2 ADD SWAP1 POP SWAP2 SWAP1 POP JUMP JUMPDEST PUSH1 0x0 JUMPDEST DUP4 DUP2 LT ISZERO PUSH2 0x2904 JUMPI DUP1 DUP3 ADD MLOAD DUP2 DUP5 ADD MSTORE PUSH1 0x20 DUP2 ADD SWAP1 POP PUSH2 0x28E9 JUMP JUMPDEST PUSH1 0x0 DUP5 DUP5 ADD MSTORE POP POP POP POP JUMP JUMPDEST PUSH1 0x0 PUSH2 0x2923 PUSH2 0x291E DUP5 PUSH2 0x28B5 JUMP JUMPDEST PUSH2 0x22E2 JUMP JUMPDEST SWAP1 POP DUP3 DUP2 MSTORE PUSH1 0x20 DUP2 ADD DUP5 DUP5 DUP5 ADD GT ISZERO PUSH2 0x293F JUMPI PUSH2 0x293E PUSH2 0x226C JUMP JUMPDEST JUMPDEST PUSH2 0x294A DUP5 DUP3 DUP6 PUSH2 0x28E6 JUMP JUMPDEST POP SWAP4 SWAP3 POP POP POP JUMP JUMPDEST PUSH1 0x0 DUP3 PUSH1 0x1F DUP4 ADD SLT PUSH2 0x2967 JUMPI PUSH2 0x2966 PUSH2 0x2267 JUMP JUMPDEST JUMPDEST DUP2 MLOAD PUSH2 0x2977 DUP5 DUP3 PUSH1 0x20 DUP7 ADD PUSH2 0x2910 JUMP JUMPDEST SWAP2 POP POP SWAP3 SWAP2 POP POP JUMP JUMPDEST PUSH1 0x0 PUSH2 0x2993 PUSH2 0x298E DUP5 PUSH2 0x2889 JUMP JUMPDEST PUSH2 0x22E2 JUMP JUMPDEST SWAP1 POP DUP1 DUP4 DUP3 MSTORE PUSH1 0x20 DUP3 ADD SWAP1 POP PUSH1 0x20 DUP5 MUL DUP4 ADD DUP6 DUP2 GT ISZERO PUSH2 0x29B6 JUMPI PUSH2 0x29B5 PUSH2 0x27D8 JUMP JUMPDEST JUMPDEST DUP4 JUMPDEST DUP2 DUP2 LT ISZERO PUSH2 0x29FD JUMPI DUP1 MLOAD PUSH8 0xFFFFFFFFFFFFFFFF DUP2 GT ISZERO PUSH2 0x29DB JUMPI PUSH2 0x29DA PUSH2 0x2267 JUMP JUMPDEST JUMPDEST DUP1 DUP7 ADD PUSH2 0x29E8 DUP10 DUP3 PUSH2 0x2952 JUMP JUMPDEST DUP6 MSTORE PUSH1 0x20 DUP6 ADD SWAP5 POP POP POP PUSH1 0x20 DUP2 ADD SWAP1 POP PUSH2 0x29B8 JUMP JUMPDEST POP POP POP SWAP4 SWAP3 POP POP POP JUMP JUMPDEST PUSH1 0x0 DUP3 PUSH1 0x1F DUP4 ADD SLT PUSH2 0x2A1C JUMPI PUSH2 0x2A1B PUSH2 0x2267 JUMP JUMPDEST JUMPDEST DUP2 MLOAD PUSH2 0x2A2C DUP5 DUP3 PUSH1 0x20 DUP7 ADD PUSH2 0x2980 JUMP JUMPDEST SWAP2 POP POP SWAP3 SWAP2 POP POP JUMP JUMPDEST PUSH1 0x0 DUP2 MLOAD SWAP1 POP PUSH2 0x2A44 DUP2 PUSH2 0x1FD9 JUMP JUMPDEST SWAP3 SWAP2 POP POP JUMP JUMPDEST PUSH1 0x0 PUSH2 0x2A55 DUP3 PUSH2 0x1F17 JUMP JUMPDEST SWAP1 POP SWAP2 SWAP1 POP JUMP JUMPDEST PUSH2 0x2A65 DUP2 PUSH2 0x2A4A JUMP JUMPDEST DUP2 EQ PUSH2 0x2A70 JUMPI PUSH1 0x0 DUP1 REVERT JUMPDEST POP JUMP JUMPDEST PUSH1 0x0 DUP2 MLOAD SWAP1 POP PUSH2 0x2A82 DUP2 PUSH2 0x2A5C JUMP JUMPDEST SWAP3 SWAP2 POP POP JUMP JUMPDEST PUSH1 0x0 DUP1 PUSH1 0x0 DUP1 PUSH1 0x0 DUP1 PUSH1 0x0 DUP1 PUSH1 0x0 PUSH2 0x120 DUP11 DUP13 SUB SLT ISZERO PUSH2 0x2AAB JUMPI PUSH2 0x2AAA PUSH2 0x1F0D JUMP JUMPDEST JUMPDEST PUSH1 0x0 DUP11 ADD MLOAD PUSH8 0xFFFFFFFFFFFFFFFF DUP2 GT ISZERO PUSH2 0x2AC9 JUMPI PUSH2 0x2AC8 PUSH2 0x1F12 JUMP JUMPDEST JUMPDEST PUSH2 0x2AD5 DUP13 DUP3 DUP14 ADD PUSH2 0x285B JUMP JUMPDEST SWAP10 POP POP PUSH1 0x20 DUP11 ADD MLOAD PUSH8 0xFFFFFFFFFFFFFFFF DUP2 GT ISZERO PUSH2 0x2AF6 JUMPI PUSH2 0x2AF5 PUSH2 0x1F12 JUMP JUMPDEST JUMPDEST PUSH2 0x2B02 DUP13 DUP3 DUP14 ADD PUSH2 0x2A07 JUMP JUMPDEST SWAP9 POP POP PUSH1 0x40 DUP11 ADD MLOAD PUSH8 0xFFFFFFFFFFFFFFFF DUP2 GT ISZERO PUSH2 0x2B23 JUMPI PUSH2 0x2B22 PUSH2 0x1F12 JUMP JUMPDEST JUMPDEST PUSH2 0x2B2F DUP13 DUP3 DUP14 ADD PUSH2 0x2952 JUMP JUMPDEST SWAP8 POP POP PUSH1 0x60 DUP11 ADD MLOAD PUSH8 0xFFFFFFFFFFFFFFFF DUP2 GT ISZERO PUSH2 0x2B50 JUMPI PUSH2 0x2B4F PUSH2 0x1F12 JUMP JUMPDEST JUMPDEST PUSH2 0x2B5C DUP13 DUP3 DUP14 ADD PUSH2 0x2952 JUMP JUMPDEST SWAP7 POP POP PUSH1 0x80 PUSH2 0x2B6D DUP13 DUP3 DUP14 ADD PUSH2 0x2A35 JUMP JUMPDEST SWAP6 POP POP PUSH1 0xA0 PUSH2 0x2B7E DUP13 DUP3 DUP14 ADD PUSH2 0x2A35 JUMP JUMPDEST SWAP5 POP POP PUSH1 0xC0 PUSH2 0x2B8F DUP13 DUP3 DUP14 ADD PUSH2 0x2A35 JUMP JUMPDEST SWAP4 POP POP PUSH1 0xE0 PUSH2 0x2BA0 DUP13 DUP3 DUP14 ADD PUSH2 0x2A35 JUMP JUMPDEST SWAP3 POP POP PUSH2 0x100 PUSH2 0x2BB2 DUP13 DUP3 DUP14 ADD PUSH2 0x2A73 JUMP JUMPDEST SWAP2 POP POP SWAP3 SWAP6 SWAP9 POP SWAP3 SWAP6 SWAP9 POP SWAP3 SWAP6 SWAP9 JUMP JUMPDEST PUSH1 0x0 DUP2 MLOAD SWAP1 POP SWAP2 SWAP1 POP JUMP JUMPDEST PUSH1 0x0 DUP3 DUP3 MSTORE PUSH1 0x20 DUP3 ADD SWAP1 POP SWAP3 SWAP2 POP POP JUMP JUMPDEST PUSH1 0x0 DUP2 SWAP1 POP PUSH1 0x20 DUP3 ADD SWAP1 POP SWAP2 SWAP1 POP JUMP JUMPDEST PUSH1 0x0 DUP2 MLOAD SWAP1 POP SWAP2 SWAP1 POP JUMP JUMPDEST PUSH1 0x0 DUP3 DUP3 MSTORE PUSH1 0x20 DUP3 ADD SWAP1 POP SWAP3 SWAP2 POP POP JUMP JUMPDEST PUSH1 0x0 PUSH2 0x2C15 DUP3 PUSH2 0x2BEE JUMP JUMPDEST PUSH2 0x2C1F DUP2 DUP6 PUSH2 0x2BF9 JUMP JUMPDEST SWAP4 POP PUSH2 0x2C2F DUP2 DUP6 PUSH1 0x20 DUP7 ADD PUSH2 0x28E6 JUMP JUMPDEST PUSH2 0x2C38 DUP2 PUSH2 0x2271 JUMP JUMPDEST DUP5 ADD SWAP2 POP POP SWAP3 SWAP2 POP POP JUMP JUMPDEST PUSH1 0x0 PUSH2 0x2C4F DUP4 DUP4 PUSH2 0x2C0A JUMP JUMPDEST SWAP1 POP SWAP3 SWAP2 POP POP JUMP JUMPDEST PUSH1 0x0 PUSH1 0x20 DUP3 ADD SWAP1 POP SWAP2 SWAP1 POP JUMP JUMPDEST PUSH1 0x0 PUSH2 0x2C6F DUP3 PUSH2 0x2BC2 JUMP JUMPDEST PUSH2 0x2C79 DUP2 DUP6 PUSH2 0x2BCD JUMP JUMPDEST SWAP4 POP DUP4 PUSH1 0x20 DUP3 MUL DUP6 ADD PUSH2 0x2C8B DUP6 PUSH2 0x2BDE JUMP JUMPDEST DUP1 PUSH1 0x0 JUMPDEST DUP6 DUP2 LT ISZERO PUSH2 0x2CC7 JUMPI DUP5 DUP5 SUB DUP10 MSTORE DUP2 MLOAD PUSH2 0x2CA8 DUP6 DUP3 PUSH2 0x2C43 JUMP JUMPDEST SWAP5 POP PUSH2 0x2CB3 DUP4 PUSH2 0x2C57 JUMP JUMPDEST SWAP3 POP PUSH1 0x20 DUP11 ADD SWAP10 POP POP PUSH1 0x1 DUP2 ADD SWAP1 POP PUSH2 0x2C8F JUMP JUMPDEST POP DUP3 SWAP8 POP DUP8 SWAP6 POP POP POP POP POP POP SWAP3 SWAP2 POP POP JUMP JUMPDEST PUSH1 0x0 PUSH2 0x2CE4 DUP3 PUSH2 0x2BEE JUMP JUMPDEST PUSH2 0x2CEE DUP2 DUP6 PUSH2 0x23F6 JUMP JUMPDEST SWAP4 POP PUSH2 0x2CFE DUP2 DUP6 PUSH1 0x20 DUP7 ADD PUSH2 0x28E6 JUMP JUMPDEST PUSH2 0x2D07 DUP2 PUSH2 0x2271 JUMP JUMPDEST DUP5 ADD SWAP2 POP POP SWAP3 SWAP2 POP POP JUMP JUMPDEST PUSH1 0x0 PUSH2 0x100 DUP3 ADD SWAP1 POP DUP2 DUP2 SUB PUSH1 0x0 DUP4 ADD MSTORE PUSH2 0x2D2D DUP2 DUP12 PUSH2 0x2148 JUMP JUMPDEST SWAP1 POP DUP2 DUP2 SUB PUSH1 0x20 DUP4 ADD MSTORE PUSH2 0x2D41 DUP2 DUP11 PUSH2 0x2C64 JUMP JUMPDEST SWAP1 POP DUP2 DUP2 SUB PUSH1 0x40 DUP4 ADD MSTORE PUSH2 0x2D55 DUP2 DUP10 PUSH2 0x2CD9 JUMP JUMPDEST SWAP1 POP DUP2 DUP2 SUB PUSH1 0x60 DUP4 ADD MSTORE PUSH2 0x2D69 DUP2 DUP9 PUSH2 0x2CD9 JUMP JUMPDEST SWAP1 POP PUSH2 0x2D78 PUSH1 0x80 DUP4 ADD DUP8 PUSH2 0x1ED9 JUMP JUMPDEST PUSH2 0x2D85 PUSH1 0xA0 DUP4 ADD DUP7 PUSH2 0x1ED9 JUMP JUMPDEST PUSH2 0x2D92 PUSH1 0xC0 DUP4 ADD DUP6 PUSH2 0x1ED9 JUMP JUMPDEST PUSH2 0x2D9F PUSH1 0xE0 DUP4 ADD DUP5 PUSH2 0x207E JUMP JUMPDEST SWAP10 SWAP9 POP POP POP POP POP POP POP POP POP JUMP JUMPDEST PUSH2 0x2DB5 DUP2 PUSH2 0x21F1 JUMP JUMPDEST DUP2 EQ PUSH2 0x2DC0 JUMPI PUSH1 0x0 DUP1 REVERT JUMPDEST POP JUMP JUMPDEST PUSH1 0x0 DUP2 MLOAD SWAP1 POP PUSH2 0x2DD2 DUP2 PUSH2 0x2DAC JUMP JUMPDEST SWAP3 SWAP2 POP POP JUMP JUMPDEST PUSH1 0x0 PUSH1 0x20 DUP3 DUP5 SUB SLT ISZERO PUSH2 0x2DEE JUMPI PUSH2 0x2DED PUSH2 0x1F0D JUMP JUMPDEST JUMPDEST PUSH1 0x0 PUSH2 0x2DFC DUP5 DUP3 DUP6 ADD PUSH2 0x2DC3 JUMP JUMPDEST SWAP2 POP POP SWAP3 SWAP2 POP POP JUMP JUMPDEST PUSH32 0x4F776E61626C653A206E6577206F776E657220697320746865207A65726F2061 PUSH1 0x0 DUP3 ADD MSTORE PUSH32 0x6464726573730000000000000000000000000000000000000000000000000000 PUSH1 0x20 DUP3 ADD MSTORE POP JUMP JUMPDEST PUSH1 0x0 PUSH2 0x2E61 PUSH1 0x26 DUP4 PUSH2 0x23F6 JUMP JUMPDEST SWAP2 POP PUSH2 0x2E6C DUP3 PUSH2 0x2E05 JUMP JUMPDEST PUSH1 0x40 DUP3 ADD SWAP1 POP SWAP2 SWAP1 POP JUMP JUMPDEST PUSH1 0x0 PUSH1 0x20 DUP3 ADD SWAP1 POP DUP2 DUP2 SUB PUSH1 0x0 DUP4 ADD MSTORE PUSH2 0x2E90 DUP2 PUSH2 0x2E54 JUMP JUMPDEST SWAP1 POP SWAP2 SWAP1 POP JUMP JUMPDEST PUSH32 0x5265656E7472616E637947756172643A207265656E7472616E742063616C6C00 PUSH1 0x0 DUP3 ADD MSTORE POP JUMP JUMPDEST PUSH1 0x0 PUSH2 0x2ECD PUSH1 0x1F DUP4 PUSH2 0x23F6 JUMP JUMPDEST SWAP2 POP PUSH2 0x2ED8 DUP3 PUSH2 0x2E97 JUMP JUMPDEST PUSH1 0x20 DUP3 ADD SWAP1 POP SWAP2 SWAP1 POP JUMP JUMPDEST PUSH1 0x0 PUSH1 0x20 DUP3 ADD SWAP1 POP DUP2 DUP2 SUB PUSH1 0x0 DUP4 ADD MSTORE PUSH2 0x2EFC DUP2 PUSH2 0x2EC0 JUMP JUMPDEST SWAP1 POP SWAP2 SWAP1 POP JUMP JUMPDEST PUSH32 0x506C656467653A207374616B652073746F7265616765206973207A65726F2100 PUSH1 0x0 DUP3 ADD MSTORE POP JUMP JUMPDEST PUSH1 0x0 PUSH2 0x2F39 PUSH1 0x1F DUP4 PUSH2 0x23F6 JUMP JUMPDEST SWAP2 POP PUSH2 0x2F44 DUP3 PUSH2 0x2F03 JUMP JUMPDEST PUSH1 0x20 DUP3 ADD SWAP1 POP SWAP2 SWAP1 POP JUMP JUMPDEST PUSH1 0x0 PUSH1 0x20 DUP3 ADD SWAP1 POP DUP2 DUP2 SUB PUSH1 0x0 DUP4 ADD MSTORE PUSH2 0x2F68 DUP2 PUSH2 0x2F2C JUMP JUMPDEST SWAP1 POP SWAP2 SWAP1 POP JUMP JUMPDEST PUSH1 0x0 PUSH1 0x20 DUP3 DUP5 SUB SLT ISZERO PUSH2 0x2F85 JUMPI PUSH2 0x2F84 PUSH2 0x1F0D JUMP JUMPDEST JUMPDEST PUSH1 0x0 PUSH2 0x2F93 DUP5 DUP3 DUP6 ADD PUSH2 0x2A35 JUMP JUMPDEST SWAP2 POP POP SWAP3 SWAP2 POP POP JUMP JUMPDEST PUSH32 0x506C656467653A2062616C616E6365206E6F7420656E6F756768210000000000 PUSH1 0x0 DUP3 ADD MSTORE POP JUMP JUMPDEST PUSH1 0x0 PUSH2 0x2FD2 PUSH1 0x1B DUP4 PUSH2 0x23F6 JUMP JUMPDEST SWAP2 POP PUSH2 0x2FDD DUP3 PUSH2 0x2F9C JUMP JUMPDEST PUSH1 0x20 DUP3 ADD SWAP1 POP SWAP2 SWAP1 POP JUMP JUMPDEST PUSH1 0x0 PUSH1 0x20 DUP3 ADD SWAP1 POP DUP2 DUP2 SUB PUSH1 0x0 DUP4 ADD MSTORE PUSH2 0x3001 DUP2 PUSH2 0x2FC5 JUMP JUMPDEST SWAP1 POP SWAP2 SWAP1 POP JUMP JUMPDEST PUSH1 0x0 PUSH1 0x60 DUP3 ADD SWAP1 POP PUSH2 0x301D PUSH1 0x0 DUP4 ADD DUP7 PUSH2 0x207E JUMP JUMPDEST PUSH2 0x302A PUSH1 0x20 DUP4 ADD DUP6 PUSH2 0x207E JUMP JUMPDEST PUSH2 0x3037 PUSH1 0x40 DUP4 ADD DUP5 PUSH2 0x1ED9 JUMP JUMPDEST SWAP5 SWAP4 POP POP POP POP JUMP JUMPDEST PUSH32 0x4F776E61626C653A2063616C6C6572206973206E6F7420746865206F776E6572 PUSH1 0x0 DUP3 ADD MSTORE POP JUMP JUMPDEST PUSH1 0x0 PUSH2 0x3075 PUSH1 0x20 DUP4 PUSH2 0x23F6 JUMP JUMPDEST SWAP2 POP PUSH2 0x3080 DUP3 PUSH2 0x303F JUMP JUMPDEST PUSH1 0x20 DUP3 ADD SWAP1 POP SWAP2 SWAP1 POP JUMP JUMPDEST PUSH1 0x0 PUSH1 0x20 DUP3 ADD SWAP1 POP DUP2 DUP2 SUB PUSH1 0x0 DUP4 ADD MSTORE PUSH2 0x30A4 DUP2 PUSH2 0x3068 JUMP JUMPDEST SWAP1 POP SWAP2 SWAP1 POP JUMP JUMPDEST PUSH32 0x4E487B7100000000000000000000000000000000000000000000000000000000 PUSH1 0x0 MSTORE PUSH1 0x32 PUSH1 0x4 MSTORE PUSH1 0x24 PUSH1 0x0 REVERT JUMPDEST PUSH32 0x456C656D656E74206E6F7420696E207365742E00000000000000000000000000 PUSH1 0x0 DUP3 ADD MSTORE POP JUMP JUMPDEST PUSH1 0x0 PUSH2 0x3110 PUSH1 0x13 DUP4 PUSH2 0x23F6 JUMP JUMPDEST SWAP2 POP PUSH2 0x311B DUP3 PUSH2 0x30DA JUMP JUMPDEST PUSH1 0x20 DUP3 ADD SWAP1 POP SWAP2 SWAP1 POP JUMP JUMPDEST PUSH1 0x0 PUSH1 0x20 DUP3 ADD SWAP1 POP DUP2 DUP2 SUB PUSH1 0x0 DUP4 ADD MSTORE PUSH2 0x313F DUP2 PUSH2 0x3103 JUMP JUMPDEST SWAP1 POP SWAP2 SWAP1 POP JUMP JUMPDEST PUSH32 0x4E487B7100000000000000000000000000000000000000000000000000000000 PUSH1 0x0 MSTORE PUSH1 0x31 PUSH1 0x4 MSTORE PUSH1 0x24 PUSH1 0x0 REVERT JUMPDEST PUSH1 0x0 PUSH2 0x3180 DUP3 PUSH2 0x1ECF JUMP JUMPDEST SWAP2 POP PUSH32 0xFFFFFFFFFFFFFFFFFFFFFFFFFFFFFFFFFFFFFFFFFFFFFFFFFFFFFFFFFFFFFFFF DUP3 SUB PUSH2 0x31B2 JUMPI PUSH2 0x31B1 PUSH2 0x25D1 JUMP JUMPDEST JUMPDEST PUSH1 0x1 DUP3 ADD SWAP1 POP SWAP2 SWAP1 POP JUMP INVALID LOG2 PUSH5 0x6970667358 0x22 SLT KECCAK256 OR SUB DUP12 0xD7 CALLER 0xE8 0xC0 0xE5 SWAP9 0xC8 0xC4 PUSH26 0x872FDD3770F1B5189C106C93F4EE86ACC439278D64736F6C6343 STOP ADDMOD SLT STOP CALLER "
		},
		"gasEstimates": {
			"creation": {
				"codeDepositCost": "2557400",
				"executionCost": "infinite",
				"totalCost": "infinite"
			},
			"external": {
				"allMiners()": "infinite",
				"allValidators()": "infinite",
				"buyStorage(uint256,uint256)": "infinite",
				"checkMiner(address)": "9512",
				"checkValidator(address)": "9512",
				"dayStamp()": "396",
				"getMiners(uint256,uint256)": "infinite",
				"getUerRole(address)": "2951",
				"minerLength()": "2539",
				"minerStakePrice()": "2476",
				"minerStorage(address)": "infinite",
				"owner()": "2633",
				"pool()": "2560",
				"pulishAndReward(uint256,uint256)": "infinite",
				"punishUser(address,uint256)": "infinite",
				"removeUser(address)": "infinite",
				"renounceOwnership()": "30465",
				"setSotre(address)": "27076",
				"singleStoragePricce()": "2474",
				"stake(uint256,uint8)": "infinite",
				"store()": "2560",
				"token()": "2624",
				"transferOwnership(address)": "30810",
				"uploadMetaDataBytes(bytes)": "infinite",
				"userOwnStorage(address)": "infinite",
				"userStakeAmount(address)": "2860",
				"validatorLength()": "2584",
				"validatorStakePrice()": "2518"
			},
			"internal": {
				"_getRandomIndex(uint256,uint256)": "infinite",
				"minerStake(uint256,address)": "infinite",
				"validatorStake(address)": "infinite"
			}
		},
		"methodIdentifiers": {
			"allMiners()": "cafc8658",
			"allValidators()": "f30589c3",
			"buyStorage(uint256,uint256)": "3b962c53",
			"checkMiner(address)": "dde20c54",
			"checkValidator(address)": "797327ae",
			"dayStamp()": "b83f783f",
			"getMiners(uint256,uint256)": "5bf1196f",
			"getUerRole(address)": "1ff512d1",
			"minerLength()": "6d746cfb",
			"minerStakePrice()": "00c9e74d",
			"minerStorage(address)": "6c8939cd",
			"owner()": "8da5cb5b",
			"pool()": "16f0115b",
			"pulishAndReward(uint256,uint256)": "bf68faed",
			"punishUser(address,uint256)": "b37e67e4",
			"removeUser(address)": "98575188",
			"renounceOwnership()": "715018a6",
			"setSotre(address)": "2bbf9b8c",
			"singleStoragePricce()": "bf7e8649",
			"stake(uint256,uint8)": "10087fb1",
			"store()": "975057e7",
			"token()": "fc0c546a",
			"transferOwnership(address)": "f2fde38b",
			"uploadMetaDataBytes(bytes)": "e3edb275",
			"userOwnStorage(address)": "05ccac1f",
			"userStakeAmount(address)": "3e84681a",
			"validatorLength()": "aed1d403",
			"validatorStakePrice()": "b96bb66f"
		}
	},
	"abi": [
		{
			"inputs": [
				{
					"internalType": "address",
					"name": "pool_",
					"type": "address"
				},
				{
					"internalType": "address",
					"name": "token_",
					"type": "address"
				}
			],
			"stateMutability": "nonpayable",
			"type": "constructor"
		},
		{
			"anonymous": false,
			"inputs": [
				{
					"indexed": true,
					"internalType": "address",
					"name": "user",
					"type": "address"
				},
				{
					"indexed": false,
					"internalType": "uint256",
					"name": "store",
					"type": "uint256"
				},
				{
					"indexed": false,
					"internalType": "uint256",
					"name": "deadline",
					"type": "uint256"
				}
			],
			"name": "BuyStorageEvent",
			"type": "event"
		},
		{
			"anonymous": false,
			"inputs": [
				{
					"indexed": true,
					"internalType": "address",
					"name": "miner",
					"type": "address"
				},
				{
					"indexed": false,
					"internalType": "uint256",
					"name": "amount",
					"type": "uint256"
				},
				{
					"indexed": false,
					"internalType": "uint256",
					"name": "store",
					"type": "uint256"
				}
			],
			"name": "MinerStakeEvent",
			"type": "event"
		},
		{
			"anonymous": false,
			"inputs": [
				{
					"indexed": true,
					"internalType": "address",
					"name": "previousOwner",
					"type": "address"
				},
				{
					"indexed": true,
					"internalType": "address",
					"name": "newOwner",
					"type": "address"
				}
			],
			"name": "OwnershipTransferred",
			"type": "event"
		},
		{
			"anonymous": false,
			"inputs": [
				{
					"indexed": true,
					"internalType": "address",
					"name": "user",
					"type": "address"
				},
				{
					"indexed": false,
					"internalType": "uint256",
					"name": "amount",
					"type": "uint256"
				}
			],
			"name": "PunishEvent",
			"type": "event"
		},
		{
			"anonymous": false,
			"inputs": [
				{
					"indexed": true,
					"internalType": "address",
					"name": "user",
					"type": "address"
				},
				{
					"indexed": false,
					"internalType": "uint8",
					"name": "role",
					"type": "uint8"
				}
			],
			"name": "RemoveEvent",
			"type": "event"
		},
		{
			"anonymous": false,
			"inputs": [
				{
					"indexed": true,
					"internalType": "address",
					"name": "user",
					"type": "address"
				},
				{
					"indexed": false,
					"internalType": "uint256",
					"name": "size",
					"type": "uint256"
				}
			],
			"name": "UploadMetaInfoEvent",
			"type": "event"
		},
		{
			"anonymous": false,
			"inputs": [
				{
					"indexed": true,
					"internalType": "address",
					"name": "miner",
					"type": "address"
				},
				{
					"indexed": false,
					"internalType": "string[]",
					"name": "info",
					"type": "string[]"
				}
			],
			"name": "UploadMinerInfoEvent",
			"type": "event"
		},
		{
			"anonymous": false,
			"inputs": [
				{
					"indexed": true,
					"internalType": "address",
					"name": "user",
					"type": "address"
				},
				{
					"indexed": false,
					"internalType": "uint256",
					"name": "store",
					"type": "uint256"
				}
			],
			"name": "UserBuyStorageEvent",
			"type": "event"
		},
		{
			"anonymous": false,
			"inputs": [
				{
					"indexed": true,
					"internalType": "address",
					"name": "validator",
					"type": "address"
				},
				{
					"indexed": false,
					"internalType": "uint256",
					"name": "amount",
					"type": "uint256"
				}
			],
			"name": "ValidatorStakeEvent",
			"type": "event"
		},
		{
			"inputs": [],
			"name": "allMiners",
			"outputs": [
				{
					"internalType": "address[]",
					"name": "",
					"type": "address[]"
				}
			],
			"stateMutability": "view",
			"type": "function"
		},
		{
			"inputs": [],
			"name": "allValidators",
			"outputs": [
				{
					"internalType": "address[]",
					"name": "",
					"type": "address[]"
				}
			],
			"stateMutability": "view",
			"type": "function"
		},
		{
			"inputs": [
				{
					"internalType": "uint256",
					"name": "store_",
					"type": "uint256"
				},
				{
					"internalType": "uint256",
					"name": "days_",
					"type": "uint256"
				}
			],
			"name": "buyStorage",
			"outputs": [],
			"stateMutability": "nonpayable",
			"type": "function"
		},
		{
			"inputs": [
				{
					"internalType": "address",
					"name": "user_",
					"type": "address"
				}
			],
			"name": "checkMiner",
			"outputs": [
				{
					"internalType": "bool",
					"name": "",
					"type": "bool"
				}
			],
			"stateMutability": "view",
			"type": "function"
		},
		{
			"inputs": [
				{
					"internalType": "address",
					"name": "user_",
					"type": "address"
				}
			],
			"name": "checkValidator",
			"outputs": [
				{
					"internalType": "bool",
					"name": "",
					"type": "bool"
				}
			],
			"stateMutability": "view",
			"type": "function"
		},
		{
			"inputs": [],
			"name": "dayStamp",
			"outputs": [
				{
					"internalType": "uint256",
					"name": "",
					"type": "uint256"
				}
			],
			"stateMutability": "view",
			"type": "function"
		},
		{
			"inputs": [
				{
					"internalType": "uint256",
					"name": "store_",
					"type": "uint256"
				},
				{
					"internalType": "uint256",
					"name": "numbers_",
					"type": "uint256"
				}
			],
			"name": "getMiners",
			"outputs": [
				{
					"internalType": "address[]",
					"name": "",
					"type": "address[]"
				}
			],
			"stateMutability": "view",
			"type": "function"
		},
		{
			"inputs": [
				{
					"internalType": "address",
					"name": "user_",
					"type": "address"
				}
			],
			"name": "getUerRole",
			"outputs": [
				{
					"internalType": "uint256",
					"name": "",
					"type": "uint256"
				}
			],
			"stateMutability": "view",
			"type": "function"
		},
		{
			"inputs": [],
			"name": "minerLength",
			"outputs": [
				{
					"internalType": "uint256",
					"name": "",
					"type": "uint256"
				}
			],
			"stateMutability": "view",
			"type": "function"
		},
		{
			"inputs": [],
			"name": "minerStakePrice",
			"outputs": [
				{
					"internalType": "uint256",
					"name": "",
					"type": "uint256"
				}
			],
			"stateMutability": "view",
			"type": "function"
		},
		{
			"inputs": [
				{
					"internalType": "address",
					"name": "",
					"type": "address"
				}
			],
			"name": "minerStorage",
			"outputs": [
				{
					"internalType": "uint256",
					"name": "total",
					"type": "uint256"
				},
				{
					"internalType": "uint256",
					"name": "unUse",
					"type": "uint256"
				}
			],
			"stateMutability": "view",
			"type": "function"
		},
		{
			"inputs": [],
			"name": "owner",
			"outputs": [
				{
					"internalType": "address",
					"name": "",
					"type": "address"
				}
			],
			"stateMutability": "view",
			"type": "function"
		},
		{
			"inputs": [],
			"name": "pool",
			"outputs": [
				{
					"internalType": "address",
					"name": "",
					"type": "address"
				}
			],
			"stateMutability": "view",
			"type": "function"
		},
		{
			"inputs": [
				{
					"internalType": "uint256",
					"name": "amount_",
					"type": "uint256"
				},
				{
					"internalType": "uint256",
					"name": "state_",
					"type": "uint256"
				}
			],
			"name": "pulishAndReward",
			"outputs": [],
			"stateMutability": "nonpayable",
			"type": "function"
		},
		{
			"inputs": [
				{
					"internalType": "address",
					"name": "user_",
					"type": "address"
				},
				{
					"internalType": "uint256",
					"name": "amount_",
					"type": "uint256"
				}
			],
			"name": "punishUser",
			"outputs": [
				{
					"internalType": "bool",
					"name": "",
					"type": "bool"
				}
			],
			"stateMutability": "nonpayable",
			"type": "function"
		},
		{
			"inputs": [
				{
					"internalType": "address",
					"name": "user_",
					"type": "address"
				}
			],
			"name": "removeUser",
			"outputs": [
				{
					"internalType": "bool",
					"name": "",
					"type": "bool"
				}
			],
			"stateMutability": "nonpayable",
			"type": "function"
		},
		{
			"inputs": [],
			"name": "renounceOwnership",
			"outputs": [],
			"stateMutability": "nonpayable",
			"type": "function"
		},
		{
			"inputs": [
				{
					"internalType": "address",
					"name": "store_",
					"type": "address"
				}
			],
			"name": "setSotre",
			"outputs": [],
			"stateMutability": "nonpayable",
			"type": "function"
		},
		{
			"inputs": [],
			"name": "singleStoragePricce",
			"outputs": [
				{
					"internalType": "uint256",
					"name": "",
					"type": "uint256"
				}
			],
			"stateMutability": "view",
			"type": "function"
		},
		{
			"inputs": [
				{
					"internalType": "uint256",
					"name": "store_",
					"type": "uint256"
				},
				{
					"internalType": "uint8",
					"name": "role_",
					"type": "uint8"
				}
			],
			"name": "stake",
			"outputs": [],
			"stateMutability": "nonpayable",
			"type": "function"
		},
		{
			"inputs": [],
			"name": "store",
			"outputs": [
				{
					"internalType": "address",
					"name": "",
					"type": "address"
				}
			],
			"stateMutability": "view",
			"type": "function"
		},
		{
			"inputs": [],
			"name": "token",
			"outputs": [
				{
					"internalType": "address",
					"name": "",
					"type": "address"
				}
			],
			"stateMutability": "view",
			"type": "function"
		},
		{
			"inputs": [
				{
					"internalType": "address",
					"name": "newOwner",
					"type": "address"
				}
			],
			"name": "transferOwnership",
			"outputs": [],
			"stateMutability": "nonpayable",
			"type": "function"
		},
		{
			"inputs": [
				{
					"internalType": "bytes",
					"name": "extra",
					"type": "bytes"
				}
			],
			"name": "uploadMetaDataBytes",
			"outputs": [],
			"stateMutability": "nonpayable",
			"type": "function"
		},
		{
			"inputs": [
				{
					"internalType": "address",
					"name": "",
					"type": "address"
				}
			],
			"name": "userOwnStorage",
			"outputs": [
				{
					"internalType": "uint256",
					"name": "total",
					"type": "uint256"
				},
				{
					"internalType": "uint256",
					"name": "unUse",
					"type": "uint256"
				},
				{
					"internalType": "uint256",
					"name": "deadline",
					"type": "uint256"
				}
			],
			"stateMutability": "view",
			"type": "function"
		},
		{
			"inputs": [
				{
					"internalType": "address",
					"name": "",
					"type": "address"
				}
			],
			"name": "userStakeAmount",
			"outputs": [
				{
					"internalType": "uint256",
					"name": "",
					"type": "uint256"
				}
			],
			"stateMutability": "view",
			"type": "function"
		},
		{
			"inputs": [],
			"name": "validatorLength",
			"outputs": [
				{
					"internalType": "uint256",
					"name": "",
					"type": "uint256"
				}
			],
			"stateMutability": "view",
			"type": "function"
		},
		{
			"inputs": [],
			"name": "validatorStakePrice",
			"outputs": [
				{
					"internalType": "uint256",
					"name": "",
					"type": "uint256"
				}
			],
			"stateMutability": "view",
			"type": "function"
		}
	]
}