{
  "_format": "hh-sol-artifact-1",
  "contractName": "BattlePoint",
  "sourceName": "contracts/BattlePoint.sol",
  "abi": [
    {
      "anonymous": false,
      "inputs": [
        {
          "indexed": true,
          "internalType": "address",
          "name": "previousOwner",
          "type": "address"
        },
        {
          "indexed": true,
          "internalType": "address",
          "name": "newOwner",
          "type": "address"
        }
      ],
      "name": "OwnershipTransferred",
      "type": "event"
    },
    {
      "inputs": [
        {
          "internalType": "address",
          "name": "",
          "type": "address"
        }
      ],
      "name": "BattlePoints",
      "outputs": [
        {
          "internalType": "uint256",
          "name": "",
          "type": "uint256"
        }
      ],
      "stateMutability": "view",
      "type": "function"
    },
    {
      "inputs": [],
      "name": "allowedContract",
      "outputs": [
        {
          "internalType": "address",
          "name": "",
          "type": "address"
        }
      ],
      "stateMutability": "view",
      "type": "function"
    },
    {
      "inputs": [
        {
          "internalType": "address",
          "name": "_address",
          "type": "address"
        }
      ],
      "name": "getBattlePoint",
      "outputs": [
        {
          "internalType": "uint256",
          "name": "",
          "type": "uint256"
        }
      ],
      "stateMutability": "view",
      "type": "function"
    },
    {
      "inputs": [],
      "name": "owner",
      "outputs": [
        {
          "internalType": "address",
          "name": "",
          "type": "address"
        }
      ],
      "stateMutability": "view",
      "type": "function"
    },
    {
      "inputs": [],
      "name": "renounceOwnership",
      "outputs": [],
      "stateMutability": "nonpayable",
      "type": "function"
    },
    {
      "inputs": [
        {
          "internalType": "address",
          "name": "_allowedContract",
          "type": "address"
        }
      ],
      "name": "setAllowedContract",
      "outputs": [],
      "stateMutability": "nonpayable",
      "type": "function"
    },
    {
      "inputs": [
        {
          "internalType": "address",
          "name": "newOwner",
          "type": "address"
        }
      ],
      "name": "transferOwnership",
      "outputs": [],
      "stateMutability": "nonpayable",
      "type": "function"
    },
    {
      "inputs": [
        {
          "internalType": "address",
          "name": "_address",
          "type": "address"
        },
        {
          "internalType": "uint256",
          "name": "_points",
          "type": "uint256"
        }
      ],
      "name": "updatePoints",
      "outputs": [],
      "stateMutability": "nonpayable",
      "type": "function"
    }
  ],
  "bytecode": "0x608060405234801561001057600080fd5b5061002d61002261003260201b60201c565b61003a60201b60201c565b6100fe565b600033905090565b60008060009054906101000a900473ffffffffffffffffffffffffffffffffffffffff169050816000806101000a81548173ffffffffffffffffffffffffffffffffffffffff021916908373ffffffffffffffffffffffffffffffffffffffff1602179055508173ffffffffffffffffffffffffffffffffffffffff168173ffffffffffffffffffffffffffffffffffffffff167f8be0079c531659141344cd1fd0a4f28419497f9722a3daafe3b4186f6b6457e060405160405180910390a35050565b6108e28061010d6000396000f3fe608060405234801561001057600080fd5b50600436106100885760003560e01c80638da5cb5b1161005b5780638da5cb5b146100ff578063ae67cf9d1461011d578063e89d5a891461014d578063f2fde38b1461016b57610088565b80632af074241461008d578063445f4e5e146100a9578063715018a6146100d957806386e32ed0146100e3575b600080fd5b6100a760048036038101906100a291906105e7565b610187565b005b6100c360048036038101906100be9190610627565b610271565b6040516100d09190610663565b60405180910390f35b6100e16102ba565b005b6100fd60048036038101906100f89190610627565b6102ce565b005b61010761031a565b604051610114919061068d565b60405180910390f35b61013760048036038101906101329190610627565b610343565b6040516101449190610663565b60405180910390f35b61015561035b565b604051610162919061068d565b60405180910390f35b61018560048036038101906101809190610627565b610381565b005b600360009054906101000a900473ffffffffffffffffffffffffffffffffffffffff1673ffffffffffffffffffffffffffffffffffffffff163373ffffffffffffffffffffffffffffffffffffffff1614610217576040517f08c379a000000000000000000000000000000000000000000000000000000000815260040161020e9061072b565b60405180910390fd5b80600260008473ffffffffffffffffffffffffffffffffffffffff1673ffffffffffffffffffffffffffffffffffffffff1681526020019081526020016000206000828254610266919061077a565b925050819055505050565b6000600260008373ffffffffffffffffffffffffffffffffffffffff1673ffffffffffffffffffffffffffffffffffffffff168152602001908152602001600020549050919050565b6102c2610404565b6102cc6000610482565b565b6102d6610404565b80600360006101000a81548173ffffffffffffffffffffffffffffffffffffffff021916908373ffffffffffffffffffffffffffffffffffffffff16021790555050565b60008060009054906101000a900473ffffffffffffffffffffffffffffffffffffffff16905090565b60026020528060005260406000206000915090505481565b600360009054906101000a900473ffffffffffffffffffffffffffffffffffffffff1681565b610389610404565b600073ffffffffffffffffffffffffffffffffffffffff168173ffffffffffffffffffffffffffffffffffffffff16036103f8576040517f08c379a00000000000000000000000000000000000000000000000000000000081526004016103ef90610820565b60405180910390fd5b61040181610482565b50565b61040c610546565b73ffffffffffffffffffffffffffffffffffffffff1661042a61031a565b73ffffffffffffffffffffffffffffffffffffffff1614610480576040517f08c379a00000000000000000000000000000000000000000000000000000000081526004016104779061088c565b60405180910390fd5b565b60008060009054906101000a900473ffffffffffffffffffffffffffffffffffffffff169050816000806101000a81548173ffffffffffffffffffffffffffffffffffffffff021916908373ffffffffffffffffffffffffffffffffffffffff1602179055508173ffffffffffffffffffffffffffffffffffffffff168173ffffffffffffffffffffffffffffffffffffffff167f8be0079c531659141344cd1fd0a4f28419497f9722a3daafe3b4186f6b6457e060405160405180910390a35050565b600033905090565b600080fd5b600073ffffffffffffffffffffffffffffffffffffffff82169050919050565b600061057e82610553565b9050919050565b61058e81610573565b811461059957600080fd5b50565b6000813590506105ab81610585565b92915050565b6000819050919050565b6105c4816105b1565b81146105cf57600080fd5b50565b6000813590506105e1816105bb565b92915050565b600080604083850312156105fe576105fd61054e565b5b600061060c8582860161059c565b925050602061061d858286016105d2565b9150509250929050565b60006020828403121561063d5761063c61054e565b5b600061064b8482850161059c565b91505092915050565b61065d816105b1565b82525050565b60006020820190506106786000830184610654565b92915050565b61068781610573565b82525050565b60006020820190506106a2600083018461067e565b92915050565b600082825260208201905092915050565b7f4f6e6c7920616c6c6f77656420636f6e74726163742063616e2063616c6c207460008201527f6869732066756e6374696f6e0000000000000000000000000000000000000000602082015250565b6000610715602c836106a8565b9150610720826106b9565b604082019050919050565b6000602082019050818103600083015261074481610708565b9050919050565b7f4e487b7100000000000000000000000000000000000000000000000000000000600052601160045260246000fd5b6000610785826105b1565b9150610790836105b1565b92508282019050808211156107a8576107a761074b565b5b92915050565b7f4f776e61626c653a206e6577206f776e657220697320746865207a65726f206160008201527f6464726573730000000000000000000000000000000000000000000000000000602082015250565b600061080a6026836106a8565b9150610815826107ae565b604082019050919050565b60006020820190508181036000830152610839816107fd565b9050919050565b7f4f776e61626c653a2063616c6c6572206973206e6f7420746865206f776e6572600082015250565b60006108766020836106a8565b915061088182610840565b602082019050919050565b600060208201905081810360008301526108a581610869565b905091905056fea2646970667358221220e4e22f045358f69b0e09571009199711d1fa862a717b0f7dea18a609870ceb8764736f6c63430008100033",
  "linkReferences": {},
  "deployedLinkReferences": {}
}