{
  "_format": "hh-sol-artifact-1",
  "contractName": "CombatPower",
  "sourceName": "contracts/Combat_Power.sol",
  "abi": [
    {
      "anonymous": false,
      "inputs": [
        {
          "indexed": true,
          "internalType": "address",
          "name": "previousOwner",
          "type": "address"
        },
        {
          "indexed": true,
          "internalType": "address",
          "name": "newOwner",
          "type": "address"
        }
      ],
      "name": "OwnershipTransferred",
      "type": "event"
    },
    {
      "inputs": [
        {
          "internalType": "address",
          "name": "",
          "type": "address"
        }
      ],
      "name": "Attributelist",
      "outputs": [
        {
          "internalType": "uint256",
          "name": "Stamina",
          "type": "uint256"
        },
        {
          "internalType": "uint256",
          "name": "Life",
          "type": "uint256"
        },
        {
          "internalType": "uint256",
          "name": "Strength",
          "type": "uint256"
        },
        {
          "internalType": "uint256",
          "name": "Intelligence",
          "type": "uint256"
        },
        {
          "internalType": "uint256",
          "name": "Attack",
          "type": "uint256"
        },
        {
          "internalType": "uint256",
          "name": "Defense",
          "type": "uint256"
        },
        {
          "internalType": "uint256",
          "name": "Level",
          "type": "uint256"
        }
      ],
      "stateMutability": "view",
      "type": "function"
    },
    {
      "inputs": [
        {
          "internalType": "address",
          "name": "_ContractAddress_playerData",
          "type": "address"
        }
      ],
      "name": "PlayerContractAddress",
      "outputs": [],
      "stateMutability": "nonpayable",
      "type": "function"
    },
    {
      "inputs": [],
      "name": "owner",
      "outputs": [
        {
          "internalType": "address",
          "name": "",
          "type": "address"
        }
      ],
      "stateMutability": "view",
      "type": "function"
    },
    {
      "inputs": [],
      "name": "renounceOwnership",
      "outputs": [],
      "stateMutability": "nonpayable",
      "type": "function"
    },
    {
      "inputs": [
        {
          "internalType": "address",
          "name": "_playerAddress",
          "type": "address"
        }
      ],
      "name": "returnPlayerCombatPower",
      "outputs": [
        {
          "internalType": "uint256",
          "name": "",
          "type": "uint256"
        }
      ],
      "stateMutability": "view",
      "type": "function"
    },
    {
      "inputs": [
        {
          "internalType": "address",
          "name": "newOwner",
          "type": "address"
        }
      ],
      "name": "transferOwnership",
      "outputs": [],
      "stateMutability": "nonpayable",
      "type": "function"
    }
  ],
  "bytecode": "0x608060405273d9145cce52d386f254917e481eb44e9943f39138600360006101000a81548173ffffffffffffffffffffffffffffffffffffffff021916908373ffffffffffffffffffffffffffffffffffffffff16021790555034801561006557600080fd5b5061008261007761008760201b60201c565b61008f60201b60201c565b610153565b600033905090565b60008060009054906101000a900473ffffffffffffffffffffffffffffffffffffffff169050816000806101000a81548173ffffffffffffffffffffffffffffffffffffffff021916908373ffffffffffffffffffffffffffffffffffffffff1602179055508173ffffffffffffffffffffffffffffffffffffffff168173ffffffffffffffffffffffffffffffffffffffff167f8be0079c531659141344cd1fd0a4f28419497f9722a3daafe3b4186f6b6457e060405160405180910390a35050565b610f44806101626000396000f3fe608060405234801561001057600080fd5b50600436106100625760003560e01c8063018b69ae14610067578063473b50541461009d578063715018a6146100b95780638da5cb5b146100c3578063b919cbe7146100e1578063f2fde38b14610111575b600080fd5b610081600480360381019061007c9190610982565b61012d565b60405161009497969594939291906109c8565b60405180910390f35b6100b760048036038101906100b29190610982565b61016f565b005b6100c16101bb565b005b6100cb6101cf565b6040516100d89190610a46565b60405180910390f35b6100fb60048036038101906100f69190610982565b6101f8565b6040516101089190610a61565b60405180910390f35b61012b60048036038101906101269190610982565b610743565b005b60016020528060005260406000206000915090508060000154908060010154908060020154908060030154908060040154908060050154908060060154905087565b6101776107c6565b80600260006101000a81548173ffffffffffffffffffffffffffffffffffffffff021916908373ffffffffffffffffffffffffffffffffffffffff16021790555050565b6101c36107c6565b6101cd6000610844565b565b60008060009054906101000a900473ffffffffffffffffffffffffffffffffffffffff16905090565b600080600360009054906101000a900473ffffffffffffffffffffffffffffffffffffffff1673ffffffffffffffffffffffffffffffffffffffff166358a3230c846040518263ffffffff1660e01b81526004016102569190610a46565b600060405180830381865afa158015610273573d6000803e3d6000fd5b505050506040513d6000823e3d601f19601f8201168201806040525081019061029c9190610cf9565b6020015190506000600360009054906101000a900473ffffffffffffffffffffffffffffffffffffffff1673ffffffffffffffffffffffffffffffffffffffff166358a3230c856040518263ffffffff1660e01b81526004016102ff9190610a46565b600060405180830381865afa15801561031c573d6000803e3d6000fd5b505050506040513d6000823e3d601f19601f820116820180604052508101906103459190610cf9565b6040015190506000600360009054906101000a900473ffffffffffffffffffffffffffffffffffffffff1673ffffffffffffffffffffffffffffffffffffffff166358a3230c866040518263ffffffff1660e01b81526004016103a89190610a46565b600060405180830381865afa1580156103c5573d6000803e3d6000fd5b505050506040513d6000823e3d601f19601f820116820180604052508101906103ee9190610cf9565b6060015190506000600360009054906101000a900473ffffffffffffffffffffffffffffffffffffffff1673ffffffffffffffffffffffffffffffffffffffff166358a3230c876040518263ffffffff1660e01b81526004016104519190610a46565b600060405180830381865afa15801561046e573d6000803e3d6000fd5b505050506040513d6000823e3d601f19601f820116820180604052508101906104979190610cf9565b6080015190506000600360009054906101000a900473ffffffffffffffffffffffffffffffffffffffff1673ffffffffffffffffffffffffffffffffffffffff166358a3230c886040518263ffffffff1660e01b81526004016104fa9190610a46565b600060405180830381865afa158015610517573d6000803e3d6000fd5b505050506040513d6000823e3d601f19601f820116820180604052508101906105409190610cf9565b60a0015190506000600360009054906101000a900473ffffffffffffffffffffffffffffffffffffffff1673ffffffffffffffffffffffffffffffffffffffff166358a3230c896040518263ffffffff1660e01b81526004016105a39190610a46565b600060405180830381865afa1580156105c0573d6000803e3d6000fd5b505050506040513d6000823e3d601f19601f820116820180604052508101906105e99190610cf9565b60c0015190506000600360009054906101000a900473ffffffffffffffffffffffffffffffffffffffff1673ffffffffffffffffffffffffffffffffffffffff166358a3230c8a6040518263ffffffff1660e01b815260040161064c9190610a46565b600060405180830381865afa158015610669573d6000803e3d6000fd5b505050506040513d6000823e3d601f19601f820116820180604052508101906106929190610cf9565b60e00151905060006005826106a79190610d71565b600a846106b49190610d71565b600a866106c19190610d71565b600a886106ce9190610d71565b600a8a6106db9190610d71565b600a8c6106e89190610d71565b600a8e6106f59190610d71565b6106ff9190610dcb565b6107099190610dcb565b6107139190610dcb565b61071d9190610dcb565b6107279190610dcb565b6107319190610dcb565b90508098505050505050505050919050565b61074b6107c6565b600073ffffffffffffffffffffffffffffffffffffffff168173ffffffffffffffffffffffffffffffffffffffff16036107ba576040517f08c379a00000000000000000000000000000000000000000000000000000000081526004016107b190610e82565b60405180910390fd5b6107c381610844565b50565b6107ce610908565b73ffffffffffffffffffffffffffffffffffffffff166107ec6101cf565b73ffffffffffffffffffffffffffffffffffffffff1614610842576040517f08c379a000000000000000000000000000000000000000000000000000000000815260040161083990610eee565b60405180910390fd5b565b60008060009054906101000a900473ffffffffffffffffffffffffffffffffffffffff169050816000806101000a81548173ffffffffffffffffffffffffffffffffffffffff021916908373ffffffffffffffffffffffffffffffffffffffff1602179055508173ffffffffffffffffffffffffffffffffffffffff168173ffffffffffffffffffffffffffffffffffffffff167f8be0079c531659141344cd1fd0a4f28419497f9722a3daafe3b4186f6b6457e060405160405180910390a35050565b600033905090565b6000604051905090565b600080fd5b600080fd5b600073ffffffffffffffffffffffffffffffffffffffff82169050919050565b600061094f82610924565b9050919050565b61095f81610944565b811461096a57600080fd5b50565b60008135905061097c81610956565b92915050565b6000602082840312156109985761099761091a565b5b60006109a68482850161096d565b91505092915050565b6000819050919050565b6109c2816109af565b82525050565b600060e0820190506109dd600083018a6109b9565b6109ea60208301896109b9565b6109f760408301886109b9565b610a0460608301876109b9565b610a1160808301866109b9565b610a1e60a08301856109b9565b610a2b60c08301846109b9565b98975050505050505050565b610a4081610944565b82525050565b6000602082019050610a5b6000830184610a37565b92915050565b6000602082019050610a7660008301846109b9565b92915050565b600080fd5b6000601f19601f8301169050919050565b7f4e487b7100000000000000000000000000000000000000000000000000000000600052604160045260246000fd5b610aca82610a81565b810181811067ffffffffffffffff82111715610ae957610ae8610a92565b5b80604052505050565b6000610afc610910565b9050610b088282610ac1565b919050565b600080fd5b600080fd5b600080fd5b600067ffffffffffffffff821115610b3757610b36610a92565b5b610b4082610a81565b9050602081019050919050565b60005b83811015610b6b578082015181840152602081019050610b50565b60008484015250505050565b6000610b8a610b8584610b1c565b610af2565b905082815260208101848484011115610ba657610ba5610b17565b5b610bb1848285610b4d565b509392505050565b600082601f830112610bce57610bcd610b12565b5b8151610bde848260208601610b77565b91505092915050565b610bf0816109af565b8114610bfb57600080fd5b50565b600081519050610c0d81610be7565b92915050565b60006101008284031215610c2a57610c29610a7c565b5b610c35610100610af2565b9050600082015167ffffffffffffffff811115610c5557610c54610b0d565b5b610c6184828501610bb9565b6000830152506020610c7584828501610bfe565b6020830152506040610c8984828501610bfe565b6040830152506060610c9d84828501610bfe565b6060830152506080610cb184828501610bfe565b60808301525060a0610cc584828501610bfe565b60a08301525060c0610cd984828501610bfe565b60c08301525060e0610ced84828501610bfe565b60e08301525092915050565b600060208284031215610d0f57610d0e61091a565b5b600082015167ffffffffffffffff811115610d2d57610d2c61091f565b5b610d3984828501610c13565b91505092915050565b7f4e487b7100000000000000000000000000000000000000000000000000000000600052601160045260246000fd5b6000610d7c826109af565b9150610d87836109af565b9250817fffffffffffffffffffffffffffffffffffffffffffffffffffffffffffffffff0483118215151615610dc057610dbf610d42565b5b828202905092915050565b6000610dd6826109af565b9150610de1836109af565b9250828201905080821115610df957610df8610d42565b5b92915050565b600082825260208201905092915050565b7f4f776e61626c653a206e6577206f776e657220697320746865207a65726f206160008201527f6464726573730000000000000000000000000000000000000000000000000000602082015250565b6000610e6c602683610dff565b9150610e7782610e10565b604082019050919050565b60006020820190508181036000830152610e9b81610e5f565b9050919050565b7f4f776e61626c653a2063616c6c6572206973206e6f7420746865206f776e6572600082015250565b6000610ed8602083610dff565b9150610ee382610ea2565b602082019050919050565b60006020820190508181036000830152610f0781610ecb565b905091905056fea2646970667358221220438ac08d1c3c6e03ebe6d2464308bf98eec1a696fa7356a67342e3c981bf442764736f6c63430008100033",
  "linkReferences": {},
  "deployedLinkReferences": {}
}