{
  "_format": "hh-sol-artifact-1",
  "contractName": "CreateCiviTeam",
  "sourceName": "contracts/creat_team.sol",
  "abi": [
    {
      "anonymous": false,
      "inputs": [
        {
          "indexed": true,
          "internalType": "address",
          "name": "previousOwner",
          "type": "address"
        },
        {
          "indexed": true,
          "internalType": "address",
          "name": "newOwner",
          "type": "address"
        }
      ],
      "name": "OwnershipTransferred",
      "type": "event"
    },
    {
      "inputs": [
        {
          "internalType": "address",
          "name": "",
          "type": "address"
        }
      ],
      "name": "CiviTeams",
      "outputs": [
        {
          "internalType": "string",
          "name": "name",
          "type": "string"
        },
        {
          "internalType": "string",
          "name": "description",
          "type": "string"
        },
        {
          "internalType": "uint256",
          "name": "totalMembers",
          "type": "uint256"
        }
      ],
      "stateMutability": "view",
      "type": "function"
    },
    {
      "inputs": [
        {
          "internalType": "string",
          "name": "_name",
          "type": "string"
        },
        {
          "internalType": "string",
          "name": "_description",
          "type": "string"
        }
      ],
      "name": "createGroup",
      "outputs": [],
      "stateMutability": "nonpayable",
      "type": "function"
    },
    {
      "inputs": [],
      "name": "creator",
      "outputs": [
        {
          "internalType": "address",
          "name": "",
          "type": "address"
        }
      ],
      "stateMutability": "view",
      "type": "function"
    },
    {
      "inputs": [
        {
          "internalType": "address",
          "name": "_groupOwner",
          "type": "address"
        }
      ],
      "name": "joinGroup",
      "outputs": [],
      "stateMutability": "nonpayable",
      "type": "function"
    },
    {
      "inputs": [
        {
          "internalType": "address",
          "name": "",
          "type": "address"
        }
      ],
      "name": "joinedGroup",
      "outputs": [
        {
          "internalType": "bool",
          "name": "",
          "type": "bool"
        }
      ],
      "stateMutability": "view",
      "type": "function"
    },
    {
      "inputs": [
        {
          "internalType": "address",
          "name": "_groupOwner",
          "type": "address"
        },
        {
          "internalType": "address",
          "name": "_addressMember",
          "type": "address"
        }
      ],
      "name": "kickMember",
      "outputs": [],
      "stateMutability": "nonpayable",
      "type": "function"
    },
    {
      "inputs": [
        {
          "internalType": "address",
          "name": "_teamOwner",
          "type": "address"
        }
      ],
      "name": "leaveGroup",
      "outputs": [],
      "stateMutability": "nonpayable",
      "type": "function"
    },
    {
      "inputs": [],
      "name": "owner",
      "outputs": [
        {
          "internalType": "address",
          "name": "",
          "type": "address"
        }
      ],
      "stateMutability": "view",
      "type": "function"
    },
    {
      "inputs": [],
      "name": "renounceOwnership",
      "outputs": [],
      "stateMutability": "nonpayable",
      "type": "function"
    },
    {
      "inputs": [],
      "name": "returnTotalCiviGroups",
      "outputs": [
        {
          "internalType": "uint256",
          "name": "",
          "type": "uint256"
        }
      ],
      "stateMutability": "view",
      "type": "function"
    },
    {
      "inputs": [
        {
          "internalType": "address",
          "name": "_groupOwner",
          "type": "address"
        }
      ],
      "name": "returnTotalMembers",
      "outputs": [
        {
          "internalType": "uint256",
          "name": "",
          "type": "uint256"
        }
      ],
      "stateMutability": "view",
      "type": "function"
    },
    {
      "inputs": [
        {
          "internalType": "address",
          "name": "_userAddress",
          "type": "address"
        }
      ],
      "name": "returnWitchGroupIn",
      "outputs": [
        {
          "internalType": "address",
          "name": "",
          "type": "address"
        }
      ],
      "stateMutability": "view",
      "type": "function"
    },
    {
      "inputs": [
        {
          "internalType": "address",
          "name": "_groupOwner",
          "type": "address"
        },
        {
          "internalType": "string",
          "name": "_name",
          "type": "string"
        },
        {
          "internalType": "string",
          "name": "_description",
          "type": "string"
        }
      ],
      "name": "setGroupInfo",
      "outputs": [],
      "stateMutability": "nonpayable",
      "type": "function"
    },
    {
      "inputs": [
        {
          "internalType": "address",
          "name": "_ContractAddress",
          "type": "address"
        }
      ],
      "name": "setRegistContract",
      "outputs": [],
      "stateMutability": "nonpayable",
      "type": "function"
    },
    {
      "inputs": [
        {
          "internalType": "address",
          "name": "newOwner",
          "type": "address"
        }
      ],
      "name": "transferOwnership",
      "outputs": [],
      "stateMutability": "nonpayable",
      "type": "function"
    },
    {
      "inputs": [
        {
          "internalType": "address",
          "name": "",
          "type": "address"
        }
      ],
      "name": "whichGroup",
      "outputs": [
        {
          "internalType": "address",
          "name": "",
          "type": "address"
        }
      ],
      "stateMutability": "view",
      "type": "function"
    }
  ],
  "bytecode": "0x60806040523480156200001157600080fd5b5062000032620000266200003860201b60201c565b6200004060201b60201c565b62000104565b600033905090565b60008060009054906101000a900473ffffffffffffffffffffffffffffffffffffffff169050816000806101000a81548173ffffffffffffffffffffffffffffffffffffffff021916908373ffffffffffffffffffffffffffffffffffffffff1602179055508173ffffffffffffffffffffffffffffffffffffffff168173ffffffffffffffffffffffffffffffffffffffff167f8be0079c531659141344cd1fd0a4f28419497f9722a3daafe3b4186f6b6457e060405160405180910390a35050565b61295480620001146000396000f3fe608060405234801561001057600080fd5b50600436106101005760003560e01c806396db1ed811610097578063eb2bd4fd11610066578063eb2bd4fd14610287578063ed422d87146102a3578063f2de40fc146102d3578063f2fde38b1461030357610100565b806396db1ed8146101ed5780639a824c4f14610209578063b2b5811a14610225578063c80785f81461025557610100565b80636871eb4d116100d35780636871eb4d1461018d5780636deb8f50146101a9578063715018a6146101c55780638da5cb5b146101cf57610100565b806302d05d3f146101055780630e6f9c40146101235780631e4a97dd146101535780633cce8f911461016f575b600080fd5b61010d61031f565b60405161011a9190611ac2565b60405180910390f35b61013d60048036038101906101389190611b1d565b610345565b60405161014a9190611b63565b60405180910390f35b61016d60048036038101906101689190611cc4565b610396565b005b610177610782565b6040516101849190611b63565b60405180910390f35b6101a760048036038101906101a29190611d3c565b61078c565b005b6101c360048036038101906101be9190611b1d565b610af6565b005b6101cd610b42565b005b6101d7610b56565b6040516101e49190611ac2565b60405180910390f35b61020760048036038101906102029190611ddc565b610b7f565b005b610223600480360381019061021e9190611b1d565b610c60565b005b61023f600480360381019061023a9190611b1d565b61116c565b60405161024c9190611ac2565b60405180910390f35b61026f600480360381019061026a9190611b1d565b61119f565b60405161027e93929190611ef0565b60405180910390f35b6102a1600480360381019061029c9190611b1d565b6112d9565b005b6102bd60048036038101906102b89190611b1d565b6116a0565b6040516102ca9190611ac2565b60405180910390f35b6102ed60048036038101906102e89190611b1d565b611709565b6040516102fa9190611f50565b60405180910390f35b61031d60048036038101906103189190611b1d565b611729565b005b600160009054906101000a900473ffffffffffffffffffffffffffffffffffffffff1681565b600080600360008473ffffffffffffffffffffffffffffffffffffffff1673ffffffffffffffffffffffffffffffffffffffff16815260200190815260200160002090508060040154915050919050565b6000600260009054906101000a900473ffffffffffffffffffffffffffffffffffffffff169050600360003373ffffffffffffffffffffffffffffffffffffffff1673ffffffffffffffffffffffffffffffffffffffff16815260200190815260200160002060030160003373ffffffffffffffffffffffffffffffffffffffff1673ffffffffffffffffffffffffffffffffffffffff16815260200190815260200160002060009054906101000a900460ff161561048a576040517f08c379a000000000000000000000000000000000000000000000000000000000815260040161048190611fdd565b60405180910390fd5b600115158173ffffffffffffffffffffffffffffffffffffffff166317b7cf2b336040518263ffffffff1660e01b81526004016104c79190611ac2565b602060405180830381865afa1580156104e4573d6000803e3d6000fd5b505050506040513d601f19601f820116820180604052508101906105089190612029565b15151461054a576040517f08c379a0000000000000000000000000000000000000000000000000000000008152600401610541906120a2565b60405180910390fd5b6000600360003373ffffffffffffffffffffffffffffffffffffffff1673ffffffffffffffffffffffffffffffffffffffff16815260200190815260200160002090508381600001908161059e91906122ce565b50828160010190816105b091906122ce565b5080600201339080600181540180825580915050600190039060005260206000200160009091909190916101000a81548173ffffffffffffffffffffffffffffffffffffffff021916908373ffffffffffffffffffffffffffffffffffffffff16021790555060018160030160003373ffffffffffffffffffffffffffffffffffffffff1673ffffffffffffffffffffffffffffffffffffffff16815260200190815260200160002060006101000a81548160ff0219169083151502179055506001600560003373ffffffffffffffffffffffffffffffffffffffff1673ffffffffffffffffffffffffffffffffffffffff16815260200190815260200160002060006101000a81548160ff02191690831515021790555033600660003373ffffffffffffffffffffffffffffffffffffffff1673ffffffffffffffffffffffffffffffffffffffff16815260200190815260200160002060006101000a81548173ffffffffffffffffffffffffffffffffffffffff021916908373ffffffffffffffffffffffffffffffffffffffff160217905550600181600401600082825461075b91906123cf565b9250508190555060016004600082825461077591906123cf565b9250508190555050505050565b6000600454905090565b8173ffffffffffffffffffffffffffffffffffffffff163373ffffffffffffffffffffffffffffffffffffffff16146107fa576040517f08c379a00000000000000000000000000000000000000000000000000000000081526004016107f19061244f565b60405180910390fd5b600360008373ffffffffffffffffffffffffffffffffffffffff1673ffffffffffffffffffffffffffffffffffffffff16815260200190815260200160002060030160008373ffffffffffffffffffffffffffffffffffffffff1673ffffffffffffffffffffffffffffffffffffffff16815260200190815260200160002060009054906101000a900460ff166108c6576040517f08c379a00000000000000000000000000000000000000000000000000000000081526004016108bd906124bb565b60405180910390fd5b6000600360008473ffffffffffffffffffffffffffffffffffffffff1673ffffffffffffffffffffffffffffffffffffffff16815260200190815260200160002090508060030160008373ffffffffffffffffffffffffffffffffffffffff1673ffffffffffffffffffffffffffffffffffffffff16815260200190815260200160002060009054906101000a900460ff16610997576040517f08c379a000000000000000000000000000000000000000000000000000000000815260040161098e9061254d565b60405180910390fd5b6109a481600201836117ac565b60008160030160008473ffffffffffffffffffffffffffffffffffffffff1673ffffffffffffffffffffffffffffffffffffffff16815260200190815260200160002060006101000a81548160ff0219169083151502179055506000600560008473ffffffffffffffffffffffffffffffffffffffff1673ffffffffffffffffffffffffffffffffffffffff16815260200190815260200160002060006101000a81548160ff0219169083151502179055506000600660008473ffffffffffffffffffffffffffffffffffffffff1673ffffffffffffffffffffffffffffffffffffffff16815260200190815260200160002060006101000a81548173ffffffffffffffffffffffffffffffffffffffff021916908373ffffffffffffffffffffffffffffffffffffffff1602179055506001816004016000828254610aea919061256d565b92505081905550505050565b610afe611937565b80600260006101000a81548173ffffffffffffffffffffffffffffffffffffffff021916908373ffffffffffffffffffffffffffffffffffffffff16021790555050565b610b4a611937565b610b5460006119b5565b565b60008060009054906101000a900473ffffffffffffffffffffffffffffffffffffffff16905090565b8473ffffffffffffffffffffffffffffffffffffffff163373ffffffffffffffffffffffffffffffffffffffff1614610bed576040517f08c379a0000000000000000000000000000000000000000000000000000000008152600401610be49061244f565b60405180910390fd5b6000600360008773ffffffffffffffffffffffffffffffffffffffff1673ffffffffffffffffffffffffffffffffffffffff16815260200190815260200160002090508484826000019182610c439291906125ac565b508282826001019182610c579291906125ac565b50505050505050565b6000600260009054906101000a900473ffffffffffffffffffffffffffffffffffffffff169050600115158173ffffffffffffffffffffffffffffffffffffffff166317b7cf2b336040518263ffffffff1660e01b8152600401610cc49190611ac2565b602060405180830381865afa158015610ce1573d6000803e3d6000fd5b505050506040513d601f19601f82011682018060405250810190610d059190612029565b151514610d47576040517f08c379a0000000000000000000000000000000000000000000000000000000008152600401610d3e906120a2565b60405180910390fd5b600360003373ffffffffffffffffffffffffffffffffffffffff1673ffffffffffffffffffffffffffffffffffffffff16815260200190815260200160002060030160003373ffffffffffffffffffffffffffffffffffffffff1673ffffffffffffffffffffffffffffffffffffffff16815260200190815260200160002060009054906101000a900460ff1615610e14576040517f08c379a0000000000000000000000000000000000000000000000000000000008152600401610e0b90611fdd565b60405180910390fd5b600360008373ffffffffffffffffffffffffffffffffffffffff1673ffffffffffffffffffffffffffffffffffffffff16815260200190815260200160002060030160008373ffffffffffffffffffffffffffffffffffffffff1673ffffffffffffffffffffffffffffffffffffffff16815260200190815260200160002060009054906101000a900460ff16610ee0576040517f08c379a0000000000000000000000000000000000000000000000000000000008152600401610ed7906124bb565b60405180910390fd5b60001515600560003373ffffffffffffffffffffffffffffffffffffffff1673ffffffffffffffffffffffffffffffffffffffff16815260200190815260200160002060009054906101000a900460ff16151514610f73576040517f08c379a0000000000000000000000000000000000000000000000000000000008152600401610f6a906126c8565b60405180910390fd5b6000600360008473ffffffffffffffffffffffffffffffffffffffff1673ffffffffffffffffffffffffffffffffffffffff168152602001908152602001600020905080600201339080600181540180825580915050600190039060005260206000200160009091909190916101000a81548173ffffffffffffffffffffffffffffffffffffffff021916908373ffffffffffffffffffffffffffffffffffffffff16021790555060018160030160003373ffffffffffffffffffffffffffffffffffffffff1673ffffffffffffffffffffffffffffffffffffffff16815260200190815260200160002060006101000a81548160ff0219169083151502179055506001600560003373ffffffffffffffffffffffffffffffffffffffff1673ffffffffffffffffffffffffffffffffffffffff16815260200190815260200160002060006101000a81548160ff02191690831515021790555082600660003373ffffffffffffffffffffffffffffffffffffffff1673ffffffffffffffffffffffffffffffffffffffff16815260200190815260200160002060006101000a81548173ffffffffffffffffffffffffffffffffffffffff021916908373ffffffffffffffffffffffffffffffffffffffff160217905550600181600401600082825461116091906123cf565b92505081905550505050565b60066020528060005260406000206000915054906101000a900473ffffffffffffffffffffffffffffffffffffffff1681565b60036020528060005260406000206000915090508060000180546111c2906120f1565b80601f01602080910402602001604051908101604052809291908181526020018280546111ee906120f1565b801561123b5780601f106112105761010080835404028352916020019161123b565b820191906000526020600020905b81548152906001019060200180831161121e57829003601f168201915b505050505090806001018054611250906120f1565b80601f016020809104026020016040519081016040528092919081815260200182805461127c906120f1565b80156112c95780601f1061129e576101008083540402835291602001916112c9565b820191906000526020600020905b8154815290600101906020018083116112ac57829003601f168201915b5050505050908060040154905083565b600360008273ffffffffffffffffffffffffffffffffffffffff1673ffffffffffffffffffffffffffffffffffffffff16815260200190815260200160002060030160003373ffffffffffffffffffffffffffffffffffffffff1673ffffffffffffffffffffffffffffffffffffffff16815260200190815260200160002060009054906101000a900460ff166113a5576040517f08c379a000000000000000000000000000000000000000000000000000000000815260040161139c9061275a565b60405180910390fd5b600360008273ffffffffffffffffffffffffffffffffffffffff1673ffffffffffffffffffffffffffffffffffffffff16815260200190815260200160002060030160008273ffffffffffffffffffffffffffffffffffffffff1673ffffffffffffffffffffffffffffffffffffffff16815260200190815260200160002060009054906101000a900460ff16611471576040517f08c379a0000000000000000000000000000000000000000000000000000000008152600401611468906124bb565b60405180910390fd5b6000600360008373ffffffffffffffffffffffffffffffffffffffff1673ffffffffffffffffffffffffffffffffffffffff16815260200190815260200160002090508060030160003373ffffffffffffffffffffffffffffffffffffffff1673ffffffffffffffffffffffffffffffffffffffff16815260200190815260200160002060009054906101000a900460ff16611542576040517f08c379a00000000000000000000000000000000000000000000000000000000081526004016115399061254d565b60405180910390fd5b61154f81600201336117ac565b60008160030160003373ffffffffffffffffffffffffffffffffffffffff1673ffffffffffffffffffffffffffffffffffffffff16815260200190815260200160002060006101000a81548160ff02191690831515021790555060018160040160008282546115be919061256d565b925050819055506000600560003373ffffffffffffffffffffffffffffffffffffffff1673ffffffffffffffffffffffffffffffffffffffff16815260200190815260200160002060006101000a81548160ff0219169083151502179055506000600660003373ffffffffffffffffffffffffffffffffffffffff1673ffffffffffffffffffffffffffffffffffffffff16815260200190815260200160002060006101000a81548173ffffffffffffffffffffffffffffffffffffffff021916908373ffffffffffffffffffffffffffffffffffffffff1602179055505050565b6000600660008373ffffffffffffffffffffffffffffffffffffffff1673ffffffffffffffffffffffffffffffffffffffff16815260200190815260200160002060009054906101000a900473ffffffffffffffffffffffffffffffffffffffff169050919050565b60056020528060005260406000206000915054906101000a900460ff1681565b611731611937565b600073ffffffffffffffffffffffffffffffffffffffff168173ffffffffffffffffffffffffffffffffffffffff16036117a0576040517f08c379a0000000000000000000000000000000000000000000000000000000008152600401611797906127ec565b60405180910390fd5b6117a9816119b5565b50565b60005b8280549050811015611932578173ffffffffffffffffffffffffffffffffffffffff168382815481106117e5576117e461280c565b5b9060005260206000200160009054906101000a900473ffffffffffffffffffffffffffffffffffffffff1673ffffffffffffffffffffffffffffffffffffffff160361191f57826001848054905061183d919061256d565b8154811061184e5761184d61280c565b5b9060005260206000200160009054906101000a900473ffffffffffffffffffffffffffffffffffffffff1683828154811061188c5761188b61280c565b5b9060005260206000200160006101000a81548173ffffffffffffffffffffffffffffffffffffffff021916908373ffffffffffffffffffffffffffffffffffffffff160217905550828054806118e5576118e461283b565b5b6001900381819060005260206000200160006101000a81549073ffffffffffffffffffffffffffffffffffffffff02191690559055611932565b808061192a9061286a565b9150506117af565b505050565b61193f611a79565b73ffffffffffffffffffffffffffffffffffffffff1661195d610b56565b73ffffffffffffffffffffffffffffffffffffffff16146119b3576040517f08c379a00000000000000000000000000000000000000000000000000000000081526004016119aa906128fe565b60405180910390fd5b565b60008060009054906101000a900473ffffffffffffffffffffffffffffffffffffffff169050816000806101000a81548173ffffffffffffffffffffffffffffffffffffffff021916908373ffffffffffffffffffffffffffffffffffffffff1602179055508173ffffffffffffffffffffffffffffffffffffffff168173ffffffffffffffffffffffffffffffffffffffff167f8be0079c531659141344cd1fd0a4f28419497f9722a3daafe3b4186f6b6457e060405160405180910390a35050565b600033905090565b600073ffffffffffffffffffffffffffffffffffffffff82169050919050565b6000611aac82611a81565b9050919050565b611abc81611aa1565b82525050565b6000602082019050611ad76000830184611ab3565b92915050565b6000604051905090565b600080fd5b600080fd5b611afa81611aa1565b8114611b0557600080fd5b50565b600081359050611b1781611af1565b92915050565b600060208284031215611b3357611b32611ae7565b5b6000611b4184828501611b08565b91505092915050565b6000819050919050565b611b5d81611b4a565b82525050565b6000602082019050611b786000830184611b54565b92915050565b600080fd5b600080fd5b6000601f19601f8301169050919050565b7f4e487b7100000000000000000000000000000000000000000000000000000000600052604160045260246000fd5b611bd182611b88565b810181811067ffffffffffffffff82111715611bf057611bef611b99565b5b80604052505050565b6000611c03611add565b9050611c0f8282611bc8565b919050565b600067ffffffffffffffff821115611c2f57611c2e611b99565b5b611c3882611b88565b9050602081019050919050565b82818337600083830152505050565b6000611c67611c6284611c14565b611bf9565b905082815260208101848484011115611c8357611c82611b83565b5b611c8e848285611c45565b509392505050565b600082601f830112611cab57611caa611b7e565b5b8135611cbb848260208601611c54565b91505092915050565b60008060408385031215611cdb57611cda611ae7565b5b600083013567ffffffffffffffff811115611cf957611cf8611aec565b5b611d0585828601611c96565b925050602083013567ffffffffffffffff811115611d2657611d25611aec565b5b611d3285828601611c96565b9150509250929050565b60008060408385031215611d5357611d52611ae7565b5b6000611d6185828601611b08565b9250506020611d7285828601611b08565b9150509250929050565b600080fd5b600080fd5b60008083601f840112611d9c57611d9b611b7e565b5b8235905067ffffffffffffffff811115611db957611db8611d7c565b5b602083019150836001820283011115611dd557611dd4611d81565b5b9250929050565b600080600080600060608688031215611df857611df7611ae7565b5b6000611e0688828901611b08565b955050602086013567ffffffffffffffff811115611e2757611e26611aec565b5b611e3388828901611d86565b9450945050604086013567ffffffffffffffff811115611e5657611e55611aec565b5b611e6288828901611d86565b92509250509295509295909350565b600081519050919050565b600082825260208201905092915050565b60005b83811015611eab578082015181840152602081019050611e90565b60008484015250505050565b6000611ec282611e71565b611ecc8185611e7c565b9350611edc818560208601611e8d565b611ee581611b88565b840191505092915050565b60006060820190508181036000830152611f0a8186611eb7565b90508181036020830152611f1e8185611eb7565b9050611f2d6040830184611b54565b949350505050565b60008115159050919050565b611f4a81611f35565b82525050565b6000602082019050611f656000830184611f41565b92915050565b7f596f752061726520616c72656164792061206d656d626572206f66206120677260008201527f6f75700000000000000000000000000000000000000000000000000000000000602082015250565b6000611fc7602383611e7c565b9150611fd282611f6b565b604082019050919050565b60006020820190508181036000830152611ff681611fba565b9050919050565b61200681611f35565b811461201157600080fd5b50565b60008151905061202381611ffd565b92915050565b60006020828403121561203f5761203e611ae7565b5b600061204d84828501612014565b91505092915050565b7f596f7520617265206e6f742072656769737465642e0000000000000000000000600082015250565b600061208c601583611e7c565b915061209782612056565b602082019050919050565b600060208201905081810360008301526120bb8161207f565b9050919050565b7f4e487b7100000000000000000000000000000000000000000000000000000000600052602260045260246000fd5b6000600282049050600182168061210957607f821691505b60208210810361211c5761211b6120c2565b5b50919050565b60008190508160005260206000209050919050565b60006020601f8301049050919050565b600082821b905092915050565b6000600883026121847fffffffffffffffffffffffffffffffffffffffffffffffffffffffffffffffff82612147565b61218e8683612147565b95508019841693508086168417925050509392505050565b6000819050919050565b60006121cb6121c66121c184611b4a565b6121a6565b611b4a565b9050919050565b6000819050919050565b6121e5836121b0565b6121f96121f1826121d2565b848454612154565b825550505050565b600090565b61220e612201565b6122198184846121dc565b505050565b5b8181101561223d57612232600082612206565b60018101905061221f565b5050565b601f8211156122825761225381612122565b61225c84612137565b8101602085101561226b578190505b61227f61227785612137565b83018261221e565b50505b505050565b600082821c905092915050565b60006122a560001984600802612287565b1980831691505092915050565b60006122be8383612294565b9150826002028217905092915050565b6122d782611e71565b67ffffffffffffffff8111156122f0576122ef611b99565b5b6122fa82546120f1565b612305828285612241565b600060209050601f8311600181146123385760008415612326578287015190505b61233085826122b2565b865550612398565b601f19841661234686612122565b60005b8281101561236e57848901518255600182019150602085019450602081019050612349565b8683101561238b5784890151612387601f891682612294565b8355505b6001600288020188555050505b505050505050565b7f4e487b7100000000000000000000000000000000000000000000000000000000600052601160045260246000fd5b60006123da82611b4a565b91506123e583611b4a565b92508282019050808211156123fd576123fc6123a0565b5b92915050565b7f596f7520617265206e6f7420746869732067726f7570206f776e65722e000000600082015250565b6000612439601d83611e7c565b915061244482612403565b602082019050919050565b600060208201905081810360008301526124688161242c565b9050919050565b7f47726f7570206f776e657220646f6573206e6f74206578697374000000000000600082015250565b60006124a5601a83611e7c565b91506124b08261246f565b602082019050919050565b600060208201905081810360008301526124d481612498565b9050919050565b7f596f7520617265206e6f742061206d656d626572206f6620746869732067726f60008201527f7570000000000000000000000000000000000000000000000000000000000000602082015250565b6000612537602283611e7c565b9150612542826124db565b604082019050919050565b600060208201905081810360008301526125668161252a565b9050919050565b600061257882611b4a565b915061258383611b4a565b925082820390508181111561259b5761259a6123a0565b5b92915050565b600082905092915050565b6125b683836125a1565b67ffffffffffffffff8111156125cf576125ce611b99565b5b6125d982546120f1565b6125e4828285612241565b6000601f8311600181146126135760008415612601578287013590505b61260b85826122b2565b865550612673565b601f19841661262186612122565b60005b8281101561264957848901358255600182019150602085019450602081019050612624565b868310156126665784890135612662601f891682612294565b8355505b6001600288020188555050505b50505050505050565b7f596f7520617265206a6f696e6564206f6e652067726f75700000000000000000600082015250565b60006126b2601883611e7c565b91506126bd8261267c565b602082019050919050565b600060208201905081810360008301526126e1816126a5565b9050919050565b7f596f7520617265206e6f742061206d656d626572206f6620616e792067726f7560008201527f7000000000000000000000000000000000000000000000000000000000000000602082015250565b6000612744602183611e7c565b915061274f826126e8565b604082019050919050565b6000602082019050818103600083015261277381612737565b9050919050565b7f4f776e61626c653a206e6577206f776e657220697320746865207a65726f206160008201527f6464726573730000000000000000000000000000000000000000000000000000602082015250565b60006127d6602683611e7c565b91506127e18261277a565b604082019050919050565b60006020820190508181036000830152612805816127c9565b9050919050565b7f4e487b7100000000000000000000000000000000000000000000000000000000600052603260045260246000fd5b7f4e487b7100000000000000000000000000000000000000000000000000000000600052603160045260246000fd5b600061287582611b4a565b91507fffffffffffffffffffffffffffffffffffffffffffffffffffffffffffffffff82036128a7576128a66123a0565b5b600182019050919050565b7f4f776e61626c653a2063616c6c6572206973206e6f7420746865206f776e6572600082015250565b60006128e8602083611e7c565b91506128f3826128b2565b602082019050919050565b60006020820190508181036000830152612917816128db565b905091905056fea2646970667358221220eef546b639319ad227edac76359e403887180ceac5c5109368532cc21865be3e64736f6c63430008100033",
  "linkReferences": {},
  "deployedLinkReferences": {}
}