{
  "_format": "hh-sol-artifact-1",
  "contractName": "Fight",
  "sourceName": "contracts/Fight.sol",
  "abi": [
    {
      "anonymous": false,
      "inputs": [
        {
          "indexed": true,
          "internalType": "address",
          "name": "previousOwner",
          "type": "address"
        },
        {
          "indexed": true,
          "internalType": "address",
          "name": "newOwner",
          "type": "address"
        }
      ],
      "name": "OwnershipTransferred",
      "type": "event"
    },
    {
      "inputs": [
        {
          "internalType": "address",
          "name": "",
          "type": "address"
        }
      ],
      "name": "Fighters",
      "outputs": [
        {
          "internalType": "uint256",
          "name": "Stamina",
          "type": "uint256"
        },
        {
          "internalType": "uint256",
          "name": "Life",
          "type": "uint256"
        },
        {
          "internalType": "uint256",
          "name": "Strength",
          "type": "uint256"
        },
        {
          "internalType": "uint256",
          "name": "Intelligence",
          "type": "uint256"
        },
        {
          "internalType": "uint256",
          "name": "Attack",
          "type": "uint256"
        },
        {
          "internalType": "uint256",
          "name": "Defense",
          "type": "uint256"
        },
        {
          "internalType": "uint256",
          "name": "Level",
          "type": "uint256"
        }
      ],
      "stateMutability": "view",
      "type": "function"
    },
    {
      "inputs": [
        {
          "internalType": "address",
          "name": "_targetAddress",
          "type": "address"
        }
      ],
      "name": "attack",
      "outputs": [
        {
          "components": [
            {
              "internalType": "uint256",
              "name": "Rounds",
              "type": "uint256"
            },
            {
              "internalType": "address",
              "name": "Winner",
              "type": "address"
            }
          ],
          "internalType": "struct Fight.Winner",
          "name": "",
          "type": "tuple"
        }
      ],
      "stateMutability": "nonpayable",
      "type": "function"
    },
    {
      "inputs": [],
      "name": "owner",
      "outputs": [
        {
          "internalType": "address",
          "name": "",
          "type": "address"
        }
      ],
      "stateMutability": "view",
      "type": "function"
    },
    {
      "inputs": [],
      "name": "renounceOwnership",
      "outputs": [],
      "stateMutability": "nonpayable",
      "type": "function"
    },
    {
      "inputs": [
        {
          "internalType": "address",
          "name": "_ContractAddress_playerData",
          "type": "address"
        }
      ],
      "name": "setPlayerContractAddress",
      "outputs": [],
      "stateMutability": "nonpayable",
      "type": "function"
    },
    {
      "inputs": [
        {
          "internalType": "address",
          "name": "_battlePointContract",
          "type": "address"
        }
      ],
      "name": "setbattePointContractAddress",
      "outputs": [],
      "stateMutability": "nonpayable",
      "type": "function"
    },
    {
      "inputs": [
        {
          "internalType": "address",
          "name": "newOwner",
          "type": "address"
        }
      ],
      "name": "transferOwnership",
      "outputs": [],
      "stateMutability": "nonpayable",
      "type": "function"
    }
  ],
  "bytecode": "0x608060405234801561001057600080fd5b5061002d61002261003260201b60201c565b61003a60201b60201c565b6100fe565b600033905090565b60008060009054906101000a900473ffffffffffffffffffffffffffffffffffffffff169050816000806101000a81548173ffffffffffffffffffffffffffffffffffffffff021916908373ffffffffffffffffffffffffffffffffffffffff1602179055508173ffffffffffffffffffffffffffffffffffffffff168173ffffffffffffffffffffffffffffffffffffffff167f8be0079c531659141344cd1fd0a4f28419497f9722a3daafe3b4186f6b6457e060405160405180910390a35050565b6115de8061010d6000396000f3fe608060405234801561001057600080fd5b506004361061007d5760003560e01c80638da5cb5b1161005b5780638da5cb5b146100de5780639e4f66c6146100fc578063d018db3e14610118578063f2fde38b146101485761007d565b80635e1dd1a31461008257806367935d1a146100b8578063715018a6146100d4575b600080fd5b61009c60048036038101906100979190610e89565b610164565b6040516100af9796959493929190610ecf565b60405180910390f35b6100d260048036038101906100cd9190610e89565b6101a6565b005b6100dc6101f2565b005b6100e6610206565b6040516100f39190610f4d565b60405180910390f35b61011660048036038101906101119190610e89565b61022f565b005b610132600480360381019061012d9190610e89565b61027b565b60405161013f9190610fb5565b60405180910390f35b610162600480360381019061015d9190610e89565b610c1a565b005b60016020528060005260406000206000915090508060000154908060010154908060020154908060030154908060040154908060050154908060060154905087565b6101ae610c9d565b80600360006101000a81548173ffffffffffffffffffffffffffffffffffffffff021916908373ffffffffffffffffffffffffffffffffffffffff16021790555050565b6101fa610c9d565b6102046000610d1b565b565b60008060009054906101000a900473ffffffffffffffffffffffffffffffffffffffff16905090565b610237610c9d565b80600260006101000a81548173ffffffffffffffffffffffffffffffffffffffff021916908373ffffffffffffffffffffffffffffffffffffffff16021790555050565b610283610de7565b6000600260009054906101000a900473ffffffffffffffffffffffffffffffffffffffff1690506000600360009054906101000a900473ffffffffffffffffffffffffffffffffffffffff1690508373ffffffffffffffffffffffffffffffffffffffff163373ffffffffffffffffffffffffffffffffffffffff160361033f576040517f08c379a00000000000000000000000000000000000000000000000000000000081526004016103369061102d565b60405180910390fd5b8173ffffffffffffffffffffffffffffffffffffffff166358a3230c336040518263ffffffff1660e01b81526004016103789190610f4d565b600060405180830381865afa158015610395573d6000803e3d6000fd5b505050506040513d6000823e3d601f19601f820116820180604052508101906103be91906112ca565b60a00151600160003373ffffffffffffffffffffffffffffffffffffffff1673ffffffffffffffffffffffffffffffffffffffff168152602001908152602001600020600401819055508173ffffffffffffffffffffffffffffffffffffffff166358a3230c856040518263ffffffff1660e01b81526004016104419190610f4d565b600060405180830381865afa15801561045e573d6000803e3d6000fd5b505050506040513d6000823e3d601f19601f8201168201806040525081019061048791906112ca565b60a00151600160008673ffffffffffffffffffffffffffffffffffffffff1673ffffffffffffffffffffffffffffffffffffffff168152602001908152602001600020600401819055508173ffffffffffffffffffffffffffffffffffffffff166358a3230c336040518263ffffffff1660e01b815260040161050a9190610f4d565b600060405180830381865afa158015610527573d6000803e3d6000fd5b505050506040513d6000823e3d601f19601f8201168201806040525081019061055091906112ca565b60400151600160003373ffffffffffffffffffffffffffffffffffffffff1673ffffffffffffffffffffffffffffffffffffffff168152602001908152602001600020600101819055508173ffffffffffffffffffffffffffffffffffffffff166358a3230c856040518263ffffffff1660e01b81526004016105d39190610f4d565b600060405180830381865afa1580156105f0573d6000803e3d6000fd5b505050506040513d6000823e3d601f19601f8201168201806040525081019061061991906112ca565b60400151600160008673ffffffffffffffffffffffffffffffffffffffff1673ffffffffffffffffffffffffffffffffffffffff168152602001908152602001600020600101819055508173ffffffffffffffffffffffffffffffffffffffff166358a3230c336040518263ffffffff1660e01b815260040161069c9190610f4d565b600060405180830381865afa1580156106b9573d6000803e3d6000fd5b505050506040513d6000823e3d601f19601f820116820180604052508101906106e291906112ca565b60c00151600160003373ffffffffffffffffffffffffffffffffffffffff1673ffffffffffffffffffffffffffffffffffffffff168152602001908152602001600020600501819055508173ffffffffffffffffffffffffffffffffffffffff166358a3230c856040518263ffffffff1660e01b81526004016107659190610f4d565b600060405180830381865afa158015610782573d6000803e3d6000fd5b505050506040513d6000823e3d601f19601f820116820180604052508101906107ab91906112ca565b60c00151600160008673ffffffffffffffffffffffffffffffffffffffff1673ffffffffffffffffffffffffffffffffffffffff168152602001908152602001600020600501819055506000600160003373ffffffffffffffffffffffffffffffffffffffff1673ffffffffffffffffffffffffffffffffffffffff168152602001908152602001600020600401541415801561088b57506000600160008673ffffffffffffffffffffffffffffffffffffffff1673ffffffffffffffffffffffffffffffffffffffff1681526020019081526020016000206004015414155b6108ca576040517f08c379a00000000000000000000000000000000000000000000000000000000081526004016108c190611385565b60405180910390fd5b6108d2610de7565b5b6000600160003373ffffffffffffffffffffffffffffffffffffffff1673ffffffffffffffffffffffffffffffffffffffff1681526020019081526020016000206001015411801561096757506000600160008773ffffffffffffffffffffffffffffffffffffffff1673ffffffffffffffffffffffffffffffffffffffff16815260200190815260200160002060010154115b801561097857506005816000015111155b15610ad257600160003373ffffffffffffffffffffffffffffffffffffffff1673ffffffffffffffffffffffffffffffffffffffff16815260200190815260200160002060040154600160008773ffffffffffffffffffffffffffffffffffffffff1673ffffffffffffffffffffffffffffffffffffffff1681526020019081526020016000206001016000828254610a1191906113d4565b92505081905550600160008673ffffffffffffffffffffffffffffffffffffffff1673ffffffffffffffffffffffffffffffffffffffff16815260200190815260200160002060040154600160003373ffffffffffffffffffffffffffffffffffffffff1673ffffffffffffffffffffffffffffffffffffffff1681526020019081526020016000206001016000828254610aac91906113d4565b92505081905550600181600001818151610ac69190611408565b915081815250506108d3565b600160008673ffffffffffffffffffffffffffffffffffffffff1673ffffffffffffffffffffffffffffffffffffffff16815260200190815260200160002060010154600160003373ffffffffffffffffffffffffffffffffffffffff1673ffffffffffffffffffffffffffffffffffffffff168152602001908152602001600020600101541015610b645784610b66565b335b816020019073ffffffffffffffffffffffffffffffffffffffff16908173ffffffffffffffffffffffffffffffffffffffff16815250508173ffffffffffffffffffffffffffffffffffffffff16632af07424826020015160016040518363ffffffff1660e01b8152600401610bdd929190611481565b600060405180830381600087803b158015610bf757600080fd5b505af1158015610c0b573d6000803e3d6000fd5b50505050809350505050919050565b610c22610c9d565b600073ffffffffffffffffffffffffffffffffffffffff168173ffffffffffffffffffffffffffffffffffffffff1603610c91576040517f08c379a0000000000000000000000000000000000000000000000000000000008152600401610c889061151c565b60405180910390fd5b610c9a81610d1b565b50565b610ca5610ddf565b73ffffffffffffffffffffffffffffffffffffffff16610cc3610206565b73ffffffffffffffffffffffffffffffffffffffff1614610d19576040517f08c379a0000000000000000000000000000000000000000000000000000000008152600401610d1090611588565b60405180910390fd5b565b60008060009054906101000a900473ffffffffffffffffffffffffffffffffffffffff169050816000806101000a81548173ffffffffffffffffffffffffffffffffffffffff021916908373ffffffffffffffffffffffffffffffffffffffff1602179055508173ffffffffffffffffffffffffffffffffffffffff168173ffffffffffffffffffffffffffffffffffffffff167f8be0079c531659141344cd1fd0a4f28419497f9722a3daafe3b4186f6b6457e060405160405180910390a35050565b600033905090565b604051806040016040528060008152602001600073ffffffffffffffffffffffffffffffffffffffff1681525090565b6000604051905090565b600080fd5b600080fd5b600073ffffffffffffffffffffffffffffffffffffffff82169050919050565b6000610e5682610e2b565b9050919050565b610e6681610e4b565b8114610e7157600080fd5b50565b600081359050610e8381610e5d565b92915050565b600060208284031215610e9f57610e9e610e21565b5b6000610ead84828501610e74565b91505092915050565b6000819050919050565b610ec981610eb6565b82525050565b600060e082019050610ee4600083018a610ec0565b610ef16020830189610ec0565b610efe6040830188610ec0565b610f0b6060830187610ec0565b610f186080830186610ec0565b610f2560a0830185610ec0565b610f3260c0830184610ec0565b98975050505050505050565b610f4781610e4b565b82525050565b6000602082019050610f626000830184610f3e565b92915050565b610f7181610eb6565b82525050565b610f8081610e4b565b82525050565b604082016000820151610f9c6000850182610f68565b506020820151610faf6020850182610f77565b50505050565b6000604082019050610fca6000830184610f86565b92915050565b600082825260208201905092915050565b7f43616e6e6f742061747461636b20796f757273656c6621000000000000000000600082015250565b6000611017601783610fd0565b915061102282610fe1565b602082019050919050565b600060208201905081810360008301526110468161100a565b9050919050565b600080fd5b6000601f19601f8301169050919050565b7f4e487b7100000000000000000000000000000000000000000000000000000000600052604160045260246000fd5b61109b82611052565b810181811067ffffffffffffffff821117156110ba576110b9611063565b5b80604052505050565b60006110cd610e17565b90506110d98282611092565b919050565b600080fd5b600080fd5b600080fd5b600067ffffffffffffffff82111561110857611107611063565b5b61111182611052565b9050602081019050919050565b60005b8381101561113c578082015181840152602081019050611121565b60008484015250505050565b600061115b611156846110ed565b6110c3565b905082815260208101848484011115611177576111766110e8565b5b61118284828561111e565b509392505050565b600082601f83011261119f5761119e6110e3565b5b81516111af848260208601611148565b91505092915050565b6111c181610eb6565b81146111cc57600080fd5b50565b6000815190506111de816111b8565b92915050565b600061010082840312156111fb576111fa61104d565b5b6112066101006110c3565b9050600082015167ffffffffffffffff811115611226576112256110de565b5b6112328482850161118a565b6000830152506020611246848285016111cf565b602083015250604061125a848285016111cf565b604083015250606061126e848285016111cf565b6060830152506080611282848285016111cf565b60808301525060a0611296848285016111cf565b60a08301525060c06112aa848285016111cf565b60c08301525060e06112be848285016111cf565b60e08301525092915050565b6000602082840312156112e0576112df610e21565b5b600082015167ffffffffffffffff8111156112fe576112fd610e26565b5b61130a848285016111e4565b91505092915050565b7f41747461636b20416e6420746172676574206d7573742041747461636b20617460008201527f74726962757465203e20302e0000000000000000000000000000000000000000602082015250565b600061136f602c83610fd0565b915061137a82611313565b604082019050919050565b6000602082019050818103600083015261139e81611362565b9050919050565b7f4e487b7100000000000000000000000000000000000000000000000000000000600052601160045260246000fd5b60006113df82610eb6565b91506113ea83610eb6565b9250828203905081811115611402576114016113a5565b5b92915050565b600061141382610eb6565b915061141e83610eb6565b9250828201905080821115611436576114356113a5565b5b92915050565b6000819050919050565b6000819050919050565b600061146b6114666114618461143c565b611446565b610eb6565b9050919050565b61147b81611450565b82525050565b60006040820190506114966000830185610f3e565b6114a36020830184611472565b9392505050565b7f4f776e61626c653a206e6577206f776e657220697320746865207a65726f206160008201527f6464726573730000000000000000000000000000000000000000000000000000602082015250565b6000611506602683610fd0565b9150611511826114aa565b604082019050919050565b60006020820190508181036000830152611535816114f9565b9050919050565b7f4f776e61626c653a2063616c6c6572206973206e6f7420746865206f776e6572600082015250565b6000611572602083610fd0565b915061157d8261153c565b602082019050919050565b600060208201905081810360008301526115a181611565565b905091905056fea26469706673582212205d7fac44769c35049cba1be28f54998dc1597a387f97baa023244b2ec35d590264736f6c63430008100033",
  "linkReferences": {},
  "deployedLinkReferences": {}
}