{
  "_format": "hh-sol-artifact-1",
  "contractName": "Management",
  "sourceName": "contracts/attributeManagement.sol",
  "abi": [
    {
      "inputs": [
        {
          "internalType": "address",
          "name": "",
          "type": "address"
        }
      ],
      "name": "Attributelist",
      "outputs": [
        {
          "internalType": "uint256",
          "name": "Stamina",
          "type": "uint256"
        },
        {
          "internalType": "uint256",
          "name": "Life",
          "type": "uint256"
        },
        {
          "internalType": "uint256",
          "name": "Strength",
          "type": "uint256"
        },
        {
          "internalType": "uint256",
          "name": "Intelligence",
          "type": "uint256"
        },
        {
          "internalType": "uint256",
          "name": "Attack",
          "type": "uint256"
        },
        {
          "internalType": "uint256",
          "name": "Defense",
          "type": "uint256"
        },
        {
          "internalType": "uint256",
          "name": "Level",
          "type": "uint256"
        }
      ],
      "stateMutability": "view",
      "type": "function"
    },
    {
      "inputs": [
        {
          "internalType": "address",
          "name": "Nftcontract",
          "type": "address"
        },
        {
          "internalType": "uint256",
          "name": "Stamina",
          "type": "uint256"
        },
        {
          "internalType": "uint256",
          "name": "Life",
          "type": "uint256"
        },
        {
          "internalType": "uint256",
          "name": "Strength",
          "type": "uint256"
        },
        {
          "internalType": "uint256",
          "name": "Intelligence",
          "type": "uint256"
        },
        {
          "internalType": "uint256",
          "name": "Attack",
          "type": "uint256"
        },
        {
          "internalType": "uint256",
          "name": "Defense",
          "type": "uint256"
        },
        {
          "internalType": "uint256",
          "name": "Level",
          "type": "uint256"
        }
      ],
      "name": "addAttribute",
      "outputs": [],
      "stateMutability": "nonpayable",
      "type": "function"
    },
    {
      "inputs": [
        {
          "internalType": "address",
          "name": "NftContract",
          "type": "address"
        },
        {
          "internalType": "uint256",
          "name": "tokenId",
          "type": "uint256"
        }
      ],
      "name": "destroyNft1155",
      "outputs": [],
      "stateMutability": "nonpayable",
      "type": "function"
    },
    {
      "inputs": [
        {
          "internalType": "address",
          "name": "NftContract",
          "type": "address"
        },
        {
          "internalType": "uint256",
          "name": "tokenId",
          "type": "uint256"
        }
      ],
      "name": "destroyNft721",
      "outputs": [],
      "stateMutability": "nonpayable",
      "type": "function"
    }
  ],
  "bytecode": "0x608060405273d9145cce52d386f254917e481eb44e9943f39138600160006101000a81548173ffffffffffffffffffffffffffffffffffffffff021916908373ffffffffffffffffffffffffffffffffffffffff16021790555034801561006557600080fd5b5061099e806100756000396000f3fe608060405234801561001057600080fd5b506004361061004c5760003560e01c8063018b69ae146100515780637b19c0eb14610087578063ddc93abc146100a3578063df1e48de146100bf575b600080fd5b61006b600480360381019061006691906105d3565b6100db565b60405161007e9796959493929190610619565b60405180910390f35b6100a1600480360381019061009c91906106b4565b61011d565b005b6100bd60048036038101906100b891906106f4565b6102e3565b005b6100d960048036038101906100d491906106b4565b6103a7565b005b60006020528060005260406000206000915090508060000154908060010154908060020154908060030154908060040154908060050154908060060154905087565b60008290508073ffffffffffffffffffffffffffffffffffffffff166323b872dd3361dead856040518463ffffffff1660e01b8152600401610161939291906107b9565b600060405180830381600087803b15801561017b57600080fd5b505af115801561018f573d6000803e3d6000fd5b5050505060008060008573ffffffffffffffffffffffffffffffffffffffff1673ffffffffffffffffffffffffffffffffffffffff1681526020019081526020016000206040518060e00160405290816000820154815260200160018201548152602001600282015481526020016003820154815260200160048201548152602001600582015481526020016006820154815250509050600160009054906101000a900473ffffffffffffffffffffffffffffffffffffffff1673ffffffffffffffffffffffffffffffffffffffff1663ce5f4bd033836000015184602001518560400151866060015187608001518860a001518960c001516040518963ffffffff1660e01b81526004016102ab9897969594939291906107f0565b600060405180830381600087803b1580156102c557600080fd5b505af11580156102d9573d6000803e3d6000fd5b5050505050505050565b6040518060e00160405280888152602001878152602001868152602001858152602001848152602001838152602001828152506000808a73ffffffffffffffffffffffffffffffffffffffff1673ffffffffffffffffffffffffffffffffffffffff168152602001908152602001600020600082015181600001556020820151816001015560408201518160020155606082015181600301556080820151816004015560a0820151816005015560c082015181600601559050505050505050505050565b60008290508073ffffffffffffffffffffffffffffffffffffffff1663f242432a3361dead8560016040518563ffffffff1660e01b81526004016103ee9493929190610910565b600060405180830381600087803b15801561040857600080fd5b505af115801561041c573d6000803e3d6000fd5b5050505060008060008573ffffffffffffffffffffffffffffffffffffffff1673ffffffffffffffffffffffffffffffffffffffff1681526020019081526020016000206040518060e00160405290816000820154815260200160018201548152602001600282015481526020016003820154815260200160048201548152602001600582015481526020016006820154815250509050600160009054906101000a900473ffffffffffffffffffffffffffffffffffffffff1673ffffffffffffffffffffffffffffffffffffffff1663ce5f4bd033836000015184602001518560400151866060015187608001518860a001518960c001516040518963ffffffff1660e01b81526004016105389897969594939291906107f0565b600060405180830381600087803b15801561055257600080fd5b505af1158015610566573d6000803e3d6000fd5b5050505050505050565b600080fd5b600073ffffffffffffffffffffffffffffffffffffffff82169050919050565b60006105a082610575565b9050919050565b6105b081610595565b81146105bb57600080fd5b50565b6000813590506105cd816105a7565b92915050565b6000602082840312156105e9576105e8610570565b5b60006105f7848285016105be565b91505092915050565b6000819050919050565b61061381610600565b82525050565b600060e08201905061062e600083018a61060a565b61063b602083018961060a565b610648604083018861060a565b610655606083018761060a565b610662608083018661060a565b61066f60a083018561060a565b61067c60c083018461060a565b98975050505050505050565b61069181610600565b811461069c57600080fd5b50565b6000813590506106ae81610688565b92915050565b600080604083850312156106cb576106ca610570565b5b60006106d9858286016105be565b92505060206106ea8582860161069f565b9150509250929050565b600080600080600080600080610100898b03121561071557610714610570565b5b60006107238b828c016105be565b98505060206107348b828c0161069f565b97505060406107458b828c0161069f565b96505060606107568b828c0161069f565b95505060806107678b828c0161069f565b94505060a06107788b828c0161069f565b93505060c06107898b828c0161069f565b92505060e061079a8b828c0161069f565b9150509295985092959890939650565b6107b381610595565b82525050565b60006060820190506107ce60008301866107aa565b6107db60208301856107aa565b6107e8604083018461060a565b949350505050565b600061010082019050610806600083018b6107aa565b610813602083018a61060a565b610820604083018961060a565b61082d606083018861060a565b61083a608083018761060a565b61084760a083018661060a565b61085460c083018561060a565b61086160e083018461060a565b9998505050505050505050565b6000819050919050565b6000819050919050565b600061089d6108986108938461086e565b610878565b610600565b9050919050565b6108ad81610882565b82525050565b600082825260208201905092915050565b7f3078000000000000000000000000000000000000000000000000000000000000600082015250565b60006108fa6002836108b3565b9150610905826108c4565b602082019050919050565b600060a08201905061092560008301876107aa565b61093260208301866107aa565b61093f604083018561060a565b61094c60608301846108a4565b818103608083015261095d816108ed565b90509594505050505056fea26469706673582212201b7e1da79051d2473ffe2efd9b07c5712cb907520de49a17986954d9967a01f564736f6c63430008100033",
  "linkReferences": {},
  "deployedLinkReferences": {}
}