{
  "_format": "hh-sol-artifact-1",
  "contractName": "NFTTest",
  "sourceName": "contracts/nftTest.sol",
  "abi": [
    {
      "inputs": [],
      "stateMutability": "nonpayable",
      "type": "constructor"
    },
    {
      "anonymous": false,
      "inputs": [
        {
          "indexed": true,
          "internalType": "address",
          "name": "owner",
          "type": "address"
        },
        {
          "indexed": true,
          "internalType": "address",
          "name": "approved",
          "type": "address"
        },
        {
          "indexed": true,
          "internalType": "uint256",
          "name": "tokenId",
          "type": "uint256"
        }
      ],
      "name": "Approval",
      "type": "event"
    },
    {
      "anonymous": false,
      "inputs": [
        {
          "indexed": true,
          "internalType": "address",
          "name": "owner",
          "type": "address"
        },
        {
          "indexed": true,
          "internalType": "address",
          "name": "operator",
          "type": "address"
        },
        {
          "indexed": false,
          "internalType": "bool",
          "name": "approved",
          "type": "bool"
        }
      ],
      "name": "ApprovalForAll",
      "type": "event"
    },
    {
      "anonymous": false,
      "inputs": [
        {
          "indexed": false,
          "internalType": "uint256",
          "name": "_fromTokenId",
          "type": "uint256"
        },
        {
          "indexed": false,
          "internalType": "uint256",
          "name": "_toTokenId",
          "type": "uint256"
        }
      ],
      "name": "BatchMetadataUpdate",
      "type": "event"
    },
    {
      "anonymous": false,
      "inputs": [
        {
          "indexed": false,
          "internalType": "uint256",
          "name": "_tokenId",
          "type": "uint256"
        }
      ],
      "name": "MetadataUpdate",
      "type": "event"
    },
    {
      "anonymous": false,
      "inputs": [
        {
          "indexed": true,
          "internalType": "address",
          "name": "previousOwner",
          "type": "address"
        },
        {
          "indexed": true,
          "internalType": "address",
          "name": "newOwner",
          "type": "address"
        }
      ],
      "name": "OwnershipTransferred",
      "type": "event"
    },
    {
      "anonymous": false,
      "inputs": [
        {
          "indexed": true,
          "internalType": "address",
          "name": "from",
          "type": "address"
        },
        {
          "indexed": true,
          "internalType": "address",
          "name": "to",
          "type": "address"
        },
        {
          "indexed": true,
          "internalType": "uint256",
          "name": "tokenId",
          "type": "uint256"
        }
      ],
      "name": "Transfer",
      "type": "event"
    },
    {
      "inputs": [
        {
          "internalType": "address",
          "name": "to",
          "type": "address"
        },
        {
          "internalType": "uint256",
          "name": "tokenId",
          "type": "uint256"
        }
      ],
      "name": "approve",
      "outputs": [],
      "stateMutability": "nonpayable",
      "type": "function"
    },
    {
      "inputs": [
        {
          "internalType": "address",
          "name": "owner",
          "type": "address"
        }
      ],
      "name": "balanceOf",
      "outputs": [
        {
          "internalType": "uint256",
          "name": "",
          "type": "uint256"
        }
      ],
      "stateMutability": "view",
      "type": "function"
    },
    {
      "inputs": [
        {
          "internalType": "uint256",
          "name": "tokenId",
          "type": "uint256"
        }
      ],
      "name": "burn",
      "outputs": [],
      "stateMutability": "nonpayable",
      "type": "function"
    },
    {
      "inputs": [
        {
          "internalType": "uint256",
          "name": "tokenId",
          "type": "uint256"
        }
      ],
      "name": "getApproved",
      "outputs": [
        {
          "internalType": "address",
          "name": "",
          "type": "address"
        }
      ],
      "stateMutability": "view",
      "type": "function"
    },
    {
      "inputs": [
        {
          "internalType": "address",
          "name": "owner",
          "type": "address"
        },
        {
          "internalType": "address",
          "name": "operator",
          "type": "address"
        }
      ],
      "name": "isApprovedForAll",
      "outputs": [
        {
          "internalType": "bool",
          "name": "",
          "type": "bool"
        }
      ],
      "stateMutability": "view",
      "type": "function"
    },
    {
      "inputs": [],
      "name": "name",
      "outputs": [
        {
          "internalType": "string",
          "name": "",
          "type": "string"
        }
      ],
      "stateMutability": "view",
      "type": "function"
    },
    {
      "inputs": [],
      "name": "owner",
      "outputs": [
        {
          "internalType": "address",
          "name": "",
          "type": "address"
        }
      ],
      "stateMutability": "view",
      "type": "function"
    },
    {
      "inputs": [
        {
          "internalType": "uint256",
          "name": "tokenId",
          "type": "uint256"
        }
      ],
      "name": "ownerOf",
      "outputs": [
        {
          "internalType": "address",
          "name": "",
          "type": "address"
        }
      ],
      "stateMutability": "view",
      "type": "function"
    },
    {
      "inputs": [],
      "name": "renounceOwnership",
      "outputs": [],
      "stateMutability": "nonpayable",
      "type": "function"
    },
    {
      "inputs": [
        {
          "internalType": "address",
          "name": "to",
          "type": "address"
        }
      ],
      "name": "safeMint",
      "outputs": [],
      "stateMutability": "nonpayable",
      "type": "function"
    },
    {
      "inputs": [
        {
          "internalType": "address",
          "name": "from",
          "type": "address"
        },
        {
          "internalType": "address",
          "name": "to",
          "type": "address"
        },
        {
          "internalType": "uint256",
          "name": "tokenId",
          "type": "uint256"
        }
      ],
      "name": "safeTransferFrom",
      "outputs": [],
      "stateMutability": "nonpayable",
      "type": "function"
    },
    {
      "inputs": [
        {
          "internalType": "address",
          "name": "from",
          "type": "address"
        },
        {
          "internalType": "address",
          "name": "to",
          "type": "address"
        },
        {
          "internalType": "uint256",
          "name": "tokenId",
          "type": "uint256"
        },
        {
          "internalType": "bytes",
          "name": "data",
          "type": "bytes"
        }
      ],
      "name": "safeTransferFrom",
      "outputs": [],
      "stateMutability": "nonpayable",
      "type": "function"
    },
    {
      "inputs": [
        {
          "internalType": "address",
          "name": "operator",
          "type": "address"
        },
        {
          "internalType": "bool",
          "name": "approved",
          "type": "bool"
        }
      ],
      "name": "setApprovalForAll",
      "outputs": [],
      "stateMutability": "nonpayable",
      "type": "function"
    },
    {
      "inputs": [
        {
          "internalType": "bytes4",
          "name": "interfaceId",
          "type": "bytes4"
        }
      ],
      "name": "supportsInterface",
      "outputs": [
        {
          "internalType": "bool",
          "name": "",
          "type": "bool"
        }
      ],
      "stateMutability": "view",
      "type": "function"
    },
    {
      "inputs": [],
      "name": "symbol",
      "outputs": [
        {
          "internalType": "string",
          "name": "",
          "type": "string"
        }
      ],
      "stateMutability": "view",
      "type": "function"
    },
    {
      "inputs": [
        {
          "internalType": "uint256",
          "name": "tokenId",
          "type": "uint256"
        }
      ],
      "name": "tokenURI",
      "outputs": [
        {
          "internalType": "string",
          "name": "",
          "type": "string"
        }
      ],
      "stateMutability": "view",
      "type": "function"
    },
    {
      "inputs": [
        {
          "internalType": "address",
          "name": "from",
          "type": "address"
        },
        {
          "internalType": "address",
          "name": "to",
          "type": "address"
        },
        {
          "internalType": "uint256",
          "name": "tokenId",
          "type": "uint256"
        }
      ],
      "name": "transferFrom",
      "outputs": [],
      "stateMutability": "nonpayable",
      "type": "function"
    },
    {
      "inputs": [
        {
          "internalType": "address",
          "name": "newOwner",
          "type": "address"
        }
      ],
      "name": "transferOwnership",
      "outputs": [],
      "stateMutability": "nonpayable",
      "type": "function"
    }
  ],
  "bytecode": "0x60806040526040518060600160405280603a81526020016200365d603a9139600990816200002e91906200043d565b503480156200003c57600080fd5b506040518060400160405280600881526020017f4e46542d546573740000000000000000000000000000000000000000000000008152506040518060400160405280600881526020017f4e46542d544553540000000000000000000000000000000000000000000000008152508160009081620000ba91906200043d565b508060019081620000cc91906200043d565b505050620000ef620000e3620000f560201b60201c565b620000fd60201b60201c565b62000524565b600033905090565b6000600760009054906101000a900473ffffffffffffffffffffffffffffffffffffffff16905081600760006101000a81548173ffffffffffffffffffffffffffffffffffffffff021916908373ffffffffffffffffffffffffffffffffffffffff1602179055508173ffffffffffffffffffffffffffffffffffffffff168173ffffffffffffffffffffffffffffffffffffffff167f8be0079c531659141344cd1fd0a4f28419497f9722a3daafe3b4186f6b6457e060405160405180910390a35050565b600081519050919050565b7f4e487b7100000000000000000000000000000000000000000000000000000000600052604160045260246000fd5b7f4e487b7100000000000000000000000000000000000000000000000000000000600052602260045260246000fd5b600060028204905060018216806200024557607f821691505b6020821081036200025b576200025a620001fd565b5b50919050565b60008190508160005260206000209050919050565b60006020601f8301049050919050565b600082821b905092915050565b600060088302620002c57fffffffffffffffffffffffffffffffffffffffffffffffffffffffffffffffff8262000286565b620002d1868362000286565b95508019841693508086168417925050509392505050565b6000819050919050565b6000819050919050565b60006200031e620003186200031284620002e9565b620002f3565b620002e9565b9050919050565b6000819050919050565b6200033a83620002fd565b62000352620003498262000325565b84845462000293565b825550505050565b600090565b620003696200035a565b620003768184846200032f565b505050565b5b818110156200039e57620003926000826200035f565b6001810190506200037c565b5050565b601f821115620003ed57620003b78162000261565b620003c28462000276565b81016020851015620003d2578190505b620003ea620003e18562000276565b8301826200037b565b50505b505050565b600082821c905092915050565b60006200041260001984600802620003f2565b1980831691505092915050565b60006200042d8383620003ff565b9150826002028217905092915050565b6200044882620001c3565b67ffffffffffffffff811115620004645762000463620001ce565b5b6200047082546200022c565b6200047d828285620003a2565b600060209050601f831160018114620004b55760008415620004a0578287015190505b620004ac85826200041f565b8655506200051c565b601f198416620004c58662000261565b60005b82811015620004ef57848901518255600182019150602085019450602081019050620004c8565b868310156200050f57848901516200050b601f891682620003ff565b8355505b6001600288020188555050505b505050505050565b61312980620005346000396000f3fe608060405234801561001057600080fd5b50600436106101165760003560e01c806370a08231116100a2578063a22cb46511610071578063a22cb465146102cb578063b88d4fde146102e7578063c87b56dd14610303578063e985e9c514610333578063f2fde38b1461036357610116565b806370a0823114610255578063715018a6146102855780638da5cb5b1461028f57806395d89b41146102ad57610116565b806323b872dd116100e957806323b872dd146101b557806340d097c3146101d157806342842e0e146101ed57806342966c68146102095780636352211e1461022557610116565b806301ffc9a71461011b57806306fdde031461014b578063081812fc14610169578063095ea7b314610199575b600080fd5b61013560048036038101906101309190611fe2565b61037f565b604051610142919061202a565b60405180910390f35b610153610391565b60405161016091906120d5565b60405180910390f35b610183600480360381019061017e919061212d565b610423565b604051610190919061219b565b60405180910390f35b6101b360048036038101906101ae91906121e2565b610469565b005b6101cf60048036038101906101ca9190612222565b610580565b005b6101eb60048036038101906101e69190612275565b6105e0565b005b61020760048036038101906102029190612222565b6106a2565b005b610223600480360381019061021e919061212d565b6106c2565b005b61023f600480360381019061023a919061212d565b61071e565b60405161024c919061219b565b60405180910390f35b61026f600480360381019061026a9190612275565b6107a4565b60405161027c91906122b1565b60405180910390f35b61028d61085b565b005b61029761086f565b6040516102a4919061219b565b60405180910390f35b6102b5610899565b6040516102c291906120d5565b60405180910390f35b6102e560048036038101906102e091906122f8565b61092b565b005b61030160048036038101906102fc919061246d565b610941565b005b61031d6004803603810190610318919061212d565b6109a3565b60405161032a91906120d5565b60405180910390f35b61034d600480360381019061034891906124f0565b6109b5565b60405161035a919061202a565b60405180910390f35b61037d60048036038101906103789190612275565b610a49565b005b600061038a82610acc565b9050919050565b6060600080546103a09061255f565b80601f01602080910402602001604051908101604052809291908181526020018280546103cc9061255f565b80156104195780601f106103ee57610100808354040283529160200191610419565b820191906000526020600020905b8154815290600101906020018083116103fc57829003601f168201915b5050505050905090565b600061042e82610b2d565b6004600083815260200190815260200160002060009054906101000a900473ffffffffffffffffffffffffffffffffffffffff169050919050565b60006104748261071e565b90508073ffffffffffffffffffffffffffffffffffffffff168373ffffffffffffffffffffffffffffffffffffffff16036104e4576040517f08c379a00000000000000000000000000000000000000000000000000000000081526004016104db90612602565b60405180910390fd5b8073ffffffffffffffffffffffffffffffffffffffff16610503610b78565b73ffffffffffffffffffffffffffffffffffffffff16148061053257506105318161052c610b78565b6109b5565b5b610571576040517f08c379a000000000000000000000000000000000000000000000000000000000815260040161056890612694565b60405180910390fd5b61057b8383610b80565b505050565b61059161058b610b78565b82610c39565b6105d0576040517f08c379a00000000000000000000000000000000000000000000000000000000081526004016105c790612726565b60405180910390fd5b6105db838383610cce565b505050565b6105e8610fc7565b60006105f46008611045565b90506106006008611053565b61060a8282611069565b61069e816009805461061b9061255f565b80601f01602080910402602001604051908101604052809291908181526020018280546106479061255f565b80156106945780601f1061066957610100808354040283529160200191610694565b820191906000526020600020905b81548152906001019060200180831161067757829003601f168201915b5050505050611087565b5050565b6106bd83838360405180602001604052806000815250610941565b505050565b6106d36106cd610b78565b82610c39565b610712576040517f08c379a000000000000000000000000000000000000000000000000000000000815260040161070990612726565b60405180910390fd5b61071b8161112b565b50565b60008061072a83611137565b9050600073ffffffffffffffffffffffffffffffffffffffff168173ffffffffffffffffffffffffffffffffffffffff160361079b576040517f08c379a000000000000000000000000000000000000000000000000000000000815260040161079290612792565b60405180910390fd5b80915050919050565b60008073ffffffffffffffffffffffffffffffffffffffff168273ffffffffffffffffffffffffffffffffffffffff1603610814576040517f08c379a000000000000000000000000000000000000000000000000000000000815260040161080b90612824565b60405180910390fd5b600360008373ffffffffffffffffffffffffffffffffffffffff1673ffffffffffffffffffffffffffffffffffffffff168152602001908152602001600020549050919050565b610863610fc7565b61086d6000611174565b565b6000600760009054906101000a900473ffffffffffffffffffffffffffffffffffffffff16905090565b6060600180546108a89061255f565b80601f01602080910402602001604051908101604052809291908181526020018280546108d49061255f565b80156109215780601f106108f657610100808354040283529160200191610921565b820191906000526020600020905b81548152906001019060200180831161090457829003601f168201915b5050505050905090565b61093d610936610b78565b838361123a565b5050565b61095261094c610b78565b83610c39565b610991576040517f08c379a000000000000000000000000000000000000000000000000000000000815260040161098890612726565b60405180910390fd5b61099d848484846113a6565b50505050565b60606109ae82611402565b9050919050565b6000600560008473ffffffffffffffffffffffffffffffffffffffff1673ffffffffffffffffffffffffffffffffffffffff16815260200190815260200160002060008373ffffffffffffffffffffffffffffffffffffffff1673ffffffffffffffffffffffffffffffffffffffff16815260200190815260200160002060009054906101000a900460ff16905092915050565b610a51610fc7565b600073ffffffffffffffffffffffffffffffffffffffff168173ffffffffffffffffffffffffffffffffffffffff1603610ac0576040517f08c379a0000000000000000000000000000000000000000000000000000000008152600401610ab7906128b6565b60405180910390fd5b610ac981611174565b50565b6000634906490660e01b7bffffffffffffffffffffffffffffffffffffffffffffffffffffffff1916827bffffffffffffffffffffffffffffffffffffffffffffffffffffffff19161480610b265750610b2582611514565b5b9050919050565b610b36816115f6565b610b75576040517f08c379a0000000000000000000000000000000000000000000000000000000008152600401610b6c90612792565b60405180910390fd5b50565b600033905090565b816004600083815260200190815260200160002060006101000a81548173ffffffffffffffffffffffffffffffffffffffff021916908373ffffffffffffffffffffffffffffffffffffffff160217905550808273ffffffffffffffffffffffffffffffffffffffff16610bf38361071e565b73ffffffffffffffffffffffffffffffffffffffff167f8c5be1e5ebec7d5bd14f71427d1e84f3dd0314c0f7b2291e5b200ac8c7c3b92560405160405180910390a45050565b600080610c458361071e565b90508073ffffffffffffffffffffffffffffffffffffffff168473ffffffffffffffffffffffffffffffffffffffff161480610c875750610c8681856109b5565b5b80610cc557508373ffffffffffffffffffffffffffffffffffffffff16610cad84610423565b73ffffffffffffffffffffffffffffffffffffffff16145b91505092915050565b8273ffffffffffffffffffffffffffffffffffffffff16610cee8261071e565b73ffffffffffffffffffffffffffffffffffffffff1614610d44576040517f08c379a0000000000000000000000000000000000000000000000000000000008152600401610d3b90612948565b60405180910390fd5b600073ffffffffffffffffffffffffffffffffffffffff168273ffffffffffffffffffffffffffffffffffffffff1603610db3576040517f08c379a0000000000000000000000000000000000000000000000000000000008152600401610daa906129da565b60405180910390fd5b610dc08383836001611637565b8273ffffffffffffffffffffffffffffffffffffffff16610de08261071e565b73ffffffffffffffffffffffffffffffffffffffff1614610e36576040517f08c379a0000000000000000000000000000000000000000000000000000000008152600401610e2d90612948565b60405180910390fd5b6004600082815260200190815260200160002060006101000a81549073ffffffffffffffffffffffffffffffffffffffff02191690556001600360008573ffffffffffffffffffffffffffffffffffffffff1673ffffffffffffffffffffffffffffffffffffffff168152602001908152602001600020600082825403925050819055506001600360008473ffffffffffffffffffffffffffffffffffffffff1673ffffffffffffffffffffffffffffffffffffffff16815260200190815260200160002060008282540192505081905550816002600083815260200190815260200160002060006101000a81548173ffffffffffffffffffffffffffffffffffffffff021916908373ffffffffffffffffffffffffffffffffffffffff160217905550808273ffffffffffffffffffffffffffffffffffffffff168473ffffffffffffffffffffffffffffffffffffffff167fddf252ad1be2c89b69c2b068fc378daa952ba7f163c4a11628f55a4df523b3ef60405160405180910390a4610fc2838383600161163d565b505050565b610fcf610b78565b73ffffffffffffffffffffffffffffffffffffffff16610fed61086f565b73ffffffffffffffffffffffffffffffffffffffff1614611043576040517f08c379a000000000000000000000000000000000000000000000000000000000815260040161103a90612a46565b60405180910390fd5b565b600081600001549050919050565b6001816000016000828254019250508190555050565b611083828260405180602001604052806000815250611643565b5050565b611090826115f6565b6110cf576040517f08c379a00000000000000000000000000000000000000000000000000000000081526004016110c690612ad8565b60405180910390fd5b806006600084815260200190815260200160002090816110ef9190612ca4565b507ff8e1a15aba9398e019f0b49df1a4fde98ee17ae345cb5f6b5e2c27f5033e8ce78260405161111f91906122b1565b60405180910390a15050565b6111348161169e565b50565b60006002600083815260200190815260200160002060009054906101000a900473ffffffffffffffffffffffffffffffffffffffff169050919050565b6000600760009054906101000a900473ffffffffffffffffffffffffffffffffffffffff16905081600760006101000a81548173ffffffffffffffffffffffffffffffffffffffff021916908373ffffffffffffffffffffffffffffffffffffffff1602179055508173ffffffffffffffffffffffffffffffffffffffff168173ffffffffffffffffffffffffffffffffffffffff167f8be0079c531659141344cd1fd0a4f28419497f9722a3daafe3b4186f6b6457e060405160405180910390a35050565b8173ffffffffffffffffffffffffffffffffffffffff168373ffffffffffffffffffffffffffffffffffffffff16036112a8576040517f08c379a000000000000000000000000000000000000000000000000000000000815260040161129f90612dc2565b60405180910390fd5b80600560008573ffffffffffffffffffffffffffffffffffffffff1673ffffffffffffffffffffffffffffffffffffffff16815260200190815260200160002060008473ffffffffffffffffffffffffffffffffffffffff1673ffffffffffffffffffffffffffffffffffffffff16815260200190815260200160002060006101000a81548160ff0219169083151502179055508173ffffffffffffffffffffffffffffffffffffffff168373ffffffffffffffffffffffffffffffffffffffff167f17307eab39ab6107e8899845ad3d59bd9653f200f220920489ca2b5937696c3183604051611399919061202a565b60405180910390a3505050565b6113b1848484610cce565b6113bd848484846116f1565b6113fc576040517f08c379a00000000000000000000000000000000000000000000000000000000081526004016113f390612e54565b60405180910390fd5b50505050565b606061140d82610b2d565b600060066000848152602001908152602001600020805461142d9061255f565b80601f01602080910402602001604051908101604052809291908181526020018280546114599061255f565b80156114a65780601f1061147b576101008083540402835291602001916114a6565b820191906000526020600020905b81548152906001019060200180831161148957829003601f168201915b5050505050905060006114b7611878565b905060008151036114cc57819250505061150f565b6000825111156115015780826040516020016114e9929190612eb0565b6040516020818303038152906040529250505061150f565b61150a84611898565b925050505b919050565b60007f80ac58cd000000000000000000000000000000000000000000000000000000007bffffffffffffffffffffffffffffffffffffffffffffffffffffffff1916827bffffffffffffffffffffffffffffffffffffffffffffffffffffffff191614806115df57507f5b5e139f000000000000000000000000000000000000000000000000000000007bffffffffffffffffffffffffffffffffffffffffffffffffffffffff1916827bffffffffffffffffffffffffffffffffffffffffffffffffffffffff1916145b806115ef57506115ee82611900565b5b9050919050565b60008073ffffffffffffffffffffffffffffffffffffffff1661161883611137565b73ffffffffffffffffffffffffffffffffffffffff1614159050919050565b50505050565b50505050565b61164d838361196a565b61165a60008484846116f1565b611699576040517f08c379a000000000000000000000000000000000000000000000000000000000815260040161169090612e54565b60405180910390fd5b505050565b6116a781611b87565b60006006600083815260200190815260200160002080546116c79061255f565b9050146116ee576006600082815260200190815260200160002060006116ed9190611f19565b5b50565b60006117128473ffffffffffffffffffffffffffffffffffffffff16611cd5565b1561186b578373ffffffffffffffffffffffffffffffffffffffff1663150b7a0261173b610b78565b8786866040518563ffffffff1660e01b815260040161175d9493929190612f29565b6020604051808303816000875af192505050801561179957506040513d601f19601f820116820180604052508101906117969190612f8a565b60015b61181b573d80600081146117c9576040519150601f19603f3d011682016040523d82523d6000602084013e6117ce565b606091505b506000815103611813576040517f08c379a000000000000000000000000000000000000000000000000000000000815260040161180a90612e54565b60405180910390fd5b805181602001fd5b63150b7a0260e01b7bffffffffffffffffffffffffffffffffffffffffffffffffffffffff1916817bffffffffffffffffffffffffffffffffffffffffffffffffffffffff191614915050611870565b600190505b949350505050565b60606040518060600160405280603581526020016130bf60359139905090565b60606118a382610b2d565b60006118ad611878565b905060008151116118cd57604051806020016040528060008152506118f8565b806118d784611cf8565b6040516020016118e8929190612eb0565b6040516020818303038152906040525b915050919050565b60007f01ffc9a7000000000000000000000000000000000000000000000000000000007bffffffffffffffffffffffffffffffffffffffffffffffffffffffff1916827bffffffffffffffffffffffffffffffffffffffffffffffffffffffff1916149050919050565b600073ffffffffffffffffffffffffffffffffffffffff168273ffffffffffffffffffffffffffffffffffffffff16036119d9576040517f08c379a00000000000000000000000000000000000000000000000000000000081526004016119d090613003565b60405180910390fd5b6119e2816115f6565b15611a22576040517f08c379a0000000000000000000000000000000000000000000000000000000008152600401611a199061306f565b60405180910390fd5b611a30600083836001611637565b611a39816115f6565b15611a79576040517f08c379a0000000000000000000000000000000000000000000000000000000008152600401611a709061306f565b60405180910390fd5b6001600360008473ffffffffffffffffffffffffffffffffffffffff1673ffffffffffffffffffffffffffffffffffffffff16815260200190815260200160002060008282540192505081905550816002600083815260200190815260200160002060006101000a81548173ffffffffffffffffffffffffffffffffffffffff021916908373ffffffffffffffffffffffffffffffffffffffff160217905550808273ffffffffffffffffffffffffffffffffffffffff16600073ffffffffffffffffffffffffffffffffffffffff167fddf252ad1be2c89b69c2b068fc378daa952ba7f163c4a11628f55a4df523b3ef60405160405180910390a4611b8360008383600161163d565b5050565b6000611b928261071e565b9050611ba2816000846001611637565b611bab8261071e565b90506004600083815260200190815260200160002060006101000a81549073ffffffffffffffffffffffffffffffffffffffff02191690556001600360008373ffffffffffffffffffffffffffffffffffffffff1673ffffffffffffffffffffffffffffffffffffffff168152602001908152602001600020600082825403925050819055506002600083815260200190815260200160002060006101000a81549073ffffffffffffffffffffffffffffffffffffffff021916905581600073ffffffffffffffffffffffffffffffffffffffff168273ffffffffffffffffffffffffffffffffffffffff167fddf252ad1be2c89b69c2b068fc378daa952ba7f163c4a11628f55a4df523b3ef60405160405180910390a4611cd181600084600161163d565b5050565b6000808273ffffffffffffffffffffffffffffffffffffffff163b119050919050565b606060006001611d0784611dc6565b01905060008167ffffffffffffffff811115611d2657611d25612342565b5b6040519080825280601f01601f191660200182016040528015611d585781602001600182028036833780820191505090505b509050600082602001820190505b600115611dbb578080600190039150507f3031323334353637383961626364656600000000000000000000000000000000600a86061a8153600a8581611daf57611dae61308f565b5b04945060008503611d66575b819350505050919050565b600080600090507a184f03e93ff9f4daa797ed6e38ed64bf6a1f0100000000000000008310611e24577a184f03e93ff9f4daa797ed6e38ed64bf6a1f0100000000000000008381611e1a57611e1961308f565b5b0492506040810190505b6d04ee2d6d415b85acef81000000008310611e61576d04ee2d6d415b85acef81000000008381611e5757611e5661308f565b5b0492506020810190505b662386f26fc100008310611e9057662386f26fc100008381611e8657611e8561308f565b5b0492506010810190505b6305f5e1008310611eb9576305f5e1008381611eaf57611eae61308f565b5b0492506008810190505b6127108310611ede576127108381611ed457611ed361308f565b5b0492506004810190505b60648310611f015760648381611ef757611ef661308f565b5b0492506002810190505b600a8310611f10576001810190505b80915050919050565b508054611f259061255f565b6000825580601f10611f375750611f56565b601f016020900490600052602060002090810190611f559190611f59565b5b50565b5b80821115611f72576000816000905550600101611f5a565b5090565b6000604051905090565b600080fd5b600080fd5b60007fffffffff0000000000000000000000000000000000000000000000000000000082169050919050565b611fbf81611f8a565b8114611fca57600080fd5b50565b600081359050611fdc81611fb6565b92915050565b600060208284031215611ff857611ff7611f80565b5b600061200684828501611fcd565b91505092915050565b60008115159050919050565b6120248161200f565b82525050565b600060208201905061203f600083018461201b565b92915050565b600081519050919050565b600082825260208201905092915050565b60005b8381101561207f578082015181840152602081019050612064565b60008484015250505050565b6000601f19601f8301169050919050565b60006120a782612045565b6120b18185612050565b93506120c1818560208601612061565b6120ca8161208b565b840191505092915050565b600060208201905081810360008301526120ef818461209c565b905092915050565b6000819050919050565b61210a816120f7565b811461211557600080fd5b50565b60008135905061212781612101565b92915050565b60006020828403121561214357612142611f80565b5b600061215184828501612118565b91505092915050565b600073ffffffffffffffffffffffffffffffffffffffff82169050919050565b60006121858261215a565b9050919050565b6121958161217a565b82525050565b60006020820190506121b0600083018461218c565b92915050565b6121bf8161217a565b81146121ca57600080fd5b50565b6000813590506121dc816121b6565b92915050565b600080604083850312156121f9576121f8611f80565b5b6000612207858286016121cd565b925050602061221885828601612118565b9150509250929050565b60008060006060848603121561223b5761223a611f80565b5b6000612249868287016121cd565b935050602061225a868287016121cd565b925050604061226b86828701612118565b9150509250925092565b60006020828403121561228b5761228a611f80565b5b6000612299848285016121cd565b91505092915050565b6122ab816120f7565b82525050565b60006020820190506122c660008301846122a2565b92915050565b6122d58161200f565b81146122e057600080fd5b50565b6000813590506122f2816122cc565b92915050565b6000806040838503121561230f5761230e611f80565b5b600061231d858286016121cd565b925050602061232e858286016122e3565b9150509250929050565b600080fd5b600080fd5b7f4e487b7100000000000000000000000000000000000000000000000000000000600052604160045260246000fd5b61237a8261208b565b810181811067ffffffffffffffff8211171561239957612398612342565b5b80604052505050565b60006123ac611f76565b90506123b88282612371565b919050565b600067ffffffffffffffff8211156123d8576123d7612342565b5b6123e18261208b565b9050602081019050919050565b82818337600083830152505050565b600061241061240b846123bd565b6123a2565b90508281526020810184848401111561242c5761242b61233d565b5b6124378482856123ee565b509392505050565b600082601f83011261245457612453612338565b5b81356124648482602086016123fd565b91505092915050565b6000806000806080858703121561248757612486611f80565b5b6000612495878288016121cd565b94505060206124a6878288016121cd565b93505060406124b787828801612118565b925050606085013567ffffffffffffffff8111156124d8576124d7611f85565b5b6124e48782880161243f565b91505092959194509250565b6000806040838503121561250757612506611f80565b5b6000612515858286016121cd565b9250506020612526858286016121cd565b9150509250929050565b7f4e487b7100000000000000000000000000000000000000000000000000000000600052602260045260246000fd5b6000600282049050600182168061257757607f821691505b60208210810361258a57612589612530565b5b50919050565b7f4552433732313a20617070726f76616c20746f2063757272656e74206f776e6560008201527f7200000000000000000000000000000000000000000000000000000000000000602082015250565b60006125ec602183612050565b91506125f782612590565b604082019050919050565b6000602082019050818103600083015261261b816125df565b9050919050565b7f4552433732313a20617070726f76652063616c6c6572206973206e6f7420746f60008201527f6b656e206f776e6572206f7220617070726f76656420666f7220616c6c000000602082015250565b600061267e603d83612050565b915061268982612622565b604082019050919050565b600060208201905081810360008301526126ad81612671565b9050919050565b7f4552433732313a2063616c6c6572206973206e6f7420746f6b656e206f776e6560008201527f72206f7220617070726f76656400000000000000000000000000000000000000602082015250565b6000612710602d83612050565b915061271b826126b4565b604082019050919050565b6000602082019050818103600083015261273f81612703565b9050919050565b7f4552433732313a20696e76616c696420746f6b656e2049440000000000000000600082015250565b600061277c601883612050565b915061278782612746565b602082019050919050565b600060208201905081810360008301526127ab8161276f565b9050919050565b7f4552433732313a2061646472657373207a65726f206973206e6f74206120766160008201527f6c6964206f776e65720000000000000000000000000000000000000000000000602082015250565b600061280e602983612050565b9150612819826127b2565b604082019050919050565b6000602082019050818103600083015261283d81612801565b9050919050565b7f4f776e61626c653a206e6577206f776e657220697320746865207a65726f206160008201527f6464726573730000000000000000000000000000000000000000000000000000602082015250565b60006128a0602683612050565b91506128ab82612844565b604082019050919050565b600060208201905081810360008301526128cf81612893565b9050919050565b7f4552433732313a207472616e736665722066726f6d20696e636f72726563742060008201527f6f776e6572000000000000000000000000000000000000000000000000000000602082015250565b6000612932602583612050565b915061293d826128d6565b604082019050919050565b6000602082019050818103600083015261296181612925565b9050919050565b7f4552433732313a207472616e7366657220746f20746865207a65726f2061646460008201527f7265737300000000000000000000000000000000000000000000000000000000602082015250565b60006129c4602483612050565b91506129cf82612968565b604082019050919050565b600060208201905081810360008301526129f3816129b7565b9050919050565b7f4f776e61626c653a2063616c6c6572206973206e6f7420746865206f776e6572600082015250565b6000612a30602083612050565b9150612a3b826129fa565b602082019050919050565b60006020820190508181036000830152612a5f81612a23565b9050919050565b7f45524337323155524953746f726167653a2055524920736574206f66206e6f6e60008201527f6578697374656e7420746f6b656e000000000000000000000000000000000000602082015250565b6000612ac2602e83612050565b9150612acd82612a66565b604082019050919050565b60006020820190508181036000830152612af181612ab5565b9050919050565b60008190508160005260206000209050919050565b60006020601f8301049050919050565b600082821b905092915050565b600060088302612b5a7fffffffffffffffffffffffffffffffffffffffffffffffffffffffffffffffff82612b1d565b612b648683612b1d565b95508019841693508086168417925050509392505050565b6000819050919050565b6000612ba1612b9c612b97846120f7565b612b7c565b6120f7565b9050919050565b6000819050919050565b612bbb83612b86565b612bcf612bc782612ba8565b848454612b2a565b825550505050565b600090565b612be4612bd7565b612bef818484612bb2565b505050565b5b81811015612c1357612c08600082612bdc565b600181019050612bf5565b5050565b601f821115612c5857612c2981612af8565b612c3284612b0d565b81016020851015612c41578190505b612c55612c4d85612b0d565b830182612bf4565b50505b505050565b600082821c905092915050565b6000612c7b60001984600802612c5d565b1980831691505092915050565b6000612c948383612c6a565b9150826002028217905092915050565b612cad82612045565b67ffffffffffffffff811115612cc657612cc5612342565b5b612cd0825461255f565b612cdb828285612c17565b600060209050601f831160018114612d0e5760008415612cfc578287015190505b612d068582612c88565b865550612d6e565b601f198416612d1c86612af8565b60005b82811015612d4457848901518255600182019150602085019450602081019050612d1f565b86831015612d615784890151612d5d601f891682612c6a565b8355505b6001600288020188555050505b505050505050565b7f4552433732313a20617070726f766520746f2063616c6c657200000000000000600082015250565b6000612dac601983612050565b9150612db782612d76565b602082019050919050565b60006020820190508181036000830152612ddb81612d9f565b9050919050565b7f4552433732313a207472616e7366657220746f206e6f6e20455243373231526560008201527f63656976657220696d706c656d656e7465720000000000000000000000000000602082015250565b6000612e3e603283612050565b9150612e4982612de2565b604082019050919050565b60006020820190508181036000830152612e6d81612e31565b9050919050565b600081905092915050565b6000612e8a82612045565b612e948185612e74565b9350612ea4818560208601612061565b80840191505092915050565b6000612ebc8285612e7f565b9150612ec88284612e7f565b91508190509392505050565b600081519050919050565b600082825260208201905092915050565b6000612efb82612ed4565b612f058185612edf565b9350612f15818560208601612061565b612f1e8161208b565b840191505092915050565b6000608082019050612f3e600083018761218c565b612f4b602083018661218c565b612f5860408301856122a2565b8181036060830152612f6a8184612ef0565b905095945050505050565b600081519050612f8481611fb6565b92915050565b600060208284031215612fa057612f9f611f80565b5b6000612fae84828501612f75565b91505092915050565b7f4552433732313a206d696e7420746f20746865207a65726f2061646472657373600082015250565b6000612fed602083612050565b9150612ff882612fb7565b602082019050919050565b6000602082019050818103600083015261301c81612fe0565b9050919050565b7f4552433732313a20746f6b656e20616c7265616479206d696e74656400000000600082015250565b6000613059601c83612050565b915061306482613023565b602082019050919050565b600060208201905081810360008301526130888161304c565b9050919050565b7f4e487b7100000000000000000000000000000000000000000000000000000000600052601260045260246000fdfe697066733a2f2f516d65536a53696e4870506e6d586d73704d6a776958794e367a533445397a63636172694752336a786361577471a2646970667358221220e4b0d7956c8e1881539c42830ecc48d704e3ad7df3458ccc18683d979c22097b64736f6c63430008100033697066733a2f2f516d65536a53696e4870506e6d586d73704d6a776958794e367a533445397a63636172694752336a7863615774712f38303233",
  "linkReferences": {},
  "deployedLinkReferences": {}
}