{
  "_format": "hh-sol-artifact-1",
  "contractName": "PlayerContract",
  "sourceName": "contracts/Playerdata.sol",
  "abi": [
    {
      "anonymous": false,
      "inputs": [
        {
          "indexed": true,
          "internalType": "address",
          "name": "previousOwner",
          "type": "address"
        },
        {
          "indexed": true,
          "internalType": "address",
          "name": "newOwner",
          "type": "address"
        }
      ],
      "name": "OwnershipTransferred",
      "type": "event"
    },
    {
      "inputs": [
        {
          "internalType": "address",
          "name": "",
          "type": "address"
        }
      ],
      "name": "Player",
      "outputs": [
        {
          "internalType": "string",
          "name": "name",
          "type": "string"
        },
        {
          "internalType": "uint256",
          "name": "Stamina",
          "type": "uint256"
        },
        {
          "internalType": "uint256",
          "name": "Life",
          "type": "uint256"
        },
        {
          "internalType": "uint256",
          "name": "Strength",
          "type": "uint256"
        },
        {
          "internalType": "uint256",
          "name": "Intelligence",
          "type": "uint256"
        },
        {
          "internalType": "uint256",
          "name": "Attack",
          "type": "uint256"
        },
        {
          "internalType": "uint256",
          "name": "Defense",
          "type": "uint256"
        },
        {
          "internalType": "uint256",
          "name": "Level",
          "type": "uint256"
        }
      ],
      "stateMutability": "view",
      "type": "function"
    },
    {
      "inputs": [],
      "name": "allowedContract",
      "outputs": [
        {
          "internalType": "address",
          "name": "",
          "type": "address"
        }
      ],
      "stateMutability": "view",
      "type": "function"
    },
    {
      "inputs": [
        {
          "internalType": "string",
          "name": "_name",
          "type": "string"
        }
      ],
      "name": "createPlayer",
      "outputs": [],
      "stateMutability": "nonpayable",
      "type": "function"
    },
    {
      "inputs": [],
      "name": "owner",
      "outputs": [
        {
          "internalType": "address",
          "name": "",
          "type": "address"
        }
      ],
      "stateMutability": "view",
      "type": "function"
    },
    {
      "inputs": [],
      "name": "renounceOwnership",
      "outputs": [],
      "stateMutability": "nonpayable",
      "type": "function"
    },
    {
      "inputs": [
        {
          "internalType": "address",
          "name": "_playerAddress",
          "type": "address"
        }
      ],
      "name": "returnPlayerProperties",
      "outputs": [
        {
          "components": [
            {
              "internalType": "string",
              "name": "name",
              "type": "string"
            },
            {
              "internalType": "uint256",
              "name": "Stamina",
              "type": "uint256"
            },
            {
              "internalType": "uint256",
              "name": "Life",
              "type": "uint256"
            },
            {
              "internalType": "uint256",
              "name": "Strength",
              "type": "uint256"
            },
            {
              "internalType": "uint256",
              "name": "Intelligence",
              "type": "uint256"
            },
            {
              "internalType": "uint256",
              "name": "Attack",
              "type": "uint256"
            },
            {
              "internalType": "uint256",
              "name": "Defense",
              "type": "uint256"
            },
            {
              "internalType": "uint256",
              "name": "Level",
              "type": "uint256"
            }
          ],
          "internalType": "struct PlayerContract.PlayerData",
          "name": "",
          "type": "tuple"
        }
      ],
      "stateMutability": "view",
      "type": "function"
    },
    {
      "inputs": [
        {
          "internalType": "address",
          "name": "_allowedContract",
          "type": "address"
        }
      ],
      "name": "setAllowedContract",
      "outputs": [],
      "stateMutability": "nonpayable",
      "type": "function"
    },
    {
      "inputs": [
        {
          "internalType": "address",
          "name": "newOwner",
          "type": "address"
        }
      ],
      "name": "transferOwnership",
      "outputs": [],
      "stateMutability": "nonpayable",
      "type": "function"
    },
    {
      "inputs": [
        {
          "internalType": "address",
          "name": "_player",
          "type": "address"
        },
        {
          "internalType": "string",
          "name": "_name",
          "type": "string"
        }
      ],
      "name": "updatePlayerName",
      "outputs": [],
      "stateMutability": "nonpayable",
      "type": "function"
    },
    {
      "inputs": [
        {
          "internalType": "address",
          "name": "_player",
          "type": "address"
        },
        {
          "internalType": "uint256",
          "name": "_Stamina",
          "type": "uint256"
        },
        {
          "internalType": "uint256",
          "name": "_Life",
          "type": "uint256"
        },
        {
          "internalType": "uint256",
          "name": "_Strength",
          "type": "uint256"
        },
        {
          "internalType": "uint256",
          "name": "_Intelligence",
          "type": "uint256"
        },
        {
          "internalType": "uint256",
          "name": "_Attack",
          "type": "uint256"
        },
        {
          "internalType": "uint256",
          "name": "_Defense",
          "type": "uint256"
        },
        {
          "internalType": "uint256",
          "name": "_Level",
          "type": "uint256"
        }
      ],
      "name": "updatePlayerProperties",
      "outputs": [],
      "stateMutability": "nonpayable",
      "type": "function"
    }
  ],
  "bytecode": "0x608060405234801561001057600080fd5b5061002d61002261003260201b60201c565b61003a60201b60201c565b6100fe565b600033905090565b60008060009054906101000a900473ffffffffffffffffffffffffffffffffffffffff169050816000806101000a81548173ffffffffffffffffffffffffffffffffffffffff021916908373ffffffffffffffffffffffffffffffffffffffff1602179055508173ffffffffffffffffffffffffffffffffffffffff168173ffffffffffffffffffffffffffffffffffffffff167f8be0079c531659141344cd1fd0a4f28419497f9722a3daafe3b4186f6b6457e060405160405180910390a35050565b6117718061010d6000396000f3fe608060405234801561001057600080fd5b506004361061009e5760003560e01c8063b586a74011610066578063b586a7401461014e578063ce5f4bd01461016a578063e7fad3f414610186578063e89d5a89146101a2578063f2fde38b146101c05761009e565b806358a3230c146100a3578063715018a6146100d357806386e32ed0146100dd5780638da5cb5b146100f957806399e682eb14610117575b600080fd5b6100bd60048036038101906100b89190610d22565b6101dc565b6040516100ca9190610ea8565b60405180910390f35b6100db61030e565b005b6100f760048036038101906100f29190610d22565b610322565b005b61010161036e565b60405161010e9190610ed9565b60405180910390f35b610131600480360381019061012c9190610d22565b610397565b604051610145989796959493929190610f4d565b60405180910390f35b61016860048036038101906101639190611037565b610467565b005b610184600480360381019061017f91906110b0565b6106b4565b005b6101a0600480360381019061019b9190611166565b6109bd565b005b6101aa610a82565b6040516101b79190610ed9565b60405180910390f35b6101da60048036038101906101d59190610d22565b610aa8565b005b6101e4610c75565b600160008373ffffffffffffffffffffffffffffffffffffffff1673ffffffffffffffffffffffffffffffffffffffff1681526020019081526020016000206040518061010001604052908160008201805461023f906111f5565b80601f016020809104026020016040519081016040528092919081815260200182805461026b906111f5565b80156102b85780601f1061028d576101008083540402835291602001916102b8565b820191906000526020600020905b81548152906001019060200180831161029b57829003601f168201915b505050505081526020016001820154815260200160028201548152602001600382015481526020016004820154815260200160058201548152602001600682015481526020016007820154815250509050919050565b610316610b2b565b6103206000610ba9565b565b61032a610b2b565b80600260006101000a81548173ffffffffffffffffffffffffffffffffffffffff021916908373ffffffffffffffffffffffffffffffffffffffff16021790555050565b60008060009054906101000a900473ffffffffffffffffffffffffffffffffffffffff16905090565b60016020528060005260406000206000915090508060000180546103ba906111f5565b80601f01602080910402602001604051908101604052809291908181526020018280546103e6906111f5565b80156104335780601f1061040857610100808354040283529160200191610433565b820191906000526020600020905b81548152906001019060200180831161041657829003601f168201915b5050505050908060010154908060020154908060030154908060040154908060050154908060060154908060070154905088565b8181600160003373ffffffffffffffffffffffffffffffffffffffff1673ffffffffffffffffffffffffffffffffffffffff16815260200190815260200160002060000191826104b892919061140c565b506005600160003373ffffffffffffffffffffffffffffffffffffffff1673ffffffffffffffffffffffffffffffffffffffff168152602001908152602001600020600101819055506005600160003373ffffffffffffffffffffffffffffffffffffffff1673ffffffffffffffffffffffffffffffffffffffff168152602001908152602001600020600201819055506005600160003373ffffffffffffffffffffffffffffffffffffffff1673ffffffffffffffffffffffffffffffffffffffff168152602001908152602001600020600301819055506005600160003373ffffffffffffffffffffffffffffffffffffffff1673ffffffffffffffffffffffffffffffffffffffff168152602001908152602001600020600401819055506005600160003373ffffffffffffffffffffffffffffffffffffffff1673ffffffffffffffffffffffffffffffffffffffff168152602001908152602001600020600501819055506005600160003373ffffffffffffffffffffffffffffffffffffffff1673ffffffffffffffffffffffffffffffffffffffff1681526020019081526020016000206006018190555060018060003373ffffffffffffffffffffffffffffffffffffffff1673ffffffffffffffffffffffffffffffffffffffff168152602001908152602001600020600701819055505050565b600260009054906101000a900473ffffffffffffffffffffffffffffffffffffffff1673ffffffffffffffffffffffffffffffffffffffff163373ffffffffffffffffffffffffffffffffffffffff1614610744576040517f08c379a000000000000000000000000000000000000000000000000000000000815260040161073b9061154e565b60405180910390fd5b86600160008a73ffffffffffffffffffffffffffffffffffffffff1673ffffffffffffffffffffffffffffffffffffffff1681526020019081526020016000206001016000828254610796919061159d565b9250508190555085600160008a73ffffffffffffffffffffffffffffffffffffffff1673ffffffffffffffffffffffffffffffffffffffff16815260200190815260200160002060020160008282546107ef919061159d565b9250508190555084600160008a73ffffffffffffffffffffffffffffffffffffffff1673ffffffffffffffffffffffffffffffffffffffff1681526020019081526020016000206003016000828254610848919061159d565b9250508190555083600160008a73ffffffffffffffffffffffffffffffffffffffff1673ffffffffffffffffffffffffffffffffffffffff16815260200190815260200160002060040160008282546108a1919061159d565b9250508190555082600160008a73ffffffffffffffffffffffffffffffffffffffff1673ffffffffffffffffffffffffffffffffffffffff16815260200190815260200160002060050160008282546108fa919061159d565b9250508190555081600160008a73ffffffffffffffffffffffffffffffffffffffff1673ffffffffffffffffffffffffffffffffffffffff1681526020019081526020016000206006016000828254610953919061159d565b9250508190555080600160008a73ffffffffffffffffffffffffffffffffffffffff1673ffffffffffffffffffffffffffffffffffffffff16815260200190815260200160002060070160008282546109ac919061159d565b925050819055505050505050505050565b3373ffffffffffffffffffffffffffffffffffffffff168373ffffffffffffffffffffffffffffffffffffffff1614610a2b576040517f08c379a0000000000000000000000000000000000000000000000000000000008152600401610a229061161d565b60405180910390fd5b8181600160008673ffffffffffffffffffffffffffffffffffffffff1673ffffffffffffffffffffffffffffffffffffffff1681526020019081526020016000206000019182610a7c92919061140c565b50505050565b600260009054906101000a900473ffffffffffffffffffffffffffffffffffffffff1681565b610ab0610b2b565b600073ffffffffffffffffffffffffffffffffffffffff168173ffffffffffffffffffffffffffffffffffffffff1603610b1f576040517f08c379a0000000000000000000000000000000000000000000000000000000008152600401610b16906116af565b60405180910390fd5b610b2881610ba9565b50565b610b33610c6d565b73ffffffffffffffffffffffffffffffffffffffff16610b5161036e565b73ffffffffffffffffffffffffffffffffffffffff1614610ba7576040517f08c379a0000000000000000000000000000000000000000000000000000000008152600401610b9e9061171b565b60405180910390fd5b565b60008060009054906101000a900473ffffffffffffffffffffffffffffffffffffffff169050816000806101000a81548173ffffffffffffffffffffffffffffffffffffffff021916908373ffffffffffffffffffffffffffffffffffffffff1602179055508173ffffffffffffffffffffffffffffffffffffffff168173ffffffffffffffffffffffffffffffffffffffff167f8be0079c531659141344cd1fd0a4f28419497f9722a3daafe3b4186f6b6457e060405160405180910390a35050565b600033905090565b60405180610100016040528060608152602001600081526020016000815260200160008152602001600081526020016000815260200160008152602001600081525090565b600080fd5b600080fd5b600073ffffffffffffffffffffffffffffffffffffffff82169050919050565b6000610cef82610cc4565b9050919050565b610cff81610ce4565b8114610d0a57600080fd5b50565b600081359050610d1c81610cf6565b92915050565b600060208284031215610d3857610d37610cba565b5b6000610d4684828501610d0d565b91505092915050565b600081519050919050565b600082825260208201905092915050565b60005b83811015610d89578082015181840152602081019050610d6e565b60008484015250505050565b6000601f19601f8301169050919050565b6000610db182610d4f565b610dbb8185610d5a565b9350610dcb818560208601610d6b565b610dd481610d95565b840191505092915050565b6000819050919050565b610df281610ddf565b82525050565b6000610100830160008301518482036000860152610e168282610da6565b9150506020830151610e2b6020860182610de9565b506040830151610e3e6040860182610de9565b506060830151610e516060860182610de9565b506080830151610e646080860182610de9565b5060a0830151610e7760a0860182610de9565b5060c0830151610e8a60c0860182610de9565b5060e0830151610e9d60e0860182610de9565b508091505092915050565b60006020820190508181036000830152610ec28184610df8565b905092915050565b610ed381610ce4565b82525050565b6000602082019050610eee6000830184610eca565b92915050565b600082825260208201905092915050565b6000610f1082610d4f565b610f1a8185610ef4565b9350610f2a818560208601610d6b565b610f3381610d95565b840191505092915050565b610f4781610ddf565b82525050565b6000610100820190508181036000830152610f68818b610f05565b9050610f77602083018a610f3e565b610f846040830189610f3e565b610f916060830188610f3e565b610f9e6080830187610f3e565b610fab60a0830186610f3e565b610fb860c0830185610f3e565b610fc560e0830184610f3e565b9998505050505050505050565b600080fd5b600080fd5b600080fd5b60008083601f840112610ff757610ff6610fd2565b5b8235905067ffffffffffffffff81111561101457611013610fd7565b5b6020830191508360018202830111156110305761102f610fdc565b5b9250929050565b6000806020838503121561104e5761104d610cba565b5b600083013567ffffffffffffffff81111561106c5761106b610cbf565b5b61107885828601610fe1565b92509250509250929050565b61108d81610ddf565b811461109857600080fd5b50565b6000813590506110aa81611084565b92915050565b600080600080600080600080610100898b0312156110d1576110d0610cba565b5b60006110df8b828c01610d0d565b98505060206110f08b828c0161109b565b97505060406111018b828c0161109b565b96505060606111128b828c0161109b565b95505060806111238b828c0161109b565b94505060a06111348b828c0161109b565b93505060c06111458b828c0161109b565b92505060e06111568b828c0161109b565b9150509295985092959890939650565b60008060006040848603121561117f5761117e610cba565b5b600061118d86828701610d0d565b935050602084013567ffffffffffffffff8111156111ae576111ad610cbf565b5b6111ba86828701610fe1565b92509250509250925092565b7f4e487b7100000000000000000000000000000000000000000000000000000000600052602260045260246000fd5b6000600282049050600182168061120d57607f821691505b6020821081036112205761121f6111c6565b5b50919050565b600082905092915050565b7f4e487b7100000000000000000000000000000000000000000000000000000000600052604160045260246000fd5b60008190508160005260206000209050919050565b60006020601f8301049050919050565b600082821b905092915050565b6000600883026112c27fffffffffffffffffffffffffffffffffffffffffffffffffffffffffffffffff82611285565b6112cc8683611285565b95508019841693508086168417925050509392505050565b6000819050919050565b60006113096113046112ff84610ddf565b6112e4565b610ddf565b9050919050565b6000819050919050565b611323836112ee565b61133761132f82611310565b848454611292565b825550505050565b600090565b61134c61133f565b61135781848461131a565b505050565b5b8181101561137b57611370600082611344565b60018101905061135d565b5050565b601f8211156113c05761139181611260565b61139a84611275565b810160208510156113a9578190505b6113bd6113b585611275565b83018261135c565b50505b505050565b600082821c905092915050565b60006113e3600019846008026113c5565b1980831691505092915050565b60006113fc83836113d2565b9150826002028217905092915050565b6114168383611226565b67ffffffffffffffff81111561142f5761142e611231565b5b61143982546111f5565b61144482828561137f565b6000601f8311600181146114735760008415611461578287013590505b61146b85826113f0565b8655506114d3565b601f19841661148186611260565b60005b828110156114a957848901358255600182019150602085019450602081019050611484565b868310156114c657848901356114c2601f8916826113d2565b8355505b6001600288020188555050505b50505050505050565b7f4f6e6c7920616c6c6f77656420636f6e74726163742063616e2063616c6c207460008201527f6869732066756e6374696f6e0000000000000000000000000000000000000000602082015250565b6000611538602c83610ef4565b9150611543826114dc565b604082019050919050565b600060208201905081810360008301526115678161152b565b9050919050565b7f4e487b7100000000000000000000000000000000000000000000000000000000600052601160045260246000fd5b60006115a882610ddf565b91506115b383610ddf565b92508282019050808211156115cb576115ca61156e565b5b92915050565b7f596f752063616e277420646f2069742e00000000000000000000000000000000600082015250565b6000611607601083610ef4565b9150611612826115d1565b602082019050919050565b60006020820190508181036000830152611636816115fa565b9050919050565b7f4f776e61626c653a206e6577206f776e657220697320746865207a65726f206160008201527f6464726573730000000000000000000000000000000000000000000000000000602082015250565b6000611699602683610ef4565b91506116a48261163d565b604082019050919050565b600060208201905081810360008301526116c88161168c565b9050919050565b7f4f776e61626c653a2063616c6c6572206973206e6f7420746865206f776e6572600082015250565b6000611705602083610ef4565b9150611710826116cf565b602082019050919050565b60006020820190508181036000830152611734816116f8565b905091905056fea2646970667358221220684dba34807a9654190cff1dea390b0fb962f29ec2851a16c7de93b32dc9ed1c64736f6c63430008100033",
  "linkReferences": {},
  "deployedLinkReferences": {}
}