{
  "_format": "hh-sol-artifact-1",
  "contractName": "RegistContract",
  "sourceName": "contracts/Register_novice_package.sol",
  "abi": [
    {
      "inputs": [],
      "name": "getTotalRegist",
      "outputs": [
        {
          "internalType": "uint256",
          "name": "",
          "type": "uint256"
        }
      ],
      "stateMutability": "view",
      "type": "function"
    },
    {
      "inputs": [
        {
          "internalType": "address",
          "name": "_address",
          "type": "address"
        }
      ],
      "name": "isRegisted",
      "outputs": [
        {
          "internalType": "bool",
          "name": "",
          "type": "bool"
        }
      ],
      "stateMutability": "view",
      "type": "function"
    },
    {
      "inputs": [],
      "name": "regist",
      "outputs": [],
      "stateMutability": "nonpayable",
      "type": "function"
    }
  ],
  "bytecode": "0x608060405234801561001057600080fd5b50610411806100206000396000f3fe608060405234801561001057600080fd5b50600436106100415760003560e01c806317b7cf2b14610046578063598ec49814610076578063cb4b6b8a14610094575b600080fd5b610060600480360381019061005b9190610264565b61009e565b60405161006d91906102ac565b60405180910390f35b61007e6100f3565b60405161008b91906102e0565b60405180910390f35b61009c6100fd565b005b60008060008373ffffffffffffffffffffffffffffffffffffffff1673ffffffffffffffffffffffffffffffffffffffff16815260200190815260200160002060009054906101000a900460ff169050919050565b6000600154905090565b600015156000803373ffffffffffffffffffffffffffffffffffffffff1673ffffffffffffffffffffffffffffffffffffffff16815260200190815260200160002060009054906101000a900460ff1615151461018f576040517f08c379a000000000000000000000000000000000000000000000000000000000815260040161018690610358565b60405180910390fd5b60016000803373ffffffffffffffffffffffffffffffffffffffff1673ffffffffffffffffffffffffffffffffffffffff16815260200190815260200160002060006101000a81548160ff02191690831515021790555060018060008282546101f891906103a7565b92505081905550565b600080fd5b600073ffffffffffffffffffffffffffffffffffffffff82169050919050565b600061023182610206565b9050919050565b61024181610226565b811461024c57600080fd5b50565b60008135905061025e81610238565b92915050565b60006020828403121561027a57610279610201565b5b60006102888482850161024f565b91505092915050565b60008115159050919050565b6102a681610291565b82525050565b60006020820190506102c1600083018461029d565b92915050565b6000819050919050565b6102da816102c7565b82525050565b60006020820190506102f560008301846102d1565b92915050565b600082825260208201905092915050565b7f616c726561647920726567697374656400000000000000000000000000000000600082015250565b60006103426010836102fb565b915061034d8261030c565b602082019050919050565b6000602082019050818103600083015261037181610335565b9050919050565b7f4e487b7100000000000000000000000000000000000000000000000000000000600052601160045260246000fd5b60006103b2826102c7565b91506103bd836102c7565b92508282019050808211156103d5576103d4610378565b5b9291505056fea2646970667358221220f19de837d7b6a8b3b52d0fb3f4f84627990370839e4fe6b77289001f0a11b9bf64736f6c63430008100033",
  "linkReferences": {},
  "deployedLinkReferences": {}
}