{
	"data": {
		"bytecode": {
			"linkReferences": {},
			"object": "60806040523480156200001157600080fd5b5060405162004512380380620045128339818101604052810190620000379190620001fa565b826000806101000a81548173ffffffffffffffffffffffffffffffffffffffff021916908373ffffffffffffffffffffffffffffffffffffffff16021790555081600160006101000a81548173ffffffffffffffffffffffffffffffffffffffff021916908373ffffffffffffffffffffffffffffffffffffffff16021790555080600260006101000a81548173ffffffffffffffffffffffffffffffffffffffff021916908373ffffffffffffffffffffffffffffffffffffffff16021790555033600360006101000a81548173ffffffffffffffffffffffffffffffffffffffff021916908373ffffffffffffffffffffffffffffffffffffffff160217905550600060088190555050505062000256565b600080fd5b600073ffffffffffffffffffffffffffffffffffffffff82169050919050565b60006200017d8262000150565b9050919050565b6200018f8162000170565b81146200019b57600080fd5b50565b600081519050620001af8162000184565b92915050565b6000620001c28262000150565b9050919050565b620001d481620001b5565b8114620001e057600080fd5b50565b600081519050620001f481620001c9565b92915050565b6000806000606084860312156200021657620002156200014b565b5b600062000226868287016200019e565b93505060206200023986828701620001e3565b92505060406200024c86828701620001e3565b9150509250925092565b6142ac80620002666000396000f3fe608060405260043610620000fe5760003560e01c80638db4b00f1162000097578063c4f987a51162000061578063c4f987a51462000351578063ce8ef7a6146200037f578063d311636b14620003c3578063fd8a1682146200040f57620000fe565b80638db4b00f1462000283578063990dc9db14620002b1578063a85c38ef14620002df578063b47cc556146200032357620000fe565b80634af18f4f11620000d95780634af18f4f14620001ad57806363c69f0814620001cd5780636b6096fc1462000211578063856652e9146200023f57620000fe565b80631d65e77e14620001035780631e7f931f146200014757806326858d241462000177575b600080fd5b3480156200011057600080fd5b506200012f600480360381019062000129919062001ef4565b62000453565b6040516200013e9190620021d5565b60405180910390f35b3480156200015457600080fd5b506200015f6200050a565b6040516200016e9190620022b6565b60405180910390f35b6200019560048036038101906200018f91906200242b565b620005aa565b604051620001a49190620024cd565b60405180910390f35b620001cb6004803603810190620001c5919062001ef4565b62000ad1565b005b348015620001da57600080fd5b50620001f96004803603810190620001f391906200251b565b62000baa565b6040516200020891906200260a565b60405180910390f35b3480156200021e57600080fd5b506200023d60048036038101906200023791906200262e565b62000c43565b005b3480156200024c57600080fd5b506200026b60048036038101906200026591906200262e565b62000ce4565b6040516200027a9190620024cd565b60405180910390f35b3480156200029057600080fd5b50620002af6004803603810190620002a991906200262e565b62000d16565b005b348015620002be57600080fd5b50620002dd6004803603810190620002d791906200262e565b620011a7565b005b348015620002ec57600080fd5b506200030b600480360381019062000305919062001ef4565b62001239565b6040516200031a9190620026e0565b60405180910390f35b3480156200033057600080fd5b506200034f60048036038101906200034991906200251b565b6200126c565b005b3480156200035e57600080fd5b506200037d60048036038101906200037791906200251b565b62001343565b005b3480156200038c57600080fd5b50620003ab6004803603810190620003a591906200251b565b6200146a565b604051620003ba91906200278c565b60405180910390f35b348015620003d057600080fd5b50620003ef6004803603810190620003e9919062001ef4565b6200151c565b60405162000406999897969594939291906200285d565b60405180910390f35b3480156200041c57600080fd5b506200043b60048036038101906200043591906200251b565b62001918565b6040516200044a9190620024cd565b60405180910390f35b6200045d62001dd1565b600160009054906101000a900473ffffffffffffffffffffffffffffffffffffffff1673ffffffffffffffffffffffffffffffffffffffff16631d65e77e836040518263ffffffff1660e01b8152600401620004ba9190620024cd565b600060405180830381865afa158015620004d8573d6000803e3d6000fd5b505050506040513d6000823e3d601f19601f8201168201806040525081019062000503919062002b37565b9050919050565b6060600260009054906101000a900473ffffffffffffffffffffffffffffffffffffffff1673ffffffffffffffffffffffffffffffffffffffff16631e7f931f6040518163ffffffff1660e01b8152600401600060405180830381865afa1580156200057a573d6000803e3d6000fd5b505050506040513d6000823e3d601f19601f82011682018060405250810190620005a5919062002c63565b905090565b600082341015620005f2576040517f08c379a0000000000000000000000000000000000000000000000000000000008152600401620005e99062002d04565b60405180910390fd5b600060086000815480929190620006099062002d55565b919050559050600033878786604051620006239062001e64565b62000632949392919062002da2565b604051809103906000f0801580156200064f573d6000803e3d6000fd5b509050806006600084815260200190815260200160002060006101000a81548173ffffffffffffffffffffffffffffffffffffffff021916908373ffffffffffffffffffffffffffffffffffffffff160217905550600760003373ffffffffffffffffffffffffffffffffffffffff1673ffffffffffffffffffffffffffffffffffffffff1681526020019081526020016000208290806001815401808255809150506001900390600052602060002001600090919091909150557f1a72d6383b1fc1b015bedc584a040a3cba7b0a5e33b00a43a1693b852be2382e826040516200073b919062002e46565b60405180910390a160008054906101000a900473ffffffffffffffffffffffffffffffffffffffff1673ffffffffffffffffffffffffffffffffffffffff1663f340fa0134336040518363ffffffff1660e01b81526004016200079f919062002e78565b6000604051808303818588803b158015620007b957600080fd5b505af1158015620007ce573d6000803e3d6000fd5b50505050506000600160009054906101000a900473ffffffffffffffffffffffffffffffffffffffff1673ffffffffffffffffffffffffffffffffffffffff1663d2f1d4486000858573ffffffffffffffffffffffffffffffffffffffff166358e9d3d56040518163ffffffff1660e01b8152600401600060405180830381865afa15801562000862573d6000803e3d6000fd5b505050506040513d6000823e3d601f19601f820116820180604052508101906200088d919062002e95565b8673ffffffffffffffffffffffffffffffffffffffff1663523b0b366040518163ffffffff1660e01b8152600401602060405180830381865afa158015620008d9573d6000803e3d6000fd5b505050506040513d601f19601f82011682018060405250810190620008ff919062002ee6565b8773ffffffffffffffffffffffffffffffffffffffff1663bee80fc56040518163ffffffff1660e01b8152600401602060405180830381865afa1580156200094b573d6000803e3d6000fd5b505050506040513d601f19601f8201168201806040525081019062000971919062002ee6565b6040518663ffffffff1660e01b81526004016200099395949392919062002f29565b6020604051808303816000875af1158015620009b3573d6000803e3d6000fd5b505050506040513d601f19601f82011682018060405250810190620009d9919062002ee6565b90508173ffffffffffffffffffffffffffffffffffffffff166390ef73e2826040518263ffffffff1660e01b815260040162000a169190620024cd565b600060405180830381600087803b15801562000a3157600080fd5b505af115801562000a46573d6000803e3d6000fd5b505050508173ffffffffffffffffffffffffffffffffffffffff1663ba0179b5876040518263ffffffff1660e01b815260040162000a859190620024cd565b600060405180830381600087803b15801562000aa057600080fd5b505af115801562000ab5573d6000803e3d6000fd5b5050505062000ac362001930565b829350505050949350505050565b8034101562000b17576040517f08c379a000000000000000000000000000000000000000000000000000000000815260040162000b0e9062002d04565b60405180910390fd5b60008054906101000a900473ffffffffffffffffffffffffffffffffffffffff1673ffffffffffffffffffffffffffffffffffffffff1663f340fa0134336040518363ffffffff1660e01b815260040162000b73919062002e78565b6000604051808303818588803b15801562000b8d57600080fd5b505af115801562000ba2573d6000803e3d6000fd5b505050505050565b6060600760008373ffffffffffffffffffffffffffffffffffffffff1673ffffffffffffffffffffffffffffffffffffffff16815260200190815260200160002080548060200260200160405190810160405280929190818152602001828054801562000c3757602002820191906000526020600020905b81548152602001906001019080831162000c22575b50505050509050919050565b600260009054906101000a900473ffffffffffffffffffffffffffffffffffffffff1673ffffffffffffffffffffffffffffffffffffffff16636b6096fc83836040518363ffffffff1660e01b815260040162000ca292919062002f8d565b600060405180830381600087803b15801562000cbd57600080fd5b505af115801562000cd2573d6000803e3d6000fd5b5050505062000ce062001930565b5050565b6007602052816000526040600020818154811062000d0157600080fd5b90600052602060002001600091509150505481565b600260009054906101000a900473ffffffffffffffffffffffffffffffffffffffff1673ffffffffffffffffffffffffffffffffffffffff1663866591f783836040518363ffffffff1660e01b815260040162000d7592919062002f8d565b602060405180830381865afa15801562000d93573d6000803e3d6000fd5b505050506040513d601f19601f8201168201806040525081019062000db9919062002feb565b62000dfb576040517f08c379a000000000000000000000000000000000000000000000000000000000815260040162000df2906200306d565b60405180910390fd5b6000600160009054906101000a900473ffffffffffffffffffffffffffffffffffffffff1673ffffffffffffffffffffffffffffffffffffffff16631d65e77e836040518263ffffffff1660e01b815260040162000e5a9190620024cd565b600060405180830381865afa15801562000e78573d6000803e3d6000fd5b505050506040513d6000823e3d601f19601f8201168201806040525081019062000ea3919062002b37565b9050600160009054906101000a900473ffffffffffffffffffffffffffffffffffffffff1673ffffffffffffffffffffffffffffffffffffffff1663e1e29558836040518263ffffffff1660e01b815260040162000f029190620024cd565b600060405180830381600087803b15801562000f1d57600080fd5b505af115801562000f32573d6000803e3d6000fd5b505050506000600660008360200151815260200190815260200160002060009054906101000a900473ffffffffffffffffffffffffffffffffffffffff169050600260009054906101000a900473ffffffffffffffffffffffffffffffffffffffff1673ffffffffffffffffffffffffffffffffffffffff16633fc0f48b856040518263ffffffff1660e01b815260040162000fcf919062002e78565b600060405180830381600087803b15801562000fea57600080fd5b505af115801562000fff573d6000803e3d6000fd5b505050508073ffffffffffffffffffffffffffffffffffffffff1663b8896eb660026040518263ffffffff1660e01b81526004016200103f91906200308f565b600060405180830381600087803b1580156200105a57600080fd5b505af11580156200106f573d6000803e3d6000fd5b505050506000600a60098373ffffffffffffffffffffffffffffffffffffffff1663c35905c66040518163ffffffff1660e01b8152600401602060405180830381865afa158015620010c5573d6000803e3d6000fd5b505050506040513d601f19601f82011682018060405250810190620010eb919062002ee6565b620010f79190620030ac565b62001103919062003126565b905060008054906101000a900473ffffffffffffffffffffffffffffffffffffffff1673ffffffffffffffffffffffffffffffffffffffff1663f7fb7ea586836040518363ffffffff1660e01b81526004016200116292919062002f8d565b600060405180830381600087803b1580156200117d57600080fd5b505af115801562001192573d6000803e3d6000fd5b50505050620011a062001930565b5050505050565b80471015620011ed576040517f08c379a0000000000000000000000000000000000000000000000000000000008152600401620011e490620031ae565b60405180910390fd5b8173ffffffffffffffffffffffffffffffffffffffff166108fc829081150290604051600060405180830381858888f1935050505015801562001234573d6000803e3d6000fd5b505050565b60066020528060005260406000206000915054906101000a900473ffffffffffffffffffffffffffffffffffffffff1681565b600360009054906101000a900473ffffffffffffffffffffffffffffffffffffffff1673ffffffffffffffffffffffffffffffffffffffff163373ffffffffffffffffffffffffffffffffffffffff1614620012ff576040517f08c379a0000000000000000000000000000000000000000000000000000000008152600401620012f69062003246565b60405180910390fd5b80600460006101000a81548173ffffffffffffffffffffffffffffffffffffffff021916908373ffffffffffffffffffffffffffffffffffffffff16021790555050565b600360009054906101000a900473ffffffffffffffffffffffffffffffffffffffff1673ffffffffffffffffffffffffffffffffffffffff163373ffffffffffffffffffffffffffffffffffffffff1614620013d6576040517f08c379a0000000000000000000000000000000000000000000000000000000008152600401620013cd90620032de565b60405180910390fd5b600260009054906101000a900473ffffffffffffffffffffffffffffffffffffffff1673ffffffffffffffffffffffffffffffffffffffff1663c4f987a5826040518263ffffffff1660e01b815260040162001433919062002e78565b600060405180830381600087803b1580156200144e57600080fd5b505af115801562001463573d6000803e3d6000fd5b5050505050565b6200147462001e72565b600260009054906101000a900473ffffffffffffffffffffffffffffffffffffffff1673ffffffffffffffffffffffffffffffffffffffff166374a44d12836040518263ffffffff1660e01b8152600401620014d1919062002e78565b60a060405180830381865afa158015620014ef573d6000803e3d6000fd5b505050506040513d601f19601f820116820180604052508101906200151591906200339b565b9050919050565b60008060008060008060008060608998506000600660008c815260200190815260200160002060009054906101000a900473ffffffffffffffffffffffffffffffffffffffff1690508073ffffffffffffffffffffffffffffffffffffffff16632c8989456040518163ffffffff1660e01b8152600401602060405180830381865afa158015620015b1573d6000803e3d6000fd5b505050506040513d601f19601f82011682018060405250810190620015d7919062002ee6565b98508073ffffffffffffffffffffffffffffffffffffffff1663e7b0b1906040518163ffffffff1660e01b8152600401602060405180830381865afa15801562001625573d6000803e3d6000fd5b505050506040513d601f19601f820116820180604052508101906200164b919062002ee6565b97508073ffffffffffffffffffffffffffffffffffffffff1663109e94cf6040518163ffffffff1660e01b8152600401602060405180830381865afa15801562001699573d6000803e3d6000fd5b505050506040513d601f19601f82011682018060405250810190620016bf9190620033cd565b96508073ffffffffffffffffffffffffffffffffffffffff1663c35905c66040518163ffffffff1660e01b8152600401602060405180830381865afa1580156200170d573d6000803e3d6000fd5b505050506040513d601f19601f8201168201806040525081019062001733919062002ee6565b95508073ffffffffffffffffffffffffffffffffffffffff16632728e28b6040518163ffffffff1660e01b8152600401602060405180830381865afa15801562001781573d6000803e3d6000fd5b505050506040513d601f19601f82011682018060405250810190620017a7919062003427565b94508073ffffffffffffffffffffffffffffffffffffffff1663bee80fc56040518163ffffffff1660e01b8152600401602060405180830381865afa158015620017f5573d6000803e3d6000fd5b505050506040513d601f19601f820116820180604052508101906200181b919062002ee6565b93508073ffffffffffffffffffffffffffffffffffffffff1663523b0b366040518163ffffffff1660e01b8152600401602060405180830381865afa15801562001869573d6000803e3d6000fd5b505050506040513d601f19601f820116820180604052508101906200188f919062002ee6565b92508073ffffffffffffffffffffffffffffffffffffffff166358e9d3d56040518163ffffffff1660e01b8152600401600060405180830381865afa158015620018dd573d6000803e3d6000fd5b505050506040513d6000823e3d601f19601f8201168201806040525081019062001908919062002e95565b9150509193959799909294969850565b60056020528060005260406000206000915090505481565b7fc33356bc2bad2ce263b056da5d061d4e89c336823d5e77f14c1383aedb7a1b3a600160009054906101000a900473ffffffffffffffffffffffffffffffffffffffff1673ffffffffffffffffffffffffffffffffffffffff1663f650e0cf6040518163ffffffff1660e01b8152600401602060405180830381865afa158015620019bf573d6000803e3d6000fd5b505050506040513d601f19601f82011682018060405250810190620019e5919062002feb565b604051620019f491906200346a565b60405180910390a1600160009054906101000a900473ffffffffffffffffffffffffffffffffffffffff1673ffffffffffffffffffffffffffffffffffffffff1663f650e0cf6040518163ffffffff1660e01b8152600401602060405180830381865afa15801562001a6a573d6000803e3d6000fd5b505050506040513d601f19601f8201168201806040525081019062001a90919062002feb565b1562001dcf576000600160009054906101000a900473ffffffffffffffffffffffffffffffffffffffff1673ffffffffffffffffffffffffffffffffffffffff166398c436206040518163ffffffff1660e01b8152600401600060405180830381865afa15801562001b06573d6000803e3d6000fd5b505050506040513d6000823e3d601f19601f8201168201806040525081019062001b31919062002b37565b90506000600260009054906101000a900473ffffffffffffffffffffffffffffffffffffffff1673ffffffffffffffffffffffffffffffffffffffff16638b09bffd8360a0015184600001518561010001518661012001516040518563ffffffff1660e01b815260040162001baa949392919062003487565b6020604051808303816000875af115801562001bca573d6000803e3d6000fd5b505050506040513d601f19601f8201168201806040525081019062001bf0919062002ee6565b9050600260009054906101000a900473ffffffffffffffffffffffffffffffffffffffff1673ffffffffffffffffffffffffffffffffffffffff16636e5720a26040518163ffffffff1660e01b8152600401602060405180830381865afa15801562001c60573d6000803e3d6000fd5b505050506040513d601f19601f8201168201806040525081019062001c86919062002ee6565b811462001dcc57600660008360200151815260200190815260200160002060009054906101000a900473ffffffffffffffffffffffffffffffffffffffff1673ffffffffffffffffffffffffffffffffffffffff1663b8896eb660016040518263ffffffff1660e01b815260040162001d0091906200308f565b600060405180830381600087803b15801562001d1b57600080fd5b505af115801562001d30573d6000803e3d6000fd5b50505050600160009054906101000a900473ffffffffffffffffffffffffffffffffffffffff1673ffffffffffffffffffffffffffffffffffffffff166301612c408360000151836040518363ffffffff1660e01b815260040162001d97929190620034d4565b600060405180830381600087803b15801562001db257600080fd5b505af115801562001dc7573d6000803e3d6000fd5b505050505b50505b565b60405180610140016040528060008152602001600081526020016000600181111562001e025762001e0162001f37565b5b81526020016000600281111562001e1e5762001e1d62001f37565b5b81526020016060815260200160008152602001600073ffffffffffffffffffffffffffffffffffffffff1681526020016000815260200160008152602001600081525090565b610d75806200350283390190565b6040518060a001604052806000815260200160008152602001600015158152602001600015158152602001600081525090565b6000604051905090565b600080fd5b600080fd5b6000819050919050565b62001ece8162001eb9565b811462001eda57600080fd5b50565b60008135905062001eee8162001ec3565b92915050565b60006020828403121562001f0d5762001f0c62001eaf565b5b600062001f1d8482850162001edd565b91505092915050565b62001f318162001eb9565b82525050565b7f4e487b7100000000000000000000000000000000000000000000000000000000600052602160045260246000fd5b6002811062001f7a5762001f7962001f37565b5b50565b600081905062001f8d8262001f66565b919050565b600062001f9f8262001f7d565b9050919050565b62001fb18162001f92565b82525050565b6003811062001fcb5762001fca62001f37565b5b50565b600081905062001fde8262001fb7565b919050565b600062001ff08262001fce565b9050919050565b620020028162001fe3565b82525050565b600081519050919050565b600082825260208201905092915050565b60005b838110156200204457808201518184015260208101905062002027565b60008484015250505050565b6000601f19601f8301169050919050565b60006200206e8262002008565b6200207a818562002013565b93506200208c81856020860162002024565b620020978162002050565b840191505092915050565b600073ffffffffffffffffffffffffffffffffffffffff82169050919050565b6000620020cf82620020a2565b9050919050565b620020e181620020c2565b82525050565b60006101408301600083015162002102600086018262001f26565b50602083015162002117602086018262001f26565b5060408301516200212c604086018262001fa6565b50606083015162002141606086018262001ff7565b50608083015184820360808601526200215b828262002061565b91505060a08301516200217260a086018262001f26565b5060c08301516200218760c0860182620020d6565b5060e08301516200219c60e086018262001f26565b50610100830151620021b361010086018262001f26565b50610120830151620021ca61012086018262001f26565b508091505092915050565b60006020820190508181036000830152620021f18184620020e7565b905092915050565b600081519050919050565b600082825260208201905092915050565b6000819050602082019050919050565b6000620022338383620020d6565b60208301905092915050565b6000602082019050919050565b60006200225982620021f9565b62002265818562002204565b9350620022728362002215565b8060005b83811015620022a95781516200228d888262002225565b97506200229a836200223f565b92505060018101905062002276565b5085935050505092915050565b60006020820190508181036000830152620022d281846200224c565b905092915050565b600080fd5b600080fd5b7f4e487b7100000000000000000000000000000000000000000000000000000000600052604160045260246000fd5b6200231e8262002050565b810181811067ffffffffffffffff8211171562002340576200233f620022e4565b5b80604052505050565b60006200235562001ea5565b905062002363828262002313565b919050565b600067ffffffffffffffff821115620023865762002385620022e4565b5b620023918262002050565b9050602081019050919050565b82818337600083830152505050565b6000620023c4620023be8462002368565b62002349565b905082815260208101848484011115620023e357620023e2620022df565b5b620023f08482856200239e565b509392505050565b600082601f83011262002410576200240f620022da565b5b813562002422848260208601620023ad565b91505092915050565b6000806000806080858703121562002448576200244762001eaf565b5b600085013567ffffffffffffffff81111562002469576200246862001eb4565b5b6200247787828801620023f8565b94505060206200248a8782880162001edd565b93505060406200249d8782880162001edd565b9250506060620024b08782880162001edd565b91505092959194509250565b620024c78162001eb9565b82525050565b6000602082019050620024e46000830184620024bc565b92915050565b620024f581620020c2565b81146200250157600080fd5b50565b6000813590506200251581620024ea565b92915050565b60006020828403121562002534576200253362001eaf565b5b6000620025448482850162002504565b91505092915050565b600081519050919050565b600082825260208201905092915050565b6000819050602082019050919050565b600062002587838362001f26565b60208301905092915050565b6000602082019050919050565b6000620025ad826200254d565b620025b9818562002558565b9350620025c68362002569565b8060005b83811015620025fd578151620025e1888262002579565b9750620025ee8362002593565b925050600181019050620025ca565b5085935050505092915050565b60006020820190508181036000830152620026268184620025a0565b905092915050565b6000806040838503121562002648576200264762001eaf565b5b6000620026588582860162002504565b92505060206200266b8582860162001edd565b9150509250929050565b6000819050919050565b6000620026a06200269a6200269484620020a2565b62002675565b620020a2565b9050919050565b6000620026b4826200267f565b9050919050565b6000620026c882620026a7565b9050919050565b620026da81620026bb565b82525050565b6000602082019050620026f76000830184620026cf565b92915050565b60008115159050919050565b6200271481620026fd565b82525050565b60a08201600082015162002732600085018262001f26565b50602082015162002747602085018262001f26565b5060408201516200275c604085018262002709565b50606082015162002771606085018262002709565b50608082015162002786608085018262001f26565b50505050565b600060a082019050620027a360008301846200271a565b92915050565b620027b481620020c2565b82525050565b60048110620027ce57620027cd62001f37565b5b50565b6000819050620027e182620027ba565b919050565b6000620027f382620027d1565b9050919050565b6200280581620027e6565b82525050565b600082825260208201905092915050565b6000620028298262002008565b6200283581856200280b565b93506200284781856020860162002024565b620028528162002050565b840191505092915050565b60006101208201905062002875600083018c620024bc565b62002884602083018b620024bc565b62002893604083018a620024bc565b620028a26060830189620027a9565b620028b16080830188620024bc565b620028c060a0830187620027fa565b620028cf60c0830186620024bc565b620028de60e0830185620024bc565b818103610100830152620028f381846200281c565b90509a9950505050505050505050565b600080fd5b600080fd5b6000815190506200291e8162001ec3565b92915050565b600281106200293257600080fd5b50565b600081519050620029468162002924565b92915050565b600381106200295a57600080fd5b50565b6000815190506200296e816200294c565b92915050565b60006200298b620029858462002368565b62002349565b905082815260208101848484011115620029aa57620029a9620022df565b5b620029b784828562002024565b509392505050565b600082601f830112620029d757620029d6620022da565b5b8151620029e984826020860162002974565b91505092915050565b60008151905062002a0381620024ea565b92915050565b6000610140828403121562002a235762002a2262002903565b5b62002a3061014062002349565b9050600062002a42848285016200290d565b600083015250602062002a58848285016200290d565b602083015250604062002a6e8482850162002935565b604083015250606062002a84848285016200295d565b606083015250608082015167ffffffffffffffff81111562002aab5762002aaa62002908565b5b62002ab984828501620029bf565b60808301525060a062002acf848285016200290d565b60a08301525060c062002ae584828501620029f2565b60c08301525060e062002afb848285016200290d565b60e08301525061010062002b12848285016200290d565b6101008301525061012062002b2a848285016200290d565b6101208301525092915050565b60006020828403121562002b505762002b4f62001eaf565b5b600082015167ffffffffffffffff81111562002b715762002b7062001eb4565b5b62002b7f8482850162002a09565b91505092915050565b600067ffffffffffffffff82111562002ba65762002ba5620022e4565b5b602082029050602081019050919050565b600080fd5b600062002bd362002bcd8462002b88565b62002349565b9050808382526020820190506020840283018581111562002bf95762002bf862002bb7565b5b835b8181101562002c26578062002c118882620029f2565b84526020840193505060208101905062002bfb565b5050509392505050565b600082601f83011262002c485762002c47620022da565b5b815162002c5a84826020860162002bbc565b91505092915050565b60006020828403121562002c7c5762002c7b62001eaf565b5b600082015167ffffffffffffffff81111562002c9d5762002c9c62001eb4565b5b62002cab8482850162002c30565b91505092915050565b7f4e6f7420656e6f7567682066756e64732070726f76696465642e000000000000600082015250565b600062002cec601a836200280b565b915062002cf98262002cb4565b602082019050919050565b6000602082019050818103600083015262002d1f8162002cdd565b9050919050565b7f4e487b7100000000000000000000000000000000000000000000000000000000600052601160045260246000fd5b600062002d628262001eb9565b91507fffffffffffffffffffffffffffffffffffffffffffffffffffffffffffffffff820362002d975762002d9662002d26565b5b600182019050919050565b600060808201905062002db96000830187620027a9565b818103602083015262002dcd81866200281c565b905062002dde6040830185620024bc565b62002ded6060830184620024bc565b95945050505050565b7f4372656164206f72646572207375636365737321000000000000000000000000600082015250565b600062002e2e6014836200280b565b915062002e3b8262002df6565b602082019050919050565b6000604082019050818103600083015262002e618162002e1f565b905062002e726020830184620024bc565b92915050565b600060208201905062002e8f6000830184620027a9565b92915050565b60006020828403121562002eae5762002ead62001eaf565b5b600082015167ffffffffffffffff81111562002ecf5762002ece62001eb4565b5b62002edd84828501620029bf565b91505092915050565b60006020828403121562002eff5762002efe62001eaf565b5b600062002f0f848285016200290d565b91505092915050565b62002f238162001f92565b82525050565b600060a08201905062002f40600083018862002f18565b62002f4f6020830187620024bc565b818103604083015262002f6381866200281c565b905062002f746060830185620024bc565b62002f836080830184620024bc565b9695505050505050565b600060408201905062002fa46000830185620027a9565b62002fb36020830184620024bc565b9392505050565b62002fc581620026fd565b811462002fd157600080fd5b50565b60008151905062002fe58162002fba565b92915050565b60006020828403121562003004576200300362001eaf565b5b6000620030148482850162002fd4565b91505092915050565b7f496e76616c696420726571756573740000000000000000000000000000000000600082015250565b600062003055600f836200280b565b915062003062826200301d565b602082019050919050565b60006020820190508181036000830152620030888162003046565b9050919050565b6000602082019050620030a66000830184620027fa565b92915050565b6000620030b98262001eb9565b9150620030c68362001eb9565b9250828202620030d68162001eb9565b91508282048414831517620030f057620030ef62002d26565b5b5092915050565b7f4e487b7100000000000000000000000000000000000000000000000000000000600052601260045260246000fd5b6000620031338262001eb9565b9150620031408362001eb9565b925082620031535762003152620030f7565b5b828204905092915050565b7f496e73756666696369656e7420636f6e74726163742062616c616e63652e0000600082015250565b600062003196601e836200280b565b9150620031a3826200315e565b602082019050919050565b60006020820190508181036000830152620031c98162003187565b9050919050565b7f4f6e6c792061646d696e2063616e2073657420746865206d61726b6574706c6160008201527f636520616464726573732e000000000000000000000000000000000000000000602082015250565b60006200322e602b836200280b565b91506200323b82620031d0565b604082019050919050565b6000602082019050818103600083015262003261816200321f565b9050919050565b7f4f6e6c792061646d696e2063616e20706572666f726d2074686973206f70657260008201527f6174696f6e2e0000000000000000000000000000000000000000000000000000602082015250565b6000620032c66026836200280b565b9150620032d38262003268565b604082019050919050565b60006020820190508181036000830152620032f981620032b7565b9050919050565b600060a0828403121562003319576200331862002903565b5b6200332560a062002349565b9050600062003337848285016200290d565b60008301525060206200334d848285016200290d565b6020830152506040620033638482850162002fd4565b6040830152506060620033798482850162002fd4565b60608301525060806200338f848285016200290d565b60808301525092915050565b600060a08284031215620033b457620033b362001eaf565b5b6000620033c48482850162003300565b91505092915050565b600060208284031215620033e657620033e562001eaf565b5b6000620033f684828501620029f2565b91505092915050565b600481106200340d57600080fd5b50565b6000815190506200342181620033ff565b92915050565b60006020828403121562003440576200343f62001eaf565b5b6000620034508482850162003410565b91505092915050565b6200346481620026fd565b82525050565b600060208201905062003481600083018462003459565b92915050565b60006080820190506200349e6000830187620024bc565b620034ad6020830186620024bc565b620034bc6040830185620024bc565b620034cb6060830184620024bc565b95945050505050565b6000604082019050620034eb6000830185620024bc565b620034fa6020830184620024bc565b939250505056fe60806040523480156200001157600080fd5b5060405162000d7538038062000d7583398181016040528101906200003791906200031a565b60006001819055506000808190555083600260006101000a81548173ffffffffffffffffffffffffffffffffffffffff021916908373ffffffffffffffffffffffffffffffffffffffff16021790555060006003819055506000600660006101000a81548160ff02191690836003811115620000b857620000b7620003ab565b5b02179055508260049081620000ce91906200061b565b5081600581905550806007819055505050505062000702565b6000604051905090565b600080fd5b600080fd5b600073ffffffffffffffffffffffffffffffffffffffff82169050919050565b60006200012882620000fb565b9050919050565b6200013a816200011b565b81146200014657600080fd5b50565b6000815190506200015a816200012f565b92915050565b600080fd5b600080fd5b6000601f19601f8301169050919050565b7f4e487b7100000000000000000000000000000000000000000000000000000000600052604160045260246000fd5b620001b5826200016a565b810181811067ffffffffffffffff82111715620001d757620001d66200017b565b5b80604052505050565b6000620001ec620000e7565b9050620001fa8282620001aa565b919050565b600067ffffffffffffffff8211156200021d576200021c6200017b565b5b62000228826200016a565b9050602081019050919050565b60005b838110156200025557808201518184015260208101905062000238565b60008484015250505050565b6000620002786200027284620001ff565b620001e0565b90508281526020810184848401111562000297576200029662000165565b5b620002a484828562000235565b509392505050565b600082601f830112620002c457620002c362000160565b5b8151620002d684826020860162000261565b91505092915050565b6000819050919050565b620002f481620002df565b81146200030057600080fd5b50565b6000815190506200031481620002e9565b92915050565b60008060008060808587031215620003375762000336620000f1565b5b6000620003478782880162000149565b945050602085015167ffffffffffffffff8111156200036b576200036a620000f6565b5b6200037987828801620002ac565b93505060406200038c8782880162000303565b92505060606200039f8782880162000303565b91505092959194509250565b7f4e487b7100000000000000000000000000000000000000000000000000000000600052602160045260246000fd5b600081519050919050565b7f4e487b7100000000000000000000000000000000000000000000000000000000600052602260045260246000fd5b600060028204905060018216806200042d57607f821691505b602082108103620004435762000442620003e5565b5b50919050565b60008190508160005260206000209050919050565b60006020601f8301049050919050565b600082821b905092915050565b600060088302620004ad7fffffffffffffffffffffffffffffffffffffffffffffffffffffffffffffffff826200046e565b620004b986836200046e565b95508019841693508086168417925050509392505050565b6000819050919050565b6000620004fc620004f6620004f084620002df565b620004d1565b620002df565b9050919050565b6000819050919050565b6200051883620004db565b62000530620005278262000503565b8484546200047b565b825550505050565b600090565b6200054762000538565b620005548184846200050d565b505050565b5b818110156200057c57620005706000826200053d565b6001810190506200055a565b5050565b601f821115620005cb57620005958162000449565b620005a0846200045e565b81016020851015620005b0578190505b620005c8620005bf856200045e565b83018262000559565b50505b505050565b600082821c905092915050565b6000620005f060001984600802620005d0565b1980831691505092915050565b60006200060b8383620005dd565b9150826002028217905092915050565b6200062682620003da565b67ffffffffffffffff8111156200064257620006416200017b565b5b6200064e825462000414565b6200065b82828562000580565b600060209050601f8311600181146200069357600084156200067e578287015190505b6200068a8582620005fd565b865550620006fa565b601f198416620006a38662000449565b60005b82811015620006cd57848901518255600182019150602085019450602081019050620006a6565b86831015620006ed5784890151620006e9601f891682620005dd565b8355505b6001600288020188555050505b505050505050565b61066380620007126000396000f3fe608060405234801561001057600080fd5b50600436106100b45760003560e01c8063a85cb62911610071578063a85cb6291461016b578063b8896eb614610187578063ba0179b5146101a3578063bee80fc5146101bf578063c35905c6146101dd578063e7b0b190146101fb576100b4565b8063109e94cf146100b95780632728e28b146100d75780632c898945146100f5578063523b0b361461011357806358e9d3d51461013157806390ef73e21461014f575b600080fd5b6100c1610219565b6040516100ce919061038a565b60405180910390f35b6100df61023f565b6040516100ec919061041c565b60405180910390f35b6100fd610252565b60405161010a9190610450565b60405180910390f35b61011b610258565b6040516101289190610450565b60405180910390f35b61013961025e565b60405161014691906104fb565b60405180910390f35b6101696004803603810190610164919061054e565b6102ec565b005b6101856004803603810190610180919061054e565b6102f6565b005b6101a1600480360381019061019c91906105a0565b610300565b005b6101bd60048036038101906101b8919061054e565b61032d565b005b6101c7610337565b6040516101d49190610450565b60405180910390f35b6101e561033d565b6040516101f29190610450565b60405180910390f35b610203610343565b6040516102109190610450565b60405180910390f35b600260009054906101000a900473ffffffffffffffffffffffffffffffffffffffff1681565b600660009054906101000a900460ff1681565b60005481565b60055481565b6004805461026b906105fc565b80601f0160208091040260200160405190810160405280929190818152602001828054610297906105fc565b80156102e45780601f106102b9576101008083540402835291602001916102e4565b820191906000526020600020905b8154815290600101906020018083116102c757829003601f168201915b505050505081565b8060008190555050565b8060018190555050565b80600660006101000a81548160ff02191690836003811115610325576103246103a5565b5b021790555050565b8060038190555050565b60075481565b60035481565b60015481565b600073ffffffffffffffffffffffffffffffffffffffff82169050919050565b600061037482610349565b9050919050565b61038481610369565b82525050565b600060208201905061039f600083018461037b565b92915050565b7f4e487b7100000000000000000000000000000000000000000000000000000000600052602160045260246000fd5b600481106103e5576103e46103a5565b5b50565b60008190506103f6826103d4565b919050565b6000610406826103e8565b9050919050565b610416816103fb565b82525050565b6000602082019050610431600083018461040d565b92915050565b6000819050919050565b61044a81610437565b82525050565b60006020820190506104656000830184610441565b92915050565b600081519050919050565b600082825260208201905092915050565b60005b838110156104a557808201518184015260208101905061048a565b60008484015250505050565b6000601f19601f8301169050919050565b60006104cd8261046b565b6104d78185610476565b93506104e7818560208601610487565b6104f0816104b1565b840191505092915050565b6000602082019050818103600083015261051581846104c2565b905092915050565b600080fd5b61052b81610437565b811461053657600080fd5b50565b60008135905061054881610522565b92915050565b6000602082840312156105645761056361051d565b5b600061057284828501610539565b91505092915050565b6004811061058857600080fd5b50565b60008135905061059a8161057b565b92915050565b6000602082840312156105b6576105b561051d565b5b60006105c48482850161058b565b91505092915050565b7f4e487b7100000000000000000000000000000000000000000000000000000000600052602260045260246000fd5b6000600282049050600182168061061457607f821691505b602082108103610627576106266105cd565b5b5091905056fea26469706673582212202c74a9904c0adeb11a73dd86ce5e685600028b0c98d0c4e6e54ee1d4898d107764736f6c63430008120033a26469706673582212208bf610edc0403afb0daa9935c1739384bac4f9562fb089539c9a2adf80b903c564736f6c63430008120033",
			"opcodes": "PUSH1 0x80 PUSH1 0x40 MSTORE CALLVALUE DUP1 ISZERO PUSH3 0x11 JUMPI PUSH1 0x0 DUP1 REVERT JUMPDEST POP PUSH1 0x40 MLOAD PUSH3 0x4512 CODESIZE SUB DUP1 PUSH3 0x4512 DUP4 CODECOPY DUP2 DUP2 ADD PUSH1 0x40 MSTORE DUP2 ADD SWAP1 PUSH3 0x37 SWAP2 SWAP1 PUSH3 0x1FA JUMP JUMPDEST DUP3 PUSH1 0x0 DUP1 PUSH2 0x100 EXP DUP2 SLOAD DUP2 PUSH20 0xFFFFFFFFFFFFFFFFFFFFFFFFFFFFFFFFFFFFFFFF MUL NOT AND SWAP1 DUP4 PUSH20 0xFFFFFFFFFFFFFFFFFFFFFFFFFFFFFFFFFFFFFFFF AND MUL OR SWAP1 SSTORE POP DUP2 PUSH1 0x1 PUSH1 0x0 PUSH2 0x100 EXP DUP2 SLOAD DUP2 PUSH20 0xFFFFFFFFFFFFFFFFFFFFFFFFFFFFFFFFFFFFFFFF MUL NOT AND SWAP1 DUP4 PUSH20 0xFFFFFFFFFFFFFFFFFFFFFFFFFFFFFFFFFFFFFFFF AND MUL OR SWAP1 SSTORE POP DUP1 PUSH1 0x2 PUSH1 0x0 PUSH2 0x100 EXP DUP2 SLOAD DUP2 PUSH20 0xFFFFFFFFFFFFFFFFFFFFFFFFFFFFFFFFFFFFFFFF MUL NOT AND SWAP1 DUP4 PUSH20 0xFFFFFFFFFFFFFFFFFFFFFFFFFFFFFFFFFFFFFFFF AND MUL OR SWAP1 SSTORE POP CALLER PUSH1 0x3 PUSH1 0x0 PUSH2 0x100 EXP DUP2 SLOAD DUP2 PUSH20 0xFFFFFFFFFFFFFFFFFFFFFFFFFFFFFFFFFFFFFFFF MUL NOT AND SWAP1 DUP4 PUSH20 0xFFFFFFFFFFFFFFFFFFFFFFFFFFFFFFFFFFFFFFFF AND MUL OR SWAP1 SSTORE POP PUSH1 0x0 PUSH1 0x8 DUP2 SWAP1 SSTORE POP POP POP POP PUSH3 0x256 JUMP JUMPDEST PUSH1 0x0 DUP1 REVERT JUMPDEST PUSH1 0x0 PUSH20 0xFFFFFFFFFFFFFFFFFFFFFFFFFFFFFFFFFFFFFFFF DUP3 AND SWAP1 POP SWAP2 SWAP1 POP JUMP JUMPDEST PUSH1 0x0 PUSH3 0x17D DUP3 PUSH3 0x150 JUMP JUMPDEST SWAP1 POP SWAP2 SWAP1 POP JUMP JUMPDEST PUSH3 0x18F DUP2 PUSH3 0x170 JUMP JUMPDEST DUP2 EQ PUSH3 0x19B JUMPI PUSH1 0x0 DUP1 REVERT JUMPDEST POP JUMP JUMPDEST PUSH1 0x0 DUP2 MLOAD SWAP1 POP PUSH3 0x1AF DUP2 PUSH3 0x184 JUMP JUMPDEST SWAP3 SWAP2 POP POP JUMP JUMPDEST PUSH1 0x0 PUSH3 0x1C2 DUP3 PUSH3 0x150 JUMP JUMPDEST SWAP1 POP SWAP2 SWAP1 POP JUMP JUMPDEST PUSH3 0x1D4 DUP2 PUSH3 0x1B5 JUMP JUMPDEST DUP2 EQ PUSH3 0x1E0 JUMPI PUSH1 0x0 DUP1 REVERT JUMPDEST POP JUMP JUMPDEST PUSH1 0x0 DUP2 MLOAD SWAP1 POP PUSH3 0x1F4 DUP2 PUSH3 0x1C9 JUMP JUMPDEST SWAP3 SWAP2 POP POP JUMP JUMPDEST PUSH1 0x0 DUP1 PUSH1 0x0 PUSH1 0x60 DUP5 DUP7 SUB SLT ISZERO PUSH3 0x216 JUMPI PUSH3 0x215 PUSH3 0x14B JUMP JUMPDEST JUMPDEST PUSH1 0x0 PUSH3 0x226 DUP7 DUP3 DUP8 ADD PUSH3 0x19E JUMP JUMPDEST SWAP4 POP POP PUSH1 0x20 PUSH3 0x239 DUP7 DUP3 DUP8 ADD PUSH3 0x1E3 JUMP JUMPDEST SWAP3 POP POP PUSH1 0x40 PUSH3 0x24C DUP7 DUP3 DUP8 ADD PUSH3 0x1E3 JUMP JUMPDEST SWAP2 POP POP SWAP3 POP SWAP3 POP SWAP3 JUMP JUMPDEST PUSH2 0x42AC DUP1 PUSH3 0x266 PUSH1 0x0 CODECOPY PUSH1 0x0 RETURN INVALID PUSH1 0x80 PUSH1 0x40 MSTORE PUSH1 0x4 CALLDATASIZE LT PUSH3 0xFE JUMPI PUSH1 0x0 CALLDATALOAD PUSH1 0xE0 SHR DUP1 PUSH4 0x8DB4B00F GT PUSH3 0x97 JUMPI DUP1 PUSH4 0xC4F987A5 GT PUSH3 0x61 JUMPI DUP1 PUSH4 0xC4F987A5 EQ PUSH3 0x351 JUMPI DUP1 PUSH4 0xCE8EF7A6 EQ PUSH3 0x37F JUMPI DUP1 PUSH4 0xD311636B EQ PUSH3 0x3C3 JUMPI DUP1 PUSH4 0xFD8A1682 EQ PUSH3 0x40F JUMPI PUSH3 0xFE JUMP JUMPDEST DUP1 PUSH4 0x8DB4B00F EQ PUSH3 0x283 JUMPI DUP1 PUSH4 0x990DC9DB EQ PUSH3 0x2B1 JUMPI DUP1 PUSH4 0xA85C38EF EQ PUSH3 0x2DF JUMPI DUP1 PUSH4 0xB47CC556 EQ PUSH3 0x323 JUMPI PUSH3 0xFE JUMP JUMPDEST DUP1 PUSH4 0x4AF18F4F GT PUSH3 0xD9 JUMPI DUP1 PUSH4 0x4AF18F4F EQ PUSH3 0x1AD JUMPI DUP1 PUSH4 0x63C69F08 EQ PUSH3 0x1CD JUMPI DUP1 PUSH4 0x6B6096FC EQ PUSH3 0x211 JUMPI DUP1 PUSH4 0x856652E9 EQ PUSH3 0x23F JUMPI PUSH3 0xFE JUMP JUMPDEST DUP1 PUSH4 0x1D65E77E EQ PUSH3 0x103 JUMPI DUP1 PUSH4 0x1E7F931F EQ PUSH3 0x147 JUMPI DUP1 PUSH4 0x26858D24 EQ PUSH3 0x177 JUMPI JUMPDEST PUSH1 0x0 DUP1 REVERT JUMPDEST CALLVALUE DUP1 ISZERO PUSH3 0x110 JUMPI PUSH1 0x0 DUP1 REVERT JUMPDEST POP PUSH3 0x12F PUSH1 0x4 DUP1 CALLDATASIZE SUB DUP2 ADD SWAP1 PUSH3 0x129 SWAP2 SWAP1 PUSH3 0x1EF4 JUMP JUMPDEST PUSH3 0x453 JUMP JUMPDEST PUSH1 0x40 MLOAD PUSH3 0x13E SWAP2 SWAP1 PUSH3 0x21D5 JUMP JUMPDEST PUSH1 0x40 MLOAD DUP1 SWAP2 SUB SWAP1 RETURN JUMPDEST CALLVALUE DUP1 ISZERO PUSH3 0x154 JUMPI PUSH1 0x0 DUP1 REVERT JUMPDEST POP PUSH3 0x15F PUSH3 0x50A JUMP JUMPDEST PUSH1 0x40 MLOAD PUSH3 0x16E SWAP2 SWAP1 PUSH3 0x22B6 JUMP JUMPDEST PUSH1 0x40 MLOAD DUP1 SWAP2 SUB SWAP1 RETURN JUMPDEST PUSH3 0x195 PUSH1 0x4 DUP1 CALLDATASIZE SUB DUP2 ADD SWAP1 PUSH3 0x18F SWAP2 SWAP1 PUSH3 0x242B JUMP JUMPDEST PUSH3 0x5AA JUMP JUMPDEST PUSH1 0x40 MLOAD PUSH3 0x1A4 SWAP2 SWAP1 PUSH3 0x24CD JUMP JUMPDEST PUSH1 0x40 MLOAD DUP1 SWAP2 SUB SWAP1 RETURN JUMPDEST PUSH3 0x1CB PUSH1 0x4 DUP1 CALLDATASIZE SUB DUP2 ADD SWAP1 PUSH3 0x1C5 SWAP2 SWAP1 PUSH3 0x1EF4 JUMP JUMPDEST PUSH3 0xAD1 JUMP JUMPDEST STOP JUMPDEST CALLVALUE DUP1 ISZERO PUSH3 0x1DA JUMPI PUSH1 0x0 DUP1 REVERT JUMPDEST POP PUSH3 0x1F9 PUSH1 0x4 DUP1 CALLDATASIZE SUB DUP2 ADD SWAP1 PUSH3 0x1F3 SWAP2 SWAP1 PUSH3 0x251B JUMP JUMPDEST PUSH3 0xBAA JUMP JUMPDEST PUSH1 0x40 MLOAD PUSH3 0x208 SWAP2 SWAP1 PUSH3 0x260A JUMP JUMPDEST PUSH1 0x40 MLOAD DUP1 SWAP2 SUB SWAP1 RETURN JUMPDEST CALLVALUE DUP1 ISZERO PUSH3 0x21E JUMPI PUSH1 0x0 DUP1 REVERT JUMPDEST POP PUSH3 0x23D PUSH1 0x4 DUP1 CALLDATASIZE SUB DUP2 ADD SWAP1 PUSH3 0x237 SWAP2 SWAP1 PUSH3 0x262E JUMP JUMPDEST PUSH3 0xC43 JUMP JUMPDEST STOP JUMPDEST CALLVALUE DUP1 ISZERO PUSH3 0x24C JUMPI PUSH1 0x0 DUP1 REVERT JUMPDEST POP PUSH3 0x26B PUSH1 0x4 DUP1 CALLDATASIZE SUB DUP2 ADD SWAP1 PUSH3 0x265 SWAP2 SWAP1 PUSH3 0x262E JUMP JUMPDEST PUSH3 0xCE4 JUMP JUMPDEST PUSH1 0x40 MLOAD PUSH3 0x27A SWAP2 SWAP1 PUSH3 0x24CD JUMP JUMPDEST PUSH1 0x40 MLOAD DUP1 SWAP2 SUB SWAP1 RETURN JUMPDEST CALLVALUE DUP1 ISZERO PUSH3 0x290 JUMPI PUSH1 0x0 DUP1 REVERT JUMPDEST POP PUSH3 0x2AF PUSH1 0x4 DUP1 CALLDATASIZE SUB DUP2 ADD SWAP1 PUSH3 0x2A9 SWAP2 SWAP1 PUSH3 0x262E JUMP JUMPDEST PUSH3 0xD16 JUMP JUMPDEST STOP JUMPDEST CALLVALUE DUP1 ISZERO PUSH3 0x2BE JUMPI PUSH1 0x0 DUP1 REVERT JUMPDEST POP PUSH3 0x2DD PUSH1 0x4 DUP1 CALLDATASIZE SUB DUP2 ADD SWAP1 PUSH3 0x2D7 SWAP2 SWAP1 PUSH3 0x262E JUMP JUMPDEST PUSH3 0x11A7 JUMP JUMPDEST STOP JUMPDEST CALLVALUE DUP1 ISZERO PUSH3 0x2EC JUMPI PUSH1 0x0 DUP1 REVERT JUMPDEST POP PUSH3 0x30B PUSH1 0x4 DUP1 CALLDATASIZE SUB DUP2 ADD SWAP1 PUSH3 0x305 SWAP2 SWAP1 PUSH3 0x1EF4 JUMP JUMPDEST PUSH3 0x1239 JUMP JUMPDEST PUSH1 0x40 MLOAD PUSH3 0x31A SWAP2 SWAP1 PUSH3 0x26E0 JUMP JUMPDEST PUSH1 0x40 MLOAD DUP1 SWAP2 SUB SWAP1 RETURN JUMPDEST CALLVALUE DUP1 ISZERO PUSH3 0x330 JUMPI PUSH1 0x0 DUP1 REVERT JUMPDEST POP PUSH3 0x34F PUSH1 0x4 DUP1 CALLDATASIZE SUB DUP2 ADD SWAP1 PUSH3 0x349 SWAP2 SWAP1 PUSH3 0x251B JUMP JUMPDEST PUSH3 0x126C JUMP JUMPDEST STOP JUMPDEST CALLVALUE DUP1 ISZERO PUSH3 0x35E JUMPI PUSH1 0x0 DUP1 REVERT JUMPDEST POP PUSH3 0x37D PUSH1 0x4 DUP1 CALLDATASIZE SUB DUP2 ADD SWAP1 PUSH3 0x377 SWAP2 SWAP1 PUSH3 0x251B JUMP JUMPDEST PUSH3 0x1343 JUMP JUMPDEST STOP JUMPDEST CALLVALUE DUP1 ISZERO PUSH3 0x38C JUMPI PUSH1 0x0 DUP1 REVERT JUMPDEST POP PUSH3 0x3AB PUSH1 0x4 DUP1 CALLDATASIZE SUB DUP2 ADD SWAP1 PUSH3 0x3A5 SWAP2 SWAP1 PUSH3 0x251B JUMP JUMPDEST PUSH3 0x146A JUMP JUMPDEST PUSH1 0x40 MLOAD PUSH3 0x3BA SWAP2 SWAP1 PUSH3 0x278C JUMP JUMPDEST PUSH1 0x40 MLOAD DUP1 SWAP2 SUB SWAP1 RETURN JUMPDEST CALLVALUE DUP1 ISZERO PUSH3 0x3D0 JUMPI PUSH1 0x0 DUP1 REVERT JUMPDEST POP PUSH3 0x3EF PUSH1 0x4 DUP1 CALLDATASIZE SUB DUP2 ADD SWAP1 PUSH3 0x3E9 SWAP2 SWAP1 PUSH3 0x1EF4 JUMP JUMPDEST PUSH3 0x151C JUMP JUMPDEST PUSH1 0x40 MLOAD PUSH3 0x406 SWAP10 SWAP9 SWAP8 SWAP7 SWAP6 SWAP5 SWAP4 SWAP3 SWAP2 SWAP1 PUSH3 0x285D JUMP JUMPDEST PUSH1 0x40 MLOAD DUP1 SWAP2 SUB SWAP1 RETURN JUMPDEST CALLVALUE DUP1 ISZERO PUSH3 0x41C JUMPI PUSH1 0x0 DUP1 REVERT JUMPDEST POP PUSH3 0x43B PUSH1 0x4 DUP1 CALLDATASIZE SUB DUP2 ADD SWAP1 PUSH3 0x435 SWAP2 SWAP1 PUSH3 0x251B JUMP JUMPDEST PUSH3 0x1918 JUMP JUMPDEST PUSH1 0x40 MLOAD PUSH3 0x44A SWAP2 SWAP1 PUSH3 0x24CD JUMP JUMPDEST PUSH1 0x40 MLOAD DUP1 SWAP2 SUB SWAP1 RETURN JUMPDEST PUSH3 0x45D PUSH3 0x1DD1 JUMP JUMPDEST PUSH1 0x1 PUSH1 0x0 SWAP1 SLOAD SWAP1 PUSH2 0x100 EXP SWAP1 DIV PUSH20 0xFFFFFFFFFFFFFFFFFFFFFFFFFFFFFFFFFFFFFFFF AND PUSH20 0xFFFFFFFFFFFFFFFFFFFFFFFFFFFFFFFFFFFFFFFF AND PUSH4 0x1D65E77E DUP4 PUSH1 0x40 MLOAD DUP3 PUSH4 0xFFFFFFFF AND PUSH1 0xE0 SHL DUP2 MSTORE PUSH1 0x4 ADD PUSH3 0x4BA SWAP2 SWAP1 PUSH3 0x24CD JUMP JUMPDEST PUSH1 0x0 PUSH1 0x40 MLOAD DUP1 DUP4 SUB DUP2 DUP7 GAS STATICCALL ISZERO DUP1 ISZERO PUSH3 0x4D8 JUMPI RETURNDATASIZE PUSH1 0x0 DUP1 RETURNDATACOPY RETURNDATASIZE PUSH1 0x0 REVERT JUMPDEST POP POP POP POP PUSH1 0x40 MLOAD RETURNDATASIZE PUSH1 0x0 DUP3 RETURNDATACOPY RETURNDATASIZE PUSH1 0x1F NOT PUSH1 0x1F DUP3 ADD AND DUP3 ADD DUP1 PUSH1 0x40 MSTORE POP DUP2 ADD SWAP1 PUSH3 0x503 SWAP2 SWAP1 PUSH3 0x2B37 JUMP JUMPDEST SWAP1 POP SWAP2 SWAP1 POP JUMP JUMPDEST PUSH1 0x60 PUSH1 0x2 PUSH1 0x0 SWAP1 SLOAD SWAP1 PUSH2 0x100 EXP SWAP1 DIV PUSH20 0xFFFFFFFFFFFFFFFFFFFFFFFFFFFFFFFFFFFFFFFF AND PUSH20 0xFFFFFFFFFFFFFFFFFFFFFFFFFFFFFFFFFFFFFFFF AND PUSH4 0x1E7F931F PUSH1 0x40 MLOAD DUP2 PUSH4 0xFFFFFFFF AND PUSH1 0xE0 SHL DUP2 MSTORE PUSH1 0x4 ADD PUSH1 0x0 PUSH1 0x40 MLOAD DUP1 DUP4 SUB DUP2 DUP7 GAS STATICCALL ISZERO DUP1 ISZERO PUSH3 0x57A JUMPI RETURNDATASIZE PUSH1 0x0 DUP1 RETURNDATACOPY RETURNDATASIZE PUSH1 0x0 REVERT JUMPDEST POP POP POP POP PUSH1 0x40 MLOAD RETURNDATASIZE PUSH1 0x0 DUP3 RETURNDATACOPY RETURNDATASIZE PUSH1 0x1F NOT PUSH1 0x1F DUP3 ADD AND DUP3 ADD DUP1 PUSH1 0x40 MSTORE POP DUP2 ADD SWAP1 PUSH3 0x5A5 SWAP2 SWAP1 PUSH3 0x2C63 JUMP JUMPDEST SWAP1 POP SWAP1 JUMP JUMPDEST PUSH1 0x0 DUP3 CALLVALUE LT ISZERO PUSH3 0x5F2 JUMPI PUSH1 0x40 MLOAD PUSH32 0x8C379A000000000000000000000000000000000000000000000000000000000 DUP2 MSTORE PUSH1 0x4 ADD PUSH3 0x5E9 SWAP1 PUSH3 0x2D04 JUMP JUMPDEST PUSH1 0x40 MLOAD DUP1 SWAP2 SUB SWAP1 REVERT JUMPDEST PUSH1 0x0 PUSH1 0x8 PUSH1 0x0 DUP2 SLOAD DUP1 SWAP3 SWAP2 SWAP1 PUSH3 0x609 SWAP1 PUSH3 0x2D55 JUMP JUMPDEST SWAP2 SWAP1 POP SSTORE SWAP1 POP PUSH1 0x0 CALLER DUP8 DUP8 DUP7 PUSH1 0x40 MLOAD PUSH3 0x623 SWAP1 PUSH3 0x1E64 JUMP JUMPDEST PUSH3 0x632 SWAP5 SWAP4 SWAP3 SWAP2 SWAP1 PUSH3 0x2DA2 JUMP JUMPDEST PUSH1 0x40 MLOAD DUP1 SWAP2 SUB SWAP1 PUSH1 0x0 CREATE DUP1 ISZERO DUP1 ISZERO PUSH3 0x64F JUMPI RETURNDATASIZE PUSH1 0x0 DUP1 RETURNDATACOPY RETURNDATASIZE PUSH1 0x0 REVERT JUMPDEST POP SWAP1 POP DUP1 PUSH1 0x6 PUSH1 0x0 DUP5 DUP2 MSTORE PUSH1 0x20 ADD SWAP1 DUP2 MSTORE PUSH1 0x20 ADD PUSH1 0x0 KECCAK256 PUSH1 0x0 PUSH2 0x100 EXP DUP2 SLOAD DUP2 PUSH20 0xFFFFFFFFFFFFFFFFFFFFFFFFFFFFFFFFFFFFFFFF MUL NOT AND SWAP1 DUP4 PUSH20 0xFFFFFFFFFFFFFFFFFFFFFFFFFFFFFFFFFFFFFFFF AND MUL OR SWAP1 SSTORE POP PUSH1 0x7 PUSH1 0x0 CALLER PUSH20 0xFFFFFFFFFFFFFFFFFFFFFFFFFFFFFFFFFFFFFFFF AND PUSH20 0xFFFFFFFFFFFFFFFFFFFFFFFFFFFFFFFFFFFFFFFF AND DUP2 MSTORE PUSH1 0x20 ADD SWAP1 DUP2 MSTORE PUSH1 0x20 ADD PUSH1 0x0 KECCAK256 DUP3 SWAP1 DUP1 PUSH1 0x1 DUP2 SLOAD ADD DUP1 DUP3 SSTORE DUP1 SWAP2 POP POP PUSH1 0x1 SWAP1 SUB SWAP1 PUSH1 0x0 MSTORE PUSH1 0x20 PUSH1 0x0 KECCAK256 ADD PUSH1 0x0 SWAP1 SWAP2 SWAP1 SWAP2 SWAP1 SWAP2 POP SSTORE PUSH32 0x1A72D6383B1FC1B015BEDC584A040A3CBA7B0A5E33B00A43A1693B852BE2382E DUP3 PUSH1 0x40 MLOAD PUSH3 0x73B SWAP2 SWAP1 PUSH3 0x2E46 JUMP JUMPDEST PUSH1 0x40 MLOAD DUP1 SWAP2 SUB SWAP1 LOG1 PUSH1 0x0 DUP1 SLOAD SWAP1 PUSH2 0x100 EXP SWAP1 DIV PUSH20 0xFFFFFFFFFFFFFFFFFFFFFFFFFFFFFFFFFFFFFFFF AND PUSH20 0xFFFFFFFFFFFFFFFFFFFFFFFFFFFFFFFFFFFFFFFF AND PUSH4 0xF340FA01 CALLVALUE CALLER PUSH1 0x40 MLOAD DUP4 PUSH4 0xFFFFFFFF AND PUSH1 0xE0 SHL DUP2 MSTORE PUSH1 0x4 ADD PUSH3 0x79F SWAP2 SWAP1 PUSH3 0x2E78 JUMP JUMPDEST PUSH1 0x0 PUSH1 0x40 MLOAD DUP1 DUP4 SUB DUP2 DUP6 DUP9 DUP1 EXTCODESIZE ISZERO DUP1 ISZERO PUSH3 0x7B9 JUMPI PUSH1 0x0 DUP1 REVERT JUMPDEST POP GAS CALL ISZERO DUP1 ISZERO PUSH3 0x7CE JUMPI RETURNDATASIZE PUSH1 0x0 DUP1 RETURNDATACOPY RETURNDATASIZE PUSH1 0x0 REVERT JUMPDEST POP POP POP POP POP PUSH1 0x0 PUSH1 0x1 PUSH1 0x0 SWAP1 SLOAD SWAP1 PUSH2 0x100 EXP SWAP1 DIV PUSH20 0xFFFFFFFFFFFFFFFFFFFFFFFFFFFFFFFFFFFFFFFF AND PUSH20 0xFFFFFFFFFFFFFFFFFFFFFFFFFFFFFFFFFFFFFFFF AND PUSH4 0xD2F1D448 PUSH1 0x0 DUP6 DUP6 PUSH20 0xFFFFFFFFFFFFFFFFFFFFFFFFFFFFFFFFFFFFFFFF AND PUSH4 0x58E9D3D5 PUSH1 0x40 MLOAD DUP2 PUSH4 0xFFFFFFFF AND PUSH1 0xE0 SHL DUP2 MSTORE PUSH1 0x4 ADD PUSH1 0x0 PUSH1 0x40 MLOAD DUP1 DUP4 SUB DUP2 DUP7 GAS STATICCALL ISZERO DUP1 ISZERO PUSH3 0x862 JUMPI RETURNDATASIZE PUSH1 0x0 DUP1 RETURNDATACOPY RETURNDATASIZE PUSH1 0x0 REVERT JUMPDEST POP POP POP POP PUSH1 0x40 MLOAD RETURNDATASIZE PUSH1 0x0 DUP3 RETURNDATACOPY RETURNDATASIZE PUSH1 0x1F NOT PUSH1 0x1F DUP3 ADD AND DUP3 ADD DUP1 PUSH1 0x40 MSTORE POP DUP2 ADD SWAP1 PUSH3 0x88D SWAP2 SWAP1 PUSH3 0x2E95 JUMP JUMPDEST DUP7 PUSH20 0xFFFFFFFFFFFFFFFFFFFFFFFFFFFFFFFFFFFFFFFF AND PUSH4 0x523B0B36 PUSH1 0x40 MLOAD DUP2 PUSH4 0xFFFFFFFF AND PUSH1 0xE0 SHL DUP2 MSTORE PUSH1 0x4 ADD PUSH1 0x20 PUSH1 0x40 MLOAD DUP1 DUP4 SUB DUP2 DUP7 GAS STATICCALL ISZERO DUP1 ISZERO PUSH3 0x8D9 JUMPI RETURNDATASIZE PUSH1 0x0 DUP1 RETURNDATACOPY RETURNDATASIZE PUSH1 0x0 REVERT JUMPDEST POP POP POP POP PUSH1 0x40 MLOAD RETURNDATASIZE PUSH1 0x1F NOT PUSH1 0x1F DUP3 ADD AND DUP3 ADD DUP1 PUSH1 0x40 MSTORE POP DUP2 ADD SWAP1 PUSH3 0x8FF SWAP2 SWAP1 PUSH3 0x2EE6 JUMP JUMPDEST DUP8 PUSH20 0xFFFFFFFFFFFFFFFFFFFFFFFFFFFFFFFFFFFFFFFF AND PUSH4 0xBEE80FC5 PUSH1 0x40 MLOAD DUP2 PUSH4 0xFFFFFFFF AND PUSH1 0xE0 SHL DUP2 MSTORE PUSH1 0x4 ADD PUSH1 0x20 PUSH1 0x40 MLOAD DUP1 DUP4 SUB DUP2 DUP7 GAS STATICCALL ISZERO DUP1 ISZERO PUSH3 0x94B JUMPI RETURNDATASIZE PUSH1 0x0 DUP1 RETURNDATACOPY RETURNDATASIZE PUSH1 0x0 REVERT JUMPDEST POP POP POP POP PUSH1 0x40 MLOAD RETURNDATASIZE PUSH1 0x1F NOT PUSH1 0x1F DUP3 ADD AND DUP3 ADD DUP1 PUSH1 0x40 MSTORE POP DUP2 ADD SWAP1 PUSH3 0x971 SWAP2 SWAP1 PUSH3 0x2EE6 JUMP JUMPDEST PUSH1 0x40 MLOAD DUP7 PUSH4 0xFFFFFFFF AND PUSH1 0xE0 SHL DUP2 MSTORE PUSH1 0x4 ADD PUSH3 0x993 SWAP6 SWAP5 SWAP4 SWAP3 SWAP2 SWAP1 PUSH3 0x2F29 JUMP JUMPDEST PUSH1 0x20 PUSH1 0x40 MLOAD DUP1 DUP4 SUB DUP2 PUSH1 0x0 DUP8 GAS CALL ISZERO DUP1 ISZERO PUSH3 0x9B3 JUMPI RETURNDATASIZE PUSH1 0x0 DUP1 RETURNDATACOPY RETURNDATASIZE PUSH1 0x0 REVERT JUMPDEST POP POP POP POP PUSH1 0x40 MLOAD RETURNDATASIZE PUSH1 0x1F NOT PUSH1 0x1F DUP3 ADD AND DUP3 ADD DUP1 PUSH1 0x40 MSTORE POP DUP2 ADD SWAP1 PUSH3 0x9D9 SWAP2 SWAP1 PUSH3 0x2EE6 JUMP JUMPDEST SWAP1 POP DUP2 PUSH20 0xFFFFFFFFFFFFFFFFFFFFFFFFFFFFFFFFFFFFFFFF AND PUSH4 0x90EF73E2 DUP3 PUSH1 0x40 MLOAD DUP3 PUSH4 0xFFFFFFFF AND PUSH1 0xE0 SHL DUP2 MSTORE PUSH1 0x4 ADD PUSH3 0xA16 SWAP2 SWAP1 PUSH3 0x24CD JUMP JUMPDEST PUSH1 0x0 PUSH1 0x40 MLOAD DUP1 DUP4 SUB DUP2 PUSH1 0x0 DUP8 DUP1 EXTCODESIZE ISZERO DUP1 ISZERO PUSH3 0xA31 JUMPI PUSH1 0x0 DUP1 REVERT JUMPDEST POP GAS CALL ISZERO DUP1 ISZERO PUSH3 0xA46 JUMPI RETURNDATASIZE PUSH1 0x0 DUP1 RETURNDATACOPY RETURNDATASIZE PUSH1 0x0 REVERT JUMPDEST POP POP POP POP DUP2 PUSH20 0xFFFFFFFFFFFFFFFFFFFFFFFFFFFFFFFFFFFFFFFF AND PUSH4 0xBA0179B5 DUP8 PUSH1 0x40 MLOAD DUP3 PUSH4 0xFFFFFFFF AND PUSH1 0xE0 SHL DUP2 MSTORE PUSH1 0x4 ADD PUSH3 0xA85 SWAP2 SWAP1 PUSH3 0x24CD JUMP JUMPDEST PUSH1 0x0 PUSH1 0x40 MLOAD DUP1 DUP4 SUB DUP2 PUSH1 0x0 DUP8 DUP1 EXTCODESIZE ISZERO DUP1 ISZERO PUSH3 0xAA0 JUMPI PUSH1 0x0 DUP1 REVERT JUMPDEST POP GAS CALL ISZERO DUP1 ISZERO PUSH3 0xAB5 JUMPI RETURNDATASIZE PUSH1 0x0 DUP1 RETURNDATACOPY RETURNDATASIZE PUSH1 0x0 REVERT JUMPDEST POP POP POP POP PUSH3 0xAC3 PUSH3 0x1930 JUMP JUMPDEST DUP3 SWAP4 POP POP POP POP SWAP5 SWAP4 POP POP POP POP JUMP JUMPDEST DUP1 CALLVALUE LT ISZERO PUSH3 0xB17 JUMPI PUSH1 0x40 MLOAD PUSH32 0x8C379A000000000000000000000000000000000000000000000000000000000 DUP2 MSTORE PUSH1 0x4 ADD PUSH3 0xB0E SWAP1 PUSH3 0x2D04 JUMP JUMPDEST PUSH1 0x40 MLOAD DUP1 SWAP2 SUB SWAP1 REVERT JUMPDEST PUSH1 0x0 DUP1 SLOAD SWAP1 PUSH2 0x100 EXP SWAP1 DIV PUSH20 0xFFFFFFFFFFFFFFFFFFFFFFFFFFFFFFFFFFFFFFFF AND PUSH20 0xFFFFFFFFFFFFFFFFFFFFFFFFFFFFFFFFFFFFFFFF AND PUSH4 0xF340FA01 CALLVALUE CALLER PUSH1 0x40 MLOAD DUP4 PUSH4 0xFFFFFFFF AND PUSH1 0xE0 SHL DUP2 MSTORE PUSH1 0x4 ADD PUSH3 0xB73 SWAP2 SWAP1 PUSH3 0x2E78 JUMP JUMPDEST PUSH1 0x0 PUSH1 0x40 MLOAD DUP1 DUP4 SUB DUP2 DUP6 DUP9 DUP1 EXTCODESIZE ISZERO DUP1 ISZERO PUSH3 0xB8D JUMPI PUSH1 0x0 DUP1 REVERT JUMPDEST POP GAS CALL ISZERO DUP1 ISZERO PUSH3 0xBA2 JUMPI RETURNDATASIZE PUSH1 0x0 DUP1 RETURNDATACOPY RETURNDATASIZE PUSH1 0x0 REVERT JUMPDEST POP POP POP POP POP POP JUMP JUMPDEST PUSH1 0x60 PUSH1 0x7 PUSH1 0x0 DUP4 PUSH20 0xFFFFFFFFFFFFFFFFFFFFFFFFFFFFFFFFFFFFFFFF AND PUSH20 0xFFFFFFFFFFFFFFFFFFFFFFFFFFFFFFFFFFFFFFFF AND DUP2 MSTORE PUSH1 0x20 ADD SWAP1 DUP2 MSTORE PUSH1 0x20 ADD PUSH1 0x0 KECCAK256 DUP1 SLOAD DUP1 PUSH1 0x20 MUL PUSH1 0x20 ADD PUSH1 0x40 MLOAD SWAP1 DUP2 ADD PUSH1 0x40 MSTORE DUP1 SWAP3 SWAP2 SWAP1 DUP2 DUP2 MSTORE PUSH1 0x20 ADD DUP3 DUP1 SLOAD DUP1 ISZERO PUSH3 0xC37 JUMPI PUSH1 0x20 MUL DUP3 ADD SWAP2 SWAP1 PUSH1 0x0 MSTORE PUSH1 0x20 PUSH1 0x0 KECCAK256 SWAP1 JUMPDEST DUP2 SLOAD DUP2 MSTORE PUSH1 0x20 ADD SWAP1 PUSH1 0x1 ADD SWAP1 DUP1 DUP4 GT PUSH3 0xC22 JUMPI JUMPDEST POP POP POP POP POP SWAP1 POP SWAP2 SWAP1 POP JUMP JUMPDEST PUSH1 0x2 PUSH1 0x0 SWAP1 SLOAD SWAP1 PUSH2 0x100 EXP SWAP1 DIV PUSH20 0xFFFFFFFFFFFFFFFFFFFFFFFFFFFFFFFFFFFFFFFF AND PUSH20 0xFFFFFFFFFFFFFFFFFFFFFFFFFFFFFFFFFFFFFFFF AND PUSH4 0x6B6096FC DUP4 DUP4 PUSH1 0x40 MLOAD DUP4 PUSH4 0xFFFFFFFF AND PUSH1 0xE0 SHL DUP2 MSTORE PUSH1 0x4 ADD PUSH3 0xCA2 SWAP3 SWAP2 SWAP1 PUSH3 0x2F8D JUMP JUMPDEST PUSH1 0x0 PUSH1 0x40 MLOAD DUP1 DUP4 SUB DUP2 PUSH1 0x0 DUP8 DUP1 EXTCODESIZE ISZERO DUP1 ISZERO PUSH3 0xCBD JUMPI PUSH1 0x0 DUP1 REVERT JUMPDEST POP GAS CALL ISZERO DUP1 ISZERO PUSH3 0xCD2 JUMPI RETURNDATASIZE PUSH1 0x0 DUP1 RETURNDATACOPY RETURNDATASIZE PUSH1 0x0 REVERT JUMPDEST POP POP POP POP PUSH3 0xCE0 PUSH3 0x1930 JUMP JUMPDEST POP POP JUMP JUMPDEST PUSH1 0x7 PUSH1 0x20 MSTORE DUP2 PUSH1 0x0 MSTORE PUSH1 0x40 PUSH1 0x0 KECCAK256 DUP2 DUP2 SLOAD DUP2 LT PUSH3 0xD01 JUMPI PUSH1 0x0 DUP1 REVERT JUMPDEST SWAP1 PUSH1 0x0 MSTORE PUSH1 0x20 PUSH1 0x0 KECCAK256 ADD PUSH1 0x0 SWAP2 POP SWAP2 POP POP SLOAD DUP2 JUMP JUMPDEST PUSH1 0x2 PUSH1 0x0 SWAP1 SLOAD SWAP1 PUSH2 0x100 EXP SWAP1 DIV PUSH20 0xFFFFFFFFFFFFFFFFFFFFFFFFFFFFFFFFFFFFFFFF AND PUSH20 0xFFFFFFFFFFFFFFFFFFFFFFFFFFFFFFFFFFFFFFFF AND PUSH4 0x866591F7 DUP4 DUP4 PUSH1 0x40 MLOAD DUP4 PUSH4 0xFFFFFFFF AND PUSH1 0xE0 SHL DUP2 MSTORE PUSH1 0x4 ADD PUSH3 0xD75 SWAP3 SWAP2 SWAP1 PUSH3 0x2F8D JUMP JUMPDEST PUSH1 0x20 PUSH1 0x40 MLOAD DUP1 DUP4 SUB DUP2 DUP7 GAS STATICCALL ISZERO DUP1 ISZERO PUSH3 0xD93 JUMPI RETURNDATASIZE PUSH1 0x0 DUP1 RETURNDATACOPY RETURNDATASIZE PUSH1 0x0 REVERT JUMPDEST POP POP POP POP PUSH1 0x40 MLOAD RETURNDATASIZE PUSH1 0x1F NOT PUSH1 0x1F DUP3 ADD AND DUP3 ADD DUP1 PUSH1 0x40 MSTORE POP DUP2 ADD SWAP1 PUSH3 0xDB9 SWAP2 SWAP1 PUSH3 0x2FEB JUMP JUMPDEST PUSH3 0xDFB JUMPI PUSH1 0x40 MLOAD PUSH32 0x8C379A000000000000000000000000000000000000000000000000000000000 DUP2 MSTORE PUSH1 0x4 ADD PUSH3 0xDF2 SWAP1 PUSH3 0x306D JUMP JUMPDEST PUSH1 0x40 MLOAD DUP1 SWAP2 SUB SWAP1 REVERT JUMPDEST PUSH1 0x0 PUSH1 0x1 PUSH1 0x0 SWAP1 SLOAD SWAP1 PUSH2 0x100 EXP SWAP1 DIV PUSH20 0xFFFFFFFFFFFFFFFFFFFFFFFFFFFFFFFFFFFFFFFF AND PUSH20 0xFFFFFFFFFFFFFFFFFFFFFFFFFFFFFFFFFFFFFFFF AND PUSH4 0x1D65E77E DUP4 PUSH1 0x40 MLOAD DUP3 PUSH4 0xFFFFFFFF AND PUSH1 0xE0 SHL DUP2 MSTORE PUSH1 0x4 ADD PUSH3 0xE5A SWAP2 SWAP1 PUSH3 0x24CD JUMP JUMPDEST PUSH1 0x0 PUSH1 0x40 MLOAD DUP1 DUP4 SUB DUP2 DUP7 GAS STATICCALL ISZERO DUP1 ISZERO PUSH3 0xE78 JUMPI RETURNDATASIZE PUSH1 0x0 DUP1 RETURNDATACOPY RETURNDATASIZE PUSH1 0x0 REVERT JUMPDEST POP POP POP POP PUSH1 0x40 MLOAD RETURNDATASIZE PUSH1 0x0 DUP3 RETURNDATACOPY RETURNDATASIZE PUSH1 0x1F NOT PUSH1 0x1F DUP3 ADD AND DUP3 ADD DUP1 PUSH1 0x40 MSTORE POP DUP2 ADD SWAP1 PUSH3 0xEA3 SWAP2 SWAP1 PUSH3 0x2B37 JUMP JUMPDEST SWAP1 POP PUSH1 0x1 PUSH1 0x0 SWAP1 SLOAD SWAP1 PUSH2 0x100 EXP SWAP1 DIV PUSH20 0xFFFFFFFFFFFFFFFFFFFFFFFFFFFFFFFFFFFFFFFF AND PUSH20 0xFFFFFFFFFFFFFFFFFFFFFFFFFFFFFFFFFFFFFFFF AND PUSH4 0xE1E29558 DUP4 PUSH1 0x40 MLOAD DUP3 PUSH4 0xFFFFFFFF AND PUSH1 0xE0 SHL DUP2 MSTORE PUSH1 0x4 ADD PUSH3 0xF02 SWAP2 SWAP1 PUSH3 0x24CD JUMP JUMPDEST PUSH1 0x0 PUSH1 0x40 MLOAD DUP1 DUP4 SUB DUP2 PUSH1 0x0 DUP8 DUP1 EXTCODESIZE ISZERO DUP1 ISZERO PUSH3 0xF1D JUMPI PUSH1 0x0 DUP1 REVERT JUMPDEST POP GAS CALL ISZERO DUP1 ISZERO PUSH3 0xF32 JUMPI RETURNDATASIZE PUSH1 0x0 DUP1 RETURNDATACOPY RETURNDATASIZE PUSH1 0x0 REVERT JUMPDEST POP POP POP POP PUSH1 0x0 PUSH1 0x6 PUSH1 0x0 DUP4 PUSH1 0x20 ADD MLOAD DUP2 MSTORE PUSH1 0x20 ADD SWAP1 DUP2 MSTORE PUSH1 0x20 ADD PUSH1 0x0 KECCAK256 PUSH1 0x0 SWAP1 SLOAD SWAP1 PUSH2 0x100 EXP SWAP1 DIV PUSH20 0xFFFFFFFFFFFFFFFFFFFFFFFFFFFFFFFFFFFFFFFF AND SWAP1 POP PUSH1 0x2 PUSH1 0x0 SWAP1 SLOAD SWAP1 PUSH2 0x100 EXP SWAP1 DIV PUSH20 0xFFFFFFFFFFFFFFFFFFFFFFFFFFFFFFFFFFFFFFFF AND PUSH20 0xFFFFFFFFFFFFFFFFFFFFFFFFFFFFFFFFFFFFFFFF AND PUSH4 0x3FC0F48B DUP6 PUSH1 0x40 MLOAD DUP3 PUSH4 0xFFFFFFFF AND PUSH1 0xE0 SHL DUP2 MSTORE PUSH1 0x4 ADD PUSH3 0xFCF SWAP2 SWAP1 PUSH3 0x2E78 JUMP JUMPDEST PUSH1 0x0 PUSH1 0x40 MLOAD DUP1 DUP4 SUB DUP2 PUSH1 0x0 DUP8 DUP1 EXTCODESIZE ISZERO DUP1 ISZERO PUSH3 0xFEA JUMPI PUSH1 0x0 DUP1 REVERT JUMPDEST POP GAS CALL ISZERO DUP1 ISZERO PUSH3 0xFFF JUMPI RETURNDATASIZE PUSH1 0x0 DUP1 RETURNDATACOPY RETURNDATASIZE PUSH1 0x0 REVERT JUMPDEST POP POP POP POP DUP1 PUSH20 0xFFFFFFFFFFFFFFFFFFFFFFFFFFFFFFFFFFFFFFFF AND PUSH4 0xB8896EB6 PUSH1 0x2 PUSH1 0x40 MLOAD DUP3 PUSH4 0xFFFFFFFF AND PUSH1 0xE0 SHL DUP2 MSTORE PUSH1 0x4 ADD PUSH3 0x103F SWAP2 SWAP1 PUSH3 0x308F JUMP JUMPDEST PUSH1 0x0 PUSH1 0x40 MLOAD DUP1 DUP4 SUB DUP2 PUSH1 0x0 DUP8 DUP1 EXTCODESIZE ISZERO DUP1 ISZERO PUSH3 0x105A JUMPI PUSH1 0x0 DUP1 REVERT JUMPDEST POP GAS CALL ISZERO DUP1 ISZERO PUSH3 0x106F JUMPI RETURNDATASIZE PUSH1 0x0 DUP1 RETURNDATACOPY RETURNDATASIZE PUSH1 0x0 REVERT JUMPDEST POP POP POP POP PUSH1 0x0 PUSH1 0xA PUSH1 0x9 DUP4 PUSH20 0xFFFFFFFFFFFFFFFFFFFFFFFFFFFFFFFFFFFFFFFF AND PUSH4 0xC35905C6 PUSH1 0x40 MLOAD DUP2 PUSH4 0xFFFFFFFF AND PUSH1 0xE0 SHL DUP2 MSTORE PUSH1 0x4 ADD PUSH1 0x20 PUSH1 0x40 MLOAD DUP1 DUP4 SUB DUP2 DUP7 GAS STATICCALL ISZERO DUP1 ISZERO PUSH3 0x10C5 JUMPI RETURNDATASIZE PUSH1 0x0 DUP1 RETURNDATACOPY RETURNDATASIZE PUSH1 0x0 REVERT JUMPDEST POP POP POP POP PUSH1 0x40 MLOAD RETURNDATASIZE PUSH1 0x1F NOT PUSH1 0x1F DUP3 ADD AND DUP3 ADD DUP1 PUSH1 0x40 MSTORE POP DUP2 ADD SWAP1 PUSH3 0x10EB SWAP2 SWAP1 PUSH3 0x2EE6 JUMP JUMPDEST PUSH3 0x10F7 SWAP2 SWAP1 PUSH3 0x30AC JUMP JUMPDEST PUSH3 0x1103 SWAP2 SWAP1 PUSH3 0x3126 JUMP JUMPDEST SWAP1 POP PUSH1 0x0 DUP1 SLOAD SWAP1 PUSH2 0x100 EXP SWAP1 DIV PUSH20 0xFFFFFFFFFFFFFFFFFFFFFFFFFFFFFFFFFFFFFFFF AND PUSH20 0xFFFFFFFFFFFFFFFFFFFFFFFFFFFFFFFFFFFFFFFF AND PUSH4 0xF7FB7EA5 DUP7 DUP4 PUSH1 0x40 MLOAD DUP4 PUSH4 0xFFFFFFFF AND PUSH1 0xE0 SHL DUP2 MSTORE PUSH1 0x4 ADD PUSH3 0x1162 SWAP3 SWAP2 SWAP1 PUSH3 0x2F8D JUMP JUMPDEST PUSH1 0x0 PUSH1 0x40 MLOAD DUP1 DUP4 SUB DUP2 PUSH1 0x0 DUP8 DUP1 EXTCODESIZE ISZERO DUP1 ISZERO PUSH3 0x117D JUMPI PUSH1 0x0 DUP1 REVERT JUMPDEST POP GAS CALL ISZERO DUP1 ISZERO PUSH3 0x1192 JUMPI RETURNDATASIZE PUSH1 0x0 DUP1 RETURNDATACOPY RETURNDATASIZE PUSH1 0x0 REVERT JUMPDEST POP POP POP POP PUSH3 0x11A0 PUSH3 0x1930 JUMP JUMPDEST POP POP POP POP POP JUMP JUMPDEST DUP1 SELFBALANCE LT ISZERO PUSH3 0x11ED JUMPI PUSH1 0x40 MLOAD PUSH32 0x8C379A000000000000000000000000000000000000000000000000000000000 DUP2 MSTORE PUSH1 0x4 ADD PUSH3 0x11E4 SWAP1 PUSH3 0x31AE JUMP JUMPDEST PUSH1 0x40 MLOAD DUP1 SWAP2 SUB SWAP1 REVERT JUMPDEST DUP2 PUSH20 0xFFFFFFFFFFFFFFFFFFFFFFFFFFFFFFFFFFFFFFFF AND PUSH2 0x8FC DUP3 SWAP1 DUP2 ISZERO MUL SWAP1 PUSH1 0x40 MLOAD PUSH1 0x0 PUSH1 0x40 MLOAD DUP1 DUP4 SUB DUP2 DUP6 DUP9 DUP9 CALL SWAP4 POP POP POP POP ISZERO DUP1 ISZERO PUSH3 0x1234 JUMPI RETURNDATASIZE PUSH1 0x0 DUP1 RETURNDATACOPY RETURNDATASIZE PUSH1 0x0 REVERT JUMPDEST POP POP POP JUMP JUMPDEST PUSH1 0x6 PUSH1 0x20 MSTORE DUP1 PUSH1 0x0 MSTORE PUSH1 0x40 PUSH1 0x0 KECCAK256 PUSH1 0x0 SWAP2 POP SLOAD SWAP1 PUSH2 0x100 EXP SWAP1 DIV PUSH20 0xFFFFFFFFFFFFFFFFFFFFFFFFFFFFFFFFFFFFFFFF AND DUP2 JUMP JUMPDEST PUSH1 0x3 PUSH1 0x0 SWAP1 SLOAD SWAP1 PUSH2 0x100 EXP SWAP1 DIV PUSH20 0xFFFFFFFFFFFFFFFFFFFFFFFFFFFFFFFFFFFFFFFF AND PUSH20 0xFFFFFFFFFFFFFFFFFFFFFFFFFFFFFFFFFFFFFFFF AND CALLER PUSH20 0xFFFFFFFFFFFFFFFFFFFFFFFFFFFFFFFFFFFFFFFF AND EQ PUSH3 0x12FF JUMPI PUSH1 0x40 MLOAD PUSH32 0x8C379A000000000000000000000000000000000000000000000000000000000 DUP2 MSTORE PUSH1 0x4 ADD PUSH3 0x12F6 SWAP1 PUSH3 0x3246 JUMP JUMPDEST PUSH1 0x40 MLOAD DUP1 SWAP2 SUB SWAP1 REVERT JUMPDEST DUP1 PUSH1 0x4 PUSH1 0x0 PUSH2 0x100 EXP DUP2 SLOAD DUP2 PUSH20 0xFFFFFFFFFFFFFFFFFFFFFFFFFFFFFFFFFFFFFFFF MUL NOT AND SWAP1 DUP4 PUSH20 0xFFFFFFFFFFFFFFFFFFFFFFFFFFFFFFFFFFFFFFFF AND MUL OR SWAP1 SSTORE POP POP JUMP JUMPDEST PUSH1 0x3 PUSH1 0x0 SWAP1 SLOAD SWAP1 PUSH2 0x100 EXP SWAP1 DIV PUSH20 0xFFFFFFFFFFFFFFFFFFFFFFFFFFFFFFFFFFFFFFFF AND PUSH20 0xFFFFFFFFFFFFFFFFFFFFFFFFFFFFFFFFFFFFFFFF AND CALLER PUSH20 0xFFFFFFFFFFFFFFFFFFFFFFFFFFFFFFFFFFFFFFFF AND EQ PUSH3 0x13D6 JUMPI PUSH1 0x40 MLOAD PUSH32 0x8C379A000000000000000000000000000000000000000000000000000000000 DUP2 MSTORE PUSH1 0x4 ADD PUSH3 0x13CD SWAP1 PUSH3 0x32DE JUMP JUMPDEST PUSH1 0x40 MLOAD DUP1 SWAP2 SUB SWAP1 REVERT JUMPDEST PUSH1 0x2 PUSH1 0x0 SWAP1 SLOAD SWAP1 PUSH2 0x100 EXP SWAP1 DIV PUSH20 0xFFFFFFFFFFFFFFFFFFFFFFFFFFFFFFFFFFFFFFFF AND PUSH20 0xFFFFFFFFFFFFFFFFFFFFFFFFFFFFFFFFFFFFFFFF AND PUSH4 0xC4F987A5 DUP3 PUSH1 0x40 MLOAD DUP3 PUSH4 0xFFFFFFFF AND PUSH1 0xE0 SHL DUP2 MSTORE PUSH1 0x4 ADD PUSH3 0x1433 SWAP2 SWAP1 PUSH3 0x2E78 JUMP JUMPDEST PUSH1 0x0 PUSH1 0x40 MLOAD DUP1 DUP4 SUB DUP2 PUSH1 0x0 DUP8 DUP1 EXTCODESIZE ISZERO DUP1 ISZERO PUSH3 0x144E JUMPI PUSH1 0x0 DUP1 REVERT JUMPDEST POP GAS CALL ISZERO DUP1 ISZERO PUSH3 0x1463 JUMPI RETURNDATASIZE PUSH1 0x0 DUP1 RETURNDATACOPY RETURNDATASIZE PUSH1 0x0 REVERT JUMPDEST POP POP POP POP POP JUMP JUMPDEST PUSH3 0x1474 PUSH3 0x1E72 JUMP JUMPDEST PUSH1 0x2 PUSH1 0x0 SWAP1 SLOAD SWAP1 PUSH2 0x100 EXP SWAP1 DIV PUSH20 0xFFFFFFFFFFFFFFFFFFFFFFFFFFFFFFFFFFFFFFFF AND PUSH20 0xFFFFFFFFFFFFFFFFFFFFFFFFFFFFFFFFFFFFFFFF AND PUSH4 0x74A44D12 DUP4 PUSH1 0x40 MLOAD DUP3 PUSH4 0xFFFFFFFF AND PUSH1 0xE0 SHL DUP2 MSTORE PUSH1 0x4 ADD PUSH3 0x14D1 SWAP2 SWAP1 PUSH3 0x2E78 JUMP JUMPDEST PUSH1 0xA0 PUSH1 0x40 MLOAD DUP1 DUP4 SUB DUP2 DUP7 GAS STATICCALL ISZERO DUP1 ISZERO PUSH3 0x14EF JUMPI RETURNDATASIZE PUSH1 0x0 DUP1 RETURNDATACOPY RETURNDATASIZE PUSH1 0x0 REVERT JUMPDEST POP POP POP POP PUSH1 0x40 MLOAD RETURNDATASIZE PUSH1 0x1F NOT PUSH1 0x1F DUP3 ADD AND DUP3 ADD DUP1 PUSH1 0x40 MSTORE POP DUP2 ADD SWAP1 PUSH3 0x1515 SWAP2 SWAP1 PUSH3 0x339B JUMP JUMPDEST SWAP1 POP SWAP2 SWAP1 POP JUMP JUMPDEST PUSH1 0x0 DUP1 PUSH1 0x0 DUP1 PUSH1 0x0 DUP1 PUSH1 0x0 DUP1 PUSH1 0x60 DUP10 SWAP9 POP PUSH1 0x0 PUSH1 0x6 PUSH1 0x0 DUP13 DUP2 MSTORE PUSH1 0x20 ADD SWAP1 DUP2 MSTORE PUSH1 0x20 ADD PUSH1 0x0 KECCAK256 PUSH1 0x0 SWAP1 SLOAD SWAP1 PUSH2 0x100 EXP SWAP1 DIV PUSH20 0xFFFFFFFFFFFFFFFFFFFFFFFFFFFFFFFFFFFFFFFF AND SWAP1 POP DUP1 PUSH20 0xFFFFFFFFFFFFFFFFFFFFFFFFFFFFFFFFFFFFFFFF AND PUSH4 0x2C898945 PUSH1 0x40 MLOAD DUP2 PUSH4 0xFFFFFFFF AND PUSH1 0xE0 SHL DUP2 MSTORE PUSH1 0x4 ADD PUSH1 0x20 PUSH1 0x40 MLOAD DUP1 DUP4 SUB DUP2 DUP7 GAS STATICCALL ISZERO DUP1 ISZERO PUSH3 0x15B1 JUMPI RETURNDATASIZE PUSH1 0x0 DUP1 RETURNDATACOPY RETURNDATASIZE PUSH1 0x0 REVERT JUMPDEST POP POP POP POP PUSH1 0x40 MLOAD RETURNDATASIZE PUSH1 0x1F NOT PUSH1 0x1F DUP3 ADD AND DUP3 ADD DUP1 PUSH1 0x40 MSTORE POP DUP2 ADD SWAP1 PUSH3 0x15D7 SWAP2 SWAP1 PUSH3 0x2EE6 JUMP JUMPDEST SWAP9 POP DUP1 PUSH20 0xFFFFFFFFFFFFFFFFFFFFFFFFFFFFFFFFFFFFFFFF AND PUSH4 0xE7B0B190 PUSH1 0x40 MLOAD DUP2 PUSH4 0xFFFFFFFF AND PUSH1 0xE0 SHL DUP2 MSTORE PUSH1 0x4 ADD PUSH1 0x20 PUSH1 0x40 MLOAD DUP1 DUP4 SUB DUP2 DUP7 GAS STATICCALL ISZERO DUP1 ISZERO PUSH3 0x1625 JUMPI RETURNDATASIZE PUSH1 0x0 DUP1 RETURNDATACOPY RETURNDATASIZE PUSH1 0x0 REVERT JUMPDEST POP POP POP POP PUSH1 0x40 MLOAD RETURNDATASIZE PUSH1 0x1F NOT PUSH1 0x1F DUP3 ADD AND DUP3 ADD DUP1 PUSH1 0x40 MSTORE POP DUP2 ADD SWAP1 PUSH3 0x164B SWAP2 SWAP1 PUSH3 0x2EE6 JUMP JUMPDEST SWAP8 POP DUP1 PUSH20 0xFFFFFFFFFFFFFFFFFFFFFFFFFFFFFFFFFFFFFFFF AND PUSH4 0x109E94CF PUSH1 0x40 MLOAD DUP2 PUSH4 0xFFFFFFFF AND PUSH1 0xE0 SHL DUP2 MSTORE PUSH1 0x4 ADD PUSH1 0x20 PUSH1 0x40 MLOAD DUP1 DUP4 SUB DUP2 DUP7 GAS STATICCALL ISZERO DUP1 ISZERO PUSH3 0x1699 JUMPI RETURNDATASIZE PUSH1 0x0 DUP1 RETURNDATACOPY RETURNDATASIZE PUSH1 0x0 REVERT JUMPDEST POP POP POP POP PUSH1 0x40 MLOAD RETURNDATASIZE PUSH1 0x1F NOT PUSH1 0x1F DUP3 ADD AND DUP3 ADD DUP1 PUSH1 0x40 MSTORE POP DUP2 ADD SWAP1 PUSH3 0x16BF SWAP2 SWAP1 PUSH3 0x33CD JUMP JUMPDEST SWAP7 POP DUP1 PUSH20 0xFFFFFFFFFFFFFFFFFFFFFFFFFFFFFFFFFFFFFFFF AND PUSH4 0xC35905C6 PUSH1 0x40 MLOAD DUP2 PUSH4 0xFFFFFFFF AND PUSH1 0xE0 SHL DUP2 MSTORE PUSH1 0x4 ADD PUSH1 0x20 PUSH1 0x40 MLOAD DUP1 DUP4 SUB DUP2 DUP7 GAS STATICCALL ISZERO DUP1 ISZERO PUSH3 0x170D JUMPI RETURNDATASIZE PUSH1 0x0 DUP1 RETURNDATACOPY RETURNDATASIZE PUSH1 0x0 REVERT JUMPDEST POP POP POP POP PUSH1 0x40 MLOAD RETURNDATASIZE PUSH1 0x1F NOT PUSH1 0x1F DUP3 ADD AND DUP3 ADD DUP1 PUSH1 0x40 MSTORE POP DUP2 ADD SWAP1 PUSH3 0x1733 SWAP2 SWAP1 PUSH3 0x2EE6 JUMP JUMPDEST SWAP6 POP DUP1 PUSH20 0xFFFFFFFFFFFFFFFFFFFFFFFFFFFFFFFFFFFFFFFF AND PUSH4 0x2728E28B PUSH1 0x40 MLOAD DUP2 PUSH4 0xFFFFFFFF AND PUSH1 0xE0 SHL DUP2 MSTORE PUSH1 0x4 ADD PUSH1 0x20 PUSH1 0x40 MLOAD DUP1 DUP4 SUB DUP2 DUP7 GAS STATICCALL ISZERO DUP1 ISZERO PUSH3 0x1781 JUMPI RETURNDATASIZE PUSH1 0x0 DUP1 RETURNDATACOPY RETURNDATASIZE PUSH1 0x0 REVERT JUMPDEST POP POP POP POP PUSH1 0x40 MLOAD RETURNDATASIZE PUSH1 0x1F NOT PUSH1 0x1F DUP3 ADD AND DUP3 ADD DUP1 PUSH1 0x40 MSTORE POP DUP2 ADD SWAP1 PUSH3 0x17A7 SWAP2 SWAP1 PUSH3 0x3427 JUMP JUMPDEST SWAP5 POP DUP1 PUSH20 0xFFFFFFFFFFFFFFFFFFFFFFFFFFFFFFFFFFFFFFFF AND PUSH4 0xBEE80FC5 PUSH1 0x40 MLOAD DUP2 PUSH4 0xFFFFFFFF AND PUSH1 0xE0 SHL DUP2 MSTORE PUSH1 0x4 ADD PUSH1 0x20 PUSH1 0x40 MLOAD DUP1 DUP4 SUB DUP2 DUP7 GAS STATICCALL ISZERO DUP1 ISZERO PUSH3 0x17F5 JUMPI RETURNDATASIZE PUSH1 0x0 DUP1 RETURNDATACOPY RETURNDATASIZE PUSH1 0x0 REVERT JUMPDEST POP POP POP POP PUSH1 0x40 MLOAD RETURNDATASIZE PUSH1 0x1F NOT PUSH1 0x1F DUP3 ADD AND DUP3 ADD DUP1 PUSH1 0x40 MSTORE POP DUP2 ADD SWAP1 PUSH3 0x181B SWAP2 SWAP1 PUSH3 0x2EE6 JUMP JUMPDEST SWAP4 POP DUP1 PUSH20 0xFFFFFFFFFFFFFFFFFFFFFFFFFFFFFFFFFFFFFFFF AND PUSH4 0x523B0B36 PUSH1 0x40 MLOAD DUP2 PUSH4 0xFFFFFFFF AND PUSH1 0xE0 SHL DUP2 MSTORE PUSH1 0x4 ADD PUSH1 0x20 PUSH1 0x40 MLOAD DUP1 DUP4 SUB DUP2 DUP7 GAS STATICCALL ISZERO DUP1 ISZERO PUSH3 0x1869 JUMPI RETURNDATASIZE PUSH1 0x0 DUP1 RETURNDATACOPY RETURNDATASIZE PUSH1 0x0 REVERT JUMPDEST POP POP POP POP PUSH1 0x40 MLOAD RETURNDATASIZE PUSH1 0x1F NOT PUSH1 0x1F DUP3 ADD AND DUP3 ADD DUP1 PUSH1 0x40 MSTORE POP DUP2 ADD SWAP1 PUSH3 0x188F SWAP2 SWAP1 PUSH3 0x2EE6 JUMP JUMPDEST SWAP3 POP DUP1 PUSH20 0xFFFFFFFFFFFFFFFFFFFFFFFFFFFFFFFFFFFFFFFF AND PUSH4 0x58E9D3D5 PUSH1 0x40 MLOAD DUP2 PUSH4 0xFFFFFFFF AND PUSH1 0xE0 SHL DUP2 MSTORE PUSH1 0x4 ADD PUSH1 0x0 PUSH1 0x40 MLOAD DUP1 DUP4 SUB DUP2 DUP7 GAS STATICCALL ISZERO DUP1 ISZERO PUSH3 0x18DD JUMPI RETURNDATASIZE PUSH1 0x0 DUP1 RETURNDATACOPY RETURNDATASIZE PUSH1 0x0 REVERT JUMPDEST POP POP POP POP PUSH1 0x40 MLOAD RETURNDATASIZE PUSH1 0x0 DUP3 RETURNDATACOPY RETURNDATASIZE PUSH1 0x1F NOT PUSH1 0x1F DUP3 ADD AND DUP3 ADD DUP1 PUSH1 0x40 MSTORE POP DUP2 ADD SWAP1 PUSH3 0x1908 SWAP2 SWAP1 PUSH3 0x2E95 JUMP JUMPDEST SWAP2 POP POP SWAP2 SWAP4 SWAP6 SWAP8 SWAP10 SWAP1 SWAP3 SWAP5 SWAP7 SWAP9 POP JUMP JUMPDEST PUSH1 0x5 PUSH1 0x20 MSTORE DUP1 PUSH1 0x0 MSTORE PUSH1 0x40 PUSH1 0x0 KECCAK256 PUSH1 0x0 SWAP2 POP SWAP1 POP SLOAD DUP2 JUMP JUMPDEST PUSH32 0xC33356BC2BAD2CE263B056DA5D061D4E89C336823D5E77F14C1383AEDB7A1B3A PUSH1 0x1 PUSH1 0x0 SWAP1 SLOAD SWAP1 PUSH2 0x100 EXP SWAP1 DIV PUSH20 0xFFFFFFFFFFFFFFFFFFFFFFFFFFFFFFFFFFFFFFFF AND PUSH20 0xFFFFFFFFFFFFFFFFFFFFFFFFFFFFFFFFFFFFFFFF AND PUSH4 0xF650E0CF PUSH1 0x40 MLOAD DUP2 PUSH4 0xFFFFFFFF AND PUSH1 0xE0 SHL DUP2 MSTORE PUSH1 0x4 ADD PUSH1 0x20 PUSH1 0x40 MLOAD DUP1 DUP4 SUB DUP2 DUP7 GAS STATICCALL ISZERO DUP1 ISZERO PUSH3 0x19BF JUMPI RETURNDATASIZE PUSH1 0x0 DUP1 RETURNDATACOPY RETURNDATASIZE PUSH1 0x0 REVERT JUMPDEST POP POP POP POP PUSH1 0x40 MLOAD RETURNDATASIZE PUSH1 0x1F NOT PUSH1 0x1F DUP3 ADD AND DUP3 ADD DUP1 PUSH1 0x40 MSTORE POP DUP2 ADD SWAP1 PUSH3 0x19E5 SWAP2 SWAP1 PUSH3 0x2FEB JUMP JUMPDEST PUSH1 0x40 MLOAD PUSH3 0x19F4 SWAP2 SWAP1 PUSH3 0x346A JUMP JUMPDEST PUSH1 0x40 MLOAD DUP1 SWAP2 SUB SWAP1 LOG1 PUSH1 0x1 PUSH1 0x0 SWAP1 SLOAD SWAP1 PUSH2 0x100 EXP SWAP1 DIV PUSH20 0xFFFFFFFFFFFFFFFFFFFFFFFFFFFFFFFFFFFFFFFF AND PUSH20 0xFFFFFFFFFFFFFFFFFFFFFFFFFFFFFFFFFFFFFFFF AND PUSH4 0xF650E0CF PUSH1 0x40 MLOAD DUP2 PUSH4 0xFFFFFFFF AND PUSH1 0xE0 SHL DUP2 MSTORE PUSH1 0x4 ADD PUSH1 0x20 PUSH1 0x40 MLOAD DUP1 DUP4 SUB DUP2 DUP7 GAS STATICCALL ISZERO DUP1 ISZERO PUSH3 0x1A6A JUMPI RETURNDATASIZE PUSH1 0x0 DUP1 RETURNDATACOPY RETURNDATASIZE PUSH1 0x0 REVERT JUMPDEST POP POP POP POP PUSH1 0x40 MLOAD RETURNDATASIZE PUSH1 0x1F NOT PUSH1 0x1F DUP3 ADD AND DUP3 ADD DUP1 PUSH1 0x40 MSTORE POP DUP2 ADD SWAP1 PUSH3 0x1A90 SWAP2 SWAP1 PUSH3 0x2FEB JUMP JUMPDEST ISZERO PUSH3 0x1DCF JUMPI PUSH1 0x0 PUSH1 0x1 PUSH1 0x0 SWAP1 SLOAD SWAP1 PUSH2 0x100 EXP SWAP1 DIV PUSH20 0xFFFFFFFFFFFFFFFFFFFFFFFFFFFFFFFFFFFFFFFF AND PUSH20 0xFFFFFFFFFFFFFFFFFFFFFFFFFFFFFFFFFFFFFFFF AND PUSH4 0x98C43620 PUSH1 0x40 MLOAD DUP2 PUSH4 0xFFFFFFFF AND PUSH1 0xE0 SHL DUP2 MSTORE PUSH1 0x4 ADD PUSH1 0x0 PUSH1 0x40 MLOAD DUP1 DUP4 SUB DUP2 DUP7 GAS STATICCALL ISZERO DUP1 ISZERO PUSH3 0x1B06 JUMPI RETURNDATASIZE PUSH1 0x0 DUP1 RETURNDATACOPY RETURNDATASIZE PUSH1 0x0 REVERT JUMPDEST POP POP POP POP PUSH1 0x40 MLOAD RETURNDATASIZE PUSH1 0x0 DUP3 RETURNDATACOPY RETURNDATASIZE PUSH1 0x1F NOT PUSH1 0x1F DUP3 ADD AND DUP3 ADD DUP1 PUSH1 0x40 MSTORE POP DUP2 ADD SWAP1 PUSH3 0x1B31 SWAP2 SWAP1 PUSH3 0x2B37 JUMP JUMPDEST SWAP1 POP PUSH1 0x0 PUSH1 0x2 PUSH1 0x0 SWAP1 SLOAD SWAP1 PUSH2 0x100 EXP SWAP1 DIV PUSH20 0xFFFFFFFFFFFFFFFFFFFFFFFFFFFFFFFFFFFFFFFF AND PUSH20 0xFFFFFFFFFFFFFFFFFFFFFFFFFFFFFFFFFFFFFFFF AND PUSH4 0x8B09BFFD DUP4 PUSH1 0xA0 ADD MLOAD DUP5 PUSH1 0x0 ADD MLOAD DUP6 PUSH2 0x100 ADD MLOAD DUP7 PUSH2 0x120 ADD MLOAD PUSH1 0x40 MLOAD DUP6 PUSH4 0xFFFFFFFF AND PUSH1 0xE0 SHL DUP2 MSTORE PUSH1 0x4 ADD PUSH3 0x1BAA SWAP5 SWAP4 SWAP3 SWAP2 SWAP1 PUSH3 0x3487 JUMP JUMPDEST PUSH1 0x20 PUSH1 0x40 MLOAD DUP1 DUP4 SUB DUP2 PUSH1 0x0 DUP8 GAS CALL ISZERO DUP1 ISZERO PUSH3 0x1BCA JUMPI RETURNDATASIZE PUSH1 0x0 DUP1 RETURNDATACOPY RETURNDATASIZE PUSH1 0x0 REVERT JUMPDEST POP POP POP POP PUSH1 0x40 MLOAD RETURNDATASIZE PUSH1 0x1F NOT PUSH1 0x1F DUP3 ADD AND DUP3 ADD DUP1 PUSH1 0x40 MSTORE POP DUP2 ADD SWAP1 PUSH3 0x1BF0 SWAP2 SWAP1 PUSH3 0x2EE6 JUMP JUMPDEST SWAP1 POP PUSH1 0x2 PUSH1 0x0 SWAP1 SLOAD SWAP1 PUSH2 0x100 EXP SWAP1 DIV PUSH20 0xFFFFFFFFFFFFFFFFFFFFFFFFFFFFFFFFFFFFFFFF AND PUSH20 0xFFFFFFFFFFFFFFFFFFFFFFFFFFFFFFFFFFFFFFFF AND PUSH4 0x6E5720A2 PUSH1 0x40 MLOAD DUP2 PUSH4 0xFFFFFFFF AND PUSH1 0xE0 SHL DUP2 MSTORE PUSH1 0x4 ADD PUSH1 0x20 PUSH1 0x40 MLOAD DUP1 DUP4 SUB DUP2 DUP7 GAS STATICCALL ISZERO DUP1 ISZERO PUSH3 0x1C60 JUMPI RETURNDATASIZE PUSH1 0x0 DUP1 RETURNDATACOPY RETURNDATASIZE PUSH1 0x0 REVERT JUMPDEST POP POP POP POP PUSH1 0x40 MLOAD RETURNDATASIZE PUSH1 0x1F NOT PUSH1 0x1F DUP3 ADD AND DUP3 ADD DUP1 PUSH1 0x40 MSTORE POP DUP2 ADD SWAP1 PUSH3 0x1C86 SWAP2 SWAP1 PUSH3 0x2EE6 JUMP JUMPDEST DUP2 EQ PUSH3 0x1DCC JUMPI PUSH1 0x6 PUSH1 0x0 DUP4 PUSH1 0x20 ADD MLOAD DUP2 MSTORE PUSH1 0x20 ADD SWAP1 DUP2 MSTORE PUSH1 0x20 ADD PUSH1 0x0 KECCAK256 PUSH1 0x0 SWAP1 SLOAD SWAP1 PUSH2 0x100 EXP SWAP1 DIV PUSH20 0xFFFFFFFFFFFFFFFFFFFFFFFFFFFFFFFFFFFFFFFF AND PUSH20 0xFFFFFFFFFFFFFFFFFFFFFFFFFFFFFFFFFFFFFFFF AND PUSH4 0xB8896EB6 PUSH1 0x1 PUSH1 0x40 MLOAD DUP3 PUSH4 0xFFFFFFFF AND PUSH1 0xE0 SHL DUP2 MSTORE PUSH1 0x4 ADD PUSH3 0x1D00 SWAP2 SWAP1 PUSH3 0x308F JUMP JUMPDEST PUSH1 0x0 PUSH1 0x40 MLOAD DUP1 DUP4 SUB DUP2 PUSH1 0x0 DUP8 DUP1 EXTCODESIZE ISZERO DUP1 ISZERO PUSH3 0x1D1B JUMPI PUSH1 0x0 DUP1 REVERT JUMPDEST POP GAS CALL ISZERO DUP1 ISZERO PUSH3 0x1D30 JUMPI RETURNDATASIZE PUSH1 0x0 DUP1 RETURNDATACOPY RETURNDATASIZE PUSH1 0x0 REVERT JUMPDEST POP POP POP POP PUSH1 0x1 PUSH1 0x0 SWAP1 SLOAD SWAP1 PUSH2 0x100 EXP SWAP1 DIV PUSH20 0xFFFFFFFFFFFFFFFFFFFFFFFFFFFFFFFFFFFFFFFF AND PUSH20 0xFFFFFFFFFFFFFFFFFFFFFFFFFFFFFFFFFFFFFFFF AND PUSH4 0x1612C40 DUP4 PUSH1 0x0 ADD MLOAD DUP4 PUSH1 0x40 MLOAD DUP4 PUSH4 0xFFFFFFFF AND PUSH1 0xE0 SHL DUP2 MSTORE PUSH1 0x4 ADD PUSH3 0x1D97 SWAP3 SWAP2 SWAP1 PUSH3 0x34D4 JUMP JUMPDEST PUSH1 0x0 PUSH1 0x40 MLOAD DUP1 DUP4 SUB DUP2 PUSH1 0x0 DUP8 DUP1 EXTCODESIZE ISZERO DUP1 ISZERO PUSH3 0x1DB2 JUMPI PUSH1 0x0 DUP1 REVERT JUMPDEST POP GAS CALL ISZERO DUP1 ISZERO PUSH3 0x1DC7 JUMPI RETURNDATASIZE PUSH1 0x0 DUP1 RETURNDATACOPY RETURNDATASIZE PUSH1 0x0 REVERT JUMPDEST POP POP POP POP JUMPDEST POP POP JUMPDEST JUMP JUMPDEST PUSH1 0x40 MLOAD DUP1 PUSH2 0x140 ADD PUSH1 0x40 MSTORE DUP1 PUSH1 0x0 DUP2 MSTORE PUSH1 0x20 ADD PUSH1 0x0 DUP2 MSTORE PUSH1 0x20 ADD PUSH1 0x0 PUSH1 0x1 DUP2 GT ISZERO PUSH3 0x1E02 JUMPI PUSH3 0x1E01 PUSH3 0x1F37 JUMP JUMPDEST JUMPDEST DUP2 MSTORE PUSH1 0x20 ADD PUSH1 0x0 PUSH1 0x2 DUP2 GT ISZERO PUSH3 0x1E1E JUMPI PUSH3 0x1E1D PUSH3 0x1F37 JUMP JUMPDEST JUMPDEST DUP2 MSTORE PUSH1 0x20 ADD PUSH1 0x60 DUP2 MSTORE PUSH1 0x20 ADD PUSH1 0x0 DUP2 MSTORE PUSH1 0x20 ADD PUSH1 0x0 PUSH20 0xFFFFFFFFFFFFFFFFFFFFFFFFFFFFFFFFFFFFFFFF AND DUP2 MSTORE PUSH1 0x20 ADD PUSH1 0x0 DUP2 MSTORE PUSH1 0x20 ADD PUSH1 0x0 DUP2 MSTORE PUSH1 0x20 ADD PUSH1 0x0 DUP2 MSTORE POP SWAP1 JUMP JUMPDEST PUSH2 0xD75 DUP1 PUSH3 0x3502 DUP4 CODECOPY ADD SWAP1 JUMP JUMPDEST PUSH1 0x40 MLOAD DUP1 PUSH1 0xA0 ADD PUSH1 0x40 MSTORE DUP1 PUSH1 0x0 DUP2 MSTORE PUSH1 0x20 ADD PUSH1 0x0 DUP2 MSTORE PUSH1 0x20 ADD PUSH1 0x0 ISZERO ISZERO DUP2 MSTORE PUSH1 0x20 ADD PUSH1 0x0 ISZERO ISZERO DUP2 MSTORE PUSH1 0x20 ADD PUSH1 0x0 DUP2 MSTORE POP SWAP1 JUMP JUMPDEST PUSH1 0x0 PUSH1 0x40 MLOAD SWAP1 POP SWAP1 JUMP JUMPDEST PUSH1 0x0 DUP1 REVERT JUMPDEST PUSH1 0x0 DUP1 REVERT JUMPDEST PUSH1 0x0 DUP2 SWAP1 POP SWAP2 SWAP1 POP JUMP JUMPDEST PUSH3 0x1ECE DUP2 PUSH3 0x1EB9 JUMP JUMPDEST DUP2 EQ PUSH3 0x1EDA JUMPI PUSH1 0x0 DUP1 REVERT JUMPDEST POP JUMP JUMPDEST PUSH1 0x0 DUP2 CALLDATALOAD SWAP1 POP PUSH3 0x1EEE DUP2 PUSH3 0x1EC3 JUMP JUMPDEST SWAP3 SWAP2 POP POP JUMP JUMPDEST PUSH1 0x0 PUSH1 0x20 DUP3 DUP5 SUB SLT ISZERO PUSH3 0x1F0D JUMPI PUSH3 0x1F0C PUSH3 0x1EAF JUMP JUMPDEST JUMPDEST PUSH1 0x0 PUSH3 0x1F1D DUP5 DUP3 DUP6 ADD PUSH3 0x1EDD JUMP JUMPDEST SWAP2 POP POP SWAP3 SWAP2 POP POP JUMP JUMPDEST PUSH3 0x1F31 DUP2 PUSH3 0x1EB9 JUMP JUMPDEST DUP3 MSTORE POP POP JUMP JUMPDEST PUSH32 0x4E487B7100000000000000000000000000000000000000000000000000000000 PUSH1 0x0 MSTORE PUSH1 0x21 PUSH1 0x4 MSTORE PUSH1 0x24 PUSH1 0x0 REVERT JUMPDEST PUSH1 0x2 DUP2 LT PUSH3 0x1F7A JUMPI PUSH3 0x1F79 PUSH3 0x1F37 JUMP JUMPDEST JUMPDEST POP JUMP JUMPDEST PUSH1 0x0 DUP2 SWAP1 POP PUSH3 0x1F8D DUP3 PUSH3 0x1F66 JUMP JUMPDEST SWAP2 SWAP1 POP JUMP JUMPDEST PUSH1 0x0 PUSH3 0x1F9F DUP3 PUSH3 0x1F7D JUMP JUMPDEST SWAP1 POP SWAP2 SWAP1 POP JUMP JUMPDEST PUSH3 0x1FB1 DUP2 PUSH3 0x1F92 JUMP JUMPDEST DUP3 MSTORE POP POP JUMP JUMPDEST PUSH1 0x3 DUP2 LT PUSH3 0x1FCB JUMPI PUSH3 0x1FCA PUSH3 0x1F37 JUMP JUMPDEST JUMPDEST POP JUMP JUMPDEST PUSH1 0x0 DUP2 SWAP1 POP PUSH3 0x1FDE DUP3 PUSH3 0x1FB7 JUMP JUMPDEST SWAP2 SWAP1 POP JUMP JUMPDEST PUSH1 0x0 PUSH3 0x1FF0 DUP3 PUSH3 0x1FCE JUMP JUMPDEST SWAP1 POP SWAP2 SWAP1 POP JUMP JUMPDEST PUSH3 0x2002 DUP2 PUSH3 0x1FE3 JUMP JUMPDEST DUP3 MSTORE POP POP JUMP JUMPDEST PUSH1 0x0 DUP2 MLOAD SWAP1 POP SWAP2 SWAP1 POP JUMP JUMPDEST PUSH1 0x0 DUP3 DUP3 MSTORE PUSH1 0x20 DUP3 ADD SWAP1 POP SWAP3 SWAP2 POP POP JUMP JUMPDEST PUSH1 0x0 JUMPDEST DUP4 DUP2 LT ISZERO PUSH3 0x2044 JUMPI DUP1 DUP3 ADD MLOAD DUP2 DUP5 ADD MSTORE PUSH1 0x20 DUP2 ADD SWAP1 POP PUSH3 0x2027 JUMP JUMPDEST PUSH1 0x0 DUP5 DUP5 ADD MSTORE POP POP POP POP JUMP JUMPDEST PUSH1 0x0 PUSH1 0x1F NOT PUSH1 0x1F DUP4 ADD AND SWAP1 POP SWAP2 SWAP1 POP JUMP JUMPDEST PUSH1 0x0 PUSH3 0x206E DUP3 PUSH3 0x2008 JUMP JUMPDEST PUSH3 0x207A DUP2 DUP6 PUSH3 0x2013 JUMP JUMPDEST SWAP4 POP PUSH3 0x208C DUP2 DUP6 PUSH1 0x20 DUP7 ADD PUSH3 0x2024 JUMP JUMPDEST PUSH3 0x2097 DUP2 PUSH3 0x2050 JUMP JUMPDEST DUP5 ADD SWAP2 POP POP SWAP3 SWAP2 POP POP JUMP JUMPDEST PUSH1 0x0 PUSH20 0xFFFFFFFFFFFFFFFFFFFFFFFFFFFFFFFFFFFFFFFF DUP3 AND SWAP1 POP SWAP2 SWAP1 POP JUMP JUMPDEST PUSH1 0x0 PUSH3 0x20CF DUP3 PUSH3 0x20A2 JUMP JUMPDEST SWAP1 POP SWAP2 SWAP1 POP JUMP JUMPDEST PUSH3 0x20E1 DUP2 PUSH3 0x20C2 JUMP JUMPDEST DUP3 MSTORE POP POP JUMP JUMPDEST PUSH1 0x0 PUSH2 0x140 DUP4 ADD PUSH1 0x0 DUP4 ADD MLOAD PUSH3 0x2102 PUSH1 0x0 DUP7 ADD DUP3 PUSH3 0x1F26 JUMP JUMPDEST POP PUSH1 0x20 DUP4 ADD MLOAD PUSH3 0x2117 PUSH1 0x20 DUP7 ADD DUP3 PUSH3 0x1F26 JUMP JUMPDEST POP PUSH1 0x40 DUP4 ADD MLOAD PUSH3 0x212C PUSH1 0x40 DUP7 ADD DUP3 PUSH3 0x1FA6 JUMP JUMPDEST POP PUSH1 0x60 DUP4 ADD MLOAD PUSH3 0x2141 PUSH1 0x60 DUP7 ADD DUP3 PUSH3 0x1FF7 JUMP JUMPDEST POP PUSH1 0x80 DUP4 ADD MLOAD DUP5 DUP3 SUB PUSH1 0x80 DUP7 ADD MSTORE PUSH3 0x215B DUP3 DUP3 PUSH3 0x2061 JUMP JUMPDEST SWAP2 POP POP PUSH1 0xA0 DUP4 ADD MLOAD PUSH3 0x2172 PUSH1 0xA0 DUP7 ADD DUP3 PUSH3 0x1F26 JUMP JUMPDEST POP PUSH1 0xC0 DUP4 ADD MLOAD PUSH3 0x2187 PUSH1 0xC0 DUP7 ADD DUP3 PUSH3 0x20D6 JUMP JUMPDEST POP PUSH1 0xE0 DUP4 ADD MLOAD PUSH3 0x219C PUSH1 0xE0 DUP7 ADD DUP3 PUSH3 0x1F26 JUMP JUMPDEST POP PUSH2 0x100 DUP4 ADD MLOAD PUSH3 0x21B3 PUSH2 0x100 DUP7 ADD DUP3 PUSH3 0x1F26 JUMP JUMPDEST POP PUSH2 0x120 DUP4 ADD MLOAD PUSH3 0x21CA PUSH2 0x120 DUP7 ADD DUP3 PUSH3 0x1F26 JUMP JUMPDEST POP DUP1 SWAP2 POP POP SWAP3 SWAP2 POP POP JUMP JUMPDEST PUSH1 0x0 PUSH1 0x20 DUP3 ADD SWAP1 POP DUP2 DUP2 SUB PUSH1 0x0 DUP4 ADD MSTORE PUSH3 0x21F1 DUP2 DUP5 PUSH3 0x20E7 JUMP JUMPDEST SWAP1 POP SWAP3 SWAP2 POP POP JUMP JUMPDEST PUSH1 0x0 DUP2 MLOAD SWAP1 POP SWAP2 SWAP1 POP JUMP JUMPDEST PUSH1 0x0 DUP3 DUP3 MSTORE PUSH1 0x20 DUP3 ADD SWAP1 POP SWAP3 SWAP2 POP POP JUMP JUMPDEST PUSH1 0x0 DUP2 SWAP1 POP PUSH1 0x20 DUP3 ADD SWAP1 POP SWAP2 SWAP1 POP JUMP JUMPDEST PUSH1 0x0 PUSH3 0x2233 DUP4 DUP4 PUSH3 0x20D6 JUMP JUMPDEST PUSH1 0x20 DUP4 ADD SWAP1 POP SWAP3 SWAP2 POP POP JUMP JUMPDEST PUSH1 0x0 PUSH1 0x20 DUP3 ADD SWAP1 POP SWAP2 SWAP1 POP JUMP JUMPDEST PUSH1 0x0 PUSH3 0x2259 DUP3 PUSH3 0x21F9 JUMP JUMPDEST PUSH3 0x2265 DUP2 DUP6 PUSH3 0x2204 JUMP JUMPDEST SWAP4 POP PUSH3 0x2272 DUP4 PUSH3 0x2215 JUMP JUMPDEST DUP1 PUSH1 0x0 JUMPDEST DUP4 DUP2 LT ISZERO PUSH3 0x22A9 JUMPI DUP2 MLOAD PUSH3 0x228D DUP9 DUP3 PUSH3 0x2225 JUMP JUMPDEST SWAP8 POP PUSH3 0x229A DUP4 PUSH3 0x223F JUMP JUMPDEST SWAP3 POP POP PUSH1 0x1 DUP2 ADD SWAP1 POP PUSH3 0x2276 JUMP JUMPDEST POP DUP6 SWAP4 POP POP POP POP SWAP3 SWAP2 POP POP JUMP JUMPDEST PUSH1 0x0 PUSH1 0x20 DUP3 ADD SWAP1 POP DUP2 DUP2 SUB PUSH1 0x0 DUP4 ADD MSTORE PUSH3 0x22D2 DUP2 DUP5 PUSH3 0x224C JUMP JUMPDEST SWAP1 POP SWAP3 SWAP2 POP POP JUMP JUMPDEST PUSH1 0x0 DUP1 REVERT JUMPDEST PUSH1 0x0 DUP1 REVERT JUMPDEST PUSH32 0x4E487B7100000000000000000000000000000000000000000000000000000000 PUSH1 0x0 MSTORE PUSH1 0x41 PUSH1 0x4 MSTORE PUSH1 0x24 PUSH1 0x0 REVERT JUMPDEST PUSH3 0x231E DUP3 PUSH3 0x2050 JUMP JUMPDEST DUP2 ADD DUP2 DUP2 LT PUSH8 0xFFFFFFFFFFFFFFFF DUP3 GT OR ISZERO PUSH3 0x2340 JUMPI PUSH3 0x233F PUSH3 0x22E4 JUMP JUMPDEST JUMPDEST DUP1 PUSH1 0x40 MSTORE POP POP POP JUMP JUMPDEST PUSH1 0x0 PUSH3 0x2355 PUSH3 0x1EA5 JUMP JUMPDEST SWAP1 POP PUSH3 0x2363 DUP3 DUP3 PUSH3 0x2313 JUMP JUMPDEST SWAP2 SWAP1 POP JUMP JUMPDEST PUSH1 0x0 PUSH8 0xFFFFFFFFFFFFFFFF DUP3 GT ISZERO PUSH3 0x2386 JUMPI PUSH3 0x2385 PUSH3 0x22E4 JUMP JUMPDEST JUMPDEST PUSH3 0x2391 DUP3 PUSH3 0x2050 JUMP JUMPDEST SWAP1 POP PUSH1 0x20 DUP2 ADD SWAP1 POP SWAP2 SWAP1 POP JUMP JUMPDEST DUP3 DUP2 DUP4 CALLDATACOPY PUSH1 0x0 DUP4 DUP4 ADD MSTORE POP POP POP JUMP JUMPDEST PUSH1 0x0 PUSH3 0x23C4 PUSH3 0x23BE DUP5 PUSH3 0x2368 JUMP JUMPDEST PUSH3 0x2349 JUMP JUMPDEST SWAP1 POP DUP3 DUP2 MSTORE PUSH1 0x20 DUP2 ADD DUP5 DUP5 DUP5 ADD GT ISZERO PUSH3 0x23E3 JUMPI PUSH3 0x23E2 PUSH3 0x22DF JUMP JUMPDEST JUMPDEST PUSH3 0x23F0 DUP5 DUP3 DUP6 PUSH3 0x239E JUMP JUMPDEST POP SWAP4 SWAP3 POP POP POP JUMP JUMPDEST PUSH1 0x0 DUP3 PUSH1 0x1F DUP4 ADD SLT PUSH3 0x2410 JUMPI PUSH3 0x240F PUSH3 0x22DA JUMP JUMPDEST JUMPDEST DUP2 CALLDATALOAD PUSH3 0x2422 DUP5 DUP3 PUSH1 0x20 DUP7 ADD PUSH3 0x23AD JUMP JUMPDEST SWAP2 POP POP SWAP3 SWAP2 POP POP JUMP JUMPDEST PUSH1 0x0 DUP1 PUSH1 0x0 DUP1 PUSH1 0x80 DUP6 DUP8 SUB SLT ISZERO PUSH3 0x2448 JUMPI PUSH3 0x2447 PUSH3 0x1EAF JUMP JUMPDEST JUMPDEST PUSH1 0x0 DUP6 ADD CALLDATALOAD PUSH8 0xFFFFFFFFFFFFFFFF DUP2 GT ISZERO PUSH3 0x2469 JUMPI PUSH3 0x2468 PUSH3 0x1EB4 JUMP JUMPDEST JUMPDEST PUSH3 0x2477 DUP8 DUP3 DUP9 ADD PUSH3 0x23F8 JUMP JUMPDEST SWAP5 POP POP PUSH1 0x20 PUSH3 0x248A DUP8 DUP3 DUP9 ADD PUSH3 0x1EDD JUMP JUMPDEST SWAP4 POP POP PUSH1 0x40 PUSH3 0x249D DUP8 DUP3 DUP9 ADD PUSH3 0x1EDD JUMP JUMPDEST SWAP3 POP POP PUSH1 0x60 PUSH3 0x24B0 DUP8 DUP3 DUP9 ADD PUSH3 0x1EDD JUMP JUMPDEST SWAP2 POP POP SWAP3 SWAP6 SWAP2 SWAP5 POP SWAP3 POP JUMP JUMPDEST PUSH3 0x24C7 DUP2 PUSH3 0x1EB9 JUMP JUMPDEST DUP3 MSTORE POP POP JUMP JUMPDEST PUSH1 0x0 PUSH1 0x20 DUP3 ADD SWAP1 POP PUSH3 0x24E4 PUSH1 0x0 DUP4 ADD DUP5 PUSH3 0x24BC JUMP JUMPDEST SWAP3 SWAP2 POP POP JUMP JUMPDEST PUSH3 0x24F5 DUP2 PUSH3 0x20C2 JUMP JUMPDEST DUP2 EQ PUSH3 0x2501 JUMPI PUSH1 0x0 DUP1 REVERT JUMPDEST POP JUMP JUMPDEST PUSH1 0x0 DUP2 CALLDATALOAD SWAP1 POP PUSH3 0x2515 DUP2 PUSH3 0x24EA JUMP JUMPDEST SWAP3 SWAP2 POP POP JUMP JUMPDEST PUSH1 0x0 PUSH1 0x20 DUP3 DUP5 SUB SLT ISZERO PUSH3 0x2534 JUMPI PUSH3 0x2533 PUSH3 0x1EAF JUMP JUMPDEST JUMPDEST PUSH1 0x0 PUSH3 0x2544 DUP5 DUP3 DUP6 ADD PUSH3 0x2504 JUMP JUMPDEST SWAP2 POP POP SWAP3 SWAP2 POP POP JUMP JUMPDEST PUSH1 0x0 DUP2 MLOAD SWAP1 POP SWAP2 SWAP1 POP JUMP JUMPDEST PUSH1 0x0 DUP3 DUP3 MSTORE PUSH1 0x20 DUP3 ADD SWAP1 POP SWAP3 SWAP2 POP POP JUMP JUMPDEST PUSH1 0x0 DUP2 SWAP1 POP PUSH1 0x20 DUP3 ADD SWAP1 POP SWAP2 SWAP1 POP JUMP JUMPDEST PUSH1 0x0 PUSH3 0x2587 DUP4 DUP4 PUSH3 0x1F26 JUMP JUMPDEST PUSH1 0x20 DUP4 ADD SWAP1 POP SWAP3 SWAP2 POP POP JUMP JUMPDEST PUSH1 0x0 PUSH1 0x20 DUP3 ADD SWAP1 POP SWAP2 SWAP1 POP JUMP JUMPDEST PUSH1 0x0 PUSH3 0x25AD DUP3 PUSH3 0x254D JUMP JUMPDEST PUSH3 0x25B9 DUP2 DUP6 PUSH3 0x2558 JUMP JUMPDEST SWAP4 POP PUSH3 0x25C6 DUP4 PUSH3 0x2569 JUMP JUMPDEST DUP1 PUSH1 0x0 JUMPDEST DUP4 DUP2 LT ISZERO PUSH3 0x25FD JUMPI DUP2 MLOAD PUSH3 0x25E1 DUP9 DUP3 PUSH3 0x2579 JUMP JUMPDEST SWAP8 POP PUSH3 0x25EE DUP4 PUSH3 0x2593 JUMP JUMPDEST SWAP3 POP POP PUSH1 0x1 DUP2 ADD SWAP1 POP PUSH3 0x25CA JUMP JUMPDEST POP DUP6 SWAP4 POP POP POP POP SWAP3 SWAP2 POP POP JUMP JUMPDEST PUSH1 0x0 PUSH1 0x20 DUP3 ADD SWAP1 POP DUP2 DUP2 SUB PUSH1 0x0 DUP4 ADD MSTORE PUSH3 0x2626 DUP2 DUP5 PUSH3 0x25A0 JUMP JUMPDEST SWAP1 POP SWAP3 SWAP2 POP POP JUMP JUMPDEST PUSH1 0x0 DUP1 PUSH1 0x40 DUP4 DUP6 SUB SLT ISZERO PUSH3 0x2648 JUMPI PUSH3 0x2647 PUSH3 0x1EAF JUMP JUMPDEST JUMPDEST PUSH1 0x0 PUSH3 0x2658 DUP6 DUP3 DUP7 ADD PUSH3 0x2504 JUMP JUMPDEST SWAP3 POP POP PUSH1 0x20 PUSH3 0x266B DUP6 DUP3 DUP7 ADD PUSH3 0x1EDD JUMP JUMPDEST SWAP2 POP POP SWAP3 POP SWAP3 SWAP1 POP JUMP JUMPDEST PUSH1 0x0 DUP2 SWAP1 POP SWAP2 SWAP1 POP JUMP JUMPDEST PUSH1 0x0 PUSH3 0x26A0 PUSH3 0x269A PUSH3 0x2694 DUP5 PUSH3 0x20A2 JUMP JUMPDEST PUSH3 0x2675 JUMP JUMPDEST PUSH3 0x20A2 JUMP JUMPDEST SWAP1 POP SWAP2 SWAP1 POP JUMP JUMPDEST PUSH1 0x0 PUSH3 0x26B4 DUP3 PUSH3 0x267F JUMP JUMPDEST SWAP1 POP SWAP2 SWAP1 POP JUMP JUMPDEST PUSH1 0x0 PUSH3 0x26C8 DUP3 PUSH3 0x26A7 JUMP JUMPDEST SWAP1 POP SWAP2 SWAP1 POP JUMP JUMPDEST PUSH3 0x26DA DUP2 PUSH3 0x26BB JUMP JUMPDEST DUP3 MSTORE POP POP JUMP JUMPDEST PUSH1 0x0 PUSH1 0x20 DUP3 ADD SWAP1 POP PUSH3 0x26F7 PUSH1 0x0 DUP4 ADD DUP5 PUSH3 0x26CF JUMP JUMPDEST SWAP3 SWAP2 POP POP JUMP JUMPDEST PUSH1 0x0 DUP2 ISZERO ISZERO SWAP1 POP SWAP2 SWAP1 POP JUMP JUMPDEST PUSH3 0x2714 DUP2 PUSH3 0x26FD JUMP JUMPDEST DUP3 MSTORE POP POP JUMP JUMPDEST PUSH1 0xA0 DUP3 ADD PUSH1 0x0 DUP3 ADD MLOAD PUSH3 0x2732 PUSH1 0x0 DUP6 ADD DUP3 PUSH3 0x1F26 JUMP JUMPDEST POP PUSH1 0x20 DUP3 ADD MLOAD PUSH3 0x2747 PUSH1 0x20 DUP6 ADD DUP3 PUSH3 0x1F26 JUMP JUMPDEST POP PUSH1 0x40 DUP3 ADD MLOAD PUSH3 0x275C PUSH1 0x40 DUP6 ADD DUP3 PUSH3 0x2709 JUMP JUMPDEST POP PUSH1 0x60 DUP3 ADD MLOAD PUSH3 0x2771 PUSH1 0x60 DUP6 ADD DUP3 PUSH3 0x2709 JUMP JUMPDEST POP PUSH1 0x80 DUP3 ADD MLOAD PUSH3 0x2786 PUSH1 0x80 DUP6 ADD DUP3 PUSH3 0x1F26 JUMP JUMPDEST POP POP POP POP JUMP JUMPDEST PUSH1 0x0 PUSH1 0xA0 DUP3 ADD SWAP1 POP PUSH3 0x27A3 PUSH1 0x0 DUP4 ADD DUP5 PUSH3 0x271A JUMP JUMPDEST SWAP3 SWAP2 POP POP JUMP JUMPDEST PUSH3 0x27B4 DUP2 PUSH3 0x20C2 JUMP JUMPDEST DUP3 MSTORE POP POP JUMP JUMPDEST PUSH1 0x4 DUP2 LT PUSH3 0x27CE JUMPI PUSH3 0x27CD PUSH3 0x1F37 JUMP JUMPDEST JUMPDEST POP JUMP JUMPDEST PUSH1 0x0 DUP2 SWAP1 POP PUSH3 0x27E1 DUP3 PUSH3 0x27BA JUMP JUMPDEST SWAP2 SWAP1 POP JUMP JUMPDEST PUSH1 0x0 PUSH3 0x27F3 DUP3 PUSH3 0x27D1 JUMP JUMPDEST SWAP1 POP SWAP2 SWAP1 POP JUMP JUMPDEST PUSH3 0x2805 DUP2 PUSH3 0x27E6 JUMP JUMPDEST DUP3 MSTORE POP POP JUMP JUMPDEST PUSH1 0x0 DUP3 DUP3 MSTORE PUSH1 0x20 DUP3 ADD SWAP1 POP SWAP3 SWAP2 POP POP JUMP JUMPDEST PUSH1 0x0 PUSH3 0x2829 DUP3 PUSH3 0x2008 JUMP JUMPDEST PUSH3 0x2835 DUP2 DUP6 PUSH3 0x280B JUMP JUMPDEST SWAP4 POP PUSH3 0x2847 DUP2 DUP6 PUSH1 0x20 DUP7 ADD PUSH3 0x2024 JUMP JUMPDEST PUSH3 0x2852 DUP2 PUSH3 0x2050 JUMP JUMPDEST DUP5 ADD SWAP2 POP POP SWAP3 SWAP2 POP POP JUMP JUMPDEST PUSH1 0x0 PUSH2 0x120 DUP3 ADD SWAP1 POP PUSH3 0x2875 PUSH1 0x0 DUP4 ADD DUP13 PUSH3 0x24BC JUMP JUMPDEST PUSH3 0x2884 PUSH1 0x20 DUP4 ADD DUP12 PUSH3 0x24BC JUMP JUMPDEST PUSH3 0x2893 PUSH1 0x40 DUP4 ADD DUP11 PUSH3 0x24BC JUMP JUMPDEST PUSH3 0x28A2 PUSH1 0x60 DUP4 ADD DUP10 PUSH3 0x27A9 JUMP JUMPDEST PUSH3 0x28B1 PUSH1 0x80 DUP4 ADD DUP9 PUSH3 0x24BC JUMP JUMPDEST PUSH3 0x28C0 PUSH1 0xA0 DUP4 ADD DUP8 PUSH3 0x27FA JUMP JUMPDEST PUSH3 0x28CF PUSH1 0xC0 DUP4 ADD DUP7 PUSH3 0x24BC JUMP JUMPDEST PUSH3 0x28DE PUSH1 0xE0 DUP4 ADD DUP6 PUSH3 0x24BC JUMP JUMPDEST DUP2 DUP2 SUB PUSH2 0x100 DUP4 ADD MSTORE PUSH3 0x28F3 DUP2 DUP5 PUSH3 0x281C JUMP JUMPDEST SWAP1 POP SWAP11 SWAP10 POP POP POP POP POP POP POP POP POP POP JUMP JUMPDEST PUSH1 0x0 DUP1 REVERT JUMPDEST PUSH1 0x0 DUP1 REVERT JUMPDEST PUSH1 0x0 DUP2 MLOAD SWAP1 POP PUSH3 0x291E DUP2 PUSH3 0x1EC3 JUMP JUMPDEST SWAP3 SWAP2 POP POP JUMP JUMPDEST PUSH1 0x2 DUP2 LT PUSH3 0x2932 JUMPI PUSH1 0x0 DUP1 REVERT JUMPDEST POP JUMP JUMPDEST PUSH1 0x0 DUP2 MLOAD SWAP1 POP PUSH3 0x2946 DUP2 PUSH3 0x2924 JUMP JUMPDEST SWAP3 SWAP2 POP POP JUMP JUMPDEST PUSH1 0x3 DUP2 LT PUSH3 0x295A JUMPI PUSH1 0x0 DUP1 REVERT JUMPDEST POP JUMP JUMPDEST PUSH1 0x0 DUP2 MLOAD SWAP1 POP PUSH3 0x296E DUP2 PUSH3 0x294C JUMP JUMPDEST SWAP3 SWAP2 POP POP JUMP JUMPDEST PUSH1 0x0 PUSH3 0x298B PUSH3 0x2985 DUP5 PUSH3 0x2368 JUMP JUMPDEST PUSH3 0x2349 JUMP JUMPDEST SWAP1 POP DUP3 DUP2 MSTORE PUSH1 0x20 DUP2 ADD DUP5 DUP5 DUP5 ADD GT ISZERO PUSH3 0x29AA JUMPI PUSH3 0x29A9 PUSH3 0x22DF JUMP JUMPDEST JUMPDEST PUSH3 0x29B7 DUP5 DUP3 DUP6 PUSH3 0x2024 JUMP JUMPDEST POP SWAP4 SWAP3 POP POP POP JUMP JUMPDEST PUSH1 0x0 DUP3 PUSH1 0x1F DUP4 ADD SLT PUSH3 0x29D7 JUMPI PUSH3 0x29D6 PUSH3 0x22DA JUMP JUMPDEST JUMPDEST DUP2 MLOAD PUSH3 0x29E9 DUP5 DUP3 PUSH1 0x20 DUP7 ADD PUSH3 0x2974 JUMP JUMPDEST SWAP2 POP POP SWAP3 SWAP2 POP POP JUMP JUMPDEST PUSH1 0x0 DUP2 MLOAD SWAP1 POP PUSH3 0x2A03 DUP2 PUSH3 0x24EA JUMP JUMPDEST SWAP3 SWAP2 POP POP JUMP JUMPDEST PUSH1 0x0 PUSH2 0x140 DUP3 DUP5 SUB SLT ISZERO PUSH3 0x2A23 JUMPI PUSH3 0x2A22 PUSH3 0x2903 JUMP JUMPDEST JUMPDEST PUSH3 0x2A30 PUSH2 0x140 PUSH3 0x2349 JUMP JUMPDEST SWAP1 POP PUSH1 0x0 PUSH3 0x2A42 DUP5 DUP3 DUP6 ADD PUSH3 0x290D JUMP JUMPDEST PUSH1 0x0 DUP4 ADD MSTORE POP PUSH1 0x20 PUSH3 0x2A58 DUP5 DUP3 DUP6 ADD PUSH3 0x290D JUMP JUMPDEST PUSH1 0x20 DUP4 ADD MSTORE POP PUSH1 0x40 PUSH3 0x2A6E DUP5 DUP3 DUP6 ADD PUSH3 0x2935 JUMP JUMPDEST PUSH1 0x40 DUP4 ADD MSTORE POP PUSH1 0x60 PUSH3 0x2A84 DUP5 DUP3 DUP6 ADD PUSH3 0x295D JUMP JUMPDEST PUSH1 0x60 DUP4 ADD MSTORE POP PUSH1 0x80 DUP3 ADD MLOAD PUSH8 0xFFFFFFFFFFFFFFFF DUP2 GT ISZERO PUSH3 0x2AAB JUMPI PUSH3 0x2AAA PUSH3 0x2908 JUMP JUMPDEST JUMPDEST PUSH3 0x2AB9 DUP5 DUP3 DUP6 ADD PUSH3 0x29BF JUMP JUMPDEST PUSH1 0x80 DUP4 ADD MSTORE POP PUSH1 0xA0 PUSH3 0x2ACF DUP5 DUP3 DUP6 ADD PUSH3 0x290D JUMP JUMPDEST PUSH1 0xA0 DUP4 ADD MSTORE POP PUSH1 0xC0 PUSH3 0x2AE5 DUP5 DUP3 DUP6 ADD PUSH3 0x29F2 JUMP JUMPDEST PUSH1 0xC0 DUP4 ADD MSTORE POP PUSH1 0xE0 PUSH3 0x2AFB DUP5 DUP3 DUP6 ADD PUSH3 0x290D JUMP JUMPDEST PUSH1 0xE0 DUP4 ADD MSTORE POP PUSH2 0x100 PUSH3 0x2B12 DUP5 DUP3 DUP6 ADD PUSH3 0x290D JUMP JUMPDEST PUSH2 0x100 DUP4 ADD MSTORE POP PUSH2 0x120 PUSH3 0x2B2A DUP5 DUP3 DUP6 ADD PUSH3 0x290D JUMP JUMPDEST PUSH2 0x120 DUP4 ADD MSTORE POP SWAP3 SWAP2 POP POP JUMP JUMPDEST PUSH1 0x0 PUSH1 0x20 DUP3 DUP5 SUB SLT ISZERO PUSH3 0x2B50 JUMPI PUSH3 0x2B4F PUSH3 0x1EAF JUMP JUMPDEST JUMPDEST PUSH1 0x0 DUP3 ADD MLOAD PUSH8 0xFFFFFFFFFFFFFFFF DUP2 GT ISZERO PUSH3 0x2B71 JUMPI PUSH3 0x2B70 PUSH3 0x1EB4 JUMP JUMPDEST JUMPDEST PUSH3 0x2B7F DUP5 DUP3 DUP6 ADD PUSH3 0x2A09 JUMP JUMPDEST SWAP2 POP POP SWAP3 SWAP2 POP POP JUMP JUMPDEST PUSH1 0x0 PUSH8 0xFFFFFFFFFFFFFFFF DUP3 GT ISZERO PUSH3 0x2BA6 JUMPI PUSH3 0x2BA5 PUSH3 0x22E4 JUMP JUMPDEST JUMPDEST PUSH1 0x20 DUP3 MUL SWAP1 POP PUSH1 0x20 DUP2 ADD SWAP1 POP SWAP2 SWAP1 POP JUMP JUMPDEST PUSH1 0x0 DUP1 REVERT JUMPDEST PUSH1 0x0 PUSH3 0x2BD3 PUSH3 0x2BCD DUP5 PUSH3 0x2B88 JUMP JUMPDEST PUSH3 0x2349 JUMP JUMPDEST SWAP1 POP DUP1 DUP4 DUP3 MSTORE PUSH1 0x20 DUP3 ADD SWAP1 POP PUSH1 0x20 DUP5 MUL DUP4 ADD DUP6 DUP2 GT ISZERO PUSH3 0x2BF9 JUMPI PUSH3 0x2BF8 PUSH3 0x2BB7 JUMP JUMPDEST JUMPDEST DUP4 JUMPDEST DUP2 DUP2 LT ISZERO PUSH3 0x2C26 JUMPI DUP1 PUSH3 0x2C11 DUP9 DUP3 PUSH3 0x29F2 JUMP JUMPDEST DUP5 MSTORE PUSH1 0x20 DUP5 ADD SWAP4 POP POP PUSH1 0x20 DUP2 ADD SWAP1 POP PUSH3 0x2BFB JUMP JUMPDEST POP POP POP SWAP4 SWAP3 POP POP POP JUMP JUMPDEST PUSH1 0x0 DUP3 PUSH1 0x1F DUP4 ADD SLT PUSH3 0x2C48 JUMPI PUSH3 0x2C47 PUSH3 0x22DA JUMP JUMPDEST JUMPDEST DUP2 MLOAD PUSH3 0x2C5A DUP5 DUP3 PUSH1 0x20 DUP7 ADD PUSH3 0x2BBC JUMP JUMPDEST SWAP2 POP POP SWAP3 SWAP2 POP POP JUMP JUMPDEST PUSH1 0x0 PUSH1 0x20 DUP3 DUP5 SUB SLT ISZERO PUSH3 0x2C7C JUMPI PUSH3 0x2C7B PUSH3 0x1EAF JUMP JUMPDEST JUMPDEST PUSH1 0x0 DUP3 ADD MLOAD PUSH8 0xFFFFFFFFFFFFFFFF DUP2 GT ISZERO PUSH3 0x2C9D JUMPI PUSH3 0x2C9C PUSH3 0x1EB4 JUMP JUMPDEST JUMPDEST PUSH3 0x2CAB DUP5 DUP3 DUP6 ADD PUSH3 0x2C30 JUMP JUMPDEST SWAP2 POP POP SWAP3 SWAP2 POP POP JUMP JUMPDEST PUSH32 0x4E6F7420656E6F7567682066756E64732070726F76696465642E000000000000 PUSH1 0x0 DUP3 ADD MSTORE POP JUMP JUMPDEST PUSH1 0x0 PUSH3 0x2CEC PUSH1 0x1A DUP4 PUSH3 0x280B JUMP JUMPDEST SWAP2 POP PUSH3 0x2CF9 DUP3 PUSH3 0x2CB4 JUMP JUMPDEST PUSH1 0x20 DUP3 ADD SWAP1 POP SWAP2 SWAP1 POP JUMP JUMPDEST PUSH1 0x0 PUSH1 0x20 DUP3 ADD SWAP1 POP DUP2 DUP2 SUB PUSH1 0x0 DUP4 ADD MSTORE PUSH3 0x2D1F DUP2 PUSH3 0x2CDD JUMP JUMPDEST SWAP1 POP SWAP2 SWAP1 POP JUMP JUMPDEST PUSH32 0x4E487B7100000000000000000000000000000000000000000000000000000000 PUSH1 0x0 MSTORE PUSH1 0x11 PUSH1 0x4 MSTORE PUSH1 0x24 PUSH1 0x0 REVERT JUMPDEST PUSH1 0x0 PUSH3 0x2D62 DUP3 PUSH3 0x1EB9 JUMP JUMPDEST SWAP2 POP PUSH32 0xFFFFFFFFFFFFFFFFFFFFFFFFFFFFFFFFFFFFFFFFFFFFFFFFFFFFFFFFFFFFFFFF DUP3 SUB PUSH3 0x2D97 JUMPI PUSH3 0x2D96 PUSH3 0x2D26 JUMP JUMPDEST JUMPDEST PUSH1 0x1 DUP3 ADD SWAP1 POP SWAP2 SWAP1 POP JUMP JUMPDEST PUSH1 0x0 PUSH1 0x80 DUP3 ADD SWAP1 POP PUSH3 0x2DB9 PUSH1 0x0 DUP4 ADD DUP8 PUSH3 0x27A9 JUMP JUMPDEST DUP2 DUP2 SUB PUSH1 0x20 DUP4 ADD MSTORE PUSH3 0x2DCD DUP2 DUP7 PUSH3 0x281C JUMP JUMPDEST SWAP1 POP PUSH3 0x2DDE PUSH1 0x40 DUP4 ADD DUP6 PUSH3 0x24BC JUMP JUMPDEST PUSH3 0x2DED PUSH1 0x60 DUP4 ADD DUP5 PUSH3 0x24BC JUMP JUMPDEST SWAP6 SWAP5 POP POP POP POP POP JUMP JUMPDEST PUSH32 0x4372656164206F72646572207375636365737321000000000000000000000000 PUSH1 0x0 DUP3 ADD MSTORE POP JUMP JUMPDEST PUSH1 0x0 PUSH3 0x2E2E PUSH1 0x14 DUP4 PUSH3 0x280B JUMP JUMPDEST SWAP2 POP PUSH3 0x2E3B DUP3 PUSH3 0x2DF6 JUMP JUMPDEST PUSH1 0x20 DUP3 ADD SWAP1 POP SWAP2 SWAP1 POP JUMP JUMPDEST PUSH1 0x0 PUSH1 0x40 DUP3 ADD SWAP1 POP DUP2 DUP2 SUB PUSH1 0x0 DUP4 ADD MSTORE PUSH3 0x2E61 DUP2 PUSH3 0x2E1F JUMP JUMPDEST SWAP1 POP PUSH3 0x2E72 PUSH1 0x20 DUP4 ADD DUP5 PUSH3 0x24BC JUMP JUMPDEST SWAP3 SWAP2 POP POP JUMP JUMPDEST PUSH1 0x0 PUSH1 0x20 DUP3 ADD SWAP1 POP PUSH3 0x2E8F PUSH1 0x0 DUP4 ADD DUP5 PUSH3 0x27A9 JUMP JUMPDEST SWAP3 SWAP2 POP POP JUMP JUMPDEST PUSH1 0x0 PUSH1 0x20 DUP3 DUP5 SUB SLT ISZERO PUSH3 0x2EAE JUMPI PUSH3 0x2EAD PUSH3 0x1EAF JUMP JUMPDEST JUMPDEST PUSH1 0x0 DUP3 ADD MLOAD PUSH8 0xFFFFFFFFFFFFFFFF DUP2 GT ISZERO PUSH3 0x2ECF JUMPI PUSH3 0x2ECE PUSH3 0x1EB4 JUMP JUMPDEST JUMPDEST PUSH3 0x2EDD DUP5 DUP3 DUP6 ADD PUSH3 0x29BF JUMP JUMPDEST SWAP2 POP POP SWAP3 SWAP2 POP POP JUMP JUMPDEST PUSH1 0x0 PUSH1 0x20 DUP3 DUP5 SUB SLT ISZERO PUSH3 0x2EFF JUMPI PUSH3 0x2EFE PUSH3 0x1EAF JUMP JUMPDEST JUMPDEST PUSH1 0x0 PUSH3 0x2F0F DUP5 DUP3 DUP6 ADD PUSH3 0x290D JUMP JUMPDEST SWAP2 POP POP SWAP3 SWAP2 POP POP JUMP JUMPDEST PUSH3 0x2F23 DUP2 PUSH3 0x1F92 JUMP JUMPDEST DUP3 MSTORE POP POP JUMP JUMPDEST PUSH1 0x0 PUSH1 0xA0 DUP3 ADD SWAP1 POP PUSH3 0x2F40 PUSH1 0x0 DUP4 ADD DUP9 PUSH3 0x2F18 JUMP JUMPDEST PUSH3 0x2F4F PUSH1 0x20 DUP4 ADD DUP8 PUSH3 0x24BC JUMP JUMPDEST DUP2 DUP2 SUB PUSH1 0x40 DUP4 ADD MSTORE PUSH3 0x2F63 DUP2 DUP7 PUSH3 0x281C JUMP JUMPDEST SWAP1 POP PUSH3 0x2F74 PUSH1 0x60 DUP4 ADD DUP6 PUSH3 0x24BC JUMP JUMPDEST PUSH3 0x2F83 PUSH1 0x80 DUP4 ADD DUP5 PUSH3 0x24BC JUMP JUMPDEST SWAP7 SWAP6 POP POP POP POP POP POP JUMP JUMPDEST PUSH1 0x0 PUSH1 0x40 DUP3 ADD SWAP1 POP PUSH3 0x2FA4 PUSH1 0x0 DUP4 ADD DUP6 PUSH3 0x27A9 JUMP JUMPDEST PUSH3 0x2FB3 PUSH1 0x20 DUP4 ADD DUP5 PUSH3 0x24BC JUMP JUMPDEST SWAP4 SWAP3 POP POP POP JUMP JUMPDEST PUSH3 0x2FC5 DUP2 PUSH3 0x26FD JUMP JUMPDEST DUP2 EQ PUSH3 0x2FD1 JUMPI PUSH1 0x0 DUP1 REVERT JUMPDEST POP JUMP JUMPDEST PUSH1 0x0 DUP2 MLOAD SWAP1 POP PUSH3 0x2FE5 DUP2 PUSH3 0x2FBA JUMP JUMPDEST SWAP3 SWAP2 POP POP JUMP JUMPDEST PUSH1 0x0 PUSH1 0x20 DUP3 DUP5 SUB SLT ISZERO PUSH3 0x3004 JUMPI PUSH3 0x3003 PUSH3 0x1EAF JUMP JUMPDEST JUMPDEST PUSH1 0x0 PUSH3 0x3014 DUP5 DUP3 DUP6 ADD PUSH3 0x2FD4 JUMP JUMPDEST SWAP2 POP POP SWAP3 SWAP2 POP POP JUMP JUMPDEST PUSH32 0x496E76616C696420726571756573740000000000000000000000000000000000 PUSH1 0x0 DUP3 ADD MSTORE POP JUMP JUMPDEST PUSH1 0x0 PUSH3 0x3055 PUSH1 0xF DUP4 PUSH3 0x280B JUMP JUMPDEST SWAP2 POP PUSH3 0x3062 DUP3 PUSH3 0x301D JUMP JUMPDEST PUSH1 0x20 DUP3 ADD SWAP1 POP SWAP2 SWAP1 POP JUMP JUMPDEST PUSH1 0x0 PUSH1 0x20 DUP3 ADD SWAP1 POP DUP2 DUP2 SUB PUSH1 0x0 DUP4 ADD MSTORE PUSH3 0x3088 DUP2 PUSH3 0x3046 JUMP JUMPDEST SWAP1 POP SWAP2 SWAP1 POP JUMP JUMPDEST PUSH1 0x0 PUSH1 0x20 DUP3 ADD SWAP1 POP PUSH3 0x30A6 PUSH1 0x0 DUP4 ADD DUP5 PUSH3 0x27FA JUMP JUMPDEST SWAP3 SWAP2 POP POP JUMP JUMPDEST PUSH1 0x0 PUSH3 0x30B9 DUP3 PUSH3 0x1EB9 JUMP JUMPDEST SWAP2 POP PUSH3 0x30C6 DUP4 PUSH3 0x1EB9 JUMP JUMPDEST SWAP3 POP DUP3 DUP3 MUL PUSH3 0x30D6 DUP2 PUSH3 0x1EB9 JUMP JUMPDEST SWAP2 POP DUP3 DUP3 DIV DUP5 EQ DUP4 ISZERO OR PUSH3 0x30F0 JUMPI PUSH3 0x30EF PUSH3 0x2D26 JUMP JUMPDEST JUMPDEST POP SWAP3 SWAP2 POP POP JUMP JUMPDEST PUSH32 0x4E487B7100000000000000000000000000000000000000000000000000000000 PUSH1 0x0 MSTORE PUSH1 0x12 PUSH1 0x4 MSTORE PUSH1 0x24 PUSH1 0x0 REVERT JUMPDEST PUSH1 0x0 PUSH3 0x3133 DUP3 PUSH3 0x1EB9 JUMP JUMPDEST SWAP2 POP PUSH3 0x3140 DUP4 PUSH3 0x1EB9 JUMP JUMPDEST SWAP3 POP DUP3 PUSH3 0x3153 JUMPI PUSH3 0x3152 PUSH3 0x30F7 JUMP JUMPDEST JUMPDEST DUP3 DUP3 DIV SWAP1 POP SWAP3 SWAP2 POP POP JUMP JUMPDEST PUSH32 0x496E73756666696369656E7420636F6E74726163742062616C616E63652E0000 PUSH1 0x0 DUP3 ADD MSTORE POP JUMP JUMPDEST PUSH1 0x0 PUSH3 0x3196 PUSH1 0x1E DUP4 PUSH3 0x280B JUMP JUMPDEST SWAP2 POP PUSH3 0x31A3 DUP3 PUSH3 0x315E JUMP JUMPDEST PUSH1 0x20 DUP3 ADD SWAP1 POP SWAP2 SWAP1 POP JUMP JUMPDEST PUSH1 0x0 PUSH1 0x20 DUP3 ADD SWAP1 POP DUP2 DUP2 SUB PUSH1 0x0 DUP4 ADD MSTORE PUSH3 0x31C9 DUP2 PUSH3 0x3187 JUMP JUMPDEST SWAP1 POP SWAP2 SWAP1 POP JUMP JUMPDEST PUSH32 0x4F6E6C792061646D696E2063616E2073657420746865206D61726B6574706C61 PUSH1 0x0 DUP3 ADD MSTORE PUSH32 0x636520616464726573732E000000000000000000000000000000000000000000 PUSH1 0x20 DUP3 ADD MSTORE POP JUMP JUMPDEST PUSH1 0x0 PUSH3 0x322E PUSH1 0x2B DUP4 PUSH3 0x280B JUMP JUMPDEST SWAP2 POP PUSH3 0x323B DUP3 PUSH3 0x31D0 JUMP JUMPDEST PUSH1 0x40 DUP3 ADD SWAP1 POP SWAP2 SWAP1 POP JUMP JUMPDEST PUSH1 0x0 PUSH1 0x20 DUP3 ADD SWAP1 POP DUP2 DUP2 SUB PUSH1 0x0 DUP4 ADD MSTORE PUSH3 0x3261 DUP2 PUSH3 0x321F JUMP JUMPDEST SWAP1 POP SWAP2 SWAP1 POP JUMP JUMPDEST PUSH32 0x4F6E6C792061646D696E2063616E20706572666F726D2074686973206F706572 PUSH1 0x0 DUP3 ADD MSTORE PUSH32 0x6174696F6E2E0000000000000000000000000000000000000000000000000000 PUSH1 0x20 DUP3 ADD MSTORE POP JUMP JUMPDEST PUSH1 0x0 PUSH3 0x32C6 PUSH1 0x26 DUP4 PUSH3 0x280B JUMP JUMPDEST SWAP2 POP PUSH3 0x32D3 DUP3 PUSH3 0x3268 JUMP JUMPDEST PUSH1 0x40 DUP3 ADD SWAP1 POP SWAP2 SWAP1 POP JUMP JUMPDEST PUSH1 0x0 PUSH1 0x20 DUP3 ADD SWAP1 POP DUP2 DUP2 SUB PUSH1 0x0 DUP4 ADD MSTORE PUSH3 0x32F9 DUP2 PUSH3 0x32B7 JUMP JUMPDEST SWAP1 POP SWAP2 SWAP1 POP JUMP JUMPDEST PUSH1 0x0 PUSH1 0xA0 DUP3 DUP5 SUB SLT ISZERO PUSH3 0x3319 JUMPI PUSH3 0x3318 PUSH3 0x2903 JUMP JUMPDEST JUMPDEST PUSH3 0x3325 PUSH1 0xA0 PUSH3 0x2349 JUMP JUMPDEST SWAP1 POP PUSH1 0x0 PUSH3 0x3337 DUP5 DUP3 DUP6 ADD PUSH3 0x290D JUMP JUMPDEST PUSH1 0x0 DUP4 ADD MSTORE POP PUSH1 0x20 PUSH3 0x334D DUP5 DUP3 DUP6 ADD PUSH3 0x290D JUMP JUMPDEST PUSH1 0x20 DUP4 ADD MSTORE POP PUSH1 0x40 PUSH3 0x3363 DUP5 DUP3 DUP6 ADD PUSH3 0x2FD4 JUMP JUMPDEST PUSH1 0x40 DUP4 ADD MSTORE POP PUSH1 0x60 PUSH3 0x3379 DUP5 DUP3 DUP6 ADD PUSH3 0x2FD4 JUMP JUMPDEST PUSH1 0x60 DUP4 ADD MSTORE POP PUSH1 0x80 PUSH3 0x338F DUP5 DUP3 DUP6 ADD PUSH3 0x290D JUMP JUMPDEST PUSH1 0x80 DUP4 ADD MSTORE POP SWAP3 SWAP2 POP POP JUMP JUMPDEST PUSH1 0x0 PUSH1 0xA0 DUP3 DUP5 SUB SLT ISZERO PUSH3 0x33B4 JUMPI PUSH3 0x33B3 PUSH3 0x1EAF JUMP JUMPDEST JUMPDEST PUSH1 0x0 PUSH3 0x33C4 DUP5 DUP3 DUP6 ADD PUSH3 0x3300 JUMP JUMPDEST SWAP2 POP POP SWAP3 SWAP2 POP POP JUMP JUMPDEST PUSH1 0x0 PUSH1 0x20 DUP3 DUP5 SUB SLT ISZERO PUSH3 0x33E6 JUMPI PUSH3 0x33E5 PUSH3 0x1EAF JUMP JUMPDEST JUMPDEST PUSH1 0x0 PUSH3 0x33F6 DUP5 DUP3 DUP6 ADD PUSH3 0x29F2 JUMP JUMPDEST SWAP2 POP POP SWAP3 SWAP2 POP POP JUMP JUMPDEST PUSH1 0x4 DUP2 LT PUSH3 0x340D JUMPI PUSH1 0x0 DUP1 REVERT JUMPDEST POP JUMP JUMPDEST PUSH1 0x0 DUP2 MLOAD SWAP1 POP PUSH3 0x3421 DUP2 PUSH3 0x33FF JUMP JUMPDEST SWAP3 SWAP2 POP POP JUMP JUMPDEST PUSH1 0x0 PUSH1 0x20 DUP3 DUP5 SUB SLT ISZERO PUSH3 0x3440 JUMPI PUSH3 0x343F PUSH3 0x1EAF JUMP JUMPDEST JUMPDEST PUSH1 0x0 PUSH3 0x3450 DUP5 DUP3 DUP6 ADD PUSH3 0x3410 JUMP JUMPDEST SWAP2 POP POP SWAP3 SWAP2 POP POP JUMP JUMPDEST PUSH3 0x3464 DUP2 PUSH3 0x26FD JUMP JUMPDEST DUP3 MSTORE POP POP JUMP JUMPDEST PUSH1 0x0 PUSH1 0x20 DUP3 ADD SWAP1 POP PUSH3 0x3481 PUSH1 0x0 DUP4 ADD DUP5 PUSH3 0x3459 JUMP JUMPDEST SWAP3 SWAP2 POP POP JUMP JUMPDEST PUSH1 0x0 PUSH1 0x80 DUP3 ADD SWAP1 POP PUSH3 0x349E PUSH1 0x0 DUP4 ADD DUP8 PUSH3 0x24BC JUMP JUMPDEST PUSH3 0x34AD PUSH1 0x20 DUP4 ADD DUP7 PUSH3 0x24BC JUMP JUMPDEST PUSH3 0x34BC PUSH1 0x40 DUP4 ADD DUP6 PUSH3 0x24BC JUMP JUMPDEST PUSH3 0x34CB PUSH1 0x60 DUP4 ADD DUP5 PUSH3 0x24BC JUMP JUMPDEST SWAP6 SWAP5 POP POP POP POP POP JUMP JUMPDEST PUSH1 0x0 PUSH1 0x40 DUP3 ADD SWAP1 POP PUSH3 0x34EB PUSH1 0x0 DUP4 ADD DUP6 PUSH3 0x24BC JUMP JUMPDEST PUSH3 0x34FA PUSH1 0x20 DUP4 ADD DUP5 PUSH3 0x24BC JUMP JUMPDEST SWAP4 SWAP3 POP POP POP JUMP INVALID PUSH1 0x80 PUSH1 0x40 MSTORE CALLVALUE DUP1 ISZERO PUSH3 0x11 JUMPI PUSH1 0x0 DUP1 REVERT JUMPDEST POP PUSH1 0x40 MLOAD PUSH3 0xD75 CODESIZE SUB DUP1 PUSH3 0xD75 DUP4 CODECOPY DUP2 DUP2 ADD PUSH1 0x40 MSTORE DUP2 ADD SWAP1 PUSH3 0x37 SWAP2 SWAP1 PUSH3 0x31A JUMP JUMPDEST PUSH1 0x0 PUSH1 0x1 DUP2 SWAP1 SSTORE POP PUSH1 0x0 DUP1 DUP2 SWAP1 SSTORE POP DUP4 PUSH1 0x2 PUSH1 0x0 PUSH2 0x100 EXP DUP2 SLOAD DUP2 PUSH20 0xFFFFFFFFFFFFFFFFFFFFFFFFFFFFFFFFFFFFFFFF MUL NOT AND SWAP1 DUP4 PUSH20 0xFFFFFFFFFFFFFFFFFFFFFFFFFFFFFFFFFFFFFFFF AND MUL OR SWAP1 SSTORE POP PUSH1 0x0 PUSH1 0x3 DUP2 SWAP1 SSTORE POP PUSH1 0x0 PUSH1 0x6 PUSH1 0x0 PUSH2 0x100 EXP DUP2 SLOAD DUP2 PUSH1 0xFF MUL NOT AND SWAP1 DUP4 PUSH1 0x3 DUP2 GT ISZERO PUSH3 0xB8 JUMPI PUSH3 0xB7 PUSH3 0x3AB JUMP JUMPDEST JUMPDEST MUL OR SWAP1 SSTORE POP DUP3 PUSH1 0x4 SWAP1 DUP2 PUSH3 0xCE SWAP2 SWAP1 PUSH3 0x61B JUMP JUMPDEST POP DUP2 PUSH1 0x5 DUP2 SWAP1 SSTORE POP DUP1 PUSH1 0x7 DUP2 SWAP1 SSTORE POP POP POP POP POP PUSH3 0x702 JUMP JUMPDEST PUSH1 0x0 PUSH1 0x40 MLOAD SWAP1 POP SWAP1 JUMP JUMPDEST PUSH1 0x0 DUP1 REVERT JUMPDEST PUSH1 0x0 DUP1 REVERT JUMPDEST PUSH1 0x0 PUSH20 0xFFFFFFFFFFFFFFFFFFFFFFFFFFFFFFFFFFFFFFFF DUP3 AND SWAP1 POP SWAP2 SWAP1 POP JUMP JUMPDEST PUSH1 0x0 PUSH3 0x128 DUP3 PUSH3 0xFB JUMP JUMPDEST SWAP1 POP SWAP2 SWAP1 POP JUMP JUMPDEST PUSH3 0x13A DUP2 PUSH3 0x11B JUMP JUMPDEST DUP2 EQ PUSH3 0x146 JUMPI PUSH1 0x0 DUP1 REVERT JUMPDEST POP JUMP JUMPDEST PUSH1 0x0 DUP2 MLOAD SWAP1 POP PUSH3 0x15A DUP2 PUSH3 0x12F JUMP JUMPDEST SWAP3 SWAP2 POP POP JUMP JUMPDEST PUSH1 0x0 DUP1 REVERT JUMPDEST PUSH1 0x0 DUP1 REVERT JUMPDEST PUSH1 0x0 PUSH1 0x1F NOT PUSH1 0x1F DUP4 ADD AND SWAP1 POP SWAP2 SWAP1 POP JUMP JUMPDEST PUSH32 0x4E487B7100000000000000000000000000000000000000000000000000000000 PUSH1 0x0 MSTORE PUSH1 0x41 PUSH1 0x4 MSTORE PUSH1 0x24 PUSH1 0x0 REVERT JUMPDEST PUSH3 0x1B5 DUP3 PUSH3 0x16A JUMP JUMPDEST DUP2 ADD DUP2 DUP2 LT PUSH8 0xFFFFFFFFFFFFFFFF DUP3 GT OR ISZERO PUSH3 0x1D7 JUMPI PUSH3 0x1D6 PUSH3 0x17B JUMP JUMPDEST JUMPDEST DUP1 PUSH1 0x40 MSTORE POP POP POP JUMP JUMPDEST PUSH1 0x0 PUSH3 0x1EC PUSH3 0xE7 JUMP JUMPDEST SWAP1 POP PUSH3 0x1FA DUP3 DUP3 PUSH3 0x1AA JUMP JUMPDEST SWAP2 SWAP1 POP JUMP JUMPDEST PUSH1 0x0 PUSH8 0xFFFFFFFFFFFFFFFF DUP3 GT ISZERO PUSH3 0x21D JUMPI PUSH3 0x21C PUSH3 0x17B JUMP JUMPDEST JUMPDEST PUSH3 0x228 DUP3 PUSH3 0x16A JUMP JUMPDEST SWAP1 POP PUSH1 0x20 DUP2 ADD SWAP1 POP SWAP2 SWAP1 POP JUMP JUMPDEST PUSH1 0x0 JUMPDEST DUP4 DUP2 LT ISZERO PUSH3 0x255 JUMPI DUP1 DUP3 ADD MLOAD DUP2 DUP5 ADD MSTORE PUSH1 0x20 DUP2 ADD SWAP1 POP PUSH3 0x238 JUMP JUMPDEST PUSH1 0x0 DUP5 DUP5 ADD MSTORE POP POP POP POP JUMP JUMPDEST PUSH1 0x0 PUSH3 0x278 PUSH3 0x272 DUP5 PUSH3 0x1FF JUMP JUMPDEST PUSH3 0x1E0 JUMP JUMPDEST SWAP1 POP DUP3 DUP2 MSTORE PUSH1 0x20 DUP2 ADD DUP5 DUP5 DUP5 ADD GT ISZERO PUSH3 0x297 JUMPI PUSH3 0x296 PUSH3 0x165 JUMP JUMPDEST JUMPDEST PUSH3 0x2A4 DUP5 DUP3 DUP6 PUSH3 0x235 JUMP JUMPDEST POP SWAP4 SWAP3 POP POP POP JUMP JUMPDEST PUSH1 0x0 DUP3 PUSH1 0x1F DUP4 ADD SLT PUSH3 0x2C4 JUMPI PUSH3 0x2C3 PUSH3 0x160 JUMP JUMPDEST JUMPDEST DUP2 MLOAD PUSH3 0x2D6 DUP5 DUP3 PUSH1 0x20 DUP7 ADD PUSH3 0x261 JUMP JUMPDEST SWAP2 POP POP SWAP3 SWAP2 POP POP JUMP JUMPDEST PUSH1 0x0 DUP2 SWAP1 POP SWAP2 SWAP1 POP JUMP JUMPDEST PUSH3 0x2F4 DUP2 PUSH3 0x2DF JUMP JUMPDEST DUP2 EQ PUSH3 0x300 JUMPI PUSH1 0x0 DUP1 REVERT JUMPDEST POP JUMP JUMPDEST PUSH1 0x0 DUP2 MLOAD SWAP1 POP PUSH3 0x314 DUP2 PUSH3 0x2E9 JUMP JUMPDEST SWAP3 SWAP2 POP POP JUMP JUMPDEST PUSH1 0x0 DUP1 PUSH1 0x0 DUP1 PUSH1 0x80 DUP6 DUP8 SUB SLT ISZERO PUSH3 0x337 JUMPI PUSH3 0x336 PUSH3 0xF1 JUMP JUMPDEST JUMPDEST PUSH1 0x0 PUSH3 0x347 DUP8 DUP3 DUP9 ADD PUSH3 0x149 JUMP JUMPDEST SWAP5 POP POP PUSH1 0x20 DUP6 ADD MLOAD PUSH8 0xFFFFFFFFFFFFFFFF DUP2 GT ISZERO PUSH3 0x36B JUMPI PUSH3 0x36A PUSH3 0xF6 JUMP JUMPDEST JUMPDEST PUSH3 0x379 DUP8 DUP3 DUP9 ADD PUSH3 0x2AC JUMP JUMPDEST SWAP4 POP POP PUSH1 0x40 PUSH3 0x38C DUP8 DUP3 DUP9 ADD PUSH3 0x303 JUMP JUMPDEST SWAP3 POP POP PUSH1 0x60 PUSH3 0x39F DUP8 DUP3 DUP9 ADD PUSH3 0x303 JUMP JUMPDEST SWAP2 POP POP SWAP3 SWAP6 SWAP2 SWAP5 POP SWAP3 POP JUMP JUMPDEST PUSH32 0x4E487B7100000000000000000000000000000000000000000000000000000000 PUSH1 0x0 MSTORE PUSH1 0x21 PUSH1 0x4 MSTORE PUSH1 0x24 PUSH1 0x0 REVERT JUMPDEST PUSH1 0x0 DUP2 MLOAD SWAP1 POP SWAP2 SWAP1 POP JUMP JUMPDEST PUSH32 0x4E487B7100000000000000000000000000000000000000000000000000000000 PUSH1 0x0 MSTORE PUSH1 0x22 PUSH1 0x4 MSTORE PUSH1 0x24 PUSH1 0x0 REVERT JUMPDEST PUSH1 0x0 PUSH1 0x2 DUP3 DIV SWAP1 POP PUSH1 0x1 DUP3 AND DUP1 PUSH3 0x42D JUMPI PUSH1 0x7F DUP3 AND SWAP2 POP JUMPDEST PUSH1 0x20 DUP3 LT DUP2 SUB PUSH3 0x443 JUMPI PUSH3 0x442 PUSH3 0x3E5 JUMP JUMPDEST JUMPDEST POP SWAP2 SWAP1 POP JUMP JUMPDEST PUSH1 0x0 DUP2 SWAP1 POP DUP2 PUSH1 0x0 MSTORE PUSH1 0x20 PUSH1 0x0 KECCAK256 SWAP1 POP SWAP2 SWAP1 POP JUMP JUMPDEST PUSH1 0x0 PUSH1 0x20 PUSH1 0x1F DUP4 ADD DIV SWAP1 POP SWAP2 SWAP1 POP JUMP JUMPDEST PUSH1 0x0 DUP3 DUP3 SHL SWAP1 POP SWAP3 SWAP2 POP POP JUMP JUMPDEST PUSH1 0x0 PUSH1 0x8 DUP4 MUL PUSH3 0x4AD PUSH32 0xFFFFFFFFFFFFFFFFFFFFFFFFFFFFFFFFFFFFFFFFFFFFFFFFFFFFFFFFFFFFFFFF DUP3 PUSH3 0x46E JUMP JUMPDEST PUSH3 0x4B9 DUP7 DUP4 PUSH3 0x46E JUMP JUMPDEST SWAP6 POP DUP1 NOT DUP5 AND SWAP4 POP DUP1 DUP7 AND DUP5 OR SWAP3 POP POP POP SWAP4 SWAP3 POP POP POP JUMP JUMPDEST PUSH1 0x0 DUP2 SWAP1 POP SWAP2 SWAP1 POP JUMP JUMPDEST PUSH1 0x0 PUSH3 0x4FC PUSH3 0x4F6 PUSH3 0x4F0 DUP5 PUSH3 0x2DF JUMP JUMPDEST PUSH3 0x4D1 JUMP JUMPDEST PUSH3 0x2DF JUMP JUMPDEST SWAP1 POP SWAP2 SWAP1 POP JUMP JUMPDEST PUSH1 0x0 DUP2 SWAP1 POP SWAP2 SWAP1 POP JUMP JUMPDEST PUSH3 0x518 DUP4 PUSH3 0x4DB JUMP JUMPDEST PUSH3 0x530 PUSH3 0x527 DUP3 PUSH3 0x503 JUMP JUMPDEST DUP5 DUP5 SLOAD PUSH3 0x47B JUMP JUMPDEST DUP3 SSTORE POP POP POP POP JUMP JUMPDEST PUSH1 0x0 SWAP1 JUMP JUMPDEST PUSH3 0x547 PUSH3 0x538 JUMP JUMPDEST PUSH3 0x554 DUP2 DUP5 DUP5 PUSH3 0x50D JUMP JUMPDEST POP POP POP JUMP JUMPDEST JUMPDEST DUP2 DUP2 LT ISZERO PUSH3 0x57C JUMPI PUSH3 0x570 PUSH1 0x0 DUP3 PUSH3 0x53D JUMP JUMPDEST PUSH1 0x1 DUP2 ADD SWAP1 POP PUSH3 0x55A JUMP JUMPDEST POP POP JUMP JUMPDEST PUSH1 0x1F DUP3 GT ISZERO PUSH3 0x5CB JUMPI PUSH3 0x595 DUP2 PUSH3 0x449 JUMP JUMPDEST PUSH3 0x5A0 DUP5 PUSH3 0x45E JUMP JUMPDEST DUP2 ADD PUSH1 0x20 DUP6 LT ISZERO PUSH3 0x5B0 JUMPI DUP2 SWAP1 POP JUMPDEST PUSH3 0x5C8 PUSH3 0x5BF DUP6 PUSH3 0x45E JUMP JUMPDEST DUP4 ADD DUP3 PUSH3 0x559 JUMP JUMPDEST POP POP JUMPDEST POP POP POP JUMP JUMPDEST PUSH1 0x0 DUP3 DUP3 SHR SWAP1 POP SWAP3 SWAP2 POP POP JUMP JUMPDEST PUSH1 0x0 PUSH3 0x5F0 PUSH1 0x0 NOT DUP5 PUSH1 0x8 MUL PUSH3 0x5D0 JUMP JUMPDEST NOT DUP1 DUP4 AND SWAP2 POP POP SWAP3 SWAP2 POP POP JUMP JUMPDEST PUSH1 0x0 PUSH3 0x60B DUP4 DUP4 PUSH3 0x5DD JUMP JUMPDEST SWAP2 POP DUP3 PUSH1 0x2 MUL DUP3 OR SWAP1 POP SWAP3 SWAP2 POP POP JUMP JUMPDEST PUSH3 0x626 DUP3 PUSH3 0x3DA JUMP JUMPDEST PUSH8 0xFFFFFFFFFFFFFFFF DUP2 GT ISZERO PUSH3 0x642 JUMPI PUSH3 0x641 PUSH3 0x17B JUMP JUMPDEST JUMPDEST PUSH3 0x64E DUP3 SLOAD PUSH3 0x414 JUMP JUMPDEST PUSH3 0x65B DUP3 DUP3 DUP6 PUSH3 0x580 JUMP JUMPDEST PUSH1 0x0 PUSH1 0x20 SWAP1 POP PUSH1 0x1F DUP4 GT PUSH1 0x1 DUP2 EQ PUSH3 0x693 JUMPI PUSH1 0x0 DUP5 ISZERO PUSH3 0x67E JUMPI DUP3 DUP8 ADD MLOAD SWAP1 POP JUMPDEST PUSH3 0x68A DUP6 DUP3 PUSH3 0x5FD JUMP JUMPDEST DUP7 SSTORE POP PUSH3 0x6FA JUMP JUMPDEST PUSH1 0x1F NOT DUP5 AND PUSH3 0x6A3 DUP7 PUSH3 0x449 JUMP JUMPDEST PUSH1 0x0 JUMPDEST DUP3 DUP2 LT ISZERO PUSH3 0x6CD JUMPI DUP5 DUP10 ADD MLOAD DUP3 SSTORE PUSH1 0x1 DUP3 ADD SWAP2 POP PUSH1 0x20 DUP6 ADD SWAP5 POP PUSH1 0x20 DUP2 ADD SWAP1 POP PUSH3 0x6A6 JUMP JUMPDEST DUP7 DUP4 LT ISZERO PUSH3 0x6ED JUMPI DUP5 DUP10 ADD MLOAD PUSH3 0x6E9 PUSH1 0x1F DUP10 AND DUP3 PUSH3 0x5DD JUMP JUMPDEST DUP4 SSTORE POP JUMPDEST PUSH1 0x1 PUSH1 0x2 DUP9 MUL ADD DUP9 SSTORE POP POP POP JUMPDEST POP POP POP POP POP POP JUMP JUMPDEST PUSH2 0x663 DUP1 PUSH3 0x712 PUSH1 0x0 CODECOPY PUSH1 0x0 RETURN INVALID PUSH1 0x80 PUSH1 0x40 MSTORE CALLVALUE DUP1 ISZERO PUSH2 0x10 JUMPI PUSH1 0x0 DUP1 REVERT JUMPDEST POP PUSH1 0x4 CALLDATASIZE LT PUSH2 0xB4 JUMPI PUSH1 0x0 CALLDATALOAD PUSH1 0xE0 SHR DUP1 PUSH4 0xA85CB629 GT PUSH2 0x71 JUMPI DUP1 PUSH4 0xA85CB629 EQ PUSH2 0x16B JUMPI DUP1 PUSH4 0xB8896EB6 EQ PUSH2 0x187 JUMPI DUP1 PUSH4 0xBA0179B5 EQ PUSH2 0x1A3 JUMPI DUP1 PUSH4 0xBEE80FC5 EQ PUSH2 0x1BF JUMPI DUP1 PUSH4 0xC35905C6 EQ PUSH2 0x1DD JUMPI DUP1 PUSH4 0xE7B0B190 EQ PUSH2 0x1FB JUMPI PUSH2 0xB4 JUMP JUMPDEST DUP1 PUSH4 0x109E94CF EQ PUSH2 0xB9 JUMPI DUP1 PUSH4 0x2728E28B EQ PUSH2 0xD7 JUMPI DUP1 PUSH4 0x2C898945 EQ PUSH2 0xF5 JUMPI DUP1 PUSH4 0x523B0B36 EQ PUSH2 0x113 JUMPI DUP1 PUSH4 0x58E9D3D5 EQ PUSH2 0x131 JUMPI DUP1 PUSH4 0x90EF73E2 EQ PUSH2 0x14F JUMPI JUMPDEST PUSH1 0x0 DUP1 REVERT JUMPDEST PUSH2 0xC1 PUSH2 0x219 JUMP JUMPDEST PUSH1 0x40 MLOAD PUSH2 0xCE SWAP2 SWAP1 PUSH2 0x38A JUMP JUMPDEST PUSH1 0x40 MLOAD DUP1 SWAP2 SUB SWAP1 RETURN JUMPDEST PUSH2 0xDF PUSH2 0x23F JUMP JUMPDEST PUSH1 0x40 MLOAD PUSH2 0xEC SWAP2 SWAP1 PUSH2 0x41C JUMP JUMPDEST PUSH1 0x40 MLOAD DUP1 SWAP2 SUB SWAP1 RETURN JUMPDEST PUSH2 0xFD PUSH2 0x252 JUMP JUMPDEST PUSH1 0x40 MLOAD PUSH2 0x10A SWAP2 SWAP1 PUSH2 0x450 JUMP JUMPDEST PUSH1 0x40 MLOAD DUP1 SWAP2 SUB SWAP1 RETURN JUMPDEST PUSH2 0x11B PUSH2 0x258 JUMP JUMPDEST PUSH1 0x40 MLOAD PUSH2 0x128 SWAP2 SWAP1 PUSH2 0x450 JUMP JUMPDEST PUSH1 0x40 MLOAD DUP1 SWAP2 SUB SWAP1 RETURN JUMPDEST PUSH2 0x139 PUSH2 0x25E JUMP JUMPDEST PUSH1 0x40 MLOAD PUSH2 0x146 SWAP2 SWAP1 PUSH2 0x4FB JUMP JUMPDEST PUSH1 0x40 MLOAD DUP1 SWAP2 SUB SWAP1 RETURN JUMPDEST PUSH2 0x169 PUSH1 0x4 DUP1 CALLDATASIZE SUB DUP2 ADD SWAP1 PUSH2 0x164 SWAP2 SWAP1 PUSH2 0x54E JUMP JUMPDEST PUSH2 0x2EC JUMP JUMPDEST STOP JUMPDEST PUSH2 0x185 PUSH1 0x4 DUP1 CALLDATASIZE SUB DUP2 ADD SWAP1 PUSH2 0x180 SWAP2 SWAP1 PUSH2 0x54E JUMP JUMPDEST PUSH2 0x2F6 JUMP JUMPDEST STOP JUMPDEST PUSH2 0x1A1 PUSH1 0x4 DUP1 CALLDATASIZE SUB DUP2 ADD SWAP1 PUSH2 0x19C SWAP2 SWAP1 PUSH2 0x5A0 JUMP JUMPDEST PUSH2 0x300 JUMP JUMPDEST STOP JUMPDEST PUSH2 0x1BD PUSH1 0x4 DUP1 CALLDATASIZE SUB DUP2 ADD SWAP1 PUSH2 0x1B8 SWAP2 SWAP1 PUSH2 0x54E JUMP JUMPDEST PUSH2 0x32D JUMP JUMPDEST STOP JUMPDEST PUSH2 0x1C7 PUSH2 0x337 JUMP JUMPDEST PUSH1 0x40 MLOAD PUSH2 0x1D4 SWAP2 SWAP1 PUSH2 0x450 JUMP JUMPDEST PUSH1 0x40 MLOAD DUP1 SWAP2 SUB SWAP1 RETURN JUMPDEST PUSH2 0x1E5 PUSH2 0x33D JUMP JUMPDEST PUSH1 0x40 MLOAD PUSH2 0x1F2 SWAP2 SWAP1 PUSH2 0x450 JUMP JUMPDEST PUSH1 0x40 MLOAD DUP1 SWAP2 SUB SWAP1 RETURN JUMPDEST PUSH2 0x203 PUSH2 0x343 JUMP JUMPDEST PUSH1 0x40 MLOAD PUSH2 0x210 SWAP2 SWAP1 PUSH2 0x450 JUMP JUMPDEST PUSH1 0x40 MLOAD DUP1 SWAP2 SUB SWAP1 RETURN JUMPDEST PUSH1 0x2 PUSH1 0x0 SWAP1 SLOAD SWAP1 PUSH2 0x100 EXP SWAP1 DIV PUSH20 0xFFFFFFFFFFFFFFFFFFFFFFFFFFFFFFFFFFFFFFFF AND DUP2 JUMP JUMPDEST PUSH1 0x6 PUSH1 0x0 SWAP1 SLOAD SWAP1 PUSH2 0x100 EXP SWAP1 DIV PUSH1 0xFF AND DUP2 JUMP JUMPDEST PUSH1 0x0 SLOAD DUP2 JUMP JUMPDEST PUSH1 0x5 SLOAD DUP2 JUMP JUMPDEST PUSH1 0x4 DUP1 SLOAD PUSH2 0x26B SWAP1 PUSH2 0x5FC JUMP JUMPDEST DUP1 PUSH1 0x1F ADD PUSH1 0x20 DUP1 SWAP2 DIV MUL PUSH1 0x20 ADD PUSH1 0x40 MLOAD SWAP1 DUP2 ADD PUSH1 0x40 MSTORE DUP1 SWAP3 SWAP2 SWAP1 DUP2 DUP2 MSTORE PUSH1 0x20 ADD DUP3 DUP1 SLOAD PUSH2 0x297 SWAP1 PUSH2 0x5FC JUMP JUMPDEST DUP1 ISZERO PUSH2 0x2E4 JUMPI DUP1 PUSH1 0x1F LT PUSH2 0x2B9 JUMPI PUSH2 0x100 DUP1 DUP4 SLOAD DIV MUL DUP4 MSTORE SWAP2 PUSH1 0x20 ADD SWAP2 PUSH2 0x2E4 JUMP JUMPDEST DUP3 ADD SWAP2 SWAP1 PUSH1 0x0 MSTORE PUSH1 0x20 PUSH1 0x0 KECCAK256 SWAP1 JUMPDEST DUP2 SLOAD DUP2 MSTORE SWAP1 PUSH1 0x1 ADD SWAP1 PUSH1 0x20 ADD DUP1 DUP4 GT PUSH2 0x2C7 JUMPI DUP3 SWAP1 SUB PUSH1 0x1F AND DUP3 ADD SWAP2 JUMPDEST POP POP POP POP POP DUP2 JUMP JUMPDEST DUP1 PUSH1 0x0 DUP2 SWAP1 SSTORE POP POP JUMP JUMPDEST DUP1 PUSH1 0x1 DUP2 SWAP1 SSTORE POP POP JUMP JUMPDEST DUP1 PUSH1 0x6 PUSH1 0x0 PUSH2 0x100 EXP DUP2 SLOAD DUP2 PUSH1 0xFF MUL NOT AND SWAP1 DUP4 PUSH1 0x3 DUP2 GT ISZERO PUSH2 0x325 JUMPI PUSH2 0x324 PUSH2 0x3A5 JUMP JUMPDEST JUMPDEST MUL OR SWAP1 SSTORE POP POP JUMP JUMPDEST DUP1 PUSH1 0x3 DUP2 SWAP1 SSTORE POP POP JUMP JUMPDEST PUSH1 0x7 SLOAD DUP2 JUMP JUMPDEST PUSH1 0x3 SLOAD DUP2 JUMP JUMPDEST PUSH1 0x1 SLOAD DUP2 JUMP JUMPDEST PUSH1 0x0 PUSH20 0xFFFFFFFFFFFFFFFFFFFFFFFFFFFFFFFFFFFFFFFF DUP3 AND SWAP1 POP SWAP2 SWAP1 POP JUMP JUMPDEST PUSH1 0x0 PUSH2 0x374 DUP3 PUSH2 0x349 JUMP JUMPDEST SWAP1 POP SWAP2 SWAP1 POP JUMP JUMPDEST PUSH2 0x384 DUP2 PUSH2 0x369 JUMP JUMPDEST DUP3 MSTORE POP POP JUMP JUMPDEST PUSH1 0x0 PUSH1 0x20 DUP3 ADD SWAP1 POP PUSH2 0x39F PUSH1 0x0 DUP4 ADD DUP5 PUSH2 0x37B JUMP JUMPDEST SWAP3 SWAP2 POP POP JUMP JUMPDEST PUSH32 0x4E487B7100000000000000000000000000000000000000000000000000000000 PUSH1 0x0 MSTORE PUSH1 0x21 PUSH1 0x4 MSTORE PUSH1 0x24 PUSH1 0x0 REVERT JUMPDEST PUSH1 0x4 DUP2 LT PUSH2 0x3E5 JUMPI PUSH2 0x3E4 PUSH2 0x3A5 JUMP JUMPDEST JUMPDEST POP JUMP JUMPDEST PUSH1 0x0 DUP2 SWAP1 POP PUSH2 0x3F6 DUP3 PUSH2 0x3D4 JUMP JUMPDEST SWAP2 SWAP1 POP JUMP JUMPDEST PUSH1 0x0 PUSH2 0x406 DUP3 PUSH2 0x3E8 JUMP JUMPDEST SWAP1 POP SWAP2 SWAP1 POP JUMP JUMPDEST PUSH2 0x416 DUP2 PUSH2 0x3FB JUMP JUMPDEST DUP3 MSTORE POP POP JUMP JUMPDEST PUSH1 0x0 PUSH1 0x20 DUP3 ADD SWAP1 POP PUSH2 0x431 PUSH1 0x0 DUP4 ADD DUP5 PUSH2 0x40D JUMP JUMPDEST SWAP3 SWAP2 POP POP JUMP JUMPDEST PUSH1 0x0 DUP2 SWAP1 POP SWAP2 SWAP1 POP JUMP JUMPDEST PUSH2 0x44A DUP2 PUSH2 0x437 JUMP JUMPDEST DUP3 MSTORE POP POP JUMP JUMPDEST PUSH1 0x0 PUSH1 0x20 DUP3 ADD SWAP1 POP PUSH2 0x465 PUSH1 0x0 DUP4 ADD DUP5 PUSH2 0x441 JUMP JUMPDEST SWAP3 SWAP2 POP POP JUMP JUMPDEST PUSH1 0x0 DUP2 MLOAD SWAP1 POP SWAP2 SWAP1 POP JUMP JUMPDEST PUSH1 0x0 DUP3 DUP3 MSTORE PUSH1 0x20 DUP3 ADD SWAP1 POP SWAP3 SWAP2 POP POP JUMP JUMPDEST PUSH1 0x0 JUMPDEST DUP4 DUP2 LT ISZERO PUSH2 0x4A5 JUMPI DUP1 DUP3 ADD MLOAD DUP2 DUP5 ADD MSTORE PUSH1 0x20 DUP2 ADD SWAP1 POP PUSH2 0x48A JUMP JUMPDEST PUSH1 0x0 DUP5 DUP5 ADD MSTORE POP POP POP POP JUMP JUMPDEST PUSH1 0x0 PUSH1 0x1F NOT PUSH1 0x1F DUP4 ADD AND SWAP1 POP SWAP2 SWAP1 POP JUMP JUMPDEST PUSH1 0x0 PUSH2 0x4CD DUP3 PUSH2 0x46B JUMP JUMPDEST PUSH2 0x4D7 DUP2 DUP6 PUSH2 0x476 JUMP JUMPDEST SWAP4 POP PUSH2 0x4E7 DUP2 DUP6 PUSH1 0x20 DUP7 ADD PUSH2 0x487 JUMP JUMPDEST PUSH2 0x4F0 DUP2 PUSH2 0x4B1 JUMP JUMPDEST DUP5 ADD SWAP2 POP POP SWAP3 SWAP2 POP POP JUMP JUMPDEST PUSH1 0x0 PUSH1 0x20 DUP3 ADD SWAP1 POP DUP2 DUP2 SUB PUSH1 0x0 DUP4 ADD MSTORE PUSH2 0x515 DUP2 DUP5 PUSH2 0x4C2 JUMP JUMPDEST SWAP1 POP SWAP3 SWAP2 POP POP JUMP JUMPDEST PUSH1 0x0 DUP1 REVERT JUMPDEST PUSH2 0x52B DUP2 PUSH2 0x437 JUMP JUMPDEST DUP2 EQ PUSH2 0x536 JUMPI PUSH1 0x0 DUP1 REVERT JUMPDEST POP JUMP JUMPDEST PUSH1 0x0 DUP2 CALLDATALOAD SWAP1 POP PUSH2 0x548 DUP2 PUSH2 0x522 JUMP JUMPDEST SWAP3 SWAP2 POP POP JUMP JUMPDEST PUSH1 0x0 PUSH1 0x20 DUP3 DUP5 SUB SLT ISZERO PUSH2 0x564 JUMPI PUSH2 0x563 PUSH2 0x51D JUMP JUMPDEST JUMPDEST PUSH1 0x0 PUSH2 0x572 DUP5 DUP3 DUP6 ADD PUSH2 0x539 JUMP JUMPDEST SWAP2 POP POP SWAP3 SWAP2 POP POP JUMP JUMPDEST PUSH1 0x4 DUP2 LT PUSH2 0x588 JUMPI PUSH1 0x0 DUP1 REVERT JUMPDEST POP JUMP JUMPDEST PUSH1 0x0 DUP2 CALLDATALOAD SWAP1 POP PUSH2 0x59A DUP2 PUSH2 0x57B JUMP JUMPDEST SWAP3 SWAP2 POP POP JUMP JUMPDEST PUSH1 0x0 PUSH1 0x20 DUP3 DUP5 SUB SLT ISZERO PUSH2 0x5B6 JUMPI PUSH2 0x5B5 PUSH2 0x51D JUMP JUMPDEST JUMPDEST PUSH1 0x0 PUSH2 0x5C4 DUP5 DUP3 DUP6 ADD PUSH2 0x58B JUMP JUMPDEST SWAP2 POP POP SWAP3 SWAP2 POP POP JUMP JUMPDEST PUSH32 0x4E487B7100000000000000000000000000000000000000000000000000000000 PUSH1 0x0 MSTORE PUSH1 0x22 PUSH1 0x4 MSTORE PUSH1 0x24 PUSH1 0x0 REVERT JUMPDEST PUSH1 0x0 PUSH1 0x2 DUP3 DIV SWAP1 POP PUSH1 0x1 DUP3 AND DUP1 PUSH2 0x614 JUMPI PUSH1 0x7F DUP3 AND SWAP2 POP JUMPDEST PUSH1 0x20 DUP3 LT DUP2 SUB PUSH2 0x627 JUMPI PUSH2 0x626 PUSH2 0x5CD JUMP JUMPDEST JUMPDEST POP SWAP2 SWAP1 POP JUMP INVALID LOG2 PUSH5 0x6970667358 0x22 SLT KECCAK256 0x2C PUSH21 0xA9904C0ADEB11A73DD86CE5E685600028B0C98D0C4 0xE6 0xE5 0x4E 0xE1 0xD4 DUP10 DUP14 LT PUSH24 0x64736F6C63430008120033A26469706673582212208BF610 0xED 0xC0 BLOCKHASH GASPRICE 0xFB 0xD 0xAA SWAP10 CALLDATALOAD 0xC1 PUSH20 0x9384BAC4F9562FB089539C9A2ADF80B903C56473 PUSH16 0x6C634300081200330000000000000000 "
		},
		"gasEstimates": {
			"creation": {
				"codeDepositCost": "3413600",
				"executionCost": "infinite",
				"totalCost": "infinite"
			},
			"external": {
				"CompleteTask(address,uint256)": "infinite",
				"addWorker(address,uint256)": "infinite",
				"calculateCost(uint256)": "infinite",
				"createOrderPreview(string,uint256,uint256,uint256)": "infinite",
				"getOrderInfo(uint256)": "infinite",
				"getTask(uint256)": "infinite",
				"getUserOrders(address)": "infinite",
				"getWorkerInfo(address)": "infinite",
				"getWorkerList()": "infinite",
				"orders(uint256)": "infinite",
				"removeWorker(address)": "infinite",
				"setMarketplaceAddress(address)": "26981",
				"transferFunds(address,uint256)": "infinite",
				"userOrders(address,uint256)": "infinite",
				"workerLoad(address)": "2902"
			},
			"internal": {
				"TriggerTaskPool()": "infinite"
			}
		},
		"methodIdentifiers": {
			"CompleteTask(address,uint256)": "8db4b00f",
			"addWorker(address,uint256)": "6b6096fc",
			"calculateCost(uint256)": "4af18f4f",
			"createOrderPreview(string,uint256,uint256,uint256)": "26858d24",
			"getOrderInfo(uint256)": "d311636b",
			"getTask(uint256)": "1d65e77e",
			"getUserOrders(address)": "63c69f08",
			"getWorkerInfo(address)": "ce8ef7a6",
			"getWorkerList()": "1e7f931f",
			"orders(uint256)": "a85c38ef",
			"removeWorker(address)": "c4f987a5",
			"setMarketplaceAddress(address)": "b47cc556",
			"transferFunds(address,uint256)": "990dc9db",
			"userOrders(address,uint256)": "856652e9",
			"workerLoad(address)": "fd8a1682"
		}
	},
	"abi": [
		{
			"inputs": [
				{
					"internalType": "address payable",
					"name": "paymentAddress",
					"type": "address"
				},
				{
					"internalType": "address",
					"name": "taskPoolAddress",
					"type": "address"
				},
				{
					"internalType": "address",
					"name": "workerPoolAddress",
					"type": "address"
				}
			],
			"stateMutability": "nonpayable",
			"type": "constructor"
		},
		{
			"anonymous": false,
			"inputs": [
				{
					"indexed": false,
					"internalType": "uint256",
					"name": "orderId",
					"type": "uint256"
				},
				{
					"indexed": false,
					"internalType": "uint256",
					"name": "paymentAmount",
					"type": "uint256"
				}
			],
			"name": "ConfirmOrder",
			"type": "event"
		},
		{
			"anonymous": false,
			"inputs": [
				{
					"indexed": false,
					"internalType": "string",
					"name": "message",
					"type": "string"
				}
			],
			"name": "Log",
			"type": "event"
		},
		{
			"anonymous": false,
			"inputs": [
				{
					"indexed": false,
					"internalType": "bool",
					"name": "LogBool",
					"type": "bool"
				}
			],
			"name": "LogBool",
			"type": "event"
		},
		{
			"anonymous": false,
			"inputs": [
				{
					"indexed": false,
					"internalType": "address",
					"name": "adr",
					"type": "address"
				},
				{
					"indexed": false,
					"internalType": "address",
					"name": "adr2",
					"type": "address"
				}
			],
			"name": "Logad",
			"type": "event"
		},
		{
			"anonymous": false,
			"inputs": [
				{
					"indexed": false,
					"internalType": "string",
					"name": "message",
					"type": "string"
				},
				{
					"indexed": false,
					"internalType": "uint256",
					"name": "orderId",
					"type": "uint256"
				}
			],
			"name": "OrderCreated",
			"type": "event"
		},
		{
			"anonymous": false,
			"inputs": [
				{
					"indexed": true,
					"internalType": "uint256",
					"name": "taskId",
					"type": "uint256"
				},
				{
					"indexed": true,
					"internalType": "address",
					"name": "worker",
					"type": "address"
				}
			],
			"name": "TaskCompleted",
			"type": "event"
		},
		{
			"inputs": [
				{
					"internalType": "address",
					"name": "workerAddress",
					"type": "address"
				},
				{
					"internalType": "uint256",
					"name": "taskId",
					"type": "uint256"
				}
			],
			"name": "CompleteTask",
			"outputs": [],
			"stateMutability": "nonpayable",
			"type": "function"
		},
		{
			"inputs": [
				{
					"internalType": "address",
					"name": "worker",
					"type": "address"
				},
				{
					"internalType": "uint256",
					"name": "_computingPower",
					"type": "uint256"
				}
			],
			"name": "addWorker",
			"outputs": [],
			"stateMutability": "nonpayable",
			"type": "function"
		},
		{
			"inputs": [
				{
					"internalType": "uint256",
					"name": "paymentAmount",
					"type": "uint256"
				}
			],
			"name": "calculateCost",
			"outputs": [],
			"stateMutability": "payable",
			"type": "function"
		},
		{
			"inputs": [
				{
					"internalType": "string",
					"name": "folderUrl",
					"type": "string"
				},
				{
					"internalType": "uint256",
					"name": "requiredPower",
					"type": "uint256"
				},
				{
					"internalType": "uint256",
					"name": "paymentAmount",
					"type": "uint256"
				},
				{
					"internalType": "uint256",
					"name": "orderLevel",
					"type": "uint256"
				}
			],
			"name": "createOrderPreview",
			"outputs": [
				{
					"internalType": "uint256",
					"name": "",
					"type": "uint256"
				}
			],
			"stateMutability": "payable",
			"type": "function"
		},
		{
			"inputs": [
				{
					"internalType": "uint256",
					"name": "orderId",
					"type": "uint256"
				}
			],
			"name": "getOrderInfo",
			"outputs": [
				{
					"internalType": "uint256",
					"name": "_orderId",
					"type": "uint256"
				},
				{
					"internalType": "uint256",
					"name": "_trainTaskId",
					"type": "uint256"
				},
				{
					"internalType": "uint256",
					"name": "_validateTaskId",
					"type": "uint256"
				},
				{
					"internalType": "address",
					"name": "_client",
					"type": "address"
				},
				{
					"internalType": "uint256",
					"name": "_paymentAmount",
					"type": "uint256"
				},
				{
					"internalType": "enum SharedStructs.OrderStatus",
					"name": "_orderStatus",
					"type": "uint8"
				},
				{
					"internalType": "uint256",
					"name": "_orderLevel",
					"type": "uint256"
				},
				{
					"internalType": "uint256",
					"name": "_requiredComputingPower",
					"type": "uint256"
				},
				{
					"internalType": "string",
					"name": "_floderUrl",
					"type": "string"
				}
			],
			"stateMutability": "view",
			"type": "function"
		},
		{
			"inputs": [
				{
					"internalType": "uint256",
					"name": "taskId",
					"type": "uint256"
				}
			],
			"name": "getTask",
			"outputs": [
				{
					"components": [
						{
							"internalType": "uint256",
							"name": "id",
							"type": "uint256"
						},
						{
							"internalType": "uint256",
							"name": "orderId",
							"type": "uint256"
						},
						{
							"internalType": "enum SharedStructs.TaskType",
							"name": "taskType",
							"type": "uint8"
						},
						{
							"internalType": "enum SharedStructs.TaskStatus",
							"name": "status",
							"type": "uint8"
						},
						{
							"internalType": "string",
							"name": "folderUrl",
							"type": "string"
						},
						{
							"internalType": "uint256",
							"name": "requiredPower",
							"type": "uint256"
						},
						{
							"internalType": "address",
							"name": "creator",
							"type": "address"
						},
						{
							"internalType": "uint256",
							"name": "workerId",
							"type": "uint256"
						},
						{
							"internalType": "uint256",
							"name": "expectWorkerId",
							"type": "uint256"
						},
						{
							"internalType": "uint256",
							"name": "orderLevel",
							"type": "uint256"
						}
					],
					"internalType": "struct SharedStructs.TaskInfo",
					"name": "",
					"type": "tuple"
				}
			],
			"stateMutability": "view",
			"type": "function"
		},
		{
			"inputs": [
				{
					"internalType": "address",
					"name": "user",
					"type": "address"
				}
			],
			"name": "getUserOrders",
			"outputs": [
				{
					"internalType": "uint256[]",
					"name": "",
					"type": "uint256[]"
				}
			],
			"stateMutability": "view",
			"type": "function"
		},
		{
			"inputs": [
				{
					"internalType": "address",
					"name": "worker",
					"type": "address"
				}
			],
			"name": "getWorkerInfo",
			"outputs": [
				{
					"components": [
						{
							"internalType": "uint256",
							"name": "workerId",
							"type": "uint256"
						},
						{
							"internalType": "uint256",
							"name": "computingPower",
							"type": "uint256"
						},
						{
							"internalType": "bool",
							"name": "isBusy",
							"type": "bool"
						},
						{
							"internalType": "bool",
							"name": "isActivate",
							"type": "bool"
						},
						{
							"internalType": "uint256",
							"name": "taskId",
							"type": "uint256"
						}
					],
					"internalType": "struct WorkerPool.Worker",
					"name": "",
					"type": "tuple"
				}
			],
			"stateMutability": "view",
			"type": "function"
		},
		{
			"inputs": [],
			"name": "getWorkerList",
			"outputs": [
				{
					"internalType": "address[]",
					"name": "",
					"type": "address[]"
				}
			],
			"stateMutability": "view",
			"type": "function"
		},
		{
			"inputs": [
				{
					"internalType": "uint256",
					"name": "",
					"type": "uint256"
				}
			],
			"name": "orders",
			"outputs": [
				{
					"internalType": "contract Order",
					"name": "",
					"type": "address"
				}
			],
			"stateMutability": "view",
			"type": "function"
		},
		{
			"inputs": [
				{
					"internalType": "address",
					"name": "worker",
					"type": "address"
				}
			],
			"name": "removeWorker",
			"outputs": [],
			"stateMutability": "nonpayable",
			"type": "function"
		},
		{
			"inputs": [
				{
					"internalType": "address",
					"name": "marketplaceAddress",
					"type": "address"
				}
			],
			"name": "setMarketplaceAddress",
			"outputs": [],
			"stateMutability": "nonpayable",
			"type": "function"
		},
		{
			"inputs": [
				{
					"internalType": "address",
					"name": "recipient",
					"type": "address"
				},
				{
					"internalType": "uint256",
					"name": "amount",
					"type": "uint256"
				}
			],
			"name": "transferFunds",
			"outputs": [],
			"stateMutability": "nonpayable",
			"type": "function"
		},
		{
			"inputs": [
				{
					"internalType": "address",
					"name": "",
					"type": "address"
				},
				{
					"internalType": "uint256",
					"name": "",
					"type": "uint256"
				}
			],
			"name": "userOrders",
			"outputs": [
				{
					"internalType": "uint256",
					"name": "",
					"type": "uint256"
				}
			],
			"stateMutability": "view",
			"type": "function"
		},
		{
			"inputs": [
				{
					"internalType": "address",
					"name": "",
					"type": "address"
				}
			],
			"name": "workerLoad",
			"outputs": [
				{
					"internalType": "uint256",
					"name": "",
					"type": "uint256"
				}
			],
			"stateMutability": "view",
			"type": "function"
		}
	]
}