{
  "_format": "hh-sol-artifact-1",
  "contractName": "AxelarMoonbeamSatelite",
  "sourceName": "contracts/Moonbeam/Moonbeam/AxelarMoonbeamSatelite.sol",
  "abi": [
    {
      "inputs": [
        {
          "internalType": "address",
          "name": "_gateway",
          "type": "address"
        },
        {
          "internalType": "address",
          "name": "_gasReceiver",
          "type": "address"
        }
      ],
      "stateMutability": "nonpayable",
      "type": "constructor"
    },
    {
      "inputs": [],
      "name": "InvalidAddress",
      "type": "error"
    },
    {
      "inputs": [],
      "name": "NotApprovedByGateway",
      "type": "error"
    },
    {
      "inputs": [],
      "name": "USDC_address",
      "outputs": [
        {
          "internalType": "address",
          "name": "",
          "type": "address"
        }
      ],
      "stateMutability": "view",
      "type": "function"
    },
    {
      "inputs": [],
      "name": "_dcaBlockInterval",
      "outputs": [
        {
          "internalType": "uint256",
          "name": "",
          "type": "uint256"
        }
      ],
      "stateMutability": "view",
      "type": "function"
    },
    {
      "inputs": [],
      "name": "_limit_price",
      "outputs": [
        {
          "internalType": "uint256",
          "name": "",
          "type": "uint256"
        }
      ],
      "stateMutability": "view",
      "type": "function"
    },
    {
      "inputs": [],
      "name": "_messageCode",
      "outputs": [
        {
          "internalType": "uint256",
          "name": "",
          "type": "uint256"
        }
      ],
      "stateMutability": "view",
      "type": "function"
    },
    {
      "inputs": [],
      "name": "_messageCode2",
      "outputs": [
        {
          "internalType": "uint256",
          "name": "",
          "type": "uint256"
        }
      ],
      "stateMutability": "view",
      "type": "function"
    },
    {
      "inputs": [],
      "name": "_nonce",
      "outputs": [
        {
          "internalType": "uint256",
          "name": "",
          "type": "uint256"
        }
      ],
      "stateMutability": "view",
      "type": "function"
    },
    {
      "inputs": [],
      "name": "_nonce2",
      "outputs": [
        {
          "internalType": "uint256",
          "name": "",
          "type": "uint256"
        }
      ],
      "stateMutability": "view",
      "type": "function"
    },
    {
      "inputs": [],
      "name": "_num_Ofsplits",
      "outputs": [
        {
          "internalType": "uint256",
          "name": "",
          "type": "uint256"
        }
      ],
      "stateMutability": "view",
      "type": "function"
    },
    {
      "inputs": [],
      "name": "_order_type",
      "outputs": [
        {
          "internalType": "uint256",
          "name": "",
          "type": "uint256"
        }
      ],
      "stateMutability": "view",
      "type": "function"
    },
    {
      "inputs": [],
      "name": "_owner",
      "outputs": [
        {
          "internalType": "address",
          "name": "",
          "type": "address"
        }
      ],
      "stateMutability": "view",
      "type": "function"
    },
    {
      "inputs": [],
      "name": "_owner2",
      "outputs": [
        {
          "internalType": "address",
          "name": "",
          "type": "address"
        }
      ],
      "stateMutability": "view",
      "type": "function"
    },
    {
      "inputs": [],
      "name": "_size",
      "outputs": [
        {
          "internalType": "uint256",
          "name": "",
          "type": "uint256"
        }
      ],
      "stateMutability": "view",
      "type": "function"
    },
    {
      "inputs": [],
      "name": "_stop_price",
      "outputs": [
        {
          "internalType": "uint256",
          "name": "",
          "type": "uint256"
        }
      ],
      "stateMutability": "view",
      "type": "function"
    },
    {
      "inputs": [],
      "name": "_tokenIn",
      "outputs": [
        {
          "internalType": "address",
          "name": "",
          "type": "address"
        }
      ],
      "stateMutability": "view",
      "type": "function"
    },
    {
      "inputs": [],
      "name": "_tokenOut",
      "outputs": [
        {
          "internalType": "address",
          "name": "",
          "type": "address"
        }
      ],
      "stateMutability": "view",
      "type": "function"
    },
    {
      "inputs": [],
      "name": "admin",
      "outputs": [
        {
          "internalType": "address",
          "name": "",
          "type": "address"
        }
      ],
      "stateMutability": "view",
      "type": "function"
    },
    {
      "inputs": [],
      "name": "axlUSDC",
      "outputs": [
        {
          "internalType": "contract IERC20",
          "name": "",
          "type": "address"
        }
      ],
      "stateMutability": "view",
      "type": "function"
    },
    {
      "inputs": [],
      "name": "axlUSDC_address",
      "outputs": [
        {
          "internalType": "address",
          "name": "",
          "type": "address"
        }
      ],
      "stateMutability": "view",
      "type": "function"
    },
    {
      "inputs": [
        {
          "internalType": "bytes32",
          "name": "commandId",
          "type": "bytes32"
        },
        {
          "internalType": "string",
          "name": "sourceChain",
          "type": "string"
        },
        {
          "internalType": "string",
          "name": "sourceAddress",
          "type": "string"
        },
        {
          "internalType": "bytes",
          "name": "payload",
          "type": "bytes"
        }
      ],
      "name": "execute",
      "outputs": [],
      "stateMutability": "nonpayable",
      "type": "function"
    },
    {
      "inputs": [
        {
          "internalType": "bytes32",
          "name": "commandId",
          "type": "bytes32"
        },
        {
          "internalType": "string",
          "name": "sourceChain",
          "type": "string"
        },
        {
          "internalType": "string",
          "name": "sourceAddress",
          "type": "string"
        },
        {
          "internalType": "bytes",
          "name": "payload",
          "type": "bytes"
        },
        {
          "internalType": "string",
          "name": "tokenSymbol",
          "type": "string"
        },
        {
          "internalType": "uint256",
          "name": "amount",
          "type": "uint256"
        }
      ],
      "name": "executeWithToken",
      "outputs": [],
      "stateMutability": "nonpayable",
      "type": "function"
    },
    {
      "inputs": [],
      "name": "gasService",
      "outputs": [
        {
          "internalType": "contract IAxelarGasService",
          "name": "",
          "type": "address"
        }
      ],
      "stateMutability": "view",
      "type": "function"
    },
    {
      "inputs": [],
      "name": "gateway",
      "outputs": [
        {
          "internalType": "contract IAxelarGateway",
          "name": "",
          "type": "address"
        }
      ],
      "stateMutability": "view",
      "type": "function"
    },
    {
      "inputs": [],
      "name": "orderIsdeleted",
      "outputs": [
        {
          "internalType": "bool",
          "name": "",
          "type": "bool"
        }
      ],
      "stateMutability": "view",
      "type": "function"
    },
    {
      "inputs": [],
      "name": "ordersManager_address",
      "outputs": [
        {
          "internalType": "address",
          "name": "",
          "type": "address"
        }
      ],
      "stateMutability": "view",
      "type": "function"
    },
    {
      "inputs": [],
      "name": "satelite_Fantom_address",
      "outputs": [
        {
          "internalType": "string",
          "name": "",
          "type": "string"
        }
      ],
      "stateMutability": "view",
      "type": "function"
    },
    {
      "inputs": [
        {
          "internalType": "address",
          "name": "_satelite_Fantom_address",
          "type": "address"
        }
      ],
      "name": "set_FantomSatelite",
      "outputs": [],
      "stateMutability": "nonpayable",
      "type": "function"
    },
    {
      "inputs": [
        {
          "internalType": "address",
          "name": "_ordersManager_address",
          "type": "address"
        },
        {
          "internalType": "address",
          "name": "_usersRegistry_address",
          "type": "address"
        }
      ],
      "name": "set_OrdersManager",
      "outputs": [],
      "stateMutability": "nonpayable",
      "type": "function"
    },
    {
      "inputs": [],
      "name": "sourceAddress",
      "outputs": [
        {
          "internalType": "string",
          "name": "",
          "type": "string"
        }
      ],
      "stateMutability": "view",
      "type": "function"
    },
    {
      "inputs": [],
      "name": "sourceChain",
      "outputs": [
        {
          "internalType": "string",
          "name": "",
          "type": "string"
        }
      ],
      "stateMutability": "view",
      "type": "function"
    },
    {
      "inputs": [],
      "name": "usersRegistry_address",
      "outputs": [
        {
          "internalType": "address",
          "name": "",
          "type": "address"
        }
      ],
      "stateMutability": "view",
      "type": "function"
    }
  ],
  "bytecode": "0x60c06040523480156200001157600080fd5b506040516200269c3803806200269c833981810160405281019062000037919062000210565b81600073ffffffffffffffffffffffffffffffffffffffff168173ffffffffffffffffffffffffffffffffffffffff16036200009f576040517fe6c4247b00000000000000000000000000000000000000000000000000000000815260040160405180910390fd5b8073ffffffffffffffffffffffffffffffffffffffff1660808173ffffffffffffffffffffffffffffffffffffffff16815250505033600360006101000a81548173ffffffffffffffffffffffffffffffffffffffff021916908373ffffffffffffffffffffffffffffffffffffffff1602179055508073ffffffffffffffffffffffffffffffffffffffff1660a08173ffffffffffffffffffffffffffffffffffffffff168152505073ca01a1d0993565291051daff390892518acfad3a600460006101000a81548173ffffffffffffffffffffffffffffffffffffffff021916908373ffffffffffffffffffffffffffffffffffffffff160217905550505062000257565b600080fd5b600073ffffffffffffffffffffffffffffffffffffffff82169050919050565b6000620001d882620001ab565b9050919050565b620001ea81620001cb565b8114620001f657600080fd5b50565b6000815190506200020a81620001df565b92915050565b600080604083850312156200022a5762000229620001a6565b5b60006200023a85828601620001f9565b92505060206200024d85828601620001f9565b9150509250929050565b60805160a0516124116200028b60003960006109c1015260008181610589015281816105cf01526108c101526124116000f3fe608060405234801561001057600080fd5b50600436106101da5760003560e01c80638c3a427111610104578063c94e692b116100a2578063e26c6b0c11610071578063e26c6b0c146104e3578063e87bdca214610501578063f851a4401461051f578063f9abd26c1461053d576101da565b8063c94e692b1461046b578063caea271a14610489578063d136d90c146104a7578063d3141f99146104c5576101da565b8063b0fa8444116100de578063b0fa8444146103f5578063b2bdfa7b14610413578063bea7bd8714610431578063c7fc69a21461044d576101da565b80638c3a42711461039b5780638f455ade146103b9578063aa8fb38f146103d7576101da565b8063342ef1a91161017c57806350ac81861161014b57806350ac8186146103235780635d1222aa146103415780636a22d8cc1461035f578063745583431461037d576101da565b8063342ef1a9146102af578063352afa92146102cd5780633dbc7d61146102e95780634916065814610307576101da565b806315165222116101b857806315165222146102395780631a98b2e0146102575780631c6ffa4614610273578063297acb2a14610291576101da565b806304108d54146101df578063089b91ff146101fd578063116191b61461021b575b600080fd5b6101e761055b565b6040516101f491906113ce565b60405180910390f35b610205610561565b604051610212919061142a565b60405180910390f35b610223610587565b60405161023091906114a4565b60405180910390f35b6102416105ab565b60405161024e91906113ce565b60405180910390f35b610271600480360381019061026c91906115e6565b6105b1565b005b61027b6106cd565b6040516102889190611786565b60405180910390f35b61029961075b565b6040516102a691906113ce565b60405180910390f35b6102b7610761565b6040516102c491906113ce565b60405180910390f35b6102e760048036038101906102e291906117d4565b610767565b005b6102f161087d565b6040516102fe919061142a565b60405180910390f35b610321600480360381019061031c9190611814565b6108a3565b005b61032b6109b3565b60405161033891906113ce565b60405180910390f35b6103496109b9565b60405161035691906113ce565b60405180910390f35b6103676109bf565b60405161037491906118fe565b60405180910390f35b6103856109e3565b6040516103929190611786565b60405180910390f35b6103a3610a71565b6040516103b0919061193a565b60405180910390f35b6103c1610a97565b6040516103ce919061142a565b60405180910390f35b6103df610abd565b6040516103ec919061142a565b60405180910390f35b6103fd610ae3565b60405161040a9190611786565b60405180910390f35b61041b610b71565b604051610428919061142a565b60405180910390f35b61044b60048036038101906104469190611955565b610b97565b005b610455610c58565b604051610462919061142a565b60405180910390f35b610473610c7e565b60405161048091906113ce565b60405180910390f35b610491610c84565b60405161049e91906113ce565b60405180910390f35b6104af610c8a565b6040516104bc91906113ce565b60405180910390f35b6104cd610c90565b6040516104da919061142a565b60405180910390f35b6104eb610ca8565b6040516104f8919061199d565b60405180910390f35b610509610cb9565b60405161051691906113ce565b60405180910390f35b610527610cbf565b604051610534919061142a565b60405180910390f35b610545610ce5565b604051610552919061142a565b60405180910390f35b600d5481565b600260009054906101000a900473ffffffffffffffffffffffffffffffffffffffff1681565b7f000000000000000000000000000000000000000000000000000000000000000081565b60105481565b600085856040516105c39291906119f7565b604051809103902090507f000000000000000000000000000000000000000000000000000000000000000073ffffffffffffffffffffffffffffffffffffffff16631876eed98c8c8c8c8c878b8b8b6040518a63ffffffff1660e01b815260040161063699989796959493929190611a4c565b6020604051808303816000875af1158015610655573d6000803e3d6000fd5b505050506040513d601f19601f820116820180604052508101906106799190611af4565b6106af576040517f500c44b400000000000000000000000000000000000000000000000000000000815260040160405180910390fd5b6106c08a8a8a8a8a8a8a8a8a610cfd565b5050505050505050505050565b600580546106da90611b50565b80601f016020809104026020016040519081016040528092919081815260200182805461070690611b50565b80156107535780601f1061072857610100808354040283529160200191610753565b820191906000526020600020905b81548152906001019060200180831161073657829003601f168201915b505050505081565b600c5481565b60075481565b600360009054906101000a900473ffffffffffffffffffffffffffffffffffffffff1673ffffffffffffffffffffffffffffffffffffffff163373ffffffffffffffffffffffffffffffffffffffff16146107f7576040517f08c379a00000000000000000000000000000000000000000000000000000000081526004016107ee90611bcd565b60405180910390fd5b81600160006101000a81548173ffffffffffffffffffffffffffffffffffffffff021916908373ffffffffffffffffffffffffffffffffffffffff16021790555080600260006101000a81548173ffffffffffffffffffffffffffffffffffffffff021916908373ffffffffffffffffffffffffffffffffffffffff1602179055505050565b600160009054906101000a900473ffffffffffffffffffffffffffffffffffffffff1681565b600082826040516108b59291906119f7565b604051809103902090507f000000000000000000000000000000000000000000000000000000000000000073ffffffffffffffffffffffffffffffffffffffff16635f6970c38989898989876040518763ffffffff1660e01b815260040161092296959493929190611bed565b6020604051808303816000875af1158015610941573d6000803e3d6000fd5b505050506040513d601f19601f820116820180604052508101906109659190611af4565b61099b576040517f500c44b400000000000000000000000000000000000000000000000000000000815260040160405180910390fd5b6109a9878787878787610d08565b5050505050505050565b60135481565b60085481565b7f000000000000000000000000000000000000000000000000000000000000000081565b600080546109f090611b50565b80601f0160208091040260200160405190810160405280929190818152602001828054610a1c90611b50565b8015610a695780601f10610a3e57610100808354040283529160200191610a69565b820191906000526020600020905b815481529060010190602001808311610a4c57829003601f168201915b505050505081565b600460009054906101000a900473ffffffffffffffffffffffffffffffffffffffff1681565b600b60009054906101000a900473ffffffffffffffffffffffffffffffffffffffff1681565b601460009054906101000a900473ffffffffffffffffffffffffffffffffffffffff1681565b60068054610af090611b50565b80601f0160208091040260200160405190810160405280929190818152602001828054610b1c90611b50565b8015610b695780601f10610b3e57610100808354040283529160200191610b69565b820191906000526020600020905b815481529060010190602001808311610b4c57829003601f168201915b505050505081565b600960009054906101000a900473ffffffffffffffffffffffffffffffffffffffff1681565b600360009054906101000a900473ffffffffffffffffffffffffffffffffffffffff1673ffffffffffffffffffffffffffffffffffffffff163373ffffffffffffffffffffffffffffffffffffffff1614610c27576040517f08c379a0000000000000000000000000000000000000000000000000000000008152600401610c1e90611bcd565b60405180910390fd5b610c468173ffffffffffffffffffffffffffffffffffffffff16611092565b60009081610c549190611e15565b5050565b600a60009054906101000a900473ffffffffffffffffffffffffffffffffffffffff1681565b60125481565b600f5481565b600e5481565b73ca01a1d0993565291051daff390892518acfad3a81565b60148054906101000a900460ff1681565b60115481565b600360009054906101000a900473ffffffffffffffffffffffffffffffffffffffff1681565b73931715fee2d06333043d11f658c8ce934ac61d0c81565b505050505050505050565b858560059182610d19929190611ef2565b50838360069182610d2b929190611ef2565b5060008060008060008060008060008060008c8c810190610d4c9190612000565b9a509a509a509a509a509a509a509a509a509a509a5060018b03610eb957600260009054906101000a900473ffffffffffffffffffffffffffffffffffffffff1673ffffffffffffffffffffffffffffffffffffffff1663999eab2b8a610dc88c73ffffffffffffffffffffffffffffffffffffffff16611092565b6040518363ffffffff1660e01b8152600401610de5929190612166565b600060405180830381600087803b158015610dff57600080fd5b505af1158015610e13573d6000803e3d6000fd5b50505050600160009054906101000a900473ffffffffffffffffffffffffffffffffffffffff1673ffffffffffffffffffffffffffffffffffffffff16632dc8a4828a8a8a8a8a8a8a8a8a6040518a63ffffffff1660e01b8152600401610e82999897969594939291906121cf565b600060405180830381600087803b158015610e9c57600080fd5b505af1158015610eb0573d6000803e3d6000fd5b50505050610f84565b60028b03610f835760006014806101000a81548160ff021916908315150217905550600160009054906101000a900473ffffffffffffffffffffffffffffffffffffffff1673ffffffffffffffffffffffffffffffffffffffff1663df7c8a5c8b6040518263ffffffff1660e01b8152600401610f3691906113ce565b600060405180830381600087803b158015610f5057600080fd5b505af1158015610f64573d6000803e3d6000fd5b5050505060016014806101000a81548160ff0219169083151502179055505b5b8a6007819055508960088190555088600960006101000a81548173ffffffffffffffffffffffffffffffffffffffff021916908373ffffffffffffffffffffffffffffffffffffffff16021790555087600a60006101000a81548173ffffffffffffffffffffffffffffffffffffffff021916908373ffffffffffffffffffffffffffffffffffffffff16021790555086600b60006101000a81548173ffffffffffffffffffffffffffffffffffffffff021916908373ffffffffffffffffffffffffffffffffffffffff16021790555085600c8190555084600d8190555083600e8190555082600f8190555081601081905550806011819055505050505050505050505050505050505050565b60606000826040516020016110a791906122a4565b604051602081830303815290604052905060008151905060006040518060400160405280601081526020017f3031323334353637383961626364656600000000000000000000000000000000815250905060006002845161110891906122ee565b60026111149190612330565b67ffffffffffffffff81111561112d5761112c611c44565b5b6040519080825280601f01601f19166020018201604052801561115f5781602001600182028036833780820191505090505b5090507f30000000000000000000000000000000000000000000000000000000000000008160008151811061119757611196612364565b5b60200101907effffffffffffffffffffffffffffffffffffffffffffffffffffffffffffff1916908160001a9053507f7800000000000000000000000000000000000000000000000000000000000000816001815181106111fb576111fa612364565b5b60200101907effffffffffffffffffffffffffffffffffffffffffffffffffffffffffffff1916908160001a90535060005b838110156113a85782600486838151811061124b5761124a612364565b5b602001015160f81c60f81b7effffffffffffffffffffffffffffffffffffffffffffffffffffffffffffff1916901c60f81c60ff168151811061129157611290612364565b5b602001015160f81c60f81b826002836112aa91906122ee565b60026112b69190612330565b815181106112c7576112c6612364565b5b60200101907effffffffffffffffffffffffffffffffffffffffffffffffffffffffffffff1916908160001a90535082600f60f81b86838151811061130f5761130e612364565b5b602001015160f81c60f81b1660f81c60ff168151811061133257611331612364565b5b602001015160f81c60f81b8260028361134b91906122ee565b60036113579190612330565b8151811061136857611367612364565b5b60200101907effffffffffffffffffffffffffffffffffffffffffffffffffffffffffffff1916908160001a905350806113a190612393565b905061122d565b5080945050505050919050565b6000819050919050565b6113c8816113b5565b82525050565b60006020820190506113e360008301846113bf565b92915050565b600073ffffffffffffffffffffffffffffffffffffffff82169050919050565b6000611414826113e9565b9050919050565b61142481611409565b82525050565b600060208201905061143f600083018461141b565b92915050565b6000819050919050565b600061146a611465611460846113e9565b611445565b6113e9565b9050919050565b600061147c8261144f565b9050919050565b600061148e82611471565b9050919050565b61149e81611483565b82525050565b60006020820190506114b96000830184611495565b92915050565b600080fd5b600080fd5b6000819050919050565b6114dc816114c9565b81146114e757600080fd5b50565b6000813590506114f9816114d3565b92915050565b600080fd5b600080fd5b600080fd5b60008083601f840112611524576115236114ff565b5b8235905067ffffffffffffffff81111561154157611540611504565b5b60208301915083600182028301111561155d5761155c611509565b5b9250929050565b60008083601f84011261157a576115796114ff565b5b8235905067ffffffffffffffff81111561159757611596611504565b5b6020830191508360018202830111156115b3576115b2611509565b5b9250929050565b6115c3816113b5565b81146115ce57600080fd5b50565b6000813590506115e0816115ba565b92915050565b60008060008060008060008060008060c08b8d031215611609576116086114bf565b5b60006116178d828e016114ea565b9a505060208b013567ffffffffffffffff811115611638576116376114c4565b5b6116448d828e0161150e565b995099505060408b013567ffffffffffffffff811115611667576116666114c4565b5b6116738d828e0161150e565b975097505060608b013567ffffffffffffffff811115611696576116956114c4565b5b6116a28d828e01611564565b955095505060808b013567ffffffffffffffff8111156116c5576116c46114c4565b5b6116d18d828e0161150e565b935093505060a06116e48d828e016115d1565b9150509295989b9194979a5092959850565b600081519050919050565b600082825260208201905092915050565b60005b83811015611730578082015181840152602081019050611715565b60008484015250505050565b6000601f19601f8301169050919050565b6000611758826116f6565b6117628185611701565b9350611772818560208601611712565b61177b8161173c565b840191505092915050565b600060208201905081810360008301526117a0818461174d565b905092915050565b6117b181611409565b81146117bc57600080fd5b50565b6000813590506117ce816117a8565b92915050565b600080604083850312156117eb576117ea6114bf565b5b60006117f9858286016117bf565b925050602061180a858286016117bf565b9150509250929050565b60008060008060008060006080888a031215611833576118326114bf565b5b60006118418a828b016114ea565b975050602088013567ffffffffffffffff811115611862576118616114c4565b5b61186e8a828b0161150e565b9650965050604088013567ffffffffffffffff811115611891576118906114c4565b5b61189d8a828b0161150e565b9450945050606088013567ffffffffffffffff8111156118c0576118bf6114c4565b5b6118cc8a828b01611564565b925092505092959891949750929550565b60006118e882611471565b9050919050565b6118f8816118dd565b82525050565b600060208201905061191360008301846118ef565b92915050565b600061192482611471565b9050919050565b61193481611919565b82525050565b600060208201905061194f600083018461192b565b92915050565b60006020828403121561196b5761196a6114bf565b5b6000611979848285016117bf565b91505092915050565b60008115159050919050565b61199781611982565b82525050565b60006020820190506119b2600083018461198e565b92915050565b600081905092915050565b82818337600083830152505050565b60006119de83856119b8565b93506119eb8385846119c3565b82840190509392505050565b6000611a048284866119d2565b91508190509392505050565b611a19816114c9565b82525050565b6000611a2b8385611701565b9350611a388385846119c3565b611a418361173c565b840190509392505050565b600060c082019050611a61600083018c611a10565b8181036020830152611a74818a8c611a1f565b90508181036040830152611a8981888a611a1f565b9050611a986060830187611a10565b8181036080830152611aab818587611a1f565b9050611aba60a08301846113bf565b9a9950505050505050505050565b611ad181611982565b8114611adc57600080fd5b50565b600081519050611aee81611ac8565b92915050565b600060208284031215611b0a57611b096114bf565b5b6000611b1884828501611adf565b91505092915050565b7f4e487b7100000000000000000000000000000000000000000000000000000000600052602260045260246000fd5b60006002820490506001821680611b6857607f821691505b602082108103611b7b57611b7a611b21565b5b50919050565b7f616374696f6e206f6e6c7920666f722061646d696e0000000000000000000000600082015250565b6000611bb7601583611701565b9150611bc282611b81565b602082019050919050565b60006020820190508181036000830152611be681611baa565b9050919050565b6000608082019050611c026000830189611a10565b8181036020830152611c15818789611a1f565b90508181036040830152611c2a818587611a1f565b9050611c396060830184611a10565b979650505050505050565b7f4e487b7100000000000000000000000000000000000000000000000000000000600052604160045260246000fd5b60008190508160005260206000209050919050565b60006020601f8301049050919050565b600082821b905092915050565b600060088302611cd57fffffffffffffffffffffffffffffffffffffffffffffffffffffffffffffffff82611c98565b611cdf8683611c98565b95508019841693508086168417925050509392505050565b6000611d12611d0d611d08846113b5565b611445565b6113b5565b9050919050565b6000819050919050565b611d2c83611cf7565b611d40611d3882611d19565b848454611ca5565b825550505050565b600090565b611d55611d48565b611d60818484611d23565b505050565b5b81811015611d8457611d79600082611d4d565b600181019050611d66565b5050565b601f821115611dc957611d9a81611c73565b611da384611c88565b81016020851015611db2578190505b611dc6611dbe85611c88565b830182611d65565b50505b505050565b600082821c905092915050565b6000611dec60001984600802611dce565b1980831691505092915050565b6000611e058383611ddb565b9150826002028217905092915050565b611e1e826116f6565b67ffffffffffffffff811115611e3757611e36611c44565b5b611e418254611b50565b611e4c828285611d88565b600060209050601f831160018114611e7f5760008415611e6d578287015190505b611e778582611df9565b865550611edf565b601f198416611e8d86611c73565b60005b82811015611eb557848901518255600182019150602085019450602081019050611e90565b86831015611ed25784890151611ece601f891682611ddb565b8355505b6001600288020188555050505b505050505050565b600082905092915050565b611efc8383611ee7565b67ffffffffffffffff811115611f1557611f14611c44565b5b611f1f8254611b50565b611f2a828285611d88565b6000601f831160018114611f595760008415611f47578287013590505b611f518582611df9565b865550611fb9565b601f198416611f6786611c73565b60005b82811015611f8f57848901358255600182019150602085019450602081019050611f6a565b86831015611fac5784890135611fa8601f891682611ddb565b8355505b6001600288020188555050505b50505050505050565b6000611fcd826113e9565b9050919050565b611fdd81611fc2565b8114611fe857600080fd5b50565b600081359050611ffa81611fd4565b92915050565b60008060008060008060008060008060006101608c8e031215612026576120256114bf565b5b60006120348e828f016115d1565b9b505060206120458e828f016115d1565b9a505060406120568e828f01611feb565b99505060606120678e828f01611feb565b98505060806120788e828f01611feb565b97505060a06120898e828f016115d1565b96505060c061209a8e828f016115d1565b95505060e06120ab8e828f016115d1565b9450506101006120bd8e828f016115d1565b9350506101206120cf8e828f016115d1565b9250506101406120e18e828f016115d1565b9150509295989b509295989b9093969950565b7f46414e544f4d0000000000000000000000000000000000000000000000000000600082015250565b600061212a600683611701565b9150612135826120f4565b602082019050919050565b50565b6000612150600083611701565b915061215b82612140565b600082019050919050565b600060a08201905061217b600083018561141b565b818103602083015261218d818461174d565b905081810360408301526121a08161211d565b905081810360608301526121b381612143565b905081810360808301526121c681612143565b90509392505050565b6000610120820190506121e5600083018c61141b565b6121f2602083018b61141b565b6121ff604083018a61141b565b61220c60608301896113bf565b61221960808301886113bf565b61222660a08301876113bf565b61223360c08301866113bf565b61224060e08301856113bf565b61224e6101008301846113bf565b9a9950505050505050505050565b60008160601b9050919050565b60006122748261225c565b9050919050565b600061228682612269565b9050919050565b61229e61229982611409565b61227b565b82525050565b60006122b0828461228d565b60148201915081905092915050565b7f4e487b7100000000000000000000000000000000000000000000000000000000600052601160045260246000fd5b60006122f9826113b5565b9150612304836113b5565b9250828202612312816113b5565b91508282048414831517612329576123286122bf565b5b5092915050565b600061233b826113b5565b9150612346836113b5565b925082820190508082111561235e5761235d6122bf565b5b92915050565b7f4e487b7100000000000000000000000000000000000000000000000000000000600052603260045260246000fd5b600061239e826113b5565b91507fffffffffffffffffffffffffffffffffffffffffffffffffffffffffffffffff82036123d0576123cf6122bf565b5b60018201905091905056fea2646970667358221220ef57d67793d68a9299bfcf203d2c6bf7107d1f90592aa9b7f8be7938da8fd96064736f6c63430008120033",
  "linkReferences": {},
  "deployedLinkReferences": {}
}