{
  "_format": "hh-sol-artifact-1",
  "contractName": "ExecutionOrdersEngineMoonbeam",
  "sourceName": "contracts/Moonbeam/Moonbeam/ExecutionOrdersEngineMoonbeam.sol",
  "abi": [
    {
      "inputs": [],
      "stateMutability": "nonpayable",
      "type": "constructor"
    },
    {
      "inputs": [
        {
          "internalType": "uint256",
          "name": "",
          "type": "uint256"
        }
      ],
      "name": "Orders",
      "outputs": [
        {
          "internalType": "uint256",
          "name": "engine_nonce",
          "type": "uint256"
        },
        {
          "internalType": "uint256",
          "name": "origin_nonce",
          "type": "uint256"
        },
        {
          "internalType": "address",
          "name": "owner",
          "type": "address"
        },
        {
          "internalType": "address",
          "name": "tokenIn",
          "type": "address"
        },
        {
          "internalType": "address",
          "name": "tokenOut",
          "type": "address"
        },
        {
          "internalType": "uint256",
          "name": "limit_price",
          "type": "uint256"
        },
        {
          "internalType": "uint256",
          "name": "stop_price",
          "type": "uint256"
        },
        {
          "internalType": "uint256",
          "name": "size",
          "type": "uint256"
        },
        {
          "internalType": "uint256",
          "name": "block_submitted",
          "type": "uint256"
        },
        {
          "internalType": "uint256",
          "name": "order_type",
          "type": "uint256"
        },
        {
          "internalType": "uint256",
          "name": "positionAr",
          "type": "uint256"
        }
      ],
      "stateMutability": "view",
      "type": "function"
    },
    {
      "inputs": [],
      "name": "USDC",
      "outputs": [
        {
          "internalType": "contract IERC20",
          "name": "",
          "type": "address"
        }
      ],
      "stateMutability": "view",
      "type": "function"
    },
    {
      "inputs": [],
      "name": "USDC_address",
      "outputs": [
        {
          "internalType": "address",
          "name": "",
          "type": "address"
        }
      ],
      "stateMutability": "view",
      "type": "function"
    },
    {
      "inputs": [],
      "name": "WGLMR_address",
      "outputs": [
        {
          "internalType": "address",
          "name": "",
          "type": "address"
        }
      ],
      "stateMutability": "view",
      "type": "function"
    },
    {
      "inputs": [
        {
          "internalType": "uint256",
          "name": "_nonce",
          "type": "uint256"
        },
        {
          "internalType": "address",
          "name": "_owner",
          "type": "address"
        },
        {
          "internalType": "address",
          "name": "tokenIn",
          "type": "address"
        },
        {
          "internalType": "address",
          "name": "tokenOut",
          "type": "address"
        },
        {
          "internalType": "uint256",
          "name": "limit_price",
          "type": "uint256"
        },
        {
          "internalType": "uint256",
          "name": "stop_price",
          "type": "uint256"
        },
        {
          "internalType": "uint256",
          "name": "size",
          "type": "uint256"
        },
        {
          "internalType": "uint256",
          "name": "block_submitted",
          "type": "uint256"
        },
        {
          "internalType": "uint256",
          "name": "order_type",
          "type": "uint256"
        }
      ],
      "name": "addTo_Orders",
      "outputs": [],
      "stateMutability": "nonpayable",
      "type": "function"
    },
    {
      "inputs": [],
      "name": "admin",
      "outputs": [
        {
          "internalType": "address",
          "name": "",
          "type": "address"
        }
      ],
      "stateMutability": "view",
      "type": "function"
    },
    {
      "inputs": [
        {
          "internalType": "uint256",
          "name": "order_nonce",
          "type": "uint256"
        }
      ],
      "name": "delete_Order",
      "outputs": [],
      "stateMutability": "nonpayable",
      "type": "function"
    },
    {
      "inputs": [],
      "name": "dex",
      "outputs": [
        {
          "internalType": "contract IStellaSwap",
          "name": "",
          "type": "address"
        }
      ],
      "stateMutability": "view",
      "type": "function"
    },
    {
      "inputs": [],
      "name": "engine_nonce",
      "outputs": [
        {
          "internalType": "uint256",
          "name": "",
          "type": "uint256"
        }
      ],
      "stateMutability": "view",
      "type": "function"
    },
    {
      "inputs": [
        {
          "internalType": "uint256",
          "name": "orderNonce",
          "type": "uint256"
        }
      ],
      "name": "executeOrder_Moonbeam",
      "outputs": [],
      "stateMutability": "nonpayable",
      "type": "function"
    },
    {
      "inputs": [],
      "name": "getOurTokensOut",
      "outputs": [],
      "stateMutability": "nonpayable",
      "type": "function"
    },
    {
      "inputs": [],
      "name": "get_pendingOrders_MOONBEAM",
      "outputs": [
        {
          "internalType": "uint256[]",
          "name": "",
          "type": "uint256[]"
        }
      ],
      "stateMutability": "view",
      "type": "function"
    },
    {
      "inputs": [
        {
          "internalType": "uint256",
          "name": "",
          "type": "uint256"
        }
      ],
      "name": "pendingOrders_MOONBEAM",
      "outputs": [
        {
          "internalType": "uint256",
          "name": "",
          "type": "uint256"
        }
      ],
      "stateMutability": "view",
      "type": "function"
    },
    {
      "inputs": [
        {
          "internalType": "address",
          "name": "_stellaSwapAddress",
          "type": "address"
        }
      ],
      "name": "set_StellaSwap",
      "outputs": [],
      "stateMutability": "nonpayable",
      "type": "function"
    },
    {
      "inputs": [],
      "name": "stellaSwapAddress",
      "outputs": [
        {
          "internalType": "address",
          "name": "",
          "type": "address"
        }
      ],
      "stateMutability": "view",
      "type": "function"
    },
    {
      "inputs": [],
      "name": "xcASTR_address",
      "outputs": [
        {
          "internalType": "address",
          "name": "",
          "type": "address"
        }
      ],
      "stateMutability": "view",
      "type": "function"
    },
    {
      "inputs": [],
      "name": "xcDOT_address",
      "outputs": [
        {
          "internalType": "address",
          "name": "",
          "type": "address"
        }
      ],
      "stateMutability": "view",
      "type": "function"
    }
  ],
  "bytecode": "0x6080604052600060015534801561001557600080fd5b50336000806101000a81548173ffffffffffffffffffffffffffffffffffffffff021916908373ffffffffffffffffffffffffffffffffffffffff16021790555073931715fee2d06333043d11f658c8ce934ac61d0c600460006101000a81548173ffffffffffffffffffffffffffffffffffffffff021916908373ffffffffffffffffffffffffffffffffffffffff16021790555061260b806100ba6000396000f3fe608060405234801561001057600080fd5b506004361061010b5760003560e01c80638fb326f2116100a2578063d6905c8e11610071578063d6905c8e1461028e578063df7c8a5c146102aa578063f1e8d1e7146102c6578063f851a440146102e4578063f9abd26c146103025761010b565b80638fb326f2146101e857806398bf0ffb14610222578063a0fbf8fb14610240578063cc2db7ce146102705761010b565b8063692058c2116100de578063692058c2146101725780636bd0dc66146101905780636c2c5aac146101ac57806389a30271146101ca5761010b565b806306c96e8c146101105780633d8765c21461012e5780633f8e8c2714610138578063400e2f9414610156575b600080fd5b610118610320565b6040516101259190611f08565b60405180910390f35b610136610326565b005b6101406107a8565b60405161014d9190611f64565b60405180910390f35b610170600480360381019061016b9190611fb0565b6107c0565b005b61017a61171f565b604051610187919061203c565b60405180910390f35b6101aa60048036038101906101a59190612083565b611745565b005b6101b46117ca565b6040516101c1919061216e565b60405180910390f35b6101d2611822565b6040516101df91906121b1565b60405180910390f35b61020260048036038101906101fd9190611fb0565b611848565b6040516102199b9a999897969594939291906121cc565b60405180910390f35b61022a611902565b6040516102379190611f64565b60405180910390f35b61025a60048036038101906102559190611fb0565b61191a565b6040516102679190611f08565b60405180910390f35b61027861193e565b6040516102859190611f64565b60405180910390f35b6102a860048036038101906102a39190612277565b611956565b005b6102c460048036038101906102bf9190611fb0565b611b80565b005b6102ce611e8d565b6040516102db9190611f64565b60405180910390f35b6102ec611eb3565b6040516102f99190611f64565b60405180910390f35b61030a611ed7565b6040516103179190611f64565b60405180910390f35b60015481565b73931715fee2d06333043d11f658c8ce934ac61d0c73ffffffffffffffffffffffffffffffffffffffff1663a9059cbb3373931715fee2d06333043d11f658c8ce934ac61d0c73ffffffffffffffffffffffffffffffffffffffff166370a08231306040518263ffffffff1660e01b81526004016103a49190611f64565b602060405180830381865afa1580156103c1573d6000803e3d6000fd5b505050506040513d601f19601f820116820180604052508101906103e59190612356565b6040518363ffffffff1660e01b8152600401610402929190612383565b6020604051808303816000875af1158015610421573d6000803e3d6000fd5b505050506040513d601f19601f8201168201806040525081019061044591906123e4565b5073ffffffff1fcacbd218edc0eba20fc2308c77808073ffffffffffffffffffffffffffffffffffffffff1663a9059cbb3373ffffffff1fcacbd218edc0eba20fc2308c77808073ffffffffffffffffffffffffffffffffffffffff166370a08231306040518263ffffffff1660e01b81526004016104c49190611f64565b602060405180830381865afa1580156104e1573d6000803e3d6000fd5b505050506040513d601f19601f820116820180604052508101906105059190612356565b6040518363ffffffff1660e01b8152600401610522929190612383565b6020604051808303816000875af1158015610541573d6000803e3d6000fd5b505050506040513d601f19601f8201168201806040525081019061056591906123e4565b5073acc15dc74880c9944775448304b263d191c6077f73ffffffffffffffffffffffffffffffffffffffff1663a9059cbb3373acc15dc74880c9944775448304b263d191c6077f73ffffffffffffffffffffffffffffffffffffffff166370a08231306040518263ffffffff1660e01b81526004016105e49190611f64565b602060405180830381865afa158015610601573d6000803e3d6000fd5b505050506040513d601f19601f820116820180604052508101906106259190612356565b6040518363ffffffff1660e01b8152600401610642929190612383565b6020604051808303816000875af1158015610661573d6000803e3d6000fd5b505050506040513d601f19601f8201168201806040525081019061068591906123e4565b5073ffffffffa893ad19e540e172c10d78d4d479b5cf73ffffffffffffffffffffffffffffffffffffffff1663a9059cbb3373ffffffffa893ad19e540e172c10d78d4d479b5cf73ffffffffffffffffffffffffffffffffffffffff166370a08231306040518263ffffffff1660e01b81526004016107049190611f64565b602060405180830381865afa158015610721573d6000803e3d6000fd5b505050506040513d601f19601f820116820180604052508101906107459190612356565b6040518363ffffffff1660e01b8152600401610762929190612383565b6020604051808303816000875af1158015610781573d6000803e3d6000fd5b505050506040513d601f19601f820116820180604052508101906107a591906123e4565b50565b73ffffffffa893ad19e540e172c10d78d4d479b5cf81565b6000600560008381526020019081526020016000206040518061016001604052908160008201548152602001600182015481526020016002820160009054906101000a900473ffffffffffffffffffffffffffffffffffffffff1673ffffffffffffffffffffffffffffffffffffffff1673ffffffffffffffffffffffffffffffffffffffff1681526020016003820160009054906101000a900473ffffffffffffffffffffffffffffffffffffffff1673ffffffffffffffffffffffffffffffffffffffff1673ffffffffffffffffffffffffffffffffffffffff1681526020016004820160009054906101000a900473ffffffffffffffffffffffffffffffffffffffff1673ffffffffffffffffffffffffffffffffffffffff1673ffffffffffffffffffffffffffffffffffffffff1681526020016005820154815260200160068201548152602001600782015481526020016008820154815260200160098201548152602001600a82015481525050905073931715fee2d06333043d11f658c8ce934ac61d0c73ffffffffffffffffffffffffffffffffffffffff16816060015173ffffffffffffffffffffffffffffffffffffffff1603610f9e57600460009054906101000a900473ffffffffffffffffffffffffffffffffffffffff1673ffffffffffffffffffffffffffffffffffffffff166323b872dd8260400151308460e001516040518463ffffffff1660e01b81526004016109e793929190612411565b6020604051808303816000875af1158015610a06573d6000803e3d6000fd5b505050506040513d601f19601f82011682018060405250810190610a2a91906123e4565b5073acc15dc74880c9944775448304b263d191c6077f73ffffffffffffffffffffffffffffffffffffffff16816080015173ffffffffffffffffffffffffffffffffffffffff1603610be5576000600360009054906101000a900473ffffffffffffffffffffffffffffffffffffffff1673ffffffffffffffffffffffffffffffffffffffff1663ceb9201273931715fee2d06333043d11f658c8ce934ac61d0c73acc15dc74880c9944775448304b263d191c6077f8560e001516040518463ffffffff1660e01b8152600401610b0393929190612411565b6020604051808303816000875af1158015610b22573d6000803e3d6000fd5b505050506040513d601f19601f82011682018060405250810190610b469190612356565b905073acc15dc74880c9944775448304b263d191c6077f73ffffffffffffffffffffffffffffffffffffffff1663a9059cbb8360400151836040518363ffffffff1660e01b8152600401610b9b929190612383565b6020604051808303816000875af1158015610bba573d6000803e3d6000fd5b505050506040513d601f19601f82011682018060405250810190610bde91906123e4565b5050610f99565b73ffffffff1fcacbd218edc0eba20fc2308c77808073ffffffffffffffffffffffffffffffffffffffff16816080015173ffffffffffffffffffffffffffffffffffffffff1603610db5576000600360009054906101000a900473ffffffffffffffffffffffffffffffffffffffff1673ffffffffffffffffffffffffffffffffffffffff16630ac3789c73931715fee2d06333043d11f658c8ce934ac61d0c73acc15dc74880c9944775448304b263d191c6077f73ffffffff1fcacbd218edc0eba20fc2308c7780808660e001516040518563ffffffff1660e01b8152600401610cd39493929190612448565b6020604051808303816000875af1158015610cf2573d6000803e3d6000fd5b505050506040513d601f19601f82011682018060405250810190610d169190612356565b905073ffffffff1fcacbd218edc0eba20fc2308c77808073ffffffffffffffffffffffffffffffffffffffff1663a9059cbb8360400151836040518363ffffffff1660e01b8152600401610d6b929190612383565b6020604051808303816000875af1158015610d8a573d6000803e3d6000fd5b505050506040513d601f19601f82011682018060405250810190610dae91906123e4565b5050610f98565b73ffffffffa893ad19e540e172c10d78d4d479b5cf73ffffffffffffffffffffffffffffffffffffffff16816080015173ffffffffffffffffffffffffffffffffffffffff1603610f97576000600360009054906101000a900473ffffffffffffffffffffffffffffffffffffffff1673ffffffffffffffffffffffffffffffffffffffff166397c3ec9e73931715fee2d06333043d11f658c8ce934ac61d0c73acc15dc74880c9944775448304b263d191c6077f73ffffffff1fcacbd218edc0eba20fc2308c77808073ffffffffa893ad19e540e172c10d78d4d479b5cf8760e001516040518663ffffffff1660e01b8152600401610eb995949392919061248d565b6020604051808303816000875af1158015610ed8573d6000803e3d6000fd5b505050506040513d601f19601f82011682018060405250810190610efc9190612356565b905073ffffffffa893ad19e540e172c10d78d4d479b5cf73ffffffffffffffffffffffffffffffffffffffff1663a9059cbb8360400151836040518363ffffffff1660e01b8152600401610f51929190612383565b6020604051808303816000875af1158015610f70573d6000803e3d6000fd5b505050506040513d601f19601f82011682018060405250810190610f9491906123e4565b50505b5b5b61170e565b73acc15dc74880c9944775448304b263d191c6077f73ffffffffffffffffffffffffffffffffffffffff16816060015173ffffffffffffffffffffffffffffffffffffffff16036112035773acc15dc74880c9944775448304b263d191c6077f73ffffffffffffffffffffffffffffffffffffffff166323b872dd8260400151308460e001516040518463ffffffff1660e01b815260040161104293929190612411565b6020604051808303816000875af1158015611061573d6000803e3d6000fd5b505050506040513d601f19601f8201168201806040525081019061108591906123e4565b506000600360009054906101000a900473ffffffffffffffffffffffffffffffffffffffff1673ffffffffffffffffffffffffffffffffffffffff1663ceb9201273acc15dc74880c9944775448304b263d191c6077f73931715fee2d06333043d11f658c8ce934ac61d0c8560e001516040518463ffffffff1660e01b815260040161111393929190612411565b6020604051808303816000875af1158015611132573d6000803e3d6000fd5b505050506040513d601f19601f820116820180604052508101906111569190612356565b9050600460009054906101000a900473ffffffffffffffffffffffffffffffffffffffff1673ffffffffffffffffffffffffffffffffffffffff1663a9059cbb8360400151836040518363ffffffff1660e01b81526004016111b9929190612383565b6020604051808303816000875af11580156111d8573d6000803e3d6000fd5b505050506040513d601f19601f820116820180604052508101906111fc91906123e4565b505061170d565b73ffffffff1fcacbd218edc0eba20fc2308c77808073ffffffffffffffffffffffffffffffffffffffff16816060015173ffffffffffffffffffffffffffffffffffffffff160361147e5773ffffffff1fcacbd218edc0eba20fc2308c77808073ffffffffffffffffffffffffffffffffffffffff166323b872dd8260400151308460e001516040518463ffffffff1660e01b81526004016112a793929190612411565b6020604051808303816000875af11580156112c6573d6000803e3d6000fd5b505050506040513d601f19601f820116820180604052508101906112ea91906123e4565b506000600360009054906101000a900473ffffffffffffffffffffffffffffffffffffffff1673ffffffffffffffffffffffffffffffffffffffff16630ac3789c73ffffffff1fcacbd218edc0eba20fc2308c77808073acc15dc74880c9944775448304b263d191c6077f73931715fee2d06333043d11f658c8ce934ac61d0c8660e001516040518563ffffffff1660e01b815260040161138e9493929190612448565b6020604051808303816000875af11580156113ad573d6000803e3d6000fd5b505050506040513d601f19601f820116820180604052508101906113d19190612356565b9050600460009054906101000a900473ffffffffffffffffffffffffffffffffffffffff1673ffffffffffffffffffffffffffffffffffffffff1663a9059cbb8360400151836040518363ffffffff1660e01b8152600401611434929190612383565b6020604051808303816000875af1158015611453573d6000803e3d6000fd5b505050506040513d601f19601f8201168201806040525081019061147791906123e4565b505061170c565b73ffffffffa893ad19e540e172c10d78d4d479b5cf73ffffffffffffffffffffffffffffffffffffffff16816060015173ffffffffffffffffffffffffffffffffffffffff160361170b5773ffffffffa893ad19e540e172c10d78d4d479b5cf73ffffffffffffffffffffffffffffffffffffffff166323b872dd8260400151308460e001516040518463ffffffff1660e01b815260040161152293929190612411565b6020604051808303816000875af1158015611541573d6000803e3d6000fd5b505050506040513d601f19601f8201168201806040525081019061156591906123e4565b506000600360009054906101000a900473ffffffffffffffffffffffffffffffffffffffff1673ffffffffffffffffffffffffffffffffffffffff166397c3ec9e73ffffffffa893ad19e540e172c10d78d4d479b5cf73ffffffff1fcacbd218edc0eba20fc2308c77808073acc15dc74880c9944775448304b263d191c6077f73931715fee2d06333043d11f658c8ce934ac61d0c8760e001516040518663ffffffff1660e01b815260040161161f95949392919061248d565b6020604051808303816000875af115801561163e573d6000803e3d6000fd5b505050506040513d601f19601f820116820180604052508101906116629190612356565b9050600460009054906101000a900473ffffffffffffffffffffffffffffffffffffffff1673ffffffffffffffffffffffffffffffffffffffff1663a9059cbb8360400151836040518363ffffffff1660e01b81526004016116c5929190612383565b6020604051808303816000875af11580156116e4573d6000803e3d6000fd5b505050506040513d601f19601f8201168201806040525081019061170891906123e4565b50505b5b5b5b61171b8160000151611b80565b5050565b600360009054906101000a900473ffffffffffffffffffffffffffffffffffffffff1681565b80600260006101000a81548173ffffffffffffffffffffffffffffffffffffffff021916908373ffffffffffffffffffffffffffffffffffffffff16021790555080600360006101000a81548173ffffffffffffffffffffffffffffffffffffffff021916908373ffffffffffffffffffffffffffffffffffffffff16021790555050565b6060600680548060200260200160405190810160405280929190818152602001828054801561181857602002820191906000526020600020905b815481526020019060010190808311611804575b5050505050905090565b600460009054906101000a900473ffffffffffffffffffffffffffffffffffffffff1681565b60056020528060005260406000206000915090508060000154908060010154908060020160009054906101000a900473ffffffffffffffffffffffffffffffffffffffff16908060030160009054906101000a900473ffffffffffffffffffffffffffffffffffffffff16908060040160009054906101000a900473ffffffffffffffffffffffffffffffffffffffff169080600501549080600601549080600701549080600801549080600901549080600a015490508b565b73ffffffff1fcacbd218edc0eba20fc2308c77808081565b6006818154811061192a57600080fd5b906000526020600020016000915090505481565b73acc15dc74880c9944775448304b263d191c6077f81565b6000600180600082825461196a919061250f565b9250508190555060068054905090506006600154908060018154018082558091505060019003906000526020600020016000909190919091505560405180610160016040528060015481526020018b81526020018a73ffffffffffffffffffffffffffffffffffffffff1681526020018973ffffffffffffffffffffffffffffffffffffffff1681526020018873ffffffffffffffffffffffffffffffffffffffff16815260200187815260200186815260200185815260200184815260200183815260200182815250600560006001548152602001908152602001600020600082015181600001556020820151816001015560408201518160020160006101000a81548173ffffffffffffffffffffffffffffffffffffffff021916908373ffffffffffffffffffffffffffffffffffffffff16021790555060608201518160030160006101000a81548173ffffffffffffffffffffffffffffffffffffffff021916908373ffffffffffffffffffffffffffffffffffffffff16021790555060808201518160040160006101000a81548173ffffffffffffffffffffffffffffffffffffffff021916908373ffffffffffffffffffffffffffffffffffffffff16021790555060a0820151816005015560c0820151816006015560e082015181600701556101008201518160080155610120820151816009015561014082015181600a015590505050505050505050505050565b6000600560008381526020019081526020016000206040518061016001604052908160008201548152602001600182015481526020016002820160009054906101000a900473ffffffffffffffffffffffffffffffffffffffff1673ffffffffffffffffffffffffffffffffffffffff1673ffffffffffffffffffffffffffffffffffffffff1681526020016003820160009054906101000a900473ffffffffffffffffffffffffffffffffffffffff1673ffffffffffffffffffffffffffffffffffffffff1673ffffffffffffffffffffffffffffffffffffffff1681526020016004820160009054906101000a900473ffffffffffffffffffffffffffffffffffffffff1673ffffffffffffffffffffffffffffffffffffffff1673ffffffffffffffffffffffffffffffffffffffff1681526020016005820154815260200160068201548152602001600782015481526020016008820154815260200160098201548152602001600a8201548152505090506000816101400151905060006001600680549050611d139190612543565b821015611d705760066001600680549050611d2e9190612543565b81548110611d3f57611d3e612577565b5b906000526020600020015490508060068381548110611d6157611d60612577565b5b90600052602060002001819055505b6006805480611d8257611d816125a6565b5b6001900381819060005260206000200160009055905560008114611dbc578160056000838152602001908152602001600020600a01819055505b6005600085815260200190815260200160002060008082016000905560018201600090556002820160006101000a81549073ffffffffffffffffffffffffffffffffffffffff02191690556003820160006101000a81549073ffffffffffffffffffffffffffffffffffffffff02191690556004820160006101000a81549073ffffffffffffffffffffffffffffffffffffffff021916905560058201600090556006820160009055600782016000905560088201600090556009820160009055600a820160009055505050505050565b600260009054906101000a900473ffffffffffffffffffffffffffffffffffffffff1681565b60008054906101000a900473ffffffffffffffffffffffffffffffffffffffff1681565b73931715fee2d06333043d11f658c8ce934ac61d0c81565b6000819050919050565b611f0281611eef565b82525050565b6000602082019050611f1d6000830184611ef9565b92915050565b600073ffffffffffffffffffffffffffffffffffffffff82169050919050565b6000611f4e82611f23565b9050919050565b611f5e81611f43565b82525050565b6000602082019050611f796000830184611f55565b92915050565b600080fd5b611f8d81611eef565b8114611f9857600080fd5b50565b600081359050611faa81611f84565b92915050565b600060208284031215611fc657611fc5611f7f565b5b6000611fd484828501611f9b565b91505092915050565b6000819050919050565b6000612002611ffd611ff884611f23565b611fdd565b611f23565b9050919050565b600061201482611fe7565b9050919050565b600061202682612009565b9050919050565b6120368161201b565b82525050565b6000602082019050612051600083018461202d565b92915050565b61206081611f43565b811461206b57600080fd5b50565b60008135905061207d81612057565b92915050565b60006020828403121561209957612098611f7f565b5b60006120a78482850161206e565b91505092915050565b600081519050919050565b600082825260208201905092915050565b6000819050602082019050919050565b6120e581611eef565b82525050565b60006120f783836120dc565b60208301905092915050565b6000602082019050919050565b600061211b826120b0565b61212581856120bb565b9350612130836120cc565b8060005b8381101561216157815161214888826120eb565b975061215383612103565b925050600181019050612134565b5085935050505092915050565b600060208201905081810360008301526121888184612110565b905092915050565b600061219b82612009565b9050919050565b6121ab81612190565b82525050565b60006020820190506121c660008301846121a2565b92915050565b6000610160820190506121e2600083018e611ef9565b6121ef602083018d611ef9565b6121fc604083018c611f55565b612209606083018b611f55565b612216608083018a611f55565b61222360a0830189611ef9565b61223060c0830188611ef9565b61223d60e0830187611ef9565b61224b610100830186611ef9565b612259610120830185611ef9565b612267610140830184611ef9565b9c9b505050505050505050505050565b60008060008060008060008060006101208a8c03121561229a57612299611f7f565b5b60006122a88c828d01611f9b565b99505060206122b98c828d0161206e565b98505060406122ca8c828d0161206e565b97505060606122db8c828d0161206e565b96505060806122ec8c828d01611f9b565b95505060a06122fd8c828d01611f9b565b94505060c061230e8c828d01611f9b565b93505060e061231f8c828d01611f9b565b9250506101006123318c828d01611f9b565b9150509295985092959850929598565b60008151905061235081611f84565b92915050565b60006020828403121561236c5761236b611f7f565b5b600061237a84828501612341565b91505092915050565b60006040820190506123986000830185611f55565b6123a56020830184611ef9565b9392505050565b60008115159050919050565b6123c1816123ac565b81146123cc57600080fd5b50565b6000815190506123de816123b8565b92915050565b6000602082840312156123fa576123f9611f7f565b5b6000612408848285016123cf565b91505092915050565b60006060820190506124266000830186611f55565b6124336020830185611f55565b6124406040830184611ef9565b949350505050565b600060808201905061245d6000830187611f55565b61246a6020830186611f55565b6124776040830185611f55565b6124846060830184611ef9565b95945050505050565b600060a0820190506124a26000830188611f55565b6124af6020830187611f55565b6124bc6040830186611f55565b6124c96060830185611f55565b6124d66080830184611ef9565b9695505050505050565b7f4e487b7100000000000000000000000000000000000000000000000000000000600052601160045260246000fd5b600061251a82611eef565b915061252583611eef565b925082820190508082111561253d5761253c6124e0565b5b92915050565b600061254e82611eef565b915061255983611eef565b9250828203905081811115612571576125706124e0565b5b92915050565b7f4e487b7100000000000000000000000000000000000000000000000000000000600052603260045260246000fd5b7f4e487b7100000000000000000000000000000000000000000000000000000000600052603160045260246000fdfea2646970667358221220265000a0f38e3668fa39f9c38877830a5316749b6c2235e4b0b822d46df15ef964736f6c63430008120033",
  "linkReferences": {},
  "deployedLinkReferences": {}
}