{
  "_format": "hh-sol-artifact-1",
  "contractName": "ExecutionOrdersEngineFromBinance",
  "sourceName": "contracts/Moonbeam/Moonbeam/ExecutionOrdersEngineFromBinance.sol",
  "abi": [
    {
      "inputs": [
        {
          "internalType": "address",
          "name": "_gateway",
          "type": "address"
        },
        {
          "internalType": "address",
          "name": "_gasReceiver",
          "type": "address"
        }
      ],
      "stateMutability": "nonpayable",
      "type": "constructor"
    },
    {
      "inputs": [],
      "name": "InvalidAddress",
      "type": "error"
    },
    {
      "inputs": [],
      "name": "NotApprovedByGateway",
      "type": "error"
    },
    {
      "inputs": [
        {
          "internalType": "uint256",
          "name": "",
          "type": "uint256"
        }
      ],
      "name": "Orders",
      "outputs": [
        {
          "internalType": "uint256",
          "name": "engine_nonce",
          "type": "uint256"
        },
        {
          "internalType": "uint256",
          "name": "origin_nonce",
          "type": "uint256"
        },
        {
          "internalType": "address",
          "name": "owner",
          "type": "address"
        },
        {
          "internalType": "address",
          "name": "tokenIn",
          "type": "address"
        },
        {
          "internalType": "address",
          "name": "tokenOut",
          "type": "address"
        },
        {
          "internalType": "uint256",
          "name": "limit_price",
          "type": "uint256"
        },
        {
          "internalType": "uint256",
          "name": "stop_price",
          "type": "uint256"
        },
        {
          "internalType": "uint256",
          "name": "size",
          "type": "uint256"
        },
        {
          "internalType": "uint256",
          "name": "block_submitted",
          "type": "uint256"
        },
        {
          "internalType": "uint256",
          "name": "order_type",
          "type": "uint256"
        },
        {
          "internalType": "uint256",
          "name": "positionAr",
          "type": "uint256"
        },
        {
          "internalType": "bool",
          "name": "IsFinanced",
          "type": "bool"
        }
      ],
      "stateMutability": "view",
      "type": "function"
    },
    {
      "inputs": [],
      "name": "USDC_address",
      "outputs": [
        {
          "internalType": "address",
          "name": "",
          "type": "address"
        }
      ],
      "stateMutability": "view",
      "type": "function"
    },
    {
      "inputs": [],
      "name": "WGLMR_address",
      "outputs": [
        {
          "internalType": "address",
          "name": "",
          "type": "address"
        }
      ],
      "stateMutability": "view",
      "type": "function"
    },
    {
      "inputs": [
        {
          "internalType": "uint256",
          "name": "_nonce",
          "type": "uint256"
        },
        {
          "internalType": "address",
          "name": "_owner",
          "type": "address"
        },
        {
          "internalType": "address",
          "name": "tokenIn",
          "type": "address"
        },
        {
          "internalType": "address",
          "name": "tokenOut",
          "type": "address"
        },
        {
          "internalType": "uint256",
          "name": "limit_price",
          "type": "uint256"
        },
        {
          "internalType": "uint256",
          "name": "stop_price",
          "type": "uint256"
        },
        {
          "internalType": "uint256",
          "name": "size",
          "type": "uint256"
        },
        {
          "internalType": "uint256",
          "name": "block_submitted",
          "type": "uint256"
        },
        {
          "internalType": "uint256",
          "name": "order_type",
          "type": "uint256"
        }
      ],
      "name": "addTo_Orders",
      "outputs": [],
      "stateMutability": "nonpayable",
      "type": "function"
    },
    {
      "inputs": [],
      "name": "admin",
      "outputs": [
        {
          "internalType": "address",
          "name": "",
          "type": "address"
        }
      ],
      "stateMutability": "view",
      "type": "function"
    },
    {
      "inputs": [],
      "name": "axlUSDC_address",
      "outputs": [
        {
          "internalType": "address",
          "name": "",
          "type": "address"
        }
      ],
      "stateMutability": "view",
      "type": "function"
    },
    {
      "inputs": [
        {
          "internalType": "uint256",
          "name": "whichArray",
          "type": "uint256"
        },
        {
          "internalType": "uint256",
          "name": "order_nonce",
          "type": "uint256"
        }
      ],
      "name": "delete_Order",
      "outputs": [],
      "stateMutability": "nonpayable",
      "type": "function"
    },
    {
      "inputs": [],
      "name": "delete_Unfinanced_Orders",
      "outputs": [],
      "stateMutability": "nonpayable",
      "type": "function"
    },
    {
      "inputs": [
        {
          "internalType": "uint256",
          "name": "",
          "type": "uint256"
        }
      ],
      "name": "destinationAddresses_ToSend",
      "outputs": [
        {
          "internalType": "address",
          "name": "",
          "type": "address"
        }
      ],
      "stateMutability": "view",
      "type": "function"
    },
    {
      "inputs": [
        {
          "internalType": "uint256",
          "name": "",
          "type": "uint256"
        }
      ],
      "name": "destinationAmounts_ToSend",
      "outputs": [
        {
          "internalType": "uint256",
          "name": "",
          "type": "uint256"
        }
      ],
      "stateMutability": "view",
      "type": "function"
    },
    {
      "inputs": [],
      "name": "dex",
      "outputs": [
        {
          "internalType": "contract IStellaSwap",
          "name": "",
          "type": "address"
        }
      ],
      "stateMutability": "view",
      "type": "function"
    },
    {
      "inputs": [],
      "name": "engine_nonce",
      "outputs": [
        {
          "internalType": "uint256",
          "name": "",
          "type": "uint256"
        }
      ],
      "stateMutability": "view",
      "type": "function"
    },
    {
      "inputs": [
        {
          "internalType": "bytes32",
          "name": "commandId",
          "type": "bytes32"
        },
        {
          "internalType": "string",
          "name": "sourceChain",
          "type": "string"
        },
        {
          "internalType": "string",
          "name": "sourceAddress",
          "type": "string"
        },
        {
          "internalType": "bytes",
          "name": "payload",
          "type": "bytes"
        }
      ],
      "name": "execute",
      "outputs": [],
      "stateMutability": "nonpayable",
      "type": "function"
    },
    {
      "inputs": [
        {
          "internalType": "uint256",
          "name": "orderNonce",
          "type": "uint256"
        }
      ],
      "name": "executeOrder_Moonbeam_BuyWithUSDC",
      "outputs": [],
      "stateMutability": "nonpayable",
      "type": "function"
    },
    {
      "inputs": [
        {
          "internalType": "uint256",
          "name": "orderNonce",
          "type": "uint256"
        }
      ],
      "name": "executeOrder_Moonbeam_NONUSDC",
      "outputs": [],
      "stateMutability": "payable",
      "type": "function"
    },
    {
      "inputs": [
        {
          "internalType": "bytes32",
          "name": "commandId",
          "type": "bytes32"
        },
        {
          "internalType": "string",
          "name": "sourceChain",
          "type": "string"
        },
        {
          "internalType": "string",
          "name": "sourceAddress",
          "type": "string"
        },
        {
          "internalType": "bytes",
          "name": "payload",
          "type": "bytes"
        },
        {
          "internalType": "string",
          "name": "tokenSymbol",
          "type": "string"
        },
        {
          "internalType": "uint256",
          "name": "amount",
          "type": "uint256"
        }
      ],
      "name": "executeWithToken",
      "outputs": [],
      "stateMutability": "nonpayable",
      "type": "function"
    },
    {
      "inputs": [],
      "name": "gasService",
      "outputs": [
        {
          "internalType": "contract IAxelarGasService",
          "name": "",
          "type": "address"
        }
      ],
      "stateMutability": "view",
      "type": "function"
    },
    {
      "inputs": [],
      "name": "gateway",
      "outputs": [
        {
          "internalType": "contract IAxelarGateway",
          "name": "",
          "type": "address"
        }
      ],
      "stateMutability": "view",
      "type": "function"
    },
    {
      "inputs": [],
      "name": "getOurTokensOut",
      "outputs": [],
      "stateMutability": "nonpayable",
      "type": "function"
    },
    {
      "inputs": [],
      "name": "get_pendingFinancedOrders_FromBINANCE_USDC",
      "outputs": [
        {
          "internalType": "uint256[]",
          "name": "",
          "type": "uint256[]"
        }
      ],
      "stateMutability": "view",
      "type": "function"
    },
    {
      "inputs": [],
      "name": "get_pendingOrders_FromBINANCE_NON_USDC",
      "outputs": [
        {
          "internalType": "uint256[]",
          "name": "",
          "type": "uint256[]"
        }
      ],
      "stateMutability": "view",
      "type": "function"
    },
    {
      "inputs": [],
      "name": "get_pendingOrders_FromBINANCE_USDC",
      "outputs": [
        {
          "internalType": "uint256[]",
          "name": "",
          "type": "uint256[]"
        }
      ],
      "stateMutability": "view",
      "type": "function"
    },
    {
      "inputs": [],
      "name": "get_unfinancedOrderNoncesToDelete",
      "outputs": [
        {
          "internalType": "uint256[]",
          "name": "",
          "type": "uint256[]"
        }
      ],
      "stateMutability": "view",
      "type": "function"
    },
    {
      "inputs": [
        {
          "internalType": "uint256",
          "name": "",
          "type": "uint256"
        }
      ],
      "name": "orderNonces_ToSend",
      "outputs": [
        {
          "internalType": "uint256",
          "name": "",
          "type": "uint256"
        }
      ],
      "stateMutability": "view",
      "type": "function"
    },
    {
      "inputs": [
        {
          "internalType": "uint256",
          "name": "",
          "type": "uint256"
        }
      ],
      "name": "pendingFinancedOrders_FromBINANCE_USDC",
      "outputs": [
        {
          "internalType": "uint256",
          "name": "",
          "type": "uint256"
        }
      ],
      "stateMutability": "view",
      "type": "function"
    },
    {
      "inputs": [
        {
          "internalType": "uint256",
          "name": "",
          "type": "uint256"
        }
      ],
      "name": "pendingOrders_FromBINANCE_NON_USDC",
      "outputs": [
        {
          "internalType": "uint256",
          "name": "",
          "type": "uint256"
        }
      ],
      "stateMutability": "view",
      "type": "function"
    },
    {
      "inputs": [
        {
          "internalType": "uint256",
          "name": "",
          "type": "uint256"
        }
      ],
      "name": "pendingOrders_FromBINANCE_USDC",
      "outputs": [
        {
          "internalType": "uint256",
          "name": "",
          "type": "uint256"
        }
      ],
      "stateMutability": "view",
      "type": "function"
    },
    {
      "inputs": [],
      "name": "requestPendingOrdersFinancing",
      "outputs": [],
      "stateMutability": "payable",
      "type": "function"
    },
    {
      "inputs": [],
      "name": "satelite_BinanceAddress",
      "outputs": [
        {
          "internalType": "string",
          "name": "",
          "type": "string"
        }
      ],
      "stateMutability": "view",
      "type": "function"
    },
    {
      "inputs": [
        {
          "internalType": "uint256",
          "name": "messageCode",
          "type": "uint256"
        },
        {
          "internalType": "string",
          "name": "destinationChain",
          "type": "string"
        },
        {
          "internalType": "string",
          "name": "destinationAddress",
          "type": "string"
        },
        {
          "internalType": "uint256[]",
          "name": "_orderNonces",
          "type": "uint256[]"
        },
        {
          "internalType": "address[]",
          "name": "_destinationAddresses",
          "type": "address[]"
        },
        {
          "internalType": "uint256[]",
          "name": "_destinationAmounts",
          "type": "uint256[]"
        }
      ],
      "name": "sendMessage",
      "outputs": [],
      "stateMutability": "payable",
      "type": "function"
    },
    {
      "inputs": [
        {
          "internalType": "string",
          "name": "destinationChain",
          "type": "string"
        },
        {
          "internalType": "string",
          "name": "destinationAddress",
          "type": "string"
        },
        {
          "internalType": "uint256",
          "name": "_messageCode",
          "type": "uint256"
        },
        {
          "internalType": "address",
          "name": "_ownerAddress",
          "type": "address"
        },
        {
          "internalType": "uint256",
          "name": "_ownerAmount",
          "type": "uint256"
        },
        {
          "internalType": "string",
          "name": "_symbol",
          "type": "string"
        },
        {
          "internalType": "uint256",
          "name": "amount",
          "type": "uint256"
        }
      ],
      "name": "sendToMany",
      "outputs": [],
      "stateMutability": "payable",
      "type": "function"
    },
    {
      "inputs": [
        {
          "internalType": "address",
          "name": "_satelite_BinanceAddress",
          "type": "address"
        }
      ],
      "name": "set_BinanceSatelite",
      "outputs": [],
      "stateMutability": "nonpayable",
      "type": "function"
    },
    {
      "inputs": [
        {
          "internalType": "address",
          "name": "_stellaSwapAddress",
          "type": "address"
        }
      ],
      "name": "set_StellaSwap",
      "outputs": [],
      "stateMutability": "nonpayable",
      "type": "function"
    },
    {
      "inputs": [],
      "name": "stellaSwapAddress",
      "outputs": [
        {
          "internalType": "address",
          "name": "",
          "type": "address"
        }
      ],
      "stateMutability": "view",
      "type": "function"
    },
    {
      "inputs": [
        {
          "internalType": "uint256",
          "name": "",
          "type": "uint256"
        }
      ],
      "name": "unfinancedOrderNoncesToDelete",
      "outputs": [
        {
          "internalType": "uint256",
          "name": "",
          "type": "uint256"
        }
      ],
      "stateMutability": "view",
      "type": "function"
    },
    {
      "inputs": [
        {
          "internalType": "address",
          "name": "",
          "type": "address"
        },
        {
          "internalType": "address",
          "name": "",
          "type": "address"
        }
      ],
      "name": "userBalance",
      "outputs": [
        {
          "internalType": "uint256",
          "name": "",
          "type": "uint256"
        }
      ],
      "stateMutability": "view",
      "type": "function"
    },
    {
      "inputs": [],
      "name": "xcASTR_address",
      "outputs": [
        {
          "internalType": "address",
          "name": "",
          "type": "address"
        }
      ],
      "stateMutability": "view",
      "type": "function"
    },
    {
      "inputs": [],
      "name": "xcDOT_address",
      "outputs": [
        {
          "internalType": "address",
          "name": "",
          "type": "address"
        }
      ],
      "stateMutability": "view",
      "type": "function"
    }
  ],
  "bytecode": "0x60c060405260006002553480156200001657600080fd5b506040516200618f3803806200618f83398181016040528101906200003c9190620001c0565b81600073ffffffffffffffffffffffffffffffffffffffff168173ffffffffffffffffffffffffffffffffffffffff1603620000a4576040517fe6c4247b00000000000000000000000000000000000000000000000000000000815260040160405180910390fd5b8073ffffffffffffffffffffffffffffffffffffffff1660808173ffffffffffffffffffffffffffffffffffffffff16815250505033600160006101000a81548173ffffffffffffffffffffffffffffffffffffffff021916908373ffffffffffffffffffffffffffffffffffffffff1602179055508073ffffffffffffffffffffffffffffffffffffffff1660a08173ffffffffffffffffffffffffffffffffffffffff1681525050505062000207565b600080fd5b600073ffffffffffffffffffffffffffffffffffffffff82169050919050565b600062000188826200015b565b9050919050565b6200019a816200017b565b8114620001a657600080fd5b50565b600081519050620001ba816200018f565b92915050565b60008060408385031215620001da57620001d962000156565b5b6000620001ea85828601620001a9565b9250506020620001fd85828601620001a9565b9150509250929050565b60805160a051615f2a620002656000396000818161162901528181612bd20152612dcc015260008181610939015281816113bb015281816114bd01528181611575015281816116c201528181612a360152612e610152615f2a6000f3fe6080604052600436106102255760003560e01c80636bd0dc6611610123578063bdc4c6bd116100ab578063ee05b1921161006f578063ee05b192146107ce578063f1e8d1e7146107f7578063f851a44014610822578063f9abd26c1461084d578063ff4caad81461087857610225565b8063bdc4c6bd1461071c578063c8bb4de014610726578063cc2db7ce1461074f578063d3141f991461077a578063d6905c8e146107a557610225565b80639289f452116100f25780639289f45214610621578063944dd7691461065e57806398bf0ffb14610689578063a011d2b3146106b4578063bacc84aa146106df57610225565b80636bd0dc66146105695780638bd5f5af146105925780638ed17858146105bd5780638fb326f2146105d957610225565b806326a291a2116101b15780634916065811610175578063491606581461049657806362a4b0a9146104bf57806365758ce8146104fc578063692058c2146105135780636a22d8cc1461053e57610225565b806326a291a2146103af5780632b3975ac146103da5780633d8765c2146104175780633f8e8c271461042e57806348952d081461045957610225565b806313c92bcd116101f857806313c92bcd146102e857806315a6b041146103115780631a98b2e01461034e5780631ecd1e8a1461037757806325aef8f01461039357610225565b806306387c581461022a57806306c96e8c146102555780630ae3851814610280578063116191b6146102bd575b600080fd5b34801561023657600080fd5b5061023f6108b5565b60405161024c9190614458565b60405180910390f35b34801561026157600080fd5b5061026a61090d565b6040516102779190614489565b60405180910390f35b34801561028c57600080fd5b506102a760048036038101906102a291906144e4565b610913565b6040516102b49190614489565b60405180910390f35b3480156102c957600080fd5b506102d2610937565b6040516102df9190614590565b60405180910390f35b3480156102f457600080fd5b5061030f600480360381019061030a91906144e4565b61095b565b005b34801561031d57600080fd5b50610338600480360381019061033391906144e4565b611379565b6040516103459190614489565b60405180910390f35b34801561035a57600080fd5b506103756004803603810190610370919061469c565b61139d565b005b610391600480360381019061038c919061492b565b6114b9565b005b6103ad60048036038101906103a891906144e4565b61175e565b005b3480156103bb57600080fd5b506103c46125e3565b6040516103d19190614458565b60405180910390f35b3480156103e657600080fd5b5061040160048036038101906103fc91906144e4565b61263b565b60405161040e9190614489565b60405180910390f35b34801561042357600080fd5b5061042c61265f565b005b34801561043a57600080fd5b506104436129c1565b6040516104509190614a30565b60405180910390f35b34801561046557600080fd5b50610480600480360381019061047b91906144e4565b6129d9565b60405161048d9190614a30565b60405180910390f35b3480156104a257600080fd5b506104bd60048036038101906104b89190614a4b565b612a18565b005b3480156104cb57600080fd5b506104e660048036038101906104e19190614b14565b612b28565b6040516104f39190614489565b60405180910390f35b34801561050857600080fd5b50610511612b4d565b005b34801561051f57600080fd5b50610528612baa565b6040516105359190614b75565b60405180910390f35b34801561054a57600080fd5b50610553612bd0565b6040516105609190614bb1565b60405180910390f35b34801561057557600080fd5b50610590600480360381019061058b9190614bcc565b612bf4565b005b34801561059e57600080fd5b506105a7612d09565b6040516105b49190614c78565b60405180910390f35b6105d760048036038101906105d29190614e20565b612d97565b005b3480156105e557600080fd5b5061060060048036038101906105fb91906144e4565b612ef7565b6040516106189c9b9a99989796959493929190614f54565b60405180910390f35b34801561062d57600080fd5b50610648600480360381019061064391906144e4565b612fc4565b6040516106559190614489565b60405180910390f35b34801561066a57600080fd5b50610673612fe8565b6040516106809190614458565b60405180910390f35b34801561069557600080fd5b5061069e613040565b6040516106ab9190614a30565b60405180910390f35b3480156106c057600080fd5b506106c9613058565b6040516106d69190614458565b60405180910390f35b3480156106eb57600080fd5b50610706600480360381019061070191906144e4565b6130b0565b6040516107139190614489565b60405180910390f35b6107246130d4565b005b34801561073257600080fd5b5061074d60048036038101906107489190614bcc565b6135f6565b005b34801561075b57600080fd5b506107646136b7565b6040516107719190614a30565b60405180910390f35b34801561078657600080fd5b5061078f6136cf565b60405161079c9190614a30565b60405180910390f35b3480156107b157600080fd5b506107cc60048036038101906107c7919061500e565b6136e7565b005b3480156107da57600080fd5b506107f560048036038101906107f091906150d8565b6139c6565b005b34801561080357600080fd5b5061080c613e56565b6040516108199190614a30565b60405180910390f35b34801561082e57600080fd5b50610837613e7c565b6040516108449190614a30565b60405180910390f35b34801561085957600080fd5b50610862613ea2565b60405161086f9190614a30565b60405180910390f35b34801561088457600080fd5b5061089f600480360381019061089a91906144e4565b613eba565b6040516108ac9190614489565b60405180910390f35b6060600880548060200260200160405190810160405280929190818152602001828054801561090357602002820191906000526020600020905b8154815260200190600101908083116108ef575b5050505050905090565b60025481565b6006818154811061092357600080fd5b906000526020600020016000915090505481565b7f000000000000000000000000000000000000000000000000000000000000000081565b6000600560008381526020019081526020016000206040518061018001604052908160008201548152602001600182015481526020016002820160009054906101000a900473ffffffffffffffffffffffffffffffffffffffff1673ffffffffffffffffffffffffffffffffffffffff1673ffffffffffffffffffffffffffffffffffffffff1681526020016003820160009054906101000a900473ffffffffffffffffffffffffffffffffffffffff1673ffffffffffffffffffffffffffffffffffffffff1673ffffffffffffffffffffffffffffffffffffffff1681526020016004820160009054906101000a900473ffffffffffffffffffffffffffffffffffffffff1673ffffffffffffffffffffffffffffffffffffffff1673ffffffffffffffffffffffffffffffffffffffff1681526020016005820154815260200160068201548152602001600782015481526020016008820154815260200160098201548152602001600a8201548152602001600b820160009054906101000a900460ff161515151581525050905073931715fee2d06333043d11f658c8ce934ac61d0c73ffffffffffffffffffffffffffffffffffffffff16816060015173ffffffffffffffffffffffffffffffffffffffff1614610b71576040517f08c379a0000000000000000000000000000000000000000000000000000000008152600401610b689061518a565b60405180910390fd5b806101600151156113755760008160e0015111156113695773ca01a1d0993565291051daff390892518acfad3a73ffffffffffffffffffffffffffffffffffffffff1663095ea7b3600360009054906101000a900473ffffffffffffffffffffffffffffffffffffffff168360e001516040518363ffffffff1660e01b8152600401610bfe9291906151aa565b6020604051808303816000875af1158015610c1d573d6000803e3d6000fd5b505050506040513d601f19601f82011682018060405250810190610c4191906151ff565b506000600460009054906101000a900473ffffffffffffffffffffffffffffffffffffffff1673ffffffffffffffffffffffffffffffffffffffff16633c71066073ca01a1d0993565291051daff390892518acfad3a73931715fee2d06333043d11f658c8ce934ac61d0c8560e001516040518463ffffffff1660e01b8152600401610ccf9392919061522c565b6020604051808303816000875af1158015610cee573d6000803e3d6000fd5b505050506040513d601f19601f82011682018060405250810190610d129190615278565b905073931715fee2d06333043d11f658c8ce934ac61d0c73ffffffffffffffffffffffffffffffffffffffff1663095ea7b3600360009054906101000a900473ffffffffffffffffffffffffffffffffffffffff16836040518363ffffffff1660e01b8152600401610d859291906151aa565b6020604051808303816000875af1158015610da4573d6000803e3d6000fd5b505050506040513d601f19601f82011682018060405250810190610dc891906151ff565b5073acc15dc74880c9944775448304b263d191c6077f73ffffffffffffffffffffffffffffffffffffffff16826080015173ffffffffffffffffffffffffffffffffffffffff1603610f93576000600460009054906101000a900473ffffffffffffffffffffffffffffffffffffffff1673ffffffffffffffffffffffffffffffffffffffff1663ceb9201273931715fee2d06333043d11f658c8ce934ac61d0c73acc15dc74880c9944775448304b263d191c6077f856040518463ffffffff1660e01b8152600401610e9d9392919061522c565b6020604051808303816000875af1158015610ebc573d6000803e3d6000fd5b505050506040513d601f19601f82011682018060405250810190610ee09190615278565b905080600d6000856040015173ffffffffffffffffffffffffffffffffffffffff1673ffffffffffffffffffffffffffffffffffffffff168152602001908152602001600020600073acc15dc74880c9944775448304b263d191c6077f73ffffffffffffffffffffffffffffffffffffffff1673ffffffffffffffffffffffffffffffffffffffff1681526020019081526020016000206000828254610f8691906152d4565b9250508190555050611367565b73ffffffff1fcacbd218edc0eba20fc2308c77808073ffffffffffffffffffffffffffffffffffffffff16826080015173ffffffffffffffffffffffffffffffffffffffff1603611173576000600460009054906101000a900473ffffffffffffffffffffffffffffffffffffffff1673ffffffffffffffffffffffffffffffffffffffff16630ac3789c73931715fee2d06333043d11f658c8ce934ac61d0c73acc15dc74880c9944775448304b263d191c6077f73ffffffff1fcacbd218edc0eba20fc2308c778080866040518563ffffffff1660e01b815260040161107d9493929190615308565b6020604051808303816000875af115801561109c573d6000803e3d6000fd5b505050506040513d601f19601f820116820180604052508101906110c09190615278565b905080600d6000856040015173ffffffffffffffffffffffffffffffffffffffff1673ffffffffffffffffffffffffffffffffffffffff168152602001908152602001600020600073ffffffff1fcacbd218edc0eba20fc2308c77808073ffffffffffffffffffffffffffffffffffffffff1673ffffffffffffffffffffffffffffffffffffffff168152602001908152602001600020600082825461116691906152d4565b9250508190555050611366565b73ffffffffa893ad19e540e172c10d78d4d479b5cf73ffffffffffffffffffffffffffffffffffffffff16826080015173ffffffffffffffffffffffffffffffffffffffff1603611365576000600460009054906101000a900473ffffffffffffffffffffffffffffffffffffffff1673ffffffffffffffffffffffffffffffffffffffff166397c3ec9e73931715fee2d06333043d11f658c8ce934ac61d0c73acc15dc74880c9944775448304b263d191c6077f73ffffffff1fcacbd218edc0eba20fc2308c77808073ffffffffa893ad19e540e172c10d78d4d479b5cf876040518663ffffffff1660e01b815260040161127395949392919061534d565b6020604051808303816000875af1158015611292573d6000803e3d6000fd5b505050506040513d601f19601f820116820180604052508101906112b69190615278565b905080600d6000856040015173ffffffffffffffffffffffffffffffffffffffff1673ffffffffffffffffffffffffffffffffffffffff168152602001908152602001600020600073ffffffffa893ad19e540e172c10d78d4d479b5cf73ffffffffffffffffffffffffffffffffffffffff1673ffffffffffffffffffffffffffffffffffffffff168152602001908152602001600020600082825461135c91906152d4565b92505081905550505b5b5b505b6113746001836139c6565b5b5050565b6008818154811061138957600080fd5b906000526020600020016000915090505481565b600085856040516113af9291906153d0565b604051809103902090507f000000000000000000000000000000000000000000000000000000000000000073ffffffffffffffffffffffffffffffffffffffff16631876eed98c8c8c8c8c878b8b8b6040518a63ffffffff1660e01b815260040161142299989796959493929190615425565b6020604051808303816000875af1158015611441573d6000803e3d6000fd5b505050506040513d601f19601f8201168201806040525081019061146591906151ff565b61149b576040517f500c44b400000000000000000000000000000000000000000000000000000000815260040160405180910390fd5b6114ac8a8a8a8a8a8a8a8a8a613ede565b5050505050505050505050565b60007f000000000000000000000000000000000000000000000000000000000000000073ffffffffffffffffffffffffffffffffffffffff1663935b13f6846040518263ffffffff1660e01b81526004016115149190614c78565b602060405180830381865afa158015611531573d6000803e3d6000fd5b505050506040513d601f19601f8201168201806040525081019061155591906154b6565b90508073ffffffffffffffffffffffffffffffffffffffff1663095ea7b37f0000000000000000000000000000000000000000000000000000000000000000846040518363ffffffff1660e01b81526004016115b29291906151aa565b6020604051808303816000875af11580156115d1573d6000803e3d6000fd5b505050506040513d601f19601f820116820180604052508101906115f591906151ff565b50600086868660405160200161160d939291906154e3565b604051602081830303815290604052905060003411156116c0577f000000000000000000000000000000000000000000000000000000000000000073ffffffffffffffffffffffffffffffffffffffff1663c62c200234308c8c868a8a336040518963ffffffff1660e01b815260040161168d979695949392919061556f565b6000604051808303818588803b1580156116a657600080fd5b505af11580156116ba573d6000803e3d6000fd5b50505050505b7f000000000000000000000000000000000000000000000000000000000000000073ffffffffffffffffffffffffffffffffffffffff1663b54170848a8a8488886040518663ffffffff1660e01b81526004016117219594939291906155fa565b600060405180830381600087803b15801561173b57600080fd5b505af115801561174f573d6000803e3d6000fd5b50505050505050505050505050565b6000600560008381526020019081526020016000206040518061018001604052908160008201548152602001600182015481526020016002820160009054906101000a900473ffffffffffffffffffffffffffffffffffffffff1673ffffffffffffffffffffffffffffffffffffffff1673ffffffffffffffffffffffffffffffffffffffff1681526020016003820160009054906101000a900473ffffffffffffffffffffffffffffffffffffffff1673ffffffffffffffffffffffffffffffffffffffff1673ffffffffffffffffffffffffffffffffffffffff1681526020016004820160009054906101000a900473ffffffffffffffffffffffffffffffffffffffff1673ffffffffffffffffffffffffffffffffffffffff1673ffffffffffffffffffffffffffffffffffffffff1681526020016005820154815260200160068201548152602001600782015481526020016008820154815260200160098201548152602001600a8201548152602001600b820160009054906101000a900460ff161515151581525050905073931715fee2d06333043d11f658c8ce934ac61d0c73ffffffffffffffffffffffffffffffffffffffff16816060015173ffffffffffffffffffffffffffffffffffffffff1603611974576040517f08c379a000000000000000000000000000000000000000000000000000000000815260040161196b906156db565b60405180910390fd5b600073acc15dc74880c9944775448304b263d191c6077f73ffffffffffffffffffffffffffffffffffffffff16826060015173ffffffffffffffffffffffffffffffffffffffff16148015611a6157508160e00151600d6000846040015173ffffffffffffffffffffffffffffffffffffffff1673ffffffffffffffffffffffffffffffffffffffff168152602001908152602001600020600073acc15dc74880c9944775448304b263d191c6077f73ffffffffffffffffffffffffffffffffffffffff1673ffffffffffffffffffffffffffffffffffffffff1681526020019081526020016000205410155b15611ca3578160e00151600d6000846040015173ffffffffffffffffffffffffffffffffffffffff1673ffffffffffffffffffffffffffffffffffffffff168152602001908152602001600020600073acc15dc74880c9944775448304b263d191c6077f73ffffffffffffffffffffffffffffffffffffffff1673ffffffffffffffffffffffffffffffffffffffff1681526020019081526020016000206000828254611b0e91906156fb565b9250508190555073acc15dc74880c9944775448304b263d191c6077f73ffffffffffffffffffffffffffffffffffffffff1663095ea7b3600360009054906101000a900473ffffffffffffffffffffffffffffffffffffffff168460e001516040518363ffffffff1660e01b8152600401611b8a9291906151aa565b6020604051808303816000875af1158015611ba9573d6000803e3d6000fd5b505050506040513d601f19601f82011682018060405250810190611bcd91906151ff565b50600460009054906101000a900473ffffffffffffffffffffffffffffffffffffffff1673ffffffffffffffffffffffffffffffffffffffff1663ceb9201273acc15dc74880c9944775448304b263d191c6077f73931715fee2d06333043d11f658c8ce934ac61d0c8560e001516040518463ffffffff1660e01b8152600401611c599392919061522c565b6020604051808303816000875af1158015611c78573d6000803e3d6000fd5b505050506040513d601f19601f82011682018060405250810190611c9c9190615278565b905061233d565b73ffffffff1fcacbd218edc0eba20fc2308c77808073ffffffffffffffffffffffffffffffffffffffff16826060015173ffffffffffffffffffffffffffffffffffffffff16148015611d8e57508160e00151600d6000846040015173ffffffffffffffffffffffffffffffffffffffff1673ffffffffffffffffffffffffffffffffffffffff168152602001908152602001600020600073ffffffff1fcacbd218edc0eba20fc2308c77808073ffffffffffffffffffffffffffffffffffffffff1673ffffffffffffffffffffffffffffffffffffffff1681526020019081526020016000205410155b15611fe6578160e00151600d6000846040015173ffffffffffffffffffffffffffffffffffffffff1673ffffffffffffffffffffffffffffffffffffffff168152602001908152602001600020600073ffffffff1fcacbd218edc0eba20fc2308c77808073ffffffffffffffffffffffffffffffffffffffff1673ffffffffffffffffffffffffffffffffffffffff1681526020019081526020016000206000828254611e3b91906156fb565b9250508190555073ffffffff1fcacbd218edc0eba20fc2308c77808073ffffffffffffffffffffffffffffffffffffffff1663095ea7b3600360009054906101000a900473ffffffffffffffffffffffffffffffffffffffff168460e001516040518363ffffffff1660e01b8152600401611eb79291906151aa565b6020604051808303816000875af1158015611ed6573d6000803e3d6000fd5b505050506040513d601f19601f82011682018060405250810190611efa91906151ff565b50600460009054906101000a900473ffffffffffffffffffffffffffffffffffffffff1673ffffffffffffffffffffffffffffffffffffffff16630ac3789c73ffffffff1fcacbd218edc0eba20fc2308c77808073acc15dc74880c9944775448304b263d191c6077f73931715fee2d06333043d11f658c8ce934ac61d0c8660e001516040518563ffffffff1660e01b8152600401611f9c9493929190615308565b6020604051808303816000875af1158015611fbb573d6000803e3d6000fd5b505050506040513d601f19601f82011682018060405250810190611fdf9190615278565b905061233c565b73ffffffffa893ad19e540e172c10d78d4d479b5cf73ffffffffffffffffffffffffffffffffffffffff16826060015173ffffffffffffffffffffffffffffffffffffffff161480156120d157508160e00151600d6000846040015173ffffffffffffffffffffffffffffffffffffffff1673ffffffffffffffffffffffffffffffffffffffff168152602001908152602001600020600073ffffffffa893ad19e540e172c10d78d4d479b5cf73ffffffffffffffffffffffffffffffffffffffff1673ffffffffffffffffffffffffffffffffffffffff1681526020019081526020016000205410155b1561233b578160e00151600d6000846040015173ffffffffffffffffffffffffffffffffffffffff1673ffffffffffffffffffffffffffffffffffffffff168152602001908152602001600020600073ffffffffa893ad19e540e172c10d78d4d479b5cf73ffffffffffffffffffffffffffffffffffffffff1673ffffffffffffffffffffffffffffffffffffffff168152602001908152602001600020600082825461217e91906156fb565b9250508190555073ffffffffa893ad19e540e172c10d78d4d479b5cf73ffffffffffffffffffffffffffffffffffffffff1663095ea7b3600360009054906101000a900473ffffffffffffffffffffffffffffffffffffffff168460e001516040518363ffffffff1660e01b81526004016121fa9291906151aa565b6020604051808303816000875af1158015612219573d6000803e3d6000fd5b505050506040513d601f19601f8201168201806040525081019061223d91906151ff565b50600460009054906101000a900473ffffffffffffffffffffffffffffffffffffffff1673ffffffffffffffffffffffffffffffffffffffff166397c3ec9e73ffffffffa893ad19e540e172c10d78d4d479b5cf73ffffffff1fcacbd218edc0eba20fc2308c77808073acc15dc74880c9944775448304b263d191c6077f73931715fee2d06333043d11f658c8ce934ac61d0c8760e001516040518663ffffffff1660e01b81526004016122f595949392919061534d565b6020604051808303816000875af1158015612314573d6000803e3d6000fd5b505050506040513d601f19601f820116820180604052508101906123389190615278565b90505b5b5b60008111156125d35773931715fee2d06333043d11f658c8ce934ac61d0c73ffffffffffffffffffffffffffffffffffffffff1663095ea7b3600360009054906101000a900473ffffffffffffffffffffffffffffffffffffffff16836040518363ffffffff1660e01b81526004016123b79291906151aa565b6020604051808303816000875af11580156123d6573d6000803e3d6000fd5b505050506040513d601f19601f820116820180604052508101906123fa91906151ff565b506000600460009054906101000a900473ffffffffffffffffffffffffffffffffffffffff1673ffffffffffffffffffffffffffffffffffffffff16633c71066073931715fee2d06333043d11f658c8ce934ac61d0c73ca01a1d0993565291051daff390892518acfad3a856040518463ffffffff1660e01b81526004016124849392919061522c565b6020604051808303816000875af11580156124a3573d6000803e3d6000fd5b505050506040513d601f19601f820116820180604052508101906124c79190615278565b90506125d16040518060400160405280600781526020017f42696e616e6365000000000000000000000000000000000000000000000000008152506000805461250f9061575e565b80601f016020809104026020016040519081016040528092919081815260200182805461253b9061575e565b80156125885780601f1061255d57610100808354040283529160200191612588565b820191906000526020600020905b81548152906001019060200180831161256b57829003601f168201915b505050505060058660400151856040518060400160405280600781526020017f61786c5553444300000000000000000000000000000000000000000000000000815250876114b9565b505b6125de6002846139c6565b505050565b6060600680548060200260200160405190810160405280929190818152602001828054801561263157602002820191906000526020600020905b81548152602001906001019080831161261d575b5050505050905090565b600b818154811061264b57600080fd5b906000526020600020016000915090505481565b73ca01a1d0993565291051daff390892518acfad3a73ffffffffffffffffffffffffffffffffffffffff1663a9059cbb3373ca01a1d0993565291051daff390892518acfad3a73ffffffffffffffffffffffffffffffffffffffff166370a08231306040518263ffffffff1660e01b81526004016126dd9190614a30565b602060405180830381865afa1580156126fa573d6000803e3d6000fd5b505050506040513d601f19601f8201168201806040525081019061271e9190615278565b6040518363ffffffff1660e01b815260040161273b9291906151aa565b6020604051808303816000875af115801561275a573d6000803e3d6000fd5b505050506040513d601f19601f8201168201806040525081019061277e91906151ff565b5073ffffffff1fcacbd218edc0eba20fc2308c77808073ffffffffffffffffffffffffffffffffffffffff1663a9059cbb3373ffffffff1fcacbd218edc0eba20fc2308c77808073ffffffffffffffffffffffffffffffffffffffff166370a08231306040518263ffffffff1660e01b81526004016127fd9190614a30565b602060405180830381865afa15801561281a573d6000803e3d6000fd5b505050506040513d601f19601f8201168201806040525081019061283e9190615278565b6040518363ffffffff1660e01b815260040161285b9291906151aa565b6020604051808303816000875af115801561287a573d6000803e3d6000fd5b505050506040513d601f19601f8201168201806040525081019061289e91906151ff565b5073acc15dc74880c9944775448304b263d191c6077f73ffffffffffffffffffffffffffffffffffffffff1663a9059cbb3373acc15dc74880c9944775448304b263d191c6077f73ffffffffffffffffffffffffffffffffffffffff166370a08231306040518263ffffffff1660e01b815260040161291d9190614a30565b602060405180830381865afa15801561293a573d6000803e3d6000fd5b505050506040513d601f19601f8201168201806040525081019061295e9190615278565b6040518363ffffffff1660e01b815260040161297b9291906151aa565b6020604051808303816000875af115801561299a573d6000803e3d6000fd5b505050506040513d601f19601f820116820180604052508101906129be91906151ff565b50565b73ffffffffa893ad19e540e172c10d78d4d479b5cf81565b600a81815481106129e957600080fd5b906000526020600020016000915054906101000a900473ffffffffffffffffffffffffffffffffffffffff1681565b60008282604051612a2a9291906153d0565b604051809103902090507f000000000000000000000000000000000000000000000000000000000000000073ffffffffffffffffffffffffffffffffffffffff16635f6970c38989898989876040518763ffffffff1660e01b8152600401612a979695949392919061578f565b6020604051808303816000875af1158015612ab6573d6000803e3d6000fd5b505050506040513d601f19601f82011682018060405250810190612ada91906151ff565b612b10576040517f500c44b400000000000000000000000000000000000000000000000000000000815260040160405180910390fd5b612b1e878787878787613f82565b5050505050505050565b600d602052816000526040600020602052806000526040600020600091509150505481565b60005b600c80549050811015612b9957612b866001600c8381548110612b7657612b756157e6565b5b90600052602060002001546139c6565b8080612b9190615815565b915050612b50565b50600c6000612ba89190614331565b565b600460009054906101000a900473ffffffffffffffffffffffffffffffffffffffff1681565b7f000000000000000000000000000000000000000000000000000000000000000081565b600160009054906101000a900473ffffffffffffffffffffffffffffffffffffffff1673ffffffffffffffffffffffffffffffffffffffff163373ffffffffffffffffffffffffffffffffffffffff1614612c84576040517f08c379a0000000000000000000000000000000000000000000000000000000008152600401612c7b906158a9565b60405180910390fd5b80600360006101000a81548173ffffffffffffffffffffffffffffffffffffffff021916908373ffffffffffffffffffffffffffffffffffffffff16021790555080600460006101000a81548173ffffffffffffffffffffffffffffffffffffffff021916908373ffffffffffffffffffffffffffffffffffffffff16021790555050565b60008054612d169061575e565b80601f0160208091040260200160405190810160405280929190818152602001828054612d429061575e565b8015612d8f5780601f10612d6457610100808354040283529160200191612d8f565b820191906000526020600020905b815481529060010190602001808311612d7257829003601f168201915b505050505081565b600086848484604051602001612db09493929190615987565b60405160208183030381529060405290506000341115612e5f577f000000000000000000000000000000000000000000000000000000000000000073ffffffffffffffffffffffffffffffffffffffff16630c93e3bb3430898986336040518763ffffffff1660e01b8152600401612e2c9594939291906159e1565b6000604051808303818588803b158015612e4557600080fd5b505af1158015612e59573d6000803e3d6000fd5b50505050505b7f000000000000000000000000000000000000000000000000000000000000000073ffffffffffffffffffffffffffffffffffffffff16631c92115f8787846040518463ffffffff1660e01b8152600401612ebc93929190615a49565b600060405180830381600087803b158015612ed657600080fd5b505af1158015612eea573d6000803e3d6000fd5b5050505050505050505050565b60056020528060005260406000206000915090508060000154908060010154908060020160009054906101000a900473ffffffffffffffffffffffffffffffffffffffff16908060030160009054906101000a900473ffffffffffffffffffffffffffffffffffffffff16908060040160009054906101000a900473ffffffffffffffffffffffffffffffffffffffff169080600501549080600601549080600701549080600801549080600901549080600a01549080600b0160009054906101000a900460ff1690508c565b60078181548110612fd457600080fd5b906000526020600020016000915090505481565b6060600780548060200260200160405190810160405280929190818152602001828054801561303657602002820191906000526020600020905b815481526020019060010190808311613022575b5050505050905090565b73ffffffff1fcacbd218edc0eba20fc2308c77808081565b6060600c8054806020026020016040519081016040528092919081815260200182805480156130a657602002820191906000526020600020905b815481526020019060010190808311613092575b5050505050905090565b600c81815481106130c057600080fd5b906000526020600020016000915090505481565b600060068054905011156135f457600960006130f09190614331565b600a60006130fe9190614352565b600b600061310c9190614331565b60005b6006805490508110156133f057600060068281548110613132576131316157e6565b5b906000526020600020015490506000600560008381526020019081526020016000206040518061018001604052908160008201548152602001600182015481526020016002820160009054906101000a900473ffffffffffffffffffffffffffffffffffffffff1673ffffffffffffffffffffffffffffffffffffffff1673ffffffffffffffffffffffffffffffffffffffff1681526020016003820160009054906101000a900473ffffffffffffffffffffffffffffffffffffffff1673ffffffffffffffffffffffffffffffffffffffff1673ffffffffffffffffffffffffffffffffffffffff1681526020016004820160009054906101000a900473ffffffffffffffffffffffffffffffffffffffff1673ffffffffffffffffffffffffffffffffffffffff1673ffffffffffffffffffffffffffffffffffffffff1681526020016005820154815260200160068201548152602001600782015481526020016008820154815260200160098201548152602001600a8201548152602001600b820160009054906101000a900460ff16151515158152505090506009829080600181540180825580915050600190039060005260206000200160009091909190915055600a81604001519080600181540180825580915050600190039060005260206000200160009091909190916101000a81548173ffffffffffffffffffffffffffffffffffffffff021916908373ffffffffffffffffffffffffffffffffffffffff160217905550600b8160e0015190806001815401808255809150506001900390600052602060002001600090919091909150556000600780549050905060078390806001815401808255809150506001900390600052602060002001600090919091909150558060056000858152602001908152602001600020600a018190555050505080806133e890615815565b91505061310f565b50600660006133ff9190614331565b6135f360036040518060400160405280600781526020017f42696e616e636500000000000000000000000000000000000000000000000000815250600080546134479061575e565b80601f01602080910402602001604051908101604052809291908181526020018280546134739061575e565b80156134c05780601f10613495576101008083540402835291602001916134c0565b820191906000526020600020905b8154815290600101906020018083116134a357829003601f168201915b5050505050600980548060200260200160405190810160405280929190818152602001828054801561351157602002820191906000526020600020905b8154815260200190600101908083116134fd575b5050505050600a80548060200260200160405190810160405280929190818152602001828054801561359857602002820191906000526020600020905b8160009054906101000a900473ffffffffffffffffffffffffffffffffffffffff1673ffffffffffffffffffffffffffffffffffffffff168152602001906001019080831161354e575b5050505050600b8054806020026020016040519081016040528092919081815260200182805480156135e957602002820191906000526020600020905b8154815260200190600101908083116135d5575b5050505050612d97565b5b565b600160009054906101000a900473ffffffffffffffffffffffffffffffffffffffff1673ffffffffffffffffffffffffffffffffffffffff163373ffffffffffffffffffffffffffffffffffffffff1614613686576040517f08c379a000000000000000000000000000000000000000000000000000000000815260040161367d906158a9565b60405180910390fd5b6136a58173ffffffffffffffffffffffffffffffffffffffff1661400e565b600090816136b39190615c37565b5050565b73acc15dc74880c9944775448304b263d191c6077f81565b73ca01a1d0993565291051daff390892518acfad3a81565b60006001600260008282546136fc91906152d4565b9250508190555060006001905073931715fee2d06333043d11f658c8ce934ac61d0c73ffffffffffffffffffffffffffffffffffffffff168973ffffffffffffffffffffffffffffffffffffffff160361378c57600680549050915060066002549080600181540180825580915050600190039060005260206000200160009091909190915055600090506137c0565b6008805490509150600860025490806001815401808255809150506001900390600052602060002001600090919091909150555b60405180610180016040528060025481526020018c81526020018b73ffffffffffffffffffffffffffffffffffffffff1681526020018a73ffffffffffffffffffffffffffffffffffffffff1681526020018973ffffffffffffffffffffffffffffffffffffffff168152602001888152602001878152602001868152602001858152602001848152602001838152602001821515815250600560006002548152602001908152602001600020600082015181600001556020820151816001015560408201518160020160006101000a81548173ffffffffffffffffffffffffffffffffffffffff021916908373ffffffffffffffffffffffffffffffffffffffff16021790555060608201518160030160006101000a81548173ffffffffffffffffffffffffffffffffffffffff021916908373ffffffffffffffffffffffffffffffffffffffff16021790555060808201518160040160006101000a81548173ffffffffffffffffffffffffffffffffffffffff021916908373ffffffffffffffffffffffffffffffffffffffff16021790555060a0820151816005015560c0820151816006015560e082015181600701556101008201518160080155610120820151816009015561014082015181600a015561016082015181600b0160006101000a81548160ff0219169083151502179055509050505050505050505050505050565b6000600560008381526020019081526020016000206040518061018001604052908160008201548152602001600182015481526020016002820160009054906101000a900473ffffffffffffffffffffffffffffffffffffffff1673ffffffffffffffffffffffffffffffffffffffff1673ffffffffffffffffffffffffffffffffffffffff1681526020016003820160009054906101000a900473ffffffffffffffffffffffffffffffffffffffff1673ffffffffffffffffffffffffffffffffffffffff1673ffffffffffffffffffffffffffffffffffffffff1681526020016004820160009054906101000a900473ffffffffffffffffffffffffffffffffffffffff1673ffffffffffffffffffffffffffffffffffffffff1673ffffffffffffffffffffffffffffffffffffffff1681526020016005820154815260200160068201548152602001600782015481526020016008820154815260200160098201548152602001600a8201548152602001600b820160009054906101000a900460ff161515151581525050905060008161014001519050600060018503613c06576001600780549050613b7c91906156fb565b821015613bd95760076001600780549050613b9791906156fb565b81548110613ba857613ba76157e6565b5b906000526020600020015490508060078381548110613bca57613bc96157e6565b5b90600052602060002001819055505b6007805480613beb57613bea615d09565b5b60019003818190600052602060002001600090559055613d4c565b60028503613caa576001600880549050613c2091906156fb565b821015613c7d5760086001600880549050613c3b91906156fb565b81548110613c4c57613c4b6157e6565b5b906000526020600020015490508060088381548110613c6e57613c6d6157e6565b5b90600052602060002001819055505b6008805480613c8f57613c8e615d09565b5b60019003818190600052602060002001600090559055613d4b565b60038503613d4a576001600680549050613cc491906156fb565b821015613d215760066001600680549050613cdf91906156fb565b81548110613cf057613cef6157e6565b5b906000526020600020015490508060068381548110613d1257613d116157e6565b5b90600052602060002001819055505b6006805480613d3357613d32615d09565b5b600190038181906000526020600020016000905590555b5b5b60008114613d70578160056000838152602001908152602001600020600a01819055505b6005600085815260200190815260200160002060008082016000905560018201600090556002820160006101000a81549073ffffffffffffffffffffffffffffffffffffffff02191690556003820160006101000a81549073ffffffffffffffffffffffffffffffffffffffff02191690556004820160006101000a81549073ffffffffffffffffffffffffffffffffffffffff021916905560058201600090556006820160009055600782016000905560088201600090556009820160009055600a820160009055600b820160006101000a81549060ff021916905550505050505050565b600360009054906101000a900473ffffffffffffffffffffffffffffffffffffffff1681565b600160009054906101000a900473ffffffffffffffffffffffffffffffffffffffff1681565b73931715fee2d06333043d11f658c8ce934ac61d0c81565b60098181548110613eca57600080fd5b906000526020600020016000915090505481565b6000806000808888810190613ef39190615d38565b935093509350935060048403613f735760005b8351811015613f71576000848281518110613f2457613f236157e6565b5b60200260200101519050600160056000838152602001908152602001600020600b0160006101000a81548160ff021916908315150217905550508080613f6990615815565b915050613f06565b505b50505050505050505050505050565b6000808383810190613f949190615df3565b91509150600482036140045760005b815181101561400257600c828281518110613fc157613fc06157e6565b5b602002602001015190806001815401808255809150506001900390600052602060002001600090919091909150558080613ffa90615815565b915050613fa3565b505b5050505050505050565b60606000826040516020016140239190615e97565b604051602081830303815290604052905060008151905060006040518060400160405280601081526020017f303132333435363738396162636465660000000000000000000000000000000081525090506000600284516140849190615eb2565b600261409091906152d4565b67ffffffffffffffff8111156140a9576140a86147c2565b5b6040519080825280601f01601f1916602001820160405280156140db5781602001600182028036833780820191505090505b5090507f300000000000000000000000000000000000000000000000000000000000000081600081518110614113576141126157e6565b5b60200101907effffffffffffffffffffffffffffffffffffffffffffffffffffffffffffff1916908160001a9053507f780000000000000000000000000000000000000000000000000000000000000081600181518110614177576141766157e6565b5b60200101907effffffffffffffffffffffffffffffffffffffffffffffffffffffffffffff1916908160001a90535060005b83811015614324578260048683815181106141c7576141c66157e6565b5b602001015160f81c60f81b7effffffffffffffffffffffffffffffffffffffffffffffffffffffffffffff1916901c60f81c60ff168151811061420d5761420c6157e6565b5b602001015160f81c60f81b826002836142269190615eb2565b600261423291906152d4565b81518110614243576142426157e6565b5b60200101907effffffffffffffffffffffffffffffffffffffffffffffffffffffffffffff1916908160001a90535082600f60f81b86838151811061428b5761428a6157e6565b5b602001015160f81c60f81b1660f81c60ff16815181106142ae576142ad6157e6565b5b602001015160f81c60f81b826002836142c79190615eb2565b60036142d391906152d4565b815181106142e4576142e36157e6565b5b60200101907effffffffffffffffffffffffffffffffffffffffffffffffffffffffffffff1916908160001a9053508061431d90615815565b90506141a9565b5080945050505050919050565b508054600082559060005260206000209081019061434f9190614373565b50565b50805460008255906000526020600020908101906143709190614373565b50565b5b8082111561438c576000816000905550600101614374565b5090565b600081519050919050565b600082825260208201905092915050565b6000819050602082019050919050565b6000819050919050565b6143cf816143bc565b82525050565b60006143e183836143c6565b60208301905092915050565b6000602082019050919050565b600061440582614390565b61440f818561439b565b935061441a836143ac565b8060005b8381101561444b57815161443288826143d5565b975061443d836143ed565b92505060018101905061441e565b5085935050505092915050565b6000602082019050818103600083015261447281846143fa565b905092915050565b614483816143bc565b82525050565b600060208201905061449e600083018461447a565b92915050565b6000604051905090565b600080fd5b600080fd5b6144c1816143bc565b81146144cc57600080fd5b50565b6000813590506144de816144b8565b92915050565b6000602082840312156144fa576144f96144ae565b5b6000614508848285016144cf565b91505092915050565b600073ffffffffffffffffffffffffffffffffffffffff82169050919050565b6000819050919050565b600061455661455161454c84614511565b614531565b614511565b9050919050565b60006145688261453b565b9050919050565b600061457a8261455d565b9050919050565b61458a8161456f565b82525050565b60006020820190506145a56000830184614581565b92915050565b6000819050919050565b6145be816145ab565b81146145c957600080fd5b50565b6000813590506145db816145b5565b92915050565b600080fd5b600080fd5b600080fd5b60008083601f840112614606576146056145e1565b5b8235905067ffffffffffffffff811115614623576146226145e6565b5b60208301915083600182028301111561463f5761463e6145eb565b5b9250929050565b60008083601f84011261465c5761465b6145e1565b5b8235905067ffffffffffffffff811115614679576146786145e6565b5b602083019150836001820283011115614695576146946145eb565b5b9250929050565b60008060008060008060008060008060c08b8d0312156146bf576146be6144ae565b5b60006146cd8d828e016145cc565b9a505060208b013567ffffffffffffffff8111156146ee576146ed6144b3565b5b6146fa8d828e016145f0565b995099505060408b013567ffffffffffffffff81111561471d5761471c6144b3565b5b6147298d828e016145f0565b975097505060608b013567ffffffffffffffff81111561474c5761474b6144b3565b5b6147588d828e01614646565b955095505060808b013567ffffffffffffffff81111561477b5761477a6144b3565b5b6147878d828e016145f0565b935093505060a061479a8d828e016144cf565b9150509295989b9194979a5092959850565b600080fd5b6000601f19601f8301169050919050565b7f4e487b7100000000000000000000000000000000000000000000000000000000600052604160045260246000fd5b6147fa826147b1565b810181811067ffffffffffffffff82111715614819576148186147c2565b5b80604052505050565b600061482c6144a4565b905061483882826147f1565b919050565b600067ffffffffffffffff821115614858576148576147c2565b5b614861826147b1565b9050602081019050919050565b82818337600083830152505050565b600061489061488b8461483d565b614822565b9050828152602081018484840111156148ac576148ab6147ac565b5b6148b784828561486e565b509392505050565b600082601f8301126148d4576148d36145e1565b5b81356148e484826020860161487d565b91505092915050565b60006148f882614511565b9050919050565b614908816148ed565b811461491357600080fd5b50565b600081359050614925816148ff565b92915050565b600080600080600080600060e0888a03121561494a576149496144ae565b5b600088013567ffffffffffffffff811115614968576149676144b3565b5b6149748a828b016148bf565b975050602088013567ffffffffffffffff811115614995576149946144b3565b5b6149a18a828b016148bf565b96505060406149b28a828b016144cf565b95505060606149c38a828b01614916565b94505060806149d48a828b016144cf565b93505060a088013567ffffffffffffffff8111156149f5576149f46144b3565b5b614a018a828b016148bf565b92505060c0614a128a828b016144cf565b91505092959891949750929550565b614a2a816148ed565b82525050565b6000602082019050614a456000830184614a21565b92915050565b60008060008060008060006080888a031215614a6a57614a696144ae565b5b6000614a788a828b016145cc565b975050602088013567ffffffffffffffff811115614a9957614a986144b3565b5b614aa58a828b016145f0565b9650965050604088013567ffffffffffffffff811115614ac857614ac76144b3565b5b614ad48a828b016145f0565b9450945050606088013567ffffffffffffffff811115614af757614af66144b3565b5b614b038a828b01614646565b925092505092959891949750929550565b60008060408385031215614b2b57614b2a6144ae565b5b6000614b3985828601614916565b9250506020614b4a85828601614916565b9150509250929050565b6000614b5f8261455d565b9050919050565b614b6f81614b54565b82525050565b6000602082019050614b8a6000830184614b66565b92915050565b6000614b9b8261455d565b9050919050565b614bab81614b90565b82525050565b6000602082019050614bc66000830184614ba2565b92915050565b600060208284031215614be257614be16144ae565b5b6000614bf084828501614916565b91505092915050565b600081519050919050565b600082825260208201905092915050565b60005b83811015614c33578082015181840152602081019050614c18565b60008484015250505050565b6000614c4a82614bf9565b614c548185614c04565b9350614c64818560208601614c15565b614c6d816147b1565b840191505092915050565b60006020820190508181036000830152614c928184614c3f565b905092915050565b600067ffffffffffffffff821115614cb557614cb46147c2565b5b602082029050602081019050919050565b6000614cd9614cd484614c9a565b614822565b90508083825260208201905060208402830185811115614cfc57614cfb6145eb565b5b835b81811015614d255780614d1188826144cf565b845260208401935050602081019050614cfe565b5050509392505050565b600082601f830112614d4457614d436145e1565b5b8135614d54848260208601614cc6565b91505092915050565b600067ffffffffffffffff821115614d7857614d776147c2565b5b602082029050602081019050919050565b6000614d9c614d9784614d5d565b614822565b90508083825260208201905060208402830185811115614dbf57614dbe6145eb565b5b835b81811015614de85780614dd48882614916565b845260208401935050602081019050614dc1565b5050509392505050565b600082601f830112614e0757614e066145e1565b5b8135614e17848260208601614d89565b91505092915050565b60008060008060008060c08789031215614e3d57614e3c6144ae565b5b6000614e4b89828a016144cf565b965050602087013567ffffffffffffffff811115614e6c57614e6b6144b3565b5b614e7889828a016148bf565b955050604087013567ffffffffffffffff811115614e9957614e986144b3565b5b614ea589828a016148bf565b945050606087013567ffffffffffffffff811115614ec657614ec56144b3565b5b614ed289828a01614d2f565b935050608087013567ffffffffffffffff811115614ef357614ef26144b3565b5b614eff89828a01614df2565b92505060a087013567ffffffffffffffff811115614f2057614f1f6144b3565b5b614f2c89828a01614d2f565b9150509295509295509295565b60008115159050919050565b614f4e81614f39565b82525050565b600061018082019050614f6a600083018f61447a565b614f77602083018e61447a565b614f84604083018d614a21565b614f91606083018c614a21565b614f9e608083018b614a21565b614fab60a083018a61447a565b614fb860c083018961447a565b614fc560e083018861447a565b614fd361010083018761447a565b614fe161012083018661447a565b614fef61014083018561447a565b614ffd610160830184614f45565b9d9c50505050505050505050505050565b60008060008060008060008060006101208a8c031215615031576150306144ae565b5b600061503f8c828d016144cf565b99505060206150508c828d01614916565b98505060406150618c828d01614916565b97505060606150728c828d01614916565b96505060806150838c828d016144cf565b95505060a06150948c828d016144cf565b94505060c06150a58c828d016144cf565b93505060e06150b68c828d016144cf565b9250506101006150c88c828d016144cf565b9150509295985092959850929598565b600080604083850312156150ef576150ee6144ae565b5b60006150fd858286016144cf565b925050602061510e858286016144cf565b9150509250929050565b7f74686973206973206f6e6c7920666f7220746f6b656e496e206265696e67205560008201527f5344430000000000000000000000000000000000000000000000000000000000602082015250565b6000615174602383614c04565b915061517f82615118565b604082019050919050565b600060208201905081810360008301526151a381615167565b9050919050565b60006040820190506151bf6000830185614a21565b6151cc602083018461447a565b9392505050565b6151dc81614f39565b81146151e757600080fd5b50565b6000815190506151f9816151d3565b92915050565b600060208284031215615215576152146144ae565b5b6000615223848285016151ea565b91505092915050565b60006060820190506152416000830186614a21565b61524e6020830185614a21565b61525b604083018461447a565b949350505050565b600081519050615272816144b8565b92915050565b60006020828403121561528e5761528d6144ae565b5b600061529c84828501615263565b91505092915050565b7f4e487b7100000000000000000000000000000000000000000000000000000000600052601160045260246000fd5b60006152df826143bc565b91506152ea836143bc565b9250828201905080821115615302576153016152a5565b5b92915050565b600060808201905061531d6000830187614a21565b61532a6020830186614a21565b6153376040830185614a21565b615344606083018461447a565b95945050505050565b600060a0820190506153626000830188614a21565b61536f6020830187614a21565b61537c6040830186614a21565b6153896060830185614a21565b615396608083018461447a565b9695505050505050565b600081905092915050565b60006153b783856153a0565b93506153c483858461486e565b82840190509392505050565b60006153dd8284866153ab565b91508190509392505050565b6153f2816145ab565b82525050565b60006154048385614c04565b935061541183858461486e565b61541a836147b1565b840190509392505050565b600060c08201905061543a600083018c6153e9565b818103602083015261544d818a8c6153f8565b9050818103604083015261546281888a6153f8565b905061547160608301876153e9565b81810360808301526154848185876153f8565b905061549360a083018461447a565b9a9950505050505050505050565b6000815190506154b0816148ff565b92915050565b6000602082840312156154cc576154cb6144ae565b5b60006154da848285016154a1565b91505092915050565b60006060820190506154f8600083018661447a565b6155056020830185614a21565b615512604083018461447a565b949350505050565b600081519050919050565b600082825260208201905092915050565b60006155418261551a565b61554b8185615525565b935061555b818560208601614c15565b615564816147b1565b840191505092915050565b600060e082019050615584600083018a614a21565b81810360208301526155968189614c3f565b905081810360408301526155aa8188614c3f565b905081810360608301526155be8187615536565b905081810360808301526155d28186614c3f565b90506155e160a083018561447a565b6155ee60c0830184614a21565b98975050505050505050565b600060a08201905081810360008301526156148188614c3f565b905081810360208301526156288187614c3f565b9050818103604083015261563c8186615536565b905081810360608301526156508185614c3f565b905061565f608083018461447a565b9695505050505050565b7f74686973206973206f6e6c7920666f7220746f6b656e496e206e6f742062656960008201527f6e67205553444300000000000000000000000000000000000000000000000000602082015250565b60006156c5602783614c04565b91506156d082615669565b604082019050919050565b600060208201905081810360008301526156f4816156b8565b9050919050565b6000615706826143bc565b9150615711836143bc565b9250828203905081811115615729576157286152a5565b5b92915050565b7f4e487b7100000000000000000000000000000000000000000000000000000000600052602260045260246000fd5b6000600282049050600182168061577657607f821691505b6020821081036157895761578861572f565b5b50919050565b60006080820190506157a460008301896153e9565b81810360208301526157b78187896153f8565b905081810360408301526157cc8185876153f8565b90506157db60608301846153e9565b979650505050505050565b7f4e487b7100000000000000000000000000000000000000000000000000000000600052603260045260246000fd5b6000615820826143bc565b91507fffffffffffffffffffffffffffffffffffffffffffffffffffffffffffffffff8203615852576158516152a5565b5b600182019050919050565b7f616374696f6e206f6e6c7920666f722061646d696e0000000000000000000000600082015250565b6000615893601583614c04565b915061589e8261585d565b602082019050919050565b600060208201905081810360008301526158c281615886565b9050919050565b600081519050919050565b600082825260208201905092915050565b6000819050602082019050919050565b6158fe816148ed565b82525050565b600061591083836158f5565b60208301905092915050565b6000602082019050919050565b6000615934826158c9565b61593e81856158d4565b9350615949836158e5565b8060005b8381101561597a5781516159618882615904565b975061596c8361591c565b92505060018101905061594d565b5085935050505092915050565b600060808201905061599c600083018761447a565b81810360208301526159ae81866143fa565b905081810360408301526159c28185615929565b905081810360608301526159d681846143fa565b905095945050505050565b600060a0820190506159f66000830188614a21565b8181036020830152615a088187614c3f565b90508181036040830152615a1c8186614c3f565b90508181036060830152615a308185615536565b9050615a3f6080830184614a21565b9695505050505050565b60006060820190508181036000830152615a638186614c3f565b90508181036020830152615a778185614c3f565b90508181036040830152615a8b8184615536565b9050949350505050565b60008190508160005260206000209050919050565b60006020601f8301049050919050565b600082821b905092915050565b600060088302615af77fffffffffffffffffffffffffffffffffffffffffffffffffffffffffffffffff82615aba565b615b018683615aba565b95508019841693508086168417925050509392505050565b6000615b34615b2f615b2a846143bc565b614531565b6143bc565b9050919050565b6000819050919050565b615b4e83615b19565b615b62615b5a82615b3b565b848454615ac7565b825550505050565b600090565b615b77615b6a565b615b82818484615b45565b505050565b5b81811015615ba657615b9b600082615b6f565b600181019050615b88565b5050565b601f821115615beb57615bbc81615a95565b615bc584615aaa565b81016020851015615bd4578190505b615be8615be085615aaa565b830182615b87565b50505b505050565b600082821c905092915050565b6000615c0e60001984600802615bf0565b1980831691505092915050565b6000615c278383615bfd565b9150826002028217905092915050565b615c4082614bf9565b67ffffffffffffffff811115615c5957615c586147c2565b5b615c63825461575e565b615c6e828285615baa565b600060209050601f831160018114615ca15760008415615c8f578287015190505b615c998582615c1b565b865550615d01565b601f198416615caf86615a95565b60005b82811015615cd757848901518255600182019150602085019450602081019050615cb2565b86831015615cf45784890151615cf0601f891682615bfd565b8355505b6001600288020188555050505b505050505050565b7f4e487b7100000000000000000000000000000000000000000000000000000000600052603160045260246000fd5b60008060008060808587031215615d5257615d516144ae565b5b6000615d60878288016144cf565b945050602085013567ffffffffffffffff811115615d8157615d806144b3565b5b615d8d87828801614d2f565b935050604085013567ffffffffffffffff811115615dae57615dad6144b3565b5b615dba87828801614df2565b925050606085013567ffffffffffffffff811115615ddb57615dda6144b3565b5b615de787828801614d2f565b91505092959194509250565b60008060408385031215615e0a57615e096144ae565b5b6000615e18858286016144cf565b925050602083013567ffffffffffffffff811115615e3957615e386144b3565b5b615e4585828601614d2f565b9150509250929050565b60008160601b9050919050565b6000615e6782615e4f565b9050919050565b6000615e7982615e5c565b9050919050565b615e91615e8c826148ed565b615e6e565b82525050565b6000615ea38284615e80565b60148201915081905092915050565b6000615ebd826143bc565b9150615ec8836143bc565b9250828202615ed6816143bc565b91508282048414831517615eed57615eec6152a5565b5b509291505056fea2646970667358221220ca362da651a8e90246c32defb6b0ebae4d96b7c7d99489ed3b6f73a1c20c0cf564736f6c63430008120033",
  "linkReferences": {},
  "deployedLinkReferences": {}
}