{
  "_format": "hh-sol-artifact-1",
  "contractName": "OrdersManager",
  "sourceName": "contracts/Moonbeam/Moonbeam/OrdersManager.sol",
  "abi": [
    {
      "inputs": [],
      "stateMutability": "nonpayable",
      "type": "constructor"
    },
    {
      "inputs": [
        {
          "internalType": "uint256",
          "name": "",
          "type": "uint256"
        }
      ],
      "name": "Orders",
      "outputs": [
        {
          "internalType": "uint256",
          "name": "nonce",
          "type": "uint256"
        },
        {
          "internalType": "address",
          "name": "owner",
          "type": "address"
        },
        {
          "internalType": "address",
          "name": "tokenIn",
          "type": "address"
        },
        {
          "internalType": "address",
          "name": "tokenOut",
          "type": "address"
        },
        {
          "internalType": "uint256",
          "name": "limit_price",
          "type": "uint256"
        },
        {
          "internalType": "uint256",
          "name": "stop_price",
          "type": "uint256"
        },
        {
          "internalType": "uint256",
          "name": "size",
          "type": "uint256"
        },
        {
          "internalType": "uint256",
          "name": "block_submitted",
          "type": "uint256"
        },
        {
          "internalType": "uint256",
          "name": "numOfsplits",
          "type": "uint256"
        },
        {
          "internalType": "uint256",
          "name": "order_type",
          "type": "uint256"
        },
        {
          "internalType": "uint256",
          "name": "positionAr",
          "type": "uint256"
        },
        {
          "internalType": "uint256",
          "name": "dcaBlockInterval",
          "type": "uint256"
        }
      ],
      "stateMutability": "view",
      "type": "function"
    },
    {
      "inputs": [],
      "name": "USDC_address",
      "outputs": [
        {
          "internalType": "address",
          "name": "",
          "type": "address"
        }
      ],
      "stateMutability": "view",
      "type": "function"
    },
    {
      "inputs": [],
      "name": "WGLMR_address",
      "outputs": [
        {
          "internalType": "address",
          "name": "",
          "type": "address"
        }
      ],
      "stateMutability": "view",
      "type": "function"
    },
    {
      "inputs": [],
      "name": "admin",
      "outputs": [
        {
          "internalType": "address",
          "name": "",
          "type": "address"
        }
      ],
      "stateMutability": "view",
      "type": "function"
    },
    {
      "inputs": [],
      "name": "axlUSDC_address",
      "outputs": [
        {
          "internalType": "address",
          "name": "",
          "type": "address"
        }
      ],
      "stateMutability": "view",
      "type": "function"
    },
    {
      "inputs": [
        {
          "internalType": "uint256",
          "name": "",
          "type": "uint256"
        }
      ],
      "name": "bracketOrdersArray",
      "outputs": [
        {
          "internalType": "uint256",
          "name": "",
          "type": "uint256"
        }
      ],
      "stateMutability": "view",
      "type": "function"
    },
    {
      "inputs": [],
      "name": "checkBracketOrders",
      "outputs": [],
      "stateMutability": "nonpayable",
      "type": "function"
    },
    {
      "inputs": [],
      "name": "checkDCAOrders",
      "outputs": [],
      "stateMutability": "nonpayable",
      "type": "function"
    },
    {
      "inputs": [],
      "name": "checkLimitOrders",
      "outputs": [],
      "stateMutability": "nonpayable",
      "type": "function"
    },
    {
      "inputs": [],
      "name": "checkStopOrders",
      "outputs": [],
      "stateMutability": "nonpayable",
      "type": "function"
    },
    {
      "inputs": [
        {
          "internalType": "uint256",
          "name": "",
          "type": "uint256"
        }
      ],
      "name": "dcaOrdersArray",
      "outputs": [
        {
          "internalType": "uint256",
          "name": "",
          "type": "uint256"
        }
      ],
      "stateMutability": "view",
      "type": "function"
    },
    {
      "inputs": [
        {
          "internalType": "uint256",
          "name": "order_nonce",
          "type": "uint256"
        }
      ],
      "name": "delete_Order",
      "outputs": [],
      "stateMutability": "nonpayable",
      "type": "function"
    },
    {
      "inputs": [],
      "name": "delete_OrdersArray",
      "outputs": [],
      "stateMutability": "nonpayable",
      "type": "function"
    },
    {
      "inputs": [],
      "name": "dex",
      "outputs": [
        {
          "internalType": "contract IStellaSwap",
          "name": "",
          "type": "address"
        }
      ],
      "stateMutability": "view",
      "type": "function"
    },
    {
      "inputs": [],
      "name": "executionOrdersEngineFantom_Address",
      "outputs": [
        {
          "internalType": "address",
          "name": "",
          "type": "address"
        }
      ],
      "stateMutability": "view",
      "type": "function"
    },
    {
      "inputs": [],
      "name": "executionOrdersEngineMoonbeam_Address",
      "outputs": [
        {
          "internalType": "address",
          "name": "",
          "type": "address"
        }
      ],
      "stateMutability": "view",
      "type": "function"
    },
    {
      "inputs": [],
      "name": "get_StellaSwapPrice",
      "outputs": [],
      "stateMutability": "nonpayable",
      "type": "function"
    },
    {
      "inputs": [],
      "name": "get_bracketOrdersArray",
      "outputs": [
        {
          "internalType": "uint256[]",
          "name": "",
          "type": "uint256[]"
        }
      ],
      "stateMutability": "view",
      "type": "function"
    },
    {
      "inputs": [],
      "name": "get_dcaOrdersArray",
      "outputs": [
        {
          "internalType": "uint256[]",
          "name": "",
          "type": "uint256[]"
        }
      ],
      "stateMutability": "view",
      "type": "function"
    },
    {
      "inputs": [],
      "name": "get_limitOrdersArray",
      "outputs": [
        {
          "internalType": "uint256[]",
          "name": "",
          "type": "uint256[]"
        }
      ],
      "stateMutability": "view",
      "type": "function"
    },
    {
      "inputs": [],
      "name": "get_stopOrdersArray",
      "outputs": [
        {
          "internalType": "uint256[]",
          "name": "",
          "type": "uint256[]"
        }
      ],
      "stateMutability": "view",
      "type": "function"
    },
    {
      "inputs": [
        {
          "internalType": "uint256",
          "name": "",
          "type": "uint256"
        }
      ],
      "name": "limitOrdersArray",
      "outputs": [
        {
          "internalType": "uint256",
          "name": "",
          "type": "uint256"
        }
      ],
      "stateMutability": "view",
      "type": "function"
    },
    {
      "inputs": [],
      "name": "myExecutionOrdersEngineFromFantom",
      "outputs": [
        {
          "internalType": "contract ExecutionOrdersEngineFromFantom",
          "name": "",
          "type": "address"
        }
      ],
      "stateMutability": "view",
      "type": "function"
    },
    {
      "inputs": [],
      "name": "myExecutionOrdersEngineMoonbeam",
      "outputs": [
        {
          "internalType": "contract ExecutionOrdersEngineMoonbeam",
          "name": "",
          "type": "address"
        }
      ],
      "stateMutability": "view",
      "type": "function"
    },
    {
      "inputs": [],
      "name": "myUsersRegistry",
      "outputs": [
        {
          "internalType": "contract UsersRegistry",
          "name": "",
          "type": "address"
        }
      ],
      "stateMutability": "view",
      "type": "function"
    },
    {
      "inputs": [],
      "name": "nonce",
      "outputs": [
        {
          "internalType": "uint256",
          "name": "",
          "type": "uint256"
        }
      ],
      "stateMutability": "view",
      "type": "function"
    },
    {
      "inputs": [
        {
          "internalType": "uint256",
          "name": "",
          "type": "uint256"
        }
      ],
      "name": "orderNoncesToDelete",
      "outputs": [
        {
          "internalType": "uint256",
          "name": "",
          "type": "uint256"
        }
      ],
      "stateMutability": "view",
      "type": "function"
    },
    {
      "inputs": [
        {
          "internalType": "address",
          "name": "",
          "type": "address"
        }
      ],
      "name": "priceUSDC",
      "outputs": [
        {
          "internalType": "uint256",
          "name": "",
          "type": "uint256"
        }
      ],
      "stateMutability": "view",
      "type": "function"
    },
    {
      "inputs": [
        {
          "internalType": "address",
          "name": "_executionOrdersEngineAddress",
          "type": "address"
        }
      ],
      "name": "set_ExecutionOrdersEngineFantom_address",
      "outputs": [],
      "stateMutability": "nonpayable",
      "type": "function"
    },
    {
      "inputs": [
        {
          "internalType": "address",
          "name": "_executionOrdersEngineAddress",
          "type": "address"
        }
      ],
      "name": "set_ExecutionOrdersEngineMoonbeam_address",
      "outputs": [],
      "stateMutability": "nonpayable",
      "type": "function"
    },
    {
      "inputs": [
        {
          "internalType": "address",
          "name": "_stellaSwapAddress",
          "type": "address"
        }
      ],
      "name": "set_StellaSwap",
      "outputs": [],
      "stateMutability": "nonpayable",
      "type": "function"
    },
    {
      "inputs": [
        {
          "internalType": "address",
          "name": "_usersRegistry_Address",
          "type": "address"
        }
      ],
      "name": "set_UsersRegistry_address",
      "outputs": [],
      "stateMutability": "nonpayable",
      "type": "function"
    },
    {
      "inputs": [
        {
          "internalType": "uint256",
          "name": "dotUSDC",
          "type": "uint256"
        },
        {
          "internalType": "uint256",
          "name": "wglmrUSDC",
          "type": "uint256"
        },
        {
          "internalType": "uint256",
          "name": "astrUSDC",
          "type": "uint256"
        }
      ],
      "name": "set_artifical_StellaSwapPrice",
      "outputs": [],
      "stateMutability": "nonpayable",
      "type": "function"
    },
    {
      "inputs": [],
      "name": "stellaSwapAddress",
      "outputs": [
        {
          "internalType": "address",
          "name": "",
          "type": "address"
        }
      ],
      "stateMutability": "view",
      "type": "function"
    },
    {
      "inputs": [
        {
          "internalType": "uint256",
          "name": "",
          "type": "uint256"
        }
      ],
      "name": "stopOrdersArray",
      "outputs": [
        {
          "internalType": "uint256",
          "name": "",
          "type": "uint256"
        }
      ],
      "stateMutability": "view",
      "type": "function"
    },
    {
      "inputs": [
        {
          "internalType": "address",
          "name": "_owner",
          "type": "address"
        },
        {
          "internalType": "address",
          "name": "tokenIn",
          "type": "address"
        },
        {
          "internalType": "address",
          "name": "tokenOut",
          "type": "address"
        },
        {
          "internalType": "uint256",
          "name": "limit_price",
          "type": "uint256"
        },
        {
          "internalType": "uint256",
          "name": "stop_price",
          "type": "uint256"
        },
        {
          "internalType": "uint256",
          "name": "size",
          "type": "uint256"
        },
        {
          "internalType": "uint256",
          "name": "num_Ofsplits",
          "type": "uint256"
        },
        {
          "internalType": "uint256",
          "name": "order_type",
          "type": "uint256"
        },
        {
          "internalType": "uint256",
          "name": "_dcaBlockInterval",
          "type": "uint256"
        }
      ],
      "name": "submit_Order",
      "outputs": [],
      "stateMutability": "nonpayable",
      "type": "function"
    },
    {
      "inputs": [],
      "name": "usersRegistry_Address",
      "outputs": [
        {
          "internalType": "address",
          "name": "",
          "type": "address"
        }
      ],
      "stateMutability": "view",
      "type": "function"
    },
    {
      "inputs": [],
      "name": "xcASTR_address",
      "outputs": [
        {
          "internalType": "address",
          "name": "",
          "type": "address"
        }
      ],
      "stateMutability": "view",
      "type": "function"
    },
    {
      "inputs": [],
      "name": "xcDOT_address",
      "outputs": [
        {
          "internalType": "address",
          "name": "",
          "type": "address"
        }
      ],
      "stateMutability": "view",
      "type": "function"
    }
  ],
  "bytecode": "0x6080604052600060095534801561001557600080fd5b50336000806101000a81548173ffffffffffffffffffffffffffffffffffffffff021916908373ffffffffffffffffffffffffffffffffffffffff16021790555061351b806100656000396000f3fe608060405234801561001057600080fd5b506004361061023d5760003560e01c80639da137971161013b578063da21a2bb116100b8578063ecfecc541161007c578063ecfecc5414610643578063f1e8d1e714610661578063f5b3772f1461067f578063f851a4401461069b578063f9abd26c146106b95761023d565b8063da21a2bb14610579578063db76616c146105a9578063dcb73edc146105c7578063df266eea146105f7578063df7c8a5c146106275761023d565b8063d021b95e116100ff578063d021b95e146104d3578063d3141f99146104dd578063d4cdea6a146104fb578063d4e499e714610519578063d566d100146105495761023d565b80639da137971461043f578063affed0e01461045d578063bde18bbd1461047b578063c8b530fb14610499578063cc2db7ce146104b55761023d565b80635fc6cfb2116101c9578063899f763b1161018d578063899f763b146103a25780638cd25f50146103be5780638fb326f2146103c85780639126ab611461040357806398bf0ffb146104215761023d565b80635fc6cfb214610310578063692058c2146103405780636bd0dc661461035e578063748ee05c1461037a5780638270f09f146103845761023d565b806325f505eb1161021057806325f505eb146102925780632dc8a482146102ae5780633f8e8c27146102ca5780634f670b0d146102e85780635419cb45146102f25761023d565b80630bfb2553146102425780630e0fdef21461024c5780631e3014b8146102565780632234afd914610274575b600080fd5b61024a6106d7565b005b610254610741565b005b61025e610a3b565b60405161026b9190612a65565b60405180910390f35b61027c610a61565b6040516102899190612adf565b60405180910390f35b6102ac60048036038101906102a79190612b3a565b610a87565b005b6102c860048036038101906102c39190612b9d565b610b0c565b005b6102d2610f46565b6040516102df9190612a65565b60405180910390f35b6102f0610f5e565b005b6102fa611229565b6040516103079190612c88565b60405180910390f35b61032a60048036038101906103259190612ca3565b61124f565b6040516103379190612cdf565b60405180910390f35b610348611273565b6040516103559190612d1b565b60405180910390f35b61037860048036038101906103739190612b3a565b611299565b005b61038261131e565b005b61038c6115e9565b6040516103999190612a65565b60405180910390f35b6103bc60048036038101906103b79190612d36565b61160f565b005b6103c661171c565b005b6103e260048036038101906103dd9190612ca3565b611a38565b6040516103fa9c9b9a99989796959493929190612d89565b60405180910390f35b61040b611af8565b6040516104189190612f01565b60405180910390f35b610429611b50565b6040516104369190612a65565b60405180910390f35b610447611b68565b6040516104549190612f01565b60405180910390f35b610465611bc0565b6040516104729190612cdf565b60405180910390f35b610483611bc6565b6040516104909190612f01565b60405180910390f35b6104b360048036038101906104ae9190612b3a565b611c1e565b005b6104bd611ca3565b6040516104ca9190612a65565b60405180910390f35b6104db611cbb565b005b6104e5611ff3565b6040516104f29190612a65565b60405180910390f35b61050361200b565b6040516105109190612a65565b60405180910390f35b610533600480360381019061052e9190612ca3565b612031565b6040516105409190612cdf565b60405180910390f35b610563600480360381019061055e9190612ca3565b612055565b6040516105709190612cdf565b60405180910390f35b610593600480360381019061058e9190612b3a565b612079565b6040516105a09190612cdf565b60405180910390f35b6105b1612091565b6040516105be9190612f01565b60405180910390f35b6105e160048036038101906105dc9190612ca3565b6120e9565b6040516105ee9190612cdf565b60405180910390f35b610611600480360381019061060c9190612ca3565b61210d565b60405161061e9190612cdf565b60405180910390f35b610641600480360381019061063c9190612ca3565b612131565b005b61064b612653565b6040516106589190612f44565b60405180910390f35b610669612679565b6040516106769190612a65565b60405180910390f35b61069960048036038101906106949190612b3a565b61269f565b005b6106a3612724565b6040516106b09190612a65565b60405180910390f35b6106c1612748565b6040516106ce9190612a65565b60405180910390f35b6000600f80549050111561073f5760005b600f8054905081101561072f5761071c600f828154811061070c5761070b612f5f565b5b9060005260206000200154612131565b808061072790612fbd565b9150506106e8565b50600f600061073e91906129e6565b5b565b60005b600e80549050811015610a30576000600e828154811061076757610766612f5f565b5b906000526020600020015490506000600a600083815260200190815260200160002060405180610180016040529081600082015481526020016001820160009054906101000a900473ffffffffffffffffffffffffffffffffffffffff1673ffffffffffffffffffffffffffffffffffffffff1673ffffffffffffffffffffffffffffffffffffffff1681526020016002820160009054906101000a900473ffffffffffffffffffffffffffffffffffffffff1673ffffffffffffffffffffffffffffffffffffffff1673ffffffffffffffffffffffffffffffffffffffff1681526020016003820160009054906101000a900473ffffffffffffffffffffffffffffffffffffffff1673ffffffffffffffffffffffffffffffffffffffff1673ffffffffffffffffffffffffffffffffffffffff168152602001600482015481526020016005820154815260200160068201548152602001600782015481526020016008820154815260200160098201548152602001600a8201548152602001600b82015481525050905073931715fee2d06333043d11f658c8ce934ac61d0c73ffffffffffffffffffffffffffffffffffffffff16816040015173ffffffffffffffffffffffffffffffffffffffff1603610a1b578061016001518160e001516109539190613005565b431115610a1a57610990816000015182602001518360400151846060015185608001518660a001518760c001518860e00151896101200151612760565b6001816101000151036109cf57600f81600001519080600181540180825580915050600190039060005260206000200160009091909190915055610a19565b6001600a600084815260200190815260200160002060080160008282546109f69190613039565b9250508190555043600a6000848152602001908152602001600020600701819055505b5b5b50508080610a2890612fbd565b915050610744565b50610a396106d7565b565b600560009054906101000a900473ffffffffffffffffffffffffffffffffffffffff1681565b600860009054906101000a900473ffffffffffffffffffffffffffffffffffffffff1681565b80600560006101000a81548173ffffffffffffffffffffffffffffffffffffffff021916908373ffffffffffffffffffffffffffffffffffffffff16021790555080600660006101000a81548173ffffffffffffffffffffffffffffffffffffffff021916908373ffffffffffffffffffffffffffffffffffffffff16021790555050565b600860009054906101000a900473ffffffffffffffffffffffffffffffffffffffff1673ffffffffffffffffffffffffffffffffffffffff1663163f75228a6040518263ffffffff1660e01b8152600401610b679190612a65565b602060405180830381865afa158015610b84573d6000803e3d6000fd5b505050506040513d601f19601f82011682018060405250810190610ba891906130a5565b610be7576040517f08c379a0000000000000000000000000000000000000000000000000000000008152600401610bde90613155565b60405180910390fd5b60008060008060018603610c0557899350600b805490509050610c4f565b60028603610c1d57889250600c805490509050610c4e565b60038603610c3857899350889250600d805490509050610c4d565b60048603610c4c57869150600e8054905090505b5b5b5b600160096000828254610c629190613005565b92505081905550600060405180610180016040528060095481526020018f73ffffffffffffffffffffffffffffffffffffffff1681526020018e73ffffffffffffffffffffffffffffffffffffffff1681526020018d73ffffffffffffffffffffffffffffffffffffffff1681526020018681526020018581526020018a815260200143815260200184815260200188815260200183815260200187815250905060018703610d3d57600b81600001519080600181540180825580915050600190039060005260206000200160009091909190915055610dea565b60028703610d7757600c81600001519080600181540180825580915050600190039060005260206000200160009091909190915055610de9565b60038703610db157600d81600001519080600181540180825580915050600190039060005260206000200160009091909190915055610de8565b60048703610de757600e816000015190806001815401808255809150506001900390600052602060002001600090919091909150555b5b5b5b80600a600060095481526020019081526020016000206000820151816000015560208201518160010160006101000a81548173ffffffffffffffffffffffffffffffffffffffff021916908373ffffffffffffffffffffffffffffffffffffffff16021790555060408201518160020160006101000a81548173ffffffffffffffffffffffffffffffffffffffff021916908373ffffffffffffffffffffffffffffffffffffffff16021790555060608201518160030160006101000a81548173ffffffffffffffffffffffffffffffffffffffff021916908373ffffffffffffffffffffffffffffffffffffffff1602179055506080820151816004015560a0820151816005015560c0820151816006015560e082015181600701556101008201518160080155610120820151816009015561014082015181600a015561016082015181600b01559050505050505050505050505050505050565b73ffffffffa893ad19e540e172c10d78d4d479b5cf81565b60005b600c8054905081101561121e576000600a6000600c8481548110610f8857610f87612f5f565b5b9060005260206000200154815260200190815260200160002060405180610180016040529081600082015481526020016001820160009054906101000a900473ffffffffffffffffffffffffffffffffffffffff1673ffffffffffffffffffffffffffffffffffffffff1673ffffffffffffffffffffffffffffffffffffffff1681526020016002820160009054906101000a900473ffffffffffffffffffffffffffffffffffffffff1673ffffffffffffffffffffffffffffffffffffffff1673ffffffffffffffffffffffffffffffffffffffff1681526020016003820160009054906101000a900473ffffffffffffffffffffffffffffffffffffffff1673ffffffffffffffffffffffffffffffffffffffff1673ffffffffffffffffffffffffffffffffffffffff168152602001600482015481526020016005820154815260200160068201548152602001600782015481526020016008820154815260200160098201548152602001600a8201548152602001600b82015481525050905073931715fee2d06333043d11f658c8ce934ac61d0c73ffffffffffffffffffffffffffffffffffffffff16816060015173ffffffffffffffffffffffffffffffffffffffff160361120a578060a0015160106000836040015173ffffffffffffffffffffffffffffffffffffffff1673ffffffffffffffffffffffffffffffffffffffff168152602001908152602001600020541015611209576111db816000015182602001518360400151846060015185608001518660a001518760c001518860e00151896101200151612760565b600f816000015190806001815401808255809150506001900390600052602060002001600090919091909150555b5b50808061121690612fbd565b915050610f61565b506112276106d7565b565b600660009054906101000a900473ffffffffffffffffffffffffffffffffffffffff1681565b600c818154811061125f57600080fd5b906000526020600020016000915090505481565b600260009054906101000a900473ffffffffffffffffffffffffffffffffffffffff1681565b80600160006101000a81548173ffffffffffffffffffffffffffffffffffffffff021916908373ffffffffffffffffffffffffffffffffffffffff16021790555080600260006101000a81548173ffffffffffffffffffffffffffffffffffffffff021916908373ffffffffffffffffffffffffffffffffffffffff16021790555050565b60005b600b805490508110156115de576000600a6000600b848154811061134857611347612f5f565b5b9060005260206000200154815260200190815260200160002060405180610180016040529081600082015481526020016001820160009054906101000a900473ffffffffffffffffffffffffffffffffffffffff1673ffffffffffffffffffffffffffffffffffffffff1673ffffffffffffffffffffffffffffffffffffffff1681526020016002820160009054906101000a900473ffffffffffffffffffffffffffffffffffffffff1673ffffffffffffffffffffffffffffffffffffffff1673ffffffffffffffffffffffffffffffffffffffff1681526020016003820160009054906101000a900473ffffffffffffffffffffffffffffffffffffffff1673ffffffffffffffffffffffffffffffffffffffff1673ffffffffffffffffffffffffffffffffffffffff168152602001600482015481526020016005820154815260200160068201548152602001600782015481526020016008820154815260200160098201548152602001600a8201548152602001600b82015481525050905073931715fee2d06333043d11f658c8ce934ac61d0c73ffffffffffffffffffffffffffffffffffffffff16816040015173ffffffffffffffffffffffffffffffffffffffff16036115ca57806080015160106000836060015173ffffffffffffffffffffffffffffffffffffffff1673ffffffffffffffffffffffffffffffffffffffff1681526020019081526020016000205410156115c95761159b816000015182602001518360400151846060015185608001518660a001518760c001518860e00151896101200151612760565b600f816000015190806001815401808255809150506001900390600052602060002001600090919091909150555b5b5080806115d690612fbd565b915050611321565b506115e76106d7565b565b600760009054906101000a900473ffffffffffffffffffffffffffffffffffffffff1681565b826010600073ffffffff1fcacbd218edc0eba20fc2308c77808073ffffffffffffffffffffffffffffffffffffffff1673ffffffffffffffffffffffffffffffffffffffff16815260200190815260200160002081905550816010600073acc15dc74880c9944775448304b263d191c6077f73ffffffffffffffffffffffffffffffffffffffff1673ffffffffffffffffffffffffffffffffffffffff16815260200190815260200160002081905550806010600073ffffffffa893ad19e540e172c10d78d4d479b5cf73ffffffffffffffffffffffffffffffffffffffff1673ffffffffffffffffffffffffffffffffffffffff16815260200190815260200160002081905550505050565b60005b600d80549050811015611a2d576000600a6000600d848154811061174657611745612f5f565b5b9060005260206000200154815260200190815260200160002060405180610180016040529081600082015481526020016001820160009054906101000a900473ffffffffffffffffffffffffffffffffffffffff1673ffffffffffffffffffffffffffffffffffffffff1673ffffffffffffffffffffffffffffffffffffffff1681526020016002820160009054906101000a900473ffffffffffffffffffffffffffffffffffffffff1673ffffffffffffffffffffffffffffffffffffffff1673ffffffffffffffffffffffffffffffffffffffff1681526020016003820160009054906101000a900473ffffffffffffffffffffffffffffffffffffffff1673ffffffffffffffffffffffffffffffffffffffff1673ffffffffffffffffffffffffffffffffffffffff168152602001600482015481526020016005820154815260200160068201548152602001600782015481526020016008820154815260200160098201548152602001600a8201548152602001600b82015481525050905073931715fee2d06333043d11f658c8ce934ac61d0c73ffffffffffffffffffffffffffffffffffffffff16816060015173ffffffffffffffffffffffffffffffffffffffff1603611a19578060a0015160106000836040015173ffffffffffffffffffffffffffffffffffffffff1673ffffffffffffffffffffffffffffffffffffffff1681526020019081526020016000205410806119af5750806080015160106000836040015173ffffffffffffffffffffffffffffffffffffffff1673ffffffffffffffffffffffffffffffffffffffff16815260200190815260200160002054115b15611a18576119ea816000015182602001518360400151846060015185608001518660a001518760c001518860e00151896101200151612760565b600f816000015190806001815401808255809150506001900390600052602060002001600090919091909150555b5b508080611a2590612fbd565b91505061171f565b50611a366106d7565b565b600a6020528060005260406000206000915090508060000154908060010160009054906101000a900473ffffffffffffffffffffffffffffffffffffffff16908060020160009054906101000a900473ffffffffffffffffffffffffffffffffffffffff16908060030160009054906101000a900473ffffffffffffffffffffffffffffffffffffffff169080600401549080600501549080600601549080600701549080600801549080600901549080600a01549080600b015490508c565b6060600d805480602002602001604051908101604052809291908181526020018280548015611b4657602002820191906000526020600020905b815481526020019060010190808311611b32575b5050505050905090565b73ffffffff1fcacbd218edc0eba20fc2308c77808081565b6060600c805480602002602001604051908101604052809291908181526020018280548015611bb657602002820191906000526020600020905b815481526020019060010190808311611ba2575b5050505050905090565b60095481565b6060600b805480602002602001604051908101604052809291908181526020018280548015611c1457602002820191906000526020600020905b815481526020019060010190808311611c00575b5050505050905090565b80600360006101000a81548173ffffffffffffffffffffffffffffffffffffffff021916908373ffffffffffffffffffffffffffffffffffffffff16021790555080600460006101000a81548173ffffffffffffffffffffffffffffffffffffffff021916908373ffffffffffffffffffffffffffffffffffffffff16021790555050565b73acc15dc74880c9944775448304b263d191c6077f81565b600260009054906101000a900473ffffffffffffffffffffffffffffffffffffffff1673ffffffffffffffffffffffffffffffffffffffff166313a9258d73ffffffff1fcacbd218edc0eba20fc2308c7780806402540be4006040518363ffffffff1660e01b8152600401611d319291906131b0565b6020604051808303816000875af1158015611d50573d6000803e3d6000fd5b505050506040513d601f19601f82011682018060405250810190611d7491906131ee565b6010600073ffffffff1fcacbd218edc0eba20fc2308c77808073ffffffffffffffffffffffffffffffffffffffff1673ffffffffffffffffffffffffffffffffffffffff16815260200190815260200160002081905550600260009054906101000a900473ffffffffffffffffffffffffffffffffffffffff1673ffffffffffffffffffffffffffffffffffffffff1663da115f0673acc15dc74880c9944775448304b263d191c6077f670de0b6b3a76400006040518363ffffffff1660e01b8152600401611e44929190613256565b6020604051808303816000875af1158015611e63573d6000803e3d6000fd5b505050506040513d601f19601f82011682018060405250810190611e8791906131ee565b6010600073acc15dc74880c9944775448304b263d191c6077f73ffffffffffffffffffffffffffffffffffffffff1673ffffffffffffffffffffffffffffffffffffffff16815260200190815260200160002081905550600260009054906101000a900473ffffffffffffffffffffffffffffffffffffffff1673ffffffffffffffffffffffffffffffffffffffff166313a9258d73ffffffffa893ad19e540e172c10d78d4d479b5cf670de0b6b3a76400006040518363ffffffff1660e01b8152600401611f57929190613256565b6020604051808303816000875af1158015611f76573d6000803e3d6000fd5b505050506040513d601f19601f82011682018060405250810190611f9a91906131ee565b6010600073ffffffffa893ad19e540e172c10d78d4d479b5cf73ffffffffffffffffffffffffffffffffffffffff1673ffffffffffffffffffffffffffffffffffffffff16815260200190815260200160002081905550565b73ca01a1d0993565291051daff390892518acfad3a81565b600360009054906101000a900473ffffffffffffffffffffffffffffffffffffffff1681565b600f818154811061204157600080fd5b906000526020600020016000915090505481565b600e818154811061206557600080fd5b906000526020600020016000915090505481565b60106020528060005260406000206000915090505481565b6060600e8054806020026020016040519081016040528092919081815260200182805480156120df57602002820191906000526020600020905b8154815260200190600101908083116120cb575b5050505050905090565b600b81815481106120f957600080fd5b906000526020600020016000915090505481565b600d818154811061211d57600080fd5b906000526020600020016000915090505481565b6000600a600083815260200190815260200160002060405180610180016040529081600082015481526020016001820160009054906101000a900473ffffffffffffffffffffffffffffffffffffffff1673ffffffffffffffffffffffffffffffffffffffff1673ffffffffffffffffffffffffffffffffffffffff1681526020016002820160009054906101000a900473ffffffffffffffffffffffffffffffffffffffff1673ffffffffffffffffffffffffffffffffffffffff1673ffffffffffffffffffffffffffffffffffffffff1681526020016003820160009054906101000a900473ffffffffffffffffffffffffffffffffffffffff1673ffffffffffffffffffffffffffffffffffffffff1673ffffffffffffffffffffffffffffffffffffffff168152602001600482015481526020016005820154815260200160068201548152602001600782015481526020016008820154815260200160098201548152602001600a8201548152602001600b820154815250509050600081610120015190506000826101400151905060006001830361236a576001600b805490506122e09190613039565b82101561233d57600b6001600b805490506122fb9190613039565b8154811061230c5761230b612f5f565b5b9060005260206000200154905080600b838154811061232e5761232d612f5f565b5b90600052602060002001819055505b600b80548061234f5761234e61327f565b5b60019003818190600052602060002001600090559055612555565b6002830361240e576001600c805490506123849190613039565b8210156123e157600c6001600c8054905061239f9190613039565b815481106123b0576123af612f5f565b5b9060005260206000200154905080600c83815481106123d2576123d1612f5f565b5b90600052602060002001819055505b600c8054806123f3576123f261327f565b5b60019003818190600052602060002001600090559055612554565b600383036124b2576001600d805490506124289190613039565b82101561248557600d6001600d805490506124439190613039565b8154811061245457612453612f5f565b5b9060005260206000200154905080600d838154811061247657612475612f5f565b5b90600052602060002001819055505b600d8054806124975761249661327f565b5b60019003818190600052602060002001600090559055612553565b60048303612552576001600e805490506124cc9190613039565b82101561252957600e6001600e805490506124e79190613039565b815481106124f8576124f7612f5f565b5b9060005260206000200154905080600e838154811061251a57612519612f5f565b5b90600052602060002001819055505b600e80548061253b5761253a61327f565b5b600190038181906000526020600020016000905590555b5b5b5b600081146125795781600a6000838152602001908152602001600020600a01819055505b600a60008681526020019081526020016000206000808201600090556001820160006101000a81549073ffffffffffffffffffffffffffffffffffffffff02191690556002820160006101000a81549073ffffffffffffffffffffffffffffffffffffffff02191690556003820160006101000a81549073ffffffffffffffffffffffffffffffffffffffff0219169055600482016000905560058201600090556006820160009055600782016000905560088201600090556009820160009055600a820160009055600b82016000905550505050505050565b600460009054906101000a900473ffffffffffffffffffffffffffffffffffffffff1681565b600160009054906101000a900473ffffffffffffffffffffffffffffffffffffffff1681565b80600760006101000a81548173ffffffffffffffffffffffffffffffffffffffff021916908373ffffffffffffffffffffffffffffffffffffffff16021790555080600860006101000a81548173ffffffffffffffffffffffffffffffffffffffff021916908373ffffffffffffffffffffffffffffffffffffffff16021790555050565b60008054906101000a900473ffffffffffffffffffffffffffffffffffffffff1681565b73931715fee2d06333043d11f658c8ce934ac61d0c81565b6000600860009054906101000a900473ffffffffffffffffffffffffffffffffffffffff1673ffffffffffffffffffffffffffffffffffffffff16635b48239c8a6040518263ffffffff1660e01b81526004016127bd9190612a65565b600060405180830381865afa1580156127da573d6000803e3d6000fd5b505050506040513d6000823e3d601f19601f82011682018060405250810190612803919061340f565b90506040518060400160405280600881526020017f4d4f4f4e4245414d000000000000000000000000000000000000000000000000815250805190602001208180519060200120036128f157600460009054906101000a900473ffffffffffffffffffffffffffffffffffffffff1673ffffffffffffffffffffffffffffffffffffffff1663d6905c8e8b8b8b8b8b8b8b8b8b6040518a63ffffffff1660e01b81526004016128ba99989796959493929190613458565b600060405180830381600087803b1580156128d457600080fd5b505af11580156128e8573d6000803e3d6000fd5b505050506129da565b6040518060400160405280600681526020017f46414e544f4d0000000000000000000000000000000000000000000000000000815250805190602001208180519060200120036129d957600660009054906101000a900473ffffffffffffffffffffffffffffffffffffffff1673ffffffffffffffffffffffffffffffffffffffff1663d6905c8e8b8b8b8b8b8b8b8b8b6040518a63ffffffff1660e01b81526004016129a699989796959493929190613458565b600060405180830381600087803b1580156129c057600080fd5b505af11580156129d4573d6000803e3d6000fd5b505050505b5b50505050505050505050565b5080546000825590600052602060002090810190612a049190612a07565b50565b5b80821115612a20576000816000905550600101612a08565b5090565b600073ffffffffffffffffffffffffffffffffffffffff82169050919050565b6000612a4f82612a24565b9050919050565b612a5f81612a44565b82525050565b6000602082019050612a7a6000830184612a56565b92915050565b6000819050919050565b6000612aa5612aa0612a9b84612a24565b612a80565b612a24565b9050919050565b6000612ab782612a8a565b9050919050565b6000612ac982612aac565b9050919050565b612ad981612abe565b82525050565b6000602082019050612af46000830184612ad0565b92915050565b6000604051905090565b600080fd5b600080fd5b612b1781612a44565b8114612b2257600080fd5b50565b600081359050612b3481612b0e565b92915050565b600060208284031215612b5057612b4f612b04565b5b6000612b5e84828501612b25565b91505092915050565b6000819050919050565b612b7a81612b67565b8114612b8557600080fd5b50565b600081359050612b9781612b71565b92915050565b60008060008060008060008060006101208a8c031215612bc057612bbf612b04565b5b6000612bce8c828d01612b25565b9950506020612bdf8c828d01612b25565b9850506040612bf08c828d01612b25565b9750506060612c018c828d01612b88565b9650506080612c128c828d01612b88565b95505060a0612c238c828d01612b88565b94505060c0612c348c828d01612b88565b93505060e0612c458c828d01612b88565b925050610100612c578c828d01612b88565b9150509295985092959850929598565b6000612c7282612aac565b9050919050565b612c8281612c67565b82525050565b6000602082019050612c9d6000830184612c79565b92915050565b600060208284031215612cb957612cb8612b04565b5b6000612cc784828501612b88565b91505092915050565b612cd981612b67565b82525050565b6000602082019050612cf46000830184612cd0565b92915050565b6000612d0582612aac565b9050919050565b612d1581612cfa565b82525050565b6000602082019050612d306000830184612d0c565b92915050565b600080600060608486031215612d4f57612d4e612b04565b5b6000612d5d86828701612b88565b9350506020612d6e86828701612b88565b9250506040612d7f86828701612b88565b9150509250925092565b600061018082019050612d9f600083018f612cd0565b612dac602083018e612a56565b612db9604083018d612a56565b612dc6606083018c612a56565b612dd3608083018b612cd0565b612de060a083018a612cd0565b612ded60c0830189612cd0565b612dfa60e0830188612cd0565b612e08610100830187612cd0565b612e16610120830186612cd0565b612e24610140830185612cd0565b612e32610160830184612cd0565b9d9c50505050505050505050505050565b600081519050919050565b600082825260208201905092915050565b6000819050602082019050919050565b612e7881612b67565b82525050565b6000612e8a8383612e6f565b60208301905092915050565b6000602082019050919050565b6000612eae82612e43565b612eb88185612e4e565b9350612ec383612e5f565b8060005b83811015612ef4578151612edb8882612e7e565b9750612ee683612e96565b925050600181019050612ec7565b5085935050505092915050565b60006020820190508181036000830152612f1b8184612ea3565b905092915050565b6000612f2e82612aac565b9050919050565b612f3e81612f23565b82525050565b6000602082019050612f596000830184612f35565b92915050565b7f4e487b7100000000000000000000000000000000000000000000000000000000600052603260045260246000fd5b7f4e487b7100000000000000000000000000000000000000000000000000000000600052601160045260246000fd5b6000612fc882612b67565b91507fffffffffffffffffffffffffffffffffffffffffffffffffffffffffffffffff8203612ffa57612ff9612f8e565b5b600182019050919050565b600061301082612b67565b915061301b83612b67565b925082820190508082111561303357613032612f8e565b5b92915050565b600061304482612b67565b915061304f83612b67565b925082820390508181111561306757613066612f8e565b5b92915050565b60008115159050919050565b6130828161306d565b811461308d57600080fd5b50565b60008151905061309f81613079565b92915050565b6000602082840312156130bb576130ba612b04565b5b60006130c984828501613090565b91505092915050565b600082825260208201905092915050565b7f75736572206973206e6f7420726567697374657265642e20526567697374657260008201527f2075736572206669727374206174205573657273526567697374727900000000602082015250565b600061313f603c836130d2565b915061314a826130e3565b604082019050919050565b6000602082019050818103600083015261316e81613132565b9050919050565b6000819050919050565b600061319a61319561319084613175565b612a80565b612b67565b9050919050565b6131aa8161317f565b82525050565b60006040820190506131c56000830185612a56565b6131d260208301846131a1565b9392505050565b6000815190506131e881612b71565b92915050565b60006020828403121561320457613203612b04565b5b6000613212848285016131d9565b91505092915050565b6000819050919050565b600061324061323b6132368461321b565b612a80565b612b67565b9050919050565b61325081613225565b82525050565b600060408201905061326b6000830185612a56565b6132786020830184613247565b9392505050565b7f4e487b7100000000000000000000000000000000000000000000000000000000600052603160045260246000fd5b600080fd5b600080fd5b6000601f19601f8301169050919050565b7f4e487b7100000000000000000000000000000000000000000000000000000000600052604160045260246000fd5b613301826132b8565b810181811067ffffffffffffffff821117156133205761331f6132c9565b5b80604052505050565b6000613333612afa565b905061333f82826132f8565b919050565b600067ffffffffffffffff82111561335f5761335e6132c9565b5b613368826132b8565b9050602081019050919050565b60005b83811015613393578082015181840152602081019050613378565b60008484015250505050565b60006133b26133ad84613344565b613329565b9050828152602081018484840111156133ce576133cd6132b3565b5b6133d9848285613375565b509392505050565b600082601f8301126133f6576133f56132ae565b5b815161340684826020860161339f565b91505092915050565b60006020828403121561342557613424612b04565b5b600082015167ffffffffffffffff81111561344357613442612b09565b5b61344f848285016133e1565b91505092915050565b60006101208201905061346e600083018c612cd0565b61347b602083018b612a56565b613488604083018a612a56565b6134956060830189612a56565b6134a26080830188612cd0565b6134af60a0830187612cd0565b6134bc60c0830186612cd0565b6134c960e0830185612cd0565b6134d7610100830184612cd0565b9a995050505050505050505056fea2646970667358221220ff8c53fd517e4cd944ef88721eaf40c3714e86f80b9d0ee7093be488db108d8e64736f6c63430008120033",
  "linkReferences": {},
  "deployedLinkReferences": {}
}