{
  "_format": "hh-sol-artifact-1",
  "contractName": "UsersRegistry",
  "sourceName": "contracts/Moonbeam/Moonbeam/UsersRegistry.sol",
  "abi": [
    {
      "inputs": [],
      "stateMutability": "nonpayable",
      "type": "constructor"
    },
    {
      "inputs": [],
      "name": "admin",
      "outputs": [
        {
          "internalType": "address",
          "name": "",
          "type": "address"
        }
      ],
      "stateMutability": "view",
      "type": "function"
    },
    {
      "inputs": [
        {
          "internalType": "address",
          "name": "_userEVMadddress",
          "type": "address"
        }
      ],
      "name": "getUserChain",
      "outputs": [
        {
          "internalType": "string",
          "name": "",
          "type": "string"
        }
      ],
      "stateMutability": "view",
      "type": "function"
    },
    {
      "inputs": [
        {
          "internalType": "address",
          "name": "",
          "type": "address"
        }
      ],
      "name": "isUserRegistered",
      "outputs": [
        {
          "internalType": "bool",
          "name": "",
          "type": "bool"
        }
      ],
      "stateMutability": "view",
      "type": "function"
    },
    {
      "inputs": [
        {
          "internalType": "address",
          "name": "_userEVMadddress",
          "type": "address"
        },
        {
          "internalType": "string",
          "name": "_userEVMAddressString",
          "type": "string"
        },
        {
          "internalType": "string",
          "name": "_userChain",
          "type": "string"
        },
        {
          "internalType": "string",
          "name": "_userSubstrateAddressString",
          "type": "string"
        },
        {
          "internalType": "string",
          "name": "_userHex",
          "type": "string"
        }
      ],
      "name": "registerUser",
      "outputs": [],
      "stateMutability": "nonpayable",
      "type": "function"
    },
    {
      "inputs": [
        {
          "internalType": "address",
          "name": "",
          "type": "address"
        }
      ],
      "name": "users",
      "outputs": [
        {
          "internalType": "address",
          "name": "userEVMAddress",
          "type": "address"
        },
        {
          "internalType": "string",
          "name": "userEVMAddressString",
          "type": "string"
        },
        {
          "internalType": "string",
          "name": "userChain",
          "type": "string"
        },
        {
          "internalType": "string",
          "name": "userSubstrateAddressString",
          "type": "string"
        },
        {
          "internalType": "string",
          "name": "usererHex",
          "type": "string"
        }
      ],
      "stateMutability": "view",
      "type": "function"
    }
  ],
  "bytecode": "0x608060405234801561001057600080fd5b50336000806101000a81548173ffffffffffffffffffffffffffffffffffffffff021916908373ffffffffffffffffffffffffffffffffffffffff160217905550610de5806100606000396000f3fe608060405234801561001057600080fd5b50600436106100575760003560e01c8063163f75221461005c5780635b48239c1461008c578063999eab2b146100bc578063a87430ba146100d8578063f851a4401461010c575b600080fd5b610076600480360381019061007191906106f9565b61012a565b6040516100839190610741565b60405180910390f35b6100a660048036038101906100a191906106f9565b61014a565b6040516100b391906107ec565b60405180910390f35b6100d660048036038101906100d19190610943565b61021e565b005b6100f260048036038101906100ed91906106f9565b6103ed565b604051610103959493929190610a3d565b60405180910390f35b610114610663565b6040516101219190610aac565b60405180910390f35b60026020528060005260406000206000915054906101000a900460ff1681565b6060600160008373ffffffffffffffffffffffffffffffffffffffff1673ffffffffffffffffffffffffffffffffffffffff168152602001908152602001600020600201805461019990610af6565b80601f01602080910402602001604051908101604052809291908181526020018280546101c590610af6565b80156102125780601f106101e757610100808354040283529160200191610212565b820191906000526020600020905b8154815290600101906020018083116101f557829003601f168201915b50505050509050919050565b600260008673ffffffffffffffffffffffffffffffffffffffff1673ffffffffffffffffffffffffffffffffffffffff16815260200190815260200160002060009054906101000a900460ff166103e6576040518060a001604052808673ffffffffffffffffffffffffffffffffffffffff16815260200185815260200184815260200183815260200182815250600160008773ffffffffffffffffffffffffffffffffffffffff1673ffffffffffffffffffffffffffffffffffffffff16815260200190815260200160002060008201518160000160006101000a81548173ffffffffffffffffffffffffffffffffffffffff021916908373ffffffffffffffffffffffffffffffffffffffff16021790555060208201518160010190816103479190610cdd565b50604082015181600201908161035d9190610cdd565b5060608201518160030190816103739190610cdd565b5060808201518160040190816103899190610cdd565b509050506001600260008773ffffffffffffffffffffffffffffffffffffffff1673ffffffffffffffffffffffffffffffffffffffff16815260200190815260200160002060006101000a81548160ff0219169083151502179055505b5050505050565b60016020528060005260406000206000915090508060000160009054906101000a900473ffffffffffffffffffffffffffffffffffffffff169080600101805461043690610af6565b80601f016020809104026020016040519081016040528092919081815260200182805461046290610af6565b80156104af5780601f10610484576101008083540402835291602001916104af565b820191906000526020600020905b81548152906001019060200180831161049257829003601f168201915b5050505050908060020180546104c490610af6565b80601f01602080910402602001604051908101604052809291908181526020018280546104f090610af6565b801561053d5780601f106105125761010080835404028352916020019161053d565b820191906000526020600020905b81548152906001019060200180831161052057829003601f168201915b50505050509080600301805461055290610af6565b80601f016020809104026020016040519081016040528092919081815260200182805461057e90610af6565b80156105cb5780601f106105a0576101008083540402835291602001916105cb565b820191906000526020600020905b8154815290600101906020018083116105ae57829003601f168201915b5050505050908060040180546105e090610af6565b80601f016020809104026020016040519081016040528092919081815260200182805461060c90610af6565b80156106595780601f1061062e57610100808354040283529160200191610659565b820191906000526020600020905b81548152906001019060200180831161063c57829003601f168201915b5050505050905085565b60008054906101000a900473ffffffffffffffffffffffffffffffffffffffff1681565b6000604051905090565b600080fd5b600080fd5b600073ffffffffffffffffffffffffffffffffffffffff82169050919050565b60006106c68261069b565b9050919050565b6106d6816106bb565b81146106e157600080fd5b50565b6000813590506106f3816106cd565b92915050565b60006020828403121561070f5761070e610691565b5b600061071d848285016106e4565b91505092915050565b60008115159050919050565b61073b81610726565b82525050565b60006020820190506107566000830184610732565b92915050565b600081519050919050565b600082825260208201905092915050565b60005b8381101561079657808201518184015260208101905061077b565b60008484015250505050565b6000601f19601f8301169050919050565b60006107be8261075c565b6107c88185610767565b93506107d8818560208601610778565b6107e1816107a2565b840191505092915050565b6000602082019050818103600083015261080681846107b3565b905092915050565b600080fd5b600080fd5b7f4e487b7100000000000000000000000000000000000000000000000000000000600052604160045260246000fd5b610850826107a2565b810181811067ffffffffffffffff8211171561086f5761086e610818565b5b80604052505050565b6000610882610687565b905061088e8282610847565b919050565b600067ffffffffffffffff8211156108ae576108ad610818565b5b6108b7826107a2565b9050602081019050919050565b82818337600083830152505050565b60006108e66108e184610893565b610878565b90508281526020810184848401111561090257610901610813565b5b61090d8482856108c4565b509392505050565b600082601f83011261092a5761092961080e565b5b813561093a8482602086016108d3565b91505092915050565b600080600080600060a0868803121561095f5761095e610691565b5b600061096d888289016106e4565b955050602086013567ffffffffffffffff81111561098e5761098d610696565b5b61099a88828901610915565b945050604086013567ffffffffffffffff8111156109bb576109ba610696565b5b6109c788828901610915565b935050606086013567ffffffffffffffff8111156109e8576109e7610696565b5b6109f488828901610915565b925050608086013567ffffffffffffffff811115610a1557610a14610696565b5b610a2188828901610915565b9150509295509295909350565b610a37816106bb565b82525050565b600060a082019050610a526000830188610a2e565b8181036020830152610a6481876107b3565b90508181036040830152610a7881866107b3565b90508181036060830152610a8c81856107b3565b90508181036080830152610aa081846107b3565b90509695505050505050565b6000602082019050610ac16000830184610a2e565b92915050565b7f4e487b7100000000000000000000000000000000000000000000000000000000600052602260045260246000fd5b60006002820490506001821680610b0e57607f821691505b602082108103610b2157610b20610ac7565b5b50919050565b60008190508160005260206000209050919050565b60006020601f8301049050919050565b600082821b905092915050565b600060088302610b897fffffffffffffffffffffffffffffffffffffffffffffffffffffffffffffffff82610b4c565b610b938683610b4c565b95508019841693508086168417925050509392505050565b6000819050919050565b6000819050919050565b6000610bda610bd5610bd084610bab565b610bb5565b610bab565b9050919050565b6000819050919050565b610bf483610bbf565b610c08610c0082610be1565b848454610b59565b825550505050565b600090565b610c1d610c10565b610c28818484610beb565b505050565b5b81811015610c4c57610c41600082610c15565b600181019050610c2e565b5050565b601f821115610c9157610c6281610b27565b610c6b84610b3c565b81016020851015610c7a578190505b610c8e610c8685610b3c565b830182610c2d565b50505b505050565b600082821c905092915050565b6000610cb460001984600802610c96565b1980831691505092915050565b6000610ccd8383610ca3565b9150826002028217905092915050565b610ce68261075c565b67ffffffffffffffff811115610cff57610cfe610818565b5b610d098254610af6565b610d14828285610c50565b600060209050601f831160018114610d475760008415610d35578287015190505b610d3f8582610cc1565b865550610da7565b601f198416610d5586610b27565b60005b82811015610d7d57848901518255600182019150602085019450602081019050610d58565b86831015610d9a5784890151610d96601f891682610ca3565b8355505b6001600288020188555050505b50505050505056fea264697066735822122069ad0b0c46087b0b6052fa474d7f99a7599ec5957a27e3484223b6476d8f206364736f6c63430008120033",
  "linkReferences": {},
  "deployedLinkReferences": {}
}