{
  "_format": "hh-sol-artifact-1",
  "contractName": "AxelarBinanceSatelite",
  "sourceName": "contracts/Moonbeam/Binance/AxelarBinanceSatelite.sol",
  "abi": [
    {
      "inputs": [
        {
          "internalType": "address",
          "name": "_gateway",
          "type": "address"
        },
        {
          "internalType": "address",
          "name": "_gasReceiver",
          "type": "address"
        }
      ],
      "stateMutability": "nonpayable",
      "type": "constructor"
    },
    {
      "inputs": [],
      "name": "InvalidAddress",
      "type": "error"
    },
    {
      "inputs": [],
      "name": "NotApprovedByGateway",
      "type": "error"
    },
    {
      "inputs": [],
      "name": "USDC_address",
      "outputs": [
        {
          "internalType": "address",
          "name": "",
          "type": "address"
        }
      ],
      "stateMutability": "view",
      "type": "function"
    },
    {
      "inputs": [],
      "name": "WGLMR_address",
      "outputs": [
        {
          "internalType": "address",
          "name": "",
          "type": "address"
        }
      ],
      "stateMutability": "view",
      "type": "function"
    },
    {
      "inputs": [],
      "name": "admin",
      "outputs": [
        {
          "internalType": "address",
          "name": "",
          "type": "address"
        }
      ],
      "stateMutability": "view",
      "type": "function"
    },
    {
      "inputs": [],
      "name": "axlUSDC",
      "outputs": [
        {
          "internalType": "contract IERC20",
          "name": "",
          "type": "address"
        }
      ],
      "stateMutability": "view",
      "type": "function"
    },
    {
      "inputs": [
        {
          "internalType": "uint256",
          "name": "orderNonce",
          "type": "uint256"
        }
      ],
      "name": "cancelOrderTo_Moonbeam",
      "outputs": [],
      "stateMutability": "payable",
      "type": "function"
    },
    {
      "inputs": [
        {
          "internalType": "bytes32",
          "name": "commandId",
          "type": "bytes32"
        },
        {
          "internalType": "string",
          "name": "sourceChain",
          "type": "string"
        },
        {
          "internalType": "string",
          "name": "sourceAddress",
          "type": "string"
        },
        {
          "internalType": "bytes",
          "name": "payload",
          "type": "bytes"
        }
      ],
      "name": "execute",
      "outputs": [],
      "stateMutability": "nonpayable",
      "type": "function"
    },
    {
      "inputs": [
        {
          "internalType": "bytes32",
          "name": "commandId",
          "type": "bytes32"
        },
        {
          "internalType": "string",
          "name": "sourceChain",
          "type": "string"
        },
        {
          "internalType": "string",
          "name": "sourceAddress",
          "type": "string"
        },
        {
          "internalType": "bytes",
          "name": "payload",
          "type": "bytes"
        },
        {
          "internalType": "string",
          "name": "tokenSymbol",
          "type": "string"
        },
        {
          "internalType": "uint256",
          "name": "amount",
          "type": "uint256"
        }
      ],
      "name": "executeWithToken",
      "outputs": [],
      "stateMutability": "nonpayable",
      "type": "function"
    },
    {
      "inputs": [],
      "name": "executionOrdersEngineFromBinanceInMoomnbeam_address",
      "outputs": [
        {
          "internalType": "string",
          "name": "",
          "type": "string"
        }
      ],
      "stateMutability": "view",
      "type": "function"
    },
    {
      "inputs": [],
      "name": "financeOrdersTo_Delete",
      "outputs": [],
      "stateMutability": "payable",
      "type": "function"
    },
    {
      "inputs": [],
      "name": "financeOrdersTo_Execute",
      "outputs": [],
      "stateMutability": "payable",
      "type": "function"
    },
    {
      "inputs": [
        {
          "internalType": "uint256",
          "name": "",
          "type": "uint256"
        }
      ],
      "name": "finance_OrderOwnerAddresses",
      "outputs": [
        {
          "internalType": "address",
          "name": "",
          "type": "address"
        }
      ],
      "stateMutability": "view",
      "type": "function"
    },
    {
      "inputs": [
        {
          "internalType": "uint256",
          "name": "",
          "type": "uint256"
        }
      ],
      "name": "finance_OrderSizes",
      "outputs": [
        {
          "internalType": "uint256",
          "name": "",
          "type": "uint256"
        }
      ],
      "stateMutability": "view",
      "type": "function"
    },
    {
      "inputs": [
        {
          "internalType": "uint256",
          "name": "",
          "type": "uint256"
        }
      ],
      "name": "finance_Order_Nonces_ToDelete",
      "outputs": [
        {
          "internalType": "uint256",
          "name": "",
          "type": "uint256"
        }
      ],
      "stateMutability": "view",
      "type": "function"
    },
    {
      "inputs": [
        {
          "internalType": "uint256",
          "name": "",
          "type": "uint256"
        }
      ],
      "name": "finance_Order_Nonces_ToSend",
      "outputs": [
        {
          "internalType": "uint256",
          "name": "",
          "type": "uint256"
        }
      ],
      "stateMutability": "view",
      "type": "function"
    },
    {
      "inputs": [
        {
          "internalType": "uint256",
          "name": "",
          "type": "uint256"
        }
      ],
      "name": "finance_Order_Owners_ToSend",
      "outputs": [
        {
          "internalType": "address",
          "name": "",
          "type": "address"
        }
      ],
      "stateMutability": "view",
      "type": "function"
    },
    {
      "inputs": [
        {
          "internalType": "uint256",
          "name": "",
          "type": "uint256"
        }
      ],
      "name": "finance_Order_Sizes_ToSend",
      "outputs": [
        {
          "internalType": "uint256",
          "name": "",
          "type": "uint256"
        }
      ],
      "stateMutability": "view",
      "type": "function"
    },
    {
      "inputs": [
        {
          "internalType": "uint256",
          "name": "",
          "type": "uint256"
        }
      ],
      "name": "finance_orderNonces",
      "outputs": [
        {
          "internalType": "uint256",
          "name": "",
          "type": "uint256"
        }
      ],
      "stateMutability": "view",
      "type": "function"
    },
    {
      "inputs": [],
      "name": "gasService",
      "outputs": [
        {
          "internalType": "contract IAxelarGasService",
          "name": "",
          "type": "address"
        }
      ],
      "stateMutability": "view",
      "type": "function"
    },
    {
      "inputs": [],
      "name": "gateway",
      "outputs": [
        {
          "internalType": "contract IAxelarGateway",
          "name": "",
          "type": "address"
        }
      ],
      "stateMutability": "view",
      "type": "function"
    },
    {
      "inputs": [],
      "name": "getOurTokensOut",
      "outputs": [],
      "stateMutability": "nonpayable",
      "type": "function"
    },
    {
      "inputs": [],
      "name": "get_finance_OrderOwnerAddresses",
      "outputs": [
        {
          "internalType": "address[]",
          "name": "",
          "type": "address[]"
        }
      ],
      "stateMutability": "view",
      "type": "function"
    },
    {
      "inputs": [],
      "name": "get_finance_OrderSizes",
      "outputs": [
        {
          "internalType": "uint256[]",
          "name": "",
          "type": "uint256[]"
        }
      ],
      "stateMutability": "view",
      "type": "function"
    },
    {
      "inputs": [],
      "name": "get_finance_Order_Nonces_ToDelete",
      "outputs": [
        {
          "internalType": "uint256[]",
          "name": "",
          "type": "uint256[]"
        }
      ],
      "stateMutability": "view",
      "type": "function"
    },
    {
      "inputs": [],
      "name": "get_finance_Order_Nonces_ToSend",
      "outputs": [
        {
          "internalType": "uint256[]",
          "name": "",
          "type": "uint256[]"
        }
      ],
      "stateMutability": "view",
      "type": "function"
    },
    {
      "inputs": [],
      "name": "get_finance_Order_Owners_ToSend",
      "outputs": [
        {
          "internalType": "address[]",
          "name": "",
          "type": "address[]"
        }
      ],
      "stateMutability": "view",
      "type": "function"
    },
    {
      "inputs": [],
      "name": "get_finance_Order_Sizes_ToSend",
      "outputs": [
        {
          "internalType": "uint256[]",
          "name": "",
          "type": "uint256[]"
        }
      ],
      "stateMutability": "view",
      "type": "function"
    },
    {
      "inputs": [],
      "name": "get_finance_orderNonces",
      "outputs": [
        {
          "internalType": "uint256[]",
          "name": "",
          "type": "uint256[]"
        }
      ],
      "stateMutability": "view",
      "type": "function"
    },
    {
      "inputs": [],
      "name": "get_received_order_Nonces",
      "outputs": [
        {
          "internalType": "uint256[]",
          "name": "",
          "type": "uint256[]"
        }
      ],
      "stateMutability": "view",
      "type": "function"
    },
    {
      "inputs": [],
      "name": "get_received_order_OwnerAddresses",
      "outputs": [
        {
          "internalType": "address[]",
          "name": "",
          "type": "address[]"
        }
      ],
      "stateMutability": "view",
      "type": "function"
    },
    {
      "inputs": [],
      "name": "get_received_order_Sizes",
      "outputs": [
        {
          "internalType": "uint256[]",
          "name": "",
          "type": "uint256[]"
        }
      ],
      "stateMutability": "view",
      "type": "function"
    },
    {
      "inputs": [],
      "name": "received_messageCode",
      "outputs": [
        {
          "internalType": "uint256",
          "name": "",
          "type": "uint256"
        }
      ],
      "stateMutability": "view",
      "type": "function"
    },
    {
      "inputs": [
        {
          "internalType": "uint256",
          "name": "",
          "type": "uint256"
        }
      ],
      "name": "received_order_Nonces",
      "outputs": [
        {
          "internalType": "uint256",
          "name": "",
          "type": "uint256"
        }
      ],
      "stateMutability": "view",
      "type": "function"
    },
    {
      "inputs": [
        {
          "internalType": "uint256",
          "name": "",
          "type": "uint256"
        }
      ],
      "name": "received_order_OwnerAddresses",
      "outputs": [
        {
          "internalType": "address",
          "name": "",
          "type": "address"
        }
      ],
      "stateMutability": "view",
      "type": "function"
    },
    {
      "inputs": [
        {
          "internalType": "uint256",
          "name": "",
          "type": "uint256"
        }
      ],
      "name": "received_order_Sizes",
      "outputs": [
        {
          "internalType": "uint256",
          "name": "",
          "type": "uint256"
        }
      ],
      "stateMutability": "view",
      "type": "function"
    },
    {
      "inputs": [],
      "name": "requestOrderAXLUSDCfinancing",
      "outputs": [],
      "stateMutability": "nonpayable",
      "type": "function"
    },
    {
      "inputs": [],
      "name": "satelite_Moonbeam_address",
      "outputs": [
        {
          "internalType": "string",
          "name": "",
          "type": "string"
        }
      ],
      "stateMutability": "view",
      "type": "function"
    },
    {
      "inputs": [
        {
          "internalType": "string",
          "name": "destinationChain",
          "type": "string"
        },
        {
          "internalType": "string",
          "name": "destinationAddress",
          "type": "string"
        },
        {
          "internalType": "bytes",
          "name": "payload",
          "type": "bytes"
        }
      ],
      "name": "sendMessage",
      "outputs": [],
      "stateMutability": "payable",
      "type": "function"
    },
    {
      "inputs": [
        {
          "internalType": "string",
          "name": "destinationChain",
          "type": "string"
        },
        {
          "internalType": "string",
          "name": "destinationAddress",
          "type": "string"
        },
        {
          "internalType": "uint256",
          "name": "_messageCode",
          "type": "uint256"
        },
        {
          "internalType": "uint256[]",
          "name": "_orderNonces",
          "type": "uint256[]"
        },
        {
          "internalType": "address[]",
          "name": "_destinationAddresses",
          "type": "address[]"
        },
        {
          "internalType": "uint256[]",
          "name": "_destinationAmounts",
          "type": "uint256[]"
        },
        {
          "internalType": "string",
          "name": "symbol",
          "type": "string"
        },
        {
          "internalType": "uint256",
          "name": "amount",
          "type": "uint256"
        }
      ],
      "name": "sendToMany",
      "outputs": [],
      "stateMutability": "payable",
      "type": "function"
    },
    {
      "inputs": [
        {
          "internalType": "address",
          "name": "_satelite_Moonbeam_address",
          "type": "address"
        },
        {
          "internalType": "address",
          "name": "_executionOrdersEngineFromBinanceInMoomnbeam_address",
          "type": "address"
        }
      ],
      "name": "set_MoonbeamSatelite",
      "outputs": [],
      "stateMutability": "nonpayable",
      "type": "function"
    },
    {
      "inputs": [],
      "name": "sourceAddress",
      "outputs": [
        {
          "internalType": "string",
          "name": "",
          "type": "string"
        }
      ],
      "stateMutability": "view",
      "type": "function"
    },
    {
      "inputs": [],
      "name": "sourceChain",
      "outputs": [
        {
          "internalType": "string",
          "name": "",
          "type": "string"
        }
      ],
      "stateMutability": "view",
      "type": "function"
    },
    {
      "inputs": [
        {
          "internalType": "address",
          "name": "tokenIn",
          "type": "address"
        },
        {
          "internalType": "address",
          "name": "tokenOut",
          "type": "address"
        },
        {
          "internalType": "uint256",
          "name": "limit_price",
          "type": "uint256"
        },
        {
          "internalType": "uint256",
          "name": "stop_price",
          "type": "uint256"
        },
        {
          "internalType": "uint256",
          "name": "size",
          "type": "uint256"
        },
        {
          "internalType": "uint256",
          "name": "num_Ofsplits",
          "type": "uint256"
        },
        {
          "internalType": "uint256",
          "name": "order_type",
          "type": "uint256"
        },
        {
          "internalType": "uint256",
          "name": "_dcaBlockInterval",
          "type": "uint256"
        }
      ],
      "name": "submitOrderTo_Moonbeam",
      "outputs": [],
      "stateMutability": "payable",
      "type": "function"
    },
    {
      "inputs": [],
      "name": "totalAmountToSend",
      "outputs": [
        {
          "internalType": "uint256",
          "name": "",
          "type": "uint256"
        }
      ],
      "stateMutability": "view",
      "type": "function"
    },
    {
      "inputs": [],
      "name": "xcASTR_address",
      "outputs": [
        {
          "internalType": "address",
          "name": "",
          "type": "address"
        }
      ],
      "stateMutability": "view",
      "type": "function"
    },
    {
      "inputs": [],
      "name": "xcDOT_address",
      "outputs": [
        {
          "internalType": "address",
          "name": "",
          "type": "address"
        }
      ],
      "stateMutability": "view",
      "type": "function"
    }
  ],
  "bytecode": "0x60c06040523480156200001157600080fd5b5060405162004d9138038062004d918339818101604052810190620000379190620001bb565b81600073ffffffffffffffffffffffffffffffffffffffff168173ffffffffffffffffffffffffffffffffffffffff16036200009f576040517fe6c4247b00000000000000000000000000000000000000000000000000000000815260040160405180910390fd5b8073ffffffffffffffffffffffffffffffffffffffff1660808173ffffffffffffffffffffffffffffffffffffffff16815250505033600260006101000a81548173ffffffffffffffffffffffffffffffffffffffff021916908373ffffffffffffffffffffffffffffffffffffffff1602179055508073ffffffffffffffffffffffffffffffffffffffff1660a08173ffffffffffffffffffffffffffffffffffffffff1681525050505062000202565b600080fd5b600073ffffffffffffffffffffffffffffffffffffffff82169050919050565b6000620001838262000156565b9050919050565b620001958162000176565b8114620001a157600080fd5b50565b600081519050620001b5816200018a565b92915050565b60008060408385031215620001d557620001d462000151565b5b6000620001e585828601620001a4565b9250506020620001f885828601620001a4565b9150509250929050565b60805160a051614b2a620002676000396000818161191701528181611bb70152611fdd015260008181610b7d01528181610bbd01528181611415015281816116bf01528181611c4c01528181611e6f01528181611f2701526120760152614b2a6000f3fe6080604052600436106102725760003560e01c8063808693481161014f578063cc2db7ce116100c1578063e55d61761161007a578063e55d6176146108d6578063f12522b914610913578063f851a44014610950578063f990c77c1461097b578063f9abd26c146109a6578063fbe89283146109d157610272565b8063cc2db7ce14610804578063cc42104f1461082f578063d6a00ac91461085a578063df9db28b14610864578063e322f9ab1461088f578063e3572803146108cc57610272565b8063b0f99f9711610113578063b0f99f97146106ff578063b0fa84441461072a578063b3e264ac14610755578063bb013d5b14610780578063c142c610146107bd578063c3c51608146107d957610272565b8063808693481461061357806381737028146106505780638c3a42711461066c57806398bf0ffb146106975780639d5ad8b1146106c257610272565b80633fb14a21116101e85780636067433b116101ac5780636067433b146105205780636a22d8cc1461054b5780636ccf3ac21461057657806371a78971146105a1578063760f5aa7146105cc5780637baf1a6c146105e857610272565b80633fb14a21146104275780634916065814610452578063530483fa1461047b5780635d2b9f87146104b85780635fe91dfa146104e357610272565b80631fdeff341161023a5780631fdeff341461033d5780632a5d581a1461037a57806333ebe5be146103a5578063341092b1146103bc5780633d8765c2146103e55780633f8e8c27146103fc57610272565b806307a65c2a14610277578063101a727814610293578063116191b6146102be5780631a98b2e0146102e95780631c6ffa4614610312575b600080fd5b610291600480360381019061028c9190612e9b565b610a0e565b005b34801561029f57600080fd5b506102a8610b23565b6040516102b5919061300f565b60405180910390f35b3480156102ca57600080fd5b506102d3610b7b565b6040516102e09190613090565b60405180910390f35b3480156102f557600080fd5b50610310600480360381019061030b919061319c565b610b9f565b005b34801561031e57600080fd5b50610327610cbb565b604051610334919061333c565b60405180910390f35b34801561034957600080fd5b50610364600480360381019061035f919061335e565b610d49565b604051610371919061339a565b60405180910390f35b34801561038657600080fd5b5061038f610d6d565b60405161039c9190613473565b60405180910390f35b3480156103b157600080fd5b506103ba610dfb565b005b3480156103c857600080fd5b506103e360048036038101906103de9190613495565b611325565b005b3480156103f157600080fd5b506103fa6114f3565b005b34801561040857600080fd5b50610411611631565b60405161041e91906134e4565b60405180910390f35b34801561043357600080fd5b5061043c611649565b604051610449919061300f565b60405180910390f35b34801561045e57600080fd5b50610479600480360381019061047491906134ff565b6116a1565b005b34801561048757600080fd5b506104a2600480360381019061049d919061335e565b6117b1565b6040516104af91906134e4565b60405180910390f35b3480156104c457600080fd5b506104cd6117f0565b6040516104da919061300f565b60405180910390f35b3480156104ef57600080fd5b5061050a6004803603810190610505919061335e565b611848565b60405161051791906134e4565b60405180910390f35b34801561052c57600080fd5b50610535611887565b6040516105429190613473565b60405180910390f35b34801561055757600080fd5b50610560611915565b60405161056d91906135e9565b60405180910390f35b34801561058257600080fd5b5061058b611939565b604051610598919061300f565b60405180910390f35b3480156105ad57600080fd5b506105b6611991565b6040516105c3919061300f565b60405180910390f35b6105e660048036038101906105e1919061335e565b6119e9565b005b3480156105f457600080fd5b506105fd611afa565b60405161060a9190613473565b60405180910390f35b34801561061f57600080fd5b5061063a6004803603810190610635919061335e565b611b88565b604051610647919061339a565b60405180910390f35b61066a600480360381019061066591906137d5565b611bac565b005b34801561067857600080fd5b50610681611cde565b60405161068e919061389d565b60405180910390f35b3480156106a357600080fd5b506106ac611d04565b6040516106b991906134e4565b60405180910390f35b3480156106ce57600080fd5b506106e960048036038101906106e4919061335e565b611d1c565b6040516106f691906134e4565b60405180910390f35b34801561070b57600080fd5b50610714611d5b565b604051610721919061339a565b60405180910390f35b34801561073657600080fd5b5061073f611d61565b60405161074c919061333c565b60405180910390f35b34801561076157600080fd5b5061076a611def565b604051610777919061300f565b60405180910390f35b34801561078c57600080fd5b506107a760048036038101906107a2919061335e565b611e47565b6040516107b4919061339a565b60405180910390f35b6107d760048036038101906107d29190613a3e565b611e6b565b005b3480156107e557600080fd5b506107ee612113565b6040516107fb919061339a565b60405180910390f35b34801561081057600080fd5b50610819612119565b60405161082691906134e4565b60405180910390f35b34801561083b57600080fd5b50610844612131565b604051610851919061333c565b60405180910390f35b6108626121bf565b005b34801561087057600080fd5b506108796122c3565b604051610886919061300f565b60405180910390f35b34801561089b57600080fd5b506108b660048036038101906108b1919061335e565b61231b565b6040516108c3919061339a565b60405180910390f35b6108d461233f565b005b3480156108e257600080fd5b506108fd60048036038101906108f8919061335e565b6125a7565b60405161090a919061339a565b60405180910390f35b34801561091f57600080fd5b5061093a6004803603810190610935919061335e565b6125cb565b604051610947919061339a565b60405180910390f35b34801561095c57600080fd5b506109656125ef565b60405161097291906134e4565b60405180910390f35b34801561098757600080fd5b50610990612615565b60405161099d919061333c565b60405180910390f35b3480156109b257600080fd5b506109bb6126a3565b6040516109c891906134e4565b60405180910390f35b3480156109dd57600080fd5b506109f860048036038101906109f3919061335e565b6126bb565b604051610a05919061339a565b60405180910390f35b6000600190506000816000338c8c8c8c8c8c8c8c604051602001610a3c9b9a99989796959493929190613be4565b6040516020818303038152906040529050610b176040518060400160405280600881526020017f4d6f6f6e6265616d00000000000000000000000000000000000000000000000081525060008054610a9390613cbe565b80601f0160208091040260200160405190810160405280929190818152602001828054610abf90613cbe565b8015610b0c5780601f10610ae157610100808354040283529160200191610b0c565b820191906000526020600020905b815481529060010190602001808311610aef57829003601f168201915b505050505083611bac565b50505050505050505050565b6060600b805480602002602001604051908101604052809291908181526020018280548015610b7157602002820191906000526020600020905b815481526020019060010190808311610b5d575b5050505050905090565b7f000000000000000000000000000000000000000000000000000000000000000081565b60008585604051610bb1929190613d1f565b604051809103902090507f000000000000000000000000000000000000000000000000000000000000000073ffffffffffffffffffffffffffffffffffffffff16631876eed98c8c8c8c8c878b8b8b6040518a63ffffffff1660e01b8152600401610c2499989796959493929190613d74565b6020604051808303816000875af1158015610c43573d6000803e3d6000fd5b505050506040513d601f19601f82011682018060405250810190610c679190613e28565b610c9d576040517f500c44b400000000000000000000000000000000000000000000000000000000815260040160405180910390fd5b610cae8a8a8a8a8a8a8a8a8a6126df565b5050505050505050505050565b600c8054610cc890613cbe565b80601f0160208091040260200160405190810160405280929190818152602001828054610cf490613cbe565b8015610d415780601f10610d1657610100808354040283529160200191610d41565b820191906000526020600020905b815481529060010190602001808311610d2457829003601f168201915b505050505081565b60118181548110610d5957600080fd5b906000526020600020016000915090505481565b60606005805480602002602001604051908101604052809291908181526020018280548015610df157602002820191906000526020600020905b8160009054906101000a900473ffffffffffffffffffffffffffffffffffffffff1673ffffffffffffffffffffffffffffffffffffffff1681526020019060010190808311610da7575b5050505050905090565b6000600480549050111561132357600060078190555060005b6004805490508110156112f7576000600360009054906101000a900473ffffffffffffffffffffffffffffffffffffffff1673ffffffffffffffffffffffffffffffffffffffff1663dd62ed3e60058481548110610e7557610e74613e55565b5b9060005260206000200160009054906101000a900473ffffffffffffffffffffffffffffffffffffffff16306040518363ffffffff1660e01b8152600401610ebe929190613e84565b602060405180830381865afa158015610edb573d6000803e3d6000fd5b505050506040513d601f19601f82011682018060405250810190610eff9190613ec2565b90506000600360009054906101000a900473ffffffffffffffffffffffffffffffffffffffff1673ffffffffffffffffffffffffffffffffffffffff166370a0823160058581548110610f5557610f54613e55565b5b9060005260206000200160009054906101000a900473ffffffffffffffffffffffffffffffffffffffff166040518263ffffffff1660e01b8152600401610f9c91906134e4565b602060405180830381865afa158015610fb9573d6000803e3d6000fd5b505050506040513d601f19601f82011682018060405250810190610fdd9190613ec2565b905060068381548110610ff357610ff2613e55565b5b9060005260206000200154821015801561102b57506006838154811061101c5761101b613e55565b5b90600052602060002001548110155b1561129a57600360009054906101000a900473ffffffffffffffffffffffffffffffffffffffff1673ffffffffffffffffffffffffffffffffffffffff166323b872dd6005858154811061108257611081613e55565b5b9060005260206000200160009054906101000a900473ffffffffffffffffffffffffffffffffffffffff1630600687815481106110c2576110c1613e55565b5b90600052602060002001546040518463ffffffff1660e01b81526004016110eb93929190613eef565b6020604051808303816000875af115801561110a573d6000803e3d6000fd5b505050506040513d601f19601f8201168201806040525081019061112e9190613e28565b506006838154811061114357611142613e55565b5b90600052602060002001546007600082825461115f9190613f55565b9250508190555060086004848154811061117c5761117b613e55565b5b90600052602060002001549080600181540180825580915050600190039060005260206000200160009091909190915055600a600584815481106111c3576111c2613e55565b5b9060005260206000200160009054906101000a900473ffffffffffffffffffffffffffffffffffffffff169080600181540180825580915050600190039060005260206000200160009091909190916101000a81548173ffffffffffffffffffffffffffffffffffffffff021916908373ffffffffffffffffffffffffffffffffffffffff16021790555060096006848154811061126457611263613e55565b5b906000526020600020015490806001815401808255809150506001900390600052602060002001600090919091909150556112e2565b600b600484815481106112b0576112af613e55565b5b906000526020600020015490806001815401808255809150506001900390600052602060002001600090919091909150555b505080806112ef90613f89565b915050610e14565b50600460006113069190612cbd565b600560006113149190612cde565b600660006113229190612cbd565b5b565b600260009054906101000a900473ffffffffffffffffffffffffffffffffffffffff1673ffffffffffffffffffffffffffffffffffffffff163373ffffffffffffffffffffffffffffffffffffffff16146113b5576040517f08c379a00000000000000000000000000000000000000000000000000000000081526004016113ac9061401d565b60405180910390fd5b6113d48273ffffffffffffffffffffffffffffffffffffffff166127d5565b600090816113e291906141df565b506114028173ffffffffffffffffffffffffffffffffffffffff166127d5565b6001908161141091906141df565b5060007f000000000000000000000000000000000000000000000000000000000000000073ffffffffffffffffffffffffffffffffffffffff1663935b13f66040518163ffffffff1660e01b815260040161146a906142fd565b602060405180830381865afa158015611487573d6000803e3d6000fd5b505050506040513d601f19601f820116820180604052508101906114ab9190614332565b905080600360006101000a81548173ffffffffffffffffffffffffffffffffffffffff021916908373ffffffffffffffffffffffffffffffffffffffff160217905550505050565b600360009054906101000a900473ffffffffffffffffffffffffffffffffffffffff1673ffffffffffffffffffffffffffffffffffffffff1663a9059cbb33600360009054906101000a900473ffffffffffffffffffffffffffffffffffffffff1673ffffffffffffffffffffffffffffffffffffffff166370a08231306040518263ffffffff1660e01b815260040161158d91906134e4565b602060405180830381865afa1580156115aa573d6000803e3d6000fd5b505050506040513d601f19601f820116820180604052508101906115ce9190613ec2565b6040518363ffffffff1660e01b81526004016115eb92919061435f565b6020604051808303816000875af115801561160a573d6000803e3d6000fd5b505050506040513d601f19601f8201168201806040525081019061162e9190613e28565b50565b73ffffffffa893ad19e540e172c10d78d4d479b5cf81565b6060601180548060200260200160405190810160405280929190818152602001828054801561169757602002820191906000526020600020905b815481526020019060010190808311611683575b5050505050905090565b600082826040516116b3929190613d1f565b604051809103902090507f000000000000000000000000000000000000000000000000000000000000000073ffffffffffffffffffffffffffffffffffffffff16635f6970c38989898989876040518763ffffffff1660e01b815260040161172096959493929190614388565b6020604051808303816000875af115801561173f573d6000803e3d6000fd5b505050506040513d601f19601f820116820180604052508101906117639190613e28565b611799576040517f500c44b400000000000000000000000000000000000000000000000000000000815260040160405180910390fd5b6117a7878787878787612af8565b5050505050505050565b601081815481106117c157600080fd5b906000526020600020016000915054906101000a900473ffffffffffffffffffffffffffffffffffffffff1681565b6060600f80548060200260200160405190810160405280929190818152602001828054801561183e57602002820191906000526020600020905b81548152602001906001019080831161182a575b5050505050905090565b6005818154811061185857600080fd5b906000526020600020016000915054906101000a900473ffffffffffffffffffffffffffffffffffffffff1681565b6060601080548060200260200160405190810160405280929190818152602001828054801561190b57602002820191906000526020600020905b8160009054906101000a900473ffffffffffffffffffffffffffffffffffffffff1673ffffffffffffffffffffffffffffffffffffffff16815260200190600101908083116118c1575b5050505050905090565b7f000000000000000000000000000000000000000000000000000000000000000081565b6060600680548060200260200160405190810160405280929190818152602001828054801561198757602002820191906000526020600020905b815481526020019060010190808311611973575b5050505050905090565b606060098054806020026020016040519081016040528092919081815260200182805480156119df57602002820191906000526020600020905b8154815260200190600101908083116119cb575b5050505050905090565b6000600290506000818333600080600080600080600080604051602001611a1a9b9a999897969594939291906143df565b6040516020818303038152906040529050611af56040518060400160405280600881526020017f4d6f6f6e6265616d00000000000000000000000000000000000000000000000081525060008054611a7190613cbe565b80601f0160208091040260200160405190810160405280929190818152602001828054611a9d90613cbe565b8015611aea5780601f10611abf57610100808354040283529160200191611aea565b820191906000526020600020905b815481529060010190602001808311611acd57829003601f168201915b505050505083611bac565b505050565b6060600a805480602002602001604051908101604052809291908181526020018280548015611b7e57602002820191906000526020600020905b8160009054906101000a900473ffffffffffffffffffffffffffffffffffffffff1673ffffffffffffffffffffffffffffffffffffffff1681526020019060010190808311611b34575b5050505050905090565b600f8181548110611b9857600080fd5b906000526020600020016000915090505481565b6000341115611c4a577f000000000000000000000000000000000000000000000000000000000000000073ffffffffffffffffffffffffffffffffffffffff16630c93e3bb3430868686336040518763ffffffff1660e01b8152600401611c179594939291906144df565b6000604051808303818588803b158015611c3057600080fd5b505af1158015611c44573d6000803e3d6000fd5b50505050505b7f000000000000000000000000000000000000000000000000000000000000000073ffffffffffffffffffffffffffffffffffffffff16631c92115f8484846040518463ffffffff1660e01b8152600401611ca793929190614547565b600060405180830381600087803b158015611cc157600080fd5b505af1158015611cd5573d6000803e3d6000fd5b50505050505050565b600360009054906101000a900473ffffffffffffffffffffffffffffffffffffffff1681565b73ffffffff1fcacbd218edc0eba20fc2308c77808081565b600a8181548110611d2c57600080fd5b906000526020600020016000915054906101000a900473ffffffffffffffffffffffffffffffffffffffff1681565b60075481565b600d8054611d6e90613cbe565b80601f0160208091040260200160405190810160405280929190818152602001828054611d9a90613cbe565b8015611de75780601f10611dbc57610100808354040283529160200191611de7565b820191906000526020600020905b815481529060010190602001808311611dca57829003601f168201915b505050505081565b60606004805480602002602001604051908101604052809291908181526020018280548015611e3d57602002820191906000526020600020905b815481526020019060010190808311611e29575b5050505050905090565b60088181548110611e5757600080fd5b906000526020600020016000915090505481565b60007f000000000000000000000000000000000000000000000000000000000000000073ffffffffffffffffffffffffffffffffffffffff1663935b13f6846040518263ffffffff1660e01b8152600401611ec6919061333c565b602060405180830381865afa158015611ee3573d6000803e3d6000fd5b505050506040513d601f19601f82011682018060405250810190611f079190614332565b90508073ffffffffffffffffffffffffffffffffffffffff1663095ea7b37f0000000000000000000000000000000000000000000000000000000000000000846040518363ffffffff1660e01b8152600401611f6492919061435f565b6020604051808303816000875af1158015611f83573d6000803e3d6000fd5b505050506040513d601f19601f82011682018060405250810190611fa79190613e28565b50600087878787604051602001611fc19493929190614593565b60405160208183030381529060405290506000341115612074577f000000000000000000000000000000000000000000000000000000000000000073ffffffffffffffffffffffffffffffffffffffff1663c62c200234308d8d868a8a336040518963ffffffff1660e01b815260040161204197969594939291906145ed565b6000604051808303818588803b15801561205a57600080fd5b505af115801561206e573d6000803e3d6000fd5b50505050505b7f000000000000000000000000000000000000000000000000000000000000000073ffffffffffffffffffffffffffffffffffffffff1663b54170848b8b8488886040518663ffffffff1660e01b81526004016120d5959493929190614678565b600060405180830381600087803b1580156120ef57600080fd5b505af1158015612103573d6000803e3d6000fd5b5050505050505050505050505050565b600e5481565b73acc15dc74880c9944775448304b263d191c6077f81565b6000805461213e90613cbe565b80601f016020809104026020016040519081016040528092919081815260200182805461216a90613cbe565b80156121b75780601f1061218c576101008083540402835291602001916121b7565b820191906000526020600020905b81548152906001019060200180831161219a57829003601f168201915b505050505081565b6000600b8054905011156122c15760006004600b6040516020016121e49291906147f8565b60405160208183030381529060405290506122bf6040518060400160405280600881526020017f4d6f6f6e6265616d0000000000000000000000000000000000000000000000008152506001805461223b90613cbe565b80601f016020809104026020016040519081016040528092919081815260200182805461226790613cbe565b80156122b45780601f10612289576101008083540402835291602001916122b4565b820191906000526020600020905b81548152906001019060200180831161229757829003601f168201915b505050505083611bac565b505b565b6060600880548060200260200160405190810160405280929190818152602001828054801561231157602002820191906000526020600020905b8154815260200190600101908083116122fd575b5050505050905090565b6009818154811061232b57600080fd5b906000526020600020016000915090505481565b600060088054905011156125a55761257a6040518060400160405280600881526020017f4d6f6f6e6265616d0000000000000000000000000000000000000000000000008152506001805461239390613cbe565b80601f01602080910402602001604051908101604052809291908181526020018280546123bf90613cbe565b801561240c5780601f106123e15761010080835404028352916020019161240c565b820191906000526020600020905b8154815290600101906020018083116123ef57829003601f168201915b50505050506004600880548060200260200160405190810160405280929190818152602001828054801561245f57602002820191906000526020600020905b81548152602001906001019080831161244b575b5050505050600a8054806020026020016040519081016040528092919081815260200182805480156124e657602002820191906000526020600020905b8160009054906101000a900473ffffffffffffffffffffffffffffffffffffffff1673ffffffffffffffffffffffffffffffffffffffff168152602001906001019080831161249c575b5050505050600980548060200260200160405190810160405280929190818152602001828054801561253757602002820191906000526020600020905b815481526020019060010190808311612523575b50505050506040518060400160405280600781526020017f61786c5553444300000000000000000000000000000000000000000000000000815250600754611e6b565b600860006125889190612cbd565b600a60006125969190612cde565b600960006125a49190612cbd565b5b565b600681815481106125b757600080fd5b906000526020600020016000915090505481565b600b81815481106125db57600080fd5b906000526020600020016000915090505481565b600260009054906101000a900473ffffffffffffffffffffffffffffffffffffffff1681565b6001805461262290613cbe565b80601f016020809104026020016040519081016040528092919081815260200182805461264e90613cbe565b801561269b5780601f106126705761010080835404028352916020019161269b565b820191906000526020600020905b81548152906001019060200180831161267e57829003601f168201915b505050505081565b73931715fee2d06333043d11f658c8ce934ac61d0c81565b600481815481106126cb57600080fd5b906000526020600020016000915090505481565b8888600c91826126f0929190614833565b508686600d9182612702929190614833565b50600080600087878101906127179190614941565b925092509250600583036127c757600360009054906101000a900473ffffffffffffffffffffffffffffffffffffffff1673ffffffffffffffffffffffffffffffffffffffff1663a9059cbb83836040518363ffffffff1660e01b815260040161278292919061435f565b6020604051808303816000875af11580156127a1573d6000803e3d6000fd5b505050506040513d601f19601f820116820180604052508101906127c59190613e28565b505b505050505050505050505050565b60606000826040516020016127ea91906149dc565b604051602081830303815290604052905060008151905060006040518060400160405280601081526020017f3031323334353637383961626364656600000000000000000000000000000000815250905060006002845161284b91906149f7565b60026128579190613f55565b67ffffffffffffffff8111156128705761286f613609565b5b6040519080825280601f01601f1916602001820160405280156128a25781602001600182028036833780820191505090505b5090507f3000000000000000000000000000000000000000000000000000000000000000816000815181106128da576128d9613e55565b5b60200101907effffffffffffffffffffffffffffffffffffffffffffffffffffffffffffff1916908160001a9053507f78000000000000000000000000000000000000000000000000000000000000008160018151811061293e5761293d613e55565b5b60200101907effffffffffffffffffffffffffffffffffffffffffffffffffffffffffffff1916908160001a90535060005b83811015612aeb5782600486838151811061298e5761298d613e55565b5b602001015160f81c60f81b7effffffffffffffffffffffffffffffffffffffffffffffffffffffffffffff1916901c60f81c60ff16815181106129d4576129d3613e55565b5b602001015160f81c60f81b826002836129ed91906149f7565b60026129f99190613f55565b81518110612a0a57612a09613e55565b5b60200101907effffffffffffffffffffffffffffffffffffffffffffffffffffffffffffff1916908160001a90535082600f60f81b868381518110612a5257612a51613e55565b5b602001015160f81c60f81b1660f81c60ff1681518110612a7557612a74613e55565b5b602001015160f81c60f81b82600283612a8e91906149f7565b6003612a9a9190613f55565b81518110612aab57612aaa613e55565b5b60200101907effffffffffffffffffffffffffffffffffffffffffffffffffffffffffffff1916908160001a90535080612ae490613f89565b9050612970565b5080945050505050919050565b8585600c9182612b09929190614833565b508383600d9182612b1b929190614833565b506000806000808585810190612b319190614a39565b935093509350935060038403612c655760005b8351811015612c63576004848281518110612b6257612b61613e55565b5b602002602001015190806001815401808255809150506001900390600052602060002001600090919091909150556005838281518110612ba557612ba4613e55565b5b60200260200101519080600181540180825580915050600190039060005260206000200160009091909190916101000a81548173ffffffffffffffffffffffffffffffffffffffff021916908373ffffffffffffffffffffffffffffffffffffffff1602179055506006828281518110612c2257612c21613e55565b5b602002602001015190806001815401808255809150506001900390600052602060002001600090919091909150558080612c5b90613f89565b915050612b44565b505b83600e8190555082600f9080519060200190612c82929190612cff565b508160109080519060200190612c99929190612d4c565b508060119080519060200190612cb0929190612cff565b5050505050505050505050565b5080546000825590600052602060002090810190612cdb9190612dd6565b50565b5080546000825590600052602060002090810190612cfc9190612dd6565b50565b828054828255906000526020600020908101928215612d3b579160200282015b82811115612d3a578251825591602001919060010190612d1f565b5b509050612d489190612dd6565b5090565b828054828255906000526020600020908101928215612dc5579160200282015b82811115612dc45782518260006101000a81548173ffffffffffffffffffffffffffffffffffffffff021916908373ffffffffffffffffffffffffffffffffffffffff16021790555091602001919060010190612d6c565b5b509050612dd29190612dd6565b5090565b5b80821115612def576000816000905550600101612dd7565b5090565b6000604051905090565b600080fd5b600080fd5b600073ffffffffffffffffffffffffffffffffffffffff82169050919050565b6000612e3282612e07565b9050919050565b612e4281612e27565b8114612e4d57600080fd5b50565b600081359050612e5f81612e39565b92915050565b6000819050919050565b612e7881612e65565b8114612e8357600080fd5b50565b600081359050612e9581612e6f565b92915050565b600080600080600080600080610100898b031215612ebc57612ebb612dfd565b5b6000612eca8b828c01612e50565b9850506020612edb8b828c01612e50565b9750506040612eec8b828c01612e86565b9650506060612efd8b828c01612e86565b9550506080612f0e8b828c01612e86565b94505060a0612f1f8b828c01612e86565b93505060c0612f308b828c01612e86565b92505060e0612f418b828c01612e86565b9150509295985092959890939650565b600081519050919050565b600082825260208201905092915050565b6000819050602082019050919050565b612f8681612e65565b82525050565b6000612f988383612f7d565b60208301905092915050565b6000602082019050919050565b6000612fbc82612f51565b612fc68185612f5c565b9350612fd183612f6d565b8060005b83811015613002578151612fe98882612f8c565b9750612ff483612fa4565b925050600181019050612fd5565b5085935050505092915050565b600060208201905081810360008301526130298184612fb1565b905092915050565b6000819050919050565b600061305661305161304c84612e07565b613031565b612e07565b9050919050565b60006130688261303b565b9050919050565b600061307a8261305d565b9050919050565b61308a8161306f565b82525050565b60006020820190506130a56000830184613081565b92915050565b6000819050919050565b6130be816130ab565b81146130c957600080fd5b50565b6000813590506130db816130b5565b92915050565b600080fd5b600080fd5b600080fd5b60008083601f840112613106576131056130e1565b5b8235905067ffffffffffffffff811115613123576131226130e6565b5b60208301915083600182028301111561313f5761313e6130eb565b5b9250929050565b60008083601f84011261315c5761315b6130e1565b5b8235905067ffffffffffffffff811115613179576131786130e6565b5b602083019150836001820283011115613195576131946130eb565b5b9250929050565b60008060008060008060008060008060c08b8d0312156131bf576131be612dfd565b5b60006131cd8d828e016130cc565b9a505060208b013567ffffffffffffffff8111156131ee576131ed612e02565b5b6131fa8d828e016130f0565b995099505060408b013567ffffffffffffffff81111561321d5761321c612e02565b5b6132298d828e016130f0565b975097505060608b013567ffffffffffffffff81111561324c5761324b612e02565b5b6132588d828e01613146565b955095505060808b013567ffffffffffffffff81111561327b5761327a612e02565b5b6132878d828e016130f0565b935093505060a061329a8d828e01612e86565b9150509295989b9194979a5092959850565b600081519050919050565b600082825260208201905092915050565b60005b838110156132e65780820151818401526020810190506132cb565b60008484015250505050565b6000601f19601f8301169050919050565b600061330e826132ac565b61331881856132b7565b93506133288185602086016132c8565b613331816132f2565b840191505092915050565b600060208201905081810360008301526133568184613303565b905092915050565b60006020828403121561337457613373612dfd565b5b600061338284828501612e86565b91505092915050565b61339481612e65565b82525050565b60006020820190506133af600083018461338b565b92915050565b600081519050919050565b600082825260208201905092915050565b6000819050602082019050919050565b6133ea81612e27565b82525050565b60006133fc83836133e1565b60208301905092915050565b6000602082019050919050565b6000613420826133b5565b61342a81856133c0565b9350613435836133d1565b8060005b8381101561346657815161344d88826133f0565b975061345883613408565b925050600181019050613439565b5085935050505092915050565b6000602082019050818103600083015261348d8184613415565b905092915050565b600080604083850312156134ac576134ab612dfd565b5b60006134ba85828601612e50565b92505060206134cb85828601612e50565b9150509250929050565b6134de81612e27565b82525050565b60006020820190506134f960008301846134d5565b92915050565b60008060008060008060006080888a03121561351e5761351d612dfd565b5b600061352c8a828b016130cc565b975050602088013567ffffffffffffffff81111561354d5761354c612e02565b5b6135598a828b016130f0565b9650965050604088013567ffffffffffffffff81111561357c5761357b612e02565b5b6135888a828b016130f0565b9450945050606088013567ffffffffffffffff8111156135ab576135aa612e02565b5b6135b78a828b01613146565b925092505092959891949750929550565b60006135d38261305d565b9050919050565b6135e3816135c8565b82525050565b60006020820190506135fe60008301846135da565b92915050565b600080fd5b7f4e487b7100000000000000000000000000000000000000000000000000000000600052604160045260246000fd5b613641826132f2565b810181811067ffffffffffffffff821117156136605761365f613609565b5b80604052505050565b6000613673612df3565b905061367f8282613638565b919050565b600067ffffffffffffffff82111561369f5761369e613609565b5b6136a8826132f2565b9050602081019050919050565b82818337600083830152505050565b60006136d76136d284613684565b613669565b9050828152602081018484840111156136f3576136f2613604565b5b6136fe8482856136b5565b509392505050565b600082601f83011261371b5761371a6130e1565b5b813561372b8482602086016136c4565b91505092915050565b600067ffffffffffffffff82111561374f5761374e613609565b5b613758826132f2565b9050602081019050919050565b600061377861377384613734565b613669565b90508281526020810184848401111561379457613793613604565b5b61379f8482856136b5565b509392505050565b600082601f8301126137bc576137bb6130e1565b5b81356137cc848260208601613765565b91505092915050565b6000806000606084860312156137ee576137ed612dfd565b5b600084013567ffffffffffffffff81111561380c5761380b612e02565b5b61381886828701613706565b935050602084013567ffffffffffffffff81111561383957613838612e02565b5b61384586828701613706565b925050604084013567ffffffffffffffff81111561386657613865612e02565b5b613872868287016137a7565b9150509250925092565b60006138878261305d565b9050919050565b6138978161387c565b82525050565b60006020820190506138b2600083018461388e565b92915050565b600067ffffffffffffffff8211156138d3576138d2613609565b5b602082029050602081019050919050565b60006138f76138f2846138b8565b613669565b9050808382526020820190506020840283018581111561391a576139196130eb565b5b835b81811015613943578061392f8882612e86565b84526020840193505060208101905061391c565b5050509392505050565b600082601f830112613962576139616130e1565b5b81356139728482602086016138e4565b91505092915050565b600067ffffffffffffffff82111561399657613995613609565b5b602082029050602081019050919050565b60006139ba6139b58461397b565b613669565b905080838252602082019050602084028301858111156139dd576139dc6130eb565b5b835b81811015613a0657806139f28882612e50565b8452602084019350506020810190506139df565b5050509392505050565b600082601f830112613a2557613a246130e1565b5b8135613a358482602086016139a7565b91505092915050565b600080600080600080600080610100898b031215613a5f57613a5e612dfd565b5b600089013567ffffffffffffffff811115613a7d57613a7c612e02565b5b613a898b828c01613706565b985050602089013567ffffffffffffffff811115613aaa57613aa9612e02565b5b613ab68b828c01613706565b9750506040613ac78b828c01612e86565b965050606089013567ffffffffffffffff811115613ae857613ae7612e02565b5b613af48b828c0161394d565b955050608089013567ffffffffffffffff811115613b1557613b14612e02565b5b613b218b828c01613a10565b94505060a089013567ffffffffffffffff811115613b4257613b41612e02565b5b613b4e8b828c0161394d565b93505060c089013567ffffffffffffffff811115613b6f57613b6e612e02565b5b613b7b8b828c01613706565b92505060e0613b8c8b828c01612e86565b9150509295985092959890939650565b6000819050919050565b600060ff82169050919050565b6000613bce613bc9613bc484613b9c565b613031565b613ba6565b9050919050565b613bde81613bb3565b82525050565b600061016082019050613bfa600083018e61338b565b613c07602083018d613bd5565b613c14604083018c6134d5565b613c21606083018b6134d5565b613c2e608083018a6134d5565b613c3b60a083018961338b565b613c4860c083018861338b565b613c5560e083018761338b565b613c6361010083018661338b565b613c7161012083018561338b565b613c7f61014083018461338b565b9c9b505050505050505050505050565b7f4e487b7100000000000000000000000000000000000000000000000000000000600052602260045260246000fd5b60006002820490506001821680613cd657607f821691505b602082108103613ce957613ce8613c8f565b5b50919050565b600081905092915050565b6000613d068385613cef565b9350613d138385846136b5565b82840190509392505050565b6000613d2c828486613cfa565b91508190509392505050565b613d41816130ab565b82525050565b6000613d5383856132b7565b9350613d608385846136b5565b613d69836132f2565b840190509392505050565b600060c082019050613d89600083018c613d38565b8181036020830152613d9c818a8c613d47565b90508181036040830152613db181888a613d47565b9050613dc06060830187613d38565b8181036080830152613dd3818587613d47565b9050613de260a083018461338b565b9a9950505050505050505050565b60008115159050919050565b613e0581613df0565b8114613e1057600080fd5b50565b600081519050613e2281613dfc565b92915050565b600060208284031215613e3e57613e3d612dfd565b5b6000613e4c84828501613e13565b91505092915050565b7f4e487b7100000000000000000000000000000000000000000000000000000000600052603260045260246000fd5b6000604082019050613e9960008301856134d5565b613ea660208301846134d5565b9392505050565b600081519050613ebc81612e6f565b92915050565b600060208284031215613ed857613ed7612dfd565b5b6000613ee684828501613ead565b91505092915050565b6000606082019050613f0460008301866134d5565b613f1160208301856134d5565b613f1e604083018461338b565b949350505050565b7f4e487b7100000000000000000000000000000000000000000000000000000000600052601160045260246000fd5b6000613f6082612e65565b9150613f6b83612e65565b9250828201905080821115613f8357613f82613f26565b5b92915050565b6000613f9482612e65565b91507fffffffffffffffffffffffffffffffffffffffffffffffffffffffffffffffff8203613fc657613fc5613f26565b5b600182019050919050565b7f616374696f6e206f6e6c7920666f722061646d696e0000000000000000000000600082015250565b60006140076015836132b7565b915061401282613fd1565b602082019050919050565b6000602082019050818103600083015261403681613ffa565b9050919050565b60008190508160005260206000209050919050565b60006020601f8301049050919050565b600082821b905092915050565b60006008830261409f7fffffffffffffffffffffffffffffffffffffffffffffffffffffffffffffffff82614062565b6140a98683614062565b95508019841693508086168417925050509392505050565b60006140dc6140d76140d284612e65565b613031565b612e65565b9050919050565b6000819050919050565b6140f6836140c1565b61410a614102826140e3565b84845461406f565b825550505050565b600090565b61411f614112565b61412a8184846140ed565b505050565b5b8181101561414e57614143600082614117565b600181019050614130565b5050565b601f821115614193576141648161403d565b61416d84614052565b8101602085101561417c578190505b61419061418885614052565b83018261412f565b50505b505050565b600082821c905092915050565b60006141b660001984600802614198565b1980831691505092915050565b60006141cf83836141a5565b9150826002028217905092915050565b6141e8826132ac565b67ffffffffffffffff81111561420157614200613609565b5b61420b8254613cbe565b614216828285614152565b600060209050601f8311600181146142495760008415614237578287015190505b61424185826141c3565b8655506142a9565b601f1984166142578661403d565b60005b8281101561427f5784890151825560018201915060208501945060208101905061425a565b8683101561429c5784890151614298601f8916826141a5565b8355505b6001600288020188555050505b505050505050565b7f61786c5553444300000000000000000000000000000000000000000000000000600082015250565b60006142e76007836132b7565b91506142f2826142b1565b602082019050919050565b60006020820190508181036000830152614316816142da565b9050919050565b60008151905061432c81612e39565b92915050565b60006020828403121561434857614347612dfd565b5b60006143568482850161431d565b91505092915050565b600060408201905061437460008301856134d5565b614381602083018461338b565b9392505050565b600060808201905061439d6000830189613d38565b81810360208301526143b0818789613d47565b905081810360408301526143c5818587613d47565b90506143d46060830184613d38565b979650505050505050565b6000610160820190506143f5600083018e61338b565b614402602083018d61338b565b61440f604083018c6134d5565b61441c606083018b6134d5565b614429608083018a6134d5565b61443660a0830189613bd5565b61444360c0830188613bd5565b61445060e0830187613bd5565b61445e610100830186613bd5565b61446c610120830185613bd5565b61447a610140830184613bd5565b9c9b505050505050505050505050565b600081519050919050565b600082825260208201905092915050565b60006144b18261448a565b6144bb8185614495565b93506144cb8185602086016132c8565b6144d4816132f2565b840191505092915050565b600060a0820190506144f460008301886134d5565b81810360208301526145068187613303565b9050818103604083015261451a8186613303565b9050818103606083015261452e81856144a6565b905061453d60808301846134d5565b9695505050505050565b600060608201905081810360008301526145618186613303565b905081810360208301526145758185613303565b9050818103604083015261458981846144a6565b9050949350505050565b60006080820190506145a8600083018761338b565b81810360208301526145ba8186612fb1565b905081810360408301526145ce8185613415565b905081810360608301526145e28184612fb1565b905095945050505050565b600060e082019050614602600083018a6134d5565b81810360208301526146148189613303565b905081810360408301526146288188613303565b9050818103606083015261463c81876144a6565b905081810360808301526146508186613303565b905061465f60a083018561338b565b61466c60c08301846134d5565b98975050505050505050565b600060a08201905081810360008301526146928188613303565b905081810360208301526146a68187613303565b905081810360408301526146ba81866144a6565b905081810360608301526146ce8185613303565b90506146dd608083018461338b565b9695505050505050565b6000819050919050565b600061470c614707614702846146e7565b613031565b613ba6565b9050919050565b61471c816146f1565b82525050565b600081549050919050565b60008190508160005260206000209050919050565b60008160001c9050919050565b6000819050919050565b600061476c61476783614742565b61474f565b9050919050565b600061477f8254614759565b9050919050565b6000600182019050919050565b600061479e82614722565b6147a88185612f5c565b93506147b38361472d565b8060005b838110156147eb576147c882614773565b6147d28882612f8c565b97506147dd83614786565b9250506001810190506147b7565b5085935050505092915050565b600060408201905061480d6000830185614713565b818103602083015261481f8184614793565b90509392505050565b600082905092915050565b61483d8383614828565b67ffffffffffffffff81111561485657614855613609565b5b6148608254613cbe565b61486b828285614152565b6000601f83116001811461489a5760008415614888578287013590505b61489285826141c3565b8655506148fa565b601f1984166148a88661403d565b60005b828110156148d0578489013582556001820191506020850194506020810190506148ab565b868310156148ed57848901356148e9601f8916826141a5565b8355505b6001600288020188555050505b50505050505050565b600061490e82612e07565b9050919050565b61491e81614903565b811461492957600080fd5b50565b60008135905061493b81614915565b92915050565b60008060006060848603121561495a57614959612dfd565b5b600061496886828701612e86565b93505060206149798682870161492c565b925050604061498a86828701612e86565b9150509250925092565b60008160601b9050919050565b60006149ac82614994565b9050919050565b60006149be826149a1565b9050919050565b6149d66149d182612e27565b6149b3565b82525050565b60006149e882846149c5565b60148201915081905092915050565b6000614a0282612e65565b9150614a0d83612e65565b9250828202614a1b81612e65565b91508282048414831517614a3257614a31613f26565b5b5092915050565b60008060008060808587031215614a5357614a52612dfd565b5b6000614a6187828801612e86565b945050602085013567ffffffffffffffff811115614a8257614a81612e02565b5b614a8e8782880161394d565b935050604085013567ffffffffffffffff811115614aaf57614aae612e02565b5b614abb87828801613a10565b925050606085013567ffffffffffffffff811115614adc57614adb612e02565b5b614ae88782880161394d565b9150509295919450925056fea2646970667358221220168c68cf3ff1f2cbd32484c4e103e2279b1623fd84f5b4f0124a59f9f45849b864736f6c63430008120033",
  "linkReferences": {},
  "deployedLinkReferences": {}
}