{
  "abi": [
    {
      "inputs": [
        {
          "internalType": "bytes",
          "name": "_encodedCallArgs",
          "type": "bytes"
        }
      ],
      "name": "callOnExtension",
      "outputs": [
        {
          "components": [
            {
              "internalType": "address",
              "name": "makerToken",
              "type": "address"
            },
            {
              "internalType": "address",
              "name": "takerToken",
              "type": "address"
            },
            {
              "internalType": "uint128",
              "name": "makerAmount",
              "type": "uint128"
            },
            {
              "internalType": "uint128",
              "name": "takerAmount",
              "type": "uint128"
            },
            {
              "internalType": "address",
              "name": "maker",
              "type": "address"
            },
            {
              "internalType": "address",
              "name": "taker",
              "type": "address"
            },
            {
              "internalType": "address",
              "name": "txOrigin",
              "type": "address"
            },
            {
              "internalType": "bytes32",
              "name": "pool",
              "type": "bytes32"
            },
            {
              "internalType": "uint64",
              "name": "expiry",
              "type": "uint64"
            },
            {
              "internalType": "uint256",
              "name": "salt",
              "type": "uint256"
            }
          ],
          "internalType": "struct IZeroExV4.RfqOrder",
          "name": "",
          "type": "tuple"
        },
        {
          "components": [
            {
              "internalType": "enum IZeroExV4.SignatureType",
              "name": "signatureType",
              "type": "uint8"
            },
            {
              "internalType": "uint8",
              "name": "v",
              "type": "uint8"
            },
            {
              "internalType": "bytes32",
              "name": "r",
              "type": "bytes32"
            },
            {
              "internalType": "bytes32",
              "name": "s",
              "type": "bytes32"
            }
          ],
          "internalType": "struct IZeroExV4.Signature",
          "name": "",
          "type": "tuple"
        }
      ],
      "stateMutability": "pure",
      "type": "function"
    }
  ],
  "bytecode": {
    "object": "0x608060405234801561001057600080fd5b506106be806100206000396000f3fe608060405234801561001057600080fd5b506004361061002b5760003560e01c80635c13e64614610030575b600080fd5b61004361003e366004610115565b61005a565b6040516100519291906101cb565b60405180910390f35b6040805161014081018252600080825260208083018290528284018290526060808401839052608080850184905260a0850184905260c0850184905260e085018490526101008501849052610120850184905285519081018652838152918201839052938101829052928301529060006100d684860186610378565b925050506000818060200190518101906100f09190610457565b505090508080602001905181019061010891906105a5565b9350935050509250929050565b6000806020838503121561012857600080fd5b823567ffffffffffffffff8082111561014057600080fd5b818501915085601f83011261015457600080fd5b81358181111561016357600080fd5b86602082850101111561017557600080fd5b60209290920196919550909350505050565b8051600581106101a757634e487b7160e01b600052602160045260246000fd5b825260208181015160ff169083015260408082015190830152606090810151910152565b82516001600160a01b031681526101c0810160208401516101f760208401826001600160a01b03169052565b50604084015161021260408401826001600160801b03169052565b50606084015161022d60608401826001600160801b03169052565b50608084015161024860808401826001600160a01b03169052565b5060a084015161026360a08401826001600160a01b03169052565b5060c084015161027e60c08401826001600160a01b03169052565b5060e084015160e0830152610100808501516102a58285018267ffffffffffffffff169052565b505061012084810151908301526102c0610140830184610187565b9392505050565b6001600160a01b03811681146102dc57600080fd5b50565b634e487b7160e01b600052604160045260246000fd5b604051610140810167ffffffffffffffff81118282101715610319576103196102df565b60405290565b604051601f8201601f1916810167ffffffffffffffff81118282101715610348576103486102df565b604052919050565b600067ffffffffffffffff82111561036a5761036a6102df565b50601f01601f191660200190565b60008060006060848603121561038d57600080fd5b8335610398816102c7565b925060208401356001600160e01b0319811681146103b557600080fd5b9150604084013567ffffffffffffffff8111156103d157600080fd5b8401601f810186136103e257600080fd5b80356103f56103f082610350565b61031f565b81815287602083850101111561040a57600080fd5b816020840160208301376000602083830101528093505050509250925092565b80516001600160801b038116811461044157600080fd5b919050565b805160ff8116811461044157600080fd5b60008060006060848603121561046c57600080fd5b835167ffffffffffffffff81111561048357600080fd5b8401601f8101861361049457600080fd5b80516104a26103f082610350565b818152602088818486010111156104b857600080fd5b60005b838110156104d65784810182015183820183015281016104bb565b5060008184840101528196506104ed81890161042a565b9550505050506104ff60408501610446565b90509250925092565b8051610441816102c7565b805167ffffffffffffffff8116811461044157600080fd5b60006080828403121561053d57600080fd5b6040516080810181811067ffffffffffffffff82111715610560576105606102df565b806040525080915082516005811061057757600080fd5b815261058560208401610446565b602082015260408301516040820152606083015160608201525092915050565b6000808284036101c08112156105ba57600080fd5b610140808212156105ca57600080fd5b6105d26102f5565b91506105dd85610508565b82526105eb60208601610508565b60208301526105fc6040860161042a565b604083015261060d6060860161042a565b606083015261061e60808601610508565b608083015261062f60a08601610508565b60a083015261064060c08601610508565b60c083015260e085015160e083015261010061065d818701610513565b818401525061012080860151818401525081935061067d8682870161052b565b92505050925092905056fea2646970667358221220f463b5268c9fd8403b278d2a234d08ca5e876809d1b6d68ae100c176df36f9d464736f6c63430008130033",
    "linkReferences": {}
  },
  "methodIdentifiers": {
    "callOnExtension(bytes)": "5c13e646"
  },
  "id": 1
}