{
  "abi": [
    {
      "anonymous": false,
      "inputs": [
        {
          "indexed": false,
          "internalType": "address",
          "name": "follower",
          "type": "address"
        }
      ],
      "name": "Followed",
      "type": "event"
    },
    {
      "anonymous": false,
      "inputs": [
        {
          "indexed": false,
          "internalType": "uint8",
          "name": "version",
          "type": "uint8"
        }
      ],
      "name": "Initialized",
      "type": "event"
    },
    {
      "anonymous": false,
      "inputs": [
        {
          "indexed": true,
          "internalType": "bytes",
          "name": "failureReturnData",
          "type": "bytes"
        },
        {
          "indexed": true,
          "internalType": "address",
          "name": "redeemer",
          "type": "address"
        },
        {
          "indexed": false,
          "internalType": "uint256",
          "name": "sharesAmount",
          "type": "uint256"
        }
      ],
      "name": "PreRedeemSharesHookFailed",
      "type": "event"
    },
    {
      "anonymous": false,
      "inputs": [
        {
          "indexed": true,
          "internalType": "address",
          "name": "buyer",
          "type": "address"
        },
        {
          "indexed": false,
          "internalType": "uint256",
          "name": "investmentAmount",
          "type": "uint256"
        },
        {
          "indexed": false,
          "internalType": "uint256",
          "name": "sharesPrev",
          "type": "uint256"
        },
        {
          "indexed": false,
          "internalType": "uint256",
          "name": "sharesReceived",
          "type": "uint256"
        }
      ],
      "name": "SharesBought",
      "type": "event"
    },
    {
      "anonymous": false,
      "inputs": [
        {
          "indexed": true,
          "internalType": "address",
          "name": "redeemer",
          "type": "address"
        },
        {
          "indexed": true,
          "internalType": "address",
          "name": "recipient",
          "type": "address"
        },
        {
          "indexed": false,
          "internalType": "uint256",
          "name": "sharesAmount",
          "type": "uint256"
        },
        {
          "indexed": false,
          "internalType": "address[]",
          "name": "receivedAssets",
          "type": "address[]"
        },
        {
          "indexed": false,
          "internalType": "uint256[]",
          "name": "receivedAssetAmounts",
          "type": "uint256[]"
        }
      ],
      "name": "SharesRedeemed",
      "type": "event"
    },
    {
      "anonymous": false,
      "inputs": [
        {
          "indexed": false,
          "internalType": "address",
          "name": "follower",
          "type": "address"
        }
      ],
      "name": "Unfollowed",
      "type": "event"
    },
    {
      "anonymous": false,
      "inputs": [
        {
          "indexed": false,
          "internalType": "address",
          "name": "vaultProxy",
          "type": "address"
        }
      ],
      "name": "VaultProxySet",
      "type": "event"
    },
    {
      "inputs": [],
      "name": "Follow",
      "outputs": [],
      "stateMutability": "nonpayable",
      "type": "function"
    },
    {
      "inputs": [],
      "name": "Unfollow",
      "outputs": [],
      "stateMutability": "nonpayable",
      "type": "function"
    },
    {
      "inputs": [],
      "name": "activate",
      "outputs": [],
      "stateMutability": "nonpayable",
      "type": "function"
    },
    {
      "inputs": [
        {
          "internalType": "uint256",
          "name": "_investmentAmount",
          "type": "uint256"
        },
        {
          "internalType": "uint256",
          "name": "_minSharesQuantity",
          "type": "uint256"
        }
      ],
      "name": "buyShares",
      "outputs": [
        {
          "internalType": "uint256",
          "name": "sharesReceived_",
          "type": "uint256"
        }
      ],
      "stateMutability": "nonpayable",
      "type": "function"
    },
    {
      "inputs": [],
      "name": "calcAum",
      "outputs": [
        {
          "internalType": "uint256",
          "name": "aum_",
          "type": "uint256"
        }
      ],
      "stateMutability": "nonpayable",
      "type": "function"
    },
    {
      "inputs": [],
      "name": "calcNav",
      "outputs": [
        {
          "internalType": "uint256",
          "name": "nav_",
          "type": "uint256"
        }
      ],
      "stateMutability": "nonpayable",
      "type": "function"
    },
    {
      "inputs": [
        {
          "internalType": "address",
          "name": "_extension",
          "type": "address"
        },
        {
          "internalType": "uint256",
          "name": "_actionId",
          "type": "uint256"
        },
        {
          "internalType": "bytes",
          "name": "_callArgs",
          "type": "bytes"
        }
      ],
      "name": "callOnExtension",
      "outputs": [],
      "stateMutability": "nonpayable",
      "type": "function"
    },
    {
      "inputs": [],
      "name": "getDenominationAsset",
      "outputs": [
        {
          "internalType": "address",
          "name": "denominationAsset_",
          "type": "address"
        }
      ],
      "stateMutability": "view",
      "type": "function"
    },
    {
      "inputs": [
        {
          "internalType": "address",
          "name": "follower_",
          "type": "address"
        }
      ],
      "name": "getFollower",
      "outputs": [
        {
          "internalType": "bool",
          "name": "ifFollow_",
          "type": "bool"
        }
      ],
      "stateMutability": "view",
      "type": "function"
    },
    {
      "inputs": [],
      "name": "getGlobalShared",
      "outputs": [
        {
          "internalType": "address",
          "name": "globalShared_",
          "type": "address"
        }
      ],
      "stateMutability": "view",
      "type": "function"
    },
    {
      "inputs": [
        {
          "internalType": "address",
          "name": "account_",
          "type": "address"
        }
      ],
      "name": "getLastSharesBoughtTimestampForAccount",
      "outputs": [
        {
          "internalType": "uint256",
          "name": "lastSharesBoughtTimestamp_",
          "type": "uint256"
        }
      ],
      "stateMutability": "view",
      "type": "function"
    },
    {
      "inputs": [],
      "name": "getSharesActionTimelock",
      "outputs": [
        {
          "internalType": "uint256",
          "name": "sharesActionTimelock_",
          "type": "uint256"
        }
      ],
      "stateMutability": "view",
      "type": "function"
    },
    {
      "inputs": [],
      "name": "getVaultProxy",
      "outputs": [
        {
          "internalType": "address",
          "name": "vaultProxy_",
          "type": "address"
        }
      ],
      "stateMutability": "view",
      "type": "function"
    },
    {
      "inputs": [
        {
          "internalType": "address",
          "name": "globalShared_",
          "type": "address"
        },
        {
          "internalType": "address",
          "name": "denominationAsset_",
          "type": "address"
        },
        {
          "internalType": "uint256",
          "name": "sharesActionTimelock_",
          "type": "uint256"
        }
      ],
      "name": "initialize",
      "outputs": [],
      "stateMutability": "nonpayable",
      "type": "function"
    },
    {
      "inputs": [
        {
          "internalType": "enum IVaultLogic.VaultAction",
          "name": "_action",
          "type": "uint8"
        },
        {
          "internalType": "bytes",
          "name": "_actionData",
          "type": "bytes"
        }
      ],
      "name": "permissionedVaultAction",
      "outputs": [],
      "stateMutability": "nonpayable",
      "type": "function"
    },
    {
      "inputs": [
        {
          "internalType": "address",
          "name": "_recipient",
          "type": "address"
        },
        {
          "internalType": "uint256",
          "name": "_sharesQuantity",
          "type": "uint256"
        },
        {
          "internalType": "address[]",
          "name": "_payoutAssets",
          "type": "address[]"
        },
        {
          "internalType": "uint256[]",
          "name": "_payoutAssetPercentages",
          "type": "uint256[]"
        }
      ],
      "name": "redeemSharesForSpecificAssets",
      "outputs": [
        {
          "internalType": "uint256[]",
          "name": "payoutAmounts_",
          "type": "uint256[]"
        }
      ],
      "stateMutability": "nonpayable",
      "type": "function"
    },
    {
      "inputs": [
        {
          "internalType": "address",
          "name": "vaultProxy_",
          "type": "address"
        }
      ],
      "name": "setVaultProxy",
      "outputs": [],
      "stateMutability": "nonpayable",
      "type": "function"
    }
  ],
  "bytecode": {
    "object": "0x608060405234801561001057600080fd5b50612875806100206000396000f3fe608060405234801561001057600080fd5b506004361061010b5760003560e01c8063442ab744116100a2578063beebc5da11610071578063beebc5da1461020d578063c980918714610220578063d8994ede14610231578063e269c3d614610239578063fbc22e7b1461024a57600080fd5b8063442ab744146101a95780634da471b7146101b15780637f20170d146101b9578063ba82a0f4146101e257600080fd5b806331baef9b116100de57806331baef9b1461015b5780633462fcc114610163578063397bfe551461018357806339bf70d11461019657600080fd5b80630f15f4c01461011057806310acd06d1461011a5780631794bb3c1461012d5780632acf179b14610140575b600080fd5b610118610286565b005b6101186101283660046120d8565b610321565b61011861013b366004612149565b61043e565b610148610590565b6040519081526020015b60405180910390f35b61011861069a565b6101766101713660046121cf565b6107d3565b6040516101529190612296565b6101186101913660046122a9565b6109c2565b6101186101a43660046122c6565b610a81565b610148610c15565b600354610148565b6101486101c73660046122a9565b6001600160a01b031660009081526004602052604090205490565b6000546201000090046001600160a01b03165b6040516001600160a01b039091168152602001610152565b61014861021b366004612322565b610eb2565b6002546001600160a01b03166101f5565b610118610ecc565b6001546001600160a01b03166101f5565b6102766102583660046122a9565b6001600160a01b031660009081526005602052604090205460ff1690565b6040519015158152602001610152565b61028e610ffd565b60006102a26002546001600160a01b031690565b9050806001600160a01b0316634ef0762e6102c56001546001600160a01b031690565b6040516001600160e01b031960e084901b1681526001600160a01b039091166004820152602401600060405180830381600087803b15801561030657600080fd5b505af115801561031a573d6000803e3d6000fd5b5050505050565b600683600781111561033557610335612344565b036103d3576001546001600160a01b0316610352838301846122a9565b6001600160a01b0316036103d35760405162461bcd60e51b815260206004820152603a60248201527f7065726d697373696f6e65645661756c74416374696f6e3a2043616e6e6f742060448201527f756e747261636b2064656e6f6d696e6174696f6e20617373657400000000000060648201526084015b60405180910390fd5b600254604051631273000960e11b81526001600160a01b03909116906324e600129061040790869086908690600401612383565b600060405180830381600087803b15801561042157600080fd5b505af1158015610435573d6000803e3d6000fd5b50505050505050565b600054610100900460ff161580801561045e5750600054600160ff909116105b806104785750303b158015610478575060005460ff166001145b6104db5760405162461bcd60e51b815260206004820152602e60248201527f496e697469616c697a61626c653a20636f6e747261637420697320616c72656160448201526d191e481a5b9a5d1a585b1a5e995960921b60648201526084016103ca565b6000805460ff1916600117905580156104fe576000805461ff0019166101001790555b6000805462010000600160b01b031916620100006001600160a01b0387811691909102919091179091556003839055600180546001600160a01b031916918516919091179055801561058a576000805461ff0019169055604051600181527f7f26b83ff96e1f2b6a682f133852f6798a09c465da95921460cefb38474024989060200160405180910390a15b50505050565b60008061059b610c15565b9050610694816105b36002546001600160a01b031690565b6001600160a01b03166318160ddd6040518163ffffffff1660e01b8152600401602060405180830381865afa1580156105f0573d6000803e3d6000fd5b505050506040513d601f19601f8201168201806040525081019061061491906123c4565b6001546001600160a01b03166001600160a01b031663313ce5676040518163ffffffff1660e01b8152600401602060405180830381865afa15801561065d573d6000803e3d6000fd5b505050506040513d601f19601f8201168201806040525081019061068191906123dd565b61068f9060ff16600a6124fa565b6110d2565b91505090565b336106ad6002546001600160a01b031690565b6001600160a01b031663893d20e86040518163ffffffff1660e01b8152600401602060405180830381865afa1580156106ea573d6000803e3d6000fd5b505050506040513d601f19601f8201168201806040525081019061070e9190612516565b6001600160a01b0316816001600160a01b0316036107785760405162461bcd60e51b815260206004820152602160248201527f7661756c74206f776e6572206e6f7420616c6c6f77656420746f20666f6c6c6f6044820152607760f81b60648201526084016103ca565b6001600160a01b038116600081815260056020908152604091829020805460ff1916600117905590519182527f4cc7d9539ce01437cdeb528a3129c5cda0d65929048a1f9942d9dae632e7037091015b60405180910390a150565b60606107dd611103565b6002805460ff60a81b1916600160a81b179055338483146108565760405162461bcd60e51b815260206004820152602d60248201527f72656465656d536861726573466f7253706563696669634173736574733a205560448201526c6e657175616c2061727261797360981b60648201526084016103ca565b61089286868080602002602001604051908101604052809392919081815260200183836020028082843760009201919091525061114b92505050565b6108fc5760405162461bcd60e51b815260206004820152603560248201527f72656465656d536861726573466f7253706563696669634173736574733a20446044820152741d5c1b1a58d85d19481c185e5bdd5d08185cdcd95d605a1b60648201526084016103ca565b6000610906610c15565b9050600061091c6002546001600160a01b031690565b905060008061092c83868d611208565b9092509050610953838d8c8c8c8c61094e886109488d8c61146e565b9061147a565b611486565b95508b6001600160a01b0316856001600160a01b03167fbf88879a1555e4d7d38ebeffabce61fdf5e12ea0468abf855a72ec17b432bed5848d8d8b60405161099e9493929190612533565b60405180910390a350505050506002805460ff60a81b191690559695505050505050565b6109ca610ffd565b6001600160a01b038116610a335760405162461bcd60e51b815260206004820152602a60248201527f7365745661756c7450726f78793a205f7661756c7450726f78792063616e6e6f6044820152697420626520656d70747960b01b60648201526084016103ca565b600280546001600160a01b0319166001600160a01b0383169081179091556040519081527f5be181178e61e61e33f79c396c7194b8f3c80f77899da7bd96fe537411300bcb906020016107c8565b610a89611103565b6002805460ff60a81b1916600160a81b179055610aa46118a9565b6002805460ff60a01b1916600160a01b179055610ad06000546001600160a01b03620100009091041690565b6001600160a01b031663e7c456906040518163ffffffff1660e01b8152600401602060405180830381865afa158015610b0d573d6000803e3d6000fd5b505050506040513d601f19601f82011682018060405250810190610b319190612516565b6001600160a01b0316846001600160a01b031614610b9d5760405162461bcd60e51b815260206004820152602360248201527f63616c6c4f6e457874656e73696f6e3a205f657874656e73696f6e20696e76616044820152621b1a5960ea1b60648201526084016103ca565b6040516306fb2d8760e11b81526001600160a01b03851690630df65b0e90610bcf90339087908790879060040161259f565b600060405180830381600087803b158015610be957600080fd5b505af1158015610bfd573d6000803e3d6000fd5b50506002805461ffff60a01b19169055505050505050565b600080610c2a6002546001600160a01b031690565b90506000816001600160a01b031663c4b973706040518163ffffffff1660e01b8152600401600060405180830381865afa158015610c6c573d6000803e3d6000fd5b505050506040513d6000823e601f3d908101601f19168201604052610c9491908101906125e7565b90508051600003610ca85760009250505090565b6000815167ffffffffffffffff811115610cc457610cc46125d1565b604051908082528060200260200182016040528015610ced578160200160208202803683370190505b50905060005b8251811015610db357828181518110610d0e57610d0e6126ac565b60209081029190910101516040516370a0823160e01b81526001600160a01b038681166004830152909116906370a0823190602401602060405180830381865afa158015610d60573d6000803e3d6000fd5b505050506040513d601f19601f82011682018060405250810190610d8491906123c4565b828281518110610d9657610d966126ac565b602090810291909101015280610dab816126c2565b915050610cf3565b506000546201000090046001600160a01b03166001600160a01b0316634ddce9b06040518163ffffffff1660e01b8152600401602060405180830381865afa158015610e03573d6000803e3d6000fd5b505050506040513d601f19601f82011682018060405250810190610e279190612516565b6001600160a01b031663ae6f52ad8383610e496001546001600160a01b031690565b6040518463ffffffff1660e01b8152600401610e67939291906126db565b6020604051808303816000875af1158015610e86573d6000803e3d6000fd5b505050506040513d601f19601f82011682018060405250810190610eaa91906123c4565b935050505090565b600033610ec28185858583611903565b9150505b92915050565b33610edf6002546001600160a01b031690565b6001600160a01b031663893d20e86040518163ffffffff1660e01b8152600401602060405180830381865afa158015610f1c573d6000803e3d6000fd5b505050506040513d601f19601f82011682018060405250810190610f409190612516565b6001600160a01b0316816001600160a01b031603610fac5760405162461bcd60e51b815260206004820152602360248201527f7661756c74206f776e6572206e6f7420616c6c6f77656420746f20756e666f6c6044820152626c6f7760e81b60648201526084016103ca565b6001600160a01b038116600081815260056020908152604091829020805460ff1916905590519182527feec2b0215309af7425b7c70d86d811dac004320e90dc1518a084d40840c663cc91016107c8565b6000546201000090046001600160a01b03166001600160a01b03166318bcb2846040518163ffffffff1660e01b8152600401602060405180830381865afa15801561104c573d6000803e3d6000fd5b505050506040513d601f19601f820116820180604052508101906110709190612516565b6001600160a01b0316336001600160a01b0316146110d05760405162461bcd60e51b815260206004820152601a60248201527f4f6e6c79205661756c74466163746f72792063616c6c61626c6500000000000060448201526064016103ca565b565b6000826000036110e35750806110fc565b6110f98361094886670de0b6b3a764000061146e565b90505b9392505050565b600254600160a81b900460ff16156110d05760405162461bcd60e51b815260206004820152600b60248201526a52652d656e7472616e636560a81b60448201526064016103ca565b6000600182511161115e57506001919050565b815160005b818110156111fe57600061117882600161274b565b90505b828110156111eb57848181518110611195576111956126ac565b60200260200101516001600160a01b03168583815181106111b8576111b86126ac565b60200260200101516001600160a01b0316036111d957506000949350505050565b806111e3816126c2565b91505061117b565b50806111f6816126c2565b915050611163565b5060019392505050565b60008061121484611cae565b6040516370a0823160e01b81526001600160a01b03858116600483015286916000918316906370a0823190602401602060405180830381865afa15801561125f573d6000803e3d6000fd5b505050506040513d601f19601f8201168201806040525081019061128391906123c4565b905060001985036112965780935061129a565b8493505b600084116112fb5760405162461bcd60e51b815260206004820152602860248201527f5f5f72656465656d53686172657353657475703a204e6f2073686172657320746044820152676f2072656465656d60c01b60648201526084016103ca565b6040516370a0823160e01b81526001600160a01b038781166004830152600091908416906370a0823190602401602060405180830381865afa158015611345573d6000803e3d6000fd5b505050506040513d601f19601f8201168201806040525081019061136991906123c4565b9050600019860361137c5780945061139b565b8181101561139b576113986113918383611d2f565b8690611d2f565b94505b826001600160a01b03166318160ddd6040518163ffffffff1660e01b8152600401602060405180830381865afa1580156113d9573d6000803e3d6000fd5b505050506040513d601f19601f820116820180604052508101906113fd91906123c4565b604051633b9e9f0160e21b81526001600160a01b038981166004830152602482018890529195509089169063ee7a7c0490604401600060405180830381600087803b15801561144b57600080fd5b505af115801561145f573d6000803e3d6000fd5b50505050505050935093915050565b60006110fc828461275e565b60006110fc8284612775565b6060600061149c6001546001600160a01b031690565b905060008667ffffffffffffffff8111156114b9576114b96125d1565b6040519080825280602002602001820160405280156114e2578160200160208202803683370190505b50925060005b878110156118245761151b878783818110611505576115056126ac565b9050602002013583611d3b90919063ffffffff16565b915061aaaa898983818110611532576115326126ac565b905060200201602081019061154791906122a9565b6001600160a01b031614611812576000546201000090046001600160a01b03166001600160a01b0316634ddce9b06040518163ffffffff1660e01b8152600401602060405180830381865afa1580156115a4573d6000803e3d6000fd5b505050506040513d601f19601f820116820180604052508101906115c89190612516565b6001600160a01b0316634c67e106846116086127106109488c8c888181106115f2576115f26126ac565b905060200201358b61146e90919063ffffffff16565b8c8c8681811061161a5761161a6126ac565b905060200201602081019061162f91906122a9565b60405160e085901b6001600160e01b03191681526001600160a01b039384166004820152602481019290925290911660448201526064016020604051808303816000875af1158015611685573d6000803e3d6000fd5b505050506040513d601f19601f820116820180604052508101906116a991906123c4565b8482815181106116bb576116bb6126ac565b60200260200101818152505060008482815181106116db576116db6126ac565b6020026020010151116117565760405162461bcd60e51b815260206004820152603860248201527f5f5f7061796f7574537065636966696564417373657450657263656e7461676560448201527f733a205a65726f20616d6f756e7420666f72206173736574000000000000000060648201526084016103ca565b8a6001600160a01b031663495d753c8a8a84818110611777576117776126ac565b905060200201602081019061178c91906122a9565b8c87858151811061179f5761179f6126ac565b60209081029190910101516040516001600160e01b031960e086901b1681526001600160a01b0393841660048201529290911660248301526044820152606401600060405180830381600087803b1580156117f957600080fd5b505af115801561180d573d6000803e3d6000fd5b505050505b8061181c816126c2565b9150506114e8565b50612710811461189c5760405162461bcd60e51b815260206004820152603b60248201527f5f5f7061796f7574537065636966696564417373657450657263656e7461676560448201527f733a2050657263656e7473206d75737420746f74616c2031303025000000000060648201526084016103ca565b5050979650505050505050565b600254600160a01b900460ff16156110d05760405162461bcd60e51b815260206004820152601860248201527f5661756c7420616374696f6e2072652d656e7472616e6365000000000000000060448201526064016103ca565b600061190d611103565b6002805460ff60a81b1916600160a81b1790556001600160a01b0386166119825760405162461bcd60e51b815260206004820152602360248201527f5f5f6275795368617265733a205f62757965722063616e6e6f7420626520656d60448201526270747960e81b60648201526084016103ca565b600084116119e55760405162461bcd60e51b815260206004820152602a60248201527f5f5f6275795368617265733a205f6d696e5368617265735175616e746974792060448201526906d757374206265203e360b41b60648201526084016103ca565b60006119f96002546001600160a01b031690565b90508315611a595760405162461bcd60e51b815260206004820152602760248201527f5f5f6275795368617265733a20616374696f6e206c6f636b65642062792074696044820152666d65206c6f636b60c81b60648201526084016103ca565b6000611a63610c15565b90506000611a84611a7c6001546001600160a01b031690565b86858b611d47565b90506000611aca83856001600160a01b03166318160ddd6040518163ffffffff1660e01b8152600401602060405180830381865afa1580156105f0573d6000803e3d6000fd5b90506000611ae48261094885670de0b6b3a764000061146e565b6040516370a0823160e01b81526001600160a01b038d811660048301529192506000918716906370a0823190602401602060405180830381865afa158015611b30573d6000803e3d6000fd5b505050506040513d601f19601f82011682018060405250810190611b5491906123c4565b6040516329460cc560e11b81526001600160a01b038e81166004830152602482018590529192509087169063528c198a90604401600060405180830381600087803b158015611ba257600080fd5b505af1158015611bb6573d6000803e3d6000fd5b5050505089821015611c245760405162461bcd60e51b815260206004820152603160248201527f5f5f6275795368617265733a20536861726573207265636569766564203c205f6044820152706d696e5368617265735175616e7469747960781b60648201526084016103ca565b8815611c46576001600160a01b038c1660009081526004602052604090204290555b60408051858152602081018390529081018390526001600160a01b038d16907f849165c18b9d0fb161bcb145e4ab523d350e5c98f1dbbb1960331e7ee3ca67679060600160405180910390a2506002805460ff60a81b191690559a9950505050505050505050565b6001600160a01b038116600090815260046020526040902054801580611cdf5750600354611cdc4283611d2f565b10155b611d2b5760405162461bcd60e51b815260206004820152601860248201527f53686172657320616374696f6e2074696d656c6f636b6564000000000000000060448201526064016103ca565b5050565b60006110fc8284612797565b60006110fc828461274b565b6040516370a0823160e01b81526001600160a01b03838116600483015260009182918716906370a0823190602401602060405180830381865afa158015611d92573d6000803e3d6000fd5b505050506040513d601f19601f82011682018060405250810190611db691906123c4565b9050611dcd6001600160a01b038716868686611e4f565b6040516370a0823160e01b81526001600160a01b038581166004830152611e439183918916906370a0823190602401602060405180830381865afa158015611e19573d6000803e3d6000fd5b505050506040513d601f19601f82011682018060405250810190611e3d91906123c4565b90611d2f565b9150505b949350505050565b604080516001600160a01b038581166024830152848116604483015260648083018590528351808403909101815260849092018352602080830180516001600160e01b03166323b872dd60e01b17905283518085019094528084527f5361666545524332303a206c6f772d6c6576656c2063616c6c206661696c65649084015261058a92879291600091611ee7918516908490611f6c565b9050805160001480611f08575080806020019051810190611f0891906127aa565b611f675760405162461bcd60e51b815260206004820152602a60248201527f5361666545524332303a204552433230206f7065726174696f6e20646964206e6044820152691bdd081cdd58d8d9595960b21b60648201526084016103ca565b505050565b60606110f9848460008585600080866001600160a01b03168587604051611f9391906127f0565b60006040518083038185875af1925050503d8060008114611fd0576040519150601f19603f3d011682016040523d82523d6000602084013e611fd5565b606091505b5091509150611fe687838387611ff1565b979650505050505050565b60608315612060578251600003612059576001600160a01b0385163b6120595760405162461bcd60e51b815260206004820152601d60248201527f416464726573733a2063616c6c20746f206e6f6e2d636f6e747261637400000060448201526064016103ca565b5081611e47565b611e4783838151156120755781518083602001fd5b8060405162461bcd60e51b81526004016103ca919061280c565b60008083601f8401126120a157600080fd5b50813567ffffffffffffffff8111156120b957600080fd5b6020830191508360208285010111156120d157600080fd5b9250929050565b6000806000604084860312156120ed57600080fd5b8335600881106120fc57600080fd5b9250602084013567ffffffffffffffff81111561211857600080fd5b6121248682870161208f565b9497909650939450505050565b6001600160a01b038116811461214657600080fd5b50565b60008060006060848603121561215e57600080fd5b833561216981612131565b9250602084013561217981612131565b929592945050506040919091013590565b60008083601f84011261219c57600080fd5b50813567ffffffffffffffff8111156121b457600080fd5b6020830191508360208260051b85010111156120d157600080fd5b600080600080600080608087890312156121e857600080fd5b86356121f381612131565b955060208701359450604087013567ffffffffffffffff8082111561221757600080fd5b6122238a838b0161218a565b9096509450606089013591508082111561223c57600080fd5b5061224989828a0161218a565b979a9699509497509295939492505050565b600081518084526020808501945080840160005b8381101561228b5781518752958201959082019060010161226f565b509495945050505050565b6020815260006110fc602083018461225b565b6000602082840312156122bb57600080fd5b81356110fc81612131565b600080600080606085870312156122dc57600080fd5b84356122e781612131565b935060208501359250604085013567ffffffffffffffff81111561230a57600080fd5b6123168782880161208f565b95989497509550505050565b6000806040838503121561233557600080fd5b50508035926020909101359150565b634e487b7160e01b600052602160045260246000fd5b81835281816020850137506000828201602090810191909152601f909101601f19169091010190565b6000600885106123a357634e487b7160e01b600052602160045260246000fd5b848252604060208301526123bb60408301848661235a565b95945050505050565b6000602082840312156123d657600080fd5b5051919050565b6000602082840312156123ef57600080fd5b815160ff811681146110fc57600080fd5b634e487b7160e01b600052601160045260246000fd5b600181815b8085111561245157816000190482111561243757612437612400565b8085161561244457918102915b93841c939080029061241b565b509250929050565b60008261246857506001610ec6565b8161247557506000610ec6565b816001811461248b5760028114612495576124b1565b6001915050610ec6565b60ff8411156124a6576124a6612400565b50506001821b610ec6565b5060208310610133831016604e8410600b84101617156124d4575081810a610ec6565b6124de8383612416565b80600019048211156124f2576124f2612400565b029392505050565b60006110fc8383612459565b805161251181612131565b919050565b60006020828403121561252857600080fd5b81516110fc81612131565b84815260606020808301829052908201849052600090859060808401835b8781101561257f57833561256481612131565b6001600160a01b031682529282019290820190600101612551565b508481036040860152612592818761225b565b9998505050505050505050565b60018060a01b03851681528360208201526060604082015260006125c760608301848661235a565b9695505050505050565b634e487b7160e01b600052604160045260246000fd5b600060208083850312156125fa57600080fd5b825167ffffffffffffffff8082111561261257600080fd5b818501915085601f83011261262657600080fd5b815181811115612638576126386125d1565b8060051b604051601f19603f8301168101818110858211171561265d5761265d6125d1565b60405291825284820192508381018501918883111561267b57600080fd5b938501935b828510156126a05761269185612506565b84529385019392850192612680565b98975050505050505050565b634e487b7160e01b600052603260045260246000fd5b6000600182016126d4576126d4612400565b5060010190565b606080825284519082018190526000906020906080840190828801845b8281101561271d5781516001600160a01b0316845292840192908401906001016126f8565b50505083810382850152612731818761225b565b9250505060018060a01b0383166040830152949350505050565b80820180821115610ec657610ec6612400565b8082028115828204841417610ec657610ec6612400565b60008261279257634e487b7160e01b600052601260045260246000fd5b500490565b81810381811115610ec657610ec6612400565b6000602082840312156127bc57600080fd5b815180151581146110fc57600080fd5b60005b838110156127e75781810151838201526020016127cf565b50506000910152565b600082516128028184602087016127cc565b9190910192915050565b602081526000825180602084015261282b8160408501602087016127cc565b601f01601f1916919091016040019291505056fea2646970667358221220321ef8ec052986c1edc49568fec295325869559549e6dbee482eaca3781e239d64736f6c63430008130033",
    "linkReferences": {}
  },
  "methodIdentifiers": {
    "Follow()": "31baef9b",
    "Unfollow()": "d8994ede",
    "activate()": "0f15f4c0",
    "buyShares(uint256,uint256)": "beebc5da",
    "calcAum()": "442ab744",
    "calcNav()": "2acf179b",
    "callOnExtension(address,uint256,bytes)": "39bf70d1",
    "getDenominationAsset()": "e269c3d6",
    "getFollower(address)": "fbc22e7b",
    "getGlobalShared()": "ba82a0f4",
    "getLastSharesBoughtTimestampForAccount(address)": "7f20170d",
    "getSharesActionTimelock()": "4da471b7",
    "getVaultProxy()": "c9809187",
    "initialize(address,address,uint256)": "1794bb3c",
    "permissionedVaultAction(uint8,bytes)": "10acd06d",
    "redeemSharesForSpecificAssets(address,uint256,address[],uint256[])": "3462fcc1",
    "setVaultProxy(address)": "397bfe55"
  },
  "id": 20
}