{
  "abi": [
    {
      "inputs": [],
      "stateMutability": "nonpayable",
      "type": "constructor"
    },
    {
      "anonymous": false,
      "inputs": [],
      "name": "Activated",
      "type": "event"
    },
    {
      "anonymous": false,
      "inputs": [
        {
          "indexed": false,
          "internalType": "address",
          "name": "globalShared",
          "type": "address"
        }
      ],
      "name": "GlobalSharedSet",
      "type": "event"
    },
    {
      "anonymous": false,
      "inputs": [
        {
          "indexed": false,
          "internalType": "address",
          "name": "guardianLibSet",
          "type": "address"
        }
      ],
      "name": "GuardianLibSet",
      "type": "event"
    },
    {
      "anonymous": false,
      "inputs": [
        {
          "indexed": true,
          "internalType": "address",
          "name": "creator",
          "type": "address"
        },
        {
          "indexed": false,
          "internalType": "address",
          "name": "guardianProxy",
          "type": "address"
        },
        {
          "indexed": true,
          "internalType": "address",
          "name": "denominationAsset",
          "type": "address"
        },
        {
          "indexed": false,
          "internalType": "uint256",
          "name": "sharesActionTimelock",
          "type": "uint256"
        }
      ],
      "name": "GuardianProxyDeployed",
      "type": "event"
    },
    {
      "anonymous": false,
      "inputs": [
        {
          "indexed": true,
          "internalType": "address",
          "name": "creator",
          "type": "address"
        },
        {
          "indexed": false,
          "internalType": "address",
          "name": "vaultProxy",
          "type": "address"
        },
        {
          "indexed": false,
          "internalType": "address",
          "name": "guardianProxy",
          "type": "address"
        }
      ],
      "name": "NewVaultCreated",
      "type": "event"
    },
    {
      "inputs": [],
      "name": "activate",
      "outputs": [],
      "stateMutability": "nonpayable",
      "type": "function"
    },
    {
      "inputs": [
        {
          "internalType": "string",
          "name": "_vaultName",
          "type": "string"
        },
        {
          "internalType": "string",
          "name": "_vaultSymbol",
          "type": "string"
        },
        {
          "internalType": "address",
          "name": "_denominationAsset",
          "type": "address"
        },
        {
          "internalType": "uint256",
          "name": "_sharesActionTimelock",
          "type": "uint256"
        }
      ],
      "name": "createNewVault",
      "outputs": [
        {
          "internalType": "address",
          "name": "guardianProxy_",
          "type": "address"
        },
        {
          "internalType": "address",
          "name": "vaultProxy_",
          "type": "address"
        }
      ],
      "stateMutability": "nonpayable",
      "type": "function"
    },
    {
      "inputs": [],
      "name": "getCreator",
      "outputs": [
        {
          "internalType": "address",
          "name": "creator_",
          "type": "address"
        }
      ],
      "stateMutability": "view",
      "type": "function"
    },
    {
      "inputs": [],
      "name": "getGlobalShared",
      "outputs": [
        {
          "internalType": "address",
          "name": "globalShared_",
          "type": "address"
        }
      ],
      "stateMutability": "view",
      "type": "function"
    },
    {
      "inputs": [],
      "name": "getGuardianLib",
      "outputs": [
        {
          "internalType": "address",
          "name": "guardianLib_",
          "type": "address"
        }
      ],
      "stateMutability": "view",
      "type": "function"
    },
    {
      "inputs": [],
      "name": "getOwner",
      "outputs": [
        {
          "internalType": "address",
          "name": "owner_",
          "type": "address"
        }
      ],
      "stateMutability": "view",
      "type": "function"
    },
    {
      "inputs": [],
      "name": "getVaultLib",
      "outputs": [
        {
          "internalType": "address",
          "name": "vaultLib_",
          "type": "address"
        }
      ],
      "stateMutability": "view",
      "type": "function"
    },
    {
      "inputs": [],
      "name": "isActivated",
      "outputs": [
        {
          "internalType": "bool",
          "name": "activated_",
          "type": "bool"
        }
      ],
      "stateMutability": "view",
      "type": "function"
    },
    {
      "inputs": [
        {
          "internalType": "address",
          "name": "globalShared_",
          "type": "address"
        }
      ],
      "name": "setGlobalShared",
      "outputs": [],
      "stateMutability": "nonpayable",
      "type": "function"
    }
  ],
  "bytecode": {
    "object": "0x60a060405234801561001057600080fd5b50336080526040516100219061011e565b604051809103906000f08015801561003d573d6000803e3d6000fd5b5060405161004a9061012c565b6001600160a01b039091168152602001604051809103906000f080158015610076573d6000803e3d6000fd5b50600180546001600160a01b0319166001600160a01b03929092169190911790556040516100a39061013a565b604051809103906000f0801580156100bf573d6000803e3d6000fd5b506040516100cc9061012c565b6001600160a01b039091168152602001604051809103906000f0801580156100f8573d6000803e3d6000fd5b50600280546001600160a01b0319166001600160a01b0392909216919091179055610148565b6125c48062002d0883390190565b6104be80620052cc83390190565b612513806200578a83390190565b608051612b90620001786000396000818160e2015281816101590152818161035d01526104a40152612b906000f3fe60806040523480156200001157600080fd5b50600436106200009f5760003560e01c8063682cea19116200006e578063682cea191462000145578063893d20e81462000157578063a7c93d7e146200017e578063ba82a0f41462000190578063ea65ac4b14620001a257600080fd5b80630cf684bd14620000a45780630ee2cb1014620000e05780630f15f4c0146200011b5780634a8c1fb41462000127575b600080fd5b620000bb620000b53660046200094a565b620001b9565b604080516001600160a01b039384168152929091166020830152015b60405180910390f35b7f00000000000000000000000000000000000000000000000000000000000000005b6040516001600160a01b039091168152602001620000d7565b6200012562000352565b005b600054600160a01b900460ff166040519015158152602001620000d7565b6002546001600160a01b031662000102565b7f000000000000000000000000000000000000000000000000000000000000000062000102565b6001546001600160a01b031662000102565b6000546001600160a01b031662000102565b62000125620001b3366004620009df565b62000499565b600080548190600160a01b900460ff166200021b5760405162461bcd60e51b815260206004820152601c60248201527f636f6e7472616374206973206e6f74207965742061637469766174650000000060448201526064015b60405180910390fd5b336200022981868662000595565b92506200023b81848b8b8b8b620006ae565b60405163397bfe5560e01b81526001600160a01b038083166004830152919350849182169063397bfe5590602401600060405180830381600087803b1580156200028457600080fd5b505af115801562000299573d6000803e3d6000fd5b50505050620002a98484620007e0565b806001600160a01b0316630f15f4c06040518163ffffffff1660e01b8152600401600060405180830381600087803b158015620002e557600080fd5b505af1158015620002fa573d6000803e3d6000fd5b5050604080516001600160a01b0387811682528881166020830152861693507f1775fac21ae797af6b8f93e0a840eb28485ef44c30fe2ab871dad15f9f71d04492500160405180910390a25050965096945050505050565b336001600160a01b037f000000000000000000000000000000000000000000000000000000000000000016146200039d5760405162461bcd60e51b8152600401620002129062000a06565b600054600160a01b900460ff1615620003f95760405162461bcd60e51b815260206004820152601b60248201527f61637469766174653a20416c7265616479204163746976617465640000000000604482015260640162000212565b6000546001600160a01b03166200045d5760405162461bcd60e51b815260206004820152602160248201527f61637469766174653a20676c6f62616c536861726564206973206e6f742073656044820152601d60fa1b606482015260840162000212565b6000805460ff60a01b1916600160a01b1781556040517fed1cd0670ee0c0017f550451a038818c696d0b6a9d6ce5b369e44275573cf9b09190a1565b336001600160a01b037f00000000000000000000000000000000000000000000000000000000000000001614620004e45760405162461bcd60e51b8152600401620002129062000a06565b6000546001600160a01b03168015620005405760405162461bcd60e51b815260206004820152601f60248201527f546869732076616c75652063616e206f6e6c7920626520736574206f6e636500604482015260640162000212565b600080546001600160a01b0319166001600160a01b0384169081179091556040519081527f8b17f6d374e65ad43fba3cd9530bbc78d95db59c580d3a818876125d7c44d9e39060200160405180910390a15050565b6000806305e52ecf60e21b620005b36000546001600160a01b031690565b6040516001600160a01b03918216602482015290861660448201526064810185905260840160408051601f198184030181529190526020810180516001600160e01b03166001600160e01b03199093169290921790915290506200061f6001546001600160a01b031690565b816040516200062e90620008c9565b6200063b92919062000a49565b604051809103906000f08015801562000658573d6000803e3d6000fd5b50604080516001600160a01b03808416825260208201879052929450828716928816917fcf34b6406966b28811d28be0824b7073f416f0c1cb6159fae47fce13312ab519910160405180910390a3509392505050565b60008063197a393d60e21b620006cc6000546001600160a01b031690565b89898989604051602401620006e695949392919062000ad2565b60408051601f198184030181529190526020810180516001600160e01b03166001600160e01b03199093169290921790915290506200072d6002546001600160a01b031690565b816040516200073c90620008d7565b6200074992919062000a49565b604051809103906000f08015801562000766573d6000803e3d6000fd5b5091508215620007d557604051635c26412360e11b81526001600160a01b0383169063b84c824690620007a0908790879060040162000b14565b600060405180830381600087803b158015620007bb57600080fd5b505af1158015620007d0573d6000803e3d6000fd5b505050505b509695505050505050565b6000546001600160a01b03166001600160a01b031663e7c456906040518163ffffffff1660e01b8152600401602060405180830381865afa1580156200082a573d6000803e3d6000fd5b505050506040513d601f19601f8201168201806040525081019062000850919062000b32565b604051631a92c4c760e11b81526001600160a01b038481166004830152838116602483015260606044830152600060648301529190911690633525898e90608401600060405180830381600087803b158015620008ac57600080fd5b505af1158015620008c1573d6000803e3d6000fd5b505050505050565b6110048062000b5383390190565b6110048062001b5783390190565b60008083601f840112620008f857600080fd5b50813567ffffffffffffffff8111156200091157600080fd5b6020830191508360208285010111156200092a57600080fd5b9250929050565b6001600160a01b03811681146200094757600080fd5b50565b600080600080600080608087890312156200096457600080fd5b863567ffffffffffffffff808211156200097d57600080fd5b6200098b8a838b01620008e5565b90985096506020890135915080821115620009a557600080fd5b50620009b489828a01620008e5565b9095509350506040870135620009ca8162000931565b80925050606087013590509295509295509295565b600060208284031215620009f257600080fd5b8135620009ff8162000931565b9392505050565b60208082526023908201527f4f6e6c792043726561746f722063616e2063616c6c20746869732066756e637460408201526234b7b760e91b606082015260800190565b60018060a01b038316815260006020604081840152835180604085015260005b8181101562000a875785810183015185820160600152820162000a69565b506000606082860101526060601f19601f830116850101925050509392505050565b81835281816020850137506000828201602090810191909152601f909101601f19169091010190565b6001600160a01b03868116825285811660208301528416604082015260806060820181905260009062000b09908301848662000aa9565b979650505050505050565b60208152600062000b2a60208301848662000aa9565b949350505050565b60006020828403121562000b4557600080fd5b8151620009ff816200093156fe60806040523480156200001157600080fd5b50604051620010043803806200100483398101604081905262000034916200055e565b818162000044828260006200005a565b506200005290503362000124565b50506200069d565b620000658362000196565b6040516001600160a01b038416907f1cf3b03a6cf19fa2baba4df148e9dcabedea7f8a5c07840e207e5c089be95d3e90600090a2600082511180620000a75750805b156200011f576200011d836001600160a01b0316635c60da1b6040518163ffffffff1660e01b8152600401602060405180830381865afa158015620000f0573d6000803e3d6000fd5b505050506040513d601f19601f820116820180604052508101906200011691906200062c565b8362000324565b505b505050565b7f7e644d79422f17c01e4894b5f4f588d331ebfa28653d42ae832dc59e38c9798f6200016660008051602062000fbd833981519152546001600160a01b031690565b604080516001600160a01b03928316815291841660208301520160405180910390a1620001938162000353565b50565b6001600160a01b0381163b620002015760405162461bcd60e51b815260206004820152602560248201527f455243313936373a206e657720626561636f6e206973206e6f74206120636f6e6044820152641d1c9858dd60da1b60648201526084015b60405180910390fd5b62000279816001600160a01b0316635c60da1b6040518163ffffffff1660e01b8152600401602060405180830381865afa15801562000244573d6000803e3d6000fd5b505050506040513d601f19601f820116820180604052508101906200026a91906200062c565b6001600160a01b03163b151590565b620002e05760405162461bcd60e51b815260206004820152603060248201527f455243313936373a20626561636f6e20696d706c656d656e746174696f6e206960448201526f1cc81b9bdd08184818dbdb9d1c9858dd60821b6064820152608401620001f8565b807fa3f0ad74e5423aebfd80d3ef4346578335a9a72aeaee59ff6cb3582b35133d505b80546001600160a01b0319166001600160a01b039290921691909117905550565b60606200034c838360405180606001604052806027815260200162000fdd60279139620003d1565b9392505050565b6001600160a01b038116620003ba5760405162461bcd60e51b815260206004820152602660248201527f455243313936373a206e65772061646d696e20697320746865207a65726f206160448201526564647265737360d01b6064820152608401620001f8565b8060008051602062000fbd83398151915262000303565b6060600080856001600160a01b031685604051620003f091906200064a565b600060405180830381855af49150503d80600081146200042d576040519150601f19603f3d011682016040523d82523d6000602084013e62000432565b606091505b509092509050620004468683838762000450565b9695505050505050565b60608315620004c4578251600003620004bc576001600160a01b0385163b620004bc5760405162461bcd60e51b815260206004820152601d60248201527f416464726573733a2063616c6c20746f206e6f6e2d636f6e74726163740000006044820152606401620001f8565b5081620004d0565b620004d08383620004d8565b949350505050565b815115620004e95781518083602001fd5b8060405162461bcd60e51b8152600401620001f8919062000668565b80516001600160a01b03811681146200051d57600080fd5b919050565b634e487b7160e01b600052604160045260246000fd5b60005b83811015620005555781810151838201526020016200053b565b50506000910152565b600080604083850312156200057257600080fd5b6200057d8362000505565b60208401519092506001600160401b03808211156200059b57600080fd5b818501915085601f830112620005b057600080fd5b815181811115620005c557620005c562000522565b604051601f8201601f19908116603f01168101908382118183101715620005f057620005f062000522565b816040528281528860208487010111156200060a57600080fd5b6200061d83602083016020880162000538565b80955050505050509250929050565b6000602082840312156200063f57600080fd5b6200034c8262000505565b600082516200065e81846020870162000538565b9190910192915050565b60208152600082518060208401526200068981604085016020870162000538565b601f01601f19169190910160400192915050565b61091080620006ad6000396000f3fe6080604052600436106100385760003560e01c80631f8ab9ff1461004f5780636e9960c31461006f5780638f283970146100a057610047565b36610047576100456100c0565b005b6100456100c0565b34801561005b57600080fd5b5061004561006a366004610701565b6100d2565b34801561007b57600080fd5b50610084610123565b6040516001600160a01b03909116815260200160405180910390f35b3480156100ac57600080fd5b506100456100bb3660046107c5565b610132565b6100d06100cb610176565b6101e1565b565b6100da61020a565b6001600160a01b0316336001600160a01b0316146101135760405162461bcd60e51b815260040161010a906107e2565b60405180910390fd5b61011f8282600061023d565b5050565b600061012d61020a565b905090565b61013a61020a565b6001600160a01b0316336001600160a01b03161461016a5760405162461bcd60e51b815260040161010a906107e2565b610173816102fd565b50565b6000610180610351565b6001600160a01b0316635c60da1b6040518163ffffffff1660e01b8152600401602060405180830381865afa1580156101bd573d6000803e3d6000fd5b505050506040513d601f19601f8201168201806040525081019061012d9190610823565b3660008037600080366000845af43d6000803e808015610200573d6000f35b3d6000fd5b505050565b60007fb53127684a568b3173ae13b9f8a6016e243e63b6e8ee1178d6a717850b5d61035b546001600160a01b0316919050565b61024683610379565b6040516001600160a01b038416907f1cf3b03a6cf19fa2baba4df148e9dcabedea7f8a5c07840e207e5c089be95d3e90600090a26000825111806102875750805b15610205576102f7836001600160a01b0316635c60da1b6040518163ffffffff1660e01b8152600401602060405180830381865afa1580156102cd573d6000803e3d6000fd5b505050506040513d601f19601f820116820180604052508101906102f19190610823565b836104fb565b50505050565b7f7e644d79422f17c01e4894b5f4f588d331ebfa28653d42ae832dc59e38c9798f61032661020a565b604080516001600160a01b03928316815291841660208301520160405180910390a161017381610527565b60007fa3f0ad74e5423aebfd80d3ef4346578335a9a72aeaee59ff6cb3582b35133d5061022e565b6001600160a01b0381163b6103de5760405162461bcd60e51b815260206004820152602560248201527f455243313936373a206e657720626561636f6e206973206e6f74206120636f6e6044820152641d1c9858dd60da1b606482015260840161010a565b610452816001600160a01b0316635c60da1b6040518163ffffffff1660e01b8152600401602060405180830381865afa15801561041f573d6000803e3d6000fd5b505050506040513d601f19601f820116820180604052508101906104439190610823565b6001600160a01b03163b151590565b6104b75760405162461bcd60e51b815260206004820152603060248201527f455243313936373a20626561636f6e20696d706c656d656e746174696f6e206960448201526f1cc81b9bdd08184818dbdb9d1c9858dd60821b606482015260840161010a565b807fa3f0ad74e5423aebfd80d3ef4346578335a9a72aeaee59ff6cb3582b35133d505b80546001600160a01b0319166001600160a01b039290921691909117905550565b606061052083836040518060600160405280602781526020016108b4602791396105b3565b9392505050565b6001600160a01b03811661058c5760405162461bcd60e51b815260206004820152602660248201527f455243313936373a206e65772061646d696e20697320746865207a65726f206160448201526564647265737360d01b606482015260840161010a565b807fb53127684a568b3173ae13b9f8a6016e243e63b6e8ee1178d6a717850b5d61036104da565b6060600080856001600160a01b0316856040516105d09190610864565b600060405180830381855af49150503d806000811461060b576040519150601f19603f3d011682016040523d82523d6000602084013e610610565b606091505b50915091506106218683838761062b565b9695505050505050565b6060831561069a578251600003610693576001600160a01b0385163b6106935760405162461bcd60e51b815260206004820152601d60248201527f416464726573733a2063616c6c20746f206e6f6e2d636f6e7472616374000000604482015260640161010a565b50816106a4565b6106a483836106ac565b949350505050565b8151156106bc5781518083602001fd5b8060405162461bcd60e51b815260040161010a9190610880565b6001600160a01b038116811461017357600080fd5b634e487b7160e01b600052604160045260246000fd5b6000806040838503121561071457600080fd5b823561071f816106d6565b9150602083013567ffffffffffffffff8082111561073c57600080fd5b818501915085601f83011261075057600080fd5b813581811115610762576107626106eb565b604051601f8201601f19908116603f0116810190838211818310171561078a5761078a6106eb565b816040528281528860208487010111156107a357600080fd5b8260208601602083013760006020848301015280955050505050509250929050565b6000602082840312156107d757600080fd5b8135610520816106d6565b60208082526021908201527f4f6e6c792061646d696e2063616e2063616c6c20746869732066756e6374696f6040820152603760f91b606082015260800190565b60006020828403121561083557600080fd5b8151610520816106d6565b60005b8381101561085b578181015183820152602001610843565b50506000910152565b60008251610876818460208701610840565b9190910192915050565b602081526000825180602084015261089f816040850160208701610840565b601f01601f1916919091016040019291505056fe416464726573733a206c6f772d6c6576656c2064656c65676174652063616c6c206661696c6564a2646970667358221220133ec92c66bdc5489734620d6dc37956f84aaf4137cf8c3fafcccdeb3a5a5e0d64736f6c63430008130033b53127684a568b3173ae13b9f8a6016e243e63b6e8ee1178d6a717850b5d6103416464726573733a206c6f772d6c6576656c2064656c65676174652063616c6c206661696c656460806040523480156200001157600080fd5b50604051620010043803806200100483398101604081905262000034916200055e565b818162000044828260006200005a565b506200005290503362000124565b50506200069d565b620000658362000196565b6040516001600160a01b038416907f1cf3b03a6cf19fa2baba4df148e9dcabedea7f8a5c07840e207e5c089be95d3e90600090a2600082511180620000a75750805b156200011f576200011d836001600160a01b0316635c60da1b6040518163ffffffff1660e01b8152600401602060405180830381865afa158015620000f0573d6000803e3d6000fd5b505050506040513d601f19601f820116820180604052508101906200011691906200062c565b8362000324565b505b505050565b7f7e644d79422f17c01e4894b5f4f588d331ebfa28653d42ae832dc59e38c9798f6200016660008051602062000fbd833981519152546001600160a01b031690565b604080516001600160a01b03928316815291841660208301520160405180910390a1620001938162000353565b50565b6001600160a01b0381163b620002015760405162461bcd60e51b815260206004820152602560248201527f455243313936373a206e657720626561636f6e206973206e6f74206120636f6e6044820152641d1c9858dd60da1b60648201526084015b60405180910390fd5b62000279816001600160a01b0316635c60da1b6040518163ffffffff1660e01b8152600401602060405180830381865afa15801562000244573d6000803e3d6000fd5b505050506040513d601f19601f820116820180604052508101906200026a91906200062c565b6001600160a01b03163b151590565b620002e05760405162461bcd60e51b815260206004820152603060248201527f455243313936373a20626561636f6e20696d706c656d656e746174696f6e206960448201526f1cc81b9bdd08184818dbdb9d1c9858dd60821b6064820152608401620001f8565b807fa3f0ad74e5423aebfd80d3ef4346578335a9a72aeaee59ff6cb3582b35133d505b80546001600160a01b0319166001600160a01b039290921691909117905550565b60606200034c838360405180606001604052806027815260200162000fdd60279139620003d1565b9392505050565b6001600160a01b038116620003ba5760405162461bcd60e51b815260206004820152602660248201527f455243313936373a206e65772061646d696e20697320746865207a65726f206160448201526564647265737360d01b6064820152608401620001f8565b8060008051602062000fbd83398151915262000303565b6060600080856001600160a01b031685604051620003f091906200064a565b600060405180830381855af49150503d80600081146200042d576040519150601f19603f3d011682016040523d82523d6000602084013e62000432565b606091505b509092509050620004468683838762000450565b9695505050505050565b60608315620004c4578251600003620004bc576001600160a01b0385163b620004bc5760405162461bcd60e51b815260206004820152601d60248201527f416464726573733a2063616c6c20746f206e6f6e2d636f6e74726163740000006044820152606401620001f8565b5081620004d0565b620004d08383620004d8565b949350505050565b815115620004e95781518083602001fd5b8060405162461bcd60e51b8152600401620001f8919062000668565b80516001600160a01b03811681146200051d57600080fd5b919050565b634e487b7160e01b600052604160045260246000fd5b60005b83811015620005555781810151838201526020016200053b565b50506000910152565b600080604083850312156200057257600080fd5b6200057d8362000505565b60208401519092506001600160401b03808211156200059b57600080fd5b818501915085601f830112620005b057600080fd5b815181811115620005c557620005c562000522565b604051601f8201601f19908116603f01168101908382118183101715620005f057620005f062000522565b816040528281528860208487010111156200060a57600080fd5b6200061d83602083016020880162000538565b80955050505050509250929050565b6000602082840312156200063f57600080fd5b6200034c8262000505565b600082516200065e81846020870162000538565b9190910192915050565b60208152600082518060208401526200068981604085016020870162000538565b601f01601f19169190910160400192915050565b61091080620006ad6000396000f3fe6080604052600436106100385760003560e01c80631f8ab9ff1461004f5780636e9960c31461006f5780638f283970146100a057610047565b36610047576100456100c0565b005b6100456100c0565b34801561005b57600080fd5b5061004561006a366004610701565b6100d2565b34801561007b57600080fd5b50610084610123565b6040516001600160a01b03909116815260200160405180910390f35b3480156100ac57600080fd5b506100456100bb3660046107c5565b610132565b6100d06100cb610176565b6101e1565b565b6100da61020a565b6001600160a01b0316336001600160a01b0316146101135760405162461bcd60e51b815260040161010a906107e2565b60405180910390fd5b61011f8282600061023d565b5050565b600061012d61020a565b905090565b61013a61020a565b6001600160a01b0316336001600160a01b03161461016a5760405162461bcd60e51b815260040161010a906107e2565b610173816102fd565b50565b6000610180610351565b6001600160a01b0316635c60da1b6040518163ffffffff1660e01b8152600401602060405180830381865afa1580156101bd573d6000803e3d6000fd5b505050506040513d601f19601f8201168201806040525081019061012d9190610823565b3660008037600080366000845af43d6000803e808015610200573d6000f35b3d6000fd5b505050565b60007fb53127684a568b3173ae13b9f8a6016e243e63b6e8ee1178d6a717850b5d61035b546001600160a01b0316919050565b61024683610379565b6040516001600160a01b038416907f1cf3b03a6cf19fa2baba4df148e9dcabedea7f8a5c07840e207e5c089be95d3e90600090a26000825111806102875750805b15610205576102f7836001600160a01b0316635c60da1b6040518163ffffffff1660e01b8152600401602060405180830381865afa1580156102cd573d6000803e3d6000fd5b505050506040513d601f19601f820116820180604052508101906102f19190610823565b836104fb565b50505050565b7f7e644d79422f17c01e4894b5f4f588d331ebfa28653d42ae832dc59e38c9798f61032661020a565b604080516001600160a01b03928316815291841660208301520160405180910390a161017381610527565b60007fa3f0ad74e5423aebfd80d3ef4346578335a9a72aeaee59ff6cb3582b35133d5061022e565b6001600160a01b0381163b6103de5760405162461bcd60e51b815260206004820152602560248201527f455243313936373a206e657720626561636f6e206973206e6f74206120636f6e6044820152641d1c9858dd60da1b606482015260840161010a565b610452816001600160a01b0316635c60da1b6040518163ffffffff1660e01b8152600401602060405180830381865afa15801561041f573d6000803e3d6000fd5b505050506040513d601f19601f820116820180604052508101906104439190610823565b6001600160a01b03163b151590565b6104b75760405162461bcd60e51b815260206004820152603060248201527f455243313936373a20626561636f6e20696d706c656d656e746174696f6e206960448201526f1cc81b9bdd08184818dbdb9d1c9858dd60821b606482015260840161010a565b807fa3f0ad74e5423aebfd80d3ef4346578335a9a72aeaee59ff6cb3582b35133d505b80546001600160a01b0319166001600160a01b039290921691909117905550565b606061052083836040518060600160405280602781526020016108b4602791396105b3565b9392505050565b6001600160a01b03811661058c5760405162461bcd60e51b815260206004820152602660248201527f455243313936373a206e65772061646d696e20697320746865207a65726f206160448201526564647265737360d01b606482015260840161010a565b807fb53127684a568b3173ae13b9f8a6016e243e63b6e8ee1178d6a717850b5d61036104da565b6060600080856001600160a01b0316856040516105d09190610864565b600060405180830381855af49150503d806000811461060b576040519150601f19603f3d011682016040523d82523d6000602084013e610610565b606091505b50915091506106218683838761062b565b9695505050505050565b6060831561069a578251600003610693576001600160a01b0385163b6106935760405162461bcd60e51b815260206004820152601d60248201527f416464726573733a2063616c6c20746f206e6f6e2d636f6e7472616374000000604482015260640161010a565b50816106a4565b6106a483836106ac565b949350505050565b8151156106bc5781518083602001fd5b8060405162461bcd60e51b815260040161010a9190610880565b6001600160a01b038116811461017357600080fd5b634e487b7160e01b600052604160045260246000fd5b6000806040838503121561071457600080fd5b823561071f816106d6565b9150602083013567ffffffffffffffff8082111561073c57600080fd5b818501915085601f83011261075057600080fd5b813581811115610762576107626106eb565b604051601f8201601f19908116603f0116810190838211818310171561078a5761078a6106eb565b816040528281528860208487010111156107a357600080fd5b8260208601602083013760006020848301015280955050505050509250929050565b6000602082840312156107d757600080fd5b8135610520816106d6565b60208082526021908201527f4f6e6c792061646d696e2063616e2063616c6c20746869732066756e6374696f6040820152603760f91b606082015260800190565b60006020828403121561083557600080fd5b8151610520816106d6565b60005b8381101561085b578181015183820152602001610843565b50506000910152565b60008251610876818460208701610840565b9190910192915050565b602081526000825180602084015261089f816040850160208701610840565b601f01601f1916919091016040019291505056fe416464726573733a206c6f772d6c6576656c2064656c65676174652063616c6c206661696c6564a26469706673582212208cf26aa559b7d1758649bf0eb16b82a456770acbc2cbd64ae0ee87174fb7fb9a64736f6c63430008130033b53127684a568b3173ae13b9f8a6016e243e63b6e8ee1178d6a717850b5d6103416464726573733a206c6f772d6c6576656c2064656c65676174652063616c6c206661696c6564a2646970667358221220bba368ba5020a78a215e3108fa2ab3eb168c0b30a9e9040c1b96b956244f89a564736f6c63430008130033608060405234801561001057600080fd5b506125a4806100206000396000f3fe608060405234801561001057600080fd5b50600436106100ea5760003560e01c8063442ab7441161008c578063ba82a0f411610066578063ba82a0f4146101b9578063beebc5da146101e4578063c9809187146101f7578063e269c3d61461020857600080fd5b8063442ab744146101805780634da471b7146101885780637f20170d1461019057600080fd5b80632acf179b116100c85780632acf179b1461011f5780633462fcc11461013a578063397bfe551461015a57806339bf70d11461016d57600080fd5b80630f15f4c0146100ef57806310acd06d146100f95780631794bb3c1461010c575b600080fd5b6100f7610219565b005b6100f7610107366004611e07565b6102b4565b6100f761011a366004611e78565b6103d1565b610127610523565b6040519081526020015b60405180910390f35b61014d610148366004611efe565b61062d565b6040516101319190611fc5565b6100f7610168366004611fd8565b61081c565b6100f761017b366004611ff5565b6108e1565b610127610a75565b600354610127565b61012761019e366004611fd8565b6001600160a01b031660009081526004602052604090205490565b6000546201000090046001600160a01b03165b6040516001600160a01b039091168152602001610131565b6101276101f2366004612051565b610d12565b6002546001600160a01b03166101cc565b6001546001600160a01b03166101cc565b610221610d2c565b60006102356002546001600160a01b031690565b9050806001600160a01b0316634ef0762e6102586001546001600160a01b031690565b6040516001600160e01b031960e084901b1681526001600160a01b039091166004820152602401600060405180830381600087803b15801561029957600080fd5b505af11580156102ad573d6000803e3d6000fd5b5050505050565b60068360078111156102c8576102c8612073565b03610366576001546001600160a01b03166102e583830184611fd8565b6001600160a01b0316036103665760405162461bcd60e51b815260206004820152603a60248201527f7065726d697373696f6e65645661756c74416374696f6e3a2043616e6e6f742060448201527f756e747261636b2064656e6f6d696e6174696f6e20617373657400000000000060648201526084015b60405180910390fd5b600254604051631273000960e11b81526001600160a01b03909116906324e600129061039a908690869086906004016120b2565b600060405180830381600087803b1580156103b457600080fd5b505af11580156103c8573d6000803e3d6000fd5b50505050505050565b600054610100900460ff16158080156103f15750600054600160ff909116105b8061040b5750303b15801561040b575060005460ff166001145b61046e5760405162461bcd60e51b815260206004820152602e60248201527f496e697469616c697a61626c653a20636f6e747261637420697320616c72656160448201526d191e481a5b9a5d1a585b1a5e995960921b606482015260840161035d565b6000805460ff191660011790558015610491576000805461ff0019166101001790555b6000805462010000600160b01b031916620100006001600160a01b0387811691909102919091179091556003839055600180546001600160a01b031916918516919091179055801561051d576000805461ff0019169055604051600181527f7f26b83ff96e1f2b6a682f133852f6798a09c465da95921460cefb38474024989060200160405180910390a15b50505050565b60008061052e610a75565b9050610627816105466002546001600160a01b031690565b6001600160a01b03166318160ddd6040518163ffffffff1660e01b8152600401602060405180830381865afa158015610583573d6000803e3d6000fd5b505050506040513d601f19601f820116820180604052508101906105a791906120f3565b6001546001600160a01b03166001600160a01b031663313ce5676040518163ffffffff1660e01b8152600401602060405180830381865afa1580156105f0573d6000803e3d6000fd5b505050506040513d601f19601f82011682018060405250810190610614919061210c565b6106229060ff16600a612229565b610e01565b91505090565b6060610637610e32565b6002805460ff60a81b1916600160a81b179055338483146106b05760405162461bcd60e51b815260206004820152602d60248201527f72656465656d536861726573466f7253706563696669634173736574733a205560448201526c6e657175616c2061727261797360981b606482015260840161035d565b6106ec868680806020026020016040519081016040528093929190818152602001838360200280828437600092019190915250610e7a92505050565b6107565760405162461bcd60e51b815260206004820152603560248201527f72656465656d536861726573466f7253706563696669634173736574733a20446044820152741d5c1b1a58d85d19481c185e5bdd5d08185cdcd95d605a1b606482015260840161035d565b6000610760610a75565b905060006107766002546001600160a01b031690565b905060008061078683868d610f37565b90925090506107ad838d8c8c8c8c6107a8886107a28d8c61119d565b906111a9565b6111b5565b95508b6001600160a01b0316856001600160a01b03167fbf88879a1555e4d7d38ebeffabce61fdf5e12ea0468abf855a72ec17b432bed5848d8d8b6040516107f89493929190612235565b60405180910390a350505050506002805460ff60a81b191690559695505050505050565b610824610d2c565b6001600160a01b03811661088d5760405162461bcd60e51b815260206004820152602a60248201527f7365745661756c7450726f78793a205f7661756c7450726f78792063616e6e6f6044820152697420626520656d70747960b01b606482015260840161035d565b600280546001600160a01b0319166001600160a01b0383169081179091556040519081527f5be181178e61e61e33f79c396c7194b8f3c80f77899da7bd96fe537411300bcb9060200160405180910390a150565b6108e9610e32565b6002805460ff60a81b1916600160a81b1790556109046115d8565b6002805460ff60a01b1916600160a01b1790556109306000546001600160a01b03620100009091041690565b6001600160a01b031663e7c456906040518163ffffffff1660e01b8152600401602060405180830381865afa15801561096d573d6000803e3d6000fd5b505050506040513d601f19601f8201168201806040525081019061099191906122b1565b6001600160a01b0316846001600160a01b0316146109fd5760405162461bcd60e51b815260206004820152602360248201527f63616c6c4f6e457874656e73696f6e3a205f657874656e73696f6e20696e76616044820152621b1a5960ea1b606482015260840161035d565b6040516306fb2d8760e11b81526001600160a01b03851690630df65b0e90610a2f9033908790879087906004016122ce565b600060405180830381600087803b158015610a4957600080fd5b505af1158015610a5d573d6000803e3d6000fd5b50506002805461ffff60a01b19169055505050505050565b600080610a8a6002546001600160a01b031690565b90506000816001600160a01b031663c4b973706040518163ffffffff1660e01b8152600401600060405180830381865afa158015610acc573d6000803e3d6000fd5b505050506040513d6000823e601f3d908101601f19168201604052610af49190810190612316565b90508051600003610b085760009250505090565b6000815167ffffffffffffffff811115610b2457610b24612300565b604051908082528060200260200182016040528015610b4d578160200160208202803683370190505b50905060005b8251811015610c1357828181518110610b6e57610b6e6123db565b60209081029190910101516040516370a0823160e01b81526001600160a01b038681166004830152909116906370a0823190602401602060405180830381865afa158015610bc0573d6000803e3d6000fd5b505050506040513d601f19601f82011682018060405250810190610be491906120f3565b828281518110610bf657610bf66123db565b602090810291909101015280610c0b816123f1565b915050610b53565b506000546201000090046001600160a01b03166001600160a01b0316634ddce9b06040518163ffffffff1660e01b8152600401602060405180830381865afa158015610c63573d6000803e3d6000fd5b505050506040513d601f19601f82011682018060405250810190610c8791906122b1565b6001600160a01b031663ae6f52ad8383610ca96001546001600160a01b031690565b6040518463ffffffff1660e01b8152600401610cc79392919061240a565b6020604051808303816000875af1158015610ce6573d6000803e3d6000fd5b505050506040513d601f19601f82011682018060405250810190610d0a91906120f3565b935050505090565b600033610d228185858583611632565b9150505b92915050565b6000546201000090046001600160a01b03166001600160a01b03166318bcb2846040518163ffffffff1660e01b8152600401602060405180830381865afa158015610d7b573d6000803e3d6000fd5b505050506040513d601f19601f82011682018060405250810190610d9f91906122b1565b6001600160a01b0316336001600160a01b031614610dff5760405162461bcd60e51b815260206004820152601a60248201527f4f6e6c79205661756c74466163746f72792063616c6c61626c65000000000000604482015260640161035d565b565b600082600003610e12575080610e2b565b610e28836107a286670de0b6b3a764000061119d565b90505b9392505050565b600254600160a81b900460ff1615610dff5760405162461bcd60e51b815260206004820152600b60248201526a52652d656e7472616e636560a81b604482015260640161035d565b60006001825111610e8d57506001919050565b815160005b81811015610f2d576000610ea782600161247a565b90505b82811015610f1a57848181518110610ec457610ec46123db565b60200260200101516001600160a01b0316858381518110610ee757610ee76123db565b60200260200101516001600160a01b031603610f0857506000949350505050565b80610f12816123f1565b915050610eaa565b5080610f25816123f1565b915050610e92565b5060019392505050565b600080610f43846119dd565b6040516370a0823160e01b81526001600160a01b03858116600483015286916000918316906370a0823190602401602060405180830381865afa158015610f8e573d6000803e3d6000fd5b505050506040513d601f19601f82011682018060405250810190610fb291906120f3565b90506000198503610fc557809350610fc9565b8493505b6000841161102a5760405162461bcd60e51b815260206004820152602860248201527f5f5f72656465656d53686172657353657475703a204e6f2073686172657320746044820152676f2072656465656d60c01b606482015260840161035d565b6040516370a0823160e01b81526001600160a01b038781166004830152600091908416906370a0823190602401602060405180830381865afa158015611074573d6000803e3d6000fd5b505050506040513d601f19601f8201168201806040525081019061109891906120f3565b905060001986036110ab578094506110ca565b818110156110ca576110c76110c08383611a5e565b8690611a5e565b94505b826001600160a01b03166318160ddd6040518163ffffffff1660e01b8152600401602060405180830381865afa158015611108573d6000803e3d6000fd5b505050506040513d601f19601f8201168201806040525081019061112c91906120f3565b604051633b9e9f0160e21b81526001600160a01b038981166004830152602482018890529195509089169063ee7a7c0490604401600060405180830381600087803b15801561117a57600080fd5b505af115801561118e573d6000803e3d6000fd5b50505050505050935093915050565b6000610e2b828461248d565b6000610e2b82846124a4565b606060006111cb6001546001600160a01b031690565b905060008667ffffffffffffffff8111156111e8576111e8612300565b604051908082528060200260200182016040528015611211578160200160208202803683370190505b50925060005b878110156115535761124a878783818110611234576112346123db565b9050602002013583611a6a90919063ffffffff16565b915061aaaa898983818110611261576112616123db565b90506020020160208101906112769190611fd8565b6001600160a01b031614611541576000546201000090046001600160a01b03166001600160a01b0316634ddce9b06040518163ffffffff1660e01b8152600401602060405180830381865afa1580156112d3573d6000803e3d6000fd5b505050506040513d601f19601f820116820180604052508101906112f791906122b1565b6001600160a01b0316634c67e106846113376127106107a28c8c88818110611321576113216123db565b905060200201358b61119d90919063ffffffff16565b8c8c86818110611349576113496123db565b905060200201602081019061135e9190611fd8565b60405160e085901b6001600160e01b03191681526001600160a01b039384166004820152602481019290925290911660448201526064016020604051808303816000875af11580156113b4573d6000803e3d6000fd5b505050506040513d601f19601f820116820180604052508101906113d891906120f3565b8482815181106113ea576113ea6123db565b602002602001018181525050600084828151811061140a5761140a6123db565b6020026020010151116114855760405162461bcd60e51b815260206004820152603860248201527f5f5f7061796f7574537065636966696564417373657450657263656e7461676560448201527f733a205a65726f20616d6f756e7420666f722061737365740000000000000000606482015260840161035d565b8a6001600160a01b031663495d753c8a8a848181106114a6576114a66123db565b90506020020160208101906114bb9190611fd8565b8c8785815181106114ce576114ce6123db565b60209081029190910101516040516001600160e01b031960e086901b1681526001600160a01b0393841660048201529290911660248301526044820152606401600060405180830381600087803b15801561152857600080fd5b505af115801561153c573d6000803e3d6000fd5b505050505b8061154b816123f1565b915050611217565b5061271081146115cb5760405162461bcd60e51b815260206004820152603b60248201527f5f5f7061796f7574537065636966696564417373657450657263656e7461676560448201527f733a2050657263656e7473206d75737420746f74616c20313030250000000000606482015260840161035d565b5050979650505050505050565b600254600160a01b900460ff1615610dff5760405162461bcd60e51b815260206004820152601860248201527f5661756c7420616374696f6e2072652d656e7472616e63650000000000000000604482015260640161035d565b600061163c610e32565b6002805460ff60a81b1916600160a81b1790556001600160a01b0386166116b15760405162461bcd60e51b815260206004820152602360248201527f5f5f6275795368617265733a205f62757965722063616e6e6f7420626520656d60448201526270747960e81b606482015260840161035d565b600084116117145760405162461bcd60e51b815260206004820152602a60248201527f5f5f6275795368617265733a205f6d696e5368617265735175616e746974792060448201526906d757374206265203e360b41b606482015260840161035d565b60006117286002546001600160a01b031690565b905083156117885760405162461bcd60e51b815260206004820152602760248201527f5f5f6275795368617265733a20616374696f6e206c6f636b65642062792074696044820152666d65206c6f636b60c81b606482015260840161035d565b6000611792610a75565b905060006117b36117ab6001546001600160a01b031690565b86858b611a76565b905060006117f983856001600160a01b03166318160ddd6040518163ffffffff1660e01b8152600401602060405180830381865afa158015610583573d6000803e3d6000fd5b90506000611813826107a285670de0b6b3a764000061119d565b6040516370a0823160e01b81526001600160a01b038d811660048301529192506000918716906370a0823190602401602060405180830381865afa15801561185f573d6000803e3d6000fd5b505050506040513d601f19601f8201168201806040525081019061188391906120f3565b6040516329460cc560e11b81526001600160a01b038e81166004830152602482018590529192509087169063528c198a90604401600060405180830381600087803b1580156118d157600080fd5b505af11580156118e5573d6000803e3d6000fd5b50505050898210156119535760405162461bcd60e51b815260206004820152603160248201527f5f5f6275795368617265733a20536861726573207265636569766564203c205f6044820152706d696e5368617265735175616e7469747960781b606482015260840161035d565b8815611975576001600160a01b038c1660009081526004602052604090204290555b60408051858152602081018390529081018390526001600160a01b038d16907f849165c18b9d0fb161bcb145e4ab523d350e5c98f1dbbb1960331e7ee3ca67679060600160405180910390a2506002805460ff60a81b191690559a9950505050505050505050565b6001600160a01b038116600090815260046020526040902054801580611a0e5750600354611a0b4283611a5e565b10155b611a5a5760405162461bcd60e51b815260206004820152601860248201527f53686172657320616374696f6e2074696d656c6f636b65640000000000000000604482015260640161035d565b5050565b6000610e2b82846124c6565b6000610e2b828461247a565b6040516370a0823160e01b81526001600160a01b03838116600483015260009182918716906370a0823190602401602060405180830381865afa158015611ac1573d6000803e3d6000fd5b505050506040513d601f19601f82011682018060405250810190611ae591906120f3565b9050611afc6001600160a01b038716868686611b7e565b6040516370a0823160e01b81526001600160a01b038581166004830152611b729183918916906370a0823190602401602060405180830381865afa158015611b48573d6000803e3d6000fd5b505050506040513d601f19601f82011682018060405250810190611b6c91906120f3565b90611a5e565b9150505b949350505050565b604080516001600160a01b038581166024830152848116604483015260648083018590528351808403909101815260849092018352602080830180516001600160e01b03166323b872dd60e01b17905283518085019094528084527f5361666545524332303a206c6f772d6c6576656c2063616c6c206661696c65649084015261051d92879291600091611c16918516908490611c9b565b9050805160001480611c37575080806020019051810190611c3791906124d9565b611c965760405162461bcd60e51b815260206004820152602a60248201527f5361666545524332303a204552433230206f7065726174696f6e20646964206e6044820152691bdd081cdd58d8d9595960b21b606482015260840161035d565b505050565b6060610e28848460008585600080866001600160a01b03168587604051611cc2919061251f565b60006040518083038185875af1925050503d8060008114611cff576040519150601f19603f3d011682016040523d82523d6000602084013e611d04565b606091505b5091509150611d1587838387611d20565b979650505050505050565b60608315611d8f578251600003611d88576001600160a01b0385163b611d885760405162461bcd60e51b815260206004820152601d60248201527f416464726573733a2063616c6c20746f206e6f6e2d636f6e7472616374000000604482015260640161035d565b5081611b76565b611b768383815115611da45781518083602001fd5b8060405162461bcd60e51b815260040161035d919061253b565b60008083601f840112611dd057600080fd5b50813567ffffffffffffffff811115611de857600080fd5b602083019150836020828501011115611e0057600080fd5b9250929050565b600080600060408486031215611e1c57600080fd5b833560088110611e2b57600080fd5b9250602084013567ffffffffffffffff811115611e4757600080fd5b611e5386828701611dbe565b9497909650939450505050565b6001600160a01b0381168114611e7557600080fd5b50565b600080600060608486031215611e8d57600080fd5b8335611e9881611e60565b92506020840135611ea881611e60565b929592945050506040919091013590565b60008083601f840112611ecb57600080fd5b50813567ffffffffffffffff811115611ee357600080fd5b6020830191508360208260051b8501011115611e0057600080fd5b60008060008060008060808789031215611f1757600080fd5b8635611f2281611e60565b955060208701359450604087013567ffffffffffffffff80821115611f4657600080fd5b611f528a838b01611eb9565b90965094506060890135915080821115611f6b57600080fd5b50611f7889828a01611eb9565b979a9699509497509295939492505050565b600081518084526020808501945080840160005b83811015611fba57815187529582019590820190600101611f9e565b509495945050505050565b602081526000610e2b6020830184611f8a565b600060208284031215611fea57600080fd5b8135610e2b81611e60565b6000806000806060858703121561200b57600080fd5b843561201681611e60565b935060208501359250604085013567ffffffffffffffff81111561203957600080fd5b61204587828801611dbe565b95989497509550505050565b6000806040838503121561206457600080fd5b50508035926020909101359150565b634e487b7160e01b600052602160045260246000fd5b81835281816020850137506000828201602090810191909152601f909101601f19169091010190565b6000600885106120d257634e487b7160e01b600052602160045260246000fd5b848252604060208301526120ea604083018486612089565b95945050505050565b60006020828403121561210557600080fd5b5051919050565b60006020828403121561211e57600080fd5b815160ff81168114610e2b57600080fd5b634e487b7160e01b600052601160045260246000fd5b600181815b808511156121805781600019048211156121665761216661212f565b8085161561217357918102915b93841c939080029061214a565b509250929050565b60008261219757506001610d26565b816121a457506000610d26565b81600181146121ba57600281146121c4576121e0565b6001915050610d26565b60ff8411156121d5576121d561212f565b50506001821b610d26565b5060208310610133831016604e8410600b8410161715612203575081810a610d26565b61220d8383612145565b80600019048211156122215761222161212f565b029392505050565b6000610e2b8383612188565b84815260606020808301829052908201849052600090859060808401835b8781101561228157833561226681611e60565b6001600160a01b031682529282019290820190600101612253565b5084810360408601526122948187611f8a565b9998505050505050505050565b80516122ac81611e60565b919050565b6000602082840312156122c357600080fd5b8151610e2b81611e60565b60018060a01b03851681528360208201526060604082015260006122f6606083018486612089565b9695505050505050565b634e487b7160e01b600052604160045260246000fd5b6000602080838503121561232957600080fd5b825167ffffffffffffffff8082111561234157600080fd5b818501915085601f83011261235557600080fd5b81518181111561236757612367612300565b8060051b604051601f19603f8301168101818110858211171561238c5761238c612300565b6040529182528482019250838101850191888311156123aa57600080fd5b938501935b828510156123cf576123c0856122a1565b845293850193928501926123af565b98975050505050505050565b634e487b7160e01b600052603260045260246000fd5b6000600182016124035761240361212f565b5060010190565b606080825284519082018190526000906020906080840190828801845b8281101561244c5781516001600160a01b031684529284019290840190600101612427565b505050838103828501526124608187611f8a565b9250505060018060a01b0383166040830152949350505050565b80820180821115610d2657610d2661212f565b8082028115828204841417610d2657610d2661212f565b6000826124c157634e487b7160e01b600052601260045260246000fd5b500490565b81810381811115610d2657610d2661212f565b6000602082840312156124eb57600080fd5b81518015158114610e2b57600080fd5b60005b838110156125165781810151838201526020016124fe565b50506000910152565b600082516125318184602087016124fb565b9190910192915050565b602081526000825180602084015261255a8160408501602087016124fb565b601f01601f1916919091016040019291505056fea26469706673582212207c6b42a6171009460d6965251ca673d8ea952f2b867f0a94068948351d9d179664736f6c63430008130033608060405234801561001057600080fd5b506040516104be3803806104be83398101604081905261002f9161013a565b61003833610047565b61004181610097565b5061016a565b600080546001600160a01b038381166001600160a01b0319831681178455604051919092169283917f8be0079c531659141344cd1fd0a4f28419497f9722a3daafe3b4186f6b6457e09190a35050565b6001600160a01b0381163b6101185760405162461bcd60e51b815260206004820152603360248201527f5570677261646561626c65426561636f6e3a20696d706c656d656e746174696f60448201527f6e206973206e6f74206120636f6e747261637400000000000000000000000000606482015260840160405180910390fd5b600180546001600160a01b0319166001600160a01b0392909216919091179055565b60006020828403121561014c57600080fd5b81516001600160a01b038116811461016357600080fd5b9392505050565b610345806101796000396000f3fe608060405234801561001057600080fd5b50600436106100575760003560e01c80633659cfe61461005c5780635c60da1b14610071578063715018a61461009a5780638da5cb5b146100a2578063f2fde38b146100b3575b600080fd5b61006f61006a3660046102df565b6100c6565b005b6001546001600160a01b03165b6040516001600160a01b03909116815260200160405180910390f35b61006f61010e565b6000546001600160a01b031661007e565b61006f6100c13660046102df565b610122565b6100ce6101a0565b6100d7816101fa565b6040516001600160a01b038216907fbc7cd75a20ee27fd9adebab32041f755214dbc6bffa90cc0225b39da2e5c2d3b90600090a250565b6101166101a0565b610120600061028f565b565b61012a6101a0565b6001600160a01b0381166101945760405162461bcd60e51b815260206004820152602660248201527f4f776e61626c653a206e6577206f776e657220697320746865207a65726f206160448201526564647265737360d01b60648201526084015b60405180910390fd5b61019d8161028f565b50565b6000546001600160a01b031633146101205760405162461bcd60e51b815260206004820181905260248201527f4f776e61626c653a2063616c6c6572206973206e6f7420746865206f776e6572604482015260640161018b565b6001600160a01b0381163b61026d5760405162461bcd60e51b815260206004820152603360248201527f5570677261646561626c65426561636f6e3a20696d706c656d656e746174696f6044820152721b881a5cc81b9bdd08184818dbdb9d1c9858dd606a1b606482015260840161018b565b600180546001600160a01b0319166001600160a01b0392909216919091179055565b600080546001600160a01b038381166001600160a01b0319831681178455604051919092169283917f8be0079c531659141344cd1fd0a4f28419497f9722a3daafe3b4186f6b6457e09190a35050565b6000602082840312156102f157600080fd5b81356001600160a01b038116811461030857600080fd5b939250505056fea26469706673582212206d16d202c3e6ac038bb9e0f7d26f3e3b87ef4367aa4d980bad6a457be630831764736f6c63430008130033608060405234801561001057600080fd5b506124f3806100206000396000f3fe60806040526004361061016a5760003560e01c806370a08231116100d1578063b84c82461161008a578063c47f002711610064578063c47f002714610558578063c4b9737014610578578063dd62ed3e1461059a578063ee7a7c04146105e057600080fd5b8063b84c8246146104f4578063ba82a0f414610514578063bfc77beb1461053857600080fd5b806370a082311461041d578063797ed33914610453578063893d20e81461048c57806395d89b41146104aa5780639f5376c1146104bf578063a9059cbb146104d457600080fd5b8063313ce56711610123578063313ce56714610363578063495d753c1461037f5780634ef0762e1461039f578063528c198a146103bf5780635a53e348146103df57806365e8e4f4146103fd57600080fd5b806306fdde0314610275578063095ea7b3146102a05780630ee2cb10146102d057806318160ddd1461030257806323b872dd1461032157806324e600121461034157600080fd5b36610270576005543031906201000090046001600160a01b03166001600160a01b0316634c252f916040518163ffffffff1660e01b8152600401602060405180830381865afa1580156101c1573d6000803e3d6000fd5b505050506040513d601f19601f820116820180604052508101906101e59190611e08565b6001600160a01b031663d0e30db0826040518263ffffffff1660e01b81526004016000604051808303818588803b15801561021f57600080fd5b505af1158015610233573d6000803e3d6000fd5b50506040518481523393507f85177f287940f2f05425a4029951af0e047a7f9c4eaa9a6e6917bcd869f866959250602001905060405180910390a2005b600080fd5b34801561028157600080fd5b5061028a610600565b6040516102979190611e49565b60405180910390f35b3480156102ac57600080fd5b506102c06102bb366004611e7c565b610692565b6040519015158152602001610297565b3480156102dc57600080fd5b506007546001600160a01b03165b6040516001600160a01b039091168152602001610297565b34801561030e57600080fd5b506002545b604051908152602001610297565b34801561032d57600080fd5b506102c061033c366004611ea8565b6106a9565b34801561034d57600080fd5b5061036161035c366004611f32565b6106be565b005b34801561036f57600080fd5b5060405160128152602001610297565b34801561038b57600080fd5b5061036161039a366004611ea8565b61095e565b3480156103ab57600080fd5b506103616103ba366004611f8b565b610993565b3480156103cb57600080fd5b506103616103da366004611e7c565b6109c9565b3480156103eb57600080fd5b506006546001600160a01b03166102ea565b34801561040957600080fd5b50610361610418366004611fa8565b610a01565b34801561042957600080fd5b50610313610438366004611f8b565b6001600160a01b031660009081526003602052604090205490565b34801561045f57600080fd5b506102c061046e366004611f8b565b6001600160a01b03166000908152600b602052604090205460ff1690565b34801561049857600080fd5b506008546001600160a01b03166102ea565b3480156104b657600080fd5b5061028a610b63565b3480156104cb57600080fd5b5061028a610b72565b3480156104e057600080fd5b506102c06104ef366004611e7c565b610b81565b34801561050057600080fd5b5061036161050f366004612024565b610b94565b34801561052057600080fd5b506005546201000090046001600160a01b03166102ea565b34801561054457600080fd5b50610361610553366004611ea8565b610cb6565b34801561056457600080fd5b50610361610573366004612024565b610ceb565b34801561058457600080fd5b5061058d610d92565b6040516102979190612066565b3480156105a657600080fd5b506103136105b53660046120b3565b6001600160a01b03918216600090815260046020908152604080832093909416825291909152205490565b3480156105ec57600080fd5b506103616105fb366004611e7c565b610df3565b60606000805461060f906120ec565b80601f016020809104026020016040519081016040528092919081815260200182805461063b906120ec565b80156106885780601f1061065d57610100808354040283529160200191610688565b820191906000526020600020905b81548152906001019060200180831161066b57829003601f168201915b5050505050905090565b600061069f338484610e27565b5060015b92915050565b60006106b6848484610f4c565b949350505050565b6006546001600160a01b031633146106f15760405162461bcd60e51b81526004016106e890612126565b60405180910390fd5b600483600781111561070557610705612175565b0361074e5761074982828080601f016020809104026020016040519081016040528093929190818152602001838380828437600092019190915250610fb592505050565b505050565b600583600781111561076257610762612175565b036107a65761074982828080601f016020809104026020016040519081016040528093929190818152602001838380828437600092019190915250610fd192505050565b60018360078111156107ba576107ba612175565b036107fe5761074982828080601f01602080910402602001604051908101604052809392919081815260200183838082843760009201919091525061100192505050565b600283600781111561081257610812612175565b036108565761074982828080601f01602080910402602001604051908101604052809392919081815260200183838082843760009201919091525061102692505050565b600683600781111561086a5761086a612175565b036108ae5761074982828080601f01602080910402602001604051908101604052809392919081815260200183838082843760009201919091525061104b92505050565b60038360078111156108c2576108c2612175565b036109065761074982828080601f01602080910402602001604051908101604052809392919081815260200183838082843760009201919091525061106792505050565b600783600781111561091a5761091a612175565b036107495761074982828080601f01602080910402602001604051908101604052809392919081815260200183838082843760009201919091525061109192505050565b6006546001600160a01b031633146109885760405162461bcd60e51b81526004016106e890612126565b6107498383836110b7565b6006546001600160a01b031633146109bd5760405162461bcd60e51b81526004016106e890612126565b6109c681611147565b50565b6006546001600160a01b031633146109f35760405162461bcd60e51b81526004016106e890612126565b6109fd8282611226565b5050565b600554610100900460ff1615808015610a215750600554600160ff909116105b80610a3b5750303b158015610a3b575060055460ff166001145b610a9e5760405162461bcd60e51b815260206004820152602e60248201527f496e697469616c697a61626c653a20636f6e747261637420697320616c72656160448201526d191e481a5b9a5d1a585b1a5e995960921b60648201526084016106e8565b6005805460ff191660011790558015610ac1576005805461ff0019166101001790555b6005805462010000600160b01b031916620100006001600160a01b038916021790556000610af08385836121e7565b50600780546001600160a01b03191633179055610b0c8561130c565b610b158461143d565b8015610b5b576005805461ff0019169055604051600181527f7f26b83ff96e1f2b6a682f133852f6798a09c465da95921460cefb38474024989060200160405180910390a15b505050505050565b60606001805461060f906120ec565b60606009805461060f906120ec565b6000610b8d8383611502565b9392505050565b6008546001600160a01b0316331480610c3057506005546201000090046001600160a01b03166001600160a01b03166318bcb2846040518163ffffffff1660e01b8152600401602060405180830381865afa158015610bf7573d6000803e3d6000fd5b505050506040513d601f19601f82011682018060405250810190610c1b9190611e08565b6001600160a01b0316336001600160a01b0316145b610c6b5760405162461bcd60e51b815260206004820152600c60248201526b155b985d5d1a1bdc9a5e995960a21b60448201526064016106e8565b6001610c788284836121e7565b507f3e46ff90086ee29856e77591e82c82ff8ed513379b0fd82e84fc5290dd633c998282604051610caa9291906122a7565b60405180910390a15050565b6006546001600160a01b03163314610ce05760405162461bcd60e51b81526004016106e890612126565b61074983838361150b565b6008546001600160a01b03163314610d535760405162461bcd60e51b815260206004820152602560248201527f4f6e6c7920746865206f776e65722063616e2063616c6c20746869732066756e60448201526431ba34b7b760d91b60648201526084016106e8565b6000610d608284836121e7565b507f13c98778b0c1a086bb98d7f1986e15788b5d3a1ad4c492e1d78f1c4cc51c20cf8282604051610caa9291906122a7565b6060600a80548060200260200160405190810160405280929190818152602001828054801561068857602002820191906000526020600020905b81546001600160a01b03168152600190910190602001808311610dcc575050505050905090565b6006546001600160a01b03163314610e1d5760405162461bcd60e51b81526004016106e890612126565b6109fd8282611691565b6001600160a01b038316610e895760405162461bcd60e51b8152602060048201526024808201527f45524332303a20617070726f76652066726f6d20746865207a65726f206164646044820152637265737360e01b60648201526084016106e8565b6001600160a01b038216610eea5760405162461bcd60e51b815260206004820152602260248201527f45524332303a20617070726f766520746f20746865207a65726f206164647265604482015261737360f01b60648201526084016106e8565b6001600160a01b0383811660008181526004602090815260408083209487168084529482529182902085905590518481527f8c5be1e5ebec7d5bd14f71427d1e84f3dd0314c0f7b2291e5b200ac8c7c3b92591015b60405180910390a3505050565b6000610f5984848461150b565b610fab8433610fa685604051806060016040528060288152602001612496602891396001600160a01b038a1660009081526004602090815260408083203384529091529020549190611795565b610e27565b5060019392505050565b6109c681806020019051810190610fcc9190611e08565b611147565b600080600083806020019051810190610fea91906122d6565b925092509250610ffb8383836117c1565b50505050565b600080828060200190518101906110189190612319565b915091506107498282611691565b6000808280602001905181019061103d9190612319565b915091506107498282611226565b6109c6818060200190518101906110629190611e08565b611895565b60008060008380602001905181019061108091906122d6565b925092509250610ffb83838361150b565b6000806000838060200190518101906110aa91906122d6565b925092509250610ffb8383835b82306001600160a01b038216036110e05760405162461bcd60e51b81526004016106e890612347565b6110f46001600160a01b0385168484611944565b826001600160a01b0316846001600160a01b03167f6f9cbac839b826cc524f53d10416c053fce34ec15fd1001720e777cc49720e768460405161113991815260200190565b60405180910390a350505050565b80306001600160a01b038216036111705760405162461bcd60e51b81526004016106e890612347565b6001600160a01b0382166000908152600b602052604090205460ff166109fd576001600160a01b0382166000818152600b60209081526040808320805460ff19166001908117909155600a805491820181559093527fc65a7bb8d6351c1cf70c95a316cc6a92839c986682d98bc35f958f4883f9d2a890920180546001600160a01b0319168417905590519182527fa0d2bfad19dc0c6970d2a2fcff65458a6d7c4fa3b6d904f44961b2c744bdf5919101610caa565b6001600160a01b03821661127c5760405162461bcd60e51b815260206004820152601f60248201527f45524332303a206d696e7420746f20746865207a65726f20616464726573730060448201526064016106e8565b60025461128990826119a7565b6002556001600160a01b0382166000908152600360205260409020546112af90826119a7565b6001600160a01b0383166000818152600360205260408082209390935591519091907fddf252ad1be2c89b69c2b068fc378daa952ba7f163c4a11628f55a4df523b3ef906113009085815260200190565b60405180910390a35050565b6001600160a01b0381166113715760405162461bcd60e51b815260206004820152602660248201527f5f5f7365744f776e65723a205f6e6578744f776e65722063616e6e6f7420626560448201526520656d70747960d01b60648201526084016106e8565b6008546001600160a01b039081169082168190036113e55760405162461bcd60e51b815260206004820152602b60248201527f5f5f7365744f776e65723a205f6e6578744f776e65722069732074686520637560448201526a393932b73a1037bbb732b960a91b60648201526084016106e8565b600880546001600160a01b0319166001600160a01b0384811691821790925560408051928416835260208301919091527f342827c97908e5e2f71151c08502a66d44b6f758e3ac2f1de95f02eb95f0a7359101610caa565b6001600160a01b0381166114a85760405162461bcd60e51b815260206004820152602c60248201527f5f5f7365744163636573736f723a205f6e6578744163636573736f722063616e60448201526b6e6f7420626520656d70747960a01b60648201526084016106e8565b600680546001600160a01b038381166001600160a01b031983168117909355604080519190921680825260208201939093527fb5a9def940973a936e331170816650368964b0602957d4bc60f5ddc2dc1b69cd9101610caa565b600061069f3384845b6001600160a01b03831661156f5760405162461bcd60e51b815260206004820152602560248201527f45524332303a207472616e736665722066726f6d20746865207a65726f206164604482015264647265737360d81b60648201526084016106e8565b6001600160a01b0382166115d15760405162461bcd60e51b815260206004820152602360248201527f45524332303a207472616e7366657220746f20746865207a65726f206164647260448201526265737360e81b60648201526084016106e8565b61160e81604051806060016040528060268152602001612470602691396001600160a01b0386166000908152600360205260409020549190611795565b6001600160a01b03808516600090815260036020526040808220939093559084168152205461163d90826119a7565b6001600160a01b0380841660008181526003602052604090819020939093559151908516907fddf252ad1be2c89b69c2b068fc378daa952ba7f163c4a11628f55a4df523b3ef90610f3f9085815260200190565b6001600160a01b0382166116f15760405162461bcd60e51b815260206004820152602160248201527f45524332303a206275726e2066726f6d20746865207a65726f206164647265736044820152607360f81b60648201526084016106e8565b61172e8160405180606001604052806022815260200161244e602291396001600160a01b0385166000908152600360205260409020549190611795565b6001600160a01b03831660009081526003602052604090205560025461175490826119b3565b6002556040518181526000906001600160a01b038416907fddf252ad1be2c89b69c2b068fc378daa952ba7f163c4a11628f55a4df523b3ef90602001611300565b600081848411156117b95760405162461bcd60e51b81526004016106e89190611e49565b505050900390565b82306001600160a01b038216036117ea5760405162461bcd60e51b81526004016106e890612347565b604051636eb1769f60e11b81523060048201526001600160a01b038481166024830152859160009183169063dd62ed3e90604401602060405180830381865afa15801561183b573d6000803e3d6000fd5b505050506040513d601f19601f8201168201806040525081019061185f9190612375565b111561187a5761187a6001600160a01b0382168560006119bf565b61188e6001600160a01b03821685856119bf565b5050505050565b80306001600160a01b038216036118be5760405162461bcd60e51b81526004016106e890612347565b6001600160a01b0382166000908152600b602052604090205460ff16156109fd576001600160a01b0382166000908152600b60205260409020805460ff1916905561190a600a83611ad4565b506040516001600160a01b03831681527f22c4fcf23b40d39b02733ec19a3975b31172f2a5b2ce5d0f1831525276cd715690602001610caa565b6040516001600160a01b03831660248201526044810182905261074990849063a9059cbb60e01b906064015b60408051601f198184030181529190526020810180516001600160e01b03166001600160e01b031990931692909217909152611bfb565b6000610b8d82846123a4565b6000610b8d82846123b7565b801580611a395750604051636eb1769f60e11b81523060048201526001600160a01b03838116602483015284169063dd62ed3e90604401602060405180830381865afa158015611a13573d6000803e3d6000fd5b505050506040513d601f19601f82011682018060405250810190611a379190612375565b155b611aa45760405162461bcd60e51b815260206004820152603660248201527f5361666545524332303a20617070726f76652066726f6d206e6f6e2d7a65726f60448201527520746f206e6f6e2d7a65726f20616c6c6f77616e636560501b60648201526084016106e8565b6040516001600160a01b03831660248201526044810182905261074990849063095ea7b360e01b90606401611970565b8154600090815b81811015611bf357836001600160a01b0316858281548110611aff57611aff6123ca565b6000918252602090912001546001600160a01b031603611be157611b246001836123b7565b811015611ba65784611b376001846123b7565b81548110611b4757611b476123ca565b9060005260206000200160009054906101000a90046001600160a01b0316858281548110611b7757611b776123ca565b9060005260206000200160006101000a8154816001600160a01b0302191690836001600160a01b031602179055505b84805480611bb657611bb66123e0565b600082815260209020810160001990810180546001600160a01b031916905501905560019250611bf3565b80611beb816123f6565b915050611adb565b505092915050565b6000611c50826040518060400160405280602081526020017f5361666545524332303a206c6f772d6c6576656c2063616c6c206661696c6564815250856001600160a01b0316611cd09092919063ffffffff16565b9050805160001480611c71575080806020019051810190611c71919061240f565b6107495760405162461bcd60e51b815260206004820152602a60248201527f5361666545524332303a204552433230206f7065726174696f6e20646964206e6044820152691bdd081cdd58d8d9595960b21b60648201526084016106e8565b60606106b6848460008585600080866001600160a01b03168587604051611cf79190612431565b60006040518083038185875af1925050503d8060008114611d34576040519150601f19603f3d011682016040523d82523d6000602084013e611d39565b606091505b5091509150611d4a87838387611d55565b979650505050505050565b60608315611dc4578251600003611dbd576001600160a01b0385163b611dbd5760405162461bcd60e51b815260206004820152601d60248201527f416464726573733a2063616c6c20746f206e6f6e2d636f6e747261637400000060448201526064016106e8565b50816106b6565b6106b68383815115611dd95781518083602001fd5b8060405162461bcd60e51b81526004016106e89190611e49565b6001600160a01b03811681146109c657600080fd5b600060208284031215611e1a57600080fd5b8151610b8d81611df3565b60005b83811015611e40578181015183820152602001611e28565b50506000910152565b6020815260008251806020840152611e68816040850160208701611e25565b601f01601f19169190910160400192915050565b60008060408385031215611e8f57600080fd5b8235611e9a81611df3565b946020939093013593505050565b600080600060608486031215611ebd57600080fd5b8335611ec881611df3565b92506020840135611ed881611df3565b929592945050506040919091013590565b60008083601f840112611efb57600080fd5b50813567ffffffffffffffff811115611f1357600080fd5b602083019150836020828501011115611f2b57600080fd5b9250929050565b600080600060408486031215611f4757600080fd5b833560088110611f5657600080fd5b9250602084013567ffffffffffffffff811115611f7257600080fd5b611f7e86828701611ee9565b9497909650939450505050565b600060208284031215611f9d57600080fd5b8135610b8d81611df3565b600080600080600060808688031215611fc057600080fd5b8535611fcb81611df3565b94506020860135611fdb81611df3565b93506040860135611feb81611df3565b9250606086013567ffffffffffffffff81111561200757600080fd5b61201388828901611ee9565b969995985093965092949392505050565b6000806020838503121561203757600080fd5b823567ffffffffffffffff81111561204e57600080fd5b61205a85828601611ee9565b90969095509350505050565b6020808252825182820181905260009190848201906040850190845b818110156120a75783516001600160a01b031683529284019291840191600101612082565b50909695505050505050565b600080604083850312156120c657600080fd5b82356120d181611df3565b915060208301356120e181611df3565b809150509250929050565b600181811c9082168061210057607f821691505b60208210810361212057634e487b7160e01b600052602260045260246000fd5b50919050565b6020808252602f908201527f4f6e6c79207468652064657369676e61746564206163636573736f722063616e60408201526e081b585ad9481d1a1a5cc818d85b1b608a1b606082015260800190565b634e487b7160e01b600052602160045260246000fd5b634e487b7160e01b600052604160045260246000fd5b601f82111561074957600081815260208120601f850160051c810160208610156121c85750805b601f850160051c820191505b81811015610b5b578281556001016121d4565b67ffffffffffffffff8311156121ff576121ff61218b565b6122138361220d83546120ec565b836121a1565b6000601f841160018114612247576000851561222f5750838201355b600019600387901b1c1916600186901b17835561188e565b600083815260209020601f19861690835b828110156122785786850135825560209485019460019092019101612258565b50868210156122955760001960f88860031b161c19848701351681555b505060018560011b0183555050505050565b60208152816020820152818360408301376000818301604090810191909152601f909201601f19160101919050565b6000806000606084860312156122eb57600080fd5b83516122f681611df3565b602085015190935061230781611df3565b80925050604084015190509250925092565b6000806040838503121561232c57600080fd5b825161233781611df3565b6020939093015192949293505050565b60208082526014908201527343616e6e6f7420616374206f6e2073686172657360601b604082015260600190565b60006020828403121561238757600080fd5b5051919050565b634e487b7160e01b600052601160045260246000fd5b808201808211156106a3576106a361238e565b818103818111156106a3576106a361238e565b634e487b7160e01b600052603260045260246000fd5b634e487b7160e01b600052603160045260246000fd5b6000600182016124085761240861238e565b5060010190565b60006020828403121561242157600080fd5b81518015158114610b8d57600080fd5b60008251612443818460208701611e25565b919091019291505056fe45524332303a206275726e20616d6f756e7420657863656564732062616c616e636545524332303a207472616e7366657220616d6f756e7420657863656564732062616c616e636545524332303a207472616e7366657220616d6f756e74206578636565647320616c6c6f77616e6365a26469706673582212206a16f52c1fa6c2a1a5174b4de838d206990d459d68f49cb0d114002fa9c96f7f64736f6c63430008130033",
    "linkReferences": {}
  },
  "methodIdentifiers": {
    "activate()": "0f15f4c0",
    "createNewVault(string,string,address,uint256)": "0cf684bd",
    "getCreator()": "0ee2cb10",
    "getGlobalShared()": "ba82a0f4",
    "getGuardianLib()": "a7c93d7e",
    "getOwner()": "893d20e8",
    "getVaultLib()": "682cea19",
    "isActivated()": "4a8c1fb4",
    "setGlobalShared(address)": "ea65ac4b"
  },
  "id": 27
}