{
	"TransferService.sol": {
		"TransferService": {
			"abi": [
				{
					"anonymous": false,
					"inputs": [
						{
							"indexed": true,
							"internalType": "address",
							"name": "previousOwner",
							"type": "address"
						},
						{
							"indexed": true,
							"internalType": "address",
							"name": "newOwner",
							"type": "address"
						}
					],
					"name": "OwnershipTransferred",
					"type": "event"
				},
				{
					"anonymous": false,
					"inputs": [
						{
							"indexed": false,
							"internalType": "address",
							"name": "from",
							"type": "address"
						},
						{
							"indexed": false,
							"internalType": "address",
							"name": "to",
							"type": "address"
						},
						{
							"indexed": false,
							"internalType": "uint256",
							"name": "money",
							"type": "uint256"
						}
					],
					"name": "payEv",
					"type": "event"
				},
				{
					"stateMutability": "payable",
					"type": "fallback"
				},
				{
					"inputs": [],
					"name": "getBalanceOfContract",
					"outputs": [
						{
							"internalType": "uint256",
							"name": "",
							"type": "uint256"
						}
					],
					"stateMutability": "view",
					"type": "function"
				},
				{
					"inputs": [],
					"name": "owner",
					"outputs": [
						{
							"internalType": "address",
							"name": "",
							"type": "address"
						}
					],
					"stateMutability": "view",
					"type": "function"
				},
				{
					"inputs": [],
					"name": "renounceOwnership",
					"outputs": [],
					"stateMutability": "nonpayable",
					"type": "function"
				},
				{
					"inputs": [
						{
							"internalType": "address",
							"name": "_address",
							"type": "address"
						}
					],
					"name": "setAccessAddress",
					"outputs": [],
					"stateMutability": "nonpayable",
					"type": "function"
				},
				{
					"inputs": [
						{
							"internalType": "address",
							"name": "_to",
							"type": "address"
						},
						{
							"internalType": "uint256",
							"name": "_bounty",
							"type": "uint256"
						}
					],
					"name": "toTaskerBounty",
					"outputs": [],
					"stateMutability": "nonpayable",
					"type": "function"
				},
				{
					"inputs": [],
					"name": "transderToContract",
					"outputs": [],
					"stateMutability": "payable",
					"type": "function"
				},
				{
					"inputs": [
						{
							"internalType": "address",
							"name": "newOwner",
							"type": "address"
						}
					],
					"name": "transferOwnership",
					"outputs": [],
					"stateMutability": "nonpayable",
					"type": "function"
				},
				{
					"inputs": [
						{
							"internalType": "uint256",
							"name": "_money",
							"type": "uint256"
						}
					],
					"name": "withdraw",
					"outputs": [],
					"stateMutability": "nonpayable",
					"type": "function"
				},
				{
					"inputs": [],
					"name": "withdrawAll",
					"outputs": [],
					"stateMutability": "nonpayable",
					"type": "function"
				},
				{
					"stateMutability": "payable",
					"type": "receive"
				}
			],
			"devdoc": {
				"kind": "dev",
				"methods": {
					"owner()": {
						"details": "Returns the address of the current owner."
					},
					"renounceOwnership()": {
						"details": "Leaves the contract without owner. It will not be possible to call `onlyOwner` functions anymore. Can only be called by the current owner. NOTE: Renouncing ownership will leave the contract without an owner, thereby removing any functionality that is only available to the owner."
					},
					"transferOwnership(address)": {
						"details": "Transfers ownership of the contract to a new account (`newOwner`). Can only be called by the current owner."
					}
				},
				"version": 1
			},
			"evm": {
				"assembly": "    /* \"TransferService.sol\":102:2304  contract TransferService is Ownable{\r... */\n  mstore(0x40, 0x80)\n  callvalue\n  dup1\n  iszero\n  tag_1\n  jumpi\n  0x00\n  dup1\n  revert\ntag_1:\n  pop\n    /* \"contracts/access/Ownable.sol\":936:968  _transferOwnership(_msgSender()) */\n  tag_4\n    /* \"contracts/utils/Context.sol\":719:729  msg.sender */\n  caller\n    /* \"contracts/access/Ownable.sol\":936:954  _transferOwnership */\n  tag_7\n    /* \"contracts/access/Ownable.sol\":936:968  _transferOwnership(_msgSender()) */\n  jump\t// in\ntag_4:\n    /* \"TransferService.sol\":102:2304  contract TransferService is Ownable{\r... */\n  jump(tag_8)\n    /* \"contracts/access/Ownable.sol\":2433:2620  function _transferOwnership(address newOwner) internal virtual {... */\ntag_7:\n    /* \"contracts/access/Ownable.sol\":2506:2522  address oldOwner */\n  0x00\n    /* \"contracts/access/Ownable.sol\":2525:2531  _owner */\n  dup1\n  sload\n  sub(shl(0xa0, 0x01), 0x01)\n    /* \"contracts/access/Ownable.sol\":2541:2558  _owner = newOwner */\n  dup4\n  dup2\n  and\n  not(sub(shl(0xa0, 0x01), 0x01))\n  dup4\n  and\n  dup2\n  or\n  dup5\n  sstore\n    /* \"contracts/access/Ownable.sol\":2573:2613  OwnershipTransferred(oldOwner, newOwner) */\n  mload(0x40)\n    /* \"contracts/access/Ownable.sol\":2525:2531  _owner */\n  swap2\n  swap1\n  swap3\n  and\n  swap3\n  dup4\n  swap2\n    /* \"contracts/access/Ownable.sol\":2573:2613  OwnershipTransferred(oldOwner, newOwner) */\n  0x8be0079c531659141344cd1fd0a4f28419497f9722a3daafe3b4186f6b6457e0\n  swap2\n    /* \"contracts/access/Ownable.sol\":2506:2522  address oldOwner */\n  swap1\n    /* \"contracts/access/Ownable.sol\":2573:2613  OwnershipTransferred(oldOwner, newOwner) */\n  log3\n    /* \"contracts/access/Ownable.sol\":2496:2620  {... */\n  pop\n    /* \"contracts/access/Ownable.sol\":2433:2620  function _transferOwnership(address newOwner) internal virtual {... */\n  pop\n  jump\t// out\n    /* \"TransferService.sol\":102:2304  contract TransferService is Ownable{\r... */\ntag_8:\n  dataSize(sub_0)\n  dup1\n  dataOffset(sub_0)\n  0x00\n  codecopy\n  0x00\n  return\nstop\n\nsub_0: assembly {\n        /* \"TransferService.sol\":102:2304  contract TransferService is Ownable{\r... */\n      mstore(0x40, 0x80)\n      jumpi(tag_1, lt(calldatasize, 0x04))\n      shr(0xe0, calldataload(0x00))\n      dup1\n      0x853828b6\n      gt\n      tag_12\n      jumpi\n      dup1\n      0x853828b6\n      eq\n      tag_7\n      jumpi\n      dup1\n      0x8da5cb5b\n      eq\n      tag_8\n      jumpi\n      dup1\n      0xad5f7ab0\n      eq\n      tag_9\n      jumpi\n      dup1\n      0xc6d30da4\n      eq\n      tag_10\n      jumpi\n      dup1\n      0xf2fde38b\n      eq\n      tag_11\n      jumpi\n      stop\n    tag_12:\n      dup1\n      0x22968885\n      eq\n      tag_3\n      jumpi\n      dup1\n      0x2e1a7d4d\n      eq\n      tag_4\n      jumpi\n      dup1\n      0x460968dd\n      eq\n      tag_5\n      jumpi\n      dup1\n      0x715018a6\n      eq\n      tag_6\n      jumpi\n      stop\n    tag_1:\n      jumpi(tag_2, calldatasize)\n      stop\n    tag_2:\n      stop\n        /* \"TransferService.sol\":975:1084  function getBalanceOfContract() public view returns (uint256) {\r... */\n    tag_3:\n      callvalue\n      dup1\n      iszero\n      tag_17\n      jumpi\n      0x00\n      dup1\n      revert\n    tag_17:\n      pop\n      mload(0x40)\n        /* \"TransferService.sol\":1055:1076  address(this).balance */\n      selfbalance\n        /* \"#utility.yul\":3936:3961   */\n      dup2\n      mstore\n        /* \"#utility.yul\":3924:3926   */\n      0x20\n        /* \"#utility.yul\":3909:3927   */\n      add\n        /* \"TransferService.sol\":975:1084  function getBalanceOfContract() public view returns (uint256) {\r... */\n    tag_20:\n      mload(0x40)\n      dup1\n      swap2\n      sub\n      swap1\n      return\n        /* \"TransferService.sol\":1118:1497  function withdraw(uint256 _money) public onlyOwner{\r... */\n    tag_4:\n      callvalue\n      dup1\n      iszero\n      tag_22\n      jumpi\n      0x00\n      dup1\n      revert\n    tag_22:\n      pop\n      tag_2\n      tag_24\n      calldatasize\n      0x04\n      tag_25\n      jump\t// in\n    tag_24:\n      tag_26\n      jump\t// in\n        /* \"TransferService.sol\":652:934  function transderToContract() public payable {\r... */\n    tag_5:\n      tag_2\n      tag_28\n      jump\t// in\n        /* \"contracts/access/Ownable.sol\":1831:1932  function renounceOwnership() public virtual onlyOwner {... */\n    tag_6:\n      callvalue\n      dup1\n      iszero\n      tag_29\n      jumpi\n      0x00\n      dup1\n      revert\n    tag_29:\n      pop\n      tag_2\n      tag_31\n      jump\t// in\n        /* \"TransferService.sol\":1505:1782  function withdrawAll() public onlyOwner{\r... */\n    tag_7:\n      callvalue\n      dup1\n      iszero\n      tag_32\n      jumpi\n      0x00\n      dup1\n      revert\n    tag_32:\n      pop\n      tag_2\n      tag_34\n      jump\t// in\n        /* \"contracts/access/Ownable.sol\":1201:1286  function owner() public view virtual returns (address) {... */\n    tag_8:\n      callvalue\n      dup1\n      iszero\n      tag_35\n      jumpi\n      0x00\n      dup1\n      revert\n    tag_35:\n      pop\n        /* \"contracts/access/Ownable.sol\":1247:1254  address */\n      0x00\n        /* \"contracts/access/Ownable.sol\":1273:1279  _owner */\n      sload\n        /* \"contracts/access/Ownable.sol\":1201:1286  function owner() public view virtual returns (address) {... */\n      mload(0x40)\n      sub(shl(0xa0, 0x01), 0x01)\n        /* \"contracts/access/Ownable.sol\":1273:1279  _owner */\n      swap1\n      swap2\n      and\n        /* \"#utility.yul\":1183:1234   */\n      dup2\n      mstore\n        /* \"#utility.yul\":1171:1173   */\n      0x20\n        /* \"#utility.yul\":1156:1174   */\n      add\n        /* \"contracts/access/Ownable.sol\":1201:1286  function owner() public view virtual returns (address) {... */\n      tag_20\n        /* \"#utility.yul\":1037:1240   */\n      jump\n        /* \"TransferService.sol\":513:616  function setAccessAddress(address _address) public onlyOwner{\r... */\n    tag_9:\n      callvalue\n      dup1\n      iszero\n      tag_40\n      jumpi\n      0x00\n      dup1\n      revert\n    tag_40:\n      pop\n      tag_2\n      tag_42\n      calldatasize\n      0x04\n      tag_43\n      jump\t// in\n    tag_42:\n      tag_44\n      jump\t// in\n        /* \"TransferService.sol\":1790:2228  function toTaskerBounty(address _to, uint256 _bounty) public noLock {\r... */\n    tag_10:\n      callvalue\n      dup1\n      iszero\n      tag_45\n      jumpi\n      0x00\n      dup1\n      revert\n    tag_45:\n      pop\n      tag_2\n      tag_47\n      calldatasize\n      0x04\n      tag_48\n      jump\t// in\n    tag_47:\n      tag_49\n      jump\t// in\n        /* \"contracts/access/Ownable.sol\":2081:2279  function transferOwnership(address newOwner) public virtual onlyOwner {... */\n    tag_11:\n      callvalue\n      dup1\n      iszero\n      tag_50\n      jumpi\n      0x00\n      dup1\n      revert\n    tag_50:\n      pop\n      tag_2\n      tag_52\n      calldatasize\n      0x04\n      tag_43\n      jump\t// in\n    tag_52:\n      tag_53\n      jump\t// in\n        /* \"TransferService.sol\":1118:1497  function withdraw(uint256 _money) public onlyOwner{\r... */\n    tag_26:\n        /* \"contracts/access/Ownable.sol\":1094:1107  _checkOwner() */\n      tag_56\n        /* \"contracts/access/Ownable.sol\":1094:1105  _checkOwner */\n      tag_57\n        /* \"contracts/access/Ownable.sol\":1094:1107  _checkOwner() */\n      jump\t// in\n    tag_56:\n        /* \"TransferService.sol\":1279:1295  bool callSuccess */\n      0x00\n        /* \"contracts/access/Ownable.sol\":1273:1279  _owner */\n      dup1\n      sload\n      sub(shl(0xa0, 0x01), 0x01)\n      and\n        /* \"TransferService.sol\":1344:1357  _money * 1e18 */\n      tag_60\n        /* \"TransferService.sol\":1344:1350  _money */\n      dup4\n        /* \"TransferService.sol\":1353:1357  1e18 */\n      0x0de0b6b3a7640000\n        /* \"TransferService.sol\":1344:1357  _money * 1e18 */\n      tag_61\n      jump\t// in\n    tag_60:\n        /* \"TransferService.sol\":1301:1372  payable(owner()).call{\r... */\n      mload(0x40)\n      0x00\n      dup2\n      dup2\n      dup2\n      dup6\n      dup8\n      gas\n      call\n      swap3\n      pop\n      pop\n      pop\n      returndatasize\n      dup1\n      0x00\n      dup2\n      eq\n      tag_66\n      jumpi\n      mload(0x40)\n      swap2\n      pop\n      and(add(returndatasize, 0x3f), not(0x1f))\n      dup3\n      add\n      0x40\n      mstore\n      returndatasize\n      dup3\n      mstore\n      returndatasize\n      0x00\n      0x20\n      dup5\n      add\n      returndatacopy\n      jump(tag_65)\n    tag_66:\n      0x60\n      swap2\n      pop\n    tag_65:\n      pop\n        /* \"TransferService.sol\":1278:1372  (bool callSuccess, ) = payable(owner()).call{\r... */\n      pop\n      swap1\n      pop\n        /* \"TransferService.sol\":1391:1402  callSuccess */\n      dup1\n        /* \"TransferService.sol\":1383:1418  require(callSuccess, \"Call failed\") */\n      tag_67\n      jumpi\n      mload(0x40)\n      shl(0xe5, 0x461bcd)\n      dup2\n      mstore\n      0x04\n      add\n      tag_68\n      swap1\n      tag_69\n      jump\t// in\n    tag_68:\n      mload(0x40)\n      dup1\n      swap2\n      sub\n      swap1\n      revert\n    tag_67:\n      0x00\n      dup1\n      mload\n      0x20\n      data_bfa1ba3af8f25ddeeec772a4a122071e88da50530f19261881baef1859fe6f86\n      dup4\n      codecopy\n      dup2\n      mload\n      swap2\n      mstore\n        /* \"TransferService.sol\":1448:1452  this */\n      address\n        /* \"TransferService.sol\":1455:1465  msg.sender */\n      caller\n        /* \"TransferService.sol\":1467:1488  address(this).balance */\n      selfbalance\n        /* \"TransferService.sol\":1434:1489  payEv(address(this), msg.sender, address(this).balance) */\n      mload(0x40)\n      tag_70\n      swap4\n      swap3\n      swap2\n      swap1\n      tag_71\n      jump\t// in\n    tag_70:\n      mload(0x40)\n      dup1\n      swap2\n      sub\n      swap1\n      log1\n        /* \"TransferService.sol\":1168:1497  {\r... */\n      pop\n        /* \"TransferService.sol\":1118:1497  function withdraw(uint256 _money) public onlyOwner{\r... */\n      pop\n      jump\t// out\n        /* \"TransferService.sol\":652:934  function transderToContract() public payable {\r... */\n    tag_28:\n        /* \"TransferService.sol\":724:773  payable(address(this)).call{value: msg.value}(\"\") */\n      mload(0x40)\n        /* \"TransferService.sol\":709:718  bool sent */\n      0x00\n      swap1\n        /* \"TransferService.sol\":740:744  this */\n      address\n      swap1\n        /* \"TransferService.sol\":759:768  msg.value */\n      callvalue\n      swap1\n        /* \"TransferService.sol\":709:718  bool sent */\n      dup4\n        /* \"TransferService.sol\":724:773  payable(address(this)).call{value: msg.value}(\"\") */\n      dup2\n        /* \"TransferService.sol\":709:718  bool sent */\n      dup2\n        /* \"TransferService.sol\":724:773  payable(address(this)).call{value: msg.value}(\"\") */\n      dup2\n        /* \"TransferService.sol\":759:768  msg.value */\n      dup6\n        /* \"TransferService.sol\":740:744  this */\n      dup8\n        /* \"TransferService.sol\":724:773  payable(address(this)).call{value: msg.value}(\"\") */\n      gas\n      call\n      swap3\n      pop\n      pop\n      pop\n      returndatasize\n      dup1\n      0x00\n      dup2\n      eq\n      tag_76\n      jumpi\n      mload(0x40)\n      swap2\n      pop\n      and(add(returndatasize, 0x3f), not(0x1f))\n      dup3\n      add\n      0x40\n      mstore\n      returndatasize\n      dup3\n      mstore\n      returndatasize\n      0x00\n      0x20\n      dup5\n      add\n      returndatacopy\n      jump(tag_75)\n    tag_76:\n      0x60\n      swap2\n      pop\n    tag_75:\n      pop\n        /* \"TransferService.sol\":708:773  (bool sent, ) = payable(address(this)).call{value: msg.value}(\"\") */\n      pop\n      swap1\n      pop\n        /* \"TransferService.sol\":792:796  sent */\n      dup1\n        /* \"TransferService.sol\":784:812  require(sent, \"Call failed\") */\n      tag_77\n      jumpi\n      mload(0x40)\n      shl(0xe5, 0x461bcd)\n      dup2\n      mstore\n      0x04\n      add\n      tag_68\n      swap1\n      tag_69\n      jump\t// in\n    tag_77:\n      0x00\n      dup1\n      mload\n      0x20\n      data_bfa1ba3af8f25ddeeec772a4a122071e88da50530f19261881baef1859fe6f86\n      dup4\n      codecopy\n      dup2\n      mload\n      swap2\n      mstore\n        /* \"TransferService.sol\":834:844  msg.sender */\n      caller\n        /* \"TransferService.sol\":854:858  this */\n      address\n        /* \"TransferService.sol\":861:870  msg.value */\n      callvalue\n        /* \"TransferService.sol\":828:871  payEv(msg.sender, address(this), msg.value) */\n      mload(0x40)\n      tag_79\n      swap4\n      swap3\n      swap2\n      swap1\n      tag_71\n      jump\t// in\n    tag_79:\n      mload(0x40)\n      dup1\n      swap2\n      sub\n      swap1\n      log1\n        /* \"TransferService.sol\":697:934  {\r... */\n      pop\n        /* \"TransferService.sol\":652:934  function transderToContract() public payable {\r... */\n      jump\t// out\n        /* \"contracts/access/Ownable.sol\":1831:1932  function renounceOwnership() public virtual onlyOwner {... */\n    tag_31:\n        /* \"contracts/access/Ownable.sol\":1094:1107  _checkOwner() */\n      tag_81\n        /* \"contracts/access/Ownable.sol\":1094:1105  _checkOwner */\n      tag_57\n        /* \"contracts/access/Ownable.sol\":1094:1107  _checkOwner() */\n      jump\t// in\n    tag_81:\n        /* \"contracts/access/Ownable.sol\":1895:1925  _transferOwnership(address(0)) */\n      tag_83\n        /* \"contracts/access/Ownable.sol\":1922:1923  0 */\n      0x00\n        /* \"contracts/access/Ownable.sol\":1895:1913  _transferOwnership */\n      tag_84\n        /* \"contracts/access/Ownable.sol\":1895:1925  _transferOwnership(address(0)) */\n      jump\t// in\n    tag_83:\n        /* \"contracts/access/Ownable.sol\":1831:1932  function renounceOwnership() public virtual onlyOwner {... */\n      jump\t// out\n        /* \"TransferService.sol\":1505:1782  function withdrawAll() public onlyOwner{\r... */\n    tag_34:\n        /* \"contracts/access/Ownable.sol\":1094:1107  _checkOwner() */\n      tag_86\n        /* \"contracts/access/Ownable.sol\":1094:1105  _checkOwner */\n      tag_57\n        /* \"contracts/access/Ownable.sol\":1094:1107  _checkOwner() */\n      jump\t// in\n    tag_86:\n        /* \"TransferService.sol\":1556:1572  bool callSuccess */\n      0x00\n        /* \"contracts/access/Ownable.sol\":1273:1279  _owner */\n      dup1\n      sload\n        /* \"TransferService.sol\":1578:1657  payable(owner()).call{\r... */\n      mload(0x40)\n      sub(shl(0xa0, 0x01), 0x01)\n        /* \"contracts/access/Ownable.sol\":1273:1279  _owner */\n      swap1\n      swap2\n      and\n      swap1\n        /* \"TransferService.sol\":1621:1642  address(this).balance */\n      selfbalance\n      swap1\n        /* \"TransferService.sol\":1556:1572  bool callSuccess */\n      dup4\n        /* \"TransferService.sol\":1578:1657  payable(owner()).call{\r... */\n      dup2\n        /* \"TransferService.sol\":1556:1572  bool callSuccess */\n      dup2\n        /* \"TransferService.sol\":1578:1657  payable(owner()).call{\r... */\n      dup2\n        /* \"TransferService.sol\":1621:1642  address(this).balance */\n      dup6\n        /* \"contracts/access/Ownable.sol\":1273:1279  _owner */\n      dup8\n        /* \"TransferService.sol\":1578:1657  payable(owner()).call{\r... */\n      gas\n      call\n      swap3\n      pop\n      pop\n      pop\n      returndatasize\n      dup1\n      0x00\n      dup2\n      eq\n      tag_92\n      jumpi\n      mload(0x40)\n      swap2\n      pop\n      and(add(returndatasize, 0x3f), not(0x1f))\n      dup3\n      add\n      0x40\n      mstore\n      returndatasize\n      dup3\n      mstore\n      returndatasize\n      0x00\n      0x20\n      dup5\n      add\n      returndatacopy\n      jump(tag_91)\n    tag_92:\n      0x60\n      swap2\n      pop\n    tag_91:\n      pop\n        /* \"TransferService.sol\":1555:1657  (bool callSuccess, ) = payable(owner()).call{\r... */\n      pop\n      swap1\n      pop\n        /* \"TransferService.sol\":1676:1687  callSuccess */\n      dup1\n        /* \"TransferService.sol\":1668:1703  require(callSuccess, \"Call failed\") */\n      tag_93\n      jumpi\n      mload(0x40)\n      shl(0xe5, 0x461bcd)\n      dup2\n      mstore\n      0x04\n      add\n      tag_68\n      swap1\n      tag_69\n      jump\t// in\n    tag_93:\n      0x00\n      dup1\n      mload\n      0x20\n      data_bfa1ba3af8f25ddeeec772a4a122071e88da50530f19261881baef1859fe6f86\n      dup4\n      codecopy\n      dup2\n      mload\n      swap2\n      mstore\n        /* \"TransferService.sol\":1733:1737  this */\n      address\n        /* \"TransferService.sol\":1740:1750  msg.sender */\n      caller\n        /* \"TransferService.sol\":1752:1773  address(this).balance */\n      selfbalance\n        /* \"TransferService.sol\":1719:1774  payEv(address(this), msg.sender, address(this).balance) */\n      mload(0x40)\n      tag_79\n      swap4\n      swap3\n      swap2\n      swap1\n      tag_71\n      jump\t// in\n        /* \"TransferService.sol\":513:616  function setAccessAddress(address _address) public onlyOwner{\r... */\n    tag_44:\n        /* \"contracts/access/Ownable.sol\":1094:1107  _checkOwner() */\n      tag_98\n        /* \"contracts/access/Ownable.sol\":1094:1105  _checkOwner */\n      tag_57\n        /* \"contracts/access/Ownable.sol\":1094:1107  _checkOwner() */\n      jump\t// in\n    tag_98:\n        /* \"TransferService.sol\":584:597  accessAddress */\n      0x01\n        /* \"TransferService.sol\":584:608  accessAddress = _address */\n      dup1\n      sload\n      not(sub(shl(0xa0, 0x01), 0x01))\n      and\n      sub(shl(0xa0, 0x01), 0x01)\n      swap3\n      swap1\n      swap3\n      and\n      swap2\n      swap1\n      swap2\n      or\n      swap1\n      sstore\n        /* \"TransferService.sol\":513:616  function setAccessAddress(address _address) public onlyOwner{\r... */\n      jump\t// out\n        /* \"TransferService.sol\":1790:2228  function toTaskerBounty(address _to, uint256 _bounty) public noLock {\r... */\n    tag_49:\n        /* \"TransferService.sol\":408:414  locked */\n      sload(0x00)\n      shl(0xa0, 0x01)\n      swap1\n      div\n      0xff\n      and\n        /* \"TransferService.sol\":407:414  !locked */\n      iszero\n        /* \"TransferService.sol\":399:438  require(!locked, \"The lock is locked.\") */\n      tag_101\n      jumpi\n      mload(0x40)\n      shl(0xe5, 0x461bcd)\n      dup2\n      mstore\n        /* \"#utility.yul\":2574:2576   */\n      0x20\n        /* \"TransferService.sol\":399:438  require(!locked, \"The lock is locked.\") */\n      0x04\n      dup3\n      add\n        /* \"#utility.yul\":2556:2577   */\n      mstore\n        /* \"#utility.yul\":2613:2615   */\n      0x13\n        /* \"#utility.yul\":2593:2611   */\n      0x24\n      dup3\n      add\n        /* \"#utility.yul\":2586:2616   */\n      mstore\n      shl(0x69, 0x2a3432903637b1b59034b9903637b1b5b2b217)\n        /* \"#utility.yul\":2632:2650   */\n      0x44\n      dup3\n      add\n        /* \"#utility.yul\":2625:2674   */\n      mstore\n        /* \"#utility.yul\":2691:2709   */\n      0x64\n      add\n        /* \"TransferService.sol\":399:438  require(!locked, \"The lock is locked.\") */\n      tag_68\n        /* \"#utility.yul\":2372:2715   */\n      jump\n        /* \"TransferService.sol\":399:438  require(!locked, \"The lock is locked.\") */\n    tag_101:\n        /* \"TransferService.sol\":449:455  locked */\n      0x00\n        /* \"TransferService.sol\":449:462  locked = true */\n      dup1\n      sload\n      not(shl(0xa0, 0xff))\n      and\n      shl(0xa0, 0x01)\n      or\n      swap1\n      sstore\n        /* \"TransferService.sol\":458:462  true */\n      0x01\n        /* \"TransferService.sol\":1891:1904  accessAddress */\n      sload\n        /* \"TransferService.sol\":1877:1887  msg.sender */\n      caller\n      sub(shl(0xa0, 0x01), 0x01)\n        /* \"TransferService.sol\":1891:1904  accessAddress */\n      swap1\n      swap2\n      and\n        /* \"TransferService.sol\":1877:1904  msg.sender == accessAddress */\n      eq\n        /* \"TransferService.sol\":1869:1929  require(msg.sender == accessAddress,\"Error Access Address!\") */\n      tag_105\n      jumpi\n      mload(0x40)\n      shl(0xe5, 0x461bcd)\n      dup2\n      mstore\n        /* \"#utility.yul\":3642:3644   */\n      0x20\n        /* \"TransferService.sol\":1869:1929  require(msg.sender == accessAddress,\"Error Access Address!\") */\n      0x04\n      dup3\n      add\n        /* \"#utility.yul\":3624:3645   */\n      mstore\n        /* \"#utility.yul\":3681:3683   */\n      0x15\n        /* \"#utility.yul\":3661:3679   */\n      0x24\n      dup3\n      add\n        /* \"#utility.yul\":3654:3684   */\n      mstore\n      shl(0x58, 0x4572726f7220416363657373204164647265737321)\n        /* \"#utility.yul\":3700:3718   */\n      0x44\n      dup3\n      add\n        /* \"#utility.yul\":3693:3744   */\n      mstore\n        /* \"#utility.yul\":3761:3779   */\n      0x64\n      add\n        /* \"TransferService.sol\":1869:1929  require(msg.sender == accessAddress,\"Error Access Address!\") */\n      tag_68\n        /* \"#utility.yul\":3440:3785   */\n      jump\n        /* \"TransferService.sol\":1869:1929  require(msg.sender == accessAddress,\"Error Access Address!\") */\n    tag_105:\n        /* \"TransferService.sol\":1988:1995  _bounty */\n      dup1\n        /* \"TransferService.sol\":1055:1076  address(this).balance */\n      selfbalance\n        /* \"TransferService.sol\":1962:1995  getBalanceOfContract() >= _bounty */\n      lt\n      iszero\n        /* \"TransferService.sol\":1940:2053  require(\r... */\n      tag_109\n      jumpi\n      mload(0x40)\n      shl(0xe5, 0x461bcd)\n      dup2\n      mstore\n        /* \"#utility.yul\":3283:3285   */\n      0x20\n        /* \"TransferService.sol\":1940:2053  require(\r... */\n      0x04\n      dup3\n      add\n        /* \"#utility.yul\":3265:3286   */\n      mstore\n        /* \"#utility.yul\":3322:3324   */\n      0x1e\n        /* \"#utility.yul\":3302:3320   */\n      0x24\n      dup3\n      add\n        /* \"#utility.yul\":3295:3325   */\n      mstore\n        /* \"#utility.yul\":3361:3393   */\n      0x5468652062616c616e6365206973206e6f742073756666696369656e742e0000\n        /* \"#utility.yul\":3341:3359   */\n      0x44\n      dup3\n      add\n        /* \"#utility.yul\":3334:3394   */\n      mstore\n        /* \"#utility.yul\":3411:3429   */\n      0x64\n      add\n        /* \"TransferService.sol\":1940:2053  require(\r... */\n      tag_68\n        /* \"#utility.yul\":3081:3435   */\n      jump\n        /* \"TransferService.sol\":1940:2053  require(\r... */\n    tag_109:\n        /* \"TransferService.sol\":2065:2081  bool callSuccess */\n      0x00\n        /* \"TransferService.sol\":2095:2098  _to */\n      dup3\n      sub(shl(0xa0, 0x01), 0x01)\n        /* \"TransferService.sol\":2087:2104  payable(_to).call */\n      and\n        /* \"TransferService.sol\":2112:2119  _bounty */\n      dup3\n        /* \"TransferService.sol\":2087:2124  payable(_to).call{value: _bounty}(\"\") */\n      mload(0x40)\n      0x00\n      mload(0x40)\n      dup1\n      dup4\n      sub\n      dup2\n      dup6\n      dup8\n      gas\n      call\n      swap3\n      pop\n      pop\n      pop\n      returndatasize\n      dup1\n      0x00\n      dup2\n      eq\n      tag_115\n      jumpi\n      mload(0x40)\n      swap2\n      pop\n      and(add(returndatasize, 0x3f), not(0x1f))\n      dup3\n      add\n      0x40\n      mstore\n      returndatasize\n      dup3\n      mstore\n      returndatasize\n      0x00\n      0x20\n      dup5\n      add\n      returndatacopy\n      jump(tag_114)\n    tag_115:\n      0x60\n      swap2\n      pop\n    tag_114:\n      pop\n        /* \"TransferService.sol\":2064:2124  (bool callSuccess, ) = payable(_to).call{value: _bounty}(\"\") */\n      pop\n      swap1\n      pop\n        /* \"TransferService.sol\":2143:2154  callSuccess */\n      dup1\n        /* \"TransferService.sol\":2135:2170  require(callSuccess, \"Call failed\") */\n      tag_116\n      jumpi\n      mload(0x40)\n      shl(0xe5, 0x461bcd)\n      dup2\n      mstore\n      0x04\n      add\n      tag_68\n      swap1\n      tag_69\n      jump\t// in\n    tag_116:\n      0x00\n      dup1\n      mload\n      0x20\n      data_bfa1ba3af8f25ddeeec772a4a122071e88da50530f19261881baef1859fe6f86\n      dup4\n      codecopy\n      dup2\n      mload\n      swap2\n      mstore\n        /* \"TransferService.sol\":2200:2204  this */\n      address\n        /* \"TransferService.sol\":2207:2210  _to */\n      dup5\n        /* \"TransferService.sol\":2212:2219  _bounty */\n      dup5\n        /* \"TransferService.sol\":2186:2220  payEv(address(this), _to, _bounty) */\n      mload(0x40)\n      tag_118\n      swap4\n      swap3\n      swap2\n      swap1\n      tag_71\n      jump\t// in\n    tag_118:\n      mload(0x40)\n      dup1\n      swap2\n      sub\n      swap1\n      log1\n      pop\n      pop\n        /* \"TransferService.sol\":494:499  false */\n      0x00\n        /* \"TransferService.sol\":485:499  locked = false */\n      dup1\n      sload\n      not(shl(0xa0, 0xff))\n      and\n      swap1\n      sstore\n      pop\n        /* \"TransferService.sol\":1790:2228  function toTaskerBounty(address _to, uint256 _bounty) public noLock {\r... */\n      jump\t// out\n        /* \"contracts/access/Ownable.sol\":2081:2279  function transferOwnership(address newOwner) public virtual onlyOwner {... */\n    tag_53:\n        /* \"contracts/access/Ownable.sol\":1094:1107  _checkOwner() */\n      tag_120\n        /* \"contracts/access/Ownable.sol\":1094:1105  _checkOwner */\n      tag_57\n        /* \"contracts/access/Ownable.sol\":1094:1107  _checkOwner() */\n      jump\t// in\n    tag_120:\n      sub(shl(0xa0, 0x01), 0x01)\n        /* \"contracts/access/Ownable.sol\":2169:2191  newOwner != address(0) */\n      dup2\n      and\n        /* \"contracts/access/Ownable.sol\":2161:2234  require(newOwner != address(0), \"Ownable: new owner is the zero address\") */\n      tag_122\n      jumpi\n      mload(0x40)\n      shl(0xe5, 0x461bcd)\n      dup2\n      mstore\n        /* \"#utility.yul\":2167:2169   */\n      0x20\n        /* \"contracts/access/Ownable.sol\":2161:2234  require(newOwner != address(0), \"Ownable: new owner is the zero address\") */\n      0x04\n      dup3\n      add\n        /* \"#utility.yul\":2149:2170   */\n      mstore\n        /* \"#utility.yul\":2206:2208   */\n      0x26\n        /* \"#utility.yul\":2186:2204   */\n      0x24\n      dup3\n      add\n        /* \"#utility.yul\":2179:2209   */\n      mstore\n        /* \"#utility.yul\":2245:2279   */\n      0x4f776e61626c653a206e6577206f776e657220697320746865207a65726f2061\n        /* \"#utility.yul\":2225:2243   */\n      0x44\n      dup3\n      add\n        /* \"#utility.yul\":2218:2280   */\n      mstore\n      shl(0xd0, 0x646472657373)\n        /* \"#utility.yul\":2296:2314   */\n      0x64\n      dup3\n      add\n        /* \"#utility.yul\":2289:2325   */\n      mstore\n        /* \"#utility.yul\":2342:2361   */\n      0x84\n      add\n        /* \"contracts/access/Ownable.sol\":2161:2234  require(newOwner != address(0), \"Ownable: new owner is the zero address\") */\n      tag_68\n        /* \"#utility.yul\":1965:2367   */\n      jump\n        /* \"contracts/access/Ownable.sol\":2161:2234  require(newOwner != address(0), \"Ownable: new owner is the zero address\") */\n    tag_122:\n        /* \"contracts/access/Ownable.sol\":2244:2272  _transferOwnership(newOwner) */\n      tag_125\n        /* \"contracts/access/Ownable.sol\":2263:2271  newOwner */\n      dup2\n        /* \"contracts/access/Ownable.sol\":2244:2262  _transferOwnership */\n      tag_84\n        /* \"contracts/access/Ownable.sol\":2244:2272  _transferOwnership(newOwner) */\n      jump\t// in\n    tag_125:\n        /* \"contracts/access/Ownable.sol\":2081:2279  function transferOwnership(address newOwner) public virtual onlyOwner {... */\n      pop\n      jump\t// out\n        /* \"contracts/access/Ownable.sol\":1359:1489  function _checkOwner() internal view virtual {... */\n    tag_57:\n        /* \"contracts/access/Ownable.sol\":1247:1254  address */\n      0x00\n        /* \"contracts/access/Ownable.sol\":1273:1279  _owner */\n      sload\n      sub(shl(0xa0, 0x01), 0x01)\n      and\n        /* \"contracts/utils/Context.sol\":719:729  msg.sender */\n      caller\n        /* \"contracts/access/Ownable.sol\":1422:1445  owner() == _msgSender() */\n      eq\n        /* \"contracts/access/Ownable.sol\":1414:1482  require(owner() == _msgSender(), \"Ownable: caller is not the owner\") */\n      tag_83\n      jumpi\n      mload(0x40)\n      shl(0xe5, 0x461bcd)\n      dup2\n      mstore\n        /* \"#utility.yul\":2922:2924   */\n      0x20\n        /* \"contracts/access/Ownable.sol\":1414:1482  require(owner() == _msgSender(), \"Ownable: caller is not the owner\") */\n      0x04\n      dup3\n      add\n        /* \"#utility.yul\":2904:2925   */\n      dup2\n      swap1\n      mstore\n        /* \"#utility.yul\":2941:2959   */\n      0x24\n      dup3\n      add\n        /* \"#utility.yul\":2934:2964   */\n      mstore\n        /* \"#utility.yul\":3000:3034   */\n      0x4f776e61626c653a2063616c6c6572206973206e6f7420746865206f776e6572\n        /* \"#utility.yul\":2980:2998   */\n      0x44\n      dup3\n      add\n        /* \"#utility.yul\":2973:3035   */\n      mstore\n        /* \"#utility.yul\":3052:3070   */\n      0x64\n      add\n        /* \"contracts/access/Ownable.sol\":1414:1482  require(owner() == _msgSender(), \"Ownable: caller is not the owner\") */\n      tag_68\n        /* \"#utility.yul\":2720:3076   */\n      jump\n        /* \"contracts/access/Ownable.sol\":2433:2620  function _transferOwnership(address newOwner) internal virtual {... */\n    tag_84:\n        /* \"contracts/access/Ownable.sol\":2506:2522  address oldOwner */\n      0x00\n        /* \"contracts/access/Ownable.sol\":2525:2531  _owner */\n      dup1\n      sload\n      sub(shl(0xa0, 0x01), 0x01)\n        /* \"contracts/access/Ownable.sol\":2541:2558  _owner = newOwner */\n      dup4\n      dup2\n      and\n      not(sub(shl(0xa0, 0x01), 0x01))\n      dup4\n      and\n      dup2\n      or\n      dup5\n      sstore\n        /* \"contracts/access/Ownable.sol\":2573:2613  OwnershipTransferred(oldOwner, newOwner) */\n      mload(0x40)\n        /* \"contracts/access/Ownable.sol\":2525:2531  _owner */\n      swap2\n      swap1\n      swap3\n      and\n      swap3\n      dup4\n      swap2\n        /* \"contracts/access/Ownable.sol\":2573:2613  OwnershipTransferred(oldOwner, newOwner) */\n      0x8be0079c531659141344cd1fd0a4f28419497f9722a3daafe3b4186f6b6457e0\n      swap2\n        /* \"contracts/access/Ownable.sol\":2506:2522  address oldOwner */\n      swap1\n        /* \"contracts/access/Ownable.sol\":2573:2613  OwnershipTransferred(oldOwner, newOwner) */\n      log3\n        /* \"contracts/access/Ownable.sol\":2496:2620  {... */\n      pop\n        /* \"contracts/access/Ownable.sol\":2433:2620  function _transferOwnership(address newOwner) internal virtual {... */\n      pop\n      jump\t// out\n        /* \"#utility.yul\":14:187   */\n    tag_136:\n        /* \"#utility.yul\":82:102   */\n      dup1\n      calldataload\n      sub(shl(0xa0, 0x01), 0x01)\n        /* \"#utility.yul\":131:162   */\n      dup2\n      and\n        /* \"#utility.yul\":121:163   */\n      dup2\n      eq\n        /* \"#utility.yul\":111:181   */\n      tag_138\n      jumpi\n        /* \"#utility.yul\":177:178   */\n      0x00\n        /* \"#utility.yul\":174:175   */\n      dup1\n        /* \"#utility.yul\":167:179   */\n      revert\n        /* \"#utility.yul\":111:181   */\n    tag_138:\n        /* \"#utility.yul\":14:187   */\n      swap2\n      swap1\n      pop\n      jump\t// out\n        /* \"#utility.yul\":192:378   */\n    tag_43:\n        /* \"#utility.yul\":251:257   */\n      0x00\n        /* \"#utility.yul\":304:306   */\n      0x20\n        /* \"#utility.yul\":292:301   */\n      dup3\n        /* \"#utility.yul\":283:290   */\n      dup5\n        /* \"#utility.yul\":279:302   */\n      sub\n        /* \"#utility.yul\":275:307   */\n      slt\n        /* \"#utility.yul\":272:324   */\n      iszero\n      tag_140\n      jumpi\n        /* \"#utility.yul\":320:321   */\n      0x00\n        /* \"#utility.yul\":317:318   */\n      dup1\n        /* \"#utility.yul\":310:322   */\n      revert\n        /* \"#utility.yul\":272:324   */\n    tag_140:\n        /* \"#utility.yul\":343:372   */\n      tag_141\n        /* \"#utility.yul\":362:371   */\n      dup3\n        /* \"#utility.yul\":343:372   */\n      tag_136\n      jump\t// in\n    tag_141:\n        /* \"#utility.yul\":333:372   */\n      swap4\n        /* \"#utility.yul\":192:378   */\n      swap3\n      pop\n      pop\n      pop\n      jump\t// out\n        /* \"#utility.yul\":383:637   */\n    tag_48:\n        /* \"#utility.yul\":451:457   */\n      0x00\n        /* \"#utility.yul\":459:465   */\n      dup1\n        /* \"#utility.yul\":512:514   */\n      0x40\n        /* \"#utility.yul\":500:509   */\n      dup4\n        /* \"#utility.yul\":491:498   */\n      dup6\n        /* \"#utility.yul\":487:510   */\n      sub\n        /* \"#utility.yul\":483:515   */\n      slt\n        /* \"#utility.yul\":480:532   */\n      iszero\n      tag_143\n      jumpi\n        /* \"#utility.yul\":528:529   */\n      0x00\n        /* \"#utility.yul\":525:526   */\n      dup1\n        /* \"#utility.yul\":518:530   */\n      revert\n        /* \"#utility.yul\":480:532   */\n    tag_143:\n        /* \"#utility.yul\":551:580   */\n      tag_144\n        /* \"#utility.yul\":570:579   */\n      dup4\n        /* \"#utility.yul\":551:580   */\n      tag_136\n      jump\t// in\n    tag_144:\n        /* \"#utility.yul\":541:580   */\n      swap5\n        /* \"#utility.yul\":627:629   */\n      0x20\n        /* \"#utility.yul\":612:630   */\n      swap4\n      swap1\n      swap4\n      add\n        /* \"#utility.yul\":599:631   */\n      calldataload\n      swap4\n      pop\n      pop\n      pop\n        /* \"#utility.yul\":383:637   */\n      jump\t// out\n        /* \"#utility.yul\":642:822   */\n    tag_25:\n        /* \"#utility.yul\":701:707   */\n      0x00\n        /* \"#utility.yul\":754:756   */\n      0x20\n        /* \"#utility.yul\":742:751   */\n      dup3\n        /* \"#utility.yul\":733:740   */\n      dup5\n        /* \"#utility.yul\":729:752   */\n      sub\n        /* \"#utility.yul\":725:757   */\n      slt\n        /* \"#utility.yul\":722:774   */\n      iszero\n      tag_146\n      jumpi\n        /* \"#utility.yul\":770:771   */\n      0x00\n        /* \"#utility.yul\":767:768   */\n      dup1\n        /* \"#utility.yul\":760:772   */\n      revert\n        /* \"#utility.yul\":722:774   */\n    tag_146:\n      pop\n        /* \"#utility.yul\":793:816   */\n      calldataload\n      swap2\n        /* \"#utility.yul\":642:822   */\n      swap1\n      pop\n      jump\t// out\n        /* \"#utility.yul\":1245:1620   */\n    tag_71:\n      sub(shl(0xa0, 0x01), 0x01)\n        /* \"#utility.yul\":1503:1518   */\n      swap4\n      dup5\n      and\n        /* \"#utility.yul\":1485:1519   */\n      dup2\n      mstore\n        /* \"#utility.yul\":1555:1570   */\n      swap2\n      swap1\n      swap3\n      and\n        /* \"#utility.yul\":1550:1552   */\n      0x20\n        /* \"#utility.yul\":1535:1553   */\n      dup3\n      add\n        /* \"#utility.yul\":1528:1571   */\n      mstore\n        /* \"#utility.yul\":1602:1604   */\n      0x40\n        /* \"#utility.yul\":1587:1605   */\n      dup2\n      add\n        /* \"#utility.yul\":1580:1614   */\n      swap2\n      swap1\n      swap2\n      mstore\n        /* \"#utility.yul\":1435:1437   */\n      0x60\n        /* \"#utility.yul\":1420:1438   */\n      add\n      swap1\n        /* \"#utility.yul\":1245:1620   */\n      jump\t// out\n        /* \"#utility.yul\":1625:1960   */\n    tag_69:\n        /* \"#utility.yul\":1827:1829   */\n      0x20\n        /* \"#utility.yul\":1809:1830   */\n      dup1\n      dup3\n      mstore\n        /* \"#utility.yul\":1866:1868   */\n      0x0b\n        /* \"#utility.yul\":1846:1864   */\n      swap1\n      dup3\n      add\n        /* \"#utility.yul\":1839:1869   */\n      mstore\n      shl(0xaa, 0x10d85b1b0819985a5b1959)\n        /* \"#utility.yul\":1900:1902   */\n      0x40\n        /* \"#utility.yul\":1885:1903   */\n      dup3\n      add\n        /* \"#utility.yul\":1878:1919   */\n      mstore\n        /* \"#utility.yul\":1951:1953   */\n      0x60\n        /* \"#utility.yul\":1936:1954   */\n      add\n      swap1\n        /* \"#utility.yul\":1625:1960   */\n      jump\t// out\n        /* \"#utility.yul\":3972:4237   */\n    tag_61:\n        /* \"#utility.yul\":4012:4019   */\n      0x00\n        /* \"#utility.yul\":4078:4079   */\n      dup2\n        /* \"#utility.yul\":4074:4075   */\n      0x00\n        /* \"#utility.yul\":4070:4076   */\n      not\n        /* \"#utility.yul\":4066:4080   */\n      div\n        /* \"#utility.yul\":4063:4064   */\n      dup4\n        /* \"#utility.yul\":4060:4081   */\n      gt\n        /* \"#utility.yul\":4055:4056   */\n      dup3\n        /* \"#utility.yul\":4048:4057   */\n      iszero\n        /* \"#utility.yul\":4041:4058   */\n      iszero\n        /* \"#utility.yul\":4037:4082   */\n      and\n        /* \"#utility.yul\":4034:4202   */\n      iszero\n      tag_158\n      jumpi\n        /* \"#utility.yul\":4124:4134   */\n      0x4e487b71\n        /* \"#utility.yul\":4119:4122   */\n      0xe0\n        /* \"#utility.yul\":4115:4135   */\n      shl\n        /* \"#utility.yul\":4112:4113   */\n      0x00\n        /* \"#utility.yul\":4105:4136   */\n      mstore\n        /* \"#utility.yul\":4159:4163   */\n      0x11\n        /* \"#utility.yul\":4156:4157   */\n      0x04\n        /* \"#utility.yul\":4149:4164   */\n      mstore\n        /* \"#utility.yul\":4187:4191   */\n      0x24\n        /* \"#utility.yul\":4184:4185   */\n      0x00\n        /* \"#utility.yul\":4177:4192   */\n      revert\n        /* \"#utility.yul\":4034:4202   */\n    tag_158:\n      pop\n        /* \"#utility.yul\":4222:4231   */\n      mul\n      swap1\n        /* \"#utility.yul\":3972:4237   */\n      jump\t// out\n    stop\n    data_bfa1ba3af8f25ddeeec772a4a122071e88da50530f19261881baef1859fe6f86 b37bd6f3ccfce130859d4569dc432409f423a7928e73eb5c5049a94e40f0c648\n\n    auxdata: 0xa2646970667358221220bbfafc19b6c0a4514296ae5b7a751d98d5fb7f710680d817dd4a76fe1d25572c64736f6c63430008070033\n}\n",
				"bytecode": {
					"linkReferences": {},
					"object": "608060405234801561001057600080fd5b5061001a3361001f565b61006f565b600080546001600160a01b038381166001600160a01b0319831681178455604051919092169283917f8be0079c531659141344cd1fd0a4f28419497f9722a3daafe3b4186f6b6457e09190a35050565b6107d98061007e6000396000f3fe6080604052600436106100845760003560e01c8063853828b611610056578063853828b6146100ea5780638da5cb5b146100ff578063ad5f7ab014610127578063c6d30da414610147578063f2fde38b1461016757005b8063229688851461008d5780632e1a7d4d146100ad578063460968dd146100cd578063715018a6146100d557005b3661008b57005b005b34801561009957600080fd5b506040514781526020015b60405180910390f35b3480156100b957600080fd5b5061008b6100c83660046106f4565b610187565b61008b610246565b3480156100e157600080fd5b5061008b6102da565b3480156100f657600080fd5b5061008b6102ee565b34801561010b57600080fd5b506000546040516001600160a01b0390911681526020016100a4565b34801561013357600080fd5b5061008b6101423660046106a8565b61038a565b34801561015357600080fd5b5061008b6101623660046106ca565b6103b4565b34801561017357600080fd5b5061008b6101823660046106a8565b610569565b61018f6105e2565b600080546001600160a01b03166101ae83670de0b6b3a7640000610756565b604051600081818185875af1925050503d80600081146101ea576040519150601f19603f3d011682016040523d82523d6000602084013e6101ef565b606091505b50509050806102195760405162461bcd60e51b815260040161021090610731565b60405180910390fd5b60008051602061078483398151915230334760405161023a9392919061070d565b60405180910390a15050565b604051600090309034908381818185875af1925050503d8060008114610288576040519150601f19603f3d011682016040523d82523d6000602084013e61028d565b606091505b50509050806102ae5760405162461bcd60e51b815260040161021090610731565b6000805160206107848339815191523330346040516102cf9392919061070d565b60405180910390a150565b6102e26105e2565b6102ec600061063c565b565b6102f66105e2565b600080546040516001600160a01b039091169047908381818185875af1925050503d8060008114610343576040519150601f19603f3d011682016040523d82523d6000602084013e610348565b606091505b50509050806103695760405162461bcd60e51b815260040161021090610731565b6000805160206107848339815191523033476040516102cf9392919061070d565b6103926105e2565b600180546001600160a01b0319166001600160a01b0392909216919091179055565b600054600160a01b900460ff16156104045760405162461bcd60e51b81526020600482015260136024820152722a3432903637b1b59034b9903637b1b5b2b21760691b6044820152606401610210565b6000805460ff60a01b1916600160a01b179055600154336001600160a01b039091161461046b5760405162461bcd60e51b81526020600482015260156024820152744572726f722041636365737320416464726573732160581b6044820152606401610210565b804710156104bb5760405162461bcd60e51b815260206004820152601e60248201527f5468652062616c616e6365206973206e6f742073756666696369656e742e00006044820152606401610210565b6000826001600160a01b03168260405160006040518083038185875af1925050503d8060008114610508576040519150601f19603f3d011682016040523d82523d6000602084013e61050d565b606091505b505090508061052e5760405162461bcd60e51b815260040161021090610731565b60008051602061078483398151915230848460405161054f9392919061070d565b60405180910390a150506000805460ff60a01b1916905550565b6105716105e2565b6001600160a01b0381166105d65760405162461bcd60e51b815260206004820152602660248201527f4f776e61626c653a206e6577206f776e657220697320746865207a65726f206160448201526564647265737360d01b6064820152608401610210565b6105df8161063c565b50565b6000546001600160a01b031633146102ec5760405162461bcd60e51b815260206004820181905260248201527f4f776e61626c653a2063616c6c6572206973206e6f7420746865206f776e65726044820152606401610210565b600080546001600160a01b038381166001600160a01b0319831681178455604051919092169283917f8be0079c531659141344cd1fd0a4f28419497f9722a3daafe3b4186f6b6457e09190a35050565b80356001600160a01b03811681146106a357600080fd5b919050565b6000602082840312156106ba57600080fd5b6106c38261068c565b9392505050565b600080604083850312156106dd57600080fd5b6106e68361068c565b946020939093013593505050565b60006020828403121561070657600080fd5b5035919050565b6001600160a01b039384168152919092166020820152604081019190915260600190565b6020808252600b908201526a10d85b1b0819985a5b195960aa1b604082015260600190565b600081600019048311821515161561077e57634e487b7160e01b600052601160045260246000fd5b50029056feb37bd6f3ccfce130859d4569dc432409f423a7928e73eb5c5049a94e40f0c648a2646970667358221220bbfafc19b6c0a4514296ae5b7a751d98d5fb7f710680d817dd4a76fe1d25572c64736f6c63430008070033",
					"opcodes": "PUSH1 0x80 PUSH1 0x40 MSTORE CALLVALUE DUP1 ISZERO PUSH2 0x10 JUMPI PUSH1 0x0 DUP1 REVERT JUMPDEST POP PUSH2 0x1A CALLER PUSH2 0x1F JUMP JUMPDEST PUSH2 0x6F JUMP JUMPDEST PUSH1 0x0 DUP1 SLOAD PUSH1 0x1 PUSH1 0x1 PUSH1 0xA0 SHL SUB DUP4 DUP2 AND PUSH1 0x1 PUSH1 0x1 PUSH1 0xA0 SHL SUB NOT DUP4 AND DUP2 OR DUP5 SSTORE PUSH1 0x40 MLOAD SWAP2 SWAP1 SWAP3 AND SWAP3 DUP4 SWAP2 PUSH32 0x8BE0079C531659141344CD1FD0A4F28419497F9722A3DAAFE3B4186F6B6457E0 SWAP2 SWAP1 LOG3 POP POP JUMP JUMPDEST PUSH2 0x7D9 DUP1 PUSH2 0x7E PUSH1 0x0 CODECOPY PUSH1 0x0 RETURN INVALID PUSH1 0x80 PUSH1 0x40 MSTORE PUSH1 0x4 CALLDATASIZE LT PUSH2 0x84 JUMPI PUSH1 0x0 CALLDATALOAD PUSH1 0xE0 SHR DUP1 PUSH4 0x853828B6 GT PUSH2 0x56 JUMPI DUP1 PUSH4 0x853828B6 EQ PUSH2 0xEA JUMPI DUP1 PUSH4 0x8DA5CB5B EQ PUSH2 0xFF JUMPI DUP1 PUSH4 0xAD5F7AB0 EQ PUSH2 0x127 JUMPI DUP1 PUSH4 0xC6D30DA4 EQ PUSH2 0x147 JUMPI DUP1 PUSH4 0xF2FDE38B EQ PUSH2 0x167 JUMPI STOP JUMPDEST DUP1 PUSH4 0x22968885 EQ PUSH2 0x8D JUMPI DUP1 PUSH4 0x2E1A7D4D EQ PUSH2 0xAD JUMPI DUP1 PUSH4 0x460968DD EQ PUSH2 0xCD JUMPI DUP1 PUSH4 0x715018A6 EQ PUSH2 0xD5 JUMPI STOP JUMPDEST CALLDATASIZE PUSH2 0x8B JUMPI STOP JUMPDEST STOP JUMPDEST CALLVALUE DUP1 ISZERO PUSH2 0x99 JUMPI PUSH1 0x0 DUP1 REVERT JUMPDEST POP PUSH1 0x40 MLOAD SELFBALANCE DUP2 MSTORE PUSH1 0x20 ADD JUMPDEST PUSH1 0x40 MLOAD DUP1 SWAP2 SUB SWAP1 RETURN JUMPDEST CALLVALUE DUP1 ISZERO PUSH2 0xB9 JUMPI PUSH1 0x0 DUP1 REVERT JUMPDEST POP PUSH2 0x8B PUSH2 0xC8 CALLDATASIZE PUSH1 0x4 PUSH2 0x6F4 JUMP JUMPDEST PUSH2 0x187 JUMP JUMPDEST PUSH2 0x8B PUSH2 0x246 JUMP JUMPDEST CALLVALUE DUP1 ISZERO PUSH2 0xE1 JUMPI PUSH1 0x0 DUP1 REVERT JUMPDEST POP PUSH2 0x8B PUSH2 0x2DA JUMP JUMPDEST CALLVALUE DUP1 ISZERO PUSH2 0xF6 JUMPI PUSH1 0x0 DUP1 REVERT JUMPDEST POP PUSH2 0x8B PUSH2 0x2EE JUMP JUMPDEST CALLVALUE DUP1 ISZERO PUSH2 0x10B JUMPI PUSH1 0x0 DUP1 REVERT JUMPDEST POP PUSH1 0x0 SLOAD PUSH1 0x40 MLOAD PUSH1 0x1 PUSH1 0x1 PUSH1 0xA0 SHL SUB SWAP1 SWAP2 AND DUP2 MSTORE PUSH1 0x20 ADD PUSH2 0xA4 JUMP JUMPDEST CALLVALUE DUP1 ISZERO PUSH2 0x133 JUMPI PUSH1 0x0 DUP1 REVERT JUMPDEST POP PUSH2 0x8B PUSH2 0x142 CALLDATASIZE PUSH1 0x4 PUSH2 0x6A8 JUMP JUMPDEST PUSH2 0x38A JUMP JUMPDEST CALLVALUE DUP1 ISZERO PUSH2 0x153 JUMPI PUSH1 0x0 DUP1 REVERT JUMPDEST POP PUSH2 0x8B PUSH2 0x162 CALLDATASIZE PUSH1 0x4 PUSH2 0x6CA JUMP JUMPDEST PUSH2 0x3B4 JUMP JUMPDEST CALLVALUE DUP1 ISZERO PUSH2 0x173 JUMPI PUSH1 0x0 DUP1 REVERT JUMPDEST POP PUSH2 0x8B PUSH2 0x182 CALLDATASIZE PUSH1 0x4 PUSH2 0x6A8 JUMP JUMPDEST PUSH2 0x569 JUMP JUMPDEST PUSH2 0x18F PUSH2 0x5E2 JUMP JUMPDEST PUSH1 0x0 DUP1 SLOAD PUSH1 0x1 PUSH1 0x1 PUSH1 0xA0 SHL SUB AND PUSH2 0x1AE DUP4 PUSH8 0xDE0B6B3A7640000 PUSH2 0x756 JUMP JUMPDEST PUSH1 0x40 MLOAD PUSH1 0x0 DUP2 DUP2 DUP2 DUP6 DUP8 GAS CALL SWAP3 POP POP POP RETURNDATASIZE DUP1 PUSH1 0x0 DUP2 EQ PUSH2 0x1EA JUMPI PUSH1 0x40 MLOAD SWAP2 POP PUSH1 0x1F NOT PUSH1 0x3F RETURNDATASIZE ADD AND DUP3 ADD PUSH1 0x40 MSTORE RETURNDATASIZE DUP3 MSTORE RETURNDATASIZE PUSH1 0x0 PUSH1 0x20 DUP5 ADD RETURNDATACOPY PUSH2 0x1EF JUMP JUMPDEST PUSH1 0x60 SWAP2 POP JUMPDEST POP POP SWAP1 POP DUP1 PUSH2 0x219 JUMPI PUSH1 0x40 MLOAD PUSH3 0x461BCD PUSH1 0xE5 SHL DUP2 MSTORE PUSH1 0x4 ADD PUSH2 0x210 SWAP1 PUSH2 0x731 JUMP JUMPDEST PUSH1 0x40 MLOAD DUP1 SWAP2 SUB SWAP1 REVERT JUMPDEST PUSH1 0x0 DUP1 MLOAD PUSH1 0x20 PUSH2 0x784 DUP4 CODECOPY DUP2 MLOAD SWAP2 MSTORE ADDRESS CALLER SELFBALANCE PUSH1 0x40 MLOAD PUSH2 0x23A SWAP4 SWAP3 SWAP2 SWAP1 PUSH2 0x70D JUMP JUMPDEST PUSH1 0x40 MLOAD DUP1 SWAP2 SUB SWAP1 LOG1 POP POP JUMP JUMPDEST PUSH1 0x40 MLOAD PUSH1 0x0 SWAP1 ADDRESS SWAP1 CALLVALUE SWAP1 DUP4 DUP2 DUP2 DUP2 DUP6 DUP8 GAS CALL SWAP3 POP POP POP RETURNDATASIZE DUP1 PUSH1 0x0 DUP2 EQ PUSH2 0x288 JUMPI PUSH1 0x40 MLOAD SWAP2 POP PUSH1 0x1F NOT PUSH1 0x3F RETURNDATASIZE ADD AND DUP3 ADD PUSH1 0x40 MSTORE RETURNDATASIZE DUP3 MSTORE RETURNDATASIZE PUSH1 0x0 PUSH1 0x20 DUP5 ADD RETURNDATACOPY PUSH2 0x28D JUMP JUMPDEST PUSH1 0x60 SWAP2 POP JUMPDEST POP POP SWAP1 POP DUP1 PUSH2 0x2AE JUMPI PUSH1 0x40 MLOAD PUSH3 0x461BCD PUSH1 0xE5 SHL DUP2 MSTORE PUSH1 0x4 ADD PUSH2 0x210 SWAP1 PUSH2 0x731 JUMP JUMPDEST PUSH1 0x0 DUP1 MLOAD PUSH1 0x20 PUSH2 0x784 DUP4 CODECOPY DUP2 MLOAD SWAP2 MSTORE CALLER ADDRESS CALLVALUE PUSH1 0x40 MLOAD PUSH2 0x2CF SWAP4 SWAP3 SWAP2 SWAP1 PUSH2 0x70D JUMP JUMPDEST PUSH1 0x40 MLOAD DUP1 SWAP2 SUB SWAP1 LOG1 POP JUMP JUMPDEST PUSH2 0x2E2 PUSH2 0x5E2 JUMP JUMPDEST PUSH2 0x2EC PUSH1 0x0 PUSH2 0x63C JUMP JUMPDEST JUMP JUMPDEST PUSH2 0x2F6 PUSH2 0x5E2 JUMP JUMPDEST PUSH1 0x0 DUP1 SLOAD PUSH1 0x40 MLOAD PUSH1 0x1 PUSH1 0x1 PUSH1 0xA0 SHL SUB SWAP1 SWAP2 AND SWAP1 SELFBALANCE SWAP1 DUP4 DUP2 DUP2 DUP2 DUP6 DUP8 GAS CALL SWAP3 POP POP POP RETURNDATASIZE DUP1 PUSH1 0x0 DUP2 EQ PUSH2 0x343 JUMPI PUSH1 0x40 MLOAD SWAP2 POP PUSH1 0x1F NOT PUSH1 0x3F RETURNDATASIZE ADD AND DUP3 ADD PUSH1 0x40 MSTORE RETURNDATASIZE DUP3 MSTORE RETURNDATASIZE PUSH1 0x0 PUSH1 0x20 DUP5 ADD RETURNDATACOPY PUSH2 0x348 JUMP JUMPDEST PUSH1 0x60 SWAP2 POP JUMPDEST POP POP SWAP1 POP DUP1 PUSH2 0x369 JUMPI PUSH1 0x40 MLOAD PUSH3 0x461BCD PUSH1 0xE5 SHL DUP2 MSTORE PUSH1 0x4 ADD PUSH2 0x210 SWAP1 PUSH2 0x731 JUMP JUMPDEST PUSH1 0x0 DUP1 MLOAD PUSH1 0x20 PUSH2 0x784 DUP4 CODECOPY DUP2 MLOAD SWAP2 MSTORE ADDRESS CALLER SELFBALANCE PUSH1 0x40 MLOAD PUSH2 0x2CF SWAP4 SWAP3 SWAP2 SWAP1 PUSH2 0x70D JUMP JUMPDEST PUSH2 0x392 PUSH2 0x5E2 JUMP JUMPDEST PUSH1 0x1 DUP1 SLOAD PUSH1 0x1 PUSH1 0x1 PUSH1 0xA0 SHL SUB NOT AND PUSH1 0x1 PUSH1 0x1 PUSH1 0xA0 SHL SUB SWAP3 SWAP1 SWAP3 AND SWAP2 SWAP1 SWAP2 OR SWAP1 SSTORE JUMP JUMPDEST PUSH1 0x0 SLOAD PUSH1 0x1 PUSH1 0xA0 SHL SWAP1 DIV PUSH1 0xFF AND ISZERO PUSH2 0x404 JUMPI PUSH1 0x40 MLOAD PUSH3 0x461BCD PUSH1 0xE5 SHL DUP2 MSTORE PUSH1 0x20 PUSH1 0x4 DUP3 ADD MSTORE PUSH1 0x13 PUSH1 0x24 DUP3 ADD MSTORE PUSH19 0x2A3432903637B1B59034B9903637B1B5B2B217 PUSH1 0x69 SHL PUSH1 0x44 DUP3 ADD MSTORE PUSH1 0x64 ADD PUSH2 0x210 JUMP JUMPDEST PUSH1 0x0 DUP1 SLOAD PUSH1 0xFF PUSH1 0xA0 SHL NOT AND PUSH1 0x1 PUSH1 0xA0 SHL OR SWAP1 SSTORE PUSH1 0x1 SLOAD CALLER PUSH1 0x1 PUSH1 0x1 PUSH1 0xA0 SHL SUB SWAP1 SWAP2 AND EQ PUSH2 0x46B JUMPI PUSH1 0x40 MLOAD PUSH3 0x461BCD PUSH1 0xE5 SHL DUP2 MSTORE PUSH1 0x20 PUSH1 0x4 DUP3 ADD MSTORE PUSH1 0x15 PUSH1 0x24 DUP3 ADD MSTORE PUSH21 0x4572726F7220416363657373204164647265737321 PUSH1 0x58 SHL PUSH1 0x44 DUP3 ADD MSTORE PUSH1 0x64 ADD PUSH2 0x210 JUMP JUMPDEST DUP1 SELFBALANCE LT ISZERO PUSH2 0x4BB JUMPI PUSH1 0x40 MLOAD PUSH3 0x461BCD PUSH1 0xE5 SHL DUP2 MSTORE PUSH1 0x20 PUSH1 0x4 DUP3 ADD MSTORE PUSH1 0x1E PUSH1 0x24 DUP3 ADD MSTORE PUSH32 0x5468652062616C616E6365206973206E6F742073756666696369656E742E0000 PUSH1 0x44 DUP3 ADD MSTORE PUSH1 0x64 ADD PUSH2 0x210 JUMP JUMPDEST PUSH1 0x0 DUP3 PUSH1 0x1 PUSH1 0x1 PUSH1 0xA0 SHL SUB AND DUP3 PUSH1 0x40 MLOAD PUSH1 0x0 PUSH1 0x40 MLOAD DUP1 DUP4 SUB DUP2 DUP6 DUP8 GAS CALL SWAP3 POP POP POP RETURNDATASIZE DUP1 PUSH1 0x0 DUP2 EQ PUSH2 0x508 JUMPI PUSH1 0x40 MLOAD SWAP2 POP PUSH1 0x1F NOT PUSH1 0x3F RETURNDATASIZE ADD AND DUP3 ADD PUSH1 0x40 MSTORE RETURNDATASIZE DUP3 MSTORE RETURNDATASIZE PUSH1 0x0 PUSH1 0x20 DUP5 ADD RETURNDATACOPY PUSH2 0x50D JUMP JUMPDEST PUSH1 0x60 SWAP2 POP JUMPDEST POP POP SWAP1 POP DUP1 PUSH2 0x52E JUMPI PUSH1 0x40 MLOAD PUSH3 0x461BCD PUSH1 0xE5 SHL DUP2 MSTORE PUSH1 0x4 ADD PUSH2 0x210 SWAP1 PUSH2 0x731 JUMP JUMPDEST PUSH1 0x0 DUP1 MLOAD PUSH1 0x20 PUSH2 0x784 DUP4 CODECOPY DUP2 MLOAD SWAP2 MSTORE ADDRESS DUP5 DUP5 PUSH1 0x40 MLOAD PUSH2 0x54F SWAP4 SWAP3 SWAP2 SWAP1 PUSH2 0x70D JUMP JUMPDEST PUSH1 0x40 MLOAD DUP1 SWAP2 SUB SWAP1 LOG1 POP POP PUSH1 0x0 DUP1 SLOAD PUSH1 0xFF PUSH1 0xA0 SHL NOT AND SWAP1 SSTORE POP JUMP JUMPDEST PUSH2 0x571 PUSH2 0x5E2 JUMP JUMPDEST PUSH1 0x1 PUSH1 0x1 PUSH1 0xA0 SHL SUB DUP2 AND PUSH2 0x5D6 JUMPI PUSH1 0x40 MLOAD PUSH3 0x461BCD PUSH1 0xE5 SHL DUP2 MSTORE PUSH1 0x20 PUSH1 0x4 DUP3 ADD MSTORE PUSH1 0x26 PUSH1 0x24 DUP3 ADD MSTORE PUSH32 0x4F776E61626C653A206E6577206F776E657220697320746865207A65726F2061 PUSH1 0x44 DUP3 ADD MSTORE PUSH6 0x646472657373 PUSH1 0xD0 SHL PUSH1 0x64 DUP3 ADD MSTORE PUSH1 0x84 ADD PUSH2 0x210 JUMP JUMPDEST PUSH2 0x5DF DUP2 PUSH2 0x63C JUMP JUMPDEST POP JUMP JUMPDEST PUSH1 0x0 SLOAD PUSH1 0x1 PUSH1 0x1 PUSH1 0xA0 SHL SUB AND CALLER EQ PUSH2 0x2EC JUMPI PUSH1 0x40 MLOAD PUSH3 0x461BCD PUSH1 0xE5 SHL DUP2 MSTORE PUSH1 0x20 PUSH1 0x4 DUP3 ADD DUP2 SWAP1 MSTORE PUSH1 0x24 DUP3 ADD MSTORE PUSH32 0x4F776E61626C653A2063616C6C6572206973206E6F7420746865206F776E6572 PUSH1 0x44 DUP3 ADD MSTORE PUSH1 0x64 ADD PUSH2 0x210 JUMP JUMPDEST PUSH1 0x0 DUP1 SLOAD PUSH1 0x1 PUSH1 0x1 PUSH1 0xA0 SHL SUB DUP4 DUP2 AND PUSH1 0x1 PUSH1 0x1 PUSH1 0xA0 SHL SUB NOT DUP4 AND DUP2 OR DUP5 SSTORE PUSH1 0x40 MLOAD SWAP2 SWAP1 SWAP3 AND SWAP3 DUP4 SWAP2 PUSH32 0x8BE0079C531659141344CD1FD0A4F28419497F9722A3DAAFE3B4186F6B6457E0 SWAP2 SWAP1 LOG3 POP POP JUMP JUMPDEST DUP1 CALLDATALOAD PUSH1 0x1 PUSH1 0x1 PUSH1 0xA0 SHL SUB DUP2 AND DUP2 EQ PUSH2 0x6A3 JUMPI PUSH1 0x0 DUP1 REVERT JUMPDEST SWAP2 SWAP1 POP JUMP JUMPDEST PUSH1 0x0 PUSH1 0x20 DUP3 DUP5 SUB SLT ISZERO PUSH2 0x6BA JUMPI PUSH1 0x0 DUP1 REVERT JUMPDEST PUSH2 0x6C3 DUP3 PUSH2 0x68C JUMP JUMPDEST SWAP4 SWAP3 POP POP POP JUMP JUMPDEST PUSH1 0x0 DUP1 PUSH1 0x40 DUP4 DUP6 SUB SLT ISZERO PUSH2 0x6DD JUMPI PUSH1 0x0 DUP1 REVERT JUMPDEST PUSH2 0x6E6 DUP4 PUSH2 0x68C JUMP JUMPDEST SWAP5 PUSH1 0x20 SWAP4 SWAP1 SWAP4 ADD CALLDATALOAD SWAP4 POP POP POP JUMP JUMPDEST PUSH1 0x0 PUSH1 0x20 DUP3 DUP5 SUB SLT ISZERO PUSH2 0x706 JUMPI PUSH1 0x0 DUP1 REVERT JUMPDEST POP CALLDATALOAD SWAP2 SWAP1 POP JUMP JUMPDEST PUSH1 0x1 PUSH1 0x1 PUSH1 0xA0 SHL SUB SWAP4 DUP5 AND DUP2 MSTORE SWAP2 SWAP1 SWAP3 AND PUSH1 0x20 DUP3 ADD MSTORE PUSH1 0x40 DUP2 ADD SWAP2 SWAP1 SWAP2 MSTORE PUSH1 0x60 ADD SWAP1 JUMP JUMPDEST PUSH1 0x20 DUP1 DUP3 MSTORE PUSH1 0xB SWAP1 DUP3 ADD MSTORE PUSH11 0x10D85B1B0819985A5B1959 PUSH1 0xAA SHL PUSH1 0x40 DUP3 ADD MSTORE PUSH1 0x60 ADD SWAP1 JUMP JUMPDEST PUSH1 0x0 DUP2 PUSH1 0x0 NOT DIV DUP4 GT DUP3 ISZERO ISZERO AND ISZERO PUSH2 0x77E JUMPI PUSH4 0x4E487B71 PUSH1 0xE0 SHL PUSH1 0x0 MSTORE PUSH1 0x11 PUSH1 0x4 MSTORE PUSH1 0x24 PUSH1 0x0 REVERT JUMPDEST POP MUL SWAP1 JUMP INVALID 0xB3 PUSH28 0xD6F3CCFCE130859D4569DC432409F423A7928E73EB5C5049A94E40F0 0xC6 BASEFEE LOG2 PUSH5 0x6970667358 0x22 SLT KECCAK256 0xBB STATICCALL 0xFC NOT 0xB6 0xC0 LOG4 MLOAD TIMESTAMP SWAP7 0xAE JUMPDEST PUSH27 0x751D98D5FB7F710680D817DD4A76FE1D25572C64736F6C63430008 SMOD STOP CALLER "
				},
				"gasEstimates": {
					"creation": {
						"codeDepositCost": "401800",
						"executionCost": "26277",
						"totalCost": "428077"
					},
					"external": {
						"": "162",
						"getBalanceOfContract()": "169",
						"owner()": "2323",
						"renounceOwnership()": "infinite",
						"setAccessAddress(address)": "26779",
						"toTaskerBounty(address,uint256)": "infinite",
						"transderToContract()": "infinite",
						"transferOwnership(address)": "28421",
						"withdraw(uint256)": "infinite",
						"withdrawAll()": "infinite"
					}
				},
				"methodIdentifiers": {
					"getBalanceOfContract()": "22968885",
					"owner()": "8da5cb5b",
					"renounceOwnership()": "715018a6",
					"setAccessAddress(address)": "ad5f7ab0",
					"toTaskerBounty(address,uint256)": "c6d30da4",
					"transderToContract()": "460968dd",
					"transferOwnership(address)": "f2fde38b",
					"withdraw(uint256)": "2e1a7d4d",
					"withdrawAll()": "853828b6"
				}
			},
			"storageLayout": {
				"storage": [
					{
						"astId": 247,
						"contract": "TransferService.sol:TransferService",
						"label": "_owner",
						"offset": 0,
						"slot": "0",
						"type": "t_address"
					},
					{
						"astId": 14,
						"contract": "TransferService.sol:TransferService",
						"label": "locked",
						"offset": 20,
						"slot": "0",
						"type": "t_bool"
					},
					{
						"astId": 16,
						"contract": "TransferService.sol:TransferService",
						"label": "accessAddress",
						"offset": 0,
						"slot": "1",
						"type": "t_address"
					}
				],
				"types": {
					"t_address": {
						"encoding": "inplace",
						"label": "address",
						"numberOfBytes": "20"
					},
					"t_bool": {
						"encoding": "inplace",
						"label": "bool",
						"numberOfBytes": "1"
					}
				}
			},
			"userdoc": {
				"kind": "user",
				"methods": {},
				"version": 1
			}
		}
	}
}