{
	"CalculateUtils.sol": {
		"CalculateUtils": {
			"abi": [
				{
					"inputs": [
						{
							"internalType": "string",
							"name": "",
							"type": "string"
						}
					],
					"name": "ParameterException",
					"type": "error"
				},
				{
					"inputs": [
						{
							"internalType": "uint256",
							"name": "_bounty",
							"type": "uint256"
						}
					],
					"name": "getBountyForAmphi",
					"outputs": [
						{
							"internalType": "uint256",
							"name": "_money",
							"type": "uint256"
						}
					],
					"stateMutability": "pure",
					"type": "function"
				},
				{
					"inputs": [
						{
							"internalType": "uint256",
							"name": "_bounty",
							"type": "uint256"
						}
					],
					"name": "getBountyForTrans",
					"outputs": [
						{
							"internalType": "uint256",
							"name": "_money",
							"type": "uint256"
						}
					],
					"stateMutability": "pure",
					"type": "function"
				},
				{
					"inputs": [
						{
							"internalType": "uint256",
							"name": "_bounty",
							"type": "uint256"
						}
					],
					"name": "getBountyForVf",
					"outputs": [
						{
							"internalType": "uint256",
							"name": "_money",
							"type": "uint256"
						}
					],
					"stateMutability": "pure",
					"type": "function"
				},
				{
					"inputs": [
						{
							"internalType": "uint256",
							"name": "_bounty",
							"type": "uint256"
						},
						{
							"internalType": "uint256",
							"name": "_deduct",
							"type": "uint256"
						}
					],
					"name": "getDeductMoney",
					"outputs": [
						{
							"internalType": "uint256",
							"name": "",
							"type": "uint256"
						}
					],
					"stateMutability": "pure",
					"type": "function"
				},
				{
					"inputs": [
						{
							"internalType": "uint256",
							"name": "_transNumber",
							"type": "uint256"
						}
					],
					"name": "getMatNumber",
					"outputs": [
						{
							"internalType": "uint256",
							"name": "",
							"type": "uint256"
						}
					],
					"stateMutability": "pure",
					"type": "function"
				},
				{
					"inputs": [
						{
							"internalType": "uint256",
							"name": "_number",
							"type": "uint256"
						},
						{
							"internalType": "uint256",
							"name": "_ratio",
							"type": "uint256"
						}
					],
					"name": "getPercentage",
					"outputs": [
						{
							"internalType": "uint256",
							"name": "returnNumber",
							"type": "uint256"
						}
					],
					"stateMutability": "pure",
					"type": "function"
				},
				{
					"inputs": [
						{
							"internalType": "uint256",
							"name": "_ratio",
							"type": "uint256"
						},
						{
							"internalType": "uint256",
							"name": "_bounty",
							"type": "uint256"
						}
					],
					"name": "getPunish",
					"outputs": [
						{
							"internalType": "uint256",
							"name": "",
							"type": "uint256"
						}
					],
					"stateMutability": "pure",
					"type": "function"
				},
				{
					"inputs": [
						{
							"internalType": "uint256",
							"name": "_bounts",
							"type": "uint256"
						}
					],
					"name": "punishRatio",
					"outputs": [
						{
							"internalType": "uint256",
							"name": "",
							"type": "uint256"
						}
					],
					"stateMutability": "pure",
					"type": "function"
				}
			],
			"devdoc": {
				"kind": "dev",
				"methods": {},
				"version": 1
			},
			"evm": {
				"assembly": "    /* \"CalculateUtils.sol\":95:2823  contract CalculateUtils {\r... */\n  mstore(0x40, 0x80)\n  callvalue\n  dup1\n  iszero\n  tag_1\n  jumpi\n  0x00\n  dup1\n  revert\ntag_1:\n  pop\n  dataSize(sub_0)\n  dup1\n  dataOffset(sub_0)\n  0x00\n  codecopy\n  0x00\n  return\nstop\n\nsub_0: assembly {\n        /* \"CalculateUtils.sol\":95:2823  contract CalculateUtils {\r... */\n      mstore(0x40, 0x80)\n      callvalue\n      dup1\n      iszero\n      tag_1\n      jumpi\n      0x00\n      dup1\n      revert\n    tag_1:\n      pop\n      jumpi(tag_2, lt(calldatasize, 0x04))\n      shr(0xe0, calldataload(0x00))\n      dup1\n      0xa16eb4d3\n      gt\n      tag_11\n      jumpi\n      dup1\n      0xa16eb4d3\n      eq\n      tag_7\n      jumpi\n      dup1\n      0xab2acba4\n      eq\n      tag_8\n      jumpi\n      dup1\n      0xf2e60202\n      eq\n      tag_9\n      jumpi\n      dup1\n      0xf74f3655\n      eq\n      tag_10\n      jumpi\n      0x00\n      dup1\n      revert\n    tag_11:\n      dup1\n      0x4f6ca3ce\n      eq\n      tag_3\n      jumpi\n      dup1\n      0x8e4b0bbd\n      eq\n      tag_4\n      jumpi\n      dup1\n      0x8f861ba7\n      eq\n      tag_5\n      jumpi\n      dup1\n      0x9ce5c4bf\n      eq\n      tag_6\n      jumpi\n    tag_2:\n      0x00\n      dup1\n      revert\n        /* \"CalculateUtils.sol\":256:1053  function punishRatio(uint256 _bounts) public pure returns (uint256) {\r... */\n    tag_3:\n      tag_12\n      tag_13\n      calldatasize\n      0x04\n      tag_14\n      jump\t// in\n    tag_13:\n      tag_15\n      jump\t// in\n    tag_12:\n      mload(0x40)\n        /* \"#utility.yul\":1010:1035   */\n      swap1\n      dup2\n      mstore\n        /* \"#utility.yul\":998:1000   */\n      0x20\n        /* \"#utility.yul\":983:1001   */\n      add\n        /* \"CalculateUtils.sol\":256:1053  function punishRatio(uint256 _bounts) public pure returns (uint256) {\r... */\n      mload(0x40)\n      dup1\n      swap2\n      sub\n      swap1\n      return\n        /* \"CalculateUtils.sol\":1858:2025  function getBountyForVf(uint256 _bounty)\r... */\n    tag_4:\n      tag_12\n      tag_19\n      calldatasize\n      0x04\n      tag_14\n      jump\t// in\n    tag_19:\n      tag_20\n      jump\t// in\n        /* \"CalculateUtils.sol\":2643:2820  function getDeductMoney(uint256 _bounty, uint256 _deduct)\r... */\n    tag_5:\n      tag_12\n      tag_23\n      calldatasize\n      0x04\n      tag_24\n      jump\t// in\n    tag_23:\n      tag_25\n      jump\t// in\n        /* \"CalculateUtils.sol\":2451:2606  function getPunish(uint256 _ratio, uint256 _bounty)\r... */\n    tag_6:\n      tag_12\n      tag_28\n      calldatasize\n      0x04\n      tag_24\n      jump\t// in\n    tag_28:\n      tag_29\n      jump\t// in\n        /* \"CalculateUtils.sol\":2033:2203  function getBountyForAmphi(uint256 _bounty)\r... */\n    tag_7:\n      tag_12\n      tag_32\n      calldatasize\n      0x04\n      tag_14\n      jump\t// in\n    tag_32:\n      tag_33\n      jump\t// in\n        /* \"CalculateUtils.sol\":1681:1850  function getBountyForTrans(uint256 _bounty)\r... */\n    tag_8:\n      tag_12\n      tag_36\n      calldatasize\n      0x04\n      tag_14\n      jump\t// in\n    tag_36:\n      tag_37\n      jump\t// in\n        /* \"CalculateUtils.sol\":1344:1637  function getMatNumber(uint256 _transNumber)\r... */\n    tag_9:\n      tag_12\n      tag_40\n      calldatasize\n      0x04\n      tag_14\n      jump\t// in\n    tag_40:\n      tag_41\n      jump\t// in\n        /* \"CalculateUtils.sol\":2237:2423  function getPercentage(uint256 _number, uint256 _ratio)\r... */\n    tag_10:\n      tag_12\n      tag_44\n      calldatasize\n      0x04\n      tag_24\n      jump\t// in\n    tag_44:\n      tag_45\n      jump\t// in\n        /* \"CalculateUtils.sol\":256:1053  function punishRatio(uint256 _bounts) public pure returns (uint256) {\r... */\n    tag_15:\n        /* \"CalculateUtils.sol\":315:322  uint256 */\n      0x00\n        /* \"CalculateUtils.sol\":335:348  uint256 ratio */\n      dup1\n        /* \"CalculateUtils.sol\":150:153  100 */\n      0x64\n        /* \"CalculateUtils.sol\":363:370  _bounts */\n      dup4\n        /* \"CalculateUtils.sol\":363:377  _bounts < RATE */\n      lt\n        /* \"CalculateUtils.sol\":359:1023  if (_bounts < RATE) {\r... */\n      iszero\n      tag_48\n      jumpi\n      pop\n        /* \"CalculateUtils.sol\":402:403  1 */\n      0x01\n        /* \"CalculateUtils.sol\":359:1023  if (_bounts < RATE) {\r... */\n      jump(tag_74)\n    tag_48:\n        /* \"CalculateUtils.sol\":150:153  100 */\n      0x64\n        /* \"CalculateUtils.sol\":425:432  _bounts */\n      dup4\n        /* \"CalculateUtils.sol\":425:440  _bounts >= RATE */\n      lt\n      iszero\n        /* \"CalculateUtils.sol\":425:464  _bounts >= RATE && _bounts < RATE * 1e1 */\n      dup1\n      iszero\n      tag_50\n      jumpi\n      pop\n        /* \"CalculateUtils.sol\":454:464  RATE * 1e1 */\n      tag_51\n        /* \"CalculateUtils.sol\":150:153  100 */\n      0x64\n        /* \"CalculateUtils.sol\":461:464  1e1 */\n      0x0a\n        /* \"CalculateUtils.sol\":454:464  RATE * 1e1 */\n      tag_52\n      jump\t// in\n    tag_51:\n        /* \"CalculateUtils.sol\":444:451  _bounts */\n      dup4\n        /* \"CalculateUtils.sol\":444:464  _bounts < RATE * 1e1 */\n      lt\n        /* \"CalculateUtils.sol\":425:464  _bounts >= RATE && _bounts < RATE * 1e1 */\n    tag_50:\n        /* \"CalculateUtils.sol\":421:1023  if (_bounts >= RATE && _bounts < RATE * 1e1) {\r... */\n      iszero\n      tag_53\n      jumpi\n      pop\n        /* \"CalculateUtils.sol\":489:492  1e1 */\n      0x0a\n        /* \"CalculateUtils.sol\":421:1023  if (_bounts >= RATE && _bounts < RATE * 1e1) {\r... */\n      jump(tag_74)\n    tag_53:\n        /* \"CalculateUtils.sol\":525:535  RATE * 1e1 */\n      tag_55\n        /* \"CalculateUtils.sol\":150:153  100 */\n      0x64\n        /* \"CalculateUtils.sol\":532:535  1e1 */\n      0x0a\n        /* \"CalculateUtils.sol\":525:535  RATE * 1e1 */\n      tag_52\n      jump\t// in\n    tag_55:\n        /* \"CalculateUtils.sol\":514:521  _bounts */\n      dup4\n        /* \"CalculateUtils.sol\":514:535  _bounts >= RATE * 1e1 */\n      lt\n      iszero\n        /* \"CalculateUtils.sol\":514:559  _bounts >= RATE * 1e1 && _bounts < RATE * 1e2 */\n      dup1\n      iszero\n      tag_56\n      jumpi\n      pop\n        /* \"CalculateUtils.sol\":549:559  RATE * 1e2 */\n      tag_57\n        /* \"CalculateUtils.sol\":150:153  100 */\n      0x64\n      dup1\n        /* \"CalculateUtils.sol\":549:559  RATE * 1e2 */\n      tag_52\n      jump\t// in\n    tag_57:\n        /* \"CalculateUtils.sol\":539:546  _bounts */\n      dup4\n        /* \"CalculateUtils.sol\":539:559  _bounts < RATE * 1e2 */\n      lt\n        /* \"CalculateUtils.sol\":514:559  _bounts >= RATE * 1e1 && _bounts < RATE * 1e2 */\n    tag_56:\n        /* \"CalculateUtils.sol\":510:1023  if (_bounts >= RATE * 1e1 && _bounts < RATE * 1e2) {\r... */\n      iszero\n      tag_58\n      jumpi\n      pop\n        /* \"CalculateUtils.sol\":584:587  1e2 */\n      0x64\n        /* \"CalculateUtils.sol\":510:1023  if (_bounts >= RATE * 1e1 && _bounts < RATE * 1e2) {\r... */\n      jump(tag_74)\n    tag_58:\n        /* \"CalculateUtils.sol\":620:630  RATE * 1e2 */\n      tag_60\n        /* \"CalculateUtils.sol\":150:153  100 */\n      0x64\n      dup1\n        /* \"CalculateUtils.sol\":620:630  RATE * 1e2 */\n      tag_52\n      jump\t// in\n    tag_60:\n        /* \"CalculateUtils.sol\":609:616  _bounts */\n      dup4\n        /* \"CalculateUtils.sol\":609:630  _bounts >= RATE * 1e2 */\n      lt\n      iszero\n        /* \"CalculateUtils.sol\":609:654  _bounts >= RATE * 1e2 && _bounts < RATE * 1e3 */\n      dup1\n      iszero\n      tag_61\n      jumpi\n      pop\n        /* \"CalculateUtils.sol\":644:654  RATE * 1e3 */\n      tag_62\n        /* \"CalculateUtils.sol\":150:153  100 */\n      0x64\n        /* \"CalculateUtils.sol\":651:654  1e3 */\n      0x03e8\n        /* \"CalculateUtils.sol\":644:654  RATE * 1e3 */\n      tag_52\n      jump\t// in\n    tag_62:\n        /* \"CalculateUtils.sol\":634:641  _bounts */\n      dup4\n        /* \"CalculateUtils.sol\":634:654  _bounts < RATE * 1e3 */\n      lt\n        /* \"CalculateUtils.sol\":609:654  _bounts >= RATE * 1e2 && _bounts < RATE * 1e3 */\n    tag_61:\n        /* \"CalculateUtils.sol\":605:1023  if (_bounts >= RATE * 1e2 && _bounts < RATE * 1e3) {\r... */\n      iszero\n      tag_63\n      jumpi\n      pop\n        /* \"CalculateUtils.sol\":679:682  1e3 */\n      0x03e8\n        /* \"CalculateUtils.sol\":605:1023  if (_bounts >= RATE * 1e2 && _bounts < RATE * 1e3) {\r... */\n      jump(tag_74)\n    tag_63:\n        /* \"CalculateUtils.sol\":715:725  RATE * 1e3 */\n      tag_65\n        /* \"CalculateUtils.sol\":150:153  100 */\n      0x64\n        /* \"CalculateUtils.sol\":722:725  1e3 */\n      0x03e8\n        /* \"CalculateUtils.sol\":715:725  RATE * 1e3 */\n      tag_52\n      jump\t// in\n    tag_65:\n        /* \"CalculateUtils.sol\":704:711  _bounts */\n      dup4\n        /* \"CalculateUtils.sol\":704:725  _bounts >= RATE * 1e3 */\n      lt\n      iszero\n        /* \"CalculateUtils.sol\":704:750  _bounts >= RATE * 1e3 && _bounts <= RATE * 1e4 */\n      dup1\n      iszero\n      tag_66\n      jumpi\n      pop\n        /* \"CalculateUtils.sol\":740:750  RATE * 1e4 */\n      tag_67\n        /* \"CalculateUtils.sol\":150:153  100 */\n      0x64\n        /* \"CalculateUtils.sol\":747:750  1e4 */\n      0x2710\n        /* \"CalculateUtils.sol\":740:750  RATE * 1e4 */\n      tag_52\n      jump\t// in\n    tag_67:\n        /* \"CalculateUtils.sol\":729:736  _bounts */\n      dup4\n        /* \"CalculateUtils.sol\":729:750  _bounts <= RATE * 1e4 */\n      gt\n      iszero\n        /* \"CalculateUtils.sol\":704:750  _bounts >= RATE * 1e3 && _bounts <= RATE * 1e4 */\n    tag_66:\n        /* \"CalculateUtils.sol\":700:1023  if (_bounts >= RATE * 1e3 && _bounts <= RATE * 1e4) {\r... */\n      iszero\n      tag_68\n      jumpi\n      pop\n        /* \"CalculateUtils.sol\":775:778  1e4 */\n      0x2710\n        /* \"CalculateUtils.sol\":700:1023  if (_bounts >= RATE * 1e3 && _bounts <= RATE * 1e4) {\r... */\n      jump(tag_74)\n    tag_68:\n        /* \"CalculateUtils.sol\":811:821  RATE * 1e4 */\n      tag_70\n        /* \"CalculateUtils.sol\":150:153  100 */\n      0x64\n        /* \"CalculateUtils.sol\":818:821  1e4 */\n      0x2710\n        /* \"CalculateUtils.sol\":811:821  RATE * 1e4 */\n      tag_52\n      jump\t// in\n    tag_70:\n        /* \"CalculateUtils.sol\":800:807  _bounts */\n      dup4\n        /* \"CalculateUtils.sol\":800:821  _bounts >= RATE * 1e4 */\n      lt\n      iszero\n        /* \"CalculateUtils.sol\":800:846  _bounts >= RATE * 1e4 && _bounts <= RATE * 1e5 */\n      dup1\n      iszero\n      tag_71\n      jumpi\n      pop\n        /* \"CalculateUtils.sol\":836:846  RATE * 1e5 */\n      tag_72\n        /* \"CalculateUtils.sol\":150:153  100 */\n      0x64\n        /* \"CalculateUtils.sol\":843:846  1e5 */\n      0x0186a0\n        /* \"CalculateUtils.sol\":836:846  RATE * 1e5 */\n      tag_52\n      jump\t// in\n    tag_72:\n        /* \"CalculateUtils.sol\":825:832  _bounts */\n      dup4\n        /* \"CalculateUtils.sol\":825:846  _bounts <= RATE * 1e5 */\n      gt\n      iszero\n        /* \"CalculateUtils.sol\":800:846  _bounts >= RATE * 1e4 && _bounts <= RATE * 1e5 */\n    tag_71:\n        /* \"CalculateUtils.sol\":796:1023  if (_bounts >= RATE * 1e4 && _bounts <= RATE * 1e5) {\r... */\n      iszero\n      tag_73\n      jumpi\n      pop\n        /* \"CalculateUtils.sol\":871:874  1e5 */\n      0x0186a0\n        /* \"CalculateUtils.sol\":796:1023  if (_bounts >= RATE * 1e4 && _bounts <= RATE * 1e5) {\r... */\n      jump(tag_74)\n    tag_73:\n        /* \"CalculateUtils.sol\":914:1011  ParameterException(\r... */\n      mload(0x40)\n      shl(0xe2, 0x347626dd)\n      dup2\n      mstore\n        /* \"#utility.yul\":654:656   */\n      0x20\n        /* \"CalculateUtils.sol\":914:1011  ParameterException(\r... */\n      0x04\n      dup3\n      add\n        /* \"#utility.yul\":636:657   */\n      mstore\n        /* \"#utility.yul\":693:695   */\n      0x2b\n        /* \"#utility.yul\":673:691   */\n      0x24\n      dup3\n      add\n        /* \"#utility.yul\":666:696   */\n      mstore\n        /* \"#utility.yul\":732:766   */\n      0x556e61626c6520746f2063616c63756c6174652c506c65617365207375626d69\n        /* \"#utility.yul\":712:730   */\n      0x44\n      dup3\n      add\n        /* \"#utility.yul\":705:767   */\n      mstore\n      shl(0xaa, 0x1d0818481c995c5d595cdd)\n        /* \"#utility.yul\":783:801   */\n      0x64\n      dup3\n      add\n        /* \"#utility.yul\":776:817   */\n      mstore\n        /* \"#utility.yul\":834:853   */\n      0x84\n      add\n        /* \"CalculateUtils.sol\":914:1011  ParameterException(\r... */\n      mload(0x40)\n      dup1\n      swap2\n      sub\n      swap1\n      revert\n        /* \"CalculateUtils.sol\":796:1023  if (_bounts >= RATE * 1e4 && _bounts <= RATE * 1e5) {\r... */\n    tag_74:\n        /* \"CalculateUtils.sol\":1040:1045  ratio */\n      swap3\n        /* \"CalculateUtils.sol\":256:1053  function punishRatio(uint256 _bounts) public pure returns (uint256) {\r... */\n      swap2\n      pop\n      pop\n      jump\t// out\n        /* \"CalculateUtils.sol\":1858:2025  function getBountyForVf(uint256 _bounty)\r... */\n    tag_20:\n        /* \"CalculateUtils.sol\":1950:1964  uint256 _money */\n      0x00\n        /* \"CalculateUtils.sol\":1991:2017  getPercentage(_bounty, 40) */\n      tag_74\n        /* \"CalculateUtils.sol\":2005:2012  _bounty */\n      dup3\n        /* \"CalculateUtils.sol\":2014:2016  40 */\n      0x28\n        /* \"CalculateUtils.sol\":1991:2004  getPercentage */\n      tag_45\n        /* \"CalculateUtils.sol\":1991:2017  getPercentage(_bounty, 40) */\n      jump\t// in\n        /* \"CalculateUtils.sol\":2643:2820  function getDeductMoney(uint256 _bounty, uint256 _deduct)\r... */\n    tag_25:\n        /* \"CalculateUtils.sol\":2749:2756  uint256 */\n      0x00\n        /* \"CalculateUtils.sol\":2781:2812  getPercentage(_bounty, _deduct) */\n      tag_80\n        /* \"CalculateUtils.sol\":2795:2802  _bounty */\n      dup4\n        /* \"CalculateUtils.sol\":2804:2811  _deduct */\n      dup4\n        /* \"CalculateUtils.sol\":2781:2794  getPercentage */\n      tag_45\n        /* \"CalculateUtils.sol\":2781:2812  getPercentage(_bounty, _deduct) */\n      jump\t// in\n    tag_80:\n        /* \"CalculateUtils.sol\":2774:2812  return getPercentage(_bounty, _deduct) */\n      swap4\n        /* \"CalculateUtils.sol\":2643:2820  function getDeductMoney(uint256 _bounty, uint256 _deduct)\r... */\n      swap3\n      pop\n      pop\n      pop\n      jump\t// out\n        /* \"CalculateUtils.sol\":2451:2606  function getPunish(uint256 _ratio, uint256 _bounty)\r... */\n    tag_29:\n        /* \"CalculateUtils.sol\":2551:2558  uint256 */\n      0x00\n        /* \"CalculateUtils.sol\":2583:2598  _bounty/ _ratio */\n      tag_80\n        /* \"CalculateUtils.sol\":2592:2598  _ratio */\n      dup4\n        /* \"CalculateUtils.sol\":2583:2590  _bounty */\n      dup4\n        /* \"CalculateUtils.sol\":2583:2598  _bounty/ _ratio */\n      tag_83\n      jump\t// in\n        /* \"CalculateUtils.sol\":2033:2203  function getBountyForAmphi(uint256 _bounty)\r... */\n    tag_33:\n        /* \"CalculateUtils.sol\":2128:2142  uint256 _money */\n      0x00\n        /* \"CalculateUtils.sol\":2169:2195  getPercentage(_bounty, 10) */\n      tag_74\n        /* \"CalculateUtils.sol\":2183:2190  _bounty */\n      dup3\n        /* \"CalculateUtils.sol\":2192:2194  10 */\n      0x0a\n        /* \"CalculateUtils.sol\":2169:2182  getPercentage */\n      tag_45\n        /* \"CalculateUtils.sol\":2169:2195  getPercentage(_bounty, 10) */\n      jump\t// in\n        /* \"CalculateUtils.sol\":1681:1850  function getBountyForTrans(uint256 _bounty)\r... */\n    tag_37:\n        /* \"CalculateUtils.sol\":1775:1789  uint256 _money */\n      0x00\n        /* \"CalculateUtils.sol\":1816:1842  getPercentage(_bounty, 60) */\n      tag_74\n        /* \"CalculateUtils.sol\":1830:1837  _bounty */\n      dup3\n        /* \"CalculateUtils.sol\":1839:1841  60 */\n      0x3c\n        /* \"CalculateUtils.sol\":1816:1829  getPercentage */\n      tag_45\n        /* \"CalculateUtils.sol\":1816:1842  getPercentage(_bounty, 60) */\n      jump\t// in\n        /* \"CalculateUtils.sol\":1344:1637  function getMatNumber(uint256 _transNumber)\r... */\n    tag_41:\n        /* \"CalculateUtils.sol\":1438:1445  uint256 */\n      0x00\n        /* \"CalculateUtils.sol\":1463:1476  uint256 _maxV */\n      dup1\n        /* \"CalculateUtils.sol\":184:185  3 */\n      0x03\n        /* \"CalculateUtils.sol\":1491:1503  _transNumber */\n      dup4\n        /* \"CalculateUtils.sol\":1491:1511  _transNumber <= VF_N */\n      gt\n        /* \"CalculateUtils.sol\":1487:1607  if (_transNumber <= VF_N) {\r... */\n      tag_89\n      jumpi\n      pop\n        /* \"CalculateUtils.sol\":1536:1537  1 */\n      0x01\n        /* \"CalculateUtils.sol\":1487:1607  if (_transNumber <= VF_N) {\r... */\n      jump(tag_74)\n    tag_89:\n        /* \"CalculateUtils.sol\":1578:1595  _transNumber/VF_N */\n      tag_80\n        /* \"CalculateUtils.sol\":184:185  3 */\n      0x03\n        /* \"CalculateUtils.sol\":1578:1590  _transNumber */\n      dup5\n        /* \"CalculateUtils.sol\":1578:1595  _transNumber/VF_N */\n      tag_83\n      jump\t// in\n        /* \"CalculateUtils.sol\":2237:2423  function getPercentage(uint256 _number, uint256 _ratio)\r... */\n    tag_45:\n        /* \"CalculateUtils.sol\":2341:2361  uint256 returnNumber */\n      0x00\n        /* \"CalculateUtils.sol\":2412:2415  100 */\n      0x64\n        /* \"CalculateUtils.sol\":2394:2409  _number* _ratio */\n      tag_93\n        /* \"CalculateUtils.sol\":2403:2409  _ratio */\n      dup4\n        /* \"CalculateUtils.sol\":2394:2401  _number */\n      dup6\n        /* \"CalculateUtils.sol\":2394:2409  _number* _ratio */\n      tag_52\n      jump\t// in\n    tag_93:\n        /* \"CalculateUtils.sol\":2394:2415  _number* _ratio / 100 */\n      tag_80\n      swap2\n      swap1\n      tag_83\n      jump\t// in\n        /* \"#utility.yul\":14:194   */\n    tag_14:\n        /* \"#utility.yul\":73:79   */\n      0x00\n        /* \"#utility.yul\":126:128   */\n      0x20\n        /* \"#utility.yul\":114:123   */\n      dup3\n        /* \"#utility.yul\":105:112   */\n      dup5\n        /* \"#utility.yul\":101:124   */\n      sub\n        /* \"#utility.yul\":97:129   */\n      slt\n        /* \"#utility.yul\":94:146   */\n      iszero\n      tag_97\n      jumpi\n        /* \"#utility.yul\":142:143   */\n      0x00\n        /* \"#utility.yul\":139:140   */\n      dup1\n        /* \"#utility.yul\":132:144   */\n      revert\n        /* \"#utility.yul\":94:146   */\n    tag_97:\n      pop\n        /* \"#utility.yul\":165:188   */\n      calldataload\n      swap2\n        /* \"#utility.yul\":14:194   */\n      swap1\n      pop\n      jump\t// out\n        /* \"#utility.yul\":199:447   */\n    tag_24:\n        /* \"#utility.yul\":267:273   */\n      0x00\n        /* \"#utility.yul\":275:281   */\n      dup1\n        /* \"#utility.yul\":328:330   */\n      0x40\n        /* \"#utility.yul\":316:325   */\n      dup4\n        /* \"#utility.yul\":307:314   */\n      dup6\n        /* \"#utility.yul\":303:326   */\n      sub\n        /* \"#utility.yul\":299:331   */\n      slt\n        /* \"#utility.yul\":296:348   */\n      iszero\n      tag_99\n      jumpi\n        /* \"#utility.yul\":344:345   */\n      0x00\n        /* \"#utility.yul\":341:342   */\n      dup1\n        /* \"#utility.yul\":334:346   */\n      revert\n        /* \"#utility.yul\":296:348   */\n    tag_99:\n      pop\n      pop\n        /* \"#utility.yul\":367:390   */\n      dup1\n      calldataload\n      swap3\n        /* \"#utility.yul\":437:439   */\n      0x20\n        /* \"#utility.yul\":422:440   */\n      swap1\n      swap2\n      add\n        /* \"#utility.yul\":409:441   */\n      calldataload\n      swap2\n      pop\n        /* \"#utility.yul\":199:447   */\n      jump\t// out\n        /* \"#utility.yul\":1046:1263   */\n    tag_83:\n        /* \"#utility.yul\":1086:1087   */\n      0x00\n        /* \"#utility.yul\":1112:1113   */\n      dup3\n        /* \"#utility.yul\":1102:1234   */\n      tag_103\n      jumpi\n        /* \"#utility.yul\":1156:1166   */\n      0x4e487b71\n        /* \"#utility.yul\":1151:1154   */\n      0xe0\n        /* \"#utility.yul\":1147:1167   */\n      shl\n        /* \"#utility.yul\":1144:1145   */\n      0x00\n        /* \"#utility.yul\":1137:1168   */\n      mstore\n        /* \"#utility.yul\":1191:1195   */\n      0x12\n        /* \"#utility.yul\":1188:1189   */\n      0x04\n        /* \"#utility.yul\":1181:1196   */\n      mstore\n        /* \"#utility.yul\":1219:1223   */\n      0x24\n        /* \"#utility.yul\":1216:1217   */\n      0x00\n        /* \"#utility.yul\":1209:1224   */\n      revert\n        /* \"#utility.yul\":1102:1234   */\n    tag_103:\n      pop\n        /* \"#utility.yul\":1248:1257   */\n      div\n      swap1\n        /* \"#utility.yul\":1046:1263   */\n      jump\t// out\n        /* \"#utility.yul\":1268:1533   */\n    tag_52:\n        /* \"#utility.yul\":1308:1315   */\n      0x00\n        /* \"#utility.yul\":1374:1375   */\n      dup2\n        /* \"#utility.yul\":1370:1371   */\n      0x00\n        /* \"#utility.yul\":1366:1372   */\n      not\n        /* \"#utility.yul\":1362:1376   */\n      div\n        /* \"#utility.yul\":1359:1360   */\n      dup4\n        /* \"#utility.yul\":1356:1377   */\n      gt\n        /* \"#utility.yul\":1351:1352   */\n      dup3\n        /* \"#utility.yul\":1344:1353   */\n      iszero\n        /* \"#utility.yul\":1337:1354   */\n      iszero\n        /* \"#utility.yul\":1333:1378   */\n      and\n        /* \"#utility.yul\":1330:1498   */\n      iszero\n      tag_105\n      jumpi\n        /* \"#utility.yul\":1420:1430   */\n      0x4e487b71\n        /* \"#utility.yul\":1415:1418   */\n      0xe0\n        /* \"#utility.yul\":1411:1431   */\n      shl\n        /* \"#utility.yul\":1408:1409   */\n      0x00\n        /* \"#utility.yul\":1401:1432   */\n      mstore\n        /* \"#utility.yul\":1455:1459   */\n      0x11\n        /* \"#utility.yul\":1452:1453   */\n      0x04\n        /* \"#utility.yul\":1445:1460   */\n      mstore\n        /* \"#utility.yul\":1483:1487   */\n      0x24\n        /* \"#utility.yul\":1480:1481   */\n      0x00\n        /* \"#utility.yul\":1473:1488   */\n      revert\n        /* \"#utility.yul\":1330:1498   */\n    tag_105:\n      pop\n        /* \"#utility.yul\":1518:1527   */\n      mul\n      swap1\n        /* \"#utility.yul\":1268:1533   */\n      jump\t// out\n\n    auxdata: 0xa264697066735822122001800bb6510249dbf8c592d58527a30fdace7407526c90ca8f7601750050072b64736f6c63430008070033\n}\n",
				"bytecode": {
					"linkReferences": {},
					"object": "608060405234801561001057600080fd5b506103e8806100206000396000f3fe608060405234801561001057600080fd5b50600436106100885760003560e01c8063a16eb4d31161005b578063a16eb4d3146100eb578063ab2acba4146100fe578063f2e6020214610111578063f74f36551461012457600080fd5b80634f6ca3ce1461008d5780638e4b0bbd146100b25780638f861ba7146100c55780639ce5c4bf146100d8575b600080fd5b6100a061009b366004610328565b610137565b60405190815260200160405180910390f35b6100a06100c0366004610328565b6102ac565b6100a06100d3366004610341565b6102b9565b6100a06100e6366004610341565b6102cc565b6100a06100f9366004610328565b6102d8565b6100a061010c366004610328565b6102e5565b6100a061011f366004610328565b6102f2565b6100a0610132366004610341565b610310565b600080606483101561014b575060016102a6565b6064831015801561016657506101636064600a610385565b83105b156101735750600a6102a6565b61017f6064600a610385565b83101580156101975750610194606480610385565b83105b156101a4575060646102a6565b6101af606480610385565b83101580156101c957506101c660646103e8610385565b83105b156101d757506103e86102a6565b6101e460646103e8610385565b83101580156101ff57506101fb6064612710610385565b8311155b1561020d57506127106102a6565b61021a6064612710610385565b831015801561023657506102326064620186a0610385565b8311155b156102455750620186a06102a6565b60405163347626dd60e21b815260206004820152602b60248201527f556e61626c6520746f2063616c63756c6174652c506c65617365207375626d6960448201526a1d0818481c995c5d595cdd60aa1b606482015260840160405180910390fd5b92915050565b60006102a6826028610310565b60006102c58383610310565b9392505050565b60006102c58383610363565b60006102a682600a610310565b60006102a682603c610310565b60008060038311610305575060016102a6565b6102c5600384610363565b6000606461031e8385610385565b6102c59190610363565b60006020828403121561033a57600080fd5b5035919050565b6000806040838503121561035457600080fd5b50508035926020909101359150565b60008261038057634e487b7160e01b600052601260045260246000fd5b500490565b60008160001904831182151516156103ad57634e487b7160e01b600052601160045260246000fd5b50029056fea264697066735822122001800bb6510249dbf8c592d58527a30fdace7407526c90ca8f7601750050072b64736f6c63430008070033",
					"opcodes": "PUSH1 0x80 PUSH1 0x40 MSTORE CALLVALUE DUP1 ISZERO PUSH2 0x10 JUMPI PUSH1 0x0 DUP1 REVERT JUMPDEST POP PUSH2 0x3E8 DUP1 PUSH2 0x20 PUSH1 0x0 CODECOPY PUSH1 0x0 RETURN INVALID PUSH1 0x80 PUSH1 0x40 MSTORE CALLVALUE DUP1 ISZERO PUSH2 0x10 JUMPI PUSH1 0x0 DUP1 REVERT JUMPDEST POP PUSH1 0x4 CALLDATASIZE LT PUSH2 0x88 JUMPI PUSH1 0x0 CALLDATALOAD PUSH1 0xE0 SHR DUP1 PUSH4 0xA16EB4D3 GT PUSH2 0x5B JUMPI DUP1 PUSH4 0xA16EB4D3 EQ PUSH2 0xEB JUMPI DUP1 PUSH4 0xAB2ACBA4 EQ PUSH2 0xFE JUMPI DUP1 PUSH4 0xF2E60202 EQ PUSH2 0x111 JUMPI DUP1 PUSH4 0xF74F3655 EQ PUSH2 0x124 JUMPI PUSH1 0x0 DUP1 REVERT JUMPDEST DUP1 PUSH4 0x4F6CA3CE EQ PUSH2 0x8D JUMPI DUP1 PUSH4 0x8E4B0BBD EQ PUSH2 0xB2 JUMPI DUP1 PUSH4 0x8F861BA7 EQ PUSH2 0xC5 JUMPI DUP1 PUSH4 0x9CE5C4BF EQ PUSH2 0xD8 JUMPI JUMPDEST PUSH1 0x0 DUP1 REVERT JUMPDEST PUSH2 0xA0 PUSH2 0x9B CALLDATASIZE PUSH1 0x4 PUSH2 0x328 JUMP JUMPDEST PUSH2 0x137 JUMP JUMPDEST PUSH1 0x40 MLOAD SWAP1 DUP2 MSTORE PUSH1 0x20 ADD PUSH1 0x40 MLOAD DUP1 SWAP2 SUB SWAP1 RETURN JUMPDEST PUSH2 0xA0 PUSH2 0xC0 CALLDATASIZE PUSH1 0x4 PUSH2 0x328 JUMP JUMPDEST PUSH2 0x2AC JUMP JUMPDEST PUSH2 0xA0 PUSH2 0xD3 CALLDATASIZE PUSH1 0x4 PUSH2 0x341 JUMP JUMPDEST PUSH2 0x2B9 JUMP JUMPDEST PUSH2 0xA0 PUSH2 0xE6 CALLDATASIZE PUSH1 0x4 PUSH2 0x341 JUMP JUMPDEST PUSH2 0x2CC JUMP JUMPDEST PUSH2 0xA0 PUSH2 0xF9 CALLDATASIZE PUSH1 0x4 PUSH2 0x328 JUMP JUMPDEST PUSH2 0x2D8 JUMP JUMPDEST PUSH2 0xA0 PUSH2 0x10C CALLDATASIZE PUSH1 0x4 PUSH2 0x328 JUMP JUMPDEST PUSH2 0x2E5 JUMP JUMPDEST PUSH2 0xA0 PUSH2 0x11F CALLDATASIZE PUSH1 0x4 PUSH2 0x328 JUMP JUMPDEST PUSH2 0x2F2 JUMP JUMPDEST PUSH2 0xA0 PUSH2 0x132 CALLDATASIZE PUSH1 0x4 PUSH2 0x341 JUMP JUMPDEST PUSH2 0x310 JUMP JUMPDEST PUSH1 0x0 DUP1 PUSH1 0x64 DUP4 LT ISZERO PUSH2 0x14B JUMPI POP PUSH1 0x1 PUSH2 0x2A6 JUMP JUMPDEST PUSH1 0x64 DUP4 LT ISZERO DUP1 ISZERO PUSH2 0x166 JUMPI POP PUSH2 0x163 PUSH1 0x64 PUSH1 0xA PUSH2 0x385 JUMP JUMPDEST DUP4 LT JUMPDEST ISZERO PUSH2 0x173 JUMPI POP PUSH1 0xA PUSH2 0x2A6 JUMP JUMPDEST PUSH2 0x17F PUSH1 0x64 PUSH1 0xA PUSH2 0x385 JUMP JUMPDEST DUP4 LT ISZERO DUP1 ISZERO PUSH2 0x197 JUMPI POP PUSH2 0x194 PUSH1 0x64 DUP1 PUSH2 0x385 JUMP JUMPDEST DUP4 LT JUMPDEST ISZERO PUSH2 0x1A4 JUMPI POP PUSH1 0x64 PUSH2 0x2A6 JUMP JUMPDEST PUSH2 0x1AF PUSH1 0x64 DUP1 PUSH2 0x385 JUMP JUMPDEST DUP4 LT ISZERO DUP1 ISZERO PUSH2 0x1C9 JUMPI POP PUSH2 0x1C6 PUSH1 0x64 PUSH2 0x3E8 PUSH2 0x385 JUMP JUMPDEST DUP4 LT JUMPDEST ISZERO PUSH2 0x1D7 JUMPI POP PUSH2 0x3E8 PUSH2 0x2A6 JUMP JUMPDEST PUSH2 0x1E4 PUSH1 0x64 PUSH2 0x3E8 PUSH2 0x385 JUMP JUMPDEST DUP4 LT ISZERO DUP1 ISZERO PUSH2 0x1FF JUMPI POP PUSH2 0x1FB PUSH1 0x64 PUSH2 0x2710 PUSH2 0x385 JUMP JUMPDEST DUP4 GT ISZERO JUMPDEST ISZERO PUSH2 0x20D JUMPI POP PUSH2 0x2710 PUSH2 0x2A6 JUMP JUMPDEST PUSH2 0x21A PUSH1 0x64 PUSH2 0x2710 PUSH2 0x385 JUMP JUMPDEST DUP4 LT ISZERO DUP1 ISZERO PUSH2 0x236 JUMPI POP PUSH2 0x232 PUSH1 0x64 PUSH3 0x186A0 PUSH2 0x385 JUMP JUMPDEST DUP4 GT ISZERO JUMPDEST ISZERO PUSH2 0x245 JUMPI POP PUSH3 0x186A0 PUSH2 0x2A6 JUMP JUMPDEST PUSH1 0x40 MLOAD PUSH4 0x347626DD PUSH1 0xE2 SHL DUP2 MSTORE PUSH1 0x20 PUSH1 0x4 DUP3 ADD MSTORE PUSH1 0x2B PUSH1 0x24 DUP3 ADD MSTORE PUSH32 0x556E61626C6520746F2063616C63756C6174652C506C65617365207375626D69 PUSH1 0x44 DUP3 ADD MSTORE PUSH11 0x1D0818481C995C5D595CDD PUSH1 0xAA SHL PUSH1 0x64 DUP3 ADD MSTORE PUSH1 0x84 ADD PUSH1 0x40 MLOAD DUP1 SWAP2 SUB SWAP1 REVERT JUMPDEST SWAP3 SWAP2 POP POP JUMP JUMPDEST PUSH1 0x0 PUSH2 0x2A6 DUP3 PUSH1 0x28 PUSH2 0x310 JUMP JUMPDEST PUSH1 0x0 PUSH2 0x2C5 DUP4 DUP4 PUSH2 0x310 JUMP JUMPDEST SWAP4 SWAP3 POP POP POP JUMP JUMPDEST PUSH1 0x0 PUSH2 0x2C5 DUP4 DUP4 PUSH2 0x363 JUMP JUMPDEST PUSH1 0x0 PUSH2 0x2A6 DUP3 PUSH1 0xA PUSH2 0x310 JUMP JUMPDEST PUSH1 0x0 PUSH2 0x2A6 DUP3 PUSH1 0x3C PUSH2 0x310 JUMP JUMPDEST PUSH1 0x0 DUP1 PUSH1 0x3 DUP4 GT PUSH2 0x305 JUMPI POP PUSH1 0x1 PUSH2 0x2A6 JUMP JUMPDEST PUSH2 0x2C5 PUSH1 0x3 DUP5 PUSH2 0x363 JUMP JUMPDEST PUSH1 0x0 PUSH1 0x64 PUSH2 0x31E DUP4 DUP6 PUSH2 0x385 JUMP JUMPDEST PUSH2 0x2C5 SWAP2 SWAP1 PUSH2 0x363 JUMP JUMPDEST PUSH1 0x0 PUSH1 0x20 DUP3 DUP5 SUB SLT ISZERO PUSH2 0x33A JUMPI PUSH1 0x0 DUP1 REVERT JUMPDEST POP CALLDATALOAD SWAP2 SWAP1 POP JUMP JUMPDEST PUSH1 0x0 DUP1 PUSH1 0x40 DUP4 DUP6 SUB SLT ISZERO PUSH2 0x354 JUMPI PUSH1 0x0 DUP1 REVERT JUMPDEST POP POP DUP1 CALLDATALOAD SWAP3 PUSH1 0x20 SWAP1 SWAP2 ADD CALLDATALOAD SWAP2 POP JUMP JUMPDEST PUSH1 0x0 DUP3 PUSH2 0x380 JUMPI PUSH4 0x4E487B71 PUSH1 0xE0 SHL PUSH1 0x0 MSTORE PUSH1 0x12 PUSH1 0x4 MSTORE PUSH1 0x24 PUSH1 0x0 REVERT JUMPDEST POP DIV SWAP1 JUMP JUMPDEST PUSH1 0x0 DUP2 PUSH1 0x0 NOT DIV DUP4 GT DUP3 ISZERO ISZERO AND ISZERO PUSH2 0x3AD JUMPI PUSH4 0x4E487B71 PUSH1 0xE0 SHL PUSH1 0x0 MSTORE PUSH1 0x11 PUSH1 0x4 MSTORE PUSH1 0x24 PUSH1 0x0 REVERT JUMPDEST POP MUL SWAP1 JUMP INVALID LOG2 PUSH5 0x6970667358 0x22 SLT KECCAK256 ADD DUP1 SIGNEXTEND 0xB6 MLOAD MUL 0x49 0xDB 0xF8 0xC5 SWAP3 0xD5 DUP6 0x27 LOG3 0xF 0xDA 0xCE PUSH21 0x7526C90CA8F7601750050072B64736F6C63430008 SMOD STOP CALLER "
				},
				"gasEstimates": {
					"creation": {
						"codeDepositCost": "200000",
						"executionCost": "245",
						"totalCost": "200245"
					},
					"external": {
						"getBountyForAmphi(uint256)": "479",
						"getBountyForTrans(uint256)": "501",
						"getBountyForVf(uint256)": "502",
						"getDeductMoney(uint256,uint256)": "infinite",
						"getMatNumber(uint256)": "411",
						"getPercentage(uint256,uint256)": "525",
						"getPunish(uint256,uint256)": "431",
						"punishRatio(uint256)": "infinite"
					}
				},
				"methodIdentifiers": {
					"getBountyForAmphi(uint256)": "a16eb4d3",
					"getBountyForTrans(uint256)": "ab2acba4",
					"getBountyForVf(uint256)": "8e4b0bbd",
					"getDeductMoney(uint256,uint256)": "8f861ba7",
					"getMatNumber(uint256)": "f2e60202",
					"getPercentage(uint256,uint256)": "f74f3655",
					"getPunish(uint256,uint256)": "9ce5c4bf",
					"punishRatio(uint256)": "4f6ca3ce"
				}
			},
			"storageLayout": {
				"storage": [],
				"types": null
			},
			"userdoc": {
				"kind": "user",
				"methods": {},
				"version": 1
			}
		}
	}
}