{
	"data": {
		"bytecode": {
			"linkReferences": {},
			"object": "61041c61003a600b82828239805160001a60731461002d57634e487b7160e01b600052600060045260246000fd5b30600052607381538281f3fe73000000000000000000000000000000000000000030146080604052600436106100925760003560e01c8063a16eb4d311610065578063a16eb4d3146100f5578063ab2acba414610108578063f2e602021461011b578063f74f36551461012e57600080fd5b80634f6ca3ce146100975780638e4b0bbd146100bc5780638f861ba7146100cf5780639ce5c4bf146100e2575b600080fd5b6100aa6100a536600461035c565b610141565b60405190815260200160405180910390f35b6100aa6100ca36600461035c565b6102c8565b6100aa6100dd366004610375565b6102d5565b6100aa6100f0366004610375565b6102e8565b6100aa61010336600461035c565b6102f4565b6100aa61011636600461035c565b610301565b6100aa61012936600461035c565b61030e565b6100aa61013c366004610375565b61032c565b6000806064831015610155575060016102c2565b60648310158015610170575061016d6064600a6103b9565b83105b1561017d5750600a6102c2565b6101896064600a6103b9565b83101580156101a1575061019e6064806103b9565b83105b156101ae575060646102c2565b6101b96064806103b9565b83101580156101d357506101d060646103e86103b9565b83105b156101e157506103e86102c2565b6101ee60646103e86103b9565b8310158015610209575061020560646127106103b9565b8311155b1561021757506127106102c2565b61022460646127106103b9565b8310158015610240575061023c6064620186a06103b9565b8311155b1561024f5750620186a06102c2565b60405163347626dd60e21b815260206004820152602b60248201527f556e61626c6520746f2063616c63756c6174652c506c65617365207375626d6960448201527f7420612072657175657374000000000000000000000000000000000000000000606482015260840160405180910390fd5b92915050565b60006102c282602861032c565b60006102e1838361032c565b9392505050565b60006102e18284610344565b60006102c282600a61032c565b60006102c282603c61032c565b60008060038311610321575060016102c2565b6102e1836003610344565b6000606461033a8484610350565b6102e19190610397565b60006102e18284610397565b60006102e182846103b9565b60006020828403121561036e57600080fd5b5035919050565b6000806040838503121561038857600080fd5b50508035926020909101359150565b6000826103b457634e487b7160e01b600052601260045260246000fd5b500490565b60008160001904831182151516156103e157634e487b7160e01b600052601160045260246000fd5b50029056fea2646970667358221220617ed0a4f402bd6f55150f4111c07523c3476ebbf61e288996a5ad8300d8588564736f6c63430008070033",
			"opcodes": "PUSH2 0x41C PUSH2 0x3A PUSH1 0xB DUP3 DUP3 DUP3 CODECOPY DUP1 MLOAD PUSH1 0x0 BYTE PUSH1 0x73 EQ PUSH2 0x2D JUMPI PUSH4 0x4E487B71 PUSH1 0xE0 SHL PUSH1 0x0 MSTORE PUSH1 0x0 PUSH1 0x4 MSTORE PUSH1 0x24 PUSH1 0x0 REVERT JUMPDEST ADDRESS PUSH1 0x0 MSTORE PUSH1 0x73 DUP2 MSTORE8 DUP3 DUP2 RETURN INVALID PUSH20 0x0 ADDRESS EQ PUSH1 0x80 PUSH1 0x40 MSTORE PUSH1 0x4 CALLDATASIZE LT PUSH2 0x92 JUMPI PUSH1 0x0 CALLDATALOAD PUSH1 0xE0 SHR DUP1 PUSH4 0xA16EB4D3 GT PUSH2 0x65 JUMPI DUP1 PUSH4 0xA16EB4D3 EQ PUSH2 0xF5 JUMPI DUP1 PUSH4 0xAB2ACBA4 EQ PUSH2 0x108 JUMPI DUP1 PUSH4 0xF2E60202 EQ PUSH2 0x11B JUMPI DUP1 PUSH4 0xF74F3655 EQ PUSH2 0x12E JUMPI PUSH1 0x0 DUP1 REVERT JUMPDEST DUP1 PUSH4 0x4F6CA3CE EQ PUSH2 0x97 JUMPI DUP1 PUSH4 0x8E4B0BBD EQ PUSH2 0xBC JUMPI DUP1 PUSH4 0x8F861BA7 EQ PUSH2 0xCF JUMPI DUP1 PUSH4 0x9CE5C4BF EQ PUSH2 0xE2 JUMPI JUMPDEST PUSH1 0x0 DUP1 REVERT JUMPDEST PUSH2 0xAA PUSH2 0xA5 CALLDATASIZE PUSH1 0x4 PUSH2 0x35C JUMP JUMPDEST PUSH2 0x141 JUMP JUMPDEST PUSH1 0x40 MLOAD SWAP1 DUP2 MSTORE PUSH1 0x20 ADD PUSH1 0x40 MLOAD DUP1 SWAP2 SUB SWAP1 RETURN JUMPDEST PUSH2 0xAA PUSH2 0xCA CALLDATASIZE PUSH1 0x4 PUSH2 0x35C JUMP JUMPDEST PUSH2 0x2C8 JUMP JUMPDEST PUSH2 0xAA PUSH2 0xDD CALLDATASIZE PUSH1 0x4 PUSH2 0x375 JUMP JUMPDEST PUSH2 0x2D5 JUMP JUMPDEST PUSH2 0xAA PUSH2 0xF0 CALLDATASIZE PUSH1 0x4 PUSH2 0x375 JUMP JUMPDEST PUSH2 0x2E8 JUMP JUMPDEST PUSH2 0xAA PUSH2 0x103 CALLDATASIZE PUSH1 0x4 PUSH2 0x35C JUMP JUMPDEST PUSH2 0x2F4 JUMP JUMPDEST PUSH2 0xAA PUSH2 0x116 CALLDATASIZE PUSH1 0x4 PUSH2 0x35C JUMP JUMPDEST PUSH2 0x301 JUMP JUMPDEST PUSH2 0xAA PUSH2 0x129 CALLDATASIZE PUSH1 0x4 PUSH2 0x35C JUMP JUMPDEST PUSH2 0x30E JUMP JUMPDEST PUSH2 0xAA PUSH2 0x13C CALLDATASIZE PUSH1 0x4 PUSH2 0x375 JUMP JUMPDEST PUSH2 0x32C JUMP JUMPDEST PUSH1 0x0 DUP1 PUSH1 0x64 DUP4 LT ISZERO PUSH2 0x155 JUMPI POP PUSH1 0x1 PUSH2 0x2C2 JUMP JUMPDEST PUSH1 0x64 DUP4 LT ISZERO DUP1 ISZERO PUSH2 0x170 JUMPI POP PUSH2 0x16D PUSH1 0x64 PUSH1 0xA PUSH2 0x3B9 JUMP JUMPDEST DUP4 LT JUMPDEST ISZERO PUSH2 0x17D JUMPI POP PUSH1 0xA PUSH2 0x2C2 JUMP JUMPDEST PUSH2 0x189 PUSH1 0x64 PUSH1 0xA PUSH2 0x3B9 JUMP JUMPDEST DUP4 LT ISZERO DUP1 ISZERO PUSH2 0x1A1 JUMPI POP PUSH2 0x19E PUSH1 0x64 DUP1 PUSH2 0x3B9 JUMP JUMPDEST DUP4 LT JUMPDEST ISZERO PUSH2 0x1AE JUMPI POP PUSH1 0x64 PUSH2 0x2C2 JUMP JUMPDEST PUSH2 0x1B9 PUSH1 0x64 DUP1 PUSH2 0x3B9 JUMP JUMPDEST DUP4 LT ISZERO DUP1 ISZERO PUSH2 0x1D3 JUMPI POP PUSH2 0x1D0 PUSH1 0x64 PUSH2 0x3E8 PUSH2 0x3B9 JUMP JUMPDEST DUP4 LT JUMPDEST ISZERO PUSH2 0x1E1 JUMPI POP PUSH2 0x3E8 PUSH2 0x2C2 JUMP JUMPDEST PUSH2 0x1EE PUSH1 0x64 PUSH2 0x3E8 PUSH2 0x3B9 JUMP JUMPDEST DUP4 LT ISZERO DUP1 ISZERO PUSH2 0x209 JUMPI POP PUSH2 0x205 PUSH1 0x64 PUSH2 0x2710 PUSH2 0x3B9 JUMP JUMPDEST DUP4 GT ISZERO JUMPDEST ISZERO PUSH2 0x217 JUMPI POP PUSH2 0x2710 PUSH2 0x2C2 JUMP JUMPDEST PUSH2 0x224 PUSH1 0x64 PUSH2 0x2710 PUSH2 0x3B9 JUMP JUMPDEST DUP4 LT ISZERO DUP1 ISZERO PUSH2 0x240 JUMPI POP PUSH2 0x23C PUSH1 0x64 PUSH3 0x186A0 PUSH2 0x3B9 JUMP JUMPDEST DUP4 GT ISZERO JUMPDEST ISZERO PUSH2 0x24F JUMPI POP PUSH3 0x186A0 PUSH2 0x2C2 JUMP JUMPDEST PUSH1 0x40 MLOAD PUSH4 0x347626DD PUSH1 0xE2 SHL DUP2 MSTORE PUSH1 0x20 PUSH1 0x4 DUP3 ADD MSTORE PUSH1 0x2B PUSH1 0x24 DUP3 ADD MSTORE PUSH32 0x556E61626C6520746F2063616C63756C6174652C506C65617365207375626D69 PUSH1 0x44 DUP3 ADD MSTORE PUSH32 0x7420612072657175657374000000000000000000000000000000000000000000 PUSH1 0x64 DUP3 ADD MSTORE PUSH1 0x84 ADD PUSH1 0x40 MLOAD DUP1 SWAP2 SUB SWAP1 REVERT JUMPDEST SWAP3 SWAP2 POP POP JUMP JUMPDEST PUSH1 0x0 PUSH2 0x2C2 DUP3 PUSH1 0x28 PUSH2 0x32C JUMP JUMPDEST PUSH1 0x0 PUSH2 0x2E1 DUP4 DUP4 PUSH2 0x32C JUMP JUMPDEST SWAP4 SWAP3 POP POP POP JUMP JUMPDEST PUSH1 0x0 PUSH2 0x2E1 DUP3 DUP5 PUSH2 0x344 JUMP JUMPDEST PUSH1 0x0 PUSH2 0x2C2 DUP3 PUSH1 0xA PUSH2 0x32C JUMP JUMPDEST PUSH1 0x0 PUSH2 0x2C2 DUP3 PUSH1 0x3C PUSH2 0x32C JUMP JUMPDEST PUSH1 0x0 DUP1 PUSH1 0x3 DUP4 GT PUSH2 0x321 JUMPI POP PUSH1 0x1 PUSH2 0x2C2 JUMP JUMPDEST PUSH2 0x2E1 DUP4 PUSH1 0x3 PUSH2 0x344 JUMP JUMPDEST PUSH1 0x0 PUSH1 0x64 PUSH2 0x33A DUP5 DUP5 PUSH2 0x350 JUMP JUMPDEST PUSH2 0x2E1 SWAP2 SWAP1 PUSH2 0x397 JUMP JUMPDEST PUSH1 0x0 PUSH2 0x2E1 DUP3 DUP5 PUSH2 0x397 JUMP JUMPDEST PUSH1 0x0 PUSH2 0x2E1 DUP3 DUP5 PUSH2 0x3B9 JUMP JUMPDEST PUSH1 0x0 PUSH1 0x20 DUP3 DUP5 SUB SLT ISZERO PUSH2 0x36E JUMPI PUSH1 0x0 DUP1 REVERT JUMPDEST POP CALLDATALOAD SWAP2 SWAP1 POP JUMP JUMPDEST PUSH1 0x0 DUP1 PUSH1 0x40 DUP4 DUP6 SUB SLT ISZERO PUSH2 0x388 JUMPI PUSH1 0x0 DUP1 REVERT JUMPDEST POP POP DUP1 CALLDATALOAD SWAP3 PUSH1 0x20 SWAP1 SWAP2 ADD CALLDATALOAD SWAP2 POP JUMP JUMPDEST PUSH1 0x0 DUP3 PUSH2 0x3B4 JUMPI PUSH4 0x4E487B71 PUSH1 0xE0 SHL PUSH1 0x0 MSTORE PUSH1 0x12 PUSH1 0x4 MSTORE PUSH1 0x24 PUSH1 0x0 REVERT JUMPDEST POP DIV SWAP1 JUMP JUMPDEST PUSH1 0x0 DUP2 PUSH1 0x0 NOT DIV DUP4 GT DUP3 ISZERO ISZERO AND ISZERO PUSH2 0x3E1 JUMPI PUSH4 0x4E487B71 PUSH1 0xE0 SHL PUSH1 0x0 MSTORE PUSH1 0x11 PUSH1 0x4 MSTORE PUSH1 0x24 PUSH1 0x0 REVERT JUMPDEST POP MUL SWAP1 JUMP INVALID LOG2 PUSH5 0x6970667358 0x22 SLT KECCAK256 PUSH2 0x7ED0 LOG4 DELEGATECALL MUL 0xBD PUSH16 0x55150F4111C07523C3476EBBF61E2889 SWAP7 0xA5 0xAD DUP4 STOP 0xD8 PC DUP6 PUSH5 0x736F6C6343 STOP ADDMOD SMOD STOP CALLER "
		},
		"gasEstimates": {
			"creation": {
				"codeDepositCost": "210400",
				"executionCost": "285",
				"totalCost": "210685"
			},
			"external": {
				"getBountyForAmphi(uint256)": "infinite",
				"getBountyForTrans(uint256)": "infinite",
				"getBountyForVf(uint256)": "infinite",
				"getDeductMoney(uint256,uint256)": "infinite",
				"getMatNumber(uint256)": "infinite",
				"getPercentage(uint256,uint256)": "infinite",
				"getPunish(uint256,uint256)": "infinite",
				"punishRatio(uint256)": "infinite"
			}
		},
		"methodIdentifiers": {
			"getBountyForAmphi(uint256)": "a16eb4d3",
			"getBountyForTrans(uint256)": "ab2acba4",
			"getBountyForVf(uint256)": "8e4b0bbd",
			"getDeductMoney(uint256,uint256)": "8f861ba7",
			"getMatNumber(uint256)": "f2e60202",
			"getPercentage(uint256,uint256)": "f74f3655",
			"getPunish(uint256,uint256)": "9ce5c4bf",
			"punishRatio(uint256)": "4f6ca3ce"
		}
	},
	"abi": [
		{
			"inputs": [
				{
					"internalType": "string",
					"name": "",
					"type": "string"
				}
			],
			"name": "ParameterException",
			"type": "error"
		},
		{
			"inputs": [
				{
					"internalType": "uint256",
					"name": "_bounty",
					"type": "uint256"
				}
			],
			"name": "getBountyForAmphi",
			"outputs": [
				{
					"internalType": "uint256",
					"name": "_money",
					"type": "uint256"
				}
			],
			"stateMutability": "pure",
			"type": "function"
		},
		{
			"inputs": [
				{
					"internalType": "uint256",
					"name": "_bounty",
					"type": "uint256"
				}
			],
			"name": "getBountyForTrans",
			"outputs": [
				{
					"internalType": "uint256",
					"name": "_money",
					"type": "uint256"
				}
			],
			"stateMutability": "pure",
			"type": "function"
		},
		{
			"inputs": [
				{
					"internalType": "uint256",
					"name": "_bounty",
					"type": "uint256"
				}
			],
			"name": "getBountyForVf",
			"outputs": [
				{
					"internalType": "uint256",
					"name": "_money",
					"type": "uint256"
				}
			],
			"stateMutability": "pure",
			"type": "function"
		},
		{
			"inputs": [
				{
					"internalType": "uint256",
					"name": "_bounty",
					"type": "uint256"
				},
				{
					"internalType": "uint256",
					"name": "_deduct",
					"type": "uint256"
				}
			],
			"name": "getDeductMoney",
			"outputs": [
				{
					"internalType": "uint256",
					"name": "",
					"type": "uint256"
				}
			],
			"stateMutability": "pure",
			"type": "function"
		},
		{
			"inputs": [
				{
					"internalType": "uint256",
					"name": "_transNumber",
					"type": "uint256"
				}
			],
			"name": "getMatNumber",
			"outputs": [
				{
					"internalType": "uint256",
					"name": "",
					"type": "uint256"
				}
			],
			"stateMutability": "pure",
			"type": "function"
		},
		{
			"inputs": [
				{
					"internalType": "uint256",
					"name": "_number",
					"type": "uint256"
				},
				{
					"internalType": "uint256",
					"name": "_ratio",
					"type": "uint256"
				}
			],
			"name": "getPercentage",
			"outputs": [
				{
					"internalType": "uint256",
					"name": "returnNumber",
					"type": "uint256"
				}
			],
			"stateMutability": "pure",
			"type": "function"
		},
		{
			"inputs": [
				{
					"internalType": "uint256",
					"name": "_ratio",
					"type": "uint256"
				},
				{
					"internalType": "uint256",
					"name": "_bounty",
					"type": "uint256"
				}
			],
			"name": "getPunish",
			"outputs": [
				{
					"internalType": "uint256",
					"name": "",
					"type": "uint256"
				}
			],
			"stateMutability": "pure",
			"type": "function"
		},
		{
			"inputs": [
				{
					"internalType": "uint256",
					"name": "_bounts",
					"type": "uint256"
				}
			],
			"name": "punishRatio",
			"outputs": [
				{
					"internalType": "uint256",
					"name": "",
					"type": "uint256"
				}
			],
			"stateMutability": "pure",
			"type": "function"
		}
	]
}