{
  "contractName": "Marketplace",
  "abi": [
    {
      "inputs": [
        {
          "internalType": "address payable",
          "name": "paymentAddress",
          "type": "address"
        },
        {
          "internalType": "address",
          "name": "taskPoolAddress",
          "type": "address"
        },
        {
          "internalType": "address",
          "name": "workerPoolAddress",
          "type": "address"
        }
      ],
      "stateMutability": "nonpayable",
      "type": "constructor"
    },
    {
      "anonymous": false,
      "inputs": [
        {
          "indexed": false,
          "internalType": "uint256",
          "name": "orderId",
          "type": "uint256"
        },
        {
          "indexed": false,
          "internalType": "uint256",
          "name": "paymentAmount",
          "type": "uint256"
        }
      ],
      "name": "ConfirmOrder",
      "type": "event"
    },
    {
      "anonymous": false,
      "inputs": [
        {
          "indexed": false,
          "internalType": "string",
          "name": "message",
          "type": "string"
        }
      ],
      "name": "Log",
      "type": "event"
    },
    {
      "anonymous": false,
      "inputs": [
        {
          "indexed": false,
          "internalType": "bool",
          "name": "LogBool",
          "type": "bool"
        }
      ],
      "name": "LogBool",
      "type": "event"
    },
    {
      "anonymous": false,
      "inputs": [
        {
          "indexed": false,
          "internalType": "address",
          "name": "adr",
          "type": "address"
        },
        {
          "indexed": false,
          "internalType": "address",
          "name": "adr2",
          "type": "address"
        }
      ],
      "name": "Logad",
      "type": "event"
    },
    {
      "anonymous": false,
      "inputs": [
        {
          "indexed": false,
          "internalType": "string",
          "name": "message",
          "type": "string"
        },
        {
          "indexed": false,
          "internalType": "uint256",
          "name": "orderId",
          "type": "uint256"
        }
      ],
      "name": "OrderCreated",
      "type": "event"
    },
    {
      "anonymous": false,
      "inputs": [
        {
          "indexed": true,
          "internalType": "uint256",
          "name": "taskId",
          "type": "uint256"
        },
        {
          "indexed": true,
          "internalType": "address",
          "name": "worker",
          "type": "address"
        }
      ],
      "name": "TaskCompleted",
      "type": "event"
    },
    {
      "inputs": [
        {
          "internalType": "uint256",
          "name": "",
          "type": "uint256"
        }
      ],
      "name": "orders",
      "outputs": [
        {
          "internalType": "contract Order",
          "name": "",
          "type": "address"
        }
      ],
      "stateMutability": "view",
      "type": "function"
    },
    {
      "inputs": [
        {
          "internalType": "address",
          "name": "",
          "type": "address"
        },
        {
          "internalType": "uint256",
          "name": "",
          "type": "uint256"
        }
      ],
      "name": "userOrders",
      "outputs": [
        {
          "internalType": "uint256",
          "name": "",
          "type": "uint256"
        }
      ],
      "stateMutability": "view",
      "type": "function"
    },
    {
      "inputs": [
        {
          "internalType": "address",
          "name": "",
          "type": "address"
        }
      ],
      "name": "workerLoad",
      "outputs": [
        {
          "internalType": "uint256",
          "name": "",
          "type": "uint256"
        }
      ],
      "stateMutability": "view",
      "type": "function"
    },
    {
      "inputs": [
        {
          "internalType": "address",
          "name": "worker",
          "type": "address"
        },
        {
          "internalType": "uint256",
          "name": "_computingPower",
          "type": "uint256"
        }
      ],
      "name": "addWorker",
      "outputs": [],
      "stateMutability": "nonpayable",
      "type": "function"
    },
    {
      "inputs": [
        {
          "internalType": "address",
          "name": "worker",
          "type": "address"
        }
      ],
      "name": "removeWorker",
      "outputs": [],
      "stateMutability": "nonpayable",
      "type": "function"
    },
    {
      "inputs": [],
      "name": "getWorkerList",
      "outputs": [
        {
          "internalType": "address[]",
          "name": "",
          "type": "address[]"
        }
      ],
      "stateMutability": "view",
      "type": "function"
    },
    {
      "inputs": [
        {
          "internalType": "address",
          "name": "worker",
          "type": "address"
        }
      ],
      "name": "getWorkerInfo",
      "outputs": [
        {
          "components": [
            {
              "internalType": "uint256",
              "name": "workerId",
              "type": "uint256"
            },
            {
              "internalType": "uint256",
              "name": "computingPower",
              "type": "uint256"
            },
            {
              "internalType": "bool",
              "name": "isBusy",
              "type": "bool"
            },
            {
              "internalType": "bool",
              "name": "isActivate",
              "type": "bool"
            },
            {
              "internalType": "uint256",
              "name": "taskId",
              "type": "uint256"
            }
          ],
          "internalType": "struct WorkerPool.Worker",
          "name": "",
          "type": "tuple"
        }
      ],
      "stateMutability": "view",
      "type": "function"
    },
    {
      "inputs": [
        {
          "internalType": "uint256",
          "name": "taskId",
          "type": "uint256"
        }
      ],
      "name": "getTask",
      "outputs": [
        {
          "components": [
            {
              "internalType": "uint256",
              "name": "id",
              "type": "uint256"
            },
            {
              "internalType": "uint256",
              "name": "orderId",
              "type": "uint256"
            },
            {
              "internalType": "enum SharedStructs.TaskType",
              "name": "taskType",
              "type": "uint8"
            },
            {
              "internalType": "enum SharedStructs.TaskStatus",
              "name": "status",
              "type": "uint8"
            },
            {
              "internalType": "string",
              "name": "folderUrl",
              "type": "string"
            },
            {
              "internalType": "uint256",
              "name": "requiredPower",
              "type": "uint256"
            },
            {
              "internalType": "address",
              "name": "creator",
              "type": "address"
            },
            {
              "internalType": "uint256",
              "name": "workerId",
              "type": "uint256"
            },
            {
              "internalType": "uint256",
              "name": "expectWorkerId",
              "type": "uint256"
            },
            {
              "internalType": "uint256",
              "name": "orderLevel",
              "type": "uint256"
            }
          ],
          "internalType": "struct SharedStructs.TaskInfo",
          "name": "",
          "type": "tuple"
        }
      ],
      "stateMutability": "view",
      "type": "function"
    },
    {
      "inputs": [
        {
          "internalType": "string",
          "name": "folderUrl",
          "type": "string"
        },
        {
          "internalType": "uint256",
          "name": "requiredPower",
          "type": "uint256"
        },
        {
          "internalType": "uint256",
          "name": "paymentAmount",
          "type": "uint256"
        },
        {
          "internalType": "uint256",
          "name": "orderLevel",
          "type": "uint256"
        }
      ],
      "name": "createOrderPreview",
      "outputs": [
        {
          "internalType": "uint256",
          "name": "",
          "type": "uint256"
        }
      ],
      "stateMutability": "payable",
      "type": "function"
    },
    {
      "inputs": [
        {
          "internalType": "uint256",
          "name": "paymentAmount",
          "type": "uint256"
        }
      ],
      "name": "calculateCost",
      "outputs": [],
      "stateMutability": "payable",
      "type": "function"
    },
    {
      "inputs": [
        {
          "internalType": "address",
          "name": "user",
          "type": "address"
        }
      ],
      "name": "getUserOrders",
      "outputs": [
        {
          "internalType": "uint256[]",
          "name": "",
          "type": "uint256[]"
        }
      ],
      "stateMutability": "view",
      "type": "function"
    },
    {
      "inputs": [
        {
          "internalType": "uint256",
          "name": "orderId",
          "type": "uint256"
        }
      ],
      "name": "getOrderInfo",
      "outputs": [
        {
          "internalType": "uint256",
          "name": "_orderId",
          "type": "uint256"
        },
        {
          "internalType": "uint256",
          "name": "_trainTaskId",
          "type": "uint256"
        },
        {
          "internalType": "uint256",
          "name": "_validateTaskId",
          "type": "uint256"
        },
        {
          "internalType": "address",
          "name": "_client",
          "type": "address"
        },
        {
          "internalType": "uint256",
          "name": "_paymentAmount",
          "type": "uint256"
        },
        {
          "internalType": "enum SharedStructs.OrderStatus",
          "name": "_orderStatus",
          "type": "uint8"
        },
        {
          "internalType": "uint256",
          "name": "_orderLevel",
          "type": "uint256"
        },
        {
          "internalType": "uint256",
          "name": "_requiredComputingPower",
          "type": "uint256"
        },
        {
          "internalType": "string",
          "name": "_folderUrl",
          "type": "string"
        }
      ],
      "stateMutability": "view",
      "type": "function"
    },
    {
      "inputs": [
        {
          "internalType": "address",
          "name": "recipient",
          "type": "address"
        },
        {
          "internalType": "uint256",
          "name": "amount",
          "type": "uint256"
        }
      ],
      "name": "transferFunds",
      "outputs": [],
      "stateMutability": "nonpayable",
      "type": "function"
    },
    {
      "inputs": [
        {
          "internalType": "address",
          "name": "workerAddress",
          "type": "address"
        },
        {
          "internalType": "uint256",
          "name": "taskId",
          "type": "uint256"
        }
      ],
      "name": "CompleteTask",
      "outputs": [],
      "stateMutability": "nonpayable",
      "type": "function"
    },
    {
      "inputs": [
        {
          "internalType": "address",
          "name": "marketplaceAddress",
          "type": "address"
        }
      ],
      "name": "setMarketplaceAddress",
      "outputs": [],
      "stateMutability": "nonpayable",
      "type": "function"
    }
  ],
  "bytecode": "0x60806040523480156200001157600080fd5b5060405162004512380380620045128339818101604052810190620000379190620001fa565b826000806101000a81548173ffffffffffffffffffffffffffffffffffffffff021916908373ffffffffffffffffffffffffffffffffffffffff16021790555081600160006101000a81548173ffffffffffffffffffffffffffffffffffffffff021916908373ffffffffffffffffffffffffffffffffffffffff16021790555080600260006101000a81548173ffffffffffffffffffffffffffffffffffffffff021916908373ffffffffffffffffffffffffffffffffffffffff16021790555033600360006101000a81548173ffffffffffffffffffffffffffffffffffffffff021916908373ffffffffffffffffffffffffffffffffffffffff160217905550600060088190555050505062000256565b600080fd5b600073ffffffffffffffffffffffffffffffffffffffff82169050919050565b60006200017d8262000150565b9050919050565b6200018f8162000170565b81146200019b57600080fd5b50565b600081519050620001af8162000184565b92915050565b6000620001c28262000150565b9050919050565b620001d481620001b5565b8114620001e057600080fd5b50565b600081519050620001f481620001c9565b92915050565b6000806000606084860312156200021657620002156200014b565b5b600062000226868287016200019e565b93505060206200023986828701620001e3565b92505060406200024c86828701620001e3565b9150509250925092565b6142ac80620002666000396000f3fe608060405260043610620000fe5760003560e01c80638db4b00f1162000097578063c4f987a51162000061578063c4f987a51462000351578063ce8ef7a6146200037f578063d311636b14620003c3578063fd8a1682146200040f57620000fe565b80638db4b00f1462000283578063990dc9db14620002b1578063a85c38ef14620002df578063b47cc556146200032357620000fe565b80634af18f4f11620000d95780634af18f4f14620001ad57806363c69f0814620001cd5780636b6096fc1462000211578063856652e9146200023f57620000fe565b80631d65e77e14620001035780631e7f931f146200014757806326858d241462000177575b600080fd5b3480156200011057600080fd5b506200012f600480360381019062000129919062001ef4565b62000453565b6040516200013e9190620021d5565b60405180910390f35b3480156200015457600080fd5b506200015f6200050a565b6040516200016e9190620022b6565b60405180910390f35b6200019560048036038101906200018f91906200242b565b620005aa565b604051620001a49190620024cd565b60405180910390f35b620001cb6004803603810190620001c5919062001ef4565b62000ad1565b005b348015620001da57600080fd5b50620001f96004803603810190620001f391906200251b565b62000baa565b6040516200020891906200260a565b60405180910390f35b3480156200021e57600080fd5b506200023d60048036038101906200023791906200262e565b62000c43565b005b3480156200024c57600080fd5b506200026b60048036038101906200026591906200262e565b62000ce4565b6040516200027a9190620024cd565b60405180910390f35b3480156200029057600080fd5b50620002af6004803603810190620002a991906200262e565b62000d16565b005b348015620002be57600080fd5b50620002dd6004803603810190620002d791906200262e565b620011a7565b005b348015620002ec57600080fd5b506200030b600480360381019062000305919062001ef4565b62001239565b6040516200031a9190620026e0565b60405180910390f35b3480156200033057600080fd5b506200034f60048036038101906200034991906200251b565b6200126c565b005b3480156200035e57600080fd5b506200037d60048036038101906200037791906200251b565b62001343565b005b3480156200038c57600080fd5b50620003ab6004803603810190620003a591906200251b565b6200146a565b604051620003ba91906200278c565b60405180910390f35b348015620003d057600080fd5b50620003ef6004803603810190620003e9919062001ef4565b6200151c565b60405162000406999897969594939291906200285d565b60405180910390f35b3480156200041c57600080fd5b506200043b60048036038101906200043591906200251b565b62001918565b6040516200044a9190620024cd565b60405180910390f35b6200045d62001dd1565b600160009054906101000a900473ffffffffffffffffffffffffffffffffffffffff1673ffffffffffffffffffffffffffffffffffffffff16631d65e77e836040518263ffffffff1660e01b8152600401620004ba9190620024cd565b600060405180830381865afa158015620004d8573d6000803e3d6000fd5b505050506040513d6000823e3d601f19601f8201168201806040525081019062000503919062002b37565b9050919050565b6060600260009054906101000a900473ffffffffffffffffffffffffffffffffffffffff1673ffffffffffffffffffffffffffffffffffffffff16631e7f931f6040518163ffffffff1660e01b8152600401600060405180830381865afa1580156200057a573d6000803e3d6000fd5b505050506040513d6000823e3d601f19601f82011682018060405250810190620005a5919062002c63565b905090565b600082341015620005f2576040517f08c379a0000000000000000000000000000000000000000000000000000000008152600401620005e99062002d04565b60405180910390fd5b600060086000815480929190620006099062002d55565b919050559050600033878786604051620006239062001e64565b62000632949392919062002da2565b604051809103906000f0801580156200064f573d6000803e3d6000fd5b509050806006600084815260200190815260200160002060006101000a81548173ffffffffffffffffffffffffffffffffffffffff021916908373ffffffffffffffffffffffffffffffffffffffff160217905550600760003373ffffffffffffffffffffffffffffffffffffffff1673ffffffffffffffffffffffffffffffffffffffff1681526020019081526020016000208290806001815401808255809150506001900390600052602060002001600090919091909150557f1a72d6383b1fc1b015bedc584a040a3cba7b0a5e33b00a43a1693b852be2382e826040516200073b919062002e46565b60405180910390a160008054906101000a900473ffffffffffffffffffffffffffffffffffffffff1673ffffffffffffffffffffffffffffffffffffffff1663f340fa0134336040518363ffffffff1660e01b81526004016200079f919062002e78565b6000604051808303818588803b158015620007b957600080fd5b505af1158015620007ce573d6000803e3d6000fd5b50505050506000600160009054906101000a900473ffffffffffffffffffffffffffffffffffffffff1673ffffffffffffffffffffffffffffffffffffffff1663d2f1d4486000858573ffffffffffffffffffffffffffffffffffffffff166358e9d3d56040518163ffffffff1660e01b8152600401600060405180830381865afa15801562000862573d6000803e3d6000fd5b505050506040513d6000823e3d601f19601f820116820180604052508101906200088d919062002e95565b8673ffffffffffffffffffffffffffffffffffffffff1663523b0b366040518163ffffffff1660e01b8152600401602060405180830381865afa158015620008d9573d6000803e3d6000fd5b505050506040513d601f19601f82011682018060405250810190620008ff919062002ee6565b8773ffffffffffffffffffffffffffffffffffffffff1663bee80fc56040518163ffffffff1660e01b8152600401602060405180830381865afa1580156200094b573d6000803e3d6000fd5b505050506040513d601f19601f8201168201806040525081019062000971919062002ee6565b6040518663ffffffff1660e01b81526004016200099395949392919062002f29565b6020604051808303816000875af1158015620009b3573d6000803e3d6000fd5b505050506040513d601f19601f82011682018060405250810190620009d9919062002ee6565b90508173ffffffffffffffffffffffffffffffffffffffff166390ef73e2826040518263ffffffff1660e01b815260040162000a169190620024cd565b600060405180830381600087803b15801562000a3157600080fd5b505af115801562000a46573d6000803e3d6000fd5b505050508173ffffffffffffffffffffffffffffffffffffffff1663ba0179b5876040518263ffffffff1660e01b815260040162000a859190620024cd565b600060405180830381600087803b15801562000aa057600080fd5b505af115801562000ab5573d6000803e3d6000fd5b5050505062000ac362001930565b829350505050949350505050565b8034101562000b17576040517f08c379a000000000000000000000000000000000000000000000000000000000815260040162000b0e9062002d04565b60405180910390fd5b60008054906101000a900473ffffffffffffffffffffffffffffffffffffffff1673ffffffffffffffffffffffffffffffffffffffff1663f340fa0134336040518363ffffffff1660e01b815260040162000b73919062002e78565b6000604051808303818588803b15801562000b8d57600080fd5b505af115801562000ba2573d6000803e3d6000fd5b505050505050565b6060600760008373ffffffffffffffffffffffffffffffffffffffff1673ffffffffffffffffffffffffffffffffffffffff16815260200190815260200160002080548060200260200160405190810160405280929190818152602001828054801562000c3757602002820191906000526020600020905b81548152602001906001019080831162000c22575b50505050509050919050565b600260009054906101000a900473ffffffffffffffffffffffffffffffffffffffff1673ffffffffffffffffffffffffffffffffffffffff16636b6096fc83836040518363ffffffff1660e01b815260040162000ca292919062002f8d565b600060405180830381600087803b15801562000cbd57600080fd5b505af115801562000cd2573d6000803e3d6000fd5b5050505062000ce062001930565b5050565b6007602052816000526040600020818154811062000d0157600080fd5b90600052602060002001600091509150505481565b600260009054906101000a900473ffffffffffffffffffffffffffffffffffffffff1673ffffffffffffffffffffffffffffffffffffffff1663866591f783836040518363ffffffff1660e01b815260040162000d7592919062002f8d565b602060405180830381865afa15801562000d93573d6000803e3d6000fd5b505050506040513d601f19601f8201168201806040525081019062000db9919062002feb565b62000dfb576040517f08c379a000000000000000000000000000000000000000000000000000000000815260040162000df2906200306d565b60405180910390fd5b6000600160009054906101000a900473ffffffffffffffffffffffffffffffffffffffff1673ffffffffffffffffffffffffffffffffffffffff16631d65e77e836040518263ffffffff1660e01b815260040162000e5a9190620024cd565b600060405180830381865afa15801562000e78573d6000803e3d6000fd5b505050506040513d6000823e3d601f19601f8201168201806040525081019062000ea3919062002b37565b9050600160009054906101000a900473ffffffffffffffffffffffffffffffffffffffff1673ffffffffffffffffffffffffffffffffffffffff1663e1e29558836040518263ffffffff1660e01b815260040162000f029190620024cd565b600060405180830381600087803b15801562000f1d57600080fd5b505af115801562000f32573d6000803e3d6000fd5b505050506000600660008360200151815260200190815260200160002060009054906101000a900473ffffffffffffffffffffffffffffffffffffffff169050600260009054906101000a900473ffffffffffffffffffffffffffffffffffffffff1673ffffffffffffffffffffffffffffffffffffffff16633fc0f48b856040518263ffffffff1660e01b815260040162000fcf919062002e78565b600060405180830381600087803b15801562000fea57600080fd5b505af115801562000fff573d6000803e3d6000fd5b505050508073ffffffffffffffffffffffffffffffffffffffff1663b8896eb660026040518263ffffffff1660e01b81526004016200103f91906200308f565b600060405180830381600087803b1580156200105a57600080fd5b505af11580156200106f573d6000803e3d6000fd5b505050506000600a60098373ffffffffffffffffffffffffffffffffffffffff1663c35905c66040518163ffffffff1660e01b8152600401602060405180830381865afa158015620010c5573d6000803e3d6000fd5b505050506040513d601f19601f82011682018060405250810190620010eb919062002ee6565b620010f79190620030ac565b62001103919062003126565b905060008054906101000a900473ffffffffffffffffffffffffffffffffffffffff1673ffffffffffffffffffffffffffffffffffffffff1663f7fb7ea586836040518363ffffffff1660e01b81526004016200116292919062002f8d565b600060405180830381600087803b1580156200117d57600080fd5b505af115801562001192573d6000803e3d6000fd5b50505050620011a062001930565b5050505050565b80471015620011ed576040517f08c379a0000000000000000000000000000000000000000000000000000000008152600401620011e490620031ae565b60405180910390fd5b8173ffffffffffffffffffffffffffffffffffffffff166108fc829081150290604051600060405180830381858888f1935050505015801562001234573d6000803e3d6000fd5b505050565b60066020528060005260406000206000915054906101000a900473ffffffffffffffffffffffffffffffffffffffff1681565b600360009054906101000a900473ffffffffffffffffffffffffffffffffffffffff1673ffffffffffffffffffffffffffffffffffffffff163373ffffffffffffffffffffffffffffffffffffffff1614620012ff576040517f08c379a0000000000000000000000000000000000000000000000000000000008152600401620012f69062003246565b60405180910390fd5b80600460006101000a81548173ffffffffffffffffffffffffffffffffffffffff021916908373ffffffffffffffffffffffffffffffffffffffff16021790555050565b600360009054906101000a900473ffffffffffffffffffffffffffffffffffffffff1673ffffffffffffffffffffffffffffffffffffffff163373ffffffffffffffffffffffffffffffffffffffff1614620013d6576040517f08c379a0000000000000000000000000000000000000000000000000000000008152600401620013cd90620032de565b60405180910390fd5b600260009054906101000a900473ffffffffffffffffffffffffffffffffffffffff1673ffffffffffffffffffffffffffffffffffffffff1663c4f987a5826040518263ffffffff1660e01b815260040162001433919062002e78565b600060405180830381600087803b1580156200144e57600080fd5b505af115801562001463573d6000803e3d6000fd5b5050505050565b6200147462001e72565b600260009054906101000a900473ffffffffffffffffffffffffffffffffffffffff1673ffffffffffffffffffffffffffffffffffffffff166374a44d12836040518263ffffffff1660e01b8152600401620014d1919062002e78565b60a060405180830381865afa158015620014ef573d6000803e3d6000fd5b505050506040513d601f19601f820116820180604052508101906200151591906200339b565b9050919050565b60008060008060008060008060608998506000600660008c815260200190815260200160002060009054906101000a900473ffffffffffffffffffffffffffffffffffffffff1690508073ffffffffffffffffffffffffffffffffffffffff16632c8989456040518163ffffffff1660e01b8152600401602060405180830381865afa158015620015b1573d6000803e3d6000fd5b505050506040513d601f19601f82011682018060405250810190620015d7919062002ee6565b98508073ffffffffffffffffffffffffffffffffffffffff1663e7b0b1906040518163ffffffff1660e01b8152600401602060405180830381865afa15801562001625573d6000803e3d6000fd5b505050506040513d601f19601f820116820180604052508101906200164b919062002ee6565b97508073ffffffffffffffffffffffffffffffffffffffff1663109e94cf6040518163ffffffff1660e01b8152600401602060405180830381865afa15801562001699573d6000803e3d6000fd5b505050506040513d601f19601f82011682018060405250810190620016bf9190620033cd565b96508073ffffffffffffffffffffffffffffffffffffffff1663c35905c66040518163ffffffff1660e01b8152600401602060405180830381865afa1580156200170d573d6000803e3d6000fd5b505050506040513d601f19601f8201168201806040525081019062001733919062002ee6565b95508073ffffffffffffffffffffffffffffffffffffffff16632728e28b6040518163ffffffff1660e01b8152600401602060405180830381865afa15801562001781573d6000803e3d6000fd5b505050506040513d601f19601f82011682018060405250810190620017a7919062003427565b94508073ffffffffffffffffffffffffffffffffffffffff1663bee80fc56040518163ffffffff1660e01b8152600401602060405180830381865afa158015620017f5573d6000803e3d6000fd5b505050506040513d601f19601f820116820180604052508101906200181b919062002ee6565b93508073ffffffffffffffffffffffffffffffffffffffff1663523b0b366040518163ffffffff1660e01b8152600401602060405180830381865afa15801562001869573d6000803e3d6000fd5b505050506040513d601f19601f820116820180604052508101906200188f919062002ee6565b92508073ffffffffffffffffffffffffffffffffffffffff166358e9d3d56040518163ffffffff1660e01b8152600401600060405180830381865afa158015620018dd573d6000803e3d6000fd5b505050506040513d6000823e3d601f19601f8201168201806040525081019062001908919062002e95565b9150509193959799909294969850565b60056020528060005260406000206000915090505481565b7fc33356bc2bad2ce263b056da5d061d4e89c336823d5e77f14c1383aedb7a1b3a600160009054906101000a900473ffffffffffffffffffffffffffffffffffffffff1673ffffffffffffffffffffffffffffffffffffffff1663f650e0cf6040518163ffffffff1660e01b8152600401602060405180830381865afa158015620019bf573d6000803e3d6000fd5b505050506040513d601f19601f82011682018060405250810190620019e5919062002feb565b604051620019f491906200346a565b60405180910390a1600160009054906101000a900473ffffffffffffffffffffffffffffffffffffffff1673ffffffffffffffffffffffffffffffffffffffff1663f650e0cf6040518163ffffffff1660e01b8152600401602060405180830381865afa15801562001a6a573d6000803e3d6000fd5b505050506040513d601f19601f8201168201806040525081019062001a90919062002feb565b1562001dcf576000600160009054906101000a900473ffffffffffffffffffffffffffffffffffffffff1673ffffffffffffffffffffffffffffffffffffffff166398c436206040518163ffffffff1660e01b8152600401600060405180830381865afa15801562001b06573d6000803e3d6000fd5b505050506040513d6000823e3d601f19601f8201168201806040525081019062001b31919062002b37565b90506000600260009054906101000a900473ffffffffffffffffffffffffffffffffffffffff1673ffffffffffffffffffffffffffffffffffffffff16638b09bffd8360a0015184600001518561010001518661012001516040518563ffffffff1660e01b815260040162001baa949392919062003487565b6020604051808303816000875af115801562001bca573d6000803e3d6000fd5b505050506040513d601f19601f8201168201806040525081019062001bf0919062002ee6565b9050600260009054906101000a900473ffffffffffffffffffffffffffffffffffffffff1673ffffffffffffffffffffffffffffffffffffffff16636e5720a26040518163ffffffff1660e01b8152600401602060405180830381865afa15801562001c60573d6000803e3d6000fd5b505050506040513d601f19601f8201168201806040525081019062001c86919062002ee6565b811462001dcc57600660008360200151815260200190815260200160002060009054906101000a900473ffffffffffffffffffffffffffffffffffffffff1673ffffffffffffffffffffffffffffffffffffffff1663b8896eb660016040518263ffffffff1660e01b815260040162001d0091906200308f565b600060405180830381600087803b15801562001d1b57600080fd5b505af115801562001d30573d6000803e3d6000fd5b50505050600160009054906101000a900473ffffffffffffffffffffffffffffffffffffffff1673ffffffffffffffffffffffffffffffffffffffff166301612c408360000151836040518363ffffffff1660e01b815260040162001d97929190620034d4565b600060405180830381600087803b15801562001db257600080fd5b505af115801562001dc7573d6000803e3d6000fd5b505050505b50505b565b60405180610140016040528060008152602001600081526020016000600181111562001e025762001e0162001f37565b5b81526020016000600281111562001e1e5762001e1d62001f37565b5b81526020016060815260200160008152602001600073ffffffffffffffffffffffffffffffffffffffff1681526020016000815260200160008152602001600081525090565b610d75806200350283390190565b6040518060a001604052806000815260200160008152602001600015158152602001600015158152602001600081525090565b6000604051905090565b600080fd5b600080fd5b6000819050919050565b62001ece8162001eb9565b811462001eda57600080fd5b50565b60008135905062001eee8162001ec3565b92915050565b60006020828403121562001f0d5762001f0c62001eaf565b5b600062001f1d8482850162001edd565b91505092915050565b62001f318162001eb9565b82525050565b7f4e487b7100000000000000000000000000000000000000000000000000000000600052602160045260246000fd5b6002811062001f7a5762001f7962001f37565b5b50565b600081905062001f8d8262001f66565b919050565b600062001f9f8262001f7d565b9050919050565b62001fb18162001f92565b82525050565b6003811062001fcb5762001fca62001f37565b5b50565b600081905062001fde8262001fb7565b919050565b600062001ff08262001fce565b9050919050565b620020028162001fe3565b82525050565b600081519050919050565b600082825260208201905092915050565b60005b838110156200204457808201518184015260208101905062002027565b60008484015250505050565b6000601f19601f8301169050919050565b60006200206e8262002008565b6200207a818562002013565b93506200208c81856020860162002024565b620020978162002050565b840191505092915050565b600073ffffffffffffffffffffffffffffffffffffffff82169050919050565b6000620020cf82620020a2565b9050919050565b620020e181620020c2565b82525050565b60006101408301600083015162002102600086018262001f26565b50602083015162002117602086018262001f26565b5060408301516200212c604086018262001fa6565b50606083015162002141606086018262001ff7565b50608083015184820360808601526200215b828262002061565b91505060a08301516200217260a086018262001f26565b5060c08301516200218760c0860182620020d6565b5060e08301516200219c60e086018262001f26565b50610100830151620021b361010086018262001f26565b50610120830151620021ca61012086018262001f26565b508091505092915050565b60006020820190508181036000830152620021f18184620020e7565b905092915050565b600081519050919050565b600082825260208201905092915050565b6000819050602082019050919050565b6000620022338383620020d6565b60208301905092915050565b6000602082019050919050565b60006200225982620021f9565b62002265818562002204565b9350620022728362002215565b8060005b83811015620022a95781516200228d888262002225565b97506200229a836200223f565b92505060018101905062002276565b5085935050505092915050565b60006020820190508181036000830152620022d281846200224c565b905092915050565b600080fd5b600080fd5b7f4e487b7100000000000000000000000000000000000000000000000000000000600052604160045260246000fd5b6200231e8262002050565b810181811067ffffffffffffffff8211171562002340576200233f620022e4565b5b80604052505050565b60006200235562001ea5565b905062002363828262002313565b919050565b600067ffffffffffffffff821115620023865762002385620022e4565b5b620023918262002050565b9050602081019050919050565b82818337600083830152505050565b6000620023c4620023be8462002368565b62002349565b905082815260208101848484011115620023e357620023e2620022df565b5b620023f08482856200239e565b509392505050565b600082601f83011262002410576200240f620022da565b5b813562002422848260208601620023ad565b91505092915050565b6000806000806080858703121562002448576200244762001eaf565b5b600085013567ffffffffffffffff81111562002469576200246862001eb4565b5b6200247787828801620023f8565b94505060206200248a8782880162001edd565b93505060406200249d8782880162001edd565b9250506060620024b08782880162001edd565b91505092959194509250565b620024c78162001eb9565b82525050565b6000602082019050620024e46000830184620024bc565b92915050565b620024f581620020c2565b81146200250157600080fd5b50565b6000813590506200251581620024ea565b92915050565b60006020828403121562002534576200253362001eaf565b5b6000620025448482850162002504565b91505092915050565b600081519050919050565b600082825260208201905092915050565b6000819050602082019050919050565b600062002587838362001f26565b60208301905092915050565b6000602082019050919050565b6000620025ad826200254d565b620025b9818562002558565b9350620025c68362002569565b8060005b83811015620025fd578151620025e1888262002579565b9750620025ee8362002593565b925050600181019050620025ca565b5085935050505092915050565b60006020820190508181036000830152620026268184620025a0565b905092915050565b6000806040838503121562002648576200264762001eaf565b5b6000620026588582860162002504565b92505060206200266b8582860162001edd565b9150509250929050565b6000819050919050565b6000620026a06200269a6200269484620020a2565b62002675565b620020a2565b9050919050565b6000620026b4826200267f565b9050919050565b6000620026c882620026a7565b9050919050565b620026da81620026bb565b82525050565b6000602082019050620026f76000830184620026cf565b92915050565b60008115159050919050565b6200271481620026fd565b82525050565b60a08201600082015162002732600085018262001f26565b50602082015162002747602085018262001f26565b5060408201516200275c604085018262002709565b50606082015162002771606085018262002709565b50608082015162002786608085018262001f26565b50505050565b600060a082019050620027a360008301846200271a565b92915050565b620027b481620020c2565b82525050565b60048110620027ce57620027cd62001f37565b5b50565b6000819050620027e182620027ba565b919050565b6000620027f382620027d1565b9050919050565b6200280581620027e6565b82525050565b600082825260208201905092915050565b6000620028298262002008565b6200283581856200280b565b93506200284781856020860162002024565b620028528162002050565b840191505092915050565b60006101208201905062002875600083018c620024bc565b62002884602083018b620024bc565b62002893604083018a620024bc565b620028a26060830189620027a9565b620028b16080830188620024bc565b620028c060a0830187620027fa565b620028cf60c0830186620024bc565b620028de60e0830185620024bc565b818103610100830152620028f381846200281c565b90509a9950505050505050505050565b600080fd5b600080fd5b6000815190506200291e8162001ec3565b92915050565b600281106200293257600080fd5b50565b600081519050620029468162002924565b92915050565b600381106200295a57600080fd5b50565b6000815190506200296e816200294c565b92915050565b60006200298b620029858462002368565b62002349565b905082815260208101848484011115620029aa57620029a9620022df565b5b620029b784828562002024565b509392505050565b600082601f830112620029d757620029d6620022da565b5b8151620029e984826020860162002974565b91505092915050565b60008151905062002a0381620024ea565b92915050565b6000610140828403121562002a235762002a2262002903565b5b62002a3061014062002349565b9050600062002a42848285016200290d565b600083015250602062002a58848285016200290d565b602083015250604062002a6e8482850162002935565b604083015250606062002a84848285016200295d565b606083015250608082015167ffffffffffffffff81111562002aab5762002aaa62002908565b5b62002ab984828501620029bf565b60808301525060a062002acf848285016200290d565b60a08301525060c062002ae584828501620029f2565b60c08301525060e062002afb848285016200290d565b60e08301525061010062002b12848285016200290d565b6101008301525061012062002b2a848285016200290d565b6101208301525092915050565b60006020828403121562002b505762002b4f62001eaf565b5b600082015167ffffffffffffffff81111562002b715762002b7062001eb4565b5b62002b7f8482850162002a09565b91505092915050565b600067ffffffffffffffff82111562002ba65762002ba5620022e4565b5b602082029050602081019050919050565b600080fd5b600062002bd362002bcd8462002b88565b62002349565b9050808382526020820190506020840283018581111562002bf95762002bf862002bb7565b5b835b8181101562002c26578062002c118882620029f2565b84526020840193505060208101905062002bfb565b5050509392505050565b600082601f83011262002c485762002c47620022da565b5b815162002c5a84826020860162002bbc565b91505092915050565b60006020828403121562002c7c5762002c7b62001eaf565b5b600082015167ffffffffffffffff81111562002c9d5762002c9c62001eb4565b5b62002cab8482850162002c30565b91505092915050565b7f4e6f7420656e6f7567682066756e64732070726f76696465642e000000000000600082015250565b600062002cec601a836200280b565b915062002cf98262002cb4565b602082019050919050565b6000602082019050818103600083015262002d1f8162002cdd565b9050919050565b7f4e487b7100000000000000000000000000000000000000000000000000000000600052601160045260246000fd5b600062002d628262001eb9565b91507fffffffffffffffffffffffffffffffffffffffffffffffffffffffffffffffff820362002d975762002d9662002d26565b5b600182019050919050565b600060808201905062002db96000830187620027a9565b818103602083015262002dcd81866200281c565b905062002dde6040830185620024bc565b62002ded6060830184620024bc565b95945050505050565b7f4372656164206f72646572207375636365737321000000000000000000000000600082015250565b600062002e2e6014836200280b565b915062002e3b8262002df6565b602082019050919050565b6000604082019050818103600083015262002e618162002e1f565b905062002e726020830184620024bc565b92915050565b600060208201905062002e8f6000830184620027a9565b92915050565b60006020828403121562002eae5762002ead62001eaf565b5b600082015167ffffffffffffffff81111562002ecf5762002ece62001eb4565b5b62002edd84828501620029bf565b91505092915050565b60006020828403121562002eff5762002efe62001eaf565b5b600062002f0f848285016200290d565b91505092915050565b62002f238162001f92565b82525050565b600060a08201905062002f40600083018862002f18565b62002f4f6020830187620024bc565b818103604083015262002f6381866200281c565b905062002f746060830185620024bc565b62002f836080830184620024bc565b9695505050505050565b600060408201905062002fa46000830185620027a9565b62002fb36020830184620024bc565b9392505050565b62002fc581620026fd565b811462002fd157600080fd5b50565b60008151905062002fe58162002fba565b92915050565b60006020828403121562003004576200300362001eaf565b5b6000620030148482850162002fd4565b91505092915050565b7f496e76616c696420726571756573740000000000000000000000000000000000600082015250565b600062003055600f836200280b565b915062003062826200301d565b602082019050919050565b60006020820190508181036000830152620030888162003046565b9050919050565b6000602082019050620030a66000830184620027fa565b92915050565b6000620030b98262001eb9565b9150620030c68362001eb9565b9250828202620030d68162001eb9565b91508282048414831517620030f057620030ef62002d26565b5b5092915050565b7f4e487b7100000000000000000000000000000000000000000000000000000000600052601260045260246000fd5b6000620031338262001eb9565b9150620031408362001eb9565b925082620031535762003152620030f7565b5b828204905092915050565b7f496e73756666696369656e7420636f6e74726163742062616c616e63652e0000600082015250565b600062003196601e836200280b565b9150620031a3826200315e565b602082019050919050565b60006020820190508181036000830152620031c98162003187565b9050919050565b7f4f6e6c792061646d696e2063616e2073657420746865206d61726b6574706c6160008201527f636520616464726573732e000000000000000000000000000000000000000000602082015250565b60006200322e602b836200280b565b91506200323b82620031d0565b604082019050919050565b6000602082019050818103600083015262003261816200321f565b9050919050565b7f4f6e6c792061646d696e2063616e20706572666f726d2074686973206f70657260008201527f6174696f6e2e0000000000000000000000000000000000000000000000000000602082015250565b6000620032c66026836200280b565b9150620032d38262003268565b604082019050919050565b60006020820190508181036000830152620032f981620032b7565b9050919050565b600060a0828403121562003319576200331862002903565b5b6200332560a062002349565b9050600062003337848285016200290d565b60008301525060206200334d848285016200290d565b6020830152506040620033638482850162002fd4565b6040830152506060620033798482850162002fd4565b60608301525060806200338f848285016200290d565b60808301525092915050565b600060a08284031215620033b457620033b362001eaf565b5b6000620033c48482850162003300565b91505092915050565b600060208284031215620033e657620033e562001eaf565b5b6000620033f684828501620029f2565b91505092915050565b600481106200340d57600080fd5b50565b6000815190506200342181620033ff565b92915050565b60006020828403121562003440576200343f62001eaf565b5b6000620034508482850162003410565b91505092915050565b6200346481620026fd565b82525050565b600060208201905062003481600083018462003459565b92915050565b60006080820190506200349e6000830187620024bc565b620034ad6020830186620024bc565b620034bc6040830185620024bc565b620034cb6060830184620024bc565b95945050505050565b6000604082019050620034eb6000830185620024bc565b620034fa6020830184620024bc565b939250505056fe60806040523480156200001157600080fd5b5060405162000d7538038062000d7583398181016040528101906200003791906200031a565b60006001819055506000808190555083600260006101000a81548173ffffffffffffffffffffffffffffffffffffffff021916908373ffffffffffffffffffffffffffffffffffffffff16021790555060006003819055506000600660006101000a81548160ff02191690836003811115620000b857620000b7620003ab565b5b02179055508260049081620000ce91906200061b565b5081600581905550806007819055505050505062000702565b6000604051905090565b600080fd5b600080fd5b600073ffffffffffffffffffffffffffffffffffffffff82169050919050565b60006200012882620000fb565b9050919050565b6200013a816200011b565b81146200014657600080fd5b50565b6000815190506200015a816200012f565b92915050565b600080fd5b600080fd5b6000601f19601f8301169050919050565b7f4e487b7100000000000000000000000000000000000000000000000000000000600052604160045260246000fd5b620001b5826200016a565b810181811067ffffffffffffffff82111715620001d757620001d66200017b565b5b80604052505050565b6000620001ec620000e7565b9050620001fa8282620001aa565b919050565b600067ffffffffffffffff8211156200021d576200021c6200017b565b5b62000228826200016a565b9050602081019050919050565b60005b838110156200025557808201518184015260208101905062000238565b60008484015250505050565b6000620002786200027284620001ff565b620001e0565b90508281526020810184848401111562000297576200029662000165565b5b620002a484828562000235565b509392505050565b600082601f830112620002c457620002c362000160565b5b8151620002d684826020860162000261565b91505092915050565b6000819050919050565b620002f481620002df565b81146200030057600080fd5b50565b6000815190506200031481620002e9565b92915050565b60008060008060808587031215620003375762000336620000f1565b5b6000620003478782880162000149565b945050602085015167ffffffffffffffff8111156200036b576200036a620000f6565b5b6200037987828801620002ac565b93505060406200038c8782880162000303565b92505060606200039f8782880162000303565b91505092959194509250565b7f4e487b7100000000000000000000000000000000000000000000000000000000600052602160045260246000fd5b600081519050919050565b7f4e487b7100000000000000000000000000000000000000000000000000000000600052602260045260246000fd5b600060028204905060018216806200042d57607f821691505b602082108103620004435762000442620003e5565b5b50919050565b60008190508160005260206000209050919050565b60006020601f8301049050919050565b600082821b905092915050565b600060088302620004ad7fffffffffffffffffffffffffffffffffffffffffffffffffffffffffffffffff826200046e565b620004b986836200046e565b95508019841693508086168417925050509392505050565b6000819050919050565b6000620004fc620004f6620004f084620002df565b620004d1565b620002df565b9050919050565b6000819050919050565b6200051883620004db565b62000530620005278262000503565b8484546200047b565b825550505050565b600090565b6200054762000538565b620005548184846200050d565b505050565b5b818110156200057c57620005706000826200053d565b6001810190506200055a565b5050565b601f821115620005cb57620005958162000449565b620005a0846200045e565b81016020851015620005b0578190505b620005c8620005bf856200045e565b83018262000559565b50505b505050565b600082821c905092915050565b6000620005f060001984600802620005d0565b1980831691505092915050565b60006200060b8383620005dd565b9150826002028217905092915050565b6200062682620003da565b67ffffffffffffffff8111156200064257620006416200017b565b5b6200064e825462000414565b6200065b82828562000580565b600060209050601f8311600181146200069357600084156200067e578287015190505b6200068a8582620005fd565b865550620006fa565b601f198416620006a38662000449565b60005b82811015620006cd57848901518255600182019150602085019450602081019050620006a6565b86831015620006ed5784890151620006e9601f891682620005dd565b8355505b6001600288020188555050505b505050505050565b61066380620007126000396000f3fe608060405234801561001057600080fd5b50600436106100b45760003560e01c8063a85cb62911610071578063a85cb6291461016b578063b8896eb614610187578063ba0179b5146101a3578063bee80fc5146101bf578063c35905c6146101dd578063e7b0b190146101fb576100b4565b8063109e94cf146100b95780632728e28b146100d75780632c898945146100f5578063523b0b361461011357806358e9d3d51461013157806390ef73e21461014f575b600080fd5b6100c1610219565b6040516100ce919061038a565b60405180910390f35b6100df61023f565b6040516100ec919061041c565b60405180910390f35b6100fd610252565b60405161010a9190610450565b60405180910390f35b61011b610258565b6040516101289190610450565b60405180910390f35b61013961025e565b60405161014691906104fb565b60405180910390f35b6101696004803603810190610164919061054e565b6102ec565b005b6101856004803603810190610180919061054e565b6102f6565b005b6101a1600480360381019061019c91906105a0565b610300565b005b6101bd60048036038101906101b8919061054e565b61032d565b005b6101c7610337565b6040516101d49190610450565b60405180910390f35b6101e561033d565b6040516101f29190610450565b60405180910390f35b610203610343565b6040516102109190610450565b60405180910390f35b600260009054906101000a900473ffffffffffffffffffffffffffffffffffffffff1681565b600660009054906101000a900460ff1681565b60005481565b60055481565b6004805461026b906105fc565b80601f0160208091040260200160405190810160405280929190818152602001828054610297906105fc565b80156102e45780601f106102b9576101008083540402835291602001916102e4565b820191906000526020600020905b8154815290600101906020018083116102c757829003601f168201915b505050505081565b8060008190555050565b8060018190555050565b80600660006101000a81548160ff02191690836003811115610325576103246103a5565b5b021790555050565b8060038190555050565b60075481565b60035481565b60015481565b600073ffffffffffffffffffffffffffffffffffffffff82169050919050565b600061037482610349565b9050919050565b61038481610369565b82525050565b600060208201905061039f600083018461037b565b92915050565b7f4e487b7100000000000000000000000000000000000000000000000000000000600052602160045260246000fd5b600481106103e5576103e46103a5565b5b50565b60008190506103f6826103d4565b919050565b6000610406826103e8565b9050919050565b610416816103fb565b82525050565b6000602082019050610431600083018461040d565b92915050565b6000819050919050565b61044a81610437565b82525050565b60006020820190506104656000830184610441565b92915050565b600081519050919050565b600082825260208201905092915050565b60005b838110156104a557808201518184015260208101905061048a565b60008484015250505050565b6000601f19601f8301169050919050565b60006104cd8261046b565b6104d78185610476565b93506104e7818560208601610487565b6104f0816104b1565b840191505092915050565b6000602082019050818103600083015261051581846104c2565b905092915050565b600080fd5b61052b81610437565b811461053657600080fd5b50565b60008135905061054881610522565b92915050565b6000602082840312156105645761056361051d565b5b600061057284828501610539565b91505092915050565b6004811061058857600080fd5b50565b60008135905061059a8161057b565b92915050565b6000602082840312156105b6576105b561051d565b5b60006105c48482850161058b565b91505092915050565b7f4e487b7100000000000000000000000000000000000000000000000000000000600052602260045260246000fd5b6000600282049050600182168061061457607f821691505b602082108103610627576106266105cd565b5b5091905056fea26469706673582212209f4ada1ff1d1cbb751b9e0835d3bc2253386b08ec633bd892fdbee682dfca27f64736f6c63430008130033a2646970667358221220eb2beb9c3c3ad63e3f3faeff2ee07863cd0eef2fae86aae774472331b0a1a83564736f6c63430008130033",
  "immutableReferences": {},
  "source": "// SPDX-License-Identifier: MIT\r\npragma solidity ^0.8.0;\r\n\r\nimport \"./Payment.sol\";\r\nimport \"./TaskPool.sol\";\r\nimport \"./Order.sol\";\r\nimport \"./SharedStructs.sol\";\r\nimport \"./WorkerPool.sol\";\r\n\r\ncontract Marketplace {\r\n    Payment private paymentContract;\r\n    TaskPool private taskPoolContract;\r\n    WorkerPool private workerPoolContract;\r\n    address private admin;\r\n    address private marketplace;\r\n    mapping(address => uint256) public workerLoad;\r\n    mapping(uint256 => Order) public orders;\r\n    mapping(address => uint256[]) public userOrders;\r\n    uint256 private nextOrderId;\r\n\r\n    event TaskCompleted(uint256 indexed taskId, address indexed worker);\r\n\r\n    event OrderCreated(string message, uint256 orderId);\r\n    event ConfirmOrder(uint256 orderId, uint256 paymentAmount);\r\n    event Log(string message);\r\n    event LogBool(bool LogBool);\r\n\r\n    event Logad(address adr, address adr2);\r\n\r\n    modifier onlyAdmin() {\r\n        require(msg.sender == admin, \"Only admin can perform this operation.\");\r\n        _;\r\n    }\r\n\r\n    constructor(\r\n        address payable paymentAddress,\r\n        address taskPoolAddress,\r\n        address workerPoolAddress\r\n    ) {\r\n        paymentContract = Payment(paymentAddress);\r\n        taskPoolContract = TaskPool(taskPoolAddress);\r\n        workerPoolContract = WorkerPool(workerPoolAddress);\r\n        admin = msg.sender;\r\n        nextOrderId = 0;\r\n    }\r\n\r\n    function addWorker(address worker, uint256 _computingPower) public {\r\n        workerPoolContract.addWorker(worker, _computingPower);\r\n        TriggerTaskPool();\r\n    }\r\n    \r\n    function removeWorker(address worker) public onlyAdmin \r\n    {\r\n        workerPoolContract.removeWorker(worker);\r\n    }\r\n\r\n    function getWorkerList() public view returns(address[] memory)\r\n    {\r\n        return workerPoolContract.getWorkerList();\r\n    }\r\n\r\n    function getWorkerInfo(address worker) public view returns(WorkerPool.Worker memory)\r\n    {\r\n        return workerPoolContract.getWorkerByWorkerAddress(worker);\r\n    }\r\n\r\n    function getTask(\r\n        uint256 taskId\r\n    ) public view returns (SharedStructs.TaskInfo memory) {\r\n        return taskPoolContract.getTask(taskId);\r\n    }\r\n\r\n    function createOrderPreview(\r\n        string memory folderUrl,\r\n        uint256 requiredPower,\r\n        uint256 paymentAmount,\r\n        uint256 orderLevel\r\n    ) public payable returns (uint256) {\r\n\r\n        require(msg.value >= paymentAmount, \"Not enough funds provided.\");\r\n        uint256 orderId = nextOrderId++;\r\n\r\n        Order order = new Order(\r\n            msg.sender,\r\n            folderUrl,\r\n            requiredPower,\r\n            orderLevel\r\n        );\r\n        orders[orderId] = order;\r\n        userOrders[msg.sender].push(orderId);\r\n        emit OrderCreated(\"Cread order success!\", orderId);\r\n\r\n        Payment(paymentContract).deposit{value: msg.value}(msg.sender);\r\n\r\n        uint256 taskId = taskPoolContract.createTask(\r\n            SharedStructs.TaskType.Training,\r\n            orderId,\r\n            order.folderUrl(),\r\n            order.requiredComputingPower(),\r\n            order.orderLevel()\r\n        );\r\n        order.SetOrdertrainTaskId(taskId);\r\n        order.confirm(paymentAmount);\r\n        TriggerTaskPool();\r\n        return orderId;\r\n    }\r\n\r\n    function calculateCost(\r\n        uint256 paymentAmount\r\n    ) public payable{\r\n\r\n        require(msg.value >= paymentAmount, \"Not enough funds provided.\");\r\n        \r\n        Payment(paymentContract).deposit{value: msg.value}(msg.sender);\r\n    }\r\n\r\n    function getUserOrders(\r\n        address user\r\n    ) public view returns (uint256[] memory) {\r\n        return userOrders[user];\r\n    }\r\n\r\n    function getOrderInfo(\r\n        uint256 orderId\r\n    )\r\n        public\r\n        view\r\n        returns (\r\n            uint256 _orderId,\r\n            uint256 _trainTaskId,\r\n            uint256 _validateTaskId,\r\n            address _client,\r\n            uint256 _paymentAmount,\r\n            SharedStructs.OrderStatus _orderStatus,\r\n            uint _orderLevel,\r\n            uint256 _requiredComputingPower,\r\n            string memory _floderUrl\r\n        )\r\n    {\r\n        _orderId = orderId;\r\n        Order order = orders[orderId];\r\n        _trainTaskId = order.trainTaskId();\r\n        _validateTaskId = order.validateTaskId();\r\n        _client = order.client();\r\n        _paymentAmount = order.paymentAmount();\r\n        _orderStatus = order.orderStatus();\r\n        _orderLevel = order.orderLevel();\r\n        _requiredComputingPower = order.requiredComputingPower();\r\n        _floderUrl = order.folderUrl();\r\n    }\r\n\r\n    function transferFunds(address recipient, uint256 amount) public {\r\n        require(address(this).balance >= amount, \"Insufficient contract balance.\");\r\n\r\n        payable(recipient).transfer(amount);\r\n    }\r\n\r\n    function CompleteTask(address workerAddress, uint256 taskId) external {\r\n        require(\r\n            workerPoolContract.validateWorkerTask(workerAddress, taskId),\r\n            \"Invalid request\"\r\n        );\r\n        SharedStructs.TaskInfo memory task = taskPoolContract.getTask(taskId);\r\n        taskPoolContract.completeTask(taskId);\r\n        Order order = orders[task.orderId];\r\n        workerPoolContract.finishTask(workerAddress);\r\n        order.SetOrderStatus(SharedStructs.OrderStatus.Completed);\r\n\r\n        uint256 paymentWorker = order.paymentAmount() * 9 / 10;  \r\n\r\n        Payment(paymentContract).payWorker(workerAddress, paymentWorker);\r\n\r\n        TriggerTaskPool();\r\n    }\r\n\r\n    function TriggerTaskPool() private\r\n   {\r\n        emit LogBool(taskPoolContract.HasTask());\r\n        if(taskPoolContract.HasTask())\r\n        {\r\n            SharedStructs.TaskInfo memory task =  taskPoolContract.getPendingTask();\r\n            uint256 workerId = workerPoolContract.assignTask(task.requiredPower, task.id, task.expectWorkerId, task.orderLevel);\r\n            \r\n            if(workerId != workerPoolContract.Invalid_WorkerId())\r\n            {\r\n                \r\n                orders[task.orderId].SetOrderStatus(SharedStructs.OrderStatus.processing);\r\n                taskPoolContract.assignTask(task.id, workerId);\r\n            }\r\n        }\r\n    }\r\n\r\n    function setMarketplaceAddress(address marketplaceAddress) external {\r\n        require(\r\n            msg.sender == admin,\r\n            \"Only admin can set the marketplace address.\"\r\n        );\r\n        marketplace = marketplaceAddress;\r\n    }\r\n}\r\n",
  "sourcePath": "D:\\workspace\\apex\\ApexHackthon\\web3\\contracts\\Marketplace.sol",
  "compiler": {
    "name": "solc",
    "version": "0.8.19+commit.7dd6d404.Emscripten.clang"
  },
  "schemaVersion": "3.4.13",
  "updatedAt": "2023-07-01T13:36:11.464Z",
  "devdoc": {
    "kind": "dev",
    "methods": {},
    "version": 1
  },
  "userdoc": {
    "kind": "user",
    "methods": {},
    "version": 1
  }
}