{
  "contractName": "Order",
  "abi": [
    {
      "inputs": [
        {
          "internalType": "address",
          "name": "_client",
          "type": "address"
        },
        {
          "internalType": "string",
          "name": "_folderUrl",
          "type": "string"
        },
        {
          "internalType": "uint256",
          "name": "_requiredComputingPower",
          "type": "uint256"
        },
        {
          "internalType": "uint256",
          "name": "_orderLevel",
          "type": "uint256"
        }
      ],
      "stateMutability": "nonpayable",
      "type": "constructor"
    },
    {
      "inputs": [],
      "name": "client",
      "outputs": [
        {
          "internalType": "address",
          "name": "",
          "type": "address"
        }
      ],
      "stateMutability": "view",
      "type": "function"
    },
    {
      "inputs": [],
      "name": "folderUrl",
      "outputs": [
        {
          "internalType": "string",
          "name": "",
          "type": "string"
        }
      ],
      "stateMutability": "view",
      "type": "function"
    },
    {
      "inputs": [],
      "name": "orderLevel",
      "outputs": [
        {
          "internalType": "uint256",
          "name": "",
          "type": "uint256"
        }
      ],
      "stateMutability": "view",
      "type": "function"
    },
    {
      "inputs": [],
      "name": "orderStatus",
      "outputs": [
        {
          "internalType": "enum SharedStructs.OrderStatus",
          "name": "",
          "type": "uint8"
        }
      ],
      "stateMutability": "view",
      "type": "function"
    },
    {
      "inputs": [],
      "name": "paymentAmount",
      "outputs": [
        {
          "internalType": "uint256",
          "name": "",
          "type": "uint256"
        }
      ],
      "stateMutability": "view",
      "type": "function"
    },
    {
      "inputs": [],
      "name": "requiredComputingPower",
      "outputs": [
        {
          "internalType": "uint256",
          "name": "",
          "type": "uint256"
        }
      ],
      "stateMutability": "view",
      "type": "function"
    },
    {
      "inputs": [],
      "name": "trainTaskId",
      "outputs": [
        {
          "internalType": "uint256",
          "name": "",
          "type": "uint256"
        }
      ],
      "stateMutability": "view",
      "type": "function"
    },
    {
      "inputs": [],
      "name": "validateTaskId",
      "outputs": [
        {
          "internalType": "uint256",
          "name": "",
          "type": "uint256"
        }
      ],
      "stateMutability": "view",
      "type": "function"
    },
    {
      "inputs": [
        {
          "internalType": "uint256",
          "name": "_paymentAmount",
          "type": "uint256"
        }
      ],
      "name": "confirm",
      "outputs": [],
      "stateMutability": "nonpayable",
      "type": "function"
    },
    {
      "inputs": [
        {
          "internalType": "enum SharedStructs.OrderStatus",
          "name": "_orderStatus",
          "type": "uint8"
        }
      ],
      "name": "SetOrderStatus",
      "outputs": [],
      "stateMutability": "nonpayable",
      "type": "function"
    },
    {
      "inputs": [
        {
          "internalType": "uint256",
          "name": "taskId",
          "type": "uint256"
        }
      ],
      "name": "SetOrdertrainTaskId",
      "outputs": [],
      "stateMutability": "nonpayable",
      "type": "function"
    },
    {
      "inputs": [
        {
          "internalType": "uint256",
          "name": "taskId",
          "type": "uint256"
        }
      ],
      "name": "SetOrderValidateTaskId",
      "outputs": [],
      "stateMutability": "nonpayable",
      "type": "function"
    }
  ],
  "bytecode": "0x60806040523480156200001157600080fd5b5060405162000d7538038062000d7583398181016040528101906200003791906200031a565b60006001819055506000808190555083600260006101000a81548173ffffffffffffffffffffffffffffffffffffffff021916908373ffffffffffffffffffffffffffffffffffffffff16021790555060006003819055506000600660006101000a81548160ff02191690836003811115620000b857620000b7620003ab565b5b02179055508260049081620000ce91906200061b565b5081600581905550806007819055505050505062000702565b6000604051905090565b600080fd5b600080fd5b600073ffffffffffffffffffffffffffffffffffffffff82169050919050565b60006200012882620000fb565b9050919050565b6200013a816200011b565b81146200014657600080fd5b50565b6000815190506200015a816200012f565b92915050565b600080fd5b600080fd5b6000601f19601f8301169050919050565b7f4e487b7100000000000000000000000000000000000000000000000000000000600052604160045260246000fd5b620001b5826200016a565b810181811067ffffffffffffffff82111715620001d757620001d66200017b565b5b80604052505050565b6000620001ec620000e7565b9050620001fa8282620001aa565b919050565b600067ffffffffffffffff8211156200021d576200021c6200017b565b5b62000228826200016a565b9050602081019050919050565b60005b838110156200025557808201518184015260208101905062000238565b60008484015250505050565b6000620002786200027284620001ff565b620001e0565b90508281526020810184848401111562000297576200029662000165565b5b620002a484828562000235565b509392505050565b600082601f830112620002c457620002c362000160565b5b8151620002d684826020860162000261565b91505092915050565b6000819050919050565b620002f481620002df565b81146200030057600080fd5b50565b6000815190506200031481620002e9565b92915050565b60008060008060808587031215620003375762000336620000f1565b5b6000620003478782880162000149565b945050602085015167ffffffffffffffff8111156200036b576200036a620000f6565b5b6200037987828801620002ac565b93505060406200038c8782880162000303565b92505060606200039f8782880162000303565b91505092959194509250565b7f4e487b7100000000000000000000000000000000000000000000000000000000600052602160045260246000fd5b600081519050919050565b7f4e487b7100000000000000000000000000000000000000000000000000000000600052602260045260246000fd5b600060028204905060018216806200042d57607f821691505b602082108103620004435762000442620003e5565b5b50919050565b60008190508160005260206000209050919050565b60006020601f8301049050919050565b600082821b905092915050565b600060088302620004ad7fffffffffffffffffffffffffffffffffffffffffffffffffffffffffffffffff826200046e565b620004b986836200046e565b95508019841693508086168417925050509392505050565b6000819050919050565b6000620004fc620004f6620004f084620002df565b620004d1565b620002df565b9050919050565b6000819050919050565b6200051883620004db565b62000530620005278262000503565b8484546200047b565b825550505050565b600090565b6200054762000538565b620005548184846200050d565b505050565b5b818110156200057c57620005706000826200053d565b6001810190506200055a565b5050565b601f821115620005cb57620005958162000449565b620005a0846200045e565b81016020851015620005b0578190505b620005c8620005bf856200045e565b83018262000559565b50505b505050565b600082821c905092915050565b6000620005f060001984600802620005d0565b1980831691505092915050565b60006200060b8383620005dd565b9150826002028217905092915050565b6200062682620003da565b67ffffffffffffffff8111156200064257620006416200017b565b5b6200064e825462000414565b6200065b82828562000580565b600060209050601f8311600181146200069357600084156200067e578287015190505b6200068a8582620005fd565b865550620006fa565b601f198416620006a38662000449565b60005b82811015620006cd57848901518255600182019150602085019450602081019050620006a6565b86831015620006ed5784890151620006e9601f891682620005dd565b8355505b6001600288020188555050505b505050505050565b61066380620007126000396000f3fe608060405234801561001057600080fd5b50600436106100b45760003560e01c8063a85cb62911610071578063a85cb6291461016b578063b8896eb614610187578063ba0179b5146101a3578063bee80fc5146101bf578063c35905c6146101dd578063e7b0b190146101fb576100b4565b8063109e94cf146100b95780632728e28b146100d75780632c898945146100f5578063523b0b361461011357806358e9d3d51461013157806390ef73e21461014f575b600080fd5b6100c1610219565b6040516100ce919061038a565b60405180910390f35b6100df61023f565b6040516100ec919061041c565b60405180910390f35b6100fd610252565b60405161010a9190610450565b60405180910390f35b61011b610258565b6040516101289190610450565b60405180910390f35b61013961025e565b60405161014691906104fb565b60405180910390f35b6101696004803603810190610164919061054e565b6102ec565b005b6101856004803603810190610180919061054e565b6102f6565b005b6101a1600480360381019061019c91906105a0565b610300565b005b6101bd60048036038101906101b8919061054e565b61032d565b005b6101c7610337565b6040516101d49190610450565b60405180910390f35b6101e561033d565b6040516101f29190610450565b60405180910390f35b610203610343565b6040516102109190610450565b60405180910390f35b600260009054906101000a900473ffffffffffffffffffffffffffffffffffffffff1681565b600660009054906101000a900460ff1681565b60005481565b60055481565b6004805461026b906105fc565b80601f0160208091040260200160405190810160405280929190818152602001828054610297906105fc565b80156102e45780601f106102b9576101008083540402835291602001916102e4565b820191906000526020600020905b8154815290600101906020018083116102c757829003601f168201915b505050505081565b8060008190555050565b8060018190555050565b80600660006101000a81548160ff02191690836003811115610325576103246103a5565b5b021790555050565b8060038190555050565b60075481565b60035481565b60015481565b600073ffffffffffffffffffffffffffffffffffffffff82169050919050565b600061037482610349565b9050919050565b61038481610369565b82525050565b600060208201905061039f600083018461037b565b92915050565b7f4e487b7100000000000000000000000000000000000000000000000000000000600052602160045260246000fd5b600481106103e5576103e46103a5565b5b50565b60008190506103f6826103d4565b919050565b6000610406826103e8565b9050919050565b610416816103fb565b82525050565b6000602082019050610431600083018461040d565b92915050565b6000819050919050565b61044a81610437565b82525050565b60006020820190506104656000830184610441565b92915050565b600081519050919050565b600082825260208201905092915050565b60005b838110156104a557808201518184015260208101905061048a565b60008484015250505050565b6000601f19601f8301169050919050565b60006104cd8261046b565b6104d78185610476565b93506104e7818560208601610487565b6104f0816104b1565b840191505092915050565b6000602082019050818103600083015261051581846104c2565b905092915050565b600080fd5b61052b81610437565b811461053657600080fd5b50565b60008135905061054881610522565b92915050565b6000602082840312156105645761056361051d565b5b600061057284828501610539565b91505092915050565b6004811061058857600080fd5b50565b60008135905061059a8161057b565b92915050565b6000602082840312156105b6576105b561051d565b5b60006105c48482850161058b565b91505092915050565b7f4e487b7100000000000000000000000000000000000000000000000000000000600052602260045260246000fd5b6000600282049050600182168061061457607f821691505b602082108103610627576106266105cd565b5b5091905056fea26469706673582212209f4ada1ff1d1cbb751b9e0835d3bc2253386b08ec633bd892fdbee682dfca27f64736f6c63430008130033",
  "immutableReferences": {},
  "source": "// SPDX-License-Identifier: MIT\r\npragma solidity ^0.8.0;\r\n\r\nimport \"./SharedStructs.sol\";\r\n\r\ncontract Order {\r\n    uint256 public trainTaskId;\r\n    uint256 public validateTaskId;\r\n    address public client;\r\n    uint256 public paymentAmount;\r\n    string public folderUrl;\r\n    uint256 public requiredComputingPower;\r\n    SharedStructs.OrderStatus public orderStatus; \r\n    uint256 public orderLevel;\r\n\r\n    constructor(address _client, string memory _folderUrl, uint256 _requiredComputingPower, uint256 _orderLevel) {\r\n        validateTaskId = 0;\r\n        trainTaskId = 0;\r\n        client = _client;\r\n        paymentAmount = 0;\r\n        orderStatus = SharedStructs.OrderStatus.Created; \r\n        folderUrl = _folderUrl;\r\n        requiredComputingPower = _requiredComputingPower;\r\n        orderLevel = _orderLevel; \r\n    }\r\n    \r\n    function confirm(uint256 _paymentAmount) public {\r\n        paymentAmount = _paymentAmount;\r\n    }\r\n\r\n    function SetOrderStatus(SharedStructs.OrderStatus _orderStatus) public{\r\n        orderStatus = _orderStatus;\r\n    }\r\n\r\n    function SetOrdertrainTaskId(uint256 taskId) public\r\n    {\r\n        trainTaskId = taskId;\r\n    }\r\n\r\n    function SetOrderValidateTaskId(uint256 taskId) public\r\n    {\r\n        validateTaskId = taskId;\r\n    }\r\n}\r\n",
  "sourcePath": "D:\\workspace\\apex\\ApexHackthon\\web3\\contracts\\Order.sol",
  "compiler": {
    "name": "solc",
    "version": "0.8.19+commit.7dd6d404.Emscripten.clang"
  },
  "schemaVersion": "3.4.13",
  "updatedAt": "2023-07-01T13:36:11.477Z",
  "devdoc": {
    "kind": "dev",
    "methods": {},
    "version": 1
  },
  "userdoc": {
    "kind": "user",
    "methods": {},
    "version": 1
  }
}