{
  "contractName": "Payment",
  "abi": [
    {
      "anonymous": false,
      "inputs": [
        {
          "indexed": true,
          "internalType": "address",
          "name": "sender",
          "type": "address"
        },
        {
          "indexed": false,
          "internalType": "uint256",
          "name": "Balance",
          "type": "uint256"
        }
      ],
      "name": "Balance",
      "type": "event"
    },
    {
      "anonymous": false,
      "inputs": [
        {
          "indexed": true,
          "internalType": "address",
          "name": "sender",
          "type": "address"
        },
        {
          "indexed": false,
          "internalType": "uint256",
          "name": "amount",
          "type": "uint256"
        }
      ],
      "name": "Deposit",
      "type": "event"
    },
    {
      "anonymous": false,
      "inputs": [
        {
          "indexed": true,
          "internalType": "address",
          "name": "sender",
          "type": "address"
        },
        {
          "indexed": true,
          "internalType": "address",
          "name": "recipient",
          "type": "address"
        },
        {
          "indexed": false,
          "internalType": "uint256",
          "name": "amount",
          "type": "uint256"
        }
      ],
      "name": "Transfer",
      "type": "event"
    },
    {
      "anonymous": false,
      "inputs": [
        {
          "indexed": true,
          "internalType": "address",
          "name": "sender",
          "type": "address"
        },
        {
          "indexed": false,
          "internalType": "uint256",
          "name": "amount",
          "type": "uint256"
        }
      ],
      "name": "Withdrawal",
      "type": "event"
    },
    {
      "stateMutability": "payable",
      "type": "fallback"
    },
    {
      "inputs": [
        {
          "internalType": "address",
          "name": "",
          "type": "address"
        }
      ],
      "name": "balanceOf",
      "outputs": [
        {
          "internalType": "uint256",
          "name": "",
          "type": "uint256"
        }
      ],
      "stateMutability": "view",
      "type": "function"
    },
    {
      "stateMutability": "payable",
      "type": "receive"
    },
    {
      "inputs": [
        {
          "internalType": "address",
          "name": "user",
          "type": "address"
        }
      ],
      "name": "deposit",
      "outputs": [],
      "stateMutability": "payable",
      "type": "function"
    },
    {
      "inputs": [
        {
          "internalType": "address",
          "name": "to",
          "type": "address"
        },
        {
          "internalType": "uint256",
          "name": "amount",
          "type": "uint256"
        }
      ],
      "name": "transfer",
      "outputs": [],
      "stateMutability": "nonpayable",
      "type": "function"
    },
    {
      "inputs": [
        {
          "internalType": "uint256",
          "name": "amount",
          "type": "uint256"
        }
      ],
      "name": "withdraw",
      "outputs": [],
      "stateMutability": "nonpayable",
      "type": "function"
    },
    {
      "inputs": [
        {
          "internalType": "address",
          "name": "worker",
          "type": "address"
        },
        {
          "internalType": "uint256",
          "name": "amount",
          "type": "uint256"
        }
      ],
      "name": "payWorker",
      "outputs": [],
      "stateMutability": "nonpayable",
      "type": "function"
    }
  ],
  "bytecode": "0x608060405234801561001057600080fd5b50610a2e806100206000396000f3fe60806040526004361061004e5760003560e01c80632e1a7d4d1461019d57806370a08231146101c6578063a9059cbb14610203578063f340fa011461022c578063f7fb7ea514610248576100f8565b366100f857346000803373ffffffffffffffffffffffffffffffffffffffff1673ffffffffffffffffffffffffffffffffffffffff16815260200190815260200160002060008282546100a19190610754565b925050819055503373ffffffffffffffffffffffffffffffffffffffff167fe1fffcc4923d04b559f4d29a8bfc6cda04eb5b0d3c460751c2402c5c5cc9109c346040516100ee9190610797565b60405180910390a2005b346000803373ffffffffffffffffffffffffffffffffffffffff1673ffffffffffffffffffffffffffffffffffffffff16815260200190815260200160002060008282546101469190610754565b925050819055503373ffffffffffffffffffffffffffffffffffffffff167fe1fffcc4923d04b559f4d29a8bfc6cda04eb5b0d3c460751c2402c5c5cc9109c346040516101939190610797565b60405180910390a2005b3480156101a957600080fd5b506101c460048036038101906101bf91906107e3565b610271565b005b3480156101d257600080fd5b506101ed60048036038101906101e8919061086e565b6103df565b6040516101fa9190610797565b60405180910390f35b34801561020f57600080fd5b5061022a6004803603810190610225919061089b565b6103f7565b005b6102466004803603810190610241919061086e565b61058b565b005b34801561025457600080fd5b5061026f600480360381019061026a919061089b565b61067f565b005b806000803373ffffffffffffffffffffffffffffffffffffffff1673ffffffffffffffffffffffffffffffffffffffff1681526020019081526020016000205410156102f2576040517f08c379a00000000000000000000000000000000000000000000000000000000081526004016102e990610938565b60405180910390fd5b806000803373ffffffffffffffffffffffffffffffffffffffff1673ffffffffffffffffffffffffffffffffffffffff16815260200190815260200160002060008282546103409190610958565b925050819055503373ffffffffffffffffffffffffffffffffffffffff166108fc829081150290604051600060405180830381858888f1935050505015801561038d573d6000803e3d6000fd5b503373ffffffffffffffffffffffffffffffffffffffff167f7fcf532c15f0a6db0bd6d0e038bea71d30d808c7d98cb3bf7268a95bf5081b65826040516103d49190610797565b60405180910390a250565b60006020528060005260406000206000915090505481565b806000803373ffffffffffffffffffffffffffffffffffffffff1673ffffffffffffffffffffffffffffffffffffffff168152602001908152602001600020541015610478576040517f08c379a000000000000000000000000000000000000000000000000000000000815260040161046f90610938565b60405180910390fd5b806000803373ffffffffffffffffffffffffffffffffffffffff1673ffffffffffffffffffffffffffffffffffffffff16815260200190815260200160002060008282546104c69190610958565b92505081905550806000808473ffffffffffffffffffffffffffffffffffffffff1673ffffffffffffffffffffffffffffffffffffffff168152602001908152602001600020600082825461051b9190610754565b925050819055508173ffffffffffffffffffffffffffffffffffffffff163373ffffffffffffffffffffffffffffffffffffffff167fddf252ad1be2c89b69c2b068fc378daa952ba7f163c4a11628f55a4df523b3ef8360405161057f9190610797565b60405180910390a35050565b346000808373ffffffffffffffffffffffffffffffffffffffff1673ffffffffffffffffffffffffffffffffffffffff16815260200190815260200160002060008282546105d99190610754565b925050819055508073ffffffffffffffffffffffffffffffffffffffff167fe1fffcc4923d04b559f4d29a8bfc6cda04eb5b0d3c460751c2402c5c5cc9109c346040516106269190610797565b60405180910390a28073ffffffffffffffffffffffffffffffffffffffff167f134e340554ff8a7d64280a2a28b982df554e2595e5bf45cd39368f31099172a6476040516106749190610797565b60405180910390a250565b610689828261068d565b5050565b804710156106d0576040517f08c379a00000000000000000000000000000000000000000000000000000000081526004016106c7906109d8565b60405180910390fd5b8173ffffffffffffffffffffffffffffffffffffffff166108fc829081150290604051600060405180830381858888f19350505050158015610716573d6000803e3d6000fd5b505050565b6000819050919050565b7f4e487b7100000000000000000000000000000000000000000000000000000000600052601160045260246000fd5b600061075f8261071b565b915061076a8361071b565b925082820190508082111561078257610781610725565b5b92915050565b6107918161071b565b82525050565b60006020820190506107ac6000830184610788565b92915050565b600080fd5b6107c08161071b565b81146107cb57600080fd5b50565b6000813590506107dd816107b7565b92915050565b6000602082840312156107f9576107f86107b2565b5b6000610807848285016107ce565b91505092915050565b600073ffffffffffffffffffffffffffffffffffffffff82169050919050565b600061083b82610810565b9050919050565b61084b81610830565b811461085657600080fd5b50565b60008135905061086881610842565b92915050565b600060208284031215610884576108836107b2565b5b600061089284828501610859565b91505092915050565b600080604083850312156108b2576108b16107b2565b5b60006108c085828601610859565b92505060206108d1858286016107ce565b9150509250929050565b600082825260208201905092915050565b7f496e73756666696369656e742062616c616e63652e0000000000000000000000600082015250565b60006109226015836108db565b915061092d826108ec565b602082019050919050565b6000602082019050818103600083015261095181610915565b9050919050565b60006109638261071b565b915061096e8361071b565b925082820390508181111561098657610985610725565b5b92915050565b7f496e73756666696369656e7420636f6e74726163742062616c616e63652e0000600082015250565b60006109c2601e836108db565b91506109cd8261098c565b602082019050919050565b600060208201905081810360008301526109f1816109b5565b905091905056fea2646970667358221220fdd3b7f6272526d131d4d58235b2df0d2d68eeec3bd1116617048d153887052664736f6c63430008130033",
  "immutableReferences": {},
  "source": "// SPDX-License-Identifier: MIT\r\npragma solidity ^0.8.0;\r\n\r\ncontract Payment {\r\n    mapping(address => uint256) public balanceOf;\r\n    event Deposit(address indexed sender, uint256 amount);\r\n    event Balance(address indexed sender, uint256 Balance);\r\n    event Transfer(\r\n        address indexed sender,\r\n        address indexed recipient,\r\n        uint256 amount\r\n    );\r\n    event Withdrawal(address indexed sender, uint256 amount);\r\n\r\n    function deposit(address user) external payable {\r\n        balanceOf[user] += msg.value;\r\n        emit Deposit(user, msg.value);\r\n        emit Balance(user, address(this).balance);\r\n    }\r\n\r\n    function transfer(address to, uint256 amount) external {\r\n        require(balanceOf[msg.sender] >= amount, \"Insufficient balance.\");\r\n        balanceOf[msg.sender] -= amount;\r\n        balanceOf[to] += amount;\r\n        emit Transfer(msg.sender, to, amount);\r\n    }\r\n\r\n    function withdraw(uint256 amount) external {\r\n        require(balanceOf[msg.sender] >= amount, \"Insufficient balance.\");\r\n\r\n        balanceOf[msg.sender] -= amount;\r\n        payable(msg.sender).transfer(amount);\r\n        emit Withdrawal(msg.sender, amount);\r\n    }\r\n\r\n    function payWorker(address worker, uint256 amount) public {\r\n        _transferETH(worker, amount);\r\n    }\r\n\r\n    function _transferETH(address to, uint256 amount) internal {\r\n        require(\r\n            address(this).balance >= amount,\r\n            \"Insufficient contract balance.\"\r\n        );\r\n\r\n        // Transfer the specified amount of ETH to the recipient\r\n        payable(to).transfer(amount);\r\n    }\r\n\r\n    receive() external payable {\r\n        balanceOf[msg.sender] += msg.value;\r\n        emit Deposit(msg.sender, msg.value);\r\n    }\r\n\r\n    fallback() external payable {\r\n        balanceOf[msg.sender] += msg.value;\r\n        emit Deposit(msg.sender, msg.value);\r\n    }\r\n}\r\n",
  "sourcePath": "D:\\workspace\\apex\\ApexHackthon\\web3\\contracts\\Payment.sol",
  "compiler": {
    "name": "solc",
    "version": "0.8.19+commit.7dd6d404.Emscripten.clang"
  },
  "schemaVersion": "3.4.13",
  "updatedAt": "2023-07-01T13:36:11.480Z",
  "devdoc": {
    "kind": "dev",
    "methods": {},
    "version": 1
  },
  "userdoc": {
    "kind": "user",
    "methods": {},
    "version": 1
  }
}