{
  "contractName": "Task",
  "abi": [
    {
      "anonymous": false,
      "inputs": [
        {
          "indexed": true,
          "internalType": "uint256",
          "name": "taskId",
          "type": "uint256"
        },
        {
          "indexed": true,
          "internalType": "address",
          "name": "worker",
          "type": "address"
        }
      ],
      "name": "TaskAssigned",
      "type": "event"
    },
    {
      "anonymous": false,
      "inputs": [
        {
          "indexed": true,
          "internalType": "uint256",
          "name": "taskId",
          "type": "uint256"
        }
      ],
      "name": "TaskCompleted",
      "type": "event"
    },
    {
      "anonymous": false,
      "inputs": [
        {
          "indexed": true,
          "internalType": "uint256",
          "name": "taskId",
          "type": "uint256"
        },
        {
          "indexed": true,
          "internalType": "address",
          "name": "creator",
          "type": "address"
        }
      ],
      "name": "TaskCreated",
      "type": "event"
    },
    {
      "inputs": [
        {
          "internalType": "uint256",
          "name": "",
          "type": "uint256"
        }
      ],
      "name": "tasks",
      "outputs": [
        {
          "internalType": "uint256",
          "name": "id",
          "type": "uint256"
        },
        {
          "internalType": "enum SharedStructs.TaskType",
          "name": "taskType",
          "type": "uint8"
        },
        {
          "internalType": "enum SharedStructs.TaskStatus",
          "name": "status",
          "type": "uint8"
        },
        {
          "internalType": "string",
          "name": "modelUrl",
          "type": "string"
        },
        {
          "internalType": "string",
          "name": "trainDataUrl",
          "type": "string"
        },
        {
          "internalType": "string",
          "name": "validateDataUrl",
          "type": "string"
        },
        {
          "internalType": "uint256",
          "name": "requiredPower",
          "type": "uint256"
        },
        {
          "internalType": "address",
          "name": "creator",
          "type": "address"
        },
        {
          "internalType": "address",
          "name": "worker",
          "type": "address"
        }
      ],
      "stateMutability": "view",
      "type": "function"
    },
    {
      "inputs": [
        {
          "internalType": "enum SharedStructs.TaskType",
          "name": "taskType",
          "type": "uint8"
        },
        {
          "internalType": "string",
          "name": "modelUrl",
          "type": "string"
        },
        {
          "internalType": "string",
          "name": "trainDataUrl",
          "type": "string"
        },
        {
          "internalType": "string",
          "name": "validateDataUrl",
          "type": "string"
        },
        {
          "internalType": "uint256",
          "name": "requiredPower",
          "type": "uint256"
        }
      ],
      "name": "createTask",
      "outputs": [
        {
          "internalType": "uint256",
          "name": "",
          "type": "uint256"
        }
      ],
      "stateMutability": "nonpayable",
      "type": "function"
    },
    {
      "inputs": [
        {
          "internalType": "uint256",
          "name": "taskId",
          "type": "uint256"
        }
      ],
      "name": "getTask",
      "outputs": [
        {
          "components": [
            {
              "internalType": "uint256",
              "name": "id",
              "type": "uint256"
            },
            {
              "internalType": "enum SharedStructs.TaskType",
              "name": "taskType",
              "type": "uint8"
            },
            {
              "internalType": "enum SharedStructs.TaskStatus",
              "name": "status",
              "type": "uint8"
            },
            {
              "internalType": "string",
              "name": "modelUrl",
              "type": "string"
            },
            {
              "internalType": "string",
              "name": "trainDataUrl",
              "type": "string"
            },
            {
              "internalType": "string",
              "name": "validateDataUrl",
              "type": "string"
            },
            {
              "internalType": "uint256",
              "name": "requiredPower",
              "type": "uint256"
            },
            {
              "internalType": "address",
              "name": "creator",
              "type": "address"
            },
            {
              "internalType": "address",
              "name": "worker",
              "type": "address"
            }
          ],
          "internalType": "struct SharedStructs.TaskInfo",
          "name": "",
          "type": "tuple"
        }
      ],
      "stateMutability": "view",
      "type": "function"
    },
    {
      "inputs": [
        {
          "internalType": "uint256",
          "name": "taskId",
          "type": "uint256"
        },
        {
          "internalType": "address",
          "name": "worker",
          "type": "address"
        }
      ],
      "name": "assignTask",
      "outputs": [],
      "stateMutability": "nonpayable",
      "type": "function"
    },
    {
      "inputs": [
        {
          "internalType": "uint256",
          "name": "taskId",
          "type": "uint256"
        },
        {
          "internalType": "address",
          "name": "worker",
          "type": "address"
        }
      ],
      "name": "assignWorker",
      "outputs": [],
      "stateMutability": "nonpayable",
      "type": "function"
    },
    {
      "inputs": [
        {
          "internalType": "uint256",
          "name": "taskId",
          "type": "uint256"
        }
      ],
      "name": "completeTask",
      "outputs": [],
      "stateMutability": "nonpayable",
      "type": "function"
    }
  ],
  "bytecode": "0x6080604052600160005534801561001557600080fd5b50611a5a806100256000396000f3fe608060405234801561001057600080fd5b50600436106100625760003560e01c80631d65e77e146100675780635293ee81146100975780637464a25b146100b35780638d977672146100cf578063e1e2955814610107578063e53ec75b14610123575b600080fd5b610081600480360381019061007c9190610e3a565b610153565b60405161008e91906110d9565b60405180910390f35b6100b160048036038101906100ac9190611127565b61046d565b005b6100cd60048036038101906100c89190611127565b6105b5565b005b6100e960048036038101906100e49190610e3a565b61073c565b6040516100fe999897969594939291906111ed565b60405180910390f35b610121600480360381019061011c9190610e3a565b61097c565b005b61013d600480360381019061013891906113e9565b610afb565b60405161014a91906114b8565b60405180910390f35b61015b610d54565b6001600083815260200190815260200160002060405180610120016040529081600082015481526020016001820160009054906101000a900460ff1660018111156101a9576101a8610e76565b5b60018111156101bb576101ba610e76565b5b81526020016001820160019054906101000a900460ff1660028111156101e4576101e3610e76565b5b60028111156101f6576101f5610e76565b5b815260200160028201805461020a90611502565b80601f016020809104026020016040519081016040528092919081815260200182805461023690611502565b80156102835780601f1061025857610100808354040283529160200191610283565b820191906000526020600020905b81548152906001019060200180831161026657829003601f168201915b5050505050815260200160038201805461029c90611502565b80601f01602080910402602001604051908101604052809291908181526020018280546102c890611502565b80156103155780601f106102ea57610100808354040283529160200191610315565b820191906000526020600020905b8154815290600101906020018083116102f857829003601f168201915b5050505050815260200160048201805461032e90611502565b80601f016020809104026020016040519081016040528092919081815260200182805461035a90611502565b80156103a75780601f1061037c576101008083540402835291602001916103a7565b820191906000526020600020905b81548152906001019060200180831161038a57829003601f168201915b50505050508152602001600582015481526020016006820160009054906101000a900473ffffffffffffffffffffffffffffffffffffffff1673ffffffffffffffffffffffffffffffffffffffff1673ffffffffffffffffffffffffffffffffffffffff1681526020016007820160009054906101000a900473ffffffffffffffffffffffffffffffffffffffff1673ffffffffffffffffffffffffffffffffffffffff1673ffffffffffffffffffffffffffffffffffffffff16815250509050919050565b60006001600084815260200190815260200160002090506000600281111561049857610497610e76565b5b8160010160019054906101000a900460ff1660028111156104bc576104bb610e76565b5b146104fc576040517f08c379a00000000000000000000000000000000000000000000000000000000081526004016104f39061157f565b60405180910390fd5b60018160010160016101000a81548160ff0219169083600281111561052457610523610e76565b5b0217905550818160070160006101000a81548173ffffffffffffffffffffffffffffffffffffffff021916908373ffffffffffffffffffffffffffffffffffffffff1602179055508173ffffffffffffffffffffffffffffffffffffffff16837f52476d55ecef5cf13caa64038f297fe6bbf865d9584a98b8722a15a6d5db128f60405160405180910390a3505050565b6000600160008481526020019081526020016000209050600060028111156105e0576105df610e76565b5b8160010160019054906101000a900460ff16600281111561060457610603610e76565b5b1480610644575060028081111561061e5761061d610e76565b5b8160010160019054906101000a900460ff16600281111561064257610641610e76565b5b145b610683576040517f08c379a000000000000000000000000000000000000000000000000000000000815260040161067a90611611565b60405180910390fd5b60008160010160016101000a81548160ff021916908360028111156106ab576106aa610e76565b5b0217905550818160070160006101000a81548173ffffffffffffffffffffffffffffffffffffffff021916908373ffffffffffffffffffffffffffffffffffffffff1602179055508173ffffffffffffffffffffffffffffffffffffffff16837f52476d55ecef5cf13caa64038f297fe6bbf865d9584a98b8722a15a6d5db128f60405160405180910390a3505050565b60016020528060005260406000206000915090508060000154908060010160009054906101000a900460ff16908060010160019054906101000a900460ff169080600201805461078b90611502565b80601f01602080910402602001604051908101604052809291908181526020018280546107b790611502565b80156108045780601f106107d957610100808354040283529160200191610804565b820191906000526020600020905b8154815290600101906020018083116107e757829003601f168201915b50505050509080600301805461081990611502565b80601f016020809104026020016040519081016040528092919081815260200182805461084590611502565b80156108925780601f1061086757610100808354040283529160200191610892565b820191906000526020600020905b81548152906001019060200180831161087557829003601f168201915b5050505050908060040180546108a790611502565b80601f01602080910402602001604051908101604052809291908181526020018280546108d390611502565b80156109205780601f106108f557610100808354040283529160200191610920565b820191906000526020600020905b81548152906001019060200180831161090357829003601f168201915b5050505050908060050154908060060160009054906101000a900473ffffffffffffffffffffffffffffffffffffffff16908060070160009054906101000a900473ffffffffffffffffffffffffffffffffffffffff16905089565b6000600160008381526020019081526020016000209050600160028111156109a7576109a6610e76565b5b8160010160019054906101000a900460ff1660028111156109cb576109ca610e76565b5b14610a0b576040517f08c379a0000000000000000000000000000000000000000000000000000000008152600401610a029061167d565b60405180910390fd5b3373ffffffffffffffffffffffffffffffffffffffff168160070160009054906101000a900473ffffffffffffffffffffffffffffffffffffffff1673ffffffffffffffffffffffffffffffffffffffff1614610a9d576040517f08c379a0000000000000000000000000000000000000000000000000000000008152600401610a949061170f565b60405180910390fd5b60028160010160016101000a81548160ff02191690836002811115610ac557610ac4610e76565b5b0217905550817fc1fa7142cfb933d0855114a3bffde296944c30b727f297c14d0db4d553d3a5c760405160405180910390a25050565b600080600080815480929190610b109061175e565b919050559050604051806101200160405280828152602001886001811115610b3b57610b3a610e76565b5b815260200160006002811115610b5457610b53610e76565b5b81526020018781526020018681526020018581526020018481526020013373ffffffffffffffffffffffffffffffffffffffff168152602001600073ffffffffffffffffffffffffffffffffffffffff16815250600160008381526020019081526020016000206000820151816000015560208201518160010160006101000a81548160ff02191690836001811115610bf057610bef610e76565b5b021790555060408201518160010160016101000a81548160ff02191690836002811115610c2057610c1f610e76565b5b02179055506060820151816002019081610c3a9190611952565b506080820151816003019081610c509190611952565b5060a0820151816004019081610c669190611952565b5060c0820151816005015560e08201518160060160006101000a81548173ffffffffffffffffffffffffffffffffffffffff021916908373ffffffffffffffffffffffffffffffffffffffff1602179055506101008201518160070160006101000a81548173ffffffffffffffffffffffffffffffffffffffff021916908373ffffffffffffffffffffffffffffffffffffffff1602179055509050503373ffffffffffffffffffffffffffffffffffffffff16817fe9ee39160568153d230ca0e29961267415d513defbb7d3b21af0fe940e1ebd1560405160405180910390a38091505095945050505050565b6040518061012001604052806000815260200160006001811115610d7b57610d7a610e76565b5b815260200160006002811115610d9457610d93610e76565b5b815260200160608152602001606081526020016060815260200160008152602001600073ffffffffffffffffffffffffffffffffffffffff168152602001600073ffffffffffffffffffffffffffffffffffffffff1681525090565b6000604051905090565b600080fd5b600080fd5b6000819050919050565b610e1781610e04565b8114610e2257600080fd5b50565b600081359050610e3481610e0e565b92915050565b600060208284031215610e5057610e4f610dfa565b5b6000610e5e84828501610e25565b91505092915050565b610e7081610e04565b82525050565b7f4e487b7100000000000000000000000000000000000000000000000000000000600052602160045260246000fd5b60028110610eb657610eb5610e76565b5b50565b6000819050610ec782610ea5565b919050565b6000610ed782610eb9565b9050919050565b610ee781610ecc565b82525050565b60038110610efe57610efd610e76565b5b50565b6000819050610f0f82610eed565b919050565b6000610f1f82610f01565b9050919050565b610f2f81610f14565b82525050565b600081519050919050565b600082825260208201905092915050565b60005b83811015610f6f578082015181840152602081019050610f54565b60008484015250505050565b6000601f19601f8301169050919050565b6000610f9782610f35565b610fa18185610f40565b9350610fb1818560208601610f51565b610fba81610f7b565b840191505092915050565b600073ffffffffffffffffffffffffffffffffffffffff82169050919050565b6000610ff082610fc5565b9050919050565b61100081610fe5565b82525050565b60006101208301600083015161101f6000860182610e67565b5060208301516110326020860182610ede565b5060408301516110456040860182610f26565b506060830151848203606086015261105d8282610f8c565b915050608083015184820360808601526110778282610f8c565b91505060a083015184820360a08601526110918282610f8c565b91505060c08301516110a660c0860182610e67565b5060e08301516110b960e0860182610ff7565b506101008301516110ce610100860182610ff7565b508091505092915050565b600060208201905081810360008301526110f38184611006565b905092915050565b61110481610fe5565b811461110f57600080fd5b50565b600081359050611121816110fb565b92915050565b6000806040838503121561113e5761113d610dfa565b5b600061114c85828601610e25565b925050602061115d85828601611112565b9150509250929050565b61117081610e04565b82525050565b61117f81610ecc565b82525050565b61118e81610f14565b82525050565b600082825260208201905092915050565b60006111b082610f35565b6111ba8185611194565b93506111ca818560208601610f51565b6111d381610f7b565b840191505092915050565b6111e781610fe5565b82525050565b600061012082019050611203600083018c611167565b611210602083018b611176565b61121d604083018a611185565b818103606083015261122f81896111a5565b9050818103608083015261124381886111a5565b905081810360a083015261125781876111a5565b905061126660c0830186611167565b61127360e08301856111de565b6112816101008301846111de565b9a9950505050505050505050565b6002811061129c57600080fd5b50565b6000813590506112ae8161128f565b92915050565b600080fd5b600080fd5b7f4e487b7100000000000000000000000000000000000000000000000000000000600052604160045260246000fd5b6112f682610f7b565b810181811067ffffffffffffffff82111715611315576113146112be565b5b80604052505050565b6000611328610df0565b905061133482826112ed565b919050565b600067ffffffffffffffff821115611354576113536112be565b5b61135d82610f7b565b9050602081019050919050565b82818337600083830152505050565b600061138c61138784611339565b61131e565b9050828152602081018484840111156113a8576113a76112b9565b5b6113b384828561136a565b509392505050565b600082601f8301126113d0576113cf6112b4565b5b81356113e0848260208601611379565b91505092915050565b600080600080600060a0868803121561140557611404610dfa565b5b60006114138882890161129f565b955050602086013567ffffffffffffffff81111561143457611433610dff565b5b611440888289016113bb565b945050604086013567ffffffffffffffff81111561146157611460610dff565b5b61146d888289016113bb565b935050606086013567ffffffffffffffff81111561148e5761148d610dff565b5b61149a888289016113bb565b92505060806114ab88828901610e25565b9150509295509295909350565b60006020820190506114cd6000830184611167565b92915050565b7f4e487b7100000000000000000000000000000000000000000000000000000000600052602260045260246000fd5b6000600282049050600182168061151a57607f821691505b60208210810361152d5761152c6114d3565b5b50919050565b7f5461736b206973206e6f7420696e2043726561746564207374617475732e0000600082015250565b6000611569601e83611194565b915061157482611533565b602082019050919050565b600060208201905081810360008301526115988161155c565b9050919050565b7f5461736b206d75737420626520696e2043726561746564206f7220547261696e60008201527f696e67436f6d706c65746564207374617475732e000000000000000000000000602082015250565b60006115fb603483611194565b91506116068261159f565b604082019050919050565b6000602082019050818103600083015261162a816115ee565b9050919050565b7f5461736b206973206e6f7420696e2041737369676e6564207374617475732e00600082015250565b6000611667601f83611194565b915061167282611631565b602082019050919050565b600060208201905081810360008301526116968161165a565b9050919050565b7f4f6e6c792061737369676e656420776f726b65722063616e20636f6d706c657460008201527f6520746865207461736b2e000000000000000000000000000000000000000000602082015250565b60006116f9602b83611194565b91506117048261169d565b604082019050919050565b60006020820190508181036000830152611728816116ec565b9050919050565b7f4e487b7100000000000000000000000000000000000000000000000000000000600052601160045260246000fd5b600061176982610e04565b91507fffffffffffffffffffffffffffffffffffffffffffffffffffffffffffffffff820361179b5761179a61172f565b5b600182019050919050565b60008190508160005260206000209050919050565b60006020601f8301049050919050565b600082821b905092915050565b6000600883026118087fffffffffffffffffffffffffffffffffffffffffffffffffffffffffffffffff826117cb565b61181286836117cb565b95508019841693508086168417925050509392505050565b6000819050919050565b600061184f61184a61184584610e04565b61182a565b610e04565b9050919050565b6000819050919050565b61186983611834565b61187d61187582611856565b8484546117d8565b825550505050565b600090565b611892611885565b61189d818484611860565b505050565b5b818110156118c1576118b660008261188a565b6001810190506118a3565b5050565b601f821115611906576118d7816117a6565b6118e0846117bb565b810160208510156118ef578190505b6119036118fb856117bb565b8301826118a2565b50505b505050565b600082821c905092915050565b60006119296000198460080261190b565b1980831691505092915050565b60006119428383611918565b9150826002028217905092915050565b61195b82610f35565b67ffffffffffffffff811115611974576119736112be565b5b61197e8254611502565b6119898282856118c5565b600060209050601f8311600181146119bc57600084156119aa578287015190505b6119b48582611936565b865550611a1c565b601f1984166119ca866117a6565b60005b828110156119f2578489015182556001820191506020850194506020810190506119cd565b86831015611a0f5784890151611a0b601f891682611918565b8355505b6001600288020188555050505b50505050505056fea2646970667358221220fa47fcc5e770c1ba72faf91c3e7a8b3fde19388a7e1e68e566a3f5c00f7cef8b64736f6c63430008130033",
  "immutableReferences": {},
  "source": "// SPDX-License-Identifier: MIT\r\npragma solidity ^0.8.0;\r\n\r\nimport \"./SharedStructs.sol\";\r\n\r\ncontract Task {\r\n    uint256 private nextTaskId = 1;\r\n    mapping(uint256 => SharedStructs.TaskInfo) public tasks;\r\n\r\n    event TaskCreated(uint256 indexed taskId, address indexed creator);\r\n    event TaskAssigned(uint256 indexed taskId, address indexed worker);\r\n    event TaskCompleted(uint256 indexed taskId);\r\n\r\n    function createTask(\r\n        SharedStructs.TaskType taskType,\r\n        string memory modelUrl,\r\n        string memory trainDataUrl,\r\n        string memory validateDataUrl,\r\n        uint256 requiredPower\r\n    ) public returns (uint256) {\r\n        uint256 taskId = nextTaskId++;\r\n        tasks[taskId] = SharedStructs.TaskInfo(\r\n            taskId,\r\n            taskType,\r\n            SharedStructs.TaskStatus.Created,\r\n            modelUrl,\r\n            trainDataUrl,\r\n            validateDataUrl,\r\n            requiredPower,\r\n            msg.sender,\r\n            address(0)\r\n        );\r\n        emit TaskCreated(taskId, msg.sender);\r\n        return taskId;\r\n    }\r\n\r\n    function getTask(\r\n        uint256 taskId\r\n    ) public view returns (SharedStructs.TaskInfo memory) {\r\n        return tasks[taskId];\r\n    }\r\n\r\n    function assignTask(uint256 taskId, address worker) public {\r\n        SharedStructs.TaskInfo storage task = tasks[taskId];\r\n        require(\r\n            task.status == SharedStructs.TaskStatus.Created,\r\n            \"Task is not in Created status.\"\r\n        );\r\n        task.status = SharedStructs.TaskStatus.Assigned;\r\n        task.worker = worker;\r\n        emit TaskAssigned(taskId, worker);\r\n    }\r\n\r\n    function assignWorker(uint256 taskId, address worker) external {\r\n        // Only allow the Marketplace contract to call this function\r\n        SharedStructs.TaskInfo storage task = tasks[taskId];\r\n        require(\r\n            task.status == SharedStructs.TaskStatus.Created ||\r\n                task.status == SharedStructs.TaskStatus.Completed,\r\n            \"Task must be in Created or TrainingCompleted status.\"\r\n        );\r\n        task.status = SharedStructs.TaskStatus.Created;\r\n        task.worker = worker;\r\n        emit TaskAssigned(taskId, worker);\r\n    }\r\n\r\n    function completeTask(uint256 taskId) public {\r\n        SharedStructs.TaskInfo storage task = tasks[taskId];\r\n        require(\r\n            task.status == SharedStructs.TaskStatus.Assigned,\r\n            \"Task is not in Assigned status.\"\r\n        );\r\n        require(\r\n            task.worker == msg.sender,\r\n            \"Only assigned worker can complete the task.\"\r\n        );\r\n        task.status = SharedStructs.TaskStatus.Completed;\r\n        emit TaskCompleted(taskId);\r\n    }\r\n}\r\n",
  "sourcePath": "D:\\workspace\\ApexHackthon\\contracts\\Task.sol",
  "compiler": {
    "name": "solc",
    "version": "0.8.19+commit.7dd6d404.Emscripten.clang"
  },
  "schemaVersion": "3.4.13",
  "updatedAt": "2023-04-25T14:52:54.241Z",
  "devdoc": {
    "kind": "dev",
    "methods": {},
    "version": 1
  },
  "userdoc": {
    "kind": "user",
    "methods": {},
    "version": 1
  }
}